{
  "address": "0xB22dB11bBB52ffCb45d832390829Ba67214C6fAa",
  "abi": [
    {
      "inputs": [
        {
          "internalType": "address",
          "name": "factory",
          "type": "address"
        },
        {
          "internalType": "address",
          "name": "submitter",
          "type": "address"
        },
        {
          "internalType": "string",
          "name": "title",
          "type": "string"
        }
      ],
      "name": "addressOfPropoal",
      "outputs": [
        {
          "internalType": "address",
          "name": "govAddress",
          "type": "address"
        }
      ],
      "stateMutability": "pure",
      "type": "function"
    }
  ],
  "transactionHash": "0xdbcba52f4cc9ccd2334e441e6e422248e06ea66c8f1183d45228ee19e7ddea36",
  "args": [],
  "solcInputHash": "c768d7d0d3c4589eff35419dd67a5ae3",
  "bytecode": "0x611367610026600b82828239805160001a60731461001957fe5b30600052607381538281f3fe730000000000000000000000000000000000000000301460806040526004361061007c5760003560e01c80638851debd1161005a5780638851debd1461034957806396660a941461038f578063c8b3a99f146103e75761007c565b80631500cfba1461008157806326740ac01461023557806385efa54c14610301575b600080fd5b81801561008d57600080fd5b5061020c60048036036101208110156100a557600080fd5b73ffffffffffffffffffffffffffffffffffffffff82351691908101906040810160208201356401000000008111156100dd57600080fd5b8201836020820111156100ef57600080fd5b8035906020019184600183028401116401000000008311171561011157600080fd5b91908080601f016020809104026020016040519081016040528093929190818152602001838380828437600092019190915250929594936020810193503591505064010000000081111561016457600080fd5b82018360208201111561017657600080fd5b8035906020019184600183028401116401000000008311171561019857600080fd5b91908080601f0160208091040260200160405190810160405280939291908181526020018383808284376000920191909152509295505082359350505060208101359060408101359060608101359060808101359060a0013573ffffffffffffffffffffffffffffffffffffffff1661044f565b6040805173ffffffffffffffffffffffffffffffffffffffff9092168252519081900360200190f35b61020c6004803603606081101561024b57600080fd5b73ffffffffffffffffffffffffffffffffffffffff823581169260208101359091169181019060608101604082013564010000000081111561028c57600080fd5b82018360208201111561029e57600080fd5b803590602001918460018302840111640100000000831117156102c057600080fd5b91908080601f0160208091040260200160405190810160405280939291908181526020018383808284376000920191909152509295506105ed945050505050565b81801561030d57600080fd5b506103476004803603604081101561032457600080fd5b5073ffffffffffffffffffffffffffffffffffffffff813516906020013561073f565b005b81801561035557600080fd5b506103476004803603604081101561036c57600080fd5b5073ffffffffffffffffffffffffffffffffffffffff81351690602001356109a4565b81801561039b57600080fd5b5061020c600480360360808110156103b257600080fd5b5073ffffffffffffffffffffffffffffffffffffffff8135811691602081013582169160408201358116916060013516610c03565b8180156103f357600080fd5b50610347600480360360c081101561040a57600080fd5b5073ffffffffffffffffffffffffffffffffffffffff8135811691602081013582169160408201358116916060810135821691608082013581169160a0013516611005565b60008973ffffffffffffffffffffffffffffffffffffffff16634ff8f07e8a8a8a8a8a8a8a8a6040518963ffffffff1660e01b81526004018080602001806020018981526020018881526020018781526020018681526020018581526020018473ffffffffffffffffffffffffffffffffffffffff16815260200183810383528b818151815260200191508051906020019080838360005b838110156104ff5781810151838201526020016104e7565b50505050905090810190601f16801561052c5780820380516001836020036101000a031916815260200191505b5083810382528a5181528a516020918201918c019080838360005b8381101561055f578181015183820152602001610547565b50505050905090810190601f16801561058c5780820380516001836020036101000a031916815260200191505b509a5050505050505050505050602060405180830381600087803b1580156105b357600080fd5b505af11580156105c7573d6000803e3d6000fd5b505050506040513d60208110156105dd57600080fd5b50519a9950505050505050505050565b6000838383604051602001808373ffffffffffffffffffffffffffffffffffffffff1660601b815260140182805190602001908083835b6020831061066157805182527fffffffffffffffffffffffffffffffffffffffffffffffffffffffffffffffe09092019160209182019101610624565b6001836020036101000a038019825116818451168082178552505050505050905001925050506040516020818303038152906040528051906020012060405160200180807fff000000000000000000000000000000000000000000000000000000000000008152506001018373ffffffffffffffffffffffffffffffffffffffff1660601b8152601401828152602001807f74f827a6bb3b7ed4cd86bd3c09b189a9496bc40d83635649e1e4df1c4e836ebf815250602001925050506040516020818303038152906040528051906020012060001c90509392505050565b60005b8273ffffffffffffffffffffffffffffffffffffffff1663f68ee90e60006040518263ffffffff1660e01b81526004018082815260200191505060206040518083038186803b15801561079457600080fd5b505afa1580156107a8573d6000803e3d6000fd5b505050506040513d60208110156107be57600080fd5b505181101561099f5760008373ffffffffffffffffffffffffffffffffffffffff1663740ec99e6000846040518363ffffffff1660e01b8152600401808381526020018281526020019250505060206040518083038186803b15801561082357600080fd5b505afa158015610837573d6000803e3d6000fd5b505050506040513d602081101561084d57600080fd5b5051604080517efdd58e00000000000000000000000000000000000000000000000000000000815273ffffffffffffffffffffffffffffffffffffffff8084166004830152600060248301819052925193945091929187169162fdd58e91604480820192602092909190829003018186803b1580156108cb57600080fd5b505afa1580156108df573d6000803e3d6000fd5b505050506040513d60208110156108f557600080fd5b5051604080517f156e29f600000000000000000000000000000000000000000000000000000000815273ffffffffffffffffffffffffffffffffffffffff8581166004830152602482018890526044820184905291519293509087169163156e29f69160648082019260009290919082900301818387803b15801561097957600080fd5b505af115801561098d573d6000803e3d6000fd5b50506001909401935061074292505050565b505050565b60005b8273ffffffffffffffffffffffffffffffffffffffff1663f68ee90e60006040518263ffffffff1660e01b81526004018082815260200191505060206040518083038186803b1580156109f957600080fd5b505afa158015610a0d573d6000803e3d6000fd5b505050506040513d6020811015610a2357600080fd5b505181101561099f5760008373ffffffffffffffffffffffffffffffffffffffff1663740ec99e6000846040518363ffffffff1660e01b8152600401808381526020018281526020019250505060206040518083038186803b158015610a8857600080fd5b505afa158015610a9c573d6000803e3d6000fd5b505050506040513d6020811015610ab257600080fd5b5051604080517efdd58e00000000000000000000000000000000000000000000000000000000815273ffffffffffffffffffffffffffffffffffffffff80841660048301526024820187905291519293506000929187169162fdd58e91604480820192602092909190829003018186803b158015610b2f57600080fd5b505afa158015610b43573d6000803e3d6000fd5b505050506040513d6020811015610b5957600080fd5b5051604080517ff5298aca00000000000000000000000000000000000000000000000000000000815273ffffffffffffffffffffffffffffffffffffffff8581166004830152602482018890526044820184905291519293509087169163f5298aca9160648082019260009290919082900301818387803b158015610bdd57600080fd5b505af1158015610bf1573d6000803e3d6000fd5b5050600190940193506109a792505050565b6000808273ffffffffffffffffffffffffffffffffffffffff16634258292f6040518163ffffffff1660e01b815260040160206040518083038186803b158015610c4c57600080fd5b505afa158015610c60573d6000803e3d6000fd5b505050506040513d6020811015610c7657600080fd5b810190808051906020019092919050505090506060806000806000806000808873ffffffffffffffffffffffffffffffffffffffff166373d4a13a6040518163ffffffff1660e01b815260040160006040518083038186803b158015610cdb57600080fd5b505afa158015610cef573d6000803e3d6000fd5b505050506040513d6000823e601f3d9081017fffffffffffffffffffffffffffffffffffffffffffffffffffffffffffffffe0168201604052610100811015610d3757600080fd5b8101908080516040519392919084640100000000821115610d5757600080fd5b908301906020820185811115610d6c57600080fd5b8251640100000000811182820188101715610d8657600080fd5b82525081516020918201929091019080838360005b83811015610db3578181015183820152602001610d9b565b50505050905090810190601f168015610de05780820380516001836020036101000a031916815260200191505b5060405260200180516040519392919084640100000000821115610e0357600080fd5b908301906020820185811115610e1857600080fd5b8251640100000000811182820188101715610e3257600080fd5b82525081516020918201929091019080838360005b83811015610e5f578181015183820152602001610e47565b50505050905090810190601f168015610e8c5780820380516001836020036101000a031916815260200191505b5060405260200180519060200190929190805190602001909291908051906020019092919080519060200190929190805190602001909291908051906020019092919050505097509750975097509750975097509750610ef38d898989898989898961044f565b9950610ff4308f8e8e73ffffffffffffffffffffffffffffffffffffffff166302d05d3f6040518163ffffffff1660e01b815260040160206040518083038186803b158015610f4157600080fd5b505afa158015610f55573d6000803e3d6000fd5b505050506040513d6020811015610f6b57600080fd5b81019080805190602001909291905050508f73ffffffffffffffffffffffffffffffffffffffff1663041ae8806040518163ffffffff1660e01b815260040160206040518083038186803b158015610fc257600080fd5b505afa158015610fd6573d6000803e3d6000fd5b505050506040513d6020811015610fec57600080fd5b50518f611005565b505050505050505050949350505050565b8473ffffffffffffffffffffffffffffffffffffffff1663a7fc7a07826040518263ffffffff1660e01b8152600401808273ffffffffffffffffffffffffffffffffffffffff168152602001915050600060405180830381600087803b15801561106e57600080fd5b505af1158015611082573d6000803e3d6000fd5b505050508573ffffffffffffffffffffffffffffffffffffffff1663a7fc7a07826040518263ffffffff1660e01b8152600401808273ffffffffffffffffffffffffffffffffffffffff168152602001915050600060405180830381600087803b1580156110ef57600080fd5b505af1158015611103573d6000803e3d6000fd5b505050508073ffffffffffffffffffffffffffffffffffffffff1663d104f8f5866040518263ffffffff1660e01b8152600401808273ffffffffffffffffffffffffffffffffffffffff168152602001915050600060405180830381600087803b15801561117057600080fd5b505af1158015611184573d6000803e3d6000fd5b505050508073ffffffffffffffffffffffffffffffffffffffff1663c42cf535876040518263ffffffff1660e01b8152600401808273ffffffffffffffffffffffffffffffffffffffff168152602001915050600060405180830381600087803b1580156111f157600080fd5b505af1158015611205573d6000803e3d6000fd5b505050508073ffffffffffffffffffffffffffffffffffffffff16639277a185856040518263ffffffff1660e01b8152600401808273ffffffffffffffffffffffffffffffffffffffff168152602001915050600060405180830381600087803b15801561127257600080fd5b505af1158015611286573d6000803e3d6000fd5b505050508073ffffffffffffffffffffffffffffffffffffffff16632449ef5184846040518363ffffffff1660e01b8152600401808373ffffffffffffffffffffffffffffffffffffffff1681526020018273ffffffffffffffffffffffffffffffffffffffff16815260200192505050600060405180830381600087803b15801561131157600080fd5b505af1158015611325573d6000803e3d6000fd5b5050505050505050505056fea26469706673582212207dcb6365175a0bccc436d0ba4aac274399c644e26e33f94da0e32caf610d4d1f64736f6c63430007030033",
  "devdoc": {
    "kind": "dev",
    "methods": {
      "associatePool(address,address,address,address,address,address)": {
        "details": "associate the pool with its relations"
      },
      "createPool(address,string,string,uint256,uint256,uint256,uint256,uint256,address)": {
        "details": "create a new pool"
      },
      "createProposalVoteTokens(address,uint256)": {
        "details": "create vote tokens to vote on given proposal"
      },
      "destroyProposalVoteTokens(address,uint256)": {
        "details": "destroy the vote tokens for the given proposal"
      },
      "execute(address,address,address,address)": {
        "details": "execute craete pool proposal"
      }
    },
    "version": 1
  },
  "userdoc": {
    "kind": "user",
    "methods": {},
    "version": 1
  },
  "storageLayout": {
    "storage": [],
    "types": null
  }
}