{
  "address": "0xcb66dc8044bB7108b781D10d17Aa8577bDCFF400",
  "abi": [
    {
      "inputs": [],
      "stateMutability": "nonpayable",
      "type": "constructor"
    },
    {
      "anonymous": false,
      "inputs": [
        {
          "indexed": true,
          "internalType": "address",
          "name": "proposal",
          "type": "address"
        },
        {
          "indexed": true,
          "internalType": "address",
          "name": "token",
          "type": "address"
        },
        {
          "indexed": false,
          "internalType": "bool",
          "name": "isBanned",
          "type": "bool"
        }
      ],
      "name": "AllowList",
      "type": "event"
    },
    {
      "anonymous": false,
      "inputs": [
        {
          "indexed": true,
          "internalType": "address",
          "name": "contractAddress",
          "type": "address"
        },
        {
          "indexed": true,
          "internalType": "address",
          "name": "controllerAddress",
          "type": "address"
        }
      ],
      "name": "ControllerAdded",
      "type": "event"
    },
    {
      "anonymous": false,
      "inputs": [
        {
          "indexed": true,
          "internalType": "address",
          "name": "contractAddress",
          "type": "address"
        },
        {
          "indexed": true,
          "internalType": "address",
          "name": "controllerAddress",
          "type": "address"
        }
      ],
      "name": "ControllerRemoved",
      "type": "event"
    },
    {
      "anonymous": false,
      "inputs": [
        {
          "indexed": true,
          "internalType": "address",
          "name": "proposal",
          "type": "address"
        },
        {
          "indexed": true,
          "internalType": "address",
          "name": "token",
          "type": "address"
        },
        {
          "indexed": false,
          "internalType": "uint256",
          "name": "newFee",
          "type": "uint256"
        }
      ],
      "name": "FeeUpdated",
      "type": "event"
    },
    {
      "anonymous": false,
      "inputs": [
        {
          "indexed": true,
          "internalType": "address",
          "name": "receiver",
          "type": "address"
        },
        {
          "indexed": false,
          "internalType": "uint256",
          "name": "amount",
          "type": "uint256"
        }
      ],
      "name": "GovernanceTokenIssued",
      "type": "event"
    },
    {
      "anonymous": false,
      "inputs": [
        {
          "indexed": true,
          "internalType": "address",
          "name": "proposal",
          "type": "address"
        },
        {
          "indexed": true,
          "internalType": "address",
          "name": "receiver",
          "type": "address"
        },
        {
          "indexed": false,
          "internalType": "uint256",
          "name": "received",
          "type": "uint256"
        }
      ],
      "name": "ProjectFunded",
      "type": "event"
    },
    {
      "anonymous": false,
      "inputs": [
        {
          "indexed": true,
          "internalType": "address",
          "name": "proposal",
          "type": "address"
        },
        {
          "indexed": true,
          "internalType": "address",
          "name": "pool",
          "type": "address"
        },
        {
          "indexed": false,
          "internalType": "string",
          "name": "symbol",
          "type": "string"
        },
        {
          "indexed": false,
          "internalType": "string",
          "name": "name",
          "type": "string"
        },
        {
          "indexed": false,
          "internalType": "uint256",
          "name": "ethPrice",
          "type": "uint256"
        },
        {
          "indexed": false,
          "internalType": "uint256",
          "name": "minTime",
          "type": "uint256"
        },
        {
          "indexed": false,
          "internalType": "uint256",
          "name": "maxTime",
          "type": "uint256"
        },
        {
          "indexed": false,
          "internalType": "uint256",
          "name": "diffStep",
          "type": "uint256"
        },
        {
          "indexed": false,
          "internalType": "uint256",
          "name": "maxClaims",
          "type": "uint256"
        },
        {
          "indexed": false,
          "internalType": "address",
          "name": "alllowedToken",
          "type": "address"
        }
      ],
      "name": "StakingPoolCreated",
      "type": "event"
    },
    {
      "inputs": [
        {
          "internalType": "address",
          "name": "_controller",
          "type": "address"
        }
      ],
      "name": "addController",
      "outputs": [],
      "stateMutability": "nonpayable",
      "type": "function"
    },
    {
      "inputs": [
        {
          "internalType": "address",
          "name": "submitter",
          "type": "address"
        },
        {
          "internalType": "string",
          "name": "title",
          "type": "string"
        },
        {
          "internalType": "address",
          "name": "token",
          "type": "address"
        },
        {
          "internalType": "address",
          "name": "pool",
          "type": "address"
        },
        {
          "internalType": "uint256",
          "name": "feeDivisor",
          "type": "uint256"
        }
      ],
      "name": "createChangeFeeProposal",
      "outputs": [
        {
          "internalType": "address",
          "name": "proposal",
          "type": "address"
        }
      ],
      "stateMutability": "nonpayable",
      "type": "function"
    },
    {
      "inputs": [
        {
          "internalType": "address",
          "name": "submitter",
          "type": "address"
        },
        {
          "internalType": "string",
          "name": "title",
          "type": "string"
        },
        {
          "internalType": "address",
          "name": "receiver",
          "type": "address"
        },
        {
          "internalType": "string",
          "name": "descriptionUrl",
          "type": "string"
        },
        {
          "internalType": "uint256",
          "name": "ethAmount",
          "type": "uint256"
        }
      ],
      "name": "createFundProjectProposal",
      "outputs": [
        {
          "internalType": "address",
          "name": "proposal",
          "type": "address"
        }
      ],
      "stateMutability": "nonpayable",
      "type": "function"
    },
    {
      "inputs": [
        {
          "internalType": "address",
          "name": "submitter",
          "type": "address"
        },
        {
          "internalType": "string",
          "name": "title",
          "type": "string"
        },
        {
          "internalType": "string",
          "name": "symbol",
          "type": "string"
        },
        {
          "internalType": "string",
          "name": "name",
          "type": "string"
        },
        {
          "internalType": "uint256",
          "name": "ethPrice",
          "type": "uint256"
        },
        {
          "internalType": "uint256",
          "name": "minTIme",
          "type": "uint256"
        },
        {
          "internalType": "uint256",
          "name": "maxTime",
          "type": "uint256"
        },
        {
          "internalType": "uint256",
          "name": "diffStep",
          "type": "uint256"
        },
        {
          "internalType": "uint256",
          "name": "maxClaims",
          "type": "uint256"
        },
        {
          "internalType": "address",
          "name": "allowedToken",
          "type": "address"
        }
      ],
      "name": "createNewPoolProposal",
      "outputs": [
        {
          "internalType": "address",
          "name": "proposal",
          "type": "address"
        }
      ],
      "stateMutability": "nonpayable",
      "type": "function"
    },
    {
      "inputs": [
        {
          "internalType": "string",
          "name": "symbol",
          "type": "string"
        },
        {
          "internalType": "string",
          "name": "name",
          "type": "string"
        },
        {
          "internalType": "uint256",
          "name": "ethPrice",
          "type": "uint256"
        },
        {
          "internalType": "uint256",
          "name": "minTime",
          "type": "uint256"
        },
        {
          "internalType": "uint256",
          "name": "maxTime",
          "type": "uint256"
        },
        {
          "internalType": "uint256",
          "name": "diffstep",
          "type": "uint256"
        },
        {
          "internalType": "uint256",
          "name": "maxClaims",
          "type": "uint256"
        },
        {
          "internalType": "address",
          "name": "allowedToken",
          "type": "address"
        }
      ],
      "name": "createPool",
      "outputs": [
        {
          "internalType": "address",
          "name": "pool",
          "type": "address"
        }
      ],
      "stateMutability": "nonpayable",
      "type": "function"
    },
    {
      "inputs": [
        {
          "internalType": "uint256",
          "name": "proposalHash",
          "type": "uint256"
        }
      ],
      "name": "createProposalVoteTokens",
      "outputs": [],
      "stateMutability": "nonpayable",
      "type": "function"
    },
    {
      "inputs": [
        {
          "internalType": "string",
          "name": "symbol",
          "type": "string"
        },
        {
          "internalType": "string",
          "name": "name",
          "type": "string"
        },
        {
          "internalType": "uint256",
          "name": "ethPrice",
          "type": "uint256"
        },
        {
          "internalType": "uint256",
          "name": "minTime",
          "type": "uint256"
        },
        {
          "internalType": "uint256",
          "name": "maxTime",
          "type": "uint256"
        },
        {
          "internalType": "uint256",
          "name": "diffstep",
          "type": "uint256"
        },
        {
          "internalType": "uint256",
          "name": "maxClaims",
          "type": "uint256"
        },
        {
          "internalType": "address",
          "name": "allowedToken",
          "type": "address"
        }
      ],
      "name": "createSystemPool",
      "outputs": [
        {
          "internalType": "address",
          "name": "pool",
          "type": "address"
        }
      ],
      "stateMutability": "nonpayable",
      "type": "function"
    },
    {
      "inputs": [
        {
          "internalType": "address",
          "name": "submitter",
          "type": "address"
        },
        {
          "internalType": "string",
          "name": "title",
          "type": "string"
        },
        {
          "internalType": "address",
          "name": "token",
          "type": "address"
        },
        {
          "internalType": "address",
          "name": "pool",
          "type": "address"
        },
        {
          "internalType": "bool",
          "name": "newStatus",
          "type": "bool"
        }
      ],
      "name": "createUpdateAllowlistProposal",
      "outputs": [
        {
          "internalType": "address",
          "name": "proposal",
          "type": "address"
        }
      ],
      "stateMutability": "nonpayable",
      "type": "function"
    },
    {
      "inputs": [
        {
          "internalType": "uint256",
          "name": "proposalHash",
          "type": "uint256"
        }
      ],
      "name": "destroyProposalVoteTokens",
      "outputs": [],
      "stateMutability": "nonpayable",
      "type": "function"
    },
    {
      "inputs": [
        {
          "internalType": "address",
          "name": "propAddress",
          "type": "address"
        }
      ],
      "name": "executeProposal",
      "outputs": [
        {
          "internalType": "address",
          "name": "newPool",
          "type": "address"
        }
      ],
      "stateMutability": "nonpayable",
      "type": "function"
    },
    {
      "inputs": [
        {
          "internalType": "address",
          "name": "_multitoken",
          "type": "address"
        },
        {
          "internalType": "address",
          "name": "_factory",
          "type": "address"
        },
        {
          "internalType": "address",
          "name": "_feeTracker",
          "type": "address"
        },
        {
          "internalType": "address",
          "name": "_proposalFactory",
          "type": "address"
        }
      ],
      "name": "initialize",
      "outputs": [],
      "stateMutability": "nonpayable",
      "type": "function"
    },
    {
      "inputs": [
        {
          "internalType": "address",
          "name": "_address",
          "type": "address"
        }
      ],
      "name": "isController",
      "outputs": [
        {
          "internalType": "bool",
          "name": "allowed",
          "type": "bool"
        }
      ],
      "stateMutability": "view",
      "type": "function"
    },
    {
      "inputs": [
        {
          "internalType": "address",
          "name": "receiver",
          "type": "address"
        },
        {
          "internalType": "uint256",
          "name": "amount",
          "type": "uint256"
        }
      ],
      "name": "issueFuelToken",
      "outputs": [
        {
          "internalType": "uint256",
          "name": "",
          "type": "uint256"
        }
      ],
      "stateMutability": "nonpayable",
      "type": "function"
    },
    {
      "inputs": [
        {
          "internalType": "address",
          "name": "receiver",
          "type": "address"
        }
      ],
      "name": "issueInitialGovernanceTokens",
      "outputs": [
        {
          "internalType": "uint256",
          "name": "",
          "type": "uint256"
        }
      ],
      "stateMutability": "nonpayable",
      "type": "function"
    },
    {
      "inputs": [
        {
          "internalType": "address",
          "name": "receiver",
          "type": "address"
        }
      ],
      "name": "maybeIssueGovernanceToken",
      "outputs": [
        {
          "internalType": "uint256",
          "name": "",
          "type": "uint256"
        }
      ],
      "stateMutability": "nonpayable",
      "type": "function"
    },
    {
      "inputs": [],
      "name": "relinquishControl",
      "outputs": [],
      "stateMutability": "view",
      "type": "function"
    }
  ],
  "transactionHash": "0xf56a2b2ad246aa1b86cd348ad1bd3d571baa51c1736347209a2e4e9683ba32e1",
  "args": [],
  "solcInputHash": "c768d7d0d3c4589eff35419dd67a5ae3",
  "bytecode": "0x60806040526200002160016000196200004360201b62001f191790919060201c565b6006553480156200003157600080fd5b506200003d33620000a1565b620000c8565b6000828211156200009b576040805162461bcd60e51b815260206004820152601e60248201527f536166654d6174683a207375627472616374696f6e206f766572666c6f770000604482015290519081900360640190fd5b50900390565b6001600160a01b03166000908152600160208190526040909120805460ff19169091179055565b6123b480620000d86000396000f3fe608060405234801561001057600080fd5b50600436106101005760003560e01c8063afc9350511610097578063e1c28bef11610066578063e1c28bef1461099c578063e4439785146109a4578063ea40a7a4146109ca578063f8c8765e146109f657610100565b8063afc9350514610725578063b429afeb14610875578063dac7f24d146108af578063e1431945146108cc57610100565b806377fa7d98116100d357806377fa7d981461039a5780638dbf88c8146104ee578063a67a03ab146106d9578063a7fc7a07146106ff57610100565b80631e4ad6a2146101055780632866519d14610124578063634b5b7d146102945780636e3c7c7f146102cc575b600080fd5b6101226004803603602081101561011b57600080fd5b5035610a34565b005b610278600480360361010081101561013b57600080fd5b81019060208101813564010000000081111561015657600080fd5b82018360208201111561016857600080fd5b8035906020019184600183028401116401000000008311171561018a57600080fd5b91908080601f01602080910402602001604051908101604052809392919081815260200183838082843760009201919091525092959493602081019350359150506401000000008111156101dd57600080fd5b8201836020820111156101ef57600080fd5b8035906020019184600183028401116401000000008311171561021157600080fd5b91908080601f0160208091040260200160405190810160405280939291908181526020018383808284376000920191909152509295505082359350505060208101359060408101359060608101359060808101359060a001356001600160a01b0316610b2a565b604080516001600160a01b039092168252519081900360200190f35b6102ba600480360360208110156102aa57600080fd5b50356001600160a01b0316610df2565b60408051918252519081900360200190f35b610278600480360360a08110156102e257600080fd5b6001600160a01b03823516919081019060408101602082013564010000000081111561030d57600080fd5b82018360208201111561031f57600080fd5b8035906020019184600183028401116401000000008311171561034157600080fd5b91908080601f016020809104026020016040519081016040528093929190818152602001838380828437600092019190915250929550506001600160a01b03833581169450602084013516926040013591506110229050565b61027860048036036101008110156103b157600080fd5b8101906020810181356401000000008111156103cc57600080fd5b8201836020820111156103de57600080fd5b8035906020019184600183028401116401000000008311171561040057600080fd5b91908080601f016020809104026020016040519081016040528093929190818152602001838380828437600092019190915250929594936020810193503591505064010000000081111561045357600080fd5b82018360208201111561046557600080fd5b8035906020019184600183028401116401000000008311171561048757600080fd5b91908080601f0160208091040260200160405190810160405280939291908181526020018383808284376000920191909152509295505082359350505060208101359060408101359060608101359060808101359060a001356001600160a01b03166110f4565b610278600480360361014081101561050557600080fd5b6001600160a01b03823516919081019060408101602082013564010000000081111561053057600080fd5b82018360208201111561054257600080fd5b8035906020019184600183028401116401000000008311171561056457600080fd5b91908080601f01602080910402602001604051908101604052809392919081815260200183838082843760009201919091525092959493602081019350359150506401000000008111156105b757600080fd5b8201836020820111156105c957600080fd5b803590602001918460018302840111640100000000831117156105eb57600080fd5b91908080601f016020809104026020016040519081016040528093929190818152602001838380828437600092019190915250929594936020810193503591505064010000000081111561063e57600080fd5b82018360208201111561065057600080fd5b8035906020019184600183028401116401000000008311171561067257600080fd5b91908080601f0160208091040260200160405190810160405280939291908181526020018383808284376000920191909152509295505082359350505060208101359060408101359060608101359060808101359060a001356001600160a01b03166114b0565b610278600480360360208110156106ef57600080fd5b50356001600160a01b0316611664565b6101226004803603602081101561071557600080fd5b50356001600160a01b0316611774565b610278600480360360a081101561073b57600080fd5b6001600160a01b03823516919081019060408101602082013564010000000081111561076657600080fd5b82018360208201111561077857600080fd5b8035906020019184600183028401116401000000008311171561079a57600080fd5b91908080601f01602080910402602001604051908101604052809392919081815260200183838082843760009201919091525092956001600160a01b038535169590949093506040810192506020013590506401000000008111156107fe57600080fd5b82018360208201111561081057600080fd5b8035906020019184600183028401116401000000008311171561083257600080fd5b91908080601f0160208091040260200160405190810160405280939291908181526020018383808284376000920191909152509295505091359250611817915050565b61089b6004803603602081101561088b57600080fd5b50356001600160a01b0316611935565b604080519115158252519081900360200190f35b610122600480360360208110156108c557600080fd5b5035611953565b610278600480360360a08110156108e257600080fd5b6001600160a01b03823516919081019060408101602082013564010000000081111561090d57600080fd5b82018360208201111561091f57600080fd5b8035906020019184600183028401116401000000008311171561094157600080fd5b91908080601f016020809104026020016040519081016040528093929190818152602001838380828437600092019190915250929550506001600160a01b03833581169450602084013516926040013515159150611a2e9050565b610122611b07565b6102ba600480360360208110156109ba57600080fd5b50356001600160a01b0316611b70565b6102ba600480360360408110156109e057600080fd5b506001600160a01b038135169060200135611cca565b61012260048036036080811015610a0c57600080fd5b506001600160a01b038135811691602081013582169160408201358116916060013516611dba565b3360009081526001602081905260409091205460ff1615151480610a5757503033145b610a925760405162461bcd60e51b81526004018080602001828103825260288152602001806123576028913960400191505060405180910390fd5b600254604080517f85efa54c0000000000000000000000000000000000000000000000000000000081526001600160a01b039092166004830152602482018390525173B22dB11bBB52ffCb45d832390829Ba67214C6fAa916385efa54c916044808301926000929190829003018186803b158015610b0f57600080fd5b505af4158015610b23573d6000803e3d6000fd5b5050505050565b33600090815260016020819052604082205460ff1615151480610b4c57503033145b610b875760405162461bcd60e51b81526004018080602001828103825260288152602001806123576028913960400191505060405180910390fd5b73B22dB11bBB52ffCb45d832390829Ba67214C6fAa631500cfba600360009054906101000a90046001600160a01b03168b8b8b8b8b8b8b8b6040518a63ffffffff1660e01b8152600401808a6001600160a01b031681526020018060200180602001898152602001888152602001878152602001868152602001858152602001846001600160a01b0316815260200183810383528b818151815260200191508051906020019080838360005b83811015610c4b578181015183820152602001610c33565b50505050905090810190601f168015610c785780820380516001836020036101000a031916815260200191505b5083810382528a5181528a516020918201918c019080838360005b83811015610cab578181015183820152602001610c93565b50505050905090810190601f168015610cd85780820380516001836020036101000a031916815260200191505b509b50505050505050505050505060206040518083038186803b158015610cfe57600080fd5b505af4158015610d12573d6000803e3d6000fd5b505050506040513d6020811015610d2857600080fd5b505160025460048054604080517fc8b3a99f00000000000000000000000000000000000000000000000000000000815230938101939093526001600160a01b03938416602484015290831660448301523360648301819052608483015291831660a4820152905191925073B22dB11bBB52ffCb45d832390829Ba67214C6fAa9163c8b3a99f9160c480820192600092909190829003018186803b158015610dce57600080fd5b505af4158015610de2573d6000803e3d6000fd5b5050505098975050505050505050565b33600090815260016020819052604082205460ff1615151480610e1457503033145b610e4f5760405162461bcd60e51b81526004018080602001828103825260288152602001806123576028913960400191505060405180910390fd5b600254604080517fed7aae2b000000000000000000000000000000000000000000000000000000008152600060048201819052915191926001600160a01b03169163ed7aae2b91602480820192602092909190829003018186803b158015610eb657600080fd5b505afa158015610eca573d6000803e3d6000fd5b505050506040513d6020811015610ee057600080fd5b50519050620f42408110610ef857600091505061101d565b610f0a836001600160a01b0316611f76565b1561101b57600254604080517f156e29f60000000000000000000000000000000000000000000000000000000081526001600160a01b03868116600483015260006024830181905260016044840152925193169263156e29f69260648084019391929182900301818387803b158015610f8257600080fd5b505af1158015610f96573d6000803e3d6000fd5b5050604080516001815290516001600160a01b03871693507f1b9ddf8f7c45e0567932349c127951357a3f9b5a821eeeec6e44d771debbb49092509081900360200190a2600754610fe8906001611f7f565b6007556110036004610ffd836207a120611f19565b90611fe0565b600754111561101b5760006007556006805460011b90555b505b919050565b600073D91d1Bc305B74d01D449D0C3E72a76d6A553c54B63f87924d08585856040518463ffffffff1660e01b815260040180846001600160a01b03168152602001836001600160a01b03168152602001828152602001935050505060206040518083038186803b15801561109557600080fd5b505af41580156110a9573d6000803e3d6000fd5b505050506040513d60208110156110bf57600080fd5b5051600280546005549293506110ea9230926001600160a01b0392831692909116908a908a87612047565b5095945050505050565b33600090815260016020819052604082205460ff161515148061111657503033145b6111515760405162461bcd60e51b81526004018080602001828103825260288152602001806123576028913960400191505060405180910390fd5b73B22dB11bBB52ffCb45d832390829Ba67214C6fAa631500cfba600360009054906101000a90046001600160a01b03168b8b8b8b8b8b8b8b6040518a63ffffffff1660e01b8152600401808a6001600160a01b031681526020018060200180602001898152602001888152602001878152602001868152602001858152602001846001600160a01b0316815260200183810383528b818151815260200191508051906020019080838360005b838110156112155781810151838201526020016111fd565b50505050905090810190601f1680156112425780820380516001836020036101000a031916815260200191505b5083810382528a5181528a516020918201918c019080838360005b8381101561127557818101518382015260200161125d565b50505050905090810190601f1680156112a25780820380516001836020036101000a031916815260200191505b509b50505050505050505050505060206040518083038186803b1580156112c857600080fd5b505af41580156112dc573d6000803e3d6000fd5b505050506040513d60208110156112f257600080fd5b505160025460048054604080517f02d05d3f000000000000000000000000000000000000000000000000000000008152905194955073B22dB11bBB52ffCb45d832390829Ba67214C6fAa9463c8b3a99f9430946001600160a01b0391821694821693918916926302d05d3f928083019260209291829003018186803b15801561137a57600080fd5b505afa15801561138e573d6000803e3d6000fd5b505050506040513d60208110156113a457600080fd5b5051604080517f041ae88000000000000000000000000000000000000000000000000000000000815290516001600160a01b0389169163041ae880916004808301926020929190829003018186803b1580156113ff57600080fd5b505afa158015611413573d6000803e3d6000fd5b505050506040513d602081101561142957600080fd5b5051604080517fffffffff0000000000000000000000000000000000000000000000000000000060e089901b1681526001600160a01b0396871660048201529486166024860152928516604485015290841660648401528316608483015291851660a4820152905160c4808301926000929190829003018186803b158015610dce57600080fd5b600073D91d1Bc305B74d01D449D0C3E72a76d6A553c54B6367083d6c8a8a8a8a8a8a8a8a6040518963ffffffff1660e01b8152600401808060200180602001898152602001888152602001878152602001868152602001858152602001846001600160a01b0316815260200183810383528b818151815260200191508051906020019080838360005b83811015611551578181015183820152602001611539565b50505050905090810190601f16801561157e5780820380516001836020036101000a031916815260200191505b5083810382528a5181528a516020918201918c019080838360005b838110156115b1578181015183820152602001611599565b50505050905090810190601f1680156115de5780820380516001836020036101000a031916815260200191505b509a505050505050505050505060206040518083038186803b15801561160357600080fd5b505af4158015611617573d6000803e3d6000fd5b505050506040513d602081101561162d57600080fd5b50516002546005549192506116559130916001600160a01b0390811691168e60008f87612047565b509a9950505050505050505050565b33600090815260016020819052604082205460ff161515148061168657503033145b6116c15760405162461bcd60e51b81526004018080602001828103825260288152602001806123576028913960400191505060405180910390fd5b60025460035460048054604080517f866db7cb0000000000000000000000000000000000000000000000000000000081526001600160a01b039586169381019390935292841660248301528316604482015291841660648301525173D91d1Bc305B74d01D449D0C3E72a76d6A553c54B9163866db7cb916084808301926000929190829003018186803b15801561175757600080fd5b505af415801561176b573d6000803e3d6000fd5b50505050919050565b3360009081526001602081905260409091205460ff161515148061179757503033145b6117d25760405162461bcd60e51b81526004018080602001828103825260288152602001806123576028913960400191505060405180910390fd5b6001600160a01b0316600090815260016020819052604090912080547fffffffffffffffffffffffffffffffffffffffffffffffffffffffffffffff00169091179055565b600073D91d1Bc305B74d01D449D0C3E72a76d6A553c54B63c9ceb9518585856040518463ffffffff1660e01b815260040180846001600160a01b0316815260200180602001838152602001828103825284818151815260200191508051906020019080838360005b8381101561189757818101518382015260200161187f565b50505050905090810190601f1680156118c45780820380516001836020036101000a031916815260200191505b5094505050505060206040518083038186803b1580156118e357600080fd5b505af41580156118f7573d6000803e3d6000fd5b505050506040513d602081101561190d57600080fd5b50516002546005549192506110ea9130916001600160a01b0390811691168960018a87612047565b6001600160a01b031660009081526001602052604090205460ff1690565b3360009081526001602081905260409091205460ff161515148061197657503033145b6119b15760405162461bcd60e51b81526004018080602001828103825260288152602001806123576028913960400191505060405180910390fd5b600254604080517f8851debd0000000000000000000000000000000000000000000000000000000081526001600160a01b039092166004830152602482018390525173B22dB11bBB52ffCb45d832390829Ba67214C6fAa91638851debd916044808301926000929190829003018186803b158015610b0f57600080fd5b604080517fd6c49d760000000000000000000000000000000000000000000000000000000081526001600160a01b038086166004830152841660248201528215156044820152905160009173D91d1Bc305B74d01D449D0C3E72a76d6A553c54B9163d6c49d7691606480820192602092909190829003018186803b158015611ab557600080fd5b505af4158015611ac9573d6000803e3d6000fd5b505050506040513d6020811015611adf57600080fd5b50516002546005549192506110ea9130916001600160a01b0390811691168960038a87612047565b3360009081526001602081905260409091205460ff1615151480611b2a57503033145b611b655760405162461bcd60e51b81526004018080602001828103825260288152602001806123576028913960400191505060405180910390fd5b336000526001602052565b60085460009060ff1615611bcb576040805162461bcd60e51b815260206004820152600e60248201527f414c52454144595f495353554544000000000000000000000000000000000000604482015290519081900360640190fd5b600254604080517f156e29f60000000000000000000000000000000000000000000000000000000081526001600160a01b0385811660048301526000602483018190526207a1206044840152925193169263156e29f69260648084019391929182900301818387803b158015611c4057600080fd5b505af1158015611c54573d6000803e3d6000fd5b5050600880547fffffffffffffffffffffffffffffffffffffffffffffffffffffffffffffff001660011790555050604080516207a120815290516001600160a01b038416917f1b9ddf8f7c45e0567932349c127951357a3f9b5a821eeeec6e44d771debbb490919081900360200190a2919050565b33600090815260016020819052604082205460ff1615151480611cec57503033145b611d275760405162461bcd60e51b81526004018080602001828103825260288152602001806123576028913960400191505060405180910390fd5b600254604080517f156e29f60000000000000000000000000000000000000000000000000000000081526001600160a01b03868116600483015260016024830152604482018690529151919092169163156e29f691606480830192600092919082900301818387803b158015611d9c57600080fd5b505af1158015611db0573d6000803e3d6000fd5b5050505092915050565b600054610100900460ff1680611dd35750611dd3612311565b80611de1575060005460ff16155b611e1c5760405162461bcd60e51b815260040180806020018281038252602e815260200180612329602e913960400191505060405180910390fd5b600054610100900460ff16158015611e8257600080547fffffffffffffffffffffffffffffffffffffffffffffffffffffffffffffff007fffffffffffffffffffffffffffffffffffffffffffffffffffffffffffff00ff909116610100171660011790555b600280546001600160a01b038088167fffffffffffffffffffffffff000000000000000000000000000000000000000092831617909255600380548784169083161790556004805486841690831617905560058054928516929091169190911790558015610b2357600080547fffffffffffffffffffffffffffffffffffffffffffffffffffffffffffff00ff1690555050505050565b600082821115611f70576040805162461bcd60e51b815260206004820152601e60248201527f536166654d6174683a207375627472616374696f6e206f766572666c6f770000604482015290519081900360640190fd5b50900390565b60065481161490565b600082820183811015611fd9576040805162461bcd60e51b815260206004820152601b60248201527f536166654d6174683a206164646974696f6e206f766572666c6f770000000000604482015290519081900360640190fd5b9392505050565b6000808211612036576040805162461bcd60e51b815260206004820152601a60248201527f536166654d6174683a206469766973696f6e206279207a65726f000000000000604482015290519081900360640190fd5b81838161203f57fe5b049392505050565b6000856001600160a01b0316634c300076868585886040518563ffffffff1660e01b815260040180856001600160a01b0316815260200180602001846001600160a01b0316815260200183600381111561209d57fe5b8152602001828103825285818151815260200191508051906020019080838360005b838110156120d75781810151838201526020016120bf565b50505050905090810190601f1680156121045780820380516001836020036101000a031916815260200191505b5095505050505050602060405180830381600087803b15801561212657600080fd5b505af115801561213a573d6000803e3d6000fd5b505050506040513d602081101561215057600080fd5b5051604080517fd104f8f50000000000000000000000000000000000000000000000000000000081526001600160a01b038a8116600483015291519293509083169163d104f8f59160248082019260009290919082900301818387803b1580156121b957600080fd5b505af11580156121cd573d6000803e3d6000fd5b50505050806001600160a01b031663c42cf535896040518263ffffffff1660e01b815260040180826001600160a01b03168152602001915050600060405180830381600087803b15801561222057600080fd5b505af1158015612234573d6000803e3d6000fd5b50505050866001600160a01b031663a7fc7a07826040518263ffffffff1660e01b815260040180826001600160a01b03168152602001915050600060405180830381600087803b15801561228757600080fd5b505af115801561229b573d6000803e3d6000fd5b50505050876001600160a01b031663a7fc7a07826040518263ffffffff1660e01b815260040180826001600160a01b03168152602001915050600060405180830381600087803b1580156122ee57600080fd5b505af1158015612302573d6000803e3d6000fd5b50505050979650505050505050565b600061231c30612322565b15905090565b3b15159056fe496e697469616c697a61626c653a20636f6e747261637420697320616c726561647920696e697469616c697a6564436f6e74726f6c6c61626c653a2063616c6c6572206973206e6f74206120636f6e74726f6c6c6572a26469706673582212208c6361a64ddf1a7ad46e6c8b00e70bd66dcbfca0b79a76cfb97ae39ffe7d9e1864736f6c63430007030033",
  "deployedBytecode": "0x608060405234801561001057600080fd5b50600436106101005760003560e01c8063afc9350511610097578063e1c28bef11610066578063e1c28bef1461099c578063e4439785146109a4578063ea40a7a4146109ca578063f8c8765e146109f657610100565b8063afc9350514610725578063b429afeb14610875578063dac7f24d146108af578063e1431945146108cc57610100565b806377fa7d98116100d357806377fa7d981461039a5780638dbf88c8146104ee578063a67a03ab146106d9578063a7fc7a07146106ff57610100565b80631e4ad6a2146101055780632866519d14610124578063634b5b7d146102945780636e3c7c7f146102cc575b600080fd5b6101226004803603602081101561011b57600080fd5b5035610a34565b005b610278600480360361010081101561013b57600080fd5b81019060208101813564010000000081111561015657600080fd5b82018360208201111561016857600080fd5b8035906020019184600183028401116401000000008311171561018a57600080fd5b91908080601f01602080910402602001604051908101604052809392919081815260200183838082843760009201919091525092959493602081019350359150506401000000008111156101dd57600080fd5b8201836020820111156101ef57600080fd5b8035906020019184600183028401116401000000008311171561021157600080fd5b91908080601f0160208091040260200160405190810160405280939291908181526020018383808284376000920191909152509295505082359350505060208101359060408101359060608101359060808101359060a001356001600160a01b0316610b2a565b604080516001600160a01b039092168252519081900360200190f35b6102ba600480360360208110156102aa57600080fd5b50356001600160a01b0316610df2565b60408051918252519081900360200190f35b610278600480360360a08110156102e257600080fd5b6001600160a01b03823516919081019060408101602082013564010000000081111561030d57600080fd5b82018360208201111561031f57600080fd5b8035906020019184600183028401116401000000008311171561034157600080fd5b91908080601f016020809104026020016040519081016040528093929190818152602001838380828437600092019190915250929550506001600160a01b03833581169450602084013516926040013591506110229050565b61027860048036036101008110156103b157600080fd5b8101906020810181356401000000008111156103cc57600080fd5b8201836020820111156103de57600080fd5b8035906020019184600183028401116401000000008311171561040057600080fd5b91908080601f016020809104026020016040519081016040528093929190818152602001838380828437600092019190915250929594936020810193503591505064010000000081111561045357600080fd5b82018360208201111561046557600080fd5b8035906020019184600183028401116401000000008311171561048757600080fd5b91908080601f0160208091040260200160405190810160405280939291908181526020018383808284376000920191909152509295505082359350505060208101359060408101359060608101359060808101359060a001356001600160a01b03166110f4565b610278600480360361014081101561050557600080fd5b6001600160a01b03823516919081019060408101602082013564010000000081111561053057600080fd5b82018360208201111561054257600080fd5b8035906020019184600183028401116401000000008311171561056457600080fd5b91908080601f01602080910402602001604051908101604052809392919081815260200183838082843760009201919091525092959493602081019350359150506401000000008111156105b757600080fd5b8201836020820111156105c957600080fd5b803590602001918460018302840111640100000000831117156105eb57600080fd5b91908080601f016020809104026020016040519081016040528093929190818152602001838380828437600092019190915250929594936020810193503591505064010000000081111561063e57600080fd5b82018360208201111561065057600080fd5b8035906020019184600183028401116401000000008311171561067257600080fd5b91908080601f0160208091040260200160405190810160405280939291908181526020018383808284376000920191909152509295505082359350505060208101359060408101359060608101359060808101359060a001356001600160a01b03166114b0565b610278600480360360208110156106ef57600080fd5b50356001600160a01b0316611664565b6101226004803603602081101561071557600080fd5b50356001600160a01b0316611774565b610278600480360360a081101561073b57600080fd5b6001600160a01b03823516919081019060408101602082013564010000000081111561076657600080fd5b82018360208201111561077857600080fd5b8035906020019184600183028401116401000000008311171561079a57600080fd5b91908080601f01602080910402602001604051908101604052809392919081815260200183838082843760009201919091525092956001600160a01b038535169590949093506040810192506020013590506401000000008111156107fe57600080fd5b82018360208201111561081057600080fd5b8035906020019184600183028401116401000000008311171561083257600080fd5b91908080601f0160208091040260200160405190810160405280939291908181526020018383808284376000920191909152509295505091359250611817915050565b61089b6004803603602081101561088b57600080fd5b50356001600160a01b0316611935565b604080519115158252519081900360200190f35b610122600480360360208110156108c557600080fd5b5035611953565b610278600480360360a08110156108e257600080fd5b6001600160a01b03823516919081019060408101602082013564010000000081111561090d57600080fd5b82018360208201111561091f57600080fd5b8035906020019184600183028401116401000000008311171561094157600080fd5b91908080601f016020809104026020016040519081016040528093929190818152602001838380828437600092019190915250929550506001600160a01b03833581169450602084013516926040013515159150611a2e9050565b610122611b07565b6102ba600480360360208110156109ba57600080fd5b50356001600160a01b0316611b70565b6102ba600480360360408110156109e057600080fd5b506001600160a01b038135169060200135611cca565b61012260048036036080811015610a0c57600080fd5b506001600160a01b038135811691602081013582169160408201358116916060013516611dba565b3360009081526001602081905260409091205460ff1615151480610a5757503033145b610a925760405162461bcd60e51b81526004018080602001828103825260288152602001806123576028913960400191505060405180910390fd5b600254604080517f85efa54c0000000000000000000000000000000000000000000000000000000081526001600160a01b039092166004830152602482018390525173__$415eb1c69eabc622d82690315fa0e33bfb$__916385efa54c916044808301926000929190829003018186803b158015610b0f57600080fd5b505af4158015610b23573d6000803e3d6000fd5b5050505050565b33600090815260016020819052604082205460ff1615151480610b4c57503033145b610b875760405162461bcd60e51b81526004018080602001828103825260288152602001806123576028913960400191505060405180910390fd5b73__$415eb1c69eabc622d82690315fa0e33bfb$__631500cfba600360009054906101000a90046001600160a01b03168b8b8b8b8b8b8b8b6040518a63ffffffff1660e01b8152600401808a6001600160a01b031681526020018060200180602001898152602001888152602001878152602001868152602001858152602001846001600160a01b0316815260200183810383528b818151815260200191508051906020019080838360005b83811015610c4b578181015183820152602001610c33565b50505050905090810190601f168015610c785780820380516001836020036101000a031916815260200191505b5083810382528a5181528a516020918201918c019080838360005b83811015610cab578181015183820152602001610c93565b50505050905090810190601f168015610cd85780820380516001836020036101000a031916815260200191505b509b50505050505050505050505060206040518083038186803b158015610cfe57600080fd5b505af4158015610d12573d6000803e3d6000fd5b505050506040513d6020811015610d2857600080fd5b505160025460048054604080517fc8b3a99f00000000000000000000000000000000000000000000000000000000815230938101939093526001600160a01b03938416602484015290831660448301523360648301819052608483015291831660a4820152905191925073__$415eb1c69eabc622d82690315fa0e33bfb$__9163c8b3a99f9160c480820192600092909190829003018186803b158015610dce57600080fd5b505af4158015610de2573d6000803e3d6000fd5b5050505098975050505050505050565b33600090815260016020819052604082205460ff1615151480610e1457503033145b610e4f5760405162461bcd60e51b81526004018080602001828103825260288152602001806123576028913960400191505060405180910390fd5b600254604080517fed7aae2b000000000000000000000000000000000000000000000000000000008152600060048201819052915191926001600160a01b03169163ed7aae2b91602480820192602092909190829003018186803b158015610eb657600080fd5b505afa158015610eca573d6000803e3d6000fd5b505050506040513d6020811015610ee057600080fd5b50519050620f42408110610ef857600091505061101d565b610f0a836001600160a01b0316611f76565b1561101b57600254604080517f156e29f60000000000000000000000000000000000000000000000000000000081526001600160a01b03868116600483015260006024830181905260016044840152925193169263156e29f69260648084019391929182900301818387803b158015610f8257600080fd5b505af1158015610f96573d6000803e3d6000fd5b5050604080516001815290516001600160a01b03871693507f1b9ddf8f7c45e0567932349c127951357a3f9b5a821eeeec6e44d771debbb49092509081900360200190a2600754610fe8906001611f7f565b6007556110036004610ffd836207a120611f19565b90611fe0565b600754111561101b5760006007556006805460011b90555b505b919050565b600073__$c2cf3eebb563d155e336d59c40be15cffe$__63f87924d08585856040518463ffffffff1660e01b815260040180846001600160a01b03168152602001836001600160a01b03168152602001828152602001935050505060206040518083038186803b15801561109557600080fd5b505af41580156110a9573d6000803e3d6000fd5b505050506040513d60208110156110bf57600080fd5b5051600280546005549293506110ea9230926001600160a01b0392831692909116908a908a87612047565b5095945050505050565b33600090815260016020819052604082205460ff161515148061111657503033145b6111515760405162461bcd60e51b81526004018080602001828103825260288152602001806123576028913960400191505060405180910390fd5b73__$415eb1c69eabc622d82690315fa0e33bfb$__631500cfba600360009054906101000a90046001600160a01b03168b8b8b8b8b8b8b8b6040518a63ffffffff1660e01b8152600401808a6001600160a01b031681526020018060200180602001898152602001888152602001878152602001868152602001858152602001846001600160a01b0316815260200183810383528b818151815260200191508051906020019080838360005b838110156112155781810151838201526020016111fd565b50505050905090810190601f1680156112425780820380516001836020036101000a031916815260200191505b5083810382528a5181528a516020918201918c019080838360005b8381101561127557818101518382015260200161125d565b50505050905090810190601f1680156112a25780820380516001836020036101000a031916815260200191505b509b50505050505050505050505060206040518083038186803b1580156112c857600080fd5b505af41580156112dc573d6000803e3d6000fd5b505050506040513d60208110156112f257600080fd5b505160025460048054604080517f02d05d3f000000000000000000000000000000000000000000000000000000008152905194955073__$415eb1c69eabc622d82690315fa0e33bfb$__9463c8b3a99f9430946001600160a01b0391821694821693918916926302d05d3f928083019260209291829003018186803b15801561137a57600080fd5b505afa15801561138e573d6000803e3d6000fd5b505050506040513d60208110156113a457600080fd5b5051604080517f041ae88000000000000000000000000000000000000000000000000000000000815290516001600160a01b0389169163041ae880916004808301926020929190829003018186803b1580156113ff57600080fd5b505afa158015611413573d6000803e3d6000fd5b505050506040513d602081101561142957600080fd5b5051604080517fffffffff0000000000000000000000000000000000000000000000000000000060e089901b1681526001600160a01b0396871660048201529486166024860152928516604485015290841660648401528316608483015291851660a4820152905160c4808301926000929190829003018186803b158015610dce57600080fd5b600073__$c2cf3eebb563d155e336d59c40be15cffe$__6367083d6c8a8a8a8a8a8a8a8a6040518963ffffffff1660e01b8152600401808060200180602001898152602001888152602001878152602001868152602001858152602001846001600160a01b0316815260200183810383528b818151815260200191508051906020019080838360005b83811015611551578181015183820152602001611539565b50505050905090810190601f16801561157e5780820380516001836020036101000a031916815260200191505b5083810382528a5181528a516020918201918c019080838360005b838110156115b1578181015183820152602001611599565b50505050905090810190601f1680156115de5780820380516001836020036101000a031916815260200191505b509a505050505050505050505060206040518083038186803b15801561160357600080fd5b505af4158015611617573d6000803e3d6000fd5b505050506040513d602081101561162d57600080fd5b50516002546005549192506116559130916001600160a01b0390811691168e60008f87612047565b509a9950505050505050505050565b33600090815260016020819052604082205460ff161515148061168657503033145b6116c15760405162461bcd60e51b81526004018080602001828103825260288152602001806123576028913960400191505060405180910390fd5b60025460035460048054604080517f866db7cb0000000000000000000000000000000000000000000000000000000081526001600160a01b039586169381019390935292841660248301528316604482015291841660648301525173__$c2cf3eebb563d155e336d59c40be15cffe$__9163866db7cb916084808301926000929190829003018186803b15801561175757600080fd5b505af415801561176b573d6000803e3d6000fd5b50505050919050565b3360009081526001602081905260409091205460ff161515148061179757503033145b6117d25760405162461bcd60e51b81526004018080602001828103825260288152602001806123576028913960400191505060405180910390fd5b6001600160a01b0316600090815260016020819052604090912080547fffffffffffffffffffffffffffffffffffffffffffffffffffffffffffffff00169091179055565b600073__$c2cf3eebb563d155e336d59c40be15cffe$__63c9ceb9518585856040518463ffffffff1660e01b815260040180846001600160a01b0316815260200180602001838152602001828103825284818151815260200191508051906020019080838360005b8381101561189757818101518382015260200161187f565b50505050905090810190601f1680156118c45780820380516001836020036101000a031916815260200191505b5094505050505060206040518083038186803b1580156118e357600080fd5b505af41580156118f7573d6000803e3d6000fd5b505050506040513d602081101561190d57600080fd5b50516002546005549192506110ea9130916001600160a01b0390811691168960018a87612047565b6001600160a01b031660009081526001602052604090205460ff1690565b3360009081526001602081905260409091205460ff161515148061197657503033145b6119b15760405162461bcd60e51b81526004018080602001828103825260288152602001806123576028913960400191505060405180910390fd5b600254604080517f8851debd0000000000000000000000000000000000000000000000000000000081526001600160a01b039092166004830152602482018390525173__$415eb1c69eabc622d82690315fa0e33bfb$__91638851debd916044808301926000929190829003018186803b158015610b0f57600080fd5b604080517fd6c49d760000000000000000000000000000000000000000000000000000000081526001600160a01b038086166004830152841660248201528215156044820152905160009173__$c2cf3eebb563d155e336d59c40be15cffe$__9163d6c49d7691606480820192602092909190829003018186803b158015611ab557600080fd5b505af4158015611ac9573d6000803e3d6000fd5b505050506040513d6020811015611adf57600080fd5b50516002546005549192506110ea9130916001600160a01b0390811691168960038a87612047565b3360009081526001602081905260409091205460ff1615151480611b2a57503033145b611b655760405162461bcd60e51b81526004018080602001828103825260288152602001806123576028913960400191505060405180910390fd5b336000526001602052565b60085460009060ff1615611bcb576040805162461bcd60e51b815260206004820152600e60248201527f414c52454144595f495353554544000000000000000000000000000000000000604482015290519081900360640190fd5b600254604080517f156e29f60000000000000000000000000000000000000000000000000000000081526001600160a01b0385811660048301526000602483018190526207a1206044840152925193169263156e29f69260648084019391929182900301818387803b158015611c4057600080fd5b505af1158015611c54573d6000803e3d6000fd5b5050600880547fffffffffffffffffffffffffffffffffffffffffffffffffffffffffffffff001660011790555050604080516207a120815290516001600160a01b038416917f1b9ddf8f7c45e0567932349c127951357a3f9b5a821eeeec6e44d771debbb490919081900360200190a2919050565b33600090815260016020819052604082205460ff1615151480611cec57503033145b611d275760405162461bcd60e51b81526004018080602001828103825260288152602001806123576028913960400191505060405180910390fd5b600254604080517f156e29f60000000000000000000000000000000000000000000000000000000081526001600160a01b03868116600483015260016024830152604482018690529151919092169163156e29f691606480830192600092919082900301818387803b158015611d9c57600080fd5b505af1158015611db0573d6000803e3d6000fd5b5050505092915050565b600054610100900460ff1680611dd35750611dd3612311565b80611de1575060005460ff16155b611e1c5760405162461bcd60e51b815260040180806020018281038252602e815260200180612329602e913960400191505060405180910390fd5b600054610100900460ff16158015611e8257600080547fffffffffffffffffffffffffffffffffffffffffffffffffffffffffffffff007fffffffffffffffffffffffffffffffffffffffffffffffffffffffffffff00ff909116610100171660011790555b600280546001600160a01b038088167fffffffffffffffffffffffff000000000000000000000000000000000000000092831617909255600380548784169083161790556004805486841690831617905560058054928516929091169190911790558015610b2357600080547fffffffffffffffffffffffffffffffffffffffffffffffffffffffffffff00ff1690555050505050565b600082821115611f70576040805162461bcd60e51b815260206004820152601e60248201527f536166654d6174683a207375627472616374696f6e206f766572666c6f770000604482015290519081900360640190fd5b50900390565b60065481161490565b600082820183811015611fd9576040805162461bcd60e51b815260206004820152601b60248201527f536166654d6174683a206164646974696f6e206f766572666c6f770000000000604482015290519081900360640190fd5b9392505050565b6000808211612036576040805162461bcd60e51b815260206004820152601a60248201527f536166654d6174683a206469766973696f6e206279207a65726f000000000000604482015290519081900360640190fd5b81838161203f57fe5b049392505050565b6000856001600160a01b0316634c300076868585886040518563ffffffff1660e01b815260040180856001600160a01b0316815260200180602001846001600160a01b0316815260200183600381111561209d57fe5b8152602001828103825285818151815260200191508051906020019080838360005b838110156120d75781810151838201526020016120bf565b50505050905090810190601f1680156121045780820380516001836020036101000a031916815260200191505b5095505050505050602060405180830381600087803b15801561212657600080fd5b505af115801561213a573d6000803e3d6000fd5b505050506040513d602081101561215057600080fd5b5051604080517fd104f8f50000000000000000000000000000000000000000000000000000000081526001600160a01b038a8116600483015291519293509083169163d104f8f59160248082019260009290919082900301818387803b1580156121b957600080fd5b505af11580156121cd573d6000803e3d6000fd5b50505050806001600160a01b031663c42cf535896040518263ffffffff1660e01b815260040180826001600160a01b03168152602001915050600060405180830381600087803b15801561222057600080fd5b505af1158015612234573d6000803e3d6000fd5b50505050866001600160a01b031663a7fc7a07826040518263ffffffff1660e01b815260040180826001600160a01b03168152602001915050600060405180830381600087803b15801561228757600080fd5b505af115801561229b573d6000803e3d6000fd5b50505050876001600160a01b031663a7fc7a07826040518263ffffffff1660e01b815260040180826001600160a01b03168152602001915050600060405180830381600087803b1580156122ee57600080fd5b505af1158015612302573d6000803e3d6000fd5b50505050979650505050505050565b600061231c30612322565b15905090565b3b15159056fe496e697469616c697a61626c653a20636f6e747261637420697320616c726561647920696e697469616c697a6564436f6e74726f6c6c61626c653a2063616c6c6572206973206e6f74206120636f6e74726f6c6c6572a26469706673582212208c6361a64ddf1a7ad46e6c8b00e70bd66dcbfca0b79a76cfb97ae39ffe7d9e1864736f6c63430007030033",
  "libraries": {
    "GovernanceLib": "0xB22dB11bBB52ffCb45d832390829Ba67214C6fAa",
    "Strings": "0x14528C987867F4cBfC37010bF62eC95b6A95aF06",
    "SafeMath": "0x31C39200452Ba593fF2083421aeFa7921B830eb2",
    "NFTGemLib": "0x4A6bcA3C92caC20f16f6DA6dE30caa7E03772ABf",
    "ProposalsLib": "0xD91d1Bc305B74d01D449D0C3E72a76d6A553c54B",
    "UniswapLib": "0x047a12B6Be14AEE36B3346CC27fF5b4C9A8d03F9",
    "Create2": "0x543e712c216CF072992d58059e6716873040549B"
  },
  "devdoc": {
    "kind": "dev",
    "methods": {
      "addController(address)": {
        "details": "Add an address allowed to control this contract"
      },
      "createChangeFeeProposal(address,string,address,address,uint256)": {
        "details": "create a proposal to change fees for a token / pool"
      },
      "createFundProjectProposal(address,string,address,string,uint256)": {
        "details": "create a proposal to craete a project funding proposal"
      },
      "createNewPoolProposal(address,string,string,string,uint256,uint256,uint256,uint256,uint256,address)": {
        "details": "create a proposal to create a new pool"
      },
      "createPool(string,string,uint256,uint256,uint256,uint256,uint256,address)": {
        "details": "create a new pool - public, only callable by a controller of this contract"
      },
      "createProposalVoteTokens(uint256)": {
        "details": "create proposal vote tokens"
      },
      "createSystemPool(string,string,uint256,uint256,uint256,uint256,uint256,address)": {
        "details": "create a new pool - public, only callable by a controller of this contract"
      },
      "createUpdateAllowlistProposal(address,string,address,address,bool)": {
        "details": "create a proposal to update the allowlist of a token/pool"
      },
      "destroyProposalVoteTokens(uint256)": {
        "details": "destroy proposal vote tokens"
      },
      "executeProposal(address)": {
        "details": "execute proposal"
      },
      "initialize(address,address,address,address)": {
        "details": "init this smart contract"
      },
      "isController(address)": {
        "details": "Check if this address is a controller"
      },
      "issueFuelToken(address,uint256)": {
        "details": "maybe issue a governance token to receiver"
      },
      "issueInitialGovernanceTokens(address)": {
        "details": "issue initial governance tokens"
      },
      "maybeIssueGovernanceToken(address)": {
        "details": "maybe issue a governance token to receiver"
      },
      "relinquishControl()": {
        "details": "Check if this address is a controller"
      }
    },
    "version": 1
  },
  "userdoc": {
    "kind": "user",
    "methods": {},
    "version": 1
  },
  "storageLayout": {
    "storage": [
      {
        "astId": 11190,
        "contract": "src/governance/NFTGemGovernor.sol:NFTGemGovernor",
        "label": "_initialized",
        "offset": 0,
        "slot": "0",
        "type": "t_bool"
      },
      {
        "astId": 11193,
        "contract": "src/governance/NFTGemGovernor.sol:NFTGemGovernor",
        "label": "_initializing",
        "offset": 1,
        "slot": "0",
        "type": "t_bool"
      },
      {
        "astId": 709,
        "contract": "src/governance/NFTGemGovernor.sol:NFTGemGovernor",
        "label": "_controllers",
        "offset": 0,
        "slot": "1",
        "type": "t_mapping(t_address,t_bool)"
      },
      {
        "astId": 2155,
        "contract": "src/governance/NFTGemGovernor.sol:NFTGemGovernor",
        "label": "multitoken",
        "offset": 0,
        "slot": "2",
        "type": "t_address"
      },
      {
        "astId": 2157,
        "contract": "src/governance/NFTGemGovernor.sol:NFTGemGovernor",
        "label": "factory",
        "offset": 0,
        "slot": "3",
        "type": "t_address"
      },
      {
        "astId": 2159,
        "contract": "src/governance/NFTGemGovernor.sol:NFTGemGovernor",
        "label": "feeTracker",
        "offset": 0,
        "slot": "4",
        "type": "t_address"
      },
      {
        "astId": 2161,
        "contract": "src/governance/NFTGemGovernor.sol:NFTGemGovernor",
        "label": "proposalFactory",
        "offset": 0,
        "slot": "5",
        "type": "t_address"
      },
      {
        "astId": 2183,
        "contract": "src/governance/NFTGemGovernor.sol:NFTGemGovernor",
        "label": "governTokenDiff",
        "offset": 0,
        "slot": "6",
        "type": "t_uint256"
      },
      {
        "astId": 2185,
        "contract": "src/governance/NFTGemGovernor.sol:NFTGemGovernor",
        "label": "sinceLastIncrease",
        "offset": 0,
        "slot": "7",
        "type": "t_uint256"
      },
      {
        "astId": 2187,
        "contract": "src/governance/NFTGemGovernor.sol:NFTGemGovernor",
        "label": "governanceIssued",
        "offset": 0,
        "slot": "8",
        "type": "t_bool"
      }
    ],
    "types": {
      "t_address": {
        "encoding": "inplace",
        "label": "address",
        "numberOfBytes": "20"
      },
      "t_bool": {
        "encoding": "inplace",
        "label": "bool",
        "numberOfBytes": "1"
      },
      "t_mapping(t_address,t_bool)": {
        "encoding": "mapping",
        "key": "t_address",
        "label": "mapping(address => bool)",
        "numberOfBytes": "32",
        "value": "t_bool"
      },
      "t_uint256": {
        "encoding": "inplace",
        "label": "uint256",
        "numberOfBytes": "32"
      }
    }
  }
}