{
  "address": "0x4A6bcA3C92caC20f16f6DA6dE30caa7E03772ABf",
  "abi": [
    {
      "inputs": [
        {
          "internalType": "address",
          "name": "factory",
          "type": "address"
        },
        {
          "internalType": "string",
          "name": "symbol",
          "type": "string"
        }
      ],
      "name": "addressOfPool",
      "outputs": [
        {
          "internalType": "address",
          "name": "poolAddress",
          "type": "address"
        }
      ],
      "stateMutability": "pure",
      "type": "function"
    }
  ],
  "transactionHash": "0x6026e482c0767cfc3381052714c0228ebad7ea2916a8b02316772cae4f2568e5",
  "args": [],
  "solcInputHash": "c768d7d0d3c4589eff35419dd67a5ae3",
  "bytecode": "0x61028c610026600b82828239805160001a60731461001957fe5b30600052607381538281f3fe73000000000000000000000000000000000000000030146080604052600436106100355760003560e01c80638d3dbdbd1461003a575b600080fd5b6100fd6004803603604081101561005057600080fd5b73ffffffffffffffffffffffffffffffffffffffff823516919081019060408101602082013564010000000081111561008857600080fd5b82018360208201111561009a57600080fd5b803590602001918460018302840111640100000000831117156100bc57600080fd5b91908080601f016020809104026020016040519081016040528093929190818152602001838380828437600092019190915250929550610126945050505050565b6040805173ffffffffffffffffffffffffffffffffffffffff9092168252519081900360200190f35b600082826040516020018082805190602001908083835b6020831061017a57805182527fffffffffffffffffffffffffffffffffffffffffffffffffffffffffffffffe0909201916020918201910161013d565b6001836020036101000a0380198251168184511680821785525050505050509050019150506040516020818303038152906040528051906020012060405160200180807fff000000000000000000000000000000000000000000000000000000000000008152506001018373ffffffffffffffffffffffffffffffffffffffff1660601b8152601401828152602001807f5eb9d9d27de3571440b0e8beff8b667c6f0ab08f82c4e262fc9434079e5e077c815250602001925050506040516020818303038152906040528051906020012060001c90509291505056fea26469706673582212207b2cd37494f0a227d500bc412a7f2bee8d0c592c1094903647780f7ae1289fbb64736f6c63430007030033",
  "devdoc": {
    "kind": "dev",
    "methods": {},
    "version": 1
  },
  "userdoc": {
    "kind": "user",
    "methods": {},
    "version": 1
  },
  "storageLayout": {
    "storage": [],
    "types": null
  }
}