{
  "address": "0x89232DF8F773D0185f79cdE7122d3540e288d545",
  "abi": [
    {
      "inputs": [],
      "name": "UNISWAP_ROUTER_ADDRESS",
      "outputs": [
        {
          "internalType": "address",
          "name": "",
          "type": "address"
        }
      ],
      "stateMutability": "view",
      "type": "function"
    },
    {
      "inputs": [],
      "name": "WETH",
      "outputs": [
        {
          "internalType": "address",
          "name": "weth",
          "type": "address"
        }
      ],
      "stateMutability": "pure",
      "type": "function"
    },
    {
      "inputs": [
        {
          "internalType": "address",
          "name": "token",
          "type": "address"
        },
        {
          "internalType": "uint256",
          "name": "tokenAmount",
          "type": "uint256"
        }
      ],
      "name": "ethQuote",
      "outputs": [
        {
          "internalType": "uint256",
          "name": "ethereum",
          "type": "uint256"
        },
        {
          "internalType": "uint256",
          "name": "tokenReserve",
          "type": "uint256"
        },
        {
          "internalType": "uint256",
          "name": "ethReserve",
          "type": "uint256"
        }
      ],
      "stateMutability": "view",
      "type": "function"
    },
    {
      "inputs": [],
      "name": "factory",
      "outputs": [
        {
          "internalType": "address",
          "name": "fac",
          "type": "address"
        }
      ],
      "stateMutability": "pure",
      "type": "function"
    },
    {
      "inputs": [
        {
          "internalType": "address",
          "name": "factory",
          "type": "address"
        },
        {
          "internalType": "address",
          "name": "tokenA",
          "type": "address"
        },
        {
          "internalType": "address",
          "name": "tokenB",
          "type": "address"
        }
      ],
      "name": "getPair",
      "outputs": [
        {
          "internalType": "address",
          "name": "pair",
          "type": "address"
        }
      ],
      "stateMutability": "view",
      "type": "function"
    },
    {
      "inputs": [
        {
          "internalType": "address",
          "name": "token",
          "type": "address"
        }
      ],
      "name": "getPathForETHToToken",
      "outputs": [
        {
          "internalType": "address[]",
          "name": "",
          "type": "address[]"
        }
      ],
      "stateMutability": "pure",
      "type": "function"
    },
    {
      "inputs": [
        {
          "internalType": "address",
          "name": "pair",
          "type": "address"
        }
      ],
      "name": "getReserves",
      "outputs": [
        {
          "internalType": "uint256",
          "name": "reserveA",
          "type": "uint256"
        },
        {
          "internalType": "uint256",
          "name": "reserveB",
          "type": "uint256"
        }
      ],
      "stateMutability": "view",
      "type": "function"
    },
    {
      "inputs": [
        {
          "internalType": "address",
          "name": "factory",
          "type": "address"
        },
        {
          "internalType": "address",
          "name": "tokenA",
          "type": "address"
        },
        {
          "internalType": "address",
          "name": "tokenB",
          "type": "address"
        }
      ],
      "name": "pairFor",
      "outputs": [
        {
          "internalType": "address",
          "name": "pair",
          "type": "address"
        }
      ],
      "stateMutability": "pure",
      "type": "function"
    }
  ],
  "transactionHash": "0x465f8e599aae511fc13fcf33e59b18f56ea8538dcb3f6f036fa7bd64a8e8fac5",
  "args": [],
  "solcInputHash": "c768d7d0d3c4589eff35419dd67a5ae3",
  "bytecode": "0x608060405234801561001057600080fd5b50610795806100206000396000f3fe608060405234801561001057600080fd5b50600436106100885760003560e01c806379b369431161005b57806379b36943146101e35780637dddfe9f146101eb578063ad5c46481461026e578063c45a01551461027657610088565b80631874f0a91461008d5780633e99c1e4146100e457806361e0b77f146101305780636d91c0e21461019e575b600080fd5b6100c6600480360360408110156100a357600080fd5b5073ffffffffffffffffffffffffffffffffffffffff813516906020013561027e565b60408051938452602084019290925282820152519081900360600190f35b610117600480360360208110156100fa57600080fd5b503573ffffffffffffffffffffffffffffffffffffffff16610335565b6040805192835260208301919091528051918290030190f35b6101756004803603606081101561014657600080fd5b5073ffffffffffffffffffffffffffffffffffffffff81358116916020810135821691604090910135166103d9565b6040805173ffffffffffffffffffffffffffffffffffffffff9092168252519081900360200190f35b610175600480360360608110156101b457600080fd5b5073ffffffffffffffffffffffffffffffffffffffff81358116916020810135821691604090910135166104a1565b610175610535565b61021e6004803603602081101561020157600080fd5b503573ffffffffffffffffffffffffffffffffffffffff1661054d565b60408051602080825283518183015283519192839290830191858101910280838360005b8381101561025a578181015183820152602001610242565b505050509050019250505060405180910390f35b6101756106a2565b610175610719565b600080600073047a12B6Be14AEE36B3346CC27fF5b4C9A8d03F9631874f0a986866040518363ffffffff1660e01b8152600401808373ffffffffffffffffffffffffffffffffffffffff1681526020018281526020019250505060606040518083038186803b1580156102f057600080fd5b505af4158015610304573d6000803e3d6000fd5b505050506040513d606081101561031a57600080fd5b50805160208201516040909201519097919650945092505050565b60008073047a12B6Be14AEE36B3346CC27fF5b4C9A8d03F9633e99c1e4846040518263ffffffff1660e01b8152600401808273ffffffffffffffffffffffffffffffffffffffff168152602001915050604080518083038186803b15801561039c57600080fd5b505af41580156103b0573d6000803e3d6000fd5b505050506040513d60408110156103c657600080fd5b5080516020909101519094909350915050565b604080517f61e0b77f00000000000000000000000000000000000000000000000000000000815273ffffffffffffffffffffffffffffffffffffffff8086166004830152808516602483015283166044820152905160009173047a12B6Be14AEE36B3346CC27fF5b4C9A8d03F9916361e0b77f91606480820192602092909190829003018186803b15801561046d57600080fd5b505af4158015610481573d6000803e3d6000fd5b505050506040513d602081101561049757600080fd5b5051949350505050565b604080517f6d91c0e200000000000000000000000000000000000000000000000000000000815273ffffffffffffffffffffffffffffffffffffffff8086166004830152808516602483015283166044820152905160009173047a12B6Be14AEE36B3346CC27fF5b4C9A8d03F991636d91c0e291606480820192602092909190829003018186803b15801561046d57600080fd5b737a250d5630b4cf539739df2c5dacb4c659f2488d81565b606073047a12B6Be14AEE36B3346CC27fF5b4C9A8d03F9637dddfe9f836040518263ffffffff1660e01b8152600401808273ffffffffffffffffffffffffffffffffffffffff16815260200191505060006040518083038186803b1580156105b457600080fd5b505af41580156105c8573d6000803e3d6000fd5b505050506040513d6000823e601f3d9081017fffffffffffffffffffffffffffffffffffffffffffffffffffffffffffffffe0168201604052602081101561060f57600080fd5b810190808051604051939291908464010000000082111561062f57600080fd5b90830190602082018581111561064457600080fd5b825186602082028301116401000000008211171561066157600080fd5b82525081516020918201928201910280838360005b8381101561068e578181015183820152602001610676565b505050509050016040525050509050919050565b600073047a12B6Be14AEE36B3346CC27fF5b4C9A8d03F963ad5c46486040518163ffffffff1660e01b815260040160206040518083038186803b1580156106e857600080fd5b505af41580156106fc573d6000803e3d6000fd5b505050506040513d602081101561071257600080fd5b5051919050565b600073047a12B6Be14AEE36B3346CC27fF5b4C9A8d03F963c45a01556040518163ffffffff1660e01b815260040160206040518083038186803b1580156106e857600080fdfea26469706673582212205b864a0cdeb827938e2c58e038d3abe5450004441c9ac551e97d4a8bd6241daa64736f6c63430007030033",
  "deployedBytecode": "0x608060405234801561001057600080fd5b50600436106100885760003560e01c806379b369431161005b57806379b36943146101e35780637dddfe9f146101eb578063ad5c46481461026e578063c45a01551461027657610088565b80631874f0a91461008d5780633e99c1e4146100e457806361e0b77f146101305780636d91c0e21461019e575b600080fd5b6100c6600480360360408110156100a357600080fd5b5073ffffffffffffffffffffffffffffffffffffffff813516906020013561027e565b60408051938452602084019290925282820152519081900360600190f35b610117600480360360208110156100fa57600080fd5b503573ffffffffffffffffffffffffffffffffffffffff16610335565b6040805192835260208301919091528051918290030190f35b6101756004803603606081101561014657600080fd5b5073ffffffffffffffffffffffffffffffffffffffff81358116916020810135821691604090910135166103d9565b6040805173ffffffffffffffffffffffffffffffffffffffff9092168252519081900360200190f35b610175600480360360608110156101b457600080fd5b5073ffffffffffffffffffffffffffffffffffffffff81358116916020810135821691604090910135166104a1565b610175610535565b61021e6004803603602081101561020157600080fd5b503573ffffffffffffffffffffffffffffffffffffffff1661054d565b60408051602080825283518183015283519192839290830191858101910280838360005b8381101561025a578181015183820152602001610242565b505050509050019250505060405180910390f35b6101756106a2565b610175610719565b600080600073__$ceb09a33ce6242a42270105cd428328707$__631874f0a986866040518363ffffffff1660e01b8152600401808373ffffffffffffffffffffffffffffffffffffffff1681526020018281526020019250505060606040518083038186803b1580156102f057600080fd5b505af4158015610304573d6000803e3d6000fd5b505050506040513d606081101561031a57600080fd5b50805160208201516040909201519097919650945092505050565b60008073__$ceb09a33ce6242a42270105cd428328707$__633e99c1e4846040518263ffffffff1660e01b8152600401808273ffffffffffffffffffffffffffffffffffffffff168152602001915050604080518083038186803b15801561039c57600080fd5b505af41580156103b0573d6000803e3d6000fd5b505050506040513d60408110156103c657600080fd5b5080516020909101519094909350915050565b604080517f61e0b77f00000000000000000000000000000000000000000000000000000000815273ffffffffffffffffffffffffffffffffffffffff8086166004830152808516602483015283166044820152905160009173__$ceb09a33ce6242a42270105cd428328707$__916361e0b77f91606480820192602092909190829003018186803b15801561046d57600080fd5b505af4158015610481573d6000803e3d6000fd5b505050506040513d602081101561049757600080fd5b5051949350505050565b604080517f6d91c0e200000000000000000000000000000000000000000000000000000000815273ffffffffffffffffffffffffffffffffffffffff8086166004830152808516602483015283166044820152905160009173__$ceb09a33ce6242a42270105cd428328707$__91636d91c0e291606480820192602092909190829003018186803b15801561046d57600080fd5b737a250d5630b4cf539739df2c5dacb4c659f2488d81565b606073__$ceb09a33ce6242a42270105cd428328707$__637dddfe9f836040518263ffffffff1660e01b8152600401808273ffffffffffffffffffffffffffffffffffffffff16815260200191505060006040518083038186803b1580156105b457600080fd5b505af41580156105c8573d6000803e3d6000fd5b505050506040513d6000823e601f3d9081017fffffffffffffffffffffffffffffffffffffffffffffffffffffffffffffffe0168201604052602081101561060f57600080fd5b810190808051604051939291908464010000000082111561062f57600080fd5b90830190602082018581111561064457600080fd5b825186602082028301116401000000008211171561066157600080fd5b82525081516020918201928201910280838360005b8381101561068e578181015183820152602001610676565b505050509050016040525050509050919050565b600073__$ceb09a33ce6242a42270105cd428328707$__63ad5c46486040518163ffffffff1660e01b815260040160206040518083038186803b1580156106e857600080fd5b505af41580156106fc573d6000803e3d6000fd5b505050506040513d602081101561071257600080fd5b5051919050565b600073__$ceb09a33ce6242a42270105cd428328707$__63c45a01556040518163ffffffff1660e01b815260040160206040518083038186803b1580156106e857600080fdfea26469706673582212205b864a0cdeb827938e2c58e038d3abe5450004441c9ac551e97d4a8bd6241daa64736f6c63430007030033",
  "libraries": {
    "GovernanceLib": "0xB22dB11bBB52ffCb45d832390829Ba67214C6fAa",
    "Strings": "0x14528C987867F4cBfC37010bF62eC95b6A95aF06",
    "SafeMath": "0x31C39200452Ba593fF2083421aeFa7921B830eb2",
    "NFTGemLib": "0x4A6bcA3C92caC20f16f6DA6dE30caa7E03772ABf",
    "ProposalsLib": "0xD91d1Bc305B74d01D449D0C3E72a76d6A553c54B",
    "UniswapLib": "0x047a12B6Be14AEE36B3346CC27fF5b4C9A8d03F9",
    "Create2": "0x543e712c216CF072992d58059e6716873040549B"
  },
  "devdoc": {
    "details": "Uniswap helpers",
    "kind": "dev",
    "methods": {
      "WETH()": {
        "details": "does a Uniswap pool exist for this token?"
      },
      "ethQuote(address,uint256)": {
        "details": "Get a quote in Ethereum for the given ERC20 token / token amount"
      },
      "factory()": {
        "details": "does a Uniswap pool exist for this token?"
      },
      "getPair(address,address,address)": {
        "details": "looks for a pool vs weth"
      },
      "getPathForETHToToken(address)": {
        "details": "Get a path for ethereum to the given token"
      },
      "getReserves(address)": {
        "details": "Get the pair reserves given two erc20 tokens"
      },
      "pairFor(address,address,address)": {
        "details": "calculate pair address"
      }
    },
    "version": 1
  },
  "userdoc": {
    "kind": "user",
    "methods": {},
    "version": 1
  },
  "storageLayout": {
    "storage": [],
    "types": null
  }
}