{
  "address": "0x7b801494B65F5eeC79E7807bd771b7F981713928",
  "abi": [
    {
      "inputs": [],
      "stateMutability": "nonpayable",
      "type": "constructor"
    },
    {
      "anonymous": false,
      "inputs": [
        {
          "indexed": true,
          "internalType": "address",
          "name": "contractAddress",
          "type": "address"
        },
        {
          "indexed": true,
          "internalType": "address",
          "name": "controllerAddress",
          "type": "address"
        }
      ],
      "name": "ControllerAdded",
      "type": "event"
    },
    {
      "anonymous": false,
      "inputs": [
        {
          "indexed": true,
          "internalType": "address",
          "name": "contractAddress",
          "type": "address"
        },
        {
          "indexed": true,
          "internalType": "address",
          "name": "controllerAddress",
          "type": "address"
        }
      ],
      "name": "ControllerRemoved",
      "type": "event"
    },
    {
      "anonymous": false,
      "inputs": [
        {
          "indexed": false,
          "internalType": "string",
          "name": "gemSymbol",
          "type": "string"
        },
        {
          "indexed": false,
          "internalType": "string",
          "name": "gemName",
          "type": "string"
        },
        {
          "indexed": false,
          "internalType": "uint256",
          "name": "ethPrice",
          "type": "uint256"
        },
        {
          "indexed": false,
          "internalType": "uint256",
          "name": "mintTime",
          "type": "uint256"
        },
        {
          "indexed": false,
          "internalType": "uint256",
          "name": "maxTime",
          "type": "uint256"
        },
        {
          "indexed": false,
          "internalType": "uint256",
          "name": "diffstep",
          "type": "uint256"
        },
        {
          "indexed": false,
          "internalType": "uint256",
          "name": "maxMint",
          "type": "uint256"
        },
        {
          "indexed": false,
          "internalType": "address",
          "name": "allowedToken",
          "type": "address"
        }
      ],
      "name": "NFTGemPoolCreated",
      "type": "event"
    },
    {
      "inputs": [
        {
          "internalType": "address",
          "name": "_controller",
          "type": "address"
        }
      ],
      "name": "addController",
      "outputs": [],
      "stateMutability": "nonpayable",
      "type": "function"
    },
    {
      "inputs": [
        {
          "internalType": "uint256",
          "name": "idx",
          "type": "uint256"
        }
      ],
      "name": "allNFTGemPools",
      "outputs": [
        {
          "internalType": "address",
          "name": "gemPool",
          "type": "address"
        }
      ],
      "stateMutability": "view",
      "type": "function"
    },
    {
      "inputs": [],
      "name": "allNFTGemPoolsLength",
      "outputs": [
        {
          "internalType": "uint256",
          "name": "",
          "type": "uint256"
        }
      ],
      "stateMutability": "view",
      "type": "function"
    },
    {
      "inputs": [
        {
          "internalType": "string",
          "name": "gemSymbol",
          "type": "string"
        },
        {
          "internalType": "string",
          "name": "gemName",
          "type": "string"
        },
        {
          "internalType": "uint256",
          "name": "ethPrice",
          "type": "uint256"
        },
        {
          "internalType": "uint256",
          "name": "minTime",
          "type": "uint256"
        },
        {
          "internalType": "uint256",
          "name": "maxTime",
          "type": "uint256"
        },
        {
          "internalType": "uint256",
          "name": "diffstep",
          "type": "uint256"
        },
        {
          "internalType": "uint256",
          "name": "maxMint",
          "type": "uint256"
        },
        {
          "internalType": "address",
          "name": "allowedToken",
          "type": "address"
        }
      ],
      "name": "createNFTGemPool",
      "outputs": [
        {
          "internalType": "address payable",
          "name": "gemPool",
          "type": "address"
        }
      ],
      "stateMutability": "nonpayable",
      "type": "function"
    },
    {
      "inputs": [
        {
          "internalType": "uint256",
          "name": "_symbolHash",
          "type": "uint256"
        }
      ],
      "name": "getNFTGemPool",
      "outputs": [
        {
          "internalType": "address",
          "name": "gemPool",
          "type": "address"
        }
      ],
      "stateMutability": "view",
      "type": "function"
    },
    {
      "inputs": [
        {
          "internalType": "address",
          "name": "_address",
          "type": "address"
        }
      ],
      "name": "isController",
      "outputs": [
        {
          "internalType": "bool",
          "name": "allowed",
          "type": "bool"
        }
      ],
      "stateMutability": "view",
      "type": "function"
    },
    {
      "inputs": [],
      "name": "relinquishControl",
      "outputs": [],
      "stateMutability": "view",
      "type": "function"
    }
  ],
  "transactionHash": "0x868ee165508f5ae979e9321eb8c6cfb291d73b41896d2df0ce2cb0cf24493d8b",
  "args": [],
  "solcInputHash": "f0677dd06e416df6959c5a8ee7f4cebc",
  "bytecode": "0x608060405234801561001057600080fd5b5061001a3361001f565b610043565b6001600160a01b03166000908152602081905260409020805460ff19166001179055565b614b1c806100526000396000f3fe608060405234801561001057600080fd5b506004361061007d5760003560e01c806367275aed1161005b57806367275aed14610243578063a7fc7a0714610260578063b429afeb14610295578063e1c28bef146102dc5761007d565b80631ff77f16146100825780634ff8f07e146100c85780635e6fe72a14610229575b600080fd5b61009f6004803603602081101561009857600080fd5b50356102e4565b6040805173ffffffffffffffffffffffffffffffffffffffff9092168252519081900360200190f35b61009f60048036036101008110156100df57600080fd5b8101906020810181356401000000008111156100fa57600080fd5b82018360208201111561010c57600080fd5b8035906020019184600183028401116401000000008311171561012e57600080fd5b91908080601f016020809104026020016040519081016040528093929190818152602001838380828437600092019190915250929594936020810193503591505064010000000081111561018157600080fd5b82018360208201111561019357600080fd5b803590602001918460018302840111640100000000831117156101b557600080fd5b91908080601f0160208091040260200160405190810160405280939291908181526020018383808284376000920191909152509295505082359350505060208101359060408101359060608101359060808101359060a0013573ffffffffffffffffffffffffffffffffffffffff1661031b565b6102316109d8565b60408051918252519081900360200190f35b61009f6004803603602081101561025957600080fd5b50356109de565b6102936004803603602081101561027657600080fd5b503573ffffffffffffffffffffffffffffffffffffffff16610a06565b005b6102c8600480360360208110156102ab57600080fd5b503573ffffffffffffffffffffffffffffffffffffffff16610acc565b604080519115158252519081900360200190f35b610293610af7565b6000600382815481106102f357fe5b60009182526020909120015473ffffffffffffffffffffffffffffffffffffffff1692915050565b3360009081526020819052604081205460ff1615156001148061033d57503033145b610392576040517f08c379a0000000000000000000000000000000000000000000000000000000008152600401808060200182810382526028815260200180614abf6028913960400191505060405180910390fd5b6000896040516020018082805190602001908083835b602083106103e557805182527fffffffffffffffffffffffffffffffffffffffffffffffffffffffffffffffe090920191602091820191016103a8565b51815160209384036101000a7fffffffffffffffffffffffffffffffffffffffffffffffffffffffffffffffff018019909216911617905260408051929094018281037fffffffffffffffffffffffffffffffffffffffffffffffffffffffffffffffe0018352845281519181019190912060008181526002909252929020549194505073ffffffffffffffffffffffffffffffffffffffff161591506104ef905057604080517f08c379a000000000000000000000000000000000000000000000000000000000815260206004820152600e60248201527f47454d504f4f4c5f455849535453000000000000000000000000000000000000604482015290519081900360640190fd5b8761055b57604080517f08c379a000000000000000000000000000000000000000000000000000000000815260206004820152600d60248201527f494e56414c49445f505249434500000000000000000000000000000000000000604482015290519081900360640190fd5b866105c757604080517f08c379a000000000000000000000000000000000000000000000000000000000815260206004820152601060248201527f494e56414c49445f4d494e5f54494d4500000000000000000000000000000000604482015290519081900360640190fd5b8461063357604080517f08c379a000000000000000000000000000000000000000000000000000000000815260206004820152601760248201527f494e56414c49445f444946464943554c54595f53544550000000000000000000604482015290519081900360640190fd5b60606040518060200161064590610ced565b7fffffffffffffffffffffffffffffffffffffffffffffffffffffffffffffffe082820381018352601f90910116604052905061068460008383610b79565b92508273ffffffffffffffffffffffffffffffffffffffff1663d9a3f9bb8c8c8c8c8c8c8c8c6040518963ffffffff1660e01b81526004018080602001806020018981526020018881526020018781526020018681526020018581526020018473ffffffffffffffffffffffffffffffffffffffff16815260200183810383528b818151815260200191508051906020019080838360005b8381101561073457818101518382015260200161071c565b50505050905090810190601f1680156107615780820380516001836020036101000a031916815260200191505b5083810382528a5181528a516020918201918c019080838360005b8381101561079457818101518382015260200161077c565b50505050905090810190601f1680156107c15780820380516001836020036101000a031916815260200191505b509a5050505050505050505050600060405180830381600087803b1580156107e857600080fd5b505af11580156107fc573d6000803e3d6000fd5b505050600083815260026020908152604080832080547fffffffffffffffffffffffff000000000000000000000000000000000000000090811673ffffffffffffffffffffffffffffffffffffffff8a8116918217909355600380546001810182559087527fc2575a0e9e593c00f959f8c92f12db2869c3395a3b0502d05e2516446f71f85b01805490921617905581519182018e9052606082018d9052608082018c905260a082018b905260c082018a9052881660e08201526101008082528f51908201528e517fd5dd03a462020e8d5d777d0957fbf19067fc095f932d026bb0f23e384522f2a694508f938f938f938f938f938f938f938f939092839283810192610120850192918e01918190849084905b83811015610928578181015183820152602001610910565b50505050905090810190601f1680156109555780820380516001836020036101000a031916815260200191505b5083810382528a5181528a516020918201918c019080838360005b83811015610988578181015183820152602001610970565b50505050905090810190601f1680156109b55780820380516001836020036101000a031916815260200191505b509a505050505050505050505060405180910390a1505098975050505050505050565b60035490565b60009081526002602052604090205473ffffffffffffffffffffffffffffffffffffffff1690565b3360009081526020819052604090205460ff16151560011480610a2857503033145b610a7d576040517f08c379a0000000000000000000000000000000000000000000000000000000008152600401808060200182810382526028815260200180614abf6028913960400191505060405180910390fd5b73ffffffffffffffffffffffffffffffffffffffff16600090815260208190526040902080547fffffffffffffffffffffffffffffffffffffffffffffffffffffffffffffff00166001179055565b73ffffffffffffffffffffffffffffffffffffffff1660009081526020819052604090205460ff1690565b3360009081526020819052604090205460ff16151560011480610b1957503033145b610b6e576040517f08c379a0000000000000000000000000000000000000000000000000000000008152600401808060200182810382526028815260200180614abf6028913960400191505060405180910390fd5b336000908152602052565b60008084471015610beb57604080517f08c379a000000000000000000000000000000000000000000000000000000000815260206004820152601d60248201527f437265617465323a20696e73756666696369656e742062616c616e6365000000604482015290519081900360640190fd5b8251610c5857604080517f08c379a000000000000000000000000000000000000000000000000000000000815260206004820181905260248201527f437265617465323a2062797465636f6465206c656e677468206973207a65726f604482015290519081900360640190fd5b8383516020850187f5905073ffffffffffffffffffffffffffffffffffffffff8116610ce557604080517f08c379a000000000000000000000000000000000000000000000000000000000815260206004820152601960248201527f437265617465323a204661696c6564206f6e206465706c6f7900000000000000604482015290519081900360640190fd5b949350505050565b613dc480610cfb8339019056fe608060405234801561001057600080fd5b50613da4806100206000396000f3fe6080604052600436106102895760003560e01c8063a901c47411610153578063cf721b15116100cb578063e6c3b1f61161007f578063f4fde0d311610064578063f4fde0d314610a00578063f9eaee0d14610a15578063ff186b2e14610a5c5761033e565b8063e6c3b1f614610987578063edcf2d57146109c75761033e565b8063d31674db116100b0578063d31674db146107c9578063d73cd47f146107f3578063d9a3f9bb146108265761033e565b8063cf721b151461076c578063d104f8f5146107965761033e565b8063c08fa1a411610122578063c5e01a5c11610107578063c5e01a5c14610742578063c80c06131461076c578063cf5380b4146107815761033e565b8063c08fa1a414610664578063c42cf5351461070f5761033e565b8063a901c47414610679578063b5155eef146106a3578063b788e4e9146106e5578063bf86999b146106fa5761033e565b80635e5f2e261161020157806390469a9d116101b5578063959355601161019a578063959355601461062557806395d89b411461064f578063a0021cf1146106645761033e565b806390469a9d146105bf5780639277a185146105f25761033e565b80637c5d643e116101e65780637c5d643e146105565780637dcb0e5f146105805780638a09871b146105aa5761033e565b80635e5f2e26146104f35780636b6201da146105395761033e565b80632449ef51116102585780634565e5ef1161023d5780634565e5ef146104a357806345cd50ff146104b8578063504cdacf146104de5761033e565b80632449ef51146104335780634178617f146104705761033e565b806306fdde03146103435780631aa43078146103cd57806322e67e71146103f457806323b221a0146104095761033e565b3661033e5760045460055460035434926000926102af926102a991610a71565b90610ada565b905080821015610306576040805162461bcd60e51b815260206004820152601060248201527f494e53554646494349454e545f45544800000000000000000000000000000000604482015290519081900360640190fd5b60045460035483116103305761032d6004546102a985600354610a7190919063ffffffff16565b90505b61033981610b3a565b505050005b600080fd5b34801561034f57600080fd5b50610358610fd7565b6040805160208082528351818301528351919283929083019185019080838360005b8381101561039257818101518382015260200161037a565b50505050905090810190601f1680156103bf5780820380516001836020036101000a031916815260200191505b509250505060405180910390f35b3480156103d957600080fd5b506103e2611088565b60408051918252519081900360200190f35b34801561040057600080fd5b506103e261108e565b34801561041557600080fd5b506103e26004803603602081101561042c57600080fd5b5035611094565b34801561043f57600080fd5b5061046e6004803603604081101561045657600080fd5b506001600160a01b03813581169160200135166110a6565b005b34801561047c57600080fd5b5061046e6004803603602081101561049357600080fd5b50356001600160a01b0316611314565b3480156104af57600080fd5b506103e26113b3565b61046e600480360360408110156104ce57600080fd5b508035906020013560ff166113b9565b3480156104ea57600080fd5b506103e26113c7565b3480156104ff57600080fd5b5061051d6004803603602081101561051657600080fd5b50356113cd565b604080516001600160a01b039092168252519081900360200190f35b61046e6004803603602081101561054f57600080fd5b50356113f7565b34801561056257600080fd5b5061046e6004803603602081101561057957600080fd5b5035611400565b34801561058c57600080fd5b506103e2600480360360208110156105a357600080fd5b5035611d26565b3480156105b657600080fd5b506103e2611d38565b3480156105cb57600080fd5b5061046e600480360360208110156105e257600080fd5b50356001600160a01b0316611d47565b3480156105fe57600080fd5b5061046e6004803603602081101561061557600080fd5b50356001600160a01b0316611ecb565b34801561063157600080fd5b506103e26004803603602081101561064857600080fd5b5035611f63565b34801561065b57600080fd5b50610358611f75565b34801561067057600080fd5b506103e2611ff3565b34801561068557600080fd5b506103e26004803603602081101561069c57600080fd5b5035611ff9565b3480156106af57600080fd5b5061046e600480360360608110156106c657600080fd5b5080356001600160a01b0316906020810135906040013560ff1661200b565b3480156106f157600080fd5b506103e2612016565b34801561070657600080fd5b506103e2612020565b34801561071b57600080fd5b5061046e6004803603602081101561073257600080fd5b50356001600160a01b0316612026565b34801561074e57600080fd5b5061051d6004803603602081101561076557600080fd5b50356120be565b34801561077857600080fd5b506103e26120d9565b34801561078d57600080fd5b506103e26120df565b3480156107a257600080fd5b5061046e600480360360208110156107b957600080fd5b50356001600160a01b03166120e5565b3480156107d557600080fd5b506103e2600480360360208110156107ec57600080fd5b503561217d565b3480156107ff57600080fd5b5061046e6004803603602081101561081657600080fd5b50356001600160a01b031661219e565b34801561083257600080fd5b5061046e600480360361010081101561084a57600080fd5b81019060208101813564010000000081111561086557600080fd5b82018360208201111561087757600080fd5b8035906020019184600183028401116401000000008311171561089957600080fd5b91908080601f01602080910402602001604051908101604052809392919081815260200183838082843760009201919091525092959493602081019350359150506401000000008111156108ec57600080fd5b8201836020820111156108fe57600080fd5b8035906020019184600183028401116401000000008311171561092057600080fd5b91908080601f0160208091040260200160405190810160405280939291908181526020018383808284376000920191909152509295505082359350505060208101359060408101359060608101359060808101359060a001356001600160a01b0316612236565b34801561099357600080fd5b506109b1600480360360208110156109aa57600080fd5b50356123e6565b6040805160ff9092168252519081900360200190f35b3480156109d357600080fd5b5061046e600480360360408110156109ea57600080fd5b506001600160a01b0381351690602001356123fb565b348015610a0c57600080fd5b506103e2612405565b348015610a2157600080fd5b50610a4860048036036020811015610a3857600080fd5b50356001600160a01b031661240b565b604080519115158252519081900360200190f35b348015610a6857600080fd5b506103e2612429565b6000808211610ac7576040805162461bcd60e51b815260206004820152601a60248201527f536166654d6174683a206469766973696f6e206279207a65726f000000000000604482015290519081900360640190fd5b818381610ad057fe5b0490505b92915050565b600082610ae957506000610ad4565b82820282848281610af657fe5b0414610b335760405162461bcd60e51b8152600401808060200182810382526021815260200180613d4e6021913960400191505060405180910390fd5b9392505050565b600454811015610b91576040805162461bcd60e51b815260206004820152601360248201527f54494d454652414d455f544f4f5f53484f525400000000000000000000000000604482015290519081900360640190fd5b60055415801590610ba457506005548111155b80610baf5750600554155b610c00576040805162461bcd60e51b815260206004820152601260248201527f54494d454652414d455f544f4f5f4c4f4e470000000000000000000000000000604482015290519081900360640190fd5b6000610c2382610c1d600454600354610ada90919063ffffffff16565b90610a71565b905080341015610c7a576040805162461bcd60e51b815260206004820152601060248201527f494e53554646494349454e545f45544800000000000000000000000000000000604482015290519081900360640190fd5b6000610c8461242f565b905080610cd8576040805162461bcd60e51b815260206004820152601160248201527f4e4f5f4d4f52455f434c41494d41424c45000000000000000000000000000000604482015290519081900360640190fd5b601454604080517f156e29f6000000000000000000000000000000000000000000000000000000008152336004820152602481018490526001604482015290516001600160a01b039092169163156e29f69160648082019260009290919082900301818387803b158015610d4b57600080fd5b505af1158015610d5f573d6000803e3d6000fd5b50505050610d6e8160016124bc565b6000610d7a42856125ae565b6000838152600e6020908152604080832084905560109091529020849055600d54909150610da890846125ae565b600d55601554604080517f634b5b7d00000000000000000000000000000000000000000000000000000000815233600482015290516001600160a01b039092169163634b5b7d916024808201926020929091908290030181600087803b158015610e1157600080fd5b505af1158015610e25573d6000803e3d6000fd5b505050506040513d6020811015610e3b57600080fd5b5050601554604080517fea40a7a40000000000000000000000000000000000000000000000000000000081523360048201526024810186905290516001600160a01b039092169163ea40a7a4916044808201926020929091908290030181600087803b158015610eaa57600080fd5b505af1158015610ebe573d6000803e3d6000fd5b505050506040513d6020811015610ed457600080fd5b505060408051338152306020820152808201849052606081018690526080810185905290517fc4440f81dc57b3ff4cede8e66a4e56cc0e5431ad6b72e09e409ad55bd331e1469181900360a00190a182341115610fd157600033610f383486612608565b604051600081818185875af1925050503d8060008114610f74576040519150601f19603f3d011682016040523d82523d6000602084013e610f79565b606091505b5050905080610fcf576040805162461bcd60e51b815260206004820152600d60248201527f524546554e445f4641494c454400000000000000000000000000000000000000604482015290519081900360640190fd5b505b50505050565b60028054604080516020601f7fffffffffffffffffffffffffffffffffffffffffffffffffffffffffffffffff610100600187161502019094168590049384018190048102820181019092528281526060939092909183018282801561107e5780601f106110535761010080835404028352916020019161107e565b820191906000526020600020905b81548152906001019060200180831161106157829003601f168201915b5050505050905090565b60045490565b60055490565b60009081526010602052604090205490565b6014546001600160a01b0316611103576040805162461bcd60e51b815260206004820152600d60248201527f4e4f5f4d554c5449544f4b454e00000000000000000000000000000000000000604482015290519081900360640190fd5b6001600160a01b0382161580159061112357506001600160a01b03811615155b611174576040805162461bcd60e51b815260206004820152601060248201527f5a45524f5f44455354494e4154494f4e00000000000000000000000000000000604482015290519081900360640190fd5b600b54156111c9576040805162461bcd60e51b815260206004820152600e60248201527f414c52454144595f4d494e544544000000000000000000000000000000000000604482015290519081900360640190fd5b60006111d3612665565b601454604080517f156e29f60000000000000000000000000000000000000000000000000000000081526001600160a01b0387811660048301526024820185905260016044830152915193945091169163156e29f69160648082019260009290919082900301818387803b15801561124a57600080fd5b505af115801561125e573d6000803e3d6000fd5b5050505061126d8160026124bc565b611275612665565b601454604080517f156e29f60000000000000000000000000000000000000000000000000000000081526001600160a01b0387811660048301526024820185905260016044830152915193945091169163156e29f69160648082019260009290919082900301818387803b1580156112ec57600080fd5b505af1158015611300573d6000803e3d6000fd5b5050505061130f8160026124bc565b505050565b6001600160a01b03811660009081526013602052604090205460ff166113b0576012805460018082019092557fbb8a6a4669ba250d26cd7a459eca9d215f8307e33aebe50379bc5a3617ec34440180547fffffffffffffffffffffffff0000000000000000000000000000000000000000166001600160a01b0384169081179091556000908152601360205260409020805460ff191690911790555b50565b60125490565b6113c382826126c2565b5050565b600d5490565b6000601282815481106113dc57fe5b6000918252602090912001546001600160a01b031692915050565b6113b081610b3a565b601454604080517efdd58e0000000000000000000000000000000000000000000000000000000081523360048201526024810184905290516001600160a01b039092169162fdd58e91604480820192602092909190829003018186803b15801561146957600080fd5b505afa15801561147d573d6000803e3d6000fd5b505050506040513d602081101561149357600080fd5b50516001146114e9576040805162461bcd60e51b815260206004820152600f60248201527f4e4f545f434c41494d5f4f574e45520000000000000000000000000000000000604482015290519081900360640190fd5b6000818152600e602090815260408083205460109092529091205481158015906115135750600081115b611564576040805162461bcd60e51b815260206004820152600d60248201527f494e56414c49445f434c41494d00000000000000000000000000000000000000604482015290519081900360640190fd5b6000838152600f602090815260408083205460119092528083205460145482517ff5298aca000000000000000000000000000000000000000000000000000000008152336004820152602481018990526001604482015292516001600160a01b039485169592944289109492169263f5298aca926064808201939182900301818387803b1580156115f457600080fd5b505af1158015611608573d6000803e3d6000fd5b505050506001600160a01b0383161561191d5760006001821515141561177657601654604080517feee1ad8000000000000000000000000000000000000000000000000000000000815230600482015290516000926001600160a01b03169163eee1ad80916024808301926020929190829003018186803b15801561168c57600080fd5b505afa1580156116a0573d6000803e3d6000fd5b505050506040513d60208110156116b657600080fd5b5051601654604080517feee1ad800000000000000000000000000000000000000000000000000000000081526001600160a01b0389811660048301529151939450600093919092169163eee1ad80916024808301926020929190829003018186803b15801561172457600080fd5b505afa158015611738573d6000803e3d6000fd5b505050506040513d602081101561174e57600080fd5b505190506000828214156117625782611764565b815b90506117708682610a71565b93505050505b601654604080517f23b872dd0000000000000000000000000000000000000000000000000000000081523060048201526001600160a01b039283166024820152604481018490529051918616916323b872dd916064808201926020929091908290030181600087803b1580156117eb57600080fd5b505af11580156117ff573d6000803e3d6000fd5b505050506040513d602081101561181557600080fd5b50506001600160a01b0384166323b872dd30336118328786612608565b6040518463ffffffff1660e01b815260040180846001600160a01b03168152602001836001600160a01b031681526020018281526020019350505050602060405180830381600087803b15801561188857600080fd5b505af115801561189c573d6000803e3d6000fd5b505050506040513d60208110156118b257600080fd5b5050604080513381523060208201528082018990526001600160a01b03861660608201526080810187905260a0810185905260c0810183905290517fe0433fa1170f3ff4cf72fbeb1ae5f139a41b9457ab29e5ac480cb34ed271912a9181900360e00190a150611a8e565b6000600182151514156119cd57601654604080517feee1ad80000000000000000000000000000000000000000000000000000000008152600060048201819052915191926001600160a01b03169163eee1ad8091602480820192602092909190829003018186803b15801561199157600080fd5b505afa1580156119a5573d6000803e3d6000fd5b505050506040513d60208110156119bb57600080fd5b505190506119c98682610a71565b9150505b6016546040516001600160a01b039091169082156108fc029083906000818181858888f19350505050158015611a07573d6000803e3d6000fd5b50336108fc611a168784612608565b6040518115909202916000818181858888f19350505050158015611a3e573d6000803e3d6000fd5b5060408051338152306020820152808201899052606081018790526080810183905290517f414b0454a52507c753948f2002246a3358eaea8464b41c2143f88b100306eee69181900360a00190a1505b600d54611a9b9085612608565b600d5580611aad5750505050506113b0565b6000306001600160a01b031663b788e4e96040518163ffffffff1660e01b815260040160206040518083038186803b158015611ae857600080fd5b505afa158015611afc573d6000803e3d6000fd5b505050506040513d6020811015611b1257600080fd5b5051601454604080517f156e29f6000000000000000000000000000000000000000000000000000000008152336004820152602481018490526001604482015290519293506001600160a01b039091169163156e29f69160648082019260009290919082900301818387803b158015611b8a57600080fd5b505af1158015611b9e573d6000803e3d6000fd5b50505050611bad8160026124bc565b601554604080517f634b5b7d00000000000000000000000000000000000000000000000000000000815233600482015290516001600160a01b039092169163634b5b7d916024808201926020929091908290030181600087803b158015611c1357600080fd5b505af1158015611c27573d6000803e3d6000fd5b505050506040513d6020811015611c3d57600080fd5b5050601554604080517fea40a7a40000000000000000000000000000000000000000000000000000000081523360048201526024810188905290516001600160a01b039092169163ea40a7a4916044808201926020929091908290030181600087803b158015611cac57600080fd5b505af1158015611cc0573d6000803e3d6000fd5b505050506040513d6020811015611cd657600080fd5b5050604080513381523060208201528082018990526060810183905290517e895c586e20c7e6aeab597e5f18fe9e5bc1a8ca3b6c2882ea862ee0d4dd895e9181900360800190a150505050505050565b60009081526009602052604090205490565b6000611d4261242f565b905090565b6001600160a01b03811660009081526013602052604090205460ff16156113b05760005b6012548110156113c357816001600160a01b031660128281548110611d8c57fe5b6000918252602090912001546001600160a01b03161415611ec357601280547fffffffffffffffffffffffffffffffffffffffffffffffffffffffffffffffff8101908110611dd757fe5b600091825260209091200154601280546001600160a01b039092169183908110611dfd57fe5b600091825260209091200180547fffffffffffffffffffffffff0000000000000000000000000000000000000000166001600160a01b0392909216919091179055601280547fffffffffffffffffffffffffffffffffffffffffffffffffffffffffffffffff8101908110611e6e57fe5b6000918252602080832090910180547fffffffffffffffffffffffff00000000000000000000000000000000000000001690556001600160a01b03841682526013905260409020805460ff19169055506113b0565b600101611d6b565b6016546001600160a01b031615611f29576040805162461bcd60e51b815260206004820152600960248201527f494d4d555441424c450000000000000000000000000000000000000000000000604482015290519081900360640190fd5b601680547fffffffffffffffffffffffff0000000000000000000000000000000000000000166001600160a01b0392909216919091179055565b60009081526011602052604090205490565b60018054604080516020601f60027fffffffffffffffffffffffffffffffffffffffffffffffffffffffffffffffff610100878916150201909516949094049384018190048102820181019092528281526060939092909183018282801561107e5780601f106110535761010080835404028352916020019161107e565b600c5490565b6000908152600e602052604090205490565b61130f838383612baa565b6000611d42612665565b60065490565b6015546001600160a01b031615612084576040805162461bcd60e51b815260206004820152600960248201527f494d4d555441424c450000000000000000000000000000000000000000000000604482015290519081900360640190fd5b601580547fffffffffffffffffffffffff0000000000000000000000000000000000000000166001600160a01b0392909216919091179055565b6000908152600f60205260409020546001600160a01b031690565b600b5490565b60075490565b6014546001600160a01b031615612143576040805162461bcd60e51b815260206004820152600960248201527f494d4d555441424c450000000000000000000000000000000000000000000000604482015290519081900360640190fd5b601480547fffffffffffffffffffffffff0000000000000000000000000000000000000000166001600160a01b0392909216919091179055565b6000600a828154811061218c57fe5b90600052602060002001549050919050565b6017546001600160a01b0316156121fc576040805162461bcd60e51b815260206004820152600960248201527f494d4d555441424c450000000000000000000000000000000000000000000000604482015290519081900360640190fd5b601780547fffffffffffffffffffffffff0000000000000000000000000000000000000000166001600160a01b0392909216919091179055565b600054610100900460ff168061224f575061224f6133df565b8061225d575060005460ff16155b6122985760405162461bcd60e51b815260040180806020018281038252602e815260200180613d20602e913960400191505060405180910390fd5b600054610100900460ff161580156122e0576000805460ff197fffffffffffffffffffffffffffffffffffffffffffffffffffffffffffff00ff909116610100171660011790555b88516122f39060019060208c0190613c8c565b5087516123079060029060208b0190613c8c565b50600387905560048690556005859055600684905560078390556001600160a01b038216156123ac576012805460018082019092557fbb8a6a4669ba250d26cd7a459eca9d215f8307e33aebe50379bc5a3617ec34440180547fffffffffffffffffffffffff0000000000000000000000000000000000000000166001600160a01b0385169081179091556000908152601360205260409020805460ff191690911790555b80156123db57600080547fffffffffffffffffffffffffffffffffffffffffffffffffffffffffffff00ff1690555b505050505050505050565b60009081526008602052604090205460ff1690565b6113c382826133f0565b600a5490565b6001600160a01b031660009081526013602052604090205460ff1690565b60035490565b60006007546000141580156124485750600754600c5411155b806124535750600754155b61245e576000611d42565b50600c54604080517f636c61696d0000000000000000000000000000000000000000000000000000006020808301919091523060601b6025830152603980830194909452825180830390940184526059909101909152815191012090565b8060ff16600114806124d157508060ff166002145b612522576040805162461bcd60e51b815260206004820152601160248201527f494e56414c49445f544f4b454e54595045000000000000000000000000000000604482015290519081900360640190fd5b600a805460018082019092557fc65a7bb8d6351c1cf70c95a316cc6a92839c986682d98bc35f958f4883f9d2a8018390556000838152600860205260409020805460ff191660ff8416908117909155146125835761257e613c25565b61258b565b61258b613c3e565b600083815260096020526040902055600260ff821614156113c3576113c3613c57565b600082820183811015610b33576040805162461bcd60e51b815260206004820152601b60248201527f536166654d6174683a206164646974696f6e206f766572666c6f770000000000604482015290519081900360640190fd5b60008282111561265f576040805162461bcd60e51b815260206004820152601e60248201527f536166654d6174683a207375627472616374696f6e206f766572666c6f770000604482015290519081900360640190fd5b50900390565b600b54604080517f67656d00000000000000000000000000000000000000000000000000000000006020808301919091523060601b6023830152603780830194909452825180830390940184526057909101909152815191012090565b600454821015612719576040805162461bcd60e51b815260206004820152601360248201527f54494d454652414d455f544f4f5f53484f525400000000000000000000000000604482015290519081900360640190fd5b3461276b576040805162461bcd60e51b815260206004820152600c60248201527f5a45524f5f42414c414e43450000000000000000000000000000000000000000604482015290519081900360640190fd5b60ff81166127c0576040805162461bcd60e51b815260206004820152600d60248201527f5a45524f5f5155414e5449545900000000000000000000000000000000000000604482015290519081900360640190fd5b600554158015906127d357506005548211155b806127de5750600554155b61282f576040805162461bcd60e51b815260206004820152601260248201527f54494d454652414d455f544f4f5f4c4f4e470000000000000000000000000000604482015290519081900360640190fd5b600061283e3460ff8416610a71565b9050600061285d84610c1d600454600354610ada90919063ffffffff16565b9050808210156128b4576040805162461bcd60e51b815260206004820152601060248201527f494e53554646494349454e545f45544800000000000000000000000000000000604482015290519081900360640190fd5b60005b8360ff168160ff161015612b5f5760006128cf61242f565b905080612923576040805162461bcd60e51b815260206004820152601160248201527f4e4f5f4d4f52455f434c41494d41424c45000000000000000000000000000000604482015290519081900360640190fd5b601454604080517f156e29f6000000000000000000000000000000000000000000000000000000008152336004820152602481018490526001604482015290516001600160a01b039092169163156e29f69160648082019260009290919082900301818387803b15801561299657600080fd5b505af11580156129aa573d6000803e3d6000fd5b505050506129b98160016124bc565b60006129c542886125ae565b6000838152600e602090815260408083208490556010825280832088905560155481517f634b5b7d00000000000000000000000000000000000000000000000000000000815233600482015291519495506001600160a01b03169363634b5b7d93602480840194938390030190829087803b158015612a4357600080fd5b505af1158015612a57573d6000803e3d6000fd5b505050506040513d6020811015612a6d57600080fd5b5050601554604080517fea40a7a40000000000000000000000000000000000000000000000000000000081523360048201526024810187905290516001600160a01b039092169163ea40a7a4916044808201926020929091908290030181600087803b158015612adc57600080fd5b505af1158015612af0573d6000803e3d6000fd5b505050506040513d6020811015612b0657600080fd5b505060408051338152306020820152808201849052606081018990526080810186905290517fc4440f81dc57b3ff4cede8e66a4e56cc0e5431ad6b72e09e409ad55bd331e1469181900360a00190a150506001016128b7565b50612b79612b708260ff8616610ada565b600d54906125ae565b600d55612b898160ff8516610ada565b341115610fd157600033610f38612ba38460ff8816610ada565b3490612608565b6001600160a01b038316612c05576040805162461bcd60e51b815260206004820152601360248201527f494e56414c49445f45524332305f544f4b454e00000000000000000000000000604482015290519081900360640190fd5b60125415801590612c2e57506001600160a01b03831660009081526013602052604090205460ff165b80612c395750601254155b612c8a576040805162461bcd60e51b815260206004820152601060248201527f544f4b454e5f444953414c4c4f57454400000000000000000000000000000000604482015290519081900360640190fd5b60ff8116612cdf576040805162461bcd60e51b815260206004820152600d60248201527f5a45524f5f5155414e5449545900000000000000000000000000000000000000604482015290519081900360640190fd5b601754604080517f1246dbf50000000000000000000000000000000000000000000000000000000081526001600160a01b03868116600483015291519190921691631246dbf5916024808301926020929190829003018186803b158015612d4557600080fd5b505afa158015612d59573d6000803e3d6000fd5b505050506040513d6020811015612d6f57600080fd5b50511515600114612dc7576040805162461bcd60e51b815260206004820152600f60248201527f4e4f5f554e49535741505f504f4f4c0000000000000000000000000000000000604482015290519081900360640190fd5b601754600090819081906001600160a01b031663868d2d1e87612ded8860ff8916610a71565b6040518363ffffffff1660e01b815260040180836001600160a01b031681526020018281526020019250505060606040518083038186803b158015612e3157600080fd5b505afa158015612e45573d6000803e3d6000fd5b505050506040513d6060811015612e5b57600080fd5b50805160208201516040909201519094509092509050612e8360ff85166102a9856064610ada565b811015612ed7576040805162461bcd60e51b815260206004820152601a60248201527f494e53554646494349454e545f4554485f4c4951554944495459000000000000604482015290519081900360640190fd5b612ee960ff85166102a9876064610ada565b821015612f3d576040805162461bcd60e51b815260206004820152601c60248201527f494e53554646494349454e545f544f4b454e5f4c495155494449545900000000604482015290519081900360640190fd5b600354831115612f94576040805162461bcd60e51b815260206004820152600b60248201527f4f5645525041594d454e54000000000000000000000000000000000000000000604482015290519081900360640190fd5b6000612fb184610c1d600454600354610ada90919063ffffffff16565b905060045481101561300a576040805162461bcd60e51b815260206004820152601160248201527f494e53554646494349454e545f54494d45000000000000000000000000000000604482015290519081900360640190fd5b60005b8560ff168160ff16101561334657600061302561242f565b905080613079576040805162461bcd60e51b815260206004820152601160248201527f4e4f5f4d4f52455f434c41494d41424c45000000000000000000000000000000604482015290519081900360640190fd5b601454604080517f156e29f6000000000000000000000000000000000000000000000000000000008152336004820152602481018490526001604482015290516001600160a01b039092169163156e29f69160648082019260009290919082900301818387803b1580156130ec57600080fd5b505af1158015613100573d6000803e3d6000fd5b5050505061310f8160016124bc565b600061311b42856125ae565b905080600e60008481526020019081526020016000208190555086601060008481526020019081526020016000208190555089600f600084815260200190815260200160002060006101000a8154816001600160a01b0302191690836001600160a01b031602179055508860116000848152602001908152602001600020819055506131b287600d546125ae90919063ffffffff16565b600d55601554604080517f634b5b7d00000000000000000000000000000000000000000000000000000000815233600482015290516001600160a01b039092169163634b5b7d916024808201926020929091908290030181600087803b15801561321b57600080fd5b505af115801561322f573d6000803e3d6000fd5b505050506040513d602081101561324557600080fd5b5050601554604080517fea40a7a4000000000000000000000000000000000000000000000000000000008152336004820152602481018a905290516001600160a01b039092169163ea40a7a4916044808201926020929091908290030181600087803b1580156132b457600080fd5b505af11580156132c8573d6000803e3d6000fd5b505050506040513d60208110156132de57600080fd5b505060408051338152306020820152808201849052606081018690526001600160a01b038c16608082015260a0810189905290517fb0f138129671bef98597b3884a33bd80b6f0eb31ab69ffda9dc082f32b5e59e09181900360c00190a1505060010161300d565b50604080517f23b872dd0000000000000000000000000000000000000000000000000000000081523360048201523060248201526044810188905290516001600160a01b038916916323b872dd9160648083019260209291908290030181600087803b1580156133b557600080fd5b505af11580156133c9573d6000803e3d6000fd5b505050506040513d60208110156123db57600080fd5b60006133ea30613c86565b15905090565b6001600160a01b03821661344b576040805162461bcd60e51b815260206004820152601360248201527f494e56414c49445f45524332305f544f4b454e00000000000000000000000000604482015290519081900360640190fd5b6012541580159061347457506001600160a01b03821660009081526013602052604090205460ff165b8061347f5750601254155b6134d0576040805162461bcd60e51b815260206004820152601060248201527f544f4b454e5f444953414c4c4f57454400000000000000000000000000000000604482015290519081900360640190fd5b601754604080517f1246dbf50000000000000000000000000000000000000000000000000000000081526001600160a01b03858116600483015291519190921691631246dbf5916024808301926020929190829003018186803b15801561353657600080fd5b505afa15801561354a573d6000803e3d6000fd5b505050506040513d602081101561356057600080fd5b505115156001146135b8576040805162461bcd60e51b815260206004820152600f60248201527f4e4f5f554e49535741505f504f4f4c0000000000000000000000000000000000604482015290519081900360640190fd5b601754604080517f868d2d1e0000000000000000000000000000000000000000000000000000000081526001600160a01b0385811660048301526024820185905291516000938493849391169163868d2d1e91604480820192606092909190829003018186803b15801561362b57600080fd5b505afa15801561363f573d6000803e3d6000fd5b505050506040513d606081101561365557600080fd5b50805160208083015160409384015160165485517fb8c876b10000000000000000000000000000000000000000000000000000000081526001600160a01b038c811660048301529651959950929750909550600094169263b8c876b192602480840193919291829003018186803b1580156136cf57600080fd5b505afa1580156136e3573d6000803e3d6000fd5b505050506040513d60208110156136f957600080fd5b505190506137078482610ada565b82101561375b576040805162461bcd60e51b815260206004820152601a60248201527f494e53554646494349454e545f4554485f4c4951554944495459000000000000604482015290519081900360640190fd5b6137658582610ada565b8310156137b9576040805162461bcd60e51b815260206004820152601c60248201527f494e53554646494349454e545f544f4b454e5f4c495155494449545900000000604482015290519081900360640190fd5b600354841115613810576040805162461bcd60e51b815260206004820152600b60248201527f4f5645525041594d454e54000000000000000000000000000000000000000000604482015290519081900360640190fd5b600061382d85610c1d600454600354610ada90919063ffffffff16565b9050600454811015613886576040805162461bcd60e51b815260206004820152601160248201527f494e53554646494349454e545f54494d45000000000000000000000000000000604482015290519081900360640190fd5b600061389061242f565b9050806138e4576040805162461bcd60e51b815260206004820152601160248201527f4e4f5f4d4f52455f434c41494d41424c45000000000000000000000000000000604482015290519081900360640190fd5b604080517f23b872dd0000000000000000000000000000000000000000000000000000000081523360048201523060248201526044810189905290516001600160a01b038a16916323b872dd9160648083019260209291908290030181600087803b15801561395257600080fd5b505af1158015613966573d6000803e3d6000fd5b505050506040513d602081101561397c57600080fd5b5050601454604080517f156e29f6000000000000000000000000000000000000000000000000000000008152336004820152602481018490526001604482015290516001600160a01b039092169163156e29f69160648082019260009290919082900301818387803b1580156139f157600080fd5b505af1158015613a05573d6000803e3d6000fd5b50505050613a148160016124bc565b6000613a2042846125ae565b6000838152600e60209081526040808320849055601082528083208b9055600f825280832080547fffffffffffffffffffffffff0000000000000000000000000000000000000000166001600160a01b038f1617905560119091529020899055600d54909150613a9090886125ae565b600d55601554604080517f634b5b7d00000000000000000000000000000000000000000000000000000000815233600482015290516001600160a01b039092169163634b5b7d916024808201926020929091908290030181600087803b158015613af957600080fd5b505af1158015613b0d573d6000803e3d6000fd5b505050506040513d6020811015613b2357600080fd5b5050601554604080517fea40a7a4000000000000000000000000000000000000000000000000000000008152336004820152602481018a905290516001600160a01b039092169163ea40a7a4916044808201926020929091908290030181600087803b158015613b9257600080fd5b505af1158015613ba6573d6000803e3d6000fd5b505050506040513d6020811015613bbc57600080fd5b505060408051338152306020820152808201849052606081018590526001600160a01b038b16608082015260a0810189905290517fb0f138129671bef98597b3884a33bd80b6f0eb31ab69ffda9dc082f32b5e59e09181900360c00190a1505050505050505050565b600b54600090613c368160016125ae565b600b55905090565b600c54600090613c4f8160016125ae565b600c55905090565b6000613c70600654600354610a7190919063ffffffff16565b600354909150613c8090826125ae565b60035550565b3b151590565b828054600181600116156101000203166002900490600052602060002090601f016020900481019282601f10613ccd57805160ff1916838001178555613cfa565b82800160010185558215613cfa579182015b82811115613cfa578251825591602001919060010190613cdf565b50613d06929150613d0a565b5090565b5b80821115613d065760008155600101613d0b56fe496e697469616c697a61626c653a20636f6e747261637420697320616c726561647920696e697469616c697a6564536166654d6174683a206d756c7469706c69636174696f6e206f766572666c6f77a2646970667358221220e09909c1f13f47694c5c1aa1653a8b6ad7cc4c940ab67fdd674abb7df47ce5d364736f6c63430007030033436f6e74726f6c6c61626c653a2063616c6c6572206973206e6f74206120636f6e74726f6c6c6572a26469706673582212207b3f8858d4fbdecde4d35076033e9df3f6e022a888488f0cdc01a35f5866c2ce64736f6c63430007030033",
  "libraries": {
    "GovernanceLib": "0x8Ce2cC4bd123405948610fb927D4Ff5c5b83744C",
    "Strings": "0x0474b50293DcB1503b5B59a25b71Ac7b4dA09cB1",
    "SafeMath": "0xE6fD01E64cd793D55269f1dcfEA1BEb480AA3650",
    "ProposalsLib": "0xEa60902f3c60819Fe644AD4B72e22d9c00Dc1aAA",
    "Create2": "0x14528C987867F4cBfC37010bF62eC95b6A95aF06"
  },
  "devdoc": {
    "kind": "dev",
    "methods": {
      "addController(address)": {
        "details": "Add an address allowed to control this contract"
      },
      "allNFTGemPools(uint256)": {
        "details": "get the quantized token for this"
      },
      "allNFTGemPoolsLength()": {
        "details": "number of quantized addresses"
      },
      "createNFTGemPool(string,string,uint256,uint256,uint256,uint256,uint256,address)": {
        "details": "deploy a new erc20 token using create2"
      },
      "getNFTGemPool(uint256)": {
        "details": "get the quantized token for this"
      },
      "isController(address)": {
        "details": "Check if this address is a controller"
      },
      "relinquishControl()": {
        "details": "Check if this address is a controller"
      }
    },
    "version": 1
  },
  "userdoc": {
    "kind": "user",
    "methods": {},
    "version": 1
  },
  "storageLayout": {
    "storage": [
      {
        "astId": 2105,
        "contract": "src/factories/NFTGemPoolFactory.sol:NFTGemPoolFactory",
        "label": "_controllers",
        "offset": 0,
        "slot": "0",
        "type": "t_mapping(t_address,t_bool)"
      },
      {
        "astId": 2309,
        "contract": "src/factories/NFTGemPoolFactory.sol:NFTGemPoolFactory",
        "label": "operator",
        "offset": 0,
        "slot": "1",
        "type": "t_address"
      },
      {
        "astId": 2313,
        "contract": "src/factories/NFTGemPoolFactory.sol:NFTGemPoolFactory",
        "label": "_getNFTGemPool",
        "offset": 0,
        "slot": "2",
        "type": "t_mapping(t_uint256,t_address)"
      },
      {
        "astId": 2316,
        "contract": "src/factories/NFTGemPoolFactory.sol:NFTGemPoolFactory",
        "label": "_allNFTGemPools",
        "offset": 0,
        "slot": "3",
        "type": "t_array(t_address)dyn_storage"
      }
    ],
    "types": {
      "t_address": {
        "encoding": "inplace",
        "label": "address",
        "numberOfBytes": "20"
      },
      "t_array(t_address)dyn_storage": {
        "base": "t_address",
        "encoding": "dynamic_array",
        "label": "address[]",
        "numberOfBytes": "32"
      },
      "t_bool": {
        "encoding": "inplace",
        "label": "bool",
        "numberOfBytes": "1"
      },
      "t_mapping(t_address,t_bool)": {
        "encoding": "mapping",
        "key": "t_address",
        "label": "mapping(address => bool)",
        "numberOfBytes": "32",
        "value": "t_bool"
      },
      "t_mapping(t_uint256,t_address)": {
        "encoding": "mapping",
        "key": "t_uint256",
        "label": "mapping(uint256 => address)",
        "numberOfBytes": "32",
        "value": "t_address"
      },
      "t_uint256": {
        "encoding": "inplace",
        "label": "uint256",
        "numberOfBytes": "32"
      }
    }
  }
}