{
  "address": "0x015f1eF07ee0238668d6C7c45004269F6903b004",
  "abi": [
    {
      "inputs": [],
      "stateMutability": "nonpayable",
      "type": "constructor"
    },
    {
      "anonymous": false,
      "inputs": [
        {
          "indexed": true,
          "internalType": "address",
          "name": "contractAddress",
          "type": "address"
        },
        {
          "indexed": true,
          "internalType": "address",
          "name": "controllerAddress",
          "type": "address"
        }
      ],
      "name": "ControllerAdded",
      "type": "event"
    },
    {
      "anonymous": false,
      "inputs": [
        {
          "indexed": true,
          "internalType": "address",
          "name": "contractAddress",
          "type": "address"
        },
        {
          "indexed": true,
          "internalType": "address",
          "name": "controllerAddress",
          "type": "address"
        }
      ],
      "name": "ControllerRemoved",
      "type": "event"
    },
    {
      "anonymous": false,
      "inputs": [
        {
          "indexed": true,
          "internalType": "uint256",
          "name": "gemCreateUID",
          "type": "uint256"
        },
        {
          "components": [
            {
              "internalType": "address",
              "name": "factory",
              "type": "address"
            },
            {
              "internalType": "address",
              "name": "multitoken",
              "type": "address"
            },
            {
              "internalType": "address",
              "name": "poolAddress",
              "type": "address"
            },
            {
              "internalType": "string",
              "name": "symbol",
              "type": "string"
            },
            {
              "internalType": "string",
              "name": "name",
              "type": "string"
            },
            {
              "internalType": "string",
              "name": "description",
              "type": "string"
            },
            {
              "internalType": "uint256",
              "name": "category",
              "type": "uint256"
            },
            {
              "internalType": "uint256",
              "name": "ethPrice",
              "type": "uint256"
            }
          ],
          "indexed": false,
          "internalType": "struct IBitgemIndexer.GemPool",
          "name": "pool",
          "type": "tuple"
        },
        {
          "components": [
            {
              "internalType": "uint256",
              "name": "id",
              "type": "uint256"
            },
            {
              "internalType": "string",
              "name": "symbol",
              "type": "string"
            },
            {
              "internalType": "string",
              "name": "name",
              "type": "string"
            },
            {
              "internalType": "uint256",
              "name": "gemHash",
              "type": "uint256"
            },
            {
              "internalType": "address",
              "name": "pool",
              "type": "address"
            },
            {
              "internalType": "address",
              "name": "minter",
              "type": "address"
            },
            {
              "internalType": "address",
              "name": "gemPoolFactory",
              "type": "address"
            },
            {
              "internalType": "address",
              "name": "multitoken",
              "type": "address"
            },
            {
              "internalType": "uint256",
              "name": "quantity",
              "type": "uint256"
            }
          ],
          "indexed": false,
          "internalType": "struct IBitgemIndexer.Gem",
          "name": "gem",
          "type": "tuple"
        }
      ],
      "name": "GemCreated",
      "type": "event"
    },
    {
      "anonymous": false,
      "inputs": [
        {
          "indexed": false,
          "internalType": "address",
          "name": "opener",
          "type": "address"
        },
        {
          "components": [
            {
              "internalType": "address",
              "name": "factoryAddress",
              "type": "address"
            }
          ],
          "indexed": false,
          "internalType": "struct IBitgemIndexer.LootboxFactory",
          "name": "factory",
          "type": "tuple"
        },
        {
          "components": [
            {
              "internalType": "address",
              "name": "poolAddress",
              "type": "address"
            },
            {
              "internalType": "string",
              "name": "symbol",
              "type": "string"
            },
            {
              "internalType": "string",
              "name": "name",
              "type": "string"
            },
            {
              "internalType": "string",
              "name": "description",
              "type": "string"
            },
            {
              "internalType": "address",
              "name": "factory",
              "type": "address"
            },
            {
              "internalType": "address",
              "name": "multitoken",
              "type": "address"
            },
            {
              "internalType": "uint256",
              "name": "quantity",
              "type": "uint256"
            }
          ],
          "indexed": false,
          "internalType": "struct IBitgemIndexer.Lootbox",
          "name": "lootbox",
          "type": "tuple"
        },
        {
          "components": [
            {
              "internalType": "uint256",
              "name": "id",
              "type": "uint256"
            },
            {
              "internalType": "string",
              "name": "symbol",
              "type": "string"
            },
            {
              "internalType": "string",
              "name": "name",
              "type": "string"
            },
            {
              "internalType": "string",
              "name": "description",
              "type": "string"
            },
            {
              "internalType": "uint256",
              "name": "lootHash",
              "type": "uint256"
            },
            {
              "internalType": "uint256",
              "name": "lootbox",
              "type": "uint256"
            },
            {
              "internalType": "address",
              "name": "minter",
              "type": "address"
            },
            {
              "internalType": "address",
              "name": "factory",
              "type": "address"
            },
            {
              "internalType": "address",
              "name": "multitoken",
              "type": "address"
            },
            {
              "internalType": "uint256",
              "name": "probability",
              "type": "uint256"
            },
            {
              "internalType": "uint256",
              "name": "quantity",
              "type": "uint256"
            }
          ],
          "indexed": false,
          "internalType": "struct IBitgemIndexer.Loot[]",
          "name": "receivedLoot",
          "type": "tuple[]"
        }
      ],
      "name": "LootboxOpened",
      "type": "event"
    },
    {
      "inputs": [
        {
          "internalType": "address",
          "name": "_controller",
          "type": "address"
        }
      ],
      "name": "addController",
      "outputs": [],
      "stateMutability": "nonpayable",
      "type": "function"
    },
    {
      "inputs": [
        {
          "internalType": "uint256",
          "name": "",
          "type": "uint256"
        }
      ],
      "name": "gemMap",
      "outputs": [
        {
          "internalType": "uint256",
          "name": "id",
          "type": "uint256"
        },
        {
          "internalType": "string",
          "name": "symbol",
          "type": "string"
        },
        {
          "internalType": "string",
          "name": "name",
          "type": "string"
        },
        {
          "internalType": "uint256",
          "name": "gemHash",
          "type": "uint256"
        },
        {
          "internalType": "address",
          "name": "pool",
          "type": "address"
        },
        {
          "internalType": "address",
          "name": "minter",
          "type": "address"
        },
        {
          "internalType": "address",
          "name": "gemPoolFactory",
          "type": "address"
        },
        {
          "internalType": "address",
          "name": "multitoken",
          "type": "address"
        },
        {
          "internalType": "uint256",
          "name": "quantity",
          "type": "uint256"
        }
      ],
      "stateMutability": "view",
      "type": "function"
    },
    {
      "inputs": [
        {
          "internalType": "address",
          "name": "",
          "type": "address"
        }
      ],
      "name": "gemPoolFactoriesMap",
      "outputs": [
        {
          "internalType": "address",
          "name": "factory",
          "type": "address"
        },
        {
          "internalType": "address",
          "name": "multitoken",
          "type": "address"
        },
        {
          "internalType": "address",
          "name": "poolAddress",
          "type": "address"
        },
        {
          "internalType": "string",
          "name": "symbol",
          "type": "string"
        },
        {
          "internalType": "string",
          "name": "name",
          "type": "string"
        },
        {
          "internalType": "string",
          "name": "description",
          "type": "string"
        },
        {
          "internalType": "uint256",
          "name": "category",
          "type": "uint256"
        },
        {
          "internalType": "uint256",
          "name": "ethPrice",
          "type": "uint256"
        }
      ],
      "stateMutability": "view",
      "type": "function"
    },
    {
      "inputs": [
        {
          "internalType": "uint256",
          "name": "",
          "type": "uint256"
        }
      ],
      "name": "gemPools",
      "outputs": [
        {
          "internalType": "address",
          "name": "factory",
          "type": "address"
        },
        {
          "internalType": "address",
          "name": "multitoken",
          "type": "address"
        },
        {
          "internalType": "address",
          "name": "poolAddress",
          "type": "address"
        },
        {
          "internalType": "string",
          "name": "symbol",
          "type": "string"
        },
        {
          "internalType": "string",
          "name": "name",
          "type": "string"
        },
        {
          "internalType": "string",
          "name": "description",
          "type": "string"
        },
        {
          "internalType": "uint256",
          "name": "category",
          "type": "uint256"
        },
        {
          "internalType": "uint256",
          "name": "ethPrice",
          "type": "uint256"
        }
      ],
      "stateMutability": "view",
      "type": "function"
    },
    {
      "inputs": [
        {
          "internalType": "address",
          "name": "",
          "type": "address"
        }
      ],
      "name": "gemPoolsMap",
      "outputs": [
        {
          "internalType": "address",
          "name": "factory",
          "type": "address"
        },
        {
          "internalType": "address",
          "name": "multitoken",
          "type": "address"
        },
        {
          "internalType": "address",
          "name": "poolAddress",
          "type": "address"
        },
        {
          "internalType": "string",
          "name": "symbol",
          "type": "string"
        },
        {
          "internalType": "string",
          "name": "name",
          "type": "string"
        },
        {
          "internalType": "string",
          "name": "description",
          "type": "string"
        },
        {
          "internalType": "uint256",
          "name": "category",
          "type": "uint256"
        },
        {
          "internalType": "uint256",
          "name": "ethPrice",
          "type": "uint256"
        }
      ],
      "stateMutability": "view",
      "type": "function"
    },
    {
      "inputs": [
        {
          "internalType": "address",
          "name": "",
          "type": "address"
        },
        {
          "internalType": "uint256",
          "name": "",
          "type": "uint256"
        }
      ],
      "name": "gemsByFactory",
      "outputs": [
        {
          "internalType": "uint256",
          "name": "id",
          "type": "uint256"
        },
        {
          "internalType": "string",
          "name": "symbol",
          "type": "string"
        },
        {
          "internalType": "string",
          "name": "name",
          "type": "string"
        },
        {
          "internalType": "uint256",
          "name": "gemHash",
          "type": "uint256"
        },
        {
          "internalType": "address",
          "name": "pool",
          "type": "address"
        },
        {
          "internalType": "address",
          "name": "minter",
          "type": "address"
        },
        {
          "internalType": "address",
          "name": "gemPoolFactory",
          "type": "address"
        },
        {
          "internalType": "address",
          "name": "multitoken",
          "type": "address"
        },
        {
          "internalType": "uint256",
          "name": "quantity",
          "type": "uint256"
        }
      ],
      "stateMutability": "view",
      "type": "function"
    },
    {
      "inputs": [
        {
          "internalType": "address",
          "name": "",
          "type": "address"
        },
        {
          "internalType": "uint256",
          "name": "",
          "type": "uint256"
        }
      ],
      "name": "gemsByMinter",
      "outputs": [
        {
          "internalType": "uint256",
          "name": "id",
          "type": "uint256"
        },
        {
          "internalType": "string",
          "name": "symbol",
          "type": "string"
        },
        {
          "internalType": "string",
          "name": "name",
          "type": "string"
        },
        {
          "internalType": "uint256",
          "name": "gemHash",
          "type": "uint256"
        },
        {
          "internalType": "address",
          "name": "pool",
          "type": "address"
        },
        {
          "internalType": "address",
          "name": "minter",
          "type": "address"
        },
        {
          "internalType": "address",
          "name": "gemPoolFactory",
          "type": "address"
        },
        {
          "internalType": "address",
          "name": "multitoken",
          "type": "address"
        },
        {
          "internalType": "uint256",
          "name": "quantity",
          "type": "uint256"
        }
      ],
      "stateMutability": "view",
      "type": "function"
    },
    {
      "inputs": [
        {
          "internalType": "address",
          "name": "",
          "type": "address"
        },
        {
          "internalType": "uint256",
          "name": "",
          "type": "uint256"
        }
      ],
      "name": "gemsByMultitoken",
      "outputs": [
        {
          "internalType": "uint256",
          "name": "id",
          "type": "uint256"
        },
        {
          "internalType": "string",
          "name": "symbol",
          "type": "string"
        },
        {
          "internalType": "string",
          "name": "name",
          "type": "string"
        },
        {
          "internalType": "uint256",
          "name": "gemHash",
          "type": "uint256"
        },
        {
          "internalType": "address",
          "name": "pool",
          "type": "address"
        },
        {
          "internalType": "address",
          "name": "minter",
          "type": "address"
        },
        {
          "internalType": "address",
          "name": "gemPoolFactory",
          "type": "address"
        },
        {
          "internalType": "address",
          "name": "multitoken",
          "type": "address"
        },
        {
          "internalType": "uint256",
          "name": "quantity",
          "type": "uint256"
        }
      ],
      "stateMutability": "view",
      "type": "function"
    },
    {
      "inputs": [
        {
          "internalType": "address",
          "name": "",
          "type": "address"
        },
        {
          "internalType": "uint256",
          "name": "",
          "type": "uint256"
        }
      ],
      "name": "gemsByPool",
      "outputs": [
        {
          "internalType": "uint256",
          "name": "id",
          "type": "uint256"
        },
        {
          "internalType": "string",
          "name": "symbol",
          "type": "string"
        },
        {
          "internalType": "string",
          "name": "name",
          "type": "string"
        },
        {
          "internalType": "uint256",
          "name": "gemHash",
          "type": "uint256"
        },
        {
          "internalType": "address",
          "name": "pool",
          "type": "address"
        },
        {
          "internalType": "address",
          "name": "minter",
          "type": "address"
        },
        {
          "internalType": "address",
          "name": "gemPoolFactory",
          "type": "address"
        },
        {
          "internalType": "address",
          "name": "multitoken",
          "type": "address"
        },
        {
          "internalType": "uint256",
          "name": "quantity",
          "type": "uint256"
        }
      ],
      "stateMutability": "view",
      "type": "function"
    },
    {
      "inputs": [
        {
          "internalType": "address",
          "name": "gemPool",
          "type": "address"
        },
        {
          "internalType": "address",
          "name": "multitoken",
          "type": "address"
        },
        {
          "internalType": "address",
          "name": "account",
          "type": "address"
        },
        {
          "internalType": "uint256",
          "name": "page",
          "type": "uint256"
        },
        {
          "internalType": "uint256",
          "name": "count",
          "type": "uint256"
        }
      ],
      "name": "getOwnedGems",
      "outputs": [
        {
          "internalType": "uint256[]",
          "name": "gems",
          "type": "uint256[]"
        },
        {
          "internalType": "uint256",
          "name": "gemLen",
          "type": "uint256"
        }
      ],
      "stateMutability": "view",
      "type": "function"
    },
    {
      "inputs": [
        {
          "components": [
            {
              "internalType": "address",
              "name": "factory",
              "type": "address"
            },
            {
              "internalType": "address",
              "name": "multitoken",
              "type": "address"
            },
            {
              "internalType": "address",
              "name": "poolAddress",
              "type": "address"
            },
            {
              "internalType": "string",
              "name": "symbol",
              "type": "string"
            },
            {
              "internalType": "string",
              "name": "name",
              "type": "string"
            },
            {
              "internalType": "string",
              "name": "description",
              "type": "string"
            },
            {
              "internalType": "uint256",
              "name": "category",
              "type": "uint256"
            },
            {
              "internalType": "uint256",
              "name": "ethPrice",
              "type": "uint256"
            }
          ],
          "internalType": "struct IBitgemIndexer.GemPool",
          "name": "gemPool",
          "type": "tuple"
        },
        {
          "components": [
            {
              "internalType": "uint256",
              "name": "id",
              "type": "uint256"
            },
            {
              "internalType": "string",
              "name": "symbol",
              "type": "string"
            },
            {
              "internalType": "string",
              "name": "name",
              "type": "string"
            },
            {
              "internalType": "uint256",
              "name": "gemHash",
              "type": "uint256"
            },
            {
              "internalType": "address",
              "name": "pool",
              "type": "address"
            },
            {
              "internalType": "address",
              "name": "minter",
              "type": "address"
            },
            {
              "internalType": "address",
              "name": "gemPoolFactory",
              "type": "address"
            },
            {
              "internalType": "address",
              "name": "multitoken",
              "type": "address"
            },
            {
              "internalType": "uint256",
              "name": "quantity",
              "type": "uint256"
            }
          ],
          "internalType": "struct IBitgemIndexer.Gem",
          "name": "gem",
          "type": "tuple"
        }
      ],
      "name": "indexGem",
      "outputs": [
        {
          "internalType": "bool",
          "name": "",
          "type": "bool"
        }
      ],
      "stateMutability": "nonpayable",
      "type": "function"
    },
    {
      "inputs": [
        {
          "internalType": "address",
          "name": "gemPool",
          "type": "address"
        },
        {
          "internalType": "address",
          "name": "multitoken",
          "type": "address"
        },
        {
          "internalType": "uint256",
          "name": "page",
          "type": "uint256"
        },
        {
          "internalType": "uint256",
          "name": "count",
          "type": "uint256"
        }
      ],
      "name": "indexGemPool",
      "outputs": [
        {
          "components": [
            {
              "internalType": "uint256",
              "name": "id",
              "type": "uint256"
            },
            {
              "internalType": "string",
              "name": "symbol",
              "type": "string"
            },
            {
              "internalType": "string",
              "name": "name",
              "type": "string"
            },
            {
              "internalType": "uint256",
              "name": "gemHash",
              "type": "uint256"
            },
            {
              "internalType": "address",
              "name": "pool",
              "type": "address"
            },
            {
              "internalType": "address",
              "name": "minter",
              "type": "address"
            },
            {
              "internalType": "address",
              "name": "gemPoolFactory",
              "type": "address"
            },
            {
              "internalType": "address",
              "name": "multitoken",
              "type": "address"
            },
            {
              "internalType": "uint256",
              "name": "quantity",
              "type": "uint256"
            }
          ],
          "internalType": "struct IBitgemIndexer.Gem[]",
          "name": "gems",
          "type": "tuple[]"
        }
      ],
      "stateMutability": "nonpayable",
      "type": "function"
    },
    {
      "inputs": [
        {
          "components": [
            {
              "internalType": "address",
              "name": "factory",
              "type": "address"
            },
            {
              "internalType": "address",
              "name": "multitoken",
              "type": "address"
            },
            {
              "internalType": "address",
              "name": "poolAddress",
              "type": "address"
            },
            {
              "internalType": "string",
              "name": "symbol",
              "type": "string"
            },
            {
              "internalType": "string",
              "name": "name",
              "type": "string"
            },
            {
              "internalType": "string",
              "name": "description",
              "type": "string"
            },
            {
              "internalType": "uint256",
              "name": "category",
              "type": "uint256"
            },
            {
              "internalType": "uint256",
              "name": "ethPrice",
              "type": "uint256"
            }
          ],
          "internalType": "struct IBitgemIndexer.GemPool",
          "name": "gemPool",
          "type": "tuple"
        },
        {
          "components": [
            {
              "internalType": "uint256",
              "name": "id",
              "type": "uint256"
            },
            {
              "internalType": "string",
              "name": "symbol",
              "type": "string"
            },
            {
              "internalType": "string",
              "name": "name",
              "type": "string"
            },
            {
              "internalType": "uint256",
              "name": "gemHash",
              "type": "uint256"
            },
            {
              "internalType": "address",
              "name": "pool",
              "type": "address"
            },
            {
              "internalType": "address",
              "name": "minter",
              "type": "address"
            },
            {
              "internalType": "address",
              "name": "gemPoolFactory",
              "type": "address"
            },
            {
              "internalType": "address",
              "name": "multitoken",
              "type": "address"
            },
            {
              "internalType": "uint256",
              "name": "quantity",
              "type": "uint256"
            }
          ],
          "internalType": "struct IBitgemIndexer.Gem",
          "name": "gem",
          "type": "tuple"
        }
      ],
      "name": "indexGemUnsafe",
      "outputs": [],
      "stateMutability": "nonpayable",
      "type": "function"
    },
    {
      "inputs": [
        {
          "components": [
            {
              "internalType": "address",
              "name": "factory",
              "type": "address"
            },
            {
              "internalType": "address",
              "name": "multitoken",
              "type": "address"
            },
            {
              "internalType": "address",
              "name": "poolAddress",
              "type": "address"
            },
            {
              "internalType": "string",
              "name": "symbol",
              "type": "string"
            },
            {
              "internalType": "string",
              "name": "name",
              "type": "string"
            },
            {
              "internalType": "string",
              "name": "description",
              "type": "string"
            },
            {
              "internalType": "uint256",
              "name": "category",
              "type": "uint256"
            },
            {
              "internalType": "uint256",
              "name": "ethPrice",
              "type": "uint256"
            }
          ],
          "internalType": "struct IBitgemIndexer.GemPool",
          "name": "gemPool",
          "type": "tuple"
        },
        {
          "components": [
            {
              "internalType": "uint256",
              "name": "id",
              "type": "uint256"
            },
            {
              "internalType": "string",
              "name": "symbol",
              "type": "string"
            },
            {
              "internalType": "string",
              "name": "name",
              "type": "string"
            },
            {
              "internalType": "uint256",
              "name": "gemHash",
              "type": "uint256"
            },
            {
              "internalType": "address",
              "name": "pool",
              "type": "address"
            },
            {
              "internalType": "address",
              "name": "minter",
              "type": "address"
            },
            {
              "internalType": "address",
              "name": "gemPoolFactory",
              "type": "address"
            },
            {
              "internalType": "address",
              "name": "multitoken",
              "type": "address"
            },
            {
              "internalType": "uint256",
              "name": "quantity",
              "type": "uint256"
            }
          ],
          "internalType": "struct IBitgemIndexer.Gem[]",
          "name": "gems",
          "type": "tuple[]"
        }
      ],
      "name": "indexGems",
      "outputs": [],
      "stateMutability": "nonpayable",
      "type": "function"
    },
    {
      "inputs": [
        {
          "internalType": "address",
          "name": "_address",
          "type": "address"
        }
      ],
      "name": "isController",
      "outputs": [
        {
          "internalType": "bool",
          "name": "allowed",
          "type": "bool"
        }
      ],
      "stateMutability": "view",
      "type": "function"
    },
    {
      "inputs": [],
      "name": "relinquishControl",
      "outputs": [],
      "stateMutability": "nonpayable",
      "type": "function"
    }
  ],
  "transactionHash": "0xaf2e11e7daaf7490c7b2edc8073d8da9dca6af66213f720d67cbdbb2799373ec",
  "args": [],
  "solcInputHash": "2461357fd4a73a29bb44730759b3dbd8",
  "bytecode": "0x608060405234801561001057600080fd5b5061001a3061001f565b610043565b6001600160a01b03166000908152602081905260409020805460ff19166001179055565b6126ae806100526000396000f3fe608060405234801561001057600080fd5b50600436106101005760003560e01c8063b429afeb11610097578063dec08e2f11610066578063dec08e2f14610245578063e1c28bef14610258578063e4cbbc7b14610260578063ef3c4a051461027357610100565b8063b429afeb146101df578063c6e8a9e4146101ff578063d029065614610212578063d7b20e6b1461022557610100565b8063677808aa116100d3578063677808aa146101835780638c54baf0146101a4578063a45c1d54146101b7578063a7fc7a07146101cc57610100565b80630551f733146101055780630f4c5ccf146101365780635890b53a1461014957806360daabda14610170575b600080fd5b610118610113366004611e54565b610286565b60405161012d999897969594939291906124ab565b60405180910390f35b610118610144366004611e54565b610414565b61015c610157366004611d76565b610430565b60405161012d989796959493929190612208565b61015c61017e366004611d76565b610619565b610196610191366004611db5565b610657565b60405161012d9291906122f6565b6101186101b2366004611e54565b610937565b6101ca6101c5366004611f7f565b610953565b005b6101ca6101da366004611d76565b6109a8565b6101f26101ed366004611d76565b610a13565b60405161012d919061233e565b6101f261020d36600461203f565b610a31565b6101186102203660046120a0565b610a46565b610238610233366004611e0f565b610a67565b60405161012d9190612296565b6101ca61025336600461203f565b610e49565b6101ca610e89565b61015c61026e3660046120a0565b610ee0565b610118610281366004611e54565b610f32565b600360205281600052604060002081815481106102a257600080fd5b9060005260206000209060090201600091509150508060000154908060010180546102cc906125de565b80601f01602080910402602001604051908101604052809291908181526020018280546102f8906125de565b80156103455780601f1061031a57610100808354040283529160200191610345565b820191906000526020600020905b81548152906001019060200180831161032857829003601f168201915b50505050509080600201805461035a906125de565b80601f0160208091040260200160405190810160405280929190818152602001828054610386906125de565b80156103d35780601f106103a8576101008083540402835291602001916103d3565b820191906000526020600020905b8154815290600101906020018083116103b657829003601f168201915b5050505060038301546004840154600585015460068601546007870154600890970154959693956001600160a01b0393841695509183169390831692169089565b600560205281600052604060002081815481106102a257600080fd5b60076020526000908152604090208054600182015460028301546003840180546001600160a01b039485169593851694909216929161046e906125de565b80601f016020809104026020016040519081016040528092919081815260200182805461049a906125de565b80156104e75780601f106104bc576101008083540402835291602001916104e7565b820191906000526020600020905b8154815290600101906020018083116104ca57829003601f168201915b5050505050908060040180546104fc906125de565b80601f0160208091040260200160405190810160405280929190818152602001828054610528906125de565b80156105755780601f1061054a57610100808354040283529160200191610575565b820191906000526020600020905b81548152906001019060200180831161055857829003601f168201915b50505050509080600501805461058a906125de565b80601f01602080910402602001604051908101604052809291908181526020018280546105b6906125de565b80156106035780601f106105d857610100808354040283529160200191610603565b820191906000526020600020905b8154815290600101906020018083116105e657829003601f168201915b5050505050908060060154908060070154905088565b60086020526000908152604090208054600182015460028301546003840180546001600160a01b039485169593851694909216929161046e906125de565b606060008267ffffffffffffffff81111561068257634e487b7160e01b600052604160045260246000fd5b6040519080825280602002602001820160405280156106ab578160200160208202803683370190505b50915060006106ba848661258f565b90505b836106c8818761258f565b6106d29190612577565b81101561092c576040517fd31674db0000000000000000000000000000000000000000000000000000000081526000906001600160a01b038a169063d31674db906107219085906004016124a2565b60206040518083038186803b15801561073957600080fd5b505afa925050508015610769575060408051601f3d908101601f19168201909252610766918101906120b8565b60015b610773575061091a565b90506040517fe6c3b1f60000000000000000000000000000000000000000000000000000000081526000906001600160a01b038b169063e6c3b1f6906107bd9085906004016124a2565b60206040518083038186803b1580156107d557600080fd5b505afa1580156107e9573d6000803e3d6000fd5b505050506040513d601f19601f8201168201806040525081019061080d9190611e7f565b90506000896001600160a01b031662fdd58e8a856040518363ffffffff1660e01b815260040161083e92919061227d565b60206040518083038186803b15801561085657600080fd5b505afa15801561086a573d6000803e3d6000fd5b505050506040513d601f19601f8201168201806040525081019061088e91906120b8565b905060028260028111156108b257634e487b7160e01b600052602160045260246000fd5b1415806108bd575080155b806108c6575082155b806108d15750826001145b156108de5750505061091a565b8286866108ea81612619565b97508151811061090a57634e487b7160e01b600052603260045260246000fd5b6020026020010181815250505050505b8061092481612619565b9150506106bd565b509550959350505050565b600460205281600052604060002081815481106102a257600080fd5b60005b81518110156109a3576109908383838151811061098357634e487b7160e01b600052603260045260246000fd5b6020026020010151610f4e565b508061099b81612619565b915050610956565b505050565b3360009081526020819052604090205460ff161515600114806109ca57503033145b6109ef5760405162461bcd60e51b81526004016109e690612380565b60405180910390fd5b6001600160a01b03166000908152602081905260409020805460ff19166001179055565b6001600160a01b031660009081526020819052604090205460ff1690565b6000610a3d8383610f4e565b90505b92915050565b6001602081905260009182526040909120805491810180546102cc906125de565b60606000856001600160a01b031663f4fde0d36040518163ffffffff1660e01b815260040160206040518083038186803b158015610aa457600080fd5b505afa158015610ab8573d6000803e3d6000fd5b505050506040513d601f19601f82011682018060405250810190610adc91906120b8565b90508083610aea818761258f565b610af49190612577565b1115610b125760405162461bcd60e51b81526004016109e690612349565b60008367ffffffffffffffff811115610b3b57634e487b7160e01b600052604160045260246000fd5b604051908082528060200260200182016040528015610b7457816020015b610b616119b2565b815260200190600190039081610b595790505b5092506000610b83858761258f565b90505b84610b91818861258f565b610b9b9190612577565b81108015610ba857508281105b15610e3e576040517fd31674db0000000000000000000000000000000000000000000000000000000081526000906001600160a01b038a169063d31674db90610bf59085906004016124a2565b60206040518083038186803b158015610c0d57600080fd5b505afa925050508015610c3d575060408051601f3d908101601f19168201909252610c3a918101906120b8565b60015b610c475750610e2c565b90506040517fe6c3b1f60000000000000000000000000000000000000000000000000000000081526000906001600160a01b038b169063e6c3b1f690610c919085906004016124a2565b60206040518083038186803b158015610ca957600080fd5b505afa158015610cbd573d6000803e3d6000fd5b505050506040513d601f19601f82011682018060405250810190610ce19190611e7f565b90506002816002811115610d0557634e487b7160e01b600052602160045260246000fd5b1415610e29576040517ff68ee90e0000000000000000000000000000000000000000000000000000000081526000906001600160a01b038b169063f68ee90e90610d539086906004016124a2565b60206040518083038186803b158015610d6b57600080fd5b505afa158015610d7f573d6000803e3d6000fd5b505050506040513d601f19601f82011682018060405250810190610da391906120b8565b90508015610e275760005b81811015610e2557600080610dc58d8f89896116c0565b91509150610dd38282610f4e565b15610e1057808a89610de481612619565b9a5081518110610e0457634e487b7160e01b600052603260045260246000fd5b60200260200101819052505b50508080610e1d90612619565b915050610dae565b505b505b50505b80610e3681612619565b915050610b86565b505050949350505050565b80516040517f8c1ee35fa3a9dd5c4e2bfc4b7d4a9b944abf3f202ed9ec14c95708f08696a00c90610e7d90859085906123dd565b60405180910390a25050565b3360009081526020819052604090205460ff16151560011480610eab57503033145b610ec75760405162461bcd60e51b81526004016109e690612380565b336000908152602081905260409020805460ff19169055565b60068181548110610ef057600080fd5b600091825260209091206008909102018054600182015460028301546003840180546001600160a01b0394851696509284169493909116929161046e906125de565b600260205281600052604060002081815481106102a257600080fd5b600080610f5a8361195b565b60008181526001602052604090205490915015610f7b576000915050610a40565b80835260008181526001602081815260409092208551815582860151805187949293610fac93908501920190611a22565b5060408201518051610fc8916002840191602090910190611a22565b5060608201516003820155608082015160048201805473ffffffffffffffffffffffffffffffffffffffff199081166001600160a01b039384161790915560a080850151600585018054841691851691909117905560c0850151600685018054841691851691909117905560e0850151600785018054909316908416179091556101009093015160089092019190915590840151166000908152600260209081526040822080546001818101835591845292829020865160099094020192835581860151805187949361109f938501920190611a22565b50604082015180516110bb916002840191602090910190611a22565b506060820151600382810191909155608083015160048301805473ffffffffffffffffffffffffffffffffffffffff199081166001600160a01b039384161790915560a0850151600585018054831691841691909117905560c080860151600686018054841691851691909117905560e08601516007860180549093169084161790915561010090940151600890930192909255918501511660009081526020918252604081208054600181810183559183529183902086516009909302019182558286015180518794611193938501920190611a22565b50604082015180516111af916002840191602090910190611a22565b506060820151600382015560808201516004808301805473ffffffffffffffffffffffffffffffffffffffff199081166001600160a01b039485161790915560a0850151600585018054831691851691909117905560c0850151600685018054831691851691909117905560e08086015160078601805490931690851617909155610100909401516008909301929092559185015190911660009081526020918252604081208054600181810183559183529183902086516009909302019182558286015180518794611286938501920190611a22565b50604082015180516112a2916002840191602090910190611a22565b506060820151600382015560808083015160048301805473ffffffffffffffffffffffffffffffffffffffff199081166001600160a01b039384161790915560a08501516005808601805484169285169290921790915560c0860151600686018054841691851691909117905560e086015160078601805490931690841617909155610100909401516008909301929092558501511660009081526020918252604081208054600181810183559183529183902086516009909302019182558286015180518794611377938501920190611a22565b5060408201518051611393916002840191602090910190611a22565b506060820151600382015560808083015160048301805473ffffffffffffffffffffffffffffffffffffffff199081166001600160a01b039384161790915560a0850151600585018054831691841691909117905560c0850151600685018054831691841691909117905560e0850151600780860180549093169184169190911790915561010090940151600890930192909255850151811660009081526020929092526040909120600101541661167a5760808301516001600160a01b039081166000908152600760209081526040918290208751815490851673ffffffffffffffffffffffffffffffffffffffff199182161782558289015160018301805491871691831691909117905592880151600282018054919095169316929092179092556060860151805187936114d1926003850192910190611a22565b50608082015180516114ed916004840191602090910190611a22565b5060a08201518051611509916005840191602090910190611a22565b5060c082015160068281019190915560e090920151600790910155805460018101825560009190915284517ff652222313e28459528d920b65115c16c04f3efc82aaedc97be59f3f377c0d3f6008909202918201805473ffffffffffffffffffffffffffffffffffffffff199081166001600160a01b039384161782556020808901517ff652222313e28459528d920b65115c16c04f3efc82aaedc97be59f3f377c0d4086018054841691861691909117905560408901517ff652222313e28459528d920b65115c16c04f3efc82aaedc97be59f3f377c0d41860180549093169416939093179055606087015180518894929361162a937ff652222313e28459528d920b65115c16c04f3efc82aaedc97be59f3f377c0d4201920190611a22565b5060808201518051611646916004840191602090910190611a22565b5060a08201518051611662916005840191602090910190611a22565b5060c0820151816006015560e0820151816007015550505b82516040517f8c1ee35fa3a9dd5c4e2bfc4b7d4a9b944abf3f202ed9ec14c95708f08696a00c906116ae90879087906123dd565b60405180910390a25060019392505050565b6116c8611aa6565b6116d06119b2565b6040517f740ec99e0000000000000000000000000000000000000000000000000000000081526000906001600160a01b0388169063740ec99e9061171a9088908890600401612517565b60206040518083038186803b15801561173257600080fd5b505afa158015611746573d6000803e3d6000fd5b505050506040513d601f19601f8201168201806040525081019061176a9190611d99565b905060008060008060008a6001600160a01b031663e06174e46040518163ffffffff1660e01b815260040160006040518083038186803b1580156117ad57600080fd5b505afa1580156117c1573d6000803e3d6000fd5b505050506040513d6000823e601f3d908101601f191682016040526117e99190810190611e9e565b5050505050509450945094509450945060405180610100016040528060006001600160a01b031681526020018d6001600160a01b031681526020018c6001600160a01b0316815260200186815260200185815260200184815260200183815260200182815250975060008c6001600160a01b031662fdd58e888c6040518363ffffffff1660e01b815260040161188092919061227d565b60206040518083038186803b15801561189857600080fd5b505afa1580156118ac573d6000803e3d6000fd5b505050506040513d601f19601f820116820180604052508101906118d091906120b8565b9050801561194b57604051806101200160405280600081526020018781526020018681526020018b8152602001886001600160a01b031681526020018d6001600160a01b031681526020018e6001600160a01b031681526020018d6001600160a01b031681526020018281525097506119488861195b565b88525b5050505050505094509492505050565b600081606001518260a001518360c001518460e001518560800151866101000151604051602001611991969594939291906121b0565b6040516020818303038152906040528051906020012060001c90505b919050565b6040518061012001604052806000815260200160608152602001606081526020016000815260200160006001600160a01b0316815260200160006001600160a01b0316815260200160006001600160a01b0316815260200160006001600160a01b03168152602001600081525090565b828054611a2e906125de565b90600052602060002090601f016020900481019282611a505760008555611a96565b82601f10611a6957805160ff1916838001178555611a96565b82800160010185558215611a96579182015b82811115611a96578251825591602001919060010190611a7b565b50611aa2929150611b06565b5090565b60405180610100016040528060006001600160a01b0316815260200160006001600160a01b0316815260200160006001600160a01b0316815260200160608152602001606081526020016060815260200160008152602001600081525090565b5b80821115611aa25760008155600101611b07565b80356119ad81612660565b600082601f830112611b36578081fd5b8135611b49611b448261254f565b612525565b818152846020838601011115611b5d578283fd5b816020850160208301379081016020019190915292915050565b600082601f830112611b87578081fd5b8151611b95611b448261254f565b818152846020838601011115611ba9578283fd5b611bba8260208301602087016125ae565b949350505050565b6000610100808385031215611bd5578182fd5b611bde81612525565b915050611bea82611b1b565b8152611bf860208301611b1b565b6020820152611c0960408301611b1b565b6040820152606082013567ffffffffffffffff80821115611c2957600080fd5b611c3585838601611b26565b60608401526080840135915080821115611c4e57600080fd5b611c5a85838601611b26565b608084015260a0840135915080821115611c7357600080fd5b50611c8084828501611b26565b60a08301525060c082013560c082015260e082013560e082015292915050565b6000610120808385031215611cb3578182fd5b611cbc81612525565b91505081358152602082013567ffffffffffffffff80821115611cde57600080fd5b611cea85838601611b26565b60208401526040840135915080821115611d0357600080fd5b50611d1084828501611b26565b60408301525060608201356060820152611d2c60808301611b1b565b6080820152611d3d60a08301611b1b565b60a0820152611d4e60c08301611b1b565b60c0820152611d5f60e08301611b1b565b60e082015261010080830135818301525092915050565b600060208284031215611d87578081fd5b8135611d9281612660565b9392505050565b600060208284031215611daa578081fd5b8151611d9281612660565b600080600080600060a08688031215611dcc578081fd5b8535611dd781612660565b94506020860135611de781612660565b93506040860135611df781612660565b94979396509394606081013594506080013592915050565b60008060008060808587031215611e24578384fd5b8435611e2f81612660565b93506020850135611e3f81612660565b93969395505050506040820135916060013590565b60008060408385031215611e66578182fd5b8235611e7181612660565b946020939093013593505050565b600060208284031215611e90578081fd5b815160038110611d92578182fd5b60008060008060008060008060008060006101608c8e031215611ebf578586fd5b8b5167ffffffffffffffff811115611ed5578687fd5b611ee18e828f01611b77565b9b505060208c015167ffffffffffffffff811115611efd578687fd5b611f098e828f01611b77565b9a505060408c015167ffffffffffffffff811115611f25578687fd5b611f318e828f01611b77565b99505060608c0151975060808c0151965060a08c0151955060c08c0151945060e08c015193506101008c015192506101208c015191506101408c015190509295989b509295989b9093969950565b60008060408385031215611f91578182fd5b823567ffffffffffffffff80821115611fa8578384fd5b611fb486838701611bc2565b9350602091508185013581811115611fca578384fd5b8501601f81018713611fda578384fd5b803582811115611fec57611fec61264a565b611ff98485830201612525565b8181528481019350828501865b8381101561202f5761201d8b888435880101611ca0565b86529486019490860190600101612006565b5096999098509650505050505050565b60008060408385031215612051578182fd5b823567ffffffffffffffff80821115612068578384fd5b61207486838701611bc2565b93506020850135915080821115612089578283fd5b5061209685828601611ca0565b9150509250929050565b6000602082840312156120b1578081fd5b5035919050565b6000602082840312156120c9578081fd5b5051919050565b6001600160a01b03169052565b600081518084526120f58160208601602086016125ae565b601f01601f19169290920160200192915050565b6000610120825184526020830151816020860152612129828601826120dd565b9150506040830151848203604086015261214382826120dd565b91505060608301516060850152608083015161216260808601826120d0565b5060a083015161217560a08601826120d0565b5060c083015161218860c08601826120d0565b5060e083015161219b60e08601826120d0565b50610100928301519390920192909252919050565b9586527fffffffffffffffffffffffffffffffffffffffff000000000000000000000000606095861b8116602088015293851b8416603487015291841b8316604886015290921b16605c830152607082015260900190565b60006101006001600160a01b03808c168452808b166020850152808a1660408501525080606084015261223d818401896120dd565b9050828103608084015261225181886120dd565b905082810360a084015261226581876120dd565b60c0840195909552505060e001529695505050505050565b6001600160a01b03929092168252602082015260400190565b6000602080830181845280855180835260408601915060408482028701019250838701855b828110156122e957603f198886030184526122d7858351612109565b945092850192908501906001016122bb565b5092979650505050505050565b604080825283519082018190526000906020906060840190828701845b8281101561232f57815184529284019290840190600101612313565b50505092019290925292915050565b901515815260200190565b6020808252600c908201527f4f55545f4f465f52414e47450000000000000000000000000000000000000000604082015260600190565b60208082526028908201527f436f6e74726f6c6c61626c653a2063616c6c6572206973206e6f74206120636f60408201527f6e74726f6c6c6572000000000000000000000000000000000000000000000000606082015260800190565b6000604082526123f16040830185516120d0565b602084015161240360608401826120d0565b50604084015161241660808401826120d0565b5060608401516101008060a08501526124336101408501836120dd565b91506080860151603f19808685030160c087015261245184836120dd565b935060a08801519150808685030160e08701525061246f83826120dd565b92505060c0860151818501525060e085015161012084015282810360208401526124998185612109565b95945050505050565b90815260200190565b60006101208b83528060208401526124c58184018c6120dd565b905082810360408401526124d9818b6120dd565b606084019990995250506001600160a01b03958616608082015293851660a085015291841660c084015290921660e082015261010001529392505050565b918252602082015260400190565b60405181810167ffffffffffffffff811182821017156125475761254761264a565b604052919050565b600067ffffffffffffffff8211156125695761256961264a565b50601f01601f191660200190565b6000821982111561258a5761258a612634565b500190565b60008160001904831182151516156125a9576125a9612634565b500290565b60005b838110156125c95781810151838201526020016125b1565b838111156125d8576000848401525b50505050565b6002810460018216806125f257607f821691505b6020821081141561261357634e487b7160e01b600052602260045260246000fd5b50919050565b600060001982141561262d5761262d612634565b5060010190565b634e487b7160e01b600052601160045260246000fd5b634e487b7160e01b600052604160045260246000fd5b6001600160a01b038116811461267557600080fd5b5056fea264697066735822122029c8ab320e664bf5a5955ffbfc9331c07f5f67af17ed454b0d41ed81ad2b9a8f64736f6c63430008000033",
  "libraries": {
    "Strings": "0xeB3E79099663eC952e02E608E00d463F36b4Fb75",
    "AddressSet": "0x8974D57fCfF9C10E9d41709da86d006604D8c75d",
    "UInt256Set": "0x8B6893DB13b55d4952a51d5188215e2a470515a9",
    "Create2": "0xBa85d3e8E0F9e48F5c21649d33f6d0f9Af12E3f5",
    "WrappedTokenLib": "0xA6E25B1B9f4E9DB9E9397853B26436Dcb0563565",
    "ComplexPoolLib": "0x6B761F9d8d3E921fA50cB08b244D82D9D153D1e4",
    "LootboxLib": "0x211f558db66012ac014d5b252823Fc862588EA7F"
  },
  "devdoc": {
    "author": "The name of the author",
    "details": "Explain to a developer any extra details",
    "kind": "dev",
    "methods": {
      "addController(address)": {
        "details": "Add an address allowed to control this contract"
      },
      "isController(address)": {
        "details": "Check if this address is a controller"
      },
      "relinquishControl()": {
        "details": "Remove the sender address from the list of controllers"
      }
    },
    "title": "A title that should describe the contract/interface",
    "version": 1
  },
  "userdoc": {
    "kind": "user",
    "methods": {},
    "notice": "Explain to an end user what this does",
    "version": 1
  },
  "storageLayout": {
    "storage": [
      {
        "astId": 12920,
        "contract": "src/indexer/BitgemIndexer.sol:BitgemIndexer",
        "label": "_controllers",
        "offset": 0,
        "slot": "0",
        "type": "t_mapping(t_address,t_bool)"
      },
      {
        "astId": 16340,
        "contract": "src/indexer/BitgemIndexer.sol:BitgemIndexer",
        "label": "gemMap",
        "offset": 0,
        "slot": "1",
        "type": "t_mapping(t_uint256,t_struct(Gem)17065_storage)"
      },
      {
        "astId": 16346,
        "contract": "src/indexer/BitgemIndexer.sol:BitgemIndexer",
        "label": "gemsByMinter",
        "offset": 0,
        "slot": "2",
        "type": "t_mapping(t_address,t_array(t_struct(Gem)17065_storage)dyn_storage)"
      },
      {
        "astId": 16352,
        "contract": "src/indexer/BitgemIndexer.sol:BitgemIndexer",
        "label": "gemsByFactory",
        "offset": 0,
        "slot": "3",
        "type": "t_mapping(t_address,t_array(t_struct(Gem)17065_storage)dyn_storage)"
      },
      {
        "astId": 16358,
        "contract": "src/indexer/BitgemIndexer.sol:BitgemIndexer",
        "label": "gemsByMultitoken",
        "offset": 0,
        "slot": "4",
        "type": "t_mapping(t_address,t_array(t_struct(Gem)17065_storage)dyn_storage)"
      },
      {
        "astId": 16364,
        "contract": "src/indexer/BitgemIndexer.sol:BitgemIndexer",
        "label": "gemsByPool",
        "offset": 0,
        "slot": "5",
        "type": "t_mapping(t_address,t_array(t_struct(Gem)17065_storage)dyn_storage)"
      },
      {
        "astId": 16368,
        "contract": "src/indexer/BitgemIndexer.sol:BitgemIndexer",
        "label": "gemPools",
        "offset": 0,
        "slot": "6",
        "type": "t_array(t_struct(GemPool)17046_storage)dyn_storage"
      },
      {
        "astId": 16373,
        "contract": "src/indexer/BitgemIndexer.sol:BitgemIndexer",
        "label": "gemPoolsMap",
        "offset": 0,
        "slot": "7",
        "type": "t_mapping(t_address,t_struct(GemPool)17046_storage)"
      },
      {
        "astId": 16378,
        "contract": "src/indexer/BitgemIndexer.sol:BitgemIndexer",
        "label": "gemPoolFactoriesMap",
        "offset": 0,
        "slot": "8",
        "type": "t_mapping(t_address,t_struct(GemPool)17046_storage)"
      }
    ],
    "types": {
      "t_address": {
        "encoding": "inplace",
        "label": "address",
        "numberOfBytes": "20"
      },
      "t_array(t_struct(Gem)17065_storage)dyn_storage": {
        "base": "t_struct(Gem)17065_storage",
        "encoding": "dynamic_array",
        "label": "struct IBitgemIndexer.Gem[]",
        "numberOfBytes": "32"
      },
      "t_array(t_struct(GemPool)17046_storage)dyn_storage": {
        "base": "t_struct(GemPool)17046_storage",
        "encoding": "dynamic_array",
        "label": "struct IBitgemIndexer.GemPool[]",
        "numberOfBytes": "32"
      },
      "t_bool": {
        "encoding": "inplace",
        "label": "bool",
        "numberOfBytes": "1"
      },
      "t_mapping(t_address,t_array(t_struct(Gem)17065_storage)dyn_storage)": {
        "encoding": "mapping",
        "key": "t_address",
        "label": "mapping(address => struct IBitgemIndexer.Gem[])",
        "numberOfBytes": "32",
        "value": "t_array(t_struct(Gem)17065_storage)dyn_storage"
      },
      "t_mapping(t_address,t_bool)": {
        "encoding": "mapping",
        "key": "t_address",
        "label": "mapping(address => bool)",
        "numberOfBytes": "32",
        "value": "t_bool"
      },
      "t_mapping(t_address,t_struct(GemPool)17046_storage)": {
        "encoding": "mapping",
        "key": "t_address",
        "label": "mapping(address => struct IBitgemIndexer.GemPool)",
        "numberOfBytes": "32",
        "value": "t_struct(GemPool)17046_storage"
      },
      "t_mapping(t_uint256,t_struct(Gem)17065_storage)": {
        "encoding": "mapping",
        "key": "t_uint256",
        "label": "mapping(uint256 => struct IBitgemIndexer.Gem)",
        "numberOfBytes": "32",
        "value": "t_struct(Gem)17065_storage"
      },
      "t_string_storage": {
        "encoding": "bytes",
        "label": "string",
        "numberOfBytes": "32"
      },
      "t_struct(Gem)17065_storage": {
        "encoding": "inplace",
        "label": "struct IBitgemIndexer.Gem",
        "members": [
          {
            "astId": 17048,
            "contract": "src/indexer/BitgemIndexer.sol:BitgemIndexer",
            "label": "id",
            "offset": 0,
            "slot": "0",
            "type": "t_uint256"
          },
          {
            "astId": 17050,
            "contract": "src/indexer/BitgemIndexer.sol:BitgemIndexer",
            "label": "symbol",
            "offset": 0,
            "slot": "1",
            "type": "t_string_storage"
          },
          {
            "astId": 17052,
            "contract": "src/indexer/BitgemIndexer.sol:BitgemIndexer",
            "label": "name",
            "offset": 0,
            "slot": "2",
            "type": "t_string_storage"
          },
          {
            "astId": 17054,
            "contract": "src/indexer/BitgemIndexer.sol:BitgemIndexer",
            "label": "gemHash",
            "offset": 0,
            "slot": "3",
            "type": "t_uint256"
          },
          {
            "astId": 17056,
            "contract": "src/indexer/BitgemIndexer.sol:BitgemIndexer",
            "label": "pool",
            "offset": 0,
            "slot": "4",
            "type": "t_address"
          },
          {
            "astId": 17058,
            "contract": "src/indexer/BitgemIndexer.sol:BitgemIndexer",
            "label": "minter",
            "offset": 0,
            "slot": "5",
            "type": "t_address"
          },
          {
            "astId": 17060,
            "contract": "src/indexer/BitgemIndexer.sol:BitgemIndexer",
            "label": "gemPoolFactory",
            "offset": 0,
            "slot": "6",
            "type": "t_address"
          },
          {
            "astId": 17062,
            "contract": "src/indexer/BitgemIndexer.sol:BitgemIndexer",
            "label": "multitoken",
            "offset": 0,
            "slot": "7",
            "type": "t_address"
          },
          {
            "astId": 17064,
            "contract": "src/indexer/BitgemIndexer.sol:BitgemIndexer",
            "label": "quantity",
            "offset": 0,
            "slot": "8",
            "type": "t_uint256"
          }
        ],
        "numberOfBytes": "288"
      },
      "t_struct(GemPool)17046_storage": {
        "encoding": "inplace",
        "label": "struct IBitgemIndexer.GemPool",
        "members": [
          {
            "astId": 17031,
            "contract": "src/indexer/BitgemIndexer.sol:BitgemIndexer",
            "label": "factory",
            "offset": 0,
            "slot": "0",
            "type": "t_address"
          },
          {
            "astId": 17033,
            "contract": "src/indexer/BitgemIndexer.sol:BitgemIndexer",
            "label": "multitoken",
            "offset": 0,
            "slot": "1",
            "type": "t_address"
          },
          {
            "astId": 17035,
            "contract": "src/indexer/BitgemIndexer.sol:BitgemIndexer",
            "label": "poolAddress",
            "offset": 0,
            "slot": "2",
            "type": "t_address"
          },
          {
            "astId": 17037,
            "contract": "src/indexer/BitgemIndexer.sol:BitgemIndexer",
            "label": "symbol",
            "offset": 0,
            "slot": "3",
            "type": "t_string_storage"
          },
          {
            "astId": 17039,
            "contract": "src/indexer/BitgemIndexer.sol:BitgemIndexer",
            "label": "name",
            "offset": 0,
            "slot": "4",
            "type": "t_string_storage"
          },
          {
            "astId": 17041,
            "contract": "src/indexer/BitgemIndexer.sol:BitgemIndexer",
            "label": "description",
            "offset": 0,
            "slot": "5",
            "type": "t_string_storage"
          },
          {
            "astId": 17043,
            "contract": "src/indexer/BitgemIndexer.sol:BitgemIndexer",
            "label": "category",
            "offset": 0,
            "slot": "6",
            "type": "t_uint256"
          },
          {
            "astId": 17045,
            "contract": "src/indexer/BitgemIndexer.sol:BitgemIndexer",
            "label": "ethPrice",
            "offset": 0,
            "slot": "7",
            "type": "t_uint256"
          }
        ],
        "numberOfBytes": "256"
      },
      "t_uint256": {
        "encoding": "inplace",
        "label": "uint256",
        "numberOfBytes": "32"
      }
    }
  }
}