{
  "address": "0x9d03b8C4eA8cB2d3f5C271e027344a5e107277f6",
  "abi": [
    {
      "inputs": [],
      "stateMutability": "nonpayable",
      "type": "constructor"
    },
    {
      "anonymous": false,
      "inputs": [
        {
          "indexed": true,
          "internalType": "address",
          "name": "contractAddress",
          "type": "address"
        },
        {
          "indexed": true,
          "internalType": "address",
          "name": "controllerAddress",
          "type": "address"
        }
      ],
      "name": "ControllerAdded",
      "type": "event"
    },
    {
      "anonymous": false,
      "inputs": [
        {
          "indexed": true,
          "internalType": "address",
          "name": "contractAddress",
          "type": "address"
        },
        {
          "indexed": true,
          "internalType": "address",
          "name": "controllerAddress",
          "type": "address"
        }
      ],
      "name": "ControllerRemoved",
      "type": "event"
    },
    {
      "inputs": [
        {
          "internalType": "address",
          "name": "_controller",
          "type": "address"
        }
      ],
      "name": "addController",
      "outputs": [],
      "stateMutability": "nonpayable",
      "type": "function"
    },
    {
      "inputs": [
        {
          "internalType": "address",
          "name": "tokenAddress",
          "type": "address"
        },
        {
          "internalType": "address[]",
          "name": "recipients",
          "type": "address[]"
        },
        {
          "internalType": "uint256[]",
          "name": "gquantities",
          "type": "uint256[]"
        }
      ],
      "name": "bulkSend",
      "outputs": [],
      "stateMutability": "nonpayable",
      "type": "function"
    },
    {
      "inputs": [
        {
          "internalType": "address",
          "name": "_address",
          "type": "address"
        }
      ],
      "name": "isController",
      "outputs": [
        {
          "internalType": "bool",
          "name": "allowed",
          "type": "bool"
        }
      ],
      "stateMutability": "view",
      "type": "function"
    },
    {
      "inputs": [],
      "name": "relinquishControl",
      "outputs": [],
      "stateMutability": "nonpayable",
      "type": "function"
    }
  ],
  "transactionHash": "0x9f9914b7ae9957ee9fcb04947d3af02bf6aeaa2e22afce1e7bb9605925426255",
  "args": [],
  "solcInputHash": "1c25a8abf6ef90385cc04e5ab5ac21c1",
  "bytecode": "0x608060405234801561001057600080fd5b5061001a3361001f565b610043565b6001600160a01b03166000908152602081905260409020805460ff19166001179055565b610602806100526000396000f3fe608060405234801561001057600080fd5b506004361061004c5760003560e01c8063259c276e14610051578063a7fc7a0714610066578063b429afeb14610079578063e1c28bef146100a2575b600080fd5b61006461005f36600461039a565b6100aa565b005b610064610074366004610379565b6101f3565b61008c610087366004610379565b610262565b60405161009991906104bb565b60405180910390f35b61006461028d565b3360009081526020819052604090205460ff161515600114806100cc57503033145b6100f15760405162461bcd60e51b81526004016100e8906104c6565b60405180910390fd5b60005b82518110156101ed578373ffffffffffffffffffffffffffffffffffffffff166323b872dd3085848151811061013a57634e487b7160e01b600052603260045260246000fd5b602002602001015185858151811061016257634e487b7160e01b600052603260045260246000fd5b60200260200101516040518463ffffffff1660e01b81526004016101889392919061048a565b602060405180830381600087803b1580156101a257600080fd5b505af11580156101b6573d6000803e3d6000fd5b505050506040513d601f19601f820116820180604052508101906101da919061046a565b50806101e581610571565b9150506100f4565b50505050565b3360009081526020819052604090205460ff1615156001148061021557503033145b6102315760405162461bcd60e51b81526004016100e8906104c6565b73ffffffffffffffffffffffffffffffffffffffff166000908152602081905260409020805460ff19166001179055565b73ffffffffffffffffffffffffffffffffffffffff1660009081526020819052604090205460ff1690565b3360009081526020819052604090205460ff161515600114806102af57503033145b6102cb5760405162461bcd60e51b81526004016100e8906104c6565b336000908152602081905260409020805460ff19169055565b803573ffffffffffffffffffffffffffffffffffffffff8116811461030857600080fd5b919050565b600082601f83011261031d578081fd5b8135602061033261032d8361054d565b610523565b828152818101908583018385028701840188101561034e578586fd5b855b8581101561036c57813584529284019290840190600101610350565b5090979650505050505050565b60006020828403121561038a578081fd5b610393826102e4565b9392505050565b6000806000606084860312156103ae578182fd5b6103b7846102e4565b925060208085013567ffffffffffffffff808211156103d4578485fd5b818701915087601f8301126103e7578485fd5b81356103f561032d8261054d565b81815284810190848601868402860187018c1015610411578889fd5b8895505b8386101561043a57610426816102e4565b835260019590950194918601918601610415565b50965050506040870135925080831115610452578384fd5b50506104608682870161030d565b9150509250925092565b60006020828403121561047b578081fd5b81518015158114610393578182fd5b73ffffffffffffffffffffffffffffffffffffffff9384168152919092166020820152604081019190915260600190565b901515815260200190565b60208082526028908201527f436f6e74726f6c6c61626c653a2063616c6c6572206973206e6f74206120636f60408201527f6e74726f6c6c6572000000000000000000000000000000000000000000000000606082015260800190565b60405181810167ffffffffffffffff81118282101715610545576105456105b6565b604052919050565b600067ffffffffffffffff821115610567576105676105b6565b5060209081020190565b60007fffffffffffffffffffffffffffffffffffffffffffffffffffffffffffffffff8214156105af57634e487b7160e01b81526011600452602481fd5b5060010190565b634e487b7160e01b600052604160045260246000fdfea26469706673582212204ce32080b0d2055545ec3a152f171b1443113b1bf59802caf44c7631d52d5f4c64736f6c63430008000033",
  "libraries": {
    "Strings": "0xd45eC25dF301d3E0FCfb2579cC5d983808fe0819",
    "AddressSet": "0x16898Ec08bab43BCF1Ae0A2fa90E25D61F5AaB4f",
    "UInt256Set": "0x5A1295EA06d05ace6B3E2a3f0Bc0769E0D914eBA",
    "Create2": "0xF0c0e1CfC1b73a20Dde07BEA2B640096e581E58A",
    "WrappedTokenLib": "0x233D640e29a53D63cF6434a074a4aA61390Ed3FF",
    "ComplexPoolLib": "0xb15022dDd819228866CF446DeEd271b623D4fcBD"
  },
  "devdoc": {
    "details": "Collection of utility functions that mint tokens",
    "kind": "dev",
    "methods": {
      "addController(address)": {
        "details": "Add an address allowed to control this contract"
      },
      "isController(address)": {
        "details": "Check if this address is a controller"
      },
      "relinquishControl()": {
        "details": "Remove the sender address from the list of controllers"
      }
    },
    "version": 1
  },
  "userdoc": {
    "kind": "user",
    "methods": {},
    "version": 1
  },
  "storageLayout": {
    "storage": [
      {
        "astId": 4752,
        "contract": "src/utils/BulkTokenSender.sol:BulkTokenSender",
        "label": "_controllers",
        "offset": 0,
        "slot": "0",
        "type": "t_mapping(t_address,t_bool)"
      }
    ],
    "types": {
      "t_address": {
        "encoding": "inplace",
        "label": "address",
        "numberOfBytes": "20"
      },
      "t_bool": {
        "encoding": "inplace",
        "label": "bool",
        "numberOfBytes": "1"
      },
      "t_mapping(t_address,t_bool)": {
        "encoding": "mapping",
        "key": "t_address",
        "label": "mapping(address => bool)",
        "numberOfBytes": "32",
        "value": "t_bool"
      }
    }
  }
}