{
  "address": "0x0E7164862C32d8ca1b96DBE613776329012A8894",
  "abi": [
    {
      "inputs": [
        {
          "internalType": "address",
          "name": "multitoken",
          "type": "address"
        },
        {
          "internalType": "address[]",
          "name": "recipients",
          "type": "address[]"
        },
        {
          "internalType": "uint256[]",
          "name": "gquantities",
          "type": "uint256[]"
        },
        {
          "internalType": "uint256[]",
          "name": "fquantities",
          "type": "uint256[]"
        }
      ],
      "name": "bulkMintGovFuel",
      "outputs": [],
      "stateMutability": "nonpayable",
      "type": "function"
    },
    {
      "inputs": [
        {
          "internalType": "address",
          "name": "multitoken",
          "type": "address"
        },
        {
          "internalType": "address[]",
          "name": "recipients",
          "type": "address[]"
        },
        {
          "internalType": "uint256",
          "name": "tokenHash",
          "type": "uint256"
        },
        {
          "internalType": "uint256[]",
          "name": "quantities",
          "type": "uint256[]"
        }
      ],
      "name": "bulkMintToken",
      "outputs": [],
      "stateMutability": "nonpayable",
      "type": "function"
    }
  ],
  "transactionHash": "0x682c5dddc4df7cc69d857be7148c5c83b077d47594f192401de9e25e37f983ce",
  "args": [],
  "solcInputHash": "f671a5b1a452e7ee0581a3db7b931a19",
  "bytecode": "0x608060405234801561001057600080fd5b5061057d806100206000396000f3fe608060405234801561001057600080fd5b50600436106100365760003560e01c80635120555b1461003b578063f06efa59146101f8575b600080fd5b6101f66004803603608081101561005157600080fd5b6001600160a01b03823516919081019060408101602082013564010000000081111561007c57600080fd5b82018360208201111561008e57600080fd5b803590602001918460208302840111640100000000831117156100b057600080fd5b919080806020026020016040519081016040528093929190818152602001838360200280828437600092019190915250929594936020810193503591505064010000000081111561010057600080fd5b82018360208201111561011257600080fd5b8035906020019184602083028401116401000000008311171561013457600080fd5b919080806020026020016040519081016040528093929190818152602001838360200280828437600092019190915250929594936020810193503591505064010000000081111561018457600080fd5b82018360208201111561019657600080fd5b803590602001918460208302840111640100000000831117156101b857600080fd5b919080806020026020016040519081016040528093929190818152602001838360200280828437600092019190915250929550610337945050505050565b005b6101f66004803603608081101561020e57600080fd5b6001600160a01b03823516919081019060408101602082013564010000000081111561023957600080fd5b82018360208201111561024b57600080fd5b8035906020019184602083028401116401000000008311171561026d57600080fd5b919080806020026020016040519081016040528093929190818152602001838360200280828437600092019190915250929584359590949093506040810192506020013590506401000000008111156102c557600080fd5b8201836020820111156102d757600080fd5b803590602001918460208302840111640100000000831117156102f957600080fd5b919080806020026020016040519081016040528093929190818152602001838360200280828437600092019190915250929550610492945050505050565b60005b835181101561048b57846001600160a01b031663156e29f685838151811061035e57fe5b6020026020010151600086858151811061037457fe5b60200260200101516040518463ffffffff1660e01b815260040180846001600160a01b031681526020018381526020018281526020019350505050600060405180830381600087803b1580156103c957600080fd5b505af11580156103dd573d6000803e3d6000fd5b50505050846001600160a01b031663156e29f68583815181106103fc57fe5b6020026020010151600185858151811061041257fe5b60200260200101516040518463ffffffff1660e01b815260040180846001600160a01b031681526020018381526020018281526020019350505050600060405180830381600087803b15801561046757600080fd5b505af115801561047b573d6000803e3d6000fd5b50506001909201915061033a9050565b5050505050565b60005b835181101561048b57846001600160a01b031663156e29f68583815181106104b957fe5b6020026020010151858585815181106104ce57fe5b60200260200101516040518463ffffffff1660e01b815260040180846001600160a01b031681526020018381526020018281526020019350505050600060405180830381600087803b15801561052357600080fd5b505af1158015610537573d6000803e3d6000fd5b505060019092019150610495905056fea264697066735822122056319f3e48b3b7d9b1a4528420d9c412f03119b5936accd47d964b87d8d0a4e764736f6c63430007030033",
  "libraries": {
    "GovernanceLib": "0x7Afa6bC2f4CC206C6804E3ED065d71915deF4129",
    "Strings": "0xC6337eDc7C486a305C0FbAb381dBC7ad149bd594",
    "SafeMath": "0xcF5D18A2f3cED179B92DF335ae75ad849Cd30dBE",
    "AddressSet": "0x0deFb695B6A1b5165134DEca1CAeC547501Bf44a",
    "UInt256Set": "0x64320ddcD96B3f09edd9032789089E4fbeD49D4a",
    "Create2": "0xFFc1Da7951087B961BBb26EAf5a1d21f76788F96",
    "ProposalsLib": "0x8EAc999929aB622321DC084B4DD2AB17C8c7A36D",
    "ComplexPoolLib": "0x6e44bbA347af17424C7E3146b78790Cd59818797",
    "WrappedTokenLib": "0x816A69A1E851B9A460806483eE0129edDA8E4390",
    "Unigem20Library": "0x7B180Fb45d60Fd97b57dfec2c10ca4c22dF50ee3"
  },
  "devdoc": {
    "kind": "dev",
    "methods": {},
    "version": 1
  },
  "userdoc": {
    "kind": "user",
    "methods": {},
    "version": 1
  },
  "storageLayout": {
    "storage": [],
    "types": null
  }
}