{
  "address": "0xB2054a565D5Ba97aCe5cC5E2805fF45eeC94931D",
  "abi": [
    {
      "inputs": [],
      "stateMutability": "nonpayable",
      "type": "constructor"
    },
    {
      "anonymous": false,
      "inputs": [
        {
          "indexed": true,
          "internalType": "address",
          "name": "contractAddress",
          "type": "address"
        },
        {
          "indexed": true,
          "internalType": "address",
          "name": "controllerAddress",
          "type": "address"
        }
      ],
      "name": "ControllerAdded",
      "type": "event"
    },
    {
      "anonymous": false,
      "inputs": [
        {
          "indexed": true,
          "internalType": "address",
          "name": "contractAddress",
          "type": "address"
        },
        {
          "indexed": true,
          "internalType": "address",
          "name": "controllerAddress",
          "type": "address"
        }
      ],
      "name": "ControllerRemoved",
      "type": "event"
    },
    {
      "anonymous": false,
      "inputs": [
        {
          "indexed": false,
          "internalType": "address",
          "name": "tokenAddress",
          "type": "address"
        },
        {
          "indexed": false,
          "internalType": "address",
          "name": "poolAddress",
          "type": "address"
        },
        {
          "indexed": false,
          "internalType": "string",
          "name": "tokenSymbol",
          "type": "string"
        },
        {
          "indexed": false,
          "internalType": "string",
          "name": "poolSymbol",
          "type": "string"
        }
      ],
      "name": "ERC20GemTokenCreated",
      "type": "event"
    },
    {
      "inputs": [
        {
          "internalType": "address",
          "name": "_controller",
          "type": "address"
        }
      ],
      "name": "addController",
      "outputs": [],
      "stateMutability": "nonpayable",
      "type": "function"
    },
    {
      "inputs": [
        {
          "internalType": "uint256",
          "name": "idx",
          "type": "uint256"
        }
      ],
      "name": "allItems",
      "outputs": [
        {
          "internalType": "address",
          "name": "gemPool",
          "type": "address"
        }
      ],
      "stateMutability": "view",
      "type": "function"
    },
    {
      "inputs": [],
      "name": "allItemsLength",
      "outputs": [
        {
          "internalType": "uint256",
          "name": "",
          "type": "uint256"
        }
      ],
      "stateMutability": "view",
      "type": "function"
    },
    {
      "inputs": [
        {
          "internalType": "string",
          "name": "tokenSymbol",
          "type": "string"
        },
        {
          "internalType": "string",
          "name": "tokenName",
          "type": "string"
        },
        {
          "internalType": "address",
          "name": "poolAddress",
          "type": "address"
        },
        {
          "internalType": "address",
          "name": "tokenAddress",
          "type": "address"
        },
        {
          "internalType": "uint8",
          "name": "decimals",
          "type": "uint8"
        },
        {
          "internalType": "address",
          "name": "feeManager",
          "type": "address"
        }
      ],
      "name": "createItem",
      "outputs": [
        {
          "internalType": "address payable",
          "name": "gemToken",
          "type": "address"
        }
      ],
      "stateMutability": "nonpayable",
      "type": "function"
    },
    {
      "inputs": [
        {
          "internalType": "uint256",
          "name": "_symbolHash",
          "type": "uint256"
        }
      ],
      "name": "getItem",
      "outputs": [
        {
          "internalType": "address",
          "name": "gemPool",
          "type": "address"
        }
      ],
      "stateMutability": "view",
      "type": "function"
    },
    {
      "inputs": [
        {
          "internalType": "address",
          "name": "_address",
          "type": "address"
        }
      ],
      "name": "isController",
      "outputs": [
        {
          "internalType": "bool",
          "name": "allowed",
          "type": "bool"
        }
      ],
      "stateMutability": "view",
      "type": "function"
    },
    {
      "inputs": [],
      "name": "items",
      "outputs": [
        {
          "internalType": "address[]",
          "name": "",
          "type": "address[]"
        }
      ],
      "stateMutability": "view",
      "type": "function"
    },
    {
      "inputs": [],
      "name": "relinquishControl",
      "outputs": [],
      "stateMutability": "view",
      "type": "function"
    }
  ],
  "transactionHash": "0x7e08fe8807882952aa00b5f4ce29bf6af7ed8df189641fda7788b49687cb1557",
  "args": [],
  "solcInputHash": "1beb6fd726d52d0f56b2a930336b25bc",
  "bytecode": "0x608060405234801561001057600080fd5b5061001a3361001f565b610043565b6001600160a01b03166000908152602081905260409020805460ff19166001179055565b6127c9806100526000396000f3fe608060405234801561001057600080fd5b50600436106100885760003560e01c8063c06fad061161005b578063c06fad0614610277578063c1c43c48146102cf578063e1c28bef146102e9578063ff68fa6e146102f157610088565b80633129e7731461008d57806334f486e4146100c6578063a7fc7a0714610215578063b429afeb1461023d575b600080fd5b6100aa600480360360208110156100a357600080fd5b503561030e565b604080516001600160a01b039092168252519081900360200190f35b6100aa600480360360c08110156100dc57600080fd5b8101906020810181356401000000008111156100f757600080fd5b82018360208201111561010957600080fd5b8035906020019184600183028401116401000000008311171561012b57600080fd5b91908080601f016020809104026020016040519081016040528093929190818152602001838380828437600092019190915250929594936020810193503591505064010000000081111561017e57600080fd5b82018360208201111561019057600080fd5b803590602001918460018302840111640100000000831117156101b257600080fd5b91908080601f016020809104026020016040519081016040528093929190818152602001838380828437600092019190915250929550506001600160a01b03833581169450602084013581169360ff604082013516935060600135169050610329565b61023b6004803603602081101561022b57600080fd5b50356001600160a01b031661093c565b005b6102636004803603602081101561025357600080fd5b50356001600160a01b03166109bd565b604080519115158252519081900360200190f35b61027f6109db565b60408051602080825283518183015283519192839290830191858101910280838360005b838110156102bb5781810151838201526020016102a3565b505050509050019250505060405180910390f35b6102d7610a3d565b60408051918252519081900360200190f35b61023b610a43565b6100aa6004803603602081101561030757600080fd5b5035610aab565b6000908152600260205260409020546001600160a01b031690565b3360009081526020819052604081205460ff1615156001148061034b57503033145b6103865760405162461bcd60e51b815260040180806020018281038252602881526020018061276c6028913960400191505060405180910390fd5b6000876040516020018082805190602001908083835b602083106103bb5780518252601f19909201916020918201910161039c565b51815160209384036101000a60001901801990921691161790526040805192909401828103601f1901835284528151918101919091206000818152600290925292902054919450506001600160a01b03161591506104629050576040805162461bcd60e51b815260206004820152600f60248201527f47454d544f4b454e5f4558495354530000000000000000000000000000000000604482015290519081900360640190fd5b6001600160a01b0386166104bd576040805162461bcd60e51b815260206004820152600c60248201527f494e56414c49445f504f4f4c0000000000000000000000000000000000000000604482015290519081900360640190fd5b6060604051806020016104cf90610bee565b601f1982820381018352601f9091011660405290506104f060008383610ad5565b9250826001600160a01b03166332816be18a8a8a8a8a8a6040518763ffffffff1660e01b8152600401808060200180602001876001600160a01b03168152602001866001600160a01b031681526020018560ff168152602001846001600160a01b03168152602001838103835289818151815260200191508051906020019080838360005b8381101561058d578181015183820152602001610575565b50505050905090810190601f1680156105ba5780820380516001836020036101000a031916815260200191505b5083810382528851815288516020918201918a019080838360005b838110156105ed5781810151838201526020016105d5565b50505050905090810190601f16801561061a5780820380516001836020036101000a031916815260200191505b5098505050505050505050600060405180830381600087803b15801561063f57600080fd5b505af1158015610653573d6000803e3d6000fd5b50505060008381526002602052604080822080546001600160a01b0388167fffffffffffffffffffffffff00000000000000000000000000000000000000009182168117909255600380546001810182559085527fc2575a0e9e593c00f959f8c92f12db2869c3395a3b0502d05e2516446f71f85b0180549091168217905581517f95d89b4100000000000000000000000000000000000000000000000000000000815291517fc8fef388476ee2aae16130f128a91b30e447edbc59098146eee5ae4169761dbd945087938c938f93926395d89b4192600480840193919291829003018186803b15801561074657600080fd5b505afa15801561075a573d6000803e3d6000fd5b505050506040513d6000823e601f3d908101601f19168201604052602081101561078357600080fd5b81019080805160405193929190846401000000008211156107a357600080fd5b9083019060208201858111156107b857600080fd5b82516401000000008111828201881017156107d257600080fd5b82525081516020918201929091019080838360005b838110156107ff5781810151838201526020016107e7565b50505050905090810190601f16801561082c5780820380516001836020036101000a031916815260200191505b5060405250505060405180856001600160a01b03168152602001846001600160a01b031681526020018060200180602001838103835285818151815260200191508051906020019080838360005b8381101561089257818101518382015260200161087a565b50505050905090810190601f1680156108bf5780820380516001836020036101000a031916815260200191505b50838103825284518152845160209182019186019080838360005b838110156108f25781810151838201526020016108da565b50505050905090810190601f16801561091f5780820380516001836020036101000a031916815260200191505b50965050505050505060405180910390a150509695505050505050565b3360009081526020819052604090205460ff1615156001148061095e57503033145b6109995760405162461bcd60e51b815260040180806020018281038252602881526020018061276c6028913960400191505060405180910390fd5b6001600160a01b03166000908152602081905260409020805460ff19166001179055565b6001600160a01b031660009081526020819052604090205460ff1690565b60606003805480602002602001604051908101604052809291908181526020018280548015610a3357602002820191906000526020600020905b81546001600160a01b03168152600190910190602001808311610a15575b5050505050905090565b60035490565b3360009081526020819052604090205460ff16151560011480610a6557503033145b610aa05760405162461bcd60e51b815260040180806020018281038252602881526020018061276c6028913960400191505060405180910390fd5b336000908152602052565b600060038281548110610aba57fe5b6000918252602090912001546001600160a01b031692915050565b60008084471015610b2d576040805162461bcd60e51b815260206004820152601d60248201527f437265617465323a20696e73756666696369656e742062616c616e6365000000604482015290519081900360640190fd5b8251610b80576040805162461bcd60e51b815260206004820181905260248201527f437265617465323a2062797465636f6465206c656e677468206973207a65726f604482015290519081900360640190fd5b8383516020850187f590506001600160a01b038116610be6576040805162461bcd60e51b815260206004820152601960248201527f437265617465323a204661696c6564206f6e206465706c6f7900000000000000604482015290519081900360640190fd5b949350505050565b611b7080610bfc8339019056fe608060405234801561001057600080fd5b506100216301ffc9a760e01b610036565b610031630271189760e51b610036565b6100ba565b6001600160e01b03198082161415610095576040805162461bcd60e51b815260206004820152601c60248201527f4552433136353a20696e76616c696420696e7465726661636520696400000000604482015290519081900360640190fd5b6001600160e01b0319166000908152600660205260409020805460ff19166001179055565b611aa7806100c96000396000f3fe608060405234801561001057600080fd5b506004361061016c5760003560e01c806339509351116100cd578063bc197c8111610081578063de0e9a3e11610066578063de0e9a3e1461073c578063ea598cb014610759578063f23a6e61146107765761016c565b8063bc197c8114610512578063dd62ed3e1461070e5761016c565b806395d89b41116100b257806395d89b41146104b2578063a457c2d7146104ba578063a9059cbb146104e65761016c565b8063395093511461046057806370a082311461048c5761016c565b806310fe9ae81161012457806323b872dd1161010957806323b872dd146102bb578063313ce567146102f157806332816be11461030f5761016c565b806310fe9ae81461028f57806318160ddd146102b35761016c565b806306fdde031161015557806306fdde03146101de5780630902f1ac1461025b578063095ea7b3146102635761016c565b8063010a38f51461017157806301ffc9a71461018b575b600080fd5b610179610841565b60408051918252519081900360200190f35b6101ca600480360360208110156101a157600080fd5b50357fffffffff0000000000000000000000000000000000000000000000000000000016610847565b604080519115158252519081900360200190f35b6101e661087e565b6040805160208082528351818301528351919283929083019185019080838360005b83811015610220578181015183820152602001610208565b50505050905090810190601f16801561024d5780820380516001836020036101000a031916815260200191505b509250505060405180910390f35b610179610914565b6101ca6004803603604081101561027957600080fd5b506001600160a01b03813516906020013561091a565b610297610938565b604080516001600160a01b039092168252519081900360200190f35b610179610947565b6101ca600480360360608110156102d157600080fd5b506001600160a01b0381358116916020810135909116906040013561094d565b6102f96109d4565b6040805160ff9092168252519081900360200190f35b61045e600480360360c081101561032557600080fd5b81019060208101813564010000000081111561034057600080fd5b82018360208201111561035257600080fd5b8035906020019184600183028401116401000000008311171561037457600080fd5b91908080601f01602080910402602001604051908101604052809392919081815260200183838082843760009201919091525092959493602081019350359150506401000000008111156103c757600080fd5b8201836020820111156103d957600080fd5b803590602001918460018302840111640100000000831117156103fb57600080fd5b91908080601f016020809104026020016040519081016040528093929190818152602001838380828437600092019190915250929550506001600160a01b03833581169450602084013581169360ff6040820135169350606001351690506109dd565b005b6101ca6004803603604081101561047657600080fd5b506001600160a01b038135169060200135610b5e565b610179600480360360208110156104a257600080fd5b50356001600160a01b0316610bac565b6101e6610bc7565b6101ca600480360360408110156104d057600080fd5b506001600160a01b038135169060200135610c28565b6101ca600480360360408110156104fc57600080fd5b506001600160a01b038135169060200135610c90565b6106d9600480360360a081101561052857600080fd5b6001600160a01b03823581169260208101359091169181019060608101604082013564010000000081111561055c57600080fd5b82018360208201111561056e57600080fd5b8035906020019184602083028401116401000000008311171561059057600080fd5b91908080602002602001604051908101604052809392919081815260200183836020028082843760009201919091525092959493602081019350359150506401000000008111156105e057600080fd5b8201836020820111156105f257600080fd5b8035906020019184602083028401116401000000008311171561061457600080fd5b919080806020026020016040519081016040528093929190818152602001838360200280828437600092019190915250929594936020810193503591505064010000000081111561066457600080fd5b82018360208201111561067657600080fd5b8035906020019184600183028401116401000000008311171561069857600080fd5b91908080601f016020809104026020016040519081016040528093929190818152602001838380828437600092019190915250929550610ca4945050505050565b604080517fffffffff000000000000000000000000000000000000000000000000000000009092168252519081900360200190f35b6101796004803603604081101561072457600080fd5b506001600160a01b0381358116916020013516610cce565b61045e6004803603602081101561075257600080fd5b5035610cf9565b61045e6004803603602081101561076f57600080fd5b5035610e96565b6106d9600480360360a081101561078c57600080fd5b6001600160a01b03823581169260208101359091169160408201359160608101359181019060a0810160808201356401000000008111156107cc57600080fd5b8201836020820111156107de57600080fd5b8035906020019184600183028401116401000000008311171561080057600080fd5b91908080601f0160208091040260200160405190810160405280939291908181526020018383808284376000920191909152509295506111b9945050505050565b600b5490565b7fffffffff000000000000000000000000000000000000000000000000000000001660009081526006602052604090205460ff1690565b60038054604080516020601f600260001961010060018816150201909516949094049384018190048102820181019092528281526060939092909183018282801561090a5780601f106108df5761010080835404028352916020019161090a565b820191906000526020600020905b8154815290600101906020018083116108ed57829003601f168201915b5050505050905090565b600c5490565b600061092e6109276111e3565b84846111e7565b5060015b92915050565b6008546001600160a01b031690565b60025490565b600061095a8484846112d3565b6109ca846109666111e3565b6109c5856040518060600160405280602881526020016119bb602891396001600160a01b038a166000908152600160205260408120906109a46111e3565b6001600160a01b03168152602081019190915260400160002054919061142e565b6111e7565b5060019392505050565b60055460ff1690565b600754610100900460ff16806109f657506109f66114c5565b80610a04575060075460ff16155b610a3f5760405162461bcd60e51b815260040180806020018281038252602e81526020018061196c602e913960400191505060405180910390fd5b600754610100900460ff16158015610a6a576007805460ff1961ff0019909116610100171660011790555b8651610a7d9060039060208a019061184b565b508551610a9190600490602089019061184b565b506005805460ff851660ff1991821617909155600780546001600160a01b0380861662010000027fffffffffffffffffffff0000000000000000000000000000000000000000ffff90921691909117909155600880548783167fffffffffffffffffffffffff00000000000000000000000000000000000000009182161790915560098054821630179055600a8054928916929091169190911790556000600b556001600e55600d805490911660021790558015610b55576007805461ff00191690555b50505050505050565b600061092e610b6b6111e3565b846109c58560016000610b7c6111e3565b6001600160a01b03908116825260208083019390935260409182016000908120918c1681529252902054906114d6565b6001600160a01b031660009081526020819052604090205490565b60048054604080516020601f600260001961010060018816150201909516949094049384018190048102820181019092528281526060939092909183018282801561090a5780601f106108df5761010080835404028352916020019161090a565b600061092e610c356111e3565b846109c585604051806060016040528060258152602001611a4d6025913960016000610c5f6111e3565b6001600160a01b03908116825260208083019390935260409182016000908120918d1681529252902054919061142e565b600061092e610c9d6111e3565b84846112d3565b7fbc197c810000000000000000000000000000000000000000000000000000000095945050505050565b6001600160a01b03918216600090815260016020908152604080832093909416825291909152205490565b80610d3b576040805162461bcd60e51b815260206004820152600d60248201526c5a45524f5f5155414e5449545960981b604482015290519081900360640190fd5b80610d5c610d476109d4565b60ff16600a0a610d5633610bac565b90611537565b1015610daf576040805162461bcd60e51b815260206004820152601560248201527f494e53554646494349454e545f5155414e544954590000000000000000000000604482015290519081900360640190fd5b6040805163b801a46360e01b81526008600482015230602482015233604482015260648101839052905173e967bb5871CC517F2941A41D114cbC5fC35C96D39163b801a463916084808301926000929190829003018186803b158015610e1457600080fd5b505af4158015610e28573d6000803e3d6000fd5b50505050610e4d33610e48610e3b6109d4565b849060ff16600a0a611537565b611590565b600c54610e5a908261168c565b600c5560408051828152905133917f5dd085b6070b4cae004f84daafd199fd55b0bdfa11c3a802baffe89c2419d8c2919081900360200190a250565b80610ed8576040805162461bcd60e51b815260206004820152600d60248201526c5a45524f5f5155414e5449545960981b604482015290519081900360640190fd5b600854600a54600d54604080517f9d26be330000000000000000000000000000000000000000000000000000000081526001600160a01b03948516600482015293909216602484015260ff16604483015233606483015251829173e967bb5871CC517F2941A41D114cbC5fC35C96D391639d26be3391608480820192602092909190829003018186803b158015610f6e57600080fd5b505af4158015610f82573d6000803e3d6000fd5b505050506040513d6020811015610f9857600080fd5b50511015610fed576040805162461bcd60e51b815260206004820152601560248201527f494e53554646494349454e545f5155414e544954590000000000000000000000604482015290519081900360640190fd5b600061100b610ffa6109d4565b600e54849160ff16600a0a02611537565b90506000600760029054906101000a90046001600160a01b03166001600160a01b031663eee1ad80306040518263ffffffff1660e01b815260040180826001600160a01b0316815260200191505060206040518083038186803b15801561107157600080fd5b505afa158015611085573d6000803e3d6000fd5b505050506040513d602081101561109b57600080fd5b505190506000816110ad5760006110b7565b6110b783836116e9565b905060006110c5848361168c565b6040805163b801a46360e01b81526008600482015233602482015230604482015260648101889052905191925073e967bb5871CC517F2941A41D114cbC5fC35C96D39163b801a46391608480820192600092909190829003018186803b15801561112e57600080fd5b505af4158015611142573d6000803e3d6000fd5b505050506111503382611750565b60075461116c906201000090046001600160a01b031683611750565b600c5461117990866114d6565b600c5560408051868152905133917fb61d00fdfee32467c7d81db64c811ae60c104c346debf36a14afe84b8fce59e5919081900360200190a25050505050565b7ff23a6e610000000000000000000000000000000000000000000000000000000095945050505050565b3390565b6001600160a01b03831661122c5760405162461bcd60e51b8152600401808060200182810382526024815260200180611a296024913960400191505060405180910390fd5b6001600160a01b0382166112715760405162461bcd60e51b81526004018080602001828103825260228152602001806119246022913960400191505060405180910390fd5b6001600160a01b03808416600081815260016020908152604080832094871680845294825291829020859055815185815291517f8c5be1e5ebec7d5bd14f71427d1e84f3dd0314c0f7b2291e5b200ac8c7c3b9259281900390910190a3505050565b6001600160a01b0383166113185760405162461bcd60e51b8152600401808060200182810382526025815260200180611a046025913960400191505060405180910390fd5b6001600160a01b03821661135d5760405162461bcd60e51b81526004018080602001828103825260238152602001806118df6023913960400191505060405180910390fd5b611368838383611840565b6113a581604051806060016040528060268152602001611946602691396001600160a01b038616600090815260208190526040902054919061142e565b6001600160a01b0380851660009081526020819052604080822093909355908416815220546113d490826114d6565b6001600160a01b038084166000818152602081815260409182902094909455805185815290519193928716927fddf252ad1be2c89b69c2b068fc378daa952ba7f163c4a11628f55a4df523b3ef92918290030190a3505050565b600081848411156114bd5760405162461bcd60e51b81526004018080602001828103825283818151815260200191508051906020019080838360005b8381101561148257818101518382015260200161146a565b50505050905090810190601f1680156114af5780820380516001836020036101000a031916815260200191505b509250505060405180910390fd5b505050900390565b60006114d030611845565b15905090565b600082820183811015611530576040805162461bcd60e51b815260206004820152601b60248201527f536166654d6174683a206164646974696f6e206f766572666c6f770000000000604482015290519081900360640190fd5b9392505050565b60008261154657506000610932565b8282028284828161155357fe5b04146115305760405162461bcd60e51b815260040180806020018281038252602181526020018061199a6021913960400191505060405180910390fd5b6001600160a01b0382166115d55760405162461bcd60e51b81526004018080602001828103825260218152602001806119e36021913960400191505060405180910390fd5b6115e182600083611840565b61161e81604051806060016040528060228152602001611902602291396001600160a01b038516600090815260208190526040902054919061142e565b6001600160a01b038316600090815260208190526040902055600254611644908261168c565b6002556040805182815290516000916001600160a01b038516917fddf252ad1be2c89b69c2b068fc378daa952ba7f163c4a11628f55a4df523b3ef9181900360200190a35050565b6000828211156116e3576040805162461bcd60e51b815260206004820152601e60248201527f536166654d6174683a207375627472616374696f6e206f766572666c6f770000604482015290519081900360640190fd5b50900390565b600080821161173f576040805162461bcd60e51b815260206004820152601a60248201527f536166654d6174683a206469766973696f6e206279207a65726f000000000000604482015290519081900360640190fd5b81838161174857fe5b049392505050565b6001600160a01b0382166117ab576040805162461bcd60e51b815260206004820152601f60248201527f45524332303a206d696e7420746f20746865207a65726f206164647265737300604482015290519081900360640190fd5b6117b760008383611840565b6002546117c490826114d6565b6002556001600160a01b0382166000908152602081905260409020546117ea90826114d6565b6001600160a01b0383166000818152602081815260408083209490945583518581529351929391927fddf252ad1be2c89b69c2b068fc378daa952ba7f163c4a11628f55a4df523b3ef9281900390910190a35050565b505050565b3b151590565b828054600181600116156101000203166002900490600052602060002090601f016020900481019282601f1061188c57805160ff19168380011785556118b9565b828001600101855582156118b9579182015b828111156118b957825182559160200191906001019061189e565b506118c59291506118c9565b5090565b5b808211156118c557600081556001016118ca56fe45524332303a207472616e7366657220746f20746865207a65726f206164647265737345524332303a206275726e20616d6f756e7420657863656564732062616c616e636545524332303a20617070726f766520746f20746865207a65726f206164647265737345524332303a207472616e7366657220616d6f756e7420657863656564732062616c616e6365496e697469616c697a61626c653a20636f6e747261637420697320616c726561647920696e697469616c697a6564536166654d6174683a206d756c7469706c69636174696f6e206f766572666c6f7745524332303a207472616e7366657220616d6f756e74206578636565647320616c6c6f77616e636545524332303a206275726e2066726f6d20746865207a65726f206164647265737345524332303a207472616e736665722066726f6d20746865207a65726f206164647265737345524332303a20617070726f76652066726f6d20746865207a65726f206164647265737345524332303a2064656372656173656420616c6c6f77616e63652062656c6f77207a65726fa2646970667358221220d58850c1c643d2b218ad83b5d7afbb0aa9fd17bd494fda21fe2e2da8283eacbe64736f6c63430007030033436f6e74726f6c6c61626c653a2063616c6c6572206973206e6f74206120636f6e74726f6c6c6572a26469706673582212207c6f263d7852e6a375223dbef5fe66813e6fdc2c23c4129f6551df0755de8b6564736f6c63430007030033",
  "deployedBytecode": "0x608060405234801561001057600080fd5b50600436106100885760003560e01c8063c06fad061161005b578063c06fad0614610277578063c1c43c48146102cf578063e1c28bef146102e9578063ff68fa6e146102f157610088565b80633129e7731461008d57806334f486e4146100c6578063a7fc7a0714610215578063b429afeb1461023d575b600080fd5b6100aa600480360360208110156100a357600080fd5b503561030e565b604080516001600160a01b039092168252519081900360200190f35b6100aa600480360360c08110156100dc57600080fd5b8101906020810181356401000000008111156100f757600080fd5b82018360208201111561010957600080fd5b8035906020019184600183028401116401000000008311171561012b57600080fd5b91908080601f016020809104026020016040519081016040528093929190818152602001838380828437600092019190915250929594936020810193503591505064010000000081111561017e57600080fd5b82018360208201111561019057600080fd5b803590602001918460018302840111640100000000831117156101b257600080fd5b91908080601f016020809104026020016040519081016040528093929190818152602001838380828437600092019190915250929550506001600160a01b03833581169450602084013581169360ff604082013516935060600135169050610329565b61023b6004803603602081101561022b57600080fd5b50356001600160a01b031661093c565b005b6102636004803603602081101561025357600080fd5b50356001600160a01b03166109bd565b604080519115158252519081900360200190f35b61027f6109db565b60408051602080825283518183015283519192839290830191858101910280838360005b838110156102bb5781810151838201526020016102a3565b505050509050019250505060405180910390f35b6102d7610a3d565b60408051918252519081900360200190f35b61023b610a43565b6100aa6004803603602081101561030757600080fd5b5035610aab565b6000908152600260205260409020546001600160a01b031690565b3360009081526020819052604081205460ff1615156001148061034b57503033145b6103865760405162461bcd60e51b815260040180806020018281038252602881526020018061276c6028913960400191505060405180910390fd5b6000876040516020018082805190602001908083835b602083106103bb5780518252601f19909201916020918201910161039c565b51815160209384036101000a60001901801990921691161790526040805192909401828103601f1901835284528151918101919091206000818152600290925292902054919450506001600160a01b03161591506104629050576040805162461bcd60e51b815260206004820152600f60248201527f47454d544f4b454e5f4558495354530000000000000000000000000000000000604482015290519081900360640190fd5b6001600160a01b0386166104bd576040805162461bcd60e51b815260206004820152600c60248201527f494e56414c49445f504f4f4c0000000000000000000000000000000000000000604482015290519081900360640190fd5b6060604051806020016104cf90610bee565b601f1982820381018352601f9091011660405290506104f060008383610ad5565b9250826001600160a01b03166332816be18a8a8a8a8a8a6040518763ffffffff1660e01b8152600401808060200180602001876001600160a01b03168152602001866001600160a01b031681526020018560ff168152602001846001600160a01b03168152602001838103835289818151815260200191508051906020019080838360005b8381101561058d578181015183820152602001610575565b50505050905090810190601f1680156105ba5780820380516001836020036101000a031916815260200191505b5083810382528851815288516020918201918a019080838360005b838110156105ed5781810151838201526020016105d5565b50505050905090810190601f16801561061a5780820380516001836020036101000a031916815260200191505b5098505050505050505050600060405180830381600087803b15801561063f57600080fd5b505af1158015610653573d6000803e3d6000fd5b50505060008381526002602052604080822080546001600160a01b0388167fffffffffffffffffffffffff00000000000000000000000000000000000000009182168117909255600380546001810182559085527fc2575a0e9e593c00f959f8c92f12db2869c3395a3b0502d05e2516446f71f85b0180549091168217905581517f95d89b4100000000000000000000000000000000000000000000000000000000815291517fc8fef388476ee2aae16130f128a91b30e447edbc59098146eee5ae4169761dbd945087938c938f93926395d89b4192600480840193919291829003018186803b15801561074657600080fd5b505afa15801561075a573d6000803e3d6000fd5b505050506040513d6000823e601f3d908101601f19168201604052602081101561078357600080fd5b81019080805160405193929190846401000000008211156107a357600080fd5b9083019060208201858111156107b857600080fd5b82516401000000008111828201881017156107d257600080fd5b82525081516020918201929091019080838360005b838110156107ff5781810151838201526020016107e7565b50505050905090810190601f16801561082c5780820380516001836020036101000a031916815260200191505b5060405250505060405180856001600160a01b03168152602001846001600160a01b031681526020018060200180602001838103835285818151815260200191508051906020019080838360005b8381101561089257818101518382015260200161087a565b50505050905090810190601f1680156108bf5780820380516001836020036101000a031916815260200191505b50838103825284518152845160209182019186019080838360005b838110156108f25781810151838201526020016108da565b50505050905090810190601f16801561091f5780820380516001836020036101000a031916815260200191505b50965050505050505060405180910390a150509695505050505050565b3360009081526020819052604090205460ff1615156001148061095e57503033145b6109995760405162461bcd60e51b815260040180806020018281038252602881526020018061276c6028913960400191505060405180910390fd5b6001600160a01b03166000908152602081905260409020805460ff19166001179055565b6001600160a01b031660009081526020819052604090205460ff1690565b60606003805480602002602001604051908101604052809291908181526020018280548015610a3357602002820191906000526020600020905b81546001600160a01b03168152600190910190602001808311610a15575b5050505050905090565b60035490565b3360009081526020819052604090205460ff16151560011480610a6557503033145b610aa05760405162461bcd60e51b815260040180806020018281038252602881526020018061276c6028913960400191505060405180910390fd5b336000908152602052565b600060038281548110610aba57fe5b6000918252602090912001546001600160a01b031692915050565b60008084471015610b2d576040805162461bcd60e51b815260206004820152601d60248201527f437265617465323a20696e73756666696369656e742062616c616e6365000000604482015290519081900360640190fd5b8251610b80576040805162461bcd60e51b815260206004820181905260248201527f437265617465323a2062797465636f6465206c656e677468206973207a65726f604482015290519081900360640190fd5b8383516020850187f590506001600160a01b038116610be6576040805162461bcd60e51b815260206004820152601960248201527f437265617465323a204661696c6564206f6e206465706c6f7900000000000000604482015290519081900360640190fd5b949350505050565b611b7080610bfc8339019056fe608060405234801561001057600080fd5b506100216301ffc9a760e01b610036565b610031630271189760e51b610036565b6100ba565b6001600160e01b03198082161415610095576040805162461bcd60e51b815260206004820152601c60248201527f4552433136353a20696e76616c696420696e7465726661636520696400000000604482015290519081900360640190fd5b6001600160e01b0319166000908152600660205260409020805460ff19166001179055565b611aa7806100c96000396000f3fe608060405234801561001057600080fd5b506004361061016c5760003560e01c806339509351116100cd578063bc197c8111610081578063de0e9a3e11610066578063de0e9a3e1461073c578063ea598cb014610759578063f23a6e61146107765761016c565b8063bc197c8114610512578063dd62ed3e1461070e5761016c565b806395d89b41116100b257806395d89b41146104b2578063a457c2d7146104ba578063a9059cbb146104e65761016c565b8063395093511461046057806370a082311461048c5761016c565b806310fe9ae81161012457806323b872dd1161010957806323b872dd146102bb578063313ce567146102f157806332816be11461030f5761016c565b806310fe9ae81461028f57806318160ddd146102b35761016c565b806306fdde031161015557806306fdde03146101de5780630902f1ac1461025b578063095ea7b3146102635761016c565b8063010a38f51461017157806301ffc9a71461018b575b600080fd5b610179610841565b60408051918252519081900360200190f35b6101ca600480360360208110156101a157600080fd5b50357fffffffff0000000000000000000000000000000000000000000000000000000016610847565b604080519115158252519081900360200190f35b6101e661087e565b6040805160208082528351818301528351919283929083019185019080838360005b83811015610220578181015183820152602001610208565b50505050905090810190601f16801561024d5780820380516001836020036101000a031916815260200191505b509250505060405180910390f35b610179610914565b6101ca6004803603604081101561027957600080fd5b506001600160a01b03813516906020013561091a565b610297610938565b604080516001600160a01b039092168252519081900360200190f35b610179610947565b6101ca600480360360608110156102d157600080fd5b506001600160a01b0381358116916020810135909116906040013561094d565b6102f96109d4565b6040805160ff9092168252519081900360200190f35b61045e600480360360c081101561032557600080fd5b81019060208101813564010000000081111561034057600080fd5b82018360208201111561035257600080fd5b8035906020019184600183028401116401000000008311171561037457600080fd5b91908080601f01602080910402602001604051908101604052809392919081815260200183838082843760009201919091525092959493602081019350359150506401000000008111156103c757600080fd5b8201836020820111156103d957600080fd5b803590602001918460018302840111640100000000831117156103fb57600080fd5b91908080601f016020809104026020016040519081016040528093929190818152602001838380828437600092019190915250929550506001600160a01b03833581169450602084013581169360ff6040820135169350606001351690506109dd565b005b6101ca6004803603604081101561047657600080fd5b506001600160a01b038135169060200135610b5e565b610179600480360360208110156104a257600080fd5b50356001600160a01b0316610bac565b6101e6610bc7565b6101ca600480360360408110156104d057600080fd5b506001600160a01b038135169060200135610c28565b6101ca600480360360408110156104fc57600080fd5b506001600160a01b038135169060200135610c90565b6106d9600480360360a081101561052857600080fd5b6001600160a01b03823581169260208101359091169181019060608101604082013564010000000081111561055c57600080fd5b82018360208201111561056e57600080fd5b8035906020019184602083028401116401000000008311171561059057600080fd5b91908080602002602001604051908101604052809392919081815260200183836020028082843760009201919091525092959493602081019350359150506401000000008111156105e057600080fd5b8201836020820111156105f257600080fd5b8035906020019184602083028401116401000000008311171561061457600080fd5b919080806020026020016040519081016040528093929190818152602001838360200280828437600092019190915250929594936020810193503591505064010000000081111561066457600080fd5b82018360208201111561067657600080fd5b8035906020019184600183028401116401000000008311171561069857600080fd5b91908080601f016020809104026020016040519081016040528093929190818152602001838380828437600092019190915250929550610ca4945050505050565b604080517fffffffff000000000000000000000000000000000000000000000000000000009092168252519081900360200190f35b6101796004803603604081101561072457600080fd5b506001600160a01b0381358116916020013516610cce565b61045e6004803603602081101561075257600080fd5b5035610cf9565b61045e6004803603602081101561076f57600080fd5b5035610e96565b6106d9600480360360a081101561078c57600080fd5b6001600160a01b03823581169260208101359091169160408201359160608101359181019060a0810160808201356401000000008111156107cc57600080fd5b8201836020820111156107de57600080fd5b8035906020019184600183028401116401000000008311171561080057600080fd5b91908080601f0160208091040260200160405190810160405280939291908181526020018383808284376000920191909152509295506111b9945050505050565b600b5490565b7fffffffff000000000000000000000000000000000000000000000000000000001660009081526006602052604090205460ff1690565b60038054604080516020601f600260001961010060018816150201909516949094049384018190048102820181019092528281526060939092909183018282801561090a5780601f106108df5761010080835404028352916020019161090a565b820191906000526020600020905b8154815290600101906020018083116108ed57829003601f168201915b5050505050905090565b600c5490565b600061092e6109276111e3565b84846111e7565b5060015b92915050565b6008546001600160a01b031690565b60025490565b600061095a8484846112d3565b6109ca846109666111e3565b6109c5856040518060600160405280602881526020016119bb602891396001600160a01b038a166000908152600160205260408120906109a46111e3565b6001600160a01b03168152602081019190915260400160002054919061142e565b6111e7565b5060019392505050565b60055460ff1690565b600754610100900460ff16806109f657506109f66114c5565b80610a04575060075460ff16155b610a3f5760405162461bcd60e51b815260040180806020018281038252602e81526020018061196c602e913960400191505060405180910390fd5b600754610100900460ff16158015610a6a576007805460ff1961ff0019909116610100171660011790555b8651610a7d9060039060208a019061184b565b508551610a9190600490602089019061184b565b506005805460ff851660ff1991821617909155600780546001600160a01b0380861662010000027fffffffffffffffffffff0000000000000000000000000000000000000000ffff90921691909117909155600880548783167fffffffffffffffffffffffff00000000000000000000000000000000000000009182161790915560098054821630179055600a8054928916929091169190911790556000600b556001600e55600d805490911660021790558015610b55576007805461ff00191690555b50505050505050565b600061092e610b6b6111e3565b846109c58560016000610b7c6111e3565b6001600160a01b03908116825260208083019390935260409182016000908120918c1681529252902054906114d6565b6001600160a01b031660009081526020819052604090205490565b60048054604080516020601f600260001961010060018816150201909516949094049384018190048102820181019092528281526060939092909183018282801561090a5780601f106108df5761010080835404028352916020019161090a565b600061092e610c356111e3565b846109c585604051806060016040528060258152602001611a4d6025913960016000610c5f6111e3565b6001600160a01b03908116825260208083019390935260409182016000908120918d1681529252902054919061142e565b600061092e610c9d6111e3565b84846112d3565b7fbc197c810000000000000000000000000000000000000000000000000000000095945050505050565b6001600160a01b03918216600090815260016020908152604080832093909416825291909152205490565b80610d3b576040805162461bcd60e51b815260206004820152600d60248201526c5a45524f5f5155414e5449545960981b604482015290519081900360640190fd5b80610d5c610d476109d4565b60ff16600a0a610d5633610bac565b90611537565b1015610daf576040805162461bcd60e51b815260206004820152601560248201527f494e53554646494349454e545f5155414e544954590000000000000000000000604482015290519081900360640190fd5b6040805163b801a46360e01b81526008600482015230602482015233604482015260648101839052905173__$3f4a30935d2c9ff1225c976adfc01f1bf7$__9163b801a463916084808301926000929190829003018186803b158015610e1457600080fd5b505af4158015610e28573d6000803e3d6000fd5b50505050610e4d33610e48610e3b6109d4565b849060ff16600a0a611537565b611590565b600c54610e5a908261168c565b600c5560408051828152905133917f5dd085b6070b4cae004f84daafd199fd55b0bdfa11c3a802baffe89c2419d8c2919081900360200190a250565b80610ed8576040805162461bcd60e51b815260206004820152600d60248201526c5a45524f5f5155414e5449545960981b604482015290519081900360640190fd5b600854600a54600d54604080517f9d26be330000000000000000000000000000000000000000000000000000000081526001600160a01b03948516600482015293909216602484015260ff16604483015233606483015251829173__$3f4a30935d2c9ff1225c976adfc01f1bf7$__91639d26be3391608480820192602092909190829003018186803b158015610f6e57600080fd5b505af4158015610f82573d6000803e3d6000fd5b505050506040513d6020811015610f9857600080fd5b50511015610fed576040805162461bcd60e51b815260206004820152601560248201527f494e53554646494349454e545f5155414e544954590000000000000000000000604482015290519081900360640190fd5b600061100b610ffa6109d4565b600e54849160ff16600a0a02611537565b90506000600760029054906101000a90046001600160a01b03166001600160a01b031663eee1ad80306040518263ffffffff1660e01b815260040180826001600160a01b0316815260200191505060206040518083038186803b15801561107157600080fd5b505afa158015611085573d6000803e3d6000fd5b505050506040513d602081101561109b57600080fd5b505190506000816110ad5760006110b7565b6110b783836116e9565b905060006110c5848361168c565b6040805163b801a46360e01b81526008600482015233602482015230604482015260648101889052905191925073__$3f4a30935d2c9ff1225c976adfc01f1bf7$__9163b801a46391608480820192600092909190829003018186803b15801561112e57600080fd5b505af4158015611142573d6000803e3d6000fd5b505050506111503382611750565b60075461116c906201000090046001600160a01b031683611750565b600c5461117990866114d6565b600c5560408051868152905133917fb61d00fdfee32467c7d81db64c811ae60c104c346debf36a14afe84b8fce59e5919081900360200190a25050505050565b7ff23a6e610000000000000000000000000000000000000000000000000000000095945050505050565b3390565b6001600160a01b03831661122c5760405162461bcd60e51b8152600401808060200182810382526024815260200180611a296024913960400191505060405180910390fd5b6001600160a01b0382166112715760405162461bcd60e51b81526004018080602001828103825260228152602001806119246022913960400191505060405180910390fd5b6001600160a01b03808416600081815260016020908152604080832094871680845294825291829020859055815185815291517f8c5be1e5ebec7d5bd14f71427d1e84f3dd0314c0f7b2291e5b200ac8c7c3b9259281900390910190a3505050565b6001600160a01b0383166113185760405162461bcd60e51b8152600401808060200182810382526025815260200180611a046025913960400191505060405180910390fd5b6001600160a01b03821661135d5760405162461bcd60e51b81526004018080602001828103825260238152602001806118df6023913960400191505060405180910390fd5b611368838383611840565b6113a581604051806060016040528060268152602001611946602691396001600160a01b038616600090815260208190526040902054919061142e565b6001600160a01b0380851660009081526020819052604080822093909355908416815220546113d490826114d6565b6001600160a01b038084166000818152602081815260409182902094909455805185815290519193928716927fddf252ad1be2c89b69c2b068fc378daa952ba7f163c4a11628f55a4df523b3ef92918290030190a3505050565b600081848411156114bd5760405162461bcd60e51b81526004018080602001828103825283818151815260200191508051906020019080838360005b8381101561148257818101518382015260200161146a565b50505050905090810190601f1680156114af5780820380516001836020036101000a031916815260200191505b509250505060405180910390fd5b505050900390565b60006114d030611845565b15905090565b600082820183811015611530576040805162461bcd60e51b815260206004820152601b60248201527f536166654d6174683a206164646974696f6e206f766572666c6f770000000000604482015290519081900360640190fd5b9392505050565b60008261154657506000610932565b8282028284828161155357fe5b04146115305760405162461bcd60e51b815260040180806020018281038252602181526020018061199a6021913960400191505060405180910390fd5b6001600160a01b0382166115d55760405162461bcd60e51b81526004018080602001828103825260218152602001806119e36021913960400191505060405180910390fd5b6115e182600083611840565b61161e81604051806060016040528060228152602001611902602291396001600160a01b038516600090815260208190526040902054919061142e565b6001600160a01b038316600090815260208190526040902055600254611644908261168c565b6002556040805182815290516000916001600160a01b038516917fddf252ad1be2c89b69c2b068fc378daa952ba7f163c4a11628f55a4df523b3ef9181900360200190a35050565b6000828211156116e3576040805162461bcd60e51b815260206004820152601e60248201527f536166654d6174683a207375627472616374696f6e206f766572666c6f770000604482015290519081900360640190fd5b50900390565b600080821161173f576040805162461bcd60e51b815260206004820152601a60248201527f536166654d6174683a206469766973696f6e206279207a65726f000000000000604482015290519081900360640190fd5b81838161174857fe5b049392505050565b6001600160a01b0382166117ab576040805162461bcd60e51b815260206004820152601f60248201527f45524332303a206d696e7420746f20746865207a65726f206164647265737300604482015290519081900360640190fd5b6117b760008383611840565b6002546117c490826114d6565b6002556001600160a01b0382166000908152602081905260409020546117ea90826114d6565b6001600160a01b0383166000818152602081815260408083209490945583518581529351929391927fddf252ad1be2c89b69c2b068fc378daa952ba7f163c4a11628f55a4df523b3ef9281900390910190a35050565b505050565b3b151590565b828054600181600116156101000203166002900490600052602060002090601f016020900481019282601f1061188c57805160ff19168380011785556118b9565b828001600101855582156118b9579182015b828111156118b957825182559160200191906001019061189e565b506118c59291506118c9565b5090565b5b808211156118c557600081556001016118ca56fe45524332303a207472616e7366657220746f20746865207a65726f206164647265737345524332303a206275726e20616d6f756e7420657863656564732062616c616e636545524332303a20617070726f766520746f20746865207a65726f206164647265737345524332303a207472616e7366657220616d6f756e7420657863656564732062616c616e6365496e697469616c697a61626c653a20636f6e747261637420697320616c726561647920696e697469616c697a6564536166654d6174683a206d756c7469706c69636174696f6e206f766572666c6f7745524332303a207472616e7366657220616d6f756e74206578636565647320616c6c6f77616e636545524332303a206275726e2066726f6d20746865207a65726f206164647265737345524332303a207472616e736665722066726f6d20746865207a65726f206164647265737345524332303a20617070726f76652066726f6d20746865207a65726f206164647265737345524332303a2064656372656173656420616c6c6f77616e63652062656c6f77207a65726fa2646970667358221220d58850c1c643d2b218ad83b5d7afbb0aa9fd17bd494fda21fe2e2da8283eacbe64736f6c63430007030033436f6e74726f6c6c61626c653a2063616c6c6572206973206e6f74206120636f6e74726f6c6c6572a26469706673582212207c6f263d7852e6a375223dbef5fe66813e6fdc2c23c4129f6551df0755de8b6564736f6c63430007030033",
  "libraries": {
    "GovernanceLib": "0xfEbf82b4c4819f7ded1e0fF361c183381d1990Ea",
    "Strings": "0x2b5E12feB40530f028cE81c0B04F9B7804F3bD8B",
    "SafeMath": "0xf88a49ac5FFC67cA94a1235A44F4F366eb0c77f0",
    "AddressSet": "0xc400Df1a9cB78148de8c145100D1e4E40f4a5142",
    "UInt256Set": "0xD208031f5dc5134A58cA550a14637461A0e7A469",
    "Create2": "0x9eb74D584F4500E35643463d17e0f96878bcD970",
    "ProposalsLib": "0x2f92371a46118423d267AECB352f52E773B21B5d",
    "ComplexPoolLib": "0x988d5537f746daE83838d13F3fe875030e3F3fE7",
    "WrappedTokenLib": "0xe967bb5871CC517F2941A41D114cbC5fC35C96D3",
    "Unigem20Library": "0x47dC7a56d15D6E6E8F0C5c2daD0ad2D2D1ba415D"
  },
  "devdoc": {
    "kind": "dev",
    "methods": {
      "addController(address)": {
        "details": "Add an address allowed to control this contract"
      },
      "allItems(uint256)": {
        "details": "get the quantized token for this"
      },
      "allItemsLength()": {
        "details": "number of quantized addresses"
      },
      "createItem(string,string,address,address,uint8,address)": {
        "details": "deploy a new erc20 token using create2"
      },
      "getItem(uint256)": {
        "details": "get the quantized token for this"
      },
      "isController(address)": {
        "details": "Check if this address is a controller"
      },
      "items()": {
        "details": "get the quantized token for this"
      },
      "relinquishControl()": {
        "details": "Check if this address is a controller"
      }
    },
    "version": 1
  },
  "userdoc": {
    "kind": "user",
    "methods": {},
    "version": 1
  },
  "storageLayout": {
    "storage": [
      {
        "astId": 10169,
        "contract": "src/factories/ERC20GemTokenFactory.sol:ERC20GemTokenFactory",
        "label": "_controllers",
        "offset": 0,
        "slot": "0",
        "type": "t_mapping(t_address,t_bool)"
      },
      {
        "astId": 15479,
        "contract": "src/factories/ERC20GemTokenFactory.sol:ERC20GemTokenFactory",
        "label": "operator",
        "offset": 0,
        "slot": "1",
        "type": "t_address"
      },
      {
        "astId": 15483,
        "contract": "src/factories/ERC20GemTokenFactory.sol:ERC20GemTokenFactory",
        "label": "_getItem",
        "offset": 0,
        "slot": "2",
        "type": "t_mapping(t_uint256,t_address)"
      },
      {
        "astId": 15486,
        "contract": "src/factories/ERC20GemTokenFactory.sol:ERC20GemTokenFactory",
        "label": "_allItems",
        "offset": 0,
        "slot": "3",
        "type": "t_array(t_address)dyn_storage"
      }
    ],
    "types": {
      "t_address": {
        "encoding": "inplace",
        "label": "address",
        "numberOfBytes": "20"
      },
      "t_array(t_address)dyn_storage": {
        "base": "t_address",
        "encoding": "dynamic_array",
        "label": "address[]",
        "numberOfBytes": "32"
      },
      "t_bool": {
        "encoding": "inplace",
        "label": "bool",
        "numberOfBytes": "1"
      },
      "t_mapping(t_address,t_bool)": {
        "encoding": "mapping",
        "key": "t_address",
        "label": "mapping(address => bool)",
        "numberOfBytes": "32",
        "value": "t_bool"
      },
      "t_mapping(t_uint256,t_address)": {
        "encoding": "mapping",
        "key": "t_uint256",
        "label": "mapping(uint256 => address)",
        "numberOfBytes": "32",
        "value": "t_address"
      },
      "t_uint256": {
        "encoding": "inplace",
        "label": "uint256",
        "numberOfBytes": "32"
      }
    }
  }
}