{
  "address": "0x023DF456Dd9661eB274Cc9b20B780b7FD1370A66",
  "abi": [
    {
      "inputs": [],
      "stateMutability": "nonpayable",
      "type": "constructor"
    },
    {
      "anonymous": false,
      "inputs": [
        {
          "indexed": true,
          "internalType": "address",
          "name": "contractAddress",
          "type": "address"
        },
        {
          "indexed": true,
          "internalType": "address",
          "name": "controllerAddress",
          "type": "address"
        }
      ],
      "name": "ControllerAdded",
      "type": "event"
    },
    {
      "anonymous": false,
      "inputs": [
        {
          "indexed": true,
          "internalType": "address",
          "name": "contractAddress",
          "type": "address"
        },
        {
          "indexed": true,
          "internalType": "address",
          "name": "controllerAddress",
          "type": "address"
        }
      ],
      "name": "ControllerRemoved",
      "type": "event"
    },
    {
      "anonymous": false,
      "inputs": [
        {
          "indexed": false,
          "internalType": "address",
          "name": "tokenAddress",
          "type": "address"
        },
        {
          "indexed": false,
          "internalType": "address",
          "name": "poolAddress",
          "type": "address"
        },
        {
          "indexed": false,
          "internalType": "string",
          "name": "tokenSymbol",
          "type": "string"
        },
        {
          "indexed": false,
          "internalType": "string",
          "name": "poolSymbol",
          "type": "string"
        }
      ],
      "name": "ERC20GemTokenCreated",
      "type": "event"
    },
    {
      "inputs": [
        {
          "internalType": "address",
          "name": "_controller",
          "type": "address"
        }
      ],
      "name": "addController",
      "outputs": [],
      "stateMutability": "nonpayable",
      "type": "function"
    },
    {
      "inputs": [
        {
          "internalType": "uint256",
          "name": "idx",
          "type": "uint256"
        }
      ],
      "name": "allItems",
      "outputs": [
        {
          "internalType": "address",
          "name": "gemPool",
          "type": "address"
        }
      ],
      "stateMutability": "view",
      "type": "function"
    },
    {
      "inputs": [],
      "name": "allItemsLength",
      "outputs": [
        {
          "internalType": "uint256",
          "name": "",
          "type": "uint256"
        }
      ],
      "stateMutability": "view",
      "type": "function"
    },
    {
      "inputs": [
        {
          "internalType": "string",
          "name": "tokenSymbol",
          "type": "string"
        },
        {
          "internalType": "string",
          "name": "tokenName",
          "type": "string"
        },
        {
          "internalType": "address",
          "name": "poolAddress",
          "type": "address"
        },
        {
          "internalType": "address",
          "name": "tokenAddress",
          "type": "address"
        },
        {
          "internalType": "uint8",
          "name": "decimals",
          "type": "uint8"
        }
      ],
      "name": "createItem",
      "outputs": [
        {
          "internalType": "address payable",
          "name": "gemToken",
          "type": "address"
        }
      ],
      "stateMutability": "nonpayable",
      "type": "function"
    },
    {
      "inputs": [
        {
          "internalType": "uint256",
          "name": "_symbolHash",
          "type": "uint256"
        }
      ],
      "name": "getItem",
      "outputs": [
        {
          "internalType": "address",
          "name": "gemPool",
          "type": "address"
        }
      ],
      "stateMutability": "view",
      "type": "function"
    },
    {
      "inputs": [
        {
          "internalType": "address",
          "name": "_address",
          "type": "address"
        }
      ],
      "name": "isController",
      "outputs": [
        {
          "internalType": "bool",
          "name": "allowed",
          "type": "bool"
        }
      ],
      "stateMutability": "view",
      "type": "function"
    },
    {
      "inputs": [],
      "name": "relinquishControl",
      "outputs": [],
      "stateMutability": "view",
      "type": "function"
    }
  ],
  "transactionHash": "0x9b354dd68e3c7ed6289d3e610c6904f5edc999b08d6bb5962e0755f5a638e438",
  "args": [],
  "solcInputHash": "f1870fdc8b111c61e680f829eacac147",
  "bytecode": "0x608060405234801561001057600080fd5b5061001a3361001f565b610043565b6001600160a01b03166000908152602081905260409020805460ff19166001179055565b612a7f806100526000396000f3fe608060405234801561001057600080fd5b506004361061007d5760003560e01c8063b429afeb1161005b578063b429afeb14610252578063c1c43c4814610299578063e1c28bef146102b3578063ff68fa6e146102bb5761007d565b80633129e773146100825780639533fe82146100c8578063a7fc7a071461021d575b600080fd5b61009f6004803603602081101561009857600080fd5b50356102d8565b6040805173ffffffffffffffffffffffffffffffffffffffff9092168252519081900360200190f35b61009f600480360360a08110156100de57600080fd5b8101906020810181356401000000008111156100f957600080fd5b82018360208201111561010b57600080fd5b8035906020019184600183028401116401000000008311171561012d57600080fd5b91908080601f016020809104026020016040519081016040528093929190818152602001838380828437600092019190915250929594936020810193503591505064010000000081111561018057600080fd5b82018360208201111561019257600080fd5b803590602001918460018302840111640100000000831117156101b457600080fd5b91908080601f0160208091040260200160405190810160405280939291908181526020018383808284376000920191909152509295505050813573ffffffffffffffffffffffffffffffffffffffff9081169350602083013516916040013560ff169050610300565b6102506004803603602081101561023357600080fd5b503573ffffffffffffffffffffffffffffffffffffffff16610a4d565b005b6102856004803603602081101561026857600080fd5b503573ffffffffffffffffffffffffffffffffffffffff16610b13565b604080519115158252519081900360200190f35b6102a1610b3e565b60408051918252519081900360200190f35b610250610b44565b61009f600480360360208110156102d157600080fd5b5035610bc6565b60009081526002602052604090205473ffffffffffffffffffffffffffffffffffffffff1690565b3360009081526020819052604081205460ff1615156001148061032257503033145b610377576040517f08c379a0000000000000000000000000000000000000000000000000000000008152600401808060200182810382526028815260200180612a226028913960400191505060405180910390fd5b6000866040516020018082805190602001908083835b602083106103ca57805182527fffffffffffffffffffffffffffffffffffffffffffffffffffffffffffffffe0909201916020918201910161038d565b51815160209384036101000a7fffffffffffffffffffffffffffffffffffffffffffffffffffffffffffffffff018019909216911617905260408051929094018281037fffffffffffffffffffffffffffffffffffffffffffffffffffffffffffffffe0018352845281519181019190912060008181526002909252929020549194505073ffffffffffffffffffffffffffffffffffffffff161591506104d4905057604080517f08c379a000000000000000000000000000000000000000000000000000000000815260206004820152600f60248201527f47454d544f4b454e5f4558495354530000000000000000000000000000000000604482015290519081900360640190fd5b73ffffffffffffffffffffffffffffffffffffffff851661055657604080517f08c379a000000000000000000000000000000000000000000000000000000000815260206004820152600c60248201527f494e56414c49445f504f4f4c0000000000000000000000000000000000000000604482015290519081900360640190fd5b60606040518060200161056890610d71565b7fffffffffffffffffffffffffffffffffffffffffffffffffffffffffffffffe082820381018352601f9091011660405290506105a760008383610bfd565b92508273ffffffffffffffffffffffffffffffffffffffff1663651d836689898989896040518663ffffffff1660e01b81526004018080602001806020018673ffffffffffffffffffffffffffffffffffffffff1681526020018573ffffffffffffffffffffffffffffffffffffffff1681526020018460ff168152602001838103835288818151815260200191508051906020019080838360005b8381101561065b578181015183820152602001610643565b50505050905090810190601f1680156106885780820380516001836020036101000a031916815260200191505b50838103825287518152875160209182019189019080838360005b838110156106bb5781810151838201526020016106a3565b50505050905090810190601f1680156106e85780820380516001836020036101000a031916815260200191505b50975050505050505050600060405180830381600087803b15801561070c57600080fd5b505af1158015610720573d6000803e3d6000fd5b505050600083815260026020526040808220805473ffffffffffffffffffffffffffffffffffffffff88167fffffffffffffffffffffffff00000000000000000000000000000000000000009182168117909255600380546001810182559085527fc2575a0e9e593c00f959f8c92f12db2869c3395a3b0502d05e2516446f71f85b0180549091168217905581517f95d89b4100000000000000000000000000000000000000000000000000000000815291517fc8fef388476ee2aae16130f128a91b30e447edbc59098146eee5ae4169761dbd945087938b938e93926395d89b4192600480840193919291829003018186803b15801561082057600080fd5b505afa158015610834573d6000803e3d6000fd5b505050506040513d6000823e601f3d9081017fffffffffffffffffffffffffffffffffffffffffffffffffffffffffffffffe0168201604052602081101561087b57600080fd5b810190808051604051939291908464010000000082111561089b57600080fd5b9083019060208201858111156108b057600080fd5b82516401000000008111828201881017156108ca57600080fd5b82525081516020918201929091019080838360005b838110156108f75781810151838201526020016108df565b50505050905090810190601f1680156109245780820380516001836020036101000a031916815260200191505b50604052505050604051808573ffffffffffffffffffffffffffffffffffffffff1681526020018473ffffffffffffffffffffffffffffffffffffffff1681526020018060200180602001838103835285818151815260200191508051906020019080838360005b838110156109a457818101518382015260200161098c565b50505050905090810190601f1680156109d15780820380516001836020036101000a031916815260200191505b50838103825284518152845160209182019186019080838360005b83811015610a045781810151838201526020016109ec565b50505050905090810190601f168015610a315780820380516001836020036101000a031916815260200191505b50965050505050505060405180910390a1505095945050505050565b3360009081526020819052604090205460ff16151560011480610a6f57503033145b610ac4576040517f08c379a0000000000000000000000000000000000000000000000000000000008152600401808060200182810382526028815260200180612a226028913960400191505060405180910390fd5b73ffffffffffffffffffffffffffffffffffffffff16600090815260208190526040902080547fffffffffffffffffffffffffffffffffffffffffffffffffffffffffffffff00166001179055565b73ffffffffffffffffffffffffffffffffffffffff1660009081526020819052604090205460ff1690565b60035490565b3360009081526020819052604090205460ff16151560011480610b6657503033145b610bbb576040517f08c379a0000000000000000000000000000000000000000000000000000000008152600401808060200182810382526028815260200180612a226028913960400191505060405180910390fd5b336000908152602052565b600060038281548110610bd557fe5b60009182526020909120015473ffffffffffffffffffffffffffffffffffffffff1692915050565b60008084471015610c6f57604080517f08c379a000000000000000000000000000000000000000000000000000000000815260206004820152601d60248201527f437265617465323a20696e73756666696369656e742062616c616e6365000000604482015290519081900360640190fd5b8251610cdc57604080517f08c379a000000000000000000000000000000000000000000000000000000000815260206004820181905260248201527f437265617465323a2062797465636f6465206c656e677468206973207a65726f604482015290519081900360640190fd5b8383516020850187f5905073ffffffffffffffffffffffffffffffffffffffff8116610d6957604080517f08c379a000000000000000000000000000000000000000000000000000000000815260206004820152601960248201527f437265617465323a204661696c6564206f6e206465706c6f7900000000000000604482015290519081900360640190fd5b949350505050565b611ca380610d7f8339019056fe608060405234801561001057600080fd5b506100216301ffc9a760e01b610036565b610031630271189760e51b610036565b6100ba565b6001600160e01b03198082161415610095576040805162461bcd60e51b815260206004820152601c60248201527f4552433136353a20696e76616c696420696e7465726661636520696400000000604482015290519081900360640190fd5b6001600160e01b0319166000908152600660205260409020805460ff19166001179055565b611bda806100c96000396000f3fe608060405234801561001057600080fd5b506004361061016c5760003560e01c8063651d8366116100cd578063bc197c8111610081578063de0e9a3e11610066578063de0e9a3e146107b7578063ea598cb0146107d4578063f23a6e61146107f15761016c565b8063bc197c8114610573578063dd62ed3e1461077c5761016c565b806395d89b41116100b257806395d89b41146104f9578063a457c2d714610501578063a9059cbb1461053a5761016c565b8063651d83661461036f57806370a08231146104c65761016c565b806310fe9ae81161012457806323b872dd1161010957806323b872dd146102d5578063313ce5671461031857806339509351146103365761016c565b806310fe9ae81461029c57806318160ddd146102cd5761016c565b806306fdde031161015557806306fdde03146101de5780630902f1ac1461025b578063095ea7b3146102635761016c565b8063010a38f51461017157806301ffc9a71461018b575b600080fd5b6101796108c9565b60408051918252519081900360200190f35b6101ca600480360360208110156101a157600080fd5b50357fffffffff00000000000000000000000000000000000000000000000000000000166108cf565b604080519115158252519081900360200190f35b6101e6610906565b6040805160208082528351818301528351919283929083019185019080838360005b83811015610220578181015183820152602001610208565b50505050905090810190601f16801561024d5780820380516001836020036101000a031916815260200191505b509250505060405180910390f35b6101796109ba565b6101ca6004803603604081101561027957600080fd5b5073ffffffffffffffffffffffffffffffffffffffff81351690602001356109c0565b6102a46109de565b6040805173ffffffffffffffffffffffffffffffffffffffff9092168252519081900360200190f35b6101796109fa565b6101ca600480360360608110156102eb57600080fd5b5073ffffffffffffffffffffffffffffffffffffffff813581169160208101359091169060400135610a00565b610320610aa1565b6040805160ff9092168252519081900360200190f35b6101ca6004803603604081101561034c57600080fd5b5073ffffffffffffffffffffffffffffffffffffffff8135169060200135610aaa565b6104c4600480360360a081101561038557600080fd5b8101906020810181356401000000008111156103a057600080fd5b8201836020820111156103b257600080fd5b803590602001918460018302840111640100000000831117156103d457600080fd5b91908080601f016020809104026020016040519081016040528093929190818152602001838380828437600092019190915250929594936020810193503591505064010000000081111561042757600080fd5b82018360208201111561043957600080fd5b8035906020019184600183028401116401000000008311171561045b57600080fd5b91908080601f0160208091040260200160405190810160405280939291908181526020018383808284376000920191909152509295505050813573ffffffffffffffffffffffffffffffffffffffff9081169350602083013516916040013560ff169050610b05565b005b610179600480360360208110156104dc57600080fd5b503573ffffffffffffffffffffffffffffffffffffffff16610cd1565b6101e6610cf9565b6101ca6004803603604081101561051757600080fd5b5073ffffffffffffffffffffffffffffffffffffffff8135169060200135610d78565b6101ca6004803603604081101561055057600080fd5b5073ffffffffffffffffffffffffffffffffffffffff8135169060200135610ded565b610747600480360360a081101561058957600080fd5b73ffffffffffffffffffffffffffffffffffffffff82358116926020810135909116918101906060810160408201356401000000008111156105ca57600080fd5b8201836020820111156105dc57600080fd5b803590602001918460208302840111640100000000831117156105fe57600080fd5b919080806020026020016040519081016040528093929190818152602001838360200280828437600092019190915250929594936020810193503591505064010000000081111561064e57600080fd5b82018360208201111561066057600080fd5b8035906020019184602083028401116401000000008311171561068257600080fd5b91908080602002602001604051908101604052809392919081815260200183836020028082843760009201919091525092959493602081019350359150506401000000008111156106d257600080fd5b8201836020820111156106e457600080fd5b8035906020019184600183028401116401000000008311171561070657600080fd5b91908080601f016020809104026020016040519081016040528093929190818152602001838380828437600092019190915250929550610e01945050505050565b604080517fffffffff000000000000000000000000000000000000000000000000000000009092168252519081900360200190f35b6101796004803603604081101561079257600080fd5b5073ffffffffffffffffffffffffffffffffffffffff81358116916020013516610e2b565b6104c4600480360360208110156107cd57600080fd5b5035610e63565b6104c4600480360360208110156107ea57600080fd5b5035611029565b610747600480360360a081101561080757600080fd5b73ffffffffffffffffffffffffffffffffffffffff823581169260208101359091169160408201359160608101359181019060a08101608082013564010000000081111561085457600080fd5b82018360208201111561086657600080fd5b8035906020019184600183028401116401000000008311171561088857600080fd5b91908080601f016020809104026020016040519081016040528093929190818152602001838380828437600092019190915250929550611290945050505050565b600b5490565b7fffffffff000000000000000000000000000000000000000000000000000000001660009081526006602052604090205460ff1690565b60038054604080516020601f60027fffffffffffffffffffffffffffffffffffffffffffffffffffffffffffffffff6101006001881615020190951694909404938401819004810282018101909252828152606093909290918301828280156109b05780601f10610985576101008083540402835291602001916109b0565b820191906000526020600020905b81548152906001019060200180831161099357829003601f168201915b5050505050905090565b600c5490565b60006109d46109cd6112ba565b84846112be565b5060015b92915050565b60085473ffffffffffffffffffffffffffffffffffffffff1690565b60025490565b6000610a0d8484846113d1565b610a9784610a196112ba565b610a9285604051806060016040528060288152602001611aee6028913973ffffffffffffffffffffffffffffffffffffffff8a16600090815260016020526040812090610a646112ba565b73ffffffffffffffffffffffffffffffffffffffff168152602081019190915260400160002054919061156d565b6112be565b5060019392505050565b60055460ff1690565b60006109d4610ab76112ba565b84610a928560016000610ac86112ba565b73ffffffffffffffffffffffffffffffffffffffff908116825260208083019390935260409182016000908120918c168152925290205490611604565b600754610100900460ff1680610b1e5750610b1e611665565b80610b2c575060075460ff16155b610b675760405162461bcd60e51b815260040180806020018281038252602e815260200180611a9f602e913960400191505060405180910390fd5b600754610100900460ff16158015610bcd57600780547fffffffffffffffffffffffffffffffffffffffffffffffffffffffffffffff007fffffffffffffffffffffffffffffffffffffffffffffffffffffffffffff00ff909116610100171660011790555b8551610be090600390602089019061197e565b508451610bf490600490602088019061197e565b506005805460ff84167fffffffffffffffffffffffffffffffffffffffffffffffffffffffffffffff00918216179091556008805473ffffffffffffffffffffffffffffffffffffffff8087167fffffffffffffffffffffffff00000000000000000000000000000000000000009283161790925560098054821630179055600a8054928816929091169190911790556000600b556001600e55600d805490911660021790558015610cc957600780547fffffffffffffffffffffffffffffffffffffffffffffffffffffffffffff00ff1690555b505050505050565b73ffffffffffffffffffffffffffffffffffffffff1660009081526020819052604090205490565b60048054604080516020601f60027fffffffffffffffffffffffffffffffffffffffffffffffffffffffffffffffff6101006001881615020190951694909404938401819004810282018101909252828152606093909290918301828280156109b05780601f10610985576101008083540402835291602001916109b0565b60006109d4610d856112ba565b84610a9285604051806060016040528060258152602001611b806025913960016000610daf6112ba565b73ffffffffffffffffffffffffffffffffffffffff908116825260208083019390935260409182016000908120918d1681529252902054919061156d565b60006109d4610dfa6112ba565b84846113d1565b7fbc197c810000000000000000000000000000000000000000000000000000000095945050505050565b73ffffffffffffffffffffffffffffffffffffffff918216600090815260016020908152604080832093909416825291909152205490565b80610eb5576040805162461bcd60e51b815260206004820152600d60248201527f5a45524f5f5155414e5449545900000000000000000000000000000000000000604482015290519081900360640190fd5b80610ed6610ec1610aa1565b60ff16600a0a610ed033610cd1565b90611676565b1015610f29576040805162461bcd60e51b815260206004820152601560248201527f494e53554646494349454e545f5155414e544954590000000000000000000000604482015290519081900360640190fd5b604080517fb801a4630000000000000000000000000000000000000000000000000000000081526008600482015230602482015233604482015260648101839052905173f5ec03f5ED101F71712633F4DfD35D581C4dee9C9163b801a463916084808301926000929190829003018186803b158015610fa757600080fd5b505af4158015610fbb573d6000803e3d6000fd5b50505050610fe033610fdb610fce610aa1565b849060ff16600a0a611676565b6116cf565b600c54610fed90826117ff565b600c5560408051828152905133917f5dd085b6070b4cae004f84daafd199fd55b0bdfa11c3a802baffe89c2419d8c2919081900360200190a250565b8061107b576040805162461bcd60e51b815260206004820152600d60248201527f5a45524f5f5155414e5449545900000000000000000000000000000000000000604482015290519081900360640190fd5b600854600a54600d54604080517f9d26be3300000000000000000000000000000000000000000000000000000000815273ffffffffffffffffffffffffffffffffffffffff948516600482015293909216602484015260ff16604483015233606483015251829173f5ec03f5ED101F71712633F4DfD35D581C4dee9C91639d26be3391608480820192602092909190829003018186803b15801561111e57600080fd5b505af4158015611132573d6000803e3d6000fd5b505050506040513d602081101561114857600080fd5b5051101561119d576040805162461bcd60e51b815260206004820152601560248201527f494e53554646494349454e545f5155414e544954590000000000000000000000604482015290519081900360640190fd5b604080517fb801a4630000000000000000000000000000000000000000000000000000000081526008600482015233602482015230604482015260648101839052905173f5ec03f5ED101F71712633F4DfD35D581C4dee9C9163b801a463916084808301926000929190829003018186803b15801561121b57600080fd5b505af415801561122f573d6000803e3d6000fd5b5050505061124733611242610fce610aa1565b61185c565b600c546112549082611604565b600c5560408051828152905133917fb61d00fdfee32467c7d81db64c811ae60c104c346debf36a14afe84b8fce59e5919081900360200190a250565b7ff23a6e610000000000000000000000000000000000000000000000000000000095945050505050565b3390565b73ffffffffffffffffffffffffffffffffffffffff83166113105760405162461bcd60e51b8152600401808060200182810382526024815260200180611b5c6024913960400191505060405180910390fd5b73ffffffffffffffffffffffffffffffffffffffff82166113625760405162461bcd60e51b8152600401808060200182810382526022815260200180611a576022913960400191505060405180910390fd5b73ffffffffffffffffffffffffffffffffffffffff808416600081815260016020908152604080832094871680845294825291829020859055815185815291517f8c5be1e5ebec7d5bd14f71427d1e84f3dd0314c0f7b2291e5b200ac8c7c3b9259281900390910190a3505050565b73ffffffffffffffffffffffffffffffffffffffff83166114235760405162461bcd60e51b8152600401808060200182810382526025815260200180611b376025913960400191505060405180910390fd5b73ffffffffffffffffffffffffffffffffffffffff82166114755760405162461bcd60e51b8152600401808060200182810382526023815260200180611a126023913960400191505060405180910390fd5b611480838383611973565b6114ca81604051806060016040528060268152602001611a796026913973ffffffffffffffffffffffffffffffffffffffff8616600090815260208190526040902054919061156d565b73ffffffffffffffffffffffffffffffffffffffff80851660009081526020819052604080822093909355908416815220546115069082611604565b73ffffffffffffffffffffffffffffffffffffffff8084166000818152602081815260409182902094909455805185815290519193928716927fddf252ad1be2c89b69c2b068fc378daa952ba7f163c4a11628f55a4df523b3ef92918290030190a3505050565b600081848411156115fc5760405162461bcd60e51b81526004018080602001828103825283818151815260200191508051906020019080838360005b838110156115c15781810151838201526020016115a9565b50505050905090810190601f1680156115ee5780820380516001836020036101000a031916815260200191505b509250505060405180910390fd5b505050900390565b60008282018381101561165e576040805162461bcd60e51b815260206004820152601b60248201527f536166654d6174683a206164646974696f6e206f766572666c6f770000000000604482015290519081900360640190fd5b9392505050565b600061167030611978565b15905090565b600082611685575060006109d8565b8282028284828161169257fe5b041461165e5760405162461bcd60e51b8152600401808060200182810382526021815260200180611acd6021913960400191505060405180910390fd5b73ffffffffffffffffffffffffffffffffffffffff82166117215760405162461bcd60e51b8152600401808060200182810382526021815260200180611b166021913960400191505060405180910390fd5b61172d82600083611973565b61177781604051806060016040528060228152602001611a356022913973ffffffffffffffffffffffffffffffffffffffff8516600090815260208190526040902054919061156d565b73ffffffffffffffffffffffffffffffffffffffff83166000908152602081905260409020556002546117aa90826117ff565b60025560408051828152905160009173ffffffffffffffffffffffffffffffffffffffff8516917fddf252ad1be2c89b69c2b068fc378daa952ba7f163c4a11628f55a4df523b3ef9181900360200190a35050565b600082821115611856576040805162461bcd60e51b815260206004820152601e60248201527f536166654d6174683a207375627472616374696f6e206f766572666c6f770000604482015290519081900360640190fd5b50900390565b73ffffffffffffffffffffffffffffffffffffffff82166118c4576040805162461bcd60e51b815260206004820152601f60248201527f45524332303a206d696e7420746f20746865207a65726f206164647265737300604482015290519081900360640190fd5b6118d060008383611973565b6002546118dd9082611604565b60025573ffffffffffffffffffffffffffffffffffffffff82166000908152602081905260409020546119109082611604565b73ffffffffffffffffffffffffffffffffffffffff83166000818152602081815260408083209490945583518581529351929391927fddf252ad1be2c89b69c2b068fc378daa952ba7f163c4a11628f55a4df523b3ef9281900390910190a35050565b505050565b3b151590565b828054600181600116156101000203166002900490600052602060002090601f016020900481019282601f106119bf57805160ff19168380011785556119ec565b828001600101855582156119ec579182015b828111156119ec5782518255916020019190600101906119d1565b506119f89291506119fc565b5090565b5b808211156119f857600081556001016119fd56fe45524332303a207472616e7366657220746f20746865207a65726f206164647265737345524332303a206275726e20616d6f756e7420657863656564732062616c616e636545524332303a20617070726f766520746f20746865207a65726f206164647265737345524332303a207472616e7366657220616d6f756e7420657863656564732062616c616e6365496e697469616c697a61626c653a20636f6e747261637420697320616c726561647920696e697469616c697a6564536166654d6174683a206d756c7469706c69636174696f6e206f766572666c6f7745524332303a207472616e7366657220616d6f756e74206578636565647320616c6c6f77616e636545524332303a206275726e2066726f6d20746865207a65726f206164647265737345524332303a207472616e736665722066726f6d20746865207a65726f206164647265737345524332303a20617070726f76652066726f6d20746865207a65726f206164647265737345524332303a2064656372656173656420616c6c6f77616e63652062656c6f77207a65726fa2646970667358221220d8b7c327f3416501888745dddab3e2e6d07723b7b8e26d52be2d9d3b9537814e64736f6c63430007030033436f6e74726f6c6c61626c653a2063616c6c6572206973206e6f74206120636f6e74726f6c6c6572a2646970667358221220d1e980efc728f149b346edcbb193eff648e40bee45176c601d46c88b3a943c5864736f6c63430007030033",
  "deployedBytecode": "0x608060405234801561001057600080fd5b506004361061007d5760003560e01c8063b429afeb1161005b578063b429afeb14610252578063c1c43c4814610299578063e1c28bef146102b3578063ff68fa6e146102bb5761007d565b80633129e773146100825780639533fe82146100c8578063a7fc7a071461021d575b600080fd5b61009f6004803603602081101561009857600080fd5b50356102d8565b6040805173ffffffffffffffffffffffffffffffffffffffff9092168252519081900360200190f35b61009f600480360360a08110156100de57600080fd5b8101906020810181356401000000008111156100f957600080fd5b82018360208201111561010b57600080fd5b8035906020019184600183028401116401000000008311171561012d57600080fd5b91908080601f016020809104026020016040519081016040528093929190818152602001838380828437600092019190915250929594936020810193503591505064010000000081111561018057600080fd5b82018360208201111561019257600080fd5b803590602001918460018302840111640100000000831117156101b457600080fd5b91908080601f0160208091040260200160405190810160405280939291908181526020018383808284376000920191909152509295505050813573ffffffffffffffffffffffffffffffffffffffff9081169350602083013516916040013560ff169050610300565b6102506004803603602081101561023357600080fd5b503573ffffffffffffffffffffffffffffffffffffffff16610a4d565b005b6102856004803603602081101561026857600080fd5b503573ffffffffffffffffffffffffffffffffffffffff16610b13565b604080519115158252519081900360200190f35b6102a1610b3e565b60408051918252519081900360200190f35b610250610b44565b61009f600480360360208110156102d157600080fd5b5035610bc6565b60009081526002602052604090205473ffffffffffffffffffffffffffffffffffffffff1690565b3360009081526020819052604081205460ff1615156001148061032257503033145b610377576040517f08c379a0000000000000000000000000000000000000000000000000000000008152600401808060200182810382526028815260200180612a226028913960400191505060405180910390fd5b6000866040516020018082805190602001908083835b602083106103ca57805182527fffffffffffffffffffffffffffffffffffffffffffffffffffffffffffffffe0909201916020918201910161038d565b51815160209384036101000a7fffffffffffffffffffffffffffffffffffffffffffffffffffffffffffffffff018019909216911617905260408051929094018281037fffffffffffffffffffffffffffffffffffffffffffffffffffffffffffffffe0018352845281519181019190912060008181526002909252929020549194505073ffffffffffffffffffffffffffffffffffffffff161591506104d4905057604080517f08c379a000000000000000000000000000000000000000000000000000000000815260206004820152600f60248201527f47454d544f4b454e5f4558495354530000000000000000000000000000000000604482015290519081900360640190fd5b73ffffffffffffffffffffffffffffffffffffffff851661055657604080517f08c379a000000000000000000000000000000000000000000000000000000000815260206004820152600c60248201527f494e56414c49445f504f4f4c0000000000000000000000000000000000000000604482015290519081900360640190fd5b60606040518060200161056890610d71565b7fffffffffffffffffffffffffffffffffffffffffffffffffffffffffffffffe082820381018352601f9091011660405290506105a760008383610bfd565b92508273ffffffffffffffffffffffffffffffffffffffff1663651d836689898989896040518663ffffffff1660e01b81526004018080602001806020018673ffffffffffffffffffffffffffffffffffffffff1681526020018573ffffffffffffffffffffffffffffffffffffffff1681526020018460ff168152602001838103835288818151815260200191508051906020019080838360005b8381101561065b578181015183820152602001610643565b50505050905090810190601f1680156106885780820380516001836020036101000a031916815260200191505b50838103825287518152875160209182019189019080838360005b838110156106bb5781810151838201526020016106a3565b50505050905090810190601f1680156106e85780820380516001836020036101000a031916815260200191505b50975050505050505050600060405180830381600087803b15801561070c57600080fd5b505af1158015610720573d6000803e3d6000fd5b505050600083815260026020526040808220805473ffffffffffffffffffffffffffffffffffffffff88167fffffffffffffffffffffffff00000000000000000000000000000000000000009182168117909255600380546001810182559085527fc2575a0e9e593c00f959f8c92f12db2869c3395a3b0502d05e2516446f71f85b0180549091168217905581517f95d89b4100000000000000000000000000000000000000000000000000000000815291517fc8fef388476ee2aae16130f128a91b30e447edbc59098146eee5ae4169761dbd945087938b938e93926395d89b4192600480840193919291829003018186803b15801561082057600080fd5b505afa158015610834573d6000803e3d6000fd5b505050506040513d6000823e601f3d9081017fffffffffffffffffffffffffffffffffffffffffffffffffffffffffffffffe0168201604052602081101561087b57600080fd5b810190808051604051939291908464010000000082111561089b57600080fd5b9083019060208201858111156108b057600080fd5b82516401000000008111828201881017156108ca57600080fd5b82525081516020918201929091019080838360005b838110156108f75781810151838201526020016108df565b50505050905090810190601f1680156109245780820380516001836020036101000a031916815260200191505b50604052505050604051808573ffffffffffffffffffffffffffffffffffffffff1681526020018473ffffffffffffffffffffffffffffffffffffffff1681526020018060200180602001838103835285818151815260200191508051906020019080838360005b838110156109a457818101518382015260200161098c565b50505050905090810190601f1680156109d15780820380516001836020036101000a031916815260200191505b50838103825284518152845160209182019186019080838360005b83811015610a045781810151838201526020016109ec565b50505050905090810190601f168015610a315780820380516001836020036101000a031916815260200191505b50965050505050505060405180910390a1505095945050505050565b3360009081526020819052604090205460ff16151560011480610a6f57503033145b610ac4576040517f08c379a0000000000000000000000000000000000000000000000000000000008152600401808060200182810382526028815260200180612a226028913960400191505060405180910390fd5b73ffffffffffffffffffffffffffffffffffffffff16600090815260208190526040902080547fffffffffffffffffffffffffffffffffffffffffffffffffffffffffffffff00166001179055565b73ffffffffffffffffffffffffffffffffffffffff1660009081526020819052604090205460ff1690565b60035490565b3360009081526020819052604090205460ff16151560011480610b6657503033145b610bbb576040517f08c379a0000000000000000000000000000000000000000000000000000000008152600401808060200182810382526028815260200180612a226028913960400191505060405180910390fd5b336000908152602052565b600060038281548110610bd557fe5b60009182526020909120015473ffffffffffffffffffffffffffffffffffffffff1692915050565b60008084471015610c6f57604080517f08c379a000000000000000000000000000000000000000000000000000000000815260206004820152601d60248201527f437265617465323a20696e73756666696369656e742062616c616e6365000000604482015290519081900360640190fd5b8251610cdc57604080517f08c379a000000000000000000000000000000000000000000000000000000000815260206004820181905260248201527f437265617465323a2062797465636f6465206c656e677468206973207a65726f604482015290519081900360640190fd5b8383516020850187f5905073ffffffffffffffffffffffffffffffffffffffff8116610d6957604080517f08c379a000000000000000000000000000000000000000000000000000000000815260206004820152601960248201527f437265617465323a204661696c6564206f6e206465706c6f7900000000000000604482015290519081900360640190fd5b949350505050565b611ca380610d7f8339019056fe608060405234801561001057600080fd5b506100216301ffc9a760e01b610036565b610031630271189760e51b610036565b6100ba565b6001600160e01b03198082161415610095576040805162461bcd60e51b815260206004820152601c60248201527f4552433136353a20696e76616c696420696e7465726661636520696400000000604482015290519081900360640190fd5b6001600160e01b0319166000908152600660205260409020805460ff19166001179055565b611bda806100c96000396000f3fe608060405234801561001057600080fd5b506004361061016c5760003560e01c8063651d8366116100cd578063bc197c8111610081578063de0e9a3e11610066578063de0e9a3e146107b7578063ea598cb0146107d4578063f23a6e61146107f15761016c565b8063bc197c8114610573578063dd62ed3e1461077c5761016c565b806395d89b41116100b257806395d89b41146104f9578063a457c2d714610501578063a9059cbb1461053a5761016c565b8063651d83661461036f57806370a08231146104c65761016c565b806310fe9ae81161012457806323b872dd1161010957806323b872dd146102d5578063313ce5671461031857806339509351146103365761016c565b806310fe9ae81461029c57806318160ddd146102cd5761016c565b806306fdde031161015557806306fdde03146101de5780630902f1ac1461025b578063095ea7b3146102635761016c565b8063010a38f51461017157806301ffc9a71461018b575b600080fd5b6101796108c9565b60408051918252519081900360200190f35b6101ca600480360360208110156101a157600080fd5b50357fffffffff00000000000000000000000000000000000000000000000000000000166108cf565b604080519115158252519081900360200190f35b6101e6610906565b6040805160208082528351818301528351919283929083019185019080838360005b83811015610220578181015183820152602001610208565b50505050905090810190601f16801561024d5780820380516001836020036101000a031916815260200191505b509250505060405180910390f35b6101796109ba565b6101ca6004803603604081101561027957600080fd5b5073ffffffffffffffffffffffffffffffffffffffff81351690602001356109c0565b6102a46109de565b6040805173ffffffffffffffffffffffffffffffffffffffff9092168252519081900360200190f35b6101796109fa565b6101ca600480360360608110156102eb57600080fd5b5073ffffffffffffffffffffffffffffffffffffffff813581169160208101359091169060400135610a00565b610320610aa1565b6040805160ff9092168252519081900360200190f35b6101ca6004803603604081101561034c57600080fd5b5073ffffffffffffffffffffffffffffffffffffffff8135169060200135610aaa565b6104c4600480360360a081101561038557600080fd5b8101906020810181356401000000008111156103a057600080fd5b8201836020820111156103b257600080fd5b803590602001918460018302840111640100000000831117156103d457600080fd5b91908080601f016020809104026020016040519081016040528093929190818152602001838380828437600092019190915250929594936020810193503591505064010000000081111561042757600080fd5b82018360208201111561043957600080fd5b8035906020019184600183028401116401000000008311171561045b57600080fd5b91908080601f0160208091040260200160405190810160405280939291908181526020018383808284376000920191909152509295505050813573ffffffffffffffffffffffffffffffffffffffff9081169350602083013516916040013560ff169050610b05565b005b610179600480360360208110156104dc57600080fd5b503573ffffffffffffffffffffffffffffffffffffffff16610cd1565b6101e6610cf9565b6101ca6004803603604081101561051757600080fd5b5073ffffffffffffffffffffffffffffffffffffffff8135169060200135610d78565b6101ca6004803603604081101561055057600080fd5b5073ffffffffffffffffffffffffffffffffffffffff8135169060200135610ded565b610747600480360360a081101561058957600080fd5b73ffffffffffffffffffffffffffffffffffffffff82358116926020810135909116918101906060810160408201356401000000008111156105ca57600080fd5b8201836020820111156105dc57600080fd5b803590602001918460208302840111640100000000831117156105fe57600080fd5b919080806020026020016040519081016040528093929190818152602001838360200280828437600092019190915250929594936020810193503591505064010000000081111561064e57600080fd5b82018360208201111561066057600080fd5b8035906020019184602083028401116401000000008311171561068257600080fd5b91908080602002602001604051908101604052809392919081815260200183836020028082843760009201919091525092959493602081019350359150506401000000008111156106d257600080fd5b8201836020820111156106e457600080fd5b8035906020019184600183028401116401000000008311171561070657600080fd5b91908080601f016020809104026020016040519081016040528093929190818152602001838380828437600092019190915250929550610e01945050505050565b604080517fffffffff000000000000000000000000000000000000000000000000000000009092168252519081900360200190f35b6101796004803603604081101561079257600080fd5b5073ffffffffffffffffffffffffffffffffffffffff81358116916020013516610e2b565b6104c4600480360360208110156107cd57600080fd5b5035610e63565b6104c4600480360360208110156107ea57600080fd5b5035611029565b610747600480360360a081101561080757600080fd5b73ffffffffffffffffffffffffffffffffffffffff823581169260208101359091169160408201359160608101359181019060a08101608082013564010000000081111561085457600080fd5b82018360208201111561086657600080fd5b8035906020019184600183028401116401000000008311171561088857600080fd5b91908080601f016020809104026020016040519081016040528093929190818152602001838380828437600092019190915250929550611290945050505050565b600b5490565b7fffffffff000000000000000000000000000000000000000000000000000000001660009081526006602052604090205460ff1690565b60038054604080516020601f60027fffffffffffffffffffffffffffffffffffffffffffffffffffffffffffffffff6101006001881615020190951694909404938401819004810282018101909252828152606093909290918301828280156109b05780601f10610985576101008083540402835291602001916109b0565b820191906000526020600020905b81548152906001019060200180831161099357829003601f168201915b5050505050905090565b600c5490565b60006109d46109cd6112ba565b84846112be565b5060015b92915050565b60085473ffffffffffffffffffffffffffffffffffffffff1690565b60025490565b6000610a0d8484846113d1565b610a9784610a196112ba565b610a9285604051806060016040528060288152602001611aee6028913973ffffffffffffffffffffffffffffffffffffffff8a16600090815260016020526040812090610a646112ba565b73ffffffffffffffffffffffffffffffffffffffff168152602081019190915260400160002054919061156d565b6112be565b5060019392505050565b60055460ff1690565b60006109d4610ab76112ba565b84610a928560016000610ac86112ba565b73ffffffffffffffffffffffffffffffffffffffff908116825260208083019390935260409182016000908120918c168152925290205490611604565b600754610100900460ff1680610b1e5750610b1e611665565b80610b2c575060075460ff16155b610b675760405162461bcd60e51b815260040180806020018281038252602e815260200180611a9f602e913960400191505060405180910390fd5b600754610100900460ff16158015610bcd57600780547fffffffffffffffffffffffffffffffffffffffffffffffffffffffffffffff007fffffffffffffffffffffffffffffffffffffffffffffffffffffffffffff00ff909116610100171660011790555b8551610be090600390602089019061197e565b508451610bf490600490602088019061197e565b506005805460ff84167fffffffffffffffffffffffffffffffffffffffffffffffffffffffffffffff00918216179091556008805473ffffffffffffffffffffffffffffffffffffffff8087167fffffffffffffffffffffffff00000000000000000000000000000000000000009283161790925560098054821630179055600a8054928816929091169190911790556000600b556001600e55600d805490911660021790558015610cc957600780547fffffffffffffffffffffffffffffffffffffffffffffffffffffffffffff00ff1690555b505050505050565b73ffffffffffffffffffffffffffffffffffffffff1660009081526020819052604090205490565b60048054604080516020601f60027fffffffffffffffffffffffffffffffffffffffffffffffffffffffffffffffff6101006001881615020190951694909404938401819004810282018101909252828152606093909290918301828280156109b05780601f10610985576101008083540402835291602001916109b0565b60006109d4610d856112ba565b84610a9285604051806060016040528060258152602001611b806025913960016000610daf6112ba565b73ffffffffffffffffffffffffffffffffffffffff908116825260208083019390935260409182016000908120918d1681529252902054919061156d565b60006109d4610dfa6112ba565b84846113d1565b7fbc197c810000000000000000000000000000000000000000000000000000000095945050505050565b73ffffffffffffffffffffffffffffffffffffffff918216600090815260016020908152604080832093909416825291909152205490565b80610eb5576040805162461bcd60e51b815260206004820152600d60248201527f5a45524f5f5155414e5449545900000000000000000000000000000000000000604482015290519081900360640190fd5b80610ed6610ec1610aa1565b60ff16600a0a610ed033610cd1565b90611676565b1015610f29576040805162461bcd60e51b815260206004820152601560248201527f494e53554646494349454e545f5155414e544954590000000000000000000000604482015290519081900360640190fd5b604080517fb801a4630000000000000000000000000000000000000000000000000000000081526008600482015230602482015233604482015260648101839052905173__$3f4a30935d2c9ff1225c976adfc01f1bf7$__9163b801a463916084808301926000929190829003018186803b158015610fa757600080fd5b505af4158015610fbb573d6000803e3d6000fd5b50505050610fe033610fdb610fce610aa1565b849060ff16600a0a611676565b6116cf565b600c54610fed90826117ff565b600c5560408051828152905133917f5dd085b6070b4cae004f84daafd199fd55b0bdfa11c3a802baffe89c2419d8c2919081900360200190a250565b8061107b576040805162461bcd60e51b815260206004820152600d60248201527f5a45524f5f5155414e5449545900000000000000000000000000000000000000604482015290519081900360640190fd5b600854600a54600d54604080517f9d26be3300000000000000000000000000000000000000000000000000000000815273ffffffffffffffffffffffffffffffffffffffff948516600482015293909216602484015260ff16604483015233606483015251829173__$3f4a30935d2c9ff1225c976adfc01f1bf7$__91639d26be3391608480820192602092909190829003018186803b15801561111e57600080fd5b505af4158015611132573d6000803e3d6000fd5b505050506040513d602081101561114857600080fd5b5051101561119d576040805162461bcd60e51b815260206004820152601560248201527f494e53554646494349454e545f5155414e544954590000000000000000000000604482015290519081900360640190fd5b604080517fb801a4630000000000000000000000000000000000000000000000000000000081526008600482015233602482015230604482015260648101839052905173__$3f4a30935d2c9ff1225c976adfc01f1bf7$__9163b801a463916084808301926000929190829003018186803b15801561121b57600080fd5b505af415801561122f573d6000803e3d6000fd5b5050505061124733611242610fce610aa1565b61185c565b600c546112549082611604565b600c5560408051828152905133917fb61d00fdfee32467c7d81db64c811ae60c104c346debf36a14afe84b8fce59e5919081900360200190a250565b7ff23a6e610000000000000000000000000000000000000000000000000000000095945050505050565b3390565b73ffffffffffffffffffffffffffffffffffffffff83166113105760405162461bcd60e51b8152600401808060200182810382526024815260200180611b5c6024913960400191505060405180910390fd5b73ffffffffffffffffffffffffffffffffffffffff82166113625760405162461bcd60e51b8152600401808060200182810382526022815260200180611a576022913960400191505060405180910390fd5b73ffffffffffffffffffffffffffffffffffffffff808416600081815260016020908152604080832094871680845294825291829020859055815185815291517f8c5be1e5ebec7d5bd14f71427d1e84f3dd0314c0f7b2291e5b200ac8c7c3b9259281900390910190a3505050565b73ffffffffffffffffffffffffffffffffffffffff83166114235760405162461bcd60e51b8152600401808060200182810382526025815260200180611b376025913960400191505060405180910390fd5b73ffffffffffffffffffffffffffffffffffffffff82166114755760405162461bcd60e51b8152600401808060200182810382526023815260200180611a126023913960400191505060405180910390fd5b611480838383611973565b6114ca81604051806060016040528060268152602001611a796026913973ffffffffffffffffffffffffffffffffffffffff8616600090815260208190526040902054919061156d565b73ffffffffffffffffffffffffffffffffffffffff80851660009081526020819052604080822093909355908416815220546115069082611604565b73ffffffffffffffffffffffffffffffffffffffff8084166000818152602081815260409182902094909455805185815290519193928716927fddf252ad1be2c89b69c2b068fc378daa952ba7f163c4a11628f55a4df523b3ef92918290030190a3505050565b600081848411156115fc5760405162461bcd60e51b81526004018080602001828103825283818151815260200191508051906020019080838360005b838110156115c15781810151838201526020016115a9565b50505050905090810190601f1680156115ee5780820380516001836020036101000a031916815260200191505b509250505060405180910390fd5b505050900390565b60008282018381101561165e576040805162461bcd60e51b815260206004820152601b60248201527f536166654d6174683a206164646974696f6e206f766572666c6f770000000000604482015290519081900360640190fd5b9392505050565b600061167030611978565b15905090565b600082611685575060006109d8565b8282028284828161169257fe5b041461165e5760405162461bcd60e51b8152600401808060200182810382526021815260200180611acd6021913960400191505060405180910390fd5b73ffffffffffffffffffffffffffffffffffffffff82166117215760405162461bcd60e51b8152600401808060200182810382526021815260200180611b166021913960400191505060405180910390fd5b61172d82600083611973565b61177781604051806060016040528060228152602001611a356022913973ffffffffffffffffffffffffffffffffffffffff8516600090815260208190526040902054919061156d565b73ffffffffffffffffffffffffffffffffffffffff83166000908152602081905260409020556002546117aa90826117ff565b60025560408051828152905160009173ffffffffffffffffffffffffffffffffffffffff8516917fddf252ad1be2c89b69c2b068fc378daa952ba7f163c4a11628f55a4df523b3ef9181900360200190a35050565b600082821115611856576040805162461bcd60e51b815260206004820152601e60248201527f536166654d6174683a207375627472616374696f6e206f766572666c6f770000604482015290519081900360640190fd5b50900390565b73ffffffffffffffffffffffffffffffffffffffff82166118c4576040805162461bcd60e51b815260206004820152601f60248201527f45524332303a206d696e7420746f20746865207a65726f206164647265737300604482015290519081900360640190fd5b6118d060008383611973565b6002546118dd9082611604565b60025573ffffffffffffffffffffffffffffffffffffffff82166000908152602081905260409020546119109082611604565b73ffffffffffffffffffffffffffffffffffffffff83166000818152602081815260408083209490945583518581529351929391927fddf252ad1be2c89b69c2b068fc378daa952ba7f163c4a11628f55a4df523b3ef9281900390910190a35050565b505050565b3b151590565b828054600181600116156101000203166002900490600052602060002090601f016020900481019282601f106119bf57805160ff19168380011785556119ec565b828001600101855582156119ec579182015b828111156119ec5782518255916020019190600101906119d1565b506119f89291506119fc565b5090565b5b808211156119f857600081556001016119fd56fe45524332303a207472616e7366657220746f20746865207a65726f206164647265737345524332303a206275726e20616d6f756e7420657863656564732062616c616e636545524332303a20617070726f766520746f20746865207a65726f206164647265737345524332303a207472616e7366657220616d6f756e7420657863656564732062616c616e6365496e697469616c697a61626c653a20636f6e747261637420697320616c726561647920696e697469616c697a6564536166654d6174683a206d756c7469706c69636174696f6e206f766572666c6f7745524332303a207472616e7366657220616d6f756e74206578636565647320616c6c6f77616e636545524332303a206275726e2066726f6d20746865207a65726f206164647265737345524332303a207472616e736665722066726f6d20746865207a65726f206164647265737345524332303a20617070726f76652066726f6d20746865207a65726f206164647265737345524332303a2064656372656173656420616c6c6f77616e63652062656c6f77207a65726fa2646970667358221220d8b7c327f3416501888745dddab3e2e6d07723b7b8e26d52be2d9d3b9537814e64736f6c63430007030033436f6e74726f6c6c61626c653a2063616c6c6572206973206e6f74206120636f6e74726f6c6c6572a2646970667358221220d1e980efc728f149b346edcbb193eff648e40bee45176c601d46c88b3a943c5864736f6c63430007030033",
  "libraries": {
    "GovernanceLib": "0x11d4144642F7874Bb4f626802530aFf9e2541233",
    "Strings": "0xe98D76f55e5Dae2DE566CC8Aa1a36282742eabf7",
    "SafeMath": "0x753f0df0a61c5F8A0eB31c6Bf6e7363943Eb225B",
    "AddressSet": "0x86fca4de79B7DA4138cB961e0ce32FF17Bb1e3B3",
    "UInt256Set": "0xA7A95c6BA39DA9747ae1fE7C64e4E7ad00dCFD73",
    "Create2": "0x117f8511d54E60dE2F1C63F0Ac1c7C05473cdAa4",
    "ProposalsLib": "0x665D6Ed357E15bC6b8D29EB02ce28DE340aA269A",
    "ComplexPoolLib": "0x4bF7Ef618eB8BB84f54D1B60327AC6242E4C4e03",
    "WrappedTokenLib": "0xf5ec03f5ED101F71712633F4DfD35D581C4dee9C"
  },
  "devdoc": {
    "kind": "dev",
    "methods": {
      "addController(address)": {
        "details": "Add an address allowed to control this contract"
      },
      "allItems(uint256)": {
        "details": "get the quantized token for this"
      },
      "allItemsLength()": {
        "details": "number of quantized addresses"
      },
      "createItem(string,string,address,address,uint8)": {
        "details": "deploy a new erc20 token using create2"
      },
      "getItem(uint256)": {
        "details": "get the quantized token for this"
      },
      "isController(address)": {
        "details": "Check if this address is a controller"
      },
      "relinquishControl()": {
        "details": "Check if this address is a controller"
      }
    },
    "version": 1
  },
  "userdoc": {
    "kind": "user",
    "methods": {},
    "version": 1
  },
  "storageLayout": {
    "storage": [
      {
        "astId": 10169,
        "contract": "src/factories/ERC20GemTokenFactory.sol:ERC20GemTokenFactory",
        "label": "_controllers",
        "offset": 0,
        "slot": "0",
        "type": "t_mapping(t_address,t_bool)"
      },
      {
        "astId": 10376,
        "contract": "src/factories/ERC20GemTokenFactory.sol:ERC20GemTokenFactory",
        "label": "operator",
        "offset": 0,
        "slot": "1",
        "type": "t_address"
      },
      {
        "astId": 10380,
        "contract": "src/factories/ERC20GemTokenFactory.sol:ERC20GemTokenFactory",
        "label": "_getItem",
        "offset": 0,
        "slot": "2",
        "type": "t_mapping(t_uint256,t_address)"
      },
      {
        "astId": 10383,
        "contract": "src/factories/ERC20GemTokenFactory.sol:ERC20GemTokenFactory",
        "label": "_allItems",
        "offset": 0,
        "slot": "3",
        "type": "t_array(t_address)dyn_storage"
      }
    ],
    "types": {
      "t_address": {
        "encoding": "inplace",
        "label": "address",
        "numberOfBytes": "20"
      },
      "t_array(t_address)dyn_storage": {
        "base": "t_address",
        "encoding": "dynamic_array",
        "label": "address[]",
        "numberOfBytes": "32"
      },
      "t_bool": {
        "encoding": "inplace",
        "label": "bool",
        "numberOfBytes": "1"
      },
      "t_mapping(t_address,t_bool)": {
        "encoding": "mapping",
        "key": "t_address",
        "label": "mapping(address => bool)",
        "numberOfBytes": "32",
        "value": "t_bool"
      },
      "t_mapping(t_uint256,t_address)": {
        "encoding": "mapping",
        "key": "t_uint256",
        "label": "mapping(uint256 => address)",
        "numberOfBytes": "32",
        "value": "t_address"
      },
      "t_uint256": {
        "encoding": "inplace",
        "label": "uint256",
        "numberOfBytes": "32"
      }
    }
  }
}