{
  "address": "0xaeb86F3860AD5B29aE141c56709835130ecbE0D9",
  "abi": [
    {
      "inputs": [
        {
          "internalType": "address",
          "name": "factory",
          "type": "address"
        },
        {
          "internalType": "address",
          "name": "submitter",
          "type": "address"
        },
        {
          "internalType": "string",
          "name": "title",
          "type": "string"
        }
      ],
      "name": "addressOfProposal",
      "outputs": [
        {
          "internalType": "address",
          "name": "govAddress",
          "type": "address"
        }
      ],
      "stateMutability": "pure",
      "type": "function"
    }
  ],
  "transactionHash": "0xbdf536b36d7400c258c25b16264f3572f9c80957b87a3cf354c8661a66b3b5ff",
  "args": [],
  "solcInputHash": "b06c540bf558ebe1763f6f5fe903171f",
  "bytecode": "0x610daf61003a600b82828239805160001a60731461002d57634e487b7160e01b600052600060045260246000fd5b30600052607381538281f3fe73000000000000000000000000000000000000000030146080604052600436106100715760003560e01c80638851debd1161005a5780638851debd146100ce578063ba03c4f7146100ee578063d80aea151461010157610071565b80631500cfba1461007657806385efa54c146100ac575b600080fd5b81801561008257600080fd5b50610096610091366004610915565b610121565b6040516100a39190610b89565b60405180910390f35b8180156100b857600080fd5b506100cc6100c73660046109ce565b6101d7565b005b8180156100da57600080fd5b506100cc6100e93660046109ce565b61040b565b6100966100fc3660046108b5565b610639565b81801561010d57600080fd5b5061009661011c36600461087d565b610696565b6040517f4ff8f07e0000000000000000000000000000000000000000000000000000000081526000906001600160a01b038b1690634ff8f07e90610177908c908c908c908c908c908c908c908c90600401610bee565b602060405180830381600087803b15801561019157600080fd5b505af11580156101a5573d6000803e3d6000fd5b505050506040513d601f19601f820116820180604052508101906101c9919061085a565b9a9950505050505050505050565b60005b6040517ff68ee90e0000000000000000000000000000000000000000000000000000000081526001600160a01b0384169063f68ee90e9061022090600090600401610bd7565b60206040518083038186803b15801561023857600080fd5b505afa15801561024c573d6000803e3d6000fd5b505050506040513d601f19601f820116820180604052508101906102709190610a9f565b811015610406576040517f740ec99e0000000000000000000000000000000000000000000000000000000081526000906001600160a01b0385169063740ec99e906102c19084908690600401610be0565b60206040518083038186803b1580156102d957600080fd5b505afa1580156102ed573d6000803e3d6000fd5b505050506040513d601f19601f82011682018060405250810190610311919061085a565b9050836001600160a01b031663156e29f68285876001600160a01b031662fdd58e8660006040518363ffffffff1660e01b8152600401610352929190610b9d565b60206040518083038186803b15801561036a57600080fd5b505afa15801561037e573d6000803e3d6000fd5b505050506040513d601f19601f820116820180604052508101906103a29190610a9f565b6040518463ffffffff1660e01b81526004016103c093929190610bb6565b600060405180830381600087803b1580156103da57600080fd5b505af11580156103ee573d6000803e3d6000fd5b505050505080806103fe90610cd4565b9150506101da565b505050565b60005b6040517ff68ee90e0000000000000000000000000000000000000000000000000000000081526001600160a01b0384169063f68ee90e9061045490600090600401610bd7565b60206040518083038186803b15801561046c57600080fd5b505afa158015610480573d6000803e3d6000fd5b505050506040513d601f19601f820116820180604052508101906104a49190610a9f565b811015610406576040517f740ec99e0000000000000000000000000000000000000000000000000000000081526000906001600160a01b0385169063740ec99e906104f59084908690600401610be0565b60206040518083038186803b15801561050d57600080fd5b505afa158015610521573d6000803e3d6000fd5b505050506040513d601f19601f82011682018060405250810190610545919061085a565b9050836001600160a01b031663f5298aca8285876001600160a01b031662fdd58e86896040518363ffffffff1660e01b8152600401610585929190610b9d565b60206040518083038186803b15801561059d57600080fd5b505afa1580156105b1573d6000803e3d6000fd5b505050506040513d601f19601f820116820180604052508101906105d59190610a9f565b6040518463ffffffff1660e01b81526004016105f393929190610bb6565b600060405180830381600087803b15801561060d57600080fd5b505af1158015610621573d6000803e3d6000fd5b5050505050808061063190610cd4565b91505061040e565b600083838360405160200161064f929190610ae3565b60405160208183030381529060405280519060200120604051602001610676929190610b1b565b60408051601f198184030181529190528051602090910120949350505050565b600080826001600160a01b0316634258292f6040518163ffffffff1660e01b815260040160206040518083038186803b1580156106d257600080fd5b505afa1580156106e6573d6000803e3d6000fd5b505050506040513d601f19601f8201168201806040525081019061070a919061085a565b9050600080600080600080600080886001600160a01b03166373d4a13a6040518163ffffffff1660e01b815260040160006040518083038186803b15801561075157600080fd5b505afa158015610765573d6000803e3d6000fd5b505050506040513d6000823e601f3d908101601f1916820160405261078d91908101906109f9565b975097509750975097509750975097506107ae8c8989898989898989610121565b9c9b505050505050505050505050565b600082601f8301126107ce578081fd5b81356107e16107dc82610c7c565b610c52565b8181528460208386010111156107f5578283fd5b816020850160208301379081016020019190915292915050565b600082601f83011261081f578081fd5b815161082d6107dc82610c7c565b818152846020838601011115610841578283fd5b610852826020830160208701610ca4565b949350505050565b60006020828403121561086b578081fd5b815161087681610d61565b9392505050565b6000806040838503121561088f578081fd5b823561089a81610d61565b915060208301356108aa81610d61565b809150509250929050565b6000806000606084860312156108c9578081fd5b83356108d481610d61565b925060208401356108e481610d61565b9150604084013567ffffffffffffffff8111156108ff578182fd5b61090b868287016107be565b9150509250925092565b60008060008060008060008060006101208a8c031215610933578485fd5b893561093e81610d61565b985060208a013567ffffffffffffffff8082111561095a578687fd5b6109668d838e016107be565b995060408c013591508082111561097b578687fd5b506109888c828d016107be565b97505060608a0135955060808a0135945060a08a0135935060c08a0135925060e08a013591506101008a01356109bd81610d61565b809150509295985092959850929598565b600080604083850312156109e0578182fd5b82356109eb81610d61565b946020939093013593505050565b600080600080600080600080610100898b031215610a15578384fd5b885167ffffffffffffffff80821115610a2c578586fd5b610a388c838d0161080f565b995060208b0151915080821115610a4d578586fd5b50610a5a8b828c0161080f565b97505060408901519550606089015194506080890151935060a0890151925060c0890151915060e0890151610a8e81610d61565b809150509295985092959890939650565b600060208284031215610ab0578081fd5b5051919050565b60008151808452610acf816020860160208601610ca4565b601f01601f19169290920160200192915050565b60006bffffffffffffffffffffffff198460601b1682528251610b0d816014850160208701610ca4565b919091016014019392505050565b7fff00000000000000000000000000000000000000000000000000000000000000815260609290921b6bffffffffffffffffffffffff1916600183015260158201527f74f827a6bb3b7ed4cd86bd3c09b189a9496bc40d83635649e1e4df1c4e836ebf603582015260550190565b6001600160a01b0391909116815260200190565b6001600160a01b03929092168252602082015260400190565b6001600160a01b039390931683526020830191909152604082015260600190565b90815260200190565b918252602082015260400190565b6000610100808352610c028184018c610ab7565b90508281036020840152610c16818b610ab7565b604084019990995250506060810195909552608085019390935260a084019190915260c08301526001600160a01b031660e09091015292915050565b60405181810167ffffffffffffffff81118282101715610c7457610c74610d32565b604052919050565b600067ffffffffffffffff821115610c9657610c96610d32565b50601f01601f191660200190565b60005b83811015610cbf578181015183820152602001610ca7565b83811115610cce576000848401525b50505050565b60007fffffffffffffffffffffffffffffffffffffffffffffffffffffffffffffffff821415610d2b577f4e487b710000000000000000000000000000000000000000000000000000000081526011600452602481fd5b5060010190565b7f4e487b7100000000000000000000000000000000000000000000000000000000600052604160045260246000fd5b6001600160a01b0381168114610d7657600080fd5b5056fea2646970667358221220350bbc2f98feab742e6d3f3a49ef3555214b5742d965f4a4627638c59c5717b264736f6c63430008000033",
  "devdoc": {
    "kind": "dev",
    "methods": {
      "createPool(address,string,string,uint256,uint256,uint256,uint256,uint256,address)": {
        "details": "create a new pool"
      },
      "createProposalVoteTokens(address,uint256)": {
        "details": "create vote tokens to vote on given proposal"
      },
      "destroyProposalVoteTokens(address,uint256)": {
        "details": "destroy the vote tokens for the given proposal"
      },
      "execute(address,address)": {
        "details": "execute craete pool proposal"
      }
    },
    "version": 1
  },
  "userdoc": {
    "kind": "user",
    "methods": {},
    "version": 1
  },
  "storageLayout": {
    "storage": [],
    "types": null
  }
}