{
  "address": "0x7Afa6bC2f4CC206C6804E3ED065d71915deF4129",
  "abi": [
    {
      "inputs": [
        {
          "internalType": "address",
          "name": "factory",
          "type": "address"
        },
        {
          "internalType": "address",
          "name": "submitter",
          "type": "address"
        },
        {
          "internalType": "string",
          "name": "title",
          "type": "string"
        }
      ],
      "name": "addressOfPropoal",
      "outputs": [
        {
          "internalType": "address",
          "name": "govAddress",
          "type": "address"
        }
      ],
      "stateMutability": "pure",
      "type": "function"
    }
  ],
  "transactionHash": "0x3f46fa21c854ff6be0dc6512b4442696c510836b940b1a2522886e0275c74e85",
  "args": [],
  "solcInputHash": "f671a5b1a452e7ee0581a3db7b931a19",
  "bytecode": "0x610d32610026600b82828239805160001a60731461001957fe5b30600052607381538281f3fe73000000000000000000000000000000000000000030146080604052600436106100715760003560e01c806385efa54c1161005a57806385efa54c146102c25780638851debd146102fd578063d80aea151461033657610071565b80631500cfba1461007657806326740ac014610203575b600080fd5b81801561008257600080fd5b506101e7600480360361012081101561009a57600080fd5b6001600160a01b0382351691908101906040810160208201356401000000008111156100c557600080fd5b8201836020820111156100d757600080fd5b803590602001918460018302840111640100000000831117156100f957600080fd5b91908080601f016020809104026020016040519081016040528093929190818152602001838380828437600092019190915250929594936020810193503591505064010000000081111561014c57600080fd5b82018360208201111561015e57600080fd5b8035906020019184600183028401116401000000008311171561018057600080fd5b91908080601f0160208091040260200160405190810160405280939291908181526020018383808284376000920191909152509295505082359350505060208101359060408101359060608101359060808101359060a001356001600160a01b0316610371565b604080516001600160a01b039092168252519081900360200190f35b6101e76004803603606081101561021957600080fd5b6001600160a01b03823581169260208101359091169181019060608101604082013564010000000081111561024d57600080fd5b82018360208201111561025f57600080fd5b8035906020019184600183028401116401000000008311171561028157600080fd5b91908080601f0160208091040260200160405190810160405280939291908181526020018383808284376000920191909152509295506104f5945050505050565b8180156102ce57600080fd5b506102fb600480360360408110156102e557600080fd5b506001600160a01b03813516906020013561060f565b005b81801561030957600080fd5b506102fb6004803603604081101561032057600080fd5b506001600160a01b038135169060200135610824565b81801561034257600080fd5b506101e76004803603604081101561035957600080fd5b506001600160a01b0381358116916020013516610a34565b6000896001600160a01b0316634ff8f07e8a8a8a8a8a8a8a8a6040518963ffffffff1660e01b8152600401808060200180602001898152602001888152602001878152602001868152602001858152602001846001600160a01b0316815260200183810383528b818151815260200191508051906020019080838360005b838110156104075781810151838201526020016103ef565b50505050905090810190601f1680156104345780820380516001836020036101000a031916815260200191505b5083810382528a5181528a516020918201918c019080838360005b8381101561046757818101518382015260200161044f565b50505050905090810190601f1680156104945780820380516001836020036101000a031916815260200191505b509a5050505050505050505050602060405180830381600087803b1580156104bb57600080fd5b505af11580156104cf573d6000803e3d6000fd5b505050506040513d60208110156104e557600080fd5b50519a9950505050505050505050565b600083838360405160200180836001600160a01b031660601b815260140182805190602001908083835b6020831061053e5780518252601f19909201916020918201910161051f565b6001836020036101000a038019825116818451168082178552505050505050905001925050506040516020818303038152906040528051906020012060405160200180807fff00000000000000000000000000000000000000000000000000000000000000815250600101836001600160a01b031660601b8152601401828152602001807f74f827a6bb3b7ed4cd86bd3c09b189a9496bc40d83635649e1e4df1c4e836ebf815250602001925050506040516020818303038152906040528051906020012060001c90509392505050565b60005b826001600160a01b031663f68ee90e60006040518263ffffffff1660e01b81526004018082815260200191505060206040518083038186803b15801561065757600080fd5b505afa15801561066b573d6000803e3d6000fd5b505050506040513d602081101561068157600080fd5b505181101561081f576000836001600160a01b031663740ec99e6000846040518363ffffffff1660e01b8152600401808381526020018281526020019250505060206040518083038186803b1580156106d957600080fd5b505afa1580156106ed573d6000803e3d6000fd5b505050506040513d602081101561070357600080fd5b505160408051627eeac760e11b81526001600160a01b0380841660048301526000602483015291519293509086169163156e29f69184918791859162fdd58e91604480820192602092909190829003018186803b15801561076357600080fd5b505afa158015610777573d6000803e3d6000fd5b505050506040513d602081101561078d57600080fd5b5051604080517fffffffff0000000000000000000000000000000000000000000000000000000060e087901b1681526001600160a01b0390941660048501526024840192909252604483015251606480830192600092919082900301818387803b1580156107fa57600080fd5b505af115801561080e573d6000803e3d6000fd5b505060019093019250610612915050565b505050565b60005b826001600160a01b031663f68ee90e60006040518263ffffffff1660e01b81526004018082815260200191505060206040518083038186803b15801561086c57600080fd5b505afa158015610880573d6000803e3d6000fd5b505050506040513d602081101561089657600080fd5b505181101561081f576000836001600160a01b031663740ec99e6000846040518363ffffffff1660e01b8152600401808381526020018281526020019250505060206040518083038186803b1580156108ee57600080fd5b505afa158015610902573d6000803e3d6000fd5b505050506040513d602081101561091857600080fd5b505160408051627eeac760e11b81526001600160a01b0380841660048301526024820187905291519293509086169163f5298aca9184918791859162fdd58e91604480820192602092909190829003018186803b15801561097857600080fd5b505afa15801561098c573d6000803e3d6000fd5b505050506040513d60208110156109a257600080fd5b5051604080517fffffffff0000000000000000000000000000000000000000000000000000000060e087901b1681526001600160a01b0390941660048501526024840192909252604483015251606480830192600092919082900301818387803b158015610a0f57600080fd5b505af1158015610a23573d6000803e3d6000fd5b505060019093019250610827915050565b600080826001600160a01b0316634258292f6040518163ffffffff1660e01b815260040160206040518083038186803b158015610a7057600080fd5b505afa158015610a84573d6000803e3d6000fd5b505050506040513d6020811015610a9a57600080fd5b81019080805190602001909291905050509050606080600080600080600080886001600160a01b03166373d4a13a6040518163ffffffff1660e01b815260040160006040518083038186803b158015610af257600080fd5b505afa158015610b06573d6000803e3d6000fd5b505050506040513d6000823e601f3d908101601f19168201604052610100811015610b3057600080fd5b8101908080516040519392919084640100000000821115610b5057600080fd5b908301906020820185811115610b6557600080fd5b8251640100000000811182820188101715610b7f57600080fd5b82525081516020918201929091019080838360005b83811015610bac578181015183820152602001610b94565b50505050905090810190601f168015610bd95780820380516001836020036101000a031916815260200191505b5060405260200180516040519392919084640100000000821115610bfc57600080fd5b908301906020820185811115610c1157600080fd5b8251640100000000811182820188101715610c2b57600080fd5b82525081516020918201929091019080838360005b83811015610c58578181015183820152602001610c40565b50505050905090810190601f168015610c855780820380516001836020036101000a031916815260200191505b5060405260200180519060200190929190805190602001909291908051906020019092919080519060200190929190805190602001909291908051906020019092919050505097509750975097509750975097509750610cec8c8989898989898989610371565b9c9b50505050505050505050505056fea26469706673582212209b903fa2a2a09bfa81432dd1c5aca05fb35099046e1a8da2df060701deed257a64736f6c63430007030033",
  "devdoc": {
    "kind": "dev",
    "methods": {
      "createPool(address,string,string,uint256,uint256,uint256,uint256,uint256,address)": {
        "details": "create a new pool"
      },
      "createProposalVoteTokens(address,uint256)": {
        "details": "create vote tokens to vote on given proposal"
      },
      "destroyProposalVoteTokens(address,uint256)": {
        "details": "destroy the vote tokens for the given proposal"
      },
      "execute(address,address)": {
        "details": "execute craete pool proposal"
      }
    },
    "version": 1
  },
  "userdoc": {
    "kind": "user",
    "methods": {},
    "version": 1
  },
  "storageLayout": {
    "storage": [],
    "types": null
  }
}