{
  "address": "0xE1E235bb28211D28bDE3e99CaC34FB1263742BEc",
  "abi": [
    {
      "inputs": [],
      "stateMutability": "nonpayable",
      "type": "constructor"
    },
    {
      "anonymous": false,
      "inputs": [
        {
          "indexed": true,
          "internalType": "address",
          "name": "contractAddress",
          "type": "address"
        },
        {
          "indexed": true,
          "internalType": "address",
          "name": "controllerAddress",
          "type": "address"
        }
      ],
      "name": "ControllerAdded",
      "type": "event"
    },
    {
      "anonymous": false,
      "inputs": [
        {
          "indexed": true,
          "internalType": "address",
          "name": "contractAddress",
          "type": "address"
        },
        {
          "indexed": true,
          "internalType": "address",
          "name": "controllerAddress",
          "type": "address"
        }
      ],
      "name": "ControllerRemoved",
      "type": "event"
    },
    {
      "inputs": [
        {
          "internalType": "address",
          "name": "_controller",
          "type": "address"
        }
      ],
      "name": "addController",
      "outputs": [],
      "stateMutability": "nonpayable",
      "type": "function"
    },
    {
      "inputs": [
        {
          "internalType": "uint256",
          "name": "lootbox",
          "type": "uint256"
        },
        {
          "components": [
            {
              "internalType": "uint256",
              "name": "lootHash",
              "type": "uint256"
            },
            {
              "internalType": "address",
              "name": "owner",
              "type": "address"
            },
            {
              "internalType": "address",
              "name": "multitoken",
              "type": "address"
            },
            {
              "internalType": "string",
              "name": "symbol",
              "type": "string"
            },
            {
              "internalType": "string",
              "name": "name",
              "type": "string"
            },
            {
              "internalType": "uint256",
              "name": "probability",
              "type": "uint256"
            },
            {
              "internalType": "uint256",
              "name": "probabilityIndex",
              "type": "uint256"
            },
            {
              "internalType": "uint256",
              "name": "probabilityRoll",
              "type": "uint256"
            },
            {
              "internalType": "uint256",
              "name": "maxMint",
              "type": "uint256"
            },
            {
              "internalType": "uint256",
              "name": "minted",
              "type": "uint256"
            }
          ],
          "internalType": "struct ILootbox.Loot",
          "name": "lootboxData",
          "type": "tuple"
        }
      ],
      "name": "addLoot",
      "outputs": [
        {
          "internalType": "uint256",
          "name": "",
          "type": "uint256"
        }
      ],
      "stateMutability": "nonpayable",
      "type": "function"
    },
    {
      "inputs": [
        {
          "components": [
            {
              "internalType": "address",
              "name": "owner",
              "type": "address"
            },
            {
              "internalType": "address",
              "name": "contractAddress",
              "type": "address"
            },
            {
              "internalType": "address",
              "name": "randomFarmer",
              "type": "address"
            },
            {
              "internalType": "address",
              "name": "multitoken",
              "type": "address"
            },
            {
              "internalType": "uint256",
              "name": "lootboxHash",
              "type": "uint256"
            },
            {
              "internalType": "string",
              "name": "symbol",
              "type": "string"
            },
            {
              "internalType": "string",
              "name": "name",
              "type": "string"
            },
            {
              "internalType": "string",
              "name": "description",
              "type": "string"
            },
            {
              "internalType": "uint8",
              "name": "minLootPerOpen",
              "type": "uint8"
            },
            {
              "internalType": "uint8",
              "name": "maxLootPerOpen",
              "type": "uint8"
            },
            {
              "internalType": "uint256",
              "name": "openPrice",
              "type": "uint256"
            },
            {
              "internalType": "uint256",
              "name": "maxOpens",
              "type": "uint256"
            },
            {
              "internalType": "uint256",
              "name": "openCount",
              "type": "uint256"
            },
            {
              "internalType": "uint256",
              "name": "totalLootGenerated",
              "type": "uint256"
            },
            {
              "internalType": "uint256",
              "name": "lootboxTokenSalePrice",
              "type": "uint256"
            },
            {
              "internalType": "uint256",
              "name": "probabilitiesSum",
              "type": "uint256"
            },
            {
              "internalType": "bool",
              "name": "initialized",
              "type": "bool"
            }
          ],
          "internalType": "struct ILootbox.Lootbox",
          "name": "_lootbox",
          "type": "tuple"
        }
      ],
      "name": "addLootbox",
      "outputs": [
        {
          "internalType": "uint256",
          "name": "lootbox",
          "type": "uint256"
        }
      ],
      "stateMutability": "nonpayable",
      "type": "function"
    },
    {
      "inputs": [
        {
          "internalType": "uint256",
          "name": "lootbox",
          "type": "uint256"
        }
      ],
      "name": "allLoot",
      "outputs": [
        {
          "components": [
            {
              "internalType": "uint256",
              "name": "lootHash",
              "type": "uint256"
            },
            {
              "internalType": "address",
              "name": "owner",
              "type": "address"
            },
            {
              "internalType": "address",
              "name": "multitoken",
              "type": "address"
            },
            {
              "internalType": "string",
              "name": "symbol",
              "type": "string"
            },
            {
              "internalType": "string",
              "name": "name",
              "type": "string"
            },
            {
              "internalType": "uint256",
              "name": "probability",
              "type": "uint256"
            },
            {
              "internalType": "uint256",
              "name": "probabilityIndex",
              "type": "uint256"
            },
            {
              "internalType": "uint256",
              "name": "probabilityRoll",
              "type": "uint256"
            },
            {
              "internalType": "uint256",
              "name": "maxMint",
              "type": "uint256"
            },
            {
              "internalType": "uint256",
              "name": "minted",
              "type": "uint256"
            }
          ],
          "internalType": "struct ILootbox.Loot[]",
          "name": "",
          "type": "tuple[]"
        }
      ],
      "stateMutability": "view",
      "type": "function"
    },
    {
      "inputs": [
        {
          "internalType": "uint256",
          "name": "index",
          "type": "uint256"
        }
      ],
      "name": "allLootboxes",
      "outputs": [
        {
          "components": [
            {
              "internalType": "address",
              "name": "owner",
              "type": "address"
            },
            {
              "internalType": "address",
              "name": "contractAddress",
              "type": "address"
            },
            {
              "internalType": "address",
              "name": "randomFarmer",
              "type": "address"
            },
            {
              "internalType": "address",
              "name": "multitoken",
              "type": "address"
            },
            {
              "internalType": "uint256",
              "name": "lootboxHash",
              "type": "uint256"
            },
            {
              "internalType": "string",
              "name": "symbol",
              "type": "string"
            },
            {
              "internalType": "string",
              "name": "name",
              "type": "string"
            },
            {
              "internalType": "string",
              "name": "description",
              "type": "string"
            },
            {
              "internalType": "uint8",
              "name": "minLootPerOpen",
              "type": "uint8"
            },
            {
              "internalType": "uint8",
              "name": "maxLootPerOpen",
              "type": "uint8"
            },
            {
              "internalType": "uint256",
              "name": "openPrice",
              "type": "uint256"
            },
            {
              "internalType": "uint256",
              "name": "maxOpens",
              "type": "uint256"
            },
            {
              "internalType": "uint256",
              "name": "openCount",
              "type": "uint256"
            },
            {
              "internalType": "uint256",
              "name": "totalLootGenerated",
              "type": "uint256"
            },
            {
              "internalType": "uint256",
              "name": "lootboxTokenSalePrice",
              "type": "uint256"
            },
            {
              "internalType": "uint256",
              "name": "probabilitiesSum",
              "type": "uint256"
            },
            {
              "internalType": "bool",
              "name": "initialized",
              "type": "bool"
            }
          ],
          "internalType": "struct ILootbox.Lootbox",
          "name": "",
          "type": "tuple"
        }
      ],
      "stateMutability": "view",
      "type": "function"
    },
    {
      "inputs": [],
      "name": "allLootboxesLength",
      "outputs": [
        {
          "internalType": "uint256",
          "name": "",
          "type": "uint256"
        }
      ],
      "stateMutability": "view",
      "type": "function"
    },
    {
      "inputs": [
        {
          "internalType": "uint256",
          "name": "lootbox",
          "type": "uint256"
        },
        {
          "internalType": "uint256",
          "name": "index",
          "type": "uint256"
        }
      ],
      "name": "delLoot",
      "outputs": [
        {
          "components": [
            {
              "internalType": "uint256",
              "name": "lootHash",
              "type": "uint256"
            },
            {
              "internalType": "address",
              "name": "owner",
              "type": "address"
            },
            {
              "internalType": "address",
              "name": "multitoken",
              "type": "address"
            },
            {
              "internalType": "string",
              "name": "symbol",
              "type": "string"
            },
            {
              "internalType": "string",
              "name": "name",
              "type": "string"
            },
            {
              "internalType": "uint256",
              "name": "probability",
              "type": "uint256"
            },
            {
              "internalType": "uint256",
              "name": "probabilityIndex",
              "type": "uint256"
            },
            {
              "internalType": "uint256",
              "name": "probabilityRoll",
              "type": "uint256"
            },
            {
              "internalType": "uint256",
              "name": "maxMint",
              "type": "uint256"
            },
            {
              "internalType": "uint256",
              "name": "minted",
              "type": "uint256"
            }
          ],
          "internalType": "struct ILootbox.Loot",
          "name": "lootboxData",
          "type": "tuple"
        }
      ],
      "stateMutability": "nonpayable",
      "type": "function"
    },
    {
      "inputs": [
        {
          "internalType": "string",
          "name": "key",
          "type": "string"
        }
      ],
      "name": "getAddr",
      "outputs": [
        {
          "internalType": "address",
          "name": "",
          "type": "address"
        }
      ],
      "stateMutability": "view",
      "type": "function"
    },
    {
      "inputs": [
        {
          "internalType": "string",
          "name": "key",
          "type": "string"
        }
      ],
      "name": "getBool",
      "outputs": [
        {
          "internalType": "bool",
          "name": "_data",
          "type": "bool"
        }
      ],
      "stateMutability": "view",
      "type": "function"
    },
    {
      "inputs": [
        {
          "internalType": "string",
          "name": "key",
          "type": "string"
        }
      ],
      "name": "getBytes",
      "outputs": [
        {
          "internalType": "bytes",
          "name": "",
          "type": "bytes"
        }
      ],
      "stateMutability": "view",
      "type": "function"
    },
    {
      "inputs": [
        {
          "internalType": "string",
          "name": "key",
          "type": "string"
        }
      ],
      "name": "getInt",
      "outputs": [
        {
          "internalType": "uint256",
          "name": "_data",
          "type": "uint256"
        }
      ],
      "stateMutability": "view",
      "type": "function"
    },
    {
      "inputs": [
        {
          "internalType": "uint256",
          "name": "lootbox",
          "type": "uint256"
        },
        {
          "internalType": "uint256",
          "name": "index",
          "type": "uint256"
        }
      ],
      "name": "getLoot",
      "outputs": [
        {
          "components": [
            {
              "internalType": "uint256",
              "name": "lootHash",
              "type": "uint256"
            },
            {
              "internalType": "address",
              "name": "owner",
              "type": "address"
            },
            {
              "internalType": "address",
              "name": "multitoken",
              "type": "address"
            },
            {
              "internalType": "string",
              "name": "symbol",
              "type": "string"
            },
            {
              "internalType": "string",
              "name": "name",
              "type": "string"
            },
            {
              "internalType": "uint256",
              "name": "probability",
              "type": "uint256"
            },
            {
              "internalType": "uint256",
              "name": "probabilityIndex",
              "type": "uint256"
            },
            {
              "internalType": "uint256",
              "name": "probabilityRoll",
              "type": "uint256"
            },
            {
              "internalType": "uint256",
              "name": "maxMint",
              "type": "uint256"
            },
            {
              "internalType": "uint256",
              "name": "minted",
              "type": "uint256"
            }
          ],
          "internalType": "struct ILootbox.Loot",
          "name": "",
          "type": "tuple"
        }
      ],
      "stateMutability": "view",
      "type": "function"
    },
    {
      "inputs": [
        {
          "internalType": "uint256",
          "name": "lootbox",
          "type": "uint256"
        }
      ],
      "name": "getLootboxByHash",
      "outputs": [
        {
          "components": [
            {
              "internalType": "address",
              "name": "owner",
              "type": "address"
            },
            {
              "internalType": "address",
              "name": "contractAddress",
              "type": "address"
            },
            {
              "internalType": "address",
              "name": "randomFarmer",
              "type": "address"
            },
            {
              "internalType": "address",
              "name": "multitoken",
              "type": "address"
            },
            {
              "internalType": "uint256",
              "name": "lootboxHash",
              "type": "uint256"
            },
            {
              "internalType": "string",
              "name": "symbol",
              "type": "string"
            },
            {
              "internalType": "string",
              "name": "name",
              "type": "string"
            },
            {
              "internalType": "string",
              "name": "description",
              "type": "string"
            },
            {
              "internalType": "uint8",
              "name": "minLootPerOpen",
              "type": "uint8"
            },
            {
              "internalType": "uint8",
              "name": "maxLootPerOpen",
              "type": "uint8"
            },
            {
              "internalType": "uint256",
              "name": "openPrice",
              "type": "uint256"
            },
            {
              "internalType": "uint256",
              "name": "maxOpens",
              "type": "uint256"
            },
            {
              "internalType": "uint256",
              "name": "openCount",
              "type": "uint256"
            },
            {
              "internalType": "uint256",
              "name": "totalLootGenerated",
              "type": "uint256"
            },
            {
              "internalType": "uint256",
              "name": "lootboxTokenSalePrice",
              "type": "uint256"
            },
            {
              "internalType": "uint256",
              "name": "probabilitiesSum",
              "type": "uint256"
            },
            {
              "internalType": "bool",
              "name": "initialized",
              "type": "bool"
            }
          ],
          "internalType": "struct ILootbox.Lootbox",
          "name": "",
          "type": "tuple"
        }
      ],
      "stateMutability": "view",
      "type": "function"
    },
    {
      "inputs": [
        {
          "internalType": "uint256",
          "name": "lootbox",
          "type": "uint256"
        }
      ],
      "name": "getLootboxBySymbol",
      "outputs": [
        {
          "components": [
            {
              "internalType": "address",
              "name": "owner",
              "type": "address"
            },
            {
              "internalType": "address",
              "name": "contractAddress",
              "type": "address"
            },
            {
              "internalType": "address",
              "name": "randomFarmer",
              "type": "address"
            },
            {
              "internalType": "address",
              "name": "multitoken",
              "type": "address"
            },
            {
              "internalType": "uint256",
              "name": "lootboxHash",
              "type": "uint256"
            },
            {
              "internalType": "string",
              "name": "symbol",
              "type": "string"
            },
            {
              "internalType": "string",
              "name": "name",
              "type": "string"
            },
            {
              "internalType": "string",
              "name": "description",
              "type": "string"
            },
            {
              "internalType": "uint8",
              "name": "minLootPerOpen",
              "type": "uint8"
            },
            {
              "internalType": "uint8",
              "name": "maxLootPerOpen",
              "type": "uint8"
            },
            {
              "internalType": "uint256",
              "name": "openPrice",
              "type": "uint256"
            },
            {
              "internalType": "uint256",
              "name": "maxOpens",
              "type": "uint256"
            },
            {
              "internalType": "uint256",
              "name": "openCount",
              "type": "uint256"
            },
            {
              "internalType": "uint256",
              "name": "totalLootGenerated",
              "type": "uint256"
            },
            {
              "internalType": "uint256",
              "name": "lootboxTokenSalePrice",
              "type": "uint256"
            },
            {
              "internalType": "uint256",
              "name": "probabilitiesSum",
              "type": "uint256"
            },
            {
              "internalType": "bool",
              "name": "initialized",
              "type": "bool"
            }
          ],
          "internalType": "struct ILootbox.Lootbox",
          "name": "",
          "type": "tuple"
        }
      ],
      "stateMutability": "view",
      "type": "function"
    },
    {
      "inputs": [
        {
          "internalType": "string",
          "name": "key",
          "type": "string"
        }
      ],
      "name": "getStr",
      "outputs": [
        {
          "internalType": "string",
          "name": "",
          "type": "string"
        }
      ],
      "stateMutability": "view",
      "type": "function"
    },
    {
      "inputs": [
        {
          "internalType": "address",
          "name": "_address",
          "type": "address"
        }
      ],
      "name": "isController",
      "outputs": [
        {
          "internalType": "bool",
          "name": "allowed",
          "type": "bool"
        }
      ],
      "stateMutability": "view",
      "type": "function"
    },
    {
      "inputs": [],
      "name": "lootboxes",
      "outputs": [
        {
          "components": [
            {
              "internalType": "address",
              "name": "owner",
              "type": "address"
            },
            {
              "internalType": "address",
              "name": "contractAddress",
              "type": "address"
            },
            {
              "internalType": "address",
              "name": "randomFarmer",
              "type": "address"
            },
            {
              "internalType": "address",
              "name": "multitoken",
              "type": "address"
            },
            {
              "internalType": "uint256",
              "name": "lootboxHash",
              "type": "uint256"
            },
            {
              "internalType": "string",
              "name": "symbol",
              "type": "string"
            },
            {
              "internalType": "string",
              "name": "name",
              "type": "string"
            },
            {
              "internalType": "string",
              "name": "description",
              "type": "string"
            },
            {
              "internalType": "uint8",
              "name": "minLootPerOpen",
              "type": "uint8"
            },
            {
              "internalType": "uint8",
              "name": "maxLootPerOpen",
              "type": "uint8"
            },
            {
              "internalType": "uint256",
              "name": "openPrice",
              "type": "uint256"
            },
            {
              "internalType": "uint256",
              "name": "maxOpens",
              "type": "uint256"
            },
            {
              "internalType": "uint256",
              "name": "openCount",
              "type": "uint256"
            },
            {
              "internalType": "uint256",
              "name": "totalLootGenerated",
              "type": "uint256"
            },
            {
              "internalType": "uint256",
              "name": "lootboxTokenSalePrice",
              "type": "uint256"
            },
            {
              "internalType": "uint256",
              "name": "probabilitiesSum",
              "type": "uint256"
            },
            {
              "internalType": "bool",
              "name": "initialized",
              "type": "bool"
            }
          ],
          "internalType": "struct ILootbox.Lootbox[]",
          "name": "",
          "type": "tuple[]"
        }
      ],
      "stateMutability": "view",
      "type": "function"
    },
    {
      "inputs": [],
      "name": "relinquishControl",
      "outputs": [],
      "stateMutability": "nonpayable",
      "type": "function"
    },
    {
      "inputs": [
        {
          "internalType": "string",
          "name": "key",
          "type": "string"
        },
        {
          "internalType": "address",
          "name": "value",
          "type": "address"
        }
      ],
      "name": "setAddr",
      "outputs": [],
      "stateMutability": "nonpayable",
      "type": "function"
    },
    {
      "inputs": [
        {
          "internalType": "string",
          "name": "key",
          "type": "string"
        },
        {
          "internalType": "bool",
          "name": "bval",
          "type": "bool"
        }
      ],
      "name": "setBool",
      "outputs": [],
      "stateMutability": "nonpayable",
      "type": "function"
    },
    {
      "inputs": [
        {
          "internalType": "string",
          "name": "key",
          "type": "string"
        },
        {
          "internalType": "bytes",
          "name": "value",
          "type": "bytes"
        }
      ],
      "name": "setBytes",
      "outputs": [],
      "stateMutability": "nonpayable",
      "type": "function"
    },
    {
      "inputs": [
        {
          "internalType": "string",
          "name": "key",
          "type": "string"
        },
        {
          "internalType": "uint256",
          "name": "value",
          "type": "uint256"
        }
      ],
      "name": "setInt",
      "outputs": [],
      "stateMutability": "nonpayable",
      "type": "function"
    },
    {
      "inputs": [
        {
          "internalType": "uint256",
          "name": "lootbox",
          "type": "uint256"
        },
        {
          "internalType": "uint256",
          "name": "index",
          "type": "uint256"
        },
        {
          "components": [
            {
              "internalType": "uint256",
              "name": "lootHash",
              "type": "uint256"
            },
            {
              "internalType": "address",
              "name": "owner",
              "type": "address"
            },
            {
              "internalType": "address",
              "name": "multitoken",
              "type": "address"
            },
            {
              "internalType": "string",
              "name": "symbol",
              "type": "string"
            },
            {
              "internalType": "string",
              "name": "name",
              "type": "string"
            },
            {
              "internalType": "uint256",
              "name": "probability",
              "type": "uint256"
            },
            {
              "internalType": "uint256",
              "name": "probabilityIndex",
              "type": "uint256"
            },
            {
              "internalType": "uint256",
              "name": "probabilityRoll",
              "type": "uint256"
            },
            {
              "internalType": "uint256",
              "name": "maxMint",
              "type": "uint256"
            },
            {
              "internalType": "uint256",
              "name": "minted",
              "type": "uint256"
            }
          ],
          "internalType": "struct ILootbox.Loot",
          "name": "lootboxData",
          "type": "tuple"
        }
      ],
      "name": "setLoot",
      "outputs": [],
      "stateMutability": "nonpayable",
      "type": "function"
    },
    {
      "inputs": [
        {
          "internalType": "string",
          "name": "key",
          "type": "string"
        },
        {
          "internalType": "string",
          "name": "value",
          "type": "string"
        }
      ],
      "name": "setStr",
      "outputs": [
        {
          "internalType": "string",
          "name": "oldData",
          "type": "string"
        }
      ],
      "stateMutability": "nonpayable",
      "type": "function"
    }
  ],
  "transactionHash": "0xbee5a94586ee92a65afb76826aeea6bb6fec360e9be826a004a17c3471ebe3f5",
  "args": [],
  "solcInputHash": "9948e98aa3a5edeea097918faf4a1516",
  "bytecode": "0x60806040523480156200001157600080fd5b506200001d336200002e565b62000028336200002e565b62000052565b6001600160a01b03166000908152602081905260409020805460ff19166001179055565b612fd780620000626000396000f3fe608060405234801561001057600080fd5b50600436106101985760003560e01c80639b73a6fb116100e3578063bb0492f51161008c578063e1c28bef11610066578063e1c28bef14610389578063e449c52a14610391578063fda69fae146103a457610198565b8063bb0492f514610343578063d502db9714610356578063d8de899d1461037657610198565b8063b429afeb116100bd578063b429afeb1461030a578063b808657f1461031d578063b8b2bdad1461033057610198565b80639b73a6fb146102c4578063a6cc11a6146102e4578063a7fc7a07146102f757610198565b8063516d16b91161014557806368d8641a1161011f57806368d8641a1461027e5780639535ce12146102915780639a929e32146102b157610198565b8063516d16b91461023457806353b8a864146102495780635d6101771461026957610198565b8063213b9eb811610176578063213b9eb8146101ee578063368059611461020157806349107dc61461022157610198565b8063017680521461019d57806308197e14146101c65780630f09b13e146101db575b600080fd5b6101b06101ab366004612a03565b6103b7565b6040516101bd9190612eb7565b60405180910390f35b6101d96101d4366004612a77565b6106b9565b005b6101b06101e9366004612a03565b610824565b6101d96101fc3660046126e1565b6108dc565b61021461020f3660046127e4565b61096b565b6040516101bd9190612dc6565b6101d961022f36600461283b565b610a8e565b61023c610af1565b6040516101bd9190612eca565b61025c610257366004612a56565b610b36565b6040516101bd9190612ea4565b610271610d55565b6040516101bd9190612d68565b6101d961028c366004612770565b611066565b6102a461029f3660046126a6565b6110db565b6040516101bd9190612dbb565b61023c6102bf366004612a1b565b611142565b6102d76102d2366004612a03565b6112a3565b6040516101bd9190612d08565b61025c6102f2366004612a56565b6114d1565b6101d961030536600461268c565b611956565b6102a461031836600461268c565b6119b8565b61023c61032b36600461287e565b6119d6565b6101d961033e36600461272d565b611f06565b6101b0610351366004612a03565b611f79565b6103696103643660046126a6565b612031565b6040516101bd9190612cf4565b6102146103843660046126a6565b61209f565b6101d961218e565b61021461039f3660046126a6565b6121e5565b61023c6103b23660046126a6565b612236565b6103bf61229a565b3360009081526020819052604090205460ff161515600114806103e157503033145b6104065760405162461bcd60e51b81526004016103fd90612dd9565b60405180910390fd5b6006828154811061042757634e487b7160e01b600052603260045260246000fd5b60009182526020918290206040805161022081018252601090930290910180546001600160a01b03908116845260018201548116948401949094526002810154841691830191909152600381015490921660608201526004820154608082015260058201805491929160a08401919061049f90612f50565b80601f01602080910402602001604051908101604052809291908181526020018280546104cb90612f50565b80156105185780601f106104ed57610100808354040283529160200191610518565b820191906000526020600020905b8154815290600101906020018083116104fb57829003601f168201915b5050505050815260200160068201805461053190612f50565b80601f016020809104026020016040519081016040528092919081815260200182805461055d90612f50565b80156105aa5780601f1061057f576101008083540402835291602001916105aa565b820191906000526020600020905b81548152906001019060200180831161058d57829003601f168201915b505050505081526020016007820180546105c390612f50565b80601f01602080910402602001604051908101604052809291908181526020018280546105ef90612f50565b801561063c5780601f106106115761010080835404028352916020019161063c565b820191906000526020600020905b81548152906001019060200180831161061f57829003601f168201915b5050509183525050600882015460ff8082166020840152610100918290048116604084015260098401546060840152600a8401546080840152600b84015460a0840152600c84015460c0840152600d84015460e0840152600e84015491830191909152600f9092015490911615156101209091015290505b919050565b3360009081526020819052604090205460ff161515600114806106db57503033145b6106f75760405162461bcd60e51b81526004016103fd90612dd9565b60008381526009602052604090205482106107245760405162461bcd60e51b81526004016103fd90612e36565b600083815260096020526040902080548291908490811061075557634e487b7160e01b600052603260045260246000fd5b60009182526020918290208351600a90920201908155828201516001820180546001600160a01b0392831673ffffffffffffffffffffffffffffffffffffffff199182161790915560408501516002840180549190931691161790556060830151805191926107cc9260038501929091019061234a565b50608082015180516107e891600484019160209091019061234a565b5060a0820151600582015560c0820151600682015560e08201516007820155610100820151600882015561012090910151600990910155505050565b61082c61229a565b3360009081526020819052604090205460ff1615156001148061084e57503033145b61086a5760405162461bcd60e51b81526004016103fd90612dd9565b60008281526007602090815260409182902082516102208101845281546001600160a01b03908116825260018301548116938201939093526002820154831693810193909352600381015490911660608301526004810154608083015260058101805460a08401919061049f90612f50565b3360009081526020819052604090205460ff161515600114806108fe57503033145b61091a5760405162461bcd60e51b81526004016103fd90612dd9565b8060058360405161092b9190612cd8565b90815260405190819003602001902080546001600160a01b039290921673ffffffffffffffffffffffffffffffffffffffff199092169190911790555050565b3360009081526020819052604090205460609060ff1615156001148061099057503033145b6109ac5760405162461bcd60e51b81526004016103fd90612dd9565b6001836040516109bc9190612cd8565b908152602001604051809103902080546109d590612f50565b80601f0160208091040260200160405190810160405280929190818152602001828054610a0190612f50565b8015610a4e5780601f10610a2357610100808354040283529160200191610a4e565b820191906000526020600020905b815481529060010190602001808311610a3157829003601f168201915b5050505050905081600184604051610a669190612cd8565b90815260200160405180910390209080519060200190610a8792919061234a565b5092915050565b3360009081526020819052604090205460ff16151560011480610ab057503033145b610acc5760405162461bcd60e51b81526004016103fd90612dd9565b80600383604051610add9190612cd8565b908152604051908190036020019020555050565b3360009081526020819052604081205460ff16151560011480610b1357503033145b610b2f5760405162461bcd60e51b81526004016103fd90612dd9565b5060065490565b610b3e6123ce565b3360009081526020819052604090205460ff16151560011480610b6057503033145b610b7c5760405162461bcd60e51b81526004016103fd90612dd9565b6000838152600960205260409020805483908110610baa57634e487b7160e01b600052603260045260246000fd5b60009182526020918290206040805161014081018252600a9093029091018054835260018101546001600160a01b0390811694840194909452600281015490931690820152600382018054919291606084019190610c0790612f50565b80601f0160208091040260200160405190810160405280929190818152602001828054610c3390612f50565b8015610c805780601f10610c5557610100808354040283529160200191610c80565b820191906000526020600020905b815481529060010190602001808311610c6357829003601f168201915b50505050508152602001600482018054610c9990612f50565b80601f0160208091040260200160405190810160405280929190818152602001828054610cc590612f50565b8015610d125780601f10610ce757610100808354040283529160200191610d12565b820191906000526020600020905b815481529060010190602001808311610cf557829003601f168201915b5050505050815260200160058201548152602001600682015481526020016007820154815260200160088201548152602001600982015481525050905092915050565b3360009081526020819052604090205460609060ff16151560011480610d7a57503033145b610d965760405162461bcd60e51b81526004016103fd90612dd9565b6006805480602002602001604051908101604052809291908181526020016000905b8282101561105d57600084815260209081902060408051610220810182526010860290920180546001600160a01b03908116845260018201548116948401949094526002810154841691830191909152600381015490921660608201526004820154608082015260058201805491929160a084019190610e3790612f50565b80601f0160208091040260200160405190810160405280929190818152602001828054610e6390612f50565b8015610eb05780601f10610e8557610100808354040283529160200191610eb0565b820191906000526020600020905b815481529060010190602001808311610e9357829003601f168201915b50505050508152602001600682018054610ec990612f50565b80601f0160208091040260200160405190810160405280929190818152602001828054610ef590612f50565b8015610f425780601f10610f1757610100808354040283529160200191610f42565b820191906000526020600020905b815481529060010190602001808311610f2557829003601f168201915b50505050508152602001600782018054610f5b90612f50565b80601f0160208091040260200160405190810160405280929190818152602001828054610f8790612f50565b8015610fd45780601f10610fa957610100808354040283529160200191610fd4565b820191906000526020600020905b815481529060010190602001808311610fb757829003601f168201915b5050509183525050600882015460ff808216602080850191909152610100928390048216604085015260098501546060850152600a8501546080850152600b85015460a0850152600c85015460c0850152600d85015460e0850152600e85015492840192909252600f909301549092161515610120909101529082526001929092019101610db8565b50505050905090565b3360009081526020819052604090205460ff1615156001148061108857503033145b6110a45760405162461bcd60e51b81526004016103fd90612dd9565b806002836040516110b59190612cd8565b908152602001604051809103902090805190602001906110d692919061234a565b505050565b3360009081526020819052604081205460ff161515600114806110fd57503033145b6111195760405162461bcd60e51b81526004016103fd90612dd9565b6004826040516111299190612cd8565b9081526040519081900360200190205460ff1692915050565b3360009081526020819052604081205460ff1615156001148061116457503033145b6111805760405162461bcd60e51b81526004016103fd90612dd9565b6000838152600760205260409020546001600160a01b03166111b45760405162461bcd60e51b81526004016103fd90612e6d565b6000838152600960209081526040808320805460018082018355918552938390208651600a9095020193845585830151908401805473ffffffffffffffffffffffffffffffffffffffff199081166001600160a01b03938416179091559186015160028501805490931691161790556060840151805185939261123e92600385019291019061234a565b506080820151805161125a91600484019160209091019061234a565b5060a0820151600582015560c0820151600682015560e0820151600782015561010082015160088201556101209091015160099182015560009384526020525050604090205490565b3360009081526020819052604090205460609060ff161515600114806112c857503033145b6112e45760405162461bcd60e51b81526004016103fd90612dd9565b600082815260096020908152604080832080548251818502810185019093528083529193909284015b828210156114c65760008481526020908190206040805161014081018252600a86029092018054835260018101546001600160a01b039081169484019490945260028101549093169082015260038201805491929160608401919061137190612f50565b80601f016020809104026020016040519081016040528092919081815260200182805461139d90612f50565b80156113ea5780601f106113bf576101008083540402835291602001916113ea565b820191906000526020600020905b8154815290600101906020018083116113cd57829003601f168201915b5050505050815260200160048201805461140390612f50565b80601f016020809104026020016040519081016040528092919081815260200182805461142f90612f50565b801561147c5780601f106114515761010080835404028352916020019161147c565b820191906000526020600020905b81548152906001019060200180831161145f57829003601f168201915b50505050508152602001600582015481526020016006820154815260200160078201548152602001600882015481526020016009820154815250508152602001906001019061130d565b505050509050919050565b6114d96123ce565b3360009081526020819052604090205460ff161515600114806114fb57503033145b6115175760405162461bcd60e51b81526004016103fd90612dd9565b60008381526009602052604090205482106115445760405162461bcd60e51b81526004016103fd90612e36565b60008381526009602052604081205461155f90600190612efd565b60008581526009602052604090208054919250908490811061159157634e487b7160e01b600052603260045260246000fd5b60009182526020918290206040805161014081018252600a9093029091018054835260018101546001600160a01b03908116948401949094526002810154909316908201526003820180549192916060840191906115ee90612f50565b80601f016020809104026020016040519081016040528092919081815260200182805461161a90612f50565b80156116675780601f1061163c57610100808354040283529160200191611667565b820191906000526020600020905b81548152906001019060200180831161164a57829003601f168201915b5050505050815260200160048201805461168090612f50565b80601f01602080910402602001604051908101604052809291908181526020018280546116ac90612f50565b80156116f95780601f106116ce576101008083540402835291602001916116f9565b820191906000526020600020905b8154815290600101906020018083116116dc57829003601f168201915b505050505081526020016005820154815260200160068201548152602001600782015481526020016008820154815260200160098201548152505091508281111561187e57600084815260096020526040902080548290811061176c57634e487b7160e01b600052603260045260246000fd5b90600052602060002090600a02016009600086815260200190815260200160002084815481106117ac57634e487b7160e01b600052603260045260246000fd5b600091825260209091208254600a9092020190815560018083015490820180546001600160a01b0392831673ffffffffffffffffffffffffffffffffffffffff19918216179091556002808501549084018054919093169116179055600380830180549183019161181c90612f50565b611827929190612433565b50600482018160040190805461183c90612f50565b611847929190612433565b5060058201548160050155600682015481600601556007820154816007015560088201548160080155600982015481600901559050505b60008481526009602052604090208054806118a957634e487b7160e01b600052603160045260246000fd5b600082815260208120600a7fffffffffffffffffffffffffffffffffffffffffffffffffffffffffffffffff9093019283020181815560018101805473ffffffffffffffffffffffffffffffffffffffff1990811690915560028201805490911690559061191a60038301826124ae565b6119286004830160006124ae565b5060006005820181905560068201819055600782018190556008820181905560099091015590555092915050565b3360009081526020819052604090205460ff1615156001148061197857503033145b6119945760405162461bcd60e51b81526004016103fd90612dd9565b6001600160a01b03166000908152602081905260409020805460ff19166001179055565b6001600160a01b031660009081526020819052604090205460ff1690565b60068054600181018255600091825282517ff652222313e28459528d920b65115c16c04f3efc82aaedc97be59f3f377c0d3f6010909202918201805473ffffffffffffffffffffffffffffffffffffffff199081166001600160a01b039384161782556020808701517ff652222313e28459528d920b65115c16c04f3efc82aaedc97be59f3f377c0d4086018054841691861691909117905560408701517ff652222313e28459528d920b65115c16c04f3efc82aaedc97be59f3f377c0d4186018054841691861691909117905560608701517ff652222313e28459528d920b65115c16c04f3efc82aaedc97be59f3f377c0d4286018054909316941693909317905560808501517ff652222313e28459528d920b65115c16c04f3efc82aaedc97be59f3f377c0d4384015560a0850151805186949293611b3b937ff652222313e28459528d920b65115c16c04f3efc82aaedc97be59f3f377c0d440192019061234a565b5060c08201518051611b5791600684019160209091019061234a565b5060e08201518051611b7391600784019160209091019061234a565b506101008281015160088301805461012086015160ff1991821660ff9485161761ff00191693169093029190911790556101408301516009830155610160830151600a830155610180830151600b8301556101a0830151600c8301556101c0830151600d8301556101e0830151600e83015561020090920151600f90910180549092169015151790556080820180516000908152600760209081526040918290208551815473ffffffffffffffffffffffffffffffffffffffff199081166001600160a01b0392831617835583880151600184018054831691841691909117905593870151600283018054861691831691909117905560608701516003830180549095169116179092559151600482015560a084015180518593611c9e92600585019291019061234a565b5060c08201518051611cba91600684019160209091019061234a565b5060e08201518051611cd691600784019160209091019061234a565b50610100828101516008838101805461012087015160ff1991821660ff9586161761ff0019169416909402929092179091556101408401516009840155610160840151600a840155610180840151600b8401556101a0840151600c8401556101c0840151600d8401556101e0840151600e84015561020090930151600f909201805490911691151591909117905560a0830151604051849291600091611d7f9190602001612cd8565b60408051808303601f1901815291815281516020928301208352828201939093529082016000208351815473ffffffffffffffffffffffffffffffffffffffff199081166001600160a01b0392831617835585840151600184018054831691841691909117905593850151600283018054861691831691909117905560608501516003830180549095169116179092556080830151600483015560a08301518051611e30926005850192019061234a565b5060c08201518051611e4c91600684019160209091019061234a565b5060e08201518051611e6891600784019160209091019061234a565b506101008281015160088301805461012086015160ff1991821660ff9485161761ff00191693169093029190911790556101408301516009830155610160830151600a830155610180830151600b8301556101a0830151600c8301556101c0830151600d8301556101e0830151600e83015561020090920151600f9091018054909216901515179055600654611f0090600190612efd565b92915050565b3360009081526020819052604090205460ff16151560011480611f2857503033145b611f445760405162461bcd60e51b81526004016103fd90612dd9565b80600483604051611f559190612cd8565b908152604051908190036020019020805491151560ff199092169190911790555050565b611f8161229a565b3360009081526020819052604090205460ff16151560011480611fa357503033145b611fbf5760405162461bcd60e51b81526004016103fd90612dd9565b60008281526008602090815260409182902082516102208101845281546001600160a01b03908116825260018301548116938201939093526002820154831693810193909352600381015490911660608301526004810154608083015260058101805460a08401919061049f90612f50565b3360009081526020819052604081205460ff1615156001148061205357503033145b61206f5760405162461bcd60e51b81526004016103fd90612dd9565b60058260405161207f9190612cd8565b908152604051908190036020019020546001600160a01b03169050919050565b3360009081526020819052604090205460609060ff161515600114806120c457503033145b6120e05760405162461bcd60e51b81526004016103fd90612dd9565b6002826040516120f09190612cd8565b9081526020016040518091039020805461210990612f50565b80601f016020809104026020016040519081016040528092919081815260200182805461213590612f50565b80156121825780601f1061215757610100808354040283529160200191612182565b820191906000526020600020905b81548152906001019060200180831161216557829003601f168201915b50505050509050919050565b3360009081526020819052604090205460ff161515600114806121b057503033145b6121cc5760405162461bcd60e51b81526004016103fd90612dd9565b336000908152602081905260409020805460ff19169055565b3360009081526020819052604090205460609060ff1615156001148061220a57503033145b6122265760405162461bcd60e51b81526004016103fd90612dd9565b6001826040516120f09190612cd8565b3360009081526020819052604081205460ff1615156001148061225857503033145b6122745760405162461bcd60e51b81526004016103fd90612dd9565b6003826040516122849190612cd8565b9081526020016040518091039020549050919050565b60405180610220016040528060006001600160a01b0316815260200160006001600160a01b0316815260200160006001600160a01b0316815260200160006001600160a01b0316815260200160008152602001606081526020016060815260200160608152602001600060ff168152602001600060ff1681526020016000815260200160008152602001600081526020016000815260200160008152602001600081526020016000151581525090565b82805461235690612f50565b90600052602060002090601f01602090048101928261237857600085556123be565b82601f1061239157805160ff19168380011785556123be565b828001600101855582156123be579182015b828111156123be5782518255916020019190600101906123a3565b506123ca9291506124ed565b5090565b6040518061014001604052806000815260200160006001600160a01b0316815260200160006001600160a01b03168152602001606081526020016060815260200160008152602001600081526020016000815260200160008152602001600081525090565b82805461243f90612f50565b90600052602060002090601f01602090048101928261246157600085556123be565b82601f1061247257805485556123be565b828001600101855582156123be57600052602060002091601f016020900482015b828111156123be578254825591600101919060010190612493565b5080546124ba90612f50565b6000825580601f106124cc57506124ea565b601f0160209004906000526020600020908101906124ea91906124ed565b50565b5b808211156123ca57600081556001016124ee565b600067ffffffffffffffff83111561251c5761251c612f8b565b61252f6020601f19601f86011601612ed3565b905082815283838301111561254357600080fd5b828260208301376000602084830101529392505050565b80356001600160a01b03811681146106b457600080fd5b803580151581146106b457600080fd5b600082601f830112612591578081fd5b6125a083833560208501612502565b9392505050565b60006101408083850312156125ba578182fd5b6125c381612ed3565b915050813581526125d66020830161255a565b60208201526125e76040830161255a565b6040820152606082013567ffffffffffffffff8082111561260757600080fd5b61261385838601612581565b6060840152608084013591508082111561262c57600080fd5b5061263984828501612581565b60808301525060a082013560a082015260c082013560c082015260e082013560e082015261010080830135818301525061012080830135818301525092915050565b803560ff811681146106b457600080fd5b60006020828403121561269d578081fd5b6125a08261255a565b6000602082840312156126b7578081fd5b813567ffffffffffffffff8111156126cd578182fd5b6126d984828501612581565b949350505050565b600080604083850312156126f3578081fd5b823567ffffffffffffffff811115612709578182fd5b61271585828601612581565b9250506127246020840161255a565b90509250929050565b6000806040838503121561273f578182fd5b823567ffffffffffffffff811115612755578283fd5b61276185828601612581565b92505061272460208401612571565b60008060408385031215612782578182fd5b823567ffffffffffffffff80821115612799578384fd5b6127a586838701612581565b935060208501359150808211156127ba578283fd5b508301601f810185136127cb578182fd5b6127da85823560208401612502565b9150509250929050565b600080604083850312156127f6578182fd5b823567ffffffffffffffff8082111561280d578384fd5b61281986838701612581565b9350602085013591508082111561282e578283fd5b506127da85828601612581565b6000806040838503121561284d578182fd5b823567ffffffffffffffff811115612863578283fd5b61286f85828601612581565b95602094909401359450505050565b60006020828403121561288f578081fd5b813567ffffffffffffffff808211156128a6578283fd5b81840191506102208083870312156128bc578384fd5b6128c581612ed3565b90506128d08361255a565b81526128de6020840161255a565b60208201526128ef6040840161255a565b60408201526129006060840161255a565b60608201526080830135608082015260a083013582811115612920578485fd5b61292c87828601612581565b60a08301525060c083013582811115612943578485fd5b61294f87828601612581565b60c08301525060e083013582811115612966578485fd5b61297287828601612581565b60e083015250610100915061298882840161267b565b82820152610120915061299c82840161267b565b918101919091526101408281013590820152610160808301359082015261018080830135908201526101a080830135908201526101c080830135908201526101e08083013590820152610200906129f4828401612571565b91810191909152949350505050565b600060208284031215612a14578081fd5b5035919050565b60008060408385031215612a2d578182fd5b82359150602083013567ffffffffffffffff811115612a4a578182fd5b6127da858286016125a7565b60008060408385031215612a68578182fd5b50508035926020909101359150565b600080600060608486031215612a8b578081fd5b8335925060208401359150604084013567ffffffffffffffff811115612aaf578182fd5b612abb868287016125a7565b9150509250925092565b6001600160a01b03169052565b15159052565b60008151808452612af0816020860160208601612f20565b601f01601f19169290920160200192915050565b6000610140825184526020830151612b1f6020860182612ac5565b506040830151612b326040860182612ac5565b506060830151816060860152612b4a82860182612ad8565b91505060808301518482036080860152612b648282612ad8565b91505060a083015160a085015260c083015160c085015260e083015160e08501526101008084015181860152506101208084015181860152508091505092915050565b6000610220612bb7848451612ac5565b6020830151612bc96020860182612ac5565b506040830151612bdc6040860182612ac5565b506060830151612bef6060860182612ac5565b506080830151608085015260a08301518160a0860152612c1182860182612ad8565b91505060c083015184820360c0860152612c2b8282612ad8565b91505060e083015184820360e0860152612c458282612ad8565b91505061010080840151612c5b82870182612cd1565b505061012080840151612c7082870182612cd1565b50506101408381015190850152610160808401519085015261018080840151908501526101a080840151908501526101c080840151908501526101e0808401519085015261020080840151612cc782870182612ad2565b5090949350505050565b60ff169052565b60008251612cea818460208701612f20565b9190910192915050565b6001600160a01b0391909116815260200190565b6000602080830181845280855180835260408601915060408482028701019250838701855b82811015612d5b57603f19888603018452612d49858351612b04565b94509285019290850190600101612d2d565b5092979650505050505050565b6000602080830181845280855180835260408601915060408482028701019250838701855b82811015612d5b57603f19888603018452612da9858351612ba7565b94509285019290850190600101612d8d565b901515815260200190565b6000602082526125a06020830184612ad8565b60208082526028908201527f436f6e74726f6c6c61626c653a2063616c6c6572206973206e6f74206120636f60408201527f6e74726f6c6c6572000000000000000000000000000000000000000000000000606082015260800190565b60208082526013908201527f496e646578206f7574206f6620626f756e647300000000000000000000000000604082015260600190565b60208082526012908201527f4c6f6f74626f78206973206e6f74207365740000000000000000000000000000604082015260600190565b6000602082526125a06020830184612b04565b6000602082526125a06020830184612ba7565b90815260200190565b60405181810167ffffffffffffffff81118282101715612ef557612ef5612f8b565b604052919050565b600082821015612f1b57634e487b7160e01b81526011600452602481fd5b500390565b60005b83811015612f3b578181015183820152602001612f23565b83811115612f4a576000848401525b50505050565b600281046001821680612f6457607f821691505b60208210811415612f8557634e487b7160e01b600052602260045260246000fd5b50919050565b634e487b7160e01b600052604160045260246000fdfea26469706673582212203921da7c4653793aaa0e185792dbc29964da823e4c368613b057fa81bce82fdc64736f6c63430008000033",
  "libraries": {
    "Strings": "0xeB3E79099663eC952e02E608E00d463F36b4Fb75",
    "AddressSet": "0x8974D57fCfF9C10E9d41709da86d006604D8c75d",
    "UInt256Set": "0x8B6893DB13b55d4952a51d5188215e2a470515a9",
    "Create2": "0xBa85d3e8E0F9e48F5c21649d33f6d0f9Af12E3f5",
    "WrappedTokenLib": "0x0307a2E913FD8fb384a939Cfb7655C30820727D8",
    "ComplexPoolLib": "0x3802c9d35c585ac6668e24A93Bb341D50662aA4E"
  },
  "devdoc": {
    "kind": "dev",
    "methods": {
      "addController(address)": {
        "details": "Add an address allowed to control this contract"
      },
      "getStr(string)": {
        "details": "set a string value",
        "params": {
          "key": "the key of the string value"
        },
        "returns": {
          "_0": "the value if the value was set, falsey otherwise"
        }
      },
      "isController(address)": {
        "details": "Check if this address is a controller"
      },
      "relinquishControl()": {
        "details": "Remove the sender address from the list of controllers"
      },
      "setStr(string,string)": {
        "details": "set a string value",
        "params": {
          "key": "the key of the string value",
          "value": "the value to set"
        },
        "returns": {
          "oldData": "string the old data the the new data replaced"
        }
      }
    },
    "version": 1
  },
  "userdoc": {
    "kind": "user",
    "methods": {},
    "version": 1
  },
  "storageLayout": {
    "storage": [
      {
        "astId": 12920,
        "contract": "src/lootbox/LootboxData.sol:LootboxData",
        "label": "_controllers",
        "offset": 0,
        "slot": "0",
        "type": "t_mapping(t_address,t_bool)"
      },
      {
        "astId": 13016,
        "contract": "src/lootbox/LootboxData.sol:LootboxData",
        "label": "stringData",
        "offset": 0,
        "slot": "1",
        "type": "t_mapping(t_string_memory_ptr,t_string_storage)"
      },
      {
        "astId": 13020,
        "contract": "src/lootbox/LootboxData.sol:LootboxData",
        "label": "bytesData",
        "offset": 0,
        "slot": "2",
        "type": "t_mapping(t_string_memory_ptr,t_bytes_storage)"
      },
      {
        "astId": 13024,
        "contract": "src/lootbox/LootboxData.sol:LootboxData",
        "label": "uintData",
        "offset": 0,
        "slot": "3",
        "type": "t_mapping(t_string_memory_ptr,t_uint256)"
      },
      {
        "astId": 13028,
        "contract": "src/lootbox/LootboxData.sol:LootboxData",
        "label": "boolData",
        "offset": 0,
        "slot": "4",
        "type": "t_mapping(t_string_memory_ptr,t_bool)"
      },
      {
        "astId": 13032,
        "contract": "src/lootbox/LootboxData.sol:LootboxData",
        "label": "addressData",
        "offset": 0,
        "slot": "5",
        "type": "t_mapping(t_string_memory_ptr,t_address)"
      },
      {
        "astId": 19879,
        "contract": "src/lootbox/LootboxData.sol:LootboxData",
        "label": "_allLootboxes",
        "offset": 0,
        "slot": "6",
        "type": "t_array(t_struct(Lootbox)16090_storage)dyn_storage"
      },
      {
        "astId": 19884,
        "contract": "src/lootbox/LootboxData.sol:LootboxData",
        "label": "_lootboxes",
        "offset": 0,
        "slot": "7",
        "type": "t_mapping(t_uint256,t_struct(Lootbox)16090_storage)"
      },
      {
        "astId": 19889,
        "contract": "src/lootbox/LootboxData.sol:LootboxData",
        "label": "_lootboxesBySymbol",
        "offset": 0,
        "slot": "8",
        "type": "t_mapping(t_uint256,t_struct(Lootbox)16090_storage)"
      },
      {
        "astId": 19895,
        "contract": "src/lootbox/LootboxData.sol:LootboxData",
        "label": "_loot",
        "offset": 0,
        "slot": "9",
        "type": "t_mapping(t_uint256,t_array(t_struct(Loot)16111_storage)dyn_storage)"
      }
    ],
    "types": {
      "t_address": {
        "encoding": "inplace",
        "label": "address",
        "numberOfBytes": "20"
      },
      "t_array(t_struct(Loot)16111_storage)dyn_storage": {
        "base": "t_struct(Loot)16111_storage",
        "encoding": "dynamic_array",
        "label": "struct ILootbox.Loot[]",
        "numberOfBytes": "32"
      },
      "t_array(t_struct(Lootbox)16090_storage)dyn_storage": {
        "base": "t_struct(Lootbox)16090_storage",
        "encoding": "dynamic_array",
        "label": "struct ILootbox.Lootbox[]",
        "numberOfBytes": "32"
      },
      "t_bool": {
        "encoding": "inplace",
        "label": "bool",
        "numberOfBytes": "1"
      },
      "t_bytes_storage": {
        "encoding": "bytes",
        "label": "bytes",
        "numberOfBytes": "32"
      },
      "t_mapping(t_address,t_bool)": {
        "encoding": "mapping",
        "key": "t_address",
        "label": "mapping(address => bool)",
        "numberOfBytes": "32",
        "value": "t_bool"
      },
      "t_mapping(t_string_memory_ptr,t_address)": {
        "encoding": "mapping",
        "key": "t_string_memory_ptr",
        "label": "mapping(string => address)",
        "numberOfBytes": "32",
        "value": "t_address"
      },
      "t_mapping(t_string_memory_ptr,t_bool)": {
        "encoding": "mapping",
        "key": "t_string_memory_ptr",
        "label": "mapping(string => bool)",
        "numberOfBytes": "32",
        "value": "t_bool"
      },
      "t_mapping(t_string_memory_ptr,t_bytes_storage)": {
        "encoding": "mapping",
        "key": "t_string_memory_ptr",
        "label": "mapping(string => bytes)",
        "numberOfBytes": "32",
        "value": "t_bytes_storage"
      },
      "t_mapping(t_string_memory_ptr,t_string_storage)": {
        "encoding": "mapping",
        "key": "t_string_memory_ptr",
        "label": "mapping(string => string)",
        "numberOfBytes": "32",
        "value": "t_string_storage"
      },
      "t_mapping(t_string_memory_ptr,t_uint256)": {
        "encoding": "mapping",
        "key": "t_string_memory_ptr",
        "label": "mapping(string => uint256)",
        "numberOfBytes": "32",
        "value": "t_uint256"
      },
      "t_mapping(t_uint256,t_array(t_struct(Loot)16111_storage)dyn_storage)": {
        "encoding": "mapping",
        "key": "t_uint256",
        "label": "mapping(uint256 => struct ILootbox.Loot[])",
        "numberOfBytes": "32",
        "value": "t_array(t_struct(Loot)16111_storage)dyn_storage"
      },
      "t_mapping(t_uint256,t_struct(Lootbox)16090_storage)": {
        "encoding": "mapping",
        "key": "t_uint256",
        "label": "mapping(uint256 => struct ILootbox.Lootbox)",
        "numberOfBytes": "32",
        "value": "t_struct(Lootbox)16090_storage"
      },
      "t_string_memory_ptr": {
        "encoding": "bytes",
        "label": "string",
        "numberOfBytes": "32"
      },
      "t_string_storage": {
        "encoding": "bytes",
        "label": "string",
        "numberOfBytes": "32"
      },
      "t_struct(Loot)16111_storage": {
        "encoding": "inplace",
        "label": "struct ILootbox.Loot",
        "members": [
          {
            "astId": 16092,
            "contract": "src/lootbox/LootboxData.sol:LootboxData",
            "label": "lootHash",
            "offset": 0,
            "slot": "0",
            "type": "t_uint256"
          },
          {
            "astId": 16094,
            "contract": "src/lootbox/LootboxData.sol:LootboxData",
            "label": "owner",
            "offset": 0,
            "slot": "1",
            "type": "t_address"
          },
          {
            "astId": 16096,
            "contract": "src/lootbox/LootboxData.sol:LootboxData",
            "label": "multitoken",
            "offset": 0,
            "slot": "2",
            "type": "t_address"
          },
          {
            "astId": 16098,
            "contract": "src/lootbox/LootboxData.sol:LootboxData",
            "label": "symbol",
            "offset": 0,
            "slot": "3",
            "type": "t_string_storage"
          },
          {
            "astId": 16100,
            "contract": "src/lootbox/LootboxData.sol:LootboxData",
            "label": "name",
            "offset": 0,
            "slot": "4",
            "type": "t_string_storage"
          },
          {
            "astId": 16102,
            "contract": "src/lootbox/LootboxData.sol:LootboxData",
            "label": "probability",
            "offset": 0,
            "slot": "5",
            "type": "t_uint256"
          },
          {
            "astId": 16104,
            "contract": "src/lootbox/LootboxData.sol:LootboxData",
            "label": "probabilityIndex",
            "offset": 0,
            "slot": "6",
            "type": "t_uint256"
          },
          {
            "astId": 16106,
            "contract": "src/lootbox/LootboxData.sol:LootboxData",
            "label": "probabilityRoll",
            "offset": 0,
            "slot": "7",
            "type": "t_uint256"
          },
          {
            "astId": 16108,
            "contract": "src/lootbox/LootboxData.sol:LootboxData",
            "label": "maxMint",
            "offset": 0,
            "slot": "8",
            "type": "t_uint256"
          },
          {
            "astId": 16110,
            "contract": "src/lootbox/LootboxData.sol:LootboxData",
            "label": "minted",
            "offset": 0,
            "slot": "9",
            "type": "t_uint256"
          }
        ],
        "numberOfBytes": "320"
      },
      "t_struct(Lootbox)16090_storage": {
        "encoding": "inplace",
        "label": "struct ILootbox.Lootbox",
        "members": [
          {
            "astId": 16057,
            "contract": "src/lootbox/LootboxData.sol:LootboxData",
            "label": "owner",
            "offset": 0,
            "slot": "0",
            "type": "t_address"
          },
          {
            "astId": 16059,
            "contract": "src/lootbox/LootboxData.sol:LootboxData",
            "label": "contractAddress",
            "offset": 0,
            "slot": "1",
            "type": "t_address"
          },
          {
            "astId": 16061,
            "contract": "src/lootbox/LootboxData.sol:LootboxData",
            "label": "randomFarmer",
            "offset": 0,
            "slot": "2",
            "type": "t_address"
          },
          {
            "astId": 16063,
            "contract": "src/lootbox/LootboxData.sol:LootboxData",
            "label": "multitoken",
            "offset": 0,
            "slot": "3",
            "type": "t_address"
          },
          {
            "astId": 16065,
            "contract": "src/lootbox/LootboxData.sol:LootboxData",
            "label": "lootboxHash",
            "offset": 0,
            "slot": "4",
            "type": "t_uint256"
          },
          {
            "astId": 16067,
            "contract": "src/lootbox/LootboxData.sol:LootboxData",
            "label": "symbol",
            "offset": 0,
            "slot": "5",
            "type": "t_string_storage"
          },
          {
            "astId": 16069,
            "contract": "src/lootbox/LootboxData.sol:LootboxData",
            "label": "name",
            "offset": 0,
            "slot": "6",
            "type": "t_string_storage"
          },
          {
            "astId": 16071,
            "contract": "src/lootbox/LootboxData.sol:LootboxData",
            "label": "description",
            "offset": 0,
            "slot": "7",
            "type": "t_string_storage"
          },
          {
            "astId": 16073,
            "contract": "src/lootbox/LootboxData.sol:LootboxData",
            "label": "minLootPerOpen",
            "offset": 0,
            "slot": "8",
            "type": "t_uint8"
          },
          {
            "astId": 16075,
            "contract": "src/lootbox/LootboxData.sol:LootboxData",
            "label": "maxLootPerOpen",
            "offset": 1,
            "slot": "8",
            "type": "t_uint8"
          },
          {
            "astId": 16077,
            "contract": "src/lootbox/LootboxData.sol:LootboxData",
            "label": "openPrice",
            "offset": 0,
            "slot": "9",
            "type": "t_uint256"
          },
          {
            "astId": 16079,
            "contract": "src/lootbox/LootboxData.sol:LootboxData",
            "label": "maxOpens",
            "offset": 0,
            "slot": "10",
            "type": "t_uint256"
          },
          {
            "astId": 16081,
            "contract": "src/lootbox/LootboxData.sol:LootboxData",
            "label": "openCount",
            "offset": 0,
            "slot": "11",
            "type": "t_uint256"
          },
          {
            "astId": 16083,
            "contract": "src/lootbox/LootboxData.sol:LootboxData",
            "label": "totalLootGenerated",
            "offset": 0,
            "slot": "12",
            "type": "t_uint256"
          },
          {
            "astId": 16085,
            "contract": "src/lootbox/LootboxData.sol:LootboxData",
            "label": "lootboxTokenSalePrice",
            "offset": 0,
            "slot": "13",
            "type": "t_uint256"
          },
          {
            "astId": 16087,
            "contract": "src/lootbox/LootboxData.sol:LootboxData",
            "label": "probabilitiesSum",
            "offset": 0,
            "slot": "14",
            "type": "t_uint256"
          },
          {
            "astId": 16089,
            "contract": "src/lootbox/LootboxData.sol:LootboxData",
            "label": "initialized",
            "offset": 0,
            "slot": "15",
            "type": "t_bool"
          }
        ],
        "numberOfBytes": "512"
      },
      "t_uint256": {
        "encoding": "inplace",
        "label": "uint256",
        "numberOfBytes": "32"
      },
      "t_uint8": {
        "encoding": "inplace",
        "label": "uint8",
        "numberOfBytes": "1"
      }
    }
  }
}