{
  "address": "0xdF99eb724ecaB8cE906EA637342aD9c3E7844F98",
  "abi": [
    {
      "inputs": [],
      "stateMutability": "nonpayable",
      "type": "constructor"
    },
    {
      "anonymous": false,
      "inputs": [
        {
          "indexed": true,
          "internalType": "address",
          "name": "account",
          "type": "address"
        },
        {
          "indexed": true,
          "internalType": "address",
          "name": "operator",
          "type": "address"
        },
        {
          "indexed": false,
          "internalType": "bool",
          "name": "approved",
          "type": "bool"
        }
      ],
      "name": "ApprovalForAll",
      "type": "event"
    },
    {
      "anonymous": false,
      "inputs": [
        {
          "indexed": true,
          "internalType": "address",
          "name": "contractAddress",
          "type": "address"
        },
        {
          "indexed": true,
          "internalType": "address",
          "name": "controllerAddress",
          "type": "address"
        }
      ],
      "name": "ControllerAdded",
      "type": "event"
    },
    {
      "anonymous": false,
      "inputs": [
        {
          "indexed": true,
          "internalType": "address",
          "name": "contractAddress",
          "type": "address"
        },
        {
          "indexed": true,
          "internalType": "address",
          "name": "controllerAddress",
          "type": "address"
        }
      ],
      "name": "ControllerRemoved",
      "type": "event"
    },
    {
      "anonymous": false,
      "inputs": [
        {
          "indexed": false,
          "internalType": "address",
          "name": "account",
          "type": "address"
        }
      ],
      "name": "Paused",
      "type": "event"
    },
    {
      "anonymous": false,
      "inputs": [
        {
          "indexed": true,
          "internalType": "address",
          "name": "operator",
          "type": "address"
        },
        {
          "indexed": true,
          "internalType": "address",
          "name": "from",
          "type": "address"
        },
        {
          "indexed": true,
          "internalType": "address",
          "name": "to",
          "type": "address"
        },
        {
          "indexed": false,
          "internalType": "uint256[]",
          "name": "ids",
          "type": "uint256[]"
        },
        {
          "indexed": false,
          "internalType": "uint256[]",
          "name": "values",
          "type": "uint256[]"
        }
      ],
      "name": "TransferBatch",
      "type": "event"
    },
    {
      "anonymous": false,
      "inputs": [
        {
          "indexed": true,
          "internalType": "address",
          "name": "operator",
          "type": "address"
        },
        {
          "indexed": true,
          "internalType": "address",
          "name": "from",
          "type": "address"
        },
        {
          "indexed": true,
          "internalType": "address",
          "name": "to",
          "type": "address"
        },
        {
          "indexed": false,
          "internalType": "uint256",
          "name": "id",
          "type": "uint256"
        },
        {
          "indexed": false,
          "internalType": "uint256",
          "name": "value",
          "type": "uint256"
        }
      ],
      "name": "TransferSingle",
      "type": "event"
    },
    {
      "anonymous": false,
      "inputs": [
        {
          "indexed": false,
          "internalType": "string",
          "name": "value",
          "type": "string"
        },
        {
          "indexed": true,
          "internalType": "uint256",
          "name": "id",
          "type": "uint256"
        }
      ],
      "name": "URI",
      "type": "event"
    },
    {
      "anonymous": false,
      "inputs": [
        {
          "indexed": false,
          "internalType": "address",
          "name": "account",
          "type": "address"
        }
      ],
      "name": "Unpaused",
      "type": "event"
    },
    {
      "inputs": [],
      "name": "_INTERFACE_ID_ERC2981",
      "outputs": [
        {
          "internalType": "bytes4",
          "name": "",
          "type": "bytes4"
        }
      ],
      "stateMutability": "view",
      "type": "function"
    },
    {
      "inputs": [
        {
          "internalType": "address",
          "name": "_controller",
          "type": "address"
        }
      ],
      "name": "addController",
      "outputs": [],
      "stateMutability": "nonpayable",
      "type": "function"
    },
    {
      "inputs": [
        {
          "internalType": "address",
          "name": "registry",
          "type": "address"
        }
      ],
      "name": "addProxyRegistry",
      "outputs": [],
      "stateMutability": "nonpayable",
      "type": "function"
    },
    {
      "inputs": [
        {
          "internalType": "address",
          "name": "holder",
          "type": "address"
        },
        {
          "internalType": "uint256",
          "name": "_idx",
          "type": "uint256"
        }
      ],
      "name": "allHeldTokens",
      "outputs": [
        {
          "internalType": "uint256",
          "name": "",
          "type": "uint256"
        }
      ],
      "stateMutability": "view",
      "type": "function"
    },
    {
      "inputs": [
        {
          "internalType": "address",
          "name": "holder",
          "type": "address"
        }
      ],
      "name": "allHeldTokensLength",
      "outputs": [
        {
          "internalType": "uint256",
          "name": "",
          "type": "uint256"
        }
      ],
      "stateMutability": "view",
      "type": "function"
    },
    {
      "inputs": [
        {
          "internalType": "uint256",
          "name": "_idx",
          "type": "uint256"
        }
      ],
      "name": "allProxyRegistries",
      "outputs": [
        {
          "internalType": "address",
          "name": "",
          "type": "address"
        }
      ],
      "stateMutability": "view",
      "type": "function"
    },
    {
      "inputs": [],
      "name": "allProxyRegistriesLength",
      "outputs": [
        {
          "internalType": "uint256",
          "name": "",
          "type": "uint256"
        }
      ],
      "stateMutability": "view",
      "type": "function"
    },
    {
      "inputs": [
        {
          "internalType": "uint256",
          "name": "_token",
          "type": "uint256"
        },
        {
          "internalType": "uint256",
          "name": "_idx",
          "type": "uint256"
        }
      ],
      "name": "allTokenHolders",
      "outputs": [
        {
          "internalType": "address",
          "name": "",
          "type": "address"
        }
      ],
      "stateMutability": "view",
      "type": "function"
    },
    {
      "inputs": [
        {
          "internalType": "uint256",
          "name": "_token",
          "type": "uint256"
        }
      ],
      "name": "allTokenHoldersLength",
      "outputs": [
        {
          "internalType": "uint256",
          "name": "",
          "type": "uint256"
        }
      ],
      "stateMutability": "view",
      "type": "function"
    },
    {
      "inputs": [
        {
          "internalType": "address",
          "name": "account",
          "type": "address"
        },
        {
          "internalType": "uint256",
          "name": "id",
          "type": "uint256"
        }
      ],
      "name": "balanceOf",
      "outputs": [
        {
          "internalType": "uint256",
          "name": "",
          "type": "uint256"
        }
      ],
      "stateMutability": "view",
      "type": "function"
    },
    {
      "inputs": [
        {
          "internalType": "address[]",
          "name": "accounts",
          "type": "address[]"
        },
        {
          "internalType": "uint256[]",
          "name": "ids",
          "type": "uint256[]"
        }
      ],
      "name": "balanceOfBatch",
      "outputs": [
        {
          "internalType": "uint256[]",
          "name": "",
          "type": "uint256[]"
        }
      ],
      "stateMutability": "view",
      "type": "function"
    },
    {
      "inputs": [
        {
          "internalType": "address",
          "name": "account",
          "type": "address"
        },
        {
          "internalType": "uint256",
          "name": "tokenHash",
          "type": "uint256"
        },
        {
          "internalType": "uint256",
          "name": "amount",
          "type": "uint256"
        }
      ],
      "name": "burn",
      "outputs": [],
      "stateMutability": "nonpayable",
      "type": "function"
    },
    {
      "inputs": [
        {
          "internalType": "address",
          "name": "account",
          "type": "address"
        },
        {
          "internalType": "uint256[]",
          "name": "ids",
          "type": "uint256[]"
        },
        {
          "internalType": "uint256[]",
          "name": "amounts",
          "type": "uint256[]"
        }
      ],
      "name": "burnBatch",
      "outputs": [],
      "stateMutability": "nonpayable",
      "type": "function"
    },
    {
      "inputs": [],
      "name": "getRegistryManager",
      "outputs": [
        {
          "internalType": "address",
          "name": "",
          "type": "address"
        }
      ],
      "stateMutability": "view",
      "type": "function"
    },
    {
      "inputs": [
        {
          "internalType": "uint256",
          "name": "tokenHash",
          "type": "uint256"
        }
      ],
      "name": "getTokenData",
      "outputs": [
        {
          "internalType": "enum INFTGemMultiToken.TokenType",
          "name": "tokenType",
          "type": "uint8"
        },
        {
          "internalType": "address",
          "name": "tokenPool",
          "type": "address"
        }
      ],
      "stateMutability": "view",
      "type": "function"
    },
    {
      "inputs": [
        {
          "internalType": "address",
          "name": "holder",
          "type": "address"
        }
      ],
      "name": "heldTokens",
      "outputs": [
        {
          "internalType": "uint256[]",
          "name": "",
          "type": "uint256[]"
        }
      ],
      "stateMutability": "view",
      "type": "function"
    },
    {
      "inputs": [
        {
          "internalType": "address",
          "name": "_owner",
          "type": "address"
        },
        {
          "internalType": "address",
          "name": "_operator",
          "type": "address"
        }
      ],
      "name": "isApprovedForAll",
      "outputs": [
        {
          "internalType": "bool",
          "name": "isOperator",
          "type": "bool"
        }
      ],
      "stateMutability": "view",
      "type": "function"
    },
    {
      "inputs": [
        {
          "internalType": "address",
          "name": "_address",
          "type": "address"
        }
      ],
      "name": "isController",
      "outputs": [
        {
          "internalType": "bool",
          "name": "allowed",
          "type": "bool"
        }
      ],
      "stateMutability": "view",
      "type": "function"
    },
    {
      "inputs": [
        {
          "internalType": "uint256",
          "name": "token",
          "type": "uint256"
        },
        {
          "internalType": "uint256",
          "name": "timestamp",
          "type": "uint256"
        }
      ],
      "name": "lock",
      "outputs": [],
      "stateMutability": "nonpayable",
      "type": "function"
    },
    {
      "inputs": [
        {
          "internalType": "address",
          "name": "account",
          "type": "address"
        },
        {
          "internalType": "uint256",
          "name": "tokenHash",
          "type": "uint256"
        },
        {
          "internalType": "uint256",
          "name": "amount",
          "type": "uint256"
        }
      ],
      "name": "mint",
      "outputs": [],
      "stateMutability": "nonpayable",
      "type": "function"
    },
    {
      "inputs": [
        {
          "internalType": "address",
          "name": "to",
          "type": "address"
        },
        {
          "internalType": "uint256[]",
          "name": "ids",
          "type": "uint256[]"
        },
        {
          "internalType": "uint256[]",
          "name": "amounts",
          "type": "uint256[]"
        }
      ],
      "name": "mintBatch",
      "outputs": [],
      "stateMutability": "nonpayable",
      "type": "function"
    },
    {
      "inputs": [
        {
          "internalType": "address",
          "name": "",
          "type": "address"
        },
        {
          "internalType": "address",
          "name": "",
          "type": "address"
        },
        {
          "internalType": "uint256[]",
          "name": "",
          "type": "uint256[]"
        },
        {
          "internalType": "uint256[]",
          "name": "",
          "type": "uint256[]"
        },
        {
          "internalType": "bytes",
          "name": "",
          "type": "bytes"
        }
      ],
      "name": "onERC1155BatchReceived",
      "outputs": [
        {
          "internalType": "bytes4",
          "name": "",
          "type": "bytes4"
        }
      ],
      "stateMutability": "nonpayable",
      "type": "function"
    },
    {
      "inputs": [
        {
          "internalType": "address",
          "name": "",
          "type": "address"
        },
        {
          "internalType": "address",
          "name": "",
          "type": "address"
        },
        {
          "internalType": "uint256",
          "name": "",
          "type": "uint256"
        },
        {
          "internalType": "uint256",
          "name": "",
          "type": "uint256"
        },
        {
          "internalType": "bytes",
          "name": "",
          "type": "bytes"
        }
      ],
      "name": "onERC1155Received",
      "outputs": [
        {
          "internalType": "bytes4",
          "name": "",
          "type": "bytes4"
        }
      ],
      "stateMutability": "nonpayable",
      "type": "function"
    },
    {
      "inputs": [],
      "name": "paused",
      "outputs": [
        {
          "internalType": "bool",
          "name": "",
          "type": "bool"
        }
      ],
      "stateMutability": "view",
      "type": "function"
    },
    {
      "inputs": [],
      "name": "relinquishControl",
      "outputs": [],
      "stateMutability": "nonpayable",
      "type": "function"
    },
    {
      "inputs": [
        {
          "internalType": "uint256",
          "name": "index",
          "type": "uint256"
        }
      ],
      "name": "removeProxyRegistryAt",
      "outputs": [],
      "stateMutability": "nonpayable",
      "type": "function"
    },
    {
      "inputs": [
        {
          "internalType": "uint256",
          "name": "_tokenId",
          "type": "uint256"
        },
        {
          "internalType": "uint256",
          "name": "_salePrice",
          "type": "uint256"
        }
      ],
      "name": "royaltyInfo",
      "outputs": [
        {
          "internalType": "address",
          "name": "receiver",
          "type": "address"
        },
        {
          "internalType": "uint256",
          "name": "royaltyAmount",
          "type": "uint256"
        }
      ],
      "stateMutability": "view",
      "type": "function"
    },
    {
      "inputs": [
        {
          "internalType": "address",
          "name": "from",
          "type": "address"
        },
        {
          "internalType": "address",
          "name": "to",
          "type": "address"
        },
        {
          "internalType": "uint256[]",
          "name": "ids",
          "type": "uint256[]"
        },
        {
          "internalType": "uint256[]",
          "name": "amounts",
          "type": "uint256[]"
        },
        {
          "internalType": "bytes",
          "name": "data",
          "type": "bytes"
        }
      ],
      "name": "safeBatchTransferFrom",
      "outputs": [],
      "stateMutability": "nonpayable",
      "type": "function"
    },
    {
      "inputs": [
        {
          "internalType": "address",
          "name": "from",
          "type": "address"
        },
        {
          "internalType": "address",
          "name": "to",
          "type": "address"
        },
        {
          "internalType": "uint256",
          "name": "id",
          "type": "uint256"
        },
        {
          "internalType": "uint256",
          "name": "amount",
          "type": "uint256"
        },
        {
          "internalType": "bytes",
          "name": "data",
          "type": "bytes"
        }
      ],
      "name": "safeTransferFrom",
      "outputs": [],
      "stateMutability": "nonpayable",
      "type": "function"
    },
    {
      "inputs": [
        {
          "internalType": "address",
          "name": "operator",
          "type": "address"
        },
        {
          "internalType": "bool",
          "name": "approved",
          "type": "bool"
        }
      ],
      "name": "setApprovalForAll",
      "outputs": [],
      "stateMutability": "nonpayable",
      "type": "function"
    },
    {
      "inputs": [
        {
          "internalType": "address",
          "name": "newManager",
          "type": "address"
        }
      ],
      "name": "setRegistryManager",
      "outputs": [],
      "stateMutability": "nonpayable",
      "type": "function"
    },
    {
      "inputs": [
        {
          "internalType": "uint256",
          "name": "_tokenId",
          "type": "uint256"
        },
        {
          "internalType": "address",
          "name": "_owner",
          "type": "address"
        },
        {
          "internalType": "uint256",
          "name": "feePermil",
          "type": "uint256"
        }
      ],
      "name": "setRoyaltyInfo",
      "outputs": [],
      "stateMutability": "nonpayable",
      "type": "function"
    },
    {
      "inputs": [
        {
          "internalType": "uint256",
          "name": "tokenHash",
          "type": "uint256"
        },
        {
          "internalType": "enum INFTGemMultiToken.TokenType",
          "name": "tokenType",
          "type": "uint8"
        },
        {
          "internalType": "address",
          "name": "tokenPool",
          "type": "address"
        }
      ],
      "name": "setTokenData",
      "outputs": [],
      "stateMutability": "nonpayable",
      "type": "function"
    },
    {
      "inputs": [
        {
          "internalType": "bytes4",
          "name": "interfaceId",
          "type": "bytes4"
        }
      ],
      "name": "supportsInterface",
      "outputs": [
        {
          "internalType": "bool",
          "name": "",
          "type": "bool"
        }
      ],
      "stateMutability": "view",
      "type": "function"
    },
    {
      "inputs": [
        {
          "internalType": "uint256",
          "name": "_token",
          "type": "uint256"
        }
      ],
      "name": "tokenHolders",
      "outputs": [
        {
          "internalType": "address[]",
          "name": "",
          "type": "address[]"
        }
      ],
      "stateMutability": "view",
      "type": "function"
    },
    {
      "inputs": [
        {
          "internalType": "uint256",
          "name": "_id",
          "type": "uint256"
        }
      ],
      "name": "totalBalances",
      "outputs": [
        {
          "internalType": "uint256",
          "name": "",
          "type": "uint256"
        }
      ],
      "stateMutability": "view",
      "type": "function"
    },
    {
      "inputs": [
        {
          "internalType": "address",
          "name": "account",
          "type": "address"
        },
        {
          "internalType": "uint256",
          "name": "token",
          "type": "uint256"
        }
      ],
      "name": "unlockTime",
      "outputs": [
        {
          "internalType": "uint256",
          "name": "theTime",
          "type": "uint256"
        }
      ],
      "stateMutability": "view",
      "type": "function"
    },
    {
      "inputs": [
        {
          "internalType": "uint256",
          "name": "_id",
          "type": "uint256"
        }
      ],
      "name": "uri",
      "outputs": [
        {
          "internalType": "string",
          "name": "",
          "type": "string"
        }
      ],
      "stateMutability": "view",
      "type": "function"
    }
  ],
  "transactionHash": "0x123fb0329f22a7c132e82f84e7f1ab963ffbbbfb7cfcccedfc849673686c6bb1",
  "args": [],
  "solcInputHash": "2d2f4ad3fdc4b1ca8ac0f60db5b68735",
  "bytecode": "0x60806040523480156200001157600080fd5b5060408051808201909152601b81527f68747470733a2f2f6d657461646174612e62697467656d2e636f2f0000000000602082015262000051816200007f565b506003805460ff19169055620000673362000098565b600780546001600160a01b031916331790556200019f565b805162000094906002906020840190620000bc565b5050565b6001600160a01b03166000908152600460205260409020805460ff19166001179055565b828054620000ca9062000162565b90600052602060002090601f016020900481019282620000ee576000855562000139565b82601f106200010957805160ff191683800117855562000139565b8280016001018555821562000139579182015b82811115620001395782518255916020019190600101906200011c565b50620001479291506200014b565b5090565b5b808211156200014757600081556001016200014c565b6002810460018216806200017757607f821691505b602082108114156200019957634e487b7160e01b600052602260045260246000fd5b50919050565b6140b280620001af6000396000f3fe608060405234801561001057600080fd5b50600436106102915760003560e01c8063923108d911610160578063d81d0a15116100d8578063ef72f2761161008c578063f242432a11610071578063f242432a1461057a578063f5298aca1461058d578063f68ee90e146105a057610291565b8063ef72f27614610554578063f23a6e611461056757610291565b8063e1c28bef116100bd578063e1c28bef14610526578063e985e9c51461052e578063ed7aae2b1461054157610291565b8063d81d0a1514610500578063de0099a31461051357610291565b8063a7fc7a071161012f578063b429afeb11610114578063b429afeb146104c7578063b59a9128146104da578063bc197c81146104ed57610291565b8063a7fc7a0714610493578063b09afec1146104a657610291565b8063923108d91461043857806397a6a8ed14610458578063a0f8c6941461046d578063a22cb4651461048057610291565b80632eb2c2d61161020e578063740ec99e116101c25780637c881076116101a75780637c881076146103ff5780638d0335d1146104125780638e1b72cc1461042557610291565b8063740ec99e146103d7578063761604ab146103f757610291565b80635401982d116101f35780635401982d146103b45780635c975abb146103bc5780636b20c454146103c457610291565b80632eb2c2d6146103815780634e1273f41461039457610291565b80631338736f1161026557806315aef88a1161024a57806315aef88a1461033a5780632a55205a1461034d5780632e13e81e1461036e57610291565b80631338736f14610314578063156e29f61461032757610291565b8062fdd58e1461029657806301ffc9a7146102bf57806302aab086146102df5780630e89341c146102f4575b600080fd5b6102a96102a43660046130f4565b6105b3565b6040516102b69190613de5565b60405180910390f35b6102d26102cd366004613213565b61060d565b6040516102b69190613547565b6102f26102ed366004612eeb565b6106a2565b005b6103076103023660046132da565b610721565b6040516102b691906135a1565b6102f261032236600461336d565b6107d8565b6102f261033536600461311f565b61087a565b6102a96103483660046130f4565b610952565b61036061035b36600461336d565b610979565b6040516102b69291906134a9565b6102f261037c3660046132da565b6109f5565b6102f261038f366004612f3f565b610aa6565b6103a76103a2366004613153565b610b04565b6040516102b6919061350f565b6102a9610c24565b6102d2610c2b565b6102f26103d2366004613050565b610c34565b6103ea6103e536600461336d565b610c82565b6040516102b691906133f4565b6103ea610ccf565b6102f261040d366004613329565b610cde565b6103ea6104203660046132da565b610d97565b6102f26104333660046132f2565b610dd8565b61044b6104463660046132da565b610e4e565b6040516102b691906134c2565b610460610ebd565b6040516102b69190613552565b6102a961047b366004612eeb565b610ee1565b6102f261048e3660046130c3565b610eff565b6102f26104a1366004612eeb565b610fcd565b6104b96104b43660046132da565b61102f565b6040516102b6929190613567565b6102d26104d5366004612eeb565b61105e565b6102a96104e83660046130f4565b61107c565b6104606104fb366004612f3f565b6110ca565b6102f261050e366004613050565b6110db565b6103a7610521366004612eeb565b61115a565b6102f26111c8565b6102d261053c366004612f07565b61121f565b6102a961054f3660046132da565b611346565b6102f2610562366004612eeb565b611358565b610460610575366004612fe9565b6113ac565b6102f2610588366004612fe9565b6113bd565b6102f261059b36600461311f565b611414565b6102a96105ae3660046132da565b61145d565b60006001600160a01b0383166105e45760405162461bcd60e51b81526004016105db9061366e565b60405180910390fd5b506000818152602081815260408083206001600160a01b03861684529091529020545b92915050565b60006001600160e01b031982167fd9b67a2600000000000000000000000000000000000000000000000000000000148061067057506001600160e01b031982167f2a55205a00000000000000000000000000000000000000000000000000000000145b8061068b57506001600160e01b031982166303a24d0760e21b145b8061069a575061069a82611472565b90505b919050565b6007546001600160a01b031633146106cc5760405162461bcd60e51b81526004016105db906136cb565b6001600160a01b0381166106f25760405162461bcd60e51b81526004016105db906136cb565b6007805473ffffffffffffffffffffffffffffffffffffffff19166001600160a01b0392909216919091179055565b60008181526009602052604090205460609061074f5760405162461bcd60e51b81526004016105db90613ab5565b6040516303a24d0760e21b815261069a903090630e89341c90610776908690600401613de5565b60006040518083038186803b15801561078e57600080fd5b505afa1580156107a2573d6000803e3d6000fd5b505050506040513d6000823e601f3d908101601f191682016040526107ca9190810190613267565b6107d3846114b0565b6115fd565b80600a60006107e5611639565b6001600160a01b03166001600160a01b03168152602001908152602001600020600084815260200190815260200160002054106108345760405162461bcd60e51b81526004016105db90613967565b80600a6000610841611639565b6001600160a01b03166001600160a01b031681526020019081526020016000206000848152602001908152602001600020819055505050565b3360009081526004602052604090205460ff1615156001148061089c57503033145b6108b85760405162461bcd60e51b81526004016105db90613b12565b6108f98383836040518060400160405280600381526020017f307830000000000000000000000000000000000000000000000000000000000081525061163d565b50604080518082018252338152620186a06020808301918252600094855260089052919092209151825473ffffffffffffffffffffffffffffffffffffffff19166001600160a01b039091161782555160019091015550565b6001600160a01b039091166000908152600a60209081526040808320938352929052205490565b60008281526008602052604081205481906001600160a01b03166109af5760405162461bcd60e51b81526004016105db90613cf4565b600084815260086020526040902080546001909101546001600160a01b0390911690620f4240906109e09086613e9e565b6109ea9190613e8a565b915091509250929050565b6007546001600160a01b0316331480610a2257503360009081526004602052604090205460ff1615156001145b610a3e5760405162461bcd60e51b81526004016105db906136cb565b6006548110610a5f5760405162461bcd60e51b81526004016105db90613819565b610aa360056001018281548110610a8657634e487b7160e01b600052603260045260246000fd5b6000918252602090912001546005906001600160a01b031661164f565b50565b610aae611639565b6001600160a01b0316856001600160a01b03161480610ad45750610ad48561053c611639565b610af05760405162461bcd60e51b81526004016105db9061390a565b610afd85858585856117d6565b5050505050565b60608151835114610b275760405162461bcd60e51b81526004016105db90613c3a565b6000835167ffffffffffffffff811115610b5157634e487b7160e01b600052604160045260246000fd5b604051908082528060200260200182016040528015610b7a578160200160208202803683370190505b50905060005b8451811015610c1c57610be1858281518110610bac57634e487b7160e01b600052603260045260246000fd5b6020026020010151858381518110610bd457634e487b7160e01b600052603260045260246000fd5b60200260200101516105b3565b828281518110610c0157634e487b7160e01b600052603260045260246000fd5b6020908102919091010152610c1581613f17565b9050610b80565b509392505050565b6006545b90565b60035460ff1690565b3360009081526004602052604090205460ff16151560011480610c5657503033145b610c725760405162461bcd60e51b81526004016105db90613b12565b610c7d8383836119a7565b505050565b6000828152600c60205260408120600101805483908110610cb357634e487b7160e01b600052603260045260246000fd5b6000918252602090912001546001600160a01b03169392505050565b6007546001600160a01b031690565b3360009081526004602052604090205460ff16151560011480610d0057503033145b610d1c5760405162461bcd60e51b81526004016105db90613b12565b6000838152600d60205260409020805483919060ff19166001836002811115610d5557634e487b7160e01b600052602160045260246000fd5b02179055506000928352600e6020526040909220805473ffffffffffffffffffffffffffffffffffffffff19166001600160a01b039093169290921790915550565b600060056001018281548110610dbd57634e487b7160e01b600052603260045260246000fd5b6000918252602090912001546001600160a01b031692915050565b6000838152600860205260409020546001600160a01b03163314610e0e5760405162461bcd60e51b81526004016105db90613b6f565b600092835260086020526040909220805473ffffffffffffffffffffffffffffffffffffffff19166001600160a01b039290921691909117815560010155565b6000818152600c6020908152604091829020600101805483518184028101840190945280845260609392830182828015610eb157602002820191906000526020600020905b81546001600160a01b03168152600190910190602001808311610e93575b50505050509050919050565b7f2a55205a0000000000000000000000000000000000000000000000000000000081565b6001600160a01b03166000908152600b602052604090206001015490565b816001600160a01b0316610f11611639565b6001600160a01b03161415610f385760405162461bcd60e51b81526004016105db90613bdd565b8060016000610f45611639565b6001600160a01b03908116825260208083019390935260409182016000908120918716808252919093529120805460ff191692151592909217909155610f89611639565b6001600160a01b03167f17307eab39ab6107e8899845ad3d59bd9653f200f220920489ca2b5937696c3183604051610fc19190613547565b60405180910390a35050565b3360009081526004602052604090205460ff16151560011480610fef57503033145b61100b5760405162461bcd60e51b81526004016105db90613b12565b6001600160a01b03166000908152600460205260409020805460ff19166001179055565b6000908152600d6020908152604080832054600e9092529091205460ff909116916001600160a01b0390911690565b6001600160a01b031660009081526004602052604090205460ff1690565b6001600160a01b0382166000908152600b602052604081206001018054839081106110b757634e487b7160e01b600052603260045260246000fd5b9060005260206000200154905092915050565b63bc197c8160e01b95945050505050565b3360009081526004602052604090205460ff161515600114806110fd57503033145b6111195760405162461bcd60e51b81526004016105db90613b12565b610c7d8383836040518060400160405280600381526020017f30783000000000000000000000000000000000000000000000000000000000008152506119b2565b6001600160a01b0381166000908152600b6020908152604091829020600101805483518184028101840190945280845260609392830182828015610eb157602002820191906000526020600020905b8154815260200190600101908083116111a95750505050509050919050565b3360009081526004602052604090205460ff161515600114806111ea57503033145b6112065760405162461bcd60e51b81526004016105db90613b12565b336000908152600460205260409020805460ff19169055565b6000805b6006548110156113345760006005600101828154811061125357634e487b7160e01b600052603260045260246000fd5b6000918252602090912001546040517fc45527910000000000000000000000000000000000000000000000000000000081526001600160a01b039091169150819063c4552791906112a89088906004016133f4565b60206040518083038186803b1580156112c057600080fd5b505afa9250505080156112f0575060408051601f3d908101601f191682019092526112ed9181019061324b565b60015b6112f957611321565b846001600160a01b0316816001600160a01b0316141561131f5760019350505050610607565b505b508061132c81613f17565b915050611223565b5061133f83836119be565b9392505050565b60009081526009602052604090205490565b6007546001600160a01b031633148061138557503360009081526004602052604090205460ff1615156001145b6113a15760405162461bcd60e51b81526004016105db906136cb565b610aa36005826119ec565b63f23a6e6160e01b95945050505050565b6113c5611639565b6001600160a01b0316856001600160a01b031614806113eb57506113eb8561053c611639565b6114075760405162461bcd60e51b81526004016105db906137bc565b610afd8585858585611a78565b3360009081526004602052604090205460ff1615156001148061143657503033145b6114525760405162461bcd60e51b81526004016105db90613b12565b610c7d838383611bbb565b6000908152600c602052604090206001015490565b60006001600160e01b031982167f4e2312e000000000000000000000000000000000000000000000000000000000148061069a575061069a82611bc6565b6060816114f1575060408051808201909152600181527f3000000000000000000000000000000000000000000000000000000000000000602082015261069d565b8160005b811561151b578061150581613f17565b91506115149050600a83613e8a565b91506114f5565b60008167ffffffffffffffff81111561154457634e487b7160e01b600052604160045260246000fd5b6040519080825280601f01601f19166020018201604052801561156e576020820181803683370190505b509050600061157e600184613ebd565b90505b85156115f457611592600a87613f32565b61159d906030613e72565b60f81b82826115ab81613f00565b9350815181106115cb57634e487b7160e01b600052603260045260246000fd5b60200101906001600160f81b031916908160001a9053506115ed600a87613e8a565b9550611581565b50949350505050565b606061133f8383604051806020016040528060008152506040518060200160405280600081525060405180602001604052806000815250611c1f565b3390565b61164984848484612016565b50505050565b61165982826120f6565b6116755760405162461bcd60e51b81526004016105db906139fb565b61167f82826120f6565b611688576117d2565b6000600161169584612165565b61169f9190613ebd565b6001600160a01b0383166000908152602085905260409020549091508082146117665760008460010183815481106116e757634e487b7160e01b600052603260045260246000fd5b60009182526020808320909101546001600160a01b031680835290879052604090912083905560018601805491925082918490811061173657634e487b7160e01b600052603260045260246000fd5b9060005260206000200160006101000a8154816001600160a01b0302191690836001600160a01b03160217905550505b6001600160a01b038316600090815260208590526040812055600184018054806117a057634e487b7160e01b600052603160045260246000fd5b6000828152602090208101600019908101805473ffffffffffffffffffffffffffffffffffffffff1916905501905550505b5050565b81518351146117f75760405162461bcd60e51b81526004016105db90613c97565b6001600160a01b03841661181d5760405162461bcd60e51b81526004016105db906138ad565b6000611827611639565b905061183781878787878761216c565b60005b845181101561193957600085828151811061186557634e487b7160e01b600052603260045260246000fd5b60200260200101519050600085838151811061189157634e487b7160e01b600052603260045260246000fd5b602090810291909101810151600084815280835260408082206001600160a01b038e1683529093529190912054909150818110156118e15760405162461bcd60e51b81526004016105db90613a58565b6000838152602081815260408083206001600160a01b038e8116855292528083208585039055908b1682528120805484929061191e908490613e72565b925050819055505050508061193290613f17565b905061183a565b50846001600160a01b0316866001600160a01b0316826001600160a01b03167f4a39dc06d4c0dbc64b70af90fd698a233a518aa5d07e595d983b8c0526c8f7fb8787604051611989929190613522565b60405180910390a461199f818787878787612585565b505050505050565b610c7d838383612693565b61164984848484612844565b6001600160a01b03918216600090815260016020908152604080832093909416825291909152205460ff1690565b6119f682826120f6565b15611a135760405162461bcd60e51b81526004016105db90613d88565b60018281018054808301825560008281526020902001805473ffffffffffffffffffffffffffffffffffffffff19166001600160a01b03851617905554611a5a9190613ebd565b6001600160a01b039091166000908152602092909252604090912055565b6001600160a01b038416611a9e5760405162461bcd60e51b81526004016105db906138ad565b6000611aa8611639565b9050611ac8818787611ab9886129c5565b611ac2886129c5565b8761216c565b6000848152602081815260408083206001600160a01b038a16845290915290205483811015611b095760405162461bcd60e51b81526004016105db90613a58565b6000858152602081815260408083206001600160a01b038b8116855292528083208785039055908816825281208054869290611b46908490613e72565b92505081905550856001600160a01b0316876001600160a01b0316836001600160a01b03167fc3d58168c5ae7397731d063d5bbf3d657854427343f4c083240f7aacaa2d0f628888604051611b9c929190613dee565b60405180910390a4611bb2828888888888612a1e565b50505050505050565b610c7d838383612aef565b60006001600160e01b031982167fd9b67a26000000000000000000000000000000000000000000000000000000001480611c1057506001600160e01b031982166303a24d0760e21b145b8061069a575061069a82612bfe565b805182518451865188516060948a948a948a948a948a94600094909390929091611c499190613e72565b611c539190613e72565b611c5d9190613e72565b611c679190613e72565b67ffffffffffffffff811115611c8d57634e487b7160e01b600052604160045260246000fd5b6040519080825280601f01601f191660200182016040528015611cb7576020820181803683370190505b509050806000805b8851811015611d6357888181518110611ce857634e487b7160e01b600052603260045260246000fd5b01602001517fff00000000000000000000000000000000000000000000000000000000000000168383611d1a81613f17565b945081518110611d3a57634e487b7160e01b600052603260045260246000fd5b60200101906001600160f81b031916908160001a90535080611d5b81613f17565b915050611cbf565b5060005b8751811015611e0b57878181518110611d9057634e487b7160e01b600052603260045260246000fd5b01602001517fff00000000000000000000000000000000000000000000000000000000000000168383611dc281613f17565b945081518110611de257634e487b7160e01b600052603260045260246000fd5b60200101906001600160f81b031916908160001a90535080611e0381613f17565b915050611d67565b5060005b8651811015611eb357868181518110611e3857634e487b7160e01b600052603260045260246000fd5b01602001517fff00000000000000000000000000000000000000000000000000000000000000168383611e6a81613f17565b945081518110611e8a57634e487b7160e01b600052603260045260246000fd5b60200101906001600160f81b031916908160001a90535080611eab81613f17565b915050611e0f565b5060005b8551811015611f5b57858181518110611ee057634e487b7160e01b600052603260045260246000fd5b01602001517fff00000000000000000000000000000000000000000000000000000000000000168383611f1281613f17565b945081518110611f3257634e487b7160e01b600052603260045260246000fd5b60200101906001600160f81b031916908160001a90535080611f5381613f17565b915050611eb7565b5060005b845181101561200357848181518110611f8857634e487b7160e01b600052603260045260246000fd5b01602001517fff00000000000000000000000000000000000000000000000000000000000000168383611fba81613f17565b945081518110611fda57634e487b7160e01b600052603260045260246000fd5b60200101906001600160f81b031916908160001a90535080611ffb81613f17565b915050611f5f565b50909d9c50505050505050505050505050565b6001600160a01b03841661203c5760405162461bcd60e51b81526004016105db90613d2b565b6000612046611639565b905061205881600087611ab9886129c5565b6000848152602081815260408083206001600160a01b038916845290915281208054859290612088908490613e72565b92505081905550846001600160a01b031660006001600160a01b0316826001600160a01b03167fc3d58168c5ae7397731d063d5bbf3d657854427343f4c083240f7aacaa2d0f6287876040516120df929190613dee565b60405180910390a4610afd81600087878787612a1e565b600182015460009061210a57506000610607565b6001600160a01b038216600081815260208590526040902054600185018054909190811061214857634e487b7160e01b600052603260045260246000fd5b6000918252602090912001546001600160a01b0316149392505050565b6001015490565b61217a868686868686612c30565b60005b8351811015611bb2576001600160a01b03861615612207576001600160a01b0386166000908152600a6020526040812085514292908790859081106121d257634e487b7160e01b600052603260045260246000fd5b602002602001015181526020019081526020016000205411156122075760405162461bcd60e51b81526004016105db90613ba6565b6001600160a01b03861615801590612268575082818151811061223a57634e487b7160e01b600052603260045260246000fd5b602002602001015161226687868481518110610bd457634e487b7160e01b600052603260045260246000fd5b145b15612317576122cb84828151811061229057634e487b7160e01b600052603260045260246000fd5b6020026020010151600b6000896001600160a01b03166001600160a01b03168152602001908152602001600020612c6390919063ffffffff16565b61231786600c60008785815181106122f357634e487b7160e01b600052603260045260246000fd5b6020026020010151815260200190815260200160002061164f90919063ffffffff16565b6001600160a01b03851615801590612350575061234e85858381518110610bd457634e487b7160e01b600052603260045260246000fd5b155b156123ff576123b384828151811061237857634e487b7160e01b600052603260045260246000fd5b6020026020010151600b6000886001600160a01b03166001600160a01b03168152602001908152602001600020612d7490919063ffffffff16565b6123ff85600c60008785815181106123db57634e487b7160e01b600052603260045260246000fd5b602002602001015181526020019081526020016000206119ec90919063ffffffff16565b6001600160a01b0386166124b95782818151811061242d57634e487b7160e01b600052603260045260246000fd5b60200260200101516009600086848151811061245957634e487b7160e01b600052603260045260246000fd5b602002602001015181526020019081526020016000205461247a9190613e72565b6009600086848151811061249e57634e487b7160e01b600052603260045260246000fd5b60200260200101518152602001908152602001600020819055505b6001600160a01b038516612573578281815181106124e757634e487b7160e01b600052603260045260246000fd5b60200260200101516009600086848151811061251357634e487b7160e01b600052603260045260246000fd5b60200260200101518152602001908152602001600020546125349190613ebd565b6009600086848151811061255857634e487b7160e01b600052603260045260246000fd5b60200260200101518152602001908152602001600020819055505b8061257d81613f17565b91505061217d565b612597846001600160a01b0316612dd1565b1561199f5760405163bc197c8160e01b81526001600160a01b0385169063bc197c81906125d09089908990889088908890600401613408565b602060405180830381600087803b1580156125ea57600080fd5b505af192505050801561261a575060408051601f3d908101601f191682019092526126179181019061322f565b60015b61266357612626613f8e565b80612631575061264b565b8060405162461bcd60e51b81526004016105db91906135a1565b60405162461bcd60e51b81526004016105db906135b4565b6001600160e01b0319811663bc197c8160e01b14611bb25760405162461bcd60e51b81526004016105db90613611565b6001600160a01b0383166126b95760405162461bcd60e51b81526004016105db9061399e565b80518251146126da5760405162461bcd60e51b81526004016105db90613c97565b60006126e4611639565b90506127048185600086866040518060200160405280600081525061216c565b60005b83518110156127e557600084828151811061273257634e487b7160e01b600052603260045260246000fd5b60200260200101519050600084838151811061275e57634e487b7160e01b600052603260045260246000fd5b602090810291909101810151600084815280835260408082206001600160a01b038c1683529093529190912054909150818110156127ae5760405162461bcd60e51b81526004016105db90613702565b6000928352602083815260408085206001600160a01b038b16865290915290922091039055806127dd81613f17565b915050612707565b5060006001600160a01b0316846001600160a01b0316826001600160a01b03167f4a39dc06d4c0dbc64b70af90fd698a233a518aa5d07e595d983b8c0526c8f7fb8686604051612836929190613522565b60405180910390a450505050565b6001600160a01b03841661286a5760405162461bcd60e51b81526004016105db90613d2b565b815183511461288b5760405162461bcd60e51b81526004016105db90613c97565b6000612895611639565b90506128a68160008787878761216c565b60005b845181101561295d578381815181106128d257634e487b7160e01b600052603260045260246000fd5b60200260200101516000808784815181106128fd57634e487b7160e01b600052603260045260246000fd5b602002602001015181526020019081526020016000206000886001600160a01b03166001600160a01b0316815260200190815260200160002060008282546129459190613e72565b9091555081905061295581613f17565b9150506128a9565b50846001600160a01b031660006001600160a01b0316826001600160a01b03167f4a39dc06d4c0dbc64b70af90fd698a233a518aa5d07e595d983b8c0526c8f7fb87876040516129ae929190613522565b60405180910390a4610afd81600087878787612585565b60408051600180825281830190925260609160009190602080830190803683370190505090508281600081518110612a0d57634e487b7160e01b600052603260045260246000fd5b602090810291909101015292915050565b612a30846001600160a01b0316612dd1565b1561199f5760405163f23a6e6160e01b81526001600160a01b0385169063f23a6e6190612a699089908990889088908890600401613466565b602060405180830381600087803b158015612a8357600080fd5b505af1925050508015612ab3575060408051601f3d908101601f19168201909252612ab09181019061322f565b60015b612abf57612626613f8e565b6001600160e01b0319811663f23a6e6160e01b14611bb25760405162461bcd60e51b81526004016105db90613611565b6001600160a01b038316612b155760405162461bcd60e51b81526004016105db9061399e565b6000612b1f611639565b9050612b4f81856000612b31876129c5565b612b3a876129c5565b6040518060200160405280600081525061216c565b6000838152602081815260408083206001600160a01b038816845290915290205482811015612b905760405162461bcd60e51b81526004016105db90613702565b6000848152602081815260408083206001600160a01b03808a16808652919093528184208786039055905190918516907fc3d58168c5ae7397731d063d5bbf3d657854427343f4c083240f7aacaa2d0f6290612bef9089908990613dee565b60405180910390a45050505050565b6001600160e01b031981167f01ffc9a70000000000000000000000000000000000000000000000000000000014919050565b612c3e86868686868661199f565b612c46610c2b565b1561199f5760405162461bcd60e51b81526004016105db9061375f565b612c6d8282612dd7565b612c76576117d2565b60006001612c8384612165565b612c8d9190613ebd565b600083815260208590526040902054909150808214612d24576000846001018381548110612ccb57634e487b7160e01b600052603260045260246000fd5b90600052602060002001549050818560000160008381526020019081526020016000208190555080856001018381548110612d1657634e487b7160e01b600052603260045260246000fd5b600091825260209091200155505b600083815260208590526040812055600180850180549091612d4591613ebd565b81548110612d6357634e487b7160e01b600052603260045260246000fd5b600091825260208220015550505050565b612d7e8282612dd7565b15612d9b5760405162461bcd60e51b81526004016105db90613850565b6001808301805480830182556000828152602090200183905554612dbf9190613ebd565b60009182526020929092526040902055565b3b151590565b6001820154600090612deb57506000610607565b6000828152602084905260409020546001840180548492908110612e1f57634e487b7160e01b600052603260045260246000fd5b906000526020600020015414905092915050565b600082601f830112612e43578081fd5b81356020612e58612e5383613e26565b613dfc565b8281528181019085830183850287018401881015612e74578586fd5b855b85811015612e9257813584529284019290840190600101612e76565b5090979650505050505050565b600082601f830112612eaf578081fd5b8135612ebd612e5382613e4a565b818152846020838601011115612ed1578283fd5b816020850160208301379081016020019190915292915050565b600060208284031215612efc578081fd5b813561133f81614051565b60008060408385031215612f19578081fd5b8235612f2481614051565b91506020830135612f3481614051565b809150509250929050565b600080600080600060a08688031215612f56578081fd5b8535612f6181614051565b94506020860135612f7181614051565b9350604086013567ffffffffffffffff80821115612f8d578283fd5b612f9989838a01612e33565b94506060880135915080821115612fae578283fd5b612fba89838a01612e33565b93506080880135915080821115612fcf578283fd5b50612fdc88828901612e9f565b9150509295509295909350565b600080600080600060a08688031215613000578081fd5b853561300b81614051565b9450602086013561301b81614051565b93506040860135925060608601359150608086013567ffffffffffffffff811115613044578182fd5b612fdc88828901612e9f565b600080600060608486031215613064578283fd5b833561306f81614051565b9250602084013567ffffffffffffffff8082111561308b578384fd5b61309787838801612e33565b935060408601359150808211156130ac578283fd5b506130b986828701612e33565b9150509250925092565b600080604083850312156130d5578182fd5b82356130e081614051565b915060208301358015158114612f34578182fd5b60008060408385031215613106578182fd5b823561311181614051565b946020939093013593505050565b600080600060608486031215613133578081fd5b833561313e81614051565b95602085013595506040909401359392505050565b60008060408385031215613165578182fd5b823567ffffffffffffffff8082111561317c578384fd5b818501915085601f83011261318f578384fd5b8135602061319f612e5383613e26565b82815281810190858301838502870184018b10156131bb578889fd5b8896505b848710156131e65780356131d281614051565b8352600196909601959183019183016131bf565b50965050860135925050808211156131fc578283fd5b5061320985828601612e33565b9150509250929050565b600060208284031215613224578081fd5b813561133f81614066565b600060208284031215613240578081fd5b815161133f81614066565b60006020828403121561325c578081fd5b815161133f81614051565b600060208284031215613278578081fd5b815167ffffffffffffffff81111561328e578182fd5b8201601f8101841361329e578182fd5b80516132ac612e5382613e4a565b8181528560208385010111156132c0578384fd5b6132d1826020830160208601613ed4565b95945050505050565b6000602082840312156132eb578081fd5b5035919050565b600080600060608486031215613306578081fd5b83359250602084013561331881614051565b929592945050506040919091013590565b60008060006060848603121561333d578081fd5b83359250602084013560038110613352578182fd5b9150604084013561336281614051565b809150509250925092565b6000806040838503121561337f578182fd5b50508035926020909101359150565b6000815180845260208085019450808401835b838110156133bd578151875295820195908201906001016133a1565b509495945050505050565b600081518084526133e0816020860160208601613ed4565b601f01601f19169290920160200192915050565b6001600160a01b0391909116815260200190565b60006001600160a01b03808816835280871660208401525060a0604083015261343460a083018661338e565b8281036060840152613446818661338e565b9050828103608084015261345a81856133c8565b98975050505050505050565b60006001600160a01b03808816835280871660208401525084604083015283606083015260a0608083015261349e60a08301846133c8565b979650505050505050565b6001600160a01b03929092168252602082015260400190565b6020808252825182820181905260009190848201906040850190845b818110156135035783516001600160a01b0316835292840192918401916001016134de565b50909695505050505050565b60006020825261133f602083018461338e565b600060408252613535604083018561338e565b82810360208401526132d1818561338e565b901515815260200190565b6001600160e01b031991909116815260200190565b604081016003841061358957634e487b7160e01b600052602160045260246000fd5b9281526001600160a01b039190911660209091015290565b60006020825261133f60208301846133c8565b60208082526034908201527f455243313135353a207472616e7366657220746f206e6f6e204552433131353560408201527f526563656976657220696d706c656d656e746572000000000000000000000000606082015260800190565b60208082526028908201527f455243313135353a204552433131353552656365697665722072656a6563746560408201527f6420746f6b656e73000000000000000000000000000000000000000000000000606082015260800190565b6020808252602b908201527f455243313135353a2062616c616e636520717565727920666f7220746865207a60408201527f65726f2061646472657373000000000000000000000000000000000000000000606082015260800190565b6020808252600c908201527f554e415554484f52495a45440000000000000000000000000000000000000000604082015260600190565b60208082526024908201527f455243313135353a206275726e20616d6f756e7420657863656564732062616c60408201527f616e636500000000000000000000000000000000000000000000000000000000606082015260800190565b6020808252602c908201527f455243313135355061757361626c653a20746f6b656e207472616e736665722060408201527f7768696c65207061757365640000000000000000000000000000000000000000606082015260800190565b60208082526029908201527f455243313135353a2063616c6c6572206973206e6f74206f776e6572206e6f7260408201527f20617070726f7665640000000000000000000000000000000000000000000000606082015260800190565b6020808252600d908201527f494e56414c49445f494e44455800000000000000000000000000000000000000604082015260600190565b6020808252602a908201527f55496e743235365365743a206b657920616c726561647920657869737473206960408201527f6e20746865207365742e00000000000000000000000000000000000000000000606082015260800190565b60208082526025908201527f455243313135353a207472616e7366657220746f20746865207a65726f20616460408201527f6472657373000000000000000000000000000000000000000000000000000000606082015260800190565b60208082526032908201527f455243313135353a207472616e736665722063616c6c6572206973206e6f742060408201527f6f776e6572206e6f7220617070726f7665640000000000000000000000000000606082015260800190565b6020808252600e908201527f414c52454144595f4c4f434b4544000000000000000000000000000000000000604082015260600190565b60208082526023908201527f455243313135353a206275726e2066726f6d20746865207a65726f206164647260408201527f6573730000000000000000000000000000000000000000000000000000000000606082015260800190565b6020808252602a908201527f416464726573735365743a206b657920646f6573206e6f74206578697374206960408201527f6e20746865207365742e00000000000000000000000000000000000000000000606082015260800190565b6020808252602a908201527f455243313135353a20696e73756666696369656e742062616c616e636520666f60408201527f72207472616e7366657200000000000000000000000000000000000000000000606082015260800190565b60208082526027908201527f4e465447656d4d756c7469546f6b656e237572693a204e4f4e4558495354454e60408201527f545f544f4b454e00000000000000000000000000000000000000000000000000606082015260800190565b60208082526028908201527f436f6e74726f6c6c61626c653a2063616c6c6572206973206e6f74206120636f60408201527f6e74726f6c6c6572000000000000000000000000000000000000000000000000606082015260800190565b6020808252600d908201527f494e56414c49445f4f574e455200000000000000000000000000000000000000604082015260600190565b6020808252600c908201527f544f4b454e5f4c4f434b45440000000000000000000000000000000000000000604082015260600190565b60208082526029908201527f455243313135353a2073657474696e6720617070726f76616c2073746174757360408201527f20666f722073656c660000000000000000000000000000000000000000000000606082015260800190565b60208082526029908201527f455243313135353a206163636f756e747320616e6420696473206c656e67746860408201527f206d69736d617463680000000000000000000000000000000000000000000000606082015260800190565b60208082526028908201527f455243313135353a2069647320616e6420616d6f756e7473206c656e6774682060408201527f6d69736d61746368000000000000000000000000000000000000000000000000606082015260800190565b6020808252600d908201527f4e4f5f535543485f544f4b454e00000000000000000000000000000000000000604082015260600190565b60208082526021908201527f455243313135353a206d696e7420746f20746865207a65726f2061646472657360408201527f7300000000000000000000000000000000000000000000000000000000000000606082015260800190565b6020808252602a908201527f416464726573735365743a206b657920616c726561647920657869737473206960408201527f6e20746865207365742e00000000000000000000000000000000000000000000606082015260800190565b90815260200190565b918252602082015260400190565b60405181810167ffffffffffffffff81118282101715613e1e57613e1e613f72565b604052919050565b600067ffffffffffffffff821115613e4057613e40613f72565b5060209081020190565b600067ffffffffffffffff821115613e6457613e64613f72565b50601f01601f191660200190565b60008219821115613e8557613e85613f46565b500190565b600082613e9957613e99613f5c565b500490565b6000816000190483118215151615613eb857613eb8613f46565b500290565b600082821015613ecf57613ecf613f46565b500390565b60005b83811015613eef578181015183820152602001613ed7565b838111156116495750506000910152565b600081613f0f57613f0f613f46565b506000190190565b6000600019821415613f2b57613f2b613f46565b5060010190565b600082613f4157613f41613f5c565b500690565b634e487b7160e01b600052601160045260246000fd5b634e487b7160e01b600052601260045260246000fd5b634e487b7160e01b600052604160045260246000fd5b60e01c90565b600060443d1015613f9e57610c28565b600481823e6308c379a0613fb28251613f88565b14613fbc57610c28565b6040517ffffffffffffffffffffffffffffffffffffffffffffffffffffffffffffffffc3d016004823e80513d67ffffffffffffffff816024840111818411171561400a5750505050610c28565b828401925082519150808211156140245750505050610c28565b503d8301602082840101111561403c57505050610c28565b601f01601f1916810160200160405291505090565b6001600160a01b0381168114610aa357600080fd5b6001600160e01b031981168114610aa357600080fdfea264697066735822122054c7984192478951dc1674dbff89ec9bbc501530023ea452185df2565a9f388f64736f6c63430008000033",
  "libraries": {
    "Strings": "0xeB3E79099663eC952e02E608E00d463F36b4Fb75",
    "AddressSet": "0x8974D57fCfF9C10E9d41709da86d006604D8c75d",
    "UInt256Set": "0x8B6893DB13b55d4952a51d5188215e2a470515a9",
    "Create2": "0xBa85d3e8E0F9e48F5c21649d33f6d0f9Af12E3f5",
    "WrappedTokenLib": "0x0307a2E913FD8fb384a939Cfb7655C30820727D8",
    "ComplexPoolLib": "0x3802c9d35c585ac6668e24A93Bb341D50662aA4E"
  },
  "devdoc": {
    "details": "the primary multitoken contract",
    "kind": "dev",
    "methods": {
      "addController(address)": {
        "details": "Add an address allowed to control this contract"
      },
      "addProxyRegistry(address)": {
        "details": "add a proxy registry to the list"
      },
      "allHeldTokens(address,uint256)": {
        "details": "held token at index for token holder"
      },
      "allHeldTokensLength(address)": {
        "details": "Returns the count of held tokens for the token holder"
      },
      "allProxyRegistries(uint256)": {
        "details": "Returns proxy registry at index"
      },
      "allProxyRegistriesLength()": {
        "details": "a count of proxy registries"
      },
      "allTokenHolders(uint256,uint256)": {
        "details": "token holder at index for token id"
      },
      "allTokenHoldersLength(uint256)": {
        "details": "Returns the count of token holders for the held token"
      },
      "balanceOf(address,uint256)": {
        "details": "See {IERC1155-balanceOf}. Requirements: - `account` cannot be the zero address."
      },
      "balanceOfBatch(address[],uint256[])": {
        "details": "See {IERC1155-balanceOfBatch}. Requirements: - `accounts` and `ids` must have the same length."
      },
      "burn(address,uint256,uint256)": {
        "details": "burn some amount of tokens. Only callable by token owner"
      },
      "burnBatch(address,uint256[],uint256[])": {
        "details": "burn some amount of tokens of multiple token types of account. Only callable by token owner"
      },
      "constructor": {
        "details": "Contract initializer."
      },
      "getRegistryManager()": {
        "details": "Returns the registyry manager account"
      },
      "getTokenData(uint256)": {
        "details": "get the token data for this token tokenhash"
      },
      "heldTokens(address)": {
        "details": "returns an array of held tokens for the token holder"
      },
      "isApprovedForAll(address,address)": {
        "details": "override base functionality to check proxy registries for approvers"
      },
      "isController(address)": {
        "details": "Check if this address is a controller"
      },
      "lock(uint256,uint256)": {
        "details": "timelock the tokens from moving until the given time"
      },
      "mint(address,uint256,uint256)": {
        "details": "mint some amount of tokens. Only callable by token owner"
      },
      "mintBatch(address,uint256[],uint256[])": {
        "details": "mint some amount of tokens to multiple recipients. Only callable by token owner"
      },
      "paused()": {
        "details": "Returns true if the contract is paused, and false otherwise."
      },
      "relinquishControl()": {
        "details": "Remove the sender address from the list of controllers"
      },
      "removeProxyRegistryAt(uint256)": {
        "details": "remove the proxy registry from the list at index"
      },
      "royaltyInfo(uint256,uint256)": {
        "details": "ierc2981"
      },
      "safeBatchTransferFrom(address,address,uint256[],uint256[],bytes)": {
        "details": "See {IERC1155-safeBatchTransferFrom}."
      },
      "safeTransferFrom(address,address,uint256,uint256,bytes)": {
        "details": "See {IERC1155-safeTransferFrom}."
      },
      "setApprovalForAll(address,bool)": {
        "details": "See {IERC1155-setApprovalForAll}."
      },
      "setRegistryManager(address)": {
        "details": "set the registry manager account"
      },
      "setRoyaltyInfo(uint256,address,uint256)": {
        "details": "Update the royalty info. only callable by the royalty owner."
      },
      "setTokenData(uint256,uint8,address)": {
        "details": "set the data for this tokenhash. points to a token type (1 = claim, 2 = gem) and token pool address"
      },
      "supportsInterface(bytes4)": {
        "details": "See {IERC165-supportsInterface}."
      },
      "tokenHolders(uint256)": {
        "details": "Returns an array of token holders for the given token id"
      },
      "totalBalances(uint256)": {
        "details": "Returns the total balance minted of this type"
      },
      "unlockTime(address,uint256)": {
        "details": "unlock time for token / id"
      },
      "uri(uint256)": {
        "details": "Returns the metadata URI for this token type"
      }
    },
    "version": 1
  },
  "userdoc": {
    "kind": "user",
    "methods": {},
    "version": 1
  },
  "storageLayout": {
    "storage": [
      {
        "astId": 163,
        "contract": "src/tokens/NFTGemMultiToken.sol:NFTGemMultiToken",
        "label": "_balances",
        "offset": 0,
        "slot": "0",
        "type": "t_mapping(t_uint256,t_mapping(t_address,t_uint256))"
      },
      {
        "astId": 169,
        "contract": "src/tokens/NFTGemMultiToken.sol:NFTGemMultiToken",
        "label": "_operatorApprovals",
        "offset": 0,
        "slot": "1",
        "type": "t_mapping(t_address,t_mapping(t_address,t_bool))"
      },
      {
        "astId": 171,
        "contract": "src/tokens/NFTGemMultiToken.sol:NFTGemMultiToken",
        "label": "_uri",
        "offset": 0,
        "slot": "2",
        "type": "t_string_storage"
      },
      {
        "astId": 63,
        "contract": "src/tokens/NFTGemMultiToken.sol:NFTGemMultiToken",
        "label": "_paused",
        "offset": 0,
        "slot": "3",
        "type": "t_bool"
      },
      {
        "astId": 12816,
        "contract": "src/tokens/NFTGemMultiToken.sol:NFTGemMultiToken",
        "label": "_controllers",
        "offset": 0,
        "slot": "4",
        "type": "t_mapping(t_address,t_bool)"
      },
      {
        "astId": 28541,
        "contract": "src/tokens/NFTGemMultiToken.sol:NFTGemMultiToken",
        "label": "proxyRegistries",
        "offset": 0,
        "slot": "5",
        "type": "t_struct(Set)16819_storage"
      },
      {
        "astId": 28543,
        "contract": "src/tokens/NFTGemMultiToken.sol:NFTGemMultiToken",
        "label": "registryManager",
        "offset": 0,
        "slot": "7",
        "type": "t_address"
      },
      {
        "astId": 28548,
        "contract": "src/tokens/NFTGemMultiToken.sol:NFTGemMultiToken",
        "label": "royaltyData",
        "offset": 0,
        "slot": "8",
        "type": "t_mapping(t_uint256,t_struct(Royalty)16118_storage)"
      },
      {
        "astId": 28552,
        "contract": "src/tokens/NFTGemMultiToken.sol:NFTGemMultiToken",
        "label": "_totalBalances",
        "offset": 0,
        "slot": "9",
        "type": "t_mapping(t_uint256,t_uint256)"
      },
      {
        "astId": 28558,
        "contract": "src/tokens/NFTGemMultiToken.sol:NFTGemMultiToken",
        "label": "_tokenLocks",
        "offset": 0,
        "slot": "10",
        "type": "t_mapping(t_address,t_mapping(t_uint256,t_uint256))"
      },
      {
        "astId": 28563,
        "contract": "src/tokens/NFTGemMultiToken.sol:NFTGemMultiToken",
        "label": "_heldTokens",
        "offset": 0,
        "slot": "11",
        "type": "t_mapping(t_address,t_struct(Set)17347_storage)"
      },
      {
        "astId": 28568,
        "contract": "src/tokens/NFTGemMultiToken.sol:NFTGemMultiToken",
        "label": "_tokenHolders",
        "offset": 0,
        "slot": "12",
        "type": "t_mapping(t_uint256,t_struct(Set)16819_storage)"
      },
      {
        "astId": 28573,
        "contract": "src/tokens/NFTGemMultiToken.sol:NFTGemMultiToken",
        "label": "_tokenTypes",
        "offset": 0,
        "slot": "13",
        "type": "t_mapping(t_uint256,t_enum(TokenType)16113)"
      },
      {
        "astId": 28577,
        "contract": "src/tokens/NFTGemMultiToken.sol:NFTGemMultiToken",
        "label": "_tokenPools",
        "offset": 0,
        "slot": "14",
        "type": "t_mapping(t_uint256,t_address)"
      }
    ],
    "types": {
      "t_address": {
        "encoding": "inplace",
        "label": "address",
        "numberOfBytes": "20"
      },
      "t_array(t_address)dyn_storage": {
        "base": "t_address",
        "encoding": "dynamic_array",
        "label": "address[]",
        "numberOfBytes": "32"
      },
      "t_array(t_uint256)dyn_storage": {
        "base": "t_uint256",
        "encoding": "dynamic_array",
        "label": "uint256[]",
        "numberOfBytes": "32"
      },
      "t_bool": {
        "encoding": "inplace",
        "label": "bool",
        "numberOfBytes": "1"
      },
      "t_enum(TokenType)16113": {
        "encoding": "inplace",
        "label": "enum INFTGemMultiToken.TokenType",
        "numberOfBytes": "1"
      },
      "t_mapping(t_address,t_bool)": {
        "encoding": "mapping",
        "key": "t_address",
        "label": "mapping(address => bool)",
        "numberOfBytes": "32",
        "value": "t_bool"
      },
      "t_mapping(t_address,t_mapping(t_address,t_bool))": {
        "encoding": "mapping",
        "key": "t_address",
        "label": "mapping(address => mapping(address => bool))",
        "numberOfBytes": "32",
        "value": "t_mapping(t_address,t_bool)"
      },
      "t_mapping(t_address,t_mapping(t_uint256,t_uint256))": {
        "encoding": "mapping",
        "key": "t_address",
        "label": "mapping(address => mapping(uint256 => uint256))",
        "numberOfBytes": "32",
        "value": "t_mapping(t_uint256,t_uint256)"
      },
      "t_mapping(t_address,t_struct(Set)17347_storage)": {
        "encoding": "mapping",
        "key": "t_address",
        "label": "mapping(address => struct UInt256Set.Set)",
        "numberOfBytes": "32",
        "value": "t_struct(Set)17347_storage"
      },
      "t_mapping(t_address,t_uint256)": {
        "encoding": "mapping",
        "key": "t_address",
        "label": "mapping(address => uint256)",
        "numberOfBytes": "32",
        "value": "t_uint256"
      },
      "t_mapping(t_uint256,t_address)": {
        "encoding": "mapping",
        "key": "t_uint256",
        "label": "mapping(uint256 => address)",
        "numberOfBytes": "32",
        "value": "t_address"
      },
      "t_mapping(t_uint256,t_enum(TokenType)16113)": {
        "encoding": "mapping",
        "key": "t_uint256",
        "label": "mapping(uint256 => enum INFTGemMultiToken.TokenType)",
        "numberOfBytes": "32",
        "value": "t_enum(TokenType)16113"
      },
      "t_mapping(t_uint256,t_mapping(t_address,t_uint256))": {
        "encoding": "mapping",
        "key": "t_uint256",
        "label": "mapping(uint256 => mapping(address => uint256))",
        "numberOfBytes": "32",
        "value": "t_mapping(t_address,t_uint256)"
      },
      "t_mapping(t_uint256,t_struct(Royalty)16118_storage)": {
        "encoding": "mapping",
        "key": "t_uint256",
        "label": "mapping(uint256 => struct INFTGemMultiToken.Royalty)",
        "numberOfBytes": "32",
        "value": "t_struct(Royalty)16118_storage"
      },
      "t_mapping(t_uint256,t_struct(Set)16819_storage)": {
        "encoding": "mapping",
        "key": "t_uint256",
        "label": "mapping(uint256 => struct AddressSet.Set)",
        "numberOfBytes": "32",
        "value": "t_struct(Set)16819_storage"
      },
      "t_mapping(t_uint256,t_uint256)": {
        "encoding": "mapping",
        "key": "t_uint256",
        "label": "mapping(uint256 => uint256)",
        "numberOfBytes": "32",
        "value": "t_uint256"
      },
      "t_string_storage": {
        "encoding": "bytes",
        "label": "string",
        "numberOfBytes": "32"
      },
      "t_struct(Royalty)16118_storage": {
        "encoding": "inplace",
        "label": "struct INFTGemMultiToken.Royalty",
        "members": [
          {
            "astId": 16115,
            "contract": "src/tokens/NFTGemMultiToken.sol:NFTGemMultiToken",
            "label": "owner",
            "offset": 0,
            "slot": "0",
            "type": "t_address"
          },
          {
            "astId": 16117,
            "contract": "src/tokens/NFTGemMultiToken.sol:NFTGemMultiToken",
            "label": "royaltyPermillion",
            "offset": 0,
            "slot": "1",
            "type": "t_uint256"
          }
        ],
        "numberOfBytes": "64"
      },
      "t_struct(Set)16819_storage": {
        "encoding": "inplace",
        "label": "struct AddressSet.Set",
        "members": [
          {
            "astId": 16815,
            "contract": "src/tokens/NFTGemMultiToken.sol:NFTGemMultiToken",
            "label": "keyPointers",
            "offset": 0,
            "slot": "0",
            "type": "t_mapping(t_address,t_uint256)"
          },
          {
            "astId": 16818,
            "contract": "src/tokens/NFTGemMultiToken.sol:NFTGemMultiToken",
            "label": "keyList",
            "offset": 0,
            "slot": "1",
            "type": "t_array(t_address)dyn_storage"
          }
        ],
        "numberOfBytes": "64"
      },
      "t_struct(Set)17347_storage": {
        "encoding": "inplace",
        "label": "struct UInt256Set.Set",
        "members": [
          {
            "astId": 17343,
            "contract": "src/tokens/NFTGemMultiToken.sol:NFTGemMultiToken",
            "label": "keyPointers",
            "offset": 0,
            "slot": "0",
            "type": "t_mapping(t_uint256,t_uint256)"
          },
          {
            "astId": 17346,
            "contract": "src/tokens/NFTGemMultiToken.sol:NFTGemMultiToken",
            "label": "keyList",
            "offset": 0,
            "slot": "1",
            "type": "t_array(t_uint256)dyn_storage"
          }
        ],
        "numberOfBytes": "64"
      },
      "t_uint256": {
        "encoding": "inplace",
        "label": "uint256",
        "numberOfBytes": "32"
      }
    }
  }
}