{
  "address": "0xf2d1d6a27DFb2944db1B43E32922A58bAB1AAfdb",
  "abi": [
    {
      "inputs": [],
      "stateMutability": "nonpayable",
      "type": "constructor"
    },
    {
      "anonymous": false,
      "inputs": [
        {
          "indexed": true,
          "internalType": "address",
          "name": "account",
          "type": "address"
        },
        {
          "indexed": true,
          "internalType": "address",
          "name": "operator",
          "type": "address"
        },
        {
          "indexed": false,
          "internalType": "bool",
          "name": "approved",
          "type": "bool"
        }
      ],
      "name": "ApprovalForAll",
      "type": "event"
    },
    {
      "anonymous": false,
      "inputs": [
        {
          "indexed": true,
          "internalType": "address",
          "name": "contractAddress",
          "type": "address"
        },
        {
          "indexed": true,
          "internalType": "address",
          "name": "controllerAddress",
          "type": "address"
        }
      ],
      "name": "ControllerAdded",
      "type": "event"
    },
    {
      "anonymous": false,
      "inputs": [
        {
          "indexed": true,
          "internalType": "address",
          "name": "contractAddress",
          "type": "address"
        },
        {
          "indexed": true,
          "internalType": "address",
          "name": "controllerAddress",
          "type": "address"
        }
      ],
      "name": "ControllerRemoved",
      "type": "event"
    },
    {
      "anonymous": false,
      "inputs": [
        {
          "indexed": false,
          "internalType": "address",
          "name": "account",
          "type": "address"
        }
      ],
      "name": "Paused",
      "type": "event"
    },
    {
      "anonymous": false,
      "inputs": [
        {
          "indexed": true,
          "internalType": "address",
          "name": "operator",
          "type": "address"
        },
        {
          "indexed": true,
          "internalType": "address",
          "name": "from",
          "type": "address"
        },
        {
          "indexed": true,
          "internalType": "address",
          "name": "to",
          "type": "address"
        },
        {
          "indexed": false,
          "internalType": "uint256[]",
          "name": "ids",
          "type": "uint256[]"
        },
        {
          "indexed": false,
          "internalType": "uint256[]",
          "name": "values",
          "type": "uint256[]"
        }
      ],
      "name": "TransferBatch",
      "type": "event"
    },
    {
      "anonymous": false,
      "inputs": [
        {
          "indexed": true,
          "internalType": "address",
          "name": "operator",
          "type": "address"
        },
        {
          "indexed": true,
          "internalType": "address",
          "name": "from",
          "type": "address"
        },
        {
          "indexed": true,
          "internalType": "address",
          "name": "to",
          "type": "address"
        },
        {
          "indexed": false,
          "internalType": "uint256",
          "name": "id",
          "type": "uint256"
        },
        {
          "indexed": false,
          "internalType": "uint256",
          "name": "value",
          "type": "uint256"
        }
      ],
      "name": "TransferSingle",
      "type": "event"
    },
    {
      "anonymous": false,
      "inputs": [
        {
          "indexed": false,
          "internalType": "string",
          "name": "value",
          "type": "string"
        },
        {
          "indexed": true,
          "internalType": "uint256",
          "name": "id",
          "type": "uint256"
        }
      ],
      "name": "URI",
      "type": "event"
    },
    {
      "anonymous": false,
      "inputs": [
        {
          "indexed": false,
          "internalType": "address",
          "name": "account",
          "type": "address"
        }
      ],
      "name": "Unpaused",
      "type": "event"
    },
    {
      "inputs": [
        {
          "internalType": "address",
          "name": "_controller",
          "type": "address"
        }
      ],
      "name": "addController",
      "outputs": [],
      "stateMutability": "nonpayable",
      "type": "function"
    },
    {
      "inputs": [
        {
          "internalType": "address",
          "name": "registry",
          "type": "address"
        }
      ],
      "name": "addProxyRegistry",
      "outputs": [],
      "stateMutability": "nonpayable",
      "type": "function"
    },
    {
      "inputs": [
        {
          "internalType": "address",
          "name": "holder",
          "type": "address"
        },
        {
          "internalType": "uint256",
          "name": "_idx",
          "type": "uint256"
        }
      ],
      "name": "allHeldTokens",
      "outputs": [
        {
          "internalType": "uint256",
          "name": "",
          "type": "uint256"
        }
      ],
      "stateMutability": "view",
      "type": "function"
    },
    {
      "inputs": [
        {
          "internalType": "address",
          "name": "holder",
          "type": "address"
        }
      ],
      "name": "allHeldTokensLength",
      "outputs": [
        {
          "internalType": "uint256",
          "name": "",
          "type": "uint256"
        }
      ],
      "stateMutability": "view",
      "type": "function"
    },
    {
      "inputs": [
        {
          "internalType": "uint256",
          "name": "_idx",
          "type": "uint256"
        }
      ],
      "name": "allProxyRegistries",
      "outputs": [
        {
          "internalType": "address",
          "name": "",
          "type": "address"
        }
      ],
      "stateMutability": "view",
      "type": "function"
    },
    {
      "inputs": [],
      "name": "allProxyRegistriesLength",
      "outputs": [
        {
          "internalType": "uint256",
          "name": "",
          "type": "uint256"
        }
      ],
      "stateMutability": "view",
      "type": "function"
    },
    {
      "inputs": [
        {
          "internalType": "uint256",
          "name": "_token",
          "type": "uint256"
        },
        {
          "internalType": "uint256",
          "name": "_idx",
          "type": "uint256"
        }
      ],
      "name": "allTokenHolders",
      "outputs": [
        {
          "internalType": "address",
          "name": "",
          "type": "address"
        }
      ],
      "stateMutability": "view",
      "type": "function"
    },
    {
      "inputs": [
        {
          "internalType": "uint256",
          "name": "_token",
          "type": "uint256"
        }
      ],
      "name": "allTokenHoldersLength",
      "outputs": [
        {
          "internalType": "uint256",
          "name": "",
          "type": "uint256"
        }
      ],
      "stateMutability": "view",
      "type": "function"
    },
    {
      "inputs": [
        {
          "internalType": "address",
          "name": "account",
          "type": "address"
        },
        {
          "internalType": "uint256",
          "name": "id",
          "type": "uint256"
        }
      ],
      "name": "balanceOf",
      "outputs": [
        {
          "internalType": "uint256",
          "name": "",
          "type": "uint256"
        }
      ],
      "stateMutability": "view",
      "type": "function"
    },
    {
      "inputs": [
        {
          "internalType": "address[]",
          "name": "accounts",
          "type": "address[]"
        },
        {
          "internalType": "uint256[]",
          "name": "ids",
          "type": "uint256[]"
        }
      ],
      "name": "balanceOfBatch",
      "outputs": [
        {
          "internalType": "uint256[]",
          "name": "",
          "type": "uint256[]"
        }
      ],
      "stateMutability": "view",
      "type": "function"
    },
    {
      "inputs": [
        {
          "internalType": "address",
          "name": "account",
          "type": "address"
        },
        {
          "internalType": "uint256",
          "name": "tokenHash",
          "type": "uint256"
        },
        {
          "internalType": "uint256",
          "name": "amount",
          "type": "uint256"
        }
      ],
      "name": "burn",
      "outputs": [],
      "stateMutability": "nonpayable",
      "type": "function"
    },
    {
      "inputs": [
        {
          "internalType": "address",
          "name": "account",
          "type": "address"
        },
        {
          "internalType": "uint256[]",
          "name": "ids",
          "type": "uint256[]"
        },
        {
          "internalType": "uint256[]",
          "name": "amounts",
          "type": "uint256[]"
        }
      ],
      "name": "burnBatch",
      "outputs": [],
      "stateMutability": "nonpayable",
      "type": "function"
    },
    {
      "inputs": [],
      "name": "getRegistryManager",
      "outputs": [
        {
          "internalType": "address",
          "name": "",
          "type": "address"
        }
      ],
      "stateMutability": "view",
      "type": "function"
    },
    {
      "inputs": [
        {
          "internalType": "uint256",
          "name": "tokenHash",
          "type": "uint256"
        }
      ],
      "name": "getTokenData",
      "outputs": [
        {
          "internalType": "uint8",
          "name": "tokenType",
          "type": "uint8"
        },
        {
          "internalType": "address",
          "name": "tokenPool",
          "type": "address"
        }
      ],
      "stateMutability": "view",
      "type": "function"
    },
    {
      "inputs": [
        {
          "internalType": "address",
          "name": "holder",
          "type": "address"
        }
      ],
      "name": "heldTokens",
      "outputs": [
        {
          "internalType": "uint256[]",
          "name": "",
          "type": "uint256[]"
        }
      ],
      "stateMutability": "view",
      "type": "function"
    },
    {
      "inputs": [
        {
          "internalType": "address",
          "name": "_owner",
          "type": "address"
        },
        {
          "internalType": "address",
          "name": "_operator",
          "type": "address"
        }
      ],
      "name": "isApprovedForAll",
      "outputs": [
        {
          "internalType": "bool",
          "name": "isOperator",
          "type": "bool"
        }
      ],
      "stateMutability": "view",
      "type": "function"
    },
    {
      "inputs": [
        {
          "internalType": "address",
          "name": "_address",
          "type": "address"
        }
      ],
      "name": "isController",
      "outputs": [
        {
          "internalType": "bool",
          "name": "allowed",
          "type": "bool"
        }
      ],
      "stateMutability": "view",
      "type": "function"
    },
    {
      "inputs": [
        {
          "internalType": "uint256",
          "name": "token",
          "type": "uint256"
        },
        {
          "internalType": "uint256",
          "name": "timestamp",
          "type": "uint256"
        }
      ],
      "name": "lock",
      "outputs": [],
      "stateMutability": "nonpayable",
      "type": "function"
    },
    {
      "inputs": [
        {
          "internalType": "address",
          "name": "account",
          "type": "address"
        },
        {
          "internalType": "uint256",
          "name": "tokenHash",
          "type": "uint256"
        },
        {
          "internalType": "uint256",
          "name": "amount",
          "type": "uint256"
        }
      ],
      "name": "mint",
      "outputs": [],
      "stateMutability": "nonpayable",
      "type": "function"
    },
    {
      "inputs": [
        {
          "internalType": "address",
          "name": "to",
          "type": "address"
        },
        {
          "internalType": "uint256[]",
          "name": "ids",
          "type": "uint256[]"
        },
        {
          "internalType": "uint256[]",
          "name": "amounts",
          "type": "uint256[]"
        }
      ],
      "name": "mintBatch",
      "outputs": [],
      "stateMutability": "nonpayable",
      "type": "function"
    },
    {
      "inputs": [
        {
          "internalType": "address",
          "name": "",
          "type": "address"
        },
        {
          "internalType": "address",
          "name": "",
          "type": "address"
        },
        {
          "internalType": "uint256[]",
          "name": "",
          "type": "uint256[]"
        },
        {
          "internalType": "uint256[]",
          "name": "",
          "type": "uint256[]"
        },
        {
          "internalType": "bytes",
          "name": "",
          "type": "bytes"
        }
      ],
      "name": "onERC1155BatchReceived",
      "outputs": [
        {
          "internalType": "bytes4",
          "name": "",
          "type": "bytes4"
        }
      ],
      "stateMutability": "nonpayable",
      "type": "function"
    },
    {
      "inputs": [
        {
          "internalType": "address",
          "name": "",
          "type": "address"
        },
        {
          "internalType": "address",
          "name": "",
          "type": "address"
        },
        {
          "internalType": "uint256",
          "name": "",
          "type": "uint256"
        },
        {
          "internalType": "uint256",
          "name": "",
          "type": "uint256"
        },
        {
          "internalType": "bytes",
          "name": "",
          "type": "bytes"
        }
      ],
      "name": "onERC1155Received",
      "outputs": [
        {
          "internalType": "bytes4",
          "name": "",
          "type": "bytes4"
        }
      ],
      "stateMutability": "nonpayable",
      "type": "function"
    },
    {
      "inputs": [],
      "name": "paused",
      "outputs": [
        {
          "internalType": "bool",
          "name": "",
          "type": "bool"
        }
      ],
      "stateMutability": "view",
      "type": "function"
    },
    {
      "inputs": [],
      "name": "relinquishControl",
      "outputs": [],
      "stateMutability": "view",
      "type": "function"
    },
    {
      "inputs": [
        {
          "internalType": "uint256",
          "name": "index",
          "type": "uint256"
        }
      ],
      "name": "removeProxyRegistryAt",
      "outputs": [],
      "stateMutability": "nonpayable",
      "type": "function"
    },
    {
      "inputs": [
        {
          "internalType": "address",
          "name": "from",
          "type": "address"
        },
        {
          "internalType": "address",
          "name": "to",
          "type": "address"
        },
        {
          "internalType": "uint256[]",
          "name": "ids",
          "type": "uint256[]"
        },
        {
          "internalType": "uint256[]",
          "name": "amounts",
          "type": "uint256[]"
        },
        {
          "internalType": "bytes",
          "name": "data",
          "type": "bytes"
        }
      ],
      "name": "safeBatchTransferFrom",
      "outputs": [],
      "stateMutability": "nonpayable",
      "type": "function"
    },
    {
      "inputs": [
        {
          "internalType": "address",
          "name": "from",
          "type": "address"
        },
        {
          "internalType": "address",
          "name": "to",
          "type": "address"
        },
        {
          "internalType": "uint256",
          "name": "id",
          "type": "uint256"
        },
        {
          "internalType": "uint256",
          "name": "amount",
          "type": "uint256"
        },
        {
          "internalType": "bytes",
          "name": "data",
          "type": "bytes"
        }
      ],
      "name": "safeTransferFrom",
      "outputs": [],
      "stateMutability": "nonpayable",
      "type": "function"
    },
    {
      "inputs": [
        {
          "internalType": "address",
          "name": "operator",
          "type": "address"
        },
        {
          "internalType": "bool",
          "name": "approved",
          "type": "bool"
        }
      ],
      "name": "setApprovalForAll",
      "outputs": [],
      "stateMutability": "nonpayable",
      "type": "function"
    },
    {
      "inputs": [
        {
          "internalType": "address",
          "name": "newManager",
          "type": "address"
        }
      ],
      "name": "setRegistryManager",
      "outputs": [],
      "stateMutability": "nonpayable",
      "type": "function"
    },
    {
      "inputs": [
        {
          "internalType": "uint256",
          "name": "tokenHash",
          "type": "uint256"
        },
        {
          "internalType": "uint8",
          "name": "tokenType",
          "type": "uint8"
        },
        {
          "internalType": "address",
          "name": "tokenPool",
          "type": "address"
        }
      ],
      "name": "setTokenData",
      "outputs": [],
      "stateMutability": "nonpayable",
      "type": "function"
    },
    {
      "inputs": [
        {
          "internalType": "bytes4",
          "name": "interfaceId",
          "type": "bytes4"
        }
      ],
      "name": "supportsInterface",
      "outputs": [
        {
          "internalType": "bool",
          "name": "",
          "type": "bool"
        }
      ],
      "stateMutability": "view",
      "type": "function"
    },
    {
      "inputs": [
        {
          "internalType": "uint256",
          "name": "_token",
          "type": "uint256"
        }
      ],
      "name": "tokenHolders",
      "outputs": [
        {
          "internalType": "address[]",
          "name": "",
          "type": "address[]"
        }
      ],
      "stateMutability": "view",
      "type": "function"
    },
    {
      "inputs": [
        {
          "internalType": "uint256",
          "name": "_id",
          "type": "uint256"
        }
      ],
      "name": "totalBalances",
      "outputs": [
        {
          "internalType": "uint256",
          "name": "",
          "type": "uint256"
        }
      ],
      "stateMutability": "view",
      "type": "function"
    },
    {
      "inputs": [
        {
          "internalType": "address",
          "name": "account",
          "type": "address"
        },
        {
          "internalType": "uint256",
          "name": "token",
          "type": "uint256"
        }
      ],
      "name": "unlockTime",
      "outputs": [
        {
          "internalType": "uint256",
          "name": "theTime",
          "type": "uint256"
        }
      ],
      "stateMutability": "view",
      "type": "function"
    },
    {
      "inputs": [
        {
          "internalType": "uint256",
          "name": "_id",
          "type": "uint256"
        }
      ],
      "name": "uri",
      "outputs": [
        {
          "internalType": "string",
          "name": "",
          "type": "string"
        }
      ],
      "stateMutability": "view",
      "type": "function"
    }
  ],
  "transactionHash": "0x0bcbaf0788070a11821c38b6b942b3d20374bb7f73749d3d7bff5f2340efd148",
  "args": [],
  "solcInputHash": "f671a5b1a452e7ee0581a3db7b931a19",
  "bytecode": "0x60806040523480156200001157600080fd5b5060408051808201909152601d81527f68747470733a2f2f6d657461646174612e6e667467656d2e686f73742f0000006020820152620000586301ffc9a760e01b620000c7565b62000063816200014c565b62000075636cdb3d1360e11b620000c7565b620000876303a24d0760e21b620000c7565b506004805460ff19169055620000a4630271189760e51b620000c7565b620000af3362000165565b600880546001600160a01b0319163317905562000225565b6001600160e01b0319808216141562000127576040805162461bcd60e51b815260206004820152601c60248201527f4552433136353a20696e76616c696420696e7465726661636520696400000000604482015290519081900360640190fd5b6001600160e01b0319166000908152602081905260409020805460ff19166001179055565b80516200016190600390602084019062000189565b5050565b6001600160a01b03166000908152600560205260409020805460ff19166001179055565b828054600181600116156101000203166002900490600052602060002090601f016020900481019282601f10620001cc57805160ff1916838001178555620001fc565b82800160010185558215620001fc579182015b82811115620001fc578251825591602001919060010190620001df565b506200020a9291506200020e565b5090565b5b808211156200020a57600081556001016200020f565b613f9780620002356000396000f3fe608060405234801561001057600080fd5b50600436106102405760003560e01c8063923108d911610145578063de0099a3116100bd578063ef72f2761161008c578063f242432a11610071578063f242432a14610ee4578063f5298aca14610faf578063f68ee90e14610fe157610240565b8063ef72f27614610df3578063f23a6e6114610e1957610240565b8063de0099a314610d7a578063e1c28bef14610da0578063e985e9c514610da8578063ed7aae2b14610dd657610240565b8063b09afec111610114578063b59a9128116100f9578063b59a912814610a33578063bc197c8114610a5f578063d81d0a1514610c4357610240565b8063b09afec1146109cb578063b429afeb14610a0d57610240565b8063923108d914610934578063a0f8c69414610951578063a22cb46514610977578063a7fc7a07146109a557610240565b80632eb2c2d6116101d85780636b20c454116101a7578063761604ab1161018c578063761604ab146108da5780637c881076146108e25780638d0335d11461091757610240565b80636b20c45414610764578063740ec99e1461089b57610240565b80632eb2c2d6146104165780634e1273f4146105dd5780635401982d146107545780635c975abb1461075c57610240565b80631338736f116102145780631338736f14610378578063156e29f61461039b57806315aef88a146103cd5780632e13e81e146103f957610240565b8062fdd58e1461024557806301ffc9a71461028357806302aab086146102be5780630e89341c146102e6575b600080fd5b6102716004803603604081101561025b57600080fd5b506001600160a01b038135169060200135610ffe565b60408051918252519081900360200190f35b6102aa6004803603602081101561029957600080fd5b50356001600160e01b031916611070565b604080519115158252519081900360200190f35b6102e4600480360360208110156102d457600080fd5b50356001600160a01b0316611093565b005b610303600480360360208110156102fc57600080fd5b503561115a565b6040805160208082528351818301528351919283929083019185019080838360005b8381101561033d578181015183820152602001610325565b50505050905090810190601f16801561036a5780820380516001836020036101000a031916815260200191505b509250505060405180910390f35b6102e46004803603604081101561038e57600080fd5b50803590602001356112e9565b6102e4600480360360608110156103b157600080fd5b506001600160a01b0381351690602081013590604001356113c0565b610271600480360360408110156103e357600080fd5b506001600160a01b038135169060200135611449565b6102e46004803603602081101561040f57600080fd5b5035611470565b6102e4600480360360a081101561042c57600080fd5b6001600160a01b03823581169260208101359091169181019060608101604082013564010000000081111561046057600080fd5b82018360208201111561047257600080fd5b8035906020019184602083028401116401000000008311171561049457600080fd5b91908080602002602001604051908101604052809392919081815260200183836020028082843760009201919091525092959493602081019350359150506401000000008111156104e457600080fd5b8201836020820111156104f657600080fd5b8035906020019184602083028401116401000000008311171561051857600080fd5b919080806020026020016040519081016040528093929190818152602001838360200280828437600092019190915250929594936020810193503591505064010000000081111561056857600080fd5b82018360208201111561057a57600080fd5b8035906020019184600183028401116401000000008311171561059c57600080fd5b91908080601f016020809104026020016040519081016040528093929190818152602001838380828437600092019190915250929550611566945050505050565b610704600480360360408110156105f357600080fd5b81019060208101813564010000000081111561060e57600080fd5b82018360208201111561062057600080fd5b8035906020019184602083028401116401000000008311171561064257600080fd5b919080806020026020016040519081016040528093929190818152602001838360200280828437600092019190915250929594936020810193503591505064010000000081111561069257600080fd5b8201836020820111156106a457600080fd5b803590602001918460208302840111640100000000831117156106c657600080fd5b919080806020026020016040519081016040528093929190818152602001838360200280828437600092019190915250929550611864945050505050565b60408051602080825283518183015283519192839290830191858101910280838360005b83811015610740578181015183820152602001610728565b505050509050019250505060405180910390f35b610271611950565b6102aa611957565b6102e46004803603606081101561077a57600080fd5b6001600160a01b0382351691908101906040810160208201356401000000008111156107a557600080fd5b8201836020820111156107b757600080fd5b803590602001918460208302840111640100000000831117156107d957600080fd5b919080806020026020016040519081016040528093929190818152602001838360200280828437600092019190915250929594936020810193503591505064010000000081111561082957600080fd5b82018360208201111561083b57600080fd5b8035906020019184602083028401116401000000008311171561085d57600080fd5b919080806020026020016040519081016040528093929190818152602001838360200280828437600092019190915250929550611960945050505050565b6108be600480360360408110156108b157600080fd5b50803590602001356119c8565b604080516001600160a01b039092168252519081900360200190f35b6108be611a01565b6102e4600480360360608110156108f857600080fd5b50803590602081013560ff1690604001356001600160a01b0316611a10565b6108be6004803603602081101561092d57600080fd5b5035611ac3565b6107046004803603602081101561094a57600080fd5b5035611af0565b6102716004803603602081101561096757600080fd5b50356001600160a01b0316611b5f565b6102e46004803603604081101561098d57600080fd5b506001600160a01b0381351690602001351515611b7d565b6102e4600480360360208110156109bb57600080fd5b50356001600160a01b0316611c6c565b6109e8600480360360208110156109e157600080fd5b5035611ced565b6040805160ff90931683526001600160a01b0390911660208301528051918290030190f35b6102aa60048036036020811015610a2357600080fd5b50356001600160a01b0316611d1c565b61027160048036036040811015610a4957600080fd5b506001600160a01b038135169060200135611d3a565b610c26600480360360a0811015610a7557600080fd5b6001600160a01b038235811692602081013590911691810190606081016040820135640100000000811115610aa957600080fd5b820183602082011115610abb57600080fd5b80359060200191846020830284011164010000000083111715610add57600080fd5b9190808060200260200160405190810160405280939291908181526020018383602002808284376000920191909152509295949360208101935035915050640100000000811115610b2d57600080fd5b820183602082011115610b3f57600080fd5b80359060200191846020830284011164010000000083111715610b6157600080fd5b9190808060200260200160405190810160405280939291908181526020018383602002808284376000920191909152509295949360208101935035915050640100000000811115610bb157600080fd5b820183602082011115610bc357600080fd5b80359060200191846001830284011164010000000083111715610be557600080fd5b91908080601f016020809104026020016040519081016040528093929190818152602001838380828437600092019190915250929550611d74945050505050565b604080516001600160e01b03199092168252519081900360200190f35b6102e460048036036060811015610c5957600080fd5b6001600160a01b038235169190810190604081016020820135640100000000811115610c8457600080fd5b820183602082011115610c9657600080fd5b80359060200191846020830284011164010000000083111715610cb857600080fd5b9190808060200260200160405190810160405280939291908181526020018383602002808284376000920191909152509295949360208101935035915050640100000000811115610d0857600080fd5b820183602082011115610d1a57600080fd5b80359060200191846020830284011164010000000083111715610d3c57600080fd5b919080806020026020016040519081016040528093929190818152602001838360200280828437600092019190915250929550611d85945050505050565b61070460048036036020811015610d9057600080fd5b50356001600160a01b0316611e09565b6102e4611e77565b6102aa60048036036040811015610dbe57600080fd5b506001600160a01b0381358116916020013516611edf565b61027160048036036020811015610dec57600080fd5b5035611fdf565b6102e460048036036020811015610e0957600080fd5b50356001600160a01b0316611ff1565b610c26600480360360a0811015610e2f57600080fd5b6001600160a01b03823581169260208101359091169160408201359160608101359181019060a081016080820135640100000000811115610e6f57600080fd5b820183602082011115610e8157600080fd5b80359060200191846001830284011164010000000083111715610ea357600080fd5b91908080601f016020809104026020016040519081016040528093929190818152602001838380828437600092019190915250929550612069945050505050565b6102e4600480360360a0811015610efa57600080fd5b6001600160a01b03823581169260208101359091169160408201359160608101359181019060a081016080820135640100000000811115610f3a57600080fd5b820183602082011115610f4c57600080fd5b80359060200191846001830284011164010000000083111715610f6e57600080fd5b91908080601f01602080910402602001604051908101604052809392919081815260200183838082843760009201919091525092955061207a945050505050565b6102e460048036036060811015610fc557600080fd5b506001600160a01b038135169060208101359060400135612245565b61027160048036036020811015610ff757600080fd5b50356122ad565b60006001600160a01b0383166110455760405162461bcd60e51b815260040180806020018281038252602b815260200180613c88602b913960400191505060405180910390fd5b5060008181526001602090815260408083206001600160a01b03861684529091529020545b92915050565b6001600160e01b0319811660009081526020819052604090205460ff165b919050565b6008546001600160a01b031633146110e1576040805162461bcd60e51b815260206004820152600c60248201526b15539055551213d49256915160a21b604482015290519081900360640190fd5b6001600160a01b03811661112b576040805162461bcd60e51b815260206004820152600c60248201526b15539055551213d49256915160a21b604482015290519081900360640190fd5b6008805473ffffffffffffffffffffffffffffffffffffffff19166001600160a01b0392909216919091179055565b6000818152600960205260409020546060906111a75760405162461bcd60e51b8152600401808060200182810382526027815260200180613e4e6027913960400191505060405180910390fd5b61106a306001600160a01b0316630e89341c846040518263ffffffff1660e01b81526004018082815260200191505060006040518083038186803b1580156111ee57600080fd5b505afa158015611202573d6000803e3d6000fd5b505050506040513d6000823e601f3d908101601f19168201604052602081101561122b57600080fd5b810190808051604051939291908464010000000082111561124b57600080fd5b90830190602082018581111561126057600080fd5b825164010000000081118282018810171561127a57600080fd5b82525081516020918201929091019080838360005b838110156112a757818101518382015260200161128f565b50505050905090810190601f1680156112d45780820380516001836020036101000a031916815260200191505b506040525050506112e4846122c2565b6123b6565b80600a60006112f66123f2565b6001600160a01b03166001600160a01b031681526020019081526020016000206000848152602001908152602001600020541061137a576040805162461bcd60e51b815260206004820152600e60248201527f414c52454144595f4c4f434b4544000000000000000000000000000000000000604482015290519081900360640190fd5b80600a60006113876123f2565b6001600160a01b03166001600160a01b031681526020019081526020016000206000848152602001908152602001600020819055505050565b3360009081526005602052604090205460ff161515600114806113e257503033145b61141d5760405162461bcd60e51b8152600401808060200182810382526028815260200180613e756028913960400191505060405180910390fd5b6114448383836040518060400160405280600381526020016203078360ec1b8152506123f6565b505050565b6001600160a01b039091166000908152600a60209081526040808320938352929052205490565b6008546001600160a01b031633148061149d57503360009081526005602052604090205460ff1615156001145b6114dd576040805162461bcd60e51b815260206004820152600c60248201526b15539055551213d49256915160a21b604482015290519081900360640190fd5b6007548110611533576040805162461bcd60e51b815260206004820152600d60248201527f494e56414c49445f494e44455800000000000000000000000000000000000000604482015290519081900360640190fd5b6115636006600101828154811061154657fe5b6000918252602090912001546006906001600160a01b0316612408565b50565b81518351146115a65760405162461bcd60e51b8152600401808060200182810382526028815260200180613eef6028913960400191505060405180910390fd5b6001600160a01b0384166115eb5760405162461bcd60e51b8152600401808060200182810382526025815260200180613d566025913960400191505060405180910390fd5b6115f36123f2565b6001600160a01b0316856001600160a01b0316148061161e575061161e856116196123f2565b611edf565b6116595760405162461bcd60e51b8152600401808060200182810382526032815260200180613d7b6032913960400191505060405180910390fd5b60006116636123f2565b9050611673818787878787612554565b60005b845181101561177457600085828151811061168d57fe5b6020026020010151905060008583815181106116a557fe5b60200260200101519050611712816040518060600160405280602a8152602001613e24602a91396001600086815260200190815260200160002060008d6001600160a01b03166001600160a01b03168152602001908152602001600020546129899092919063ffffffff16565b60008381526001602090815260408083206001600160a01b038e811685529252808320939093558a16815220546117499082612a20565b60009283526001602081815260408086206001600160a01b038d168752909152909320555001611676565b50846001600160a01b0316866001600160a01b0316826001600160a01b03167f4a39dc06d4c0dbc64b70af90fd698a233a518aa5d07e595d983b8c0526c8f7fb8787604051808060200180602001838103835285818151815260200191508051906020019060200280838360005b838110156117fa5781810151838201526020016117e2565b50505050905001838103825284818151815260200191508051906020019060200280838360005b83811015611839578181015183820152602001611821565b5050505090500194505050505060405180910390a461185c818787878787612a7a565b505050505050565b606081518351146118a65760405162461bcd60e51b8152600401808060200182810382526029815260200180613ec66029913960400191505060405180910390fd5b6060835167ffffffffffffffff811180156118c057600080fd5b506040519080825280602002602001820160405280156118ea578160200160208202803683370190505b50905060005b84518110156119485761192985828151811061190857fe5b602002602001015185838151811061191c57fe5b6020026020010151610ffe565b82828151811061193557fe5b60209081029190910101526001016118f0565b509392505050565b6007545b90565b60045460ff1690565b3360009081526005602052604090205460ff1615156001148061198257503033145b6119bd5760405162461bcd60e51b8152600401808060200182810382526028815260200180613e756028913960400191505060405180910390fd5b611444838383612cf0565b6000828152600c602052604081206001018054839081106119e557fe5b6000918252602090912001546001600160a01b03169392505050565b6008546001600160a01b031690565b3360009081526005602052604090205460ff16151560011480611a3257503033145b611a6d5760405162461bcd60e51b8152600401808060200182810382526028815260200180613e756028913960400191505060405180910390fd5b6000928352600d60209081526040808520805460ff191660ff9590951694909417909355600e90529120805473ffffffffffffffffffffffffffffffffffffffff19166001600160a01b03909216919091179055565b600060066001018281548110611ad557fe5b6000918252602090912001546001600160a01b031692915050565b6000818152600c6020908152604091829020600101805483518184028101840190945280845260609392830182828015611b5357602002820191906000526020600020905b81546001600160a01b03168152600190910190602001808311611b35575b50505050509050919050565b6001600160a01b03166000908152600b602052604090206001015490565b816001600160a01b0316611b8f6123f2565b6001600160a01b03161415611bd55760405162461bcd60e51b8152600401808060200182810382526029815260200180613e9d6029913960400191505060405180910390fd5b8060026000611be26123f2565b6001600160a01b03908116825260208083019390935260409182016000908120918716808252919093529120805460ff191692151592909217909155611c266123f2565b6001600160a01b03167f17307eab39ab6107e8899845ad3d59bd9653f200f220920489ca2b5937696c318360405180821515815260200191505060405180910390a35050565b3360009081526005602052604090205460ff16151560011480611c8e57503033145b611cc95760405162461bcd60e51b8152600401808060200182810382526028815260200180613e756028913960400191505060405180910390fd5b6001600160a01b03166000908152600560205260409020805460ff19166001179055565b6000908152600d6020908152604080832054600e9092529091205460ff909116916001600160a01b0390911690565b6001600160a01b031660009081526005602052604090205460ff1690565b6001600160a01b0382166000908152600b60205260408120600101805483908110611d6157fe5b9060005260206000200154905092915050565b63bc197c8160e01b95945050505050565b3360009081526005602052604090205460ff16151560011480611da757503033145b611de25760405162461bcd60e51b8152600401808060200182810382526028815260200180613e756028913960400191505060405180910390fd5b6114448383836040518060400160405280600381526020016203078360ec1b815250612cfb565b6001600160a01b0381166000908152600b6020908152604091829020600101805483518184028101840190945280845260609392830182828015611b5357602002820191906000526020600020905b815481526020019060010190808311611e585750505050509050919050565b3360009081526005602052604090205460ff16151560011480611e9957503033145b611ed45760405162461bcd60e51b8152600401808060200182810382526028815260200180613e756028913960400191505060405180910390fd5b336000526005602052565b6000805b600754811015611fcd57600060066001018281548110611eff57fe5b60009182526020918290200154604080517fc45527910000000000000000000000000000000000000000000000000000000081526001600160a01b0389811660048301529151919092169350839263c45527919260248082019391829003018186803b158015611f6e57600080fd5b505afa925050508015611f9357506040513d6020811015611f8e57600080fd5b505160015b611f9c57611fc4565b846001600160a01b0316816001600160a01b03161415611fc2576001935050505061106a565b505b50600101611ee3565b50611fd88383612d07565b9392505050565b60009081526009602052604090205490565b6008546001600160a01b031633148061201e57503360009081526005602052604090205460ff1615156001145b61205e576040805162461bcd60e51b815260206004820152600c60248201526b15539055551213d49256915160a21b604482015290519081900360640190fd5b611563600682612d35565b63f23a6e6160e01b95945050505050565b6001600160a01b0384166120bf5760405162461bcd60e51b8152600401808060200182810382526025815260200180613d566025913960400191505060405180910390fd5b6120c76123f2565b6001600160a01b0316856001600160a01b031614806120ed57506120ed856116196123f2565b6121285760405162461bcd60e51b8152600401808060200182810382526029815260200180613d036029913960400191505060405180910390fd5b60006121326123f2565b905061215281878761214388612dd5565b61214c88612dd5565b87612554565b612199836040518060600160405280602a8152602001613e24602a913960008781526001602090815260408083206001600160a01b038d1684529091529020549190612989565b60008581526001602090815260408083206001600160a01b038b811685529252808320939093558716815220546121d09084612a20565b60008581526001602090815260408083206001600160a01b03808b168086529184529382902094909455805188815291820187905280518a8416938616927fc3d58168c5ae7397731d063d5bbf3d657854427343f4c083240f7aacaa2d0f6292908290030190a461185c818787878787612e19565b3360009081526005602052604090205460ff1615156001148061226757503033145b6122a25760405162461bcd60e51b8152600401808060200182810382526028815260200180613e756028913960400191505060405180910390fd5b611444838383612f8a565b6000908152600c602052604090206001015490565b606081612303575060408051808201909152600181527f3000000000000000000000000000000000000000000000000000000000000000602082015261108e565b8160005b811561231b57600101600a82049150612307565b60608167ffffffffffffffff8111801561233457600080fd5b506040519080825280601f01601f19166020018201604052801561235f576020820181803683370190505b50905060001982015b85156123ad57600a860660300160f81b8282806001900393508151811061238b57fe5b60200101906001600160f81b031916908160001a905350600a86049550612368565b50949350505050565b6060611fd88383604051806020016040528060008152506040518060200160405280600081525060405180602001604052806000815250612f95565b3390565b612402848484846131ba565b50505050565b61241282826132c2565b61244d5760405162461bcd60e51b815260040180806020018281038252602a815260200180613dfa602a913960400191505060405180910390fd5b6000600161245a8461331d565b6001600160a01b03841660009081526020869052604090205491900391508082146124fb57600084600101838154811061249057fe5b60009182526020808320909101546001600160a01b03168083529087905260409091208390556001860180549192508291849081106124cb57fe5b9060005260206000200160006101000a8154816001600160a01b0302191690836001600160a01b03160217905550505b6001600160a01b038316600090815260208590526040812055600184018054600019810190811061252857fe5b6000918252602090912001805473ffffffffffffffffffffffffffffffffffffffff1916905550505050565b612562868686868686613324565b60005b8351811015612980576001600160a01b03861615612610576001600160a01b0386166000908152600a6020526040812085514292908790859081106125a657fe5b60200260200101518152602001908152602001600020541115612610576040805162461bcd60e51b815260206004820152600c60248201527f544f4b454e5f4c4f434b45440000000000000000000000000000000000000000604482015290519081900360640190fd5b6001600160a01b03861615801590612649575082818151811061262f57fe5b60200260200101516126478786848151811061191c57fe5b145b1561275c5761269884828151811061265d57fe5b6020026020010151600b6000896001600160a01b03166001600160a01b0316815260200190815260200160002061337690919063ffffffff16565b156126e7576126e78482815181106126ac57fe5b6020026020010151600b6000896001600160a01b03166001600160a01b031681526020019081526020016000206133be90919063ffffffff16565b61271f86600c60008785815181106126fb57fe5b602002602001015181526020019081526020016000206132c290919063ffffffff16565b1561275c5761275c86600c600087858151811061273857fe5b6020026020010151815260200190815260200160002061240890919063ffffffff16565b6001600160a01b03851615801590612781575061277f8585838151811061191c57fe5b155b1561286e576127d084828151811061279557fe5b6020026020010151600b6000886001600160a01b03166001600160a01b0316815260200190815260200160002061337690919063ffffffff16565b61281e5761281e8482815181106127e357fe5b6020026020010151600b6000886001600160a01b03166001600160a01b031681526020019081526020016000206134b590919063ffffffff16565b61283285600c60008785815181106126fb57fe5b61286e5761286e85600c600087858151811061284a57fe5b60200260200101518152602001908152602001600020612d3590919063ffffffff16565b6001600160a01b0386166128f3576128c883828151811061288b57fe5b6020026020010151600960008785815181106128a357fe5b6020026020010151815260200190815260200160002054612a2090919063ffffffff16565b600960008684815181106128d857fe5b60200260200101518152602001908152602001600020819055505b6001600160a01b0385166129785761294d83828151811061291057fe5b60200260200101516009600087858151811061292857fe5b602002602001015181526020019081526020016000205461352e90919063ffffffff16565b6009600086848151811061295d57fe5b60200260200101518152602001908152602001600020819055505b600101612565565b50505050505050565b60008184841115612a185760405162461bcd60e51b81526004018080602001828103825283818151815260200191508051906020019080838360005b838110156129dd5781810151838201526020016129c5565b50505050905090810190601f168015612a0a5780820380516001836020036101000a031916815260200191505b509250505060405180910390fd5b505050900390565b600082820183811015611fd8576040805162461bcd60e51b815260206004820152601b60248201527f536166654d6174683a206164646974696f6e206f766572666c6f770000000000604482015290519081900360640190fd5b612a8c846001600160a01b031661358b565b1561185c57836001600160a01b031663bc197c8187878686866040518663ffffffff1660e01b815260040180866001600160a01b03168152602001856001600160a01b03168152602001806020018060200180602001848103845287818151815260200191508051906020019060200280838360005b83811015612b1a578181015183820152602001612b02565b50505050905001848103835286818151815260200191508051906020019060200280838360005b83811015612b59578181015183820152602001612b41565b50505050905001848103825285818151815260200191508051906020019080838360005b83811015612b95578181015183820152602001612b7d565b50505050905090810190601f168015612bc25780820380516001836020036101000a031916815260200191505b5098505050505050505050602060405180830381600087803b158015612be757600080fd5b505af1925050508015612c0c57506040513d6020811015612c0757600080fd5b505160015b612ca157612c18613b86565b80612c235750612c6a565b60405162461bcd60e51b81526020600482018181528351602484015283518493919283926044019190850190808383600083156129dd5781810151838201526020016129c5565b60405162461bcd60e51b8152600401808060200182810382526034815260200180613c2c6034913960400191505060405180910390fd5b6001600160e01b0319811663bc197c8160e01b146129805760405162461bcd60e51b8152600401808060200182810382526028815260200180613c606028913960400191505060405180910390fd5b611444838383613591565b612402848484846137ff565b6001600160a01b03918216600090815260026020908152604080832093909416825291909152205460ff1690565b612d3f82826132c2565b15612d7b5760405162461bcd60e51b815260040180806020018281038252602a815260200180613f38602a913960400191505060405180910390fd5b60018281018054918201815560008181526020808220909301805473ffffffffffffffffffffffffffffffffffffffff19166001600160a01b03959095169485179055905492815292905260409091206000199091019055565b604080516001808252818301909252606091829190602080830190803683370190505090508281600081518110612e0857fe5b602090810291909101015292915050565b612e2b846001600160a01b031661358b565b1561185c57836001600160a01b031663f23a6e6187878686866040518663ffffffff1660e01b815260040180866001600160a01b03168152602001856001600160a01b0316815260200184815260200183815260200180602001828103825283818151815260200191508051906020019080838360005b83811015612eba578181015183820152602001612ea2565b50505050905090810190601f168015612ee75780820380516001836020036101000a031916815260200191505b509650505050505050602060405180830381600087803b158015612f0a57600080fd5b505af1925050508015612f2f57506040513d6020811015612f2a57600080fd5b505160015b612f3b57612c18613b86565b6001600160e01b0319811663f23a6e6160e01b146129805760405162461bcd60e51b8152600401808060200182810382526028815260200180613c606028913960400191505060405180910390fd5b611444838383613a4d565b805182518451865188516060948a948a948a948a948a948a94919092019092019091010167ffffffffffffffff81118015612fcf57600080fd5b506040519080825280601f01601f191660200182016040528015612ffa576020820181803683370190505b509050806000805b88518110156130535788818151811061301757fe5b602001015160f81c60f81b83838060010194508151811061303457fe5b60200101906001600160f81b031916908160001a905350600101613002565b5060005b87518110156130a85787818151811061306c57fe5b602001015160f81c60f81b83838060010194508151811061308957fe5b60200101906001600160f81b031916908160001a905350600101613057565b5060005b86518110156130fd578681815181106130c157fe5b602001015160f81c60f81b8383806001019450815181106130de57fe5b60200101906001600160f81b031916908160001a9053506001016130ac565b5060005b85518110156131525785818151811061311657fe5b602001015160f81c60f81b83838060010194508151811061313357fe5b60200101906001600160f81b031916908160001a905350600101613101565b5060005b84518110156131a75784818151811061316b57fe5b602001015160f81c60f81b83838060010194508151811061318857fe5b60200101906001600160f81b031916908160001a905350600101613156565b50909d9c50505050505050505050505050565b6001600160a01b0384166131ff5760405162461bcd60e51b8152600401808060200182810382526021815260200180613f176021913960400191505060405180910390fd5b60006132096123f2565b905061321b8160008761214388612dd5565b60008481526001602090815260408083206001600160a01b03891684529091529020546132489084612a20565b60008581526001602090815260408083206001600160a01b03808b16808652918452828520959095558151898152928301889052815190948616927fc3d58168c5ae7397731d063d5bbf3d657854427343f4c083240f7aacaa2d0f6292908290030190a46132bb81600087878787612e19565b5050505050565b60018201546000906132d65750600061106a565b6001600160a01b038216600081815260208590526040902054600185018054909190811061330057fe5b6000918252602090912001546001600160a01b0316149392505050565b6001015490565b61333286868686868661185c565b61333a611957565b1561185c5760405162461bcd60e51b815260040180806020018281038252602c815260200180613cd7602c913960400191505060405180910390fd5b600182015460009061338a5750600061106a565b60008281526020849052604090205460018401805484929081106133aa57fe5b906000526020600020015414905092915050565b6133c88282613376565b6134035760405162461bcd60e51b815260040180806020018281038252602a815260200180613dad602a913960400191505060405180910390fd5b600060016134108461331d565b600084815260208690526040902054919003915080821461348157600084600101838154811061343c57fe5b9060005260206000200154905081856000016000838152602001908152602001600020819055508085600101838154811061347357fe5b600091825260209091200155505b60008381526020859052604081205560018401805460001981019081106134a457fe5b600091825260208220015550505050565b6134bf8282613376565b156134fb5760405162461bcd60e51b815260040180806020018281038252602a815260200180613d2c602a913960400191505060405180910390fd5b60018281018054918201815560008181526020808220909301849055905492815292905260409091206000199091019055565b600082821115613585576040805162461bcd60e51b815260206004820152601e60248201527f536166654d6174683a207375627472616374696f6e206f766572666c6f770000604482015290519081900360640190fd5b50900390565b3b151590565b6001600160a01b0383166135d65760405162461bcd60e51b8152600401808060200182810382526023815260200180613dd76023913960400191505060405180910390fd5b80518251146136165760405162461bcd60e51b8152600401808060200182810382526028815260200180613eef6028913960400191505060405180910390fd5b60006136206123f2565b905061364081856000868660405180602001604052806000815250612554565b60005b835181101561371e576136d583828151811061365b57fe5b6020026020010151604051806060016040528060248152602001613cb3602491396001600088868151811061368c57fe5b602002602001015181526020019081526020016000206000896001600160a01b03166001600160a01b03168152602001908152602001600020546129899092919063ffffffff16565b600160008684815181106136e557fe5b602090810291909101810151825281810192909252604090810160009081206001600160a01b038a168252909252902055600101613643565b5060006001600160a01b0316846001600160a01b0316826001600160a01b03167f4a39dc06d4c0dbc64b70af90fd698a233a518aa5d07e595d983b8c0526c8f7fb8686604051808060200180602001838103835285818151815260200191508051906020019060200280838360005b838110156137a557818101518382015260200161378d565b50505050905001838103825284818151815260200191508051906020019060200280838360005b838110156137e45781810151838201526020016137cc565b5050505090500194505050505060405180910390a450505050565b6001600160a01b0384166138445760405162461bcd60e51b8152600401808060200182810382526021815260200180613f176021913960400191505060405180910390fd5b81518351146138845760405162461bcd60e51b8152600401808060200182810382526028815260200180613eef6028913960400191505060405180910390fd5b600061388e6123f2565b905061389f81600087878787612554565b60005b84518110156139635761391a600160008784815181106138be57fe5b602002602001015181526020019081526020016000206000886001600160a01b03166001600160a01b031681526020019081526020016000205485838151811061390457fe5b6020026020010151612a2090919063ffffffff16565b6001600087848151811061392a57fe5b602090810291909101810151825281810192909252604090810160009081206001600160a01b038b1682529092529020556001016138a2565b50846001600160a01b031660006001600160a01b0316826001600160a01b03167f4a39dc06d4c0dbc64b70af90fd698a233a518aa5d07e595d983b8c0526c8f7fb8787604051808060200180602001838103835285818151815260200191508051906020019060200280838360005b838110156139ea5781810151838201526020016139d2565b50505050905001838103825284818151815260200191508051906020019060200280838360005b83811015613a29578181015183820152602001613a11565b5050505090500194505050505060405180910390a46132bb81600087878787612a7a565b6001600160a01b038316613a925760405162461bcd60e51b8152600401808060200182810382526023815260200180613dd76023913960400191505060405180910390fd5b6000613a9c6123f2565b9050613acc81856000613aae87612dd5565b613ab787612dd5565b60405180602001604052806000815250612554565b613b1382604051806060016040528060248152602001613cb36024913960008681526001602090815260408083206001600160a01b038b1684529091529020549190612989565b60008481526001602090815260408083206001600160a01b03808a16808652918452828520959095558151888152928301879052815193949093908616927fc3d58168c5ae7397731d063d5bbf3d657854427343f4c083240f7aacaa2d0f6292908290030190a450505050565b60e01c90565b600060443d1015613b9657611954565b600481823e6308c379a0613baa8251613b80565b14613bb457611954565b6040513d600319016004823e80513d67ffffffffffffffff8160248401118184111715613be45750505050611954565b82840192508251915080821115613bfe5750505050611954565b503d83016020828401011115613c1657505050611954565b601f01601f191681016020016040529150509056fe455243313135353a207472616e7366657220746f206e6f6e2045524331313535526563656976657220696d706c656d656e746572455243313135353a204552433131353552656365697665722072656a656374656420746f6b656e73455243313135353a2062616c616e636520717565727920666f7220746865207a65726f2061646472657373455243313135353a206275726e20616d6f756e7420657863656564732062616c616e6365455243313135355061757361626c653a20746f6b656e207472616e73666572207768696c6520706175736564455243313135353a2063616c6c6572206973206e6f74206f776e6572206e6f7220617070726f76656455496e743235365365743a206b657920616c72656164792065786973747320696e20746865207365742e455243313135353a207472616e7366657220746f20746865207a65726f2061646472657373455243313135353a207472616e736665722063616c6c6572206973206e6f74206f776e6572206e6f7220617070726f76656455496e743235365365743a206b657920646f6573206e6f7420657869737420696e20746865207365742e455243313135353a206275726e2066726f6d20746865207a65726f2061646472657373416464726573735365743a206b657920646f6573206e6f7420657869737420696e20746865207365742e455243313135353a20696e73756666696369656e742062616c616e636520666f72207472616e736665724e465447656d4d756c7469546f6b656e237572693a204e4f4e4558495354454e545f544f4b454e436f6e74726f6c6c61626c653a2063616c6c6572206973206e6f74206120636f6e74726f6c6c6572455243313135353a2073657474696e6720617070726f76616c2073746174757320666f722073656c66455243313135353a206163636f756e747320616e6420696473206c656e677468206d69736d61746368455243313135353a2069647320616e6420616d6f756e7473206c656e677468206d69736d61746368455243313135353a206d696e7420746f20746865207a65726f2061646472657373416464726573735365743a206b657920616c72656164792065786973747320696e20746865207365742ea2646970667358221220e162245b7025f89ded04fd4e72ed867341cf6bda81ffcd3a9872d4ccf46254de64736f6c63430007030033",
  "libraries": {
    "GovernanceLib": "0x7Afa6bC2f4CC206C6804E3ED065d71915deF4129",
    "Strings": "0xC6337eDc7C486a305C0FbAb381dBC7ad149bd594",
    "SafeMath": "0xcF5D18A2f3cED179B92DF335ae75ad849Cd30dBE",
    "AddressSet": "0x0deFb695B6A1b5165134DEca1CAeC547501Bf44a",
    "UInt256Set": "0x64320ddcD96B3f09edd9032789089E4fbeD49D4a",
    "Create2": "0xFFc1Da7951087B961BBb26EAf5a1d21f76788F96",
    "ProposalsLib": "0x8EAc999929aB622321DC084B4DD2AB17C8c7A36D",
    "ComplexPoolLib": "0x6e44bbA347af17424C7E3146b78790Cd59818797",
    "WrappedTokenLib": "0x816A69A1E851B9A460806483eE0129edDA8E4390",
    "Unigem20Library": "0x7B180Fb45d60Fd97b57dfec2c10ca4c22dF50ee3"
  },
  "devdoc": {
    "kind": "dev",
    "methods": {
      "addController(address)": {
        "details": "Add an address allowed to control this contract"
      },
      "addProxyRegistry(address)": {
        "details": "Returns the total balance minted of this type"
      },
      "allHeldTokens(address,uint256)": {
        "details": "Returns the total balance minted of this type"
      },
      "allHeldTokensLength(address)": {
        "details": "Returns the total balance minted of this type"
      },
      "allProxyRegistries(uint256)": {
        "details": "Returns the total balance minted of this type"
      },
      "allProxyRegistriesLength()": {
        "details": "Returns the total balance minted of this type"
      },
      "allTokenHolders(uint256,uint256)": {
        "details": "Returns the total balance minted of this type"
      },
      "allTokenHoldersLength(uint256)": {
        "details": "Returns the total balance minted of this type"
      },
      "balanceOf(address,uint256)": {
        "details": "See {IERC1155-balanceOf}. Requirements: - `account` cannot be the zero address."
      },
      "balanceOfBatch(address[],uint256[])": {
        "details": "See {IERC1155-balanceOfBatch}. Requirements: - `accounts` and `ids` must have the same length."
      },
      "burn(address,uint256,uint256)": {
        "details": "mint some amount of tokens. Only callable by token owner"
      },
      "constructor": {
        "details": "Contract initializer."
      },
      "getRegistryManager()": {
        "details": "Returns the total balance minted of this type"
      },
      "getTokenData(uint256)": {
        "details": "get the token data for this token id"
      },
      "heldTokens(address)": {
        "details": "Returns the total balance minted of this type"
      },
      "isController(address)": {
        "details": "Check if this address is a controller"
      },
      "lock(uint256,uint256)": {
        "details": "timelock the tokens from moving until the given time"
      },
      "mint(address,uint256,uint256)": {
        "details": "mint some amount of tokens. Only callable by token owner"
      },
      "mintBatch(address,uint256[],uint256[])": {
        "details": "mint some amount of tokens to multiple recipients. Only callable by token owner"
      },
      "paused()": {
        "details": "Returns true if the contract is paused, and false otherwise."
      },
      "relinquishControl()": {
        "details": "Check if this address is a controller"
      },
      "removeProxyRegistryAt(uint256)": {
        "details": "Returns the total balance minted of this type"
      },
      "safeBatchTransferFrom(address,address,uint256[],uint256[],bytes)": {
        "details": "See {IERC1155-safeBatchTransferFrom}."
      },
      "safeTransferFrom(address,address,uint256,uint256,bytes)": {
        "details": "See {IERC1155-safeTransferFrom}."
      },
      "setApprovalForAll(address,bool)": {
        "details": "See {IERC1155-setApprovalForAll}."
      },
      "setRegistryManager(address)": {
        "details": "Returns the total balance minted of this type"
      },
      "setTokenData(uint256,uint8,address)": {
        "details": "set the data for this tokenhash. points to a token type (1 = claim, 2 = gem) and token pool address"
      },
      "supportsInterface(bytes4)": {
        "details": "See {IERC165-supportsInterface}. Time complexity O(1), guaranteed to always use less than 30 000 gas."
      },
      "tokenHolders(uint256)": {
        "details": "Returns the total balance minted of this type"
      },
      "totalBalances(uint256)": {
        "details": "Returns the total balance minted of this type"
      },
      "unlockTime(address,uint256)": {
        "details": "unlock time for token / id"
      },
      "uri(uint256)": {
        "details": "Returns the metadata URI for this token type"
      }
    },
    "version": 1
  },
  "userdoc": {
    "kind": "user",
    "methods": {
      "isApprovedForAll(address,address)": {
        "notice": "Override isApprovedForAll to whitelist user's OpenSea proxy accounts to enable gas-free listings."
      }
    },
    "version": 1
  },
  "storageLayout": {
    "storage": [
      {
        "astId": 23141,
        "contract": "src/tokens/NFTGemMultiToken.sol:NFTGemMultiToken",
        "label": "_supportedInterfaces",
        "offset": 0,
        "slot": "0",
        "type": "t_mapping(t_bytes4,t_bool)"
      },
      {
        "astId": 34548,
        "contract": "src/tokens/NFTGemMultiToken.sol:NFTGemMultiToken",
        "label": "_balances",
        "offset": 0,
        "slot": "1",
        "type": "t_mapping(t_uint256,t_mapping(t_address,t_uint256))"
      },
      {
        "astId": 34554,
        "contract": "src/tokens/NFTGemMultiToken.sol:NFTGemMultiToken",
        "label": "_operatorApprovals",
        "offset": 0,
        "slot": "2",
        "type": "t_mapping(t_address,t_mapping(t_address,t_bool))"
      },
      {
        "astId": 34556,
        "contract": "src/tokens/NFTGemMultiToken.sol:NFTGemMultiToken",
        "label": "_uri",
        "offset": 0,
        "slot": "3",
        "type": "t_string_storage"
      },
      {
        "astId": 44712,
        "contract": "src/tokens/NFTGemMultiToken.sol:NFTGemMultiToken",
        "label": "_paused",
        "offset": 0,
        "slot": "4",
        "type": "t_bool"
      },
      {
        "astId": 10169,
        "contract": "src/tokens/NFTGemMultiToken.sol:NFTGemMultiToken",
        "label": "_controllers",
        "offset": 0,
        "slot": "5",
        "type": "t_mapping(t_address,t_bool)"
      },
      {
        "astId": 41294,
        "contract": "src/tokens/NFTGemMultiToken.sol:NFTGemMultiToken",
        "label": "proxyRegistries",
        "offset": 0,
        "slot": "6",
        "type": "t_struct(Set)23195_storage"
      },
      {
        "astId": 41296,
        "contract": "src/tokens/NFTGemMultiToken.sol:NFTGemMultiToken",
        "label": "registryManager",
        "offset": 0,
        "slot": "8",
        "type": "t_address"
      },
      {
        "astId": 41300,
        "contract": "src/tokens/NFTGemMultiToken.sol:NFTGemMultiToken",
        "label": "_totalBalances",
        "offset": 0,
        "slot": "9",
        "type": "t_mapping(t_uint256,t_uint256)"
      },
      {
        "astId": 41306,
        "contract": "src/tokens/NFTGemMultiToken.sol:NFTGemMultiToken",
        "label": "_tokenLocks",
        "offset": 0,
        "slot": "10",
        "type": "t_mapping(t_address,t_mapping(t_uint256,t_uint256))"
      },
      {
        "astId": 41310,
        "contract": "src/tokens/NFTGemMultiToken.sol:NFTGemMultiToken",
        "label": "_heldTokens",
        "offset": 0,
        "slot": "11",
        "type": "t_mapping(t_address,t_struct(Set)25747_storage)"
      },
      {
        "astId": 41314,
        "contract": "src/tokens/NFTGemMultiToken.sol:NFTGemMultiToken",
        "label": "_tokenHolders",
        "offset": 0,
        "slot": "12",
        "type": "t_mapping(t_uint256,t_struct(Set)23195_storage)"
      },
      {
        "astId": 41318,
        "contract": "src/tokens/NFTGemMultiToken.sol:NFTGemMultiToken",
        "label": "_tokenTypes",
        "offset": 0,
        "slot": "13",
        "type": "t_mapping(t_uint256,t_uint8)"
      },
      {
        "astId": 41322,
        "contract": "src/tokens/NFTGemMultiToken.sol:NFTGemMultiToken",
        "label": "_tokenPools",
        "offset": 0,
        "slot": "14",
        "type": "t_mapping(t_uint256,t_address)"
      }
    ],
    "types": {
      "t_address": {
        "encoding": "inplace",
        "label": "address",
        "numberOfBytes": "20"
      },
      "t_array(t_address)dyn_storage": {
        "base": "t_address",
        "encoding": "dynamic_array",
        "label": "address[]",
        "numberOfBytes": "32"
      },
      "t_array(t_uint256)dyn_storage": {
        "base": "t_uint256",
        "encoding": "dynamic_array",
        "label": "uint256[]",
        "numberOfBytes": "32"
      },
      "t_bool": {
        "encoding": "inplace",
        "label": "bool",
        "numberOfBytes": "1"
      },
      "t_bytes4": {
        "encoding": "inplace",
        "label": "bytes4",
        "numberOfBytes": "4"
      },
      "t_mapping(t_address,t_bool)": {
        "encoding": "mapping",
        "key": "t_address",
        "label": "mapping(address => bool)",
        "numberOfBytes": "32",
        "value": "t_bool"
      },
      "t_mapping(t_address,t_mapping(t_address,t_bool))": {
        "encoding": "mapping",
        "key": "t_address",
        "label": "mapping(address => mapping(address => bool))",
        "numberOfBytes": "32",
        "value": "t_mapping(t_address,t_bool)"
      },
      "t_mapping(t_address,t_mapping(t_uint256,t_uint256))": {
        "encoding": "mapping",
        "key": "t_address",
        "label": "mapping(address => mapping(uint256 => uint256))",
        "numberOfBytes": "32",
        "value": "t_mapping(t_uint256,t_uint256)"
      },
      "t_mapping(t_address,t_struct(Set)25747_storage)": {
        "encoding": "mapping",
        "key": "t_address",
        "label": "mapping(address => struct UInt256Set.Set)",
        "numberOfBytes": "32",
        "value": "t_struct(Set)25747_storage"
      },
      "t_mapping(t_address,t_uint256)": {
        "encoding": "mapping",
        "key": "t_address",
        "label": "mapping(address => uint256)",
        "numberOfBytes": "32",
        "value": "t_uint256"
      },
      "t_mapping(t_bytes4,t_bool)": {
        "encoding": "mapping",
        "key": "t_bytes4",
        "label": "mapping(bytes4 => bool)",
        "numberOfBytes": "32",
        "value": "t_bool"
      },
      "t_mapping(t_uint256,t_address)": {
        "encoding": "mapping",
        "key": "t_uint256",
        "label": "mapping(uint256 => address)",
        "numberOfBytes": "32",
        "value": "t_address"
      },
      "t_mapping(t_uint256,t_mapping(t_address,t_uint256))": {
        "encoding": "mapping",
        "key": "t_uint256",
        "label": "mapping(uint256 => mapping(address => uint256))",
        "numberOfBytes": "32",
        "value": "t_mapping(t_address,t_uint256)"
      },
      "t_mapping(t_uint256,t_struct(Set)23195_storage)": {
        "encoding": "mapping",
        "key": "t_uint256",
        "label": "mapping(uint256 => struct AddressSet.Set)",
        "numberOfBytes": "32",
        "value": "t_struct(Set)23195_storage"
      },
      "t_mapping(t_uint256,t_uint256)": {
        "encoding": "mapping",
        "key": "t_uint256",
        "label": "mapping(uint256 => uint256)",
        "numberOfBytes": "32",
        "value": "t_uint256"
      },
      "t_mapping(t_uint256,t_uint8)": {
        "encoding": "mapping",
        "key": "t_uint256",
        "label": "mapping(uint256 => uint8)",
        "numberOfBytes": "32",
        "value": "t_uint8"
      },
      "t_string_storage": {
        "encoding": "bytes",
        "label": "string",
        "numberOfBytes": "32"
      },
      "t_struct(Set)23195_storage": {
        "encoding": "inplace",
        "label": "struct AddressSet.Set",
        "members": [
          {
            "astId": 23191,
            "contract": "src/tokens/NFTGemMultiToken.sol:NFTGemMultiToken",
            "label": "keyPointers",
            "offset": 0,
            "slot": "0",
            "type": "t_mapping(t_address,t_uint256)"
          },
          {
            "astId": 23194,
            "contract": "src/tokens/NFTGemMultiToken.sol:NFTGemMultiToken",
            "label": "keyList",
            "offset": 0,
            "slot": "1",
            "type": "t_array(t_address)dyn_storage"
          }
        ],
        "numberOfBytes": "64"
      },
      "t_struct(Set)25747_storage": {
        "encoding": "inplace",
        "label": "struct UInt256Set.Set",
        "members": [
          {
            "astId": 25743,
            "contract": "src/tokens/NFTGemMultiToken.sol:NFTGemMultiToken",
            "label": "keyPointers",
            "offset": 0,
            "slot": "0",
            "type": "t_mapping(t_uint256,t_uint256)"
          },
          {
            "astId": 25746,
            "contract": "src/tokens/NFTGemMultiToken.sol:NFTGemMultiToken",
            "label": "keyList",
            "offset": 0,
            "slot": "1",
            "type": "t_array(t_uint256)dyn_storage"
          }
        ],
        "numberOfBytes": "64"
      },
      "t_uint256": {
        "encoding": "inplace",
        "label": "uint256",
        "numberOfBytes": "32"
      },
      "t_uint8": {
        "encoding": "inplace",
        "label": "uint8",
        "numberOfBytes": "1"
      }
    }
  }
}