{
  "address": "0xC0819E9205104A69520F60a14F0EF36a615efb69",
  "abi": [
    {
      "inputs": [],
      "stateMutability": "nonpayable",
      "type": "constructor"
    },
    {
      "anonymous": false,
      "inputs": [
        {
          "indexed": true,
          "internalType": "address",
          "name": "proposal",
          "type": "address"
        },
        {
          "indexed": true,
          "internalType": "address",
          "name": "token",
          "type": "address"
        },
        {
          "indexed": false,
          "internalType": "bool",
          "name": "isBanned",
          "type": "bool"
        }
      ],
      "name": "AllowList",
      "type": "event"
    },
    {
      "anonymous": false,
      "inputs": [
        {
          "indexed": true,
          "internalType": "address",
          "name": "contractAddress",
          "type": "address"
        },
        {
          "indexed": true,
          "internalType": "address",
          "name": "controllerAddress",
          "type": "address"
        }
      ],
      "name": "ControllerAdded",
      "type": "event"
    },
    {
      "anonymous": false,
      "inputs": [
        {
          "indexed": true,
          "internalType": "address",
          "name": "contractAddress",
          "type": "address"
        },
        {
          "indexed": true,
          "internalType": "address",
          "name": "controllerAddress",
          "type": "address"
        }
      ],
      "name": "ControllerRemoved",
      "type": "event"
    },
    {
      "anonymous": false,
      "inputs": [
        {
          "indexed": true,
          "internalType": "address",
          "name": "proposal",
          "type": "address"
        },
        {
          "indexed": true,
          "internalType": "address",
          "name": "token",
          "type": "address"
        },
        {
          "indexed": false,
          "internalType": "uint256",
          "name": "newFee",
          "type": "uint256"
        }
      ],
      "name": "FeeUpdated",
      "type": "event"
    },
    {
      "anonymous": false,
      "inputs": [
        {
          "indexed": true,
          "internalType": "address",
          "name": "receiver",
          "type": "address"
        },
        {
          "indexed": false,
          "internalType": "uint256",
          "name": "amount",
          "type": "uint256"
        }
      ],
      "name": "GovernanceTokenIssued",
      "type": "event"
    },
    {
      "anonymous": false,
      "inputs": [
        {
          "indexed": true,
          "internalType": "address",
          "name": "proposal",
          "type": "address"
        },
        {
          "indexed": true,
          "internalType": "address",
          "name": "receiver",
          "type": "address"
        },
        {
          "indexed": false,
          "internalType": "uint256",
          "name": "received",
          "type": "uint256"
        }
      ],
      "name": "ProjectFunded",
      "type": "event"
    },
    {
      "anonymous": false,
      "inputs": [
        {
          "indexed": true,
          "internalType": "address",
          "name": "proposal",
          "type": "address"
        },
        {
          "indexed": true,
          "internalType": "address",
          "name": "pool",
          "type": "address"
        },
        {
          "indexed": false,
          "internalType": "string",
          "name": "symbol",
          "type": "string"
        },
        {
          "indexed": false,
          "internalType": "string",
          "name": "name",
          "type": "string"
        },
        {
          "indexed": false,
          "internalType": "uint256",
          "name": "ethPrice",
          "type": "uint256"
        },
        {
          "indexed": false,
          "internalType": "uint256",
          "name": "minTime",
          "type": "uint256"
        },
        {
          "indexed": false,
          "internalType": "uint256",
          "name": "maxTime",
          "type": "uint256"
        },
        {
          "indexed": false,
          "internalType": "uint256",
          "name": "diffStep",
          "type": "uint256"
        },
        {
          "indexed": false,
          "internalType": "uint256",
          "name": "maxClaims",
          "type": "uint256"
        },
        {
          "indexed": false,
          "internalType": "address",
          "name": "alllowedToken",
          "type": "address"
        }
      ],
      "name": "StakingPoolCreated",
      "type": "event"
    },
    {
      "inputs": [
        {
          "internalType": "address",
          "name": "_controller",
          "type": "address"
        }
      ],
      "name": "addController",
      "outputs": [],
      "stateMutability": "nonpayable",
      "type": "function"
    },
    {
      "inputs": [
        {
          "internalType": "address",
          "name": "submitter",
          "type": "address"
        },
        {
          "internalType": "string",
          "name": "title",
          "type": "string"
        },
        {
          "internalType": "address",
          "name": "token",
          "type": "address"
        },
        {
          "internalType": "address",
          "name": "pool",
          "type": "address"
        },
        {
          "internalType": "uint256",
          "name": "feeDivisor",
          "type": "uint256"
        }
      ],
      "name": "createChangeFeeProposal",
      "outputs": [
        {
          "internalType": "address",
          "name": "proposal",
          "type": "address"
        }
      ],
      "stateMutability": "nonpayable",
      "type": "function"
    },
    {
      "inputs": [
        {
          "internalType": "address",
          "name": "submitter",
          "type": "address"
        },
        {
          "internalType": "string",
          "name": "title",
          "type": "string"
        },
        {
          "internalType": "address",
          "name": "receiver",
          "type": "address"
        },
        {
          "internalType": "string",
          "name": "descriptionUrl",
          "type": "string"
        },
        {
          "internalType": "uint256",
          "name": "ethAmount",
          "type": "uint256"
        }
      ],
      "name": "createFundProjectProposal",
      "outputs": [
        {
          "internalType": "address",
          "name": "proposal",
          "type": "address"
        }
      ],
      "stateMutability": "nonpayable",
      "type": "function"
    },
    {
      "inputs": [
        {
          "internalType": "string",
          "name": "symbol",
          "type": "string"
        },
        {
          "internalType": "string",
          "name": "name",
          "type": "string"
        },
        {
          "internalType": "uint256",
          "name": "ethPrice",
          "type": "uint256"
        },
        {
          "internalType": "uint256",
          "name": "minTime",
          "type": "uint256"
        },
        {
          "internalType": "uint256",
          "name": "maxTime",
          "type": "uint256"
        },
        {
          "internalType": "uint256",
          "name": "diffstep",
          "type": "uint256"
        },
        {
          "internalType": "uint256",
          "name": "maxClaims",
          "type": "uint256"
        },
        {
          "internalType": "address",
          "name": "allowedToken",
          "type": "address"
        }
      ],
      "name": "createPool",
      "outputs": [
        {
          "internalType": "address",
          "name": "pool",
          "type": "address"
        }
      ],
      "stateMutability": "nonpayable",
      "type": "function"
    },
    {
      "inputs": [
        {
          "internalType": "uint256",
          "name": "proposalHash",
          "type": "uint256"
        }
      ],
      "name": "createProposalVoteTokens",
      "outputs": [],
      "stateMutability": "nonpayable",
      "type": "function"
    },
    {
      "inputs": [
        {
          "internalType": "string",
          "name": "symbol",
          "type": "string"
        },
        {
          "internalType": "string",
          "name": "name",
          "type": "string"
        },
        {
          "internalType": "uint256",
          "name": "ethPrice",
          "type": "uint256"
        },
        {
          "internalType": "uint256",
          "name": "minTime",
          "type": "uint256"
        },
        {
          "internalType": "uint256",
          "name": "maxTime",
          "type": "uint256"
        },
        {
          "internalType": "uint256",
          "name": "diffstep",
          "type": "uint256"
        },
        {
          "internalType": "uint256",
          "name": "maxClaims",
          "type": "uint256"
        },
        {
          "internalType": "address",
          "name": "allowedToken",
          "type": "address"
        }
      ],
      "name": "createSystemPool",
      "outputs": [
        {
          "internalType": "address",
          "name": "pool",
          "type": "address"
        }
      ],
      "stateMutability": "nonpayable",
      "type": "function"
    },
    {
      "inputs": [
        {
          "internalType": "address",
          "name": "submitter",
          "type": "address"
        },
        {
          "internalType": "string",
          "name": "title",
          "type": "string"
        },
        {
          "internalType": "address",
          "name": "token",
          "type": "address"
        },
        {
          "internalType": "address",
          "name": "pool",
          "type": "address"
        },
        {
          "internalType": "bool",
          "name": "newStatus",
          "type": "bool"
        }
      ],
      "name": "createUpdateAllowlistProposal",
      "outputs": [
        {
          "internalType": "address",
          "name": "proposal",
          "type": "address"
        }
      ],
      "stateMutability": "nonpayable",
      "type": "function"
    },
    {
      "inputs": [
        {
          "internalType": "uint256",
          "name": "proposalHash",
          "type": "uint256"
        }
      ],
      "name": "destroyProposalVoteTokens",
      "outputs": [],
      "stateMutability": "nonpayable",
      "type": "function"
    },
    {
      "inputs": [
        {
          "internalType": "address",
          "name": "propAddress",
          "type": "address"
        }
      ],
      "name": "executeProposal",
      "outputs": [],
      "stateMutability": "nonpayable",
      "type": "function"
    },
    {
      "inputs": [
        {
          "internalType": "address",
          "name": "_multitoken",
          "type": "address"
        },
        {
          "internalType": "address",
          "name": "_factory",
          "type": "address"
        },
        {
          "internalType": "address",
          "name": "_feeTracker",
          "type": "address"
        },
        {
          "internalType": "address",
          "name": "_proposalFactory",
          "type": "address"
        },
        {
          "internalType": "address",
          "name": "_swapHelper",
          "type": "address"
        }
      ],
      "name": "initialize",
      "outputs": [],
      "stateMutability": "nonpayable",
      "type": "function"
    },
    {
      "inputs": [],
      "name": "initialized",
      "outputs": [
        {
          "internalType": "bool",
          "name": "",
          "type": "bool"
        }
      ],
      "stateMutability": "view",
      "type": "function"
    },
    {
      "inputs": [
        {
          "internalType": "address",
          "name": "_address",
          "type": "address"
        }
      ],
      "name": "isController",
      "outputs": [
        {
          "internalType": "bool",
          "name": "allowed",
          "type": "bool"
        }
      ],
      "stateMutability": "view",
      "type": "function"
    },
    {
      "inputs": [
        {
          "internalType": "address",
          "name": "receiver",
          "type": "address"
        }
      ],
      "name": "issueInitialGovernanceTokens",
      "outputs": [],
      "stateMutability": "nonpayable",
      "type": "function"
    },
    {
      "inputs": [],
      "name": "relinquishControl",
      "outputs": [],
      "stateMutability": "nonpayable",
      "type": "function"
    },
    {
      "inputs": [
        {
          "internalType": "address",
          "name": "a",
          "type": "address"
        }
      ],
      "name": "setFactory",
      "outputs": [],
      "stateMutability": "nonpayable",
      "type": "function"
    },
    {
      "inputs": [
        {
          "internalType": "address",
          "name": "a",
          "type": "address"
        }
      ],
      "name": "setFeeTracker",
      "outputs": [],
      "stateMutability": "nonpayable",
      "type": "function"
    },
    {
      "inputs": [
        {
          "internalType": "address",
          "name": "a",
          "type": "address"
        }
      ],
      "name": "setMultitoken",
      "outputs": [],
      "stateMutability": "nonpayable",
      "type": "function"
    },
    {
      "inputs": [
        {
          "internalType": "address",
          "name": "a",
          "type": "address"
        }
      ],
      "name": "setProposalFactory",
      "outputs": [],
      "stateMutability": "nonpayable",
      "type": "function"
    },
    {
      "inputs": [
        {
          "internalType": "address",
          "name": "a",
          "type": "address"
        }
      ],
      "name": "setSwapHelper",
      "outputs": [],
      "stateMutability": "nonpayable",
      "type": "function"
    }
  ],
  "transactionHash": "0x810aa6080a093570c551a60f8f29b61c12128ce7ea4389386628440c13a01a73",
  "args": [],
  "solcInputHash": "b06c540bf558ebe1763f6f5fe903171f",
  "bytecode": "0x608060405234801561001057600080fd5b5061001a3361001f565b610043565b6001600160a01b03166000908152602081905260409020805460ff19166001179055565b611c25806100526000396000f3fe608060405234801561001057600080fd5b50600436106101515760003560e01c8063a67a03ab116100cd578063dac7f24d11610081578063e1c28bef11610066578063e1c28bef146102a0578063e4439785146102a8578063fb54cc40146102bb57610151565b8063dac7f24d1461027a578063e14319451461028d57610151565b8063afc93505116100b2578063afc9350514610241578063b429afeb14610254578063d73cd47f1461026757610151565b8063a67a03ab1461021b578063a7fc7a071461022e57610151565b80635bb47808116101245780636e3c7c7f116101095780636e3c7c7f146101e257806377fa7d98146101f55780639277a1851461020857610151565b80635bb47808146101bc5780636c7c402f146101cf57610151565b80631459457a14610156578063158ef93e1461016b5780631e4ad6a2146101895780632866519d1461019c575b600080fd5b610169610164366004611639565b6102ce565b005b6101736103b8565b6040516101809190611b00565b60405180910390f35b6101696101973660046118d8565b6103d9565b6101af6101aa366004611832565b6104a7565b604051610180919061193b565b6101696101ca3660046115fa565b6105b9565b6101696101dd3660046115fa565b610626565b6101af6101f0366004611727565b610693565b6101af610203366004611832565b61076a565b6101696102163660046115fa565b610950565b6101696102293660046115fa565b6109bd565b61016961023c3660046115fa565b610a58565b6101af61024f3660046117a2565b610aba565b6101736102623660046115fa565b610b8a565b6101696102753660046115fa565b610ba8565b6101696102883660046118d8565b610c15565b6101af61029b3660046116a9565b610cb0565b610169610d7d565b6101696102b63660046115fa565b610dd4565b6101696102c93660046115fa565b610f1c565b3360009081526020819052604090205460ff161515600114806102f057503033145b6103155760405162461bcd60e51b815260040161030c90611b42565b60405180910390fd5b6001805473ffffffffffffffffffffffffffffffffffffffff199081166001600160a01b039788161790915560028054821695871695909517909455600380548516938616939093179092556004805484169185169190911790556005805474010000000000000000000000000000000000000000931691909316177fffffffffffffffffffffff00ffffffffffffffffffffffffffffffffffffffff16179055565b60055474010000000000000000000000000000000000000000900460ff1690565b3360009081526020819052604090205460ff161515600114806103fb57503033145b6104175760405162461bcd60e51b815260040161030c90611b42565b6001546040517f85efa54c00000000000000000000000000000000000000000000000000000000815273aeb86F3860AD5B29aE141c56709835130ecbE0D9916385efa54c91610474916001600160a01b0316908590600401611ac6565b60006040518083038186803b15801561048c57600080fd5b505af41580156104a0573d6000803e3d6000fd5b5050505050565b3360009081526020819052604081205460ff161515600114806104c957503033145b6104e55760405162461bcd60e51b815260040161030c90611b42565b6002546040517f1500cfba00000000000000000000000000000000000000000000000000000000815273aeb86F3860AD5B29aE141c56709835130ecbE0D991631500cfba91610550916001600160a01b0316908d908d908d908d908d908d908d908d90600401611a24565b60206040518083038186803b15801561056857600080fd5b505af415801561057c573d6000803e3d6000fd5b505050506040513d601f19601f820116820180604052508101906105a0919061161d565b90506105ad333383610f89565b98975050505050505050565b3360009081526020819052604090205460ff161515600114806105db57503033145b6105f75760405162461bcd60e51b815260040161030c90611b42565b6002805473ffffffffffffffffffffffffffffffffffffffff19166001600160a01b0392909216919091179055565b3360009081526020819052604090205460ff1615156001148061064857503033145b6106645760405162461bcd60e51b815260040161030c90611b42565b6004805473ffffffffffffffffffffffffffffffffffffffff19166001600160a01b0392909216919091179055565b6040517ff87924d000000000000000000000000000000000000000000000000000000000815260009073d98B1717903B2Ff81b08F680372887a8c35174c29063f87924d0906106ea9087908790879060040161198d565b60206040518083038186803b15801561070257600080fd5b505af4158015610716573d6000803e3d6000fd5b505050506040513d601f19601f8201168201806040525081019061073a919061161d565b6001546004549192506107609130916001600160a01b0390811691168960028a87611321565b5095945050505050565b3360009081526020819052604081205460ff1615156001148061078c57503033145b6107a85760405162461bcd60e51b815260040161030c90611b42565b6002546040517f1500cfba00000000000000000000000000000000000000000000000000000000815273aeb86F3860AD5B29aE141c56709835130ecbE0D991631500cfba91610813916001600160a01b0316908d908d908d908d908d908d908d908d90600401611a24565b60206040518083038186803b15801561082b57600080fd5b505af415801561083f573d6000803e3d6000fd5b505050506040513d601f19601f82011682018060405250810190610863919061161d565b90506105ad816001600160a01b03166302d05d3f6040518163ffffffff1660e01b815260040160206040518083038186803b1580156108a157600080fd5b505afa1580156108b5573d6000803e3d6000fd5b505050506040513d601f19601f820116820180604052508101906108d9919061161d565b826001600160a01b031663041ae8806040518163ffffffff1660e01b815260040160206040518083038186803b15801561091257600080fd5b505afa158015610926573d6000803e3d6000fd5b505050506040513d601f19601f8201168201806040525081019061094a919061161d565b83610f89565b3360009081526020819052604090205460ff1615156001148061097257503033145b61098e5760405162461bcd60e51b815260040161030c90611b42565b6003805473ffffffffffffffffffffffffffffffffffffffff19166001600160a01b0392909216919091179055565b3360009081526020819052604090205460ff161515600114806109df57503033145b6109fb5760405162461bcd60e51b815260040161030c90611b42565b6003546040517fdc7ceea400000000000000000000000000000000000000000000000000000000815273d98B1717903B2Ff81b08F680372887a8c35174c29163dc7ceea491610474916001600160a01b031690859060040161194f565b3360009081526020819052604090205460ff16151560011480610a7a57503033145b610a965760405162461bcd60e51b815260040161030c90611b42565b6001600160a01b03166000908152602081905260409020805460ff19166001179055565b6040517fc9ceb95100000000000000000000000000000000000000000000000000000000815260009073d98B1717903B2Ff81b08F680372887a8c35174c29063c9ceb95190610b1190879087908790600401611a94565b60206040518083038186803b158015610b2957600080fd5b505af4158015610b3d573d6000803e3d6000fd5b505050506040513d601f19601f82011682018060405250810190610b61919061161d565b600180546004549293506107609230926001600160a01b0392831692909116908a908a87611321565b6001600160a01b031660009081526020819052604090205460ff1690565b3360009081526020819052604090205460ff16151560011480610bca57503033145b610be65760405162461bcd60e51b815260040161030c90611b42565b6005805473ffffffffffffffffffffffffffffffffffffffff19166001600160a01b0392909216919091179055565b3360009081526020819052604090205460ff16151560011480610c3757503033145b610c535760405162461bcd60e51b815260040161030c90611b42565b6001546040517f8851debd00000000000000000000000000000000000000000000000000000000815273aeb86F3860AD5B29aE141c56709835130ecbE0D991638851debd91610474916001600160a01b0316908590600401611ac6565b6040517fd6c49d7600000000000000000000000000000000000000000000000000000000815260009073d98B1717903B2Ff81b08F680372887a8c35174c29063d6c49d7690610d0790879087908790600401611969565b60206040518083038186803b158015610d1f57600080fd5b505af4158015610d33573d6000803e3d6000fd5b505050506040513d601f19601f82011682018060405250810190610d57919061161d565b6001546004549192506107609130916001600160a01b0390811691168960038a87611321565b3360009081526020819052604090205460ff16151560011480610d9f57503033145b610dbb5760405162461bcd60e51b815260040161030c90611b42565b336000908152602081905260409020805460ff19169055565b6005547501000000000000000000000000000000000000000000900460ff1615610e105760405162461bcd60e51b815260040161030c90611b0b565b6001546040517f156e29f60000000000000000000000000000000000000000000000000000000081526001600160a01b039091169063156e29f690610e619084906000906207a12090600401611adf565b600060405180830381600087803b158015610e7b57600080fd5b505af1158015610e8f573d6000803e3d6000fd5b5050600580547fffffffffffffffffffff00ffffffffffffffffffffffffffffffffffffffffff16750100000000000000000000000000000000000000000017905550506040516001600160a01b038216907f1b9ddf8f7c45e0567932349c127951357a3f9b5a821eeeec6e44d771debbb49090610f11906207a12090611b9f565b60405180910390a250565b3360009081526020819052604090205460ff16151560011480610f3e57503033145b610f5a5760405162461bcd60e51b815260040161030c90611b42565b6001805473ffffffffffffffffffffffffffffffffffffffff19166001600160a01b0392909216919091179055565b60015460405163a7fc7a0760e01b81526001600160a01b039091169063a7fc7a0790610fb990849060040161193b565b600060405180830381600087803b158015610fd357600080fd5b505af1158015610fe7573d6000803e3d6000fd5b50506001546040517fef72f2760000000000000000000000000000000000000000000000000000000081526001600160a01b03909116925063ef72f276915061103490849060040161193b565b600060405180830381600087803b15801561104e57600080fd5b505af1158015611062573d6000803e3d6000fd5b505060405163a7fc7a0760e01b815230925063a7fc7a07915061108990849060040161193b565b600060405180830381600087803b1580156110a357600080fd5b505af11580156110b7573d6000803e3d6000fd5b50506001546040517fd104f8f50000000000000000000000000000000000000000000000000000000081526001600160a01b03808616945063d104f8f5935061110492169060040161193b565b600060405180830381600087803b15801561111e57600080fd5b505af1158015611132573d6000803e3d6000fd5b50506005546040517fd73cd47f0000000000000000000000000000000000000000000000000000000081526001600160a01b03808616945063d73cd47f935061117f92169060040161193b565b600060405180830381600087803b15801561119957600080fd5b505af11580156111ad573d6000803e3d6000fd5b50506040517fc42cf5350000000000000000000000000000000000000000000000000000000081526001600160a01b038416925063c42cf53591506111f690309060040161193b565b600060405180830381600087803b15801561121057600080fd5b505af1158015611224573d6000803e3d6000fd5b50506003546040517f9277a1850000000000000000000000000000000000000000000000000000000081526001600160a01b038086169450639277a185935061127192169060040161193b565b600060405180830381600087803b15801561128b57600080fd5b505af115801561129f573d6000803e3d6000fd5b50506040517f2449ef510000000000000000000000000000000000000000000000000000000081526001600160a01b0384169250632449ef5191506112ea908690869060040161194f565b600060405180830381600087803b15801561130457600080fd5b505af1158015611318573d6000803e3d6000fd5b50505050505050565b6040517f4c3000760000000000000000000000000000000000000000000000000000000081526000906001600160a01b03871690634c3000769061136f908890879087908a906004016119b1565b602060405180830381600087803b15801561138957600080fd5b505af115801561139d573d6000803e3d6000fd5b505050506040513d601f19601f820116820180604052508101906113c1919061161d565b6040517fd104f8f50000000000000000000000000000000000000000000000000000000081529091506001600160a01b0382169063d104f8f590611409908a9060040161193b565b600060405180830381600087803b15801561142357600080fd5b505af1158015611437573d6000803e3d6000fd5b50506040517fc42cf5350000000000000000000000000000000000000000000000000000000081526001600160a01b038416925063c42cf5359150611480908b9060040161193b565b600060405180830381600087803b15801561149a57600080fd5b505af11580156114ae573d6000803e3d6000fd5b505060405163a7fc7a0760e01b81526001600160a01b038a16925063a7fc7a0791506114de90849060040161193b565b600060405180830381600087803b1580156114f857600080fd5b505af115801561150c573d6000803e3d6000fd5b505060405163a7fc7a0760e01b81526001600160a01b038b16925063a7fc7a07915061153c90849060040161193b565b600060405180830381600087803b15801561155657600080fd5b505af115801561156a573d6000803e3d6000fd5b50505050979650505050505050565b600082601f830112611589578081fd5b813567ffffffffffffffff808211156115a4576115a4611ba8565b6040516020601f19601f85011682010181811083821117156115c8576115c8611ba8565b6040528281528483016020018610156115df578384fd5b82602086016020830137918201602001929092529392505050565b60006020828403121561160b578081fd5b813561161681611bd7565b9392505050565b60006020828403121561162e578081fd5b815161161681611bd7565b600080600080600060a08688031215611650578081fd5b853561165b81611bd7565b9450602086013561166b81611bd7565b9350604086013561167b81611bd7565b9250606086013561168b81611bd7565b9150608086013561169b81611bd7565b809150509295509295909350565b600080600080600060a086880312156116c0578081fd5b85356116cb81611bd7565b9450602086013567ffffffffffffffff8111156116e6578182fd5b6116f288828901611579565b945050604086013561170381611bd7565b9250606086013561171381611bd7565b91506080860135801515811461169b578182fd5b600080600080600060a0868803121561173e578081fd5b853561174981611bd7565b9450602086013567ffffffffffffffff811115611764578182fd5b61177088828901611579565b945050604086013561178181611bd7565b9250606086013561179181611bd7565b949793965091946080013592915050565b600080600080600060a086880312156117b9578081fd5b85356117c481611bd7565b9450602086013567ffffffffffffffff808211156117e0578283fd5b6117ec89838a01611579565b9550604088013591506117fe82611bd7565b90935060608701359080821115611813578283fd5b5061182088828901611579565b95989497509295608001359392505050565b600080600080600080600080610100898b03121561184e578283fd5b883567ffffffffffffffff80821115611865578485fd5b6118718c838d01611579565b995060208b0135915080821115611886578485fd5b506118938b828c01611579565b97505060408901359550606089013594506080890135935060a0890135925060c0890135915060e08901356118c781611bd7565b809150509295985092959890939650565b6000602082840312156118e9578081fd5b5035919050565b60008151808452815b81811015611915576020818501810151868301820152016118f9565b818111156119265782602083870101525b50601f01601f19169290920160200192915050565b6001600160a01b0391909116815260200190565b6001600160a01b0392831681529116602082015260400190565b6001600160a01b039384168152919092166020820152901515604082015260600190565b6001600160a01b039384168152919092166020820152604081019190915260600190565b60006001600160a01b038087168352608060208401526119d460808401876118f0565b9085166040840152905060048310611a15577f4e487b7100000000000000000000000000000000000000000000000000000000600052602160045260246000fd5b82606083015295945050505050565b60006101206001600160a01b03808d168452816020850152611a488285018d6118f0565b91508382036040850152611a5c828c6118f0565b606085019a909a526080840198909852505060a081019490945260c084019290925260e0830152909116610100909101529392505050565b60006001600160a01b038516825260606020830152611ab660608301856118f0565b9050826040830152949350505050565b6001600160a01b03929092168252602082015260400190565b6001600160a01b039390931683526020830191909152604082015260600190565b901515815260200190565b6020808252600e908201527f414c52454144595f495353554544000000000000000000000000000000000000604082015260600190565b60208082526028908201527f436f6e74726f6c6c61626c653a2063616c6c6572206973206e6f74206120636f60408201527f6e74726f6c6c6572000000000000000000000000000000000000000000000000606082015260800190565b90815260200190565b7f4e487b7100000000000000000000000000000000000000000000000000000000600052604160045260246000fd5b6001600160a01b0381168114611bec57600080fd5b5056fea26469706673582212205ad32dc44f0ba65f46b1f3ad1419ff3a90d552a8187cd8e6dc4b6dd9dbee7aa164736f6c63430008000033",
  "deployedBytecode": "0x608060405234801561001057600080fd5b50600436106101515760003560e01c8063a67a03ab116100cd578063dac7f24d11610081578063e1c28bef11610066578063e1c28bef146102a0578063e4439785146102a8578063fb54cc40146102bb57610151565b8063dac7f24d1461027a578063e14319451461028d57610151565b8063afc93505116100b2578063afc9350514610241578063b429afeb14610254578063d73cd47f1461026757610151565b8063a67a03ab1461021b578063a7fc7a071461022e57610151565b80635bb47808116101245780636e3c7c7f116101095780636e3c7c7f146101e257806377fa7d98146101f55780639277a1851461020857610151565b80635bb47808146101bc5780636c7c402f146101cf57610151565b80631459457a14610156578063158ef93e1461016b5780631e4ad6a2146101895780632866519d1461019c575b600080fd5b610169610164366004611639565b6102ce565b005b6101736103b8565b6040516101809190611b00565b60405180910390f35b6101696101973660046118d8565b6103d9565b6101af6101aa366004611832565b6104a7565b604051610180919061193b565b6101696101ca3660046115fa565b6105b9565b6101696101dd3660046115fa565b610626565b6101af6101f0366004611727565b610693565b6101af610203366004611832565b61076a565b6101696102163660046115fa565b610950565b6101696102293660046115fa565b6109bd565b61016961023c3660046115fa565b610a58565b6101af61024f3660046117a2565b610aba565b6101736102623660046115fa565b610b8a565b6101696102753660046115fa565b610ba8565b6101696102883660046118d8565b610c15565b6101af61029b3660046116a9565b610cb0565b610169610d7d565b6101696102b63660046115fa565b610dd4565b6101696102c93660046115fa565b610f1c565b3360009081526020819052604090205460ff161515600114806102f057503033145b6103155760405162461bcd60e51b815260040161030c90611b42565b60405180910390fd5b6001805473ffffffffffffffffffffffffffffffffffffffff199081166001600160a01b039788161790915560028054821695871695909517909455600380548516938616939093179092556004805484169185169190911790556005805474010000000000000000000000000000000000000000931691909316177fffffffffffffffffffffff00ffffffffffffffffffffffffffffffffffffffff16179055565b60055474010000000000000000000000000000000000000000900460ff1690565b3360009081526020819052604090205460ff161515600114806103fb57503033145b6104175760405162461bcd60e51b815260040161030c90611b42565b6001546040517f85efa54c00000000000000000000000000000000000000000000000000000000815273__$415eb1c69eabc622d82690315fa0e33bfb$__916385efa54c91610474916001600160a01b0316908590600401611ac6565b60006040518083038186803b15801561048c57600080fd5b505af41580156104a0573d6000803e3d6000fd5b5050505050565b3360009081526020819052604081205460ff161515600114806104c957503033145b6104e55760405162461bcd60e51b815260040161030c90611b42565b6002546040517f1500cfba00000000000000000000000000000000000000000000000000000000815273__$415eb1c69eabc622d82690315fa0e33bfb$__91631500cfba91610550916001600160a01b0316908d908d908d908d908d908d908d908d90600401611a24565b60206040518083038186803b15801561056857600080fd5b505af415801561057c573d6000803e3d6000fd5b505050506040513d601f19601f820116820180604052508101906105a0919061161d565b90506105ad333383610f89565b98975050505050505050565b3360009081526020819052604090205460ff161515600114806105db57503033145b6105f75760405162461bcd60e51b815260040161030c90611b42565b6002805473ffffffffffffffffffffffffffffffffffffffff19166001600160a01b0392909216919091179055565b3360009081526020819052604090205460ff1615156001148061064857503033145b6106645760405162461bcd60e51b815260040161030c90611b42565b6004805473ffffffffffffffffffffffffffffffffffffffff19166001600160a01b0392909216919091179055565b6040517ff87924d000000000000000000000000000000000000000000000000000000000815260009073__$c2cf3eebb563d155e336d59c40be15cffe$__9063f87924d0906106ea9087908790879060040161198d565b60206040518083038186803b15801561070257600080fd5b505af4158015610716573d6000803e3d6000fd5b505050506040513d601f19601f8201168201806040525081019061073a919061161d565b6001546004549192506107609130916001600160a01b0390811691168960028a87611321565b5095945050505050565b3360009081526020819052604081205460ff1615156001148061078c57503033145b6107a85760405162461bcd60e51b815260040161030c90611b42565b6002546040517f1500cfba00000000000000000000000000000000000000000000000000000000815273__$415eb1c69eabc622d82690315fa0e33bfb$__91631500cfba91610813916001600160a01b0316908d908d908d908d908d908d908d908d90600401611a24565b60206040518083038186803b15801561082b57600080fd5b505af415801561083f573d6000803e3d6000fd5b505050506040513d601f19601f82011682018060405250810190610863919061161d565b90506105ad816001600160a01b03166302d05d3f6040518163ffffffff1660e01b815260040160206040518083038186803b1580156108a157600080fd5b505afa1580156108b5573d6000803e3d6000fd5b505050506040513d601f19601f820116820180604052508101906108d9919061161d565b826001600160a01b031663041ae8806040518163ffffffff1660e01b815260040160206040518083038186803b15801561091257600080fd5b505afa158015610926573d6000803e3d6000fd5b505050506040513d601f19601f8201168201806040525081019061094a919061161d565b83610f89565b3360009081526020819052604090205460ff1615156001148061097257503033145b61098e5760405162461bcd60e51b815260040161030c90611b42565b6003805473ffffffffffffffffffffffffffffffffffffffff19166001600160a01b0392909216919091179055565b3360009081526020819052604090205460ff161515600114806109df57503033145b6109fb5760405162461bcd60e51b815260040161030c90611b42565b6003546040517fdc7ceea400000000000000000000000000000000000000000000000000000000815273__$c2cf3eebb563d155e336d59c40be15cffe$__9163dc7ceea491610474916001600160a01b031690859060040161194f565b3360009081526020819052604090205460ff16151560011480610a7a57503033145b610a965760405162461bcd60e51b815260040161030c90611b42565b6001600160a01b03166000908152602081905260409020805460ff19166001179055565b6040517fc9ceb95100000000000000000000000000000000000000000000000000000000815260009073__$c2cf3eebb563d155e336d59c40be15cffe$__9063c9ceb95190610b1190879087908790600401611a94565b60206040518083038186803b158015610b2957600080fd5b505af4158015610b3d573d6000803e3d6000fd5b505050506040513d601f19601f82011682018060405250810190610b61919061161d565b600180546004549293506107609230926001600160a01b0392831692909116908a908a87611321565b6001600160a01b031660009081526020819052604090205460ff1690565b3360009081526020819052604090205460ff16151560011480610bca57503033145b610be65760405162461bcd60e51b815260040161030c90611b42565b6005805473ffffffffffffffffffffffffffffffffffffffff19166001600160a01b0392909216919091179055565b3360009081526020819052604090205460ff16151560011480610c3757503033145b610c535760405162461bcd60e51b815260040161030c90611b42565b6001546040517f8851debd00000000000000000000000000000000000000000000000000000000815273__$415eb1c69eabc622d82690315fa0e33bfb$__91638851debd91610474916001600160a01b0316908590600401611ac6565b6040517fd6c49d7600000000000000000000000000000000000000000000000000000000815260009073__$c2cf3eebb563d155e336d59c40be15cffe$__9063d6c49d7690610d0790879087908790600401611969565b60206040518083038186803b158015610d1f57600080fd5b505af4158015610d33573d6000803e3d6000fd5b505050506040513d601f19601f82011682018060405250810190610d57919061161d565b6001546004549192506107609130916001600160a01b0390811691168960038a87611321565b3360009081526020819052604090205460ff16151560011480610d9f57503033145b610dbb5760405162461bcd60e51b815260040161030c90611b42565b336000908152602081905260409020805460ff19169055565b6005547501000000000000000000000000000000000000000000900460ff1615610e105760405162461bcd60e51b815260040161030c90611b0b565b6001546040517f156e29f60000000000000000000000000000000000000000000000000000000081526001600160a01b039091169063156e29f690610e619084906000906207a12090600401611adf565b600060405180830381600087803b158015610e7b57600080fd5b505af1158015610e8f573d6000803e3d6000fd5b5050600580547fffffffffffffffffffff00ffffffffffffffffffffffffffffffffffffffffff16750100000000000000000000000000000000000000000017905550506040516001600160a01b038216907f1b9ddf8f7c45e0567932349c127951357a3f9b5a821eeeec6e44d771debbb49090610f11906207a12090611b9f565b60405180910390a250565b3360009081526020819052604090205460ff16151560011480610f3e57503033145b610f5a5760405162461bcd60e51b815260040161030c90611b42565b6001805473ffffffffffffffffffffffffffffffffffffffff19166001600160a01b0392909216919091179055565b60015460405163a7fc7a0760e01b81526001600160a01b039091169063a7fc7a0790610fb990849060040161193b565b600060405180830381600087803b158015610fd357600080fd5b505af1158015610fe7573d6000803e3d6000fd5b50506001546040517fef72f2760000000000000000000000000000000000000000000000000000000081526001600160a01b03909116925063ef72f276915061103490849060040161193b565b600060405180830381600087803b15801561104e57600080fd5b505af1158015611062573d6000803e3d6000fd5b505060405163a7fc7a0760e01b815230925063a7fc7a07915061108990849060040161193b565b600060405180830381600087803b1580156110a357600080fd5b505af11580156110b7573d6000803e3d6000fd5b50506001546040517fd104f8f50000000000000000000000000000000000000000000000000000000081526001600160a01b03808616945063d104f8f5935061110492169060040161193b565b600060405180830381600087803b15801561111e57600080fd5b505af1158015611132573d6000803e3d6000fd5b50506005546040517fd73cd47f0000000000000000000000000000000000000000000000000000000081526001600160a01b03808616945063d73cd47f935061117f92169060040161193b565b600060405180830381600087803b15801561119957600080fd5b505af11580156111ad573d6000803e3d6000fd5b50506040517fc42cf5350000000000000000000000000000000000000000000000000000000081526001600160a01b038416925063c42cf53591506111f690309060040161193b565b600060405180830381600087803b15801561121057600080fd5b505af1158015611224573d6000803e3d6000fd5b50506003546040517f9277a1850000000000000000000000000000000000000000000000000000000081526001600160a01b038086169450639277a185935061127192169060040161193b565b600060405180830381600087803b15801561128b57600080fd5b505af115801561129f573d6000803e3d6000fd5b50506040517f2449ef510000000000000000000000000000000000000000000000000000000081526001600160a01b0384169250632449ef5191506112ea908690869060040161194f565b600060405180830381600087803b15801561130457600080fd5b505af1158015611318573d6000803e3d6000fd5b50505050505050565b6040517f4c3000760000000000000000000000000000000000000000000000000000000081526000906001600160a01b03871690634c3000769061136f908890879087908a906004016119b1565b602060405180830381600087803b15801561138957600080fd5b505af115801561139d573d6000803e3d6000fd5b505050506040513d601f19601f820116820180604052508101906113c1919061161d565b6040517fd104f8f50000000000000000000000000000000000000000000000000000000081529091506001600160a01b0382169063d104f8f590611409908a9060040161193b565b600060405180830381600087803b15801561142357600080fd5b505af1158015611437573d6000803e3d6000fd5b50506040517fc42cf5350000000000000000000000000000000000000000000000000000000081526001600160a01b038416925063c42cf5359150611480908b9060040161193b565b600060405180830381600087803b15801561149a57600080fd5b505af11580156114ae573d6000803e3d6000fd5b505060405163a7fc7a0760e01b81526001600160a01b038a16925063a7fc7a0791506114de90849060040161193b565b600060405180830381600087803b1580156114f857600080fd5b505af115801561150c573d6000803e3d6000fd5b505060405163a7fc7a0760e01b81526001600160a01b038b16925063a7fc7a07915061153c90849060040161193b565b600060405180830381600087803b15801561155657600080fd5b505af115801561156a573d6000803e3d6000fd5b50505050979650505050505050565b600082601f830112611589578081fd5b813567ffffffffffffffff808211156115a4576115a4611ba8565b6040516020601f19601f85011682010181811083821117156115c8576115c8611ba8565b6040528281528483016020018610156115df578384fd5b82602086016020830137918201602001929092529392505050565b60006020828403121561160b578081fd5b813561161681611bd7565b9392505050565b60006020828403121561162e578081fd5b815161161681611bd7565b600080600080600060a08688031215611650578081fd5b853561165b81611bd7565b9450602086013561166b81611bd7565b9350604086013561167b81611bd7565b9250606086013561168b81611bd7565b9150608086013561169b81611bd7565b809150509295509295909350565b600080600080600060a086880312156116c0578081fd5b85356116cb81611bd7565b9450602086013567ffffffffffffffff8111156116e6578182fd5b6116f288828901611579565b945050604086013561170381611bd7565b9250606086013561171381611bd7565b91506080860135801515811461169b578182fd5b600080600080600060a0868803121561173e578081fd5b853561174981611bd7565b9450602086013567ffffffffffffffff811115611764578182fd5b61177088828901611579565b945050604086013561178181611bd7565b9250606086013561179181611bd7565b949793965091946080013592915050565b600080600080600060a086880312156117b9578081fd5b85356117c481611bd7565b9450602086013567ffffffffffffffff808211156117e0578283fd5b6117ec89838a01611579565b9550604088013591506117fe82611bd7565b90935060608701359080821115611813578283fd5b5061182088828901611579565b95989497509295608001359392505050565b600080600080600080600080610100898b03121561184e578283fd5b883567ffffffffffffffff80821115611865578485fd5b6118718c838d01611579565b995060208b0135915080821115611886578485fd5b506118938b828c01611579565b97505060408901359550606089013594506080890135935060a0890135925060c0890135915060e08901356118c781611bd7565b809150509295985092959890939650565b6000602082840312156118e9578081fd5b5035919050565b60008151808452815b81811015611915576020818501810151868301820152016118f9565b818111156119265782602083870101525b50601f01601f19169290920160200192915050565b6001600160a01b0391909116815260200190565b6001600160a01b0392831681529116602082015260400190565b6001600160a01b039384168152919092166020820152901515604082015260600190565b6001600160a01b039384168152919092166020820152604081019190915260600190565b60006001600160a01b038087168352608060208401526119d460808401876118f0565b9085166040840152905060048310611a15577f4e487b7100000000000000000000000000000000000000000000000000000000600052602160045260246000fd5b82606083015295945050505050565b60006101206001600160a01b03808d168452816020850152611a488285018d6118f0565b91508382036040850152611a5c828c6118f0565b606085019a909a526080840198909852505060a081019490945260c084019290925260e0830152909116610100909101529392505050565b60006001600160a01b038516825260606020830152611ab660608301856118f0565b9050826040830152949350505050565b6001600160a01b03929092168252602082015260400190565b6001600160a01b039390931683526020830191909152604082015260600190565b901515815260200190565b6020808252600e908201527f414c52454144595f495353554544000000000000000000000000000000000000604082015260600190565b60208082526028908201527f436f6e74726f6c6c61626c653a2063616c6c6572206973206e6f74206120636f60408201527f6e74726f6c6c6572000000000000000000000000000000000000000000000000606082015260800190565b90815260200190565b7f4e487b7100000000000000000000000000000000000000000000000000000000600052604160045260246000fd5b6001600160a01b0381168114611bec57600080fd5b5056fea26469706673582212205ad32dc44f0ba65f46b1f3ad1419ff3a90d552a8187cd8e6dc4b6dd9dbee7aa164736f6c63430008000033",
  "libraries": {
    "GovernanceLib": "0xaeb86F3860AD5B29aE141c56709835130ecbE0D9",
    "Strings": "0xAaCc702df0e464b2f2896aEe801241eEA6DBdba1",
    "AddressSet": "0x2521688f2bdf04bd785D477C05d5240634E63708",
    "UInt256Set": "0xE519B631E93BE6Df760b3872dE88344Dd969370a",
    "Create2": "0xe83DEBccfFF96a5113Bd485967a643D60C4487fd",
    "ProposalsLib": "0xd98B1717903B2Ff81b08F680372887a8c35174c2",
    "ComplexPoolLib": "0x9aCda89A5C672c5f74bf71C723D9fAad285167C2",
    "WrappedTokenLib": "0x9c2C592C7C6D3f7A58aD74ddCf31D0dE2f8807a5"
  },
  "devdoc": {
    "kind": "dev",
    "methods": {
      "addController(address)": {
        "details": "Add an address allowed to control this contract"
      },
      "constructor": {
        "details": "contract controller"
      },
      "createChangeFeeProposal(address,string,address,address,uint256)": {
        "details": "create a proposal to change fees for a token / pool"
      },
      "createFundProjectProposal(address,string,address,string,uint256)": {
        "details": "create a proposal to create a project funding proposal"
      },
      "createPool(string,string,uint256,uint256,uint256,uint256,uint256,address)": {
        "details": "create a new pool - public, only callable by a controller of this contract"
      },
      "createProposalVoteTokens(uint256)": {
        "details": "create proposal vote tokens"
      },
      "createSystemPool(string,string,uint256,uint256,uint256,uint256,uint256,address)": {
        "details": "create a new pool - public, only callable by a controller of this contract"
      },
      "createUpdateAllowlistProposal(address,string,address,address,bool)": {
        "details": "create a proposal to update the allowlist of a token/pool"
      },
      "destroyProposalVoteTokens(uint256)": {
        "details": "destroy proposal vote tokens"
      },
      "executeProposal(address)": {
        "details": "execute proposal"
      },
      "initialize(address,address,address,address,address)": {
        "details": "init this smart contract"
      },
      "initialized()": {
        "details": "is the contract initialized"
      },
      "isController(address)": {
        "details": "Check if this address is a controller"
      },
      "issueInitialGovernanceTokens(address)": {
        "details": "issue initial governance tokens"
      },
      "relinquishControl()": {
        "details": "Remove the sender address from the list of controllers"
      },
      "setFactory(address)": {
        "details": "set category category"
      },
      "setFeeTracker(address)": {
        "details": "set category category"
      },
      "setMultitoken(address)": {
        "details": "set category category"
      },
      "setProposalFactory(address)": {
        "details": "set category category"
      },
      "setSwapHelper(address)": {
        "details": "set category category"
      }
    },
    "version": 1
  },
  "userdoc": {
    "kind": "user",
    "methods": {},
    "version": 1
  },
  "storageLayout": {
    "storage": [
      {
        "astId": 4752,
        "contract": "src/governance/NFTGemGovernor.sol:NFTGemGovernor",
        "label": "_controllers",
        "offset": 0,
        "slot": "0",
        "type": "t_mapping(t_address,t_bool)"
      },
      {
        "astId": 6368,
        "contract": "src/governance/NFTGemGovernor.sol:NFTGemGovernor",
        "label": "multitoken",
        "offset": 0,
        "slot": "1",
        "type": "t_address"
      },
      {
        "astId": 6370,
        "contract": "src/governance/NFTGemGovernor.sol:NFTGemGovernor",
        "label": "factory",
        "offset": 0,
        "slot": "2",
        "type": "t_address"
      },
      {
        "astId": 6372,
        "contract": "src/governance/NFTGemGovernor.sol:NFTGemGovernor",
        "label": "feeTracker",
        "offset": 0,
        "slot": "3",
        "type": "t_address"
      },
      {
        "astId": 6374,
        "contract": "src/governance/NFTGemGovernor.sol:NFTGemGovernor",
        "label": "proposalFactory",
        "offset": 0,
        "slot": "4",
        "type": "t_address"
      },
      {
        "astId": 6376,
        "contract": "src/governance/NFTGemGovernor.sol:NFTGemGovernor",
        "label": "swapHelper",
        "offset": 0,
        "slot": "5",
        "type": "t_address"
      },
      {
        "astId": 6378,
        "contract": "src/governance/NFTGemGovernor.sol:NFTGemGovernor",
        "label": "_initialized",
        "offset": 20,
        "slot": "5",
        "type": "t_bool"
      },
      {
        "astId": 6386,
        "contract": "src/governance/NFTGemGovernor.sol:NFTGemGovernor",
        "label": "governanceIssued",
        "offset": 21,
        "slot": "5",
        "type": "t_bool"
      }
    ],
    "types": {
      "t_address": {
        "encoding": "inplace",
        "label": "address",
        "numberOfBytes": "20"
      },
      "t_bool": {
        "encoding": "inplace",
        "label": "bool",
        "numberOfBytes": "1"
      },
      "t_mapping(t_address,t_bool)": {
        "encoding": "mapping",
        "key": "t_address",
        "label": "mapping(address => bool)",
        "numberOfBytes": "32",
        "value": "t_bool"
      }
    }
  }
}