{
  "address": "0x58CeCb74A1b3510410Dd14E9281D1fe6fC106078",
  "abi": [
    {
      "inputs": [],
      "stateMutability": "nonpayable",
      "type": "constructor"
    },
    {
      "anonymous": false,
      "inputs": [
        {
          "indexed": true,
          "internalType": "address",
          "name": "contractAddress",
          "type": "address"
        },
        {
          "indexed": true,
          "internalType": "address",
          "name": "controllerAddress",
          "type": "address"
        }
      ],
      "name": "ControllerAdded",
      "type": "event"
    },
    {
      "anonymous": false,
      "inputs": [
        {
          "indexed": true,
          "internalType": "address",
          "name": "contractAddress",
          "type": "address"
        },
        {
          "indexed": true,
          "internalType": "address",
          "name": "controllerAddress",
          "type": "address"
        }
      ],
      "name": "ControllerRemoved",
      "type": "event"
    },
    {
      "inputs": [
        {
          "internalType": "address",
          "name": "_controller",
          "type": "address"
        }
      ],
      "name": "addController",
      "outputs": [],
      "stateMutability": "nonpayable",
      "type": "function"
    },
    {
      "inputs": [
        {
          "internalType": "address",
          "name": "owner",
          "type": "address"
        },
        {
          "internalType": "address",
          "name": "funder",
          "type": "address"
        },
        {
          "internalType": "string",
          "name": "symbol",
          "type": "string"
        },
        {
          "internalType": "string",
          "name": "name",
          "type": "string"
        },
        {
          "internalType": "uint256",
          "name": "ethPrice",
          "type": "uint256"
        },
        {
          "internalType": "uint256",
          "name": "minTime",
          "type": "uint256"
        },
        {
          "internalType": "uint256",
          "name": "maxTime",
          "type": "uint256"
        },
        {
          "internalType": "uint256",
          "name": "diffstep",
          "type": "uint256"
        },
        {
          "internalType": "uint256",
          "name": "maxClaims",
          "type": "uint256"
        },
        {
          "internalType": "address",
          "name": "allowedToken",
          "type": "address"
        }
      ],
      "name": "createPool",
      "outputs": [
        {
          "internalType": "address",
          "name": "pool",
          "type": "address"
        }
      ],
      "stateMutability": "nonpayable",
      "type": "function"
    },
    {
      "inputs": [
        {
          "internalType": "string",
          "name": "symbol",
          "type": "string"
        },
        {
          "internalType": "string",
          "name": "name",
          "type": "string"
        },
        {
          "internalType": "uint256",
          "name": "ethPrice",
          "type": "uint256"
        },
        {
          "internalType": "uint256",
          "name": "minTime",
          "type": "uint256"
        },
        {
          "internalType": "uint256",
          "name": "maxTime",
          "type": "uint256"
        },
        {
          "internalType": "uint256",
          "name": "diffstep",
          "type": "uint256"
        },
        {
          "internalType": "uint256",
          "name": "maxClaims",
          "type": "uint256"
        },
        {
          "internalType": "address",
          "name": "allowedToken",
          "type": "address"
        }
      ],
      "name": "createSystemPool",
      "outputs": [
        {
          "internalType": "address",
          "name": "pool",
          "type": "address"
        }
      ],
      "stateMutability": "nonpayable",
      "type": "function"
    },
    {
      "inputs": [
        {
          "internalType": "address",
          "name": "_multitoken",
          "type": "address"
        },
        {
          "internalType": "address",
          "name": "_factory",
          "type": "address"
        },
        {
          "internalType": "address",
          "name": "_feeTracker",
          "type": "address"
        },
        {
          "internalType": "address",
          "name": "_swapHelper",
          "type": "address"
        }
      ],
      "name": "initialize",
      "outputs": [],
      "stateMutability": "nonpayable",
      "type": "function"
    },
    {
      "inputs": [],
      "name": "initialized",
      "outputs": [
        {
          "internalType": "bool",
          "name": "",
          "type": "bool"
        }
      ],
      "stateMutability": "view",
      "type": "function"
    },
    {
      "inputs": [
        {
          "internalType": "address",
          "name": "_address",
          "type": "address"
        }
      ],
      "name": "isController",
      "outputs": [
        {
          "internalType": "bool",
          "name": "allowed",
          "type": "bool"
        }
      ],
      "stateMutability": "view",
      "type": "function"
    },
    {
      "inputs": [],
      "name": "relinquishControl",
      "outputs": [],
      "stateMutability": "nonpayable",
      "type": "function"
    }
  ],
  "transactionHash": "0xdb15766bb4ce6a782e26074ac390c76a0a2cdd1cbb2bf95f2a2812539967f4bc",
  "args": [],
  "solcInputHash": "2d2f4ad3fdc4b1ca8ac0f60db5b68735",
  "bytecode": "0x608060405234801561001057600080fd5b5061001a3361001f565b610043565b6001600160a01b03166000908152602081905260409020805460ff19166001179055565b610cb9806100526000396000f3fe608060405234801561001057600080fd5b506004361061007d5760003560e01c8063b429afeb1161005b578063b429afeb146100d5578063cb5feb0b146100e8578063e1c28bef146100fb578063f8c8765e146101035761007d565b8063158ef93e146100825780632866519d146100a0578063a7fc7a07146100c0575b600080fd5b61008a610116565b6040516100979190610b77565b60405180910390f35b6100b36100ae3660046109e8565b610174565b6040516100979190610ad9565b6100d36100ce366004610889565b6101da565b005b61008a6100e3366004610889565b61023c565b6100b36100f6366004610923565b61025a565b6100d361027d565b6100d36101113660046108c8565b6102d4565b6001546000906201000090046001600160a01b03161580159061014357506002546001600160a01b031615155b801561015957506003546001600160a01b031615155b801561016f57506004546001600160a01b031615155b905090565b3360009081526020819052604081205460ff1615156001148061019657503033145b6101bb5760405162461bcd60e51b81526004016101b290610bdf565b60405180910390fd5b6101cd33338b8b8b8b8b8b8b8b6103d7565b9998505050505050505050565b3360009081526020819052604090205460ff161515600114806101fc57503033145b6102185760405162461bcd60e51b81526004016101b290610bdf565b6001600160a01b03166000908152602081905260409020805460ff19166001179055565b6001600160a01b031660009081526020819052604090205460ff1690565b600061026e8b8b8b8b8b8b8b8b8b8b6103d7565b9b9a5050505050505050505050565b3360009081526020819052604090205460ff1615156001148061029f57503033145b6102bb5760405162461bcd60e51b81526004016101b290610bdf565b336000908152602081905260409020805460ff19169055565b600154610100900460ff16806102ed575060015460ff16155b6103095760405162461bcd60e51b81526004016101b290610b82565b600154610100900460ff16158015610333576001805460ff1961ff00199091166101001716811790555b600180547fffffffffffffffffffff0000000000000000000000000000000000000000ffff16620100006001600160a01b038881169190910291909117909155600280547fffffffffffffffffffffffff0000000000000000000000000000000000000000908116878416179091556003805482168684161790556004805490911691841691909117905580156103d0576001805461ff00191690555b5050505050565b6002546040517f8514d3580000000000000000000000000000000000000000000000000000000081526000916001600160a01b031690638514d35890610431908e908d908d908d908d908d908d908d908d90600401610b07565b602060405180830381600087803b15801561044b57600080fd5b505af115801561045f573d6000803e3d6000fd5b505050506040513d601f19601f8201168201806040525081019061048391906108ac565b90506104908b8b8361049e565b9a9950505050505050505050565b6001546040517fa7fc7a07000000000000000000000000000000000000000000000000000000008152620100009091046001600160a01b03169063a7fc7a07906104ec908490600401610ad9565b600060405180830381600087803b15801561050657600080fd5b505af115801561051a573d6000803e3d6000fd5b50506040517fa7fc7a0700000000000000000000000000000000000000000000000000000000815230925063a7fc7a07915061055a908490600401610ad9565b600060405180830381600087803b15801561057457600080fd5b505af1158015610588573d6000803e3d6000fd5b50506001546040517fd104f8f50000000000000000000000000000000000000000000000000000000081526001600160a01b03808616945063d104f8f593506105db926201000090041690600401610ad9565b600060405180830381600087803b1580156105f557600080fd5b505af1158015610609573d6000803e3d6000fd5b5050600480546040517fd73cd47f0000000000000000000000000000000000000000000000000000000081526001600160a01b03808716955063d73cd47f94506106569392169101610ad9565b600060405180830381600087803b15801561067057600080fd5b505af1158015610684573d6000803e3d6000fd5b50506040517fc42cf5350000000000000000000000000000000000000000000000000000000081526001600160a01b038416925063c42cf53591506106cd903090600401610ad9565b600060405180830381600087803b1580156106e757600080fd5b505af11580156106fb573d6000803e3d6000fd5b50506003546040517f9277a1850000000000000000000000000000000000000000000000000000000081526001600160a01b038086169450639277a1859350610748921690600401610ad9565b600060405180830381600087803b15801561076257600080fd5b505af1158015610776573d6000803e3d6000fd5b50506040517f2449ef510000000000000000000000000000000000000000000000000000000081526001600160a01b0384169250632449ef5191506107c19086908690600401610aed565b600060405180830381600087803b1580156107db57600080fd5b505af11580156107ef573d6000803e3d6000fd5b50505050505050565b803561080381610c6b565b919050565b600082601f830112610818578081fd5b813567ffffffffffffffff8082111561083357610833610c3c565b6040516020601f19601f850116820101818110838211171561085757610857610c3c565b60405282815284830160200186101561086e578384fd5b82602086016020830137918201602001929092529392505050565b60006020828403121561089a578081fd5b81356108a581610c6b565b9392505050565b6000602082840312156108bd578081fd5b81516108a581610c6b565b600080600080608085870312156108dd578283fd5b84356108e881610c6b565b935060208501356108f881610c6b565b9250604085013561090881610c6b565b9150606085013561091881610c6b565b939692955090935050565b6000806000806000806000806000806101408b8d031215610942578586fd5b61094b8b6107f8565b995061095960208c016107f8565b985060408b013567ffffffffffffffff80821115610975578788fd5b6109818e838f01610808565b995060608d0135915080821115610996578788fd5b506109a38d828e01610808565b97505060808b0135955060a08b0135945060c08b0135935060e08b013592506101008b013591506109d76101208c016107f8565b90509295989b9194979a5092959850565b600080600080600080600080610100898b031215610a04578384fd5b883567ffffffffffffffff80821115610a1b578586fd5b610a278c838d01610808565b995060208b0135915080821115610a3c578586fd5b50610a498b828c01610808565b97505060408901359550606089013594506080890135935060a0890135925060c0890135915060e0890135610a7d81610c6b565b809150509295985092959890939650565b60008151808452815b81811015610ab357602081850181015186830182015201610a97565b81811115610ac45782602083870101525b50601f01601f19169290920160200192915050565b6001600160a01b0391909116815260200190565b6001600160a01b0392831681529116602082015260400190565b60006101206001600160a01b03808d168452816020850152610b2b8285018d610a8e565b91508382036040850152610b3f828c610a8e565b606085019a909a526080840198909852505060a081019490945260c084019290925260e0830152909116610100909101529392505050565b901515815260200190565b6020808252602e908201527f496e697469616c697a61626c653a20636f6e747261637420697320616c72656160408201527f647920696e697469616c697a6564000000000000000000000000000000000000606082015260800190565b60208082526028908201527f436f6e74726f6c6c61626c653a2063616c6c6572206973206e6f74206120636f60408201527f6e74726f6c6c6572000000000000000000000000000000000000000000000000606082015260800190565b7f4e487b7100000000000000000000000000000000000000000000000000000000600052604160045260246000fd5b6001600160a01b0381168114610c8057600080fd5b5056fea26469706673582212207f845516ef156bed49912b349c5cac737b947f350806740bb16ac3975a978dbb64736f6c63430008000033",
  "libraries": {
    "Strings": "0xeB3E79099663eC952e02E608E00d463F36b4Fb75",
    "AddressSet": "0x8974D57fCfF9C10E9d41709da86d006604D8c75d",
    "UInt256Set": "0x8B6893DB13b55d4952a51d5188215e2a470515a9",
    "Create2": "0xBa85d3e8E0F9e48F5c21649d33f6d0f9Af12E3f5",
    "WrappedTokenLib": "0x0307a2E913FD8fb384a939Cfb7655C30820727D8",
    "ComplexPoolLib": "0x3802c9d35c585ac6668e24A93Bb341D50662aA4E"
  },
  "devdoc": {
    "details": "The governor contract for the system. Can create system pools (public pools shown on bitgems sites)      and user-owned pools (private pools not shown on the bitgem sites). All  privileged calls are made      through this contract.",
    "kind": "dev",
    "methods": {
      "addController(address)": {
        "details": "Add an address allowed to control this contract"
      },
      "constructor": {
        "details": "contract constructor"
      },
      "createPool(address,address,string,string,uint256,uint256,uint256,uint256,uint256,address)": {
        "details": "create a new pool - public"
      },
      "createSystemPool(string,string,uint256,uint256,uint256,uint256,uint256,address)": {
        "details": "create a new system pool - called by sysadmins to add public pools"
      },
      "initialize(address,address,address,address)": {
        "details": "init this smart contract. Can only be called once. Sets the related contracts."
      },
      "isController(address)": {
        "details": "Check if this address is a controller"
      },
      "relinquishControl()": {
        "details": "Remove the sender address from the list of controllers"
      }
    },
    "version": 1
  },
  "userdoc": {
    "kind": "user",
    "methods": {},
    "version": 1
  },
  "storageLayout": {
    "storage": [
      {
        "astId": 12816,
        "contract": "src/governance/NFTGemGovernor.sol:NFTGemGovernor",
        "label": "_controllers",
        "offset": 0,
        "slot": "0",
        "type": "t_mapping(t_address,t_bool)"
      },
      {
        "astId": 5,
        "contract": "src/governance/NFTGemGovernor.sol:NFTGemGovernor",
        "label": "_initialized",
        "offset": 0,
        "slot": "1",
        "type": "t_bool"
      },
      {
        "astId": 8,
        "contract": "src/governance/NFTGemGovernor.sol:NFTGemGovernor",
        "label": "_initializing",
        "offset": 1,
        "slot": "1",
        "type": "t_bool"
      },
      {
        "astId": 14784,
        "contract": "src/governance/NFTGemGovernor.sol:NFTGemGovernor",
        "label": "multitoken",
        "offset": 2,
        "slot": "1",
        "type": "t_address"
      },
      {
        "astId": 14786,
        "contract": "src/governance/NFTGemGovernor.sol:NFTGemGovernor",
        "label": "factory",
        "offset": 0,
        "slot": "2",
        "type": "t_address"
      },
      {
        "astId": 14788,
        "contract": "src/governance/NFTGemGovernor.sol:NFTGemGovernor",
        "label": "feeTracker",
        "offset": 0,
        "slot": "3",
        "type": "t_address"
      },
      {
        "astId": 14790,
        "contract": "src/governance/NFTGemGovernor.sol:NFTGemGovernor",
        "label": "swapHelper",
        "offset": 0,
        "slot": "4",
        "type": "t_address"
      }
    ],
    "types": {
      "t_address": {
        "encoding": "inplace",
        "label": "address",
        "numberOfBytes": "20"
      },
      "t_bool": {
        "encoding": "inplace",
        "label": "bool",
        "numberOfBytes": "1"
      },
      "t_mapping(t_address,t_bool)": {
        "encoding": "mapping",
        "key": "t_address",
        "label": "mapping(address => bool)",
        "numberOfBytes": "32",
        "value": "t_bool"
      }
    }
  }
}