{
  "address": "0x99B7e876d7C3213Afa5214D926C8fdd3170bEEDB",
  "abi": [
    {
      "inputs": [
        {
          "internalType": "string",
          "name": "name",
          "type": "string"
        },
        {
          "internalType": "string",
          "name": "symbol",
          "type": "string"
        },
        {
          "internalType": "address",
          "name": "erc1155Token",
          "type": "address"
        },
        {
          "internalType": "address",
          "name": "feeManager",
          "type": "address"
        }
      ],
      "stateMutability": "nonpayable",
      "type": "constructor"
    },
    {
      "anonymous": false,
      "inputs": [
        {
          "indexed": true,
          "internalType": "address",
          "name": "owner",
          "type": "address"
        },
        {
          "indexed": true,
          "internalType": "address",
          "name": "spender",
          "type": "address"
        },
        {
          "indexed": false,
          "internalType": "uint256",
          "name": "value",
          "type": "uint256"
        }
      ],
      "name": "Approval",
      "type": "event"
    },
    {
      "anonymous": false,
      "inputs": [
        {
          "indexed": true,
          "internalType": "address",
          "name": "from",
          "type": "address"
        },
        {
          "indexed": true,
          "internalType": "address",
          "name": "to",
          "type": "address"
        },
        {
          "indexed": false,
          "internalType": "uint256",
          "name": "value",
          "type": "uint256"
        }
      ],
      "name": "Transfer",
      "type": "event"
    },
    {
      "anonymous": false,
      "inputs": [
        {
          "indexed": true,
          "internalType": "address",
          "name": "account",
          "type": "address"
        },
        {
          "indexed": false,
          "internalType": "uint256",
          "name": "quantity",
          "type": "uint256"
        }
      ],
      "name": "Unwrap",
      "type": "event"
    },
    {
      "anonymous": false,
      "inputs": [
        {
          "indexed": true,
          "internalType": "address",
          "name": "account",
          "type": "address"
        },
        {
          "indexed": false,
          "internalType": "uint256",
          "name": "quantity",
          "type": "uint256"
        }
      ],
      "name": "Wrap",
      "type": "event"
    },
    {
      "inputs": [
        {
          "internalType": "address",
          "name": "owner",
          "type": "address"
        },
        {
          "internalType": "address",
          "name": "spender",
          "type": "address"
        }
      ],
      "name": "allowance",
      "outputs": [
        {
          "internalType": "uint256",
          "name": "",
          "type": "uint256"
        }
      ],
      "stateMutability": "view",
      "type": "function"
    },
    {
      "inputs": [
        {
          "internalType": "address",
          "name": "spender",
          "type": "address"
        },
        {
          "internalType": "uint256",
          "name": "amount",
          "type": "uint256"
        }
      ],
      "name": "approve",
      "outputs": [
        {
          "internalType": "bool",
          "name": "",
          "type": "bool"
        }
      ],
      "stateMutability": "nonpayable",
      "type": "function"
    },
    {
      "inputs": [
        {
          "internalType": "address",
          "name": "account",
          "type": "address"
        }
      ],
      "name": "balanceOf",
      "outputs": [
        {
          "internalType": "uint256",
          "name": "",
          "type": "uint256"
        }
      ],
      "stateMutability": "view",
      "type": "function"
    },
    {
      "inputs": [],
      "name": "decimals",
      "outputs": [
        {
          "internalType": "uint8",
          "name": "",
          "type": "uint8"
        }
      ],
      "stateMutability": "view",
      "type": "function"
    },
    {
      "inputs": [
        {
          "internalType": "address",
          "name": "spender",
          "type": "address"
        },
        {
          "internalType": "uint256",
          "name": "subtractedValue",
          "type": "uint256"
        }
      ],
      "name": "decreaseAllowance",
      "outputs": [
        {
          "internalType": "bool",
          "name": "",
          "type": "bool"
        }
      ],
      "stateMutability": "nonpayable",
      "type": "function"
    },
    {
      "inputs": [],
      "name": "getReserves",
      "outputs": [
        {
          "internalType": "uint256",
          "name": "",
          "type": "uint256"
        }
      ],
      "stateMutability": "view",
      "type": "function"
    },
    {
      "inputs": [],
      "name": "getTokenAddress",
      "outputs": [
        {
          "internalType": "address",
          "name": "",
          "type": "address"
        }
      ],
      "stateMutability": "view",
      "type": "function"
    },
    {
      "inputs": [],
      "name": "getTokenId",
      "outputs": [
        {
          "internalType": "uint256",
          "name": "",
          "type": "uint256"
        }
      ],
      "stateMutability": "view",
      "type": "function"
    },
    {
      "inputs": [
        {
          "internalType": "address",
          "name": "spender",
          "type": "address"
        },
        {
          "internalType": "uint256",
          "name": "addedValue",
          "type": "uint256"
        }
      ],
      "name": "increaseAllowance",
      "outputs": [
        {
          "internalType": "bool",
          "name": "",
          "type": "bool"
        }
      ],
      "stateMutability": "nonpayable",
      "type": "function"
    },
    {
      "inputs": [
        {
          "internalType": "string",
          "name": "",
          "type": "string"
        },
        {
          "internalType": "string",
          "name": "",
          "type": "string"
        },
        {
          "internalType": "address",
          "name": "",
          "type": "address"
        },
        {
          "internalType": "address",
          "name": "",
          "type": "address"
        },
        {
          "internalType": "uint8",
          "name": "",
          "type": "uint8"
        }
      ],
      "name": "initialize",
      "outputs": [],
      "stateMutability": "nonpayable",
      "type": "function"
    },
    {
      "inputs": [],
      "name": "name",
      "outputs": [
        {
          "internalType": "string",
          "name": "",
          "type": "string"
        }
      ],
      "stateMutability": "view",
      "type": "function"
    },
    {
      "inputs": [
        {
          "internalType": "address",
          "name": "",
          "type": "address"
        },
        {
          "internalType": "address",
          "name": "",
          "type": "address"
        },
        {
          "internalType": "uint256[]",
          "name": "",
          "type": "uint256[]"
        },
        {
          "internalType": "uint256[]",
          "name": "",
          "type": "uint256[]"
        },
        {
          "internalType": "bytes",
          "name": "",
          "type": "bytes"
        }
      ],
      "name": "onERC1155BatchReceived",
      "outputs": [
        {
          "internalType": "bytes4",
          "name": "",
          "type": "bytes4"
        }
      ],
      "stateMutability": "nonpayable",
      "type": "function"
    },
    {
      "inputs": [
        {
          "internalType": "address",
          "name": "",
          "type": "address"
        },
        {
          "internalType": "address",
          "name": "",
          "type": "address"
        },
        {
          "internalType": "uint256",
          "name": "",
          "type": "uint256"
        },
        {
          "internalType": "uint256",
          "name": "",
          "type": "uint256"
        },
        {
          "internalType": "bytes",
          "name": "",
          "type": "bytes"
        }
      ],
      "name": "onERC1155Received",
      "outputs": [
        {
          "internalType": "bytes4",
          "name": "",
          "type": "bytes4"
        }
      ],
      "stateMutability": "nonpayable",
      "type": "function"
    },
    {
      "inputs": [
        {
          "internalType": "bytes4",
          "name": "interfaceId",
          "type": "bytes4"
        }
      ],
      "name": "supportsInterface",
      "outputs": [
        {
          "internalType": "bool",
          "name": "",
          "type": "bool"
        }
      ],
      "stateMutability": "view",
      "type": "function"
    },
    {
      "inputs": [],
      "name": "symbol",
      "outputs": [
        {
          "internalType": "string",
          "name": "",
          "type": "string"
        }
      ],
      "stateMutability": "view",
      "type": "function"
    },
    {
      "inputs": [],
      "name": "totalSupply",
      "outputs": [
        {
          "internalType": "uint256",
          "name": "",
          "type": "uint256"
        }
      ],
      "stateMutability": "view",
      "type": "function"
    },
    {
      "inputs": [
        {
          "internalType": "address",
          "name": "recipient",
          "type": "address"
        },
        {
          "internalType": "uint256",
          "name": "amount",
          "type": "uint256"
        }
      ],
      "name": "transfer",
      "outputs": [
        {
          "internalType": "bool",
          "name": "",
          "type": "bool"
        }
      ],
      "stateMutability": "nonpayable",
      "type": "function"
    },
    {
      "inputs": [
        {
          "internalType": "address",
          "name": "sender",
          "type": "address"
        },
        {
          "internalType": "address",
          "name": "recipient",
          "type": "address"
        },
        {
          "internalType": "uint256",
          "name": "amount",
          "type": "uint256"
        }
      ],
      "name": "transferFrom",
      "outputs": [
        {
          "internalType": "bool",
          "name": "",
          "type": "bool"
        }
      ],
      "stateMutability": "nonpayable",
      "type": "function"
    },
    {
      "inputs": [
        {
          "internalType": "uint256",
          "name": "quantity",
          "type": "uint256"
        }
      ],
      "name": "unwrap",
      "outputs": [],
      "stateMutability": "nonpayable",
      "type": "function"
    },
    {
      "inputs": [
        {
          "internalType": "uint256",
          "name": "quantity",
          "type": "uint256"
        }
      ],
      "name": "wrap",
      "outputs": [],
      "stateMutability": "nonpayable",
      "type": "function"
    }
  ],
  "transactionHash": "0x1d03debe11f843b8ae2a3764894186a5e0ed85129b35e4d3ccc0e42f7e72b614",
  "args": [
    "Bitlootbox Governance",
    "BLBX",
    "0xc1aB3E70eDD8314a41F3f99bfF21332c2703BD7F",
    "0x0Ca9e94E1DFa82dA8485236136C412499499642F"
  ],
  "solcInputHash": "4a755f187ec93397268a76d6364483af",
  "bytecode": "0x60806040523480156200001157600080fd5b5060405162001bc938038062001bc9833981810160405260808110156200003757600080fd5b81019080805160405193929190846401000000008211156200005857600080fd5b9083019060208201858111156200006e57600080fd5b82516401000000008111828201881017156200008957600080fd5b82525081516020918201929091019080838360005b83811015620000b85781810151838201526020016200009e565b50505050905090810190601f168015620000e65780820380516001836020036101000a031916815260200191505b50604052602001805160405193929190846401000000008211156200010a57600080fd5b9083019060208201858111156200012057600080fd5b82516401000000008111828201881017156200013b57600080fd5b82525081516020918201929091019080838360005b838110156200016a57818101518382015260200162000150565b50505050905090810190601f168015620001985780820380516001836020036101000a031916815260200191505b50604090815260208281015192909101518651929450925085918591601291869160009160019187918791620001d49160039185019062000330565b508051620001ea90600490602084019062000330565b50506005805460ff19166012179055506200020c6301ffc9a760e01b62000295565b6200021e630271189760e51b62000295565b600780546001600160a01b0385166001600160a01b031991821617909155600980549091169055600a829055600c805460ff19169055600d81905562000264846200031a565b5050601080546001600160a01b0319166001600160a01b03969096169590951790945550620003cc95505050505050565b6001600160e01b03198082161415620002f5576040805162461bcd60e51b815260206004820152601c60248201527f4552433136353a20696e76616c696420696e7465726661636520696400000000604482015290519081900360640190fd5b6001600160e01b0319166000908152600660205260409020805460ff19166001179055565b6005805460ff191660ff92909216919091179055565b828054600181600116156101000203166002900490600052602060002090601f016020900481019282601f106200037357805160ff1916838001178555620003a3565b82800160010185558215620003a3579182015b82811115620003a357825182559160200191906001019062000386565b50620003b1929150620003b5565b5090565b5b80821115620003b15760008155600101620003b6565b6117ed80620003dc6000396000f3fe608060405234801561001057600080fd5b506004361061016c5760003560e01c8063651d8366116100cd578063bc197c8111610081578063de0e9a3e11610066578063de0e9a3e146107b7578063ea598cb0146107d4578063f23a6e61146107f15761016c565b8063bc197c8114610573578063dd62ed3e1461077c5761016c565b806395d89b41116100b257806395d89b41146104f9578063a457c2d714610501578063a9059cbb1461053a5761016c565b8063651d83661461036f57806370a08231146104c65761016c565b806310fe9ae81161012457806323b872dd1161010957806323b872dd146102d5578063313ce5671461031857806339509351146103365761016c565b806310fe9ae81461029c57806318160ddd146102cd5761016c565b806306fdde031161015557806306fdde03146101de5780630902f1ac1461025b578063095ea7b3146102635761016c565b8063010a38f51461017157806301ffc9a71461018b575b600080fd5b6101796108c9565b60408051918252519081900360200190f35b6101ca600480360360208110156101a157600080fd5b50357fffffffff00000000000000000000000000000000000000000000000000000000166108cf565b604080519115158252519081900360200190f35b6101e6610906565b6040805160208082528351818301528351919283929083019185019080838360005b83811015610220578181015183820152602001610208565b50505050905090810190601f16801561024d5780820380516001836020036101000a031916815260200191505b509250505060405180910390f35b6101796109ba565b6101ca6004803603604081101561027957600080fd5b5073ffffffffffffffffffffffffffffffffffffffff8135169060200135610a64565b6102a4610a82565b6040805173ffffffffffffffffffffffffffffffffffffffff9092168252519081900360200190f35b610179610a9e565b6101ca600480360360608110156102eb57600080fd5b5073ffffffffffffffffffffffffffffffffffffffff813581169160208101359091169060400135610aa4565b610320610b45565b6040805160ff9092168252519081900360200190f35b6101ca6004803603604081101561034c57600080fd5b5073ffffffffffffffffffffffffffffffffffffffff8135169060200135610b4e565b6104c4600480360360a081101561038557600080fd5b8101906020810181356401000000008111156103a057600080fd5b8201836020820111156103b257600080fd5b803590602001918460018302840111640100000000831117156103d457600080fd5b91908080601f016020809104026020016040519081016040528093929190818152602001838380828437600092019190915250929594936020810193503591505064010000000081111561042757600080fd5b82018360208201111561043957600080fd5b8035906020019184600183028401116401000000008311171561045b57600080fd5b91908080601f0160208091040260200160405190810160405280939291908181526020018383808284376000920191909152509295505050813573ffffffffffffffffffffffffffffffffffffffff9081169350602083013516916040013560ff169050610ba9565b005b610179600480360360208110156104dc57600080fd5b503573ffffffffffffffffffffffffffffffffffffffff16610bda565b6101e6610c02565b6101ca6004803603604081101561051757600080fd5b5073ffffffffffffffffffffffffffffffffffffffff8135169060200135610c81565b6101ca6004803603604081101561055057600080fd5b5073ffffffffffffffffffffffffffffffffffffffff8135169060200135610cf6565b610747600480360360a081101561058957600080fd5b73ffffffffffffffffffffffffffffffffffffffff82358116926020810135909116918101906060810160408201356401000000008111156105ca57600080fd5b8201836020820111156105dc57600080fd5b803590602001918460208302840111640100000000831117156105fe57600080fd5b919080806020026020016040519081016040528093929190818152602001838360200280828437600092019190915250929594936020810193503591505064010000000081111561064e57600080fd5b82018360208201111561066057600080fd5b8035906020019184602083028401116401000000008311171561068257600080fd5b91908080602002602001604051908101604052809392919081815260200183836020028082843760009201919091525092959493602081019350359150506401000000008111156106d257600080fd5b8201836020820111156106e457600080fd5b8035906020019184600183028401116401000000008311171561070657600080fd5b91908080601f016020809104026020016040519081016040528093929190818152602001838380828437600092019190915250929550610d0a945050505050565b604080517fffffffff000000000000000000000000000000000000000000000000000000009092168252519081900360200190f35b6101796004803603604081101561079257600080fd5b5073ffffffffffffffffffffffffffffffffffffffff81358116916020013516610d34565b6104c4600480360360208110156107cd57600080fd5b5035610d6c565b6104c4600480360360208110156107ea57600080fd5b5035610d6f565b610747600480360360a081101561080757600080fd5b73ffffffffffffffffffffffffffffffffffffffff823581169260208101359091169160408201359160608101359181019060a08101608082013564010000000081111561085457600080fd5b82018360208201111561086657600080fd5b8035906020019184600183028401116401000000008311171561088857600080fd5b91908080601f016020809104026020016040519081016040528093929190818152602001838380828437600092019190915250929550611087945050505050565b600a5490565b7fffffffff000000000000000000000000000000000000000000000000000000001660009081526006602052604090205460ff1690565b60038054604080516020601f60027fffffffffffffffffffffffffffffffffffffffffffffffffffffffffffffffff6101006001881615020190951694909404938401819004810282018101909252828152606093909290918301828280156109b05780601f10610985576101008083540402835291602001916109b0565b820191906000526020600020905b81548152906001019060200180831161099357829003601f168201915b5050505050905090565b600754600a54604080517efdd58e00000000000000000000000000000000000000000000000000000000815230600482015260248101929092525160009273ffffffffffffffffffffffffffffffffffffffff169162fdd58e916044808301926020929190829003018186803b158015610a3357600080fd5b505afa158015610a47573d6000803e3d6000fd5b505050506040513d6020811015610a5d57600080fd5b5051905090565b6000610a78610a716110b1565b84846110b5565b5060015b92915050565b60075473ffffffffffffffffffffffffffffffffffffffff1690565b60025490565b6000610ab18484846111c8565b610b3b84610abd6110b1565b610b36856040518060600160405280602881526020016117226028913973ffffffffffffffffffffffffffffffffffffffff8a16600090815260016020526040812090610b086110b1565b73ffffffffffffffffffffffffffffffffffffffff1681526020810191909152604001600020549190611364565b6110b5565b5060019392505050565b60055460ff1690565b6000610a78610b5b6110b1565b84610b368560016000610b6c6110b1565b73ffffffffffffffffffffffffffffffffffffffff908116825260208083019390935260409182016000908120918c1681529252902054906113fb565b5050600880547fffffffffffffffffffffffff00000000000000000000000000000000000000001630179055505050565b73ffffffffffffffffffffffffffffffffffffffff1660009081526020819052604090205490565b60048054604080516020601f60027fffffffffffffffffffffffffffffffffffffffffffffffffffffffffffffffff6101006001881615020190951694909404938401819004810282018101909252828152606093909290918301828280156109b05780601f10610985576101008083540402835291602001916109b0565b6000610a78610c8e6110b1565b84610b36856040518060600160405280602581526020016117936025913960016000610cb86110b1565b73ffffffffffffffffffffffffffffffffffffffff908116825260208083019390935260409182016000908120918d16815292529020549190611364565b6000610a78610d036110b1565b84846111c8565b7fbc197c810000000000000000000000000000000000000000000000000000000095945050505050565b73ffffffffffffffffffffffffffffffffffffffff918216600090815260016020908152604080832093909416825291909152205490565b50565b80610dc1576040805162461bcd60e51b815260206004820152600d60248201527f5a45524f5f5155414e5449545900000000000000000000000000000000000000604482015290519081900360640190fd5b600754600a54604080517efdd58e000000000000000000000000000000000000000000000000000000008152336004820152602481019290925251839273ffffffffffffffffffffffffffffffffffffffff169162fdd58e916044808301926020929190829003018186803b158015610e3957600080fd5b505afa158015610e4d573d6000803e3d6000fd5b505050506040513d6020811015610e6357600080fd5b50511015610eb8576040805162461bcd60e51b815260206004820152601c60248201527f494e53554646494349454e545f455243313135355f42414c414e434500000000604482015290519081900360640190fd5b6000610ed6610ec5610b45565b600d54849160ff16600a0a0261145c565b601054604080517feee1ad80000000000000000000000000000000000000000000000000000000008152306004820152905192935060009273ffffffffffffffffffffffffffffffffffffffff9092169163eee1ad8091602480820192602092909190829003018186803b158015610f4d57600080fd5b505afa158015610f61573d6000803e3d6000fd5b505050506040513d6020811015610f7757600080fd5b50519050600081610f89576000610f93565b610f9383836114b5565b90506000610fa1848361151c565b600754600a54604080517ff242432a00000000000000000000000000000000000000000000000000000000815233600482015230602482015260448101929092526064820189905260a06084830152600060a48301819052905193945073ffffffffffffffffffffffffffffffffffffffff9092169263f242432a9260e48084019391929182900301818387803b15801561103b57600080fd5b505af115801561104f573d6000803e3d6000fd5b5050505061105d3382611579565b6010546110809073ffffffffffffffffffffffffffffffffffffffff1683611579565b5050505050565b7ff23a6e610000000000000000000000000000000000000000000000000000000095945050505050565b3390565b73ffffffffffffffffffffffffffffffffffffffff83166111075760405162461bcd60e51b815260040180806020018281038252602481526020018061176f6024913960400191505060405180910390fd5b73ffffffffffffffffffffffffffffffffffffffff82166111595760405162461bcd60e51b81526004018080602001828103825260228152602001806116b96022913960400191505060405180910390fd5b73ffffffffffffffffffffffffffffffffffffffff808416600081815260016020908152604080832094871680845294825291829020859055815185815291517f8c5be1e5ebec7d5bd14f71427d1e84f3dd0314c0f7b2291e5b200ac8c7c3b9259281900390910190a3505050565b73ffffffffffffffffffffffffffffffffffffffff831661121a5760405162461bcd60e51b815260040180806020018281038252602581526020018061174a6025913960400191505060405180910390fd5b73ffffffffffffffffffffffffffffffffffffffff821661126c5760405162461bcd60e51b81526004018080602001828103825260238152602001806116966023913960400191505060405180910390fd5b611277838383611690565b6112c1816040518060600160405280602681526020016116db6026913973ffffffffffffffffffffffffffffffffffffffff86166000908152602081905260409020549190611364565b73ffffffffffffffffffffffffffffffffffffffff80851660009081526020819052604080822093909355908416815220546112fd90826113fb565b73ffffffffffffffffffffffffffffffffffffffff8084166000818152602081815260409182902094909455805185815290519193928716927fddf252ad1be2c89b69c2b068fc378daa952ba7f163c4a11628f55a4df523b3ef92918290030190a3505050565b600081848411156113f35760405162461bcd60e51b81526004018080602001828103825283818151815260200191508051906020019080838360005b838110156113b85781810151838201526020016113a0565b50505050905090810190601f1680156113e55780820380516001836020036101000a031916815260200191505b509250505060405180910390fd5b505050900390565b600082820183811015611455576040805162461bcd60e51b815260206004820152601b60248201527f536166654d6174683a206164646974696f6e206f766572666c6f770000000000604482015290519081900360640190fd5b9392505050565b60008261146b57506000610a7c565b8282028284828161147857fe5b04146114555760405162461bcd60e51b81526004018080602001828103825260218152602001806117016021913960400191505060405180910390fd5b600080821161150b576040805162461bcd60e51b815260206004820152601a60248201527f536166654d6174683a206469766973696f6e206279207a65726f000000000000604482015290519081900360640190fd5b81838161151457fe5b049392505050565b600082821115611573576040805162461bcd60e51b815260206004820152601e60248201527f536166654d6174683a207375627472616374696f6e206f766572666c6f770000604482015290519081900360640190fd5b50900390565b73ffffffffffffffffffffffffffffffffffffffff82166115e1576040805162461bcd60e51b815260206004820152601f60248201527f45524332303a206d696e7420746f20746865207a65726f206164647265737300604482015290519081900360640190fd5b6115ed60008383611690565b6002546115fa90826113fb565b60025573ffffffffffffffffffffffffffffffffffffffff821660009081526020819052604090205461162d90826113fb565b73ffffffffffffffffffffffffffffffffffffffff83166000818152602081815260408083209490945583518581529351929391927fddf252ad1be2c89b69c2b068fc378daa952ba7f163c4a11628f55a4df523b3ef9281900390910190a35050565b50505056fe45524332303a207472616e7366657220746f20746865207a65726f206164647265737345524332303a20617070726f766520746f20746865207a65726f206164647265737345524332303a207472616e7366657220616d6f756e7420657863656564732062616c616e6365536166654d6174683a206d756c7469706c69636174696f6e206f766572666c6f7745524332303a207472616e7366657220616d6f756e74206578636565647320616c6c6f77616e636545524332303a207472616e736665722066726f6d20746865207a65726f206164647265737345524332303a20617070726f76652066726f6d20746865207a65726f206164647265737345524332303a2064656372656173656420616c6c6f77616e63652062656c6f77207a65726fa26469706673582212208bab77ff0c6669456453c277c2c1e7b9ad643af435bcffedd56ae80711b4b6d464736f6c63430007030033",
  "libraries": {
    "GovernanceLib": "0x9eAc2A20bFB02a065b5B721109Ce51D4730B9e92",
    "Strings": "0xe98D76f55e5Dae2DE566CC8Aa1a36282742eabf7",
    "SafeMath": "0x753f0df0a61c5F8A0eB31c6Bf6e7363943Eb225B",
    "AddressSet": "0x6294d470E32D8136E9446Cd2462C90EDCca7393D",
    "UInt256Set": "0x09336a713E2b8C89157Ef7B281ffe204De994620",
    "Create2": "0x117f8511d54E60dE2F1C63F0Ac1c7C05473cdAa4",
    "ProposalsLib": "0xab14bBF2998944255052bdBE1258cb863D330A4e",
    "ComplexPoolLib": "0xD18517c680C5c0a75E6Cd773Be7b6d605026B326",
    "WrappedTokenLib": "0x2a12942218Ddf38d951A5B107460F6295c758Fc8"
  },
  "devdoc": {
    "kind": "dev",
    "methods": {
      "allowance(address,address)": {
        "details": "See {IERC20-allowance}."
      },
      "approve(address,uint256)": {
        "details": "See {IERC20-approve}. Requirements: - `spender` cannot be the zero address."
      },
      "balanceOf(address)": {
        "details": "See {IERC20-balanceOf}."
      },
      "decimals()": {
        "details": "Returns the number of decimals used to get its user representation. For example, if `decimals` equals `2`, a balance of `505` tokens should be displayed to a user as `5,05` (`505 / 10 ** 2`). Tokens usually opt for a value of 18, imitating the relationship between Ether and Wei. This is the value {ERC20} uses, unless {_setupDecimals} is called. NOTE: This information is only used for _display_ purposes: it in no way affects any of the arithmetic of the contract, including {IERC20-balanceOf} and {IERC20-transfer}."
      },
      "decreaseAllowance(address,uint256)": {
        "details": "Atomically decreases the allowance granted to `spender` by the caller. This is an alternative to {approve} that can be used as a mitigation for problems described in {IERC20-approve}. Emits an {Approval} event indicating the updated allowance. Requirements: - `spender` cannot be the zero address. - `spender` must have allowance for the caller of at least `subtractedValue`."
      },
      "getReserves()": {
        "details": "get reserves held in wrapper"
      },
      "getTokenAddress()": {
        "details": "get the token address this wrapper is bound to"
      },
      "getTokenId()": {
        "details": "get the token id this wrapper is bound to"
      },
      "increaseAllowance(address,uint256)": {
        "details": "Atomically increases the allowance granted to `spender` by the caller. This is an alternative to {approve} that can be used as a mitigation for problems described in {IERC20-approve}. Emits an {Approval} event indicating the updated allowance. Requirements: - `spender` cannot be the zero address."
      },
      "initialize(string,string,address,address,uint8)": {
        "details": "initialize is a stub because this class is deployed by us with constructor params"
      },
      "name()": {
        "details": "Returns the name of the token."
      },
      "supportsInterface(bytes4)": {
        "details": "See {IERC165-supportsInterface}. Time complexity O(1), guaranteed to always use less than 30 000 gas."
      },
      "symbol()": {
        "details": "Returns the symbol of the token, usually a shorter version of the name."
      },
      "totalSupply()": {
        "details": "See {IERC20-totalSupply}."
      },
      "transfer(address,uint256)": {
        "details": "See {IERC20-transfer}. Requirements: - `recipient` cannot be the zero address. - the caller must have a balance of at least `amount`."
      },
      "transferFrom(address,address,uint256)": {
        "details": "See {IERC20-transferFrom}. Emits an {Approval} event indicating the updated allowance. This is not required by the EIP. See the note at the beginning of {ERC20}. Requirements: - `sender` and `recipient` cannot be the zero address. - `sender` must have a balance of at least `amount`. - the caller must have allowance for ``sender``'s tokens of at least `amount`."
      },
      "unwrap(uint256)": {
        "details": "unwrap a quantity of wrapped erc20 governance to erc1155"
      },
      "wrap(uint256)": {
        "details": "wrap a quantity of erc1155 governance to erc20"
      }
    },
    "version": 1
  },
  "userdoc": {
    "kind": "user",
    "methods": {},
    "version": 1
  },
  "storageLayout": {
    "storage": [
      {
        "astId": 25419,
        "contract": "src/tokens/NFTGemERC20Governance.sol:NFTGemWrappedERC20Governance",
        "label": "_balances",
        "offset": 0,
        "slot": "0",
        "type": "t_mapping(t_address,t_uint256)"
      },
      {
        "astId": 25425,
        "contract": "src/tokens/NFTGemERC20Governance.sol:NFTGemWrappedERC20Governance",
        "label": "_allowances",
        "offset": 0,
        "slot": "1",
        "type": "t_mapping(t_address,t_mapping(t_address,t_uint256))"
      },
      {
        "astId": 25427,
        "contract": "src/tokens/NFTGemERC20Governance.sol:NFTGemWrappedERC20Governance",
        "label": "_totalSupply",
        "offset": 0,
        "slot": "2",
        "type": "t_uint256"
      },
      {
        "astId": 25429,
        "contract": "src/tokens/NFTGemERC20Governance.sol:NFTGemWrappedERC20Governance",
        "label": "_name",
        "offset": 0,
        "slot": "3",
        "type": "t_string_storage"
      },
      {
        "astId": 25431,
        "contract": "src/tokens/NFTGemERC20Governance.sol:NFTGemWrappedERC20Governance",
        "label": "_symbol",
        "offset": 0,
        "slot": "4",
        "type": "t_string_storage"
      },
      {
        "astId": 25433,
        "contract": "src/tokens/NFTGemERC20Governance.sol:NFTGemWrappedERC20Governance",
        "label": "_decimals",
        "offset": 0,
        "slot": "5",
        "type": "t_uint8"
      },
      {
        "astId": 16066,
        "contract": "src/tokens/NFTGemERC20Governance.sol:NFTGemWrappedERC20Governance",
        "label": "_supportedInterfaces",
        "offset": 0,
        "slot": "6",
        "type": "t_mapping(t_bytes4,t_bool)"
      },
      {
        "astId": 26410,
        "contract": "src/tokens/NFTGemERC20Governance.sol:NFTGemWrappedERC20Governance",
        "label": "tokenData",
        "offset": 0,
        "slot": "7",
        "type": "t_struct(WrappedTokenData)28124_storage"
      },
      {
        "astId": 26989,
        "contract": "src/tokens/NFTGemERC20Governance.sol:NFTGemWrappedERC20Governance",
        "label": "_feeManager",
        "offset": 0,
        "slot": "16",
        "type": "t_address"
      }
    ],
    "types": {
      "t_address": {
        "encoding": "inplace",
        "label": "address",
        "numberOfBytes": "20"
      },
      "t_array(t_uint256)dyn_storage": {
        "base": "t_uint256",
        "encoding": "dynamic_array",
        "label": "uint256[]",
        "numberOfBytes": "32"
      },
      "t_bool": {
        "encoding": "inplace",
        "label": "bool",
        "numberOfBytes": "1"
      },
      "t_bytes4": {
        "encoding": "inplace",
        "label": "bytes4",
        "numberOfBytes": "4"
      },
      "t_mapping(t_address,t_array(t_uint256)dyn_storage)": {
        "encoding": "mapping",
        "key": "t_address",
        "label": "mapping(address => uint256[])",
        "numberOfBytes": "32",
        "value": "t_array(t_uint256)dyn_storage"
      },
      "t_mapping(t_address,t_mapping(t_address,t_uint256))": {
        "encoding": "mapping",
        "key": "t_address",
        "label": "mapping(address => mapping(address => uint256))",
        "numberOfBytes": "32",
        "value": "t_mapping(t_address,t_uint256)"
      },
      "t_mapping(t_address,t_uint256)": {
        "encoding": "mapping",
        "key": "t_address",
        "label": "mapping(address => uint256)",
        "numberOfBytes": "32",
        "value": "t_uint256"
      },
      "t_mapping(t_bytes4,t_bool)": {
        "encoding": "mapping",
        "key": "t_bytes4",
        "label": "mapping(bytes4 => bool)",
        "numberOfBytes": "32",
        "value": "t_bool"
      },
      "t_string_storage": {
        "encoding": "bytes",
        "label": "string",
        "numberOfBytes": "32"
      },
      "t_struct(WrappedTokenData)28124_storage": {
        "encoding": "inplace",
        "label": "struct WrappedTokenLib.WrappedTokenData",
        "members": [
          {
            "astId": 28101,
            "contract": "src/tokens/NFTGemERC20Governance.sol:NFTGemWrappedERC20Governance",
            "label": "erc1155token",
            "offset": 0,
            "slot": "0",
            "type": "t_address"
          },
          {
            "astId": 28103,
            "contract": "src/tokens/NFTGemERC20Governance.sol:NFTGemWrappedERC20Governance",
            "label": "erc20token",
            "offset": 0,
            "slot": "1",
            "type": "t_address"
          },
          {
            "astId": 28105,
            "contract": "src/tokens/NFTGemERC20Governance.sol:NFTGemWrappedERC20Governance",
            "label": "tokenPool",
            "offset": 0,
            "slot": "2",
            "type": "t_address"
          },
          {
            "astId": 28107,
            "contract": "src/tokens/NFTGemERC20Governance.sol:NFTGemWrappedERC20Governance",
            "label": "index",
            "offset": 0,
            "slot": "3",
            "type": "t_uint256"
          },
          {
            "astId": 28109,
            "contract": "src/tokens/NFTGemERC20Governance.sol:NFTGemWrappedERC20Governance",
            "label": "wrappedBalance",
            "offset": 0,
            "slot": "4",
            "type": "t_uint256"
          },
          {
            "astId": 28111,
            "contract": "src/tokens/NFTGemERC20Governance.sol:NFTGemWrappedERC20Governance",
            "label": "tokenType",
            "offset": 0,
            "slot": "5",
            "type": "t_uint8"
          },
          {
            "astId": 28113,
            "contract": "src/tokens/NFTGemERC20Governance.sol:NFTGemWrappedERC20Governance",
            "label": "rate",
            "offset": 0,
            "slot": "6",
            "type": "t_uint256"
          },
          {
            "astId": 28118,
            "contract": "src/tokens/NFTGemERC20Governance.sol:NFTGemWrappedERC20Governance",
            "label": "ids",
            "offset": 0,
            "slot": "7",
            "type": "t_mapping(t_address,t_array(t_uint256)dyn_storage)"
          },
          {
            "astId": 28123,
            "contract": "src/tokens/NFTGemERC20Governance.sol:NFTGemWrappedERC20Governance",
            "label": "amounts",
            "offset": 0,
            "slot": "8",
            "type": "t_mapping(t_address,t_array(t_uint256)dyn_storage)"
          }
        ],
        "numberOfBytes": "288"
      },
      "t_uint256": {
        "encoding": "inplace",
        "label": "uint256",
        "numberOfBytes": "32"
      },
      "t_uint8": {
        "encoding": "inplace",
        "label": "uint8",
        "numberOfBytes": "1"
      }
    }
  }
}