{
  "address": "0xC3A105501BC1d86d809df3BB0ce46B37Aac4bC49",
  "abi": [
    {
      "inputs": [
        {
          "internalType": "string",
          "name": "name",
          "type": "string"
        },
        {
          "internalType": "string",
          "name": "symbol",
          "type": "string"
        },
        {
          "internalType": "address",
          "name": "erc1155Token",
          "type": "address"
        },
        {
          "internalType": "address",
          "name": "feeManager",
          "type": "address"
        }
      ],
      "stateMutability": "nonpayable",
      "type": "constructor"
    },
    {
      "anonymous": false,
      "inputs": [
        {
          "indexed": true,
          "internalType": "address",
          "name": "owner",
          "type": "address"
        },
        {
          "indexed": true,
          "internalType": "address",
          "name": "spender",
          "type": "address"
        },
        {
          "indexed": false,
          "internalType": "uint256",
          "name": "value",
          "type": "uint256"
        }
      ],
      "name": "Approval",
      "type": "event"
    },
    {
      "anonymous": false,
      "inputs": [
        {
          "indexed": true,
          "internalType": "address",
          "name": "from",
          "type": "address"
        },
        {
          "indexed": true,
          "internalType": "address",
          "name": "to",
          "type": "address"
        },
        {
          "indexed": false,
          "internalType": "uint256",
          "name": "value",
          "type": "uint256"
        }
      ],
      "name": "Transfer",
      "type": "event"
    },
    {
      "anonymous": false,
      "inputs": [
        {
          "indexed": true,
          "internalType": "address",
          "name": "account",
          "type": "address"
        },
        {
          "indexed": false,
          "internalType": "uint256",
          "name": "quantity",
          "type": "uint256"
        }
      ],
      "name": "Unwrap",
      "type": "event"
    },
    {
      "anonymous": false,
      "inputs": [
        {
          "indexed": true,
          "internalType": "address",
          "name": "account",
          "type": "address"
        },
        {
          "indexed": false,
          "internalType": "uint256",
          "name": "quantity",
          "type": "uint256"
        }
      ],
      "name": "Wrap",
      "type": "event"
    },
    {
      "inputs": [
        {
          "internalType": "address",
          "name": "owner",
          "type": "address"
        },
        {
          "internalType": "address",
          "name": "spender",
          "type": "address"
        }
      ],
      "name": "allowance",
      "outputs": [
        {
          "internalType": "uint256",
          "name": "",
          "type": "uint256"
        }
      ],
      "stateMutability": "view",
      "type": "function"
    },
    {
      "inputs": [
        {
          "internalType": "address",
          "name": "spender",
          "type": "address"
        },
        {
          "internalType": "uint256",
          "name": "amount",
          "type": "uint256"
        }
      ],
      "name": "approve",
      "outputs": [
        {
          "internalType": "bool",
          "name": "",
          "type": "bool"
        }
      ],
      "stateMutability": "nonpayable",
      "type": "function"
    },
    {
      "inputs": [
        {
          "internalType": "address",
          "name": "account",
          "type": "address"
        }
      ],
      "name": "balanceOf",
      "outputs": [
        {
          "internalType": "uint256",
          "name": "",
          "type": "uint256"
        }
      ],
      "stateMutability": "view",
      "type": "function"
    },
    {
      "inputs": [],
      "name": "decimals",
      "outputs": [
        {
          "internalType": "uint8",
          "name": "",
          "type": "uint8"
        }
      ],
      "stateMutability": "view",
      "type": "function"
    },
    {
      "inputs": [
        {
          "internalType": "address",
          "name": "spender",
          "type": "address"
        },
        {
          "internalType": "uint256",
          "name": "subtractedValue",
          "type": "uint256"
        }
      ],
      "name": "decreaseAllowance",
      "outputs": [
        {
          "internalType": "bool",
          "name": "",
          "type": "bool"
        }
      ],
      "stateMutability": "nonpayable",
      "type": "function"
    },
    {
      "inputs": [],
      "name": "getReserves",
      "outputs": [
        {
          "internalType": "uint256",
          "name": "",
          "type": "uint256"
        }
      ],
      "stateMutability": "view",
      "type": "function"
    },
    {
      "inputs": [],
      "name": "getTokenAddress",
      "outputs": [
        {
          "internalType": "address",
          "name": "",
          "type": "address"
        }
      ],
      "stateMutability": "view",
      "type": "function"
    },
    {
      "inputs": [],
      "name": "getTokenId",
      "outputs": [
        {
          "internalType": "uint256",
          "name": "",
          "type": "uint256"
        }
      ],
      "stateMutability": "view",
      "type": "function"
    },
    {
      "inputs": [
        {
          "internalType": "address",
          "name": "spender",
          "type": "address"
        },
        {
          "internalType": "uint256",
          "name": "addedValue",
          "type": "uint256"
        }
      ],
      "name": "increaseAllowance",
      "outputs": [
        {
          "internalType": "bool",
          "name": "",
          "type": "bool"
        }
      ],
      "stateMutability": "nonpayable",
      "type": "function"
    },
    {
      "inputs": [
        {
          "internalType": "string",
          "name": "",
          "type": "string"
        },
        {
          "internalType": "string",
          "name": "",
          "type": "string"
        },
        {
          "internalType": "address",
          "name": "",
          "type": "address"
        },
        {
          "internalType": "address",
          "name": "",
          "type": "address"
        },
        {
          "internalType": "uint8",
          "name": "",
          "type": "uint8"
        },
        {
          "internalType": "address",
          "name": "",
          "type": "address"
        }
      ],
      "name": "initialize",
      "outputs": [],
      "stateMutability": "nonpayable",
      "type": "function"
    },
    {
      "inputs": [],
      "name": "name",
      "outputs": [
        {
          "internalType": "string",
          "name": "",
          "type": "string"
        }
      ],
      "stateMutability": "view",
      "type": "function"
    },
    {
      "inputs": [
        {
          "internalType": "address",
          "name": "",
          "type": "address"
        },
        {
          "internalType": "address",
          "name": "",
          "type": "address"
        },
        {
          "internalType": "uint256[]",
          "name": "",
          "type": "uint256[]"
        },
        {
          "internalType": "uint256[]",
          "name": "",
          "type": "uint256[]"
        },
        {
          "internalType": "bytes",
          "name": "",
          "type": "bytes"
        }
      ],
      "name": "onERC1155BatchReceived",
      "outputs": [
        {
          "internalType": "bytes4",
          "name": "",
          "type": "bytes4"
        }
      ],
      "stateMutability": "nonpayable",
      "type": "function"
    },
    {
      "inputs": [
        {
          "internalType": "address",
          "name": "",
          "type": "address"
        },
        {
          "internalType": "address",
          "name": "",
          "type": "address"
        },
        {
          "internalType": "uint256",
          "name": "",
          "type": "uint256"
        },
        {
          "internalType": "uint256",
          "name": "",
          "type": "uint256"
        },
        {
          "internalType": "bytes",
          "name": "",
          "type": "bytes"
        }
      ],
      "name": "onERC1155Received",
      "outputs": [
        {
          "internalType": "bytes4",
          "name": "",
          "type": "bytes4"
        }
      ],
      "stateMutability": "nonpayable",
      "type": "function"
    },
    {
      "inputs": [
        {
          "internalType": "bytes4",
          "name": "interfaceId",
          "type": "bytes4"
        }
      ],
      "name": "supportsInterface",
      "outputs": [
        {
          "internalType": "bool",
          "name": "",
          "type": "bool"
        }
      ],
      "stateMutability": "view",
      "type": "function"
    },
    {
      "inputs": [],
      "name": "symbol",
      "outputs": [
        {
          "internalType": "string",
          "name": "",
          "type": "string"
        }
      ],
      "stateMutability": "view",
      "type": "function"
    },
    {
      "inputs": [],
      "name": "totalSupply",
      "outputs": [
        {
          "internalType": "uint256",
          "name": "",
          "type": "uint256"
        }
      ],
      "stateMutability": "view",
      "type": "function"
    },
    {
      "inputs": [
        {
          "internalType": "address",
          "name": "recipient",
          "type": "address"
        },
        {
          "internalType": "uint256",
          "name": "amount",
          "type": "uint256"
        }
      ],
      "name": "transfer",
      "outputs": [
        {
          "internalType": "bool",
          "name": "",
          "type": "bool"
        }
      ],
      "stateMutability": "nonpayable",
      "type": "function"
    },
    {
      "inputs": [
        {
          "internalType": "address",
          "name": "sender",
          "type": "address"
        },
        {
          "internalType": "address",
          "name": "recipient",
          "type": "address"
        },
        {
          "internalType": "uint256",
          "name": "amount",
          "type": "uint256"
        }
      ],
      "name": "transferFrom",
      "outputs": [
        {
          "internalType": "bool",
          "name": "",
          "type": "bool"
        }
      ],
      "stateMutability": "nonpayable",
      "type": "function"
    },
    {
      "inputs": [
        {
          "internalType": "uint256",
          "name": "quantity",
          "type": "uint256"
        }
      ],
      "name": "unwrap",
      "outputs": [],
      "stateMutability": "nonpayable",
      "type": "function"
    },
    {
      "inputs": [
        {
          "internalType": "uint256",
          "name": "quantity",
          "type": "uint256"
        }
      ],
      "name": "wrap",
      "outputs": [],
      "stateMutability": "nonpayable",
      "type": "function"
    }
  ],
  "transactionHash": "0xaebd0f5f894afa67b626871a0ebebb97d90e4d29abe86c486a92107e7f2d5d54",
  "args": [
    "NFTGem Governance",
    "NFTGG",
    "0xf66c1591A31cD25C0f4281B32b3594005F58f99A",
    "0x8f01B92dD7979908A0CD1E64a39626C3193Fb665"
  ],
  "solcInputHash": "b06c540bf558ebe1763f6f5fe903171f",
  "bytecode": "0x60806040523480156200001157600080fd5b5060405162001e0538038062001e0583398101604081905262000034916200027a565b83836012846000600185858160039080519060200190620000579291906200010c565b5080516200006d9060049060208401906200010c565b505060058054601260ff1991821617909155600680546001600160a01b03199081166001600160a01b038816179091556008805490911690556009849055600a8054909116905550600b819055620000c584620000f6565b5050600f80546001600160a01b0319166001600160a01b039690961695909517909455506200035995505050505050565b6005805460ff191660ff92909216919091179055565b8280546200011a9062000306565b90600052602060002090601f0160209004810192826200013e576000855562000189565b82601f106200015957805160ff191683800117855562000189565b8280016001018555821562000189579182015b82811115620001895782518255916020019190600101906200016c565b50620001979291506200019b565b5090565b5b808211156200019757600081556001016200019c565b80516001600160a01b0381168114620001ca57600080fd5b919050565b600082601f830112620001e0578081fd5b81516001600160401b0380821115620001fd57620001fd62000343565b6040516020601f8401601f191682018101838111838210171562000225576200022562000343565b60405283825285840181018710156200023c578485fd5b8492505b838310156200025f578583018101518284018201529182019162000240565b838311156200027057848185840101525b5095945050505050565b6000806000806080858703121562000290578384fd5b84516001600160401b0380821115620002a7578586fd5b620002b588838901620001cf565b95506020870151915080821115620002cb578485fd5b50620002da87828801620001cf565b935050620002eb60408601620001b2565b9150620002fb60608601620001b2565b905092959194509250565b6002810460018216806200031b57607f821691505b602082108114156200033d57634e487b7160e01b600052602260045260246000fd5b50919050565b634e487b7160e01b600052604160045260246000fd5b611a9c80620003696000396000f3fe608060405234801561001057600080fd5b506004361061016c5760003560e01c806339509351116100cd578063bc197c8111610081578063de0e9a3e11610066578063de0e9a3e146102c0578063ea598cb0146102d3578063f23a6e61146102e65761016c565b8063bc197c811461028d578063dd62ed3e146102ad5761016c565b806395d89b41116100b257806395d89b411461025f578063a457c2d714610267578063a9059cbb1461027a5761016c565b8063395093511461023957806370a082311461024c5761016c565b806310fe9ae81161012457806323b872dd1161010957806323b872dd146101fc578063313ce5671461020f57806332816be1146102245761016c565b806310fe9ae8146101df57806318160ddd146101f45761016c565b806306fdde031161015557806306fdde03146101af5780630902f1ac146101c4578063095ea7b3146101cc5761016c565b8063010a38f51461017157806301ffc9a71461018f575b600080fd5b6101796102f9565b6040516101869190611839565b60405180910390f35b6101a261019d3660046111d8565b6102ff565b6040516101869190611356565b6101b761035d565b604051610186919061138e565b6101796103ef565b6101a26101da3660046111af565b610476565b6101e7610493565b60405161018691906112f1565b6101796104a2565b6101a261020a366004611111565b6104a8565b610217610543565b6040516101869190611842565b610237610232366004611218565b61054c565b005b6101a26102473660046111af565b61057e565b61017961025a36600461101f565b6105d2565b6101b76105ed565b6101a26102753660046111af565b6105fc565b6101a26102883660046111af565b610675565b6102a061029b36600461106b565b610689565b6040516101869190611361565b6101796102bb366004611039565b6106b3565b6102376102ce3660046112c1565b6106de565b6102376102e13660046112c1565b6106ea565b6102a06102f436600461114c565b610945565b60095490565b60007fffffffff0000000000000000000000000000000000000000000000000000000082167f4e2312e000000000000000000000000000000000000000000000000000000000148061035557506103558261096f565b90505b919050565b60606003805461036c906119ff565b80601f0160208091040260200160405190810160405280929190818152602001828054610398906119ff565b80156103e55780601f106103ba576101008083540402835291602001916103e5565b820191906000526020600020905b8154815290600101906020018083116103c857829003601f168201915b5050505050905090565b600654600954604051627eeac760e11b81526000926001600160a01b03169162fdd58e9161042191309160040161133d565b60206040518083038186803b15801561043957600080fd5b505afa15801561044d573d6000803e3d6000fd5b505050506040513d601f19601f8201168201806040525081019061047191906112d9565b905090565b600061048a6104836109b9565b84846109bd565b50600192915050565b6006546001600160a01b031690565b60025490565b60006104b5848484610a71565b6001600160a01b0384166000908152600160205260408120816104d66109b9565b6001600160a01b03166001600160a01b03168152602001908152602001600020549050828110156105225760405162461bcd60e51b8152600401610519906115fa565b60405180910390fd5b6105368561052e6109b9565b8584036109bd565b60019150505b9392505050565b60055460ff1690565b5050600780547fffffffffffffffffffffffff0000000000000000000000000000000000000000163017905550505050565b600061048a61058b6109b9565b8484600160006105996109b9565b6001600160a01b03908116825260208083019390935260409182016000908120918b16815292529020546105cd919061187a565b6109bd565b6001600160a01b031660009081526020819052604090205490565b60606004805461036c906119ff565b6000806001600061060b6109b9565b6001600160a01b03908116825260208083019390935260409182016000908120918816815292529020549050828110156106575760405162461bcd60e51b8152600401610519906117a5565b61066b6106626109b9565b858584036109bd565b5060019392505050565b600061048a6106826109b9565b8484610a71565b7fbc197c810000000000000000000000000000000000000000000000000000000095945050505050565b6001600160a01b03918216600090815260016020908152604080832093909416825291909152205490565b6106e781610b9b565b50565b806107075760405162461bcd60e51b8152600401610519906115c3565b600654600954604051627eeac760e11b815283926001600160a01b03169162fdd58e9161073891339160040161133d565b60206040518083038186803b15801561075057600080fd5b505afa158015610764573d6000803e3d6000fd5b505050506040513d601f19601f8201168201806040525081019061078891906112d9565b10156107a65760405162461bcd60e51b8152600401610519906114f8565b60006107b0610543565b6107bb90600a6118f8565b600b546107c891906119c9565b6107d290836119c9565b600f546040517feee1ad800000000000000000000000000000000000000000000000000000000081529192506000916001600160a01b039091169063eee1ad80906108219030906004016112f1565b60206040518083038186803b15801561083957600080fd5b505afa15801561084d573d6000803e3d6000fd5b505050506040513d601f19601f8201168201806040525081019061087191906112d9565b905060008161088157600061088b565b61088b8284611892565b9050600061089982856119e8565b6006546009546040517ff242432a0000000000000000000000000000000000000000000000000000000081529293506001600160a01b039091169163f242432a916108ec91339130918b90600401611305565b600060405180830381600087803b15801561090657600080fd5b505af115801561091a573d6000803e3d6000fd5b505050506109283382610d59565b600f5461093e906001600160a01b031683610d59565b5050505050565b7ff23a6e610000000000000000000000000000000000000000000000000000000095945050505050565b7fffffffff0000000000000000000000000000000000000000000000000000000081167f01ffc9a70000000000000000000000000000000000000000000000000000000014919050565b3390565b6001600160a01b0383166109e35760405162461bcd60e51b815260040161051990611711565b6001600160a01b038216610a095760405162461bcd60e51b81526004016105199061149b565b6001600160a01b0380841660008181526001602090815260408083209487168084529490915290819020849055517f8c5be1e5ebec7d5bd14f71427d1e84f3dd0314c0f7b2291e5b200ac8c7c3b92590610a64908590611839565b60405180910390a3505050565b6001600160a01b038316610a975760405162461bcd60e51b8152600401610519906116b4565b6001600160a01b038216610abd5760405162461bcd60e51b8152600401610519906113e1565b610ac8838383610e25565b6001600160a01b03831660009081526020819052604090205481811015610b015760405162461bcd60e51b81526004016105199061152f565b6001600160a01b03808516600090815260208190526040808220858503905591851681529081208054849290610b3890849061187a565b92505081905550826001600160a01b0316846001600160a01b03167fddf252ad1be2c89b69c2b068fc378daa952ba7f163c4a11628f55a4df523b3ef84604051610b829190611839565b60405180910390a3610b95848484610e25565b50505050565b80610bb85760405162461bcd60e51b8152600401610519906115c3565b600654600954604051627eeac760e11b815283926001600160a01b03169162fdd58e91610be991309160040161133d565b60206040518083038186803b158015610c0157600080fd5b505afa158015610c15573d6000803e3d6000fd5b505050506040513d601f19601f82011682018060405250810190610c3991906112d9565b1015610c575760405162461bcd60e51b81526004016105199061176e565b610c5f610543565b610c6a90600a6118f8565b600b54610c7791906119c9565b610c8190826119c9565b610c8a336105d2565b1015610ca85760405162461bcd60e51b81526004016105199061158c565b610cdb33610cb4610543565b610cbf90600a6118f8565b600b54610ccc91906119c9565b610cd690846119c9565b610e2a565b6006546009546040517ff242432a0000000000000000000000000000000000000000000000000000000081526001600160a01b039092169163f242432a91610d2b91309133918790600401611305565b600060405180830381600087803b158015610d4557600080fd5b505af115801561093e573d6000803e3d6000fd5b6001600160a01b038216610d7f5760405162461bcd60e51b815260040161051990611802565b610d8b60008383610e25565b8060026000828254610d9d919061187a565b90915550506001600160a01b03821660009081526020819052604081208054839290610dca90849061187a565b90915550506040516001600160a01b038316906000907fddf252ad1be2c89b69c2b068fc378daa952ba7f163c4a11628f55a4df523b3ef90610e0d908590611839565b60405180910390a3610e2160008383610e25565b5050565b505050565b6001600160a01b038216610e505760405162461bcd60e51b815260040161051990611657565b610e5c82600083610e25565b6001600160a01b03821660009081526020819052604090205481811015610e955760405162461bcd60e51b81526004016105199061143e565b6001600160a01b0383166000908152602081905260408120838303905560028054849290610ec49084906119e8565b90915550506040516000906001600160a01b038516907fddf252ad1be2c89b69c2b068fc378daa952ba7f163c4a11628f55a4df523b3ef90610f07908690611839565b60405180910390a3610e2583600084610e25565b80356001600160a01b038116811461035857600080fd5b600082601f830112610f42578081fd5b8135602067ffffffffffffffff821115610f5e57610f5e611a50565b808202610f6c828201611850565b838152828101908684018388018501891015610f86578687fd5b8693505b85841015610fa8578035835260019390930192918401918401610f8a565b50979650505050505050565b600082601f830112610fc4578081fd5b813567ffffffffffffffff811115610fde57610fde611a50565b610ff16020601f19601f84011601611850565b818152846020838601011115611005578283fd5b816020850160208301379081016020019190915292915050565b600060208284031215611030578081fd5b61053c82610f1b565b6000806040838503121561104b578081fd5b61105483610f1b565b915061106260208401610f1b565b90509250929050565b600080600080600060a08688031215611082578081fd5b61108b86610f1b565b945061109960208701610f1b565b9350604086013567ffffffffffffffff808211156110b5578283fd5b6110c189838a01610f32565b945060608801359150808211156110d6578283fd5b6110e289838a01610f32565b935060808801359150808211156110f7578283fd5b5061110488828901610fb4565b9150509295509295909350565b600080600060608486031215611125578283fd5b61112e84610f1b565b925061113c60208501610f1b565b9150604084013590509250925092565b600080600080600060a08688031215611163578081fd5b61116c86610f1b565b945061117a60208701610f1b565b93506040860135925060608601359150608086013567ffffffffffffffff8111156111a3578182fd5b61110488828901610fb4565b600080604083850312156111c1578182fd5b6111ca83610f1b565b946020939093013593505050565b6000602082840312156111e9578081fd5b81357fffffffff000000000000000000000000000000000000000000000000000000008116811461053c578182fd5b60008060008060008060c08789031215611230578081fd5b863567ffffffffffffffff80821115611247578283fd5b6112538a838b01610fb4565b97506020890135915080821115611268578283fd5b5061127589828a01610fb4565b95505061128460408801610f1b565b935061129260608801610f1b565b9250608087013560ff811681146112a7578182fd5b91506112b560a08801610f1b565b90509295509295509295565b6000602082840312156112d2578081fd5b5035919050565b6000602082840312156112ea578081fd5b5051919050565b6001600160a01b0391909116815260200190565b6001600160a01b0394851681529290931660208301526040820152606081019190915260a06080820181905260009082015260c00190565b6001600160a01b03929092168252602082015260400190565b901515815260200190565b7fffffffff0000000000000000000000000000000000000000000000000000000091909116815260200190565b6000602080835283518082850152825b818110156113ba5785810183015185820160400152820161139e565b818111156113cb5783604083870101525b50601f01601f1916929092016040019392505050565b60208082526023908201527f45524332303a207472616e7366657220746f20746865207a65726f206164647260408201527f6573730000000000000000000000000000000000000000000000000000000000606082015260800190565b60208082526022908201527f45524332303a206275726e20616d6f756e7420657863656564732062616c616e60408201527f6365000000000000000000000000000000000000000000000000000000000000606082015260800190565b60208082526022908201527f45524332303a20617070726f766520746f20746865207a65726f20616464726560408201527f7373000000000000000000000000000000000000000000000000000000000000606082015260800190565b6020808252601c908201527f494e53554646494349454e545f455243313135355f42414c414e434500000000604082015260600190565b60208082526026908201527f45524332303a207472616e7366657220616d6f756e742065786365656473206260408201527f616c616e63650000000000000000000000000000000000000000000000000000606082015260800190565b6020808252601a908201527f494e53554646494349454e545f45524332305f42414c414e4345000000000000604082015260600190565b6020808252600d908201527f5a45524f5f5155414e5449545900000000000000000000000000000000000000604082015260600190565b60208082526028908201527f45524332303a207472616e7366657220616d6f756e742065786365656473206160408201527f6c6c6f77616e6365000000000000000000000000000000000000000000000000606082015260800190565b60208082526021908201527f45524332303a206275726e2066726f6d20746865207a65726f2061646472657360408201527f7300000000000000000000000000000000000000000000000000000000000000606082015260800190565b60208082526025908201527f45524332303a207472616e736665722066726f6d20746865207a65726f20616460408201527f6472657373000000000000000000000000000000000000000000000000000000606082015260800190565b60208082526024908201527f45524332303a20617070726f76652066726f6d20746865207a65726f2061646460408201527f7265737300000000000000000000000000000000000000000000000000000000606082015260800190565b60208082526015908201527f494e53554646494349454e545f52455345525645530000000000000000000000604082015260600190565b60208082526025908201527f45524332303a2064656372656173656420616c6c6f77616e63652062656c6f7760408201527f207a65726f000000000000000000000000000000000000000000000000000000606082015260800190565b6020808252601f908201527f45524332303a206d696e7420746f20746865207a65726f206164647265737300604082015260600190565b90815260200190565b60ff91909116815260200190565b60405181810167ffffffffffffffff8111828210171561187257611872611a50565b604052919050565b6000821982111561188d5761188d611a3a565b500190565b6000826118ad57634e487b7160e01b81526012600452602481fd5b500490565b80825b60018086116118c457506118ef565b8187048211156118d6576118d6611a3a565b808616156118e357918102915b9490941c9380026118b5565b94509492505050565b600061053c60001960ff8516846000826119145750600161053c565b816119215750600061053c565b816001811461193757600281146119415761196e565b600191505061053c565b60ff84111561195257611952611a3a565b6001841b91508482111561196857611968611a3a565b5061053c565b5060208310610133831016604e8410600b84101617156119a1575081810a8381111561199c5761199c611a3a565b61053c565b6119ae84848460016118b2565b8086048211156119c0576119c0611a3a565b02949350505050565b60008160001904831182151516156119e3576119e3611a3a565b500290565b6000828210156119fa576119fa611a3a565b500390565b600281046001821680611a1357607f821691505b60208210811415611a3457634e487b7160e01b600052602260045260246000fd5b50919050565b634e487b7160e01b600052601160045260246000fd5b634e487b7160e01b600052604160045260246000fdfea2646970667358221220a757fe19ed435b3194d703d445bc994f59b3c653d4a622e2284d3f18936a90e664736f6c63430008000033",
  "libraries": {
    "GovernanceLib": "0xaeb86F3860AD5B29aE141c56709835130ecbE0D9",
    "Strings": "0xAaCc702df0e464b2f2896aEe801241eEA6DBdba1",
    "AddressSet": "0x2521688f2bdf04bd785D477C05d5240634E63708",
    "UInt256Set": "0xE519B631E93BE6Df760b3872dE88344Dd969370a",
    "Create2": "0xe83DEBccfFF96a5113Bd485967a643D60C4487fd",
    "ProposalsLib": "0xd98B1717903B2Ff81b08F680372887a8c35174c2",
    "ComplexPoolLib": "0x9aCda89A5C672c5f74bf71C723D9fAad285167C2",
    "WrappedTokenLib": "0x9c2C592C7C6D3f7A58aD74ddCf31D0dE2f8807a5"
  },
  "devdoc": {
    "details": "wraps governance (token id 0)",
    "kind": "dev",
    "methods": {
      "allowance(address,address)": {
        "details": "See {IERC20-allowance}."
      },
      "approve(address,uint256)": {
        "details": "See {IERC20-approve}. Requirements: - `spender` cannot be the zero address."
      },
      "balanceOf(address)": {
        "details": "See {IERC20-balanceOf}."
      },
      "constructor": {
        "details": "create contract"
      },
      "decimals()": {
        "details": "Returns the number of decimals used to get its user representation. For example, if `decimals` equals `2`, a balance of `505` tokens should be displayed to a user as `5,05` (`505 / 10 ** 2`). Tokens usually opt for a value of 18, imitating the relationship between Ether and Wei. This is the value {ERC20} uses, unless this function is overridden; NOTE: This information is only used for _display_ purposes: it in no way affects any of the arithmetic of the contract, including {IERC20-balanceOf} and {IERC20-transfer}."
      },
      "decreaseAllowance(address,uint256)": {
        "details": "Atomically decreases the allowance granted to `spender` by the caller. This is an alternative to {approve} that can be used as a mitigation for problems described in {IERC20-approve}. Emits an {Approval} event indicating the updated allowance. Requirements: - `spender` cannot be the zero address. - `spender` must have allowance for the caller of at least `subtractedValue`."
      },
      "getReserves()": {
        "details": "get reserves held in wrapper"
      },
      "getTokenAddress()": {
        "details": "get the token address this wrapper is bound to"
      },
      "getTokenId()": {
        "details": "get the token id this wrapper is bound to"
      },
      "increaseAllowance(address,uint256)": {
        "details": "Atomically increases the allowance granted to `spender` by the caller. This is an alternative to {approve} that can be used as a mitigation for problems described in {IERC20-approve}. Emits an {Approval} event indicating the updated allowance. Requirements: - `spender` cannot be the zero address."
      },
      "initialize(string,string,address,address,uint8,address)": {
        "details": "initialize is a stub because this class is deployed by us with constructor params"
      },
      "name()": {
        "details": "Returns the name of the token."
      },
      "supportsInterface(bytes4)": {
        "details": "See {IERC165-supportsInterface}."
      },
      "symbol()": {
        "details": "Returns the symbol of the token, usually a shorter version of the name."
      },
      "totalSupply()": {
        "details": "See {IERC20-totalSupply}."
      },
      "transfer(address,uint256)": {
        "details": "See {IERC20-transfer}. Requirements: - `recipient` cannot be the zero address. - the caller must have a balance of at least `amount`."
      },
      "transferFrom(address,address,uint256)": {
        "details": "See {IERC20-transferFrom}. Emits an {Approval} event indicating the updated allowance. This is not required by the EIP. See the note at the beginning of {ERC20}. Requirements: - `sender` and `recipient` cannot be the zero address. - `sender` must have a balance of at least `amount`. - the caller must have allowance for ``sender``'s tokens of at least `amount`."
      },
      "unwrap(uint256)": {
        "details": "unwrap tokens - transfer erc1155 to contract, mintt erc20"
      },
      "wrap(uint256)": {
        "details": "wrap tokens - transfer erc1155 to contract, mintt erc20"
      }
    },
    "version": 1
  },
  "userdoc": {
    "kind": "user",
    "methods": {},
    "version": 1
  },
  "storageLayout": {
    "storage": [
      {
        "astId": 17851,
        "contract": "src/tokens/NFTGemERC20Governance.sol:NFTGemWrappedERC20Governance",
        "label": "_balances",
        "offset": 0,
        "slot": "0",
        "type": "t_mapping(t_address,t_uint256)"
      },
      {
        "astId": 17857,
        "contract": "src/tokens/NFTGemERC20Governance.sol:NFTGemWrappedERC20Governance",
        "label": "_allowances",
        "offset": 0,
        "slot": "1",
        "type": "t_mapping(t_address,t_mapping(t_address,t_uint256))"
      },
      {
        "astId": 17859,
        "contract": "src/tokens/NFTGemERC20Governance.sol:NFTGemWrappedERC20Governance",
        "label": "_totalSupply",
        "offset": 0,
        "slot": "2",
        "type": "t_uint256"
      },
      {
        "astId": 17861,
        "contract": "src/tokens/NFTGemERC20Governance.sol:NFTGemWrappedERC20Governance",
        "label": "_name",
        "offset": 0,
        "slot": "3",
        "type": "t_string_storage"
      },
      {
        "astId": 17863,
        "contract": "src/tokens/NFTGemERC20Governance.sol:NFTGemWrappedERC20Governance",
        "label": "_symbol",
        "offset": 0,
        "slot": "4",
        "type": "t_string_storage"
      },
      {
        "astId": 17865,
        "contract": "src/tokens/NFTGemERC20Governance.sol:NFTGemWrappedERC20Governance",
        "label": "_decimals",
        "offset": 0,
        "slot": "5",
        "type": "t_uint8"
      },
      {
        "astId": 18951,
        "contract": "src/tokens/NFTGemERC20Governance.sol:NFTGemWrappedERC20Governance",
        "label": "tokenData",
        "offset": 0,
        "slot": "6",
        "type": "t_struct(WrappedTokenData)20766_storage"
      },
      {
        "astId": 19583,
        "contract": "src/tokens/NFTGemERC20Governance.sol:NFTGemWrappedERC20Governance",
        "label": "_feeManager",
        "offset": 0,
        "slot": "15",
        "type": "t_address"
      }
    ],
    "types": {
      "t_address": {
        "encoding": "inplace",
        "label": "address",
        "numberOfBytes": "20"
      },
      "t_array(t_uint256)dyn_storage": {
        "base": "t_uint256",
        "encoding": "dynamic_array",
        "label": "uint256[]",
        "numberOfBytes": "32"
      },
      "t_enum(TokenType)9033": {
        "encoding": "inplace",
        "label": "enum INFTGemMultiToken.TokenType",
        "numberOfBytes": "1"
      },
      "t_mapping(t_address,t_array(t_uint256)dyn_storage)": {
        "encoding": "mapping",
        "key": "t_address",
        "label": "mapping(address => uint256[])",
        "numberOfBytes": "32",
        "value": "t_array(t_uint256)dyn_storage"
      },
      "t_mapping(t_address,t_mapping(t_address,t_uint256))": {
        "encoding": "mapping",
        "key": "t_address",
        "label": "mapping(address => mapping(address => uint256))",
        "numberOfBytes": "32",
        "value": "t_mapping(t_address,t_uint256)"
      },
      "t_mapping(t_address,t_uint256)": {
        "encoding": "mapping",
        "key": "t_address",
        "label": "mapping(address => uint256)",
        "numberOfBytes": "32",
        "value": "t_uint256"
      },
      "t_string_storage": {
        "encoding": "bytes",
        "label": "string",
        "numberOfBytes": "32"
      },
      "t_struct(WrappedTokenData)20766_storage": {
        "encoding": "inplace",
        "label": "struct WrappedTokenLib.WrappedTokenData",
        "members": [
          {
            "astId": 20742,
            "contract": "src/tokens/NFTGemERC20Governance.sol:NFTGemWrappedERC20Governance",
            "label": "erc1155token",
            "offset": 0,
            "slot": "0",
            "type": "t_address"
          },
          {
            "astId": 20744,
            "contract": "src/tokens/NFTGemERC20Governance.sol:NFTGemWrappedERC20Governance",
            "label": "erc20token",
            "offset": 0,
            "slot": "1",
            "type": "t_address"
          },
          {
            "astId": 20746,
            "contract": "src/tokens/NFTGemERC20Governance.sol:NFTGemWrappedERC20Governance",
            "label": "tokenPool",
            "offset": 0,
            "slot": "2",
            "type": "t_address"
          },
          {
            "astId": 20748,
            "contract": "src/tokens/NFTGemERC20Governance.sol:NFTGemWrappedERC20Governance",
            "label": "index",
            "offset": 0,
            "slot": "3",
            "type": "t_uint256"
          },
          {
            "astId": 20751,
            "contract": "src/tokens/NFTGemERC20Governance.sol:NFTGemWrappedERC20Governance",
            "label": "tokenType",
            "offset": 0,
            "slot": "4",
            "type": "t_enum(TokenType)9033"
          },
          {
            "astId": 20753,
            "contract": "src/tokens/NFTGemERC20Governance.sol:NFTGemWrappedERC20Governance",
            "label": "rate",
            "offset": 0,
            "slot": "5",
            "type": "t_uint256"
          },
          {
            "astId": 20755,
            "contract": "src/tokens/NFTGemERC20Governance.sol:NFTGemWrappedERC20Governance",
            "label": "wrappedBalance",
            "offset": 0,
            "slot": "6",
            "type": "t_uint256"
          },
          {
            "astId": 20760,
            "contract": "src/tokens/NFTGemERC20Governance.sol:NFTGemWrappedERC20Governance",
            "label": "ids",
            "offset": 0,
            "slot": "7",
            "type": "t_mapping(t_address,t_array(t_uint256)dyn_storage)"
          },
          {
            "astId": 20765,
            "contract": "src/tokens/NFTGemERC20Governance.sol:NFTGemWrappedERC20Governance",
            "label": "amounts",
            "offset": 0,
            "slot": "8",
            "type": "t_mapping(t_address,t_array(t_uint256)dyn_storage)"
          }
        ],
        "numberOfBytes": "288"
      },
      "t_uint256": {
        "encoding": "inplace",
        "label": "uint256",
        "numberOfBytes": "32"
      },
      "t_uint8": {
        "encoding": "inplace",
        "label": "uint8",
        "numberOfBytes": "1"
      }
    }
  }
}