{
  "address": "0x74d55Aa97F1a0656de8eB2F5B2a44Fa3250a4F90",
  "abi": [
    {
      "inputs": [],
      "stateMutability": "nonpayable",
      "type": "constructor"
    },
    {
      "anonymous": false,
      "inputs": [
        {
          "indexed": true,
          "internalType": "address",
          "name": "contractAddress",
          "type": "address"
        },
        {
          "indexed": true,
          "internalType": "address",
          "name": "controllerAddress",
          "type": "address"
        }
      ],
      "name": "ControllerAdded",
      "type": "event"
    },
    {
      "anonymous": false,
      "inputs": [
        {
          "indexed": true,
          "internalType": "address",
          "name": "contractAddress",
          "type": "address"
        },
        {
          "indexed": true,
          "internalType": "address",
          "name": "controllerAddress",
          "type": "address"
        }
      ],
      "name": "ControllerRemoved",
      "type": "event"
    },
    {
      "anonymous": false,
      "inputs": [
        {
          "indexed": false,
          "internalType": "string",
          "name": "gemSymbol",
          "type": "string"
        },
        {
          "indexed": false,
          "internalType": "string",
          "name": "gemName",
          "type": "string"
        }
      ],
      "name": "CustomNFTGemPoolCreated",
      "type": "event"
    },
    {
      "anonymous": false,
      "inputs": [
        {
          "indexed": false,
          "internalType": "string",
          "name": "gemSymbol",
          "type": "string"
        },
        {
          "indexed": false,
          "internalType": "string",
          "name": "gemName",
          "type": "string"
        },
        {
          "indexed": false,
          "internalType": "uint256",
          "name": "ethPrice",
          "type": "uint256"
        },
        {
          "indexed": false,
          "internalType": "uint256",
          "name": "mintTime",
          "type": "uint256"
        },
        {
          "indexed": false,
          "internalType": "uint256",
          "name": "maxTime",
          "type": "uint256"
        },
        {
          "indexed": false,
          "internalType": "uint256",
          "name": "diffstep",
          "type": "uint256"
        },
        {
          "indexed": false,
          "internalType": "uint256",
          "name": "maxMint",
          "type": "uint256"
        },
        {
          "indexed": false,
          "internalType": "address",
          "name": "allowedToken",
          "type": "address"
        }
      ],
      "name": "NFTGemPoolCreated",
      "type": "event"
    },
    {
      "inputs": [
        {
          "internalType": "address",
          "name": "_controller",
          "type": "address"
        }
      ],
      "name": "addController",
      "outputs": [],
      "stateMutability": "nonpayable",
      "type": "function"
    },
    {
      "inputs": [
        {
          "internalType": "address",
          "name": "poolAddress",
          "type": "address"
        },
        {
          "internalType": "string",
          "name": "gemSymbol",
          "type": "string"
        },
        {
          "internalType": "string",
          "name": "gemName",
          "type": "string"
        }
      ],
      "name": "addCustomNFTGemPool",
      "outputs": [
        {
          "internalType": "address payable",
          "name": "gemPool",
          "type": "address"
        }
      ],
      "stateMutability": "nonpayable",
      "type": "function"
    },
    {
      "inputs": [
        {
          "internalType": "uint256",
          "name": "idx",
          "type": "uint256"
        }
      ],
      "name": "allNFTGemPools",
      "outputs": [
        {
          "internalType": "address",
          "name": "gemPool",
          "type": "address"
        }
      ],
      "stateMutability": "view",
      "type": "function"
    },
    {
      "inputs": [],
      "name": "allNFTGemPoolsLength",
      "outputs": [
        {
          "internalType": "uint256",
          "name": "",
          "type": "uint256"
        }
      ],
      "stateMutability": "view",
      "type": "function"
    },
    {
      "inputs": [
        {
          "internalType": "bytes",
          "name": "bytecode",
          "type": "bytes"
        },
        {
          "internalType": "string",
          "name": "gemSymbol",
          "type": "string"
        },
        {
          "internalType": "string",
          "name": "gemName",
          "type": "string"
        }
      ],
      "name": "createCustomNFTGemPool",
      "outputs": [
        {
          "internalType": "address payable",
          "name": "gemPool",
          "type": "address"
        }
      ],
      "stateMutability": "nonpayable",
      "type": "function"
    },
    {
      "inputs": [
        {
          "internalType": "string",
          "name": "gemSymbol",
          "type": "string"
        },
        {
          "internalType": "string",
          "name": "gemName",
          "type": "string"
        },
        {
          "internalType": "uint256",
          "name": "ethPrice",
          "type": "uint256"
        },
        {
          "internalType": "uint256",
          "name": "minTime",
          "type": "uint256"
        },
        {
          "internalType": "uint256",
          "name": "maxTime",
          "type": "uint256"
        },
        {
          "internalType": "uint256",
          "name": "diffstep",
          "type": "uint256"
        },
        {
          "internalType": "uint256",
          "name": "maxMint",
          "type": "uint256"
        },
        {
          "internalType": "address",
          "name": "allowedToken",
          "type": "address"
        }
      ],
      "name": "createNFTGemPool",
      "outputs": [
        {
          "internalType": "address payable",
          "name": "gemPool",
          "type": "address"
        }
      ],
      "stateMutability": "nonpayable",
      "type": "function"
    },
    {
      "inputs": [
        {
          "internalType": "uint256",
          "name": "_symbolHash",
          "type": "uint256"
        }
      ],
      "name": "getNFTGemPool",
      "outputs": [
        {
          "internalType": "address",
          "name": "gemPool",
          "type": "address"
        }
      ],
      "stateMutability": "view",
      "type": "function"
    },
    {
      "inputs": [
        {
          "internalType": "address",
          "name": "_address",
          "type": "address"
        }
      ],
      "name": "isController",
      "outputs": [
        {
          "internalType": "bool",
          "name": "allowed",
          "type": "bool"
        }
      ],
      "stateMutability": "view",
      "type": "function"
    },
    {
      "inputs": [],
      "name": "relinquishControl",
      "outputs": [],
      "stateMutability": "view",
      "type": "function"
    },
    {
      "inputs": [
        {
          "internalType": "uint256",
          "name": "poolHash",
          "type": "uint256"
        }
      ],
      "name": "removeGemPool",
      "outputs": [],
      "stateMutability": "nonpayable",
      "type": "function"
    },
    {
      "inputs": [
        {
          "internalType": "uint256",
          "name": "ndx",
          "type": "uint256"
        }
      ],
      "name": "removeGemPoolAt",
      "outputs": [],
      "stateMutability": "nonpayable",
      "type": "function"
    }
  ],
  "transactionHash": "0xe525587259c5344bac40a114a665439bf54491c54e43a1fc286233c0fa9ea751",
  "args": [],
  "solcInputHash": "74452c6cda3ea6bebd3f6973f1954c6f",
  "bytecode": "0x608060405234801561001057600080fd5b5061001a3361001f565b610043565b6001600160a01b03166000908152602081905260409020805460ff19166001179055565b614299806100526000396000f3fe608060405234801561001057600080fd5b50600436106100c95760003560e01c806367275aed11610081578063e1c28bef1161005b578063e1c28bef1461048f578063e4aa923d14610497578063f994567c1461064b576100c9565b806367275aed146103f8578063a7fc7a0714610415578063b429afeb14610448576100c9565b80634ff8f07e116100b25780634ff8f07e1461025e57806351788914146103bf5780635e6fe72a146103de576100c9565b80630311949d146100ce5780631ff77f1614610241575b600080fd5b610218600480360360608110156100e457600080fd5b73ffffffffffffffffffffffffffffffffffffffff823516919081019060408101602082013564010000000081111561011c57600080fd5b82018360208201111561012e57600080fd5b8035906020019184600183028401116401000000008311171561015057600080fd5b91908080601f01602080910402602001604051908101604052809392919081815260200183838082843760009201919091525092959493602081019350359150506401000000008111156101a357600080fd5b8201836020820111156101b557600080fd5b803590602001918460018302840111640100000000831117156101d757600080fd5b91908080601f016020809104026020016040519081016040528093929190818152602001838380828437600092019190915250929550610668945050505050565b6040805173ffffffffffffffffffffffffffffffffffffffff9092168252519081900360200190f35b6102186004803603602081101561025757600080fd5b5035610946565b610218600480360361010081101561027557600080fd5b81019060208101813564010000000081111561029057600080fd5b8201836020820111156102a257600080fd5b803590602001918460018302840111640100000000831117156102c457600080fd5b91908080601f016020809104026020016040519081016040528093929190818152602001838380828437600092019190915250929594936020810193503591505064010000000081111561031757600080fd5b82018360208201111561032957600080fd5b8035906020019184600183028401116401000000008311171561034b57600080fd5b91908080601f0160208091040260200160405190810160405280939291908181526020018383808284376000920191909152509295505082359350505060208101359060408101359060608101359060808101359060a0013573ffffffffffffffffffffffffffffffffffffffff1661097d565b6103dc600480360360208110156103d557600080fd5b5035610f40565b005b6103e66110a0565b60408051918252519081900360200190f35b6102186004803603602081101561040e57600080fd5b50356110a6565b6103dc6004803603602081101561042b57600080fd5b503573ffffffffffffffffffffffffffffffffffffffff166110ce565b61047b6004803603602081101561045e57600080fd5b503573ffffffffffffffffffffffffffffffffffffffff1661117a565b604080519115158252519081900360200190f35b6103dc6111a5565b610218600480360360608110156104ad57600080fd5b8101906020810181356401000000008111156104c857600080fd5b8201836020820111156104da57600080fd5b803590602001918460018302840111640100000000831117156104fc57600080fd5b91908080601f016020809104026020016040519081016040528093929190818152602001838380828437600092019190915250929594936020810193503591505064010000000081111561054f57600080fd5b82018360208201111561056157600080fd5b8035906020019184600183028401116401000000008311171561058357600080fd5b91908080601f01602080910402602001604051908101604052809392919081815260200183838082843760009201919091525092959493602081019350359150506401000000008111156105d657600080fd5b8201836020820111156105e857600080fd5b8035906020019184600183028401116401000000008311171561060a57600080fd5b91908080601f01602080910402602001604051908101604052809392919081815260200183838082843760009201919091525092955061120d945050505050565b6103dc6004803603602081101561066157600080fd5b503561144f565b3360009081526020819052604081205460ff1615156001148061068a57503033145b6106c55760405162461bcd60e51b815260040180806020018281038252602881526020018061423c6028913960400191505060405180910390fd5b6000836040516020018082805190602001908083835b602083106106fa5780518252601f1990920191602091820191016106db565b51815160209384036101000a60001901801990921691161790526040805192909401828103601f19018352845281519181019190912060008181526002909252929020549194505073ffffffffffffffffffffffffffffffffffffffff161591506107ae9050576040805162461bcd60e51b815260206004820152600e60248201527f47454d504f4f4c5f455849535453000000000000000000000000000000000000604482015290519081900360640190fd5b6000818152600260209081526040808320805473ffffffffffffffffffffffffffffffffffffffff8a167fffffffffffffffffffffffff00000000000000000000000000000000000000009182168117909255600380546001810182559086527fc2575a0e9e593c00f959f8c92f12db2869c3395a3b0502d05e2516446f71f85b0180549091169091179055805181815287519181019190915286518895507f89087d44119cf78c7cc1dfb971ca45b6aa9fde12ab6feedacc1fb42c3487862c9388938893928392838301926060850192908801918190849084905b838110156108a257818101518382015260200161088a565b50505050905090810190601f1680156108cf5780820380516001836020036101000a031916815260200191505b50838103825284518152845160209182019186019080838360005b838110156109025781810151838201526020016108ea565b50505050905090810190601f16801561092f5780820380516001836020036101000a031916815260200191505b5094505050505060405180910390a1509392505050565b60006003828154811061095557fe5b60009182526020909120015473ffffffffffffffffffffffffffffffffffffffff1692915050565b3360009081526020819052604081205460ff1615156001148061099f57503033145b6109da5760405162461bcd60e51b815260040180806020018281038252602881526020018061423c6028913960400191505060405180910390fd5b6000896040516020018082805190602001908083835b60208310610a0f5780518252601f1990920191602091820191016109f0565b51815160209384036101000a60001901801990921691161790526040805192909401828103601f19018352845281519181019190912060008181526002909252929020549194505073ffffffffffffffffffffffffffffffffffffffff16159150610ac39050576040805162461bcd60e51b815260206004820152600e60248201527f47454d504f4f4c5f455849535453000000000000000000000000000000000000604482015290519081900360640190fd5b87610b15576040805162461bcd60e51b815260206004820152600d60248201527f494e56414c49445f505249434500000000000000000000000000000000000000604482015290519081900360640190fd5b86610b67576040805162461bcd60e51b815260206004820152601060248201527f494e56414c49445f4d494e5f54494d4500000000000000000000000000000000604482015290519081900360640190fd5b84610bb9576040805162461bcd60e51b815260206004820152601760248201527f494e56414c49445f444946464943554c54595f53544550000000000000000000604482015290519081900360640190fd5b606060405180602001610bcb9061172d565b601f1982820381018352601f909101166040529050610bec60008383611607565b92508273ffffffffffffffffffffffffffffffffffffffff1663d9a3f9bb8c8c8c8c8c8c8c8c6040518963ffffffff1660e01b81526004018080602001806020018981526020018881526020018781526020018681526020018581526020018473ffffffffffffffffffffffffffffffffffffffff16815260200183810383528b818151815260200191508051906020019080838360005b83811015610c9c578181015183820152602001610c84565b50505050905090810190601f168015610cc95780820380516001836020036101000a031916815260200191505b5083810382528a5181528a516020918201918c019080838360005b83811015610cfc578181015183820152602001610ce4565b50505050905090810190601f168015610d295780820380516001836020036101000a031916815260200191505b509a5050505050505050505050600060405180830381600087803b158015610d5057600080fd5b505af1158015610d64573d6000803e3d6000fd5b505050600083815260026020908152604080832080547fffffffffffffffffffffffff000000000000000000000000000000000000000090811673ffffffffffffffffffffffffffffffffffffffff8a8116918217909355600380546001810182559087527fc2575a0e9e593c00f959f8c92f12db2869c3395a3b0502d05e2516446f71f85b01805490921617905581519182018e9052606082018d9052608082018c905260a082018b905260c082018a9052881660e08201526101008082528f51908201528e517fd5dd03a462020e8d5d777d0957fbf19067fc095f932d026bb0f23e384522f2a694508f938f938f938f938f938f938f938f939092839283810192610120850192918e01918190849084905b83811015610e90578181015183820152602001610e78565b50505050905090810190601f168015610ebd5780820380516001836020036101000a031916815260200191505b5083810382528a5181528a516020918201918c019080838360005b83811015610ef0578181015183820152602001610ed8565b50505050905090810190601f168015610f1d5780820380516001836020036101000a031916815260200191505b509a505050505050505050505060405180910390a1505098975050505050505050565b3360009081526020819052604090205460ff16151560011480610f6257503033145b610f9d5760405162461bcd60e51b815260040180806020018281038252602881526020018061423c6028913960400191505060405180910390fd5b6003548110610ff3576040805162461bcd60e51b815260206004820152601260248201527f494e4445585f4f55545f4f465f52414e47450000000000000000000000000000604482015290519081900360640190fd5b6003546001141561100f5761100a6003600061173a565b61109d565b60038054600019810190811061102157fe5b6000918252602090912001546003805473ffffffffffffffffffffffffffffffffffffffff909216918390811061105457fe5b506000525060038054600019810190811061106b57fe5b600091825260209091200180547fffffffffffffffffffffffff00000000000000000000000000000000000000001690555b50565b60035490565b60009081526002602052604090205473ffffffffffffffffffffffffffffffffffffffff1690565b3360009081526020819052604090205460ff161515600114806110f057503033145b61112b5760405162461bcd60e51b815260040180806020018281038252602881526020018061423c6028913960400191505060405180910390fd5b73ffffffffffffffffffffffffffffffffffffffff16600090815260208190526040902080547fffffffffffffffffffffffffffffffffffffffffffffffffffffffffffffff00166001179055565b73ffffffffffffffffffffffffffffffffffffffff1660009081526020819052604090205460ff1690565b3360009081526020819052604090205460ff161515600114806111c757503033145b6112025760405162461bcd60e51b815260040180806020018281038252602881526020018061423c6028913960400191505060405180910390fd5b336000908152602052565b3360009081526020819052604081205460ff1615156001148061122f57503033145b61126a5760405162461bcd60e51b815260040180806020018281038252602881526020018061423c6028913960400191505060405180910390fd5b6000836040516020018082805190602001908083835b6020831061129f5780518252601f199092019160209182019101611280565b51815160209384036101000a60001901801990921691161790526040805192909401828103601f19018352845281519181019190912060008181526002909252929020549194505073ffffffffffffffffffffffffffffffffffffffff161591506113539050576040805162461bcd60e51b815260206004820152600e60248201527f47454d504f4f4c5f455849535453000000000000000000000000000000000000604482015290519081900360640190fd5b61135f60008287611607565b6000828152600260209081526040808320805473ffffffffffffffffffffffffffffffffffffffff86167fffffffffffffffffffffffff00000000000000000000000000000000000000009182168117909255600380546001810182559086527fc2575a0e9e593c00f959f8c92f12db2869c3395a3b0502d05e2516446f71f85b0180549091169091179055805181815288519181019190915287519395507f89087d44119cf78c7cc1dfb971ca45b6aa9fde12ab6feedacc1fb42c3487862c938893889383928382019260608501928801919081908490849083156108a257818101518382015260200161088a565b3360009081526020819052604090205460ff1615156001148061147157503033145b6114ac5760405162461bcd60e51b815260040180806020018281038252602881526020018061423c6028913960400191505060405180910390fd5b600081815260026020526040812080547fffffffffffffffffffffffff0000000000000000000000000000000000000000811690915573ffffffffffffffffffffffffffffffffffffffff16905b600354811015611602578173ffffffffffffffffffffffffffffffffffffffff166003828154811061152857fe5b60009182526020909120015473ffffffffffffffffffffffffffffffffffffffff1614156115fa576003546001141561156c576115676003600061173a565b6115fa565b60038054600019810190811061157e57fe5b6000918252602090912001546003805473ffffffffffffffffffffffffffffffffffffffff90921691839081106115b157fe5b50600052506003805460001981019081106115c857fe5b600091825260209091200180547fffffffffffffffffffffffff00000000000000000000000000000000000000001690555b6001016114fa565b505050565b6000808447101561165f576040805162461bcd60e51b815260206004820152601d60248201527f437265617465323a20696e73756666696369656e742062616c616e6365000000604482015290519081900360640190fd5b82516116b2576040805162461bcd60e51b815260206004820181905260248201527f437265617465323a2062797465636f6465206c656e677468206973207a65726f604482015290519081900360640190fd5b8383516020850187f5905073ffffffffffffffffffffffffffffffffffffffff8116611725576040805162461bcd60e51b815260206004820152601960248201527f437265617465323a204661696c6564206f6e206465706c6f7900000000000000604482015290519081900360640190fd5b949350505050565b612acf8061176d83390190565b508054600082559060005260206000209081019061109d91905b808211156117685760008155600101611754565b509056fe60806040523480156200001157600080fd5b50620000246301ffc9a760e01b62000056565b62000036630271189760e51b62000056565b336000908152601e60205260409020805460ff19166001179055620000db565b6001600160e01b03198082161415620000b6576040805162461bcd60e51b815260206004820152601c60248201527f4552433136353a20696e76616c696420696e7465726661636520696400000000604482015290519081900360640190fd5b6001600160e01b0319166000908152602260205260409020805460ff19166001179055565b6129e480620000eb6000396000f3fe6080604052600436106103975760003560e01c8063a901c474116101dc578063d3d0839711610102578063e6c3b1f6116100a0578063f4fde0d31161006f578063f4fde0d314611244578063f9c9c27614611259578063f9eaee0d146112d3578063ff186b2e1461131357610397565b8063e6c3b1f6146110c4578063edcf2d5714611104578063ef430aa61461114a578063f23a6e611461115f57610397565b8063d9a3f9bb116100dc578063d9a3f9bb14610ec7578063d9caed1214611035578063e1c28bef14611085578063e5d2ce2f1461109a57610397565b8063d3d0839714610e46578063d43e646014610e5b578063d73cd47f14610e8757610397565b8063c42cf5351161017a578063cf5380b411610149578063cf5380b414610dc7578063cf721b1514610db2578063d104f8f514610ddc578063d31674db14610e1c57610397565b8063c42cf53514610d08578063c455279114610d48578063c5e01a5c14610d88578063c80c061314610db257610397565b8063b788e4e9116101b6578063b788e4e914610ac8578063bc197c8114610add578063bf86999b14610cf3578063c08fa1a4146109f457610397565b8063a901c47414610a49578063af6a6d7914610a73578063b429afeb14610a8857610397565b80636b6201da116102c15780638a09871b1161025f578063959355601161022e57806395935560146109b557806395d89b41146109df578063a0021cf1146109f4578063a7fc7a0714610a0957610397565b80638a09871b1461086d57806390469a9d1461088257806390c3f38f146108c25780639277a1851461097557610397565b80637ae7815d1161029b5780637ae7815d146107c35780637c5d643e146107ef5780637dcb0e5f146108195780637f2e8f0c1461084357610397565b80636b6201da1461072a5780636ba0f5c4146107475780637284e416146107ae57610397565b80634178617f11610339578063504cdacf11610308578063504cdacf146106615780635d2e0dd4146106765780635e5f2e261461068b5780636100c343146106de57610397565b80634178617f146105595780634565e5ef1461059957806347e7ef24146105ae5780634cd28a7e146105f457610397565b806322e67e711161037557806322e67e71146104ad57806323b221a0146104c25780632449ef51146104ec578063392732b11461053657610397565b806301ffc9a71461039c57806306fdde03146103fc5780631aa4307814610486575b600080fd5b3480156103a857600080fd5b506103e8600480360360208110156103bf57600080fd5b50357fffffffff0000000000000000000000000000000000000000000000000000000016611328565b604080519115158252519081900360200190f35b34801561040857600080fd5b5061041161135f565b6040805160208082528351818301528351919283929083019185019080838360005b8381101561044b578181015183820152602001610433565b50505050905090810190601f1680156104785780820380516001836020036101000a031916815260200191505b509250505060405180910390f35b34801561049257600080fd5b5061049b6113f5565b60408051918252519081900360200190f35b3480156104b957600080fd5b5061049b6113fb565b3480156104ce57600080fd5b5061049b600480360360208110156104e557600080fd5b5035611401565b3480156104f857600080fd5b506105346004803603604081101561050f57600080fd5b5073ffffffffffffffffffffffffffffffffffffffff813581169160200135166114a7565b005b6105346004803603604081101561054c57600080fd5b5080359060200135611550565b34801561056557600080fd5b506105346004803603602081101561057c57600080fd5b503573ffffffffffffffffffffffffffffffffffffffff166115c7565b3480156105a557600080fd5b5061049b6115d5565b3480156105ba57600080fd5b50610534600480360360408110156105d157600080fd5b5073ffffffffffffffffffffffffffffffffffffffff81351690602001356115e6565b34801561060057600080fd5b50610534600480360360e081101561061757600080fd5b5080359073ffffffffffffffffffffffffffffffffffffffff602082013581169160408101359091169060ff6060820135169060808101359060a08101359060c001351515611672565b34801561066d57600080fd5b5061049b611747565b34801561068257600080fd5b506103e861174d565b34801561069757600080fd5b506106b5600480360360208110156106ae57600080fd5b5035611756565b6040805173ffffffffffffffffffffffffffffffffffffffff9092168252519081900360200190f35b3480156106ea57600080fd5b506105346004803603606081101561070157600080fd5b5073ffffffffffffffffffffffffffffffffffffffff8135169060208101359060400135611769565b6105346004803603602081101561074057600080fd5b5035611819565b34801561075357600080fd5b50610534600480360360c081101561076a57600080fd5b5073ffffffffffffffffffffffffffffffffffffffff813581169160208101359091169060ff6040820135169060608101359060808101359060a0013515156118ab565b3480156107ba57600080fd5b50610411611977565b3480156107cf57600080fd5b50610534600480360360208110156107e657600080fd5b503515156119d8565b3480156107fb57600080fd5b506105346004803603602081101561081257600080fd5b5035611a02565b34801561082557600080fd5b5061049b6004803603602081101561083c57600080fd5b5035611a72565b34801561084f57600080fd5b5061049b6004803603602081101561086657600080fd5b5035611a84565b34801561087957600080fd5b5061049b611af8565b34801561088e57600080fd5b50610534600480360360208110156108a557600080fd5b503573ffffffffffffffffffffffffffffffffffffffff16611b7c565b3480156108ce57600080fd5b50610534600480360360208110156108e557600080fd5b81019060208101813564010000000081111561090057600080fd5b82018360208201111561091257600080fd5b8035906020019184600183028401116401000000008311171561093457600080fd5b91908080601f016020809104026020016040519081016040528093929190818152602001838380828437600092019190915250929550611b87945050505050565b34801561098157600080fd5b506105346004803603602081101561099857600080fd5b503573ffffffffffffffffffffffffffffffffffffffff16611bb8565b3480156109c157600080fd5b5061049b600480360360208110156109d857600080fd5b5035611c19565b3480156109eb57600080fd5b50610411611c8d565b348015610a0057600080fd5b5061049b611cee565b348015610a1557600080fd5b5061053460048036036020811015610a2c57600080fd5b503573ffffffffffffffffffffffffffffffffffffffff16611cf4565b348015610a5557600080fd5b5061049b60048036036020811015610a6c57600080fd5b5035611d9c565b348015610a7f57600080fd5b506103e8611e10565b348015610a9457600080fd5b506103e860048036036020811015610aab57600080fd5b503573ffffffffffffffffffffffffffffffffffffffff16611e19565b348015610ad457600080fd5b5061049b611e44565b348015610ae957600080fd5b50610cbe600480360360a0811015610b0057600080fd5b73ffffffffffffffffffffffffffffffffffffffff8235811692602081013590911691810190606081016040820135640100000000811115610b4157600080fd5b820183602082011115610b5357600080fd5b80359060200191846020830284011164010000000083111715610b7557600080fd5b9190808060200260200160405190810160405280939291908181526020018383602002808284376000920191909152509295949360208101935035915050640100000000811115610bc557600080fd5b820183602082011115610bd757600080fd5b80359060200191846020830284011164010000000083111715610bf957600080fd5b9190808060200260200160405190810160405280939291908181526020018383602002808284376000920191909152509295949360208101935035915050640100000000811115610c4957600080fd5b820183602082011115610c5b57600080fd5b80359060200191846001830284011164010000000083111715610c7d57600080fd5b91908080601f016020809104026020016040519081016040528093929190818152602001838380828437600092019190915250929550611e97945050505050565b604080517fffffffff000000000000000000000000000000000000000000000000000000009092168252519081900360200190f35b348015610cff57600080fd5b5061049b611ec1565b348015610d1457600080fd5b5061053460048036036020811015610d2b57600080fd5b503573ffffffffffffffffffffffffffffffffffffffff16611ec7565b348015610d5457600080fd5b506106b560048036036020811015610d6b57600080fd5b503573ffffffffffffffffffffffffffffffffffffffff16611f28565b348015610d9457600080fd5b506106b560048036036020811015610dab57600080fd5b5035611f2d565b348015610dbe57600080fd5b5061049b611fa1565b348015610dd357600080fd5b5061049b611fa7565b348015610de857600080fd5b5061053460048036036020811015610dff57600080fd5b503573ffffffffffffffffffffffffffffffffffffffff16611fad565b348015610e2857600080fd5b5061049b60048036036020811015610e3f57600080fd5b503561200e565b348015610e5257600080fd5b5061049b612031565b348015610e6757600080fd5b5061053460048036036020811015610e7e57600080fd5b50351515612084565b348015610e9357600080fd5b5061053460048036036020811015610eaa57600080fd5b503573ffffffffffffffffffffffffffffffffffffffff166120b1565b348015610ed357600080fd5b506105346004803603610100811015610eeb57600080fd5b810190602081018135640100000000811115610f0657600080fd5b820183602082011115610f1857600080fd5b80359060200191846001830284011164010000000083111715610f3a57600080fd5b91908080601f0160208091040260200160405190810160405280939291908181526020018383808284376000920191909152509295949360208101935035915050640100000000811115610f8d57600080fd5b820183602082011115610f9f57600080fd5b80359060200191846001830284011164010000000083111715610fc157600080fd5b91908080601f0160208091040260200160405190810160405280939291908181526020018383808284376000920191909152509295505082359350505060208101359060408101359060608101359060808101359060a0013573ffffffffffffffffffffffffffffffffffffffff16612112565b34801561104157600080fd5b506105346004803603606081101561105857600080fd5b5073ffffffffffffffffffffffffffffffffffffffff813581169160208101359091169060400135612232565b34801561109157600080fd5b506105346122c6565b3480156110a657600080fd5b50610534600480360360208110156110bd57600080fd5b5035612356565b3480156110d057600080fd5b506110ee600480360360208110156110e757600080fd5b5035612375565b6040805160ff9092168252519081900360200190f35b34801561111057600080fd5b506105346004803603604081101561112757600080fd5b5073ffffffffffffffffffffffffffffffffffffffff813516906020013561238a565b34801561115657600080fd5b5061049b61241d565b34801561116b57600080fd5b50610cbe600480360360a081101561118257600080fd5b73ffffffffffffffffffffffffffffffffffffffff823581169260208101359091169160408201359160608101359181019060a0810160808201356401000000008111156111cf57600080fd5b8201836020820111156111e157600080fd5b8035906020019184600183028401116401000000008311171561120357600080fd5b91908080601f016020809104026020016040519081016040528093929190818152602001838380828437600092019190915250929550612423945050505050565b34801561125057600080fd5b5061049b61244d565b34801561126557600080fd5b506112836004803603602081101561127c57600080fd5b5035612453565b6040805173ffffffffffffffffffffffffffffffffffffffff978816815295909616602086015260ff9093168486015260608401919091526080830152151560a082015290519081900360c00190f35b3480156112df57600080fd5b506103e8600480360360208110156112f657600080fd5b503573ffffffffffffffffffffffffffffffffffffffff16612511565b34801561131f57600080fd5b5061049b61251e565b7fffffffff000000000000000000000000000000000000000000000000000000001660009081526022602052604090205460ff1690565b60088054604080516020601f60026000196101006001881615020190951694909404938401819004810282018101909252828152606093909290918301828280156113eb5780601f106113c0576101008083540402835291602001916113eb565b820191906000526020600020905b8154815290600101906020018083116113ce57829003601f168201915b5050505050905090565b600b5490565b600c5490565b604080517f01356b6d00000000000000000000000000000000000000000000000000000000815260006004820181905260248201849052915173c79FFA1E3b5e834F632aa37be723382bD74d67da916301356b6d916044808301926020929190829003018186803b15801561147557600080fd5b505af4158015611489573d6000803e3d6000fd5b505050506040513d602081101561149f57600080fd5b505192915050565b604080517fb9f0527400000000000000000000000000000000000000000000000000000000815260006004820181905273ffffffffffffffffffffffffffffffffffffffff808616602484015284166044830152915173c79FFA1E3b5e834F632aa37be723382bD74d67da9263b9f052749260648082019391829003018186803b15801561153457600080fd5b505af4158015611548573d6000803e3d6000fd5b505050505050565b604080517f80ca2ba60000000000000000000000000000000000000000000000000000000081526000600482018190526024820185905260448201849052915173c79FFA1E3b5e834F632aa37be723382bD74d67da926380ca2ba69260648082019391829003018186803b15801561153457600080fd5b6115d2602082612524565b50565b60006115e160206125f6565b905090565b604080517f88d496a400000000000000000000000000000000000000000000000000000000815260006004820181905273ffffffffffffffffffffffffffffffffffffffff8516602483015260448201849052915173c79FFA1E3b5e834F632aa37be723382bD74d67da926388d496a49260648082019391829003018186803b15801561153457600080fd5b604080517fa93ac116000000000000000000000000000000000000000000000000000000008152600060048201819052602482018a905273ffffffffffffffffffffffffffffffffffffffff808a1660448401528816606483015260ff8716608483015260a4820186905260c4820185905283151560e4830152915173c79FFA1E3b5e834F632aa37be723382bD74d67da9263a93ac116926101048082019391829003018186803b15801561172657600080fd5b505af415801561173a573d6000803e3d6000fd5b5050505050505050505050565b60165490565b60105460ff1690565b60006117636020836125fd565b92915050565b604080517fafeafd9a00000000000000000000000000000000000000000000000000000000815260006004820181905273ffffffffffffffffffffffffffffffffffffffff861660248301526044820185905260648201849052915173c79FFA1E3b5e834F632aa37be723382bD74d67da9263afeafd9a9260848082019391829003018186803b1580156117fc57600080fd5b505af4158015611810573d6000803e3d6000fd5b50505050505050565b604080517f80ca2ba60000000000000000000000000000000000000000000000000000000081526000600482018190526024820184905260016044830152915173c79FFA1E3b5e834F632aa37be723382bD74d67da926380ca2ba69260648082019391829003018186803b15801561189057600080fd5b505af41580156118a4573d6000803e3d6000fd5b5050505050565b604080517fd28b935100000000000000000000000000000000000000000000000000000000815260006004820181905273ffffffffffffffffffffffffffffffffffffffff808a1660248401528816604483015260ff871660648301526084820186905260a4820185905283151560c4830152915173c79FFA1E3b5e834F632aa37be723382bD74d67da9263d28b93519260e48082019391829003018186803b15801561195757600080fd5b505af415801561196b573d6000803e3d6000fd5b50505050505050505050565b60098054604080516020601f60026000196101006001881615020190951694909404938401819004810282018101909252828152606093909290918301828280156113eb5780601f106113c0576101008083540402835291602001916113eb565b336000908152601e60205260409020805460ff19166001179055506010805460ff19166001179055565b604080517f96b8b27f00000000000000000000000000000000000000000000000000000000815260006004820181905260248201849052915173c79FFA1E3b5e834F632aa37be723382bD74d67da926396b8b27f9260448082019391829003018186803b15801561189057600080fd5b60009081526012602052604090205490565b604080517fecd5244e00000000000000000000000000000000000000000000000000000000815260006004820181905260248201849052915173c79FFA1E3b5e834F632aa37be723382bD74d67da9163ecd5244e916044808301926020929190829003018186803b15801561147557600080fd5b60008073c79FFA1E3b5e834F632aa37be723382bD74d67da63164cd8c290916040518263ffffffff1660e01b81526004018082815260200191505060206040518083038186803b158015611b4b57600080fd5b505af4158015611b5f573d6000803e3d6000fd5b505050506040513d6020811015611b7557600080fd5b5051905090565b6115d2602082612637565b336000908152601e60205260409020805460ff191660011790558051611bb4906009906020840190612885565b5050565b336000908152601e60205260409020805460ff19166001179055600380547fffffffffffffffffffffffff00000000000000000000000000000000000000001673ffffffffffffffffffffffffffffffffffffffff92909216919091179055565b604080517fdc1f0f5300000000000000000000000000000000000000000000000000000000815260006004820181905260248201849052915173c79FFA1E3b5e834F632aa37be723382bD74d67da9163dc1f0f53916044808301926020929190829003018186803b15801561147557600080fd5b60078054604080516020601f60026000196101006001881615020190951694909404938401819004810282018101909252828152606093909290918301828280156113eb5780601f106113c0576101008083540402835291602001916113eb565b60155490565b336000908152601e602052604090205460ff16151560011480611d1657503033145b611d6b576040517f08c379a000000000000000000000000000000000000000000000000000000000815260040180806020018281038252602881526020018061295d6028913960400191505060405180910390fd5b73ffffffffffffffffffffffffffffffffffffffff166000908152601e60205260409020805460ff19166001179055565b604080517fb94677da00000000000000000000000000000000000000000000000000000000815260006004820181905260248201849052915173c79FFA1E3b5e834F632aa37be723382bD74d67da9163b94677da916044808301926020929190829003018186803b15801561147557600080fd5b60065460ff1690565b73ffffffffffffffffffffffffffffffffffffffff166000908152601e602052604090205460ff1690565b60008073c79FFA1E3b5e834F632aa37be723382bD74d67da6333c13e0d90916040518263ffffffff1660e01b81526004018082815260200191505060206040518083038186803b158015611b4b57600080fd5b7fbc197c810000000000000000000000000000000000000000000000000000000095945050505050565b600d5490565b336000908152601e60205260409020805460ff19166001179055600280547fffffffffffffffffffffffff00000000000000000000000000000000000000001673ffffffffffffffffffffffffffffffffffffffff92909216919091179055565b503090565b604080517f76e455e100000000000000000000000000000000000000000000000000000000815260006004820181905260248201849052915173c79FFA1E3b5e834F632aa37be723382bD74d67da916376e455e1916044808301926020929190829003018186803b15801561147557600080fd5b60145490565b600e5490565b336000908152601e60205260409020805460ff19166001179055600180547fffffffffffffffffffffffff00000000000000000000000000000000000000001673ffffffffffffffffffffffffffffffffffffffff92909216919091179055565b600080601301828154811061201f57fe5b90600052602060002001549050919050565b60008073c79FFA1E3b5e834F632aa37be723382bD74d67da63828c7b7290916040518263ffffffff1660e01b81526004018082815260200191505060206040518083038186803b158015611b4b57600080fd5b336000908152601e60205260409020805460ff191660011790556006805460ff1916911515919091179055565b336000908152601e60205260409020805460ff19166001179055600480547fffffffffffffffffffffffff00000000000000000000000000000000000000001673ffffffffffffffffffffffffffffffffffffffff92909216919091179055565b336000908152601e602052604090205460ff1615156001148061213457503033145b612189576040517f08c379a000000000000000000000000000000000000000000000000000000000815260040180806020018281038252602881526020018061295d6028913960400191505060405180910390fd5b600080547fffffffffffffffffffffffff0000000000000000000000000000000000000000163017905587516121c69060079060208b0190612885565b5086516121da9060089060208a0190612885565b50600a869055600b859055600c849055600d839055600e8290556006805460ff1916600117905573ffffffffffffffffffffffffffffffffffffffff81161561222857612228602082612524565b5050505050505050565b604080517fe5932f4200000000000000000000000000000000000000000000000000000000815260006004820181905273ffffffffffffffffffffffffffffffffffffffff80871660248401528516604483015260648201849052915173c79FFA1E3b5e834F632aa37be723382bD74d67da9263e5932f429260848082019391829003018186803b1580156117fc57600080fd5b336000908152601e602052604090205460ff161515600114806122e857503033145b61233d576040517f08c379a000000000000000000000000000000000000000000000000000000000815260040180806020018281038252602881526020018061295d6028913960400191505060405180910390fd5b336000908152601e60205260409020805460ff19169055565b336000908152601e60205260409020805460ff19166001179055600555565b60009081526011602052604090205460ff1690565b604080517fafeafd9a00000000000000000000000000000000000000000000000000000000815260006004820181905273ffffffffffffffffffffffffffffffffffffffff851660248301526044820184905260016064830152915173c79FFA1E3b5e834F632aa37be723382bD74d67da9263afeafd9a9260848082019391829003018186803b15801561153457600080fd5b60055490565b7ff23a6e610000000000000000000000000000000000000000000000000000000095945050505050565b60135490565b600080600080600080600073c79FFA1E3b5e834F632aa37be723382bD74d67da635b68e93c9091896040518363ffffffff1660e01b8152600401808381526020018281526020019250505060c06040518083038186803b1580156124b657600080fd5b505af41580156124ca573d6000803e3d6000fd5b505050506040513d60c08110156124e057600080fd5b508051602082015160408301516060840151608085015160a090950151939c929b5090995097509195509350915050565b6000611763602083612810565b600a5490565b61252e8282612810565b15612584576040517f08c379a000000000000000000000000000000000000000000000000000000000815260040180806020018281038252602a815260200180612985602a913960400191505060405180910390fd5b6001828101805491820181556000818152602080822090930180547fffffffffffffffffffffffff00000000000000000000000000000000000000001673ffffffffffffffffffffffffffffffffffffffff959095169485179055905492815292905260409091206000199091019055565b6001015490565b600082600101828154811061260e57fe5b60009182526020909120015473ffffffffffffffffffffffffffffffffffffffff169392505050565b6126418282612810565b612696576040517f08c379a000000000000000000000000000000000000000000000000000000000815260040180806020018281038252602a815260200180612933602a913960400191505060405180910390fd5b600060016126a3846125f6565b73ffffffffffffffffffffffffffffffffffffffff841660009081526020869052604090205491900391508082146127d45760008460010183815481106126e657fe5b600091825260208083209091015473ffffffffffffffffffffffffffffffffffffffff1680835290879052604090912083905560018601805491925082918490811061272e57fe5b600091825260208083209190910180547fffffffffffffffffffffffff00000000000000000000000000000000000000001673ffffffffffffffffffffffffffffffffffffffff9485161790559186168152908690526040812055600185018054600019810190811061279d57fe5b600091825260209091200180547fffffffffffffffffffffffff00000000000000000000000000000000000000001690555061280a565b73ffffffffffffffffffffffffffffffffffffffff8316600090815260208590526040812081905561280a906001860190612903565b50505050565b600182015460009061282457506000611763565b73ffffffffffffffffffffffffffffffffffffffff8216600081815260208590526040902054600185018054909190811061285b57fe5b60009182526020909120015473ffffffffffffffffffffffffffffffffffffffff16149392505050565b828054600181600116156101000203166002900490600052602060002090601f016020900481019282601f106128c657805160ff19168380011785556128f3565b828001600101855582156128f3579182015b828111156128f35782518255916020019190600101906128d8565b506128ff92915061291d565b5090565b50805460008255906000526020600020908101906115d291905b5b808211156128ff576000815560010161291e56fe416464726573735365743a206b657920646f6573206e6f7420657869737420696e20746865207365742e436f6e74726f6c6c61626c653a2063616c6c6572206973206e6f74206120636f6e74726f6c6c6572416464726573735365743a206b657920616c72656164792065786973747320696e20746865207365742ea2646970667358221220229eac68c1a29569ca08334acbd6d26e986246299c2fe1fe526b30a63e7c903164736f6c63430007030033436f6e74726f6c6c61626c653a2063616c6c6572206973206e6f74206120636f6e74726f6c6c6572a2646970667358221220d737a6f55244bb343f1eb734ed9a0229736527367df1a8162c6c1a58b567888864736f6c63430007030033",
  "deployedBytecode": "0x608060405234801561001057600080fd5b50600436106100c95760003560e01c806367275aed11610081578063e1c28bef1161005b578063e1c28bef1461048f578063e4aa923d14610497578063f994567c1461064b576100c9565b806367275aed146103f8578063a7fc7a0714610415578063b429afeb14610448576100c9565b80634ff8f07e116100b25780634ff8f07e1461025e57806351788914146103bf5780635e6fe72a146103de576100c9565b80630311949d146100ce5780631ff77f1614610241575b600080fd5b610218600480360360608110156100e457600080fd5b73ffffffffffffffffffffffffffffffffffffffff823516919081019060408101602082013564010000000081111561011c57600080fd5b82018360208201111561012e57600080fd5b8035906020019184600183028401116401000000008311171561015057600080fd5b91908080601f01602080910402602001604051908101604052809392919081815260200183838082843760009201919091525092959493602081019350359150506401000000008111156101a357600080fd5b8201836020820111156101b557600080fd5b803590602001918460018302840111640100000000831117156101d757600080fd5b91908080601f016020809104026020016040519081016040528093929190818152602001838380828437600092019190915250929550610668945050505050565b6040805173ffffffffffffffffffffffffffffffffffffffff9092168252519081900360200190f35b6102186004803603602081101561025757600080fd5b5035610946565b610218600480360361010081101561027557600080fd5b81019060208101813564010000000081111561029057600080fd5b8201836020820111156102a257600080fd5b803590602001918460018302840111640100000000831117156102c457600080fd5b91908080601f016020809104026020016040519081016040528093929190818152602001838380828437600092019190915250929594936020810193503591505064010000000081111561031757600080fd5b82018360208201111561032957600080fd5b8035906020019184600183028401116401000000008311171561034b57600080fd5b91908080601f0160208091040260200160405190810160405280939291908181526020018383808284376000920191909152509295505082359350505060208101359060408101359060608101359060808101359060a0013573ffffffffffffffffffffffffffffffffffffffff1661097d565b6103dc600480360360208110156103d557600080fd5b5035610f40565b005b6103e66110a0565b60408051918252519081900360200190f35b6102186004803603602081101561040e57600080fd5b50356110a6565b6103dc6004803603602081101561042b57600080fd5b503573ffffffffffffffffffffffffffffffffffffffff166110ce565b61047b6004803603602081101561045e57600080fd5b503573ffffffffffffffffffffffffffffffffffffffff1661117a565b604080519115158252519081900360200190f35b6103dc6111a5565b610218600480360360608110156104ad57600080fd5b8101906020810181356401000000008111156104c857600080fd5b8201836020820111156104da57600080fd5b803590602001918460018302840111640100000000831117156104fc57600080fd5b91908080601f016020809104026020016040519081016040528093929190818152602001838380828437600092019190915250929594936020810193503591505064010000000081111561054f57600080fd5b82018360208201111561056157600080fd5b8035906020019184600183028401116401000000008311171561058357600080fd5b91908080601f01602080910402602001604051908101604052809392919081815260200183838082843760009201919091525092959493602081019350359150506401000000008111156105d657600080fd5b8201836020820111156105e857600080fd5b8035906020019184600183028401116401000000008311171561060a57600080fd5b91908080601f01602080910402602001604051908101604052809392919081815260200183838082843760009201919091525092955061120d945050505050565b6103dc6004803603602081101561066157600080fd5b503561144f565b3360009081526020819052604081205460ff1615156001148061068a57503033145b6106c55760405162461bcd60e51b815260040180806020018281038252602881526020018061423c6028913960400191505060405180910390fd5b6000836040516020018082805190602001908083835b602083106106fa5780518252601f1990920191602091820191016106db565b51815160209384036101000a60001901801990921691161790526040805192909401828103601f19018352845281519181019190912060008181526002909252929020549194505073ffffffffffffffffffffffffffffffffffffffff161591506107ae9050576040805162461bcd60e51b815260206004820152600e60248201527f47454d504f4f4c5f455849535453000000000000000000000000000000000000604482015290519081900360640190fd5b6000818152600260209081526040808320805473ffffffffffffffffffffffffffffffffffffffff8a167fffffffffffffffffffffffff00000000000000000000000000000000000000009182168117909255600380546001810182559086527fc2575a0e9e593c00f959f8c92f12db2869c3395a3b0502d05e2516446f71f85b0180549091169091179055805181815287519181019190915286518895507f89087d44119cf78c7cc1dfb971ca45b6aa9fde12ab6feedacc1fb42c3487862c9388938893928392838301926060850192908801918190849084905b838110156108a257818101518382015260200161088a565b50505050905090810190601f1680156108cf5780820380516001836020036101000a031916815260200191505b50838103825284518152845160209182019186019080838360005b838110156109025781810151838201526020016108ea565b50505050905090810190601f16801561092f5780820380516001836020036101000a031916815260200191505b5094505050505060405180910390a1509392505050565b60006003828154811061095557fe5b60009182526020909120015473ffffffffffffffffffffffffffffffffffffffff1692915050565b3360009081526020819052604081205460ff1615156001148061099f57503033145b6109da5760405162461bcd60e51b815260040180806020018281038252602881526020018061423c6028913960400191505060405180910390fd5b6000896040516020018082805190602001908083835b60208310610a0f5780518252601f1990920191602091820191016109f0565b51815160209384036101000a60001901801990921691161790526040805192909401828103601f19018352845281519181019190912060008181526002909252929020549194505073ffffffffffffffffffffffffffffffffffffffff16159150610ac39050576040805162461bcd60e51b815260206004820152600e60248201527f47454d504f4f4c5f455849535453000000000000000000000000000000000000604482015290519081900360640190fd5b87610b15576040805162461bcd60e51b815260206004820152600d60248201527f494e56414c49445f505249434500000000000000000000000000000000000000604482015290519081900360640190fd5b86610b67576040805162461bcd60e51b815260206004820152601060248201527f494e56414c49445f4d494e5f54494d4500000000000000000000000000000000604482015290519081900360640190fd5b84610bb9576040805162461bcd60e51b815260206004820152601760248201527f494e56414c49445f444946464943554c54595f53544550000000000000000000604482015290519081900360640190fd5b606060405180602001610bcb9061172d565b601f1982820381018352601f909101166040529050610bec60008383611607565b92508273ffffffffffffffffffffffffffffffffffffffff1663d9a3f9bb8c8c8c8c8c8c8c8c6040518963ffffffff1660e01b81526004018080602001806020018981526020018881526020018781526020018681526020018581526020018473ffffffffffffffffffffffffffffffffffffffff16815260200183810383528b818151815260200191508051906020019080838360005b83811015610c9c578181015183820152602001610c84565b50505050905090810190601f168015610cc95780820380516001836020036101000a031916815260200191505b5083810382528a5181528a516020918201918c019080838360005b83811015610cfc578181015183820152602001610ce4565b50505050905090810190601f168015610d295780820380516001836020036101000a031916815260200191505b509a5050505050505050505050600060405180830381600087803b158015610d5057600080fd5b505af1158015610d64573d6000803e3d6000fd5b505050600083815260026020908152604080832080547fffffffffffffffffffffffff000000000000000000000000000000000000000090811673ffffffffffffffffffffffffffffffffffffffff8a8116918217909355600380546001810182559087527fc2575a0e9e593c00f959f8c92f12db2869c3395a3b0502d05e2516446f71f85b01805490921617905581519182018e9052606082018d9052608082018c905260a082018b905260c082018a9052881660e08201526101008082528f51908201528e517fd5dd03a462020e8d5d777d0957fbf19067fc095f932d026bb0f23e384522f2a694508f938f938f938f938f938f938f938f939092839283810192610120850192918e01918190849084905b83811015610e90578181015183820152602001610e78565b50505050905090810190601f168015610ebd5780820380516001836020036101000a031916815260200191505b5083810382528a5181528a516020918201918c019080838360005b83811015610ef0578181015183820152602001610ed8565b50505050905090810190601f168015610f1d5780820380516001836020036101000a031916815260200191505b509a505050505050505050505060405180910390a1505098975050505050505050565b3360009081526020819052604090205460ff16151560011480610f6257503033145b610f9d5760405162461bcd60e51b815260040180806020018281038252602881526020018061423c6028913960400191505060405180910390fd5b6003548110610ff3576040805162461bcd60e51b815260206004820152601260248201527f494e4445585f4f55545f4f465f52414e47450000000000000000000000000000604482015290519081900360640190fd5b6003546001141561100f5761100a6003600061173a565b61109d565b60038054600019810190811061102157fe5b6000918252602090912001546003805473ffffffffffffffffffffffffffffffffffffffff909216918390811061105457fe5b506000525060038054600019810190811061106b57fe5b600091825260209091200180547fffffffffffffffffffffffff00000000000000000000000000000000000000001690555b50565b60035490565b60009081526002602052604090205473ffffffffffffffffffffffffffffffffffffffff1690565b3360009081526020819052604090205460ff161515600114806110f057503033145b61112b5760405162461bcd60e51b815260040180806020018281038252602881526020018061423c6028913960400191505060405180910390fd5b73ffffffffffffffffffffffffffffffffffffffff16600090815260208190526040902080547fffffffffffffffffffffffffffffffffffffffffffffffffffffffffffffff00166001179055565b73ffffffffffffffffffffffffffffffffffffffff1660009081526020819052604090205460ff1690565b3360009081526020819052604090205460ff161515600114806111c757503033145b6112025760405162461bcd60e51b815260040180806020018281038252602881526020018061423c6028913960400191505060405180910390fd5b336000908152602052565b3360009081526020819052604081205460ff1615156001148061122f57503033145b61126a5760405162461bcd60e51b815260040180806020018281038252602881526020018061423c6028913960400191505060405180910390fd5b6000836040516020018082805190602001908083835b6020831061129f5780518252601f199092019160209182019101611280565b51815160209384036101000a60001901801990921691161790526040805192909401828103601f19018352845281519181019190912060008181526002909252929020549194505073ffffffffffffffffffffffffffffffffffffffff161591506113539050576040805162461bcd60e51b815260206004820152600e60248201527f47454d504f4f4c5f455849535453000000000000000000000000000000000000604482015290519081900360640190fd5b61135f60008287611607565b6000828152600260209081526040808320805473ffffffffffffffffffffffffffffffffffffffff86167fffffffffffffffffffffffff00000000000000000000000000000000000000009182168117909255600380546001810182559086527fc2575a0e9e593c00f959f8c92f12db2869c3395a3b0502d05e2516446f71f85b0180549091169091179055805181815288519181019190915287519395507f89087d44119cf78c7cc1dfb971ca45b6aa9fde12ab6feedacc1fb42c3487862c938893889383928382019260608501928801919081908490849083156108a257818101518382015260200161088a565b3360009081526020819052604090205460ff1615156001148061147157503033145b6114ac5760405162461bcd60e51b815260040180806020018281038252602881526020018061423c6028913960400191505060405180910390fd5b600081815260026020526040812080547fffffffffffffffffffffffff0000000000000000000000000000000000000000811690915573ffffffffffffffffffffffffffffffffffffffff16905b600354811015611602578173ffffffffffffffffffffffffffffffffffffffff166003828154811061152857fe5b60009182526020909120015473ffffffffffffffffffffffffffffffffffffffff1614156115fa576003546001141561156c576115676003600061173a565b6115fa565b60038054600019810190811061157e57fe5b6000918252602090912001546003805473ffffffffffffffffffffffffffffffffffffffff90921691839081106115b157fe5b50600052506003805460001981019081106115c857fe5b600091825260209091200180547fffffffffffffffffffffffff00000000000000000000000000000000000000001690555b6001016114fa565b505050565b6000808447101561165f576040805162461bcd60e51b815260206004820152601d60248201527f437265617465323a20696e73756666696369656e742062616c616e6365000000604482015290519081900360640190fd5b82516116b2576040805162461bcd60e51b815260206004820181905260248201527f437265617465323a2062797465636f6465206c656e677468206973207a65726f604482015290519081900360640190fd5b8383516020850187f5905073ffffffffffffffffffffffffffffffffffffffff8116611725576040805162461bcd60e51b815260206004820152601960248201527f437265617465323a204661696c6564206f6e206465706c6f7900000000000000604482015290519081900360640190fd5b949350505050565b612acf8061176d83390190565b508054600082559060005260206000209081019061109d91905b808211156117685760008155600101611754565b509056fe60806040523480156200001157600080fd5b50620000246301ffc9a760e01b62000056565b62000036630271189760e51b62000056565b336000908152601e60205260409020805460ff19166001179055620000db565b6001600160e01b03198082161415620000b6576040805162461bcd60e51b815260206004820152601c60248201527f4552433136353a20696e76616c696420696e7465726661636520696400000000604482015290519081900360640190fd5b6001600160e01b0319166000908152602260205260409020805460ff19166001179055565b6129e480620000eb6000396000f3fe6080604052600436106103975760003560e01c8063a901c474116101dc578063d3d0839711610102578063e6c3b1f6116100a0578063f4fde0d31161006f578063f4fde0d314611244578063f9c9c27614611259578063f9eaee0d146112d3578063ff186b2e1461131357610397565b8063e6c3b1f6146110c4578063edcf2d5714611104578063ef430aa61461114a578063f23a6e611461115f57610397565b8063d9a3f9bb116100dc578063d9a3f9bb14610ec7578063d9caed1214611035578063e1c28bef14611085578063e5d2ce2f1461109a57610397565b8063d3d0839714610e46578063d43e646014610e5b578063d73cd47f14610e8757610397565b8063c42cf5351161017a578063cf5380b411610149578063cf5380b414610dc7578063cf721b1514610db2578063d104f8f514610ddc578063d31674db14610e1c57610397565b8063c42cf53514610d08578063c455279114610d48578063c5e01a5c14610d88578063c80c061314610db257610397565b8063b788e4e9116101b6578063b788e4e914610ac8578063bc197c8114610add578063bf86999b14610cf3578063c08fa1a4146109f457610397565b8063a901c47414610a49578063af6a6d7914610a73578063b429afeb14610a8857610397565b80636b6201da116102c15780638a09871b1161025f578063959355601161022e57806395935560146109b557806395d89b41146109df578063a0021cf1146109f4578063a7fc7a0714610a0957610397565b80638a09871b1461086d57806390469a9d1461088257806390c3f38f146108c25780639277a1851461097557610397565b80637ae7815d1161029b5780637ae7815d146107c35780637c5d643e146107ef5780637dcb0e5f146108195780637f2e8f0c1461084357610397565b80636b6201da1461072a5780636ba0f5c4146107475780637284e416146107ae57610397565b80634178617f11610339578063504cdacf11610308578063504cdacf146106615780635d2e0dd4146106765780635e5f2e261461068b5780636100c343146106de57610397565b80634178617f146105595780634565e5ef1461059957806347e7ef24146105ae5780634cd28a7e146105f457610397565b806322e67e711161037557806322e67e71146104ad57806323b221a0146104c25780632449ef51146104ec578063392732b11461053657610397565b806301ffc9a71461039c57806306fdde03146103fc5780631aa4307814610486575b600080fd5b3480156103a857600080fd5b506103e8600480360360208110156103bf57600080fd5b50357fffffffff0000000000000000000000000000000000000000000000000000000016611328565b604080519115158252519081900360200190f35b34801561040857600080fd5b5061041161135f565b6040805160208082528351818301528351919283929083019185019080838360005b8381101561044b578181015183820152602001610433565b50505050905090810190601f1680156104785780820380516001836020036101000a031916815260200191505b509250505060405180910390f35b34801561049257600080fd5b5061049b6113f5565b60408051918252519081900360200190f35b3480156104b957600080fd5b5061049b6113fb565b3480156104ce57600080fd5b5061049b600480360360208110156104e557600080fd5b5035611401565b3480156104f857600080fd5b506105346004803603604081101561050f57600080fd5b5073ffffffffffffffffffffffffffffffffffffffff813581169160200135166114a7565b005b6105346004803603604081101561054c57600080fd5b5080359060200135611550565b34801561056557600080fd5b506105346004803603602081101561057c57600080fd5b503573ffffffffffffffffffffffffffffffffffffffff166115c7565b3480156105a557600080fd5b5061049b6115d5565b3480156105ba57600080fd5b50610534600480360360408110156105d157600080fd5b5073ffffffffffffffffffffffffffffffffffffffff81351690602001356115e6565b34801561060057600080fd5b50610534600480360360e081101561061757600080fd5b5080359073ffffffffffffffffffffffffffffffffffffffff602082013581169160408101359091169060ff6060820135169060808101359060a08101359060c001351515611672565b34801561066d57600080fd5b5061049b611747565b34801561068257600080fd5b506103e861174d565b34801561069757600080fd5b506106b5600480360360208110156106ae57600080fd5b5035611756565b6040805173ffffffffffffffffffffffffffffffffffffffff9092168252519081900360200190f35b3480156106ea57600080fd5b506105346004803603606081101561070157600080fd5b5073ffffffffffffffffffffffffffffffffffffffff8135169060208101359060400135611769565b6105346004803603602081101561074057600080fd5b5035611819565b34801561075357600080fd5b50610534600480360360c081101561076a57600080fd5b5073ffffffffffffffffffffffffffffffffffffffff813581169160208101359091169060ff6040820135169060608101359060808101359060a0013515156118ab565b3480156107ba57600080fd5b50610411611977565b3480156107cf57600080fd5b50610534600480360360208110156107e657600080fd5b503515156119d8565b3480156107fb57600080fd5b506105346004803603602081101561081257600080fd5b5035611a02565b34801561082557600080fd5b5061049b6004803603602081101561083c57600080fd5b5035611a72565b34801561084f57600080fd5b5061049b6004803603602081101561086657600080fd5b5035611a84565b34801561087957600080fd5b5061049b611af8565b34801561088e57600080fd5b50610534600480360360208110156108a557600080fd5b503573ffffffffffffffffffffffffffffffffffffffff16611b7c565b3480156108ce57600080fd5b50610534600480360360208110156108e557600080fd5b81019060208101813564010000000081111561090057600080fd5b82018360208201111561091257600080fd5b8035906020019184600183028401116401000000008311171561093457600080fd5b91908080601f016020809104026020016040519081016040528093929190818152602001838380828437600092019190915250929550611b87945050505050565b34801561098157600080fd5b506105346004803603602081101561099857600080fd5b503573ffffffffffffffffffffffffffffffffffffffff16611bb8565b3480156109c157600080fd5b5061049b600480360360208110156109d857600080fd5b5035611c19565b3480156109eb57600080fd5b50610411611c8d565b348015610a0057600080fd5b5061049b611cee565b348015610a1557600080fd5b5061053460048036036020811015610a2c57600080fd5b503573ffffffffffffffffffffffffffffffffffffffff16611cf4565b348015610a5557600080fd5b5061049b60048036036020811015610a6c57600080fd5b5035611d9c565b348015610a7f57600080fd5b506103e8611e10565b348015610a9457600080fd5b506103e860048036036020811015610aab57600080fd5b503573ffffffffffffffffffffffffffffffffffffffff16611e19565b348015610ad457600080fd5b5061049b611e44565b348015610ae957600080fd5b50610cbe600480360360a0811015610b0057600080fd5b73ffffffffffffffffffffffffffffffffffffffff8235811692602081013590911691810190606081016040820135640100000000811115610b4157600080fd5b820183602082011115610b5357600080fd5b80359060200191846020830284011164010000000083111715610b7557600080fd5b9190808060200260200160405190810160405280939291908181526020018383602002808284376000920191909152509295949360208101935035915050640100000000811115610bc557600080fd5b820183602082011115610bd757600080fd5b80359060200191846020830284011164010000000083111715610bf957600080fd5b9190808060200260200160405190810160405280939291908181526020018383602002808284376000920191909152509295949360208101935035915050640100000000811115610c4957600080fd5b820183602082011115610c5b57600080fd5b80359060200191846001830284011164010000000083111715610c7d57600080fd5b91908080601f016020809104026020016040519081016040528093929190818152602001838380828437600092019190915250929550611e97945050505050565b604080517fffffffff000000000000000000000000000000000000000000000000000000009092168252519081900360200190f35b348015610cff57600080fd5b5061049b611ec1565b348015610d1457600080fd5b5061053460048036036020811015610d2b57600080fd5b503573ffffffffffffffffffffffffffffffffffffffff16611ec7565b348015610d5457600080fd5b506106b560048036036020811015610d6b57600080fd5b503573ffffffffffffffffffffffffffffffffffffffff16611f28565b348015610d9457600080fd5b506106b560048036036020811015610dab57600080fd5b5035611f2d565b348015610dbe57600080fd5b5061049b611fa1565b348015610dd357600080fd5b5061049b611fa7565b348015610de857600080fd5b5061053460048036036020811015610dff57600080fd5b503573ffffffffffffffffffffffffffffffffffffffff16611fad565b348015610e2857600080fd5b5061049b60048036036020811015610e3f57600080fd5b503561200e565b348015610e5257600080fd5b5061049b612031565b348015610e6757600080fd5b5061053460048036036020811015610e7e57600080fd5b50351515612084565b348015610e9357600080fd5b5061053460048036036020811015610eaa57600080fd5b503573ffffffffffffffffffffffffffffffffffffffff166120b1565b348015610ed357600080fd5b506105346004803603610100811015610eeb57600080fd5b810190602081018135640100000000811115610f0657600080fd5b820183602082011115610f1857600080fd5b80359060200191846001830284011164010000000083111715610f3a57600080fd5b91908080601f0160208091040260200160405190810160405280939291908181526020018383808284376000920191909152509295949360208101935035915050640100000000811115610f8d57600080fd5b820183602082011115610f9f57600080fd5b80359060200191846001830284011164010000000083111715610fc157600080fd5b91908080601f0160208091040260200160405190810160405280939291908181526020018383808284376000920191909152509295505082359350505060208101359060408101359060608101359060808101359060a0013573ffffffffffffffffffffffffffffffffffffffff16612112565b34801561104157600080fd5b506105346004803603606081101561105857600080fd5b5073ffffffffffffffffffffffffffffffffffffffff813581169160208101359091169060400135612232565b34801561109157600080fd5b506105346122c6565b3480156110a657600080fd5b50610534600480360360208110156110bd57600080fd5b5035612356565b3480156110d057600080fd5b506110ee600480360360208110156110e757600080fd5b5035612375565b6040805160ff9092168252519081900360200190f35b34801561111057600080fd5b506105346004803603604081101561112757600080fd5b5073ffffffffffffffffffffffffffffffffffffffff813516906020013561238a565b34801561115657600080fd5b5061049b61241d565b34801561116b57600080fd5b50610cbe600480360360a081101561118257600080fd5b73ffffffffffffffffffffffffffffffffffffffff823581169260208101359091169160408201359160608101359181019060a0810160808201356401000000008111156111cf57600080fd5b8201836020820111156111e157600080fd5b8035906020019184600183028401116401000000008311171561120357600080fd5b91908080601f016020809104026020016040519081016040528093929190818152602001838380828437600092019190915250929550612423945050505050565b34801561125057600080fd5b5061049b61244d565b34801561126557600080fd5b506112836004803603602081101561127c57600080fd5b5035612453565b6040805173ffffffffffffffffffffffffffffffffffffffff978816815295909616602086015260ff9093168486015260608401919091526080830152151560a082015290519081900360c00190f35b3480156112df57600080fd5b506103e8600480360360208110156112f657600080fd5b503573ffffffffffffffffffffffffffffffffffffffff16612511565b34801561131f57600080fd5b5061049b61251e565b7fffffffff000000000000000000000000000000000000000000000000000000001660009081526022602052604090205460ff1690565b60088054604080516020601f60026000196101006001881615020190951694909404938401819004810282018101909252828152606093909290918301828280156113eb5780601f106113c0576101008083540402835291602001916113eb565b820191906000526020600020905b8154815290600101906020018083116113ce57829003601f168201915b5050505050905090565b600b5490565b600c5490565b604080517f01356b6d00000000000000000000000000000000000000000000000000000000815260006004820181905260248201849052915173__$8228317518e9daeef1bbbb17c026e269fd$__916301356b6d916044808301926020929190829003018186803b15801561147557600080fd5b505af4158015611489573d6000803e3d6000fd5b505050506040513d602081101561149f57600080fd5b505192915050565b604080517fb9f0527400000000000000000000000000000000000000000000000000000000815260006004820181905273ffffffffffffffffffffffffffffffffffffffff808616602484015284166044830152915173__$8228317518e9daeef1bbbb17c026e269fd$__9263b9f052749260648082019391829003018186803b15801561153457600080fd5b505af4158015611548573d6000803e3d6000fd5b505050505050565b604080517f80ca2ba60000000000000000000000000000000000000000000000000000000081526000600482018190526024820185905260448201849052915173__$8228317518e9daeef1bbbb17c026e269fd$__926380ca2ba69260648082019391829003018186803b15801561153457600080fd5b6115d2602082612524565b50565b60006115e160206125f6565b905090565b604080517f88d496a400000000000000000000000000000000000000000000000000000000815260006004820181905273ffffffffffffffffffffffffffffffffffffffff8516602483015260448201849052915173__$8228317518e9daeef1bbbb17c026e269fd$__926388d496a49260648082019391829003018186803b15801561153457600080fd5b604080517fa93ac116000000000000000000000000000000000000000000000000000000008152600060048201819052602482018a905273ffffffffffffffffffffffffffffffffffffffff808a1660448401528816606483015260ff8716608483015260a4820186905260c4820185905283151560e4830152915173__$8228317518e9daeef1bbbb17c026e269fd$__9263a93ac116926101048082019391829003018186803b15801561172657600080fd5b505af415801561173a573d6000803e3d6000fd5b5050505050505050505050565b60165490565b60105460ff1690565b60006117636020836125fd565b92915050565b604080517fafeafd9a00000000000000000000000000000000000000000000000000000000815260006004820181905273ffffffffffffffffffffffffffffffffffffffff861660248301526044820185905260648201849052915173__$8228317518e9daeef1bbbb17c026e269fd$__9263afeafd9a9260848082019391829003018186803b1580156117fc57600080fd5b505af4158015611810573d6000803e3d6000fd5b50505050505050565b604080517f80ca2ba60000000000000000000000000000000000000000000000000000000081526000600482018190526024820184905260016044830152915173__$8228317518e9daeef1bbbb17c026e269fd$__926380ca2ba69260648082019391829003018186803b15801561189057600080fd5b505af41580156118a4573d6000803e3d6000fd5b5050505050565b604080517fd28b935100000000000000000000000000000000000000000000000000000000815260006004820181905273ffffffffffffffffffffffffffffffffffffffff808a1660248401528816604483015260ff871660648301526084820186905260a4820185905283151560c4830152915173__$8228317518e9daeef1bbbb17c026e269fd$__9263d28b93519260e48082019391829003018186803b15801561195757600080fd5b505af415801561196b573d6000803e3d6000fd5b50505050505050505050565b60098054604080516020601f60026000196101006001881615020190951694909404938401819004810282018101909252828152606093909290918301828280156113eb5780601f106113c0576101008083540402835291602001916113eb565b336000908152601e60205260409020805460ff19166001179055506010805460ff19166001179055565b604080517f96b8b27f00000000000000000000000000000000000000000000000000000000815260006004820181905260248201849052915173__$8228317518e9daeef1bbbb17c026e269fd$__926396b8b27f9260448082019391829003018186803b15801561189057600080fd5b60009081526012602052604090205490565b604080517fecd5244e00000000000000000000000000000000000000000000000000000000815260006004820181905260248201849052915173__$8228317518e9daeef1bbbb17c026e269fd$__9163ecd5244e916044808301926020929190829003018186803b15801561147557600080fd5b60008073__$8228317518e9daeef1bbbb17c026e269fd$__63164cd8c290916040518263ffffffff1660e01b81526004018082815260200191505060206040518083038186803b158015611b4b57600080fd5b505af4158015611b5f573d6000803e3d6000fd5b505050506040513d6020811015611b7557600080fd5b5051905090565b6115d2602082612637565b336000908152601e60205260409020805460ff191660011790558051611bb4906009906020840190612885565b5050565b336000908152601e60205260409020805460ff19166001179055600380547fffffffffffffffffffffffff00000000000000000000000000000000000000001673ffffffffffffffffffffffffffffffffffffffff92909216919091179055565b604080517fdc1f0f5300000000000000000000000000000000000000000000000000000000815260006004820181905260248201849052915173__$8228317518e9daeef1bbbb17c026e269fd$__9163dc1f0f53916044808301926020929190829003018186803b15801561147557600080fd5b60078054604080516020601f60026000196101006001881615020190951694909404938401819004810282018101909252828152606093909290918301828280156113eb5780601f106113c0576101008083540402835291602001916113eb565b60155490565b336000908152601e602052604090205460ff16151560011480611d1657503033145b611d6b576040517f08c379a000000000000000000000000000000000000000000000000000000000815260040180806020018281038252602881526020018061295d6028913960400191505060405180910390fd5b73ffffffffffffffffffffffffffffffffffffffff166000908152601e60205260409020805460ff19166001179055565b604080517fb94677da00000000000000000000000000000000000000000000000000000000815260006004820181905260248201849052915173__$8228317518e9daeef1bbbb17c026e269fd$__9163b94677da916044808301926020929190829003018186803b15801561147557600080fd5b60065460ff1690565b73ffffffffffffffffffffffffffffffffffffffff166000908152601e602052604090205460ff1690565b60008073__$8228317518e9daeef1bbbb17c026e269fd$__6333c13e0d90916040518263ffffffff1660e01b81526004018082815260200191505060206040518083038186803b158015611b4b57600080fd5b7fbc197c810000000000000000000000000000000000000000000000000000000095945050505050565b600d5490565b336000908152601e60205260409020805460ff19166001179055600280547fffffffffffffffffffffffff00000000000000000000000000000000000000001673ffffffffffffffffffffffffffffffffffffffff92909216919091179055565b503090565b604080517f76e455e100000000000000000000000000000000000000000000000000000000815260006004820181905260248201849052915173__$8228317518e9daeef1bbbb17c026e269fd$__916376e455e1916044808301926020929190829003018186803b15801561147557600080fd5b60145490565b600e5490565b336000908152601e60205260409020805460ff19166001179055600180547fffffffffffffffffffffffff00000000000000000000000000000000000000001673ffffffffffffffffffffffffffffffffffffffff92909216919091179055565b600080601301828154811061201f57fe5b90600052602060002001549050919050565b60008073__$8228317518e9daeef1bbbb17c026e269fd$__63828c7b7290916040518263ffffffff1660e01b81526004018082815260200191505060206040518083038186803b158015611b4b57600080fd5b336000908152601e60205260409020805460ff191660011790556006805460ff1916911515919091179055565b336000908152601e60205260409020805460ff19166001179055600480547fffffffffffffffffffffffff00000000000000000000000000000000000000001673ffffffffffffffffffffffffffffffffffffffff92909216919091179055565b336000908152601e602052604090205460ff1615156001148061213457503033145b612189576040517f08c379a000000000000000000000000000000000000000000000000000000000815260040180806020018281038252602881526020018061295d6028913960400191505060405180910390fd5b600080547fffffffffffffffffffffffff0000000000000000000000000000000000000000163017905587516121c69060079060208b0190612885565b5086516121da9060089060208a0190612885565b50600a869055600b859055600c849055600d839055600e8290556006805460ff1916600117905573ffffffffffffffffffffffffffffffffffffffff81161561222857612228602082612524565b5050505050505050565b604080517fe5932f4200000000000000000000000000000000000000000000000000000000815260006004820181905273ffffffffffffffffffffffffffffffffffffffff80871660248401528516604483015260648201849052915173__$8228317518e9daeef1bbbb17c026e269fd$__9263e5932f429260848082019391829003018186803b1580156117fc57600080fd5b336000908152601e602052604090205460ff161515600114806122e857503033145b61233d576040517f08c379a000000000000000000000000000000000000000000000000000000000815260040180806020018281038252602881526020018061295d6028913960400191505060405180910390fd5b336000908152601e60205260409020805460ff19169055565b336000908152601e60205260409020805460ff19166001179055600555565b60009081526011602052604090205460ff1690565b604080517fafeafd9a00000000000000000000000000000000000000000000000000000000815260006004820181905273ffffffffffffffffffffffffffffffffffffffff851660248301526044820184905260016064830152915173__$8228317518e9daeef1bbbb17c026e269fd$__9263afeafd9a9260848082019391829003018186803b15801561153457600080fd5b60055490565b7ff23a6e610000000000000000000000000000000000000000000000000000000095945050505050565b60135490565b600080600080600080600073__$8228317518e9daeef1bbbb17c026e269fd$__635b68e93c9091896040518363ffffffff1660e01b8152600401808381526020018281526020019250505060c06040518083038186803b1580156124b657600080fd5b505af41580156124ca573d6000803e3d6000fd5b505050506040513d60c08110156124e057600080fd5b508051602082015160408301516060840151608085015160a090950151939c929b5090995097509195509350915050565b6000611763602083612810565b600a5490565b61252e8282612810565b15612584576040517f08c379a000000000000000000000000000000000000000000000000000000000815260040180806020018281038252602a815260200180612985602a913960400191505060405180910390fd5b6001828101805491820181556000818152602080822090930180547fffffffffffffffffffffffff00000000000000000000000000000000000000001673ffffffffffffffffffffffffffffffffffffffff959095169485179055905492815292905260409091206000199091019055565b6001015490565b600082600101828154811061260e57fe5b60009182526020909120015473ffffffffffffffffffffffffffffffffffffffff169392505050565b6126418282612810565b612696576040517f08c379a000000000000000000000000000000000000000000000000000000000815260040180806020018281038252602a815260200180612933602a913960400191505060405180910390fd5b600060016126a3846125f6565b73ffffffffffffffffffffffffffffffffffffffff841660009081526020869052604090205491900391508082146127d45760008460010183815481106126e657fe5b600091825260208083209091015473ffffffffffffffffffffffffffffffffffffffff1680835290879052604090912083905560018601805491925082918490811061272e57fe5b600091825260208083209190910180547fffffffffffffffffffffffff00000000000000000000000000000000000000001673ffffffffffffffffffffffffffffffffffffffff9485161790559186168152908690526040812055600185018054600019810190811061279d57fe5b600091825260209091200180547fffffffffffffffffffffffff00000000000000000000000000000000000000001690555061280a565b73ffffffffffffffffffffffffffffffffffffffff8316600090815260208590526040812081905561280a906001860190612903565b50505050565b600182015460009061282457506000611763565b73ffffffffffffffffffffffffffffffffffffffff8216600081815260208590526040902054600185018054909190811061285b57fe5b60009182526020909120015473ffffffffffffffffffffffffffffffffffffffff16149392505050565b828054600181600116156101000203166002900490600052602060002090601f016020900481019282601f106128c657805160ff19168380011785556128f3565b828001600101855582156128f3579182015b828111156128f35782518255916020019190600101906128d8565b506128ff92915061291d565b5090565b50805460008255906000526020600020908101906115d291905b5b808211156128ff576000815560010161291e56fe416464726573735365743a206b657920646f6573206e6f7420657869737420696e20746865207365742e436f6e74726f6c6c61626c653a2063616c6c6572206973206e6f74206120636f6e74726f6c6c6572416464726573735365743a206b657920616c72656164792065786973747320696e20746865207365742ea2646970667358221220229eac68c1a29569ca08334acbd6d26e986246299c2fe1fe526b30a63e7c903164736f6c63430007030033436f6e74726f6c6c61626c653a2063616c6c6572206973206e6f74206120636f6e74726f6c6c6572a2646970667358221220d737a6f55244bb343f1eb734ed9a0229736527367df1a8162c6c1a58b567888864736f6c63430007030033",
  "libraries": {
    "GovernanceLib": "0x11d4144642F7874Bb4f626802530aFf9e2541233",
    "Strings": "0xe98D76f55e5Dae2DE566CC8Aa1a36282742eabf7",
    "SafeMath": "0x753f0df0a61c5F8A0eB31c6Bf6e7363943Eb225B",
    "AddressSet": "0xe696d6C522A45D46f76E7Dd3D3602afc47854212",
    "UInt256Set": "0xB5e2b27Cf86ba540c54300a9D49264246Da189a1",
    "ProposalsLib": "0xCF3A5C4Bf494cbDA9d2f8FAB54dfAf952aD860c9",
    "Create2": "0x117f8511d54E60dE2F1C63F0Ac1c7C05473cdAa4",
    "ComplexPoolLib": "0xc79FFA1E3b5e834F632aa37be723382bD74d67da"
  },
  "devdoc": {
    "kind": "dev",
    "methods": {
      "addController(address)": {
        "details": "Add an address allowed to control this contract"
      },
      "addCustomNFTGemPool(address,string,string)": {
        "details": "add an existing gem pool to factory(for migrations)"
      },
      "allNFTGemPools(uint256)": {
        "details": "get the quantized token for this"
      },
      "allNFTGemPoolsLength()": {
        "details": "number of quantized addresses"
      },
      "createCustomNFTGemPool(bytes,string,string)": {
        "details": "deploy a new erc20 token using create2"
      },
      "createNFTGemPool(string,string,uint256,uint256,uint256,uint256,uint256,address)": {
        "details": "deploy a new erc20 token using create2"
      },
      "getNFTGemPool(uint256)": {
        "details": "get the quantized token for this"
      },
      "isController(address)": {
        "details": "Check if this address is a controller"
      },
      "relinquishControl()": {
        "details": "Check if this address is a controller"
      },
      "removeGemPool(uint256)": {
        "details": "remove a gem pool from the list using its symbol hash"
      },
      "removeGemPoolAt(uint256)": {
        "details": "remove a gem pool from the list using its index into pools array"
      }
    },
    "version": 1
  },
  "userdoc": {
    "kind": "user",
    "methods": {},
    "version": 1
  },
  "storageLayout": {
    "storage": [
      {
        "astId": 10169,
        "contract": "src/factories/NFTGemPoolFactory.sol:NFTGemPoolFactory",
        "label": "_controllers",
        "offset": 0,
        "slot": "0",
        "type": "t_mapping(t_address,t_bool)"
      },
      {
        "astId": 10560,
        "contract": "src/factories/NFTGemPoolFactory.sol:NFTGemPoolFactory",
        "label": "operator",
        "offset": 0,
        "slot": "1",
        "type": "t_address"
      },
      {
        "astId": 10564,
        "contract": "src/factories/NFTGemPoolFactory.sol:NFTGemPoolFactory",
        "label": "_getNFTGemPool",
        "offset": 0,
        "slot": "2",
        "type": "t_mapping(t_uint256,t_address)"
      },
      {
        "astId": 10567,
        "contract": "src/factories/NFTGemPoolFactory.sol:NFTGemPoolFactory",
        "label": "_allNFTGemPools",
        "offset": 0,
        "slot": "3",
        "type": "t_array(t_address)dyn_storage"
      }
    ],
    "types": {
      "t_address": {
        "encoding": "inplace",
        "label": "address",
        "numberOfBytes": "20"
      },
      "t_array(t_address)dyn_storage": {
        "base": "t_address",
        "encoding": "dynamic_array",
        "label": "address[]",
        "numberOfBytes": "32"
      },
      "t_bool": {
        "encoding": "inplace",
        "label": "bool",
        "numberOfBytes": "1"
      },
      "t_mapping(t_address,t_bool)": {
        "encoding": "mapping",
        "key": "t_address",
        "label": "mapping(address => bool)",
        "numberOfBytes": "32",
        "value": "t_bool"
      },
      "t_mapping(t_uint256,t_address)": {
        "encoding": "mapping",
        "key": "t_uint256",
        "label": "mapping(uint256 => address)",
        "numberOfBytes": "32",
        "value": "t_address"
      },
      "t_uint256": {
        "encoding": "inplace",
        "label": "uint256",
        "numberOfBytes": "32"
      }
    }
  }
}