{
  "address": "0xcEDE781e6AA1b6d9Eafcc6390350237775a9EcD7",
  "abi": [
    {
      "inputs": [],
      "stateMutability": "nonpayable",
      "type": "constructor"
    },
    {
      "anonymous": false,
      "inputs": [
        {
          "indexed": true,
          "internalType": "address",
          "name": "proposal",
          "type": "address"
        },
        {
          "indexed": true,
          "internalType": "address",
          "name": "token",
          "type": "address"
        },
        {
          "indexed": false,
          "internalType": "bool",
          "name": "isBanned",
          "type": "bool"
        }
      ],
      "name": "AllowList",
      "type": "event"
    },
    {
      "anonymous": false,
      "inputs": [
        {
          "indexed": true,
          "internalType": "address",
          "name": "contractAddress",
          "type": "address"
        },
        {
          "indexed": true,
          "internalType": "address",
          "name": "controllerAddress",
          "type": "address"
        }
      ],
      "name": "ControllerAdded",
      "type": "event"
    },
    {
      "anonymous": false,
      "inputs": [
        {
          "indexed": true,
          "internalType": "address",
          "name": "contractAddress",
          "type": "address"
        },
        {
          "indexed": true,
          "internalType": "address",
          "name": "controllerAddress",
          "type": "address"
        }
      ],
      "name": "ControllerRemoved",
      "type": "event"
    },
    {
      "anonymous": false,
      "inputs": [
        {
          "indexed": true,
          "internalType": "address",
          "name": "proposal",
          "type": "address"
        },
        {
          "indexed": true,
          "internalType": "address",
          "name": "token",
          "type": "address"
        },
        {
          "indexed": false,
          "internalType": "uint256",
          "name": "newFee",
          "type": "uint256"
        }
      ],
      "name": "FeeUpdated",
      "type": "event"
    },
    {
      "anonymous": false,
      "inputs": [
        {
          "indexed": true,
          "internalType": "address",
          "name": "receiver",
          "type": "address"
        },
        {
          "indexed": false,
          "internalType": "uint256",
          "name": "amount",
          "type": "uint256"
        }
      ],
      "name": "GovernanceTokenIssued",
      "type": "event"
    },
    {
      "anonymous": false,
      "inputs": [
        {
          "indexed": true,
          "internalType": "address",
          "name": "proposal",
          "type": "address"
        },
        {
          "indexed": true,
          "internalType": "address",
          "name": "receiver",
          "type": "address"
        },
        {
          "indexed": false,
          "internalType": "uint256",
          "name": "received",
          "type": "uint256"
        }
      ],
      "name": "ProjectFunded",
      "type": "event"
    },
    {
      "anonymous": false,
      "inputs": [
        {
          "indexed": true,
          "internalType": "address",
          "name": "proposal",
          "type": "address"
        },
        {
          "indexed": true,
          "internalType": "address",
          "name": "pool",
          "type": "address"
        },
        {
          "indexed": false,
          "internalType": "string",
          "name": "symbol",
          "type": "string"
        },
        {
          "indexed": false,
          "internalType": "string",
          "name": "name",
          "type": "string"
        },
        {
          "indexed": false,
          "internalType": "uint256",
          "name": "ethPrice",
          "type": "uint256"
        },
        {
          "indexed": false,
          "internalType": "uint256",
          "name": "minTime",
          "type": "uint256"
        },
        {
          "indexed": false,
          "internalType": "uint256",
          "name": "maxTime",
          "type": "uint256"
        },
        {
          "indexed": false,
          "internalType": "uint256",
          "name": "diffStep",
          "type": "uint256"
        },
        {
          "indexed": false,
          "internalType": "uint256",
          "name": "maxClaims",
          "type": "uint256"
        },
        {
          "indexed": false,
          "internalType": "address",
          "name": "alllowedToken",
          "type": "address"
        }
      ],
      "name": "StakingPoolCreated",
      "type": "event"
    },
    {
      "inputs": [
        {
          "internalType": "address",
          "name": "_controller",
          "type": "address"
        }
      ],
      "name": "addController",
      "outputs": [],
      "stateMutability": "nonpayable",
      "type": "function"
    },
    {
      "inputs": [
        {
          "internalType": "address",
          "name": "submitter",
          "type": "address"
        },
        {
          "internalType": "string",
          "name": "title",
          "type": "string"
        },
        {
          "internalType": "address",
          "name": "token",
          "type": "address"
        },
        {
          "internalType": "address",
          "name": "pool",
          "type": "address"
        },
        {
          "internalType": "uint256",
          "name": "feeDivisor",
          "type": "uint256"
        }
      ],
      "name": "createChangeFeeProposal",
      "outputs": [
        {
          "internalType": "address",
          "name": "proposal",
          "type": "address"
        }
      ],
      "stateMutability": "nonpayable",
      "type": "function"
    },
    {
      "inputs": [
        {
          "internalType": "address",
          "name": "submitter",
          "type": "address"
        },
        {
          "internalType": "string",
          "name": "title",
          "type": "string"
        },
        {
          "internalType": "address",
          "name": "receiver",
          "type": "address"
        },
        {
          "internalType": "string",
          "name": "descriptionUrl",
          "type": "string"
        },
        {
          "internalType": "uint256",
          "name": "ethAmount",
          "type": "uint256"
        }
      ],
      "name": "createFundProjectProposal",
      "outputs": [
        {
          "internalType": "address",
          "name": "proposal",
          "type": "address"
        }
      ],
      "stateMutability": "nonpayable",
      "type": "function"
    },
    {
      "inputs": [
        {
          "internalType": "address",
          "name": "submitter",
          "type": "address"
        },
        {
          "internalType": "string",
          "name": "title",
          "type": "string"
        },
        {
          "internalType": "string",
          "name": "symbol",
          "type": "string"
        },
        {
          "internalType": "string",
          "name": "name",
          "type": "string"
        },
        {
          "internalType": "uint256",
          "name": "ethPrice",
          "type": "uint256"
        },
        {
          "internalType": "uint256",
          "name": "minTIme",
          "type": "uint256"
        },
        {
          "internalType": "uint256",
          "name": "maxTime",
          "type": "uint256"
        },
        {
          "internalType": "uint256",
          "name": "diffStep",
          "type": "uint256"
        },
        {
          "internalType": "uint256",
          "name": "maxClaims",
          "type": "uint256"
        },
        {
          "internalType": "address",
          "name": "allowedToken",
          "type": "address"
        }
      ],
      "name": "createNewPoolProposal",
      "outputs": [
        {
          "internalType": "address",
          "name": "proposal",
          "type": "address"
        }
      ],
      "stateMutability": "nonpayable",
      "type": "function"
    },
    {
      "inputs": [
        {
          "internalType": "string",
          "name": "symbol",
          "type": "string"
        },
        {
          "internalType": "string",
          "name": "name",
          "type": "string"
        },
        {
          "internalType": "uint256",
          "name": "ethPrice",
          "type": "uint256"
        },
        {
          "internalType": "uint256",
          "name": "minTime",
          "type": "uint256"
        },
        {
          "internalType": "uint256",
          "name": "maxTime",
          "type": "uint256"
        },
        {
          "internalType": "uint256",
          "name": "diffstep",
          "type": "uint256"
        },
        {
          "internalType": "uint256",
          "name": "maxClaims",
          "type": "uint256"
        },
        {
          "internalType": "address",
          "name": "allowedToken",
          "type": "address"
        }
      ],
      "name": "createPool",
      "outputs": [
        {
          "internalType": "address",
          "name": "pool",
          "type": "address"
        }
      ],
      "stateMutability": "nonpayable",
      "type": "function"
    },
    {
      "inputs": [
        {
          "internalType": "uint256",
          "name": "proposalHash",
          "type": "uint256"
        }
      ],
      "name": "createProposalVoteTokens",
      "outputs": [],
      "stateMutability": "nonpayable",
      "type": "function"
    },
    {
      "inputs": [
        {
          "internalType": "string",
          "name": "symbol",
          "type": "string"
        },
        {
          "internalType": "string",
          "name": "name",
          "type": "string"
        },
        {
          "internalType": "uint256",
          "name": "ethPrice",
          "type": "uint256"
        },
        {
          "internalType": "uint256",
          "name": "minTime",
          "type": "uint256"
        },
        {
          "internalType": "uint256",
          "name": "maxTime",
          "type": "uint256"
        },
        {
          "internalType": "uint256",
          "name": "diffstep",
          "type": "uint256"
        },
        {
          "internalType": "uint256",
          "name": "maxClaims",
          "type": "uint256"
        },
        {
          "internalType": "address",
          "name": "allowedToken",
          "type": "address"
        }
      ],
      "name": "createSystemPool",
      "outputs": [
        {
          "internalType": "address",
          "name": "pool",
          "type": "address"
        }
      ],
      "stateMutability": "nonpayable",
      "type": "function"
    },
    {
      "inputs": [
        {
          "internalType": "address",
          "name": "submitter",
          "type": "address"
        },
        {
          "internalType": "string",
          "name": "title",
          "type": "string"
        },
        {
          "internalType": "address",
          "name": "token",
          "type": "address"
        },
        {
          "internalType": "address",
          "name": "pool",
          "type": "address"
        },
        {
          "internalType": "bool",
          "name": "newStatus",
          "type": "bool"
        }
      ],
      "name": "createUpdateAllowlistProposal",
      "outputs": [
        {
          "internalType": "address",
          "name": "proposal",
          "type": "address"
        }
      ],
      "stateMutability": "nonpayable",
      "type": "function"
    },
    {
      "inputs": [
        {
          "internalType": "uint256",
          "name": "proposalHash",
          "type": "uint256"
        }
      ],
      "name": "destroyProposalVoteTokens",
      "outputs": [],
      "stateMutability": "nonpayable",
      "type": "function"
    },
    {
      "inputs": [
        {
          "internalType": "address",
          "name": "propAddress",
          "type": "address"
        }
      ],
      "name": "executeProposal",
      "outputs": [],
      "stateMutability": "nonpayable",
      "type": "function"
    },
    {
      "inputs": [
        {
          "internalType": "address",
          "name": "_multitoken",
          "type": "address"
        },
        {
          "internalType": "address",
          "name": "_factory",
          "type": "address"
        },
        {
          "internalType": "address",
          "name": "_feeTracker",
          "type": "address"
        },
        {
          "internalType": "address",
          "name": "_proposalFactory",
          "type": "address"
        },
        {
          "internalType": "address",
          "name": "_swapHelper",
          "type": "address"
        }
      ],
      "name": "initialize",
      "outputs": [],
      "stateMutability": "nonpayable",
      "type": "function"
    },
    {
      "inputs": [
        {
          "internalType": "address",
          "name": "_address",
          "type": "address"
        }
      ],
      "name": "isController",
      "outputs": [
        {
          "internalType": "bool",
          "name": "allowed",
          "type": "bool"
        }
      ],
      "stateMutability": "view",
      "type": "function"
    },
    {
      "inputs": [
        {
          "internalType": "address",
          "name": "receiver",
          "type": "address"
        },
        {
          "internalType": "uint256",
          "name": "amount",
          "type": "uint256"
        }
      ],
      "name": "issueFuelToken",
      "outputs": [
        {
          "internalType": "uint256",
          "name": "",
          "type": "uint256"
        }
      ],
      "stateMutability": "nonpayable",
      "type": "function"
    },
    {
      "inputs": [
        {
          "internalType": "address",
          "name": "receiver",
          "type": "address"
        }
      ],
      "name": "issueInitialGovernanceTokens",
      "outputs": [
        {
          "internalType": "uint256",
          "name": "",
          "type": "uint256"
        }
      ],
      "stateMutability": "nonpayable",
      "type": "function"
    },
    {
      "inputs": [
        {
          "internalType": "address",
          "name": "receiver",
          "type": "address"
        }
      ],
      "name": "maybeIssueGovernanceToken",
      "outputs": [
        {
          "internalType": "uint256",
          "name": "",
          "type": "uint256"
        }
      ],
      "stateMutability": "nonpayable",
      "type": "function"
    },
    {
      "inputs": [],
      "name": "relinquishControl",
      "outputs": [],
      "stateMutability": "view",
      "type": "function"
    }
  ],
  "transactionHash": "0x935312fe5b4347432819033f4e8bdee3a3dcf7b27202f9d5c5c0f66aa9be7950",
  "args": [],
  "solcInputHash": "d360fa9b8b7daa7c5b93b5a896b2774b",
  "bytecode": "0x608060405234801561001057600080fd5b5061001a3361001f565b610046565b6001600160a01b03166000908152600160208190526040909120805460ff19169091179055565b61259b806100556000396000f3fe608060405234801561001057600080fd5b50600436106101005760003560e01c8063a7fc7a0711610097578063e143194511610066578063e143194514610914578063e1c28bef146109e4578063e4439785146109ec578063ea40a7a414610a1257610100565b8063a7fc7a0714610747578063afc935051461076d578063b429afeb146108bd578063dac7f24d146108f757610100565b80636e3c7c7f116100d35780636e3c7c7f1461031457806377fa7d98146103e25780638dbf88c814610536578063a67a03ab1461072157610100565b80631459457a146101055780631e4ad6a21461014f5780632866519d1461016c578063634b5b7d146102dc575b600080fd5b61014d600480360360a081101561011b57600080fd5b506001600160a01b03813581169160208101358216916040820135811691606081013582169160809091013516610a3e565b005b61014d6004803603602081101561016557600080fd5b5035610bc5565b6102c0600480360361010081101561018357600080fd5b81019060208101813564010000000081111561019e57600080fd5b8201836020820111156101b057600080fd5b803590602001918460018302840111640100000000831117156101d257600080fd5b91908080601f016020809104026020016040519081016040528093929190818152602001838380828437600092019190915250929594936020810193503591505064010000000081111561022557600080fd5b82018360208201111561023757600080fd5b8035906020019184600183028401116401000000008311171561025957600080fd5b91908080601f0160208091040260200160405190810160405280939291908181526020018383808284376000920191909152509295505082359350505060208101359060408101359060608101359060808101359060a001356001600160a01b0316610cd5565b604080516001600160a01b039092168252519081900360200190f35b610302600480360360208110156102f257600080fd5b50356001600160a01b0316610f08565b60408051918252519081900360200190f35b6102c0600480360360a081101561032a57600080fd5b6001600160a01b03823516919081019060408101602082013564010000000081111561035557600080fd5b82018360208201111561036757600080fd5b8035906020019184600183028401116401000000008311171561038957600080fd5b91908080601f016020809104026020016040519081016040528093929190818152602001838380828437600092019190915250929550506001600160a01b03833581169450602084013516926040013591506110fa9050565b6102c060048036036101008110156103f957600080fd5b81019060208101813564010000000081111561041457600080fd5b82018360208201111561042657600080fd5b8035906020019184600183028401116401000000008311171561044857600080fd5b91908080601f016020809104026020016040519081016040528093929190818152602001838380828437600092019190915250929594936020810193503591505064010000000081111561049b57600080fd5b8201836020820111156104ad57600080fd5b803590602001918460018302840111640100000000831117156104cf57600080fd5b91908080601f0160208091040260200160405190810160405280939291908181526020018383808284376000920191909152509295505082359350505060208101359060408101359060608101359060808101359060a001356001600160a01b03166111cc565b6102c0600480360361014081101561054d57600080fd5b6001600160a01b03823516919081019060408101602082013564010000000081111561057857600080fd5b82018360208201111561058a57600080fd5b803590602001918460018302840111640100000000831117156105ac57600080fd5b91908080601f01602080910402602001604051908101604052809392919081815260200183838082843760009201919091525092959493602081019350359150506401000000008111156105ff57600080fd5b82018360208201111561061157600080fd5b8035906020019184600183028401116401000000008311171561063357600080fd5b91908080601f016020809104026020016040519081016040528093929190818152602001838380828437600092019190915250929594936020810193503591505064010000000081111561068657600080fd5b82018360208201111561069857600080fd5b803590602001918460018302840111640100000000831117156106ba57600080fd5b91908080601f0160208091040260200160405190810160405280939291908181526020018383808284376000920191909152509295505082359350505060208101359060408101359060608101359060808101359060a001356001600160a01b03166114fd565b61014d6004803603602081101561073757600080fd5b50356001600160a01b03166116b1565b61014d6004803603602081101561075d57600080fd5b50356001600160a01b03166117d0565b6102c0600480360360a081101561078357600080fd5b6001600160a01b0382351691908101906040810160208201356401000000008111156107ae57600080fd5b8201836020820111156107c057600080fd5b803590602001918460018302840111640100000000831117156107e257600080fd5b91908080601f01602080910402602001604051908101604052809392919081815260200183838082843760009201919091525092956001600160a01b0385351695909490935060408101925060200135905064010000000081111561084657600080fd5b82018360208201111561085857600080fd5b8035906020019184600183028401116401000000008311171561087a57600080fd5b91908080601f016020809104026020016040519081016040528093929190818152602001838380828437600092019190915250929550509135925061188d915050565b6108e3600480360360208110156108d357600080fd5b50356001600160a01b03166119ab565b604080519115158252519081900360200190f35b61014d6004803603602081101561090d57600080fd5b50356119c9565b6102c0600480360360a081101561092a57600080fd5b6001600160a01b03823516919081019060408101602082013564010000000081111561095557600080fd5b82018360208201111561096757600080fd5b8035906020019184600183028401116401000000008311171561098957600080fd5b91908080601f016020809104026020016040519081016040528093929190818152602001838380828437600092019190915250929550506001600160a01b03833581169450602084013516926040013515159150611abe9050565b61014d611b97565b61030260048036036020811015610a0257600080fd5b50356001600160a01b0316611c1a565b61030260048036036040811015610a2857600080fd5b506001600160a01b038135169060200135611dba565b600054610100900460ff1680610a575750610a57611ec4565b80610a65575060005460ff16155b610aba576040517f08c379a000000000000000000000000000000000000000000000000000000000815260040180806020018281038252602e815260200180612510602e913960400191505060405180910390fd5b600054610100900460ff16158015610b2057600080547fffffffffffffffffffffffffffffffffffffffffffffffffffffffffffffff007fffffffffffffffffffffffffffffffffffffffffffffffffffffffffffff00ff909116610100171660011790555b600280547fffffffffffffffffffffffff00000000000000000000000000000000000000009081166001600160a01b0389811691909117909255600380548216888416179055600480548216878416179055600580548216868416179055600680549091169184169190911790558015610bbd57600080547fffffffffffffffffffffffffffffffffffffffffffffffffffffffffffff00ff1690555b505050505050565b3360009081526001602081905260409091205460ff1615151480610be857503033145b610c3d576040517f08c379a000000000000000000000000000000000000000000000000000000000815260040180806020018281038252602881526020018061253e6028913960400191505060405180910390fd5b600254604080517f85efa54c0000000000000000000000000000000000000000000000000000000081526001600160a01b0390921660048301526024820183905251736206f44bF8E653Df6fcC3B04fDC89bAecdafB4B9916385efa54c916044808301926000929190829003018186803b158015610cba57600080fd5b505af4158015610cce573d6000803e3d6000fd5b5050505050565b33600090815260016020819052604082205460ff1615151480610cf757503033145b610d4c576040517f08c379a000000000000000000000000000000000000000000000000000000000815260040180806020018281038252602881526020018061253e6028913960400191505060405180910390fd5b736206f44bF8E653Df6fcC3B04fDC89bAecdafB4B9631500cfba600360009054906101000a90046001600160a01b03168b8b8b8b8b8b8b8b6040518a63ffffffff1660e01b8152600401808a6001600160a01b031681526020018060200180602001898152602001888152602001878152602001868152602001858152602001846001600160a01b0316815260200183810383528b818151815260200191508051906020019080838360005b83811015610e10578181015183820152602001610df8565b50505050905090810190601f168015610e3d5780820380516001836020036101000a031916815260200191505b5083810382528a5181528a516020918201918c019080838360005b83811015610e70578181015183820152602001610e58565b50505050905090810190601f168015610e9d5780820380516001836020036101000a031916815260200191505b509b50505050505050505050505060206040518083038186803b158015610ec357600080fd5b505af4158015610ed7573d6000803e3d6000fd5b505050506040513d6020811015610eed57600080fd5b50519050610efc338083611ed5565b98975050505050505050565b33600090815260016020819052604082205460ff1615151480610f2a57503033145b610f7f576040517f08c379a000000000000000000000000000000000000000000000000000000000815260040180806020018281038252602881526020018061253e6028913960400191505060405180910390fd5b600254604080517fed7aae2b000000000000000000000000000000000000000000000000000000008152600060048201819052915191926001600160a01b03169163ed7aae2b91602480820192602092909190829003018186803b158015610fe657600080fd5b505afa158015610ffa573d6000803e3d6000fd5b505050506040513d602081101561101057600080fd5b50519050620f424081106110285760009150506110f5565b600254604080517f156e29f60000000000000000000000000000000000000000000000000000000081526001600160a01b03868116600483015260006024830181905260016044840152925193169263156e29f69260648084019391929182900301818387803b15801561109b57600080fd5b505af11580156110af573d6000803e3d6000fd5b5050604080516001815290516001600160a01b03871693507f1b9ddf8f7c45e0567932349c127951357a3f9b5a821eeeec6e44d771debbb49092509081900360200190a2505b919050565b600073BA15Db6ac2c0Ad5a6c1f975c91d0dc4486697be263f87924d08585856040518463ffffffff1660e01b815260040180846001600160a01b03168152602001836001600160a01b03168152602001828152602001935050505060206040518083038186803b15801561116d57600080fd5b505af4158015611181573d6000803e3d6000fd5b505050506040513d602081101561119757600080fd5b5051600280546005549293506111c29230926001600160a01b0392831692909116908a908a8761223f565b5095945050505050565b33600090815260016020819052604082205460ff16151514806111ee57503033145b611243576040517f08c379a000000000000000000000000000000000000000000000000000000000815260040180806020018281038252602881526020018061253e6028913960400191505060405180910390fd5b736206f44bF8E653Df6fcC3B04fDC89bAecdafB4B9631500cfba600360009054906101000a90046001600160a01b03168b8b8b8b8b8b8b8b6040518a63ffffffff1660e01b8152600401808a6001600160a01b031681526020018060200180602001898152602001888152602001878152602001868152602001858152602001846001600160a01b0316815260200183810383528b818151815260200191508051906020019080838360005b838110156113075781810151838201526020016112ef565b50505050905090810190601f1680156113345780820380516001836020036101000a031916815260200191505b5083810382528a5181528a516020918201918c019080838360005b8381101561136757818101518382015260200161134f565b50505050905090810190601f1680156113945780820380516001836020036101000a031916815260200191505b509b50505050505050505050505060206040518083038186803b1580156113ba57600080fd5b505af41580156113ce573d6000803e3d6000fd5b505050506040513d60208110156113e457600080fd5b5051604080517f02d05d3f0000000000000000000000000000000000000000000000000000000081529051919250610efc916001600160a01b038416916302d05d3f916004808301926020929190829003018186803b15801561144657600080fd5b505afa15801561145a573d6000803e3d6000fd5b505050506040513d602081101561147057600080fd5b5051604080517f041ae88000000000000000000000000000000000000000000000000000000000815290516001600160a01b0385169163041ae880916004808301926020929190829003018186803b1580156114cb57600080fd5b505afa1580156114df573d6000803e3d6000fd5b505050506040513d60208110156114f557600080fd5b505183611ed5565b600073BA15Db6ac2c0Ad5a6c1f975c91d0dc4486697be26367083d6c8a8a8a8a8a8a8a8a6040518963ffffffff1660e01b8152600401808060200180602001898152602001888152602001878152602001868152602001858152602001846001600160a01b0316815260200183810383528b818151815260200191508051906020019080838360005b8381101561159e578181015183820152602001611586565b50505050905090810190601f1680156115cb5780820380516001836020036101000a031916815260200191505b5083810382528a5181528a516020918201918c019080838360005b838110156115fe5781810151838201526020016115e6565b50505050905090810190601f16801561162b5780820380516001836020036101000a031916815260200191505b509a505050505050505050505060206040518083038186803b15801561165057600080fd5b505af4158015611664573d6000803e3d6000fd5b505050506040513d602081101561167a57600080fd5b50516002546005549192506116a29130916001600160a01b0390811691168e60008f8761223f565b509a9950505050505050505050565b3360009081526001602081905260409091205460ff16151514806116d457503033145b611729576040517f08c379a000000000000000000000000000000000000000000000000000000000815260040180806020018281038252602881526020018061253e6028913960400191505060405180910390fd5b60025460035460048054600654604080517f192ca8e90000000000000000000000000000000000000000000000000000000081526001600160a01b0396871694810194909452938516602484015230604484015290841660648301528316608482015291831660a48301525173BA15Db6ac2c0Ad5a6c1f975c91d0dc4486697be29163192ca8e99160c4808301926000929190829003018186803b158015610cba57600080fd5b3360009081526001602081905260409091205460ff16151514806117f357503033145b611848576040517f08c379a000000000000000000000000000000000000000000000000000000000815260040180806020018281038252602881526020018061253e6028913960400191505060405180910390fd5b6001600160a01b0316600090815260016020819052604090912080547fffffffffffffffffffffffffffffffffffffffffffffffffffffffffffffff00169091179055565b600073BA15Db6ac2c0Ad5a6c1f975c91d0dc4486697be263c9ceb9518585856040518463ffffffff1660e01b815260040180846001600160a01b0316815260200180602001838152602001828103825284818151815260200191508051906020019080838360005b8381101561190d5781810151838201526020016118f5565b50505050905090810190601f16801561193a5780820380516001836020036101000a031916815260200191505b5094505050505060206040518083038186803b15801561195957600080fd5b505af415801561196d573d6000803e3d6000fd5b505050506040513d602081101561198357600080fd5b50516002546005549192506111c29130916001600160a01b0390811691168960018a8761223f565b6001600160a01b031660009081526001602052604090205460ff1690565b3360009081526001602081905260409091205460ff16151514806119ec57503033145b611a41576040517f08c379a000000000000000000000000000000000000000000000000000000000815260040180806020018281038252602881526020018061253e6028913960400191505060405180910390fd5b600254604080517f8851debd0000000000000000000000000000000000000000000000000000000081526001600160a01b0390921660048301526024820183905251736206f44bF8E653Df6fcC3B04fDC89bAecdafB4B991638851debd916044808301926000929190829003018186803b158015610cba57600080fd5b604080517fd6c49d760000000000000000000000000000000000000000000000000000000081526001600160a01b038086166004830152841660248201528215156044820152905160009173BA15Db6ac2c0Ad5a6c1f975c91d0dc4486697be29163d6c49d7691606480820192602092909190829003018186803b158015611b4557600080fd5b505af4158015611b59573d6000803e3d6000fd5b505050506040513d6020811015611b6f57600080fd5b50516002546005549192506111c29130916001600160a01b0390811691168960038a8761223f565b3360009081526001602081905260409091205460ff1615151480611bba57503033145b611c0f576040517f08c379a000000000000000000000000000000000000000000000000000000000815260040180806020018281038252602881526020018061253e6028913960400191505060405180910390fd5b336000526001602052565b60065460009074010000000000000000000000000000000000000000900460ff1615611ca757604080517f08c379a000000000000000000000000000000000000000000000000000000000815260206004820152600e60248201527f414c52454144595f495353554544000000000000000000000000000000000000604482015290519081900360640190fd5b600254604080517f156e29f60000000000000000000000000000000000000000000000000000000081526001600160a01b0385811660048301526000602483018190526207a1206044840152925193169263156e29f69260648084019391929182900301818387803b158015611d1c57600080fd5b505af1158015611d30573d6000803e3d6000fd5b5050600680547fffffffffffffffffffffff00ffffffffffffffffffffffffffffffffffffffff16740100000000000000000000000000000000000000001790555050604080516207a120815290516001600160a01b038416917f1b9ddf8f7c45e0567932349c127951357a3f9b5a821eeeec6e44d771debbb490919081900360200190a2919050565b33600090815260016020819052604082205460ff1615151480611ddc57503033145b611e31576040517f08c379a000000000000000000000000000000000000000000000000000000000815260040180806020018281038252602881526020018061253e6028913960400191505060405180910390fd5b600254604080517f156e29f60000000000000000000000000000000000000000000000000000000081526001600160a01b03868116600483015260016024830152604482018690529151919092169163156e29f691606480830192600092919082900301818387803b158015611ea657600080fd5b505af1158015611eba573d6000803e3d6000fd5b5050505092915050565b6000611ecf30612509565b15905090565b600254604080517fa7fc7a070000000000000000000000000000000000000000000000000000000081526001600160a01b0384811660048301529151919092169163a7fc7a0791602480830192600092919082900301818387803b158015611f3c57600080fd5b505af1158015611f50573d6000803e3d6000fd5b5050604080517fa7fc7a070000000000000000000000000000000000000000000000000000000081526001600160a01b0385166004820152905130935063a7fc7a079250602480830192600092919082900301818387803b158015611fb457600080fd5b505af1158015611fc8573d6000803e3d6000fd5b5050600254604080517fd104f8f50000000000000000000000000000000000000000000000000000000081526001600160a01b0392831660048201529051918516935063d104f8f5925060248082019260009290919082900301818387803b15801561203357600080fd5b505af1158015612047573d6000803e3d6000fd5b5050600654604080517fd73cd47f0000000000000000000000000000000000000000000000000000000081526001600160a01b0392831660048201529051918516935063d73cd47f925060248082019260009290919082900301818387803b1580156120b257600080fd5b505af11580156120c6573d6000803e3d6000fd5b5050604080517fc42cf53500000000000000000000000000000000000000000000000000000000815230600482015290516001600160a01b038516935063c42cf5359250602480830192600092919082900301818387803b15801561212a57600080fd5b505af115801561213e573d6000803e3d6000fd5b505060048054604080517f9277a1850000000000000000000000000000000000000000000000000000000081526001600160a01b0392831693810193909352519085169350639277a1859250602480830192600092919082900301818387803b1580156121aa57600080fd5b505af11580156121be573d6000803e3d6000fd5b50505050806001600160a01b0316632449ef5184846040518363ffffffff1660e01b815260040180836001600160a01b03168152602001826001600160a01b0316815260200192505050600060405180830381600087803b15801561222257600080fd5b505af1158015612236573d6000803e3d6000fd5b50505050505050565b6000856001600160a01b0316634c300076868585886040518563ffffffff1660e01b815260040180856001600160a01b0316815260200180602001846001600160a01b0316815260200183600381111561229557fe5b8152602001828103825285818151815260200191508051906020019080838360005b838110156122cf5781810151838201526020016122b7565b50505050905090810190601f1680156122fc5780820380516001836020036101000a031916815260200191505b5095505050505050602060405180830381600087803b15801561231e57600080fd5b505af1158015612332573d6000803e3d6000fd5b505050506040513d602081101561234857600080fd5b5051604080517fd104f8f50000000000000000000000000000000000000000000000000000000081526001600160a01b038a8116600483015291519293509083169163d104f8f59160248082019260009290919082900301818387803b1580156123b157600080fd5b505af11580156123c5573d6000803e3d6000fd5b50505050806001600160a01b031663c42cf535896040518263ffffffff1660e01b815260040180826001600160a01b03168152602001915050600060405180830381600087803b15801561241857600080fd5b505af115801561242c573d6000803e3d6000fd5b50505050866001600160a01b031663a7fc7a07826040518263ffffffff1660e01b815260040180826001600160a01b03168152602001915050600060405180830381600087803b15801561247f57600080fd5b505af1158015612493573d6000803e3d6000fd5b50505050876001600160a01b031663a7fc7a07826040518263ffffffff1660e01b815260040180826001600160a01b03168152602001915050600060405180830381600087803b1580156124e657600080fd5b505af11580156124fa573d6000803e3d6000fd5b50505050979650505050505050565b3b15159056fe496e697469616c697a61626c653a20636f6e747261637420697320616c726561647920696e697469616c697a6564436f6e74726f6c6c61626c653a2063616c6c6572206973206e6f74206120636f6e74726f6c6c6572a26469706673582212207aa09907ddd260c15eb7010a7a7cb5549d60a68bcf5aaa867a22c79eadff0d4364736f6c63430007030033",
  "deployedBytecode": "0x608060405234801561001057600080fd5b50600436106101005760003560e01c8063a7fc7a0711610097578063e143194511610066578063e143194514610914578063e1c28bef146109e4578063e4439785146109ec578063ea40a7a414610a1257610100565b8063a7fc7a0714610747578063afc935051461076d578063b429afeb146108bd578063dac7f24d146108f757610100565b80636e3c7c7f116100d35780636e3c7c7f1461031457806377fa7d98146103e25780638dbf88c814610536578063a67a03ab1461072157610100565b80631459457a146101055780631e4ad6a21461014f5780632866519d1461016c578063634b5b7d146102dc575b600080fd5b61014d600480360360a081101561011b57600080fd5b506001600160a01b03813581169160208101358216916040820135811691606081013582169160809091013516610a3e565b005b61014d6004803603602081101561016557600080fd5b5035610bc5565b6102c0600480360361010081101561018357600080fd5b81019060208101813564010000000081111561019e57600080fd5b8201836020820111156101b057600080fd5b803590602001918460018302840111640100000000831117156101d257600080fd5b91908080601f016020809104026020016040519081016040528093929190818152602001838380828437600092019190915250929594936020810193503591505064010000000081111561022557600080fd5b82018360208201111561023757600080fd5b8035906020019184600183028401116401000000008311171561025957600080fd5b91908080601f0160208091040260200160405190810160405280939291908181526020018383808284376000920191909152509295505082359350505060208101359060408101359060608101359060808101359060a001356001600160a01b0316610cd5565b604080516001600160a01b039092168252519081900360200190f35b610302600480360360208110156102f257600080fd5b50356001600160a01b0316610f08565b60408051918252519081900360200190f35b6102c0600480360360a081101561032a57600080fd5b6001600160a01b03823516919081019060408101602082013564010000000081111561035557600080fd5b82018360208201111561036757600080fd5b8035906020019184600183028401116401000000008311171561038957600080fd5b91908080601f016020809104026020016040519081016040528093929190818152602001838380828437600092019190915250929550506001600160a01b03833581169450602084013516926040013591506110fa9050565b6102c060048036036101008110156103f957600080fd5b81019060208101813564010000000081111561041457600080fd5b82018360208201111561042657600080fd5b8035906020019184600183028401116401000000008311171561044857600080fd5b91908080601f016020809104026020016040519081016040528093929190818152602001838380828437600092019190915250929594936020810193503591505064010000000081111561049b57600080fd5b8201836020820111156104ad57600080fd5b803590602001918460018302840111640100000000831117156104cf57600080fd5b91908080601f0160208091040260200160405190810160405280939291908181526020018383808284376000920191909152509295505082359350505060208101359060408101359060608101359060808101359060a001356001600160a01b03166111cc565b6102c0600480360361014081101561054d57600080fd5b6001600160a01b03823516919081019060408101602082013564010000000081111561057857600080fd5b82018360208201111561058a57600080fd5b803590602001918460018302840111640100000000831117156105ac57600080fd5b91908080601f01602080910402602001604051908101604052809392919081815260200183838082843760009201919091525092959493602081019350359150506401000000008111156105ff57600080fd5b82018360208201111561061157600080fd5b8035906020019184600183028401116401000000008311171561063357600080fd5b91908080601f016020809104026020016040519081016040528093929190818152602001838380828437600092019190915250929594936020810193503591505064010000000081111561068657600080fd5b82018360208201111561069857600080fd5b803590602001918460018302840111640100000000831117156106ba57600080fd5b91908080601f0160208091040260200160405190810160405280939291908181526020018383808284376000920191909152509295505082359350505060208101359060408101359060608101359060808101359060a001356001600160a01b03166114fd565b61014d6004803603602081101561073757600080fd5b50356001600160a01b03166116b1565b61014d6004803603602081101561075d57600080fd5b50356001600160a01b03166117d0565b6102c0600480360360a081101561078357600080fd5b6001600160a01b0382351691908101906040810160208201356401000000008111156107ae57600080fd5b8201836020820111156107c057600080fd5b803590602001918460018302840111640100000000831117156107e257600080fd5b91908080601f01602080910402602001604051908101604052809392919081815260200183838082843760009201919091525092956001600160a01b0385351695909490935060408101925060200135905064010000000081111561084657600080fd5b82018360208201111561085857600080fd5b8035906020019184600183028401116401000000008311171561087a57600080fd5b91908080601f016020809104026020016040519081016040528093929190818152602001838380828437600092019190915250929550509135925061188d915050565b6108e3600480360360208110156108d357600080fd5b50356001600160a01b03166119ab565b604080519115158252519081900360200190f35b61014d6004803603602081101561090d57600080fd5b50356119c9565b6102c0600480360360a081101561092a57600080fd5b6001600160a01b03823516919081019060408101602082013564010000000081111561095557600080fd5b82018360208201111561096757600080fd5b8035906020019184600183028401116401000000008311171561098957600080fd5b91908080601f016020809104026020016040519081016040528093929190818152602001838380828437600092019190915250929550506001600160a01b03833581169450602084013516926040013515159150611abe9050565b61014d611b97565b61030260048036036020811015610a0257600080fd5b50356001600160a01b0316611c1a565b61030260048036036040811015610a2857600080fd5b506001600160a01b038135169060200135611dba565b600054610100900460ff1680610a575750610a57611ec4565b80610a65575060005460ff16155b610aba576040517f08c379a000000000000000000000000000000000000000000000000000000000815260040180806020018281038252602e815260200180612510602e913960400191505060405180910390fd5b600054610100900460ff16158015610b2057600080547fffffffffffffffffffffffffffffffffffffffffffffffffffffffffffffff007fffffffffffffffffffffffffffffffffffffffffffffffffffffffffffff00ff909116610100171660011790555b600280547fffffffffffffffffffffffff00000000000000000000000000000000000000009081166001600160a01b0389811691909117909255600380548216888416179055600480548216878416179055600580548216868416179055600680549091169184169190911790558015610bbd57600080547fffffffffffffffffffffffffffffffffffffffffffffffffffffffffffff00ff1690555b505050505050565b3360009081526001602081905260409091205460ff1615151480610be857503033145b610c3d576040517f08c379a000000000000000000000000000000000000000000000000000000000815260040180806020018281038252602881526020018061253e6028913960400191505060405180910390fd5b600254604080517f85efa54c0000000000000000000000000000000000000000000000000000000081526001600160a01b039092166004830152602482018390525173__$415eb1c69eabc622d82690315fa0e33bfb$__916385efa54c916044808301926000929190829003018186803b158015610cba57600080fd5b505af4158015610cce573d6000803e3d6000fd5b5050505050565b33600090815260016020819052604082205460ff1615151480610cf757503033145b610d4c576040517f08c379a000000000000000000000000000000000000000000000000000000000815260040180806020018281038252602881526020018061253e6028913960400191505060405180910390fd5b73__$415eb1c69eabc622d82690315fa0e33bfb$__631500cfba600360009054906101000a90046001600160a01b03168b8b8b8b8b8b8b8b6040518a63ffffffff1660e01b8152600401808a6001600160a01b031681526020018060200180602001898152602001888152602001878152602001868152602001858152602001846001600160a01b0316815260200183810383528b818151815260200191508051906020019080838360005b83811015610e10578181015183820152602001610df8565b50505050905090810190601f168015610e3d5780820380516001836020036101000a031916815260200191505b5083810382528a5181528a516020918201918c019080838360005b83811015610e70578181015183820152602001610e58565b50505050905090810190601f168015610e9d5780820380516001836020036101000a031916815260200191505b509b50505050505050505050505060206040518083038186803b158015610ec357600080fd5b505af4158015610ed7573d6000803e3d6000fd5b505050506040513d6020811015610eed57600080fd5b50519050610efc338083611ed5565b98975050505050505050565b33600090815260016020819052604082205460ff1615151480610f2a57503033145b610f7f576040517f08c379a000000000000000000000000000000000000000000000000000000000815260040180806020018281038252602881526020018061253e6028913960400191505060405180910390fd5b600254604080517fed7aae2b000000000000000000000000000000000000000000000000000000008152600060048201819052915191926001600160a01b03169163ed7aae2b91602480820192602092909190829003018186803b158015610fe657600080fd5b505afa158015610ffa573d6000803e3d6000fd5b505050506040513d602081101561101057600080fd5b50519050620f424081106110285760009150506110f5565b600254604080517f156e29f60000000000000000000000000000000000000000000000000000000081526001600160a01b03868116600483015260006024830181905260016044840152925193169263156e29f69260648084019391929182900301818387803b15801561109b57600080fd5b505af11580156110af573d6000803e3d6000fd5b5050604080516001815290516001600160a01b03871693507f1b9ddf8f7c45e0567932349c127951357a3f9b5a821eeeec6e44d771debbb49092509081900360200190a2505b919050565b600073__$c2cf3eebb563d155e336d59c40be15cffe$__63f87924d08585856040518463ffffffff1660e01b815260040180846001600160a01b03168152602001836001600160a01b03168152602001828152602001935050505060206040518083038186803b15801561116d57600080fd5b505af4158015611181573d6000803e3d6000fd5b505050506040513d602081101561119757600080fd5b5051600280546005549293506111c29230926001600160a01b0392831692909116908a908a8761223f565b5095945050505050565b33600090815260016020819052604082205460ff16151514806111ee57503033145b611243576040517f08c379a000000000000000000000000000000000000000000000000000000000815260040180806020018281038252602881526020018061253e6028913960400191505060405180910390fd5b73__$415eb1c69eabc622d82690315fa0e33bfb$__631500cfba600360009054906101000a90046001600160a01b03168b8b8b8b8b8b8b8b6040518a63ffffffff1660e01b8152600401808a6001600160a01b031681526020018060200180602001898152602001888152602001878152602001868152602001858152602001846001600160a01b0316815260200183810383528b818151815260200191508051906020019080838360005b838110156113075781810151838201526020016112ef565b50505050905090810190601f1680156113345780820380516001836020036101000a031916815260200191505b5083810382528a5181528a516020918201918c019080838360005b8381101561136757818101518382015260200161134f565b50505050905090810190601f1680156113945780820380516001836020036101000a031916815260200191505b509b50505050505050505050505060206040518083038186803b1580156113ba57600080fd5b505af41580156113ce573d6000803e3d6000fd5b505050506040513d60208110156113e457600080fd5b5051604080517f02d05d3f0000000000000000000000000000000000000000000000000000000081529051919250610efc916001600160a01b038416916302d05d3f916004808301926020929190829003018186803b15801561144657600080fd5b505afa15801561145a573d6000803e3d6000fd5b505050506040513d602081101561147057600080fd5b5051604080517f041ae88000000000000000000000000000000000000000000000000000000000815290516001600160a01b0385169163041ae880916004808301926020929190829003018186803b1580156114cb57600080fd5b505afa1580156114df573d6000803e3d6000fd5b505050506040513d60208110156114f557600080fd5b505183611ed5565b600073__$c2cf3eebb563d155e336d59c40be15cffe$__6367083d6c8a8a8a8a8a8a8a8a6040518963ffffffff1660e01b8152600401808060200180602001898152602001888152602001878152602001868152602001858152602001846001600160a01b0316815260200183810383528b818151815260200191508051906020019080838360005b8381101561159e578181015183820152602001611586565b50505050905090810190601f1680156115cb5780820380516001836020036101000a031916815260200191505b5083810382528a5181528a516020918201918c019080838360005b838110156115fe5781810151838201526020016115e6565b50505050905090810190601f16801561162b5780820380516001836020036101000a031916815260200191505b509a505050505050505050505060206040518083038186803b15801561165057600080fd5b505af4158015611664573d6000803e3d6000fd5b505050506040513d602081101561167a57600080fd5b50516002546005549192506116a29130916001600160a01b0390811691168e60008f8761223f565b509a9950505050505050505050565b3360009081526001602081905260409091205460ff16151514806116d457503033145b611729576040517f08c379a000000000000000000000000000000000000000000000000000000000815260040180806020018281038252602881526020018061253e6028913960400191505060405180910390fd5b60025460035460048054600654604080517f192ca8e90000000000000000000000000000000000000000000000000000000081526001600160a01b0396871694810194909452938516602484015230604484015290841660648301528316608482015291831660a48301525173__$c2cf3eebb563d155e336d59c40be15cffe$__9163192ca8e99160c4808301926000929190829003018186803b158015610cba57600080fd5b3360009081526001602081905260409091205460ff16151514806117f357503033145b611848576040517f08c379a000000000000000000000000000000000000000000000000000000000815260040180806020018281038252602881526020018061253e6028913960400191505060405180910390fd5b6001600160a01b0316600090815260016020819052604090912080547fffffffffffffffffffffffffffffffffffffffffffffffffffffffffffffff00169091179055565b600073__$c2cf3eebb563d155e336d59c40be15cffe$__63c9ceb9518585856040518463ffffffff1660e01b815260040180846001600160a01b0316815260200180602001838152602001828103825284818151815260200191508051906020019080838360005b8381101561190d5781810151838201526020016118f5565b50505050905090810190601f16801561193a5780820380516001836020036101000a031916815260200191505b5094505050505060206040518083038186803b15801561195957600080fd5b505af415801561196d573d6000803e3d6000fd5b505050506040513d602081101561198357600080fd5b50516002546005549192506111c29130916001600160a01b0390811691168960018a8761223f565b6001600160a01b031660009081526001602052604090205460ff1690565b3360009081526001602081905260409091205460ff16151514806119ec57503033145b611a41576040517f08c379a000000000000000000000000000000000000000000000000000000000815260040180806020018281038252602881526020018061253e6028913960400191505060405180910390fd5b600254604080517f8851debd0000000000000000000000000000000000000000000000000000000081526001600160a01b039092166004830152602482018390525173__$415eb1c69eabc622d82690315fa0e33bfb$__91638851debd916044808301926000929190829003018186803b158015610cba57600080fd5b604080517fd6c49d760000000000000000000000000000000000000000000000000000000081526001600160a01b038086166004830152841660248201528215156044820152905160009173__$c2cf3eebb563d155e336d59c40be15cffe$__9163d6c49d7691606480820192602092909190829003018186803b158015611b4557600080fd5b505af4158015611b59573d6000803e3d6000fd5b505050506040513d6020811015611b6f57600080fd5b50516002546005549192506111c29130916001600160a01b0390811691168960038a8761223f565b3360009081526001602081905260409091205460ff1615151480611bba57503033145b611c0f576040517f08c379a000000000000000000000000000000000000000000000000000000000815260040180806020018281038252602881526020018061253e6028913960400191505060405180910390fd5b336000526001602052565b60065460009074010000000000000000000000000000000000000000900460ff1615611ca757604080517f08c379a000000000000000000000000000000000000000000000000000000000815260206004820152600e60248201527f414c52454144595f495353554544000000000000000000000000000000000000604482015290519081900360640190fd5b600254604080517f156e29f60000000000000000000000000000000000000000000000000000000081526001600160a01b0385811660048301526000602483018190526207a1206044840152925193169263156e29f69260648084019391929182900301818387803b158015611d1c57600080fd5b505af1158015611d30573d6000803e3d6000fd5b5050600680547fffffffffffffffffffffff00ffffffffffffffffffffffffffffffffffffffff16740100000000000000000000000000000000000000001790555050604080516207a120815290516001600160a01b038416917f1b9ddf8f7c45e0567932349c127951357a3f9b5a821eeeec6e44d771debbb490919081900360200190a2919050565b33600090815260016020819052604082205460ff1615151480611ddc57503033145b611e31576040517f08c379a000000000000000000000000000000000000000000000000000000000815260040180806020018281038252602881526020018061253e6028913960400191505060405180910390fd5b600254604080517f156e29f60000000000000000000000000000000000000000000000000000000081526001600160a01b03868116600483015260016024830152604482018690529151919092169163156e29f691606480830192600092919082900301818387803b158015611ea657600080fd5b505af1158015611eba573d6000803e3d6000fd5b5050505092915050565b6000611ecf30612509565b15905090565b600254604080517fa7fc7a070000000000000000000000000000000000000000000000000000000081526001600160a01b0384811660048301529151919092169163a7fc7a0791602480830192600092919082900301818387803b158015611f3c57600080fd5b505af1158015611f50573d6000803e3d6000fd5b5050604080517fa7fc7a070000000000000000000000000000000000000000000000000000000081526001600160a01b0385166004820152905130935063a7fc7a079250602480830192600092919082900301818387803b158015611fb457600080fd5b505af1158015611fc8573d6000803e3d6000fd5b5050600254604080517fd104f8f50000000000000000000000000000000000000000000000000000000081526001600160a01b0392831660048201529051918516935063d104f8f5925060248082019260009290919082900301818387803b15801561203357600080fd5b505af1158015612047573d6000803e3d6000fd5b5050600654604080517fd73cd47f0000000000000000000000000000000000000000000000000000000081526001600160a01b0392831660048201529051918516935063d73cd47f925060248082019260009290919082900301818387803b1580156120b257600080fd5b505af11580156120c6573d6000803e3d6000fd5b5050604080517fc42cf53500000000000000000000000000000000000000000000000000000000815230600482015290516001600160a01b038516935063c42cf5359250602480830192600092919082900301818387803b15801561212a57600080fd5b505af115801561213e573d6000803e3d6000fd5b505060048054604080517f9277a1850000000000000000000000000000000000000000000000000000000081526001600160a01b0392831693810193909352519085169350639277a1859250602480830192600092919082900301818387803b1580156121aa57600080fd5b505af11580156121be573d6000803e3d6000fd5b50505050806001600160a01b0316632449ef5184846040518363ffffffff1660e01b815260040180836001600160a01b03168152602001826001600160a01b0316815260200192505050600060405180830381600087803b15801561222257600080fd5b505af1158015612236573d6000803e3d6000fd5b50505050505050565b6000856001600160a01b0316634c300076868585886040518563ffffffff1660e01b815260040180856001600160a01b0316815260200180602001846001600160a01b0316815260200183600381111561229557fe5b8152602001828103825285818151815260200191508051906020019080838360005b838110156122cf5781810151838201526020016122b7565b50505050905090810190601f1680156122fc5780820380516001836020036101000a031916815260200191505b5095505050505050602060405180830381600087803b15801561231e57600080fd5b505af1158015612332573d6000803e3d6000fd5b505050506040513d602081101561234857600080fd5b5051604080517fd104f8f50000000000000000000000000000000000000000000000000000000081526001600160a01b038a8116600483015291519293509083169163d104f8f59160248082019260009290919082900301818387803b1580156123b157600080fd5b505af11580156123c5573d6000803e3d6000fd5b50505050806001600160a01b031663c42cf535896040518263ffffffff1660e01b815260040180826001600160a01b03168152602001915050600060405180830381600087803b15801561241857600080fd5b505af115801561242c573d6000803e3d6000fd5b50505050866001600160a01b031663a7fc7a07826040518263ffffffff1660e01b815260040180826001600160a01b03168152602001915050600060405180830381600087803b15801561247f57600080fd5b505af1158015612493573d6000803e3d6000fd5b50505050876001600160a01b031663a7fc7a07826040518263ffffffff1660e01b815260040180826001600160a01b03168152602001915050600060405180830381600087803b1580156124e657600080fd5b505af11580156124fa573d6000803e3d6000fd5b50505050979650505050505050565b3b15159056fe496e697469616c697a61626c653a20636f6e747261637420697320616c726561647920696e697469616c697a6564436f6e74726f6c6c61626c653a2063616c6c6572206973206e6f74206120636f6e74726f6c6c6572a26469706673582212207aa09907ddd260c15eb7010a7a7cb5549d60a68bcf5aaa867a22c79eadff0d4364736f6c63430007030033",
  "libraries": {
    "GovernanceLib": "0x6206f44bF8E653Df6fcC3B04fDC89bAecdafB4B9",
    "Strings": "0x8Dc081a2fcA7f1A4596ebE87960335120594C160",
    "SafeMath": "0x59111013aB8F0c45e0E178d69c9E5378bE3d619C",
    "ProposalsLib": "0xBA15Db6ac2c0Ad5a6c1f975c91d0dc4486697be2",
    "Create2": "0xAcAb95Fa7526d15Cf6d8838F2e7C36c02C7A1539"
  },
  "devdoc": {
    "kind": "dev",
    "methods": {
      "addController(address)": {
        "details": "Add an address allowed to control this contract"
      },
      "constructor": {
        "details": "contract controller"
      },
      "createChangeFeeProposal(address,string,address,address,uint256)": {
        "details": "create a proposal to change fees for a token / pool"
      },
      "createFundProjectProposal(address,string,address,string,uint256)": {
        "details": "create a proposal to craete a project funding proposal"
      },
      "createNewPoolProposal(address,string,string,string,uint256,uint256,uint256,uint256,uint256,address)": {
        "details": "create a proposal to create a new pool"
      },
      "createPool(string,string,uint256,uint256,uint256,uint256,uint256,address)": {
        "details": "create a new pool - public, only callable by a controller of this contract"
      },
      "createProposalVoteTokens(uint256)": {
        "details": "create proposal vote tokens"
      },
      "createSystemPool(string,string,uint256,uint256,uint256,uint256,uint256,address)": {
        "details": "create a new pool - public, only callable by a controller of this contract"
      },
      "createUpdateAllowlistProposal(address,string,address,address,bool)": {
        "details": "create a proposal to update the allowlist of a token/pool"
      },
      "destroyProposalVoteTokens(uint256)": {
        "details": "destroy proposal vote tokens"
      },
      "executeProposal(address)": {
        "details": "execute proposal"
      },
      "initialize(address,address,address,address,address)": {
        "details": "init this smart contract"
      },
      "isController(address)": {
        "details": "Check if this address is a controller"
      },
      "issueFuelToken(address,uint256)": {
        "details": "shhh"
      },
      "issueInitialGovernanceTokens(address)": {
        "details": "issue initial governance tokens"
      },
      "maybeIssueGovernanceToken(address)": {
        "details": "maybe issue a governance token to receiver"
      },
      "relinquishControl()": {
        "details": "Check if this address is a controller"
      }
    },
    "version": 1
  },
  "userdoc": {
    "kind": "user",
    "methods": {},
    "version": 1
  },
  "storageLayout": {
    "storage": [
      {
        "astId": 23476,
        "contract": "src/governance/NFTGemGovernor.sol:NFTGemGovernor",
        "label": "_initialized",
        "offset": 0,
        "slot": "0",
        "type": "t_bool"
      },
      {
        "astId": 23479,
        "contract": "src/governance/NFTGemGovernor.sol:NFTGemGovernor",
        "label": "_initializing",
        "offset": 1,
        "slot": "0",
        "type": "t_bool"
      },
      {
        "astId": 10169,
        "contract": "src/governance/NFTGemGovernor.sol:NFTGemGovernor",
        "label": "_controllers",
        "offset": 0,
        "slot": "1",
        "type": "t_mapping(t_address,t_bool)"
      },
      {
        "astId": 11583,
        "contract": "src/governance/NFTGemGovernor.sol:NFTGemGovernor",
        "label": "multitoken",
        "offset": 0,
        "slot": "2",
        "type": "t_address"
      },
      {
        "astId": 11585,
        "contract": "src/governance/NFTGemGovernor.sol:NFTGemGovernor",
        "label": "factory",
        "offset": 0,
        "slot": "3",
        "type": "t_address"
      },
      {
        "astId": 11587,
        "contract": "src/governance/NFTGemGovernor.sol:NFTGemGovernor",
        "label": "feeTracker",
        "offset": 0,
        "slot": "4",
        "type": "t_address"
      },
      {
        "astId": 11589,
        "contract": "src/governance/NFTGemGovernor.sol:NFTGemGovernor",
        "label": "proposalFactory",
        "offset": 0,
        "slot": "5",
        "type": "t_address"
      },
      {
        "astId": 11591,
        "contract": "src/governance/NFTGemGovernor.sol:NFTGemGovernor",
        "label": "swapHelper",
        "offset": 0,
        "slot": "6",
        "type": "t_address"
      },
      {
        "astId": 11605,
        "contract": "src/governance/NFTGemGovernor.sol:NFTGemGovernor",
        "label": "governanceIssued",
        "offset": 20,
        "slot": "6",
        "type": "t_bool"
      }
    ],
    "types": {
      "t_address": {
        "encoding": "inplace",
        "label": "address",
        "numberOfBytes": "20"
      },
      "t_bool": {
        "encoding": "inplace",
        "label": "bool",
        "numberOfBytes": "1"
      },
      "t_mapping(t_address,t_bool)": {
        "encoding": "mapping",
        "key": "t_address",
        "label": "mapping(address => bool)",
        "numberOfBytes": "32",
        "value": "t_bool"
      }
    }
  }
}