{
  "address": "0xc7795e8C2a087DC6536FD7a001Fb2f34A768c6e6",
  "abi": [
    {
      "inputs": [],
      "stateMutability": "nonpayable",
      "type": "constructor"
    },
    {
      "anonymous": false,
      "inputs": [
        {
          "indexed": true,
          "internalType": "address",
          "name": "contractAddress",
          "type": "address"
        },
        {
          "indexed": true,
          "internalType": "address",
          "name": "controllerAddress",
          "type": "address"
        }
      ],
      "name": "ControllerAdded",
      "type": "event"
    },
    {
      "anonymous": false,
      "inputs": [
        {
          "indexed": true,
          "internalType": "address",
          "name": "contractAddress",
          "type": "address"
        },
        {
          "indexed": true,
          "internalType": "address",
          "name": "controllerAddress",
          "type": "address"
        }
      ],
      "name": "ControllerRemoved",
      "type": "event"
    },
    {
      "anonymous": false,
      "inputs": [
        {
          "indexed": true,
          "internalType": "address",
          "name": "operator",
          "type": "address"
        },
        {
          "indexed": true,
          "internalType": "uint256",
          "name": "feeHash",
          "type": "uint256"
        },
        {
          "indexed": false,
          "internalType": "uint256",
          "name": "value",
          "type": "uint256"
        }
      ],
      "name": "FeeChanged",
      "type": "event"
    },
    {
      "inputs": [],
      "name": "FLASH_LOAN_HASH",
      "outputs": [
        {
          "internalType": "uint256",
          "name": "",
          "type": "uint256"
        }
      ],
      "stateMutability": "view",
      "type": "function"
    },
    {
      "inputs": [],
      "name": "MINIMUM_LIQUIDITY_HASH",
      "outputs": [
        {
          "internalType": "uint256",
          "name": "",
          "type": "uint256"
        }
      ],
      "stateMutability": "view",
      "type": "function"
    },
    {
      "inputs": [],
      "name": "POOL_FEE_HASH",
      "outputs": [
        {
          "internalType": "uint256",
          "name": "",
          "type": "uint256"
        }
      ],
      "stateMutability": "view",
      "type": "function"
    },
    {
      "inputs": [],
      "name": "WRAP_GEM_HASH",
      "outputs": [
        {
          "internalType": "uint256",
          "name": "",
          "type": "uint256"
        }
      ],
      "stateMutability": "view",
      "type": "function"
    },
    {
      "inputs": [
        {
          "internalType": "address",
          "name": "_controller",
          "type": "address"
        }
      ],
      "name": "addController",
      "outputs": [],
      "stateMutability": "nonpayable",
      "type": "function"
    },
    {
      "inputs": [
        {
          "internalType": "address",
          "name": "token",
          "type": "address"
        }
      ],
      "name": "balanceOf",
      "outputs": [
        {
          "internalType": "uint256",
          "name": "",
          "type": "uint256"
        }
      ],
      "stateMutability": "view",
      "type": "function"
    },
    {
      "inputs": [
        {
          "internalType": "uint256",
          "name": "feeHash",
          "type": "uint256"
        }
      ],
      "name": "fee",
      "outputs": [
        {
          "internalType": "uint256",
          "name": "feeRet",
          "type": "uint256"
        }
      ],
      "stateMutability": "view",
      "type": "function"
    },
    {
      "inputs": [
        {
          "internalType": "address",
          "name": "_address",
          "type": "address"
        }
      ],
      "name": "isController",
      "outputs": [
        {
          "internalType": "bool",
          "name": "allowed",
          "type": "bool"
        }
      ],
      "stateMutability": "view",
      "type": "function"
    },
    {
      "inputs": [],
      "name": "relinquishControl",
      "outputs": [],
      "stateMutability": "nonpayable",
      "type": "function"
    },
    {
      "inputs": [
        {
          "internalType": "uint256",
          "name": "feeHash",
          "type": "uint256"
        },
        {
          "internalType": "uint256",
          "name": "_fee",
          "type": "uint256"
        }
      ],
      "name": "setFee",
      "outputs": [],
      "stateMutability": "nonpayable",
      "type": "function"
    },
    {
      "inputs": [
        {
          "internalType": "address payable",
          "name": "recipient",
          "type": "address"
        },
        {
          "internalType": "uint256",
          "name": "amount",
          "type": "uint256"
        }
      ],
      "name": "transferEth",
      "outputs": [],
      "stateMutability": "nonpayable",
      "type": "function"
    },
    {
      "inputs": [
        {
          "internalType": "address",
          "name": "token",
          "type": "address"
        },
        {
          "internalType": "address",
          "name": "recipient",
          "type": "address"
        },
        {
          "internalType": "uint256",
          "name": "amount",
          "type": "uint256"
        }
      ],
      "name": "transferToken",
      "outputs": [],
      "stateMutability": "nonpayable",
      "type": "function"
    },
    {
      "stateMutability": "payable",
      "type": "receive"
    }
  ],
  "transactionHash": "0xadca30cc4675d8c22dd103962ccf05135fbf9aa9b7fafa78ee38e43d36666ac4",
  "args": [],
  "solcInputHash": "e35a7d29e13fd466572a988d3f7c62ca",
  "bytecode": "0x608060405234801561001057600080fd5b5061001a3361012a565b7f0ec00ae29f2aafdb279bec8e892846e2ce37e27acd3eba6c98ed18e29aedb88a60009081526002602081815260327fc5f3cf42c593b9bf57769b99bec2bf71e94324b20cb50593e531a062e020c741556040516107d0939161007d9101610178565b6040516020818303038152906040528051906020012060001c8152602001908152602001600020819055506107d0600260006040516020016100be90610164565b6040516020818303038152906040528051906020012060001c815260200190815260200160002081905550612710600260006040516020016100ff9061014e565b60408051601f198184030181529181528151602092830120835290820192909252016000205561018c565b6001600160a01b03166000908152602081905260409020805460ff19166001179055565b69333630b9b42fb637b0b760b11b8152600a0190565b67777261705f67656d60c01b815260080190565b67706f6f6c5f66656560c01b815260080190565b6109308061019b6000396000f3fe6080604052600436106100cb5760003560e01c8063a7fc7a0711610074578063e1c28bef1161004e578063e1c28bef146101f0578063e9bb84c214610205578063f5537ede14610225576100d2565b8063a7fc7a071461018e578063b429afeb146101ae578063ba4fd3e9146101db576100d2565b806370a08231116100a557806370a08231146101445780638546403c14610164578063a5d3e48314610179576100d2565b806339b37ab0146100d757806341039fd21461010d57806352f7c98814610122576100d2565b366100d257005b600080fd5b3480156100e357600080fd5b506100f76100f2366004610751565b610245565b60405161010491906108cc565b60405180910390f35b34801561011957600080fd5b506100f7610257565b34801561012e57600080fd5b5061014261013d366004610781565b61027b565b005b34801561015057600080fd5b506100f761015f3660046106a3565b61032c565b34801561017057600080fd5b506100f76103f9565b34801561018557600080fd5b506100f7610424565b34801561019a57600080fd5b506101426101a93660046106a3565b610433565b3480156101ba57600080fd5b506101ce6101c93660046106a3565b6104a2565b6040516101049190610864565b3480156101e757600080fd5b506100f76104cd565b3480156101fc57600080fd5b506101426104dc565b34801561021157600080fd5b506101426102203660046106c6565b610533565b34801561023157600080fd5b506101426102403660046106f1565b6105b9565b60009081526002602052604090205490565b7f0ec00ae29f2aafdb279bec8e892846e2ce37e27acd3eba6c98ed18e29aedb88a81565b3360009081526020819052604090205460ff1615156001148061029d57503033145b6102c25760405162461bcd60e51b81526004016102b99061086f565b60405180910390fd5b600082815260026020526040908190208290556001549051839173ffffffffffffffffffffffffffffffffffffffff16907ff98c81ad0a5eb3551c3561de8dc9d1512e8680fb77425ea138ebfe9a9c0065ff906103209085906108cc565b60405180910390a35050565b600073ffffffffffffffffffffffffffffffffffffffff8216156103f1576040517f70a0823100000000000000000000000000000000000000000000000000000000815273ffffffffffffffffffffffffffffffffffffffff8316906370a082319061039c90309060040161081d565b60206040518083038186803b1580156103b457600080fd5b505afa1580156103c8573d6000803e3d6000fd5b505050506040513d601f19601f820116820180604052508101906103ec9190610769565b6103f3565b475b92915050565b604051602001610408906107cb565b6040516020818303038152906040528051906020012060001c81565b604051602001610408906107f4565b3360009081526020819052604090205460ff1615156001148061045557503033145b6104715760405162461bcd60e51b81526004016102b99061086f565b73ffffffffffffffffffffffffffffffffffffffff166000908152602081905260409020805460ff19166001179055565b73ffffffffffffffffffffffffffffffffffffffff1660009081526020819052604090205460ff1690565b604051602001610408906107a2565b3360009081526020819052604090205460ff161515600114806104fe57503033145b61051a5760405162461bcd60e51b81526004016102b99061086f565b336000908152602081905260409020805460ff19169055565b3360009081526020819052604090205460ff1615156001148061055557503033145b6105715760405162461bcd60e51b81526004016102b99061086f565b60405173ffffffffffffffffffffffffffffffffffffffff83169082156108fc029083906000818181858888f193505050501580156105b4573d6000803e3d6000fd5b505050565b3360009081526020819052604090205460ff161515600114806105db57503033145b6105f75760405162461bcd60e51b81526004016102b99061086f565b6040517fa9059cbb00000000000000000000000000000000000000000000000000000000815273ffffffffffffffffffffffffffffffffffffffff84169063a9059cbb9061064b908590859060040161083e565b602060405180830381600087803b15801561066557600080fd5b505af1158015610679573d6000803e3d6000fd5b505050506040513d601f19601f8201168201806040525081019061069d9190610731565b50505050565b6000602082840312156106b4578081fd5b81356106bf816108d5565b9392505050565b600080604083850312156106d8578081fd5b82356106e3816108d5565b946020939093013593505050565b600080600060608486031215610705578081fd5b8335610710816108d5565b92506020840135610720816108d5565b929592945050506040919091013590565b600060208284031215610742578081fd5b815180151581146106bf578182fd5b600060208284031215610762578081fd5b5035919050565b60006020828403121561077a578081fd5b5051919050565b60008060408385031215610793578182fd5b50508035926020909101359150565b7f666c6173685f6c6f616e000000000000000000000000000000000000000000008152600a0190565b7f777261705f67656d000000000000000000000000000000000000000000000000815260080190565b7f706f6f6c5f666565000000000000000000000000000000000000000000000000815260080190565b73ffffffffffffffffffffffffffffffffffffffff91909116815260200190565b73ffffffffffffffffffffffffffffffffffffffff929092168252602082015260400190565b901515815260200190565b60208082526028908201527f436f6e74726f6c6c61626c653a2063616c6c6572206973206e6f74206120636f60408201527f6e74726f6c6c6572000000000000000000000000000000000000000000000000606082015260800190565b90815260200190565b73ffffffffffffffffffffffffffffffffffffffff811681146108f757600080fd5b5056fea264697066735822122021246c9e23bfdf6c1a81829568001640374e8bc8314314d85f667353f4b5befc64736f6c63430008000033",
  "libraries": {
    "Strings": "0xeB3E79099663eC952e02E608E00d463F36b4Fb75",
    "AddressSet": "0xe46E1A13694B72eC89126303d65247856bb0833e",
    "UInt256Set": "0x8B6893DB13b55d4952a51d5188215e2a470515a9",
    "Create2": "0xBa85d3e8E0F9e48F5c21649d33f6d0f9Af12E3f5",
    "WrappedTokenLib": "0x95055e748915AB4930a1c2597fB84b1a9b9B7A51",
    "ComplexPoolLib": "0x59CAEC5c5BDE430F834d77C6dF1e689CEE5Da318"
  },
  "devdoc": {
    "kind": "dev",
    "methods": {
      "addController(address)": {
        "details": "Add an address allowed to control this contract"
      },
      "balanceOf(address)": {
        "details": "get the balance of this fee manager. Pass a zero address in for FTM balance"
      },
      "constructor": {
        "details": "constructor"
      },
      "fee(uint256)": {
        "details": "Get the fee divisor for the specified token"
      },
      "isController(address)": {
        "details": "Check if this address is a controller"
      },
      "relinquishControl()": {
        "details": "Remove the sender address from the list of controllers"
      },
      "setFee(uint256,uint256)": {
        "details": "Set the fee divisor for the specified token"
      },
      "transferEth(address,uint256)": {
        "details": "transfer ETH from this contract to the to given recipient"
      },
      "transferToken(address,address,uint256)": {
        "details": "transfer tokens from this contract to the to given recipient"
      }
    },
    "version": 1
  },
  "userdoc": {
    "kind": "user",
    "methods": {},
    "version": 1
  },
  "storageLayout": {
    "storage": [
      {
        "astId": 4752,
        "contract": "src/fees/NFTGemFeeManager.sol:NFTGemFeeManager",
        "label": "_controllers",
        "offset": 0,
        "slot": "0",
        "type": "t_mapping(t_address,t_bool)"
      },
      {
        "astId": 5407,
        "contract": "src/fees/NFTGemFeeManager.sol:NFTGemFeeManager",
        "label": "operator",
        "offset": 0,
        "slot": "1",
        "type": "t_address"
      },
      {
        "astId": 5464,
        "contract": "src/fees/NFTGemFeeManager.sol:NFTGemFeeManager",
        "label": "fees",
        "offset": 0,
        "slot": "2",
        "type": "t_mapping(t_uint256,t_uint256)"
      }
    ],
    "types": {
      "t_address": {
        "encoding": "inplace",
        "label": "address",
        "numberOfBytes": "20"
      },
      "t_bool": {
        "encoding": "inplace",
        "label": "bool",
        "numberOfBytes": "1"
      },
      "t_mapping(t_address,t_bool)": {
        "encoding": "mapping",
        "key": "t_address",
        "label": "mapping(address => bool)",
        "numberOfBytes": "32",
        "value": "t_bool"
      },
      "t_mapping(t_uint256,t_uint256)": {
        "encoding": "mapping",
        "key": "t_uint256",
        "label": "mapping(uint256 => uint256)",
        "numberOfBytes": "32",
        "value": "t_uint256"
      },
      "t_uint256": {
        "encoding": "inplace",
        "label": "uint256",
        "numberOfBytes": "32"
      }
    }
  }
}