{
  "address": "0xe0473339209F3CC79183BEc8cdB56A9cb5BDd2c2",
  "abi": [
    {
      "inputs": [],
      "stateMutability": "nonpayable",
      "type": "constructor"
    },
    {
      "anonymous": false,
      "inputs": [
        {
          "indexed": true,
          "internalType": "address",
          "name": "contractAddress",
          "type": "address"
        },
        {
          "indexed": true,
          "internalType": "address",
          "name": "controllerAddress",
          "type": "address"
        }
      ],
      "name": "ControllerAdded",
      "type": "event"
    },
    {
      "anonymous": false,
      "inputs": [
        {
          "indexed": true,
          "internalType": "address",
          "name": "contractAddress",
          "type": "address"
        },
        {
          "indexed": true,
          "internalType": "address",
          "name": "controllerAddress",
          "type": "address"
        }
      ],
      "name": "ControllerRemoved",
      "type": "event"
    },
    {
      "anonymous": false,
      "inputs": [
        {
          "indexed": true,
          "internalType": "address",
          "name": "operator",
          "type": "address"
        },
        {
          "indexed": false,
          "internalType": "uint256",
          "name": "oldValue",
          "type": "uint256"
        },
        {
          "indexed": false,
          "internalType": "uint256",
          "name": "value",
          "type": "uint256"
        }
      ],
      "name": "DefaultFeeDivisorChanged",
      "type": "event"
    },
    {
      "anonymous": false,
      "inputs": [
        {
          "indexed": true,
          "internalType": "address",
          "name": "manager",
          "type": "address"
        },
        {
          "indexed": false,
          "internalType": "address",
          "name": "sender",
          "type": "address"
        },
        {
          "indexed": false,
          "internalType": "uint256",
          "name": "value",
          "type": "uint256"
        }
      ],
      "name": "ETHReceived",
      "type": "event"
    },
    {
      "anonymous": false,
      "inputs": [
        {
          "indexed": true,
          "internalType": "address",
          "name": "operator",
          "type": "address"
        },
        {
          "indexed": true,
          "internalType": "address",
          "name": "token",
          "type": "address"
        },
        {
          "indexed": false,
          "internalType": "uint256",
          "name": "oldValue",
          "type": "uint256"
        },
        {
          "indexed": false,
          "internalType": "uint256",
          "name": "value",
          "type": "uint256"
        }
      ],
      "name": "FeeDivisorChanged",
      "type": "event"
    },
    {
      "anonymous": false,
      "inputs": [
        {
          "indexed": true,
          "internalType": "address",
          "name": "manager",
          "type": "address"
        },
        {
          "indexed": false,
          "internalType": "uint256",
          "name": "oldValue",
          "type": "uint256"
        },
        {
          "indexed": false,
          "internalType": "uint256",
          "name": "value",
          "type": "uint256"
        }
      ],
      "name": "LiquidityChanged",
      "type": "event"
    },
    {
      "inputs": [
        {
          "internalType": "address",
          "name": "_controller",
          "type": "address"
        }
      ],
      "name": "addController",
      "outputs": [],
      "stateMutability": "nonpayable",
      "type": "function"
    },
    {
      "inputs": [
        {
          "internalType": "address",
          "name": "token",
          "type": "address"
        }
      ],
      "name": "balanceOF",
      "outputs": [
        {
          "internalType": "uint256",
          "name": "",
          "type": "uint256"
        }
      ],
      "stateMutability": "view",
      "type": "function"
    },
    {
      "inputs": [],
      "name": "defaultFeeDivisor",
      "outputs": [
        {
          "internalType": "uint256",
          "name": "multiplier",
          "type": "uint256"
        }
      ],
      "stateMutability": "view",
      "type": "function"
    },
    {
      "inputs": [],
      "name": "defaultLiquidity",
      "outputs": [
        {
          "internalType": "uint256",
          "name": "multiplier",
          "type": "uint256"
        }
      ],
      "stateMutability": "view",
      "type": "function"
    },
    {
      "inputs": [],
      "name": "ethBalanceOf",
      "outputs": [
        {
          "internalType": "uint256",
          "name": "",
          "type": "uint256"
        }
      ],
      "stateMutability": "view",
      "type": "function"
    },
    {
      "inputs": [
        {
          "internalType": "address",
          "name": "token",
          "type": "address"
        }
      ],
      "name": "feeDivisor",
      "outputs": [
        {
          "internalType": "uint256",
          "name": "divisor",
          "type": "uint256"
        }
      ],
      "stateMutability": "view",
      "type": "function"
    },
    {
      "inputs": [
        {
          "internalType": "address",
          "name": "_address",
          "type": "address"
        }
      ],
      "name": "isController",
      "outputs": [
        {
          "internalType": "bool",
          "name": "allowed",
          "type": "bool"
        }
      ],
      "stateMutability": "view",
      "type": "function"
    },
    {
      "inputs": [
        {
          "internalType": "address",
          "name": "token",
          "type": "address"
        }
      ],
      "name": "liquidity",
      "outputs": [
        {
          "internalType": "uint256",
          "name": "",
          "type": "uint256"
        }
      ],
      "stateMutability": "view",
      "type": "function"
    },
    {
      "inputs": [],
      "name": "relinquishControl",
      "outputs": [],
      "stateMutability": "view",
      "type": "function"
    },
    {
      "inputs": [
        {
          "internalType": "uint256",
          "name": "_feeDivisor",
          "type": "uint256"
        }
      ],
      "name": "setDefaultFeeDivisor",
      "outputs": [
        {
          "internalType": "uint256",
          "name": "oldDivisor",
          "type": "uint256"
        }
      ],
      "stateMutability": "nonpayable",
      "type": "function"
    },
    {
      "inputs": [
        {
          "internalType": "uint256",
          "name": "_liquidityMult",
          "type": "uint256"
        }
      ],
      "name": "setDefaultLiquidity",
      "outputs": [
        {
          "internalType": "uint256",
          "name": "oldLiquidity",
          "type": "uint256"
        }
      ],
      "stateMutability": "nonpayable",
      "type": "function"
    },
    {
      "inputs": [
        {
          "internalType": "address",
          "name": "token",
          "type": "address"
        },
        {
          "internalType": "uint256",
          "name": "_feeDivisor",
          "type": "uint256"
        }
      ],
      "name": "setFeeDivisor",
      "outputs": [
        {
          "internalType": "uint256",
          "name": "oldDivisor",
          "type": "uint256"
        }
      ],
      "stateMutability": "nonpayable",
      "type": "function"
    },
    {
      "inputs": [
        {
          "internalType": "address payable",
          "name": "recipient",
          "type": "address"
        },
        {
          "internalType": "uint256",
          "name": "amount",
          "type": "uint256"
        }
      ],
      "name": "transferEth",
      "outputs": [],
      "stateMutability": "nonpayable",
      "type": "function"
    },
    {
      "inputs": [
        {
          "internalType": "address",
          "name": "token",
          "type": "address"
        },
        {
          "internalType": "address",
          "name": "recipient",
          "type": "address"
        },
        {
          "internalType": "uint256",
          "name": "amount",
          "type": "uint256"
        }
      ],
      "name": "transferToken",
      "outputs": [],
      "stateMutability": "nonpayable",
      "type": "function"
    },
    {
      "stateMutability": "payable",
      "type": "receive"
    }
  ],
  "transactionHash": "0xac068ec40d3934268ff01181a156f9872c472d0a0a7de00c93f536171bbcc2e0",
  "args": [],
  "solcInputHash": "74452c6cda3ea6bebd3f6973f1954c6f",
  "bytecode": "0x608060405234801561001057600080fd5b5061001a3361002a565b6101f4600355603260055561004e565b6001600160a01b03166000908152602081905260409020805460ff19166001179055565b610ce58061005d6000396000f3fe6080604052600436106100e15760003560e01c8063b429afeb1161007f578063e1c28bef11610059578063e1c28bef146102ee578063e9bb84c214610303578063eee1ad8014610349578063f5537ede14610389576100e8565b8063b429afeb14610245578063b8c876b114610299578063c5211154146102d9576100e8565b80638afe4280116100bb5780638afe42801461017e578063a51834ff146101a8578063a7fc7a07146101ee578063b2ae17a514610230576100e8565b80630415c9f4146100ed578063244e0c87146101295780636b4be0b914610169576100e8565b366100e857005b600080fd5b3480156100f957600080fd5b506101176004803603602081101561011057600080fd5b50356103d9565b60408051918252519081900360200190f35b34801561013557600080fd5b506101176004803603602081101561014c57600080fd5b503573ffffffffffffffffffffffffffffffffffffffff166104ed565b34801561017557600080fd5b50610117610588565b34801561018a57600080fd5b50610117600480360360208110156101a157600080fd5b503561058c565b3480156101b457600080fd5b50610117600480360360408110156101cb57600080fd5b5073ffffffffffffffffffffffffffffffffffffffff81351690602001356106a0565b3480156101fa57600080fd5b5061022e6004803603602081101561021157600080fd5b503573ffffffffffffffffffffffffffffffffffffffff166107c2565b005b34801561023c57600080fd5b5061011761086e565b34801561025157600080fd5b506102856004803603602081101561026857600080fd5b503573ffffffffffffffffffffffffffffffffffffffff16610874565b604080519115158252519081900360200190f35b3480156102a557600080fd5b50610117600480360360208110156102bc57600080fd5b503573ffffffffffffffffffffffffffffffffffffffff1661089f565b3480156102e557600080fd5b506101176108fe565b3480156102fa57600080fd5b5061022e610904565b34801561030f57600080fd5b5061022e6004803603604081101561032657600080fd5b5073ffffffffffffffffffffffffffffffffffffffff813516906020013561096c565b34801561035557600080fd5b506101176004803603602081101561036c57600080fd5b503573ffffffffffffffffffffffffffffffffffffffff16610a66565b34801561039557600080fd5b5061022e600480360360608110156103ac57600080fd5b5073ffffffffffffffffffffffffffffffffffffffff813581169160208101359091169060400135610aa1565b3360009081526020819052604081205460ff161515600114806103fb57503033145b6104365760405162461bcd60e51b8152600401808060200182810382526028815260200180610c886028913960400191505060405180910390fd5b81610488576040805162461bcd60e51b815260206004820152600e60248201527f4449564953494f4e42595a45524f000000000000000000000000000000000000604482015290519081900360640190fd5b5060038054908290556001546040805183815260208101859052815173ffffffffffffffffffffffffffffffffffffffff909316927f50d2fd3a15ffe0a5547c68d91dc96339c386f8a7d180a1f8cb782d39cfed38af929181900390910190a2919050565b60008173ffffffffffffffffffffffffffffffffffffffff166370a08231306040518263ffffffff1660e01b8152600401808273ffffffffffffffffffffffffffffffffffffffff16815260200191505060206040518083038186803b15801561055657600080fd5b505afa15801561056a573d6000803e3d6000fd5b505050506040513d602081101561058057600080fd5b505192915050565b4790565b3360009081526020819052604081205460ff161515600114806105ae57503033145b6105e95760405162461bcd60e51b8152600401808060200182810382526028815260200180610c886028913960400191505060405180910390fd5b8161063b576040805162461bcd60e51b815260206004820152600760248201527f494e56414c494400000000000000000000000000000000000000000000000000604482015290519081900360640190fd5b5060058054908290556001546040805183815260208101859052815173ffffffffffffffffffffffffffffffffffffffff909316927f1b175f1f323705c599a7bebc2915765ab0d8de5f922b0b68d08dd1dbe2d97fc4929181900390910190a2919050565b3360009081526020819052604081205460ff161515600114806106c257503033145b6106fd5760405162461bcd60e51b8152600401808060200182810382526028815260200180610c886028913960400191505060405180910390fd5b8161074f576040805162461bcd60e51b815260206004820152600e60248201527f4449564953494f4e42595a45524f000000000000000000000000000000000000604482015290519081900360640190fd5b5073ffffffffffffffffffffffffffffffffffffffff80831660008181526002602090815260409182902080549086905560015483518281529283018790528351919516927f8f604bc5c2d1916032a90c8f4d7cdc0dff78f1ba11119344f3fe46ddea179544928290030190a392915050565b3360009081526020819052604090205460ff161515600114806107e457503033145b61081f5760405162461bcd60e51b8152600401808060200182810382526028815260200180610c886028913960400191505060405180910390fd5b73ffffffffffffffffffffffffffffffffffffffff16600090815260208190526040902080547fffffffffffffffffffffffffffffffffffffffffffffffffffffffffffffff00166001179055565b60055490565b73ffffffffffffffffffffffffffffffffffffffff1660009081526020819052604090205460ff1690565b73ffffffffffffffffffffffffffffffffffffffff81166000908152600460205260408120546108d1576005546108f8565b73ffffffffffffffffffffffffffffffffffffffff82166000908152600460205260409020545b92915050565b60035490565b3360009081526020819052604090205460ff1615156001148061092657503033145b6109615760405162461bcd60e51b8152600401808060200182810382526028815260200180610c886028913960400191505060405180910390fd5b336000908152602052565b3360009081526020819052604090205460ff1615156001148061098e57503033145b6109c95760405162461bcd60e51b8152600401808060200182810382526028815260200180610c886028913960400191505060405180910390fd5b80471015610a1e576040805162461bcd60e51b815260206004820152601460248201527f494e53554646494349454e545f42414c414e4345000000000000000000000000604482015290519081900360640190fd5b60405173ffffffffffffffffffffffffffffffffffffffff83169082156108fc029083906000818181858888f19350505050158015610a61573d6000803e3d6000fd5b505050565b73ffffffffffffffffffffffffffffffffffffffff81166000908152600260205260409020548015610a9857806108f8565b6101f492915050565b3360009081526020819052604090205460ff16151560011480610ac357503033145b610afe5760405162461bcd60e51b8152600401808060200182810382526028815260200180610c886028913960400191505060405180910390fd5b808373ffffffffffffffffffffffffffffffffffffffff166370a08231306040518263ffffffff1660e01b8152600401808273ffffffffffffffffffffffffffffffffffffffff16815260200191505060206040518083038186803b158015610b6657600080fd5b505afa158015610b7a573d6000803e3d6000fd5b505050506040513d6020811015610b9057600080fd5b50511015610be5576040805162461bcd60e51b815260206004820152601460248201527f494e53554646494349454e545f42414c414e4345000000000000000000000000604482015290519081900360640190fd5b8273ffffffffffffffffffffffffffffffffffffffff1663a9059cbb83836040518363ffffffff1660e01b8152600401808373ffffffffffffffffffffffffffffffffffffffff16815260200182815260200192505050602060405180830381600087803b158015610c5657600080fd5b505af1158015610c6a573d6000803e3d6000fd5b505050506040513d6020811015610c8057600080fd5b505050505056fe436f6e74726f6c6c61626c653a2063616c6c6572206973206e6f74206120636f6e74726f6c6c6572a26469706673582212209fbbcac747f1a3b024cfe2b060c0c0cbf9de76e247230491c73871bfb7b5244464736f6c63430007030033",
  "libraries": {
    "GovernanceLib": "0x11d4144642F7874Bb4f626802530aFf9e2541233",
    "Strings": "0xe98D76f55e5Dae2DE566CC8Aa1a36282742eabf7",
    "SafeMath": "0x753f0df0a61c5F8A0eB31c6Bf6e7363943Eb225B",
    "AddressSet": "0xe696d6C522A45D46f76E7Dd3D3602afc47854212",
    "UInt256Set": "0xB5e2b27Cf86ba540c54300a9D49264246Da189a1",
    "ProposalsLib": "0xCF3A5C4Bf494cbDA9d2f8FAB54dfAf952aD860c9",
    "Create2": "0x117f8511d54E60dE2F1C63F0Ac1c7C05473cdAa4",
    "ComplexPoolLib": "0xc79FFA1E3b5e834F632aa37be723382bD74d67da"
  },
  "devdoc": {
    "kind": "dev",
    "methods": {
      "addController(address)": {
        "details": "Add an address allowed to control this contract"
      },
      "balanceOF(address)": {
        "details": "get the token balance of this fee manager"
      },
      "constructor": {
        "details": "constructor"
      },
      "defaultFeeDivisor()": {
        "details": "Get the fee divisor for the specified token"
      },
      "defaultLiquidity()": {
        "details": "Get the fee divisor for the specified token"
      },
      "ethBalanceOf()": {
        "details": "get the ETH balance of this fee manager"
      },
      "feeDivisor(address)": {
        "details": "Get the fee divisor for the specified token"
      },
      "isController(address)": {
        "details": "Check if this address is a controller"
      },
      "liquidity(address)": {
        "details": "Get the fee divisor for the specified token"
      },
      "relinquishControl()": {
        "details": "Check if this address is a controller"
      },
      "setDefaultFeeDivisor(uint256)": {
        "details": "Set the fee divisor for the specified token"
      },
      "setDefaultLiquidity(uint256)": {
        "details": "Set the fee divisor for the specified token"
      },
      "setFeeDivisor(address,uint256)": {
        "details": "Set the fee divisor for the specified token"
      },
      "transferEth(address,uint256)": {
        "details": "transfer ETH from this contract to the to given recipient"
      },
      "transferToken(address,address,uint256)": {
        "details": "transfer tokens from this contract to the to given recipient"
      }
    },
    "version": 1
  },
  "userdoc": {
    "kind": "user",
    "methods": {},
    "version": 1
  },
  "storageLayout": {
    "storage": [
      {
        "astId": 10169,
        "contract": "src/fees/NFTGemFeeManager.sol:NFTGemFeeManager",
        "label": "_controllers",
        "offset": 0,
        "slot": "0",
        "type": "t_mapping(t_address,t_bool)"
      },
      {
        "astId": 11192,
        "contract": "src/fees/NFTGemFeeManager.sol:NFTGemFeeManager",
        "label": "operator",
        "offset": 0,
        "slot": "1",
        "type": "t_address"
      },
      {
        "astId": 11202,
        "contract": "src/fees/NFTGemFeeManager.sol:NFTGemFeeManager",
        "label": "feeDivisors",
        "offset": 0,
        "slot": "2",
        "type": "t_mapping(t_address,t_uint256)"
      },
      {
        "astId": 11204,
        "contract": "src/fees/NFTGemFeeManager.sol:NFTGemFeeManager",
        "label": "_defaultFeeDivisor",
        "offset": 0,
        "slot": "3",
        "type": "t_uint256"
      },
      {
        "astId": 11208,
        "contract": "src/fees/NFTGemFeeManager.sol:NFTGemFeeManager",
        "label": "_liquidity",
        "offset": 0,
        "slot": "4",
        "type": "t_mapping(t_address,t_uint256)"
      },
      {
        "astId": 11210,
        "contract": "src/fees/NFTGemFeeManager.sol:NFTGemFeeManager",
        "label": "_defaultLiquidity",
        "offset": 0,
        "slot": "5",
        "type": "t_uint256"
      }
    ],
    "types": {
      "t_address": {
        "encoding": "inplace",
        "label": "address",
        "numberOfBytes": "20"
      },
      "t_bool": {
        "encoding": "inplace",
        "label": "bool",
        "numberOfBytes": "1"
      },
      "t_mapping(t_address,t_bool)": {
        "encoding": "mapping",
        "key": "t_address",
        "label": "mapping(address => bool)",
        "numberOfBytes": "32",
        "value": "t_bool"
      },
      "t_mapping(t_address,t_uint256)": {
        "encoding": "mapping",
        "key": "t_address",
        "label": "mapping(address => uint256)",
        "numberOfBytes": "32",
        "value": "t_uint256"
      },
      "t_uint256": {
        "encoding": "inplace",
        "label": "uint256",
        "numberOfBytes": "32"
      }
    }
  }
}