{
  "address": "0x5863341Af24dfa515dD29d65594ef6c82d52e64e",
  "abi": [
    {
      "inputs": [],
      "stateMutability": "nonpayable",
      "type": "constructor"
    },
    {
      "anonymous": false,
      "inputs": [
        {
          "indexed": true,
          "internalType": "address",
          "name": "contractAddress",
          "type": "address"
        },
        {
          "indexed": true,
          "internalType": "address",
          "name": "controllerAddress",
          "type": "address"
        }
      ],
      "name": "ControllerAdded",
      "type": "event"
    },
    {
      "anonymous": false,
      "inputs": [
        {
          "indexed": true,
          "internalType": "address",
          "name": "contractAddress",
          "type": "address"
        },
        {
          "indexed": true,
          "internalType": "address",
          "name": "controllerAddress",
          "type": "address"
        }
      ],
      "name": "ControllerRemoved",
      "type": "event"
    },
    {
      "anonymous": false,
      "inputs": [
        {
          "indexed": false,
          "internalType": "string",
          "name": "gemSymbol",
          "type": "string"
        },
        {
          "indexed": false,
          "internalType": "string",
          "name": "gemName",
          "type": "string"
        }
      ],
      "name": "CustomNFTGemPoolCreated",
      "type": "event"
    },
    {
      "anonymous": false,
      "inputs": [
        {
          "indexed": false,
          "internalType": "string",
          "name": "gemSymbol",
          "type": "string"
        },
        {
          "indexed": false,
          "internalType": "string",
          "name": "gemName",
          "type": "string"
        },
        {
          "indexed": false,
          "internalType": "uint256",
          "name": "ethPrice",
          "type": "uint256"
        },
        {
          "indexed": false,
          "internalType": "uint256",
          "name": "mintTime",
          "type": "uint256"
        },
        {
          "indexed": false,
          "internalType": "uint256",
          "name": "maxTime",
          "type": "uint256"
        },
        {
          "indexed": false,
          "internalType": "uint256",
          "name": "diffstep",
          "type": "uint256"
        },
        {
          "indexed": false,
          "internalType": "uint256",
          "name": "maxMint",
          "type": "uint256"
        },
        {
          "indexed": false,
          "internalType": "address",
          "name": "allowedToken",
          "type": "address"
        }
      ],
      "name": "NFTGemPoolCreated",
      "type": "event"
    },
    {
      "inputs": [
        {
          "internalType": "address",
          "name": "_controller",
          "type": "address"
        }
      ],
      "name": "addController",
      "outputs": [],
      "stateMutability": "nonpayable",
      "type": "function"
    },
    {
      "inputs": [
        {
          "internalType": "address",
          "name": "poolAddress",
          "type": "address"
        },
        {
          "internalType": "string",
          "name": "gemSymbol",
          "type": "string"
        },
        {
          "internalType": "string",
          "name": "gemName",
          "type": "string"
        }
      ],
      "name": "addCustomNFTGemPool",
      "outputs": [
        {
          "internalType": "address payable",
          "name": "gemPool",
          "type": "address"
        }
      ],
      "stateMutability": "nonpayable",
      "type": "function"
    },
    {
      "inputs": [
        {
          "internalType": "uint256",
          "name": "idx",
          "type": "uint256"
        }
      ],
      "name": "allNFTGemPools",
      "outputs": [
        {
          "internalType": "address",
          "name": "gemPool",
          "type": "address"
        }
      ],
      "stateMutability": "view",
      "type": "function"
    },
    {
      "inputs": [],
      "name": "allNFTGemPoolsLength",
      "outputs": [
        {
          "internalType": "uint256",
          "name": "",
          "type": "uint256"
        }
      ],
      "stateMutability": "view",
      "type": "function"
    },
    {
      "inputs": [
        {
          "internalType": "bytes",
          "name": "bytecode",
          "type": "bytes"
        },
        {
          "internalType": "string",
          "name": "gemSymbol",
          "type": "string"
        },
        {
          "internalType": "string",
          "name": "gemName",
          "type": "string"
        }
      ],
      "name": "createCustomNFTGemPool",
      "outputs": [
        {
          "internalType": "address payable",
          "name": "gemPool",
          "type": "address"
        }
      ],
      "stateMutability": "nonpayable",
      "type": "function"
    },
    {
      "inputs": [
        {
          "internalType": "string",
          "name": "gemSymbol",
          "type": "string"
        },
        {
          "internalType": "string",
          "name": "gemName",
          "type": "string"
        },
        {
          "internalType": "uint256",
          "name": "ethPrice",
          "type": "uint256"
        },
        {
          "internalType": "uint256",
          "name": "minTime",
          "type": "uint256"
        },
        {
          "internalType": "uint256",
          "name": "maxTime",
          "type": "uint256"
        },
        {
          "internalType": "uint256",
          "name": "diffstep",
          "type": "uint256"
        },
        {
          "internalType": "uint256",
          "name": "maxMint",
          "type": "uint256"
        },
        {
          "internalType": "address",
          "name": "allowedToken",
          "type": "address"
        }
      ],
      "name": "createNFTGemPool",
      "outputs": [
        {
          "internalType": "address payable",
          "name": "gemPool",
          "type": "address"
        }
      ],
      "stateMutability": "nonpayable",
      "type": "function"
    },
    {
      "inputs": [
        {
          "internalType": "uint256",
          "name": "_symbolHash",
          "type": "uint256"
        }
      ],
      "name": "getNFTGemPool",
      "outputs": [
        {
          "internalType": "address",
          "name": "gemPool",
          "type": "address"
        }
      ],
      "stateMutability": "view",
      "type": "function"
    },
    {
      "inputs": [
        {
          "internalType": "address",
          "name": "_address",
          "type": "address"
        }
      ],
      "name": "isController",
      "outputs": [
        {
          "internalType": "bool",
          "name": "allowed",
          "type": "bool"
        }
      ],
      "stateMutability": "view",
      "type": "function"
    },
    {
      "inputs": [],
      "name": "nftGemPools",
      "outputs": [
        {
          "internalType": "address[]",
          "name": "",
          "type": "address[]"
        }
      ],
      "stateMutability": "view",
      "type": "function"
    },
    {
      "inputs": [],
      "name": "relinquishControl",
      "outputs": [],
      "stateMutability": "view",
      "type": "function"
    },
    {
      "inputs": [
        {
          "internalType": "uint256",
          "name": "poolHash",
          "type": "uint256"
        }
      ],
      "name": "removeGemPool",
      "outputs": [],
      "stateMutability": "nonpayable",
      "type": "function"
    },
    {
      "inputs": [
        {
          "internalType": "uint256",
          "name": "ndx",
          "type": "uint256"
        }
      ],
      "name": "removeGemPoolAt",
      "outputs": [],
      "stateMutability": "nonpayable",
      "type": "function"
    }
  ],
  "transactionHash": "0x190c1207f402e1496493cbc8e0252607e998c50272344b871e76ce39128b50e3",
  "args": [],
  "solcInputHash": "f671a5b1a452e7ee0581a3db7b931a19",
  "bytecode": "0x608060405234801561001057600080fd5b5061001a3361001f565b610043565b6001600160a01b03166000908152602081905260409020805460ff19166001179055565b615f54806100526000396000f3fe608060405234801561001057600080fd5b50600436106100d45760003560e01c806367275aed11610081578063e1c28bef1161005b578063e1c28bef146104b1578063e4aa923d146104b9578063f994567c1461066d576100d4565b806367275aed14610434578063a7fc7a0714610451578063b429afeb14610477576100d4565b80634ff8f07e116100b25780634ff8f07e146102a757806351788914146103fb5780635e6fe72a1461041a576100d4565b80630311949d146100d95780631ff77f16146102325780632b69fa101461024f575b600080fd5b610216600480360360608110156100ef57600080fd5b6001600160a01b03823516919081019060408101602082013564010000000081111561011a57600080fd5b82018360208201111561012c57600080fd5b8035906020019184600183028401116401000000008311171561014e57600080fd5b91908080601f01602080910402602001604051908101604052809392919081815260200183838082843760009201919091525092959493602081019350359150506401000000008111156101a157600080fd5b8201836020820111156101b357600080fd5b803590602001918460018302840111640100000000831117156101d557600080fd5b91908080601f01602080910402602001604051908101604052809392919081815260200183838082843760009201919091525092955061068a945050505050565b604080516001600160a01b039092168252519081900360200190f35b6102166004803603602081101561024857600080fd5b5035610928565b610257610952565b60408051602080825283518183015283519192839290830191858101910280838360005b8381101561029357818101518382015260200161027b565b505050509050019250505060405180910390f35b61021660048036036101008110156102be57600080fd5b8101906020810181356401000000008111156102d957600080fd5b8201836020820111156102eb57600080fd5b8035906020019184600183028401116401000000008311171561030d57600080fd5b91908080601f016020809104026020016040519081016040528093929190818152602001838380828437600092019190915250929594936020810193503591505064010000000081111561036057600080fd5b82018360208201111561037257600080fd5b8035906020019184600183028401116401000000008311171561039457600080fd5b91908080601f0160208091040260200160405190810160405280939291908181526020018383808284376000920191909152509295505082359350505060208101359060408101359060608101359060808101359060a001356001600160a01b03166109b4565b6104186004803603602081101561041157600080fd5b5035610f1d565b005b610422611059565b60408051918252519081900360200190f35b6102166004803603602081101561044a57600080fd5b503561105f565b6104186004803603602081101561046757600080fd5b50356001600160a01b031661107a565b61049d6004803603602081101561048d57600080fd5b50356001600160a01b03166110fc565b604080519115158252519081900360200190f35b61041861111a565b610216600480360360608110156104cf57600080fd5b8101906020810181356401000000008111156104ea57600080fd5b8201836020820111156104fc57600080fd5b8035906020019184600183028401116401000000008311171561051e57600080fd5b91908080601f016020809104026020016040519081016040528093929190818152602001838380828437600092019190915250929594936020810193503591505064010000000081111561057157600080fd5b82018360208201111561058357600080fd5b803590602001918460018302840111640100000000831117156105a557600080fd5b91908080601f01602080910402602001604051908101604052809392919081815260200183838082843760009201919091525092959493602081019350359150506401000000008111156105f857600080fd5b82018360208201111561060a57600080fd5b8035906020019184600183028401116401000000008311171561062c57600080fd5b91908080601f016020809104026020016040519081016040528093929190818152602001838380828437600092019190915250929550611183945050505050565b6104186004803603602081101561068357600080fd5b5035611385565b3360009081526020819052604081205460ff161515600114806106ac57503033145b6106e85760405162461bcd60e51b815260040180806020018281038252602881526020018062005ef76028913960400191505060405180910390fd5b6000836040516020018082805190602001908083835b6020831061071d5780518252601f1990920191602091820191016106fe565b51815160209384036101000a60001901801990921691161790526040805192909401828103601f1901835284528151918101919091206000818152600290925292902054919450506001600160a01b03161591506107b59050576040805162461bcd60e51b815260206004820152600e60248201526d47454d504f4f4c5f45584953545360901b604482015290519081900360640190fd5b600081815260026020908152604080832080546001600160a01b038a166001600160a01b03199182168117909255600380546001810182559086527fc2575a0e9e593c00f959f8c92f12db2869c3395a3b0502d05e2516446f71f85b0180549091169091179055805181815287519181019190915286518895507f89087d44119cf78c7cc1dfb971ca45b6aa9fde12ab6feedacc1fb42c3487862c9388938893928392838301926060850192908801918190849084905b8381101561088457818101518382015260200161086c565b50505050905090810190601f1680156108b15780820380516001836020036101000a031916815260200191505b50838103825284518152845160209182019186019080838360005b838110156108e45781810151838201526020016108cc565b50505050905090810190601f1680156109115780820380516001836020036101000a031916815260200191505b5094505050505060405180910390a1509392505050565b60006003828154811061093757fe5b6000918252602090912001546001600160a01b031692915050565b606060038054806020026020016040519081016040528092919081815260200182805480156109aa57602002820191906000526020600020905b81546001600160a01b0316815260019091019060200180831161098c575b5050505050905090565b3360009081526020819052604081205460ff161515600114806109d657503033145b610a125760405162461bcd60e51b815260040180806020018281038252602881526020018062005ef76028913960400191505060405180910390fd5b6000896040516020018082805190602001908083835b60208310610a475780518252601f199092019160209182019101610a28565b51815160209384036101000a60001901801990921691161790526040805192909401828103601f1901835284528151918101919091206000818152600290925292902054919450506001600160a01b0316159150610adf9050576040805162461bcd60e51b815260206004820152600e60248201526d47454d504f4f4c5f45584953545360901b604482015290519081900360640190fd5b87610b31576040805162461bcd60e51b815260206004820152600d60248201527f494e56414c49445f505249434500000000000000000000000000000000000000604482015290519081900360640190fd5b86610b83576040805162461bcd60e51b815260206004820152601060248201527f494e56414c49445f4d494e5f54494d4500000000000000000000000000000000604482015290519081900360640190fd5b84610bd5576040805162461bcd60e51b815260206004820152601760248201527f494e56414c49445f444946464943554c54595f53544550000000000000000000604482015290519081900360640190fd5b606060405180602001610be7906115f3565b601f1982820381018352601f909101166040529050610c08600083836114da565b9250826001600160a01b031663d9a3f9bb8c8c8c8c8c8c8c8c6040518963ffffffff1660e01b8152600401808060200180602001898152602001888152602001878152602001868152602001858152602001846001600160a01b0316815260200183810383528b818151815260200191508051906020019080838360005b83811015610c9e578181015183820152602001610c86565b50505050905090810190601f168015610ccb5780820380516001836020036101000a031916815260200191505b5083810382528a5181528a516020918201918c019080838360005b83811015610cfe578181015183820152602001610ce6565b50505050905090810190601f168015610d2b5780820380516001836020036101000a031916815260200191505b509a5050505050505050505050600060405180830381600087803b158015610d5257600080fd5b505af1158015610d66573d6000803e3d6000fd5b505050600083815260026020908152604080832080546001600160a01b03199081166001600160a01b038a8116918217909355600380546001810182559087527fc2575a0e9e593c00f959f8c92f12db2869c3395a3b0502d05e2516446f71f85b01805490921617905581519182018e9052606082018d9052608082018c905260a082018b905260c082018a9052881660e08201526101008082528f51908201528e517fd5dd03a462020e8d5d777d0957fbf19067fc095f932d026bb0f23e384522f2a694508f938f938f938f938f938f938f938f939092839283810192610120850192918e01918190849084905b83811015610e6d578181015183820152602001610e55565b50505050905090810190601f168015610e9a5780820380516001836020036101000a031916815260200191505b5083810382528a5181528a516020918201918c019080838360005b83811015610ecd578181015183820152602001610eb5565b50505050905090810190601f168015610efa5780820380516001836020036101000a031916815260200191505b509a505050505050505050505060405180910390a1505098975050505050505050565b3360009081526020819052604090205460ff16151560011480610f3f57503033145b610f7b5760405162461bcd60e51b815260040180806020018281038252602881526020018062005ef76028913960400191505060405180910390fd5b6003548110610fd1576040805162461bcd60e51b815260206004820152601260248201527f494e4445585f4f55545f4f465f52414e47450000000000000000000000000000604482015290519081900360640190fd5b60035460011415610fed57610fe860036000611601565b611056565b600380546000198101908110610fff57fe5b600091825260209091200154600380546001600160a01b03909216918390811061102557fe5b506000525060038054600019810190811061103c57fe5b600091825260209091200180546001600160a01b03191690555b50565b60035490565b6000908152600260205260409020546001600160a01b031690565b3360009081526020819052604090205460ff1615156001148061109c57503033145b6110d85760405162461bcd60e51b815260040180806020018281038252602881526020018062005ef76028913960400191505060405180910390fd5b6001600160a01b03166000908152602081905260409020805460ff19166001179055565b6001600160a01b031660009081526020819052604090205460ff1690565b3360009081526020819052604090205460ff1615156001148061113c57503033145b6111785760405162461bcd60e51b815260040180806020018281038252602881526020018062005ef76028913960400191505060405180910390fd5b336000908152602052565b3360009081526020819052604081205460ff161515600114806111a557503033145b6111e15760405162461bcd60e51b815260040180806020018281038252602881526020018062005ef76028913960400191505060405180910390fd5b6000836040516020018082805190602001908083835b602083106112165780518252601f1990920191602091820191016111f7565b51815160209384036101000a60001901801990921691161790526040805192909401828103601f1901835284528151918101919091206000818152600290925292902054919450506001600160a01b03161591506112ae9050576040805162461bcd60e51b815260206004820152600e60248201526d47454d504f4f4c5f45584953545360901b604482015290519081900360640190fd5b6112ba600082876114da565b600082815260026020908152604080832080546001600160a01b0386166001600160a01b03199182168117909255600380546001810182559086527fc2575a0e9e593c00f959f8c92f12db2869c3395a3b0502d05e2516446f71f85b0180549091169091179055805181815288519181019190915287519395507f89087d44119cf78c7cc1dfb971ca45b6aa9fde12ab6feedacc1fb42c3487862c9388938893839283820192606085019288019190819084908490831561088457818101518382015260200161086c565b3360009081526020819052604090205460ff161515600114806113a757503033145b6113e35760405162461bcd60e51b815260040180806020018281038252602881526020018062005ef76028913960400191505060405180910390fd5b600081815260026020526040812080546001600160a01b031981169091556001600160a01b0316905b6003548110156114d557816001600160a01b03166003828154811061142d57fe5b6000918252602090912001546001600160a01b031614156114cd57600354600114156114645761145f60036000611601565b6114cd565b60038054600019810190811061147657fe5b600091825260209091200154600380546001600160a01b03909216918390811061149c57fe5b50600052506003805460001981019081106114b357fe5b600091825260209091200180546001600160a01b03191690555b60010161140c565b505050565b60008084471015611532576040805162461bcd60e51b815260206004820152601d60248201527f437265617465323a20696e73756666696369656e742062616c616e6365000000604482015290519081900360640190fd5b8251611585576040805162461bcd60e51b815260206004820181905260248201527f437265617465323a2062797465636f6465206c656e677468206973207a65726f604482015290519081900360640190fd5b8383516020850187f590506001600160a01b0381166115eb576040805162461bcd60e51b815260206004820152601960248201527f437265617465323a204661696c6564206f6e206465706c6f7900000000000000604482015290519081900360640190fd5b949350505050565b6148c3806200163483390190565b508054600082559060005260206000209081019061105691905b8082111561162f576000815560010161161b565b509056fe60806040523480156200001157600080fd5b50336000908152602460205260408082208054600160ff1991821681179092553284529190922080549091169091179055620000546301ffc9a760e01b62000086565b62000066630271189760e51b62000086565b336000908152602460205260409020805460ff191660011790556200010b565b6001600160e01b03198082161415620000e6576040805162461bcd60e51b815260206004820152601c60248201527f4552433136353a20696e76616c696420696e7465726661636520696400000000604482015290519081900360640190fd5b6001600160e01b0319166000908152602960205260409020805460ff19166001179055565b6147a8806200011b6000396000f3fe60806040526004361061057e5760003560e01c806395d89b41116102d5578063d31674db11610184578063e6c3b1f6116100e1578063f4fde0d311610095578063f9eaee0d1161006f578063f9eaee0d14611a42578063fd31a0a514611a75578063ff186b2e14611a9f5761057e565b8063f4fde0d3146119a4578063f8d1e930146119b9578063f9c9c276146119ce5761057e565b8063ef430aa6116100c6578063ef430aa61461186e578063f1e4e55314611883578063f23a6e61146118cc5761057e565b8063e6c3b1f6146117f5578063edcf2d57146118355761057e565b8063d9a3f9bb11610138578063e06174e41161011d578063e06174e414611622578063e1c28bef146117b6578063e5d2ce2f146117cb5761057e565b8063d9a3f9bb1461147e578063d9caed12146115df5761057e565b8063d43e646011610169578063d43e6460146113c7578063d73cd47f146113f3578063d80528ae146114265761057e565b8063d31674db14611388578063d3d08397146113b25761057e565b8063c08fa1a411610232578063c65eff96116101e6578063cdc8a8ab116101cb578063cdc8a8ab146112a5578063cf721b1514611290578063d104f8f5146113555761057e565b8063c65eff9614611266578063c80c0613146112905761057e565b8063c455279111610217578063c4552791146111dc578063c54a92421461120f578063c5e01a5c1461123c5761057e565b8063c08fa1a414610e73578063c42cf535146111a95761057e565b8063b385a50a11610289578063b429afeb1161026e578063b429afeb14610f58578063b788e4e914610f8b578063bc197c8114610fa05761057e565b8063b385a50a14610efa578063b3947a9414610f0f5761057e565b8063a7fc7a07116102ba578063a7fc7a0714610e88578063a901c47414610ebb578063af6a6d7914610ee55761057e565b806395d89b4114610e5e578063a0021cf114610e735761057e565b8063504cdacf116104315780637c07bc7a1161038e5780638a09871b1161034257806390c3f38f1161032757806390c3f38f14610d4e5780639277a18514610e015780639593556014610e345761057e565b80638a09871b14610d0657806390469a9d14610d1b5761057e565b80637f2e8f0c116103735780637f2e8f0c14610c805780638297755114610caa578063870114f614610cd45761057e565b80637c07bc7a14610bf15780637dcb0e5f14610c565761057e565b806368127a8e116103e55780637284e416116103ca5780637284e41614610afc57806372a8ccb414610b865780637ae7815d14610bc55761057e565b806368127a8e14610a7d5780636b6201da14610adf5761057e565b80635e5f2e26116104165780635e5f2e26146109db5780635fb9309114610a215780636100c34314610a3e5761057e565b8063504cdacf146109b15780635d2e0dd4146109c65761057e565b8063328d8f72116104df5780634178617f116104935780634565e5ef116104785780634565e5ef1461094e57806347e7ef24146109635780634e04cdc71461099c5761057e565b80634178617f146108ef57806344f0877c146109225761057e565b8063379607f5116104c4578063379607f514610830578063392732b114610896578063407dff16146108b95761057e565b8063328d8f72146107ef578063336b9efb1461081b5761057e565b8063238dafe0116105365780632449ef511161051b5780632449ef511461071857806326ff31521461075357806327c10f56146107865761057e565b8063238dafe0146106c757806323b221a0146106dc5761057e565b80631284650d116105675780631284650d1461063857806315523ab91461066d5780632360cf5e146106975761057e565b806301ffc9a714610583578063044215c6146105e3575b600080fd5b34801561058f57600080fd5b506105cf600480360360208110156105a657600080fd5b50357fffffffff0000000000000000000000000000000000000000000000000000000016611ab4565b604080519115158252519081900360200190f35b3480156105ef57600080fd5b5061060d6004803603602081101561060657600080fd5b5035611aeb565b6040805160ff909416845260208401929092526001600160a01b031682820152519081900360600190f35b34801561064457600080fd5b5061066b6004803603602081101561065b57600080fd5b50356001600160a01b0316611b21565b005b34801561067957600080fd5b506105cf6004803603602081101561069057600080fd5b5035611b3f565b3480156106a357600080fd5b5061066b600480360360408110156106ba57600080fd5b5080359060200135611b53565b3480156106d357600080fd5b506105cf611bd0565b3480156106e857600080fd5b50610706600480360360208110156106ff57600080fd5b5035611bdf565b60408051918252519081900360200190f35b34801561072457600080fd5b5061066b6004803603604081101561073b57600080fd5b506001600160a01b0381358116916020013516611c85565b34801561075f57600080fd5b5061066b6004803603602081101561077657600080fd5b50356001600160a01b0316611d21565b34801561079257600080fd5b5061066b60048036036101008110156107aa57600080fd5b508035906001600160a01b03602082013581169160408101359091169060ff6060820135169060808101359060a08101359060c081013515159060e001351515611d3b565b3480156107fb57600080fd5b5061066b6004803603602081101561081257600080fd5b50351515611e7f565b34801561082757600080fd5b50610706611f0d565b34801561083c57600080fd5b5061085a6004803603602081101561085357600080fd5b5035611f13565b6040805196875260208701959095528585019390935260608501919091526001600160a01b0316608084015260a0830152519081900360c00190f35b61066b600480360360408110156108ac57600080fd5b50803590602001356121d7565b3480156108c557600080fd5b506108ce612235565b604051808260028111156108de57fe5b815260200191505060405180910390f35b3480156108fb57600080fd5b5061066b6004803603602081101561091257600080fd5b50356001600160a01b0316612245565b34801561092e57600080fd5b5061066b6004803603602081101561094557600080fd5b503515156122c2565b34801561095a57600080fd5b5061070661234e565b34801561096f57600080fd5b5061066b6004803603604081101561098657600080fd5b506001600160a01b03813516906020013561235f565b3480156109a857600080fd5b506105cf6123de565b3480156109bd57600080fd5b506107066123ec565b3480156109d257600080fd5b506105cf6123f2565b3480156109e757600080fd5b50610a05600480360360208110156109fe57600080fd5b50356123fb565b604080516001600160a01b039092168252519081900360200190f35b61066b60048036036020811015610a3757600080fd5b503561240e565b348015610a4a57600080fd5b5061066b60048036036060811015610a6157600080fd5b506001600160a01b0381351690602081013590604001356124a5565b348015610a8957600080fd5b5061066b600480360360e0811015610aa057600080fd5b506001600160a01b03813581169160208101359091169060ff6040820135169060608101359060808101359060a081013515159060c00135151561252f565b61066b60048036036020811015610af557600080fd5b503561266a565b348015610b0857600080fd5b50610b116126c8565b6040805160208082528351818301528351919283929083019185019080838360005b83811015610b4b578181015183820152602001610b33565b50505050905090810190601f168015610b785780820380516001836020036101000a031916815260200191505b509250505060405180910390f35b348015610b9257600080fd5b5061066b60048036036060811015610ba957600080fd5b506001600160a01b03813516906020810135906040013561275e565b348015610bd157600080fd5b5061066b60048036036020811015610be857600080fd5b503515156127e4565b348015610bfd57600080fd5b50610c06612866565b60408051602080825283518183015283519192839290830191858101910280838360005b83811015610c42578181015183820152602001610c2a565b505050509050019250505060405180910390f35b348015610c6257600080fd5b5061070660048036036020811015610c7957600080fd5b50356128c0565b348015610c8c57600080fd5b5061070660048036036020811015610ca357600080fd5b50356128d2565b348015610cb657600080fd5b5061070660048036036020811015610ccd57600080fd5b503561292d565b348015610ce057600080fd5b5061066b60048036036040811015610cf757600080fd5b5080359060200135151561293f565b348015610d1257600080fd5b506107066129b7565b348015610d2757600080fd5b5061066b60048036036020811015610d3e57600080fd5b50356001600160a01b0316612a3b565b348015610d5a57600080fd5b5061066b60048036036020811015610d7157600080fd5b810190602081018135640100000000811115610d8c57600080fd5b820183602082011115610d9e57600080fd5b80359060200191846001830284011164010000000083111715610dc057600080fd5b91908080601f016020809104026020016040519081016040528093929190818152602001838380828437600092019190915250929550612ab8945050505050565b348015610e0d57600080fd5b5061066b60048036036020811015610e2457600080fd5b50356001600160a01b0316612b41565b348015610e4057600080fd5b5061070660048036036020811015610e5757600080fd5b5035612b7d565b348015610e6a57600080fd5b50610b11612bd8565b348015610e7f57600080fd5b50610706612c39565b348015610e9457600080fd5b5061066b60048036036020811015610eab57600080fd5b50356001600160a01b0316612c3f565b348015610ec757600080fd5b5061070660048036036020811015610ede57600080fd5b5035612cc0565b348015610ef157600080fd5b506105cf612d1b565b348015610f0657600080fd5b50610706612d24565b348015610f1b57600080fd5b5061066b60048036036080811015610f3257600080fd5b506001600160a01b03813581169160208101358216916040820135916060013516612d2a565b348015610f6457600080fd5b506105cf60048036036020811015610f7b57600080fd5b50356001600160a01b0316613665565b348015610f9757600080fd5b50610706613683565b348015610fac57600080fd5b50611174600480360360a0811015610fc357600080fd5b6001600160a01b038235811692602081013590911691810190606081016040820135640100000000811115610ff757600080fd5b82018360208201111561100957600080fd5b8035906020019184602083028401116401000000008311171561102b57600080fd5b919080806020026020016040519081016040528093929190818152602001838360200280828437600092019190915250929594936020810193503591505064010000000081111561107b57600080fd5b82018360208201111561108d57600080fd5b803590602001918460208302840111640100000000831117156110af57600080fd5b91908080602002602001604051908101604052809392919081815260200183836020028082843760009201919091525092959493602081019350359150506401000000008111156110ff57600080fd5b82018360208201111561111157600080fd5b8035906020019184600183028401116401000000008311171561113357600080fd5b91908080601f0160208091040260200160405190810160405280939291908181526020018383808284376000920191909152509295506136d6945050505050565b604080517fffffffff000000000000000000000000000000000000000000000000000000009092168252519081900360200190f35b3480156111b557600080fd5b5061066b600480360360208110156111cc57600080fd5b50356001600160a01b0316613700565b3480156111e857600080fd5b50610a05600480360360208110156111ff57600080fd5b50356001600160a01b031661373c565b34801561121b57600080fd5b5061066b6004803603602081101561123257600080fd5b503560ff16613741565b34801561124857600080fd5b50610a056004803603602081101561125f57600080fd5b50356137da565b34801561127257600080fd5b5061066b6004803603602081101561128957600080fd5b5035613835565b34801561129c57600080fd5b506107066138ac565b3480156112b157600080fd5b5061066b600480360360208110156112c857600080fd5b8101906020810181356401000000008111156112e357600080fd5b8201836020820111156112f557600080fd5b8035906020019184602083028401116401000000008311171561131757600080fd5b9190808060200260200160405190810160405280939291908181526020018383602002808284376000920191909152509295506138b2945050505050565b34801561136157600080fd5b5061066b6004803603602081101561137857600080fd5b50356001600160a01b0316613937565b34801561139457600080fd5b50610706600480360360208110156113ab57600080fd5b5035613973565b3480156113be57600080fd5b50610706613996565b3480156113d357600080fd5b5061066b600480360360208110156113ea57600080fd5b503515156139e9565b3480156113ff57600080fd5b5061066b6004803603602081101561141657600080fd5b50356001600160a01b0316613a6e565b34801561143257600080fd5b5061143b613aaa565b6040805198151589526020890197909752878701959095526060870193909352608086019190915260a085015260c084015260e083015251908190036101000190f35b34801561148a57600080fd5b5061066b60048036036101008110156114a257600080fd5b8101906020810181356401000000008111156114bd57600080fd5b8201836020820111156114cf57600080fd5b803590602001918460018302840111640100000000831117156114f157600080fd5b91908080601f016020809104026020016040519081016040528093929190818152602001838380828437600092019190915250929594936020810193503591505064010000000081111561154457600080fd5b82018360208201111561155657600080fd5b8035906020019184600183028401116401000000008311171561157857600080fd5b91908080601f0160208091040260200160405190810160405280939291908181526020018383808284376000920191909152509295505082359350505060208101359060408101359060608101359060808101359060a001356001600160a01b0316613c12565b3480156115eb57600080fd5b5061066b6004803603606081101561160257600080fd5b506001600160a01b03813581169160208101359091169060400135613d19565b34801561162e57600080fd5b50611637613da0565b604051808060200180602001806020018c81526020018b81526020018a815260200189815260200188815260200187815260200186815260200185815260200184810384528f818151815260200191508051906020019080838360005b838110156116ac578181015183820152602001611694565b50505050905090810190601f1680156116d95780820380516001836020036101000a031916815260200191505b5084810383528e818151815260200191508051906020019080838360005b8381101561170f5781810151838201526020016116f7565b50505050905090810190601f16801561173c5780820380516001836020036101000a031916815260200191505b5084810382528d5181528d516020918201918f019080838360005b8381101561176f578181015183820152602001611757565b50505050905090810190601f16801561179c5780820380516001836020036101000a031916815260200191505b509e50505050505050505050505050505060405180910390f35b3480156117c257600080fd5b5061066b613fd1565b3480156117d757600080fd5b5061066b600480360360208110156117ee57600080fd5b5035614047565b34801561180157600080fd5b5061181f6004803603602081101561181857600080fd5b50356140be565b6040805160ff9092168252519081900360200190f35b34801561184157600080fd5b5061066b6004803603604081101561185857600080fd5b506001600160a01b0381351690602001356140d3565b34801561187a57600080fd5b50610706614140565b34801561188f57600080fd5b5061066b600480360360808110156118a657600080fd5b506001600160a01b03813581169160208101359091169060408101359060600135614146565b3480156118d857600080fd5b50611174600480360360a08110156118ef57600080fd5b6001600160a01b03823581169260208101359091169160408201359160608101359181019060a08101608082013564010000000081111561192f57600080fd5b82018360208201111561194157600080fd5b8035906020019184600183028401116401000000008311171561196357600080fd5b91908080601f0160208091040260200160405190810160405280939291908181526020018383808284376000920191909152509295506141e8945050505050565b3480156119b057600080fd5b50610706614212565b3480156119c557600080fd5b50610c06614218565b3480156119da57600080fd5b506119f8600480360360208110156119f157600080fd5b5035614278565b604080516001600160a01b03988916815296909716602087015260ff9094168587015260608501929092526080840152151560a0830152151560c082015290519081900360e00190f35b348015611a4e57600080fd5b506105cf60048036036020811015611a6557600080fd5b50356001600160a01b031661433e565b348015611a8157600080fd5b5061066b60048036036020811015611a9857600080fd5b503561434b565b348015611aab57600080fd5b506107066143c2565b7fffffffff000000000000000000000000000000000000000000000000000000001660009081526029602052604090205460ff1690565b6000908152601260209081526040808320546013835281842054601490935292205460ff9092169290916001600160a01b031690565b611b2c6015826143c8565b15611b3c57611b3c601582614423565b50565b600090815260208052604090205460ff1690565b3360009081526024602052604090205460ff16151560011480611b8057506002546001600160a01b031633145b80611b8a57503033145b611bc55760405162461bcd60e51b81526004018080602001828103825260288152602001806147216028913960400191505060405180910390fd5b601991909155601855565b60115462010000900460ff1690565b604080517f01356b6d000000000000000000000000000000000000000000000000000000008152600060048201819052602482018490529151736e44bbA347af17424C7E3146b78790Cd59818797916301356b6d916044808301926020929190829003018186803b158015611c5357600080fd5b505af4158015611c67573d6000803e3d6000fd5b505050506040513d6020811015611c7d57600080fd5b505192915050565b604080517fb9f052740000000000000000000000000000000000000000000000000000000081526000600482018190526001600160a01b038086166024840152841660448301529151736e44bbA347af17424C7E3146b78790Cd598187979263b9f052749260648082019391829003018186803b158015611d0557600080fd5b505af4158015611d19573d6000803e3d6000fd5b505050505050565b611d2c6015826143c8565b611b3c57611b3c601582614562565b3360009081526024602052604090205460ff16151560011480611d6857506002546001600160a01b031633145b80611d7257503033145b611dad5760405162461bcd60e51b81526004018080602001828103825260288152602001806147216028913960400191505060405180910390fd5b604080517fc4d13b4c000000000000000000000000000000000000000000000000000000008152600060048201819052602482018b90526001600160a01b03808b1660448401528916606483015260ff8816608483015260a4820187905260c4820186905284151560e48301528315156101048301529151736e44bbA347af17424C7E3146b78790Cd598187979263c4d13b4c926101248082019391829003018186803b158015611e5d57600080fd5b505af4158015611e71573d6000803e3d6000fd5b505050505050505050505050565b3360009081526024602052604090205460ff16151560011480611eac57506002546001600160a01b031633145b80611eb657503033145b611ef15760405162461bcd60e51b81526004018080602001828103825260288152602001806147216028913960400191505060405180910390fd5b60118054911515620100000262ff000019909216919091179055565b60105490565b6000806000806000806000736e44bbA347af17424C7E3146b78790Cd598187976301356b6d9091896040518363ffffffff1660e01b8152600401808381526020018281526020019250505060206040518083038186803b158015611f7657600080fd5b505af4158015611f8a573d6000803e3d6000fd5b505050506040513d6020811015611fa057600080fd5b50516040805163766a922760e11b815260006004820152602481018a90529051919750736e44bbA347af17424C7E3146b78790Cd598187979163ecd5244e91604480820192602092909190829003018186803b158015611fff57600080fd5b505af4158015612013573d6000803e3d6000fd5b505050506040513d602081101561202957600080fd5b505160408051635ca33bed60e11b815260006004820152602481018a90529051919650736e44bbA347af17424C7E3146b78790Cd598187979163b94677da91604480820192602092909190829003018186803b15801561208857600080fd5b505af415801561209c573d6000803e3d6000fd5b505050506040513d60208110156120b257600080fd5b50516040805163dc1f0f5360e01b815260006004820152602481018a90529051919550736e44bbA347af17424C7E3146b78790Cd598187979163dc1f0f5391604480820192602092909190829003018186803b15801561211157600080fd5b505af4158015612125573d6000803e3d6000fd5b505050506040513d602081101561213b57600080fd5b5051604080516376e455e160e01b815260006004820152602481018a90529051919450736e44bbA347af17424C7E3146b78790Cd59818797916376e455e191604480820192602092909190829003018186803b15801561219a57600080fd5b505af41580156121ae573d6000803e3d6000fd5b505050506040513d60208110156121c457600080fd5b5051601954969895975093959294915050565b6040805163406515d360e11b815260006004820181905260248201859052604482018490529151736e44bbA347af17424C7E3146b78790Cd59818797926380ca2ba69260648082019391829003018186803b158015611d0557600080fd5b6011546301000000900460ff1690565b3360009081526024602052604090205460ff1615156001148061227257506002546001600160a01b031633145b8061227c57503033145b6122b75760405162461bcd60e51b81526004018080602001828103825260288152602001806147216028913960400191505060405180910390fd5b611b3c602782614562565b3360009081526024602052604090205460ff161515600114806122ef57506002546001600160a01b031633145b806122f957503033145b6123345760405162461bcd60e51b81526004018080602001828103825260288152602001806147216028913960400191505060405180910390fd5b601180549115156101000261ff0019909216919091179055565b600061235a60276145f5565b905090565b604080517f88d496a40000000000000000000000000000000000000000000000000000000081526000600482018190526001600160a01b0385166024830152604482018490529151736e44bbA347af17424C7E3146b78790Cd59818797926388d496a49260648082019391829003018186803b158015611d0557600080fd5b601154610100900460ff1690565b601a5490565b60115460ff1690565b60006124086027836145fc565b92915050565b604080517fe5fca79a000000000000000000000000000000000000000000000000000000008152600060048201819052336024830152346044830152606482018490529151736e44bbA347af17424C7E3146b78790Cd598187979263e5fca79a9260848082019391829003018186803b15801561248a57600080fd5b505af415801561249e573d6000803e3d6000fd5b5050505050565b604080516357f57ecd60e11b81526000600482018190526001600160a01b038616602483015260448201859052606482018490529151736e44bbA347af17424C7E3146b78790Cd598187979263afeafd9a9260848082019391829003018186803b15801561251257600080fd5b505af4158015612526573d6000803e3d6000fd5b50505050505050565b3360009081526024602052604090205460ff1615156001148061255c57506002546001600160a01b031633145b8061256657503033145b6125a15760405162461bcd60e51b81526004018080602001828103825260288152602001806147216028913960400191505060405180910390fd5b604080517fc007855c0000000000000000000000000000000000000000000000000000000081526000600482018190526001600160a01b03808b1660248401528916604483015260ff881660648301526084820187905260a4820186905284151560c483015283151560e48301529151736e44bbA347af17424C7E3146b78790Cd598187979263c007855c926101048082019391829003018186803b15801561264957600080fd5b505af415801561265d573d6000803e3d6000fd5b5050505050505050505050565b6040805163406515d360e11b815260006004820181905260248201849052600160448301529151736e44bbA347af17424C7E3146b78790Cd59818797926380ca2ba69260648082019391829003018186803b15801561248a57600080fd5b60098054604080516020601f60026000196101006001881615020190951694909404938401819004810282018101909252828152606093909290918301828280156127545780601f1061272957610100808354040283529160200191612754565b820191906000526020600020905b81548152906001019060200180831161273757829003601f168201915b5050505050905090565b604080517f401348c90000000000000000000000000000000000000000000000000000000081526000600482018190526001600160a01b038616602483015260448201859052606482018490529151736e44bbA347af17424C7E3146b78790Cd598187979263401348c99260848082019391829003018186803b15801561251257600080fd5b3360009081526024602052604090205460ff1615156001148061281157506002546001600160a01b031633145b8061281b57503033145b6128565760405162461bcd60e51b81526004018080602001828103825260288152602001806147216028913960400191505060405180910390fd5b506011805460ff19166001179055565b6060600060170180548060200260200160405190810160405280929190818152602001828054801561275457602002820191906000526020600020905b8154815260200190600101908083116128a3575050505050905090565b60009081526013602052604090205490565b6040805163766a922760e11b8152600060048201819052602482018490529151736e44bbA347af17424C7E3146b78790Cd598187979163ecd5244e916044808301926020929190829003018186803b158015611c5357600080fd5b60009081526021602052604090205490565b604080517f48126f4b0000000000000000000000000000000000000000000000000000000081526000600482018190526024820185905283151560448301529151736e44bbA347af17424C7E3146b78790Cd59818797926348126f4b9260648082019391829003018186803b158015611d0557600080fd5b600080736e44bbA347af17424C7E3146b78790Cd5981879763164cd8c290916040518263ffffffff1660e01b81526004018082815260200191505060206040518083038186803b158015612a0a57600080fd5b505af4158015612a1e573d6000803e3d6000fd5b505050506040513d6020811015612a3457600080fd5b5051905090565b3360009081526024602052604090205460ff16151560011480612a6857506002546001600160a01b031633145b80612a7257503033145b612aad5760405162461bcd60e51b81526004018080602001828103825260288152602001806147216028913960400191505060405180910390fd5b611b3c602782614423565b3360009081526024602052604090205460ff16151560011480612ae557506002546001600160a01b031633145b80612aef57503033145b612b2a5760405162461bcd60e51b81526004018080602001828103825260288152602001806147216028913960400191505060405180910390fd5b8051612b3d906009906020840190614629565b5050565b336000908152602460205260409020805460ff19166001179055600380546001600160a01b0319166001600160a01b0392909216919091179055565b6040805163dc1f0f5360e01b8152600060048201819052602482018490529151736e44bbA347af17424C7E3146b78790Cd598187979163dc1f0f53916044808301926020929190829003018186803b158015611c5357600080fd5b60078054604080516020601f60026000196101006001881615020190951694909404938401819004810282018101909252828152606093909290918301828280156127545780601f1061272957610100808354040283529160200191612754565b60195490565b3360009081526024602052604090205460ff16151560011480612c6157503033145b612c9c5760405162461bcd60e51b81526004018080602001828103825260288152602001806147216028913960400191505060405180910390fd5b6001600160a01b03166000908152602460205260409020805460ff19166001179055565b60408051635ca33bed60e11b8152600060048201819052602482018490529151736e44bbA347af17424C7E3146b78790Cd598187979163b94677da916044808301926020929190829003018186803b158015611c5357600080fd5b60065460ff1690565b600f5490565b60008211612d7f576040805162461bcd60e51b815260206004820152601160248201527f494e56414c49445f544f4b454e48415348000000000000000000000000000000604482015290519081900360640190fd5b6001600160a01b038416612dda576040805162461bcd60e51b815260206004820152600c60248201527f494e56414c49445f504f4f4c0000000000000000000000000000000000000000604482015290519081900360640190fd5b6001600160a01b038316612e35576040805162461bcd60e51b815260206004820152600d60248201527f494e56414c49445f544f4b454e00000000000000000000000000000000000000604482015290519081900360640190fd5b6001600160a01b038116612e90576040805162461bcd60e51b815260206004820152601160248201527f494e56414c49445f524543495049454e54000000000000000000000000000000604482015290519081900360640190fd5b612e9b6015846143c8565b1515600114612ef1576040805162461bcd60e51b815260206004820152601360248201527f494e56414c49445f544f4b454e534f5552434500000000000000000000000000604482015290519081900360640190fd5b600082815260208052604090205460ff1615612f54576040805162461bcd60e51b815260206004820152601060248201527f414c52454144595f494d504f5254454400000000000000000000000000000000604482015290519081900360640190fd5b6000846001600160a01b03166395d89b416040518163ffffffff1660e01b815260040160006040518083038186803b158015612f8f57600080fd5b505afa158015612fa3573d6000803e3d6000fd5b505050506040513d6000823e601f3d908101601f191682016040526020811015612fcc57600080fd5b8101908080516040519392919084640100000000821115612fec57600080fd5b90830190602082018581111561300157600080fd5b825164010000000081118282018810171561301b57600080fd5b82525081516020918201929091019080838360005b83811015613048578181015183820152602001613030565b50505050905090810190601f1680156130755780820380516001836020036101000a031916815260200191505b506040525050506040516020018082805190602001908083835b602083106130ae5780518252601f19909201916020918201910161308f565b6001836020036101000a038019825116818451168082178552505050505050905001915050604051602081830303815290604052805190602001209050600080600701604051602001808280546001816001161561010002031660029004801561314f5780601f1061312d57610100808354040283529182019161314f565b820191906000526020600020905b81548152906001019060200180831161313b575b50509150506040516020818303038152906040528051906020012090508082146131c0576040805162461bcd60e51b815260206004820152601060248201527f494e56414c49445f504f4f4c4841534800000000000000000000000000000000604482015290519081900360640190fd5b6000866001600160a01b031663e6c3b1f6866040518263ffffffff1660e01b81526004018082815260200191505060206040518083038186803b15801561320657600080fd5b505afa15801561321a573d6000803e3d6000fd5b505050506040513d602081101561323057600080fd5b50519050600260ff82161461328c576040805162461bcd60e51b815260206004820152601160248201527f494e56414c49445f544f4b454e54595045000000000000000000000000000000604482015290519081900360640190fd5b6000866001600160a01b031662fdd58e86886040518363ffffffff1660e01b815260040180836001600160a01b031681526020018281526020019250505060206040518083038186803b1580156132e257600080fd5b505afa1580156132f6573d6000803e3d6000fd5b505050506040513d602081101561330c57600080fd5b5051604080517f7dcb0e5f0000000000000000000000000000000000000000000000000000000081526004810189905290519192506000916001600160a01b038b1691637dcb0e5f916024808301926020929190829003018186803b15801561337457600080fd5b505afa158015613388573d6000803e3d6000fd5b505050506040513d602081101561339e57600080fd5b50519050811561365a57600154604080517f156e29f60000000000000000000000000000000000000000000000000000000081526001600160a01b038981166004830152602482018b9052604482018690529151919092169163156e29f691606480830192600092919082900301818387803b15801561341d57600080fd5b505af1158015613431573d6000803e3d6000fd5b5050600154604080517f7c881076000000000000000000000000000000000000000000000000000000008152600481018c90526002602482015230604482015290516001600160a01b039092169350637c881076925060648082019260009290919082900301818387803b1580156134a857600080fd5b505af11580156134bc573d6000803e3d6000fd5b5050505060026000601201600089815260200190815260200160002060006101000a81548160ff021916908360ff160217905550806000601301600089815260200190815260200160002081905550876000601401600089815260200190815260200160002060006101000a8154816001600160a01b0302191690836001600160a01b0316021790555060016000602001600089815260200190815260200160002060006101000a81548160ff021916908315150217905550600060020160009054906101000a90046001600160a01b03166001600160a01b031663634b5b7d336040518263ffffffff1660e01b815260040180826001600160a01b03168152602001915050602060405180830381600087803b1580156135dc57600080fd5b505af11580156135f0573d6000803e3d6000fd5b505050506040513d602081101561360657600080fd5b5050604080516001600160a01b038b811682528a16602082015280820184905290518891309133917ff5b54e798ff7f434ed773aa633e6a9f82ef9ae465e46042e1983f29bf1fd69ea919081900360600190a45b505050505050505050565b6001600160a01b031660009081526024602052604090205460ff1690565b600080736e44bbA347af17424C7E3146b78790Cd598187976333c13e0d90916040518263ffffffff1660e01b81526004018082815260200191505060206040518083038186803b158015612a0a57600080fd5b7fbc197c810000000000000000000000000000000000000000000000000000000095945050505050565b336000908152602460205260409020805460ff19166001179055600280546001600160a01b0319166001600160a01b0392909216919091179055565b503090565b3360009081526024602052604090205460ff1615156001148061376e57506002546001600160a01b031633145b8061377857503033145b6137b35760405162461bcd60e51b81526004018080602001828103825260288152602001806147216028913960400191505060405180910390fd5b6011805482919063ff000000191663010000008360028111156137d257fe5b021790555050565b604080516376e455e160e01b8152600060048201819052602482018490529151736e44bbA347af17424C7E3146b78790Cd59818797916376e455e1916044808301926020929190829003018186803b158015611c5357600080fd5b3360009081526024602052604090205460ff1615156001148061386257506002546001600160a01b031633145b8061386c57503033145b6138a75760405162461bcd60e51b81526004018080602001828103825260288152602001806147216028913960400191505060405180910390fd5b601055565b60185490565b3360009081526024602052604090205460ff161515600114806138df57506002546001600160a01b031633145b806138e957503033145b6139245760405162461bcd60e51b81526004018080602001828103825260288152602001806147216028913960400191505060405180910390fd5b8051612b3d9060179060208401906146a7565b336000908152602460205260409020805460ff19166001179055600180546001600160a01b0319166001600160a01b0392909216919091179055565b600080601701828154811061398457fe5b90600052602060002001549050919050565b600080736e44bbA347af17424C7E3146b78790Cd5981879763828c7b7290916040518263ffffffff1660e01b81526004018082815260200191505060206040518083038186803b158015612a0a57600080fd5b3360009081526024602052604090205460ff16151560011480613a1657506002546001600160a01b031633145b80613a2057503033145b613a5b5760405162461bcd60e51b81526004018080602001828103825260288152602001806147216028913960400191505060405180910390fd5b6006805460ff1916911515919091179055565b336000908152602460205260409020805460ff19166001179055600480546001600160a01b0319166001600160a01b0392909216919091179055565b600654601954601854601a54604080517f164cd8c2000000000000000000000000000000000000000000000000000000008152600060048201819052915160ff90961695829182918291736e44bbA347af17424C7E3146b78790Cd598187979163164cd8c291602480820192602092909190829003018186803b158015613b3057600080fd5b505af4158015613b44573d6000803e3d6000fd5b505050506040513d6020811015613b5a57600080fd5b5051604080517f33c13e0d000000000000000000000000000000000000000000000000000000008152600060048201529051919550736e44bbA347af17424C7E3146b78790Cd59818797916333c13e0d91602480820192602092909190829003018186803b158015613bcb57600080fd5b505af4158015613bdf573d6000803e3d6000fd5b505050506040513d6020811015613bf557600080fd5b5051601954601854999a9899979896979596919590945092509050565b3360009081526024602052604090205460ff16151560011480613c3f57506002546001600160a01b031633145b80613c4957503033145b613c845760405162461bcd60e51b81526004018080602001828103825260288152602001806147216028913960400191505060405180910390fd5b600080546001600160a01b031916301790558751613ca99060079060208b0190614629565b508651613cbd9060089060208a0190614629565b50600a869055600b859055600c849055600d839055600e8290556006805460ff191660011790556011805462ff00001916620100001790556001600160a01b03811615613d0f57613d0f602782614562565b5050505050505050565b604080517fe5932f420000000000000000000000000000000000000000000000000000000081526000600482018190526001600160a01b03808716602484015285166044830152606482018490529151736e44bbA347af17424C7E3146b78790Cd598187979263e5932f429260848082019391829003018186803b15801561251257600080fd5b60078054604080516020601f60026000196101006001881615020190951694909404938401819004810282018101909252828152606093849384936000938493849384938493849384938493830182828015613e3d5780601f10613e1257610100808354040283529160200191613e3d565b820191906000526020600020905b815481529060010190602001808311613e2057829003601f168201915b50505050509a5060006008018054600181600116156101000203166002900480601f016020809104026020016040519081016040528092919081815260200182805460018160011615610100020316600290048015613edd5780601f10613eb257610100808354040283529160200191613edd565b820191906000526020600020905b815481529060010190602001808311613ec057829003601f168201915b5050505050995060006009018054600181600116156101000203166002900480601f016020809104026020016040519081016040528092919081815260200182805460018160011615610100020316600290048015613f7d5780601f10613f5257610100808354040283529160200191613f7d565b820191906000526020600020905b815481529060010190602001808311613f6057829003601f168201915b5050505050985060006005015497506000600a015496506000600b015495506000600c015494506000600d015493506000600e015492506000600f015491506000601001549050909192939495969798999a565b3360009081526024602052604090205460ff16151560011480613ff357503033145b61402e5760405162461bcd60e51b81526004018080602001828103825260288152602001806147216028913960400191505060405180910390fd5b336000908152602460205260409020805460ff19169055565b3360009081526024602052604090205460ff1615156001148061407457506002546001600160a01b031633145b8061407e57503033145b6140b95760405162461bcd60e51b81526004018080602001828103825260288152602001806147216028913960400191505060405180910390fd5b600555565b60009081526012602052604090205460ff1690565b604080516357f57ecd60e11b81526000600482018190526001600160a01b038516602483015260448201849052600160648301529151736e44bbA347af17424C7E3146b78790Cd598187979263afeafd9a9260848082019391829003018186803b158015611d0557600080fd5b60055490565b604080517f210dd8100000000000000000000000000000000000000000000000000000000081526000600482018190526001600160a01b0380881660248401528616604483015260648201859052608482018490529151736e44bbA347af17424C7E3146b78790Cd598187979263210dd8109260a48082019391829003018186803b1580156141d457600080fd5b505af4158015613d0f573d6000803e3d6000fd5b7ff23a6e610000000000000000000000000000000000000000000000000000000095945050505050565b60175490565b60168054604080516020808402820181019092528281526060939092909183018282801561275457602002820191906000526020600020905b81546001600160a01b03168152600190910190602001808311614251575050505050905090565b600080600080600080600080736e44bbA347af17424C7E3146b78790Cd59818797635b68e93c90918a6040518363ffffffff1660e01b8152600401808381526020018281526020019250505060e06040518083038186803b1580156142dc57600080fd5b505af41580156142f0573d6000803e3d6000fd5b505050506040513d60e081101561430657600080fd5b508051602082015160408301516060840151608085015160a086015160c090960151949e939d50919b50995097509195509350915050565b60006124086027836143c8565b3360009081526024602052604090205460ff1615156001148061437857506002546001600160a01b031633145b8061438257503033145b6143bd5760405162461bcd60e51b81526004018080602001828103825260288152602001806147216028913960400191505060405180910390fd5b600f55565b600a5490565b60018201546000906143dc57506000612408565b6001600160a01b038216600081815260208590526040902054600185018054909190811061440657fe5b6000918252602090912001546001600160a01b0316149392505050565b61442d82826143c8565b6144685760405162461bcd60e51b815260040180806020018281038252602a8152602001806146f7602a913960400191505060405180910390fd5b60006001614475846145f5565b6001600160a01b03841660009081526020869052604090205491900391508082146145165760008460010183815481106144ab57fe5b60009182526020808320909101546001600160a01b03168083529087905260409091208390556001860180549192508291849081106144e657fe5b9060005260206000200160006101000a8154816001600160a01b0302191690836001600160a01b03160217905550505b6001600160a01b038316600090815260208590526040812055600184018054600019810190811061454357fe5b600091825260209091200180546001600160a01b031916905550505050565b61456c82826143c8565b156145a85760405162461bcd60e51b815260040180806020018281038252602a815260200180614749602a913960400191505060405180910390fd5b6001828101805491820181556000818152602080822090930180546001600160a01b0319166001600160a01b03959095169485179055905492815292905260409091206000199091019055565b6001015490565b600082600101828154811061460d57fe5b6000918252602090912001546001600160a01b03169392505050565b828054600181600116156101000203166002900490600052602060002090601f016020900481019282601f1061466a57805160ff1916838001178555614697565b82800160010185558215614697579182015b8281111561469757825182559160200191906001019061467c565b506146a39291506146e1565b5090565b828054828255906000526020600020908101928215614697579160200282018281111561469757825182559160200191906001019061467c565b5b808211156146a357600081556001016146e256fe416464726573735365743a206b657920646f6573206e6f7420657869737420696e20746865207365742e436f6e74726f6c6c61626c653a2063616c6c6572206973206e6f74206120636f6e74726f6c6c6572416464726573735365743a206b657920616c72656164792065786973747320696e20746865207365742ea26469706673582212203cd5fbbbb252714b7c3d8f6ca7a861f57843422512bd39becb6ce76519c23fea64736f6c63430007030033436f6e74726f6c6c61626c653a2063616c6c6572206973206e6f74206120636f6e74726f6c6c6572a2646970667358221220006d37498d4576815e5044d3eacbbe8a93890e580f444d389accd606bb096b3f64736f6c63430007030033",
  "deployedBytecode": "0x608060405234801561001057600080fd5b50600436106100d45760003560e01c806367275aed11610081578063e1c28bef1161005b578063e1c28bef146104b1578063e4aa923d146104b9578063f994567c1461066d576100d4565b806367275aed14610434578063a7fc7a0714610451578063b429afeb14610477576100d4565b80634ff8f07e116100b25780634ff8f07e146102a757806351788914146103fb5780635e6fe72a1461041a576100d4565b80630311949d146100d95780631ff77f16146102325780632b69fa101461024f575b600080fd5b610216600480360360608110156100ef57600080fd5b6001600160a01b03823516919081019060408101602082013564010000000081111561011a57600080fd5b82018360208201111561012c57600080fd5b8035906020019184600183028401116401000000008311171561014e57600080fd5b91908080601f01602080910402602001604051908101604052809392919081815260200183838082843760009201919091525092959493602081019350359150506401000000008111156101a157600080fd5b8201836020820111156101b357600080fd5b803590602001918460018302840111640100000000831117156101d557600080fd5b91908080601f01602080910402602001604051908101604052809392919081815260200183838082843760009201919091525092955061068a945050505050565b604080516001600160a01b039092168252519081900360200190f35b6102166004803603602081101561024857600080fd5b5035610928565b610257610952565b60408051602080825283518183015283519192839290830191858101910280838360005b8381101561029357818101518382015260200161027b565b505050509050019250505060405180910390f35b61021660048036036101008110156102be57600080fd5b8101906020810181356401000000008111156102d957600080fd5b8201836020820111156102eb57600080fd5b8035906020019184600183028401116401000000008311171561030d57600080fd5b91908080601f016020809104026020016040519081016040528093929190818152602001838380828437600092019190915250929594936020810193503591505064010000000081111561036057600080fd5b82018360208201111561037257600080fd5b8035906020019184600183028401116401000000008311171561039457600080fd5b91908080601f0160208091040260200160405190810160405280939291908181526020018383808284376000920191909152509295505082359350505060208101359060408101359060608101359060808101359060a001356001600160a01b03166109b4565b6104186004803603602081101561041157600080fd5b5035610f1d565b005b610422611059565b60408051918252519081900360200190f35b6102166004803603602081101561044a57600080fd5b503561105f565b6104186004803603602081101561046757600080fd5b50356001600160a01b031661107a565b61049d6004803603602081101561048d57600080fd5b50356001600160a01b03166110fc565b604080519115158252519081900360200190f35b61041861111a565b610216600480360360608110156104cf57600080fd5b8101906020810181356401000000008111156104ea57600080fd5b8201836020820111156104fc57600080fd5b8035906020019184600183028401116401000000008311171561051e57600080fd5b91908080601f016020809104026020016040519081016040528093929190818152602001838380828437600092019190915250929594936020810193503591505064010000000081111561057157600080fd5b82018360208201111561058357600080fd5b803590602001918460018302840111640100000000831117156105a557600080fd5b91908080601f01602080910402602001604051908101604052809392919081815260200183838082843760009201919091525092959493602081019350359150506401000000008111156105f857600080fd5b82018360208201111561060a57600080fd5b8035906020019184600183028401116401000000008311171561062c57600080fd5b91908080601f016020809104026020016040519081016040528093929190818152602001838380828437600092019190915250929550611183945050505050565b6104186004803603602081101561068357600080fd5b5035611385565b3360009081526020819052604081205460ff161515600114806106ac57503033145b6106e85760405162461bcd60e51b815260040180806020018281038252602881526020018062005ef76028913960400191505060405180910390fd5b6000836040516020018082805190602001908083835b6020831061071d5780518252601f1990920191602091820191016106fe565b51815160209384036101000a60001901801990921691161790526040805192909401828103601f1901835284528151918101919091206000818152600290925292902054919450506001600160a01b03161591506107b59050576040805162461bcd60e51b815260206004820152600e60248201526d47454d504f4f4c5f45584953545360901b604482015290519081900360640190fd5b600081815260026020908152604080832080546001600160a01b038a166001600160a01b03199182168117909255600380546001810182559086527fc2575a0e9e593c00f959f8c92f12db2869c3395a3b0502d05e2516446f71f85b0180549091169091179055805181815287519181019190915286518895507f89087d44119cf78c7cc1dfb971ca45b6aa9fde12ab6feedacc1fb42c3487862c9388938893928392838301926060850192908801918190849084905b8381101561088457818101518382015260200161086c565b50505050905090810190601f1680156108b15780820380516001836020036101000a031916815260200191505b50838103825284518152845160209182019186019080838360005b838110156108e45781810151838201526020016108cc565b50505050905090810190601f1680156109115780820380516001836020036101000a031916815260200191505b5094505050505060405180910390a1509392505050565b60006003828154811061093757fe5b6000918252602090912001546001600160a01b031692915050565b606060038054806020026020016040519081016040528092919081815260200182805480156109aa57602002820191906000526020600020905b81546001600160a01b0316815260019091019060200180831161098c575b5050505050905090565b3360009081526020819052604081205460ff161515600114806109d657503033145b610a125760405162461bcd60e51b815260040180806020018281038252602881526020018062005ef76028913960400191505060405180910390fd5b6000896040516020018082805190602001908083835b60208310610a475780518252601f199092019160209182019101610a28565b51815160209384036101000a60001901801990921691161790526040805192909401828103601f1901835284528151918101919091206000818152600290925292902054919450506001600160a01b0316159150610adf9050576040805162461bcd60e51b815260206004820152600e60248201526d47454d504f4f4c5f45584953545360901b604482015290519081900360640190fd5b87610b31576040805162461bcd60e51b815260206004820152600d60248201527f494e56414c49445f505249434500000000000000000000000000000000000000604482015290519081900360640190fd5b86610b83576040805162461bcd60e51b815260206004820152601060248201527f494e56414c49445f4d494e5f54494d4500000000000000000000000000000000604482015290519081900360640190fd5b84610bd5576040805162461bcd60e51b815260206004820152601760248201527f494e56414c49445f444946464943554c54595f53544550000000000000000000604482015290519081900360640190fd5b606060405180602001610be7906115f3565b601f1982820381018352601f909101166040529050610c08600083836114da565b9250826001600160a01b031663d9a3f9bb8c8c8c8c8c8c8c8c6040518963ffffffff1660e01b8152600401808060200180602001898152602001888152602001878152602001868152602001858152602001846001600160a01b0316815260200183810383528b818151815260200191508051906020019080838360005b83811015610c9e578181015183820152602001610c86565b50505050905090810190601f168015610ccb5780820380516001836020036101000a031916815260200191505b5083810382528a5181528a516020918201918c019080838360005b83811015610cfe578181015183820152602001610ce6565b50505050905090810190601f168015610d2b5780820380516001836020036101000a031916815260200191505b509a5050505050505050505050600060405180830381600087803b158015610d5257600080fd5b505af1158015610d66573d6000803e3d6000fd5b505050600083815260026020908152604080832080546001600160a01b03199081166001600160a01b038a8116918217909355600380546001810182559087527fc2575a0e9e593c00f959f8c92f12db2869c3395a3b0502d05e2516446f71f85b01805490921617905581519182018e9052606082018d9052608082018c905260a082018b905260c082018a9052881660e08201526101008082528f51908201528e517fd5dd03a462020e8d5d777d0957fbf19067fc095f932d026bb0f23e384522f2a694508f938f938f938f938f938f938f938f939092839283810192610120850192918e01918190849084905b83811015610e6d578181015183820152602001610e55565b50505050905090810190601f168015610e9a5780820380516001836020036101000a031916815260200191505b5083810382528a5181528a516020918201918c019080838360005b83811015610ecd578181015183820152602001610eb5565b50505050905090810190601f168015610efa5780820380516001836020036101000a031916815260200191505b509a505050505050505050505060405180910390a1505098975050505050505050565b3360009081526020819052604090205460ff16151560011480610f3f57503033145b610f7b5760405162461bcd60e51b815260040180806020018281038252602881526020018062005ef76028913960400191505060405180910390fd5b6003548110610fd1576040805162461bcd60e51b815260206004820152601260248201527f494e4445585f4f55545f4f465f52414e47450000000000000000000000000000604482015290519081900360640190fd5b60035460011415610fed57610fe860036000611601565b611056565b600380546000198101908110610fff57fe5b600091825260209091200154600380546001600160a01b03909216918390811061102557fe5b506000525060038054600019810190811061103c57fe5b600091825260209091200180546001600160a01b03191690555b50565b60035490565b6000908152600260205260409020546001600160a01b031690565b3360009081526020819052604090205460ff1615156001148061109c57503033145b6110d85760405162461bcd60e51b815260040180806020018281038252602881526020018062005ef76028913960400191505060405180910390fd5b6001600160a01b03166000908152602081905260409020805460ff19166001179055565b6001600160a01b031660009081526020819052604090205460ff1690565b3360009081526020819052604090205460ff1615156001148061113c57503033145b6111785760405162461bcd60e51b815260040180806020018281038252602881526020018062005ef76028913960400191505060405180910390fd5b336000908152602052565b3360009081526020819052604081205460ff161515600114806111a557503033145b6111e15760405162461bcd60e51b815260040180806020018281038252602881526020018062005ef76028913960400191505060405180910390fd5b6000836040516020018082805190602001908083835b602083106112165780518252601f1990920191602091820191016111f7565b51815160209384036101000a60001901801990921691161790526040805192909401828103601f1901835284528151918101919091206000818152600290925292902054919450506001600160a01b03161591506112ae9050576040805162461bcd60e51b815260206004820152600e60248201526d47454d504f4f4c5f45584953545360901b604482015290519081900360640190fd5b6112ba600082876114da565b600082815260026020908152604080832080546001600160a01b0386166001600160a01b03199182168117909255600380546001810182559086527fc2575a0e9e593c00f959f8c92f12db2869c3395a3b0502d05e2516446f71f85b0180549091169091179055805181815288519181019190915287519395507f89087d44119cf78c7cc1dfb971ca45b6aa9fde12ab6feedacc1fb42c3487862c9388938893839283820192606085019288019190819084908490831561088457818101518382015260200161086c565b3360009081526020819052604090205460ff161515600114806113a757503033145b6113e35760405162461bcd60e51b815260040180806020018281038252602881526020018062005ef76028913960400191505060405180910390fd5b600081815260026020526040812080546001600160a01b031981169091556001600160a01b0316905b6003548110156114d557816001600160a01b03166003828154811061142d57fe5b6000918252602090912001546001600160a01b031614156114cd57600354600114156114645761145f60036000611601565b6114cd565b60038054600019810190811061147657fe5b600091825260209091200154600380546001600160a01b03909216918390811061149c57fe5b50600052506003805460001981019081106114b357fe5b600091825260209091200180546001600160a01b03191690555b60010161140c565b505050565b60008084471015611532576040805162461bcd60e51b815260206004820152601d60248201527f437265617465323a20696e73756666696369656e742062616c616e6365000000604482015290519081900360640190fd5b8251611585576040805162461bcd60e51b815260206004820181905260248201527f437265617465323a2062797465636f6465206c656e677468206973207a65726f604482015290519081900360640190fd5b8383516020850187f590506001600160a01b0381166115eb576040805162461bcd60e51b815260206004820152601960248201527f437265617465323a204661696c6564206f6e206465706c6f7900000000000000604482015290519081900360640190fd5b949350505050565b6148c3806200163483390190565b508054600082559060005260206000209081019061105691905b8082111561162f576000815560010161161b565b509056fe60806040523480156200001157600080fd5b50336000908152602460205260408082208054600160ff1991821681179092553284529190922080549091169091179055620000546301ffc9a760e01b62000086565b62000066630271189760e51b62000086565b336000908152602460205260409020805460ff191660011790556200010b565b6001600160e01b03198082161415620000e6576040805162461bcd60e51b815260206004820152601c60248201527f4552433136353a20696e76616c696420696e7465726661636520696400000000604482015290519081900360640190fd5b6001600160e01b0319166000908152602960205260409020805460ff19166001179055565b6147a8806200011b6000396000f3fe60806040526004361061057e5760003560e01c806395d89b41116102d5578063d31674db11610184578063e6c3b1f6116100e1578063f4fde0d311610095578063f9eaee0d1161006f578063f9eaee0d14611a42578063fd31a0a514611a75578063ff186b2e14611a9f5761057e565b8063f4fde0d3146119a4578063f8d1e930146119b9578063f9c9c276146119ce5761057e565b8063ef430aa6116100c6578063ef430aa61461186e578063f1e4e55314611883578063f23a6e61146118cc5761057e565b8063e6c3b1f6146117f5578063edcf2d57146118355761057e565b8063d9a3f9bb11610138578063e06174e41161011d578063e06174e414611622578063e1c28bef146117b6578063e5d2ce2f146117cb5761057e565b8063d9a3f9bb1461147e578063d9caed12146115df5761057e565b8063d43e646011610169578063d43e6460146113c7578063d73cd47f146113f3578063d80528ae146114265761057e565b8063d31674db14611388578063d3d08397146113b25761057e565b8063c08fa1a411610232578063c65eff96116101e6578063cdc8a8ab116101cb578063cdc8a8ab146112a5578063cf721b1514611290578063d104f8f5146113555761057e565b8063c65eff9614611266578063c80c0613146112905761057e565b8063c455279111610217578063c4552791146111dc578063c54a92421461120f578063c5e01a5c1461123c5761057e565b8063c08fa1a414610e73578063c42cf535146111a95761057e565b8063b385a50a11610289578063b429afeb1161026e578063b429afeb14610f58578063b788e4e914610f8b578063bc197c8114610fa05761057e565b8063b385a50a14610efa578063b3947a9414610f0f5761057e565b8063a7fc7a07116102ba578063a7fc7a0714610e88578063a901c47414610ebb578063af6a6d7914610ee55761057e565b806395d89b4114610e5e578063a0021cf114610e735761057e565b8063504cdacf116104315780637c07bc7a1161038e5780638a09871b1161034257806390c3f38f1161032757806390c3f38f14610d4e5780639277a18514610e015780639593556014610e345761057e565b80638a09871b14610d0657806390469a9d14610d1b5761057e565b80637f2e8f0c116103735780637f2e8f0c14610c805780638297755114610caa578063870114f614610cd45761057e565b80637c07bc7a14610bf15780637dcb0e5f14610c565761057e565b806368127a8e116103e55780637284e416116103ca5780637284e41614610afc57806372a8ccb414610b865780637ae7815d14610bc55761057e565b806368127a8e14610a7d5780636b6201da14610adf5761057e565b80635e5f2e26116104165780635e5f2e26146109db5780635fb9309114610a215780636100c34314610a3e5761057e565b8063504cdacf146109b15780635d2e0dd4146109c65761057e565b8063328d8f72116104df5780634178617f116104935780634565e5ef116104785780634565e5ef1461094e57806347e7ef24146109635780634e04cdc71461099c5761057e565b80634178617f146108ef57806344f0877c146109225761057e565b8063379607f5116104c4578063379607f514610830578063392732b114610896578063407dff16146108b95761057e565b8063328d8f72146107ef578063336b9efb1461081b5761057e565b8063238dafe0116105365780632449ef511161051b5780632449ef511461071857806326ff31521461075357806327c10f56146107865761057e565b8063238dafe0146106c757806323b221a0146106dc5761057e565b80631284650d116105675780631284650d1461063857806315523ab91461066d5780632360cf5e146106975761057e565b806301ffc9a714610583578063044215c6146105e3575b600080fd5b34801561058f57600080fd5b506105cf600480360360208110156105a657600080fd5b50357fffffffff0000000000000000000000000000000000000000000000000000000016611ab4565b604080519115158252519081900360200190f35b3480156105ef57600080fd5b5061060d6004803603602081101561060657600080fd5b5035611aeb565b6040805160ff909416845260208401929092526001600160a01b031682820152519081900360600190f35b34801561064457600080fd5b5061066b6004803603602081101561065b57600080fd5b50356001600160a01b0316611b21565b005b34801561067957600080fd5b506105cf6004803603602081101561069057600080fd5b5035611b3f565b3480156106a357600080fd5b5061066b600480360360408110156106ba57600080fd5b5080359060200135611b53565b3480156106d357600080fd5b506105cf611bd0565b3480156106e857600080fd5b50610706600480360360208110156106ff57600080fd5b5035611bdf565b60408051918252519081900360200190f35b34801561072457600080fd5b5061066b6004803603604081101561073b57600080fd5b506001600160a01b0381358116916020013516611c85565b34801561075f57600080fd5b5061066b6004803603602081101561077657600080fd5b50356001600160a01b0316611d21565b34801561079257600080fd5b5061066b60048036036101008110156107aa57600080fd5b508035906001600160a01b03602082013581169160408101359091169060ff6060820135169060808101359060a08101359060c081013515159060e001351515611d3b565b3480156107fb57600080fd5b5061066b6004803603602081101561081257600080fd5b50351515611e7f565b34801561082757600080fd5b50610706611f0d565b34801561083c57600080fd5b5061085a6004803603602081101561085357600080fd5b5035611f13565b6040805196875260208701959095528585019390935260608501919091526001600160a01b0316608084015260a0830152519081900360c00190f35b61066b600480360360408110156108ac57600080fd5b50803590602001356121d7565b3480156108c557600080fd5b506108ce612235565b604051808260028111156108de57fe5b815260200191505060405180910390f35b3480156108fb57600080fd5b5061066b6004803603602081101561091257600080fd5b50356001600160a01b0316612245565b34801561092e57600080fd5b5061066b6004803603602081101561094557600080fd5b503515156122c2565b34801561095a57600080fd5b5061070661234e565b34801561096f57600080fd5b5061066b6004803603604081101561098657600080fd5b506001600160a01b03813516906020013561235f565b3480156109a857600080fd5b506105cf6123de565b3480156109bd57600080fd5b506107066123ec565b3480156109d257600080fd5b506105cf6123f2565b3480156109e757600080fd5b50610a05600480360360208110156109fe57600080fd5b50356123fb565b604080516001600160a01b039092168252519081900360200190f35b61066b60048036036020811015610a3757600080fd5b503561240e565b348015610a4a57600080fd5b5061066b60048036036060811015610a6157600080fd5b506001600160a01b0381351690602081013590604001356124a5565b348015610a8957600080fd5b5061066b600480360360e0811015610aa057600080fd5b506001600160a01b03813581169160208101359091169060ff6040820135169060608101359060808101359060a081013515159060c00135151561252f565b61066b60048036036020811015610af557600080fd5b503561266a565b348015610b0857600080fd5b50610b116126c8565b6040805160208082528351818301528351919283929083019185019080838360005b83811015610b4b578181015183820152602001610b33565b50505050905090810190601f168015610b785780820380516001836020036101000a031916815260200191505b509250505060405180910390f35b348015610b9257600080fd5b5061066b60048036036060811015610ba957600080fd5b506001600160a01b03813516906020810135906040013561275e565b348015610bd157600080fd5b5061066b60048036036020811015610be857600080fd5b503515156127e4565b348015610bfd57600080fd5b50610c06612866565b60408051602080825283518183015283519192839290830191858101910280838360005b83811015610c42578181015183820152602001610c2a565b505050509050019250505060405180910390f35b348015610c6257600080fd5b5061070660048036036020811015610c7957600080fd5b50356128c0565b348015610c8c57600080fd5b5061070660048036036020811015610ca357600080fd5b50356128d2565b348015610cb657600080fd5b5061070660048036036020811015610ccd57600080fd5b503561292d565b348015610ce057600080fd5b5061066b60048036036040811015610cf757600080fd5b5080359060200135151561293f565b348015610d1257600080fd5b506107066129b7565b348015610d2757600080fd5b5061066b60048036036020811015610d3e57600080fd5b50356001600160a01b0316612a3b565b348015610d5a57600080fd5b5061066b60048036036020811015610d7157600080fd5b810190602081018135640100000000811115610d8c57600080fd5b820183602082011115610d9e57600080fd5b80359060200191846001830284011164010000000083111715610dc057600080fd5b91908080601f016020809104026020016040519081016040528093929190818152602001838380828437600092019190915250929550612ab8945050505050565b348015610e0d57600080fd5b5061066b60048036036020811015610e2457600080fd5b50356001600160a01b0316612b41565b348015610e4057600080fd5b5061070660048036036020811015610e5757600080fd5b5035612b7d565b348015610e6a57600080fd5b50610b11612bd8565b348015610e7f57600080fd5b50610706612c39565b348015610e9457600080fd5b5061066b60048036036020811015610eab57600080fd5b50356001600160a01b0316612c3f565b348015610ec757600080fd5b5061070660048036036020811015610ede57600080fd5b5035612cc0565b348015610ef157600080fd5b506105cf612d1b565b348015610f0657600080fd5b50610706612d24565b348015610f1b57600080fd5b5061066b60048036036080811015610f3257600080fd5b506001600160a01b03813581169160208101358216916040820135916060013516612d2a565b348015610f6457600080fd5b506105cf60048036036020811015610f7b57600080fd5b50356001600160a01b0316613665565b348015610f9757600080fd5b50610706613683565b348015610fac57600080fd5b50611174600480360360a0811015610fc357600080fd5b6001600160a01b038235811692602081013590911691810190606081016040820135640100000000811115610ff757600080fd5b82018360208201111561100957600080fd5b8035906020019184602083028401116401000000008311171561102b57600080fd5b919080806020026020016040519081016040528093929190818152602001838360200280828437600092019190915250929594936020810193503591505064010000000081111561107b57600080fd5b82018360208201111561108d57600080fd5b803590602001918460208302840111640100000000831117156110af57600080fd5b91908080602002602001604051908101604052809392919081815260200183836020028082843760009201919091525092959493602081019350359150506401000000008111156110ff57600080fd5b82018360208201111561111157600080fd5b8035906020019184600183028401116401000000008311171561113357600080fd5b91908080601f0160208091040260200160405190810160405280939291908181526020018383808284376000920191909152509295506136d6945050505050565b604080517fffffffff000000000000000000000000000000000000000000000000000000009092168252519081900360200190f35b3480156111b557600080fd5b5061066b600480360360208110156111cc57600080fd5b50356001600160a01b0316613700565b3480156111e857600080fd5b50610a05600480360360208110156111ff57600080fd5b50356001600160a01b031661373c565b34801561121b57600080fd5b5061066b6004803603602081101561123257600080fd5b503560ff16613741565b34801561124857600080fd5b50610a056004803603602081101561125f57600080fd5b50356137da565b34801561127257600080fd5b5061066b6004803603602081101561128957600080fd5b5035613835565b34801561129c57600080fd5b506107066138ac565b3480156112b157600080fd5b5061066b600480360360208110156112c857600080fd5b8101906020810181356401000000008111156112e357600080fd5b8201836020820111156112f557600080fd5b8035906020019184602083028401116401000000008311171561131757600080fd5b9190808060200260200160405190810160405280939291908181526020018383602002808284376000920191909152509295506138b2945050505050565b34801561136157600080fd5b5061066b6004803603602081101561137857600080fd5b50356001600160a01b0316613937565b34801561139457600080fd5b50610706600480360360208110156113ab57600080fd5b5035613973565b3480156113be57600080fd5b50610706613996565b3480156113d357600080fd5b5061066b600480360360208110156113ea57600080fd5b503515156139e9565b3480156113ff57600080fd5b5061066b6004803603602081101561141657600080fd5b50356001600160a01b0316613a6e565b34801561143257600080fd5b5061143b613aaa565b6040805198151589526020890197909752878701959095526060870193909352608086019190915260a085015260c084015260e083015251908190036101000190f35b34801561148a57600080fd5b5061066b60048036036101008110156114a257600080fd5b8101906020810181356401000000008111156114bd57600080fd5b8201836020820111156114cf57600080fd5b803590602001918460018302840111640100000000831117156114f157600080fd5b91908080601f016020809104026020016040519081016040528093929190818152602001838380828437600092019190915250929594936020810193503591505064010000000081111561154457600080fd5b82018360208201111561155657600080fd5b8035906020019184600183028401116401000000008311171561157857600080fd5b91908080601f0160208091040260200160405190810160405280939291908181526020018383808284376000920191909152509295505082359350505060208101359060408101359060608101359060808101359060a001356001600160a01b0316613c12565b3480156115eb57600080fd5b5061066b6004803603606081101561160257600080fd5b506001600160a01b03813581169160208101359091169060400135613d19565b34801561162e57600080fd5b50611637613da0565b604051808060200180602001806020018c81526020018b81526020018a815260200189815260200188815260200187815260200186815260200185815260200184810384528f818151815260200191508051906020019080838360005b838110156116ac578181015183820152602001611694565b50505050905090810190601f1680156116d95780820380516001836020036101000a031916815260200191505b5084810383528e818151815260200191508051906020019080838360005b8381101561170f5781810151838201526020016116f7565b50505050905090810190601f16801561173c5780820380516001836020036101000a031916815260200191505b5084810382528d5181528d516020918201918f019080838360005b8381101561176f578181015183820152602001611757565b50505050905090810190601f16801561179c5780820380516001836020036101000a031916815260200191505b509e50505050505050505050505050505060405180910390f35b3480156117c257600080fd5b5061066b613fd1565b3480156117d757600080fd5b5061066b600480360360208110156117ee57600080fd5b5035614047565b34801561180157600080fd5b5061181f6004803603602081101561181857600080fd5b50356140be565b6040805160ff9092168252519081900360200190f35b34801561184157600080fd5b5061066b6004803603604081101561185857600080fd5b506001600160a01b0381351690602001356140d3565b34801561187a57600080fd5b50610706614140565b34801561188f57600080fd5b5061066b600480360360808110156118a657600080fd5b506001600160a01b03813581169160208101359091169060408101359060600135614146565b3480156118d857600080fd5b50611174600480360360a08110156118ef57600080fd5b6001600160a01b03823581169260208101359091169160408201359160608101359181019060a08101608082013564010000000081111561192f57600080fd5b82018360208201111561194157600080fd5b8035906020019184600183028401116401000000008311171561196357600080fd5b91908080601f0160208091040260200160405190810160405280939291908181526020018383808284376000920191909152509295506141e8945050505050565b3480156119b057600080fd5b50610706614212565b3480156119c557600080fd5b50610c06614218565b3480156119da57600080fd5b506119f8600480360360208110156119f157600080fd5b5035614278565b604080516001600160a01b03988916815296909716602087015260ff9094168587015260608501929092526080840152151560a0830152151560c082015290519081900360e00190f35b348015611a4e57600080fd5b506105cf60048036036020811015611a6557600080fd5b50356001600160a01b031661433e565b348015611a8157600080fd5b5061066b60048036036020811015611a9857600080fd5b503561434b565b348015611aab57600080fd5b506107066143c2565b7fffffffff000000000000000000000000000000000000000000000000000000001660009081526029602052604090205460ff1690565b6000908152601260209081526040808320546013835281842054601490935292205460ff9092169290916001600160a01b031690565b611b2c6015826143c8565b15611b3c57611b3c601582614423565b50565b600090815260208052604090205460ff1690565b3360009081526024602052604090205460ff16151560011480611b8057506002546001600160a01b031633145b80611b8a57503033145b611bc55760405162461bcd60e51b81526004018080602001828103825260288152602001806147216028913960400191505060405180910390fd5b601991909155601855565b60115462010000900460ff1690565b604080517f01356b6d00000000000000000000000000000000000000000000000000000000815260006004820181905260248201849052915173__$8228317518e9daeef1bbbb17c026e269fd$__916301356b6d916044808301926020929190829003018186803b158015611c5357600080fd5b505af4158015611c67573d6000803e3d6000fd5b505050506040513d6020811015611c7d57600080fd5b505192915050565b604080517fb9f052740000000000000000000000000000000000000000000000000000000081526000600482018190526001600160a01b03808616602484015284166044830152915173__$8228317518e9daeef1bbbb17c026e269fd$__9263b9f052749260648082019391829003018186803b158015611d0557600080fd5b505af4158015611d19573d6000803e3d6000fd5b505050505050565b611d2c6015826143c8565b611b3c57611b3c601582614562565b3360009081526024602052604090205460ff16151560011480611d6857506002546001600160a01b031633145b80611d7257503033145b611dad5760405162461bcd60e51b81526004018080602001828103825260288152602001806147216028913960400191505060405180910390fd5b604080517fc4d13b4c000000000000000000000000000000000000000000000000000000008152600060048201819052602482018b90526001600160a01b03808b1660448401528916606483015260ff8816608483015260a4820187905260c4820186905284151560e4830152831515610104830152915173__$8228317518e9daeef1bbbb17c026e269fd$__9263c4d13b4c926101248082019391829003018186803b158015611e5d57600080fd5b505af4158015611e71573d6000803e3d6000fd5b505050505050505050505050565b3360009081526024602052604090205460ff16151560011480611eac57506002546001600160a01b031633145b80611eb657503033145b611ef15760405162461bcd60e51b81526004018080602001828103825260288152602001806147216028913960400191505060405180910390fd5b60118054911515620100000262ff000019909216919091179055565b60105490565b600080600080600080600073__$8228317518e9daeef1bbbb17c026e269fd$__6301356b6d9091896040518363ffffffff1660e01b8152600401808381526020018281526020019250505060206040518083038186803b158015611f7657600080fd5b505af4158015611f8a573d6000803e3d6000fd5b505050506040513d6020811015611fa057600080fd5b50516040805163766a922760e11b815260006004820152602481018a9052905191975073__$8228317518e9daeef1bbbb17c026e269fd$__9163ecd5244e91604480820192602092909190829003018186803b158015611fff57600080fd5b505af4158015612013573d6000803e3d6000fd5b505050506040513d602081101561202957600080fd5b505160408051635ca33bed60e11b815260006004820152602481018a9052905191965073__$8228317518e9daeef1bbbb17c026e269fd$__9163b94677da91604480820192602092909190829003018186803b15801561208857600080fd5b505af415801561209c573d6000803e3d6000fd5b505050506040513d60208110156120b257600080fd5b50516040805163dc1f0f5360e01b815260006004820152602481018a9052905191955073__$8228317518e9daeef1bbbb17c026e269fd$__9163dc1f0f5391604480820192602092909190829003018186803b15801561211157600080fd5b505af4158015612125573d6000803e3d6000fd5b505050506040513d602081101561213b57600080fd5b5051604080516376e455e160e01b815260006004820152602481018a9052905191945073__$8228317518e9daeef1bbbb17c026e269fd$__916376e455e191604480820192602092909190829003018186803b15801561219a57600080fd5b505af41580156121ae573d6000803e3d6000fd5b505050506040513d60208110156121c457600080fd5b5051601954969895975093959294915050565b6040805163406515d360e11b81526000600482018190526024820185905260448201849052915173__$8228317518e9daeef1bbbb17c026e269fd$__926380ca2ba69260648082019391829003018186803b158015611d0557600080fd5b6011546301000000900460ff1690565b3360009081526024602052604090205460ff1615156001148061227257506002546001600160a01b031633145b8061227c57503033145b6122b75760405162461bcd60e51b81526004018080602001828103825260288152602001806147216028913960400191505060405180910390fd5b611b3c602782614562565b3360009081526024602052604090205460ff161515600114806122ef57506002546001600160a01b031633145b806122f957503033145b6123345760405162461bcd60e51b81526004018080602001828103825260288152602001806147216028913960400191505060405180910390fd5b601180549115156101000261ff0019909216919091179055565b600061235a60276145f5565b905090565b604080517f88d496a40000000000000000000000000000000000000000000000000000000081526000600482018190526001600160a01b038516602483015260448201849052915173__$8228317518e9daeef1bbbb17c026e269fd$__926388d496a49260648082019391829003018186803b158015611d0557600080fd5b601154610100900460ff1690565b601a5490565b60115460ff1690565b60006124086027836145fc565b92915050565b604080517fe5fca79a00000000000000000000000000000000000000000000000000000000815260006004820181905233602483015234604483015260648201849052915173__$8228317518e9daeef1bbbb17c026e269fd$__9263e5fca79a9260848082019391829003018186803b15801561248a57600080fd5b505af415801561249e573d6000803e3d6000fd5b5050505050565b604080516357f57ecd60e11b81526000600482018190526001600160a01b03861660248301526044820185905260648201849052915173__$8228317518e9daeef1bbbb17c026e269fd$__9263afeafd9a9260848082019391829003018186803b15801561251257600080fd5b505af4158015612526573d6000803e3d6000fd5b50505050505050565b3360009081526024602052604090205460ff1615156001148061255c57506002546001600160a01b031633145b8061256657503033145b6125a15760405162461bcd60e51b81526004018080602001828103825260288152602001806147216028913960400191505060405180910390fd5b604080517fc007855c0000000000000000000000000000000000000000000000000000000081526000600482018190526001600160a01b03808b1660248401528916604483015260ff881660648301526084820187905260a4820186905284151560c483015283151560e4830152915173__$8228317518e9daeef1bbbb17c026e269fd$__9263c007855c926101048082019391829003018186803b15801561264957600080fd5b505af415801561265d573d6000803e3d6000fd5b5050505050505050505050565b6040805163406515d360e11b81526000600482018190526024820184905260016044830152915173__$8228317518e9daeef1bbbb17c026e269fd$__926380ca2ba69260648082019391829003018186803b15801561248a57600080fd5b60098054604080516020601f60026000196101006001881615020190951694909404938401819004810282018101909252828152606093909290918301828280156127545780601f1061272957610100808354040283529160200191612754565b820191906000526020600020905b81548152906001019060200180831161273757829003601f168201915b5050505050905090565b604080517f401348c90000000000000000000000000000000000000000000000000000000081526000600482018190526001600160a01b03861660248301526044820185905260648201849052915173__$8228317518e9daeef1bbbb17c026e269fd$__9263401348c99260848082019391829003018186803b15801561251257600080fd5b3360009081526024602052604090205460ff1615156001148061281157506002546001600160a01b031633145b8061281b57503033145b6128565760405162461bcd60e51b81526004018080602001828103825260288152602001806147216028913960400191505060405180910390fd5b506011805460ff19166001179055565b6060600060170180548060200260200160405190810160405280929190818152602001828054801561275457602002820191906000526020600020905b8154815260200190600101908083116128a3575050505050905090565b60009081526013602052604090205490565b6040805163766a922760e11b815260006004820181905260248201849052915173__$8228317518e9daeef1bbbb17c026e269fd$__9163ecd5244e916044808301926020929190829003018186803b158015611c5357600080fd5b60009081526021602052604090205490565b604080517f48126f4b000000000000000000000000000000000000000000000000000000008152600060048201819052602482018590528315156044830152915173__$8228317518e9daeef1bbbb17c026e269fd$__926348126f4b9260648082019391829003018186803b158015611d0557600080fd5b60008073__$8228317518e9daeef1bbbb17c026e269fd$__63164cd8c290916040518263ffffffff1660e01b81526004018082815260200191505060206040518083038186803b158015612a0a57600080fd5b505af4158015612a1e573d6000803e3d6000fd5b505050506040513d6020811015612a3457600080fd5b5051905090565b3360009081526024602052604090205460ff16151560011480612a6857506002546001600160a01b031633145b80612a7257503033145b612aad5760405162461bcd60e51b81526004018080602001828103825260288152602001806147216028913960400191505060405180910390fd5b611b3c602782614423565b3360009081526024602052604090205460ff16151560011480612ae557506002546001600160a01b031633145b80612aef57503033145b612b2a5760405162461bcd60e51b81526004018080602001828103825260288152602001806147216028913960400191505060405180910390fd5b8051612b3d906009906020840190614629565b5050565b336000908152602460205260409020805460ff19166001179055600380546001600160a01b0319166001600160a01b0392909216919091179055565b6040805163dc1f0f5360e01b815260006004820181905260248201849052915173__$8228317518e9daeef1bbbb17c026e269fd$__9163dc1f0f53916044808301926020929190829003018186803b158015611c5357600080fd5b60078054604080516020601f60026000196101006001881615020190951694909404938401819004810282018101909252828152606093909290918301828280156127545780601f1061272957610100808354040283529160200191612754565b60195490565b3360009081526024602052604090205460ff16151560011480612c6157503033145b612c9c5760405162461bcd60e51b81526004018080602001828103825260288152602001806147216028913960400191505060405180910390fd5b6001600160a01b03166000908152602460205260409020805460ff19166001179055565b60408051635ca33bed60e11b815260006004820181905260248201849052915173__$8228317518e9daeef1bbbb17c026e269fd$__9163b94677da916044808301926020929190829003018186803b158015611c5357600080fd5b60065460ff1690565b600f5490565b60008211612d7f576040805162461bcd60e51b815260206004820152601160248201527f494e56414c49445f544f4b454e48415348000000000000000000000000000000604482015290519081900360640190fd5b6001600160a01b038416612dda576040805162461bcd60e51b815260206004820152600c60248201527f494e56414c49445f504f4f4c0000000000000000000000000000000000000000604482015290519081900360640190fd5b6001600160a01b038316612e35576040805162461bcd60e51b815260206004820152600d60248201527f494e56414c49445f544f4b454e00000000000000000000000000000000000000604482015290519081900360640190fd5b6001600160a01b038116612e90576040805162461bcd60e51b815260206004820152601160248201527f494e56414c49445f524543495049454e54000000000000000000000000000000604482015290519081900360640190fd5b612e9b6015846143c8565b1515600114612ef1576040805162461bcd60e51b815260206004820152601360248201527f494e56414c49445f544f4b454e534f5552434500000000000000000000000000604482015290519081900360640190fd5b600082815260208052604090205460ff1615612f54576040805162461bcd60e51b815260206004820152601060248201527f414c52454144595f494d504f5254454400000000000000000000000000000000604482015290519081900360640190fd5b6000846001600160a01b03166395d89b416040518163ffffffff1660e01b815260040160006040518083038186803b158015612f8f57600080fd5b505afa158015612fa3573d6000803e3d6000fd5b505050506040513d6000823e601f3d908101601f191682016040526020811015612fcc57600080fd5b8101908080516040519392919084640100000000821115612fec57600080fd5b90830190602082018581111561300157600080fd5b825164010000000081118282018810171561301b57600080fd5b82525081516020918201929091019080838360005b83811015613048578181015183820152602001613030565b50505050905090810190601f1680156130755780820380516001836020036101000a031916815260200191505b506040525050506040516020018082805190602001908083835b602083106130ae5780518252601f19909201916020918201910161308f565b6001836020036101000a038019825116818451168082178552505050505050905001915050604051602081830303815290604052805190602001209050600080600701604051602001808280546001816001161561010002031660029004801561314f5780601f1061312d57610100808354040283529182019161314f565b820191906000526020600020905b81548152906001019060200180831161313b575b50509150506040516020818303038152906040528051906020012090508082146131c0576040805162461bcd60e51b815260206004820152601060248201527f494e56414c49445f504f4f4c4841534800000000000000000000000000000000604482015290519081900360640190fd5b6000866001600160a01b031663e6c3b1f6866040518263ffffffff1660e01b81526004018082815260200191505060206040518083038186803b15801561320657600080fd5b505afa15801561321a573d6000803e3d6000fd5b505050506040513d602081101561323057600080fd5b50519050600260ff82161461328c576040805162461bcd60e51b815260206004820152601160248201527f494e56414c49445f544f4b454e54595045000000000000000000000000000000604482015290519081900360640190fd5b6000866001600160a01b031662fdd58e86886040518363ffffffff1660e01b815260040180836001600160a01b031681526020018281526020019250505060206040518083038186803b1580156132e257600080fd5b505afa1580156132f6573d6000803e3d6000fd5b505050506040513d602081101561330c57600080fd5b5051604080517f7dcb0e5f0000000000000000000000000000000000000000000000000000000081526004810189905290519192506000916001600160a01b038b1691637dcb0e5f916024808301926020929190829003018186803b15801561337457600080fd5b505afa158015613388573d6000803e3d6000fd5b505050506040513d602081101561339e57600080fd5b50519050811561365a57600154604080517f156e29f60000000000000000000000000000000000000000000000000000000081526001600160a01b038981166004830152602482018b9052604482018690529151919092169163156e29f691606480830192600092919082900301818387803b15801561341d57600080fd5b505af1158015613431573d6000803e3d6000fd5b5050600154604080517f7c881076000000000000000000000000000000000000000000000000000000008152600481018c90526002602482015230604482015290516001600160a01b039092169350637c881076925060648082019260009290919082900301818387803b1580156134a857600080fd5b505af11580156134bc573d6000803e3d6000fd5b5050505060026000601201600089815260200190815260200160002060006101000a81548160ff021916908360ff160217905550806000601301600089815260200190815260200160002081905550876000601401600089815260200190815260200160002060006101000a8154816001600160a01b0302191690836001600160a01b0316021790555060016000602001600089815260200190815260200160002060006101000a81548160ff021916908315150217905550600060020160009054906101000a90046001600160a01b03166001600160a01b031663634b5b7d336040518263ffffffff1660e01b815260040180826001600160a01b03168152602001915050602060405180830381600087803b1580156135dc57600080fd5b505af11580156135f0573d6000803e3d6000fd5b505050506040513d602081101561360657600080fd5b5050604080516001600160a01b038b811682528a16602082015280820184905290518891309133917ff5b54e798ff7f434ed773aa633e6a9f82ef9ae465e46042e1983f29bf1fd69ea919081900360600190a45b505050505050505050565b6001600160a01b031660009081526024602052604090205460ff1690565b60008073__$8228317518e9daeef1bbbb17c026e269fd$__6333c13e0d90916040518263ffffffff1660e01b81526004018082815260200191505060206040518083038186803b158015612a0a57600080fd5b7fbc197c810000000000000000000000000000000000000000000000000000000095945050505050565b336000908152602460205260409020805460ff19166001179055600280546001600160a01b0319166001600160a01b0392909216919091179055565b503090565b3360009081526024602052604090205460ff1615156001148061376e57506002546001600160a01b031633145b8061377857503033145b6137b35760405162461bcd60e51b81526004018080602001828103825260288152602001806147216028913960400191505060405180910390fd5b6011805482919063ff000000191663010000008360028111156137d257fe5b021790555050565b604080516376e455e160e01b815260006004820181905260248201849052915173__$8228317518e9daeef1bbbb17c026e269fd$__916376e455e1916044808301926020929190829003018186803b158015611c5357600080fd5b3360009081526024602052604090205460ff1615156001148061386257506002546001600160a01b031633145b8061386c57503033145b6138a75760405162461bcd60e51b81526004018080602001828103825260288152602001806147216028913960400191505060405180910390fd5b601055565b60185490565b3360009081526024602052604090205460ff161515600114806138df57506002546001600160a01b031633145b806138e957503033145b6139245760405162461bcd60e51b81526004018080602001828103825260288152602001806147216028913960400191505060405180910390fd5b8051612b3d9060179060208401906146a7565b336000908152602460205260409020805460ff19166001179055600180546001600160a01b0319166001600160a01b0392909216919091179055565b600080601701828154811061398457fe5b90600052602060002001549050919050565b60008073__$8228317518e9daeef1bbbb17c026e269fd$__63828c7b7290916040518263ffffffff1660e01b81526004018082815260200191505060206040518083038186803b158015612a0a57600080fd5b3360009081526024602052604090205460ff16151560011480613a1657506002546001600160a01b031633145b80613a2057503033145b613a5b5760405162461bcd60e51b81526004018080602001828103825260288152602001806147216028913960400191505060405180910390fd5b6006805460ff1916911515919091179055565b336000908152602460205260409020805460ff19166001179055600480546001600160a01b0319166001600160a01b0392909216919091179055565b600654601954601854601a54604080517f164cd8c2000000000000000000000000000000000000000000000000000000008152600060048201819052915160ff9096169582918291829173__$8228317518e9daeef1bbbb17c026e269fd$__9163164cd8c291602480820192602092909190829003018186803b158015613b3057600080fd5b505af4158015613b44573d6000803e3d6000fd5b505050506040513d6020811015613b5a57600080fd5b5051604080517f33c13e0d00000000000000000000000000000000000000000000000000000000815260006004820152905191955073__$8228317518e9daeef1bbbb17c026e269fd$__916333c13e0d91602480820192602092909190829003018186803b158015613bcb57600080fd5b505af4158015613bdf573d6000803e3d6000fd5b505050506040513d6020811015613bf557600080fd5b5051601954601854999a9899979896979596919590945092509050565b3360009081526024602052604090205460ff16151560011480613c3f57506002546001600160a01b031633145b80613c4957503033145b613c845760405162461bcd60e51b81526004018080602001828103825260288152602001806147216028913960400191505060405180910390fd5b600080546001600160a01b031916301790558751613ca99060079060208b0190614629565b508651613cbd9060089060208a0190614629565b50600a869055600b859055600c849055600d839055600e8290556006805460ff191660011790556011805462ff00001916620100001790556001600160a01b03811615613d0f57613d0f602782614562565b5050505050505050565b604080517fe5932f420000000000000000000000000000000000000000000000000000000081526000600482018190526001600160a01b0380871660248401528516604483015260648201849052915173__$8228317518e9daeef1bbbb17c026e269fd$__9263e5932f429260848082019391829003018186803b15801561251257600080fd5b60078054604080516020601f60026000196101006001881615020190951694909404938401819004810282018101909252828152606093849384936000938493849384938493849384938493830182828015613e3d5780601f10613e1257610100808354040283529160200191613e3d565b820191906000526020600020905b815481529060010190602001808311613e2057829003601f168201915b50505050509a5060006008018054600181600116156101000203166002900480601f016020809104026020016040519081016040528092919081815260200182805460018160011615610100020316600290048015613edd5780601f10613eb257610100808354040283529160200191613edd565b820191906000526020600020905b815481529060010190602001808311613ec057829003601f168201915b5050505050995060006009018054600181600116156101000203166002900480601f016020809104026020016040519081016040528092919081815260200182805460018160011615610100020316600290048015613f7d5780601f10613f5257610100808354040283529160200191613f7d565b820191906000526020600020905b815481529060010190602001808311613f6057829003601f168201915b5050505050985060006005015497506000600a015496506000600b015495506000600c015494506000600d015493506000600e015492506000600f015491506000601001549050909192939495969798999a565b3360009081526024602052604090205460ff16151560011480613ff357503033145b61402e5760405162461bcd60e51b81526004018080602001828103825260288152602001806147216028913960400191505060405180910390fd5b336000908152602460205260409020805460ff19169055565b3360009081526024602052604090205460ff1615156001148061407457506002546001600160a01b031633145b8061407e57503033145b6140b95760405162461bcd60e51b81526004018080602001828103825260288152602001806147216028913960400191505060405180910390fd5b600555565b60009081526012602052604090205460ff1690565b604080516357f57ecd60e11b81526000600482018190526001600160a01b03851660248301526044820184905260016064830152915173__$8228317518e9daeef1bbbb17c026e269fd$__9263afeafd9a9260848082019391829003018186803b158015611d0557600080fd5b60055490565b604080517f210dd8100000000000000000000000000000000000000000000000000000000081526000600482018190526001600160a01b038088166024840152861660448301526064820185905260848201849052915173__$8228317518e9daeef1bbbb17c026e269fd$__9263210dd8109260a48082019391829003018186803b1580156141d457600080fd5b505af4158015613d0f573d6000803e3d6000fd5b7ff23a6e610000000000000000000000000000000000000000000000000000000095945050505050565b60175490565b60168054604080516020808402820181019092528281526060939092909183018282801561275457602002820191906000526020600020905b81546001600160a01b03168152600190910190602001808311614251575050505050905090565b60008060008060008060008073__$8228317518e9daeef1bbbb17c026e269fd$__635b68e93c90918a6040518363ffffffff1660e01b8152600401808381526020018281526020019250505060e06040518083038186803b1580156142dc57600080fd5b505af41580156142f0573d6000803e3d6000fd5b505050506040513d60e081101561430657600080fd5b508051602082015160408301516060840151608085015160a086015160c090960151949e939d50919b50995097509195509350915050565b60006124086027836143c8565b3360009081526024602052604090205460ff1615156001148061437857506002546001600160a01b031633145b8061438257503033145b6143bd5760405162461bcd60e51b81526004018080602001828103825260288152602001806147216028913960400191505060405180910390fd5b600f55565b600a5490565b60018201546000906143dc57506000612408565b6001600160a01b038216600081815260208590526040902054600185018054909190811061440657fe5b6000918252602090912001546001600160a01b0316149392505050565b61442d82826143c8565b6144685760405162461bcd60e51b815260040180806020018281038252602a8152602001806146f7602a913960400191505060405180910390fd5b60006001614475846145f5565b6001600160a01b03841660009081526020869052604090205491900391508082146145165760008460010183815481106144ab57fe5b60009182526020808320909101546001600160a01b03168083529087905260409091208390556001860180549192508291849081106144e657fe5b9060005260206000200160006101000a8154816001600160a01b0302191690836001600160a01b03160217905550505b6001600160a01b038316600090815260208590526040812055600184018054600019810190811061454357fe5b600091825260209091200180546001600160a01b031916905550505050565b61456c82826143c8565b156145a85760405162461bcd60e51b815260040180806020018281038252602a815260200180614749602a913960400191505060405180910390fd5b6001828101805491820181556000818152602080822090930180546001600160a01b0319166001600160a01b03959095169485179055905492815292905260409091206000199091019055565b6001015490565b600082600101828154811061460d57fe5b6000918252602090912001546001600160a01b03169392505050565b828054600181600116156101000203166002900490600052602060002090601f016020900481019282601f1061466a57805160ff1916838001178555614697565b82800160010185558215614697579182015b8281111561469757825182559160200191906001019061467c565b506146a39291506146e1565b5090565b828054828255906000526020600020908101928215614697579160200282018281111561469757825182559160200191906001019061467c565b5b808211156146a357600081556001016146e256fe416464726573735365743a206b657920646f6573206e6f7420657869737420696e20746865207365742e436f6e74726f6c6c61626c653a2063616c6c6572206973206e6f74206120636f6e74726f6c6c6572416464726573735365743a206b657920616c72656164792065786973747320696e20746865207365742ea26469706673582212203cd5fbbbb252714b7c3d8f6ca7a861f57843422512bd39becb6ce76519c23fea64736f6c63430007030033436f6e74726f6c6c61626c653a2063616c6c6572206973206e6f74206120636f6e74726f6c6c6572a2646970667358221220006d37498d4576815e5044d3eacbbe8a93890e580f444d389accd606bb096b3f64736f6c63430007030033",
  "libraries": {
    "GovernanceLib": "0x7Afa6bC2f4CC206C6804E3ED065d71915deF4129",
    "Strings": "0xC6337eDc7C486a305C0FbAb381dBC7ad149bd594",
    "SafeMath": "0xcF5D18A2f3cED179B92DF335ae75ad849Cd30dBE",
    "AddressSet": "0x0deFb695B6A1b5165134DEca1CAeC547501Bf44a",
    "UInt256Set": "0x64320ddcD96B3f09edd9032789089E4fbeD49D4a",
    "Create2": "0xFFc1Da7951087B961BBb26EAf5a1d21f76788F96",
    "ProposalsLib": "0x8EAc999929aB622321DC084B4DD2AB17C8c7A36D",
    "ComplexPoolLib": "0x6e44bbA347af17424C7E3146b78790Cd59818797",
    "WrappedTokenLib": "0x816A69A1E851B9A460806483eE0129edDA8E4390",
    "Unigem20Library": "0x7B180Fb45d60Fd97b57dfec2c10ca4c22dF50ee3"
  },
  "devdoc": {
    "kind": "dev",
    "methods": {
      "addController(address)": {
        "details": "Add an address allowed to control this contract"
      },
      "addCustomNFTGemPool(address,string,string)": {
        "details": "add an existing gem pool to factory(for migrations)"
      },
      "allNFTGemPools(uint256)": {
        "details": "get the quantized token for this"
      },
      "allNFTGemPoolsLength()": {
        "details": "number of quantized addresses"
      },
      "createCustomNFTGemPool(bytes,string,string)": {
        "details": "deploy a new erc20 token using create2"
      },
      "createNFTGemPool(string,string,uint256,uint256,uint256,uint256,uint256,address)": {
        "details": "deploy a new erc20 token using create2"
      },
      "getNFTGemPool(uint256)": {
        "details": "get the quantized token for this"
      },
      "isController(address)": {
        "details": "Check if this address is a controller"
      },
      "nftGemPools()": {
        "details": "get the quantized token for this"
      },
      "relinquishControl()": {
        "details": "Check if this address is a controller"
      },
      "removeGemPool(uint256)": {
        "details": "remove a gem pool from the list using its symbol hash"
      },
      "removeGemPoolAt(uint256)": {
        "details": "remove a gem pool from the list using its index into pools array"
      }
    },
    "version": 1
  },
  "userdoc": {
    "kind": "user",
    "methods": {},
    "version": 1
  },
  "storageLayout": {
    "storage": [
      {
        "astId": 10169,
        "contract": "src/factories/NFTGemPoolFactory.sol:NFTGemPoolFactory",
        "label": "_controllers",
        "offset": 0,
        "slot": "0",
        "type": "t_mapping(t_address,t_bool)"
      },
      {
        "astId": 15839,
        "contract": "src/factories/NFTGemPoolFactory.sol:NFTGemPoolFactory",
        "label": "operator",
        "offset": 0,
        "slot": "1",
        "type": "t_address"
      },
      {
        "astId": 15843,
        "contract": "src/factories/NFTGemPoolFactory.sol:NFTGemPoolFactory",
        "label": "_getNFTGemPool",
        "offset": 0,
        "slot": "2",
        "type": "t_mapping(t_uint256,t_address)"
      },
      {
        "astId": 15846,
        "contract": "src/factories/NFTGemPoolFactory.sol:NFTGemPoolFactory",
        "label": "_allNFTGemPools",
        "offset": 0,
        "slot": "3",
        "type": "t_array(t_address)dyn_storage"
      }
    ],
    "types": {
      "t_address": {
        "encoding": "inplace",
        "label": "address",
        "numberOfBytes": "20"
      },
      "t_array(t_address)dyn_storage": {
        "base": "t_address",
        "encoding": "dynamic_array",
        "label": "address[]",
        "numberOfBytes": "32"
      },
      "t_bool": {
        "encoding": "inplace",
        "label": "bool",
        "numberOfBytes": "1"
      },
      "t_mapping(t_address,t_bool)": {
        "encoding": "mapping",
        "key": "t_address",
        "label": "mapping(address => bool)",
        "numberOfBytes": "32",
        "value": "t_bool"
      },
      "t_mapping(t_uint256,t_address)": {
        "encoding": "mapping",
        "key": "t_uint256",
        "label": "mapping(uint256 => address)",
        "numberOfBytes": "32",
        "value": "t_address"
      },
      "t_uint256": {
        "encoding": "inplace",
        "label": "uint256",
        "numberOfBytes": "32"
      }
    }
  }
}