{
  "address": "0x5feD47F704002E7eaFdBb22e32D99c01e23EB984",
  "abi": [
    {
      "inputs": [],
      "stateMutability": "nonpayable",
      "type": "constructor"
    },
    {
      "anonymous": false,
      "inputs": [
        {
          "indexed": true,
          "internalType": "address",
          "name": "contractAddress",
          "type": "address"
        },
        {
          "indexed": true,
          "internalType": "address",
          "name": "controllerAddress",
          "type": "address"
        }
      ],
      "name": "ControllerAdded",
      "type": "event"
    },
    {
      "anonymous": false,
      "inputs": [
        {
          "indexed": true,
          "internalType": "address",
          "name": "contractAddress",
          "type": "address"
        },
        {
          "indexed": true,
          "internalType": "address",
          "name": "controllerAddress",
          "type": "address"
        }
      ],
      "name": "ControllerRemoved",
      "type": "event"
    },
    {
      "anonymous": false,
      "inputs": [
        {
          "indexed": true,
          "internalType": "address",
          "name": "operator",
          "type": "address"
        },
        {
          "indexed": false,
          "internalType": "uint256",
          "name": "oldValue",
          "type": "uint256"
        },
        {
          "indexed": false,
          "internalType": "uint256",
          "name": "value",
          "type": "uint256"
        }
      ],
      "name": "DefaultFeeDivisorChanged",
      "type": "event"
    },
    {
      "anonymous": false,
      "inputs": [
        {
          "indexed": true,
          "internalType": "address",
          "name": "manager",
          "type": "address"
        },
        {
          "indexed": false,
          "internalType": "address",
          "name": "sender",
          "type": "address"
        },
        {
          "indexed": false,
          "internalType": "uint256",
          "name": "value",
          "type": "uint256"
        }
      ],
      "name": "ETHReceived",
      "type": "event"
    },
    {
      "anonymous": false,
      "inputs": [
        {
          "indexed": true,
          "internalType": "address",
          "name": "operator",
          "type": "address"
        },
        {
          "indexed": true,
          "internalType": "address",
          "name": "token",
          "type": "address"
        },
        {
          "indexed": false,
          "internalType": "uint256",
          "name": "oldValue",
          "type": "uint256"
        },
        {
          "indexed": false,
          "internalType": "uint256",
          "name": "value",
          "type": "uint256"
        }
      ],
      "name": "FeeDivisorChanged",
      "type": "event"
    },
    {
      "anonymous": false,
      "inputs": [
        {
          "indexed": true,
          "internalType": "address",
          "name": "manager",
          "type": "address"
        },
        {
          "indexed": false,
          "internalType": "uint256",
          "name": "oldValue",
          "type": "uint256"
        },
        {
          "indexed": false,
          "internalType": "uint256",
          "name": "value",
          "type": "uint256"
        }
      ],
      "name": "LiquidityChanged",
      "type": "event"
    },
    {
      "inputs": [
        {
          "internalType": "address",
          "name": "_controller",
          "type": "address"
        }
      ],
      "name": "addController",
      "outputs": [],
      "stateMutability": "nonpayable",
      "type": "function"
    },
    {
      "inputs": [
        {
          "internalType": "address",
          "name": "token",
          "type": "address"
        }
      ],
      "name": "balanceOf",
      "outputs": [
        {
          "internalType": "uint256",
          "name": "",
          "type": "uint256"
        }
      ],
      "stateMutability": "view",
      "type": "function"
    },
    {
      "inputs": [],
      "name": "defaultFeeDivisor",
      "outputs": [
        {
          "internalType": "uint256",
          "name": "multiplier",
          "type": "uint256"
        }
      ],
      "stateMutability": "view",
      "type": "function"
    },
    {
      "inputs": [],
      "name": "defaultLiquidity",
      "outputs": [
        {
          "internalType": "uint256",
          "name": "multiplier",
          "type": "uint256"
        }
      ],
      "stateMutability": "view",
      "type": "function"
    },
    {
      "inputs": [],
      "name": "ethBalanceOf",
      "outputs": [
        {
          "internalType": "uint256",
          "name": "",
          "type": "uint256"
        }
      ],
      "stateMutability": "view",
      "type": "function"
    },
    {
      "inputs": [
        {
          "internalType": "address",
          "name": "token",
          "type": "address"
        }
      ],
      "name": "feeDivisor",
      "outputs": [
        {
          "internalType": "uint256",
          "name": "divisor",
          "type": "uint256"
        }
      ],
      "stateMutability": "view",
      "type": "function"
    },
    {
      "inputs": [
        {
          "internalType": "address",
          "name": "_address",
          "type": "address"
        }
      ],
      "name": "isController",
      "outputs": [
        {
          "internalType": "bool",
          "name": "allowed",
          "type": "bool"
        }
      ],
      "stateMutability": "view",
      "type": "function"
    },
    {
      "inputs": [
        {
          "internalType": "address",
          "name": "token",
          "type": "address"
        }
      ],
      "name": "liquidity",
      "outputs": [
        {
          "internalType": "uint256",
          "name": "",
          "type": "uint256"
        }
      ],
      "stateMutability": "view",
      "type": "function"
    },
    {
      "inputs": [],
      "name": "relinquishControl",
      "outputs": [],
      "stateMutability": "view",
      "type": "function"
    },
    {
      "inputs": [
        {
          "internalType": "uint256",
          "name": "_feeDivisor",
          "type": "uint256"
        }
      ],
      "name": "setDefaultFeeDivisor",
      "outputs": [
        {
          "internalType": "uint256",
          "name": "oldDivisor",
          "type": "uint256"
        }
      ],
      "stateMutability": "nonpayable",
      "type": "function"
    },
    {
      "inputs": [
        {
          "internalType": "uint256",
          "name": "_liquidityMult",
          "type": "uint256"
        }
      ],
      "name": "setDefaultLiquidity",
      "outputs": [
        {
          "internalType": "uint256",
          "name": "oldLiquidity",
          "type": "uint256"
        }
      ],
      "stateMutability": "nonpayable",
      "type": "function"
    },
    {
      "inputs": [
        {
          "internalType": "address",
          "name": "token",
          "type": "address"
        },
        {
          "internalType": "uint256",
          "name": "_feeDivisor",
          "type": "uint256"
        }
      ],
      "name": "setFeeDivisor",
      "outputs": [
        {
          "internalType": "uint256",
          "name": "oldDivisor",
          "type": "uint256"
        }
      ],
      "stateMutability": "nonpayable",
      "type": "function"
    },
    {
      "inputs": [
        {
          "internalType": "address payable",
          "name": "recipient",
          "type": "address"
        },
        {
          "internalType": "uint256",
          "name": "amount",
          "type": "uint256"
        }
      ],
      "name": "transferEth",
      "outputs": [],
      "stateMutability": "nonpayable",
      "type": "function"
    },
    {
      "inputs": [
        {
          "internalType": "address",
          "name": "token",
          "type": "address"
        },
        {
          "internalType": "address",
          "name": "recipient",
          "type": "address"
        },
        {
          "internalType": "uint256",
          "name": "amount",
          "type": "uint256"
        }
      ],
      "name": "transferToken",
      "outputs": [],
      "stateMutability": "nonpayable",
      "type": "function"
    },
    {
      "stateMutability": "payable",
      "type": "receive"
    }
  ],
  "transactionHash": "0x19b53e272e508a6dc1bbfefdef2383285c0542886c511049aea9616611094b74",
  "args": [],
  "solcInputHash": "1beb6fd726d52d0f56b2a930336b25bc",
  "bytecode": "0x608060405234801561001057600080fd5b5061001a3361002a565b6107d0600355603260055561004e565b6001600160a01b03166000908152602081905260409020805460ff19166001179055565b610b9c8061005d6000396000f3fe6080604052600436106100e15760003560e01c8063b429afeb1161007f578063e1c28bef11610059578063e1c28bef146102ad578063e9bb84c2146102c2578063eee1ad80146102fb578063f5537ede1461032e576100e8565b8063b429afeb1461021e578063b8c876b114610265578063c521115414610298576100e8565b80638afe4280116100bb5780638afe428014610171578063a51834ff1461019b578063a7fc7a07146101d4578063b2ae17a514610209576100e8565b80630415c9f4146100ed5780636b4be0b91461012957806370a082311461013e576100e8565b366100e857005b600080fd5b3480156100f957600080fd5b506101176004803603602081101561011057600080fd5b5035610371565b60408051918252519081900360200190f35b34801561013557600080fd5b50610117610478565b34801561014a57600080fd5b506101176004803603602081101561016157600080fd5b50356001600160a01b031661047c565b34801561017d57600080fd5b506101176004803603602081101561019457600080fd5b50356104fd565b3480156101a757600080fd5b50610117600480360360408110156101be57600080fd5b506001600160a01b038135169060200135610604565b3480156101e057600080fd5b50610207600480360360208110156101f757600080fd5b50356001600160a01b0316610719565b005b34801561021557600080fd5b5061011761079a565b34801561022a57600080fd5b506102516004803603602081101561024157600080fd5b50356001600160a01b03166107a0565b604080519115158252519081900360200190f35b34801561027157600080fd5b506101176004803603602081101561028857600080fd5b50356001600160a01b03166107be565b3480156102a457600080fd5b50610117610803565b3480156102b957600080fd5b50610207610809565b3480156102ce57600080fd5b50610207600480360360408110156102e557600080fd5b506001600160a01b038135169060200135610871565b34801561030757600080fd5b506101176004803603602081101561031e57600080fd5b50356001600160a01b031661095e565b34801561033a57600080fd5b506102076004803603606081101561035157600080fd5b506001600160a01b0381358116916020810135909116906040013561098c565b3360009081526020819052604081205460ff1615156001148061039357503033145b6103ce5760405162461bcd60e51b8152600401808060200182810382526028815260200180610b3f6028913960400191505060405180910390fd5b81610420576040805162461bcd60e51b815260206004820152600e60248201527f4449564953494f4e42595a45524f000000000000000000000000000000000000604482015290519081900360640190fd5b506003805490829055600154604080518381526020810185905281516001600160a01b03909316927f50d2fd3a15ffe0a5547c68d91dc96339c386f8a7d180a1f8cb782d39cfed38af929181900390910190a2919050565b4790565b6000816001600160a01b03166370a08231306040518263ffffffff1660e01b815260040180826001600160a01b0316815260200191505060206040518083038186803b1580156104cb57600080fd5b505afa1580156104df573d6000803e3d6000fd5b505050506040513d60208110156104f557600080fd5b505192915050565b3360009081526020819052604081205460ff1615156001148061051f57503033145b61055a5760405162461bcd60e51b8152600401808060200182810382526028815260200180610b3f6028913960400191505060405180910390fd5b816105ac576040805162461bcd60e51b815260206004820152600760248201527f494e56414c494400000000000000000000000000000000000000000000000000604482015290519081900360640190fd5b506005805490829055600154604080518381526020810185905281516001600160a01b03909316927f1b175f1f323705c599a7bebc2915765ab0d8de5f922b0b68d08dd1dbe2d97fc4929181900390910190a2919050565b3360009081526020819052604081205460ff1615156001148061062657503033145b6106615760405162461bcd60e51b8152600401808060200182810382526028815260200180610b3f6028913960400191505060405180910390fd5b816106b3576040805162461bcd60e51b815260206004820152600e60248201527f4449564953494f4e42595a45524f000000000000000000000000000000000000604482015290519081900360640190fd5b506001600160a01b0380831660008181526002602090815260409182902080549086905560015483518281529283018790528351919516927f8f604bc5c2d1916032a90c8f4d7cdc0dff78f1ba11119344f3fe46ddea179544928290030190a392915050565b3360009081526020819052604090205460ff1615156001148061073b57503033145b6107765760405162461bcd60e51b8152600401808060200182810382526028815260200180610b3f6028913960400191505060405180910390fd5b6001600160a01b03166000908152602081905260409020805460ff19166001179055565b60055490565b6001600160a01b031660009081526020819052604090205460ff1690565b6001600160a01b0381166000908152600460205260408120546107e3576005546107fd565b6001600160a01b0382166000908152600460205260409020545b92915050565b60035490565b3360009081526020819052604090205460ff1615156001148061082b57503033145b6108665760405162461bcd60e51b8152600401808060200182810382526028815260200180610b3f6028913960400191505060405180910390fd5b336000908152602052565b3360009081526020819052604090205460ff1615156001148061089357503033145b6108ce5760405162461bcd60e51b8152600401808060200182810382526028815260200180610b3f6028913960400191505060405180910390fd5b80471015610923576040805162461bcd60e51b815260206004820152601460248201527f494e53554646494349454e545f42414c414e4345000000000000000000000000604482015290519081900360640190fd5b6040516001600160a01b0383169082156108fc029083906000818181858888f19350505050158015610959573d6000803e3d6000fd5b505050565b6001600160a01b038116600090815260026020526040902054801561098357806107fd565b6107d092915050565b3360009081526020819052604090205460ff161515600114806109ae57503033145b6109e95760405162461bcd60e51b8152600401808060200182810382526028815260200180610b3f6028913960400191505060405180910390fd5b80836001600160a01b03166370a08231306040518263ffffffff1660e01b815260040180826001600160a01b0316815260200191505060206040518083038186803b158015610a3757600080fd5b505afa158015610a4b573d6000803e3d6000fd5b505050506040513d6020811015610a6157600080fd5b50511015610ab6576040805162461bcd60e51b815260206004820152601460248201527f494e53554646494349454e545f42414c414e4345000000000000000000000000604482015290519081900360640190fd5b826001600160a01b031663a9059cbb83836040518363ffffffff1660e01b815260040180836001600160a01b0316815260200182815260200192505050602060405180830381600087803b158015610b0d57600080fd5b505af1158015610b21573d6000803e3d6000fd5b505050506040513d6020811015610b3757600080fd5b505050505056fe436f6e74726f6c6c61626c653a2063616c6c6572206973206e6f74206120636f6e74726f6c6c6572a2646970667358221220a805aa7dca325a8e917d7401d0884a4dacf9c4f1395a45d4ffb558038bcc33f864736f6c63430007030033",
  "libraries": {
    "GovernanceLib": "0xfEbf82b4c4819f7ded1e0fF361c183381d1990Ea",
    "Strings": "0x2b5E12feB40530f028cE81c0B04F9B7804F3bD8B",
    "SafeMath": "0xf88a49ac5FFC67cA94a1235A44F4F366eb0c77f0",
    "AddressSet": "0xc400Df1a9cB78148de8c145100D1e4E40f4a5142",
    "UInt256Set": "0xD208031f5dc5134A58cA550a14637461A0e7A469",
    "Create2": "0x9eb74D584F4500E35643463d17e0f96878bcD970",
    "ProposalsLib": "0x2f92371a46118423d267AECB352f52E773B21B5d",
    "ComplexPoolLib": "0x988d5537f746daE83838d13F3fe875030e3F3fE7",
    "WrappedTokenLib": "0xe967bb5871CC517F2941A41D114cbC5fC35C96D3",
    "Unigem20Library": "0x47dC7a56d15D6E6E8F0C5c2daD0ad2D2D1ba415D"
  },
  "devdoc": {
    "kind": "dev",
    "methods": {
      "addController(address)": {
        "details": "Add an address allowed to control this contract"
      },
      "balanceOf(address)": {
        "details": "get the token balance of this fee manager"
      },
      "constructor": {
        "details": "constructor"
      },
      "defaultFeeDivisor()": {
        "details": "Get the fee divisor for the specified token"
      },
      "defaultLiquidity()": {
        "details": "Get the fee divisor for the specified token"
      },
      "ethBalanceOf()": {
        "details": "get the ETH balance of this fee manager"
      },
      "feeDivisor(address)": {
        "details": "Get the fee divisor for the specified token"
      },
      "isController(address)": {
        "details": "Check if this address is a controller"
      },
      "liquidity(address)": {
        "details": "Get the fee divisor for the specified token"
      },
      "relinquishControl()": {
        "details": "Check if this address is a controller"
      },
      "setDefaultFeeDivisor(uint256)": {
        "details": "Set the fee divisor for the specified token"
      },
      "setDefaultLiquidity(uint256)": {
        "details": "Set the fee divisor for the specified token"
      },
      "setFeeDivisor(address,uint256)": {
        "details": "Set the fee divisor for the specified token"
      },
      "transferEth(address,uint256)": {
        "details": "transfer ETH from this contract to the to given recipient"
      },
      "transferToken(address,address,uint256)": {
        "details": "transfer tokens from this contract to the to given recipient"
      }
    },
    "version": 1
  },
  "userdoc": {
    "kind": "user",
    "methods": {},
    "version": 1
  },
  "storageLayout": {
    "storage": [
      {
        "astId": 10169,
        "contract": "src/fees/NFTGemFeeManager.sol:NFTGemFeeManager",
        "label": "_controllers",
        "offset": 0,
        "slot": "0",
        "type": "t_mapping(t_address,t_bool)"
      },
      {
        "astId": 16589,
        "contract": "src/fees/NFTGemFeeManager.sol:NFTGemFeeManager",
        "label": "operator",
        "offset": 0,
        "slot": "1",
        "type": "t_address"
      },
      {
        "astId": 16599,
        "contract": "src/fees/NFTGemFeeManager.sol:NFTGemFeeManager",
        "label": "feeDivisors",
        "offset": 0,
        "slot": "2",
        "type": "t_mapping(t_address,t_uint256)"
      },
      {
        "astId": 16601,
        "contract": "src/fees/NFTGemFeeManager.sol:NFTGemFeeManager",
        "label": "_defaultFeeDivisor",
        "offset": 0,
        "slot": "3",
        "type": "t_uint256"
      },
      {
        "astId": 16605,
        "contract": "src/fees/NFTGemFeeManager.sol:NFTGemFeeManager",
        "label": "_liquidity",
        "offset": 0,
        "slot": "4",
        "type": "t_mapping(t_address,t_uint256)"
      },
      {
        "astId": 16607,
        "contract": "src/fees/NFTGemFeeManager.sol:NFTGemFeeManager",
        "label": "_defaultLiquidity",
        "offset": 0,
        "slot": "5",
        "type": "t_uint256"
      }
    ],
    "types": {
      "t_address": {
        "encoding": "inplace",
        "label": "address",
        "numberOfBytes": "20"
      },
      "t_bool": {
        "encoding": "inplace",
        "label": "bool",
        "numberOfBytes": "1"
      },
      "t_mapping(t_address,t_bool)": {
        "encoding": "mapping",
        "key": "t_address",
        "label": "mapping(address => bool)",
        "numberOfBytes": "32",
        "value": "t_bool"
      },
      "t_mapping(t_address,t_uint256)": {
        "encoding": "mapping",
        "key": "t_address",
        "label": "mapping(address => uint256)",
        "numberOfBytes": "32",
        "value": "t_uint256"
      },
      "t_uint256": {
        "encoding": "inplace",
        "label": "uint256",
        "numberOfBytes": "32"
      }
    }
  }
}