{
  "address": "0xB88dEf2593674898906dDAc91237f9a25903fEa0",
  "abi": [
    {
      "anonymous": false,
      "inputs": [
        {
          "indexed": true,
          "internalType": "address",
          "name": "gemPoolAdress",
          "type": "address"
        },
        {
          "indexed": false,
          "internalType": "string",
          "name": "gemSymbol",
          "type": "string"
        },
        {
          "indexed": false,
          "internalType": "string",
          "name": "gemName",
          "type": "string"
        }
      ],
      "name": "CustomNFTGemPoolCreated",
      "type": "event"
    },
    {
      "anonymous": false,
      "inputs": [
        {
          "indexed": true,
          "internalType": "address",
          "name": "gemPoolAddress",
          "type": "address"
        },
        {
          "indexed": false,
          "internalType": "string",
          "name": "gemSymbol",
          "type": "string"
        },
        {
          "indexed": false,
          "internalType": "string",
          "name": "gemName",
          "type": "string"
        },
        {
          "indexed": false,
          "internalType": "uint256",
          "name": "ethPrice",
          "type": "uint256"
        },
        {
          "indexed": false,
          "internalType": "uint256",
          "name": "minTime",
          "type": "uint256"
        },
        {
          "indexed": false,
          "internalType": "uint256",
          "name": "maxTime",
          "type": "uint256"
        },
        {
          "indexed": false,
          "internalType": "uint256",
          "name": "diffstep",
          "type": "uint256"
        },
        {
          "indexed": false,
          "internalType": "uint256",
          "name": "maxMint",
          "type": "uint256"
        },
        {
          "indexed": false,
          "internalType": "address",
          "name": "allowedToken",
          "type": "address"
        }
      ],
      "name": "NFTGemPoolCreated",
      "type": "event"
    },
    {
      "inputs": [
        {
          "internalType": "uint256",
          "name": "idx",
          "type": "uint256"
        }
      ],
      "name": "allNFTGemPools",
      "outputs": [
        {
          "internalType": "address",
          "name": "gemPool",
          "type": "address"
        }
      ],
      "stateMutability": "view",
      "type": "function"
    },
    {
      "inputs": [],
      "name": "allNFTGemPoolsLength",
      "outputs": [
        {
          "internalType": "uint256",
          "name": "",
          "type": "uint256"
        }
      ],
      "stateMutability": "view",
      "type": "function"
    },
    {
      "inputs": [
        {
          "internalType": "address",
          "name": "owner",
          "type": "address"
        },
        {
          "internalType": "string",
          "name": "gemSymbol",
          "type": "string"
        },
        {
          "internalType": "string",
          "name": "gemName",
          "type": "string"
        },
        {
          "internalType": "uint256",
          "name": "ethPrice",
          "type": "uint256"
        },
        {
          "internalType": "uint256",
          "name": "minTime",
          "type": "uint256"
        },
        {
          "internalType": "uint256",
          "name": "maxTime",
          "type": "uint256"
        },
        {
          "internalType": "uint256",
          "name": "diffstep",
          "type": "uint256"
        },
        {
          "internalType": "uint256",
          "name": "maxMint",
          "type": "uint256"
        },
        {
          "internalType": "address",
          "name": "allowedToken",
          "type": "address"
        }
      ],
      "name": "createNFTGemPool",
      "outputs": [
        {
          "internalType": "address payable",
          "name": "gemPool",
          "type": "address"
        }
      ],
      "stateMutability": "nonpayable",
      "type": "function"
    },
    {
      "inputs": [
        {
          "internalType": "uint256",
          "name": "_symbolHash",
          "type": "uint256"
        }
      ],
      "name": "getNFTGemPool",
      "outputs": [
        {
          "internalType": "address",
          "name": "gemPool",
          "type": "address"
        }
      ],
      "stateMutability": "view",
      "type": "function"
    },
    {
      "inputs": [],
      "name": "nftGemPools",
      "outputs": [
        {
          "internalType": "address[]",
          "name": "",
          "type": "address[]"
        }
      ],
      "stateMutability": "view",
      "type": "function"
    }
  ],
  "transactionHash": "0xc2923a914970653d647d69939660c0fee563c9266700688a561983b716b77438",
  "args": [],
  "solcInputHash": "baf74e8f3f8b4044f9fe5636bda94596",
  "bytecode": "0x608060405234801561001057600080fd5b506155f6806100206000396000f3fe608060405234801561001057600080fd5b50600436106100675760003560e01c80635e6fe72a116100505780635e6fe72a146100aa57806367275aed146100bf5780638514d358146100d257610067565b80631ff77f161461006c5780632b69fa1014610095575b600080fd5b61007f61007a36600461065b565b6100e5565b60405161008c91906106bb565b60405180910390f35b61009d61013c565b60405161008c91906106cf565b6100b261019e565b60405161008c91906108ff565b61007f6100cd36600461065b565b6101a4565b61007f6100e03660046105a8565b6101bf565b600060018281548110610121577f4e487b7100000000000000000000000000000000000000000000000000000000600052603260045260246000fd5b6000918252602090912001546001600160a01b031692915050565b6060600180548060200260200160405190810160405280929190818152602001828054801561019457602002820191906000526020600020905b81546001600160a01b03168152600190910190602001808311610176575b5050505050905090565b60015490565b6000908152602081905260409020546001600160a01b031690565b600080896040516020016101d3919061069f565b60408051601f1981840301815291815281516020928301206000818152928390529120549091506001600160a01b0316156102295760405162461bcd60e51b81526004016102209061085a565b60405180910390fd5b876102465760405162461bcd60e51b8152600401610220906107b5565b866102635760405162461bcd60e51b815260040161022090610891565b846102805760405162461bcd60e51b8152600401610220906107ec565b600060405180602001610292906104fe565b601f1982820381018352601f9091011660405290506102b360008383610484565b6040517fa7fc7a070000000000000000000000000000000000000000000000000000000081529093506001600160a01b0384169063a7fc7a07906102fb908f906004016106bb565b600060405180830381600087803b15801561031557600080fd5b505af1158015610329573d6000803e3d6000fd5b50506040517fd9a3f9bb0000000000000000000000000000000000000000000000000000000081526001600160a01b038616925063d9a3f9bb9150610380908e908e908e908e908e908e908e908e9060040161071c565b600060405180830381600087803b15801561039a57600080fd5b505af11580156103ae573d6000803e3d6000fd5b50505060008381526020819052604080822080546001600160a01b0388167fffffffffffffffffffffffff0000000000000000000000000000000000000000918216811790925560018054808201825594527fb10e2d527612073b26eecdfd717e6a320cf44b4afac2b0732d9fcbe2b7fa0cf690930180549093168117909255519091507f39edc680fea25684123932cc30f03ee17ba6966438526d7569cc7d6bb4e762e69061046d908e908e908e908e908e908e908e908e9061071c565b60405180910390a250509998505050505050505050565b600080844710156104a75760405162461bcd60e51b8152600401610220906108c8565b82516104c55760405162461bcd60e51b815260040161022090610780565b8383516020850187f590506001600160a01b0381166104f65760405162461bcd60e51b815260040161022090610823565b949350505050565b614c598061096883390190565b80356001600160a01b038116811461052257600080fd5b919050565b600082601f830112610537578081fd5b813567ffffffffffffffff8082111561055257610552610938565b6040516020601f19601f850116820101818110838211171561057657610576610938565b60405282815284830160200186101561058d578384fd5b82602086016020830137918201602001929092529392505050565b60008060008060008060008060006101208a8c0312156105c6578485fd5b6105cf8a61050b565b985060208a013567ffffffffffffffff808211156105eb578687fd5b6105f78d838e01610527565b995060408c013591508082111561060c578687fd5b506106198c828d01610527565b97505060608a0135955060808a0135945060a08a0135935060c08a0135925060e08a0135915061064c6101008b0161050b565b90509295985092959850929598565b60006020828403121561066c578081fd5b5035919050565b6000815180845261068b816020860160208601610908565b601f01601f19169290920160200192915050565b600082516106b1818460208701610908565b9190910192915050565b6001600160a01b0391909116815260200190565b6020808252825182820181905260009190848201906040850190845b818110156107105783516001600160a01b0316835292840192918401916001016106eb565b50909695505050505050565b60006101008083526107308184018c610673565b90508281036020840152610744818b610673565b604084019990995250506060810195909552608085019390935260a084019190915260c08301526001600160a01b031660e09091015292915050565b6020808252818101527f437265617465323a2062797465636f6465206c656e677468206973207a65726f604082015260600190565b6020808252600d908201527f494e56414c49445f505249434500000000000000000000000000000000000000604082015260600190565b60208082526017908201527f494e56414c49445f444946464943554c54595f53544550000000000000000000604082015260600190565b60208082526019908201527f437265617465323a204661696c6564206f6e206465706c6f7900000000000000604082015260600190565b6020808252600e908201527f47454d504f4f4c5f455849535453000000000000000000000000000000000000604082015260600190565b60208082526010908201527f494e56414c49445f4d494e5f54494d4500000000000000000000000000000000604082015260600190565b6020808252601d908201527f437265617465323a20696e73756666696369656e742062616c616e6365000000604082015260600190565b90815260200190565b60005b8381101561092357818101518382015260200161090b565b83811115610932576000848401525b50505050565b7f4e487b7100000000000000000000000000000000000000000000000000000000600052604160045260246000fdfe608060405234801561001057600080fd5b50336000818152602460205260408082208054600160ff19918216811783553285529284208054821684179055938352805490931617909155614c0090819061005990396000f3fe6080604052600436106105735760003560e01c8063a0021cf1116102ca578063d3d0839711610179578063e6c3b1f6116100d6578063f8d1e9301161008a578063f9eaee0d1161006f578063f9eaee0d14610e87578063fd31a0a514610ea7578063ff186b2e14610ec757610573565b8063f8d1e93014610e31578063f9c9c27614610e5357610573565b8063ef430aa6116100bb578063ef430aa614610de7578063f23a6e6114610dfc578063f4fde0d314610e1c57610573565b8063e6c3b1f614610da7578063edcf2d5714610dc757610573565b8063d9d98ce41161012d578063e06174e411610112578063e06174e414610d46578063e1c28bef14610d72578063e5d2ce2f14610d8757610573565b8063d9d98ce414610d06578063df1fe1a914610d2657610573565b8063d73cd47f1161015e578063d73cd47f14610c9d578063d80528ae14610cbd578063d9a3f9bb14610ce657610573565b8063d3d0839714610c68578063d43e646014610c7d57610573565b8063c42cf53511610227578063c80c0613116101db578063cf721b15116101c0578063cf721b1514610bf3578063d104f8f514610c28578063d31674db14610c4857610573565b8063c80c061314610bf3578063cdc8a8ab14610c0857610573565b8063c54a92421161020c578063c54a924214610b93578063c5e01a5c14610bb3578063c65eff9614610bd357610573565b8063c42cf53514610b53578063c455279114610b7357610573565b8063b3947a941161027e578063b788e4e911610263578063b788e4e914610b11578063bc197c8114610b26578063c08fa1a414610a5257610573565b8063b3947a9414610ad1578063b429afeb14610af157610573565b8063a901c474116102af578063a901c47414610a87578063af6a6d7914610aa7578063b385a50a14610abc57610573565b8063a0021cf114610a52578063a7fc7a0714610a6757610573565b80635d2e0dd4116104265780637f2e8f0c1161038357806390469a9d116103375780639277a1851161031c5780639277a185146109fd5780639593556014610a1d57806395d89b4114610a3d57610573565b806390469a9d146109bd57806390c3f38f146109dd57610573565b80638407b6c5116103685780638407b6c514610968578063870114f6146109885780638a09871b146109a857610573565b80637f2e8f0c14610928578063829775511461094857610573565b80636b6201da116103da5780637ae7815d116103bf5780637ae7815d146108c65780637c07bc7a146108e65780637dcb0e5f1461090857610573565b80636b6201da146108915780637284e416146108a457610573565b80635fb930911161040b5780635fb930911461083e5780636100c34314610851578063613255ab1461087157610573565b80635d2e0dd4146107fc5780635e5f2e261461081157610573565b8063336b9efb116104d457806344f0877c116104885780634e04cdc71161046d5780634e04cdc7146107b2578063504cdacf146107c75780635cffe9de146107dc57610573565b806344f0877c1461077d5780634565e5ef1461079d57610573565b8063392732b1116104b9578063392732b114610728578063407dff161461073b5780634178617f1461075d57610573565b8063336b9efb146106e1578063379607f5146106f657610573565b8063238dafe01161052b5780632449ef51116105105780632449ef511461068157806326ff3152146106a1578063328d8f72146106c157610573565b8063238dafe01461063f57806323b221a01461065457610573565b80631284650d1161055c5780631284650d146105dd57806315523ab9146105ff5780632360cf5e1461061f57610573565b806301ffc9a714610578578063044215c6146105ae575b600080fd5b34801561058457600080fd5b50610598610593366004613e08565b610edc565b6040516105a5919061446b565b60405180910390f35b3480156105ba57600080fd5b506105ce6105c936600461404c565b610f38565b6040516105a5939291906144ee565b3480156105e957600080fd5b506105fd6105f8366004613a23565b610f6e565b005b34801561060b57600080fd5b5061059861061a36600461404c565b610f8c565b34801561062b57600080fd5b506105fd61063a366004614128565b610fa0565b34801561064b57600080fd5b50610598611007565b34801561066057600080fd5b5061067461066f36600461404c565b611016565b6040516105a5919061488b565b34801561068d57600080fd5b506105fd61069c366004613a62565b6110bb565b3480156106ad57600080fd5b506105fd6106bc366004613a23565b611144565b3480156106cd57600080fd5b506105fd6106dc366004613db8565b61115e565b3480156106ed57600080fd5b506106746111cd565b34801561070257600080fd5b5061071661071136600461404c565b6111d3565b6040516105a596959493929190614a07565b6105fd610736366004614128565b61150b565b34801561074757600080fd5b50610750611560565b6040516105a591906144db565b34801561076957600080fd5b506105fd610778366004613a23565b611570565b34801561078957600080fd5b506105fd610798366004613db8565b6115ce565b3480156107a957600080fd5b50610674611658565b3480156107be57600080fd5b50610598611669565b3480156107d357600080fd5b50610674611677565b3480156107e857600080fd5b506105986107f7366004613e48565b61167d565b34801561080857600080fd5b50610598611a09565b34801561081d57600080fd5b5061083161082c36600461404c565b611a12565b6040516105a591906142ab565b6105fd61084c36600461404c565b611a1f565b34801561085d57600080fd5b506105fd61086c366004613d49565b611aa9565b34801561087d57600080fd5b5061067461088c366004613a23565b611b35565b6105fd61089f36600461404c565b611be7565b3480156108b057600080fd5b506108b9611c3d565b6040516105a59190614518565b3480156108d257600080fd5b506105fd6108e1366004613db8565b611cd2565b3480156108f257600080fd5b506108fb611d35565b6040516105a59190614433565b34801561091457600080fd5b5061067461092336600461404c565b611d8f565b34801561093457600080fd5b5061067461094336600461404c565b611da1565b34801561095457600080fd5b5061067461096336600461404c565b611df6565b34801561097457600080fd5b506105fd610983366004613b44565b611e08565b34801561099457600080fd5b506105fd6109a3366004614104565b611ea3565b3480156109b457600080fd5b50610674611ef8565b3480156109c957600080fd5b506105fd6109d8366004613a23565b611f9b565b3480156109e957600080fd5b506105fd6109f8366004613f1a565b611ff9565b348015610a0957600080fd5b506105fd610a18366004613a23565b612063565b348015610a2957600080fd5b50610674610a3836600461404c565b6120ac565b348015610a4957600080fd5b506108b9612101565b348015610a5e57600080fd5b50610674612113565b348015610a7357600080fd5b506105fd610a82366004613a23565b612119565b348015610a9357600080fd5b50610674610aa236600461404c565b61217b565b348015610ab357600080fd5b506105986121d0565b348015610ac857600080fd5b506106746121d9565b348015610add57600080fd5b506105fd610aec366004613c65565b6121df565b348015610afd57600080fd5b50610598610b0c366004613a23565b61275f565b348015610b1d57600080fd5b5061067461277d565b348015610b3257600080fd5b50610b46610b41366004613a9a565b6127d0565b6040516105a591906144ae565b348015610b5f57600080fd5b506105fd610b6e366004613a23565b6127fa565b348015610b7f57600080fd5b50610831610b8e366004613a23565b612843565b348015610b9f57600080fd5b506105fd610bae366004613ee2565b612848565b348015610bbf57600080fd5b50610831610bce36600461404c565b6128f1565b348015610bdf57600080fd5b506105fd610bee36600461404c565b612996565b348015610bff57600080fd5b506106746129ee565b348015610c1457600080fd5b506105fd610c23366004613d7d565b6129f4565b348015610c3457600080fd5b506105fd610c43366004613a23565b612a5a565b348015610c5457600080fd5b50610674610c6336600461404c565b612aa3565b348015610c7457600080fd5b50610674612ada565b348015610c8957600080fd5b506105fd610c98366004613db8565b612b2d565b348015610ca957600080fd5b506105fd610cb8366004613a23565b612b93565b348015610cc957600080fd5b50610cd2612bdc565b6040516105a5989796959493929190614476565b348015610cf257600080fd5b506105fd610d01366004613fb7565b612d60565b348015610d1257600080fd5b50610674610d21366004613d1e565b612e55565b348015610d3257600080fd5b506105fd610d41366004614064565b613004565b348015610d5257600080fd5b50610d5b6130a2565b6040516105a59b9a9998979695949392919061452b565b348015610d7e57600080fd5b506105fd6132b9565b348015610d9357600080fd5b506105fd610da236600461404c565b613310565b348015610db357600080fd5b50610750610dc236600461404c565b613368565b348015610dd357600080fd5b506105fd610de2366004613d1e565b61337d565b348015610df357600080fd5b506106746133d5565b348015610e0857600080fd5b50610b46610e17366004613cb7565b6133db565b348015610e2857600080fd5b50610674613405565b348015610e3d57600080fd5b50610e4661340b565b6040516105a591906143e6565b348015610e5f57600080fd5b50610e73610e6e36600461404c565b61346b565b6040516105a59897969594939291906142d9565b348015610e9357600080fd5b50610598610ea2366004613a23565b61351f565b348015610eb357600080fd5b506105fd610ec236600461404c565b61352c565b348015610ed357600080fd5b50610674613584565b60007fffffffff0000000000000000000000000000000000000000000000000000000082167f4e2312e0000000000000000000000000000000000000000000000000000000001480610f325750610f328261358a565b92915050565b6000908152601260209081526040808320546013835281842054601490935292205460ff9092169290916001600160a01b031690565b610f796015826135d4565b15610f8957610f89601582613643565b50565b600090815260208052604090205460ff1690565b3360009081526024602052604090205460ff16151560011480610fcd57506002546001600160a01b031633145b80610fd757503033145b610ffc5760405162461bcd60e51b8152600401610ff390614687565b60405180910390fd5b601991909155601855565b60115462010000900460ff1690565b6040517f01356b6d000000000000000000000000000000000000000000000000000000008152600090737D9831a6684eAfC37c0e29b2c8465df7eFcFe3A1906301356b6d9061106b9084908690600401614936565b60206040518083038186803b15801561108357600080fd5b505af4158015611097573d6000803e3d6000fd5b505050506040513d601f19601f82011682018060405250810190610f329190613df0565b6040517fb9f05274000000000000000000000000000000000000000000000000000000008152737D9831a6684eAfC37c0e29b2c8465df7eFcFe3A19063b9f05274906111109060009086908690600401614894565b60006040518083038186803b15801561112857600080fd5b505af415801561113c573d6000803e3d6000fd5b505050505050565b61114f6015826135d4565b610f8957610f896015826137a9565b3360009081526024602052604090205460ff1615156001148061118b57506002546001600160a01b031633145b8061119557503033145b6111b15760405162461bcd60e51b8152600401610ff390614687565b60118054911515620100000262ff000019909216919091179055565b60105490565b6000806000806000806000737D9831a6684eAfC37c0e29b2c8465df7eFcFe3A16301356b6d9091896040518363ffffffff1660e01b8152600401611218929190614936565b60206040518083038186803b15801561123057600080fd5b505af4158015611244573d6000803e3d6000fd5b505050506040513d601f19601f820116820180604052508101906112689190613df0565b6040517fecd5244e000000000000000000000000000000000000000000000000000000008152737D9831a6684eAfC37c0e29b2c8465df7eFcFe3A19063ecd5244e906112bb906000908c90600401614936565b60206040518083038186803b1580156112d357600080fd5b505af41580156112e7573d6000803e3d6000fd5b505050506040513d601f19601f8201168201806040525081019061130b9190613df0565b6040517fb94677da000000000000000000000000000000000000000000000000000000008152737D9831a6684eAfC37c0e29b2c8465df7eFcFe3A19063b94677da9061135e906000908d90600401614936565b60206040518083038186803b15801561137657600080fd5b505af415801561138a573d6000803e3d6000fd5b505050506040513d601f19601f820116820180604052508101906113ae9190613df0565b6040517fdc1f0f53000000000000000000000000000000000000000000000000000000008152737D9831a6684eAfC37c0e29b2c8465df7eFcFe3A19063dc1f0f5390611401906000908e90600401614936565b60206040518083038186803b15801561141957600080fd5b505af415801561142d573d6000803e3d6000fd5b505050506040513d601f19601f820116820180604052508101906114519190613df0565b6040517f76e455e1000000000000000000000000000000000000000000000000000000008152737D9831a6684eAfC37c0e29b2c8465df7eFcFe3A1906376e455e1906114a4906000908f90600401614936565b60206040518083038186803b1580156114bc57600080fd5b505af41580156114d0573d6000803e3d6000fd5b505050506040513d601f19601f820116820180604052508101906114f49190613a46565b601954949c939b5091995097509550909350915050565b6040517f80ca2ba6000000000000000000000000000000000000000000000000000000008152737D9831a6684eAfC37c0e29b2c8465df7eFcFe3A1906380ca2ba69061111090600090869086906004016149c4565b6011546301000000900460ff1690565b3360009081526024602052604090205460ff1615156001148061159d57506002546001600160a01b031633145b806115a757503033145b6115c35760405162461bcd60e51b8152600401610ff390614687565b610f896027826137a9565b3360009081526024602052604090205460ff161515600114806115fb57506002546001600160a01b031633145b8061160557503033145b6116215760405162461bcd60e51b8152600401610ff390614687565b60118054911515610100027fffffffffffffffffffffffffffffffffffffffffffffffffffffffffffff00ff909216919091179055565b60006116646027613835565b905090565b601154610100900460ff1690565b601a5490565b60008061168a8686612e55565b9050866001600160a01b0387166116d7576040516001600160a01b0382169087156108fc029088906000818181858888f193505050501580156116d1573d6000803e3d6000fd5b50611772565b6040517fa9059cbb0000000000000000000000000000000000000000000000000000000081526001600160a01b0388169063a9059cbb9061171e9084908a906004016143ac565b602060405180830381600087803b15801561173857600080fd5b505af115801561174c573d6000803e3d6000fd5b505050506040513d601f19601f820116820180604052508101906117709190613dd4565b505b60006001600160a01b0388161561181d576040517f70a082310000000000000000000000000000000000000000000000000000000081526001600160a01b038916906370a08231906117c89030906004016142ab565b60206040518083038186803b1580156117e057600080fd5b505afa1580156117f4573d6000803e3d6000fd5b505050506040513d601f19601f820116820180604052508101906118189190613df0565b61181f565b475b6040517f23e30c8b0000000000000000000000000000000000000000000000000000000081529091507f439148f0bbc682ca079e46d6e2c2f0c1e3b820f1a291b069d8882abf8cf18dd99081906001600160a01b038c16906323e30c8b906118959033908e908e908b908f908f90600401614354565b602060405180830381600087803b1580156118af57600080fd5b505af11580156118c3573d6000803e3d6000fd5b505050506040513d601f19601f820116820180604052508101906118e79190613df0565b146119045760405162461bcd60e51b8152600401610ff3906145e2565b476001600160a01b038a16156119b2576040517fdd62ed3e0000000000000000000000000000000000000000000000000000000081526001600160a01b038b169063dd62ed3e9061195b908e9030906004016142bf565b60206040518083038186803b15801561197357600080fd5b505afa158015611987573d6000803e3d6000fd5b505050506040513d601f19601f820116820180604052508101906119ab9190613df0565b90506119cf565b808311156119c2575060006119cf565b6119cc8382614ace565b90505b6119d9858a614a96565b8110156119f85760405162461bcd60e51b8152600401610ff3906147c0565b5060019a9950505050505050505050565b60115460ff1690565b6000610f3260278361383c565b6040517fe5fca79a000000000000000000000000000000000000000000000000000000008152737D9831a6684eAfC37c0e29b2c8465df7eFcFe3A19063e5fca79a90611a7690600090339034908790600401614912565b60006040518083038186803b158015611a8e57600080fd5b505af4158015611aa2573d6000803e3d6000fd5b5050505050565b6040517fafeafd9a000000000000000000000000000000000000000000000000000000008152737D9831a6684eAfC37c0e29b2c8465df7eFcFe3A19063afeafd9a90611b0090600090879087908790600401614912565b60006040518083038186803b158015611b1857600080fd5b505af4158015611b2c573d6000803e3d6000fd5b50505050505050565b60006001600160a01b03821615611be0576040517f70a082310000000000000000000000000000000000000000000000000000000081526001600160a01b038316906370a0823190611b8b9030906004016142ab565b60206040518083038186803b158015611ba357600080fd5b505afa158015611bb7573d6000803e3d6000fd5b505050506040513d601f19601f82011682018060405250810190611bdb9190613df0565b610f32565b5047919050565b6040517f80ca2ba6000000000000000000000000000000000000000000000000000000008152737D9831a6684eAfC37c0e29b2c8465df7eFcFe3A1906380ca2ba690611a769060009085906001906004016149c4565b606060006009018054611c4f90614b15565b80601f0160208091040260200160405190810160405280929190818152602001828054611c7b90614b15565b8015611cc85780601f10611c9d57610100808354040283529160200191611cc8565b820191906000526020600020905b815481529060010190602001808311611cab57829003601f168201915b5050505050905090565b3360009081526024602052604090205460ff16151560011480611cff57506002546001600160a01b031633145b80611d0957503033145b611d255760405162461bcd60e51b8152600401610ff390614687565b506011805460ff19166001179055565b60606000601701805480602002602001604051908101604052809291908181526020018280548015611cc857602002820191906000526020600020905b815481526020019060010190808311611d72575050505050905090565b60009081526013602052604090205490565b6040517fecd5244e000000000000000000000000000000000000000000000000000000008152600090737D9831a6684eAfC37c0e29b2c8465df7eFcFe3A19063ecd5244e9061106b9084908690600401614936565b60009081526021602052604090205490565b6040517f212f8bbd000000000000000000000000000000000000000000000000000000008152737D9831a6684eAfC37c0e29b2c8465df7eFcFe3A19063212f8bbd90611e69906000908c908c908c908c908c908c908c908c906004016148b3565b60006040518083038186803b158015611e8157600080fd5b505af4158015611e95573d6000803e3d6000fd5b505050505050505050505050565b6040517f48126f4b000000000000000000000000000000000000000000000000000000008152737D9831a6684eAfC37c0e29b2c8465df7eFcFe3A1906348126f4b9061111090600090869086906004016149ac565b6040517f164cd8c2000000000000000000000000000000000000000000000000000000008152600090737D9831a6684eAfC37c0e29b2c8465df7eFcFe3A19063164cd8c290611f4b90849060040161488b565b60206040518083038186803b158015611f6357600080fd5b505af4158015611f77573d6000803e3d6000fd5b505050506040513d601f19601f820116820180604052508101906116649190613df0565b3360009081526024602052604090205460ff16151560011480611fc857506002546001600160a01b031633145b80611fd257503033145b611fee5760405162461bcd60e51b8152600401610ff390614687565b610f89602782613643565b3360009081526024602052604090205460ff1615156001148061202657506002546001600160a01b031633145b8061203057503033145b61204c5760405162461bcd60e51b8152600401610ff390614687565b805161205f90600990602084019061387d565b5050565b336000908152602460205260409020805460ff191660011790556003805473ffffffffffffffffffffffffffffffffffffffff19166001600160a01b0392909216919091179055565b6040517fdc1f0f53000000000000000000000000000000000000000000000000000000008152600090737D9831a6684eAfC37c0e29b2c8465df7eFcFe3A19063dc1f0f539061106b9084908690600401614936565b606060006007018054611c4f90614b15565b60195490565b3360009081526024602052604090205460ff1615156001148061213b57503033145b6121575760405162461bcd60e51b8152600401610ff390614687565b6001600160a01b03166000908152602460205260409020805460ff19166001179055565b6040517fb94677da000000000000000000000000000000000000000000000000000000008152600090737D9831a6684eAfC37c0e29b2c8465df7eFcFe3A19063b94677da9061106b9084908690600401614936565b60065460ff1690565b600f5490565b600082116121ff5760405162461bcd60e51b8152600401610ff390614752565b6001600160a01b0384166122255760405162461bcd60e51b8152600401610ff3906147f7565b6001600160a01b03831661224b5760405162461bcd60e51b8152600401610ff3906145ab565b6001600160a01b0381166122715760405162461bcd60e51b8152600401610ff390614619565b61227c6015846135d4565b151560011461229d5760405162461bcd60e51b8152600401610ff39061471b565b600082815260208052604090205460ff16156122cb5760405162461bcd60e51b8152600401610ff3906146e4565b6000846001600160a01b03166395d89b416040518163ffffffff1660e01b815260040160006040518083038186803b15801561230657600080fd5b505afa15801561231a573d6000803e3d6000fd5b505050506040513d6000823e601f3d908101601f191682016040526123429190810190613f4d565b6040516020016123529190614175565b60408051601f19818403018152908290528051602091820120925060009161237d9160079101614191565b6040516020818303038152906040528051906020012090508082146123b45760405162461bcd60e51b8152600401610ff390614650565b6040517fe6c3b1f60000000000000000000000000000000000000000000000000000000081526000906001600160a01b0388169063e6c3b1f6906123fc90889060040161488b565b60206040518083038186803b15801561241457600080fd5b505afa158015612428573d6000803e3d6000fd5b505050506040513d601f19601f8201168201806040525081019061244c9190613efe565b9050600281600281111561247057634e487b7160e01b600052602160045260246000fd5b1461248d5760405162461bcd60e51b8152600401610ff390614789565b6040517efdd58e0000000000000000000000000000000000000000000000000000000081526000906001600160a01b0388169062fdd58e906124d59088908a906004016143ac565b60206040518083038186803b1580156124ed57600080fd5b505afa158015612501573d6000803e3d6000fd5b505050506040513d601f19601f820116820180604052508101906125259190613df0565b90506000886001600160a01b0316637dcb0e5f886040518263ffffffff1660e01b8152600401612555919061488b565b60206040518083038186803b15801561256d57600080fd5b505afa158015612581573d6000803e3d6000fd5b505050506040513d601f19601f820116820180604052508101906125a59190613df0565b90508115612754576001546040517f156e29f60000000000000000000000000000000000000000000000000000000081526001600160a01b039091169063156e29f6906125fa9089908b9087906004016143c5565b600060405180830381600087803b15801561261457600080fd5b505af1158015612628573d6000803e3d6000fd5b50506001546040517f7c8810760000000000000000000000000000000000000000000000000000000081526001600160a01b039091169250637c881076915061267a908a9060029030906004016149da565b600060405180830381600087803b15801561269457600080fd5b505af11580156126a8573d6000803e3d6000fd5b50505060008881526012602090815260408083208054600260ff19918216179091556013835281842086905560148352818420805473ffffffffffffffffffffffffffffffffffffffff19166001600160a01b038f16179055918052918290208054909116600117905551889150309033907ff5b54e798ff7f434ed773aa633e6a9f82ef9ae465e46042e1983f29bf1fd69ea9061274b908e908e908990614330565b60405180910390a45b505050505050505050565b6001600160a01b031660009081526024602052604090205460ff1690565b6040517f33c13e0d000000000000000000000000000000000000000000000000000000008152600090737D9831a6684eAfC37c0e29b2c8465df7eFcFe3A1906333c13e0d90611f4b90849060040161488b565b7fbc197c810000000000000000000000000000000000000000000000000000000095945050505050565b336000908152602460205260409020805460ff191660011790556002805473ffffffffffffffffffffffffffffffffffffffff19166001600160a01b0392909216919091179055565b503090565b3360009081526024602052604090205460ff1615156001148061287557506002546001600160a01b031633145b8061287f57503033145b61289b5760405162461bcd60e51b8152600401610ff390614687565b601180548291907fffffffffffffffffffffffffffffffffffffffffffffffffffffffff00ffffff1663010000008360028111156128e957634e487b7160e01b600052602160045260246000fd5b021790555050565b6040517f76e455e1000000000000000000000000000000000000000000000000000000008152600090737D9831a6684eAfC37c0e29b2c8465df7eFcFe3A1906376e455e1906129469084908690600401614936565b60206040518083038186803b15801561295e57600080fd5b505af4158015612972573d6000803e3d6000fd5b505050506040513d601f19601f82011682018060405250810190610f329190613a46565b3360009081526024602052604090205460ff161515600114806129c357506002546001600160a01b031633145b806129cd57503033145b6129e95760405162461bcd60e51b8152600401610ff390614687565b601055565b60185490565b3360009081526024602052604090205460ff16151560011480612a2157506002546001600160a01b031633145b80612a2b57503033145b612a475760405162461bcd60e51b8152600401610ff390614687565b805161205f906017906020840190613901565b336000908152602460205260409020805460ff191660011790556001805473ffffffffffffffffffffffffffffffffffffffff19166001600160a01b0392909216919091179055565b6000806017018281548110612ac857634e487b7160e01b600052603260045260246000fd5b90600052602060002001549050919050565b6040517f828c7b72000000000000000000000000000000000000000000000000000000008152600090737D9831a6684eAfC37c0e29b2c8465df7eFcFe3A19063828c7b7290611f4b90849060040161488b565b3360009081526024602052604090205460ff16151560011480612b5a57506002546001600160a01b031633145b80612b6457503033145b612b805760405162461bcd60e51b8152600401610ff390614687565b6006805460ff1916911515919091179055565b336000908152602460205260409020805460ff191660011790556004805473ffffffffffffffffffffffffffffffffffffffff19166001600160a01b0392909216919091179055565b600654601954601854601a546040517f164cd8c2000000000000000000000000000000000000000000000000000000008152600094859485948594859485948594859460ff909216939092737D9831a6684eAfC37c0e29b2c8465df7eFcFe3A19063164cd8c290612c5190889060040161488b565b60206040518083038186803b158015612c6957600080fd5b505af4158015612c7d573d6000803e3d6000fd5b505050506040513d601f19601f82011682018060405250810190612ca19190613df0565b6040517f33c13e0d000000000000000000000000000000000000000000000000000000008152737D9831a6684eAfC37c0e29b2c8465df7eFcFe3A1906333c13e0d90612cf29060009060040161488b565b60206040518083038186803b158015612d0a57600080fd5b505af4158015612d1e573d6000803e3d6000fd5b505050506040513d601f19601f82011682018060405250810190612d429190613df0565b601954601854969f959e50939c50919a509850965094509092509050565b3360009081526024602052604090205460ff16151560011480612d8d57506002546001600160a01b031633145b80612d9757503033145b612db35760405162461bcd60e51b8152600401610ff390614687565b6000805473ffffffffffffffffffffffffffffffffffffffff1916301790558751612de59060079060208b019061387d565b508651612df99060089060208a019061387d565b50600a869055600b859055600c849055600d839055600e8290556006805460ff191660011790556011805462ff00001916620100001790556001600160a01b03811615612e4b57612e4b6027826137a9565b5050505050505050565b60008083604051602001612e699190614255565b60408051601f198184030181529082905280516020909101206003547f39b37ab00000000000000000000000000000000000000000000000000000000083529092506000916001600160a01b03909116906339b37ab090612ece90859060040161488b565b60206040518083038186803b158015612ee657600080fd5b505afa158015612efa573d6000803e3d6000fd5b505050506040513d601f19601f82011682018060405250810190612f1e9190613df0565b905080612fe757604051602001612f349061422c565b60408051601f198184030181529082905280516020909101206003547f39b37ab00000000000000000000000000000000000000000000000000000000083529093506001600160a01b0316906339b37ab090612f9490859060040161488b565b60206040518083038186803b158015612fac57600080fd5b505afa158015612fc0573d6000803e3d6000fd5b505050506040513d601f19601f82011682018060405250810190612fe49190613df0565b90505b80612ff157506127105b612ffb8185614aae565b95945050505050565b6040517f2394dcbf000000000000000000000000000000000000000000000000000000008152737D9831a6684eAfC37c0e29b2c8465df7eFcFe3A190632394dcbf90613067906000908d908d908d908d908d908d908d908d908d90600401614944565b60006040518083038186803b15801561307f57600080fd5b505af4158015613093573d6000803e3d6000fd5b50505050505050505050505050565b60608060606000806000806000806000806000600701600060080160006009016000600501546000600a01546000600b01546000600c01546000600d01546000600e01546000600f01546000601001548a80546130fe90614b15565b80601f016020809104026020016040519081016040528092919081815260200182805461312a90614b15565b80156131775780601f1061314c57610100808354040283529160200191613177565b820191906000526020600020905b81548152906001019060200180831161315a57829003601f168201915b50505050509a5089805461318a90614b15565b80601f01602080910402602001604051908101604052809291908181526020018280546131b690614b15565b80156132035780601f106131d857610100808354040283529160200191613203565b820191906000526020600020905b8154815290600101906020018083116131e657829003601f168201915b5050505050995088805461321690614b15565b80601f016020809104026020016040519081016040528092919081815260200182805461324290614b15565b801561328f5780601f106132645761010080835404028352916020019161328f565b820191906000526020600020905b81548152906001019060200180831161327257829003601f168201915b505050505098509a509a509a509a509a509a509a509a509a509a509a50909192939495969798999a565b3360009081526024602052604090205460ff161515600114806132db57503033145b6132f75760405162461bcd60e51b8152600401610ff390614687565b336000908152602460205260409020805460ff19169055565b3360009081526024602052604090205460ff1615156001148061333d57506002546001600160a01b031633145b8061334757503033145b6133635760405162461bcd60e51b8152600401610ff390614687565b600555565b60009081526012602052604090205460ff1690565b6040517fafeafd9a000000000000000000000000000000000000000000000000000000008152737D9831a6684eAfC37c0e29b2c8465df7eFcFe3A19063afeafd9a906111109060009086908690600190600401614912565b60055490565b7ff23a6e610000000000000000000000000000000000000000000000000000000095945050505050565b60175490565b601680546040805160208084028201810190925282815260609390929091830182828015611cc857602002820191906000526020600020905b81546001600160a01b03168152600190910190602001808311613444575050505050905090565b6000806000806000806000806000737D9831a6684eAfC37c0e29b2c8465df7eFcFe3A1635b68e93c90918b6040518363ffffffff1660e01b81526004016134b3929190614936565b6101006040518083038186803b1580156134cc57600080fd5b505af41580156134e0573d6000803e3d6000fd5b505050506040513d601f19601f820116820180604052508101906135049190613bda565b97509750975097509750975097509750919395975091939597565b6000610f326027836135d4565b3360009081526024602052604090205460ff1615156001148061355957506002546001600160a01b031633145b8061356357503033145b61357f5760405162461bcd60e51b8152600401610ff390614687565b600f55565b600a5490565b7fffffffff0000000000000000000000000000000000000000000000000000000081167f01ffc9a70000000000000000000000000000000000000000000000000000000014919050565b60018201546000906135e857506000610f32565b6001600160a01b038216600081815260208590526040902054600185018054909190811061362657634e487b7160e01b600052603260045260246000fd5b6000918252602090912001546001600160a01b0316149392505050565b61364d82826135d4565b6136565761205f565b6000600161366384613835565b61366d9190614ace565b6001600160a01b0383166000908152602085905260409020549091508082146137345760008460010183815481106136b557634e487b7160e01b600052603260045260246000fd5b60009182526020808320909101546001600160a01b031680835290879052604090912083905560018601805491925082918490811061370457634e487b7160e01b600052603260045260246000fd5b9060005260206000200160006101000a8154816001600160a01b0302191690836001600160a01b03160217905550505b6001600160a01b03831660009081526020859052604081205560018085018054909161375f91614ace565b8154811061377d57634e487b7160e01b600052603260045260246000fd5b6000918252602090912001805473ffffffffffffffffffffffffffffffffffffffff1916905550505050565b6137b382826135d4565b156137d05760405162461bcd60e51b8152600401610ff39061482e565b60018281018054808301825560008281526020902001805473ffffffffffffffffffffffffffffffffffffffff19166001600160a01b038516179055546138179190614ace565b6001600160a01b039091166000908152602092909252604090912055565b6001015490565b600082600101828154811061386157634e487b7160e01b600052603260045260246000fd5b6000918252602090912001546001600160a01b03169392505050565b82805461388990614b15565b90600052602060002090601f0160209004810192826138ab57600085556138f1565b82601f106138c457805160ff19168380011785556138f1565b828001600101855582156138f1579182015b828111156138f15782518255916020019190600101906138d6565b506138fd92915061393b565b5090565b8280548282559060005260206000209081019282156138f157916020028201828111156138f15782518255916020019190600101906138d6565b5b808211156138fd576000815560010161393c565b600082601f830112613960578081fd5b8135602067ffffffffffffffff82111561397c5761397c614b66565b80820261398a828201614a38565b8381528281019086840183880185018910156139a4578687fd5b8693505b858410156139c65780358352600193909301929184019184016139a8565b50979650505050505050565b600082601f8301126139e2578081fd5b81356139f56139f082614a62565b614a38565b818152846020838601011115613a09578283fd5b816020850160208301379081016020019190915292915050565b600060208284031215613a34578081fd5b8135613a3f81614b9a565b9392505050565b600060208284031215613a57578081fd5b8151613a3f81614b9a565b60008060408385031215613a74578081fd5b8235613a7f81614b9a565b91506020830135613a8f81614b9a565b809150509250929050565b600080600080600060a08688031215613ab1578081fd5b8535613abc81614b9a565b94506020860135613acc81614b9a565b9350604086013567ffffffffffffffff80821115613ae8578283fd5b613af489838a01613950565b94506060880135915080821115613b09578283fd5b613b1589838a01613950565b93506080880135915080821115613b2a578283fd5b50613b37888289016139d2565b9150509295509295909350565b600080600080600080600080610100898b031215613b60578283fd5b8835613b6b81614b9a565b97506020890135613b7b81614b9a565b96506040890135613b8b81614bbd565b9550606089013594506080890135935060a0890135613ba981614baf565b925060c0890135613bb981614baf565b915060e0890135613bc981614baf565b809150509295985092959890939650565b600080600080600080600080610100898b031215613bf6578182fd5b8851613c0181614b9a565b60208a0151909850613c1281614b9a565b60408a0151909750613c2381614bbd565b80965050606089015194506080890151935060a0890151613c4381614baf565b60c08a0151909350613c5481614baf565b60e08a0151909250613bc981614baf565b60008060008060808587031215613c7a578182fd5b8435613c8581614b9a565b93506020850135613c9581614b9a565b9250604085013591506060850135613cac81614b9a565b939692955090935050565b600080600080600060a08688031215613cce578283fd5b8535613cd981614b9a565b94506020860135613ce981614b9a565b93506040860135925060608601359150608086013567ffffffffffffffff811115613d12578182fd5b613b37888289016139d2565b60008060408385031215613d30578182fd5b8235613d3b81614b9a565b946020939093013593505050565b600080600060608486031215613d5d578081fd5b8335613d6881614b9a565b95602085013595506040909401359392505050565b600060208284031215613d8e578081fd5b813567ffffffffffffffff811115613da4578182fd5b613db084828501613950565b949350505050565b600060208284031215613dc9578081fd5b8135613a3f81614baf565b600060208284031215613de5578081fd5b8151613a3f81614baf565b600060208284031215613e01578081fd5b5051919050565b600060208284031215613e19578081fd5b81357fffffffff0000000000000000000000000000000000000000000000000000000081168114613a3f578182fd5b600080600080600060808688031215613e5f578283fd5b8535613e6a81614b9a565b94506020860135613e7a81614b9a565b935060408601359250606086013567ffffffffffffffff80821115613e9d578283fd5b818801915088601f830112613eb0578283fd5b813581811115613ebe578384fd5b896020828501011115613ecf578384fd5b9699959850939650602001949392505050565b600060208284031215613ef3578081fd5b8135613a3f81614bbd565b600060208284031215613f0f578081fd5b8151613a3f81614bbd565b600060208284031215613f2b578081fd5b813567ffffffffffffffff811115613f41578182fd5b613db0848285016139d2565b600060208284031215613f5e578081fd5b815167ffffffffffffffff811115613f74578182fd5b8201601f81018413613f84578182fd5b8051613f926139f082614a62565b818152856020838501011115613fa6578384fd5b612ffb826020830160208601614ae5565b600080600080600080600080610100898b031215613fd3578182fd5b883567ffffffffffffffff80821115613fea578384fd5b613ff68c838d016139d2565b995060208b013591508082111561400b578384fd5b506140188b828c016139d2565b97505060408901359550606089013594506080890135935060a0890135925060c0890135915060e0890135613bc981614b9a565b60006020828403121561405d578081fd5b5035919050565b60008060008060008060008060006101208a8c031215614082578283fd5b8935985060208a013561409481614b9a565b975060408a01356140a481614b9a565b965060608a01356140b481614bbd565b955060808a0135945060a08a0135935060c08a01356140d281614baf565b925060e08a01356140e281614baf565b91506101008a01356140f381614baf565b809150509295985092959850929598565b60008060408385031215614116578182fd5b823591506020830135613a8f81614baf565b6000806040838503121561413a578182fd5b50508035926020909101359150565b60008151808452614161816020860160208601614ae5565b601f01601f19169290920160200192915050565b60008251614187818460208701614ae5565b9190910192915050565b81546000908190600281046001808316806141ad57607f831692505b60208084108214156141cd57634e487b7160e01b87526022600452602487fd5b8180156141e157600181146141f25761421e565b60ff1986168952848901965061421e565b6141fb8a614a8a565b885b868110156142165781548b8201529085019083016141fd565b505084890196505b509498975050505050505050565b7f666c6173685f6c6f616e000000000000000000000000000000000000000000008152600a0190565b7f666c6173685f6c6f616e00000000000000000000000000000000000000000000815260609190911b7fffffffffffffffffffffffffffffffffffffffff00000000000000000000000016600a820152601e0190565b6001600160a01b0391909116815260200190565b6001600160a01b0392831681529116602082015260400190565b6001600160a01b0389811682528816602082015261010081016142fb88614b7c565b60408201979097526060810195909552608085019390935290151560a0840152151560c0830152151560e09091015292915050565b6001600160a01b039384168152919092166020820152604081019190915260600190565b60006001600160a01b03808916835280881660208401525085604083015284606083015260a060808301528260a0830152828460c084013781830160c090810191909152601f909201601f1916010195945050505050565b6001600160a01b03929092168252602082015260400190565b6001600160a01b039390931683526020830191909152604082015260600190565b6020808252825182820181905260009190848201906040850190845b818110156144275783516001600160a01b031683529284019291840191600101614402565b50909695505050505050565b6020808252825182820181905260009190848201906040850190845b818110156144275783518352928401929184019160010161444f565b901515815260200190565b9715158852602088019690965260408701949094526060860192909252608085015260a084015260c083015260e08201526101000190565b7fffffffff0000000000000000000000000000000000000000000000000000000091909116815260200190565b602081016144e883614b7c565b91905290565b606081016144fb85614b7c565b93815260208101929092526001600160a01b031660409091015290565b600060208252613a3f6020830184614149565b600061016080835261453f8184018f614149565b90508281036020840152614553818e614149565b90508281036040840152614567818d614149565b606084019b909b525050608081019790975260a087019590955260c086019390935260e0850191909152610100840152610120830152610140909101529392505050565b6020808252600d908201527f494e56414c49445f544f4b454e00000000000000000000000000000000000000604082015260600190565b6020808252601c908201527f466c6173684d696e7465723a2043616c6c6261636b206661696c656400000000604082015260600190565b60208082526011908201527f494e56414c49445f524543495049454e54000000000000000000000000000000604082015260600190565b60208082526010908201527f494e56414c49445f504f4f4c4841534800000000000000000000000000000000604082015260600190565b60208082526028908201527f436f6e74726f6c6c61626c653a2063616c6c6572206973206e6f74206120636f60408201527f6e74726f6c6c6572000000000000000000000000000000000000000000000000606082015260800190565b60208082526010908201527f414c52454144595f494d504f5254454400000000000000000000000000000000604082015260600190565b60208082526013908201527f494e56414c49445f544f4b454e534f5552434500000000000000000000000000604082015260600190565b60208082526011908201527f494e56414c49445f544f4b454e48415348000000000000000000000000000000604082015260600190565b60208082526011908201527f494e56414c49445f544f4b454e54595045000000000000000000000000000000604082015260600190565b6020808252601f908201527f466c6173684d696e7465723a205265706179206e6f7420617070726f76656400604082015260600190565b6020808252600c908201527f494e56414c49445f504f4f4c0000000000000000000000000000000000000000604082015260600190565b6020808252602a908201527f416464726573735365743a206b657920616c726561647920657869737473206960408201527f6e20746865207365742e00000000000000000000000000000000000000000000606082015260800190565b90815260200190565b9283526001600160a01b03918216602084015216604082015260600190565b8981526001600160a01b0389811660208301528816604082015261012081016148db88614b7c565b6060820197909752608081019590955260a085019390935290151560c0840152151560e08301521515610100909101529392505050565b9384526001600160a01b039290921660208401526040830152606082015260800190565b918252602082015260400190565b8a8152602081018a90526001600160a01b03898116604083015288166060820152610140810161497388614b7c565b608082019790975260a081019590955260c085019390935290151560e08401521515610100830152151561012090910152949350505050565b92835260208301919091521515604082015260600190565b9283526020830191909152604082015260600190565b838152606081016149ea84614b7c565b8360208301526001600160a01b0383166040830152949350505050565b9586526020860194909452604085019290925260608401526001600160a01b0316608083015260a082015260c00190565b60405181810167ffffffffffffffff81118282101715614a5a57614a5a614b66565b604052919050565b600067ffffffffffffffff821115614a7c57614a7c614b66565b50601f01601f191660200190565b60009081526020902090565b60008219821115614aa957614aa9614b50565b500190565b600082614ac957634e487b7160e01b81526012600452602481fd5b500490565b600082821015614ae057614ae0614b50565b500390565b60005b83811015614b00578181015183820152602001614ae8565b83811115614b0f576000848401525b50505050565b600281046001821680614b2957607f821691505b60208210811415614b4a57634e487b7160e01b600052602260045260246000fd5b50919050565b634e487b7160e01b600052601160045260246000fd5b634e487b7160e01b600052604160045260246000fd5b60038110610f8957634e487b7160e01b600052602160045260246000fd5b6001600160a01b0381168114610f8957600080fd5b8015158114610f8957600080fd5b60038110610f8957600080fdfea2646970667358221220975515982064f46a60d8cc5049e2c0f8e482b164e47a70d0edfeb0ecd658950164736f6c63430008000033a2646970667358221220dbd367f507f122dce911e6f3ea55a25556a0dcb453900b5cdaacb202d492d16d64736f6c63430008000033",
  "deployedBytecode": "0x608060405234801561001057600080fd5b50600436106100675760003560e01c80635e6fe72a116100505780635e6fe72a146100aa57806367275aed146100bf5780638514d358146100d257610067565b80631ff77f161461006c5780632b69fa1014610095575b600080fd5b61007f61007a36600461065b565b6100e5565b60405161008c91906106bb565b60405180910390f35b61009d61013c565b60405161008c91906106cf565b6100b261019e565b60405161008c91906108ff565b61007f6100cd36600461065b565b6101a4565b61007f6100e03660046105a8565b6101bf565b600060018281548110610121577f4e487b7100000000000000000000000000000000000000000000000000000000600052603260045260246000fd5b6000918252602090912001546001600160a01b031692915050565b6060600180548060200260200160405190810160405280929190818152602001828054801561019457602002820191906000526020600020905b81546001600160a01b03168152600190910190602001808311610176575b5050505050905090565b60015490565b6000908152602081905260409020546001600160a01b031690565b600080896040516020016101d3919061069f565b60408051601f1981840301815291815281516020928301206000818152928390529120549091506001600160a01b0316156102295760405162461bcd60e51b81526004016102209061085a565b60405180910390fd5b876102465760405162461bcd60e51b8152600401610220906107b5565b866102635760405162461bcd60e51b815260040161022090610891565b846102805760405162461bcd60e51b8152600401610220906107ec565b600060405180602001610292906104fe565b601f1982820381018352601f9091011660405290506102b360008383610484565b6040517fa7fc7a070000000000000000000000000000000000000000000000000000000081529093506001600160a01b0384169063a7fc7a07906102fb908f906004016106bb565b600060405180830381600087803b15801561031557600080fd5b505af1158015610329573d6000803e3d6000fd5b50506040517fd9a3f9bb0000000000000000000000000000000000000000000000000000000081526001600160a01b038616925063d9a3f9bb9150610380908e908e908e908e908e908e908e908e9060040161071c565b600060405180830381600087803b15801561039a57600080fd5b505af11580156103ae573d6000803e3d6000fd5b50505060008381526020819052604080822080546001600160a01b0388167fffffffffffffffffffffffff0000000000000000000000000000000000000000918216811790925560018054808201825594527fb10e2d527612073b26eecdfd717e6a320cf44b4afac2b0732d9fcbe2b7fa0cf690930180549093168117909255519091507f39edc680fea25684123932cc30f03ee17ba6966438526d7569cc7d6bb4e762e69061046d908e908e908e908e908e908e908e908e9061071c565b60405180910390a250509998505050505050505050565b600080844710156104a75760405162461bcd60e51b8152600401610220906108c8565b82516104c55760405162461bcd60e51b815260040161022090610780565b8383516020850187f590506001600160a01b0381166104f65760405162461bcd60e51b815260040161022090610823565b949350505050565b614c598061096883390190565b80356001600160a01b038116811461052257600080fd5b919050565b600082601f830112610537578081fd5b813567ffffffffffffffff8082111561055257610552610938565b6040516020601f19601f850116820101818110838211171561057657610576610938565b60405282815284830160200186101561058d578384fd5b82602086016020830137918201602001929092529392505050565b60008060008060008060008060006101208a8c0312156105c6578485fd5b6105cf8a61050b565b985060208a013567ffffffffffffffff808211156105eb578687fd5b6105f78d838e01610527565b995060408c013591508082111561060c578687fd5b506106198c828d01610527565b97505060608a0135955060808a0135945060a08a0135935060c08a0135925060e08a0135915061064c6101008b0161050b565b90509295985092959850929598565b60006020828403121561066c578081fd5b5035919050565b6000815180845261068b816020860160208601610908565b601f01601f19169290920160200192915050565b600082516106b1818460208701610908565b9190910192915050565b6001600160a01b0391909116815260200190565b6020808252825182820181905260009190848201906040850190845b818110156107105783516001600160a01b0316835292840192918401916001016106eb565b50909695505050505050565b60006101008083526107308184018c610673565b90508281036020840152610744818b610673565b604084019990995250506060810195909552608085019390935260a084019190915260c08301526001600160a01b031660e09091015292915050565b6020808252818101527f437265617465323a2062797465636f6465206c656e677468206973207a65726f604082015260600190565b6020808252600d908201527f494e56414c49445f505249434500000000000000000000000000000000000000604082015260600190565b60208082526017908201527f494e56414c49445f444946464943554c54595f53544550000000000000000000604082015260600190565b60208082526019908201527f437265617465323a204661696c6564206f6e206465706c6f7900000000000000604082015260600190565b6020808252600e908201527f47454d504f4f4c5f455849535453000000000000000000000000000000000000604082015260600190565b60208082526010908201527f494e56414c49445f4d494e5f54494d4500000000000000000000000000000000604082015260600190565b6020808252601d908201527f437265617465323a20696e73756666696369656e742062616c616e6365000000604082015260600190565b90815260200190565b60005b8381101561092357818101518382015260200161090b565b83811115610932576000848401525b50505050565b7f4e487b7100000000000000000000000000000000000000000000000000000000600052604160045260246000fdfe608060405234801561001057600080fd5b50336000818152602460205260408082208054600160ff19918216811783553285529284208054821684179055938352805490931617909155614c0090819061005990396000f3fe6080604052600436106105735760003560e01c8063a0021cf1116102ca578063d3d0839711610179578063e6c3b1f6116100d6578063f8d1e9301161008a578063f9eaee0d1161006f578063f9eaee0d14610e87578063fd31a0a514610ea7578063ff186b2e14610ec757610573565b8063f8d1e93014610e31578063f9c9c27614610e5357610573565b8063ef430aa6116100bb578063ef430aa614610de7578063f23a6e6114610dfc578063f4fde0d314610e1c57610573565b8063e6c3b1f614610da7578063edcf2d5714610dc757610573565b8063d9d98ce41161012d578063e06174e411610112578063e06174e414610d46578063e1c28bef14610d72578063e5d2ce2f14610d8757610573565b8063d9d98ce414610d06578063df1fe1a914610d2657610573565b8063d73cd47f1161015e578063d73cd47f14610c9d578063d80528ae14610cbd578063d9a3f9bb14610ce657610573565b8063d3d0839714610c68578063d43e646014610c7d57610573565b8063c42cf53511610227578063c80c0613116101db578063cf721b15116101c0578063cf721b1514610bf3578063d104f8f514610c28578063d31674db14610c4857610573565b8063c80c061314610bf3578063cdc8a8ab14610c0857610573565b8063c54a92421161020c578063c54a924214610b93578063c5e01a5c14610bb3578063c65eff9614610bd357610573565b8063c42cf53514610b53578063c455279114610b7357610573565b8063b3947a941161027e578063b788e4e911610263578063b788e4e914610b11578063bc197c8114610b26578063c08fa1a414610a5257610573565b8063b3947a9414610ad1578063b429afeb14610af157610573565b8063a901c474116102af578063a901c47414610a87578063af6a6d7914610aa7578063b385a50a14610abc57610573565b8063a0021cf114610a52578063a7fc7a0714610a6757610573565b80635d2e0dd4116104265780637f2e8f0c1161038357806390469a9d116103375780639277a1851161031c5780639277a185146109fd5780639593556014610a1d57806395d89b4114610a3d57610573565b806390469a9d146109bd57806390c3f38f146109dd57610573565b80638407b6c5116103685780638407b6c514610968578063870114f6146109885780638a09871b146109a857610573565b80637f2e8f0c14610928578063829775511461094857610573565b80636b6201da116103da5780637ae7815d116103bf5780637ae7815d146108c65780637c07bc7a146108e65780637dcb0e5f1461090857610573565b80636b6201da146108915780637284e416146108a457610573565b80635fb930911161040b5780635fb930911461083e5780636100c34314610851578063613255ab1461087157610573565b80635d2e0dd4146107fc5780635e5f2e261461081157610573565b8063336b9efb116104d457806344f0877c116104885780634e04cdc71161046d5780634e04cdc7146107b2578063504cdacf146107c75780635cffe9de146107dc57610573565b806344f0877c1461077d5780634565e5ef1461079d57610573565b8063392732b1116104b9578063392732b114610728578063407dff161461073b5780634178617f1461075d57610573565b8063336b9efb146106e1578063379607f5146106f657610573565b8063238dafe01161052b5780632449ef51116105105780632449ef511461068157806326ff3152146106a1578063328d8f72146106c157610573565b8063238dafe01461063f57806323b221a01461065457610573565b80631284650d1161055c5780631284650d146105dd57806315523ab9146105ff5780632360cf5e1461061f57610573565b806301ffc9a714610578578063044215c6146105ae575b600080fd5b34801561058457600080fd5b50610598610593366004613e08565b610edc565b6040516105a5919061446b565b60405180910390f35b3480156105ba57600080fd5b506105ce6105c936600461404c565b610f38565b6040516105a5939291906144ee565b3480156105e957600080fd5b506105fd6105f8366004613a23565b610f6e565b005b34801561060b57600080fd5b5061059861061a36600461404c565b610f8c565b34801561062b57600080fd5b506105fd61063a366004614128565b610fa0565b34801561064b57600080fd5b50610598611007565b34801561066057600080fd5b5061067461066f36600461404c565b611016565b6040516105a5919061488b565b34801561068d57600080fd5b506105fd61069c366004613a62565b6110bb565b3480156106ad57600080fd5b506105fd6106bc366004613a23565b611144565b3480156106cd57600080fd5b506105fd6106dc366004613db8565b61115e565b3480156106ed57600080fd5b506106746111cd565b34801561070257600080fd5b5061071661071136600461404c565b6111d3565b6040516105a596959493929190614a07565b6105fd610736366004614128565b61150b565b34801561074757600080fd5b50610750611560565b6040516105a591906144db565b34801561076957600080fd5b506105fd610778366004613a23565b611570565b34801561078957600080fd5b506105fd610798366004613db8565b6115ce565b3480156107a957600080fd5b50610674611658565b3480156107be57600080fd5b50610598611669565b3480156107d357600080fd5b50610674611677565b3480156107e857600080fd5b506105986107f7366004613e48565b61167d565b34801561080857600080fd5b50610598611a09565b34801561081d57600080fd5b5061083161082c36600461404c565b611a12565b6040516105a591906142ab565b6105fd61084c36600461404c565b611a1f565b34801561085d57600080fd5b506105fd61086c366004613d49565b611aa9565b34801561087d57600080fd5b5061067461088c366004613a23565b611b35565b6105fd61089f36600461404c565b611be7565b3480156108b057600080fd5b506108b9611c3d565b6040516105a59190614518565b3480156108d257600080fd5b506105fd6108e1366004613db8565b611cd2565b3480156108f257600080fd5b506108fb611d35565b6040516105a59190614433565b34801561091457600080fd5b5061067461092336600461404c565b611d8f565b34801561093457600080fd5b5061067461094336600461404c565b611da1565b34801561095457600080fd5b5061067461096336600461404c565b611df6565b34801561097457600080fd5b506105fd610983366004613b44565b611e08565b34801561099457600080fd5b506105fd6109a3366004614104565b611ea3565b3480156109b457600080fd5b50610674611ef8565b3480156109c957600080fd5b506105fd6109d8366004613a23565b611f9b565b3480156109e957600080fd5b506105fd6109f8366004613f1a565b611ff9565b348015610a0957600080fd5b506105fd610a18366004613a23565b612063565b348015610a2957600080fd5b50610674610a3836600461404c565b6120ac565b348015610a4957600080fd5b506108b9612101565b348015610a5e57600080fd5b50610674612113565b348015610a7357600080fd5b506105fd610a82366004613a23565b612119565b348015610a9357600080fd5b50610674610aa236600461404c565b61217b565b348015610ab357600080fd5b506105986121d0565b348015610ac857600080fd5b506106746121d9565b348015610add57600080fd5b506105fd610aec366004613c65565b6121df565b348015610afd57600080fd5b50610598610b0c366004613a23565b61275f565b348015610b1d57600080fd5b5061067461277d565b348015610b3257600080fd5b50610b46610b41366004613a9a565b6127d0565b6040516105a591906144ae565b348015610b5f57600080fd5b506105fd610b6e366004613a23565b6127fa565b348015610b7f57600080fd5b50610831610b8e366004613a23565b612843565b348015610b9f57600080fd5b506105fd610bae366004613ee2565b612848565b348015610bbf57600080fd5b50610831610bce36600461404c565b6128f1565b348015610bdf57600080fd5b506105fd610bee36600461404c565b612996565b348015610bff57600080fd5b506106746129ee565b348015610c1457600080fd5b506105fd610c23366004613d7d565b6129f4565b348015610c3457600080fd5b506105fd610c43366004613a23565b612a5a565b348015610c5457600080fd5b50610674610c6336600461404c565b612aa3565b348015610c7457600080fd5b50610674612ada565b348015610c8957600080fd5b506105fd610c98366004613db8565b612b2d565b348015610ca957600080fd5b506105fd610cb8366004613a23565b612b93565b348015610cc957600080fd5b50610cd2612bdc565b6040516105a5989796959493929190614476565b348015610cf257600080fd5b506105fd610d01366004613fb7565b612d60565b348015610d1257600080fd5b50610674610d21366004613d1e565b612e55565b348015610d3257600080fd5b506105fd610d41366004614064565b613004565b348015610d5257600080fd5b50610d5b6130a2565b6040516105a59b9a9998979695949392919061452b565b348015610d7e57600080fd5b506105fd6132b9565b348015610d9357600080fd5b506105fd610da236600461404c565b613310565b348015610db357600080fd5b50610750610dc236600461404c565b613368565b348015610dd357600080fd5b506105fd610de2366004613d1e565b61337d565b348015610df357600080fd5b506106746133d5565b348015610e0857600080fd5b50610b46610e17366004613cb7565b6133db565b348015610e2857600080fd5b50610674613405565b348015610e3d57600080fd5b50610e4661340b565b6040516105a591906143e6565b348015610e5f57600080fd5b50610e73610e6e36600461404c565b61346b565b6040516105a59897969594939291906142d9565b348015610e9357600080fd5b50610598610ea2366004613a23565b61351f565b348015610eb357600080fd5b506105fd610ec236600461404c565b61352c565b348015610ed357600080fd5b50610674613584565b60007fffffffff0000000000000000000000000000000000000000000000000000000082167f4e2312e0000000000000000000000000000000000000000000000000000000001480610f325750610f328261358a565b92915050565b6000908152601260209081526040808320546013835281842054601490935292205460ff9092169290916001600160a01b031690565b610f796015826135d4565b15610f8957610f89601582613643565b50565b600090815260208052604090205460ff1690565b3360009081526024602052604090205460ff16151560011480610fcd57506002546001600160a01b031633145b80610fd757503033145b610ffc5760405162461bcd60e51b8152600401610ff390614687565b60405180910390fd5b601991909155601855565b60115462010000900460ff1690565b6040517f01356b6d00000000000000000000000000000000000000000000000000000000815260009073__$8228317518e9daeef1bbbb17c026e269fd$__906301356b6d9061106b9084908690600401614936565b60206040518083038186803b15801561108357600080fd5b505af4158015611097573d6000803e3d6000fd5b505050506040513d601f19601f82011682018060405250810190610f329190613df0565b6040517fb9f0527400000000000000000000000000000000000000000000000000000000815273__$8228317518e9daeef1bbbb17c026e269fd$__9063b9f05274906111109060009086908690600401614894565b60006040518083038186803b15801561112857600080fd5b505af415801561113c573d6000803e3d6000fd5b505050505050565b61114f6015826135d4565b610f8957610f896015826137a9565b3360009081526024602052604090205460ff1615156001148061118b57506002546001600160a01b031633145b8061119557503033145b6111b15760405162461bcd60e51b8152600401610ff390614687565b60118054911515620100000262ff000019909216919091179055565b60105490565b600080600080600080600073__$8228317518e9daeef1bbbb17c026e269fd$__6301356b6d9091896040518363ffffffff1660e01b8152600401611218929190614936565b60206040518083038186803b15801561123057600080fd5b505af4158015611244573d6000803e3d6000fd5b505050506040513d601f19601f820116820180604052508101906112689190613df0565b6040517fecd5244e00000000000000000000000000000000000000000000000000000000815273__$8228317518e9daeef1bbbb17c026e269fd$__9063ecd5244e906112bb906000908c90600401614936565b60206040518083038186803b1580156112d357600080fd5b505af41580156112e7573d6000803e3d6000fd5b505050506040513d601f19601f8201168201806040525081019061130b9190613df0565b6040517fb94677da00000000000000000000000000000000000000000000000000000000815273__$8228317518e9daeef1bbbb17c026e269fd$__9063b94677da9061135e906000908d90600401614936565b60206040518083038186803b15801561137657600080fd5b505af415801561138a573d6000803e3d6000fd5b505050506040513d601f19601f820116820180604052508101906113ae9190613df0565b6040517fdc1f0f5300000000000000000000000000000000000000000000000000000000815273__$8228317518e9daeef1bbbb17c026e269fd$__9063dc1f0f5390611401906000908e90600401614936565b60206040518083038186803b15801561141957600080fd5b505af415801561142d573d6000803e3d6000fd5b505050506040513d601f19601f820116820180604052508101906114519190613df0565b6040517f76e455e100000000000000000000000000000000000000000000000000000000815273__$8228317518e9daeef1bbbb17c026e269fd$__906376e455e1906114a4906000908f90600401614936565b60206040518083038186803b1580156114bc57600080fd5b505af41580156114d0573d6000803e3d6000fd5b505050506040513d601f19601f820116820180604052508101906114f49190613a46565b601954949c939b5091995097509550909350915050565b6040517f80ca2ba600000000000000000000000000000000000000000000000000000000815273__$8228317518e9daeef1bbbb17c026e269fd$__906380ca2ba69061111090600090869086906004016149c4565b6011546301000000900460ff1690565b3360009081526024602052604090205460ff1615156001148061159d57506002546001600160a01b031633145b806115a757503033145b6115c35760405162461bcd60e51b8152600401610ff390614687565b610f896027826137a9565b3360009081526024602052604090205460ff161515600114806115fb57506002546001600160a01b031633145b8061160557503033145b6116215760405162461bcd60e51b8152600401610ff390614687565b60118054911515610100027fffffffffffffffffffffffffffffffffffffffffffffffffffffffffffff00ff909216919091179055565b60006116646027613835565b905090565b601154610100900460ff1690565b601a5490565b60008061168a8686612e55565b9050866001600160a01b0387166116d7576040516001600160a01b0382169087156108fc029088906000818181858888f193505050501580156116d1573d6000803e3d6000fd5b50611772565b6040517fa9059cbb0000000000000000000000000000000000000000000000000000000081526001600160a01b0388169063a9059cbb9061171e9084908a906004016143ac565b602060405180830381600087803b15801561173857600080fd5b505af115801561174c573d6000803e3d6000fd5b505050506040513d601f19601f820116820180604052508101906117709190613dd4565b505b60006001600160a01b0388161561181d576040517f70a082310000000000000000000000000000000000000000000000000000000081526001600160a01b038916906370a08231906117c89030906004016142ab565b60206040518083038186803b1580156117e057600080fd5b505afa1580156117f4573d6000803e3d6000fd5b505050506040513d601f19601f820116820180604052508101906118189190613df0565b61181f565b475b6040517f23e30c8b0000000000000000000000000000000000000000000000000000000081529091507f439148f0bbc682ca079e46d6e2c2f0c1e3b820f1a291b069d8882abf8cf18dd99081906001600160a01b038c16906323e30c8b906118959033908e908e908b908f908f90600401614354565b602060405180830381600087803b1580156118af57600080fd5b505af11580156118c3573d6000803e3d6000fd5b505050506040513d601f19601f820116820180604052508101906118e79190613df0565b146119045760405162461bcd60e51b8152600401610ff3906145e2565b476001600160a01b038a16156119b2576040517fdd62ed3e0000000000000000000000000000000000000000000000000000000081526001600160a01b038b169063dd62ed3e9061195b908e9030906004016142bf565b60206040518083038186803b15801561197357600080fd5b505afa158015611987573d6000803e3d6000fd5b505050506040513d601f19601f820116820180604052508101906119ab9190613df0565b90506119cf565b808311156119c2575060006119cf565b6119cc8382614ace565b90505b6119d9858a614a96565b8110156119f85760405162461bcd60e51b8152600401610ff3906147c0565b5060019a9950505050505050505050565b60115460ff1690565b6000610f3260278361383c565b6040517fe5fca79a00000000000000000000000000000000000000000000000000000000815273__$8228317518e9daeef1bbbb17c026e269fd$__9063e5fca79a90611a7690600090339034908790600401614912565b60006040518083038186803b158015611a8e57600080fd5b505af4158015611aa2573d6000803e3d6000fd5b5050505050565b6040517fafeafd9a00000000000000000000000000000000000000000000000000000000815273__$8228317518e9daeef1bbbb17c026e269fd$__9063afeafd9a90611b0090600090879087908790600401614912565b60006040518083038186803b158015611b1857600080fd5b505af4158015611b2c573d6000803e3d6000fd5b50505050505050565b60006001600160a01b03821615611be0576040517f70a082310000000000000000000000000000000000000000000000000000000081526001600160a01b038316906370a0823190611b8b9030906004016142ab565b60206040518083038186803b158015611ba357600080fd5b505afa158015611bb7573d6000803e3d6000fd5b505050506040513d601f19601f82011682018060405250810190611bdb9190613df0565b610f32565b5047919050565b6040517f80ca2ba600000000000000000000000000000000000000000000000000000000815273__$8228317518e9daeef1bbbb17c026e269fd$__906380ca2ba690611a769060009085906001906004016149c4565b606060006009018054611c4f90614b15565b80601f0160208091040260200160405190810160405280929190818152602001828054611c7b90614b15565b8015611cc85780601f10611c9d57610100808354040283529160200191611cc8565b820191906000526020600020905b815481529060010190602001808311611cab57829003601f168201915b5050505050905090565b3360009081526024602052604090205460ff16151560011480611cff57506002546001600160a01b031633145b80611d0957503033145b611d255760405162461bcd60e51b8152600401610ff390614687565b506011805460ff19166001179055565b60606000601701805480602002602001604051908101604052809291908181526020018280548015611cc857602002820191906000526020600020905b815481526020019060010190808311611d72575050505050905090565b60009081526013602052604090205490565b6040517fecd5244e00000000000000000000000000000000000000000000000000000000815260009073__$8228317518e9daeef1bbbb17c026e269fd$__9063ecd5244e9061106b9084908690600401614936565b60009081526021602052604090205490565b6040517f212f8bbd00000000000000000000000000000000000000000000000000000000815273__$8228317518e9daeef1bbbb17c026e269fd$__9063212f8bbd90611e69906000908c908c908c908c908c908c908c908c906004016148b3565b60006040518083038186803b158015611e8157600080fd5b505af4158015611e95573d6000803e3d6000fd5b505050505050505050505050565b6040517f48126f4b00000000000000000000000000000000000000000000000000000000815273__$8228317518e9daeef1bbbb17c026e269fd$__906348126f4b9061111090600090869086906004016149ac565b6040517f164cd8c200000000000000000000000000000000000000000000000000000000815260009073__$8228317518e9daeef1bbbb17c026e269fd$__9063164cd8c290611f4b90849060040161488b565b60206040518083038186803b158015611f6357600080fd5b505af4158015611f77573d6000803e3d6000fd5b505050506040513d601f19601f820116820180604052508101906116649190613df0565b3360009081526024602052604090205460ff16151560011480611fc857506002546001600160a01b031633145b80611fd257503033145b611fee5760405162461bcd60e51b8152600401610ff390614687565b610f89602782613643565b3360009081526024602052604090205460ff1615156001148061202657506002546001600160a01b031633145b8061203057503033145b61204c5760405162461bcd60e51b8152600401610ff390614687565b805161205f90600990602084019061387d565b5050565b336000908152602460205260409020805460ff191660011790556003805473ffffffffffffffffffffffffffffffffffffffff19166001600160a01b0392909216919091179055565b6040517fdc1f0f5300000000000000000000000000000000000000000000000000000000815260009073__$8228317518e9daeef1bbbb17c026e269fd$__9063dc1f0f539061106b9084908690600401614936565b606060006007018054611c4f90614b15565b60195490565b3360009081526024602052604090205460ff1615156001148061213b57503033145b6121575760405162461bcd60e51b8152600401610ff390614687565b6001600160a01b03166000908152602460205260409020805460ff19166001179055565b6040517fb94677da00000000000000000000000000000000000000000000000000000000815260009073__$8228317518e9daeef1bbbb17c026e269fd$__9063b94677da9061106b9084908690600401614936565b60065460ff1690565b600f5490565b600082116121ff5760405162461bcd60e51b8152600401610ff390614752565b6001600160a01b0384166122255760405162461bcd60e51b8152600401610ff3906147f7565b6001600160a01b03831661224b5760405162461bcd60e51b8152600401610ff3906145ab565b6001600160a01b0381166122715760405162461bcd60e51b8152600401610ff390614619565b61227c6015846135d4565b151560011461229d5760405162461bcd60e51b8152600401610ff39061471b565b600082815260208052604090205460ff16156122cb5760405162461bcd60e51b8152600401610ff3906146e4565b6000846001600160a01b03166395d89b416040518163ffffffff1660e01b815260040160006040518083038186803b15801561230657600080fd5b505afa15801561231a573d6000803e3d6000fd5b505050506040513d6000823e601f3d908101601f191682016040526123429190810190613f4d565b6040516020016123529190614175565b60408051601f19818403018152908290528051602091820120925060009161237d9160079101614191565b6040516020818303038152906040528051906020012090508082146123b45760405162461bcd60e51b8152600401610ff390614650565b6040517fe6c3b1f60000000000000000000000000000000000000000000000000000000081526000906001600160a01b0388169063e6c3b1f6906123fc90889060040161488b565b60206040518083038186803b15801561241457600080fd5b505afa158015612428573d6000803e3d6000fd5b505050506040513d601f19601f8201168201806040525081019061244c9190613efe565b9050600281600281111561247057634e487b7160e01b600052602160045260246000fd5b1461248d5760405162461bcd60e51b8152600401610ff390614789565b6040517efdd58e0000000000000000000000000000000000000000000000000000000081526000906001600160a01b0388169062fdd58e906124d59088908a906004016143ac565b60206040518083038186803b1580156124ed57600080fd5b505afa158015612501573d6000803e3d6000fd5b505050506040513d601f19601f820116820180604052508101906125259190613df0565b90506000886001600160a01b0316637dcb0e5f886040518263ffffffff1660e01b8152600401612555919061488b565b60206040518083038186803b15801561256d57600080fd5b505afa158015612581573d6000803e3d6000fd5b505050506040513d601f19601f820116820180604052508101906125a59190613df0565b90508115612754576001546040517f156e29f60000000000000000000000000000000000000000000000000000000081526001600160a01b039091169063156e29f6906125fa9089908b9087906004016143c5565b600060405180830381600087803b15801561261457600080fd5b505af1158015612628573d6000803e3d6000fd5b50506001546040517f7c8810760000000000000000000000000000000000000000000000000000000081526001600160a01b039091169250637c881076915061267a908a9060029030906004016149da565b600060405180830381600087803b15801561269457600080fd5b505af11580156126a8573d6000803e3d6000fd5b50505060008881526012602090815260408083208054600260ff19918216179091556013835281842086905560148352818420805473ffffffffffffffffffffffffffffffffffffffff19166001600160a01b038f16179055918052918290208054909116600117905551889150309033907ff5b54e798ff7f434ed773aa633e6a9f82ef9ae465e46042e1983f29bf1fd69ea9061274b908e908e908990614330565b60405180910390a45b505050505050505050565b6001600160a01b031660009081526024602052604090205460ff1690565b6040517f33c13e0d00000000000000000000000000000000000000000000000000000000815260009073__$8228317518e9daeef1bbbb17c026e269fd$__906333c13e0d90611f4b90849060040161488b565b7fbc197c810000000000000000000000000000000000000000000000000000000095945050505050565b336000908152602460205260409020805460ff191660011790556002805473ffffffffffffffffffffffffffffffffffffffff19166001600160a01b0392909216919091179055565b503090565b3360009081526024602052604090205460ff1615156001148061287557506002546001600160a01b031633145b8061287f57503033145b61289b5760405162461bcd60e51b8152600401610ff390614687565b601180548291907fffffffffffffffffffffffffffffffffffffffffffffffffffffffff00ffffff1663010000008360028111156128e957634e487b7160e01b600052602160045260246000fd5b021790555050565b6040517f76e455e100000000000000000000000000000000000000000000000000000000815260009073__$8228317518e9daeef1bbbb17c026e269fd$__906376e455e1906129469084908690600401614936565b60206040518083038186803b15801561295e57600080fd5b505af4158015612972573d6000803e3d6000fd5b505050506040513d601f19601f82011682018060405250810190610f329190613a46565b3360009081526024602052604090205460ff161515600114806129c357506002546001600160a01b031633145b806129cd57503033145b6129e95760405162461bcd60e51b8152600401610ff390614687565b601055565b60185490565b3360009081526024602052604090205460ff16151560011480612a2157506002546001600160a01b031633145b80612a2b57503033145b612a475760405162461bcd60e51b8152600401610ff390614687565b805161205f906017906020840190613901565b336000908152602460205260409020805460ff191660011790556001805473ffffffffffffffffffffffffffffffffffffffff19166001600160a01b0392909216919091179055565b6000806017018281548110612ac857634e487b7160e01b600052603260045260246000fd5b90600052602060002001549050919050565b6040517f828c7b7200000000000000000000000000000000000000000000000000000000815260009073__$8228317518e9daeef1bbbb17c026e269fd$__9063828c7b7290611f4b90849060040161488b565b3360009081526024602052604090205460ff16151560011480612b5a57506002546001600160a01b031633145b80612b6457503033145b612b805760405162461bcd60e51b8152600401610ff390614687565b6006805460ff1916911515919091179055565b336000908152602460205260409020805460ff191660011790556004805473ffffffffffffffffffffffffffffffffffffffff19166001600160a01b0392909216919091179055565b600654601954601854601a546040517f164cd8c2000000000000000000000000000000000000000000000000000000008152600094859485948594859485948594859460ff90921693909273__$8228317518e9daeef1bbbb17c026e269fd$__9063164cd8c290612c5190889060040161488b565b60206040518083038186803b158015612c6957600080fd5b505af4158015612c7d573d6000803e3d6000fd5b505050506040513d601f19601f82011682018060405250810190612ca19190613df0565b6040517f33c13e0d00000000000000000000000000000000000000000000000000000000815273__$8228317518e9daeef1bbbb17c026e269fd$__906333c13e0d90612cf29060009060040161488b565b60206040518083038186803b158015612d0a57600080fd5b505af4158015612d1e573d6000803e3d6000fd5b505050506040513d601f19601f82011682018060405250810190612d429190613df0565b601954601854969f959e50939c50919a509850965094509092509050565b3360009081526024602052604090205460ff16151560011480612d8d57506002546001600160a01b031633145b80612d9757503033145b612db35760405162461bcd60e51b8152600401610ff390614687565b6000805473ffffffffffffffffffffffffffffffffffffffff1916301790558751612de59060079060208b019061387d565b508651612df99060089060208a019061387d565b50600a869055600b859055600c849055600d839055600e8290556006805460ff191660011790556011805462ff00001916620100001790556001600160a01b03811615612e4b57612e4b6027826137a9565b5050505050505050565b60008083604051602001612e699190614255565b60408051601f198184030181529082905280516020909101206003547f39b37ab00000000000000000000000000000000000000000000000000000000083529092506000916001600160a01b03909116906339b37ab090612ece90859060040161488b565b60206040518083038186803b158015612ee657600080fd5b505afa158015612efa573d6000803e3d6000fd5b505050506040513d601f19601f82011682018060405250810190612f1e9190613df0565b905080612fe757604051602001612f349061422c565b60408051601f198184030181529082905280516020909101206003547f39b37ab00000000000000000000000000000000000000000000000000000000083529093506001600160a01b0316906339b37ab090612f9490859060040161488b565b60206040518083038186803b158015612fac57600080fd5b505afa158015612fc0573d6000803e3d6000fd5b505050506040513d601f19601f82011682018060405250810190612fe49190613df0565b90505b80612ff157506127105b612ffb8185614aae565b95945050505050565b6040517f2394dcbf00000000000000000000000000000000000000000000000000000000815273__$8228317518e9daeef1bbbb17c026e269fd$__90632394dcbf90613067906000908d908d908d908d908d908d908d908d908d90600401614944565b60006040518083038186803b15801561307f57600080fd5b505af4158015613093573d6000803e3d6000fd5b50505050505050505050505050565b60608060606000806000806000806000806000600701600060080160006009016000600501546000600a01546000600b01546000600c01546000600d01546000600e01546000600f01546000601001548a80546130fe90614b15565b80601f016020809104026020016040519081016040528092919081815260200182805461312a90614b15565b80156131775780601f1061314c57610100808354040283529160200191613177565b820191906000526020600020905b81548152906001019060200180831161315a57829003601f168201915b50505050509a5089805461318a90614b15565b80601f01602080910402602001604051908101604052809291908181526020018280546131b690614b15565b80156132035780601f106131d857610100808354040283529160200191613203565b820191906000526020600020905b8154815290600101906020018083116131e657829003601f168201915b5050505050995088805461321690614b15565b80601f016020809104026020016040519081016040528092919081815260200182805461324290614b15565b801561328f5780601f106132645761010080835404028352916020019161328f565b820191906000526020600020905b81548152906001019060200180831161327257829003601f168201915b505050505098509a509a509a509a509a509a509a509a509a509a509a50909192939495969798999a565b3360009081526024602052604090205460ff161515600114806132db57503033145b6132f75760405162461bcd60e51b8152600401610ff390614687565b336000908152602460205260409020805460ff19169055565b3360009081526024602052604090205460ff1615156001148061333d57506002546001600160a01b031633145b8061334757503033145b6133635760405162461bcd60e51b8152600401610ff390614687565b600555565b60009081526012602052604090205460ff1690565b6040517fafeafd9a00000000000000000000000000000000000000000000000000000000815273__$8228317518e9daeef1bbbb17c026e269fd$__9063afeafd9a906111109060009086908690600190600401614912565b60055490565b7ff23a6e610000000000000000000000000000000000000000000000000000000095945050505050565b60175490565b601680546040805160208084028201810190925282815260609390929091830182828015611cc857602002820191906000526020600020905b81546001600160a01b03168152600190910190602001808311613444575050505050905090565b600080600080600080600080600073__$8228317518e9daeef1bbbb17c026e269fd$__635b68e93c90918b6040518363ffffffff1660e01b81526004016134b3929190614936565b6101006040518083038186803b1580156134cc57600080fd5b505af41580156134e0573d6000803e3d6000fd5b505050506040513d601f19601f820116820180604052508101906135049190613bda565b97509750975097509750975097509750919395975091939597565b6000610f326027836135d4565b3360009081526024602052604090205460ff1615156001148061355957506002546001600160a01b031633145b8061356357503033145b61357f5760405162461bcd60e51b8152600401610ff390614687565b600f55565b600a5490565b7fffffffff0000000000000000000000000000000000000000000000000000000081167f01ffc9a70000000000000000000000000000000000000000000000000000000014919050565b60018201546000906135e857506000610f32565b6001600160a01b038216600081815260208590526040902054600185018054909190811061362657634e487b7160e01b600052603260045260246000fd5b6000918252602090912001546001600160a01b0316149392505050565b61364d82826135d4565b6136565761205f565b6000600161366384613835565b61366d9190614ace565b6001600160a01b0383166000908152602085905260409020549091508082146137345760008460010183815481106136b557634e487b7160e01b600052603260045260246000fd5b60009182526020808320909101546001600160a01b031680835290879052604090912083905560018601805491925082918490811061370457634e487b7160e01b600052603260045260246000fd5b9060005260206000200160006101000a8154816001600160a01b0302191690836001600160a01b03160217905550505b6001600160a01b03831660009081526020859052604081205560018085018054909161375f91614ace565b8154811061377d57634e487b7160e01b600052603260045260246000fd5b6000918252602090912001805473ffffffffffffffffffffffffffffffffffffffff1916905550505050565b6137b382826135d4565b156137d05760405162461bcd60e51b8152600401610ff39061482e565b60018281018054808301825560008281526020902001805473ffffffffffffffffffffffffffffffffffffffff19166001600160a01b038516179055546138179190614ace565b6001600160a01b039091166000908152602092909252604090912055565b6001015490565b600082600101828154811061386157634e487b7160e01b600052603260045260246000fd5b6000918252602090912001546001600160a01b03169392505050565b82805461388990614b15565b90600052602060002090601f0160209004810192826138ab57600085556138f1565b82601f106138c457805160ff19168380011785556138f1565b828001600101855582156138f1579182015b828111156138f15782518255916020019190600101906138d6565b506138fd92915061393b565b5090565b8280548282559060005260206000209081019282156138f157916020028201828111156138f15782518255916020019190600101906138d6565b5b808211156138fd576000815560010161393c565b600082601f830112613960578081fd5b8135602067ffffffffffffffff82111561397c5761397c614b66565b80820261398a828201614a38565b8381528281019086840183880185018910156139a4578687fd5b8693505b858410156139c65780358352600193909301929184019184016139a8565b50979650505050505050565b600082601f8301126139e2578081fd5b81356139f56139f082614a62565b614a38565b818152846020838601011115613a09578283fd5b816020850160208301379081016020019190915292915050565b600060208284031215613a34578081fd5b8135613a3f81614b9a565b9392505050565b600060208284031215613a57578081fd5b8151613a3f81614b9a565b60008060408385031215613a74578081fd5b8235613a7f81614b9a565b91506020830135613a8f81614b9a565b809150509250929050565b600080600080600060a08688031215613ab1578081fd5b8535613abc81614b9a565b94506020860135613acc81614b9a565b9350604086013567ffffffffffffffff80821115613ae8578283fd5b613af489838a01613950565b94506060880135915080821115613b09578283fd5b613b1589838a01613950565b93506080880135915080821115613b2a578283fd5b50613b37888289016139d2565b9150509295509295909350565b600080600080600080600080610100898b031215613b60578283fd5b8835613b6b81614b9a565b97506020890135613b7b81614b9a565b96506040890135613b8b81614bbd565b9550606089013594506080890135935060a0890135613ba981614baf565b925060c0890135613bb981614baf565b915060e0890135613bc981614baf565b809150509295985092959890939650565b600080600080600080600080610100898b031215613bf6578182fd5b8851613c0181614b9a565b60208a0151909850613c1281614b9a565b60408a0151909750613c2381614bbd565b80965050606089015194506080890151935060a0890151613c4381614baf565b60c08a0151909350613c5481614baf565b60e08a0151909250613bc981614baf565b60008060008060808587031215613c7a578182fd5b8435613c8581614b9a565b93506020850135613c9581614b9a565b9250604085013591506060850135613cac81614b9a565b939692955090935050565b600080600080600060a08688031215613cce578283fd5b8535613cd981614b9a565b94506020860135613ce981614b9a565b93506040860135925060608601359150608086013567ffffffffffffffff811115613d12578182fd5b613b37888289016139d2565b60008060408385031215613d30578182fd5b8235613d3b81614b9a565b946020939093013593505050565b600080600060608486031215613d5d578081fd5b8335613d6881614b9a565b95602085013595506040909401359392505050565b600060208284031215613d8e578081fd5b813567ffffffffffffffff811115613da4578182fd5b613db084828501613950565b949350505050565b600060208284031215613dc9578081fd5b8135613a3f81614baf565b600060208284031215613de5578081fd5b8151613a3f81614baf565b600060208284031215613e01578081fd5b5051919050565b600060208284031215613e19578081fd5b81357fffffffff0000000000000000000000000000000000000000000000000000000081168114613a3f578182fd5b600080600080600060808688031215613e5f578283fd5b8535613e6a81614b9a565b94506020860135613e7a81614b9a565b935060408601359250606086013567ffffffffffffffff80821115613e9d578283fd5b818801915088601f830112613eb0578283fd5b813581811115613ebe578384fd5b896020828501011115613ecf578384fd5b9699959850939650602001949392505050565b600060208284031215613ef3578081fd5b8135613a3f81614bbd565b600060208284031215613f0f578081fd5b8151613a3f81614bbd565b600060208284031215613f2b578081fd5b813567ffffffffffffffff811115613f41578182fd5b613db0848285016139d2565b600060208284031215613f5e578081fd5b815167ffffffffffffffff811115613f74578182fd5b8201601f81018413613f84578182fd5b8051613f926139f082614a62565b818152856020838501011115613fa6578384fd5b612ffb826020830160208601614ae5565b600080600080600080600080610100898b031215613fd3578182fd5b883567ffffffffffffffff80821115613fea578384fd5b613ff68c838d016139d2565b995060208b013591508082111561400b578384fd5b506140188b828c016139d2565b97505060408901359550606089013594506080890135935060a0890135925060c0890135915060e0890135613bc981614b9a565b60006020828403121561405d578081fd5b5035919050565b60008060008060008060008060006101208a8c031215614082578283fd5b8935985060208a013561409481614b9a565b975060408a01356140a481614b9a565b965060608a01356140b481614bbd565b955060808a0135945060a08a0135935060c08a01356140d281614baf565b925060e08a01356140e281614baf565b91506101008a01356140f381614baf565b809150509295985092959850929598565b60008060408385031215614116578182fd5b823591506020830135613a8f81614baf565b6000806040838503121561413a578182fd5b50508035926020909101359150565b60008151808452614161816020860160208601614ae5565b601f01601f19169290920160200192915050565b60008251614187818460208701614ae5565b9190910192915050565b81546000908190600281046001808316806141ad57607f831692505b60208084108214156141cd57634e487b7160e01b87526022600452602487fd5b8180156141e157600181146141f25761421e565b60ff1986168952848901965061421e565b6141fb8a614a8a565b885b868110156142165781548b8201529085019083016141fd565b505084890196505b509498975050505050505050565b7f666c6173685f6c6f616e000000000000000000000000000000000000000000008152600a0190565b7f666c6173685f6c6f616e00000000000000000000000000000000000000000000815260609190911b7fffffffffffffffffffffffffffffffffffffffff00000000000000000000000016600a820152601e0190565b6001600160a01b0391909116815260200190565b6001600160a01b0392831681529116602082015260400190565b6001600160a01b0389811682528816602082015261010081016142fb88614b7c565b60408201979097526060810195909552608085019390935290151560a0840152151560c0830152151560e09091015292915050565b6001600160a01b039384168152919092166020820152604081019190915260600190565b60006001600160a01b03808916835280881660208401525085604083015284606083015260a060808301528260a0830152828460c084013781830160c090810191909152601f909201601f1916010195945050505050565b6001600160a01b03929092168252602082015260400190565b6001600160a01b039390931683526020830191909152604082015260600190565b6020808252825182820181905260009190848201906040850190845b818110156144275783516001600160a01b031683529284019291840191600101614402565b50909695505050505050565b6020808252825182820181905260009190848201906040850190845b818110156144275783518352928401929184019160010161444f565b901515815260200190565b9715158852602088019690965260408701949094526060860192909252608085015260a084015260c083015260e08201526101000190565b7fffffffff0000000000000000000000000000000000000000000000000000000091909116815260200190565b602081016144e883614b7c565b91905290565b606081016144fb85614b7c565b93815260208101929092526001600160a01b031660409091015290565b600060208252613a3f6020830184614149565b600061016080835261453f8184018f614149565b90508281036020840152614553818e614149565b90508281036040840152614567818d614149565b606084019b909b525050608081019790975260a087019590955260c086019390935260e0850191909152610100840152610120830152610140909101529392505050565b6020808252600d908201527f494e56414c49445f544f4b454e00000000000000000000000000000000000000604082015260600190565b6020808252601c908201527f466c6173684d696e7465723a2043616c6c6261636b206661696c656400000000604082015260600190565b60208082526011908201527f494e56414c49445f524543495049454e54000000000000000000000000000000604082015260600190565b60208082526010908201527f494e56414c49445f504f4f4c4841534800000000000000000000000000000000604082015260600190565b60208082526028908201527f436f6e74726f6c6c61626c653a2063616c6c6572206973206e6f74206120636f60408201527f6e74726f6c6c6572000000000000000000000000000000000000000000000000606082015260800190565b60208082526010908201527f414c52454144595f494d504f5254454400000000000000000000000000000000604082015260600190565b60208082526013908201527f494e56414c49445f544f4b454e534f5552434500000000000000000000000000604082015260600190565b60208082526011908201527f494e56414c49445f544f4b454e48415348000000000000000000000000000000604082015260600190565b60208082526011908201527f494e56414c49445f544f4b454e54595045000000000000000000000000000000604082015260600190565b6020808252601f908201527f466c6173684d696e7465723a205265706179206e6f7420617070726f76656400604082015260600190565b6020808252600c908201527f494e56414c49445f504f4f4c0000000000000000000000000000000000000000604082015260600190565b6020808252602a908201527f416464726573735365743a206b657920616c726561647920657869737473206960408201527f6e20746865207365742e00000000000000000000000000000000000000000000606082015260800190565b90815260200190565b9283526001600160a01b03918216602084015216604082015260600190565b8981526001600160a01b0389811660208301528816604082015261012081016148db88614b7c565b6060820197909752608081019590955260a085019390935290151560c0840152151560e08301521515610100909101529392505050565b9384526001600160a01b039290921660208401526040830152606082015260800190565b918252602082015260400190565b8a8152602081018a90526001600160a01b03898116604083015288166060820152610140810161497388614b7c565b608082019790975260a081019590955260c085019390935290151560e08401521515610100830152151561012090910152949350505050565b92835260208301919091521515604082015260600190565b9283526020830191909152604082015260600190565b838152606081016149ea84614b7c565b8360208301526001600160a01b0383166040830152949350505050565b9586526020860194909452604085019290925260608401526001600160a01b0316608083015260a082015260c00190565b60405181810167ffffffffffffffff81118282101715614a5a57614a5a614b66565b604052919050565b600067ffffffffffffffff821115614a7c57614a7c614b66565b50601f01601f191660200190565b60009081526020902090565b60008219821115614aa957614aa9614b50565b500190565b600082614ac957634e487b7160e01b81526012600452602481fd5b500490565b600082821015614ae057614ae0614b50565b500390565b60005b83811015614b00578181015183820152602001614ae8565b83811115614b0f576000848401525b50505050565b600281046001821680614b2957607f821691505b60208210811415614b4a57634e487b7160e01b600052602260045260246000fd5b50919050565b634e487b7160e01b600052601160045260246000fd5b634e487b7160e01b600052604160045260246000fd5b60038110610f8957634e487b7160e01b600052602160045260246000fd5b6001600160a01b0381168114610f8957600080fd5b8015158114610f8957600080fd5b60038110610f8957600080fdfea2646970667358221220975515982064f46a60d8cc5049e2c0f8e482b164e47a70d0edfeb0ecd658950164736f6c63430008000033a2646970667358221220dbd367f507f122dce911e6f3ea55a25556a0dcb453900b5cdaacb202d492d16d64736f6c63430008000033",
  "libraries": {
    "Strings": "0xd45eC25dF301d3E0FCfb2579cC5d983808fe0819",
    "AddressSet": "0x16898Ec08bab43BCF1Ae0A2fa90E25D61F5AaB4f",
    "UInt256Set": "0x5A1295EA06d05ace6B3E2a3f0Bc0769E0D914eBA",
    "Create2": "0xF0c0e1CfC1b73a20Dde07BEA2B640096e581E58A",
    "WrappedTokenLib": "0x233D640e29a53D63cF6434a074a4aA61390Ed3FF",
    "ComplexPoolLib": "0x7D9831a6684eAfC37c0e29b2c8465df7eFcFe3A1"
  },
  "devdoc": {
    "kind": "dev",
    "methods": {
      "allNFTGemPools(uint256)": {
        "details": "get the quantized token for this"
      },
      "allNFTGemPoolsLength()": {
        "details": "number of quantized addresses"
      },
      "createNFTGemPool(address,string,string,uint256,uint256,uint256,uint256,uint256,address)": {
        "details": "deploy a new erc20 token using create2"
      },
      "getNFTGemPool(uint256)": {
        "details": "get the quantized token for this"
      },
      "nftGemPools()": {
        "details": "get the quantized token for this"
      }
    },
    "version": 1
  },
  "userdoc": {
    "kind": "user",
    "methods": {},
    "version": 1
  },
  "storageLayout": {
    "storage": [
      {
        "astId": 5200,
        "contract": "src/factories/NFTGemPoolFactory.sol:NFTGemPoolFactory",
        "label": "_getNFTGemPool",
        "offset": 0,
        "slot": "0",
        "type": "t_mapping(t_uint256,t_address)"
      },
      {
        "astId": 5203,
        "contract": "src/factories/NFTGemPoolFactory.sol:NFTGemPoolFactory",
        "label": "_allNFTGemPools",
        "offset": 0,
        "slot": "1",
        "type": "t_array(t_address)dyn_storage"
      }
    ],
    "types": {
      "t_address": {
        "encoding": "inplace",
        "label": "address",
        "numberOfBytes": "20"
      },
      "t_array(t_address)dyn_storage": {
        "base": "t_address",
        "encoding": "dynamic_array",
        "label": "address[]",
        "numberOfBytes": "32"
      },
      "t_mapping(t_uint256,t_address)": {
        "encoding": "mapping",
        "key": "t_uint256",
        "label": "mapping(uint256 => address)",
        "numberOfBytes": "32",
        "value": "t_address"
      },
      "t_uint256": {
        "encoding": "inplace",
        "label": "uint256",
        "numberOfBytes": "32"
      }
    }
  }
}