{
  "address": "0x7B83e8071175E8a9A3370b5db6bd9D3Fc2c2F87e",
  "abi": [
    {
      "inputs": [],
      "stateMutability": "nonpayable",
      "type": "constructor"
    },
    {
      "anonymous": false,
      "inputs": [
        {
          "indexed": true,
          "internalType": "address",
          "name": "contractAddress",
          "type": "address"
        },
        {
          "indexed": true,
          "internalType": "address",
          "name": "controllerAddress",
          "type": "address"
        }
      ],
      "name": "ControllerAdded",
      "type": "event"
    },
    {
      "anonymous": false,
      "inputs": [
        {
          "indexed": true,
          "internalType": "address",
          "name": "contractAddress",
          "type": "address"
        },
        {
          "indexed": true,
          "internalType": "address",
          "name": "controllerAddress",
          "type": "address"
        }
      ],
      "name": "ControllerRemoved",
      "type": "event"
    },
    {
      "anonymous": false,
      "inputs": [
        {
          "indexed": false,
          "internalType": "string",
          "name": "gemSymbol",
          "type": "string"
        },
        {
          "indexed": false,
          "internalType": "string",
          "name": "gemName",
          "type": "string"
        }
      ],
      "name": "CustomNFTGemPoolCreated",
      "type": "event"
    },
    {
      "anonymous": false,
      "inputs": [
        {
          "indexed": false,
          "internalType": "string",
          "name": "gemSymbol",
          "type": "string"
        },
        {
          "indexed": false,
          "internalType": "string",
          "name": "gemName",
          "type": "string"
        },
        {
          "indexed": false,
          "internalType": "uint256",
          "name": "ethPrice",
          "type": "uint256"
        },
        {
          "indexed": false,
          "internalType": "uint256",
          "name": "mintTime",
          "type": "uint256"
        },
        {
          "indexed": false,
          "internalType": "uint256",
          "name": "maxTime",
          "type": "uint256"
        },
        {
          "indexed": false,
          "internalType": "uint256",
          "name": "diffstep",
          "type": "uint256"
        },
        {
          "indexed": false,
          "internalType": "uint256",
          "name": "maxMint",
          "type": "uint256"
        },
        {
          "indexed": false,
          "internalType": "address",
          "name": "allowedToken",
          "type": "address"
        }
      ],
      "name": "NFTGemPoolCreated",
      "type": "event"
    },
    {
      "inputs": [
        {
          "internalType": "address",
          "name": "_controller",
          "type": "address"
        }
      ],
      "name": "addController",
      "outputs": [],
      "stateMutability": "nonpayable",
      "type": "function"
    },
    {
      "inputs": [
        {
          "internalType": "address",
          "name": "poolAddress",
          "type": "address"
        },
        {
          "internalType": "string",
          "name": "gemSymbol",
          "type": "string"
        },
        {
          "internalType": "string",
          "name": "gemName",
          "type": "string"
        }
      ],
      "name": "addCustomNFTGemPool",
      "outputs": [
        {
          "internalType": "address payable",
          "name": "gemPool",
          "type": "address"
        }
      ],
      "stateMutability": "nonpayable",
      "type": "function"
    },
    {
      "inputs": [
        {
          "internalType": "uint256",
          "name": "idx",
          "type": "uint256"
        }
      ],
      "name": "allNFTGemPools",
      "outputs": [
        {
          "internalType": "address",
          "name": "gemPool",
          "type": "address"
        }
      ],
      "stateMutability": "view",
      "type": "function"
    },
    {
      "inputs": [],
      "name": "allNFTGemPoolsLength",
      "outputs": [
        {
          "internalType": "uint256",
          "name": "",
          "type": "uint256"
        }
      ],
      "stateMutability": "view",
      "type": "function"
    },
    {
      "inputs": [
        {
          "internalType": "bytes",
          "name": "bytecode",
          "type": "bytes"
        },
        {
          "internalType": "string",
          "name": "gemSymbol",
          "type": "string"
        },
        {
          "internalType": "string",
          "name": "gemName",
          "type": "string"
        }
      ],
      "name": "createCustomNFTGemPool",
      "outputs": [
        {
          "internalType": "address payable",
          "name": "gemPool",
          "type": "address"
        }
      ],
      "stateMutability": "nonpayable",
      "type": "function"
    },
    {
      "inputs": [
        {
          "internalType": "string",
          "name": "gemSymbol",
          "type": "string"
        },
        {
          "internalType": "string",
          "name": "gemName",
          "type": "string"
        },
        {
          "internalType": "uint256",
          "name": "ethPrice",
          "type": "uint256"
        },
        {
          "internalType": "uint256",
          "name": "minTime",
          "type": "uint256"
        },
        {
          "internalType": "uint256",
          "name": "maxTime",
          "type": "uint256"
        },
        {
          "internalType": "uint256",
          "name": "diffstep",
          "type": "uint256"
        },
        {
          "internalType": "uint256",
          "name": "maxMint",
          "type": "uint256"
        },
        {
          "internalType": "address",
          "name": "allowedToken",
          "type": "address"
        }
      ],
      "name": "createNFTGemPool",
      "outputs": [
        {
          "internalType": "address payable",
          "name": "gemPool",
          "type": "address"
        }
      ],
      "stateMutability": "nonpayable",
      "type": "function"
    },
    {
      "inputs": [
        {
          "internalType": "uint256",
          "name": "_symbolHash",
          "type": "uint256"
        }
      ],
      "name": "getNFTGemPool",
      "outputs": [
        {
          "internalType": "address",
          "name": "gemPool",
          "type": "address"
        }
      ],
      "stateMutability": "view",
      "type": "function"
    },
    {
      "inputs": [
        {
          "internalType": "address",
          "name": "_address",
          "type": "address"
        }
      ],
      "name": "isController",
      "outputs": [
        {
          "internalType": "bool",
          "name": "allowed",
          "type": "bool"
        }
      ],
      "stateMutability": "view",
      "type": "function"
    },
    {
      "inputs": [],
      "name": "relinquishControl",
      "outputs": [],
      "stateMutability": "view",
      "type": "function"
    },
    {
      "inputs": [
        {
          "internalType": "uint256",
          "name": "poolHash",
          "type": "uint256"
        }
      ],
      "name": "removeGemPool",
      "outputs": [],
      "stateMutability": "nonpayable",
      "type": "function"
    },
    {
      "inputs": [
        {
          "internalType": "uint256",
          "name": "ndx",
          "type": "uint256"
        }
      ],
      "name": "removeGemPoolAt",
      "outputs": [],
      "stateMutability": "nonpayable",
      "type": "function"
    }
  ],
  "transactionHash": "0xe558c60639db0c5e8f55c5e8dc1342bacc8fff4a4153763fa2d4c33a6c9aa5c5",
  "args": [],
  "solcInputHash": "99a5f3069d8b2755dae8c387024c94b7",
  "bytecode": "0x608060405234801561001057600080fd5b5061001a3361001f565b610043565b6001600160a01b03166000908152602081905260409020805460ff19166001179055565b614223806100526000396000f3fe608060405234801561001057600080fd5b50600436106100c95760003560e01c806367275aed11610081578063e1c28bef1161005b578063e1c28bef1461048f578063e4aa923d14610497578063f994567c1461064b576100c9565b806367275aed146103f8578063a7fc7a0714610415578063b429afeb14610448576100c9565b80634ff8f07e116100b25780634ff8f07e1461025e57806351788914146103bf5780635e6fe72a146103de576100c9565b80630311949d146100ce5780631ff77f1614610241575b600080fd5b610218600480360360608110156100e457600080fd5b73ffffffffffffffffffffffffffffffffffffffff823516919081019060408101602082013564010000000081111561011c57600080fd5b82018360208201111561012e57600080fd5b8035906020019184600183028401116401000000008311171561015057600080fd5b91908080601f01602080910402602001604051908101604052809392919081815260200183838082843760009201919091525092959493602081019350359150506401000000008111156101a357600080fd5b8201836020820111156101b557600080fd5b803590602001918460018302840111640100000000831117156101d757600080fd5b91908080601f016020809104026020016040519081016040528093929190818152602001838380828437600092019190915250929550610668945050505050565b6040805173ffffffffffffffffffffffffffffffffffffffff9092168252519081900360200190f35b6102186004803603602081101561025757600080fd5b5035610946565b610218600480360361010081101561027557600080fd5b81019060208101813564010000000081111561029057600080fd5b8201836020820111156102a257600080fd5b803590602001918460018302840111640100000000831117156102c457600080fd5b91908080601f016020809104026020016040519081016040528093929190818152602001838380828437600092019190915250929594936020810193503591505064010000000081111561031757600080fd5b82018360208201111561032957600080fd5b8035906020019184600183028401116401000000008311171561034b57600080fd5b91908080601f0160208091040260200160405190810160405280939291908181526020018383808284376000920191909152509295505082359350505060208101359060408101359060608101359060808101359060a0013573ffffffffffffffffffffffffffffffffffffffff1661097d565b6103dc600480360360208110156103d557600080fd5b5035610f40565b005b6103e66110a0565b60408051918252519081900360200190f35b6102186004803603602081101561040e57600080fd5b50356110a6565b6103dc6004803603602081101561042b57600080fd5b503573ffffffffffffffffffffffffffffffffffffffff166110ce565b61047b6004803603602081101561045e57600080fd5b503573ffffffffffffffffffffffffffffffffffffffff1661117a565b604080519115158252519081900360200190f35b6103dc6111a5565b610218600480360360608110156104ad57600080fd5b8101906020810181356401000000008111156104c857600080fd5b8201836020820111156104da57600080fd5b803590602001918460018302840111640100000000831117156104fc57600080fd5b91908080601f016020809104026020016040519081016040528093929190818152602001838380828437600092019190915250929594936020810193503591505064010000000081111561054f57600080fd5b82018360208201111561056157600080fd5b8035906020019184600183028401116401000000008311171561058357600080fd5b91908080601f01602080910402602001604051908101604052809392919081815260200183838082843760009201919091525092959493602081019350359150506401000000008111156105d657600080fd5b8201836020820111156105e857600080fd5b8035906020019184600183028401116401000000008311171561060a57600080fd5b91908080601f01602080910402602001604051908101604052809392919081815260200183838082843760009201919091525092955061120d945050505050565b6103dc6004803603602081101561066157600080fd5b503561144f565b3360009081526020819052604081205460ff1615156001148061068a57503033145b6106c55760405162461bcd60e51b81526004018080602001828103825260288152602001806141c66028913960400191505060405180910390fd5b6000836040516020018082805190602001908083835b602083106106fa5780518252601f1990920191602091820191016106db565b51815160209384036101000a60001901801990921691161790526040805192909401828103601f19018352845281519181019190912060008181526002909252929020549194505073ffffffffffffffffffffffffffffffffffffffff161591506107ae9050576040805162461bcd60e51b815260206004820152600e60248201527f47454d504f4f4c5f455849535453000000000000000000000000000000000000604482015290519081900360640190fd5b6000818152600260209081526040808320805473ffffffffffffffffffffffffffffffffffffffff8a167fffffffffffffffffffffffff00000000000000000000000000000000000000009182168117909255600380546001810182559086527fc2575a0e9e593c00f959f8c92f12db2869c3395a3b0502d05e2516446f71f85b0180549091169091179055805181815287519181019190915286518895507f89087d44119cf78c7cc1dfb971ca45b6aa9fde12ab6feedacc1fb42c3487862c9388938893928392838301926060850192908801918190849084905b838110156108a257818101518382015260200161088a565b50505050905090810190601f1680156108cf5780820380516001836020036101000a031916815260200191505b50838103825284518152845160209182019186019080838360005b838110156109025781810151838201526020016108ea565b50505050905090810190601f16801561092f5780820380516001836020036101000a031916815260200191505b5094505050505060405180910390a1509392505050565b60006003828154811061095557fe5b60009182526020909120015473ffffffffffffffffffffffffffffffffffffffff1692915050565b3360009081526020819052604081205460ff1615156001148061099f57503033145b6109da5760405162461bcd60e51b81526004018080602001828103825260288152602001806141c66028913960400191505060405180910390fd5b6000896040516020018082805190602001908083835b60208310610a0f5780518252601f1990920191602091820191016109f0565b51815160209384036101000a60001901801990921691161790526040805192909401828103601f19018352845281519181019190912060008181526002909252929020549194505073ffffffffffffffffffffffffffffffffffffffff16159150610ac39050576040805162461bcd60e51b815260206004820152600e60248201527f47454d504f4f4c5f455849535453000000000000000000000000000000000000604482015290519081900360640190fd5b87610b15576040805162461bcd60e51b815260206004820152600d60248201527f494e56414c49445f505249434500000000000000000000000000000000000000604482015290519081900360640190fd5b86610b67576040805162461bcd60e51b815260206004820152601060248201527f494e56414c49445f4d494e5f54494d4500000000000000000000000000000000604482015290519081900360640190fd5b84610bb9576040805162461bcd60e51b815260206004820152601760248201527f494e56414c49445f444946464943554c54595f53544550000000000000000000604482015290519081900360640190fd5b606060405180602001610bcb9061172d565b601f1982820381018352601f909101166040529050610bec60008383611607565b92508273ffffffffffffffffffffffffffffffffffffffff1663d9a3f9bb8c8c8c8c8c8c8c8c6040518963ffffffff1660e01b81526004018080602001806020018981526020018881526020018781526020018681526020018581526020018473ffffffffffffffffffffffffffffffffffffffff16815260200183810383528b818151815260200191508051906020019080838360005b83811015610c9c578181015183820152602001610c84565b50505050905090810190601f168015610cc95780820380516001836020036101000a031916815260200191505b5083810382528a5181528a516020918201918c019080838360005b83811015610cfc578181015183820152602001610ce4565b50505050905090810190601f168015610d295780820380516001836020036101000a031916815260200191505b509a5050505050505050505050600060405180830381600087803b158015610d5057600080fd5b505af1158015610d64573d6000803e3d6000fd5b505050600083815260026020908152604080832080547fffffffffffffffffffffffff000000000000000000000000000000000000000090811673ffffffffffffffffffffffffffffffffffffffff8a8116918217909355600380546001810182559087527fc2575a0e9e593c00f959f8c92f12db2869c3395a3b0502d05e2516446f71f85b01805490921617905581519182018e9052606082018d9052608082018c905260a082018b905260c082018a9052881660e08201526101008082528f51908201528e517fd5dd03a462020e8d5d777d0957fbf19067fc095f932d026bb0f23e384522f2a694508f938f938f938f938f938f938f938f939092839283810192610120850192918e01918190849084905b83811015610e90578181015183820152602001610e78565b50505050905090810190601f168015610ebd5780820380516001836020036101000a031916815260200191505b5083810382528a5181528a516020918201918c019080838360005b83811015610ef0578181015183820152602001610ed8565b50505050905090810190601f168015610f1d5780820380516001836020036101000a031916815260200191505b509a505050505050505050505060405180910390a1505098975050505050505050565b3360009081526020819052604090205460ff16151560011480610f6257503033145b610f9d5760405162461bcd60e51b81526004018080602001828103825260288152602001806141c66028913960400191505060405180910390fd5b6003548110610ff3576040805162461bcd60e51b815260206004820152601260248201527f494e4445585f4f55545f4f465f52414e47450000000000000000000000000000604482015290519081900360640190fd5b6003546001141561100f5761100a6003600061173a565b61109d565b60038054600019810190811061102157fe5b6000918252602090912001546003805473ffffffffffffffffffffffffffffffffffffffff909216918390811061105457fe5b506000525060038054600019810190811061106b57fe5b600091825260209091200180547fffffffffffffffffffffffff00000000000000000000000000000000000000001690555b50565b60035490565b60009081526002602052604090205473ffffffffffffffffffffffffffffffffffffffff1690565b3360009081526020819052604090205460ff161515600114806110f057503033145b61112b5760405162461bcd60e51b81526004018080602001828103825260288152602001806141c66028913960400191505060405180910390fd5b73ffffffffffffffffffffffffffffffffffffffff16600090815260208190526040902080547fffffffffffffffffffffffffffffffffffffffffffffffffffffffffffffff00166001179055565b73ffffffffffffffffffffffffffffffffffffffff1660009081526020819052604090205460ff1690565b3360009081526020819052604090205460ff161515600114806111c757503033145b6112025760405162461bcd60e51b81526004018080602001828103825260288152602001806141c66028913960400191505060405180910390fd5b336000908152602052565b3360009081526020819052604081205460ff1615156001148061122f57503033145b61126a5760405162461bcd60e51b81526004018080602001828103825260288152602001806141c66028913960400191505060405180910390fd5b6000836040516020018082805190602001908083835b6020831061129f5780518252601f199092019160209182019101611280565b51815160209384036101000a60001901801990921691161790526040805192909401828103601f19018352845281519181019190912060008181526002909252929020549194505073ffffffffffffffffffffffffffffffffffffffff161591506113539050576040805162461bcd60e51b815260206004820152600e60248201527f47454d504f4f4c5f455849535453000000000000000000000000000000000000604482015290519081900360640190fd5b61135f60008287611607565b6000828152600260209081526040808320805473ffffffffffffffffffffffffffffffffffffffff86167fffffffffffffffffffffffff00000000000000000000000000000000000000009182168117909255600380546001810182559086527fc2575a0e9e593c00f959f8c92f12db2869c3395a3b0502d05e2516446f71f85b0180549091169091179055805181815288519181019190915287519395507f89087d44119cf78c7cc1dfb971ca45b6aa9fde12ab6feedacc1fb42c3487862c938893889383928382019260608501928801919081908490849083156108a257818101518382015260200161088a565b3360009081526020819052604090205460ff1615156001148061147157503033145b6114ac5760405162461bcd60e51b81526004018080602001828103825260288152602001806141c66028913960400191505060405180910390fd5b600081815260026020526040812080547fffffffffffffffffffffffff0000000000000000000000000000000000000000811690915573ffffffffffffffffffffffffffffffffffffffff16905b600354811015611602578173ffffffffffffffffffffffffffffffffffffffff166003828154811061152857fe5b60009182526020909120015473ffffffffffffffffffffffffffffffffffffffff1614156115fa576003546001141561156c576115676003600061173a565b6115fa565b60038054600019810190811061157e57fe5b6000918252602090912001546003805473ffffffffffffffffffffffffffffffffffffffff90921691839081106115b157fe5b50600052506003805460001981019081106115c857fe5b600091825260209091200180547fffffffffffffffffffffffff00000000000000000000000000000000000000001690555b6001016114fa565b505050565b6000808447101561165f576040805162461bcd60e51b815260206004820152601d60248201527f437265617465323a20696e73756666696369656e742062616c616e6365000000604482015290519081900360640190fd5b82516116b2576040805162461bcd60e51b815260206004820181905260248201527f437265617465323a2062797465636f6465206c656e677468206973207a65726f604482015290519081900360640190fd5b8383516020850187f5905073ffffffffffffffffffffffffffffffffffffffff8116611725576040805162461bcd60e51b815260206004820152601960248201527f437265617465323a204661696c6564206f6e206465706c6f7900000000000000604482015290519081900360640190fd5b949350505050565b612a598061176d83390190565b508054600082559060005260206000209081019061109d91905b808211156117685760008155600101611754565b509056fe60806040523480156200001157600080fd5b50620000246301ffc9a760e01b62000056565b62000036630271189760e51b62000056565b336000908152601e60205260409020805460ff19166001179055620000db565b6001600160e01b03198082161415620000b6576040805162461bcd60e51b815260206004820152601c60248201527f4552433136353a20696e76616c696420696e7465726661636520696400000000604482015290519081900360640190fd5b6001600160e01b0319166000908152602260205260409020805460ff19166001179055565b61296e80620000eb6000396000f3fe6080604052600436106103ad5760003560e01c8063a901c474116101e7578063d3d083971161010d578063edcf2d57116100a0578063f4fde0d31161006f578063f4fde0d3146111de578063f9c9c276146111f3578063f9eaee0d14611260578063ff186b2e14611293576103ad565b8063edcf2d571461106f578063ef430aa6146110a8578063f1e4e553146110bd578063f23a6e6114611106576103ad565b8063d9caed12116100dc578063d9caed1214610fad578063e1c28bef14610ff0578063e5d2ce2f14611005578063e6c3b1f61461102f576103ad565b8063d3d0839714610dd8578063d43e646014610ded578063d73cd47f14610e19578063d9a3f9bb14610e4c576103ad565b8063c42cf53511610185578063cf5380b411610154578063cf5380b414610d66578063cf721b1514610d51578063d104f8f514610d7b578063d31674db14610dae576103ad565b8063c42cf53514610cc1578063c455279114610cf4578063c5e01a5c14610d27578063c80c061314610d51576103ad565b8063b788e4e9116101c1578063b788e4e914610a8e578063bc197c8114610aa3578063bf86999b14610cac578063c08fa1a4146109d4576103ad565b8063a901c47414610a1c578063af6a6d7914610a46578063b429afeb14610a5b576103ad565b80636b6201da116102d75780638a09871b1161026a5780639593556011610239578063959355601461099557806395d89b41146109bf578063a0021cf1146109d4578063a7fc7a07146109e9576103ad565b80638a09871b1461086757806390469a9d1461087c57806390c3f38f146108af5780639277a18514610962576103ad565b80637ae7815d116102a65780637ae7815d146107bd5780637c5d643e146107e95780637dcb0e5f146108135780637f2e8f0c1461083d576103ad565b80636b6201da146106f25780636ba0f5c41461070f5780637284e4161461076957806372a8ccb41461077e576103ad565b80634178617f1161034f578063504cdacf1161031e578063504cdacf146106435780635d2e0dd4146106585780635e5f2e261461066d5780636100c343146106b3576103ad565b80634178617f146105625780634565e5ef1461059557806347e7ef24146105aa5780634cd28a7e146105e3576103ad565b806322e67e711161038b57806322e67e71146104c357806323b221a0146104d85780632449ef5114610502578063392732b11461053f576103ad565b806301ffc9a7146103b257806306fdde03146104125780631aa430781461049c575b600080fd5b3480156103be57600080fd5b506103fe600480360360208110156103d557600080fd5b50357fffffffff00000000000000000000000000000000000000000000000000000000166112a8565b604080519115158252519081900360200190f35b34801561041e57600080fd5b506104276112df565b6040805160208082528351818301528351919283929083019185019080838360005b83811015610461578181015183820152602001610449565b50505050905090810190601f16801561048e5780820380516001836020036101000a031916815260200191505b509250505060405180910390f35b3480156104a857600080fd5b506104b1611375565b60408051918252519081900360200190f35b3480156104cf57600080fd5b506104b161137b565b3480156104e457600080fd5b506104b1600480360360208110156104fb57600080fd5b5035611381565b34801561050e57600080fd5b5061053d6004803603604081101561052557600080fd5b506001600160a01b0381358116916020013516611427565b005b61053d6004803603604081101561055557600080fd5b50803590602001356114c3565b34801561056e57600080fd5b5061053d6004803603602081101561058557600080fd5b50356001600160a01b031661153a565b3480156105a157600080fd5b506104b1611548565b3480156105b657600080fd5b5061053d600480360360408110156105cd57600080fd5b506001600160a01b038135169060200135611559565b3480156105ef57600080fd5b5061053d600480360360e081101561060657600080fd5b508035906001600160a01b03602082013581169160408101359091169060ff6060820135169060808101359060a08101359060c0013515156115d8565b34801561064f57600080fd5b506104b16116a0565b34801561066457600080fd5b506103fe6116a6565b34801561067957600080fd5b506106976004803603602081101561069057600080fd5b50356116af565b604080516001600160a01b039092168252519081900360200190f35b3480156106bf57600080fd5b5061053d600480360360608110156106d657600080fd5b506001600160a01b0381351690602081013590604001356116c2565b61053d6004803603602081101561070857600080fd5b5035611765565b34801561071b57600080fd5b5061053d600480360360c081101561073257600080fd5b506001600160a01b03813581169160208101359091169060ff6040820135169060608101359060808101359060a0013515156117f7565b34801561077557600080fd5b506104276118b6565b34801561078a57600080fd5b5061053d600480360360608110156107a157600080fd5b506001600160a01b038135169060208101359060400135611917565b3480156107c957600080fd5b5061053d600480360360208110156107e057600080fd5b5035151561199d565b3480156107f557600080fd5b5061053d6004803603602081101561080c57600080fd5b50356119c7565b34801561081f57600080fd5b506104b16004803603602081101561083657600080fd5b5035611a37565b34801561084957600080fd5b506104b16004803603602081101561086057600080fd5b5035611a49565b34801561087357600080fd5b506104b1611abd565b34801561088857600080fd5b5061053d6004803603602081101561089f57600080fd5b50356001600160a01b0316611b41565b3480156108bb57600080fd5b5061053d600480360360208110156108d257600080fd5b8101906020810181356401000000008111156108ed57600080fd5b8201836020820111156108ff57600080fd5b8035906020019184600183028401116401000000008311171561092157600080fd5b91908080601f016020809104026020016040519081016040528093929190818152602001838380828437600092019190915250929550611b4c945050505050565b34801561096e57600080fd5b5061053d6004803603602081101561098557600080fd5b50356001600160a01b0316611b7d565b3480156109a157600080fd5b506104b1600480360360208110156109b857600080fd5b5035611bd1565b3480156109cb57600080fd5b50610427611c45565b3480156109e057600080fd5b506104b1611ca6565b3480156109f557600080fd5b5061053d60048036036020811015610a0c57600080fd5b50356001600160a01b0316611cac565b348015610a2857600080fd5b506104b160048036036020811015610a3f57600080fd5b5035611d47565b348015610a5257600080fd5b506103fe611dbb565b348015610a6757600080fd5b506103fe60048036036020811015610a7e57600080fd5b50356001600160a01b0316611dc4565b348015610a9a57600080fd5b506104b1611de2565b348015610aaf57600080fd5b50610c77600480360360a0811015610ac657600080fd5b6001600160a01b038235811692602081013590911691810190606081016040820135640100000000811115610afa57600080fd5b820183602082011115610b0c57600080fd5b80359060200191846020830284011164010000000083111715610b2e57600080fd5b9190808060200260200160405190810160405280939291908181526020018383602002808284376000920191909152509295949360208101935035915050640100000000811115610b7e57600080fd5b820183602082011115610b9057600080fd5b80359060200191846020830284011164010000000083111715610bb257600080fd5b9190808060200260200160405190810160405280939291908181526020018383602002808284376000920191909152509295949360208101935035915050640100000000811115610c0257600080fd5b820183602082011115610c1457600080fd5b80359060200191846001830284011164010000000083111715610c3657600080fd5b91908080601f016020809104026020016040519081016040528093929190818152602001838380828437600092019190915250929550611e35945050505050565b604080517fffffffff000000000000000000000000000000000000000000000000000000009092168252519081900360200190f35b348015610cb857600080fd5b506104b1611e5f565b348015610ccd57600080fd5b5061053d60048036036020811015610ce457600080fd5b50356001600160a01b0316611e65565b348015610d0057600080fd5b5061069760048036036020811015610d1757600080fd5b50356001600160a01b0316611eb9565b348015610d3357600080fd5b5061069760048036036020811015610d4a57600080fd5b5035611ebe565b348015610d5d57600080fd5b506104b1611f32565b348015610d7257600080fd5b506104b1611f38565b348015610d8757600080fd5b5061053d60048036036020811015610d9e57600080fd5b50356001600160a01b0316611f3e565b348015610dba57600080fd5b506104b160048036036020811015610dd157600080fd5b5035611f92565b348015610de457600080fd5b506104b1611fb5565b348015610df957600080fd5b5061053d60048036036020811015610e1057600080fd5b50351515612008565b348015610e2557600080fd5b5061053d60048036036020811015610e3c57600080fd5b50356001600160a01b0316612035565b348015610e5857600080fd5b5061053d6004803603610100811015610e7057600080fd5b810190602081018135640100000000811115610e8b57600080fd5b820183602082011115610e9d57600080fd5b80359060200191846001830284011164010000000083111715610ebf57600080fd5b91908080601f0160208091040260200160405190810160405280939291908181526020018383808284376000920191909152509295949360208101935035915050640100000000811115610f1257600080fd5b820183602082011115610f2457600080fd5b80359060200191846001830284011164010000000083111715610f4657600080fd5b91908080601f0160208091040260200160405190810160405280939291908181526020018383808284376000920191909152509295505082359350505060208101359060408101359060608101359060808101359060a001356001600160a01b0316612089565b348015610fb957600080fd5b5061053d60048036036060811015610fd057600080fd5b506001600160a01b0381358116916020810135909116906040013561219c565b348015610ffc57600080fd5b5061053d612223565b34801561101157600080fd5b5061053d6004803603602081101561102857600080fd5b50356122b3565b34801561103b57600080fd5b506110596004803603602081101561105257600080fd5b50356122d2565b6040805160ff9092168252519081900360200190f35b34801561107b57600080fd5b5061053d6004803603604081101561109257600080fd5b506001600160a01b0381351690602001356122e7565b3480156110b457600080fd5b506104b161236d565b3480156110c957600080fd5b5061053d600480360360808110156110e057600080fd5b506001600160a01b03813581169160208101359091169060408101359060600135612373565b34801561111257600080fd5b50610c77600480360360a081101561112957600080fd5b6001600160a01b03823581169260208101359091169160408201359160608101359181019060a08101608082013564010000000081111561116957600080fd5b82018360208201111561117b57600080fd5b8035906020019184600183028401116401000000008311171561119d57600080fd5b91908080601f016020809104026020016040519081016040528093929190818152602001838380828437600092019190915250929550612415945050505050565b3480156111ea57600080fd5b506104b161243f565b3480156111ff57600080fd5b5061121d6004803603602081101561121657600080fd5b5035612445565b604080516001600160a01b03978816815295909616602086015260ff9093168486015260608401919091526080830152151560a082015290519081900360c00190f35b34801561126c57600080fd5b506103fe6004803603602081101561128357600080fd5b50356001600160a01b0316612503565b34801561129f57600080fd5b506104b1612510565b7fffffffff000000000000000000000000000000000000000000000000000000001660009081526022602052604090205460ff1690565b60088054604080516020601f600260001961010060018816150201909516949094049384018190048102820181019092528281526060939092909183018282801561136b5780601f106113405761010080835404028352916020019161136b565b820191906000526020600020905b81548152906001019060200180831161134e57829003601f168201915b5050505050905090565b600b5490565b600c5490565b604080517f01356b6d00000000000000000000000000000000000000000000000000000000815260006004820181905260248201849052915173bdE92e94272a615E7308D6923AeD23d2cF694793916301356b6d916044808301926020929190829003018186803b1580156113f557600080fd5b505af4158015611409573d6000803e3d6000fd5b505050506040513d602081101561141f57600080fd5b505192915050565b604080517fb9f052740000000000000000000000000000000000000000000000000000000081526000600482018190526001600160a01b03808616602484015284166044830152915173bdE92e94272a615E7308D6923AeD23d2cF6947939263b9f052749260648082019391829003018186803b1580156114a757600080fd5b505af41580156114bb573d6000803e3d6000fd5b505050505050565b604080517f80ca2ba60000000000000000000000000000000000000000000000000000000081526000600482018190526024820185905260448201849052915173bdE92e94272a615E7308D6923AeD23d2cF694793926380ca2ba69260648082019391829003018186803b1580156114a757600080fd5b611545602082612516565b50565b600061155460206125db565b905090565b604080517f88d496a40000000000000000000000000000000000000000000000000000000081526000600482018190526001600160a01b038516602483015260448201849052915173bdE92e94272a615E7308D6923AeD23d2cF694793926388d496a49260648082019391829003018186803b1580156114a757600080fd5b604080517fa93ac116000000000000000000000000000000000000000000000000000000008152600060048201819052602482018a90526001600160a01b03808a1660448401528816606483015260ff8716608483015260a4820186905260c4820185905283151560e4830152915173bdE92e94272a615E7308D6923AeD23d2cF6947939263a93ac116926101048082019391829003018186803b15801561167f57600080fd5b505af4158015611693573d6000803e3d6000fd5b5050505050505050505050565b60165490565b60105460ff1690565b60006116bc6020836125e2565b92915050565b604080517fafeafd9a0000000000000000000000000000000000000000000000000000000081526000600482018190526001600160a01b03861660248301526044820185905260648201849052915173bdE92e94272a615E7308D6923AeD23d2cF6947939263afeafd9a9260848082019391829003018186803b15801561174857600080fd5b505af415801561175c573d6000803e3d6000fd5b50505050505050565b604080517f80ca2ba60000000000000000000000000000000000000000000000000000000081526000600482018190526024820184905260016044830152915173bdE92e94272a615E7308D6923AeD23d2cF694793926380ca2ba69260648082019391829003018186803b1580156117dc57600080fd5b505af41580156117f0573d6000803e3d6000fd5b5050505050565b604080517fd28b93510000000000000000000000000000000000000000000000000000000081526000600482018190526001600160a01b03808a1660248401528816604483015260ff871660648301526084820186905260a4820185905283151560c4830152915173bdE92e94272a615E7308D6923AeD23d2cF6947939263d28b93519260e48082019391829003018186803b15801561189657600080fd5b505af41580156118aa573d6000803e3d6000fd5b50505050505050505050565b60098054604080516020601f600260001961010060018816150201909516949094049384018190048102820181019092528281526060939092909183018282801561136b5780601f106113405761010080835404028352916020019161136b565b604080517f401348c90000000000000000000000000000000000000000000000000000000081526000600482018190526001600160a01b03861660248301526044820185905260648201849052915173bdE92e94272a615E7308D6923AeD23d2cF6947939263401348c99260848082019391829003018186803b15801561174857600080fd5b336000908152601e60205260409020805460ff19166001179055506010805460ff19166001179055565b604080517f96b8b27f00000000000000000000000000000000000000000000000000000000815260006004820181905260248201849052915173bdE92e94272a615E7308D6923AeD23d2cF694793926396b8b27f9260448082019391829003018186803b1580156117dc57600080fd5b60009081526012602052604090205490565b604080517fecd5244e00000000000000000000000000000000000000000000000000000000815260006004820181905260248201849052915173bdE92e94272a615E7308D6923AeD23d2cF6947939163ecd5244e916044808301926020929190829003018186803b1580156113f557600080fd5b60008073bdE92e94272a615E7308D6923AeD23d2cF69479363164cd8c290916040518263ffffffff1660e01b81526004018082815260200191505060206040518083038186803b158015611b1057600080fd5b505af4158015611b24573d6000803e3d6000fd5b505050506040513d6020811015611b3a57600080fd5b5051905090565b61154560208261260f565b336000908152601e60205260409020805460ff191660011790558051611b7990600990602084019061280f565b5050565b336000908152601e60205260409020805460ff19166001179055600380547fffffffffffffffffffffffff0000000000000000000000000000000000000000166001600160a01b0392909216919091179055565b604080517fdc1f0f5300000000000000000000000000000000000000000000000000000000815260006004820181905260248201849052915173bdE92e94272a615E7308D6923AeD23d2cF6947939163dc1f0f53916044808301926020929190829003018186803b1580156113f557600080fd5b60078054604080516020601f600260001961010060018816150201909516949094049384018190048102820181019092528281526060939092909183018282801561136b5780601f106113405761010080835404028352916020019161136b565b60155490565b336000908152601e602052604090205460ff16151560011480611cce57503033145b611d23576040517f08c379a00000000000000000000000000000000000000000000000000000000081526004018080602001828103825260288152602001806128e76028913960400191505060405180910390fd5b6001600160a01b03166000908152601e60205260409020805460ff19166001179055565b604080517fb94677da00000000000000000000000000000000000000000000000000000000815260006004820181905260248201849052915173bdE92e94272a615E7308D6923AeD23d2cF6947939163b94677da916044808301926020929190829003018186803b1580156113f557600080fd5b60065460ff1690565b6001600160a01b03166000908152601e602052604090205460ff1690565b60008073bdE92e94272a615E7308D6923AeD23d2cF6947936333c13e0d90916040518263ffffffff1660e01b81526004018082815260200191505060206040518083038186803b158015611b1057600080fd5b7fbc197c810000000000000000000000000000000000000000000000000000000095945050505050565b600d5490565b336000908152601e60205260409020805460ff19166001179055600280547fffffffffffffffffffffffff0000000000000000000000000000000000000000166001600160a01b0392909216919091179055565b503090565b604080517f76e455e100000000000000000000000000000000000000000000000000000000815260006004820181905260248201849052915173bdE92e94272a615E7308D6923AeD23d2cF694793916376e455e1916044808301926020929190829003018186803b1580156113f557600080fd5b60145490565b600e5490565b336000908152601e60205260409020805460ff19166001179055600180547fffffffffffffffffffffffff0000000000000000000000000000000000000000166001600160a01b0392909216919091179055565b6000806013018281548110611fa357fe5b90600052602060002001549050919050565b60008073bdE92e94272a615E7308D6923AeD23d2cF69479363828c7b7290916040518263ffffffff1660e01b81526004018082815260200191505060206040518083038186803b158015611b1057600080fd5b336000908152601e60205260409020805460ff191660011790556006805460ff1916911515919091179055565b336000908152601e60205260409020805460ff19166001179055600480547fffffffffffffffffffffffff0000000000000000000000000000000000000000166001600160a01b0392909216919091179055565b336000908152601e602052604090205460ff161515600114806120ab57503033145b612100576040517f08c379a00000000000000000000000000000000000000000000000000000000081526004018080602001828103825260288152602001806128e76028913960400191505060405180910390fd5b600080547fffffffffffffffffffffffff00000000000000000000000000000000000000001630179055875161213d9060079060208b019061280f565b5086516121519060089060208a019061280f565b50600a869055600b859055600c849055600d839055600e8290556006805460ff191660011790556001600160a01b0381161561219257612192602082612516565b5050505050505050565b604080517fe5932f420000000000000000000000000000000000000000000000000000000081526000600482018190526001600160a01b0380871660248401528516604483015260648201849052915173bdE92e94272a615E7308D6923AeD23d2cF6947939263e5932f429260848082019391829003018186803b15801561174857600080fd5b336000908152601e602052604090205460ff1615156001148061224557503033145b61229a576040517f08c379a00000000000000000000000000000000000000000000000000000000081526004018080602001828103825260288152602001806128e76028913960400191505060405180910390fd5b336000908152601e60205260409020805460ff19169055565b336000908152601e60205260409020805460ff19166001179055600555565b60009081526011602052604090205460ff1690565b604080517fafeafd9a0000000000000000000000000000000000000000000000000000000081526000600482018190526001600160a01b03851660248301526044820184905260016064830152915173bdE92e94272a615E7308D6923AeD23d2cF6947939263afeafd9a9260848082019391829003018186803b1580156114a757600080fd5b60055490565b604080517f210dd8100000000000000000000000000000000000000000000000000000000081526000600482018190526001600160a01b038088166024840152861660448301526064820185905260848201849052915173bdE92e94272a615E7308D6923AeD23d2cF6947939263210dd8109260a48082019391829003018186803b15801561240157600080fd5b505af4158015612192573d6000803e3d6000fd5b7ff23a6e610000000000000000000000000000000000000000000000000000000095945050505050565b60135490565b600080600080600080600073bdE92e94272a615E7308D6923AeD23d2cF694793635b68e93c9091896040518363ffffffff1660e01b8152600401808381526020018281526020019250505060c06040518083038186803b1580156124a857600080fd5b505af41580156124bc573d6000803e3d6000fd5b505050506040513d60c08110156124d257600080fd5b508051602082015160408301516060840151608085015160a090950151939c929b5090995097509195509350915050565b60006116bc6020836127b4565b600a5490565b61252082826127b4565b15612576576040517f08c379a000000000000000000000000000000000000000000000000000000000815260040180806020018281038252602a81526020018061290f602a913960400191505060405180910390fd5b6001828101805491820181556000818152602080822090930180547fffffffffffffffffffffffff0000000000000000000000000000000000000000166001600160a01b03959095169485179055905492815292905260409091206000199091019055565b6001015490565b60008260010182815481106125f357fe5b6000918252602090912001546001600160a01b03169392505050565b61261982826127b4565b61266e576040517f08c379a000000000000000000000000000000000000000000000000000000000815260040180806020018281038252602a8152602001806128bd602a913960400191505060405180910390fd5b6000600161267b846125db565b6001600160a01b03841660009081526020869052604090205491900391508082146127855760008460010183815481106126b157fe5b60009182526020808320909101546001600160a01b03168083529087905260409091208390556001860180549192508291849081106126ec57fe5b600091825260208083209190910180547fffffffffffffffffffffffff0000000000000000000000000000000000000000166001600160a01b039485161790559186168152908690526040812055600185018054600019810190811061274e57fe5b600091825260209091200180547fffffffffffffffffffffffff0000000000000000000000000000000000000000169055506127ae565b6001600160a01b03831660009081526020859052604081208190556127ae90600186019061288d565b50505050565b60018201546000906127c8575060006116bc565b6001600160a01b03821660008181526020859052604090205460018501805490919081106127f257fe5b6000918252602090912001546001600160a01b0316149392505050565b828054600181600116156101000203166002900490600052602060002090601f016020900481019282601f1061285057805160ff191683800117855561287d565b8280016001018555821561287d579182015b8281111561287d578251825591602001919060010190612862565b506128899291506128a7565b5090565b508054600082559060005260206000209081019061154591905b5b8082111561288957600081556001016128a856fe416464726573735365743a206b657920646f6573206e6f7420657869737420696e20746865207365742e436f6e74726f6c6c61626c653a2063616c6c6572206973206e6f74206120636f6e74726f6c6c6572416464726573735365743a206b657920616c72656164792065786973747320696e20746865207365742ea264697066735822122033bf9e510047707c3761e386c0ecdc341c94243cb1e384ec5636a7c236161a0864736f6c63430007030033436f6e74726f6c6c61626c653a2063616c6c6572206973206e6f74206120636f6e74726f6c6c6572a2646970667358221220c8da879cc68d99cb8ef22bf877ed3a0eaf5571e0c4baef32f1f4d3d0693dcd8164736f6c63430007030033",
  "deployedBytecode": "0x608060405234801561001057600080fd5b50600436106100c95760003560e01c806367275aed11610081578063e1c28bef1161005b578063e1c28bef1461048f578063e4aa923d14610497578063f994567c1461064b576100c9565b806367275aed146103f8578063a7fc7a0714610415578063b429afeb14610448576100c9565b80634ff8f07e116100b25780634ff8f07e1461025e57806351788914146103bf5780635e6fe72a146103de576100c9565b80630311949d146100ce5780631ff77f1614610241575b600080fd5b610218600480360360608110156100e457600080fd5b73ffffffffffffffffffffffffffffffffffffffff823516919081019060408101602082013564010000000081111561011c57600080fd5b82018360208201111561012e57600080fd5b8035906020019184600183028401116401000000008311171561015057600080fd5b91908080601f01602080910402602001604051908101604052809392919081815260200183838082843760009201919091525092959493602081019350359150506401000000008111156101a357600080fd5b8201836020820111156101b557600080fd5b803590602001918460018302840111640100000000831117156101d757600080fd5b91908080601f016020809104026020016040519081016040528093929190818152602001838380828437600092019190915250929550610668945050505050565b6040805173ffffffffffffffffffffffffffffffffffffffff9092168252519081900360200190f35b6102186004803603602081101561025757600080fd5b5035610946565b610218600480360361010081101561027557600080fd5b81019060208101813564010000000081111561029057600080fd5b8201836020820111156102a257600080fd5b803590602001918460018302840111640100000000831117156102c457600080fd5b91908080601f016020809104026020016040519081016040528093929190818152602001838380828437600092019190915250929594936020810193503591505064010000000081111561031757600080fd5b82018360208201111561032957600080fd5b8035906020019184600183028401116401000000008311171561034b57600080fd5b91908080601f0160208091040260200160405190810160405280939291908181526020018383808284376000920191909152509295505082359350505060208101359060408101359060608101359060808101359060a0013573ffffffffffffffffffffffffffffffffffffffff1661097d565b6103dc600480360360208110156103d557600080fd5b5035610f40565b005b6103e66110a0565b60408051918252519081900360200190f35b6102186004803603602081101561040e57600080fd5b50356110a6565b6103dc6004803603602081101561042b57600080fd5b503573ffffffffffffffffffffffffffffffffffffffff166110ce565b61047b6004803603602081101561045e57600080fd5b503573ffffffffffffffffffffffffffffffffffffffff1661117a565b604080519115158252519081900360200190f35b6103dc6111a5565b610218600480360360608110156104ad57600080fd5b8101906020810181356401000000008111156104c857600080fd5b8201836020820111156104da57600080fd5b803590602001918460018302840111640100000000831117156104fc57600080fd5b91908080601f016020809104026020016040519081016040528093929190818152602001838380828437600092019190915250929594936020810193503591505064010000000081111561054f57600080fd5b82018360208201111561056157600080fd5b8035906020019184600183028401116401000000008311171561058357600080fd5b91908080601f01602080910402602001604051908101604052809392919081815260200183838082843760009201919091525092959493602081019350359150506401000000008111156105d657600080fd5b8201836020820111156105e857600080fd5b8035906020019184600183028401116401000000008311171561060a57600080fd5b91908080601f01602080910402602001604051908101604052809392919081815260200183838082843760009201919091525092955061120d945050505050565b6103dc6004803603602081101561066157600080fd5b503561144f565b3360009081526020819052604081205460ff1615156001148061068a57503033145b6106c55760405162461bcd60e51b81526004018080602001828103825260288152602001806141c66028913960400191505060405180910390fd5b6000836040516020018082805190602001908083835b602083106106fa5780518252601f1990920191602091820191016106db565b51815160209384036101000a60001901801990921691161790526040805192909401828103601f19018352845281519181019190912060008181526002909252929020549194505073ffffffffffffffffffffffffffffffffffffffff161591506107ae9050576040805162461bcd60e51b815260206004820152600e60248201527f47454d504f4f4c5f455849535453000000000000000000000000000000000000604482015290519081900360640190fd5b6000818152600260209081526040808320805473ffffffffffffffffffffffffffffffffffffffff8a167fffffffffffffffffffffffff00000000000000000000000000000000000000009182168117909255600380546001810182559086527fc2575a0e9e593c00f959f8c92f12db2869c3395a3b0502d05e2516446f71f85b0180549091169091179055805181815287519181019190915286518895507f89087d44119cf78c7cc1dfb971ca45b6aa9fde12ab6feedacc1fb42c3487862c9388938893928392838301926060850192908801918190849084905b838110156108a257818101518382015260200161088a565b50505050905090810190601f1680156108cf5780820380516001836020036101000a031916815260200191505b50838103825284518152845160209182019186019080838360005b838110156109025781810151838201526020016108ea565b50505050905090810190601f16801561092f5780820380516001836020036101000a031916815260200191505b5094505050505060405180910390a1509392505050565b60006003828154811061095557fe5b60009182526020909120015473ffffffffffffffffffffffffffffffffffffffff1692915050565b3360009081526020819052604081205460ff1615156001148061099f57503033145b6109da5760405162461bcd60e51b81526004018080602001828103825260288152602001806141c66028913960400191505060405180910390fd5b6000896040516020018082805190602001908083835b60208310610a0f5780518252601f1990920191602091820191016109f0565b51815160209384036101000a60001901801990921691161790526040805192909401828103601f19018352845281519181019190912060008181526002909252929020549194505073ffffffffffffffffffffffffffffffffffffffff16159150610ac39050576040805162461bcd60e51b815260206004820152600e60248201527f47454d504f4f4c5f455849535453000000000000000000000000000000000000604482015290519081900360640190fd5b87610b15576040805162461bcd60e51b815260206004820152600d60248201527f494e56414c49445f505249434500000000000000000000000000000000000000604482015290519081900360640190fd5b86610b67576040805162461bcd60e51b815260206004820152601060248201527f494e56414c49445f4d494e5f54494d4500000000000000000000000000000000604482015290519081900360640190fd5b84610bb9576040805162461bcd60e51b815260206004820152601760248201527f494e56414c49445f444946464943554c54595f53544550000000000000000000604482015290519081900360640190fd5b606060405180602001610bcb9061172d565b601f1982820381018352601f909101166040529050610bec60008383611607565b92508273ffffffffffffffffffffffffffffffffffffffff1663d9a3f9bb8c8c8c8c8c8c8c8c6040518963ffffffff1660e01b81526004018080602001806020018981526020018881526020018781526020018681526020018581526020018473ffffffffffffffffffffffffffffffffffffffff16815260200183810383528b818151815260200191508051906020019080838360005b83811015610c9c578181015183820152602001610c84565b50505050905090810190601f168015610cc95780820380516001836020036101000a031916815260200191505b5083810382528a5181528a516020918201918c019080838360005b83811015610cfc578181015183820152602001610ce4565b50505050905090810190601f168015610d295780820380516001836020036101000a031916815260200191505b509a5050505050505050505050600060405180830381600087803b158015610d5057600080fd5b505af1158015610d64573d6000803e3d6000fd5b505050600083815260026020908152604080832080547fffffffffffffffffffffffff000000000000000000000000000000000000000090811673ffffffffffffffffffffffffffffffffffffffff8a8116918217909355600380546001810182559087527fc2575a0e9e593c00f959f8c92f12db2869c3395a3b0502d05e2516446f71f85b01805490921617905581519182018e9052606082018d9052608082018c905260a082018b905260c082018a9052881660e08201526101008082528f51908201528e517fd5dd03a462020e8d5d777d0957fbf19067fc095f932d026bb0f23e384522f2a694508f938f938f938f938f938f938f938f939092839283810192610120850192918e01918190849084905b83811015610e90578181015183820152602001610e78565b50505050905090810190601f168015610ebd5780820380516001836020036101000a031916815260200191505b5083810382528a5181528a516020918201918c019080838360005b83811015610ef0578181015183820152602001610ed8565b50505050905090810190601f168015610f1d5780820380516001836020036101000a031916815260200191505b509a505050505050505050505060405180910390a1505098975050505050505050565b3360009081526020819052604090205460ff16151560011480610f6257503033145b610f9d5760405162461bcd60e51b81526004018080602001828103825260288152602001806141c66028913960400191505060405180910390fd5b6003548110610ff3576040805162461bcd60e51b815260206004820152601260248201527f494e4445585f4f55545f4f465f52414e47450000000000000000000000000000604482015290519081900360640190fd5b6003546001141561100f5761100a6003600061173a565b61109d565b60038054600019810190811061102157fe5b6000918252602090912001546003805473ffffffffffffffffffffffffffffffffffffffff909216918390811061105457fe5b506000525060038054600019810190811061106b57fe5b600091825260209091200180547fffffffffffffffffffffffff00000000000000000000000000000000000000001690555b50565b60035490565b60009081526002602052604090205473ffffffffffffffffffffffffffffffffffffffff1690565b3360009081526020819052604090205460ff161515600114806110f057503033145b61112b5760405162461bcd60e51b81526004018080602001828103825260288152602001806141c66028913960400191505060405180910390fd5b73ffffffffffffffffffffffffffffffffffffffff16600090815260208190526040902080547fffffffffffffffffffffffffffffffffffffffffffffffffffffffffffffff00166001179055565b73ffffffffffffffffffffffffffffffffffffffff1660009081526020819052604090205460ff1690565b3360009081526020819052604090205460ff161515600114806111c757503033145b6112025760405162461bcd60e51b81526004018080602001828103825260288152602001806141c66028913960400191505060405180910390fd5b336000908152602052565b3360009081526020819052604081205460ff1615156001148061122f57503033145b61126a5760405162461bcd60e51b81526004018080602001828103825260288152602001806141c66028913960400191505060405180910390fd5b6000836040516020018082805190602001908083835b6020831061129f5780518252601f199092019160209182019101611280565b51815160209384036101000a60001901801990921691161790526040805192909401828103601f19018352845281519181019190912060008181526002909252929020549194505073ffffffffffffffffffffffffffffffffffffffff161591506113539050576040805162461bcd60e51b815260206004820152600e60248201527f47454d504f4f4c5f455849535453000000000000000000000000000000000000604482015290519081900360640190fd5b61135f60008287611607565b6000828152600260209081526040808320805473ffffffffffffffffffffffffffffffffffffffff86167fffffffffffffffffffffffff00000000000000000000000000000000000000009182168117909255600380546001810182559086527fc2575a0e9e593c00f959f8c92f12db2869c3395a3b0502d05e2516446f71f85b0180549091169091179055805181815288519181019190915287519395507f89087d44119cf78c7cc1dfb971ca45b6aa9fde12ab6feedacc1fb42c3487862c938893889383928382019260608501928801919081908490849083156108a257818101518382015260200161088a565b3360009081526020819052604090205460ff1615156001148061147157503033145b6114ac5760405162461bcd60e51b81526004018080602001828103825260288152602001806141c66028913960400191505060405180910390fd5b600081815260026020526040812080547fffffffffffffffffffffffff0000000000000000000000000000000000000000811690915573ffffffffffffffffffffffffffffffffffffffff16905b600354811015611602578173ffffffffffffffffffffffffffffffffffffffff166003828154811061152857fe5b60009182526020909120015473ffffffffffffffffffffffffffffffffffffffff1614156115fa576003546001141561156c576115676003600061173a565b6115fa565b60038054600019810190811061157e57fe5b6000918252602090912001546003805473ffffffffffffffffffffffffffffffffffffffff90921691839081106115b157fe5b50600052506003805460001981019081106115c857fe5b600091825260209091200180547fffffffffffffffffffffffff00000000000000000000000000000000000000001690555b6001016114fa565b505050565b6000808447101561165f576040805162461bcd60e51b815260206004820152601d60248201527f437265617465323a20696e73756666696369656e742062616c616e6365000000604482015290519081900360640190fd5b82516116b2576040805162461bcd60e51b815260206004820181905260248201527f437265617465323a2062797465636f6465206c656e677468206973207a65726f604482015290519081900360640190fd5b8383516020850187f5905073ffffffffffffffffffffffffffffffffffffffff8116611725576040805162461bcd60e51b815260206004820152601960248201527f437265617465323a204661696c6564206f6e206465706c6f7900000000000000604482015290519081900360640190fd5b949350505050565b612a598061176d83390190565b508054600082559060005260206000209081019061109d91905b808211156117685760008155600101611754565b509056fe60806040523480156200001157600080fd5b50620000246301ffc9a760e01b62000056565b62000036630271189760e51b62000056565b336000908152601e60205260409020805460ff19166001179055620000db565b6001600160e01b03198082161415620000b6576040805162461bcd60e51b815260206004820152601c60248201527f4552433136353a20696e76616c696420696e7465726661636520696400000000604482015290519081900360640190fd5b6001600160e01b0319166000908152602260205260409020805460ff19166001179055565b61296e80620000eb6000396000f3fe6080604052600436106103ad5760003560e01c8063a901c474116101e7578063d3d083971161010d578063edcf2d57116100a0578063f4fde0d31161006f578063f4fde0d3146111de578063f9c9c276146111f3578063f9eaee0d14611260578063ff186b2e14611293576103ad565b8063edcf2d571461106f578063ef430aa6146110a8578063f1e4e553146110bd578063f23a6e6114611106576103ad565b8063d9caed12116100dc578063d9caed1214610fad578063e1c28bef14610ff0578063e5d2ce2f14611005578063e6c3b1f61461102f576103ad565b8063d3d0839714610dd8578063d43e646014610ded578063d73cd47f14610e19578063d9a3f9bb14610e4c576103ad565b8063c42cf53511610185578063cf5380b411610154578063cf5380b414610d66578063cf721b1514610d51578063d104f8f514610d7b578063d31674db14610dae576103ad565b8063c42cf53514610cc1578063c455279114610cf4578063c5e01a5c14610d27578063c80c061314610d51576103ad565b8063b788e4e9116101c1578063b788e4e914610a8e578063bc197c8114610aa3578063bf86999b14610cac578063c08fa1a4146109d4576103ad565b8063a901c47414610a1c578063af6a6d7914610a46578063b429afeb14610a5b576103ad565b80636b6201da116102d75780638a09871b1161026a5780639593556011610239578063959355601461099557806395d89b41146109bf578063a0021cf1146109d4578063a7fc7a07146109e9576103ad565b80638a09871b1461086757806390469a9d1461087c57806390c3f38f146108af5780639277a18514610962576103ad565b80637ae7815d116102a65780637ae7815d146107bd5780637c5d643e146107e95780637dcb0e5f146108135780637f2e8f0c1461083d576103ad565b80636b6201da146106f25780636ba0f5c41461070f5780637284e4161461076957806372a8ccb41461077e576103ad565b80634178617f1161034f578063504cdacf1161031e578063504cdacf146106435780635d2e0dd4146106585780635e5f2e261461066d5780636100c343146106b3576103ad565b80634178617f146105625780634565e5ef1461059557806347e7ef24146105aa5780634cd28a7e146105e3576103ad565b806322e67e711161038b57806322e67e71146104c357806323b221a0146104d85780632449ef5114610502578063392732b11461053f576103ad565b806301ffc9a7146103b257806306fdde03146104125780631aa430781461049c575b600080fd5b3480156103be57600080fd5b506103fe600480360360208110156103d557600080fd5b50357fffffffff00000000000000000000000000000000000000000000000000000000166112a8565b604080519115158252519081900360200190f35b34801561041e57600080fd5b506104276112df565b6040805160208082528351818301528351919283929083019185019080838360005b83811015610461578181015183820152602001610449565b50505050905090810190601f16801561048e5780820380516001836020036101000a031916815260200191505b509250505060405180910390f35b3480156104a857600080fd5b506104b1611375565b60408051918252519081900360200190f35b3480156104cf57600080fd5b506104b161137b565b3480156104e457600080fd5b506104b1600480360360208110156104fb57600080fd5b5035611381565b34801561050e57600080fd5b5061053d6004803603604081101561052557600080fd5b506001600160a01b0381358116916020013516611427565b005b61053d6004803603604081101561055557600080fd5b50803590602001356114c3565b34801561056e57600080fd5b5061053d6004803603602081101561058557600080fd5b50356001600160a01b031661153a565b3480156105a157600080fd5b506104b1611548565b3480156105b657600080fd5b5061053d600480360360408110156105cd57600080fd5b506001600160a01b038135169060200135611559565b3480156105ef57600080fd5b5061053d600480360360e081101561060657600080fd5b508035906001600160a01b03602082013581169160408101359091169060ff6060820135169060808101359060a08101359060c0013515156115d8565b34801561064f57600080fd5b506104b16116a0565b34801561066457600080fd5b506103fe6116a6565b34801561067957600080fd5b506106976004803603602081101561069057600080fd5b50356116af565b604080516001600160a01b039092168252519081900360200190f35b3480156106bf57600080fd5b5061053d600480360360608110156106d657600080fd5b506001600160a01b0381351690602081013590604001356116c2565b61053d6004803603602081101561070857600080fd5b5035611765565b34801561071b57600080fd5b5061053d600480360360c081101561073257600080fd5b506001600160a01b03813581169160208101359091169060ff6040820135169060608101359060808101359060a0013515156117f7565b34801561077557600080fd5b506104276118b6565b34801561078a57600080fd5b5061053d600480360360608110156107a157600080fd5b506001600160a01b038135169060208101359060400135611917565b3480156107c957600080fd5b5061053d600480360360208110156107e057600080fd5b5035151561199d565b3480156107f557600080fd5b5061053d6004803603602081101561080c57600080fd5b50356119c7565b34801561081f57600080fd5b506104b16004803603602081101561083657600080fd5b5035611a37565b34801561084957600080fd5b506104b16004803603602081101561086057600080fd5b5035611a49565b34801561087357600080fd5b506104b1611abd565b34801561088857600080fd5b5061053d6004803603602081101561089f57600080fd5b50356001600160a01b0316611b41565b3480156108bb57600080fd5b5061053d600480360360208110156108d257600080fd5b8101906020810181356401000000008111156108ed57600080fd5b8201836020820111156108ff57600080fd5b8035906020019184600183028401116401000000008311171561092157600080fd5b91908080601f016020809104026020016040519081016040528093929190818152602001838380828437600092019190915250929550611b4c945050505050565b34801561096e57600080fd5b5061053d6004803603602081101561098557600080fd5b50356001600160a01b0316611b7d565b3480156109a157600080fd5b506104b1600480360360208110156109b857600080fd5b5035611bd1565b3480156109cb57600080fd5b50610427611c45565b3480156109e057600080fd5b506104b1611ca6565b3480156109f557600080fd5b5061053d60048036036020811015610a0c57600080fd5b50356001600160a01b0316611cac565b348015610a2857600080fd5b506104b160048036036020811015610a3f57600080fd5b5035611d47565b348015610a5257600080fd5b506103fe611dbb565b348015610a6757600080fd5b506103fe60048036036020811015610a7e57600080fd5b50356001600160a01b0316611dc4565b348015610a9a57600080fd5b506104b1611de2565b348015610aaf57600080fd5b50610c77600480360360a0811015610ac657600080fd5b6001600160a01b038235811692602081013590911691810190606081016040820135640100000000811115610afa57600080fd5b820183602082011115610b0c57600080fd5b80359060200191846020830284011164010000000083111715610b2e57600080fd5b9190808060200260200160405190810160405280939291908181526020018383602002808284376000920191909152509295949360208101935035915050640100000000811115610b7e57600080fd5b820183602082011115610b9057600080fd5b80359060200191846020830284011164010000000083111715610bb257600080fd5b9190808060200260200160405190810160405280939291908181526020018383602002808284376000920191909152509295949360208101935035915050640100000000811115610c0257600080fd5b820183602082011115610c1457600080fd5b80359060200191846001830284011164010000000083111715610c3657600080fd5b91908080601f016020809104026020016040519081016040528093929190818152602001838380828437600092019190915250929550611e35945050505050565b604080517fffffffff000000000000000000000000000000000000000000000000000000009092168252519081900360200190f35b348015610cb857600080fd5b506104b1611e5f565b348015610ccd57600080fd5b5061053d60048036036020811015610ce457600080fd5b50356001600160a01b0316611e65565b348015610d0057600080fd5b5061069760048036036020811015610d1757600080fd5b50356001600160a01b0316611eb9565b348015610d3357600080fd5b5061069760048036036020811015610d4a57600080fd5b5035611ebe565b348015610d5d57600080fd5b506104b1611f32565b348015610d7257600080fd5b506104b1611f38565b348015610d8757600080fd5b5061053d60048036036020811015610d9e57600080fd5b50356001600160a01b0316611f3e565b348015610dba57600080fd5b506104b160048036036020811015610dd157600080fd5b5035611f92565b348015610de457600080fd5b506104b1611fb5565b348015610df957600080fd5b5061053d60048036036020811015610e1057600080fd5b50351515612008565b348015610e2557600080fd5b5061053d60048036036020811015610e3c57600080fd5b50356001600160a01b0316612035565b348015610e5857600080fd5b5061053d6004803603610100811015610e7057600080fd5b810190602081018135640100000000811115610e8b57600080fd5b820183602082011115610e9d57600080fd5b80359060200191846001830284011164010000000083111715610ebf57600080fd5b91908080601f0160208091040260200160405190810160405280939291908181526020018383808284376000920191909152509295949360208101935035915050640100000000811115610f1257600080fd5b820183602082011115610f2457600080fd5b80359060200191846001830284011164010000000083111715610f4657600080fd5b91908080601f0160208091040260200160405190810160405280939291908181526020018383808284376000920191909152509295505082359350505060208101359060408101359060608101359060808101359060a001356001600160a01b0316612089565b348015610fb957600080fd5b5061053d60048036036060811015610fd057600080fd5b506001600160a01b0381358116916020810135909116906040013561219c565b348015610ffc57600080fd5b5061053d612223565b34801561101157600080fd5b5061053d6004803603602081101561102857600080fd5b50356122b3565b34801561103b57600080fd5b506110596004803603602081101561105257600080fd5b50356122d2565b6040805160ff9092168252519081900360200190f35b34801561107b57600080fd5b5061053d6004803603604081101561109257600080fd5b506001600160a01b0381351690602001356122e7565b3480156110b457600080fd5b506104b161236d565b3480156110c957600080fd5b5061053d600480360360808110156110e057600080fd5b506001600160a01b03813581169160208101359091169060408101359060600135612373565b34801561111257600080fd5b50610c77600480360360a081101561112957600080fd5b6001600160a01b03823581169260208101359091169160408201359160608101359181019060a08101608082013564010000000081111561116957600080fd5b82018360208201111561117b57600080fd5b8035906020019184600183028401116401000000008311171561119d57600080fd5b91908080601f016020809104026020016040519081016040528093929190818152602001838380828437600092019190915250929550612415945050505050565b3480156111ea57600080fd5b506104b161243f565b3480156111ff57600080fd5b5061121d6004803603602081101561121657600080fd5b5035612445565b604080516001600160a01b03978816815295909616602086015260ff9093168486015260608401919091526080830152151560a082015290519081900360c00190f35b34801561126c57600080fd5b506103fe6004803603602081101561128357600080fd5b50356001600160a01b0316612503565b34801561129f57600080fd5b506104b1612510565b7fffffffff000000000000000000000000000000000000000000000000000000001660009081526022602052604090205460ff1690565b60088054604080516020601f600260001961010060018816150201909516949094049384018190048102820181019092528281526060939092909183018282801561136b5780601f106113405761010080835404028352916020019161136b565b820191906000526020600020905b81548152906001019060200180831161134e57829003601f168201915b5050505050905090565b600b5490565b600c5490565b604080517f01356b6d00000000000000000000000000000000000000000000000000000000815260006004820181905260248201849052915173__$8228317518e9daeef1bbbb17c026e269fd$__916301356b6d916044808301926020929190829003018186803b1580156113f557600080fd5b505af4158015611409573d6000803e3d6000fd5b505050506040513d602081101561141f57600080fd5b505192915050565b604080517fb9f052740000000000000000000000000000000000000000000000000000000081526000600482018190526001600160a01b03808616602484015284166044830152915173__$8228317518e9daeef1bbbb17c026e269fd$__9263b9f052749260648082019391829003018186803b1580156114a757600080fd5b505af41580156114bb573d6000803e3d6000fd5b505050505050565b604080517f80ca2ba60000000000000000000000000000000000000000000000000000000081526000600482018190526024820185905260448201849052915173__$8228317518e9daeef1bbbb17c026e269fd$__926380ca2ba69260648082019391829003018186803b1580156114a757600080fd5b611545602082612516565b50565b600061155460206125db565b905090565b604080517f88d496a40000000000000000000000000000000000000000000000000000000081526000600482018190526001600160a01b038516602483015260448201849052915173__$8228317518e9daeef1bbbb17c026e269fd$__926388d496a49260648082019391829003018186803b1580156114a757600080fd5b604080517fa93ac116000000000000000000000000000000000000000000000000000000008152600060048201819052602482018a90526001600160a01b03808a1660448401528816606483015260ff8716608483015260a4820186905260c4820185905283151560e4830152915173__$8228317518e9daeef1bbbb17c026e269fd$__9263a93ac116926101048082019391829003018186803b15801561167f57600080fd5b505af4158015611693573d6000803e3d6000fd5b5050505050505050505050565b60165490565b60105460ff1690565b60006116bc6020836125e2565b92915050565b604080517fafeafd9a0000000000000000000000000000000000000000000000000000000081526000600482018190526001600160a01b03861660248301526044820185905260648201849052915173__$8228317518e9daeef1bbbb17c026e269fd$__9263afeafd9a9260848082019391829003018186803b15801561174857600080fd5b505af415801561175c573d6000803e3d6000fd5b50505050505050565b604080517f80ca2ba60000000000000000000000000000000000000000000000000000000081526000600482018190526024820184905260016044830152915173__$8228317518e9daeef1bbbb17c026e269fd$__926380ca2ba69260648082019391829003018186803b1580156117dc57600080fd5b505af41580156117f0573d6000803e3d6000fd5b5050505050565b604080517fd28b93510000000000000000000000000000000000000000000000000000000081526000600482018190526001600160a01b03808a1660248401528816604483015260ff871660648301526084820186905260a4820185905283151560c4830152915173__$8228317518e9daeef1bbbb17c026e269fd$__9263d28b93519260e48082019391829003018186803b15801561189657600080fd5b505af41580156118aa573d6000803e3d6000fd5b50505050505050505050565b60098054604080516020601f600260001961010060018816150201909516949094049384018190048102820181019092528281526060939092909183018282801561136b5780601f106113405761010080835404028352916020019161136b565b604080517f401348c90000000000000000000000000000000000000000000000000000000081526000600482018190526001600160a01b03861660248301526044820185905260648201849052915173__$8228317518e9daeef1bbbb17c026e269fd$__9263401348c99260848082019391829003018186803b15801561174857600080fd5b336000908152601e60205260409020805460ff19166001179055506010805460ff19166001179055565b604080517f96b8b27f00000000000000000000000000000000000000000000000000000000815260006004820181905260248201849052915173__$8228317518e9daeef1bbbb17c026e269fd$__926396b8b27f9260448082019391829003018186803b1580156117dc57600080fd5b60009081526012602052604090205490565b604080517fecd5244e00000000000000000000000000000000000000000000000000000000815260006004820181905260248201849052915173__$8228317518e9daeef1bbbb17c026e269fd$__9163ecd5244e916044808301926020929190829003018186803b1580156113f557600080fd5b60008073__$8228317518e9daeef1bbbb17c026e269fd$__63164cd8c290916040518263ffffffff1660e01b81526004018082815260200191505060206040518083038186803b158015611b1057600080fd5b505af4158015611b24573d6000803e3d6000fd5b505050506040513d6020811015611b3a57600080fd5b5051905090565b61154560208261260f565b336000908152601e60205260409020805460ff191660011790558051611b7990600990602084019061280f565b5050565b336000908152601e60205260409020805460ff19166001179055600380547fffffffffffffffffffffffff0000000000000000000000000000000000000000166001600160a01b0392909216919091179055565b604080517fdc1f0f5300000000000000000000000000000000000000000000000000000000815260006004820181905260248201849052915173__$8228317518e9daeef1bbbb17c026e269fd$__9163dc1f0f53916044808301926020929190829003018186803b1580156113f557600080fd5b60078054604080516020601f600260001961010060018816150201909516949094049384018190048102820181019092528281526060939092909183018282801561136b5780601f106113405761010080835404028352916020019161136b565b60155490565b336000908152601e602052604090205460ff16151560011480611cce57503033145b611d23576040517f08c379a00000000000000000000000000000000000000000000000000000000081526004018080602001828103825260288152602001806128e76028913960400191505060405180910390fd5b6001600160a01b03166000908152601e60205260409020805460ff19166001179055565b604080517fb94677da00000000000000000000000000000000000000000000000000000000815260006004820181905260248201849052915173__$8228317518e9daeef1bbbb17c026e269fd$__9163b94677da916044808301926020929190829003018186803b1580156113f557600080fd5b60065460ff1690565b6001600160a01b03166000908152601e602052604090205460ff1690565b60008073__$8228317518e9daeef1bbbb17c026e269fd$__6333c13e0d90916040518263ffffffff1660e01b81526004018082815260200191505060206040518083038186803b158015611b1057600080fd5b7fbc197c810000000000000000000000000000000000000000000000000000000095945050505050565b600d5490565b336000908152601e60205260409020805460ff19166001179055600280547fffffffffffffffffffffffff0000000000000000000000000000000000000000166001600160a01b0392909216919091179055565b503090565b604080517f76e455e100000000000000000000000000000000000000000000000000000000815260006004820181905260248201849052915173__$8228317518e9daeef1bbbb17c026e269fd$__916376e455e1916044808301926020929190829003018186803b1580156113f557600080fd5b60145490565b600e5490565b336000908152601e60205260409020805460ff19166001179055600180547fffffffffffffffffffffffff0000000000000000000000000000000000000000166001600160a01b0392909216919091179055565b6000806013018281548110611fa357fe5b90600052602060002001549050919050565b60008073__$8228317518e9daeef1bbbb17c026e269fd$__63828c7b7290916040518263ffffffff1660e01b81526004018082815260200191505060206040518083038186803b158015611b1057600080fd5b336000908152601e60205260409020805460ff191660011790556006805460ff1916911515919091179055565b336000908152601e60205260409020805460ff19166001179055600480547fffffffffffffffffffffffff0000000000000000000000000000000000000000166001600160a01b0392909216919091179055565b336000908152601e602052604090205460ff161515600114806120ab57503033145b612100576040517f08c379a00000000000000000000000000000000000000000000000000000000081526004018080602001828103825260288152602001806128e76028913960400191505060405180910390fd5b600080547fffffffffffffffffffffffff00000000000000000000000000000000000000001630179055875161213d9060079060208b019061280f565b5086516121519060089060208a019061280f565b50600a869055600b859055600c849055600d839055600e8290556006805460ff191660011790556001600160a01b0381161561219257612192602082612516565b5050505050505050565b604080517fe5932f420000000000000000000000000000000000000000000000000000000081526000600482018190526001600160a01b0380871660248401528516604483015260648201849052915173__$8228317518e9daeef1bbbb17c026e269fd$__9263e5932f429260848082019391829003018186803b15801561174857600080fd5b336000908152601e602052604090205460ff1615156001148061224557503033145b61229a576040517f08c379a00000000000000000000000000000000000000000000000000000000081526004018080602001828103825260288152602001806128e76028913960400191505060405180910390fd5b336000908152601e60205260409020805460ff19169055565b336000908152601e60205260409020805460ff19166001179055600555565b60009081526011602052604090205460ff1690565b604080517fafeafd9a0000000000000000000000000000000000000000000000000000000081526000600482018190526001600160a01b03851660248301526044820184905260016064830152915173__$8228317518e9daeef1bbbb17c026e269fd$__9263afeafd9a9260848082019391829003018186803b1580156114a757600080fd5b60055490565b604080517f210dd8100000000000000000000000000000000000000000000000000000000081526000600482018190526001600160a01b038088166024840152861660448301526064820185905260848201849052915173__$8228317518e9daeef1bbbb17c026e269fd$__9263210dd8109260a48082019391829003018186803b15801561240157600080fd5b505af4158015612192573d6000803e3d6000fd5b7ff23a6e610000000000000000000000000000000000000000000000000000000095945050505050565b60135490565b600080600080600080600073__$8228317518e9daeef1bbbb17c026e269fd$__635b68e93c9091896040518363ffffffff1660e01b8152600401808381526020018281526020019250505060c06040518083038186803b1580156124a857600080fd5b505af41580156124bc573d6000803e3d6000fd5b505050506040513d60c08110156124d257600080fd5b508051602082015160408301516060840151608085015160a090950151939c929b5090995097509195509350915050565b60006116bc6020836127b4565b600a5490565b61252082826127b4565b15612576576040517f08c379a000000000000000000000000000000000000000000000000000000000815260040180806020018281038252602a81526020018061290f602a913960400191505060405180910390fd5b6001828101805491820181556000818152602080822090930180547fffffffffffffffffffffffff0000000000000000000000000000000000000000166001600160a01b03959095169485179055905492815292905260409091206000199091019055565b6001015490565b60008260010182815481106125f357fe5b6000918252602090912001546001600160a01b03169392505050565b61261982826127b4565b61266e576040517f08c379a000000000000000000000000000000000000000000000000000000000815260040180806020018281038252602a8152602001806128bd602a913960400191505060405180910390fd5b6000600161267b846125db565b6001600160a01b03841660009081526020869052604090205491900391508082146127855760008460010183815481106126b157fe5b60009182526020808320909101546001600160a01b03168083529087905260409091208390556001860180549192508291849081106126ec57fe5b600091825260208083209190910180547fffffffffffffffffffffffff0000000000000000000000000000000000000000166001600160a01b039485161790559186168152908690526040812055600185018054600019810190811061274e57fe5b600091825260209091200180547fffffffffffffffffffffffff0000000000000000000000000000000000000000169055506127ae565b6001600160a01b03831660009081526020859052604081208190556127ae90600186019061288d565b50505050565b60018201546000906127c8575060006116bc565b6001600160a01b03821660008181526020859052604090205460018501805490919081106127f257fe5b6000918252602090912001546001600160a01b0316149392505050565b828054600181600116156101000203166002900490600052602060002090601f016020900481019282601f1061285057805160ff191683800117855561287d565b8280016001018555821561287d579182015b8281111561287d578251825591602001919060010190612862565b506128899291506128a7565b5090565b508054600082559060005260206000209081019061154591905b5b8082111561288957600081556001016128a856fe416464726573735365743a206b657920646f6573206e6f7420657869737420696e20746865207365742e436f6e74726f6c6c61626c653a2063616c6c6572206973206e6f74206120636f6e74726f6c6c6572416464726573735365743a206b657920616c72656164792065786973747320696e20746865207365742ea264697066735822122033bf9e510047707c3761e386c0ecdc341c94243cb1e384ec5636a7c236161a0864736f6c63430007030033436f6e74726f6c6c61626c653a2063616c6c6572206973206e6f74206120636f6e74726f6c6c6572a2646970667358221220c8da879cc68d99cb8ef22bf877ed3a0eaf5571e0c4baef32f1f4d3d0693dcd8164736f6c63430007030033",
  "libraries": {
    "GovernanceLib": "0x0dE6CE52DDbD3d277aF2DC110a1E4245e54F3285",
    "Strings": "0xe98D76f55e5Dae2DE566CC8Aa1a36282742eabf7",
    "SafeMath": "0x753f0df0a61c5F8A0eB31c6Bf6e7363943Eb225B",
    "AddressSet": "0x86fca4de79B7DA4138cB961e0ce32FF17Bb1e3B3",
    "UInt256Set": "0xA7A95c6BA39DA9747ae1fE7C64e4E7ad00dCFD73",
    "Create2": "0x117f8511d54E60dE2F1C63F0Ac1c7C05473cdAa4",
    "ProposalsLib": "0x1D6465cBD2ceaF91e4F02b3f9d87BEE6436ed7bd",
    "ComplexPoolLib": "0xbdE92e94272a615E7308D6923AeD23d2cF694793",
    "WrappedTokenLib": "0xBc8357132DFdCd2c65DAc10445d3674c628390Dd"
  },
  "devdoc": {
    "kind": "dev",
    "methods": {
      "addController(address)": {
        "details": "Add an address allowed to control this contract"
      },
      "addCustomNFTGemPool(address,string,string)": {
        "details": "add an existing gem pool to factory(for migrations)"
      },
      "allNFTGemPools(uint256)": {
        "details": "get the quantized token for this"
      },
      "allNFTGemPoolsLength()": {
        "details": "number of quantized addresses"
      },
      "createCustomNFTGemPool(bytes,string,string)": {
        "details": "deploy a new erc20 token using create2"
      },
      "createNFTGemPool(string,string,uint256,uint256,uint256,uint256,uint256,address)": {
        "details": "deploy a new erc20 token using create2"
      },
      "getNFTGemPool(uint256)": {
        "details": "get the quantized token for this"
      },
      "isController(address)": {
        "details": "Check if this address is a controller"
      },
      "relinquishControl()": {
        "details": "Check if this address is a controller"
      },
      "removeGemPool(uint256)": {
        "details": "remove a gem pool from the list using its symbol hash"
      },
      "removeGemPoolAt(uint256)": {
        "details": "remove a gem pool from the list using its index into pools array"
      }
    },
    "version": 1
  },
  "userdoc": {
    "kind": "user",
    "methods": {},
    "version": 1
  },
  "storageLayout": {
    "storage": [
      {
        "astId": 10169,
        "contract": "src/factories/NFTGemPoolFactory.sol:NFTGemPoolFactory",
        "label": "_controllers",
        "offset": 0,
        "slot": "0",
        "type": "t_mapping(t_address,t_bool)"
      },
      {
        "astId": 10559,
        "contract": "src/factories/NFTGemPoolFactory.sol:NFTGemPoolFactory",
        "label": "operator",
        "offset": 0,
        "slot": "1",
        "type": "t_address"
      },
      {
        "astId": 10563,
        "contract": "src/factories/NFTGemPoolFactory.sol:NFTGemPoolFactory",
        "label": "_getNFTGemPool",
        "offset": 0,
        "slot": "2",
        "type": "t_mapping(t_uint256,t_address)"
      },
      {
        "astId": 10566,
        "contract": "src/factories/NFTGemPoolFactory.sol:NFTGemPoolFactory",
        "label": "_allNFTGemPools",
        "offset": 0,
        "slot": "3",
        "type": "t_array(t_address)dyn_storage"
      }
    ],
    "types": {
      "t_address": {
        "encoding": "inplace",
        "label": "address",
        "numberOfBytes": "20"
      },
      "t_array(t_address)dyn_storage": {
        "base": "t_address",
        "encoding": "dynamic_array",
        "label": "address[]",
        "numberOfBytes": "32"
      },
      "t_bool": {
        "encoding": "inplace",
        "label": "bool",
        "numberOfBytes": "1"
      },
      "t_mapping(t_address,t_bool)": {
        "encoding": "mapping",
        "key": "t_address",
        "label": "mapping(address => bool)",
        "numberOfBytes": "32",
        "value": "t_bool"
      },
      "t_mapping(t_uint256,t_address)": {
        "encoding": "mapping",
        "key": "t_uint256",
        "label": "mapping(uint256 => address)",
        "numberOfBytes": "32",
        "value": "t_address"
      },
      "t_uint256": {
        "encoding": "inplace",
        "label": "uint256",
        "numberOfBytes": "32"
      }
    }
  }
}