{
  "address": "0x07b613B1630be0D5F69ACa19b104ceF1EDFb80bb",
  "abi": [
    {
      "inputs": [],
      "stateMutability": "nonpayable",
      "type": "constructor"
    },
    {
      "anonymous": false,
      "inputs": [
        {
          "indexed": true,
          "internalType": "address",
          "name": "contractAddress",
          "type": "address"
        },
        {
          "indexed": true,
          "internalType": "address",
          "name": "controllerAddress",
          "type": "address"
        }
      ],
      "name": "ControllerAdded",
      "type": "event"
    },
    {
      "anonymous": false,
      "inputs": [
        {
          "indexed": true,
          "internalType": "address",
          "name": "contractAddress",
          "type": "address"
        },
        {
          "indexed": true,
          "internalType": "address",
          "name": "controllerAddress",
          "type": "address"
        }
      ],
      "name": "ControllerRemoved",
      "type": "event"
    },
    {
      "anonymous": false,
      "inputs": [
        {
          "indexed": true,
          "internalType": "address",
          "name": "operator",
          "type": "address"
        },
        {
          "indexed": false,
          "internalType": "uint256",
          "name": "oldValue",
          "type": "uint256"
        },
        {
          "indexed": false,
          "internalType": "uint256",
          "name": "value",
          "type": "uint256"
        }
      ],
      "name": "DefaultFeeDivisorChanged",
      "type": "event"
    },
    {
      "anonymous": false,
      "inputs": [
        {
          "indexed": true,
          "internalType": "address",
          "name": "manager",
          "type": "address"
        },
        {
          "indexed": false,
          "internalType": "address",
          "name": "sender",
          "type": "address"
        },
        {
          "indexed": false,
          "internalType": "uint256",
          "name": "value",
          "type": "uint256"
        }
      ],
      "name": "ETHReceived",
      "type": "event"
    },
    {
      "anonymous": false,
      "inputs": [
        {
          "indexed": true,
          "internalType": "address",
          "name": "operator",
          "type": "address"
        },
        {
          "indexed": true,
          "internalType": "address",
          "name": "token",
          "type": "address"
        },
        {
          "indexed": false,
          "internalType": "uint256",
          "name": "oldValue",
          "type": "uint256"
        },
        {
          "indexed": false,
          "internalType": "uint256",
          "name": "value",
          "type": "uint256"
        }
      ],
      "name": "FeeDivisorChanged",
      "type": "event"
    },
    {
      "inputs": [
        {
          "internalType": "address",
          "name": "_controller",
          "type": "address"
        }
      ],
      "name": "addController",
      "outputs": [],
      "stateMutability": "nonpayable",
      "type": "function"
    },
    {
      "inputs": [
        {
          "internalType": "address",
          "name": "token",
          "type": "address"
        },
        {
          "internalType": "uint256",
          "name": "id",
          "type": "uint256"
        }
      ],
      "name": "balanceOfERC1155",
      "outputs": [
        {
          "internalType": "uint256",
          "name": "",
          "type": "uint256"
        }
      ],
      "stateMutability": "view",
      "type": "function"
    },
    {
      "inputs": [
        {
          "internalType": "address",
          "name": "token",
          "type": "address"
        }
      ],
      "name": "balanceOfERC20",
      "outputs": [
        {
          "internalType": "uint256",
          "name": "",
          "type": "uint256"
        }
      ],
      "stateMutability": "view",
      "type": "function"
    },
    {
      "inputs": [],
      "name": "ethBalanceOf",
      "outputs": [
        {
          "internalType": "uint256",
          "name": "",
          "type": "uint256"
        }
      ],
      "stateMutability": "view",
      "type": "function"
    },
    {
      "inputs": [
        {
          "internalType": "address",
          "name": "token",
          "type": "address"
        }
      ],
      "name": "feeDivisor",
      "outputs": [
        {
          "internalType": "uint256",
          "name": "divisor",
          "type": "uint256"
        }
      ],
      "stateMutability": "view",
      "type": "function"
    },
    {
      "inputs": [
        {
          "internalType": "address",
          "name": "_address",
          "type": "address"
        }
      ],
      "name": "isController",
      "outputs": [
        {
          "internalType": "bool",
          "name": "allowed",
          "type": "bool"
        }
      ],
      "stateMutability": "view",
      "type": "function"
    },
    {
      "inputs": [],
      "name": "relinquishControl",
      "outputs": [],
      "stateMutability": "view",
      "type": "function"
    },
    {
      "inputs": [
        {
          "internalType": "address",
          "name": "token",
          "type": "address"
        },
        {
          "internalType": "uint256",
          "name": "_feeDivisor",
          "type": "uint256"
        }
      ],
      "name": "setFeeDivisor",
      "outputs": [
        {
          "internalType": "uint256",
          "name": "oldDivisor",
          "type": "uint256"
        }
      ],
      "stateMutability": "nonpayable",
      "type": "function"
    },
    {
      "inputs": [
        {
          "internalType": "address",
          "name": "token",
          "type": "address"
        },
        {
          "internalType": "uint256",
          "name": "id",
          "type": "uint256"
        },
        {
          "internalType": "address",
          "name": "recipient",
          "type": "address"
        },
        {
          "internalType": "uint256",
          "name": "amount",
          "type": "uint256"
        }
      ],
      "name": "transferERC1155Token",
      "outputs": [],
      "stateMutability": "nonpayable",
      "type": "function"
    },
    {
      "inputs": [
        {
          "internalType": "address",
          "name": "token",
          "type": "address"
        },
        {
          "internalType": "address",
          "name": "recipient",
          "type": "address"
        },
        {
          "internalType": "uint256",
          "name": "amount",
          "type": "uint256"
        }
      ],
      "name": "transferERC20Token",
      "outputs": [],
      "stateMutability": "nonpayable",
      "type": "function"
    },
    {
      "inputs": [
        {
          "internalType": "address payable",
          "name": "recipient",
          "type": "address"
        },
        {
          "internalType": "uint256",
          "name": "amount",
          "type": "uint256"
        }
      ],
      "name": "transferEth",
      "outputs": [],
      "stateMutability": "nonpayable",
      "type": "function"
    },
    {
      "stateMutability": "payable",
      "type": "receive"
    }
  ],
  "transactionHash": "0x55d5424ccabf8476952ee9ed7c8e0fdafa2ff8bbc9d4efaba1df95ae88c5ddf5",
  "args": [],
  "solcInputHash": "1beb6fd726d52d0f56b2a930336b25bc",
  "bytecode": "0x608060405234801561001057600080fd5b5061001a3361001f565b610043565b6001600160a01b03166000908152602081905260409020805460ff19166001179055565b610b47806100526000396000f3fe6080604052600436106100c05760003560e01c8063b429afeb11610074578063e9bb84c21161004e578063e9bb84c21461026c578063eee1ad80146102a5578063fc05e528146102d8576100c7565b8063b429afeb146101dd578063d93db24f14610224578063e1c28bef14610257576100c7565b806392940bf9116100a557806392940bf91461012c578063a51834ff14610171578063a7fc7a07146101aa576100c7565b8063418ae269146100cc5780636b4be0b914610117576100c7565b366100c757005b600080fd5b3480156100d857600080fd5b50610105600480360360408110156100ef57600080fd5b506001600160a01b03813516906020013561031f565b60408051918252519081900360200190f35b34801561012357600080fd5b506101056103a8565b34801561013857600080fd5b5061016f6004803603606081101561014f57600080fd5b506001600160a01b038135811691602081013590911690604001356103ac565b005b34801561017d57600080fd5b506101056004803603604081101561019457600080fd5b506001600160a01b03813516906020013561055e565b3480156101b657600080fd5b5061016f600480360360208110156101cd57600080fd5b50356001600160a01b0316610673565b3480156101e957600080fd5b506102106004803603602081101561020057600080fd5b50356001600160a01b03166106f4565b604080519115158252519081900360200190f35b34801561023057600080fd5b506101056004803603602081101561024757600080fd5b50356001600160a01b0316610712565b34801561026357600080fd5b5061016f610793565b34801561027857600080fd5b5061016f6004803603604081101561028f57600080fd5b506001600160a01b0381351690602001356107fb565b3480156102b157600080fd5b50610105600480360360208110156102c857600080fd5b50356001600160a01b03166108e8565b3480156102e457600080fd5b5061016f600480360360808110156102fb57600080fd5b506001600160a01b0381358116916020810135916040820135169060600135610917565b6000826001600160a01b031662fdd58e30846040518363ffffffff1660e01b815260040180836001600160a01b031681526020018281526020019250505060206040518083038186803b15801561037557600080fd5b505afa158015610389573d6000803e3d6000fd5b505050506040513d602081101561039f57600080fd5b50519392505050565b4790565b3360009081526020819052604090205460ff161515600114806103ce57503033145b6104095760405162461bcd60e51b8152600401808060200182810382526028815260200180610aea6028913960400191505060405180910390fd5b80836001600160a01b03166370a08231306040518263ffffffff1660e01b815260040180826001600160a01b0316815260200191505060206040518083038186803b15801561045757600080fd5b505afa15801561046b573d6000803e3d6000fd5b505050506040513d602081101561048157600080fd5b505110156104d6576040805162461bcd60e51b815260206004820152601460248201527f494e53554646494349454e545f42414c414e4345000000000000000000000000604482015290519081900360640190fd5b826001600160a01b031663a9059cbb83836040518363ffffffff1660e01b815260040180836001600160a01b0316815260200182815260200192505050602060405180830381600087803b15801561052d57600080fd5b505af1158015610541573d6000803e3d6000fd5b505050506040513d602081101561055757600080fd5b5050505050565b3360009081526020819052604081205460ff1615156001148061058057503033145b6105bb5760405162461bcd60e51b8152600401808060200182810382526028815260200180610aea6028913960400191505060405180910390fd5b8161060d576040805162461bcd60e51b815260206004820152600e60248201527f4449564953494f4e42595a45524f000000000000000000000000000000000000604482015290519081900360640190fd5b506001600160a01b0380831660008181526002602090815260409182902080549086905560015483518281529283018790528351919516927f8f604bc5c2d1916032a90c8f4d7cdc0dff78f1ba11119344f3fe46ddea179544928290030190a392915050565b3360009081526020819052604090205460ff1615156001148061069557503033145b6106d05760405162461bcd60e51b8152600401808060200182810382526028815260200180610aea6028913960400191505060405180910390fd5b6001600160a01b03166000908152602081905260409020805460ff19166001179055565b6001600160a01b031660009081526020819052604090205460ff1690565b6000816001600160a01b03166370a08231306040518263ffffffff1660e01b815260040180826001600160a01b0316815260200191505060206040518083038186803b15801561076157600080fd5b505afa158015610775573d6000803e3d6000fd5b505050506040513d602081101561078b57600080fd5b505192915050565b3360009081526020819052604090205460ff161515600114806107b557503033145b6107f05760405162461bcd60e51b8152600401808060200182810382526028815260200180610aea6028913960400191505060405180910390fd5b336000908152602052565b3360009081526020819052604090205460ff1615156001148061081d57503033145b6108585760405162461bcd60e51b8152600401808060200182810382526028815260200180610aea6028913960400191505060405180910390fd5b804710156108ad576040805162461bcd60e51b815260206004820152601460248201527f494e53554646494349454e545f42414c414e4345000000000000000000000000604482015290519081900360640190fd5b6040516001600160a01b0383169082156108fc029083906000818181858888f193505050501580156108e3573d6000803e3d6000fd5b505050565b6001600160a01b038116600090815260026020526040902054801561090d5780610911565b6107d05b92915050565b3360009081526020819052604090205460ff1615156001148061093957503033145b6109745760405162461bcd60e51b8152600401808060200182810382526028815260200180610aea6028913960400191505060405180910390fd5b80846001600160a01b031662fdd58e30866040518363ffffffff1660e01b815260040180836001600160a01b031681526020018281526020019250505060206040518083038186803b1580156109c957600080fd5b505afa1580156109dd573d6000803e3d6000fd5b505050506040513d60208110156109f357600080fd5b50511015610a48576040805162461bcd60e51b815260206004820152601460248201527f494e53554646494349454e545f42414c414e4345000000000000000000000000604482015290519081900360640190fd5b604080517ff242432a0000000000000000000000000000000000000000000000000000000081523060048201526001600160a01b038481166024830152604482018690526064820184905260a06084830152600060a4830181905292519087169263f242432a9260e4808201939182900301818387803b158015610acb57600080fd5b505af1158015610adf573d6000803e3d6000fd5b505050505050505056fe436f6e74726f6c6c61626c653a2063616c6c6572206973206e6f74206120636f6e74726f6c6c6572a264697066735822122099ae114a01962550d34fe2950a1fa6fde5ac1de00a1ff60c7dacf984a89b5b0764736f6c63430007030033",
  "libraries": {
    "GovernanceLib": "0xfEbf82b4c4819f7ded1e0fF361c183381d1990Ea",
    "Strings": "0x2b5E12feB40530f028cE81c0B04F9B7804F3bD8B",
    "SafeMath": "0xf88a49ac5FFC67cA94a1235A44F4F366eb0c77f0",
    "AddressSet": "0xc400Df1a9cB78148de8c145100D1e4E40f4a5142",
    "UInt256Set": "0xD208031f5dc5134A58cA550a14637461A0e7A469",
    "Create2": "0x9eb74D584F4500E35643463d17e0f96878bcD970",
    "ProposalsLib": "0x2f92371a46118423d267AECB352f52E773B21B5d",
    "ComplexPoolLib": "0x988d5537f746daE83838d13F3fe875030e3F3fE7",
    "WrappedTokenLib": "0xe967bb5871CC517F2941A41D114cbC5fC35C96D3",
    "Unigem20Library": "0x47dC7a56d15D6E6E8F0C5c2daD0ad2D2D1ba415D"
  },
  "devdoc": {
    "kind": "dev",
    "methods": {
      "addController(address)": {
        "details": "Add an address allowed to control this contract"
      },
      "balanceOfERC1155(address,uint256)": {
        "details": "get the token balance of this fee manager"
      },
      "balanceOfERC20(address)": {
        "details": "get the token balance of this fee manager"
      },
      "constructor": {
        "details": "constructor"
      },
      "ethBalanceOf()": {
        "details": "get the ETH balance of this fee manager"
      },
      "feeDivisor(address)": {
        "details": "Get the fee divisor for the specified token"
      },
      "isController(address)": {
        "details": "Check if this address is a controller"
      },
      "relinquishControl()": {
        "details": "Check if this address is a controller"
      },
      "setFeeDivisor(address,uint256)": {
        "details": "Set the fee divisor for the specified token"
      },
      "transferERC1155Token(address,uint256,address,uint256)": {
        "details": "transfer tokens from this contract to another contract"
      },
      "transferERC20Token(address,address,uint256)": {
        "details": "transfer tokens from this contract to the to given recipient"
      },
      "transferEth(address,uint256)": {
        "details": "transfer ETH from this contract to the to given recipient"
      }
    },
    "version": 1
  },
  "userdoc": {
    "kind": "user",
    "methods": {},
    "version": 1
  },
  "storageLayout": {
    "storage": [
      {
        "astId": 10169,
        "contract": "src/fees/NFTGemWrapperFeeManager.sol:NFTGemWrapperFeeManager",
        "label": "_controllers",
        "offset": 0,
        "slot": "0",
        "type": "t_mapping(t_address,t_bool)"
      },
      {
        "astId": 16915,
        "contract": "src/fees/NFTGemWrapperFeeManager.sol:NFTGemWrapperFeeManager",
        "label": "operator",
        "offset": 0,
        "slot": "1",
        "type": "t_address"
      },
      {
        "astId": 16922,
        "contract": "src/fees/NFTGemWrapperFeeManager.sol:NFTGemWrapperFeeManager",
        "label": "feeDivisors",
        "offset": 0,
        "slot": "2",
        "type": "t_mapping(t_address,t_uint256)"
      }
    ],
    "types": {
      "t_address": {
        "encoding": "inplace",
        "label": "address",
        "numberOfBytes": "20"
      },
      "t_bool": {
        "encoding": "inplace",
        "label": "bool",
        "numberOfBytes": "1"
      },
      "t_mapping(t_address,t_bool)": {
        "encoding": "mapping",
        "key": "t_address",
        "label": "mapping(address => bool)",
        "numberOfBytes": "32",
        "value": "t_bool"
      },
      "t_mapping(t_address,t_uint256)": {
        "encoding": "mapping",
        "key": "t_address",
        "label": "mapping(address => uint256)",
        "numberOfBytes": "32",
        "value": "t_uint256"
      },
      "t_uint256": {
        "encoding": "inplace",
        "label": "uint256",
        "numberOfBytes": "32"
      }
    }
  }
}