{
  "address": "0x638204dD7bF869dFA23C774116B91503d0e33f65",
  "abi": [
    {
      "anonymous": false,
      "inputs": [
        {
          "indexed": true,
          "internalType": "address",
          "name": "gemPoolAdress",
          "type": "address"
        },
        {
          "indexed": false,
          "internalType": "string",
          "name": "gemSymbol",
          "type": "string"
        },
        {
          "indexed": false,
          "internalType": "string",
          "name": "gemName",
          "type": "string"
        }
      ],
      "name": "CustomNFTGemPoolCreated",
      "type": "event"
    },
    {
      "anonymous": false,
      "inputs": [
        {
          "indexed": true,
          "internalType": "address",
          "name": "gemPoolAddress",
          "type": "address"
        },
        {
          "indexed": false,
          "internalType": "string",
          "name": "gemSymbol",
          "type": "string"
        },
        {
          "indexed": false,
          "internalType": "string",
          "name": "gemName",
          "type": "string"
        },
        {
          "indexed": false,
          "internalType": "uint256",
          "name": "ethPrice",
          "type": "uint256"
        },
        {
          "indexed": false,
          "internalType": "uint256",
          "name": "minTime",
          "type": "uint256"
        },
        {
          "indexed": false,
          "internalType": "uint256",
          "name": "maxTime",
          "type": "uint256"
        },
        {
          "indexed": false,
          "internalType": "uint256",
          "name": "diffstep",
          "type": "uint256"
        },
        {
          "indexed": false,
          "internalType": "uint256",
          "name": "maxMint",
          "type": "uint256"
        },
        {
          "indexed": false,
          "internalType": "address",
          "name": "allowedToken",
          "type": "address"
        }
      ],
      "name": "NFTGemPoolCreated",
      "type": "event"
    },
    {
      "inputs": [
        {
          "internalType": "address",
          "name": "poolAddress",
          "type": "address"
        },
        {
          "internalType": "string",
          "name": "gemSymbol",
          "type": "string"
        },
        {
          "internalType": "string",
          "name": "gemName",
          "type": "string"
        }
      ],
      "name": "addCustomNFTGemPool",
      "outputs": [
        {
          "internalType": "address payable",
          "name": "gemPool",
          "type": "address"
        }
      ],
      "stateMutability": "nonpayable",
      "type": "function"
    },
    {
      "inputs": [
        {
          "internalType": "uint256",
          "name": "idx",
          "type": "uint256"
        }
      ],
      "name": "allNFTGemPools",
      "outputs": [
        {
          "internalType": "address",
          "name": "gemPool",
          "type": "address"
        }
      ],
      "stateMutability": "view",
      "type": "function"
    },
    {
      "inputs": [],
      "name": "allNFTGemPoolsLength",
      "outputs": [
        {
          "internalType": "uint256",
          "name": "",
          "type": "uint256"
        }
      ],
      "stateMutability": "view",
      "type": "function"
    },
    {
      "inputs": [
        {
          "internalType": "bytes",
          "name": "bytecode",
          "type": "bytes"
        },
        {
          "internalType": "string",
          "name": "gemSymbol",
          "type": "string"
        },
        {
          "internalType": "string",
          "name": "gemName",
          "type": "string"
        }
      ],
      "name": "createCustomNFTGemPool",
      "outputs": [
        {
          "internalType": "address payable",
          "name": "gemPool",
          "type": "address"
        }
      ],
      "stateMutability": "nonpayable",
      "type": "function"
    },
    {
      "inputs": [
        {
          "internalType": "string",
          "name": "gemSymbol",
          "type": "string"
        },
        {
          "internalType": "string",
          "name": "gemName",
          "type": "string"
        },
        {
          "internalType": "uint256",
          "name": "ethPrice",
          "type": "uint256"
        },
        {
          "internalType": "uint256",
          "name": "minTime",
          "type": "uint256"
        },
        {
          "internalType": "uint256",
          "name": "maxTime",
          "type": "uint256"
        },
        {
          "internalType": "uint256",
          "name": "diffstep",
          "type": "uint256"
        },
        {
          "internalType": "uint256",
          "name": "maxMint",
          "type": "uint256"
        },
        {
          "internalType": "address",
          "name": "allowedToken",
          "type": "address"
        }
      ],
      "name": "createNFTGemPool",
      "outputs": [
        {
          "internalType": "address payable",
          "name": "gemPool",
          "type": "address"
        }
      ],
      "stateMutability": "nonpayable",
      "type": "function"
    },
    {
      "inputs": [
        {
          "internalType": "uint256",
          "name": "_symbolHash",
          "type": "uint256"
        }
      ],
      "name": "getNFTGemPool",
      "outputs": [
        {
          "internalType": "address",
          "name": "gemPool",
          "type": "address"
        }
      ],
      "stateMutability": "view",
      "type": "function"
    },
    {
      "inputs": [],
      "name": "nftGemPools",
      "outputs": [
        {
          "internalType": "address[]",
          "name": "",
          "type": "address[]"
        }
      ],
      "stateMutability": "view",
      "type": "function"
    }
  ],
  "transactionHash": "0x232d3cf390401d885bdb4bcf98cef660e5825f5499b1381130bf595db7cfee60",
  "args": [],
  "solcInputHash": "b06c540bf558ebe1763f6f5fe903171f",
  "bytecode": "0x608060405234801561001057600080fd5b50615035806100206000396000f3fe608060405234801561001057600080fd5b506004361061007d5760003560e01c80634ff8f07e1161005b5780634ff8f07e146100d35780635e6fe72a146100e657806367275aed146100fb578063e4aa923d1461010e5761007d565b80630311949d146100825780631ff77f16146100ab5780632b69fa10146100be575b600080fd5b61009561009036600461079f565b610121565b6040516100a29190610974565b60405180910390f35b6100956100b9366004610914565b610240565b6100c6610297565b6040516100a29190610988565b6100956100e1366004610872565b6102f9565b6100ee610532565b6040516100a29190610be6565b610095610109366004610914565b610538565b61009561011c366004610810565b610553565b600080836040516020016101359190610958565b60408051601f1981840301815291815281516020928301206000818152928390529120549091506001600160a01b03161561018b5760405162461bcd60e51b815260040161018290610b41565b60405180910390fd5b60008181526020819052604080822080546001600160a01b03891673ffffffffffffffffffffffffffffffffffffffff19918216811790925560018054808201825594527fb10e2d527612073b26eecdfd717e6a320cf44b4afac2b0732d9fcbe2b7fa0cf690930180549093168117909255518693507f88b481e2ff8032de76e27f322db4a8824d7d3aecd68d626a331dc739208571469061023090879087906109d5565b60405180910390a2509392505050565b60006001828154811061027c577f4e487b7100000000000000000000000000000000000000000000000000000000600052603260045260246000fd5b6000918252602090912001546001600160a01b031692915050565b606060018054806020026020016040519081016040528092919081815260200182805480156102ef57602002820191906000526020600020905b81546001600160a01b031681526001909101906020018083116102d1575b5050505050905090565b6000808960405160200161030d9190610958565b60408051601f1981840301815291815281516020928301206000818152928390529120549091506001600160a01b03161561035a5760405162461bcd60e51b815260040161018290610b41565b876103775760405162461bcd60e51b815260040161018290610a9c565b866103945760405162461bcd60e51b815260040161018290610b78565b846103b15760405162461bcd60e51b815260040161018290610ad3565b6000604051806020016103c3906106e0565b601f1982820381018352601f9091011660405290506103e460008383610666565b6040517fd9a3f9bb0000000000000000000000000000000000000000000000000000000081529093506001600160a01b0384169063d9a3f9bb9061043a908e908e908e908e908e908e908e908e90600401610a03565b600060405180830381600087803b15801561045457600080fd5b505af1158015610468573d6000803e3d6000fd5b50505060008381526020819052604080822080546001600160a01b03881673ffffffffffffffffffffffffffffffffffffffff19918216811790925560018054808201825594527fb10e2d527612073b26eecdfd717e6a320cf44b4afac2b0732d9fcbe2b7fa0cf690930180549093168117909255519091507f39edc680fea25684123932cc30f03ee17ba6966438526d7569cc7d6bb4e762e69061051c908e908e908e908e908e908e908e908e90610a03565b60405180910390a2505098975050505050505050565b60015490565b6000908152602081905260409020546001600160a01b031690565b600080836040516020016105679190610958565b60408051601f1981840301815291815281516020928301206000818152928390529120549091506001600160a01b0316156105b45760405162461bcd60e51b815260040161018290610b41565b6105c060008287610666565b60008281526020819052604080822080546001600160a01b03851673ffffffffffffffffffffffffffffffffffffffff19918216811790925560018054808201825594527fb10e2d527612073b26eecdfd717e6a320cf44b4afac2b0732d9fcbe2b7fa0cf69093018054909316811790925551919350907f88b481e2ff8032de76e27f322db4a8824d7d3aecd68d626a331dc739208571469061023090879087906109d5565b600080844710156106895760405162461bcd60e51b815260040161018290610baf565b82516106a75760405162461bcd60e51b815260040161018290610a67565b8383516020850187f590506001600160a01b0381166106d85760405162461bcd60e51b815260040161018290610b0a565b949350505050565b6143b180610c4f83390190565b600067ffffffffffffffff8084111561070857610708610c1f565b6040516020601f19601f870116820101818110838211171561072c5761072c610c1f565b60405284815291508183850186101561074457600080fd5b8484602083013760006020868301015250509392505050565b80356001600160a01b038116811461077457600080fd5b919050565b600082601f830112610789578081fd5b610798838335602085016106ed565b9392505050565b6000806000606084860312156107b3578283fd5b6107bc8461075d565b9250602084013567ffffffffffffffff808211156107d8578384fd5b6107e487838801610779565b935060408601359150808211156107f9578283fd5b5061080686828701610779565b9150509250925092565b600080600060608486031215610824578283fd5b833567ffffffffffffffff8082111561083b578485fd5b818601915086601f83011261084e578485fd5b61085d878335602085016106ed565b945060208601359150808211156107d8578384fd5b600080600080600080600080610100898b03121561088e578384fd5b883567ffffffffffffffff808211156108a5578586fd5b6108b18c838d01610779565b995060208b01359150808211156108c6578586fd5b506108d38b828c01610779565b97505060408901359550606089013594506080890135935060a0890135925060c0890135915061090560e08a0161075d565b90509295985092959890939650565b600060208284031215610925578081fd5b5035919050565b60008151808452610944816020860160208601610bef565b601f01601f19169290920160200192915050565b6000825161096a818460208701610bef565b9190910192915050565b6001600160a01b0391909116815260200190565b6020808252825182820181905260009190848201906040850190845b818110156109c95783516001600160a01b0316835292840192918401916001016109a4565b50909695505050505050565b6000604082526109e8604083018561092c565b82810360208401526109fa818561092c565b95945050505050565b6000610100808352610a178184018c61092c565b90508281036020840152610a2b818b61092c565b604084019990995250506060810195909552608085019390935260a084019190915260c08301526001600160a01b031660e09091015292915050565b6020808252818101527f437265617465323a2062797465636f6465206c656e677468206973207a65726f604082015260600190565b6020808252600d908201527f494e56414c49445f505249434500000000000000000000000000000000000000604082015260600190565b60208082526017908201527f494e56414c49445f444946464943554c54595f53544550000000000000000000604082015260600190565b60208082526019908201527f437265617465323a204661696c6564206f6e206465706c6f7900000000000000604082015260600190565b6020808252600e908201527f47454d504f4f4c5f455849535453000000000000000000000000000000000000604082015260600190565b60208082526010908201527f494e56414c49445f4d494e5f54494d4500000000000000000000000000000000604082015260600190565b6020808252601d908201527f437265617465323a20696e73756666696369656e742062616c616e6365000000604082015260600190565b90815260200190565b60005b83811015610c0a578181015183820152602001610bf2565b83811115610c19576000848401525b50505050565b7f4e487b7100000000000000000000000000000000000000000000000000000000600052604160045260246000fdfe608060405234801561001057600080fd5b50336000818152602460205260408082208054600160ff1991821681178355328552928420805482168417905593835280549093161790915561435890819061005990396000f3fe6080604052600436106105225760003560e01c806395d89b41116102af578063d104f8f511610179578063e6c3b1f6116100d6578063f8d1e9301161008a578063f9eaee0d1161006f578063f9eaee0d14610dd5578063fd31a0a514610df5578063ff186b2e14610e1557610522565b8063f8d1e93014610d80578063f9c9c27614610da257610522565b8063ef430aa6116100bb578063ef430aa614610d36578063f23a6e6114610d4b578063f4fde0d314610d6b57610522565b8063e6c3b1f614610cf6578063edcf2d5714610d1657610522565b8063d80528ae1161012d578063e06174e411610112578063e06174e414610c95578063e1c28bef14610cc1578063e5d2ce2f14610cd657610522565b8063d80528ae14610c4c578063d9a3f9bb14610c7557610522565b8063d3d083971161015e578063d3d0839714610bf7578063d43e646014610c0c578063d73cd47f14610c2c57610522565b8063d104f8f514610bb7578063d31674db14610bd757610522565b8063bc197c8111610227578063c5e01a5c116101db578063c80c0613116101c0578063c80c061314610b82578063cdc8a8ab14610b97578063cf721b1514610b8257610522565b8063c5e01a5c14610b42578063c65eff9614610b6257610522565b8063c42cf5351161020c578063c42cf53514610ae2578063c455279114610b02578063c54a924214610b2257610522565b8063bc197c8114610ab5578063c08fa1a4146109e157610522565b8063af6a6d791161027e578063b3947a9411610263578063b3947a9414610a60578063b429afeb14610a80578063b788e4e914610aa057610522565b8063af6a6d7914610a36578063b385a50a14610a4b57610522565b806395d89b41146109cc578063a0021cf1146109e1578063a7fc7a07146109f6578063a901c47414610a1657610522565b8063504cdacf116103f05780637c07bc7a116103685780638a09871b1161031c57806390c3f38f1161030157806390c3f38f1461096c5780639277a1851461098c57806395935560146109ac57610522565b80638a09871b1461093757806390469a9d1461094c57610522565b80637f2e8f0c1161034d5780637f2e8f0c146108d757806382977551146108f7578063870114f61461091757610522565b80637c07bc7a146108955780637dcb0e5f146108b757610522565b80636100c343116103bf5780636b6201da116103a45780636b6201da146108405780637284e416146108535780637ae7815d1461087557610522565b80636100c3431461080057806368127a8e1461082057610522565b8063504cdacf146107965780635d2e0dd4146107ab5780635e5f2e26146107c05780635fb93091146107ed57610522565b806327c10f561161049e578063407dff161161045257806344f0877c1161043757806344f0877c1461074c5780634565e5ef1461076c5780634e04cdc71461078157610522565b8063407dff161461070a5780634178617f1461072c57610522565b8063336b9efb11610483578063336b9efb146106b0578063379607f5146106c5578063392732b1146106f757610522565b806327c10f5614610670578063328d8f721461069057610522565b80632360cf5e116104f557806323b221a0116104da57806323b221a0146106035780632449ef511461063057806326ff31521461065057610522565b80632360cf5e146105ce578063238dafe0146105ee57610522565b806301ffc9a714610527578063044215c61461055d5780631284650d1461058c57806315523ab9146105ae575b600080fd5b34801561053357600080fd5b506105476105423660046137a8565b610e2a565b6040516105549190613c85565b60405180910390f35b34801561056957600080fd5b5061057d61057836600461396c565b610e86565b60405161055493929190613d08565b34801561059857600080fd5b506105ac6105a736600461341d565b610ebc565b005b3480156105ba57600080fd5b506105476105c936600461396c565b610eda565b3480156105da57600080fd5b506105ac6105e9366004613a3c565b610eee565b3480156105fa57600080fd5b50610547610f55565b34801561060f57600080fd5b5061062361061e36600461396c565b610f64565b6040516105549190614037565b34801561063c57600080fd5b506105ac61064b36600461345c565b611009565b34801561065c57600080fd5b506105ac61066b36600461341d565b611092565b34801561067c57600080fd5b506105ac61068b36600461399c565b6110ac565b34801561069c57600080fd5b506105ac6106ab36600461378c565b61119a565b3480156106bc57600080fd5b50610623611209565b3480156106d157600080fd5b506106e56106e036600461396c565b61120f565b604051610554969594939291906141a1565b6105ac610705366004613a3c565b611547565b34801561071657600080fd5b5061071f61159c565b6040516105549190613cf5565b34801561073857600080fd5b506105ac61074736600461341d565b6115ac565b34801561075857600080fd5b506105ac61076736600461378c565b61160a565b34801561077857600080fd5b50610623611694565b34801561078d57600080fd5b506105476116a5565b3480156107a257600080fd5b506106236116b3565b3480156107b757600080fd5b506105476116b9565b3480156107cc57600080fd5b506107e06107db36600461396c565b6116c2565b6040516105549190613b40565b6105ac6107fb36600461396c565b6116cf565b34801561080c57600080fd5b506105ac61081b36600461371d565b611759565b34801561082c57600080fd5b506105ac61083b36600461353e565b6117e5565b6105ac61084e36600461396c565b6118d0565b34801561085f57600080fd5b50610868611926565b6040516105549190613d32565b34801561088157600080fd5b506105ac61089036600461378c565b6119bb565b3480156108a157600080fd5b506108aa611a1e565b6040516105549190613c4d565b3480156108c357600080fd5b506106236108d236600461396c565b611a78565b3480156108e357600080fd5b506106236108f236600461396c565b611a8a565b34801561090357600080fd5b5061062361091236600461396c565b611adf565b34801561092357600080fd5b506105ac610932366004613a18565b611af1565b34801561094357600080fd5b50610623611b46565b34801561095857600080fd5b506105ac61096736600461341d565b611be9565b34801561097857600080fd5b506105ac610987366004613820565b611c47565b34801561099857600080fd5b506105ac6109a736600461341d565b611cb1565b3480156109b857600080fd5b506106236109c736600461396c565b611cfa565b3480156109d857600080fd5b50610868611d4f565b3480156109ed57600080fd5b50610623611d61565b348015610a0257600080fd5b506105ac610a1136600461341d565b611d67565b348015610a2257600080fd5b50610623610a3136600461396c565b611dc9565b348015610a4257600080fd5b50610547611e1e565b348015610a5757600080fd5b50610623611e27565b348015610a6c57600080fd5b506105ac610a7b366004613639565b611e2d565b348015610a8c57600080fd5b50610547610a9b36600461341d565b6123ad565b348015610aac57600080fd5b506106236123cb565b348015610ac157600080fd5b50610ad5610ad0366004613494565b61241e565b6040516105549190613cc8565b348015610aee57600080fd5b506105ac610afd36600461341d565b612448565b348015610b0e57600080fd5b506107e0610b1d36600461341d565b612491565b348015610b2e57600080fd5b506105ac610b3d3660046137e8565b612496565b348015610b4e57600080fd5b506107e0610b5d36600461396c565b61253f565b348015610b6e57600080fd5b506105ac610b7d36600461396c565b6125e4565b348015610b8e57600080fd5b5061062361263c565b348015610ba357600080fd5b506105ac610bb2366004613751565b612642565b348015610bc357600080fd5b506105ac610bd236600461341d565b6126a8565b348015610be357600080fd5b50610623610bf236600461396c565b6126f1565b348015610c0357600080fd5b50610623612728565b348015610c1857600080fd5b506105ac610c2736600461378c565b61277b565b348015610c3857600080fd5b506105ac610c4736600461341d565b6127e1565b348015610c5857600080fd5b50610c6161282a565b604051610554989796959493929190613c90565b348015610c8157600080fd5b506105ac610c903660046138c6565b6129ae565b348015610ca157600080fd5b50610caa612aa3565b6040516105549b9a99989796959493929190613d45565b348015610ccd57600080fd5b506105ac612cba565b348015610ce257600080fd5b506105ac610cf136600461396c565b612d11565b348015610d0257600080fd5b5061071f610d1136600461396c565b612d69565b348015610d2257600080fd5b506105ac610d313660046136f2565b612d7e565b348015610d4257600080fd5b50610623612dd6565b348015610d5757600080fd5b50610ad5610d6636600461368b565b612ddc565b348015610d7757600080fd5b50610623612e06565b348015610d8c57600080fd5b50610d95612e0c565b6040516105549190613c00565b348015610dae57600080fd5b50610dc2610dbd36600461396c565b612e6c565b6040516105549796959493929190613b54565b348015610de157600080fd5b50610547610df036600461341d565b612f19565b348015610e0157600080fd5b506105ac610e1036600461396c565b612f26565b348015610e2157600080fd5b50610623612f7e565b60007fffffffff0000000000000000000000000000000000000000000000000000000082167f4e2312e0000000000000000000000000000000000000000000000000000000001480610e805750610e8082612f84565b92915050565b6000908152601260209081526040808320546013835281842054601490935292205460ff9092169290916001600160a01b031690565b610ec7601582612fce565b15610ed757610ed760158261303d565b50565b600090815260208052604090205460ff1690565b3360009081526024602052604090205460ff16151560011480610f1b57506002546001600160a01b031633145b80610f2557503033145b610f4a5760405162461bcd60e51b8152600401610f4190613e6a565b60405180910390fd5b601991909155601855565b60115462010000900460ff1690565b6040517f01356b6d000000000000000000000000000000000000000000000000000000008152600090739aCda89A5C672c5f74bf71C723D9fAad285167C2906301356b6d90610fb990849086906004016140d9565b60206040518083038186803b158015610fd157600080fd5b505af4158015610fe5573d6000803e3d6000fd5b505050506040513d601f19601f82011682018060405250810190610e809190613984565b6040517fb9f05274000000000000000000000000000000000000000000000000000000008152739aCda89A5C672c5f74bf71C723D9fAad285167C29063b9f052749061105e9060009086908690600401614040565b60006040518083038186803b15801561107657600080fd5b505af415801561108a573d6000803e3d6000fd5b505050505050565b61109d601582612fce565b610ed757610ed76015826131a3565b3360009081526024602052604090205460ff161515600114806110d957506002546001600160a01b031633145b806110e357503033145b6110ff5760405162461bcd60e51b8152600401610f4190613e6a565b6040517ff2a19d85000000000000000000000000000000000000000000000000000000008152739aCda89A5C672c5f74bf71C723D9fAad285167C29063f2a19d8590611160906000908c908c908c908c908c908c908c908c906004016140e7565b60006040518083038186803b15801561117857600080fd5b505af415801561118c573d6000803e3d6000fd5b505050505050505050505050565b3360009081526024602052604090205460ff161515600114806111c757506002546001600160a01b031633145b806111d157503033145b6111ed5760405162461bcd60e51b8152600401610f4190613e6a565b60118054911515620100000262ff000019909216919091179055565b60105490565b6000806000806000806000739aCda89A5C672c5f74bf71C723D9fAad285167C26301356b6d9091896040518363ffffffff1660e01b81526004016112549291906140d9565b60206040518083038186803b15801561126c57600080fd5b505af4158015611280573d6000803e3d6000fd5b505050506040513d601f19601f820116820180604052508101906112a49190613984565b6040517fecd5244e000000000000000000000000000000000000000000000000000000008152739aCda89A5C672c5f74bf71C723D9fAad285167C29063ecd5244e906112f7906000908c906004016140d9565b60206040518083038186803b15801561130f57600080fd5b505af4158015611323573d6000803e3d6000fd5b505050506040513d601f19601f820116820180604052508101906113479190613984565b6040517fb94677da000000000000000000000000000000000000000000000000000000008152739aCda89A5C672c5f74bf71C723D9fAad285167C29063b94677da9061139a906000908d906004016140d9565b60206040518083038186803b1580156113b257600080fd5b505af41580156113c6573d6000803e3d6000fd5b505050506040513d601f19601f820116820180604052508101906113ea9190613984565b6040517fdc1f0f53000000000000000000000000000000000000000000000000000000008152739aCda89A5C672c5f74bf71C723D9fAad285167C29063dc1f0f539061143d906000908e906004016140d9565b60206040518083038186803b15801561145557600080fd5b505af4158015611469573d6000803e3d6000fd5b505050506040513d601f19601f8201168201806040525081019061148d9190613984565b6040517f76e455e1000000000000000000000000000000000000000000000000000000008152739aCda89A5C672c5f74bf71C723D9fAad285167C2906376e455e1906114e0906000908f906004016140d9565b60206040518083038186803b1580156114f857600080fd5b505af415801561150c573d6000803e3d6000fd5b505050506040513d601f19601f820116820180604052508101906115309190613440565b601954949c939b5091995097509550909350915050565b6040517f80ca2ba6000000000000000000000000000000000000000000000000000000008152739aCda89A5C672c5f74bf71C723D9fAad285167C2906380ca2ba69061105e906000908690869060040161415e565b6011546301000000900460ff1690565b3360009081526024602052604090205460ff161515600114806115d957506002546001600160a01b031633145b806115e357503033145b6115ff5760405162461bcd60e51b8152600401610f4190613e6a565b610ed76027826131a3565b3360009081526024602052604090205460ff1615156001148061163757506002546001600160a01b031633145b8061164157503033145b61165d5760405162461bcd60e51b8152600401610f4190613e6a565b60118054911515610100027fffffffffffffffffffffffffffffffffffffffffffffffffffffffffffff00ff909216919091179055565b60006116a0602761322f565b905090565b601154610100900460ff1690565b601a5490565b60115460ff1690565b6000610e80602783613236565b6040517fe5fca79a000000000000000000000000000000000000000000000000000000008152739aCda89A5C672c5f74bf71C723D9fAad285167C29063e5fca79a90611726906000903390349087906004016140b5565b60006040518083038186803b15801561173e57600080fd5b505af4158015611752573d6000803e3d6000fd5b5050505050565b6040517fafeafd9a000000000000000000000000000000000000000000000000000000008152739aCda89A5C672c5f74bf71C723D9fAad285167C29063afeafd9a906117b0906000908790879087906004016140b5565b60006040518083038186803b1580156117c857600080fd5b505af41580156117dc573d6000803e3d6000fd5b50505050505050565b3360009081526024602052604090205460ff1615156001148061181257506002546001600160a01b031633145b8061181c57503033145b6118385760405162461bcd60e51b8152600401610f4190613e6a565b6040517f92bcae90000000000000000000000000000000000000000000000000000000008152739aCda89A5C672c5f74bf71C723D9fAad285167C2906392bcae9090611897906000908b908b908b908b908b908b908b9060040161405f565b60006040518083038186803b1580156118af57600080fd5b505af41580156118c3573d6000803e3d6000fd5b5050505050505050505050565b6040517f80ca2ba6000000000000000000000000000000000000000000000000000000008152739aCda89A5C672c5f74bf71C723D9fAad285167C2906380ca2ba69061172690600090859060019060040161415e565b60606000600901805461193890614283565b80601f016020809104026020016040519081016040528092919081815260200182805461196490614283565b80156119b15780601f10611986576101008083540402835291602001916119b1565b820191906000526020600020905b81548152906001019060200180831161199457829003601f168201915b5050505050905090565b3360009081526024602052604090205460ff161515600114806119e857506002546001600160a01b031633145b806119f257503033145b611a0e5760405162461bcd60e51b8152600401610f4190613e6a565b506011805460ff19166001179055565b606060006017018054806020026020016040519081016040528092919081815260200182805480156119b157602002820191906000526020600020905b815481526020019060010190808311611a5b575050505050905090565b60009081526013602052604090205490565b6040517fecd5244e000000000000000000000000000000000000000000000000000000008152600090739aCda89A5C672c5f74bf71C723D9fAad285167C29063ecd5244e90610fb990849086906004016140d9565b60009081526021602052604090205490565b6040517f48126f4b000000000000000000000000000000000000000000000000000000008152739aCda89A5C672c5f74bf71C723D9fAad285167C2906348126f4b9061105e9060009086908690600401614146565b6040517f164cd8c2000000000000000000000000000000000000000000000000000000008152600090739aCda89A5C672c5f74bf71C723D9fAad285167C29063164cd8c290611b99908490600401614037565b60206040518083038186803b158015611bb157600080fd5b505af4158015611bc5573d6000803e3d6000fd5b505050506040513d601f19601f820116820180604052508101906116a09190613984565b3360009081526024602052604090205460ff16151560011480611c1657506002546001600160a01b031633145b80611c2057503033145b611c3c5760405162461bcd60e51b8152600401610f4190613e6a565b610ed760278261303d565b3360009081526024602052604090205460ff16151560011480611c7457506002546001600160a01b031633145b80611c7e57503033145b611c9a5760405162461bcd60e51b8152600401610f4190613e6a565b8051611cad906009906020840190613277565b5050565b336000908152602460205260409020805460ff191660011790556003805473ffffffffffffffffffffffffffffffffffffffff19166001600160a01b0392909216919091179055565b6040517fdc1f0f53000000000000000000000000000000000000000000000000000000008152600090739aCda89A5C672c5f74bf71C723D9fAad285167C29063dc1f0f5390610fb990849086906004016140d9565b60606000600701805461193890614283565b60195490565b3360009081526024602052604090205460ff16151560011480611d8957503033145b611da55760405162461bcd60e51b8152600401610f4190613e6a565b6001600160a01b03166000908152602460205260409020805460ff19166001179055565b6040517fb94677da000000000000000000000000000000000000000000000000000000008152600090739aCda89A5C672c5f74bf71C723D9fAad285167C29063b94677da90610fb990849086906004016140d9565b60065460ff1690565b600f5490565b60008211611e4d5760405162461bcd60e51b8152600401610f4190613f35565b6001600160a01b038416611e735760405162461bcd60e51b8152600401610f4190613fa3565b6001600160a01b038316611e995760405162461bcd60e51b8152600401610f4190613dc5565b6001600160a01b038116611ebf5760405162461bcd60e51b8152600401610f4190613dfc565b611eca601584612fce565b1515600114611eeb5760405162461bcd60e51b8152600401610f4190613efe565b600082815260208052604090205460ff1615611f195760405162461bcd60e51b8152600401610f4190613ec7565b6000846001600160a01b03166395d89b416040518163ffffffff1660e01b815260040160006040518083038186803b158015611f5457600080fd5b505afa158015611f68573d6000803e3d6000fd5b505050506040513d6000823e601f3d908101601f19168201604052611f909190810190613853565b604051602001611fa09190613a89565b60408051601f198184030181529082905280516020918201209250600091611fcb9160079101613aa5565b6040516020818303038152906040528051906020012090508082146120025760405162461bcd60e51b8152600401610f4190613e33565b6040517fe6c3b1f60000000000000000000000000000000000000000000000000000000081526000906001600160a01b0388169063e6c3b1f69061204a908890600401614037565b60206040518083038186803b15801561206257600080fd5b505afa158015612076573d6000803e3d6000fd5b505050506040513d601f19601f8201168201806040525081019061209a9190613804565b905060028160028111156120be57634e487b7160e01b600052602160045260246000fd5b146120db5760405162461bcd60e51b8152600401610f4190613f6c565b6040517efdd58e0000000000000000000000000000000000000000000000000000000081526000906001600160a01b0388169062fdd58e906121239088908a90600401613bc6565b60206040518083038186803b15801561213b57600080fd5b505afa15801561214f573d6000803e3d6000fd5b505050506040513d601f19601f820116820180604052508101906121739190613984565b90506000886001600160a01b0316637dcb0e5f886040518263ffffffff1660e01b81526004016121a39190614037565b60206040518083038186803b1580156121bb57600080fd5b505afa1580156121cf573d6000803e3d6000fd5b505050506040513d601f19601f820116820180604052508101906121f39190613984565b905081156123a2576001546040517f156e29f60000000000000000000000000000000000000000000000000000000081526001600160a01b039091169063156e29f6906122489089908b908790600401613bdf565b600060405180830381600087803b15801561226257600080fd5b505af1158015612276573d6000803e3d6000fd5b50506001546040517f7c8810760000000000000000000000000000000000000000000000000000000081526001600160a01b039091169250637c88107691506122c8908a906002903090600401614174565b600060405180830381600087803b1580156122e257600080fd5b505af11580156122f6573d6000803e3d6000fd5b50505060008881526012602090815260408083208054600260ff19918216179091556013835281842086905560148352818420805473ffffffffffffffffffffffffffffffffffffffff19166001600160a01b038f16179055918052918290208054909116600117905551889150309033907ff5b54e798ff7f434ed773aa633e6a9f82ef9ae465e46042e1983f29bf1fd69ea90612399908e908e908990613ba2565b60405180910390a45b505050505050505050565b6001600160a01b031660009081526024602052604090205460ff1690565b6040517f33c13e0d000000000000000000000000000000000000000000000000000000008152600090739aCda89A5C672c5f74bf71C723D9fAad285167C2906333c13e0d90611b99908490600401614037565b7fbc197c810000000000000000000000000000000000000000000000000000000095945050505050565b336000908152602460205260409020805460ff191660011790556002805473ffffffffffffffffffffffffffffffffffffffff19166001600160a01b0392909216919091179055565b503090565b3360009081526024602052604090205460ff161515600114806124c357506002546001600160a01b031633145b806124cd57503033145b6124e95760405162461bcd60e51b8152600401610f4190613e6a565b601180548291907fffffffffffffffffffffffffffffffffffffffffffffffffffffffff00ffffff16630100000083600281111561253757634e487b7160e01b600052602160045260246000fd5b021790555050565b6040517f76e455e1000000000000000000000000000000000000000000000000000000008152600090739aCda89A5C672c5f74bf71C723D9fAad285167C2906376e455e19061259490849086906004016140d9565b60206040518083038186803b1580156125ac57600080fd5b505af41580156125c0573d6000803e3d6000fd5b505050506040513d601f19601f82011682018060405250810190610e809190613440565b3360009081526024602052604090205460ff1615156001148061261157506002546001600160a01b031633145b8061261b57503033145b6126375760405162461bcd60e51b8152600401610f4190613e6a565b601055565b60185490565b3360009081526024602052604090205460ff1615156001148061266f57506002546001600160a01b031633145b8061267957503033145b6126955760405162461bcd60e51b8152600401610f4190613e6a565b8051611cad9060179060208401906132fb565b336000908152602460205260409020805460ff191660011790556001805473ffffffffffffffffffffffffffffffffffffffff19166001600160a01b0392909216919091179055565b600080601701828154811061271657634e487b7160e01b600052603260045260246000fd5b90600052602060002001549050919050565b6040517f828c7b72000000000000000000000000000000000000000000000000000000008152600090739aCda89A5C672c5f74bf71C723D9fAad285167C29063828c7b7290611b99908490600401614037565b3360009081526024602052604090205460ff161515600114806127a857506002546001600160a01b031633145b806127b257503033145b6127ce5760405162461bcd60e51b8152600401610f4190613e6a565b6006805460ff1916911515919091179055565b336000908152602460205260409020805460ff191660011790556004805473ffffffffffffffffffffffffffffffffffffffff19166001600160a01b0392909216919091179055565b600654601954601854601a546040517f164cd8c2000000000000000000000000000000000000000000000000000000008152600094859485948594859485948594859460ff909216939092739aCda89A5C672c5f74bf71C723D9fAad285167C29063164cd8c29061289f908890600401614037565b60206040518083038186803b1580156128b757600080fd5b505af41580156128cb573d6000803e3d6000fd5b505050506040513d601f19601f820116820180604052508101906128ef9190613984565b6040517f33c13e0d000000000000000000000000000000000000000000000000000000008152739aCda89A5C672c5f74bf71C723D9fAad285167C2906333c13e0d9061294090600090600401614037565b60206040518083038186803b15801561295857600080fd5b505af415801561296c573d6000803e3d6000fd5b505050506040513d601f19601f820116820180604052508101906129909190613984565b601954601854969f959e50939c50919a509850965094509092509050565b3360009081526024602052604090205460ff161515600114806129db57506002546001600160a01b031633145b806129e557503033145b612a015760405162461bcd60e51b8152600401610f4190613e6a565b6000805473ffffffffffffffffffffffffffffffffffffffff1916301790558751612a339060079060208b0190613277565b508651612a479060089060208a0190613277565b50600a869055600b859055600c849055600d839055600e8290556006805460ff191660011790556011805462ff00001916620100001790556001600160a01b03811615612a9957612a996027826131a3565b5050505050505050565b60608060606000806000806000806000806000600701600060080160006009016000600501546000600a01546000600b01546000600c01546000600d01546000600e01546000600f01546000601001548a8054612aff90614283565b80601f0160208091040260200160405190810160405280929190818152602001828054612b2b90614283565b8015612b785780601f10612b4d57610100808354040283529160200191612b78565b820191906000526020600020905b815481529060010190602001808311612b5b57829003601f168201915b50505050509a50898054612b8b90614283565b80601f0160208091040260200160405190810160405280929190818152602001828054612bb790614283565b8015612c045780601f10612bd957610100808354040283529160200191612c04565b820191906000526020600020905b815481529060010190602001808311612be757829003601f168201915b50505050509950888054612c1790614283565b80601f0160208091040260200160405190810160405280929190818152602001828054612c4390614283565b8015612c905780601f10612c6557610100808354040283529160200191612c90565b820191906000526020600020905b815481529060010190602001808311612c7357829003601f168201915b505050505098509a509a509a509a509a509a509a509a509a509a509a50909192939495969798999a565b3360009081526024602052604090205460ff16151560011480612cdc57503033145b612cf85760405162461bcd60e51b8152600401610f4190613e6a565b336000908152602460205260409020805460ff19169055565b3360009081526024602052604090205460ff16151560011480612d3e57506002546001600160a01b031633145b80612d4857503033145b612d645760405162461bcd60e51b8152600401610f4190613e6a565b600555565b60009081526012602052604090205460ff1690565b6040517fafeafd9a000000000000000000000000000000000000000000000000000000008152739aCda89A5C672c5f74bf71C723D9fAad285167C29063afeafd9a9061105e90600090869086906001906004016140b5565b60055490565b7ff23a6e610000000000000000000000000000000000000000000000000000000095945050505050565b60175490565b6016805460408051602080840282018101909252828152606093909290918301828280156119b157602002820191906000526020600020905b81546001600160a01b03168152600190910190602001808311612e45575050505050905090565b600080600080600080600080739aCda89A5C672c5f74bf71C723D9fAad285167C2635b68e93c90918a6040518363ffffffff1660e01b8152600401612eb29291906140d9565b60e06040518083038186803b158015612eca57600080fd5b505af4158015612ede573d6000803e3d6000fd5b505050506040513d601f19601f82011682018060405250810190612f0291906135c1565b959e949d50929b5090995097509550909350915050565b6000610e80602783612fce565b3360009081526024602052604090205460ff16151560011480612f5357506002546001600160a01b031633145b80612f5d57503033145b612f795760405162461bcd60e51b8152600401610f4190613e6a565b600f55565b600a5490565b7fffffffff0000000000000000000000000000000000000000000000000000000081167f01ffc9a70000000000000000000000000000000000000000000000000000000014919050565b6001820154600090612fe257506000610e80565b6001600160a01b038216600081815260208590526040902054600185018054909190811061302057634e487b7160e01b600052603260045260246000fd5b6000918252602090912001546001600160a01b0316149392505050565b6130478282612fce565b61305057611cad565b6000600161305d8461322f565b6130679190614230565b6001600160a01b03831660009081526020859052604090205490915080821461312e5760008460010183815481106130af57634e487b7160e01b600052603260045260246000fd5b60009182526020808320909101546001600160a01b03168083529087905260409091208390556001860180549192508291849081106130fe57634e487b7160e01b600052603260045260246000fd5b9060005260206000200160006101000a8154816001600160a01b0302191690836001600160a01b03160217905550505b6001600160a01b03831660009081526020859052604081205560018085018054909161315991614230565b8154811061317757634e487b7160e01b600052603260045260246000fd5b6000918252602090912001805473ffffffffffffffffffffffffffffffffffffffff1916905550505050565b6131ad8282612fce565b156131ca5760405162461bcd60e51b8152600401610f4190613fda565b60018281018054808301825560008281526020902001805473ffffffffffffffffffffffffffffffffffffffff19166001600160a01b038516179055546132119190614230565b6001600160a01b039091166000908152602092909252604090912055565b6001015490565b600082600101828154811061325b57634e487b7160e01b600052603260045260246000fd5b6000918252602090912001546001600160a01b03169392505050565b82805461328390614283565b90600052602060002090601f0160209004810192826132a557600085556132eb565b82601f106132be57805160ff19168380011785556132eb565b828001600101855582156132eb579182015b828111156132eb5782518255916020019190600101906132d0565b506132f7929150613335565b5090565b8280548282559060005260206000209081019282156132eb57916020028201828111156132eb5782518255916020019190600101906132d0565b5b808211156132f75760008155600101613336565b600082601f83011261335a578081fd5b8135602067ffffffffffffffff821115613376576133766142be565b8082026133848282016141d2565b83815282810190868401838801850189101561339e578687fd5b8693505b858410156133c05780358352600193909301929184019184016133a2565b50979650505050505050565b600082601f8301126133dc578081fd5b81356133ef6133ea826141fc565b6141d2565b818152846020838601011115613403578283fd5b816020850160208301379081016020019190915292915050565b60006020828403121561342e578081fd5b8135613439816142f2565b9392505050565b600060208284031215613451578081fd5b8151613439816142f2565b6000806040838503121561346e578081fd5b8235613479816142f2565b91506020830135613489816142f2565b809150509250929050565b600080600080600060a086880312156134ab578081fd5b85356134b6816142f2565b945060208601356134c6816142f2565b9350604086013567ffffffffffffffff808211156134e2578283fd5b6134ee89838a0161334a565b94506060880135915080821115613503578283fd5b61350f89838a0161334a565b93506080880135915080821115613524578283fd5b50613531888289016133cc565b9150509295509295909350565b600080600080600080600060e0888a031215613558578182fd5b8735613563816142f2565b96506020880135613573816142f2565b9550604088013561358381614315565b9450606088013593506080880135925060a08801356135a181614307565b915060c08801356135b181614307565b8091505092959891949750929550565b600080600080600080600060e0888a0312156135db578081fd5b87516135e6816142f2565b60208901519097506135f7816142f2565b604089015190965061360881614315565b80955050606088015193506080880151925060a088015161362881614307565b60c08901519092506135b181614307565b6000806000806080858703121561364e578182fd5b8435613659816142f2565b93506020850135613669816142f2565b9250604085013591506060850135613680816142f2565b939692955090935050565b600080600080600060a086880312156136a2578283fd5b85356136ad816142f2565b945060208601356136bd816142f2565b93506040860135925060608601359150608086013567ffffffffffffffff8111156136e6578182fd5b613531888289016133cc565b60008060408385031215613704578182fd5b823561370f816142f2565b946020939093013593505050565b600080600060608486031215613731578081fd5b833561373c816142f2565b95602085013595506040909401359392505050565b600060208284031215613762578081fd5b813567ffffffffffffffff811115613778578182fd5b6137848482850161334a565b949350505050565b60006020828403121561379d578081fd5b813561343981614307565b6000602082840312156137b9578081fd5b81357fffffffff0000000000000000000000000000000000000000000000000000000081168114613439578182fd5b6000602082840312156137f9578081fd5b813561343981614315565b600060208284031215613815578081fd5b815161343981614315565b600060208284031215613831578081fd5b813567ffffffffffffffff811115613847578182fd5b613784848285016133cc565b600060208284031215613864578081fd5b815167ffffffffffffffff81111561387a578182fd5b8201601f8101841361388a578182fd5b80516138986133ea826141fc565b8181528560208385010111156138ac578384fd5b6138bd826020830160208601614253565b95945050505050565b600080600080600080600080610100898b0312156138e2578182fd5b883567ffffffffffffffff808211156138f9578384fd5b6139058c838d016133cc565b995060208b013591508082111561391a578384fd5b506139278b828c016133cc565b97505060408901359550606089013594506080890135935060a0890135925060c0890135915060e089013561395b816142f2565b809150509295985092959890939650565b60006020828403121561397d578081fd5b5035919050565b600060208284031215613995578081fd5b5051919050565b600080600080600080600080610100898b0312156139b8578182fd5b8835975060208901356139ca816142f2565b965060408901356139da816142f2565b955060608901356139ea81614315565b94506080890135935060a0890135925060c0890135613a0881614307565b915060e089013561395b81614307565b60008060408385031215613a2a578182fd5b82359150602083013561348981614307565b60008060408385031215613a4e578182fd5b50508035926020909101359150565b60008151808452613a75816020860160208601614253565b601f01601f19169290920160200192915050565b60008251613a9b818460208701614253565b9190910192915050565b8154600090819060028104600180831680613ac157607f831692505b6020808410821415613ae157634e487b7160e01b87526022600452602487fd5b818015613af55760018114613b0657613b32565b60ff19861689528489019650613b32565b613b0f8a614224565b885b86811015613b2a5781548b820152908501908301613b11565b505084890196505b509498975050505050505050565b6001600160a01b0391909116815260200190565b6001600160a01b0388811682528716602082015260e08101613b75876142d4565b604082019690965260608101949094526080840192909252151560a0830152151560c09091015292915050565b6001600160a01b039384168152919092166020820152604081019190915260600190565b6001600160a01b03929092168252602082015260400190565b6001600160a01b039390931683526020830191909152604082015260600190565b6020808252825182820181905260009190848201906040850190845b81811015613c415783516001600160a01b031683529284019291840191600101613c1c565b50909695505050505050565b6020808252825182820181905260009190848201906040850190845b81811015613c4157835183529284019291840191600101613c69565b901515815260200190565b9715158852602088019690965260408701949094526060860192909252608085015260a084015260c083015260e08201526101000190565b7fffffffff0000000000000000000000000000000000000000000000000000000091909116815260200190565b60208101613d02836142d4565b91905290565b60608101613d15856142d4565b93815260208101929092526001600160a01b031660409091015290565b6000602082526134396020830184613a5d565b6000610160808352613d598184018f613a5d565b90508281036020840152613d6d818e613a5d565b90508281036040840152613d81818d613a5d565b606084019b909b525050608081019790975260a087019590955260c086019390935260e0850191909152610100840152610120830152610140909101529392505050565b6020808252600d908201527f494e56414c49445f544f4b454e00000000000000000000000000000000000000604082015260600190565b60208082526011908201527f494e56414c49445f524543495049454e54000000000000000000000000000000604082015260600190565b60208082526010908201527f494e56414c49445f504f4f4c4841534800000000000000000000000000000000604082015260600190565b60208082526028908201527f436f6e74726f6c6c61626c653a2063616c6c6572206973206e6f74206120636f60408201527f6e74726f6c6c6572000000000000000000000000000000000000000000000000606082015260800190565b60208082526010908201527f414c52454144595f494d504f5254454400000000000000000000000000000000604082015260600190565b60208082526013908201527f494e56414c49445f544f4b454e534f5552434500000000000000000000000000604082015260600190565b60208082526011908201527f494e56414c49445f544f4b454e48415348000000000000000000000000000000604082015260600190565b60208082526011908201527f494e56414c49445f544f4b454e54595045000000000000000000000000000000604082015260600190565b6020808252600c908201527f494e56414c49445f504f4f4c0000000000000000000000000000000000000000604082015260600190565b6020808252602a908201527f416464726573735365743a206b657920616c726561647920657869737473206960408201527f6e20746865207365742e00000000000000000000000000000000000000000000606082015260800190565b90815260200190565b9283526001600160a01b03918216602084015216604082015260600190565b8881526001600160a01b038881166020830152871660408201526101008101614087876142d4565b6060820196909652608081019490945260a0840192909252151560c0830152151560e0909101529392505050565b9384526001600160a01b039290921660208401526040830152606082015260800190565b918252602082015260400190565b898152602081018990526001600160a01b038881166040830152871660608201526101208101614116876142d4565b608082019690965260a081019490945260c0840192909252151560e0830152151561010090910152949350505050565b92835260208301919091521515604082015260600190565b9283526020830191909152604082015260600190565b83815260608101614184846142d4565b8360208301526001600160a01b0383166040830152949350505050565b9586526020860194909452604085019290925260608401526001600160a01b0316608083015260a082015260c00190565b60405181810167ffffffffffffffff811182821017156141f4576141f46142be565b604052919050565b600067ffffffffffffffff821115614216576142166142be565b50601f01601f191660200190565b60009081526020902090565b60008282101561424e57634e487b7160e01b81526011600452602481fd5b500390565b60005b8381101561426e578181015183820152602001614256565b8381111561427d576000848401525b50505050565b60028104600182168061429757607f821691505b602082108114156142b857634e487b7160e01b600052602260045260246000fd5b50919050565b634e487b7160e01b600052604160045260246000fd5b60038110610ed757634e487b7160e01b600052602160045260246000fd5b6001600160a01b0381168114610ed757600080fd5b8015158114610ed757600080fd5b60038110610ed757600080fdfea2646970667358221220de6515d341742de6a4b569a6206dc3e77a3c3360a66e40023742dbd629e9d39764736f6c63430008000033a26469706673582212205b2ec7275df8f099d3361135d87e509a82794b2eb22f4e5267a12d145a25c05564736f6c63430008000033",
  "deployedBytecode": "0x608060405234801561001057600080fd5b506004361061007d5760003560e01c80634ff8f07e1161005b5780634ff8f07e146100d35780635e6fe72a146100e657806367275aed146100fb578063e4aa923d1461010e5761007d565b80630311949d146100825780631ff77f16146100ab5780632b69fa10146100be575b600080fd5b61009561009036600461079f565b610121565b6040516100a29190610974565b60405180910390f35b6100956100b9366004610914565b610240565b6100c6610297565b6040516100a29190610988565b6100956100e1366004610872565b6102f9565b6100ee610532565b6040516100a29190610be6565b610095610109366004610914565b610538565b61009561011c366004610810565b610553565b600080836040516020016101359190610958565b60408051601f1981840301815291815281516020928301206000818152928390529120549091506001600160a01b03161561018b5760405162461bcd60e51b815260040161018290610b41565b60405180910390fd5b60008181526020819052604080822080546001600160a01b03891673ffffffffffffffffffffffffffffffffffffffff19918216811790925560018054808201825594527fb10e2d527612073b26eecdfd717e6a320cf44b4afac2b0732d9fcbe2b7fa0cf690930180549093168117909255518693507f88b481e2ff8032de76e27f322db4a8824d7d3aecd68d626a331dc739208571469061023090879087906109d5565b60405180910390a2509392505050565b60006001828154811061027c577f4e487b7100000000000000000000000000000000000000000000000000000000600052603260045260246000fd5b6000918252602090912001546001600160a01b031692915050565b606060018054806020026020016040519081016040528092919081815260200182805480156102ef57602002820191906000526020600020905b81546001600160a01b031681526001909101906020018083116102d1575b5050505050905090565b6000808960405160200161030d9190610958565b60408051601f1981840301815291815281516020928301206000818152928390529120549091506001600160a01b03161561035a5760405162461bcd60e51b815260040161018290610b41565b876103775760405162461bcd60e51b815260040161018290610a9c565b866103945760405162461bcd60e51b815260040161018290610b78565b846103b15760405162461bcd60e51b815260040161018290610ad3565b6000604051806020016103c3906106e0565b601f1982820381018352601f9091011660405290506103e460008383610666565b6040517fd9a3f9bb0000000000000000000000000000000000000000000000000000000081529093506001600160a01b0384169063d9a3f9bb9061043a908e908e908e908e908e908e908e908e90600401610a03565b600060405180830381600087803b15801561045457600080fd5b505af1158015610468573d6000803e3d6000fd5b50505060008381526020819052604080822080546001600160a01b03881673ffffffffffffffffffffffffffffffffffffffff19918216811790925560018054808201825594527fb10e2d527612073b26eecdfd717e6a320cf44b4afac2b0732d9fcbe2b7fa0cf690930180549093168117909255519091507f39edc680fea25684123932cc30f03ee17ba6966438526d7569cc7d6bb4e762e69061051c908e908e908e908e908e908e908e908e90610a03565b60405180910390a2505098975050505050505050565b60015490565b6000908152602081905260409020546001600160a01b031690565b600080836040516020016105679190610958565b60408051601f1981840301815291815281516020928301206000818152928390529120549091506001600160a01b0316156105b45760405162461bcd60e51b815260040161018290610b41565b6105c060008287610666565b60008281526020819052604080822080546001600160a01b03851673ffffffffffffffffffffffffffffffffffffffff19918216811790925560018054808201825594527fb10e2d527612073b26eecdfd717e6a320cf44b4afac2b0732d9fcbe2b7fa0cf69093018054909316811790925551919350907f88b481e2ff8032de76e27f322db4a8824d7d3aecd68d626a331dc739208571469061023090879087906109d5565b600080844710156106895760405162461bcd60e51b815260040161018290610baf565b82516106a75760405162461bcd60e51b815260040161018290610a67565b8383516020850187f590506001600160a01b0381166106d85760405162461bcd60e51b815260040161018290610b0a565b949350505050565b6143b180610c4f83390190565b600067ffffffffffffffff8084111561070857610708610c1f565b6040516020601f19601f870116820101818110838211171561072c5761072c610c1f565b60405284815291508183850186101561074457600080fd5b8484602083013760006020868301015250509392505050565b80356001600160a01b038116811461077457600080fd5b919050565b600082601f830112610789578081fd5b610798838335602085016106ed565b9392505050565b6000806000606084860312156107b3578283fd5b6107bc8461075d565b9250602084013567ffffffffffffffff808211156107d8578384fd5b6107e487838801610779565b935060408601359150808211156107f9578283fd5b5061080686828701610779565b9150509250925092565b600080600060608486031215610824578283fd5b833567ffffffffffffffff8082111561083b578485fd5b818601915086601f83011261084e578485fd5b61085d878335602085016106ed565b945060208601359150808211156107d8578384fd5b600080600080600080600080610100898b03121561088e578384fd5b883567ffffffffffffffff808211156108a5578586fd5b6108b18c838d01610779565b995060208b01359150808211156108c6578586fd5b506108d38b828c01610779565b97505060408901359550606089013594506080890135935060a0890135925060c0890135915061090560e08a0161075d565b90509295985092959890939650565b600060208284031215610925578081fd5b5035919050565b60008151808452610944816020860160208601610bef565b601f01601f19169290920160200192915050565b6000825161096a818460208701610bef565b9190910192915050565b6001600160a01b0391909116815260200190565b6020808252825182820181905260009190848201906040850190845b818110156109c95783516001600160a01b0316835292840192918401916001016109a4565b50909695505050505050565b6000604082526109e8604083018561092c565b82810360208401526109fa818561092c565b95945050505050565b6000610100808352610a178184018c61092c565b90508281036020840152610a2b818b61092c565b604084019990995250506060810195909552608085019390935260a084019190915260c08301526001600160a01b031660e09091015292915050565b6020808252818101527f437265617465323a2062797465636f6465206c656e677468206973207a65726f604082015260600190565b6020808252600d908201527f494e56414c49445f505249434500000000000000000000000000000000000000604082015260600190565b60208082526017908201527f494e56414c49445f444946464943554c54595f53544550000000000000000000604082015260600190565b60208082526019908201527f437265617465323a204661696c6564206f6e206465706c6f7900000000000000604082015260600190565b6020808252600e908201527f47454d504f4f4c5f455849535453000000000000000000000000000000000000604082015260600190565b60208082526010908201527f494e56414c49445f4d494e5f54494d4500000000000000000000000000000000604082015260600190565b6020808252601d908201527f437265617465323a20696e73756666696369656e742062616c616e6365000000604082015260600190565b90815260200190565b60005b83811015610c0a578181015183820152602001610bf2565b83811115610c19576000848401525b50505050565b7f4e487b7100000000000000000000000000000000000000000000000000000000600052604160045260246000fdfe608060405234801561001057600080fd5b50336000818152602460205260408082208054600160ff1991821681178355328552928420805482168417905593835280549093161790915561435890819061005990396000f3fe6080604052600436106105225760003560e01c806395d89b41116102af578063d104f8f511610179578063e6c3b1f6116100d6578063f8d1e9301161008a578063f9eaee0d1161006f578063f9eaee0d14610dd5578063fd31a0a514610df5578063ff186b2e14610e1557610522565b8063f8d1e93014610d80578063f9c9c27614610da257610522565b8063ef430aa6116100bb578063ef430aa614610d36578063f23a6e6114610d4b578063f4fde0d314610d6b57610522565b8063e6c3b1f614610cf6578063edcf2d5714610d1657610522565b8063d80528ae1161012d578063e06174e411610112578063e06174e414610c95578063e1c28bef14610cc1578063e5d2ce2f14610cd657610522565b8063d80528ae14610c4c578063d9a3f9bb14610c7557610522565b8063d3d083971161015e578063d3d0839714610bf7578063d43e646014610c0c578063d73cd47f14610c2c57610522565b8063d104f8f514610bb7578063d31674db14610bd757610522565b8063bc197c8111610227578063c5e01a5c116101db578063c80c0613116101c0578063c80c061314610b82578063cdc8a8ab14610b97578063cf721b1514610b8257610522565b8063c5e01a5c14610b42578063c65eff9614610b6257610522565b8063c42cf5351161020c578063c42cf53514610ae2578063c455279114610b02578063c54a924214610b2257610522565b8063bc197c8114610ab5578063c08fa1a4146109e157610522565b8063af6a6d791161027e578063b3947a9411610263578063b3947a9414610a60578063b429afeb14610a80578063b788e4e914610aa057610522565b8063af6a6d7914610a36578063b385a50a14610a4b57610522565b806395d89b41146109cc578063a0021cf1146109e1578063a7fc7a07146109f6578063a901c47414610a1657610522565b8063504cdacf116103f05780637c07bc7a116103685780638a09871b1161031c57806390c3f38f1161030157806390c3f38f1461096c5780639277a1851461098c57806395935560146109ac57610522565b80638a09871b1461093757806390469a9d1461094c57610522565b80637f2e8f0c1161034d5780637f2e8f0c146108d757806382977551146108f7578063870114f61461091757610522565b80637c07bc7a146108955780637dcb0e5f146108b757610522565b80636100c343116103bf5780636b6201da116103a45780636b6201da146108405780637284e416146108535780637ae7815d1461087557610522565b80636100c3431461080057806368127a8e1461082057610522565b8063504cdacf146107965780635d2e0dd4146107ab5780635e5f2e26146107c05780635fb93091146107ed57610522565b806327c10f561161049e578063407dff161161045257806344f0877c1161043757806344f0877c1461074c5780634565e5ef1461076c5780634e04cdc71461078157610522565b8063407dff161461070a5780634178617f1461072c57610522565b8063336b9efb11610483578063336b9efb146106b0578063379607f5146106c5578063392732b1146106f757610522565b806327c10f5614610670578063328d8f721461069057610522565b80632360cf5e116104f557806323b221a0116104da57806323b221a0146106035780632449ef511461063057806326ff31521461065057610522565b80632360cf5e146105ce578063238dafe0146105ee57610522565b806301ffc9a714610527578063044215c61461055d5780631284650d1461058c57806315523ab9146105ae575b600080fd5b34801561053357600080fd5b506105476105423660046137a8565b610e2a565b6040516105549190613c85565b60405180910390f35b34801561056957600080fd5b5061057d61057836600461396c565b610e86565b60405161055493929190613d08565b34801561059857600080fd5b506105ac6105a736600461341d565b610ebc565b005b3480156105ba57600080fd5b506105476105c936600461396c565b610eda565b3480156105da57600080fd5b506105ac6105e9366004613a3c565b610eee565b3480156105fa57600080fd5b50610547610f55565b34801561060f57600080fd5b5061062361061e36600461396c565b610f64565b6040516105549190614037565b34801561063c57600080fd5b506105ac61064b36600461345c565b611009565b34801561065c57600080fd5b506105ac61066b36600461341d565b611092565b34801561067c57600080fd5b506105ac61068b36600461399c565b6110ac565b34801561069c57600080fd5b506105ac6106ab36600461378c565b61119a565b3480156106bc57600080fd5b50610623611209565b3480156106d157600080fd5b506106e56106e036600461396c565b61120f565b604051610554969594939291906141a1565b6105ac610705366004613a3c565b611547565b34801561071657600080fd5b5061071f61159c565b6040516105549190613cf5565b34801561073857600080fd5b506105ac61074736600461341d565b6115ac565b34801561075857600080fd5b506105ac61076736600461378c565b61160a565b34801561077857600080fd5b50610623611694565b34801561078d57600080fd5b506105476116a5565b3480156107a257600080fd5b506106236116b3565b3480156107b757600080fd5b506105476116b9565b3480156107cc57600080fd5b506107e06107db36600461396c565b6116c2565b6040516105549190613b40565b6105ac6107fb36600461396c565b6116cf565b34801561080c57600080fd5b506105ac61081b36600461371d565b611759565b34801561082c57600080fd5b506105ac61083b36600461353e565b6117e5565b6105ac61084e36600461396c565b6118d0565b34801561085f57600080fd5b50610868611926565b6040516105549190613d32565b34801561088157600080fd5b506105ac61089036600461378c565b6119bb565b3480156108a157600080fd5b506108aa611a1e565b6040516105549190613c4d565b3480156108c357600080fd5b506106236108d236600461396c565b611a78565b3480156108e357600080fd5b506106236108f236600461396c565b611a8a565b34801561090357600080fd5b5061062361091236600461396c565b611adf565b34801561092357600080fd5b506105ac610932366004613a18565b611af1565b34801561094357600080fd5b50610623611b46565b34801561095857600080fd5b506105ac61096736600461341d565b611be9565b34801561097857600080fd5b506105ac610987366004613820565b611c47565b34801561099857600080fd5b506105ac6109a736600461341d565b611cb1565b3480156109b857600080fd5b506106236109c736600461396c565b611cfa565b3480156109d857600080fd5b50610868611d4f565b3480156109ed57600080fd5b50610623611d61565b348015610a0257600080fd5b506105ac610a1136600461341d565b611d67565b348015610a2257600080fd5b50610623610a3136600461396c565b611dc9565b348015610a4257600080fd5b50610547611e1e565b348015610a5757600080fd5b50610623611e27565b348015610a6c57600080fd5b506105ac610a7b366004613639565b611e2d565b348015610a8c57600080fd5b50610547610a9b36600461341d565b6123ad565b348015610aac57600080fd5b506106236123cb565b348015610ac157600080fd5b50610ad5610ad0366004613494565b61241e565b6040516105549190613cc8565b348015610aee57600080fd5b506105ac610afd36600461341d565b612448565b348015610b0e57600080fd5b506107e0610b1d36600461341d565b612491565b348015610b2e57600080fd5b506105ac610b3d3660046137e8565b612496565b348015610b4e57600080fd5b506107e0610b5d36600461396c565b61253f565b348015610b6e57600080fd5b506105ac610b7d36600461396c565b6125e4565b348015610b8e57600080fd5b5061062361263c565b348015610ba357600080fd5b506105ac610bb2366004613751565b612642565b348015610bc357600080fd5b506105ac610bd236600461341d565b6126a8565b348015610be357600080fd5b50610623610bf236600461396c565b6126f1565b348015610c0357600080fd5b50610623612728565b348015610c1857600080fd5b506105ac610c2736600461378c565b61277b565b348015610c3857600080fd5b506105ac610c4736600461341d565b6127e1565b348015610c5857600080fd5b50610c6161282a565b604051610554989796959493929190613c90565b348015610c8157600080fd5b506105ac610c903660046138c6565b6129ae565b348015610ca157600080fd5b50610caa612aa3565b6040516105549b9a99989796959493929190613d45565b348015610ccd57600080fd5b506105ac612cba565b348015610ce257600080fd5b506105ac610cf136600461396c565b612d11565b348015610d0257600080fd5b5061071f610d1136600461396c565b612d69565b348015610d2257600080fd5b506105ac610d313660046136f2565b612d7e565b348015610d4257600080fd5b50610623612dd6565b348015610d5757600080fd5b50610ad5610d6636600461368b565b612ddc565b348015610d7757600080fd5b50610623612e06565b348015610d8c57600080fd5b50610d95612e0c565b6040516105549190613c00565b348015610dae57600080fd5b50610dc2610dbd36600461396c565b612e6c565b6040516105549796959493929190613b54565b348015610de157600080fd5b50610547610df036600461341d565b612f19565b348015610e0157600080fd5b506105ac610e1036600461396c565b612f26565b348015610e2157600080fd5b50610623612f7e565b60007fffffffff0000000000000000000000000000000000000000000000000000000082167f4e2312e0000000000000000000000000000000000000000000000000000000001480610e805750610e8082612f84565b92915050565b6000908152601260209081526040808320546013835281842054601490935292205460ff9092169290916001600160a01b031690565b610ec7601582612fce565b15610ed757610ed760158261303d565b50565b600090815260208052604090205460ff1690565b3360009081526024602052604090205460ff16151560011480610f1b57506002546001600160a01b031633145b80610f2557503033145b610f4a5760405162461bcd60e51b8152600401610f4190613e6a565b60405180910390fd5b601991909155601855565b60115462010000900460ff1690565b6040517f01356b6d00000000000000000000000000000000000000000000000000000000815260009073__$8228317518e9daeef1bbbb17c026e269fd$__906301356b6d90610fb990849086906004016140d9565b60206040518083038186803b158015610fd157600080fd5b505af4158015610fe5573d6000803e3d6000fd5b505050506040513d601f19601f82011682018060405250810190610e809190613984565b6040517fb9f0527400000000000000000000000000000000000000000000000000000000815273__$8228317518e9daeef1bbbb17c026e269fd$__9063b9f052749061105e9060009086908690600401614040565b60006040518083038186803b15801561107657600080fd5b505af415801561108a573d6000803e3d6000fd5b505050505050565b61109d601582612fce565b610ed757610ed76015826131a3565b3360009081526024602052604090205460ff161515600114806110d957506002546001600160a01b031633145b806110e357503033145b6110ff5760405162461bcd60e51b8152600401610f4190613e6a565b6040517ff2a19d8500000000000000000000000000000000000000000000000000000000815273__$8228317518e9daeef1bbbb17c026e269fd$__9063f2a19d8590611160906000908c908c908c908c908c908c908c908c906004016140e7565b60006040518083038186803b15801561117857600080fd5b505af415801561118c573d6000803e3d6000fd5b505050505050505050505050565b3360009081526024602052604090205460ff161515600114806111c757506002546001600160a01b031633145b806111d157503033145b6111ed5760405162461bcd60e51b8152600401610f4190613e6a565b60118054911515620100000262ff000019909216919091179055565b60105490565b600080600080600080600073__$8228317518e9daeef1bbbb17c026e269fd$__6301356b6d9091896040518363ffffffff1660e01b81526004016112549291906140d9565b60206040518083038186803b15801561126c57600080fd5b505af4158015611280573d6000803e3d6000fd5b505050506040513d601f19601f820116820180604052508101906112a49190613984565b6040517fecd5244e00000000000000000000000000000000000000000000000000000000815273__$8228317518e9daeef1bbbb17c026e269fd$__9063ecd5244e906112f7906000908c906004016140d9565b60206040518083038186803b15801561130f57600080fd5b505af4158015611323573d6000803e3d6000fd5b505050506040513d601f19601f820116820180604052508101906113479190613984565b6040517fb94677da00000000000000000000000000000000000000000000000000000000815273__$8228317518e9daeef1bbbb17c026e269fd$__9063b94677da9061139a906000908d906004016140d9565b60206040518083038186803b1580156113b257600080fd5b505af41580156113c6573d6000803e3d6000fd5b505050506040513d601f19601f820116820180604052508101906113ea9190613984565b6040517fdc1f0f5300000000000000000000000000000000000000000000000000000000815273__$8228317518e9daeef1bbbb17c026e269fd$__9063dc1f0f539061143d906000908e906004016140d9565b60206040518083038186803b15801561145557600080fd5b505af4158015611469573d6000803e3d6000fd5b505050506040513d601f19601f8201168201806040525081019061148d9190613984565b6040517f76e455e100000000000000000000000000000000000000000000000000000000815273__$8228317518e9daeef1bbbb17c026e269fd$__906376e455e1906114e0906000908f906004016140d9565b60206040518083038186803b1580156114f857600080fd5b505af415801561150c573d6000803e3d6000fd5b505050506040513d601f19601f820116820180604052508101906115309190613440565b601954949c939b5091995097509550909350915050565b6040517f80ca2ba600000000000000000000000000000000000000000000000000000000815273__$8228317518e9daeef1bbbb17c026e269fd$__906380ca2ba69061105e906000908690869060040161415e565b6011546301000000900460ff1690565b3360009081526024602052604090205460ff161515600114806115d957506002546001600160a01b031633145b806115e357503033145b6115ff5760405162461bcd60e51b8152600401610f4190613e6a565b610ed76027826131a3565b3360009081526024602052604090205460ff1615156001148061163757506002546001600160a01b031633145b8061164157503033145b61165d5760405162461bcd60e51b8152600401610f4190613e6a565b60118054911515610100027fffffffffffffffffffffffffffffffffffffffffffffffffffffffffffff00ff909216919091179055565b60006116a0602761322f565b905090565b601154610100900460ff1690565b601a5490565b60115460ff1690565b6000610e80602783613236565b6040517fe5fca79a00000000000000000000000000000000000000000000000000000000815273__$8228317518e9daeef1bbbb17c026e269fd$__9063e5fca79a90611726906000903390349087906004016140b5565b60006040518083038186803b15801561173e57600080fd5b505af4158015611752573d6000803e3d6000fd5b5050505050565b6040517fafeafd9a00000000000000000000000000000000000000000000000000000000815273__$8228317518e9daeef1bbbb17c026e269fd$__9063afeafd9a906117b0906000908790879087906004016140b5565b60006040518083038186803b1580156117c857600080fd5b505af41580156117dc573d6000803e3d6000fd5b50505050505050565b3360009081526024602052604090205460ff1615156001148061181257506002546001600160a01b031633145b8061181c57503033145b6118385760405162461bcd60e51b8152600401610f4190613e6a565b6040517f92bcae9000000000000000000000000000000000000000000000000000000000815273__$8228317518e9daeef1bbbb17c026e269fd$__906392bcae9090611897906000908b908b908b908b908b908b908b9060040161405f565b60006040518083038186803b1580156118af57600080fd5b505af41580156118c3573d6000803e3d6000fd5b5050505050505050505050565b6040517f80ca2ba600000000000000000000000000000000000000000000000000000000815273__$8228317518e9daeef1bbbb17c026e269fd$__906380ca2ba69061172690600090859060019060040161415e565b60606000600901805461193890614283565b80601f016020809104026020016040519081016040528092919081815260200182805461196490614283565b80156119b15780601f10611986576101008083540402835291602001916119b1565b820191906000526020600020905b81548152906001019060200180831161199457829003601f168201915b5050505050905090565b3360009081526024602052604090205460ff161515600114806119e857506002546001600160a01b031633145b806119f257503033145b611a0e5760405162461bcd60e51b8152600401610f4190613e6a565b506011805460ff19166001179055565b606060006017018054806020026020016040519081016040528092919081815260200182805480156119b157602002820191906000526020600020905b815481526020019060010190808311611a5b575050505050905090565b60009081526013602052604090205490565b6040517fecd5244e00000000000000000000000000000000000000000000000000000000815260009073__$8228317518e9daeef1bbbb17c026e269fd$__9063ecd5244e90610fb990849086906004016140d9565b60009081526021602052604090205490565b6040517f48126f4b00000000000000000000000000000000000000000000000000000000815273__$8228317518e9daeef1bbbb17c026e269fd$__906348126f4b9061105e9060009086908690600401614146565b6040517f164cd8c200000000000000000000000000000000000000000000000000000000815260009073__$8228317518e9daeef1bbbb17c026e269fd$__9063164cd8c290611b99908490600401614037565b60206040518083038186803b158015611bb157600080fd5b505af4158015611bc5573d6000803e3d6000fd5b505050506040513d601f19601f820116820180604052508101906116a09190613984565b3360009081526024602052604090205460ff16151560011480611c1657506002546001600160a01b031633145b80611c2057503033145b611c3c5760405162461bcd60e51b8152600401610f4190613e6a565b610ed760278261303d565b3360009081526024602052604090205460ff16151560011480611c7457506002546001600160a01b031633145b80611c7e57503033145b611c9a5760405162461bcd60e51b8152600401610f4190613e6a565b8051611cad906009906020840190613277565b5050565b336000908152602460205260409020805460ff191660011790556003805473ffffffffffffffffffffffffffffffffffffffff19166001600160a01b0392909216919091179055565b6040517fdc1f0f5300000000000000000000000000000000000000000000000000000000815260009073__$8228317518e9daeef1bbbb17c026e269fd$__9063dc1f0f5390610fb990849086906004016140d9565b60606000600701805461193890614283565b60195490565b3360009081526024602052604090205460ff16151560011480611d8957503033145b611da55760405162461bcd60e51b8152600401610f4190613e6a565b6001600160a01b03166000908152602460205260409020805460ff19166001179055565b6040517fb94677da00000000000000000000000000000000000000000000000000000000815260009073__$8228317518e9daeef1bbbb17c026e269fd$__9063b94677da90610fb990849086906004016140d9565b60065460ff1690565b600f5490565b60008211611e4d5760405162461bcd60e51b8152600401610f4190613f35565b6001600160a01b038416611e735760405162461bcd60e51b8152600401610f4190613fa3565b6001600160a01b038316611e995760405162461bcd60e51b8152600401610f4190613dc5565b6001600160a01b038116611ebf5760405162461bcd60e51b8152600401610f4190613dfc565b611eca601584612fce565b1515600114611eeb5760405162461bcd60e51b8152600401610f4190613efe565b600082815260208052604090205460ff1615611f195760405162461bcd60e51b8152600401610f4190613ec7565b6000846001600160a01b03166395d89b416040518163ffffffff1660e01b815260040160006040518083038186803b158015611f5457600080fd5b505afa158015611f68573d6000803e3d6000fd5b505050506040513d6000823e601f3d908101601f19168201604052611f909190810190613853565b604051602001611fa09190613a89565b60408051601f198184030181529082905280516020918201209250600091611fcb9160079101613aa5565b6040516020818303038152906040528051906020012090508082146120025760405162461bcd60e51b8152600401610f4190613e33565b6040517fe6c3b1f60000000000000000000000000000000000000000000000000000000081526000906001600160a01b0388169063e6c3b1f69061204a908890600401614037565b60206040518083038186803b15801561206257600080fd5b505afa158015612076573d6000803e3d6000fd5b505050506040513d601f19601f8201168201806040525081019061209a9190613804565b905060028160028111156120be57634e487b7160e01b600052602160045260246000fd5b146120db5760405162461bcd60e51b8152600401610f4190613f6c565b6040517efdd58e0000000000000000000000000000000000000000000000000000000081526000906001600160a01b0388169062fdd58e906121239088908a90600401613bc6565b60206040518083038186803b15801561213b57600080fd5b505afa15801561214f573d6000803e3d6000fd5b505050506040513d601f19601f820116820180604052508101906121739190613984565b90506000886001600160a01b0316637dcb0e5f886040518263ffffffff1660e01b81526004016121a39190614037565b60206040518083038186803b1580156121bb57600080fd5b505afa1580156121cf573d6000803e3d6000fd5b505050506040513d601f19601f820116820180604052508101906121f39190613984565b905081156123a2576001546040517f156e29f60000000000000000000000000000000000000000000000000000000081526001600160a01b039091169063156e29f6906122489089908b908790600401613bdf565b600060405180830381600087803b15801561226257600080fd5b505af1158015612276573d6000803e3d6000fd5b50506001546040517f7c8810760000000000000000000000000000000000000000000000000000000081526001600160a01b039091169250637c88107691506122c8908a906002903090600401614174565b600060405180830381600087803b1580156122e257600080fd5b505af11580156122f6573d6000803e3d6000fd5b50505060008881526012602090815260408083208054600260ff19918216179091556013835281842086905560148352818420805473ffffffffffffffffffffffffffffffffffffffff19166001600160a01b038f16179055918052918290208054909116600117905551889150309033907ff5b54e798ff7f434ed773aa633e6a9f82ef9ae465e46042e1983f29bf1fd69ea90612399908e908e908990613ba2565b60405180910390a45b505050505050505050565b6001600160a01b031660009081526024602052604090205460ff1690565b6040517f33c13e0d00000000000000000000000000000000000000000000000000000000815260009073__$8228317518e9daeef1bbbb17c026e269fd$__906333c13e0d90611b99908490600401614037565b7fbc197c810000000000000000000000000000000000000000000000000000000095945050505050565b336000908152602460205260409020805460ff191660011790556002805473ffffffffffffffffffffffffffffffffffffffff19166001600160a01b0392909216919091179055565b503090565b3360009081526024602052604090205460ff161515600114806124c357506002546001600160a01b031633145b806124cd57503033145b6124e95760405162461bcd60e51b8152600401610f4190613e6a565b601180548291907fffffffffffffffffffffffffffffffffffffffffffffffffffffffff00ffffff16630100000083600281111561253757634e487b7160e01b600052602160045260246000fd5b021790555050565b6040517f76e455e100000000000000000000000000000000000000000000000000000000815260009073__$8228317518e9daeef1bbbb17c026e269fd$__906376e455e19061259490849086906004016140d9565b60206040518083038186803b1580156125ac57600080fd5b505af41580156125c0573d6000803e3d6000fd5b505050506040513d601f19601f82011682018060405250810190610e809190613440565b3360009081526024602052604090205460ff1615156001148061261157506002546001600160a01b031633145b8061261b57503033145b6126375760405162461bcd60e51b8152600401610f4190613e6a565b601055565b60185490565b3360009081526024602052604090205460ff1615156001148061266f57506002546001600160a01b031633145b8061267957503033145b6126955760405162461bcd60e51b8152600401610f4190613e6a565b8051611cad9060179060208401906132fb565b336000908152602460205260409020805460ff191660011790556001805473ffffffffffffffffffffffffffffffffffffffff19166001600160a01b0392909216919091179055565b600080601701828154811061271657634e487b7160e01b600052603260045260246000fd5b90600052602060002001549050919050565b6040517f828c7b7200000000000000000000000000000000000000000000000000000000815260009073__$8228317518e9daeef1bbbb17c026e269fd$__9063828c7b7290611b99908490600401614037565b3360009081526024602052604090205460ff161515600114806127a857506002546001600160a01b031633145b806127b257503033145b6127ce5760405162461bcd60e51b8152600401610f4190613e6a565b6006805460ff1916911515919091179055565b336000908152602460205260409020805460ff191660011790556004805473ffffffffffffffffffffffffffffffffffffffff19166001600160a01b0392909216919091179055565b600654601954601854601a546040517f164cd8c2000000000000000000000000000000000000000000000000000000008152600094859485948594859485948594859460ff90921693909273__$8228317518e9daeef1bbbb17c026e269fd$__9063164cd8c29061289f908890600401614037565b60206040518083038186803b1580156128b757600080fd5b505af41580156128cb573d6000803e3d6000fd5b505050506040513d601f19601f820116820180604052508101906128ef9190613984565b6040517f33c13e0d00000000000000000000000000000000000000000000000000000000815273__$8228317518e9daeef1bbbb17c026e269fd$__906333c13e0d9061294090600090600401614037565b60206040518083038186803b15801561295857600080fd5b505af415801561296c573d6000803e3d6000fd5b505050506040513d601f19601f820116820180604052508101906129909190613984565b601954601854969f959e50939c50919a509850965094509092509050565b3360009081526024602052604090205460ff161515600114806129db57506002546001600160a01b031633145b806129e557503033145b612a015760405162461bcd60e51b8152600401610f4190613e6a565b6000805473ffffffffffffffffffffffffffffffffffffffff1916301790558751612a339060079060208b0190613277565b508651612a479060089060208a0190613277565b50600a869055600b859055600c849055600d839055600e8290556006805460ff191660011790556011805462ff00001916620100001790556001600160a01b03811615612a9957612a996027826131a3565b5050505050505050565b60608060606000806000806000806000806000600701600060080160006009016000600501546000600a01546000600b01546000600c01546000600d01546000600e01546000600f01546000601001548a8054612aff90614283565b80601f0160208091040260200160405190810160405280929190818152602001828054612b2b90614283565b8015612b785780601f10612b4d57610100808354040283529160200191612b78565b820191906000526020600020905b815481529060010190602001808311612b5b57829003601f168201915b50505050509a50898054612b8b90614283565b80601f0160208091040260200160405190810160405280929190818152602001828054612bb790614283565b8015612c045780601f10612bd957610100808354040283529160200191612c04565b820191906000526020600020905b815481529060010190602001808311612be757829003601f168201915b50505050509950888054612c1790614283565b80601f0160208091040260200160405190810160405280929190818152602001828054612c4390614283565b8015612c905780601f10612c6557610100808354040283529160200191612c90565b820191906000526020600020905b815481529060010190602001808311612c7357829003601f168201915b505050505098509a509a509a509a509a509a509a509a509a509a509a50909192939495969798999a565b3360009081526024602052604090205460ff16151560011480612cdc57503033145b612cf85760405162461bcd60e51b8152600401610f4190613e6a565b336000908152602460205260409020805460ff19169055565b3360009081526024602052604090205460ff16151560011480612d3e57506002546001600160a01b031633145b80612d4857503033145b612d645760405162461bcd60e51b8152600401610f4190613e6a565b600555565b60009081526012602052604090205460ff1690565b6040517fafeafd9a00000000000000000000000000000000000000000000000000000000815273__$8228317518e9daeef1bbbb17c026e269fd$__9063afeafd9a9061105e90600090869086906001906004016140b5565b60055490565b7ff23a6e610000000000000000000000000000000000000000000000000000000095945050505050565b60175490565b6016805460408051602080840282018101909252828152606093909290918301828280156119b157602002820191906000526020600020905b81546001600160a01b03168152600190910190602001808311612e45575050505050905090565b60008060008060008060008073__$8228317518e9daeef1bbbb17c026e269fd$__635b68e93c90918a6040518363ffffffff1660e01b8152600401612eb29291906140d9565b60e06040518083038186803b158015612eca57600080fd5b505af4158015612ede573d6000803e3d6000fd5b505050506040513d601f19601f82011682018060405250810190612f0291906135c1565b959e949d50929b5090995097509550909350915050565b6000610e80602783612fce565b3360009081526024602052604090205460ff16151560011480612f5357506002546001600160a01b031633145b80612f5d57503033145b612f795760405162461bcd60e51b8152600401610f4190613e6a565b600f55565b600a5490565b7fffffffff0000000000000000000000000000000000000000000000000000000081167f01ffc9a70000000000000000000000000000000000000000000000000000000014919050565b6001820154600090612fe257506000610e80565b6001600160a01b038216600081815260208590526040902054600185018054909190811061302057634e487b7160e01b600052603260045260246000fd5b6000918252602090912001546001600160a01b0316149392505050565b6130478282612fce565b61305057611cad565b6000600161305d8461322f565b6130679190614230565b6001600160a01b03831660009081526020859052604090205490915080821461312e5760008460010183815481106130af57634e487b7160e01b600052603260045260246000fd5b60009182526020808320909101546001600160a01b03168083529087905260409091208390556001860180549192508291849081106130fe57634e487b7160e01b600052603260045260246000fd5b9060005260206000200160006101000a8154816001600160a01b0302191690836001600160a01b03160217905550505b6001600160a01b03831660009081526020859052604081205560018085018054909161315991614230565b8154811061317757634e487b7160e01b600052603260045260246000fd5b6000918252602090912001805473ffffffffffffffffffffffffffffffffffffffff1916905550505050565b6131ad8282612fce565b156131ca5760405162461bcd60e51b8152600401610f4190613fda565b60018281018054808301825560008281526020902001805473ffffffffffffffffffffffffffffffffffffffff19166001600160a01b038516179055546132119190614230565b6001600160a01b039091166000908152602092909252604090912055565b6001015490565b600082600101828154811061325b57634e487b7160e01b600052603260045260246000fd5b6000918252602090912001546001600160a01b03169392505050565b82805461328390614283565b90600052602060002090601f0160209004810192826132a557600085556132eb565b82601f106132be57805160ff19168380011785556132eb565b828001600101855582156132eb579182015b828111156132eb5782518255916020019190600101906132d0565b506132f7929150613335565b5090565b8280548282559060005260206000209081019282156132eb57916020028201828111156132eb5782518255916020019190600101906132d0565b5b808211156132f75760008155600101613336565b600082601f83011261335a578081fd5b8135602067ffffffffffffffff821115613376576133766142be565b8082026133848282016141d2565b83815282810190868401838801850189101561339e578687fd5b8693505b858410156133c05780358352600193909301929184019184016133a2565b50979650505050505050565b600082601f8301126133dc578081fd5b81356133ef6133ea826141fc565b6141d2565b818152846020838601011115613403578283fd5b816020850160208301379081016020019190915292915050565b60006020828403121561342e578081fd5b8135613439816142f2565b9392505050565b600060208284031215613451578081fd5b8151613439816142f2565b6000806040838503121561346e578081fd5b8235613479816142f2565b91506020830135613489816142f2565b809150509250929050565b600080600080600060a086880312156134ab578081fd5b85356134b6816142f2565b945060208601356134c6816142f2565b9350604086013567ffffffffffffffff808211156134e2578283fd5b6134ee89838a0161334a565b94506060880135915080821115613503578283fd5b61350f89838a0161334a565b93506080880135915080821115613524578283fd5b50613531888289016133cc565b9150509295509295909350565b600080600080600080600060e0888a031215613558578182fd5b8735613563816142f2565b96506020880135613573816142f2565b9550604088013561358381614315565b9450606088013593506080880135925060a08801356135a181614307565b915060c08801356135b181614307565b8091505092959891949750929550565b600080600080600080600060e0888a0312156135db578081fd5b87516135e6816142f2565b60208901519097506135f7816142f2565b604089015190965061360881614315565b80955050606088015193506080880151925060a088015161362881614307565b60c08901519092506135b181614307565b6000806000806080858703121561364e578182fd5b8435613659816142f2565b93506020850135613669816142f2565b9250604085013591506060850135613680816142f2565b939692955090935050565b600080600080600060a086880312156136a2578283fd5b85356136ad816142f2565b945060208601356136bd816142f2565b93506040860135925060608601359150608086013567ffffffffffffffff8111156136e6578182fd5b613531888289016133cc565b60008060408385031215613704578182fd5b823561370f816142f2565b946020939093013593505050565b600080600060608486031215613731578081fd5b833561373c816142f2565b95602085013595506040909401359392505050565b600060208284031215613762578081fd5b813567ffffffffffffffff811115613778578182fd5b6137848482850161334a565b949350505050565b60006020828403121561379d578081fd5b813561343981614307565b6000602082840312156137b9578081fd5b81357fffffffff0000000000000000000000000000000000000000000000000000000081168114613439578182fd5b6000602082840312156137f9578081fd5b813561343981614315565b600060208284031215613815578081fd5b815161343981614315565b600060208284031215613831578081fd5b813567ffffffffffffffff811115613847578182fd5b613784848285016133cc565b600060208284031215613864578081fd5b815167ffffffffffffffff81111561387a578182fd5b8201601f8101841361388a578182fd5b80516138986133ea826141fc565b8181528560208385010111156138ac578384fd5b6138bd826020830160208601614253565b95945050505050565b600080600080600080600080610100898b0312156138e2578182fd5b883567ffffffffffffffff808211156138f9578384fd5b6139058c838d016133cc565b995060208b013591508082111561391a578384fd5b506139278b828c016133cc565b97505060408901359550606089013594506080890135935060a0890135925060c0890135915060e089013561395b816142f2565b809150509295985092959890939650565b60006020828403121561397d578081fd5b5035919050565b600060208284031215613995578081fd5b5051919050565b600080600080600080600080610100898b0312156139b8578182fd5b8835975060208901356139ca816142f2565b965060408901356139da816142f2565b955060608901356139ea81614315565b94506080890135935060a0890135925060c0890135613a0881614307565b915060e089013561395b81614307565b60008060408385031215613a2a578182fd5b82359150602083013561348981614307565b60008060408385031215613a4e578182fd5b50508035926020909101359150565b60008151808452613a75816020860160208601614253565b601f01601f19169290920160200192915050565b60008251613a9b818460208701614253565b9190910192915050565b8154600090819060028104600180831680613ac157607f831692505b6020808410821415613ae157634e487b7160e01b87526022600452602487fd5b818015613af55760018114613b0657613b32565b60ff19861689528489019650613b32565b613b0f8a614224565b885b86811015613b2a5781548b820152908501908301613b11565b505084890196505b509498975050505050505050565b6001600160a01b0391909116815260200190565b6001600160a01b0388811682528716602082015260e08101613b75876142d4565b604082019690965260608101949094526080840192909252151560a0830152151560c09091015292915050565b6001600160a01b039384168152919092166020820152604081019190915260600190565b6001600160a01b03929092168252602082015260400190565b6001600160a01b039390931683526020830191909152604082015260600190565b6020808252825182820181905260009190848201906040850190845b81811015613c415783516001600160a01b031683529284019291840191600101613c1c565b50909695505050505050565b6020808252825182820181905260009190848201906040850190845b81811015613c4157835183529284019291840191600101613c69565b901515815260200190565b9715158852602088019690965260408701949094526060860192909252608085015260a084015260c083015260e08201526101000190565b7fffffffff0000000000000000000000000000000000000000000000000000000091909116815260200190565b60208101613d02836142d4565b91905290565b60608101613d15856142d4565b93815260208101929092526001600160a01b031660409091015290565b6000602082526134396020830184613a5d565b6000610160808352613d598184018f613a5d565b90508281036020840152613d6d818e613a5d565b90508281036040840152613d81818d613a5d565b606084019b909b525050608081019790975260a087019590955260c086019390935260e0850191909152610100840152610120830152610140909101529392505050565b6020808252600d908201527f494e56414c49445f544f4b454e00000000000000000000000000000000000000604082015260600190565b60208082526011908201527f494e56414c49445f524543495049454e54000000000000000000000000000000604082015260600190565b60208082526010908201527f494e56414c49445f504f4f4c4841534800000000000000000000000000000000604082015260600190565b60208082526028908201527f436f6e74726f6c6c61626c653a2063616c6c6572206973206e6f74206120636f60408201527f6e74726f6c6c6572000000000000000000000000000000000000000000000000606082015260800190565b60208082526010908201527f414c52454144595f494d504f5254454400000000000000000000000000000000604082015260600190565b60208082526013908201527f494e56414c49445f544f4b454e534f5552434500000000000000000000000000604082015260600190565b60208082526011908201527f494e56414c49445f544f4b454e48415348000000000000000000000000000000604082015260600190565b60208082526011908201527f494e56414c49445f544f4b454e54595045000000000000000000000000000000604082015260600190565b6020808252600c908201527f494e56414c49445f504f4f4c0000000000000000000000000000000000000000604082015260600190565b6020808252602a908201527f416464726573735365743a206b657920616c726561647920657869737473206960408201527f6e20746865207365742e00000000000000000000000000000000000000000000606082015260800190565b90815260200190565b9283526001600160a01b03918216602084015216604082015260600190565b8881526001600160a01b038881166020830152871660408201526101008101614087876142d4565b6060820196909652608081019490945260a0840192909252151560c0830152151560e0909101529392505050565b9384526001600160a01b039290921660208401526040830152606082015260800190565b918252602082015260400190565b898152602081018990526001600160a01b038881166040830152871660608201526101208101614116876142d4565b608082019690965260a081019490945260c0840192909252151560e0830152151561010090910152949350505050565b92835260208301919091521515604082015260600190565b9283526020830191909152604082015260600190565b83815260608101614184846142d4565b8360208301526001600160a01b0383166040830152949350505050565b9586526020860194909452604085019290925260608401526001600160a01b0316608083015260a082015260c00190565b60405181810167ffffffffffffffff811182821017156141f4576141f46142be565b604052919050565b600067ffffffffffffffff821115614216576142166142be565b50601f01601f191660200190565b60009081526020902090565b60008282101561424e57634e487b7160e01b81526011600452602481fd5b500390565b60005b8381101561426e578181015183820152602001614256565b8381111561427d576000848401525b50505050565b60028104600182168061429757607f821691505b602082108114156142b857634e487b7160e01b600052602260045260246000fd5b50919050565b634e487b7160e01b600052604160045260246000fd5b60038110610ed757634e487b7160e01b600052602160045260246000fd5b6001600160a01b0381168114610ed757600080fd5b8015158114610ed757600080fd5b60038110610ed757600080fdfea2646970667358221220de6515d341742de6a4b569a6206dc3e77a3c3360a66e40023742dbd629e9d39764736f6c63430008000033a26469706673582212205b2ec7275df8f099d3361135d87e509a82794b2eb22f4e5267a12d145a25c05564736f6c63430008000033",
  "libraries": {
    "GovernanceLib": "0xaeb86F3860AD5B29aE141c56709835130ecbE0D9",
    "Strings": "0xAaCc702df0e464b2f2896aEe801241eEA6DBdba1",
    "AddressSet": "0x2521688f2bdf04bd785D477C05d5240634E63708",
    "UInt256Set": "0xE519B631E93BE6Df760b3872dE88344Dd969370a",
    "Create2": "0xe83DEBccfFF96a5113Bd485967a643D60C4487fd",
    "ProposalsLib": "0xd98B1717903B2Ff81b08F680372887a8c35174c2",
    "ComplexPoolLib": "0x9aCda89A5C672c5f74bf71C723D9fAad285167C2",
    "WrappedTokenLib": "0x9c2C592C7C6D3f7A58aD74ddCf31D0dE2f8807a5"
  },
  "devdoc": {
    "kind": "dev",
    "methods": {
      "addCustomNFTGemPool(address,string,string)": {
        "details": "add an existing gem pool to factory (for migrations)"
      },
      "allNFTGemPools(uint256)": {
        "details": "get the quantized token for this"
      },
      "allNFTGemPoolsLength()": {
        "details": "number of quantized addresses"
      },
      "createCustomNFTGemPool(bytes,string,string)": {
        "details": "deploy a new erc20 token using create2"
      },
      "createNFTGemPool(string,string,uint256,uint256,uint256,uint256,uint256,address)": {
        "details": "deploy a new erc20 token using create2"
      },
      "getNFTGemPool(uint256)": {
        "details": "get the quantized token for this"
      },
      "nftGemPools()": {
        "details": "get the quantized token for this"
      }
    },
    "version": 1
  },
  "userdoc": {
    "kind": "user",
    "methods": {},
    "version": 1
  },
  "storageLayout": {
    "storage": [
      {
        "astId": 5194,
        "contract": "src/factories/NFTGemPoolFactory.sol:NFTGemPoolFactory",
        "label": "_getNFTGemPool",
        "offset": 0,
        "slot": "0",
        "type": "t_mapping(t_uint256,t_address)"
      },
      {
        "astId": 5197,
        "contract": "src/factories/NFTGemPoolFactory.sol:NFTGemPoolFactory",
        "label": "_allNFTGemPools",
        "offset": 0,
        "slot": "1",
        "type": "t_array(t_address)dyn_storage"
      }
    ],
    "types": {
      "t_address": {
        "encoding": "inplace",
        "label": "address",
        "numberOfBytes": "20"
      },
      "t_array(t_address)dyn_storage": {
        "base": "t_address",
        "encoding": "dynamic_array",
        "label": "address[]",
        "numberOfBytes": "32"
      },
      "t_mapping(t_uint256,t_address)": {
        "encoding": "mapping",
        "key": "t_uint256",
        "label": "mapping(uint256 => address)",
        "numberOfBytes": "32",
        "value": "t_address"
      },
      "t_uint256": {
        "encoding": "inplace",
        "label": "uint256",
        "numberOfBytes": "32"
      }
    }
  }
}