{
  "address": "0x3625F73571388e5356F9Ebc83423d21326d9875F",
  "abi": [
    {
      "inputs": [],
      "stateMutability": "nonpayable",
      "type": "constructor"
    },
    {
      "anonymous": false,
      "inputs": [
        {
          "indexed": true,
          "internalType": "address",
          "name": "proposal",
          "type": "address"
        },
        {
          "indexed": true,
          "internalType": "address",
          "name": "token",
          "type": "address"
        },
        {
          "indexed": false,
          "internalType": "bool",
          "name": "isBanned",
          "type": "bool"
        }
      ],
      "name": "AllowList",
      "type": "event"
    },
    {
      "anonymous": false,
      "inputs": [
        {
          "indexed": true,
          "internalType": "address",
          "name": "contractAddress",
          "type": "address"
        },
        {
          "indexed": true,
          "internalType": "address",
          "name": "controllerAddress",
          "type": "address"
        }
      ],
      "name": "ControllerAdded",
      "type": "event"
    },
    {
      "anonymous": false,
      "inputs": [
        {
          "indexed": true,
          "internalType": "address",
          "name": "contractAddress",
          "type": "address"
        },
        {
          "indexed": true,
          "internalType": "address",
          "name": "controllerAddress",
          "type": "address"
        }
      ],
      "name": "ControllerRemoved",
      "type": "event"
    },
    {
      "anonymous": false,
      "inputs": [
        {
          "indexed": true,
          "internalType": "address",
          "name": "proposal",
          "type": "address"
        },
        {
          "indexed": true,
          "internalType": "address",
          "name": "token",
          "type": "address"
        },
        {
          "indexed": false,
          "internalType": "uint256",
          "name": "newFee",
          "type": "uint256"
        }
      ],
      "name": "FeeUpdated",
      "type": "event"
    },
    {
      "anonymous": false,
      "inputs": [
        {
          "indexed": true,
          "internalType": "address",
          "name": "receiver",
          "type": "address"
        },
        {
          "indexed": false,
          "internalType": "uint256",
          "name": "amount",
          "type": "uint256"
        }
      ],
      "name": "GovernanceTokenIssued",
      "type": "event"
    },
    {
      "anonymous": false,
      "inputs": [
        {
          "indexed": true,
          "internalType": "address",
          "name": "proposal",
          "type": "address"
        },
        {
          "indexed": true,
          "internalType": "address",
          "name": "receiver",
          "type": "address"
        },
        {
          "indexed": false,
          "internalType": "uint256",
          "name": "received",
          "type": "uint256"
        }
      ],
      "name": "ProjectFunded",
      "type": "event"
    },
    {
      "anonymous": false,
      "inputs": [
        {
          "indexed": true,
          "internalType": "address",
          "name": "proposal",
          "type": "address"
        },
        {
          "indexed": true,
          "internalType": "address",
          "name": "pool",
          "type": "address"
        },
        {
          "indexed": false,
          "internalType": "string",
          "name": "symbol",
          "type": "string"
        },
        {
          "indexed": false,
          "internalType": "string",
          "name": "name",
          "type": "string"
        },
        {
          "indexed": false,
          "internalType": "uint256",
          "name": "ethPrice",
          "type": "uint256"
        },
        {
          "indexed": false,
          "internalType": "uint256",
          "name": "minTime",
          "type": "uint256"
        },
        {
          "indexed": false,
          "internalType": "uint256",
          "name": "maxTime",
          "type": "uint256"
        },
        {
          "indexed": false,
          "internalType": "uint256",
          "name": "diffStep",
          "type": "uint256"
        },
        {
          "indexed": false,
          "internalType": "uint256",
          "name": "maxClaims",
          "type": "uint256"
        },
        {
          "indexed": false,
          "internalType": "address",
          "name": "alllowedToken",
          "type": "address"
        }
      ],
      "name": "StakingPoolCreated",
      "type": "event"
    },
    {
      "inputs": [
        {
          "internalType": "address",
          "name": "_controller",
          "type": "address"
        }
      ],
      "name": "addController",
      "outputs": [],
      "stateMutability": "nonpayable",
      "type": "function"
    },
    {
      "inputs": [
        {
          "internalType": "address",
          "name": "submitter",
          "type": "address"
        },
        {
          "internalType": "string",
          "name": "title",
          "type": "string"
        },
        {
          "internalType": "address",
          "name": "token",
          "type": "address"
        },
        {
          "internalType": "address",
          "name": "pool",
          "type": "address"
        },
        {
          "internalType": "uint256",
          "name": "feeDivisor",
          "type": "uint256"
        }
      ],
      "name": "createChangeFeeProposal",
      "outputs": [
        {
          "internalType": "address",
          "name": "proposal",
          "type": "address"
        }
      ],
      "stateMutability": "nonpayable",
      "type": "function"
    },
    {
      "inputs": [
        {
          "internalType": "address",
          "name": "submitter",
          "type": "address"
        },
        {
          "internalType": "string",
          "name": "title",
          "type": "string"
        },
        {
          "internalType": "address",
          "name": "receiver",
          "type": "address"
        },
        {
          "internalType": "string",
          "name": "descriptionUrl",
          "type": "string"
        },
        {
          "internalType": "uint256",
          "name": "ethAmount",
          "type": "uint256"
        }
      ],
      "name": "createFundProjectProposal",
      "outputs": [
        {
          "internalType": "address",
          "name": "proposal",
          "type": "address"
        }
      ],
      "stateMutability": "nonpayable",
      "type": "function"
    },
    {
      "inputs": [
        {
          "internalType": "address",
          "name": "submitter",
          "type": "address"
        },
        {
          "internalType": "string",
          "name": "title",
          "type": "string"
        },
        {
          "internalType": "string",
          "name": "symbol",
          "type": "string"
        },
        {
          "internalType": "string",
          "name": "name",
          "type": "string"
        },
        {
          "internalType": "uint256",
          "name": "ethPrice",
          "type": "uint256"
        },
        {
          "internalType": "uint256",
          "name": "minTIme",
          "type": "uint256"
        },
        {
          "internalType": "uint256",
          "name": "maxTime",
          "type": "uint256"
        },
        {
          "internalType": "uint256",
          "name": "diffStep",
          "type": "uint256"
        },
        {
          "internalType": "uint256",
          "name": "maxClaims",
          "type": "uint256"
        },
        {
          "internalType": "address",
          "name": "allowedToken",
          "type": "address"
        }
      ],
      "name": "createNewPoolProposal",
      "outputs": [
        {
          "internalType": "address",
          "name": "proposal",
          "type": "address"
        }
      ],
      "stateMutability": "nonpayable",
      "type": "function"
    },
    {
      "inputs": [
        {
          "internalType": "string",
          "name": "symbol",
          "type": "string"
        },
        {
          "internalType": "string",
          "name": "name",
          "type": "string"
        },
        {
          "internalType": "uint256",
          "name": "ethPrice",
          "type": "uint256"
        },
        {
          "internalType": "uint256",
          "name": "minTime",
          "type": "uint256"
        },
        {
          "internalType": "uint256",
          "name": "maxTime",
          "type": "uint256"
        },
        {
          "internalType": "uint256",
          "name": "diffstep",
          "type": "uint256"
        },
        {
          "internalType": "uint256",
          "name": "maxClaims",
          "type": "uint256"
        },
        {
          "internalType": "address",
          "name": "allowedToken",
          "type": "address"
        }
      ],
      "name": "createPool",
      "outputs": [
        {
          "internalType": "address",
          "name": "pool",
          "type": "address"
        }
      ],
      "stateMutability": "nonpayable",
      "type": "function"
    },
    {
      "inputs": [
        {
          "internalType": "uint256",
          "name": "proposalHash",
          "type": "uint256"
        }
      ],
      "name": "createProposalVoteTokens",
      "outputs": [],
      "stateMutability": "nonpayable",
      "type": "function"
    },
    {
      "inputs": [
        {
          "internalType": "string",
          "name": "symbol",
          "type": "string"
        },
        {
          "internalType": "string",
          "name": "name",
          "type": "string"
        },
        {
          "internalType": "uint256",
          "name": "ethPrice",
          "type": "uint256"
        },
        {
          "internalType": "uint256",
          "name": "minTime",
          "type": "uint256"
        },
        {
          "internalType": "uint256",
          "name": "maxTime",
          "type": "uint256"
        },
        {
          "internalType": "uint256",
          "name": "diffstep",
          "type": "uint256"
        },
        {
          "internalType": "uint256",
          "name": "maxClaims",
          "type": "uint256"
        },
        {
          "internalType": "address",
          "name": "allowedToken",
          "type": "address"
        }
      ],
      "name": "createSystemPool",
      "outputs": [
        {
          "internalType": "address",
          "name": "pool",
          "type": "address"
        }
      ],
      "stateMutability": "nonpayable",
      "type": "function"
    },
    {
      "inputs": [
        {
          "internalType": "address",
          "name": "submitter",
          "type": "address"
        },
        {
          "internalType": "string",
          "name": "title",
          "type": "string"
        },
        {
          "internalType": "address",
          "name": "token",
          "type": "address"
        },
        {
          "internalType": "address",
          "name": "pool",
          "type": "address"
        },
        {
          "internalType": "bool",
          "name": "newStatus",
          "type": "bool"
        }
      ],
      "name": "createUpdateAllowlistProposal",
      "outputs": [
        {
          "internalType": "address",
          "name": "proposal",
          "type": "address"
        }
      ],
      "stateMutability": "nonpayable",
      "type": "function"
    },
    {
      "inputs": [
        {
          "internalType": "uint256",
          "name": "proposalHash",
          "type": "uint256"
        }
      ],
      "name": "destroyProposalVoteTokens",
      "outputs": [],
      "stateMutability": "nonpayable",
      "type": "function"
    },
    {
      "inputs": [
        {
          "internalType": "address",
          "name": "propAddress",
          "type": "address"
        }
      ],
      "name": "executeProposal",
      "outputs": [],
      "stateMutability": "nonpayable",
      "type": "function"
    },
    {
      "inputs": [
        {
          "internalType": "address",
          "name": "_multitoken",
          "type": "address"
        },
        {
          "internalType": "address",
          "name": "_factory",
          "type": "address"
        },
        {
          "internalType": "address",
          "name": "_feeTracker",
          "type": "address"
        },
        {
          "internalType": "address",
          "name": "_proposalFactory",
          "type": "address"
        },
        {
          "internalType": "address",
          "name": "_swapHelper",
          "type": "address"
        }
      ],
      "name": "initialize",
      "outputs": [],
      "stateMutability": "nonpayable",
      "type": "function"
    },
    {
      "inputs": [],
      "name": "initialized",
      "outputs": [
        {
          "internalType": "bool",
          "name": "",
          "type": "bool"
        }
      ],
      "stateMutability": "view",
      "type": "function"
    },
    {
      "inputs": [
        {
          "internalType": "address",
          "name": "_address",
          "type": "address"
        }
      ],
      "name": "isController",
      "outputs": [
        {
          "internalType": "bool",
          "name": "allowed",
          "type": "bool"
        }
      ],
      "stateMutability": "view",
      "type": "function"
    },
    {
      "inputs": [
        {
          "internalType": "address",
          "name": "receiver",
          "type": "address"
        },
        {
          "internalType": "uint256",
          "name": "amount",
          "type": "uint256"
        }
      ],
      "name": "issueFuelToken",
      "outputs": [
        {
          "internalType": "uint256",
          "name": "",
          "type": "uint256"
        }
      ],
      "stateMutability": "nonpayable",
      "type": "function"
    },
    {
      "inputs": [
        {
          "internalType": "address",
          "name": "receiver",
          "type": "address"
        }
      ],
      "name": "issueInitialGovernanceTokens",
      "outputs": [
        {
          "internalType": "uint256",
          "name": "",
          "type": "uint256"
        }
      ],
      "stateMutability": "nonpayable",
      "type": "function"
    },
    {
      "inputs": [
        {
          "internalType": "address",
          "name": "receiver",
          "type": "address"
        }
      ],
      "name": "maybeIssueGovernanceToken",
      "outputs": [
        {
          "internalType": "uint256",
          "name": "",
          "type": "uint256"
        }
      ],
      "stateMutability": "nonpayable",
      "type": "function"
    },
    {
      "inputs": [],
      "name": "relinquishControl",
      "outputs": [],
      "stateMutability": "view",
      "type": "function"
    },
    {
      "inputs": [
        {
          "internalType": "address",
          "name": "a",
          "type": "address"
        }
      ],
      "name": "setFactory",
      "outputs": [],
      "stateMutability": "nonpayable",
      "type": "function"
    },
    {
      "inputs": [
        {
          "internalType": "address",
          "name": "a",
          "type": "address"
        }
      ],
      "name": "setFeeTracker",
      "outputs": [],
      "stateMutability": "nonpayable",
      "type": "function"
    },
    {
      "inputs": [
        {
          "internalType": "address",
          "name": "a",
          "type": "address"
        }
      ],
      "name": "setMultitoken",
      "outputs": [],
      "stateMutability": "nonpayable",
      "type": "function"
    },
    {
      "inputs": [
        {
          "internalType": "address",
          "name": "a",
          "type": "address"
        }
      ],
      "name": "setProposalFactory",
      "outputs": [],
      "stateMutability": "nonpayable",
      "type": "function"
    },
    {
      "inputs": [
        {
          "internalType": "address",
          "name": "a",
          "type": "address"
        }
      ],
      "name": "setSwapHelper",
      "outputs": [],
      "stateMutability": "nonpayable",
      "type": "function"
    }
  ],
  "transactionHash": "0xabc6886a8099e80aba0370b485fa6ab67570f140ebdba907277cba37b8038c4d",
  "args": [],
  "solcInputHash": "8cdaae598cbece381c3f70bdf245f22b",
  "bytecode": "0x608060405234801561001057600080fd5b5061001a3361001f565b610043565b6001600160a01b03166000908152602081905260409020805460ff19166001179055565b6128ad806100526000396000f3fe608060405234801561001057600080fd5b50600436106101825760003560e01c8063a67a03ab116100d8578063dac7f24d1161008c578063e443978511610066578063e443978514610b0e578063ea40a7a414610b34578063fb54cc4014610b6057610182565b8063dac7f24d14610a19578063e143194514610a36578063e1c28bef14610b0657610182565b8063afc93505116100bd578063afc935051461087d578063b429afeb146109cd578063d73cd47f146109f357610182565b8063a67a03ab14610831578063a7fc7a071461085757610182565b8063634b5b7d1161013a57806377fa7d981161011457806377fa7d98146104cc5780638dbf88c8146106205780639277a1851461080b57610182565b8063634b5b7d146103a05780636c7c402f146103d85780636e3c7c7f146103fe57610182565b80631e4ad6a21161016b5780631e4ad6a2146101ed5780632866519d1461020a5780635bb478081461037a57610182565b80631459457a14610187578063158ef93e146101d1575b600080fd5b6101cf600480360360a081101561019d57600080fd5b506001600160a01b03813581169160208101358216916040820135811691606081013582169160809091013516610b86565b005b6101d9610c91565b604080519115158252519081900360200190f35b6101cf6004803603602081101561020357600080fd5b5035610cb2565b61035e600480360361010081101561022157600080fd5b81019060208101813564010000000081111561023c57600080fd5b82018360208201111561024e57600080fd5b8035906020019184600183028401116401000000008311171561027057600080fd5b91908080601f01602080910402602001604051908101604052809392919081815260200183838082843760009201919091525092959493602081019350359150506401000000008111156102c357600080fd5b8201836020820111156102d557600080fd5b803590602001918460018302840111640100000000831117156102f757600080fd5b91908080601f0160208091040260200160405190810160405280939291908181526020018383808284376000920191909152509295505082359350505060208101359060408101359060608101359060808101359060a001356001600160a01b0316610da7565b604080516001600160a01b039092168252519081900360200190f35b6101cf6004803603602081101561039057600080fd5b50356001600160a01b0316610fc0565b6103c6600480360360208110156103b657600080fd5b50356001600160a01b0316611057565b60408051918252519081900360200190f35b6101cf600480360360208110156103ee57600080fd5b50356001600160a01b0316611231565b61035e600480360360a081101561041457600080fd5b6001600160a01b03823516919081019060408101602082013564010000000081111561043f57600080fd5b82018360208201111561045157600080fd5b8035906020019184600183028401116401000000008311171561047357600080fd5b91908080601f016020809104026020016040519081016040528093929190818152602001838380828437600092019190915250929550506001600160a01b03833581169450602084013516926040013591506112c89050565b61035e60048036036101008110156104e357600080fd5b8101906020810181356401000000008111156104fe57600080fd5b82018360208201111561051057600080fd5b8035906020019184600183028401116401000000008311171561053257600080fd5b91908080601f016020809104026020016040519081016040528093929190818152602001838380828437600092019190915250929594936020810193503591505064010000000081111561058557600080fd5b82018360208201111561059757600080fd5b803590602001918460018302840111640100000000831117156105b957600080fd5b91908080601f0160208091040260200160405190810160405280939291908181526020018383808284376000920191909152509295505082359350505060208101359060408101359060608101359060808101359060a001356001600160a01b0316611397565b61035e600480360361014081101561063757600080fd5b6001600160a01b03823516919081019060408101602082013564010000000081111561066257600080fd5b82018360208201111561067457600080fd5b8035906020019184600183028401116401000000008311171561069657600080fd5b91908080601f01602080910402602001604051908101604052809392919081815260200183838082843760009201919091525092959493602081019350359150506401000000008111156106e957600080fd5b8201836020820111156106fb57600080fd5b8035906020019184600183028401116401000000008311171561071d57600080fd5b91908080601f016020809104026020016040519081016040528093929190818152602001838380828437600092019190915250929594936020810193503591505064010000000081111561077057600080fd5b82018360208201111561078257600080fd5b803590602001918460018302840111640100000000831117156107a457600080fd5b91908080601f0160208091040260200160405190810160405280939291908181526020018383808284376000920191909152509295505082359350505060208101359060408101359060608101359060808101359060a001356001600160a01b03166116ae565b6101cf6004803603602081101561082157600080fd5b50356001600160a01b0316611862565b6101cf6004803603602081101561084757600080fd5b50356001600160a01b03166118f9565b6101cf6004803603602081101561086d57600080fd5b50356001600160a01b03166119fb565b61035e600480360360a081101561089357600080fd5b6001600160a01b0382351691908101906040810160208201356401000000008111156108be57600080fd5b8201836020820111156108d057600080fd5b803590602001918460018302840111640100000000831117156108f257600080fd5b91908080601f01602080910402602001604051908101604052809392919081815260200183838082843760009201919091525092956001600160a01b0385351695909490935060408101925060200135905064010000000081111561095657600080fd5b82018360208201111561096857600080fd5b8035906020019184600183028401116401000000008311171561098a57600080fd5b91908080601f0160208091040260200160405190810160405280939291908181526020018383808284376000920191909152509295505091359250611a9a915050565b6101d9600480360360208110156109e357600080fd5b50356001600160a01b0316611bbb565b6101cf60048036036020811015610a0957600080fd5b50356001600160a01b0316611bd9565b6101cf60048036036020811015610a2f57600080fd5b5035611c70565b61035e600480360360a0811015610a4c57600080fd5b6001600160a01b038235169190810190604081016020820135640100000000811115610a7757600080fd5b820183602082011115610a8957600080fd5b80359060200191846001830284011164010000000083111715610aab57600080fd5b91908080601f016020809104026020016040519081016040528093929190818152602001838380828437600092019190915250929550506001600160a01b03833581169450602084013516926040013515159150611d4a9050565b6101cf611e23565b6103c660048036036020811015610b2457600080fd5b50356001600160a01b0316611e8b565b6103c660048036036040811015610b4a57600080fd5b506001600160a01b038135169060200135612013565b6101cf60048036036020811015610b7657600080fd5b50356001600160a01b0316612106565b3360009081526020819052604090205460ff16151560011480610ba857503033145b610be35760405162461bcd60e51b81526004018080602001828103825260288152602001806128506028913960400191505060405180910390fd5b600180547fffffffffffffffffffffffff00000000000000000000000000000000000000009081166001600160a01b039788161790915560028054821695871695909517909455600380548516938616939093179092556004805484169185169190911790556005805474010000000000000000000000000000000000000000931691909316177fffffffffffffffffffffff00ffffffffffffffffffffffffffffffffffffffff16179055565b60055474010000000000000000000000000000000000000000900460ff1690565b3360009081526020819052604090205460ff16151560011480610cd457503033145b610d0f5760405162461bcd60e51b81526004018080602001828103825260288152602001806128506028913960400191505060405180910390fd5b600154604080517f85efa54c0000000000000000000000000000000000000000000000000000000081526001600160a01b0390921660048301526024820183905251739eAc2A20bFB02a065b5B721109Ce51D4730B9e92916385efa54c916044808301926000929190829003018186803b158015610d8c57600080fd5b505af4158015610da0573d6000803e3d6000fd5b5050505050565b3360009081526020819052604081205460ff16151560011480610dc957503033145b610e045760405162461bcd60e51b81526004018080602001828103825260288152602001806128506028913960400191505060405180910390fd5b739eAc2A20bFB02a065b5B721109Ce51D4730B9e92631500cfba600260009054906101000a90046001600160a01b03168b8b8b8b8b8b8b8b6040518a63ffffffff1660e01b8152600401808a6001600160a01b031681526020018060200180602001898152602001888152602001878152602001868152602001858152602001846001600160a01b0316815260200183810383528b818151815260200191508051906020019080838360005b83811015610ec8578181015183820152602001610eb0565b50505050905090810190601f168015610ef55780820380516001836020036101000a031916815260200191505b5083810382528a5181528a516020918201918c019080838360005b83811015610f28578181015183820152602001610f10565b50505050905090810190601f168015610f555780820380516001836020036101000a031916815260200191505b509b50505050505050505050505060206040518083038186803b158015610f7b57600080fd5b505af4158015610f8f573d6000803e3d6000fd5b505050506040513d6020811015610fa557600080fd5b50519050610fb433808361219d565b98975050505050505050565b3360009081526020819052604090205460ff16151560011480610fe257503033145b61101d5760405162461bcd60e51b81526004018080602001828103825260288152602001806128506028913960400191505060405180910390fd5b600280547fffffffffffffffffffffffff0000000000000000000000000000000000000000166001600160a01b0392909216919091179055565b3360009081526020819052604081205460ff1615156001148061107957503033145b6110b45760405162461bcd60e51b81526004018080602001828103825260288152602001806128506028913960400191505060405180910390fd5b600154604080517fed7aae2b000000000000000000000000000000000000000000000000000000008152600060048201819052915191926001600160a01b03169163ed7aae2b91602480820192602092909190829003018186803b15801561111b57600080fd5b505afa15801561112f573d6000803e3d6000fd5b505050506040513d602081101561114557600080fd5b50519050620f4240811061115d57600091505061122c565b60018054604080517f156e29f60000000000000000000000000000000000000000000000000000000081526001600160a01b03878116600483015260006024830181905260448301959095529151919092169263156e29f6926064808201939182900301818387803b1580156111d257600080fd5b505af11580156111e6573d6000803e3d6000fd5b5050604080516001815290516001600160a01b03871693507f1b9ddf8f7c45e0567932349c127951357a3f9b5a821eeeec6e44d771debbb49092509081900360200190a2505b919050565b3360009081526020819052604090205460ff1615156001148061125357503033145b61128e5760405162461bcd60e51b81526004018080602001828103825260288152602001806128506028913960400191505060405180910390fd5b600480547fffffffffffffffffffffffff0000000000000000000000000000000000000000166001600160a01b0392909216919091179055565b600073ab14bBF2998944255052bdBE1258cb863D330A4e63f87924d08585856040518463ffffffff1660e01b815260040180846001600160a01b03168152602001836001600160a01b03168152602001828152602001935050505060206040518083038186803b15801561133b57600080fd5b505af415801561134f573d6000803e3d6000fd5b505050506040513d602081101561136557600080fd5b505160015460045491925061138d9130916001600160a01b0390811691168960028a87612585565b5095945050505050565b3360009081526020819052604081205460ff161515600114806113b957503033145b6113f45760405162461bcd60e51b81526004018080602001828103825260288152602001806128506028913960400191505060405180910390fd5b739eAc2A20bFB02a065b5B721109Ce51D4730B9e92631500cfba600260009054906101000a90046001600160a01b03168b8b8b8b8b8b8b8b6040518a63ffffffff1660e01b8152600401808a6001600160a01b031681526020018060200180602001898152602001888152602001878152602001868152602001858152602001846001600160a01b0316815260200183810383528b818151815260200191508051906020019080838360005b838110156114b85781810151838201526020016114a0565b50505050905090810190601f1680156114e55780820380516001836020036101000a031916815260200191505b5083810382528a5181528a516020918201918c019080838360005b83811015611518578181015183820152602001611500565b50505050905090810190601f1680156115455780820380516001836020036101000a031916815260200191505b509b50505050505050505050505060206040518083038186803b15801561156b57600080fd5b505af415801561157f573d6000803e3d6000fd5b505050506040513d602081101561159557600080fd5b5051604080517f02d05d3f0000000000000000000000000000000000000000000000000000000081529051919250610fb4916001600160a01b038416916302d05d3f916004808301926020929190829003018186803b1580156115f757600080fd5b505afa15801561160b573d6000803e3d6000fd5b505050506040513d602081101561162157600080fd5b5051604080517f041ae88000000000000000000000000000000000000000000000000000000000815290516001600160a01b0385169163041ae880916004808301926020929190829003018186803b15801561167c57600080fd5b505afa158015611690573d6000803e3d6000fd5b505050506040513d60208110156116a657600080fd5b50518361219d565b600073ab14bBF2998944255052bdBE1258cb863D330A4e6367083d6c8a8a8a8a8a8a8a8a6040518963ffffffff1660e01b8152600401808060200180602001898152602001888152602001878152602001868152602001858152602001846001600160a01b0316815260200183810383528b818151815260200191508051906020019080838360005b8381101561174f578181015183820152602001611737565b50505050905090810190601f16801561177c5780820380516001836020036101000a031916815260200191505b5083810382528a5181528a516020918201918c019080838360005b838110156117af578181015183820152602001611797565b50505050905090810190601f1680156117dc5780820380516001836020036101000a031916815260200191505b509a505050505050505050505060206040518083038186803b15801561180157600080fd5b505af4158015611815573d6000803e3d6000fd5b505050506040513d602081101561182b57600080fd5b50516001546004549192506118539130916001600160a01b0390811691168e60008f87612585565b509a9950505050505050505050565b3360009081526020819052604090205460ff1615156001148061188457503033145b6118bf5760405162461bcd60e51b81526004018080602001828103825260288152602001806128506028913960400191505060405180910390fd5b600380547fffffffffffffffffffffffff0000000000000000000000000000000000000000166001600160a01b0392909216919091179055565b3360009081526020819052604090205460ff1615156001148061191b57503033145b6119565760405162461bcd60e51b81526004018080602001828103825260288152602001806128506028913960400191505060405180910390fd5b600154600254600354600554604080517f192ca8e90000000000000000000000000000000000000000000000000000000081526001600160a01b039586166004820152938516602485015230604485015291841660648401528316608483015291831660a4820152905173ab14bBF2998944255052bdBE1258cb863D330A4e9163192ca8e99160c4808301926000929190829003018186803b158015610d8c57600080fd5b3360009081526020819052604090205460ff16151560011480611a1d57503033145b611a585760405162461bcd60e51b81526004018080602001828103825260288152602001806128506028913960400191505060405180910390fd5b6001600160a01b0316600090815260208190526040902080547fffffffffffffffffffffffffffffffffffffffffffffffffffffffffffffff00166001179055565b600073ab14bBF2998944255052bdBE1258cb863D330A4e63c9ceb9518585856040518463ffffffff1660e01b815260040180846001600160a01b0316815260200180602001838152602001828103825284818151815260200191508051906020019080838360005b83811015611b1a578181015183820152602001611b02565b50505050905090810190601f168015611b475780820380516001836020036101000a031916815260200191505b5094505050505060206040518083038186803b158015611b6657600080fd5b505af4158015611b7a573d6000803e3d6000fd5b505050506040513d6020811015611b9057600080fd5b50516001805460045492935061138d9230926001600160a01b0392831692909116908a908a87612585565b6001600160a01b031660009081526020819052604090205460ff1690565b3360009081526020819052604090205460ff16151560011480611bfb57503033145b611c365760405162461bcd60e51b81526004018080602001828103825260288152602001806128506028913960400191505060405180910390fd5b600580547fffffffffffffffffffffffff0000000000000000000000000000000000000000166001600160a01b0392909216919091179055565b3360009081526020819052604090205460ff16151560011480611c9257503033145b611ccd5760405162461bcd60e51b81526004018080602001828103825260288152602001806128506028913960400191505060405180910390fd5b600154604080517f8851debd0000000000000000000000000000000000000000000000000000000081526001600160a01b0390921660048301526024820183905251739eAc2A20bFB02a065b5B721109Ce51D4730B9e9291638851debd916044808301926000929190829003018186803b158015610d8c57600080fd5b604080517fd6c49d760000000000000000000000000000000000000000000000000000000081526001600160a01b038086166004830152841660248201528215156044820152905160009173ab14bBF2998944255052bdBE1258cb863D330A4e9163d6c49d7691606480820192602092909190829003018186803b158015611dd157600080fd5b505af4158015611de5573d6000803e3d6000fd5b505050506040513d6020811015611dfb57600080fd5b505160015460045491925061138d9130916001600160a01b0390811691168960038a87612585565b3360009081526020819052604090205460ff16151560011480611e4557503033145b611e805760405162461bcd60e51b81526004018080602001828103825260288152602001806128506028913960400191505060405180910390fd5b336000908152602052565b6005546000907501000000000000000000000000000000000000000000900460ff1615611eff576040805162461bcd60e51b815260206004820152600e60248201527f414c52454144595f495353554544000000000000000000000000000000000000604482015290519081900360640190fd5b600154604080517f156e29f60000000000000000000000000000000000000000000000000000000081526001600160a01b0385811660048301526000602483018190526207a1206044840152925193169263156e29f69260648084019391929182900301818387803b158015611f7457600080fd5b505af1158015611f88573d6000803e3d6000fd5b5050600580547fffffffffffffffffffff00ffffffffffffffffffffffffffffffffffffffffff1675010000000000000000000000000000000000000000001790555050604080516207a120815290516001600160a01b038416917f1b9ddf8f7c45e0567932349c127951357a3f9b5a821eeeec6e44d771debbb490919081900360200190a2919050565b3360009081526020819052604081205460ff1615156001148061203557503033145b6120705760405162461bcd60e51b81526004018080602001828103825260288152602001806128506028913960400191505060405180910390fd5b60018054604080517f156e29f60000000000000000000000000000000000000000000000000000000081526001600160a01b0387811660048301526024820194909452604481018690529051929091169163156e29f69160648082019260009290919082900301818387803b1580156120e857600080fd5b505af11580156120fc573d6000803e3d6000fd5b5050505092915050565b3360009081526020819052604090205460ff1615156001148061212857503033145b6121635760405162461bcd60e51b81526004018080602001828103825260288152602001806128506028913960400191505060405180910390fd5b600180547fffffffffffffffffffffffff0000000000000000000000000000000000000000166001600160a01b0392909216919091179055565b600154604080517fa7fc7a070000000000000000000000000000000000000000000000000000000081526001600160a01b0384811660048301529151919092169163a7fc7a0791602480830192600092919082900301818387803b15801561220457600080fd5b505af1158015612218573d6000803e3d6000fd5b5050600154604080517fef72f2760000000000000000000000000000000000000000000000000000000081526001600160a01b038681166004830152915191909216935063ef72f2769250602480830192600092919082900301818387803b15801561228357600080fd5b505af1158015612297573d6000803e3d6000fd5b5050604080517fa7fc7a070000000000000000000000000000000000000000000000000000000081526001600160a01b0385166004820152905130935063a7fc7a079250602480830192600092919082900301818387803b1580156122fb57600080fd5b505af115801561230f573d6000803e3d6000fd5b5050600154604080517fd104f8f50000000000000000000000000000000000000000000000000000000081526001600160a01b0392831660048201529051918516935063d104f8f5925060248082019260009290919082900301818387803b15801561237a57600080fd5b505af115801561238e573d6000803e3d6000fd5b5050600554604080517fd73cd47f0000000000000000000000000000000000000000000000000000000081526001600160a01b0392831660048201529051918516935063d73cd47f925060248082019260009290919082900301818387803b1580156123f957600080fd5b505af115801561240d573d6000803e3d6000fd5b5050604080517fc42cf53500000000000000000000000000000000000000000000000000000000815230600482015290516001600160a01b038516935063c42cf5359250602480830192600092919082900301818387803b15801561247157600080fd5b505af1158015612485573d6000803e3d6000fd5b5050600354604080517f9277a1850000000000000000000000000000000000000000000000000000000081526001600160a01b03928316600482015290519185169350639277a185925060248082019260009290919082900301818387803b1580156124f057600080fd5b505af1158015612504573d6000803e3d6000fd5b50505050806001600160a01b0316632449ef5184846040518363ffffffff1660e01b815260040180836001600160a01b03168152602001826001600160a01b0316815260200192505050600060405180830381600087803b15801561256857600080fd5b505af115801561257c573d6000803e3d6000fd5b50505050505050565b6000856001600160a01b0316634c300076868585886040518563ffffffff1660e01b815260040180856001600160a01b0316815260200180602001846001600160a01b031681526020018360038111156125db57fe5b8152602001828103825285818151815260200191508051906020019080838360005b838110156126155781810151838201526020016125fd565b50505050905090810190601f1680156126425780820380516001836020036101000a031916815260200191505b5095505050505050602060405180830381600087803b15801561266457600080fd5b505af1158015612678573d6000803e3d6000fd5b505050506040513d602081101561268e57600080fd5b5051604080517fd104f8f50000000000000000000000000000000000000000000000000000000081526001600160a01b038a8116600483015291519293509083169163d104f8f59160248082019260009290919082900301818387803b1580156126f757600080fd5b505af115801561270b573d6000803e3d6000fd5b50505050806001600160a01b031663c42cf535896040518263ffffffff1660e01b815260040180826001600160a01b03168152602001915050600060405180830381600087803b15801561275e57600080fd5b505af1158015612772573d6000803e3d6000fd5b50505050866001600160a01b031663a7fc7a07826040518263ffffffff1660e01b815260040180826001600160a01b03168152602001915050600060405180830381600087803b1580156127c557600080fd5b505af11580156127d9573d6000803e3d6000fd5b50505050876001600160a01b031663a7fc7a07826040518263ffffffff1660e01b815260040180826001600160a01b03168152602001915050600060405180830381600087803b15801561282c57600080fd5b505af1158015612840573d6000803e3d6000fd5b5050505097965050505050505056fe436f6e74726f6c6c61626c653a2063616c6c6572206973206e6f74206120636f6e74726f6c6c6572a2646970667358221220e6ae51cad23e197cab6d3d7c597871726305e76dc78a81b82a1e369580bce7e864736f6c63430007030033",
  "deployedBytecode": "0x608060405234801561001057600080fd5b50600436106101825760003560e01c8063a67a03ab116100d8578063dac7f24d1161008c578063e443978511610066578063e443978514610b0e578063ea40a7a414610b34578063fb54cc4014610b6057610182565b8063dac7f24d14610a19578063e143194514610a36578063e1c28bef14610b0657610182565b8063afc93505116100bd578063afc935051461087d578063b429afeb146109cd578063d73cd47f146109f357610182565b8063a67a03ab14610831578063a7fc7a071461085757610182565b8063634b5b7d1161013a57806377fa7d981161011457806377fa7d98146104cc5780638dbf88c8146106205780639277a1851461080b57610182565b8063634b5b7d146103a05780636c7c402f146103d85780636e3c7c7f146103fe57610182565b80631e4ad6a21161016b5780631e4ad6a2146101ed5780632866519d1461020a5780635bb478081461037a57610182565b80631459457a14610187578063158ef93e146101d1575b600080fd5b6101cf600480360360a081101561019d57600080fd5b506001600160a01b03813581169160208101358216916040820135811691606081013582169160809091013516610b86565b005b6101d9610c91565b604080519115158252519081900360200190f35b6101cf6004803603602081101561020357600080fd5b5035610cb2565b61035e600480360361010081101561022157600080fd5b81019060208101813564010000000081111561023c57600080fd5b82018360208201111561024e57600080fd5b8035906020019184600183028401116401000000008311171561027057600080fd5b91908080601f01602080910402602001604051908101604052809392919081815260200183838082843760009201919091525092959493602081019350359150506401000000008111156102c357600080fd5b8201836020820111156102d557600080fd5b803590602001918460018302840111640100000000831117156102f757600080fd5b91908080601f0160208091040260200160405190810160405280939291908181526020018383808284376000920191909152509295505082359350505060208101359060408101359060608101359060808101359060a001356001600160a01b0316610da7565b604080516001600160a01b039092168252519081900360200190f35b6101cf6004803603602081101561039057600080fd5b50356001600160a01b0316610fc0565b6103c6600480360360208110156103b657600080fd5b50356001600160a01b0316611057565b60408051918252519081900360200190f35b6101cf600480360360208110156103ee57600080fd5b50356001600160a01b0316611231565b61035e600480360360a081101561041457600080fd5b6001600160a01b03823516919081019060408101602082013564010000000081111561043f57600080fd5b82018360208201111561045157600080fd5b8035906020019184600183028401116401000000008311171561047357600080fd5b91908080601f016020809104026020016040519081016040528093929190818152602001838380828437600092019190915250929550506001600160a01b03833581169450602084013516926040013591506112c89050565b61035e60048036036101008110156104e357600080fd5b8101906020810181356401000000008111156104fe57600080fd5b82018360208201111561051057600080fd5b8035906020019184600183028401116401000000008311171561053257600080fd5b91908080601f016020809104026020016040519081016040528093929190818152602001838380828437600092019190915250929594936020810193503591505064010000000081111561058557600080fd5b82018360208201111561059757600080fd5b803590602001918460018302840111640100000000831117156105b957600080fd5b91908080601f0160208091040260200160405190810160405280939291908181526020018383808284376000920191909152509295505082359350505060208101359060408101359060608101359060808101359060a001356001600160a01b0316611397565b61035e600480360361014081101561063757600080fd5b6001600160a01b03823516919081019060408101602082013564010000000081111561066257600080fd5b82018360208201111561067457600080fd5b8035906020019184600183028401116401000000008311171561069657600080fd5b91908080601f01602080910402602001604051908101604052809392919081815260200183838082843760009201919091525092959493602081019350359150506401000000008111156106e957600080fd5b8201836020820111156106fb57600080fd5b8035906020019184600183028401116401000000008311171561071d57600080fd5b91908080601f016020809104026020016040519081016040528093929190818152602001838380828437600092019190915250929594936020810193503591505064010000000081111561077057600080fd5b82018360208201111561078257600080fd5b803590602001918460018302840111640100000000831117156107a457600080fd5b91908080601f0160208091040260200160405190810160405280939291908181526020018383808284376000920191909152509295505082359350505060208101359060408101359060608101359060808101359060a001356001600160a01b03166116ae565b6101cf6004803603602081101561082157600080fd5b50356001600160a01b0316611862565b6101cf6004803603602081101561084757600080fd5b50356001600160a01b03166118f9565b6101cf6004803603602081101561086d57600080fd5b50356001600160a01b03166119fb565b61035e600480360360a081101561089357600080fd5b6001600160a01b0382351691908101906040810160208201356401000000008111156108be57600080fd5b8201836020820111156108d057600080fd5b803590602001918460018302840111640100000000831117156108f257600080fd5b91908080601f01602080910402602001604051908101604052809392919081815260200183838082843760009201919091525092956001600160a01b0385351695909490935060408101925060200135905064010000000081111561095657600080fd5b82018360208201111561096857600080fd5b8035906020019184600183028401116401000000008311171561098a57600080fd5b91908080601f0160208091040260200160405190810160405280939291908181526020018383808284376000920191909152509295505091359250611a9a915050565b6101d9600480360360208110156109e357600080fd5b50356001600160a01b0316611bbb565b6101cf60048036036020811015610a0957600080fd5b50356001600160a01b0316611bd9565b6101cf60048036036020811015610a2f57600080fd5b5035611c70565b61035e600480360360a0811015610a4c57600080fd5b6001600160a01b038235169190810190604081016020820135640100000000811115610a7757600080fd5b820183602082011115610a8957600080fd5b80359060200191846001830284011164010000000083111715610aab57600080fd5b91908080601f016020809104026020016040519081016040528093929190818152602001838380828437600092019190915250929550506001600160a01b03833581169450602084013516926040013515159150611d4a9050565b6101cf611e23565b6103c660048036036020811015610b2457600080fd5b50356001600160a01b0316611e8b565b6103c660048036036040811015610b4a57600080fd5b506001600160a01b038135169060200135612013565b6101cf60048036036020811015610b7657600080fd5b50356001600160a01b0316612106565b3360009081526020819052604090205460ff16151560011480610ba857503033145b610be35760405162461bcd60e51b81526004018080602001828103825260288152602001806128506028913960400191505060405180910390fd5b600180547fffffffffffffffffffffffff00000000000000000000000000000000000000009081166001600160a01b039788161790915560028054821695871695909517909455600380548516938616939093179092556004805484169185169190911790556005805474010000000000000000000000000000000000000000931691909316177fffffffffffffffffffffff00ffffffffffffffffffffffffffffffffffffffff16179055565b60055474010000000000000000000000000000000000000000900460ff1690565b3360009081526020819052604090205460ff16151560011480610cd457503033145b610d0f5760405162461bcd60e51b81526004018080602001828103825260288152602001806128506028913960400191505060405180910390fd5b600154604080517f85efa54c0000000000000000000000000000000000000000000000000000000081526001600160a01b039092166004830152602482018390525173__$415eb1c69eabc622d82690315fa0e33bfb$__916385efa54c916044808301926000929190829003018186803b158015610d8c57600080fd5b505af4158015610da0573d6000803e3d6000fd5b5050505050565b3360009081526020819052604081205460ff16151560011480610dc957503033145b610e045760405162461bcd60e51b81526004018080602001828103825260288152602001806128506028913960400191505060405180910390fd5b73__$415eb1c69eabc622d82690315fa0e33bfb$__631500cfba600260009054906101000a90046001600160a01b03168b8b8b8b8b8b8b8b6040518a63ffffffff1660e01b8152600401808a6001600160a01b031681526020018060200180602001898152602001888152602001878152602001868152602001858152602001846001600160a01b0316815260200183810383528b818151815260200191508051906020019080838360005b83811015610ec8578181015183820152602001610eb0565b50505050905090810190601f168015610ef55780820380516001836020036101000a031916815260200191505b5083810382528a5181528a516020918201918c019080838360005b83811015610f28578181015183820152602001610f10565b50505050905090810190601f168015610f555780820380516001836020036101000a031916815260200191505b509b50505050505050505050505060206040518083038186803b158015610f7b57600080fd5b505af4158015610f8f573d6000803e3d6000fd5b505050506040513d6020811015610fa557600080fd5b50519050610fb433808361219d565b98975050505050505050565b3360009081526020819052604090205460ff16151560011480610fe257503033145b61101d5760405162461bcd60e51b81526004018080602001828103825260288152602001806128506028913960400191505060405180910390fd5b600280547fffffffffffffffffffffffff0000000000000000000000000000000000000000166001600160a01b0392909216919091179055565b3360009081526020819052604081205460ff1615156001148061107957503033145b6110b45760405162461bcd60e51b81526004018080602001828103825260288152602001806128506028913960400191505060405180910390fd5b600154604080517fed7aae2b000000000000000000000000000000000000000000000000000000008152600060048201819052915191926001600160a01b03169163ed7aae2b91602480820192602092909190829003018186803b15801561111b57600080fd5b505afa15801561112f573d6000803e3d6000fd5b505050506040513d602081101561114557600080fd5b50519050620f4240811061115d57600091505061122c565b60018054604080517f156e29f60000000000000000000000000000000000000000000000000000000081526001600160a01b03878116600483015260006024830181905260448301959095529151919092169263156e29f6926064808201939182900301818387803b1580156111d257600080fd5b505af11580156111e6573d6000803e3d6000fd5b5050604080516001815290516001600160a01b03871693507f1b9ddf8f7c45e0567932349c127951357a3f9b5a821eeeec6e44d771debbb49092509081900360200190a2505b919050565b3360009081526020819052604090205460ff1615156001148061125357503033145b61128e5760405162461bcd60e51b81526004018080602001828103825260288152602001806128506028913960400191505060405180910390fd5b600480547fffffffffffffffffffffffff0000000000000000000000000000000000000000166001600160a01b0392909216919091179055565b600073__$c2cf3eebb563d155e336d59c40be15cffe$__63f87924d08585856040518463ffffffff1660e01b815260040180846001600160a01b03168152602001836001600160a01b03168152602001828152602001935050505060206040518083038186803b15801561133b57600080fd5b505af415801561134f573d6000803e3d6000fd5b505050506040513d602081101561136557600080fd5b505160015460045491925061138d9130916001600160a01b0390811691168960028a87612585565b5095945050505050565b3360009081526020819052604081205460ff161515600114806113b957503033145b6113f45760405162461bcd60e51b81526004018080602001828103825260288152602001806128506028913960400191505060405180910390fd5b73__$415eb1c69eabc622d82690315fa0e33bfb$__631500cfba600260009054906101000a90046001600160a01b03168b8b8b8b8b8b8b8b6040518a63ffffffff1660e01b8152600401808a6001600160a01b031681526020018060200180602001898152602001888152602001878152602001868152602001858152602001846001600160a01b0316815260200183810383528b818151815260200191508051906020019080838360005b838110156114b85781810151838201526020016114a0565b50505050905090810190601f1680156114e55780820380516001836020036101000a031916815260200191505b5083810382528a5181528a516020918201918c019080838360005b83811015611518578181015183820152602001611500565b50505050905090810190601f1680156115455780820380516001836020036101000a031916815260200191505b509b50505050505050505050505060206040518083038186803b15801561156b57600080fd5b505af415801561157f573d6000803e3d6000fd5b505050506040513d602081101561159557600080fd5b5051604080517f02d05d3f0000000000000000000000000000000000000000000000000000000081529051919250610fb4916001600160a01b038416916302d05d3f916004808301926020929190829003018186803b1580156115f757600080fd5b505afa15801561160b573d6000803e3d6000fd5b505050506040513d602081101561162157600080fd5b5051604080517f041ae88000000000000000000000000000000000000000000000000000000000815290516001600160a01b0385169163041ae880916004808301926020929190829003018186803b15801561167c57600080fd5b505afa158015611690573d6000803e3d6000fd5b505050506040513d60208110156116a657600080fd5b50518361219d565b600073__$c2cf3eebb563d155e336d59c40be15cffe$__6367083d6c8a8a8a8a8a8a8a8a6040518963ffffffff1660e01b8152600401808060200180602001898152602001888152602001878152602001868152602001858152602001846001600160a01b0316815260200183810383528b818151815260200191508051906020019080838360005b8381101561174f578181015183820152602001611737565b50505050905090810190601f16801561177c5780820380516001836020036101000a031916815260200191505b5083810382528a5181528a516020918201918c019080838360005b838110156117af578181015183820152602001611797565b50505050905090810190601f1680156117dc5780820380516001836020036101000a031916815260200191505b509a505050505050505050505060206040518083038186803b15801561180157600080fd5b505af4158015611815573d6000803e3d6000fd5b505050506040513d602081101561182b57600080fd5b50516001546004549192506118539130916001600160a01b0390811691168e60008f87612585565b509a9950505050505050505050565b3360009081526020819052604090205460ff1615156001148061188457503033145b6118bf5760405162461bcd60e51b81526004018080602001828103825260288152602001806128506028913960400191505060405180910390fd5b600380547fffffffffffffffffffffffff0000000000000000000000000000000000000000166001600160a01b0392909216919091179055565b3360009081526020819052604090205460ff1615156001148061191b57503033145b6119565760405162461bcd60e51b81526004018080602001828103825260288152602001806128506028913960400191505060405180910390fd5b600154600254600354600554604080517f192ca8e90000000000000000000000000000000000000000000000000000000081526001600160a01b039586166004820152938516602485015230604485015291841660648401528316608483015291831660a4820152905173__$c2cf3eebb563d155e336d59c40be15cffe$__9163192ca8e99160c4808301926000929190829003018186803b158015610d8c57600080fd5b3360009081526020819052604090205460ff16151560011480611a1d57503033145b611a585760405162461bcd60e51b81526004018080602001828103825260288152602001806128506028913960400191505060405180910390fd5b6001600160a01b0316600090815260208190526040902080547fffffffffffffffffffffffffffffffffffffffffffffffffffffffffffffff00166001179055565b600073__$c2cf3eebb563d155e336d59c40be15cffe$__63c9ceb9518585856040518463ffffffff1660e01b815260040180846001600160a01b0316815260200180602001838152602001828103825284818151815260200191508051906020019080838360005b83811015611b1a578181015183820152602001611b02565b50505050905090810190601f168015611b475780820380516001836020036101000a031916815260200191505b5094505050505060206040518083038186803b158015611b6657600080fd5b505af4158015611b7a573d6000803e3d6000fd5b505050506040513d6020811015611b9057600080fd5b50516001805460045492935061138d9230926001600160a01b0392831692909116908a908a87612585565b6001600160a01b031660009081526020819052604090205460ff1690565b3360009081526020819052604090205460ff16151560011480611bfb57503033145b611c365760405162461bcd60e51b81526004018080602001828103825260288152602001806128506028913960400191505060405180910390fd5b600580547fffffffffffffffffffffffff0000000000000000000000000000000000000000166001600160a01b0392909216919091179055565b3360009081526020819052604090205460ff16151560011480611c9257503033145b611ccd5760405162461bcd60e51b81526004018080602001828103825260288152602001806128506028913960400191505060405180910390fd5b600154604080517f8851debd0000000000000000000000000000000000000000000000000000000081526001600160a01b039092166004830152602482018390525173__$415eb1c69eabc622d82690315fa0e33bfb$__91638851debd916044808301926000929190829003018186803b158015610d8c57600080fd5b604080517fd6c49d760000000000000000000000000000000000000000000000000000000081526001600160a01b038086166004830152841660248201528215156044820152905160009173__$c2cf3eebb563d155e336d59c40be15cffe$__9163d6c49d7691606480820192602092909190829003018186803b158015611dd157600080fd5b505af4158015611de5573d6000803e3d6000fd5b505050506040513d6020811015611dfb57600080fd5b505160015460045491925061138d9130916001600160a01b0390811691168960038a87612585565b3360009081526020819052604090205460ff16151560011480611e4557503033145b611e805760405162461bcd60e51b81526004018080602001828103825260288152602001806128506028913960400191505060405180910390fd5b336000908152602052565b6005546000907501000000000000000000000000000000000000000000900460ff1615611eff576040805162461bcd60e51b815260206004820152600e60248201527f414c52454144595f495353554544000000000000000000000000000000000000604482015290519081900360640190fd5b600154604080517f156e29f60000000000000000000000000000000000000000000000000000000081526001600160a01b0385811660048301526000602483018190526207a1206044840152925193169263156e29f69260648084019391929182900301818387803b158015611f7457600080fd5b505af1158015611f88573d6000803e3d6000fd5b5050600580547fffffffffffffffffffff00ffffffffffffffffffffffffffffffffffffffffff1675010000000000000000000000000000000000000000001790555050604080516207a120815290516001600160a01b038416917f1b9ddf8f7c45e0567932349c127951357a3f9b5a821eeeec6e44d771debbb490919081900360200190a2919050565b3360009081526020819052604081205460ff1615156001148061203557503033145b6120705760405162461bcd60e51b81526004018080602001828103825260288152602001806128506028913960400191505060405180910390fd5b60018054604080517f156e29f60000000000000000000000000000000000000000000000000000000081526001600160a01b0387811660048301526024820194909452604481018690529051929091169163156e29f69160648082019260009290919082900301818387803b1580156120e857600080fd5b505af11580156120fc573d6000803e3d6000fd5b5050505092915050565b3360009081526020819052604090205460ff1615156001148061212857503033145b6121635760405162461bcd60e51b81526004018080602001828103825260288152602001806128506028913960400191505060405180910390fd5b600180547fffffffffffffffffffffffff0000000000000000000000000000000000000000166001600160a01b0392909216919091179055565b600154604080517fa7fc7a070000000000000000000000000000000000000000000000000000000081526001600160a01b0384811660048301529151919092169163a7fc7a0791602480830192600092919082900301818387803b15801561220457600080fd5b505af1158015612218573d6000803e3d6000fd5b5050600154604080517fef72f2760000000000000000000000000000000000000000000000000000000081526001600160a01b038681166004830152915191909216935063ef72f2769250602480830192600092919082900301818387803b15801561228357600080fd5b505af1158015612297573d6000803e3d6000fd5b5050604080517fa7fc7a070000000000000000000000000000000000000000000000000000000081526001600160a01b0385166004820152905130935063a7fc7a079250602480830192600092919082900301818387803b1580156122fb57600080fd5b505af115801561230f573d6000803e3d6000fd5b5050600154604080517fd104f8f50000000000000000000000000000000000000000000000000000000081526001600160a01b0392831660048201529051918516935063d104f8f5925060248082019260009290919082900301818387803b15801561237a57600080fd5b505af115801561238e573d6000803e3d6000fd5b5050600554604080517fd73cd47f0000000000000000000000000000000000000000000000000000000081526001600160a01b0392831660048201529051918516935063d73cd47f925060248082019260009290919082900301818387803b1580156123f957600080fd5b505af115801561240d573d6000803e3d6000fd5b5050604080517fc42cf53500000000000000000000000000000000000000000000000000000000815230600482015290516001600160a01b038516935063c42cf5359250602480830192600092919082900301818387803b15801561247157600080fd5b505af1158015612485573d6000803e3d6000fd5b5050600354604080517f9277a1850000000000000000000000000000000000000000000000000000000081526001600160a01b03928316600482015290519185169350639277a185925060248082019260009290919082900301818387803b1580156124f057600080fd5b505af1158015612504573d6000803e3d6000fd5b50505050806001600160a01b0316632449ef5184846040518363ffffffff1660e01b815260040180836001600160a01b03168152602001826001600160a01b0316815260200192505050600060405180830381600087803b15801561256857600080fd5b505af115801561257c573d6000803e3d6000fd5b50505050505050565b6000856001600160a01b0316634c300076868585886040518563ffffffff1660e01b815260040180856001600160a01b0316815260200180602001846001600160a01b031681526020018360038111156125db57fe5b8152602001828103825285818151815260200191508051906020019080838360005b838110156126155781810151838201526020016125fd565b50505050905090810190601f1680156126425780820380516001836020036101000a031916815260200191505b5095505050505050602060405180830381600087803b15801561266457600080fd5b505af1158015612678573d6000803e3d6000fd5b505050506040513d602081101561268e57600080fd5b5051604080517fd104f8f50000000000000000000000000000000000000000000000000000000081526001600160a01b038a8116600483015291519293509083169163d104f8f59160248082019260009290919082900301818387803b1580156126f757600080fd5b505af115801561270b573d6000803e3d6000fd5b50505050806001600160a01b031663c42cf535896040518263ffffffff1660e01b815260040180826001600160a01b03168152602001915050600060405180830381600087803b15801561275e57600080fd5b505af1158015612772573d6000803e3d6000fd5b50505050866001600160a01b031663a7fc7a07826040518263ffffffff1660e01b815260040180826001600160a01b03168152602001915050600060405180830381600087803b1580156127c557600080fd5b505af11580156127d9573d6000803e3d6000fd5b50505050876001600160a01b031663a7fc7a07826040518263ffffffff1660e01b815260040180826001600160a01b03168152602001915050600060405180830381600087803b15801561282c57600080fd5b505af1158015612840573d6000803e3d6000fd5b5050505097965050505050505056fe436f6e74726f6c6c61626c653a2063616c6c6572206973206e6f74206120636f6e74726f6c6c6572a2646970667358221220e6ae51cad23e197cab6d3d7c597871726305e76dc78a81b82a1e369580bce7e864736f6c63430007030033",
  "libraries": {
    "GovernanceLib": "0x9eAc2A20bFB02a065b5B721109Ce51D4730B9e92",
    "Strings": "0xe98D76f55e5Dae2DE566CC8Aa1a36282742eabf7",
    "SafeMath": "0x753f0df0a61c5F8A0eB31c6Bf6e7363943Eb225B",
    "AddressSet": "0x86fca4de79B7DA4138cB961e0ce32FF17Bb1e3B3",
    "UInt256Set": "0xA7A95c6BA39DA9747ae1fE7C64e4E7ad00dCFD73",
    "Create2": "0x117f8511d54E60dE2F1C63F0Ac1c7C05473cdAa4",
    "ProposalsLib": "0xab14bBF2998944255052bdBE1258cb863D330A4e",
    "ComplexPoolLib": "0x819e15b3A3f4F36965d1a3994060398A5CAa02B6",
    "WrappedTokenLib": "0x2a12942218Ddf38d951A5B107460F6295c758Fc8"
  },
  "devdoc": {
    "kind": "dev",
    "methods": {
      "addController(address)": {
        "details": "Add an address allowed to control this contract"
      },
      "constructor": {
        "details": "contract controller"
      },
      "createChangeFeeProposal(address,string,address,address,uint256)": {
        "details": "create a proposal to change fees for a token / pool"
      },
      "createFundProjectProposal(address,string,address,string,uint256)": {
        "details": "create a proposal to craete a project funding proposal"
      },
      "createNewPoolProposal(address,string,string,string,uint256,uint256,uint256,uint256,uint256,address)": {
        "details": "create a proposal to create a new pool"
      },
      "createPool(string,string,uint256,uint256,uint256,uint256,uint256,address)": {
        "details": "create a new pool - public, only callable by a controller of this contract"
      },
      "createProposalVoteTokens(uint256)": {
        "details": "create proposal vote tokens"
      },
      "createSystemPool(string,string,uint256,uint256,uint256,uint256,uint256,address)": {
        "details": "create a new pool - public, only callable by a controller of this contract"
      },
      "createUpdateAllowlistProposal(address,string,address,address,bool)": {
        "details": "create a proposal to update the allowlist of a token/pool"
      },
      "destroyProposalVoteTokens(uint256)": {
        "details": "destroy proposal vote tokens"
      },
      "executeProposal(address)": {
        "details": "execute proposal"
      },
      "initialize(address,address,address,address,address)": {
        "details": "init this smart contract"
      },
      "initialized()": {
        "details": "is the conntract inited"
      },
      "isController(address)": {
        "details": "Check if this address is a controller"
      },
      "issueFuelToken(address,uint256)": {
        "details": "shhh"
      },
      "issueInitialGovernanceTokens(address)": {
        "details": "issue initial governance tokens"
      },
      "maybeIssueGovernanceToken(address)": {
        "details": "maybe issue a governance token to receiver"
      },
      "relinquishControl()": {
        "details": "Check if this address is a controller"
      },
      "setFactory(address)": {
        "details": "set category category"
      },
      "setFeeTracker(address)": {
        "details": "set category category"
      },
      "setMultitoken(address)": {
        "details": "set category category"
      },
      "setProposalFactory(address)": {
        "details": "set category category"
      },
      "setSwapHelper(address)": {
        "details": "set category category"
      }
    },
    "version": 1
  },
  "userdoc": {
    "kind": "user",
    "methods": {},
    "version": 1
  },
  "storageLayout": {
    "storage": [
      {
        "astId": 10169,
        "contract": "src/governance/NFTGemGovernor.sol:NFTGemGovernor",
        "label": "_controllers",
        "offset": 0,
        "slot": "0",
        "type": "t_mapping(t_address,t_bool)"
      },
      {
        "astId": 12268,
        "contract": "src/governance/NFTGemGovernor.sol:NFTGemGovernor",
        "label": "multitoken",
        "offset": 0,
        "slot": "1",
        "type": "t_address"
      },
      {
        "astId": 12270,
        "contract": "src/governance/NFTGemGovernor.sol:NFTGemGovernor",
        "label": "factory",
        "offset": 0,
        "slot": "2",
        "type": "t_address"
      },
      {
        "astId": 12272,
        "contract": "src/governance/NFTGemGovernor.sol:NFTGemGovernor",
        "label": "feeTracker",
        "offset": 0,
        "slot": "3",
        "type": "t_address"
      },
      {
        "astId": 12274,
        "contract": "src/governance/NFTGemGovernor.sol:NFTGemGovernor",
        "label": "proposalFactory",
        "offset": 0,
        "slot": "4",
        "type": "t_address"
      },
      {
        "astId": 12276,
        "contract": "src/governance/NFTGemGovernor.sol:NFTGemGovernor",
        "label": "swapHelper",
        "offset": 0,
        "slot": "5",
        "type": "t_address"
      },
      {
        "astId": 12278,
        "contract": "src/governance/NFTGemGovernor.sol:NFTGemGovernor",
        "label": "_initialized",
        "offset": 20,
        "slot": "5",
        "type": "t_bool"
      },
      {
        "astId": 12292,
        "contract": "src/governance/NFTGemGovernor.sol:NFTGemGovernor",
        "label": "governanceIssued",
        "offset": 21,
        "slot": "5",
        "type": "t_bool"
      }
    ],
    "types": {
      "t_address": {
        "encoding": "inplace",
        "label": "address",
        "numberOfBytes": "20"
      },
      "t_bool": {
        "encoding": "inplace",
        "label": "bool",
        "numberOfBytes": "1"
      },
      "t_mapping(t_address,t_bool)": {
        "encoding": "mapping",
        "key": "t_address",
        "label": "mapping(address => bool)",
        "numberOfBytes": "32",
        "value": "t_bool"
      }
    }
  }
}