{
  "address": "0xA70EF27bacad08C2b544A76714133d1234a7E01d",
  "abi": [
    {
      "inputs": [],
      "stateMutability": "nonpayable",
      "type": "constructor"
    },
    {
      "anonymous": false,
      "inputs": [
        {
          "indexed": true,
          "internalType": "address",
          "name": "contractAddress",
          "type": "address"
        },
        {
          "indexed": true,
          "internalType": "address",
          "name": "controllerAddress",
          "type": "address"
        }
      ],
      "name": "ControllerAdded",
      "type": "event"
    },
    {
      "anonymous": false,
      "inputs": [
        {
          "indexed": true,
          "internalType": "address",
          "name": "contractAddress",
          "type": "address"
        },
        {
          "indexed": true,
          "internalType": "address",
          "name": "controllerAddress",
          "type": "address"
        }
      ],
      "name": "ControllerRemoved",
      "type": "event"
    },
    {
      "anonymous": false,
      "inputs": [
        {
          "indexed": false,
          "internalType": "string",
          "name": "gemSymbol",
          "type": "string"
        },
        {
          "indexed": false,
          "internalType": "string",
          "name": "gemName",
          "type": "string"
        }
      ],
      "name": "CustomNFTGemPoolCreated",
      "type": "event"
    },
    {
      "anonymous": false,
      "inputs": [
        {
          "indexed": false,
          "internalType": "string",
          "name": "gemSymbol",
          "type": "string"
        },
        {
          "indexed": false,
          "internalType": "string",
          "name": "gemName",
          "type": "string"
        },
        {
          "indexed": false,
          "internalType": "uint256",
          "name": "ethPrice",
          "type": "uint256"
        },
        {
          "indexed": false,
          "internalType": "uint256",
          "name": "mintTime",
          "type": "uint256"
        },
        {
          "indexed": false,
          "internalType": "uint256",
          "name": "maxTime",
          "type": "uint256"
        },
        {
          "indexed": false,
          "internalType": "uint256",
          "name": "diffstep",
          "type": "uint256"
        },
        {
          "indexed": false,
          "internalType": "uint256",
          "name": "maxMint",
          "type": "uint256"
        },
        {
          "indexed": false,
          "internalType": "address",
          "name": "allowedToken",
          "type": "address"
        }
      ],
      "name": "NFTGemPoolCreated",
      "type": "event"
    },
    {
      "inputs": [
        {
          "internalType": "address",
          "name": "_controller",
          "type": "address"
        }
      ],
      "name": "addController",
      "outputs": [],
      "stateMutability": "nonpayable",
      "type": "function"
    },
    {
      "inputs": [
        {
          "internalType": "address",
          "name": "poolAddress",
          "type": "address"
        },
        {
          "internalType": "string",
          "name": "gemSymbol",
          "type": "string"
        },
        {
          "internalType": "string",
          "name": "gemName",
          "type": "string"
        }
      ],
      "name": "addCustomNFTGemPool",
      "outputs": [
        {
          "internalType": "address payable",
          "name": "gemPool",
          "type": "address"
        }
      ],
      "stateMutability": "nonpayable",
      "type": "function"
    },
    {
      "inputs": [
        {
          "internalType": "uint256",
          "name": "idx",
          "type": "uint256"
        }
      ],
      "name": "allNFTGemPools",
      "outputs": [
        {
          "internalType": "address",
          "name": "gemPool",
          "type": "address"
        }
      ],
      "stateMutability": "view",
      "type": "function"
    },
    {
      "inputs": [],
      "name": "allNFTGemPoolsLength",
      "outputs": [
        {
          "internalType": "uint256",
          "name": "",
          "type": "uint256"
        }
      ],
      "stateMutability": "view",
      "type": "function"
    },
    {
      "inputs": [
        {
          "internalType": "bytes",
          "name": "bytecode",
          "type": "bytes"
        },
        {
          "internalType": "string",
          "name": "gemSymbol",
          "type": "string"
        },
        {
          "internalType": "string",
          "name": "gemName",
          "type": "string"
        }
      ],
      "name": "createCustomNFTGemPool",
      "outputs": [
        {
          "internalType": "address payable",
          "name": "gemPool",
          "type": "address"
        }
      ],
      "stateMutability": "nonpayable",
      "type": "function"
    },
    {
      "inputs": [
        {
          "internalType": "string",
          "name": "gemSymbol",
          "type": "string"
        },
        {
          "internalType": "string",
          "name": "gemName",
          "type": "string"
        },
        {
          "internalType": "uint256",
          "name": "ethPrice",
          "type": "uint256"
        },
        {
          "internalType": "uint256",
          "name": "minTime",
          "type": "uint256"
        },
        {
          "internalType": "uint256",
          "name": "maxTime",
          "type": "uint256"
        },
        {
          "internalType": "uint256",
          "name": "diffstep",
          "type": "uint256"
        },
        {
          "internalType": "uint256",
          "name": "maxMint",
          "type": "uint256"
        },
        {
          "internalType": "address",
          "name": "allowedToken",
          "type": "address"
        }
      ],
      "name": "createNFTGemPool",
      "outputs": [
        {
          "internalType": "address payable",
          "name": "gemPool",
          "type": "address"
        }
      ],
      "stateMutability": "nonpayable",
      "type": "function"
    },
    {
      "inputs": [
        {
          "internalType": "uint256",
          "name": "_symbolHash",
          "type": "uint256"
        }
      ],
      "name": "getNFTGemPool",
      "outputs": [
        {
          "internalType": "address",
          "name": "gemPool",
          "type": "address"
        }
      ],
      "stateMutability": "view",
      "type": "function"
    },
    {
      "inputs": [
        {
          "internalType": "address",
          "name": "_address",
          "type": "address"
        }
      ],
      "name": "isController",
      "outputs": [
        {
          "internalType": "bool",
          "name": "allowed",
          "type": "bool"
        }
      ],
      "stateMutability": "view",
      "type": "function"
    },
    {
      "inputs": [],
      "name": "nftGemPools",
      "outputs": [
        {
          "internalType": "address[]",
          "name": "",
          "type": "address[]"
        }
      ],
      "stateMutability": "view",
      "type": "function"
    },
    {
      "inputs": [],
      "name": "relinquishControl",
      "outputs": [],
      "stateMutability": "view",
      "type": "function"
    },
    {
      "inputs": [
        {
          "internalType": "uint256",
          "name": "poolHash",
          "type": "uint256"
        }
      ],
      "name": "removeGemPool",
      "outputs": [],
      "stateMutability": "nonpayable",
      "type": "function"
    },
    {
      "inputs": [
        {
          "internalType": "uint256",
          "name": "ndx",
          "type": "uint256"
        }
      ],
      "name": "removeGemPoolAt",
      "outputs": [],
      "stateMutability": "nonpayable",
      "type": "function"
    }
  ],
  "transactionHash": "0xbbfa774298a11014aba3cbe18419e46d02a8427a4deca018affaee5d32caa9b9",
  "args": [],
  "solcInputHash": "f54ad921ed74a68a78b66e311ac00e74",
  "bytecode": "0x608060405234801561001057600080fd5b5061001a3361001f565b610043565b6001600160a01b03166000908152602081905260409020805460ff19166001179055565b615fd6806100526000396000f3fe608060405234801561001057600080fd5b50600436106100d45760003560e01c806367275aed11610081578063e1c28bef1161005b578063e1c28bef146104f2578063e4aa923d146104fa578063f994567c146106ae576100d4565b806367275aed1461045b578063a7fc7a0714610478578063b429afeb146104ab576100d4565b80634ff8f07e116100b25780634ff8f07e146102c157806351788914146104225780635e6fe72a14610441576100d4565b80630311949d146100d95780631ff77f161461024c5780632b69fa1014610269575b600080fd5b610223600480360360608110156100ef57600080fd5b73ffffffffffffffffffffffffffffffffffffffff823516919081019060408101602082013564010000000081111561012757600080fd5b82018360208201111561013957600080fd5b8035906020019184600183028401116401000000008311171561015b57600080fd5b91908080601f01602080910402602001604051908101604052809392919081815260200183838082843760009201919091525092959493602081019350359150506401000000008111156101ae57600080fd5b8201836020820111156101c057600080fd5b803590602001918460018302840111640100000000831117156101e257600080fd5b91908080601f0160208091040260200160405190810160405280939291908181526020018383808284376000920191909152509295506106cb945050505050565b6040805173ffffffffffffffffffffffffffffffffffffffff9092168252519081900360200190f35b6102236004803603602081101561026257600080fd5b50356109aa565b6102716109e1565b60408051602080825283518183015283519192839290830191858101910280838360005b838110156102ad578181015183820152602001610295565b505050509050019250505060405180910390f35b61022360048036036101008110156102d857600080fd5b8101906020810181356401000000008111156102f357600080fd5b82018360208201111561030557600080fd5b8035906020019184600183028401116401000000008311171561032757600080fd5b91908080601f016020809104026020016040519081016040528093929190818152602001838380828437600092019190915250929594936020810193503591505064010000000081111561037a57600080fd5b82018360208201111561038c57600080fd5b803590602001918460018302840111640100000000831117156103ae57600080fd5b91908080601f0160208091040260200160405190810160405280939291908181526020018383808284376000920191909152509295505082359350505060208101359060408101359060608101359060808101359060a0013573ffffffffffffffffffffffffffffffffffffffff16610a50565b61043f6004803603602081101561043857600080fd5b5035611014565b005b610449611175565b60408051918252519081900360200190f35b6102236004803603602081101561047157600080fd5b503561117b565b61043f6004803603602081101561048e57600080fd5b503573ffffffffffffffffffffffffffffffffffffffff166111a3565b6104de600480360360208110156104c157600080fd5b503573ffffffffffffffffffffffffffffffffffffffff16611250565b604080519115158252519081900360200190f35b61043f61127b565b6102236004803603606081101561051057600080fd5b81019060208101813564010000000081111561052b57600080fd5b82018360208201111561053d57600080fd5b8035906020019184600183028401116401000000008311171561055f57600080fd5b91908080601f01602080910402602001604051908101604052809392919081815260200183838082843760009201919091525092959493602081019350359150506401000000008111156105b257600080fd5b8201836020820111156105c457600080fd5b803590602001918460018302840111640100000000831117156105e657600080fd5b91908080601f016020809104026020016040519081016040528093929190818152602001838380828437600092019190915250929594936020810193503591505064010000000081111561063957600080fd5b82018360208201111561064b57600080fd5b8035906020019184600183028401116401000000008311171561066d57600080fd5b91908080601f0160208091040260200160405190810160405280939291908181526020018383808284376000920191909152509295506112e4945050505050565b61043f600480360360208110156106c457600080fd5b5035611527565b3360009081526020819052604081205460ff161515600114806106ed57503033145b6107295760405162461bcd60e51b815260040180806020018281038252602881526020018062005f796028913960400191505060405180910390fd5b6000836040516020018082805190602001908083835b6020831061075e5780518252601f19909201916020918201910161073f565b51815160209384036101000a60001901801990921691161790526040805192909401828103601f19018352845281519181019190912060008181526002909252929020549194505073ffffffffffffffffffffffffffffffffffffffff161591506108129050576040805162461bcd60e51b815260206004820152600e60248201527f47454d504f4f4c5f455849535453000000000000000000000000000000000000604482015290519081900360640190fd5b6000818152600260209081526040808320805473ffffffffffffffffffffffffffffffffffffffff8a167fffffffffffffffffffffffff00000000000000000000000000000000000000009182168117909255600380546001810182559086527fc2575a0e9e593c00f959f8c92f12db2869c3395a3b0502d05e2516446f71f85b0180549091169091179055805181815287519181019190915286518895507f89087d44119cf78c7cc1dfb971ca45b6aa9fde12ab6feedacc1fb42c3487862c9388938893928392838301926060850192908801918190849084905b838110156109065781810151838201526020016108ee565b50505050905090810190601f1680156109335780820380516001836020036101000a031916815260200191505b50838103825284518152845160209182019186019080838360005b8381101561096657818101518382015260200161094e565b50505050905090810190601f1680156109935780820380516001836020036101000a031916815260200191505b5094505050505060405180910390a1509392505050565b6000600382815481106109b957fe5b60009182526020909120015473ffffffffffffffffffffffffffffffffffffffff1692915050565b60606003805480602002602001604051908101604052809291908181526020018280548015610a4657602002820191906000526020600020905b815473ffffffffffffffffffffffffffffffffffffffff168152600190910190602001808311610a1b575b5050505050905090565b3360009081526020819052604081205460ff16151560011480610a7257503033145b610aae5760405162461bcd60e51b815260040180806020018281038252602881526020018062005f796028913960400191505060405180910390fd5b6000896040516020018082805190602001908083835b60208310610ae35780518252601f199092019160209182019101610ac4565b51815160209384036101000a60001901801990921691161790526040805192909401828103601f19018352845281519181019190912060008181526002909252929020549194505073ffffffffffffffffffffffffffffffffffffffff16159150610b979050576040805162461bcd60e51b815260206004820152600e60248201527f47454d504f4f4c5f455849535453000000000000000000000000000000000000604482015290519081900360640190fd5b87610be9576040805162461bcd60e51b815260206004820152600d60248201527f494e56414c49445f505249434500000000000000000000000000000000000000604482015290519081900360640190fd5b86610c3b576040805162461bcd60e51b815260206004820152601060248201527f494e56414c49445f4d494e5f54494d4500000000000000000000000000000000604482015290519081900360640190fd5b84610c8d576040805162461bcd60e51b815260206004820152601760248201527f494e56414c49445f444946464943554c54595f53544550000000000000000000604482015290519081900360640190fd5b606060405180602001610c9f90611806565b601f1982820381018352601f909101166040529050610cc0600083836116e0565b92508273ffffffffffffffffffffffffffffffffffffffff1663d9a3f9bb8c8c8c8c8c8c8c8c6040518963ffffffff1660e01b81526004018080602001806020018981526020018881526020018781526020018681526020018581526020018473ffffffffffffffffffffffffffffffffffffffff16815260200183810383528b818151815260200191508051906020019080838360005b83811015610d70578181015183820152602001610d58565b50505050905090810190601f168015610d9d5780820380516001836020036101000a031916815260200191505b5083810382528a5181528a516020918201918c019080838360005b83811015610dd0578181015183820152602001610db8565b50505050905090810190601f168015610dfd5780820380516001836020036101000a031916815260200191505b509a5050505050505050505050600060405180830381600087803b158015610e2457600080fd5b505af1158015610e38573d6000803e3d6000fd5b505050600083815260026020908152604080832080547fffffffffffffffffffffffff000000000000000000000000000000000000000090811673ffffffffffffffffffffffffffffffffffffffff8a8116918217909355600380546001810182559087527fc2575a0e9e593c00f959f8c92f12db2869c3395a3b0502d05e2516446f71f85b01805490921617905581519182018e9052606082018d9052608082018c905260a082018b905260c082018a9052881660e08201526101008082528f51908201528e517fd5dd03a462020e8d5d777d0957fbf19067fc095f932d026bb0f23e384522f2a694508f938f938f938f938f938f938f938f939092839283810192610120850192918e01918190849084905b83811015610f64578181015183820152602001610f4c565b50505050905090810190601f168015610f915780820380516001836020036101000a031916815260200191505b5083810382528a5181528a516020918201918c019080838360005b83811015610fc4578181015183820152602001610fac565b50505050905090810190601f168015610ff15780820380516001836020036101000a031916815260200191505b509a505050505050505050505060405180910390a1505098975050505050505050565b3360009081526020819052604090205460ff1615156001148061103657503033145b6110725760405162461bcd60e51b815260040180806020018281038252602881526020018062005f796028913960400191505060405180910390fd5b60035481106110c8576040805162461bcd60e51b815260206004820152601260248201527f494e4445585f4f55545f4f465f52414e47450000000000000000000000000000604482015290519081900360640190fd5b600354600114156110e4576110df60036000611814565b611172565b6003805460001981019081106110f657fe5b6000918252602090912001546003805473ffffffffffffffffffffffffffffffffffffffff909216918390811061112957fe5b506000525060038054600019810190811061114057fe5b600091825260209091200180547fffffffffffffffffffffffff00000000000000000000000000000000000000001690555b50565b60035490565b60009081526002602052604090205473ffffffffffffffffffffffffffffffffffffffff1690565b3360009081526020819052604090205460ff161515600114806111c557503033145b6112015760405162461bcd60e51b815260040180806020018281038252602881526020018062005f796028913960400191505060405180910390fd5b73ffffffffffffffffffffffffffffffffffffffff16600090815260208190526040902080547fffffffffffffffffffffffffffffffffffffffffffffffffffffffffffffff00166001179055565b73ffffffffffffffffffffffffffffffffffffffff1660009081526020819052604090205460ff1690565b3360009081526020819052604090205460ff1615156001148061129d57503033145b6112d95760405162461bcd60e51b815260040180806020018281038252602881526020018062005f796028913960400191505060405180910390fd5b336000908152602052565b3360009081526020819052604081205460ff1615156001148061130657503033145b6113425760405162461bcd60e51b815260040180806020018281038252602881526020018062005f796028913960400191505060405180910390fd5b6000836040516020018082805190602001908083835b602083106113775780518252601f199092019160209182019101611358565b51815160209384036101000a60001901801990921691161790526040805192909401828103601f19018352845281519181019190912060008181526002909252929020549194505073ffffffffffffffffffffffffffffffffffffffff1615915061142b9050576040805162461bcd60e51b815260206004820152600e60248201527f47454d504f4f4c5f455849535453000000000000000000000000000000000000604482015290519081900360640190fd5b611437600082876116e0565b6000828152600260209081526040808320805473ffffffffffffffffffffffffffffffffffffffff86167fffffffffffffffffffffffff00000000000000000000000000000000000000009182168117909255600380546001810182559086527fc2575a0e9e593c00f959f8c92f12db2869c3395a3b0502d05e2516446f71f85b0180549091169091179055805181815288519181019190915287519395507f89087d44119cf78c7cc1dfb971ca45b6aa9fde12ab6feedacc1fb42c3487862c938893889383928382019260608501928801919081908490849083156109065781810151838201526020016108ee565b3360009081526020819052604090205460ff1615156001148061154957503033145b6115855760405162461bcd60e51b815260040180806020018281038252602881526020018062005f796028913960400191505060405180910390fd5b600081815260026020526040812080547fffffffffffffffffffffffff0000000000000000000000000000000000000000811690915573ffffffffffffffffffffffffffffffffffffffff16905b6003548110156116db578173ffffffffffffffffffffffffffffffffffffffff166003828154811061160157fe5b60009182526020909120015473ffffffffffffffffffffffffffffffffffffffff1614156116d357600354600114156116455761164060036000611814565b6116d3565b60038054600019810190811061165757fe5b6000918252602090912001546003805473ffffffffffffffffffffffffffffffffffffffff909216918390811061168a57fe5b50600052506003805460001981019081106116a157fe5b600091825260209091200180547fffffffffffffffffffffffff00000000000000000000000000000000000000001690555b6001016115d3565b505050565b60008084471015611738576040805162461bcd60e51b815260206004820152601d60248201527f437265617465323a20696e73756666696369656e742062616c616e6365000000604482015290519081900360640190fd5b825161178b576040805162461bcd60e51b815260206004820181905260248201527f437265617465323a2062797465636f6465206c656e677468206973207a65726f604482015290519081900360640190fd5b8383516020850187f5905073ffffffffffffffffffffffffffffffffffffffff81166117fe576040805162461bcd60e51b815260206004820152601960248201527f437265617465323a204661696c6564206f6e206465706c6f7900000000000000604482015290519081900360640190fd5b949350505050565b614732806200184783390190565b508054600082559060005260206000209081019061117291905b80821115611842576000815560010161182e565b509056fe60806040523480156200001157600080fd5b50336000908152602460205260408082208054600160ff1991821681179092553284529190922080549091169091179055620000546301ffc9a760e01b62000086565b62000066630271189760e51b62000086565b336000908152602460205260409020805460ff191660011790556200010b565b6001600160e01b03198082161415620000e6576040805162461bcd60e51b815260206004820152601c60248201527f4552433136353a20696e76616c696420696e7465726661636520696400000000604482015290519081900360640190fd5b6001600160e01b0319166000908152602960205260409020805460ff19166001179055565b614617806200011b6000396000f3fe6080604052600436106105895760003560e01c80639cf87c2a116102d5578063d31674db11610184578063e6c3b1f6116100e1578063f4fde0d311610095578063f9eaee0d1161006f578063f9eaee0d14611a8b578063fd31a0a514611abe578063ff186b2e14611ae857610589565b8063f4fde0d3146119ed578063f8d1e93014611a02578063f9c9c27614611a1757610589565b8063ef430aa6116100c6578063ef430aa6146118b7578063f1e4e553146118cc578063f23a6e611461191557610589565b8063e6c3b1f61461183e578063edcf2d571461187e57610589565b8063d9a3f9bb11610138578063e06174e41161011d578063e06174e41461166b578063e1c28bef146117ff578063e5d2ce2f1461181457610589565b8063d9a3f9bb146114c7578063d9caed121461162857610589565b8063d43e646011610169578063d43e646014611410578063d73cd47f1461143c578063d80528ae1461146f57610589565b8063d31674db146113d1578063d3d08397146113fb57610589565b8063c42cf53511610232578063c80c0613116101e6578063cdc8a8ab116101cb578063cdc8a8ab146112ee578063cf721b15146112a0578063d104f8f51461139e57610589565b8063c80c0613146112a0578063cb122dfc146112b557610589565b8063c54a924211610217578063c54a92421461121f578063c5e01a5c1461124c578063c65eff961461127657610589565b8063c42cf535146111b9578063c4552791146111ec57610589565b8063b385a50a11610289578063b788e4e91161026e578063b788e4e914610f9b578063bc197c8114610fb0578063c08fa1a414610ecc57610589565b8063b385a50a14610f53578063b429afeb14610f6857610589565b8063a7fc7a07116102ba578063a7fc7a0714610ee1578063a901c47414610f14578063af6a6d7914610f3e57610589565b80639cf87c2a14610ea2578063a0021cf114610ecc57610589565b8063504cdacf1161043c5780637c07bc7a116103995780638a09871b1161034d5780639277a185116103275780639277a18514610e305780639593556014610e6357806395d89b4114610e8d57610589565b80638a09871b14610d3557806390469a9d14610d4a57806390c3f38f14610d7d57610589565b80637dcb0e5f1161037e5780637dcb0e5f14610cb75780637f2e8f0c14610ce15780638297755114610d0b57610589565b80637c07bc7a14610c285780637c5d643e14610c8d57610589565b806368127a8e116103f05780637284e416116103d55780637284e41614610b3357806372a8ccb414610bbd5780637ae7815d14610bfc57610589565b806368127a8e14610ab45780636b6201da14610b1657610589565b80635e5f2e26116104215780635e5f2e2614610a125780635fb9309114610a585780636100c34314610a7557610589565b8063504cdacf146109e85780635d2e0dd4146109fd57610589565b8063328d8f72116104ea5780634178617f1161049e5780634565e5ef116104835780634565e5ef1461098557806347e7ef241461099a5780634e04cdc7146109d357610589565b80634178617f1461092657806344f0877c1461095957610589565b8063379607f5116104cf578063379607f514610867578063392732b1146108cd578063407dff16146108f057610589565b8063328d8f7214610826578063336b9efb1461085257610589565b806323b221a0116105415780632660cc76116105265780632660cc761461073457806326ff31521461078a57806327c10f56146107bd57610589565b806323b221a0146106bd5780632449ef51146106f957610589565b80631284650d116105725780631284650d146106435780632360cf5e14610678578063238dafe0146106a857610589565b806301ffc9a71461058e578063044215c6146105ee575b600080fd5b34801561059a57600080fd5b506105da600480360360208110156105b157600080fd5b50357fffffffff0000000000000000000000000000000000000000000000000000000016611afd565b604080519115158252519081900360200190f35b3480156105fa57600080fd5b506106186004803603602081101561061157600080fd5b5035611b34565b6040805160ff909416845260208401929092526001600160a01b031682820152519081900360600190f35b34801561064f57600080fd5b506106766004803603602081101561066657600080fd5b50356001600160a01b0316611b6a565b005b34801561068457600080fd5b506106766004803603604081101561069b57600080fd5b5080359060200135611b88565b3480156106b457600080fd5b506105da611c05565b3480156106c957600080fd5b506106e7600480360360208110156106e057600080fd5b5035611c14565b60408051918252519081900360200190f35b34801561070557600080fd5b506106766004803603604081101561071c57600080fd5b506001600160a01b0381358116916020013516611cba565b34801561074057600080fd5b50610676600480360360c081101561075757600080fd5b506001600160a01b03813581169160ff602082013516916040820135916060810135916080820135169060a00135611d56565b34801561079657600080fd5b50610676600480360360208110156107ad57600080fd5b50356001600160a01b03166121dc565b3480156107c957600080fd5b5061067660048036036101008110156107e157600080fd5b508035906001600160a01b03602082013581169160408101359091169060ff6060820135169060808101359060a08101359060c081013515159060e0013515156121f6565b34801561083257600080fd5b506106766004803603602081101561084957600080fd5b5035151561233a565b34801561085e57600080fd5b506106e76123e4565b34801561087357600080fd5b506108916004803603602081101561088a57600080fd5b50356123ea565b6040805196875260208701959095528585019390935260608501919091526001600160a01b0316608084015260a0830152519081900360c00190f35b610676600480360360408110156108e357600080fd5b5080359060200135612712565b3480156108fc57600080fd5b50610905612789565b6040518082600181111561091557fe5b815260200191505060405180910390f35b34801561093257600080fd5b506106766004803603602081101561094957600080fd5b50356001600160a01b0316612799565b34801561096557600080fd5b506106766004803603602081101561097c57600080fd5b50351515612816565b34801561099157600080fd5b506106e76128bf565b3480156109a657600080fd5b50610676600480360360408110156109bd57600080fd5b506001600160a01b0381351690602001356128d0565b3480156109df57600080fd5b506105da61294f565b3480156109f457600080fd5b506106e761295d565b348015610a0957600080fd5b506105da612963565b348015610a1e57600080fd5b50610a3c60048036036020811015610a3557600080fd5b503561296c565b604080516001600160a01b039092168252519081900360200190f35b61067660048036036020811015610a6e57600080fd5b503561297f565b348015610a8157600080fd5b5061067660048036036060811015610a9857600080fd5b506001600160a01b038135169060208101359060400135612a16565b348015610ac057600080fd5b50610676600480360360e0811015610ad757600080fd5b506001600160a01b03813581169160208101359091169060ff6040820135169060608101359060808101359060a081013515159060c001351515612ab9565b61067660048036036020811015610b2c57600080fd5b5035612bf4565b348015610b3f57600080fd5b50610b48612c6b565b6040805160208082528351818301528351919283929083019185019080838360005b83811015610b82578181015183820152602001610b6a565b50505050905090810190601f168015610baf5780820380516001836020036101000a031916815260200191505b509250505060405180910390f35b348015610bc957600080fd5b5061067660048036036060811015610be057600080fd5b506001600160a01b038135169060208101359060400135612d01565b348015610c0857600080fd5b5061067660048036036020811015610c1f57600080fd5b50351515612d87565b348015610c3457600080fd5b50610c3d612e09565b60408051602080825283518183015283519192839290830191858101910280838360005b83811015610c79578181015183820152602001610c61565b505050509050019250505060405180910390f35b348015610c9957600080fd5b5061067660048036036020811015610cb057600080fd5b5035612e63565b348015610cc357600080fd5b506106e760048036036020811015610cda57600080fd5b5035612ed3565b348015610ced57600080fd5b506106e760048036036020811015610d0457600080fd5b5035612ee5565b348015610d1757600080fd5b506106e760048036036020811015610d2e57600080fd5b5035612f59565b348015610d4157600080fd5b506106e7612f6b565b348015610d5657600080fd5b5061067660048036036020811015610d6d57600080fd5b50356001600160a01b0316612fef565b348015610d8957600080fd5b5061067660048036036020811015610da057600080fd5b810190602081018135640100000000811115610dbb57600080fd5b820183602082011115610dcd57600080fd5b80359060200191846001830284011164010000000083111715610def57600080fd5b91908080601f01602080910402602001604051908101604052809392919081815260200183838082843760009201919091525092955061306c945050505050565b348015610e3c57600080fd5b5061067660048036036020811015610e5357600080fd5b50356001600160a01b03166130f5565b348015610e6f57600080fd5b506106e760048036036020811015610e8657600080fd5b5035613149565b348015610e9957600080fd5b50610b486131bd565b348015610eae57600080fd5b506105da60048036036020811015610ec557600080fd5b503561321e565b348015610ed857600080fd5b506106e7613232565b348015610eed57600080fd5b5061067660048036036020811015610f0457600080fd5b50356001600160a01b0316613238565b348015610f2057600080fd5b506106e760048036036020811015610f3757600080fd5b50356132b9565b348015610f4a57600080fd5b506105da61332d565b348015610f5f57600080fd5b506106e7613336565b348015610f7457600080fd5b506105da60048036036020811015610f8b57600080fd5b50356001600160a01b031661333c565b348015610fa757600080fd5b506106e761335a565b348015610fbc57600080fd5b50611184600480360360a0811015610fd357600080fd5b6001600160a01b03823581169260208101359091169181019060608101604082013564010000000081111561100757600080fd5b82018360208201111561101957600080fd5b8035906020019184602083028401116401000000008311171561103b57600080fd5b919080806020026020016040519081016040528093929190818152602001838360200280828437600092019190915250929594936020810193503591505064010000000081111561108b57600080fd5b82018360208201111561109d57600080fd5b803590602001918460208302840111640100000000831117156110bf57600080fd5b919080806020026020016040519081016040528093929190818152602001838360200280828437600092019190915250929594936020810193503591505064010000000081111561110f57600080fd5b82018360208201111561112157600080fd5b8035906020019184600183028401116401000000008311171561114357600080fd5b91908080601f0160208091040260200160405190810160405280939291908181526020018383808284376000920191909152509295506133ad945050505050565b604080517fffffffff000000000000000000000000000000000000000000000000000000009092168252519081900360200190f35b3480156111c557600080fd5b50610676600480360360208110156111dc57600080fd5b50356001600160a01b03166133d7565b3480156111f857600080fd5b50610a3c6004803603602081101561120f57600080fd5b50356001600160a01b031661342b565b34801561122b57600080fd5b506106766004803603602081101561124257600080fd5b503560ff16613430565b34801561125857600080fd5b50610a3c6004803603602081101561126f57600080fd5b50356134e4565b34801561128257600080fd5b506106766004803603602081101561129957600080fd5b5035613558565b3480156112ac57600080fd5b506106e76135cf565b3480156112c157600080fd5b50610676600480360360608110156112d857600080fd5b5080359060ff60208201351690604001356135d5565b3480156112fa57600080fd5b506106766004803603602081101561131157600080fd5b81019060208101813564010000000081111561132c57600080fd5b82018360208201111561133e57600080fd5b8035906020019184602083028401116401000000008311171561136057600080fd5b919080806020026020016040519081016040528093929190818152602001838360200280828437600092019190915250929550613674945050505050565b3480156113aa57600080fd5b50610676600480360360208110156113c157600080fd5b50356001600160a01b03166136f9565b3480156113dd57600080fd5b506106e7600480360360208110156113f457600080fd5b503561374d565b34801561140757600080fd5b506106e7613770565b34801561141c57600080fd5b506106766004803603602081101561143357600080fd5b503515156137c3565b34801561144857600080fd5b506106766004803603602081101561145f57600080fd5b50356001600160a01b0316613848565b34801561147b57600080fd5b5061148461389c565b6040805198151589526020890197909752878701959095526060870193909352608086019190915260a085015260c084015260e083015251908190036101000190f35b3480156114d357600080fd5b5061067660048036036101008110156114eb57600080fd5b81019060208101813564010000000081111561150657600080fd5b82018360208201111561151857600080fd5b8035906020019184600183028401116401000000008311171561153a57600080fd5b91908080601f016020809104026020016040519081016040528093929190818152602001838380828437600092019190915250929594936020810193503591505064010000000081111561158d57600080fd5b82018360208201111561159f57600080fd5b803590602001918460018302840111640100000000831117156115c157600080fd5b91908080601f0160208091040260200160405190810160405280939291908181526020018383808284376000920191909152509295505082359350505060208101359060408101359060608101359060808101359060a001356001600160a01b0316613a04565b34801561163457600080fd5b506106766004803603606081101561164b57600080fd5b506001600160a01b03813581169160208101359091169060400135613b3f565b34801561167757600080fd5b50611680613bc6565b604051808060200180602001806020018c81526020018b81526020018a815260200189815260200188815260200187815260200186815260200185815260200184810384528f818151815260200191508051906020019080838360005b838110156116f55781810151838201526020016116dd565b50505050905090810190601f1680156117225780820380516001836020036101000a031916815260200191505b5084810383528e818151815260200191508051906020019080838360005b83811015611758578181015183820152602001611740565b50505050905090810190601f1680156117855780820380516001836020036101000a031916815260200191505b5084810382528d5181528d516020918201918f019080838360005b838110156117b85781810151838201526020016117a0565b50505050905090810190601f1680156117e55780820380516001836020036101000a031916815260200191505b509e50505050505050505050505050505060405180910390f35b34801561180b57600080fd5b50610676613df7565b34801561182057600080fd5b506106766004803603602081101561183757600080fd5b5035613e6d565b34801561184a57600080fd5b506118686004803603602081101561186157600080fd5b5035613ee4565b6040805160ff9092168252519081900360200190f35b34801561188a57600080fd5b50610676600480360360408110156118a157600080fd5b506001600160a01b038135169060200135613ef9565b3480156118c357600080fd5b506106e7613f7f565b3480156118d857600080fd5b50610676600480360360808110156118ef57600080fd5b506001600160a01b03813581169160208101359091169060408101359060600135613f85565b34801561192157600080fd5b50611184600480360360a081101561193857600080fd5b6001600160a01b03823581169260208101359091169160408201359160608101359181019060a08101608082013564010000000081111561197857600080fd5b82018360208201111561198a57600080fd5b803590602001918460018302840111640100000000831117156119ac57600080fd5b91908080601f016020809104026020016040519081016040528093929190818152602001838380828437600092019190915250929550614027945050505050565b3480156119f957600080fd5b506106e7614051565b348015611a0e57600080fd5b50610c3d614057565b348015611a2357600080fd5b50611a4160048036036020811015611a3a57600080fd5b50356140b7565b604080516001600160a01b03988916815296909716602087015260ff9094168587015260608501929092526080840152151560a0830152151560c082015290519081900360e00190f35b348015611a9757600080fd5b506105da60048036036020811015611aae57600080fd5b50356001600160a01b031661417d565b348015611aca57600080fd5b5061067660048036036020811015611ae157600080fd5b503561418a565b348015611af457600080fd5b506106e7614201565b7fffffffff000000000000000000000000000000000000000000000000000000001660009081526029602052604090205460ff1690565b6000908152601260209081526040808320546013835281842054601490935292205460ff9092169290916001600160a01b031690565b611b75601582614207565b15611b8557611b85601582614262565b50565b3360009081526024602052604090205460ff16151560011480611bb557506002546001600160a01b031633145b80611bbf57503033145b611bfa5760405162461bcd60e51b81526004018080602001828103825260288152602001806145906028913960400191505060405180910390fd5b601991909155601855565b60115462010000900460ff1690565b604080517f01356b6d00000000000000000000000000000000000000000000000000000000815260006004820181905260248201849052915173A2582A91d423AD57132E46e507599e02559D1991916301356b6d916044808301926020929190829003018186803b158015611c8857600080fd5b505af4158015611c9c573d6000803e3d6000fd5b505050506040513d6020811015611cb257600080fd5b505192915050565b604080517fb9f052740000000000000000000000000000000000000000000000000000000081526000600482018190526001600160a01b03808616602484015284166044830152915173A2582A91d423AD57132E46e507599e02559D19919263b9f052749260648082019391829003018186803b158015611d3a57600080fd5b505af4158015611d4e573d6000803e3d6000fd5b505050505050565b3360009081526024602052604090205460ff16151560011480611d8357506002546001600160a01b031633145b80611d8d57503033145b611dc85760405162461bcd60e51b81526004018080602001828103825260288152602001806145906028913960400191505060405180910390fd5b60008560ff1611611e20576040805162461bcd60e51b815260206004820152601160248201527f494e56414c49445f544f4b454e54595045000000000000000000000000000000604482015290519081900360640190fd5b60008411611e75576040805162461bcd60e51b815260206004820152601160248201527f494e56414c49445f544f4b454e48415348000000000000000000000000000000604482015290519081900360640190fd5b6001600160a01b038616611ed0576040805162461bcd60e51b815260206004820152600d60248201527f494e56414c49445f544f4b454e00000000000000000000000000000000000000604482015290519081900360640190fd5b6001600160a01b038216611f2b576040805162461bcd60e51b815260206004820152601160248201527f494e56414c49445f524543495049454e54000000000000000000000000000000604482015290519081900360640190fd5b611f36601587614207565b1515600114611f8c576040805162461bcd60e51b815260206004820152601360248201527f494e56414c49445f544f4b454e534f5552434500000000000000000000000000604482015290519081900360640190fd5b60008111611fe1576040805162461bcd60e51b815260206004820152600f60248201527f494e56414c49445f5155414e5449590000000000000000000000000000000000604482015290519081900360640190fd5b600084815260208052604090205460ff1615612044576040805162461bcd60e51b815260206004820152601060248201527f414c52454144595f494d504f5254454400000000000000000000000000000000604482015290519081900360640190fd5b600154604080517f156e29f60000000000000000000000000000000000000000000000000000000081526001600160a01b03858116600483015260248201889052604482018590529151919092169163156e29f691606480830192600092919082900301818387803b1580156120b957600080fd5b505af11580156120cd573d6000803e3d6000fd5b5050600154604080517f7c8810760000000000000000000000000000000000000000000000000000000081526004810189905260ff8a16602482015230604482015290516001600160a01b039092169350637c881076925060648082019260009290919082900301818387803b15801561214657600080fd5b505af115801561215a573d6000803e3d6000fd5b50505060009485525050601260209081526040808520805460ff90971660ff19978816179055601382528085209390935580805282842080549095166001179094555060149092522080546001600160a01b039092167fffffffffffffffffffffffff0000000000000000000000000000000000000000909216919091179055565b6121e7601582614207565b611b8557611b856015826143b9565b3360009081526024602052604090205460ff1615156001148061222357506002546001600160a01b031633145b8061222d57503033145b6122685760405162461bcd60e51b81526004018080602001828103825260288152602001806145906028913960400191505060405180910390fd5b604080517fc4d13b4c000000000000000000000000000000000000000000000000000000008152600060048201819052602482018b90526001600160a01b03808b1660448401528916606483015260ff8816608483015260a4820187905260c4820186905284151560e4830152831515610104830152915173A2582A91d423AD57132E46e507599e02559D19919263c4d13b4c926101248082019391829003018186803b15801561231857600080fd5b505af415801561232c573d6000803e3d6000fd5b505050505050505050505050565b3360009081526024602052604090205460ff1615156001148061236757506002546001600160a01b031633145b8061237157503033145b6123ac5760405162461bcd60e51b81526004018080602001828103825260288152602001806145906028913960400191505060405180910390fd5b6011805491151562010000027fffffffffffffffffffffffffffffffffffffffffffffffffffffffffff00ffff909216919091179055565b60105490565b600080600080600080600073A2582A91d423AD57132E46e507599e02559D19916301356b6d9091896040518363ffffffff1660e01b8152600401808381526020018281526020019250505060206040518083038186803b15801561244d57600080fd5b505af4158015612461573d6000803e3d6000fd5b505050506040513d602081101561247757600080fd5b5051604080517fecd5244e00000000000000000000000000000000000000000000000000000000815260006004820152602481018a9052905191975073A2582A91d423AD57132E46e507599e02559D19919163ecd5244e91604480820192602092909190829003018186803b1580156124ef57600080fd5b505af4158015612503573d6000803e3d6000fd5b505050506040513d602081101561251957600080fd5b5051604080517fb94677da00000000000000000000000000000000000000000000000000000000815260006004820152602481018a9052905191965073A2582A91d423AD57132E46e507599e02559D19919163b94677da91604480820192602092909190829003018186803b15801561259157600080fd5b505af41580156125a5573d6000803e3d6000fd5b505050506040513d60208110156125bb57600080fd5b5051604080517fdc1f0f5300000000000000000000000000000000000000000000000000000000815260006004820152602481018a9052905191955073A2582A91d423AD57132E46e507599e02559D19919163dc1f0f5391604480820192602092909190829003018186803b15801561263357600080fd5b505af4158015612647573d6000803e3d6000fd5b505050506040513d602081101561265d57600080fd5b5051604080517f76e455e100000000000000000000000000000000000000000000000000000000815260006004820152602481018a9052905191945073A2582A91d423AD57132E46e507599e02559D1991916376e455e191604480820192602092909190829003018186803b1580156126d557600080fd5b505af41580156126e9573d6000803e3d6000fd5b505050506040513d60208110156126ff57600080fd5b5051601954969895975093959294915050565b604080517f80ca2ba60000000000000000000000000000000000000000000000000000000081526000600482018190526024820185905260448201849052915173A2582A91d423AD57132E46e507599e02559D1991926380ca2ba69260648082019391829003018186803b158015611d3a57600080fd5b6011546301000000900460ff1690565b3360009081526024602052604090205460ff161515600114806127c657506002546001600160a01b031633145b806127d057503033145b61280b5760405162461bcd60e51b81526004018080602001828103825260288152602001806145906028913960400191505060405180910390fd5b611b856027826143b9565b3360009081526024602052604090205460ff1615156001148061284357506002546001600160a01b031633145b8061284d57503033145b6128885760405162461bcd60e51b81526004018080602001828103825260288152602001806145906028913960400191505060405180910390fd5b60118054911515610100027fffffffffffffffffffffffffffffffffffffffffffffffffffffffffffff00ff909216919091179055565b60006128cb6027614464565b905090565b604080517f88d496a40000000000000000000000000000000000000000000000000000000081526000600482018190526001600160a01b038516602483015260448201849052915173A2582A91d423AD57132E46e507599e02559D1991926388d496a49260648082019391829003018186803b158015611d3a57600080fd5b601154610100900460ff1690565b601a5490565b60115460ff1690565b600061297960278361446b565b92915050565b604080517fe5fca79a00000000000000000000000000000000000000000000000000000000815260006004820181905233602483015234604483015260648201849052915173A2582A91d423AD57132E46e507599e02559D19919263e5fca79a9260848082019391829003018186803b1580156129fb57600080fd5b505af4158015612a0f573d6000803e3d6000fd5b5050505050565b604080517fafeafd9a0000000000000000000000000000000000000000000000000000000081526000600482018190526001600160a01b03861660248301526044820185905260648201849052915173A2582A91d423AD57132E46e507599e02559D19919263afeafd9a9260848082019391829003018186803b158015612a9c57600080fd5b505af4158015612ab0573d6000803e3d6000fd5b50505050505050565b3360009081526024602052604090205460ff16151560011480612ae657506002546001600160a01b031633145b80612af057503033145b612b2b5760405162461bcd60e51b81526004018080602001828103825260288152602001806145906028913960400191505060405180910390fd5b604080517fc007855c0000000000000000000000000000000000000000000000000000000081526000600482018190526001600160a01b03808b1660248401528916604483015260ff881660648301526084820187905260a4820186905284151560c483015283151560e4830152915173A2582A91d423AD57132E46e507599e02559D19919263c007855c926101048082019391829003018186803b158015612bd357600080fd5b505af4158015612be7573d6000803e3d6000fd5b5050505050505050505050565b604080517f80ca2ba60000000000000000000000000000000000000000000000000000000081526000600482018190526024820184905260016044830152915173A2582A91d423AD57132E46e507599e02559D1991926380ca2ba69260648082019391829003018186803b1580156129fb57600080fd5b60098054604080516020601f6002600019610100600188161502019095169490940493840181900481028201810190925282815260609390929091830182828015612cf75780601f10612ccc57610100808354040283529160200191612cf7565b820191906000526020600020905b815481529060010190602001808311612cda57829003601f168201915b5050505050905090565b604080517f401348c90000000000000000000000000000000000000000000000000000000081526000600482018190526001600160a01b03861660248301526044820185905260648201849052915173A2582A91d423AD57132E46e507599e02559D19919263401348c99260848082019391829003018186803b158015612a9c57600080fd5b3360009081526024602052604090205460ff16151560011480612db457506002546001600160a01b031633145b80612dbe57503033145b612df95760405162461bcd60e51b81526004018080602001828103825260288152602001806145906028913960400191505060405180910390fd5b506011805460ff19166001179055565b60606000601701805480602002602001604051908101604052809291908181526020018280548015612cf757602002820191906000526020600020905b815481526020019060010190808311612e46575050505050905090565b604080517f96b8b27f00000000000000000000000000000000000000000000000000000000815260006004820181905260248201849052915173A2582A91d423AD57132E46e507599e02559D1991926396b8b27f9260448082019391829003018186803b1580156129fb57600080fd5b60009081526013602052604090205490565b604080517fecd5244e00000000000000000000000000000000000000000000000000000000815260006004820181905260248201849052915173A2582A91d423AD57132E46e507599e02559D19919163ecd5244e916044808301926020929190829003018186803b158015611c8857600080fd5b60009081526021602052604090205490565b60008073A2582A91d423AD57132E46e507599e02559D199163164cd8c290916040518263ffffffff1660e01b81526004018082815260200191505060206040518083038186803b158015612fbe57600080fd5b505af4158015612fd2573d6000803e3d6000fd5b505050506040513d6020811015612fe857600080fd5b5051905090565b3360009081526024602052604090205460ff1615156001148061301c57506002546001600160a01b031633145b8061302657503033145b6130615760405162461bcd60e51b81526004018080602001828103825260288152602001806145906028913960400191505060405180910390fd5b611b85602782614262565b3360009081526024602052604090205460ff1615156001148061309957506002546001600160a01b031633145b806130a357503033145b6130de5760405162461bcd60e51b81526004018080602001828103825260288152602001806145906028913960400191505060405180910390fd5b80516130f1906009906020840190614498565b5050565b336000908152602460205260409020805460ff19166001179055600380547fffffffffffffffffffffffff0000000000000000000000000000000000000000166001600160a01b0392909216919091179055565b604080517fdc1f0f5300000000000000000000000000000000000000000000000000000000815260006004820181905260248201849052915173A2582A91d423AD57132E46e507599e02559D19919163dc1f0f53916044808301926020929190829003018186803b158015611c8857600080fd5b60078054604080516020601f6002600019610100600188161502019095169490940493840181900481028201810190925282815260609390929091830182828015612cf75780601f10612ccc57610100808354040283529160200191612cf7565b600090815260208052604090205460ff1690565b60195490565b3360009081526024602052604090205460ff1615156001148061325a57503033145b6132955760405162461bcd60e51b81526004018080602001828103825260288152602001806145906028913960400191505060405180910390fd5b6001600160a01b03166000908152602460205260409020805460ff19166001179055565b604080517fb94677da00000000000000000000000000000000000000000000000000000000815260006004820181905260248201849052915173A2582A91d423AD57132E46e507599e02559D19919163b94677da916044808301926020929190829003018186803b158015611c8857600080fd5b60065460ff1690565b600f5490565b6001600160a01b031660009081526024602052604090205460ff1690565b60008073A2582A91d423AD57132E46e507599e02559D19916333c13e0d90916040518263ffffffff1660e01b81526004018082815260200191505060206040518083038186803b158015612fbe57600080fd5b7fbc197c810000000000000000000000000000000000000000000000000000000095945050505050565b336000908152602460205260409020805460ff19166001179055600280547fffffffffffffffffffffffff0000000000000000000000000000000000000000166001600160a01b0392909216919091179055565b503090565b3360009081526024602052604090205460ff1615156001148061345d57506002546001600160a01b031633145b8061346757503033145b6134a25760405162461bcd60e51b81526004018080602001828103825260288152602001806145906028913960400191505060405180910390fd5b601180548291907fffffffffffffffffffffffffffffffffffffffffffffffffffffffff00ffffff1663010000008360018111156134dc57fe5b021790555050565b604080517f76e455e100000000000000000000000000000000000000000000000000000000815260006004820181905260248201849052915173A2582A91d423AD57132E46e507599e02559D1991916376e455e1916044808301926020929190829003018186803b158015611c8857600080fd5b3360009081526024602052604090205460ff1615156001148061358557506002546001600160a01b031633145b8061358f57503033145b6135ca5760405162461bcd60e51b81526004018080602001828103825260288152602001806145906028913960400191505060405180910390fd5b601055565b60185490565b3360009081526024602052604090205460ff1615156001148061360257506002546001600160a01b031633145b8061360c57503033145b6136475760405162461bcd60e51b81526004018080602001828103825260288152602001806145906028913960400191505060405180910390fd5b6000928352601260209081526040808520805460ff191660ff959095169490941790935560139052912055565b3360009081526024602052604090205460ff161515600114806136a157506002546001600160a01b031633145b806136ab57503033145b6136e65760405162461bcd60e51b81526004018080602001828103825260288152602001806145906028913960400191505060405180910390fd5b80516130f1906017906020840190614516565b336000908152602460205260409020805460ff19166001179055600180547fffffffffffffffffffffffff0000000000000000000000000000000000000000166001600160a01b0392909216919091179055565b600080601701828154811061375e57fe5b90600052602060002001549050919050565b60008073A2582A91d423AD57132E46e507599e02559D199163828c7b7290916040518263ffffffff1660e01b81526004018082815260200191505060206040518083038186803b158015612fbe57600080fd5b3360009081526024602052604090205460ff161515600114806137f057506002546001600160a01b031633145b806137fa57503033145b6138355760405162461bcd60e51b81526004018080602001828103825260288152602001806145906028913960400191505060405180910390fd5b6006805460ff1916911515919091179055565b336000908152602460205260409020805460ff19166001179055600480547fffffffffffffffffffffffff0000000000000000000000000000000000000000166001600160a01b0392909216919091179055565b600654601954601854601a54604080517f164cd8c2000000000000000000000000000000000000000000000000000000008152600060048201819052915160ff9096169582918291829173A2582A91d423AD57132E46e507599e02559D19919163164cd8c291602480820192602092909190829003018186803b15801561392257600080fd5b505af4158015613936573d6000803e3d6000fd5b505050506040513d602081101561394c57600080fd5b5051604080517f33c13e0d00000000000000000000000000000000000000000000000000000000815260006004820152905191955073A2582A91d423AD57132E46e507599e02559D1991916333c13e0d91602480820192602092909190829003018186803b1580156139bd57600080fd5b505af41580156139d1573d6000803e3d6000fd5b505050506040513d60208110156139e757600080fd5b5051601954601854999a9899979896979596919590945092509050565b3360009081526024602052604090205460ff16151560011480613a3157506002546001600160a01b031633145b80613a3b57503033145b613a765760405162461bcd60e51b81526004018080602001828103825260288152602001806145906028913960400191505060405180910390fd5b600080547fffffffffffffffffffffffff000000000000000000000000000000000000000016301790558751613ab39060079060208b0190614498565b508651613ac79060089060208a0190614498565b50600a869055600b859055600c849055600d839055600e8290556006805460ff19166001179055601180547fffffffffffffffffffffffffffffffffffffffffffffffffffffffffff00ffff16620100001790556001600160a01b03811615613b3557613b356027826143b9565b5050505050505050565b604080517fe5932f420000000000000000000000000000000000000000000000000000000081526000600482018190526001600160a01b0380871660248401528516604483015260648201849052915173A2582A91d423AD57132E46e507599e02559D19919263e5932f429260848082019391829003018186803b158015612a9c57600080fd5b60078054604080516020601f60026000196101006001881615020190951694909404938401819004810282018101909252828152606093849384936000938493849384938493849384938493830182828015613c635780601f10613c3857610100808354040283529160200191613c63565b820191906000526020600020905b815481529060010190602001808311613c4657829003601f168201915b50505050509a5060006008018054600181600116156101000203166002900480601f016020809104026020016040519081016040528092919081815260200182805460018160011615610100020316600290048015613d035780601f10613cd857610100808354040283529160200191613d03565b820191906000526020600020905b815481529060010190602001808311613ce657829003601f168201915b5050505050995060006009018054600181600116156101000203166002900480601f016020809104026020016040519081016040528092919081815260200182805460018160011615610100020316600290048015613da35780601f10613d7857610100808354040283529160200191613da3565b820191906000526020600020905b815481529060010190602001808311613d8657829003601f168201915b5050505050985060006005015497506000600a015496506000600b015495506000600c015494506000600d015493506000600e015492506000600f015491506000601001549050909192939495969798999a565b3360009081526024602052604090205460ff16151560011480613e1957503033145b613e545760405162461bcd60e51b81526004018080602001828103825260288152602001806145906028913960400191505060405180910390fd5b336000908152602460205260409020805460ff19169055565b3360009081526024602052604090205460ff16151560011480613e9a57506002546001600160a01b031633145b80613ea457503033145b613edf5760405162461bcd60e51b81526004018080602001828103825260288152602001806145906028913960400191505060405180910390fd5b600555565b60009081526012602052604090205460ff1690565b604080517fafeafd9a0000000000000000000000000000000000000000000000000000000081526000600482018190526001600160a01b03851660248301526044820184905260016064830152915173A2582A91d423AD57132E46e507599e02559D19919263afeafd9a9260848082019391829003018186803b158015611d3a57600080fd5b60055490565b604080517f210dd8100000000000000000000000000000000000000000000000000000000081526000600482018190526001600160a01b038088166024840152861660448301526064820185905260848201849052915173A2582A91d423AD57132E46e507599e02559D19919263210dd8109260a48082019391829003018186803b15801561401357600080fd5b505af4158015613b35573d6000803e3d6000fd5b7ff23a6e610000000000000000000000000000000000000000000000000000000095945050505050565b60175490565b601680546040805160208084028201810190925282815260609390929091830182828015612cf757602002820191906000526020600020905b81546001600160a01b03168152600190910190602001808311614090575050505050905090565b60008060008060008060008073A2582A91d423AD57132E46e507599e02559D1991635b68e93c90918a6040518363ffffffff1660e01b8152600401808381526020018281526020019250505060e06040518083038186803b15801561411b57600080fd5b505af415801561412f573d6000803e3d6000fd5b505050506040513d60e081101561414557600080fd5b508051602082015160408301516060840151608085015160a086015160c090960151949e939d50919b50995097509195509350915050565b6000612979602783614207565b3360009081526024602052604090205460ff161515600114806141b757506002546001600160a01b031633145b806141c157503033145b6141fc5760405162461bcd60e51b81526004018080602001828103825260288152602001806145906028913960400191505060405180910390fd5b600f55565b600a5490565b600182015460009061421b57506000612979565b6001600160a01b038216600081815260208590526040902054600185018054909190811061424557fe5b6000918252602090912001546001600160a01b0316149392505050565b61426c8282614207565b6142a75760405162461bcd60e51b815260040180806020018281038252602a815260200180614566602a913960400191505060405180910390fd5b600060016142b484614464565b6001600160a01b03841660009081526020869052604090205491900391508082146143555760008460010183815481106142ea57fe5b60009182526020808320909101546001600160a01b031680835290879052604090912083905560018601805491925082918490811061432557fe5b9060005260206000200160006101000a8154816001600160a01b0302191690836001600160a01b03160217905550505b6001600160a01b038316600090815260208590526040812055600184018054600019810190811061438257fe5b600091825260209091200180547fffffffffffffffffffffffff000000000000000000000000000000000000000016905550505050565b6143c38282614207565b156143ff5760405162461bcd60e51b815260040180806020018281038252602a8152602001806145b8602a913960400191505060405180910390fd5b6001828101805491820181556000818152602080822090930180547fffffffffffffffffffffffff0000000000000000000000000000000000000000166001600160a01b03959095169485179055905492815292905260409091206000199091019055565b6001015490565b600082600101828154811061447c57fe5b6000918252602090912001546001600160a01b03169392505050565b828054600181600116156101000203166002900490600052602060002090601f016020900481019282601f106144d957805160ff1916838001178555614506565b82800160010185558215614506579182015b828111156145065782518255916020019190600101906144eb565b50614512929150614550565b5090565b82805482825590600052602060002090810192821561450657916020028201828111156145065782518255916020019190600101906144eb565b5b80821115614512576000815560010161455156fe416464726573735365743a206b657920646f6573206e6f7420657869737420696e20746865207365742e436f6e74726f6c6c61626c653a2063616c6c6572206973206e6f74206120636f6e74726f6c6c6572416464726573735365743a206b657920616c72656164792065786973747320696e20746865207365742ea26469706673582212201ba8da292e947edb9c9c97acee30e557d39cc4c29505fea8cff8c984eabb9f0564736f6c63430007030033436f6e74726f6c6c61626c653a2063616c6c6572206973206e6f74206120636f6e74726f6c6c6572a2646970667358221220d06972f4896020b63bbdeec6dca647d779a8075a6919d71a829d1f3032f0a0eb64736f6c63430007030033",
  "deployedBytecode": "0x608060405234801561001057600080fd5b50600436106100d45760003560e01c806367275aed11610081578063e1c28bef1161005b578063e1c28bef146104f2578063e4aa923d146104fa578063f994567c146106ae576100d4565b806367275aed1461045b578063a7fc7a0714610478578063b429afeb146104ab576100d4565b80634ff8f07e116100b25780634ff8f07e146102c157806351788914146104225780635e6fe72a14610441576100d4565b80630311949d146100d95780631ff77f161461024c5780632b69fa1014610269575b600080fd5b610223600480360360608110156100ef57600080fd5b73ffffffffffffffffffffffffffffffffffffffff823516919081019060408101602082013564010000000081111561012757600080fd5b82018360208201111561013957600080fd5b8035906020019184600183028401116401000000008311171561015b57600080fd5b91908080601f01602080910402602001604051908101604052809392919081815260200183838082843760009201919091525092959493602081019350359150506401000000008111156101ae57600080fd5b8201836020820111156101c057600080fd5b803590602001918460018302840111640100000000831117156101e257600080fd5b91908080601f0160208091040260200160405190810160405280939291908181526020018383808284376000920191909152509295506106cb945050505050565b6040805173ffffffffffffffffffffffffffffffffffffffff9092168252519081900360200190f35b6102236004803603602081101561026257600080fd5b50356109aa565b6102716109e1565b60408051602080825283518183015283519192839290830191858101910280838360005b838110156102ad578181015183820152602001610295565b505050509050019250505060405180910390f35b61022360048036036101008110156102d857600080fd5b8101906020810181356401000000008111156102f357600080fd5b82018360208201111561030557600080fd5b8035906020019184600183028401116401000000008311171561032757600080fd5b91908080601f016020809104026020016040519081016040528093929190818152602001838380828437600092019190915250929594936020810193503591505064010000000081111561037a57600080fd5b82018360208201111561038c57600080fd5b803590602001918460018302840111640100000000831117156103ae57600080fd5b91908080601f0160208091040260200160405190810160405280939291908181526020018383808284376000920191909152509295505082359350505060208101359060408101359060608101359060808101359060a0013573ffffffffffffffffffffffffffffffffffffffff16610a50565b61043f6004803603602081101561043857600080fd5b5035611014565b005b610449611175565b60408051918252519081900360200190f35b6102236004803603602081101561047157600080fd5b503561117b565b61043f6004803603602081101561048e57600080fd5b503573ffffffffffffffffffffffffffffffffffffffff166111a3565b6104de600480360360208110156104c157600080fd5b503573ffffffffffffffffffffffffffffffffffffffff16611250565b604080519115158252519081900360200190f35b61043f61127b565b6102236004803603606081101561051057600080fd5b81019060208101813564010000000081111561052b57600080fd5b82018360208201111561053d57600080fd5b8035906020019184600183028401116401000000008311171561055f57600080fd5b91908080601f01602080910402602001604051908101604052809392919081815260200183838082843760009201919091525092959493602081019350359150506401000000008111156105b257600080fd5b8201836020820111156105c457600080fd5b803590602001918460018302840111640100000000831117156105e657600080fd5b91908080601f016020809104026020016040519081016040528093929190818152602001838380828437600092019190915250929594936020810193503591505064010000000081111561063957600080fd5b82018360208201111561064b57600080fd5b8035906020019184600183028401116401000000008311171561066d57600080fd5b91908080601f0160208091040260200160405190810160405280939291908181526020018383808284376000920191909152509295506112e4945050505050565b61043f600480360360208110156106c457600080fd5b5035611527565b3360009081526020819052604081205460ff161515600114806106ed57503033145b6107295760405162461bcd60e51b815260040180806020018281038252602881526020018062005f796028913960400191505060405180910390fd5b6000836040516020018082805190602001908083835b6020831061075e5780518252601f19909201916020918201910161073f565b51815160209384036101000a60001901801990921691161790526040805192909401828103601f19018352845281519181019190912060008181526002909252929020549194505073ffffffffffffffffffffffffffffffffffffffff161591506108129050576040805162461bcd60e51b815260206004820152600e60248201527f47454d504f4f4c5f455849535453000000000000000000000000000000000000604482015290519081900360640190fd5b6000818152600260209081526040808320805473ffffffffffffffffffffffffffffffffffffffff8a167fffffffffffffffffffffffff00000000000000000000000000000000000000009182168117909255600380546001810182559086527fc2575a0e9e593c00f959f8c92f12db2869c3395a3b0502d05e2516446f71f85b0180549091169091179055805181815287519181019190915286518895507f89087d44119cf78c7cc1dfb971ca45b6aa9fde12ab6feedacc1fb42c3487862c9388938893928392838301926060850192908801918190849084905b838110156109065781810151838201526020016108ee565b50505050905090810190601f1680156109335780820380516001836020036101000a031916815260200191505b50838103825284518152845160209182019186019080838360005b8381101561096657818101518382015260200161094e565b50505050905090810190601f1680156109935780820380516001836020036101000a031916815260200191505b5094505050505060405180910390a1509392505050565b6000600382815481106109b957fe5b60009182526020909120015473ffffffffffffffffffffffffffffffffffffffff1692915050565b60606003805480602002602001604051908101604052809291908181526020018280548015610a4657602002820191906000526020600020905b815473ffffffffffffffffffffffffffffffffffffffff168152600190910190602001808311610a1b575b5050505050905090565b3360009081526020819052604081205460ff16151560011480610a7257503033145b610aae5760405162461bcd60e51b815260040180806020018281038252602881526020018062005f796028913960400191505060405180910390fd5b6000896040516020018082805190602001908083835b60208310610ae35780518252601f199092019160209182019101610ac4565b51815160209384036101000a60001901801990921691161790526040805192909401828103601f19018352845281519181019190912060008181526002909252929020549194505073ffffffffffffffffffffffffffffffffffffffff16159150610b979050576040805162461bcd60e51b815260206004820152600e60248201527f47454d504f4f4c5f455849535453000000000000000000000000000000000000604482015290519081900360640190fd5b87610be9576040805162461bcd60e51b815260206004820152600d60248201527f494e56414c49445f505249434500000000000000000000000000000000000000604482015290519081900360640190fd5b86610c3b576040805162461bcd60e51b815260206004820152601060248201527f494e56414c49445f4d494e5f54494d4500000000000000000000000000000000604482015290519081900360640190fd5b84610c8d576040805162461bcd60e51b815260206004820152601760248201527f494e56414c49445f444946464943554c54595f53544550000000000000000000604482015290519081900360640190fd5b606060405180602001610c9f90611806565b601f1982820381018352601f909101166040529050610cc0600083836116e0565b92508273ffffffffffffffffffffffffffffffffffffffff1663d9a3f9bb8c8c8c8c8c8c8c8c6040518963ffffffff1660e01b81526004018080602001806020018981526020018881526020018781526020018681526020018581526020018473ffffffffffffffffffffffffffffffffffffffff16815260200183810383528b818151815260200191508051906020019080838360005b83811015610d70578181015183820152602001610d58565b50505050905090810190601f168015610d9d5780820380516001836020036101000a031916815260200191505b5083810382528a5181528a516020918201918c019080838360005b83811015610dd0578181015183820152602001610db8565b50505050905090810190601f168015610dfd5780820380516001836020036101000a031916815260200191505b509a5050505050505050505050600060405180830381600087803b158015610e2457600080fd5b505af1158015610e38573d6000803e3d6000fd5b505050600083815260026020908152604080832080547fffffffffffffffffffffffff000000000000000000000000000000000000000090811673ffffffffffffffffffffffffffffffffffffffff8a8116918217909355600380546001810182559087527fc2575a0e9e593c00f959f8c92f12db2869c3395a3b0502d05e2516446f71f85b01805490921617905581519182018e9052606082018d9052608082018c905260a082018b905260c082018a9052881660e08201526101008082528f51908201528e517fd5dd03a462020e8d5d777d0957fbf19067fc095f932d026bb0f23e384522f2a694508f938f938f938f938f938f938f938f939092839283810192610120850192918e01918190849084905b83811015610f64578181015183820152602001610f4c565b50505050905090810190601f168015610f915780820380516001836020036101000a031916815260200191505b5083810382528a5181528a516020918201918c019080838360005b83811015610fc4578181015183820152602001610fac565b50505050905090810190601f168015610ff15780820380516001836020036101000a031916815260200191505b509a505050505050505050505060405180910390a1505098975050505050505050565b3360009081526020819052604090205460ff1615156001148061103657503033145b6110725760405162461bcd60e51b815260040180806020018281038252602881526020018062005f796028913960400191505060405180910390fd5b60035481106110c8576040805162461bcd60e51b815260206004820152601260248201527f494e4445585f4f55545f4f465f52414e47450000000000000000000000000000604482015290519081900360640190fd5b600354600114156110e4576110df60036000611814565b611172565b6003805460001981019081106110f657fe5b6000918252602090912001546003805473ffffffffffffffffffffffffffffffffffffffff909216918390811061112957fe5b506000525060038054600019810190811061114057fe5b600091825260209091200180547fffffffffffffffffffffffff00000000000000000000000000000000000000001690555b50565b60035490565b60009081526002602052604090205473ffffffffffffffffffffffffffffffffffffffff1690565b3360009081526020819052604090205460ff161515600114806111c557503033145b6112015760405162461bcd60e51b815260040180806020018281038252602881526020018062005f796028913960400191505060405180910390fd5b73ffffffffffffffffffffffffffffffffffffffff16600090815260208190526040902080547fffffffffffffffffffffffffffffffffffffffffffffffffffffffffffffff00166001179055565b73ffffffffffffffffffffffffffffffffffffffff1660009081526020819052604090205460ff1690565b3360009081526020819052604090205460ff1615156001148061129d57503033145b6112d95760405162461bcd60e51b815260040180806020018281038252602881526020018062005f796028913960400191505060405180910390fd5b336000908152602052565b3360009081526020819052604081205460ff1615156001148061130657503033145b6113425760405162461bcd60e51b815260040180806020018281038252602881526020018062005f796028913960400191505060405180910390fd5b6000836040516020018082805190602001908083835b602083106113775780518252601f199092019160209182019101611358565b51815160209384036101000a60001901801990921691161790526040805192909401828103601f19018352845281519181019190912060008181526002909252929020549194505073ffffffffffffffffffffffffffffffffffffffff1615915061142b9050576040805162461bcd60e51b815260206004820152600e60248201527f47454d504f4f4c5f455849535453000000000000000000000000000000000000604482015290519081900360640190fd5b611437600082876116e0565b6000828152600260209081526040808320805473ffffffffffffffffffffffffffffffffffffffff86167fffffffffffffffffffffffff00000000000000000000000000000000000000009182168117909255600380546001810182559086527fc2575a0e9e593c00f959f8c92f12db2869c3395a3b0502d05e2516446f71f85b0180549091169091179055805181815288519181019190915287519395507f89087d44119cf78c7cc1dfb971ca45b6aa9fde12ab6feedacc1fb42c3487862c938893889383928382019260608501928801919081908490849083156109065781810151838201526020016108ee565b3360009081526020819052604090205460ff1615156001148061154957503033145b6115855760405162461bcd60e51b815260040180806020018281038252602881526020018062005f796028913960400191505060405180910390fd5b600081815260026020526040812080547fffffffffffffffffffffffff0000000000000000000000000000000000000000811690915573ffffffffffffffffffffffffffffffffffffffff16905b6003548110156116db578173ffffffffffffffffffffffffffffffffffffffff166003828154811061160157fe5b60009182526020909120015473ffffffffffffffffffffffffffffffffffffffff1614156116d357600354600114156116455761164060036000611814565b6116d3565b60038054600019810190811061165757fe5b6000918252602090912001546003805473ffffffffffffffffffffffffffffffffffffffff909216918390811061168a57fe5b50600052506003805460001981019081106116a157fe5b600091825260209091200180547fffffffffffffffffffffffff00000000000000000000000000000000000000001690555b6001016115d3565b505050565b60008084471015611738576040805162461bcd60e51b815260206004820152601d60248201527f437265617465323a20696e73756666696369656e742062616c616e6365000000604482015290519081900360640190fd5b825161178b576040805162461bcd60e51b815260206004820181905260248201527f437265617465323a2062797465636f6465206c656e677468206973207a65726f604482015290519081900360640190fd5b8383516020850187f5905073ffffffffffffffffffffffffffffffffffffffff81166117fe576040805162461bcd60e51b815260206004820152601960248201527f437265617465323a204661696c6564206f6e206465706c6f7900000000000000604482015290519081900360640190fd5b949350505050565b614732806200184783390190565b508054600082559060005260206000209081019061117291905b80821115611842576000815560010161182e565b509056fe60806040523480156200001157600080fd5b50336000908152602460205260408082208054600160ff1991821681179092553284529190922080549091169091179055620000546301ffc9a760e01b62000086565b62000066630271189760e51b62000086565b336000908152602460205260409020805460ff191660011790556200010b565b6001600160e01b03198082161415620000e6576040805162461bcd60e51b815260206004820152601c60248201527f4552433136353a20696e76616c696420696e7465726661636520696400000000604482015290519081900360640190fd5b6001600160e01b0319166000908152602960205260409020805460ff19166001179055565b614617806200011b6000396000f3fe6080604052600436106105895760003560e01c80639cf87c2a116102d5578063d31674db11610184578063e6c3b1f6116100e1578063f4fde0d311610095578063f9eaee0d1161006f578063f9eaee0d14611a8b578063fd31a0a514611abe578063ff186b2e14611ae857610589565b8063f4fde0d3146119ed578063f8d1e93014611a02578063f9c9c27614611a1757610589565b8063ef430aa6116100c6578063ef430aa6146118b7578063f1e4e553146118cc578063f23a6e611461191557610589565b8063e6c3b1f61461183e578063edcf2d571461187e57610589565b8063d9a3f9bb11610138578063e06174e41161011d578063e06174e41461166b578063e1c28bef146117ff578063e5d2ce2f1461181457610589565b8063d9a3f9bb146114c7578063d9caed121461162857610589565b8063d43e646011610169578063d43e646014611410578063d73cd47f1461143c578063d80528ae1461146f57610589565b8063d31674db146113d1578063d3d08397146113fb57610589565b8063c42cf53511610232578063c80c0613116101e6578063cdc8a8ab116101cb578063cdc8a8ab146112ee578063cf721b15146112a0578063d104f8f51461139e57610589565b8063c80c0613146112a0578063cb122dfc146112b557610589565b8063c54a924211610217578063c54a92421461121f578063c5e01a5c1461124c578063c65eff961461127657610589565b8063c42cf535146111b9578063c4552791146111ec57610589565b8063b385a50a11610289578063b788e4e91161026e578063b788e4e914610f9b578063bc197c8114610fb0578063c08fa1a414610ecc57610589565b8063b385a50a14610f53578063b429afeb14610f6857610589565b8063a7fc7a07116102ba578063a7fc7a0714610ee1578063a901c47414610f14578063af6a6d7914610f3e57610589565b80639cf87c2a14610ea2578063a0021cf114610ecc57610589565b8063504cdacf1161043c5780637c07bc7a116103995780638a09871b1161034d5780639277a185116103275780639277a18514610e305780639593556014610e6357806395d89b4114610e8d57610589565b80638a09871b14610d3557806390469a9d14610d4a57806390c3f38f14610d7d57610589565b80637dcb0e5f1161037e5780637dcb0e5f14610cb75780637f2e8f0c14610ce15780638297755114610d0b57610589565b80637c07bc7a14610c285780637c5d643e14610c8d57610589565b806368127a8e116103f05780637284e416116103d55780637284e41614610b3357806372a8ccb414610bbd5780637ae7815d14610bfc57610589565b806368127a8e14610ab45780636b6201da14610b1657610589565b80635e5f2e26116104215780635e5f2e2614610a125780635fb9309114610a585780636100c34314610a7557610589565b8063504cdacf146109e85780635d2e0dd4146109fd57610589565b8063328d8f72116104ea5780634178617f1161049e5780634565e5ef116104835780634565e5ef1461098557806347e7ef241461099a5780634e04cdc7146109d357610589565b80634178617f1461092657806344f0877c1461095957610589565b8063379607f5116104cf578063379607f514610867578063392732b1146108cd578063407dff16146108f057610589565b8063328d8f7214610826578063336b9efb1461085257610589565b806323b221a0116105415780632660cc76116105265780632660cc761461073457806326ff31521461078a57806327c10f56146107bd57610589565b806323b221a0146106bd5780632449ef51146106f957610589565b80631284650d116105725780631284650d146106435780632360cf5e14610678578063238dafe0146106a857610589565b806301ffc9a71461058e578063044215c6146105ee575b600080fd5b34801561059a57600080fd5b506105da600480360360208110156105b157600080fd5b50357fffffffff0000000000000000000000000000000000000000000000000000000016611afd565b604080519115158252519081900360200190f35b3480156105fa57600080fd5b506106186004803603602081101561061157600080fd5b5035611b34565b6040805160ff909416845260208401929092526001600160a01b031682820152519081900360600190f35b34801561064f57600080fd5b506106766004803603602081101561066657600080fd5b50356001600160a01b0316611b6a565b005b34801561068457600080fd5b506106766004803603604081101561069b57600080fd5b5080359060200135611b88565b3480156106b457600080fd5b506105da611c05565b3480156106c957600080fd5b506106e7600480360360208110156106e057600080fd5b5035611c14565b60408051918252519081900360200190f35b34801561070557600080fd5b506106766004803603604081101561071c57600080fd5b506001600160a01b0381358116916020013516611cba565b34801561074057600080fd5b50610676600480360360c081101561075757600080fd5b506001600160a01b03813581169160ff602082013516916040820135916060810135916080820135169060a00135611d56565b34801561079657600080fd5b50610676600480360360208110156107ad57600080fd5b50356001600160a01b03166121dc565b3480156107c957600080fd5b5061067660048036036101008110156107e157600080fd5b508035906001600160a01b03602082013581169160408101359091169060ff6060820135169060808101359060a08101359060c081013515159060e0013515156121f6565b34801561083257600080fd5b506106766004803603602081101561084957600080fd5b5035151561233a565b34801561085e57600080fd5b506106e76123e4565b34801561087357600080fd5b506108916004803603602081101561088a57600080fd5b50356123ea565b6040805196875260208701959095528585019390935260608501919091526001600160a01b0316608084015260a0830152519081900360c00190f35b610676600480360360408110156108e357600080fd5b5080359060200135612712565b3480156108fc57600080fd5b50610905612789565b6040518082600181111561091557fe5b815260200191505060405180910390f35b34801561093257600080fd5b506106766004803603602081101561094957600080fd5b50356001600160a01b0316612799565b34801561096557600080fd5b506106766004803603602081101561097c57600080fd5b50351515612816565b34801561099157600080fd5b506106e76128bf565b3480156109a657600080fd5b50610676600480360360408110156109bd57600080fd5b506001600160a01b0381351690602001356128d0565b3480156109df57600080fd5b506105da61294f565b3480156109f457600080fd5b506106e761295d565b348015610a0957600080fd5b506105da612963565b348015610a1e57600080fd5b50610a3c60048036036020811015610a3557600080fd5b503561296c565b604080516001600160a01b039092168252519081900360200190f35b61067660048036036020811015610a6e57600080fd5b503561297f565b348015610a8157600080fd5b5061067660048036036060811015610a9857600080fd5b506001600160a01b038135169060208101359060400135612a16565b348015610ac057600080fd5b50610676600480360360e0811015610ad757600080fd5b506001600160a01b03813581169160208101359091169060ff6040820135169060608101359060808101359060a081013515159060c001351515612ab9565b61067660048036036020811015610b2c57600080fd5b5035612bf4565b348015610b3f57600080fd5b50610b48612c6b565b6040805160208082528351818301528351919283929083019185019080838360005b83811015610b82578181015183820152602001610b6a565b50505050905090810190601f168015610baf5780820380516001836020036101000a031916815260200191505b509250505060405180910390f35b348015610bc957600080fd5b5061067660048036036060811015610be057600080fd5b506001600160a01b038135169060208101359060400135612d01565b348015610c0857600080fd5b5061067660048036036020811015610c1f57600080fd5b50351515612d87565b348015610c3457600080fd5b50610c3d612e09565b60408051602080825283518183015283519192839290830191858101910280838360005b83811015610c79578181015183820152602001610c61565b505050509050019250505060405180910390f35b348015610c9957600080fd5b5061067660048036036020811015610cb057600080fd5b5035612e63565b348015610cc357600080fd5b506106e760048036036020811015610cda57600080fd5b5035612ed3565b348015610ced57600080fd5b506106e760048036036020811015610d0457600080fd5b5035612ee5565b348015610d1757600080fd5b506106e760048036036020811015610d2e57600080fd5b5035612f59565b348015610d4157600080fd5b506106e7612f6b565b348015610d5657600080fd5b5061067660048036036020811015610d6d57600080fd5b50356001600160a01b0316612fef565b348015610d8957600080fd5b5061067660048036036020811015610da057600080fd5b810190602081018135640100000000811115610dbb57600080fd5b820183602082011115610dcd57600080fd5b80359060200191846001830284011164010000000083111715610def57600080fd5b91908080601f01602080910402602001604051908101604052809392919081815260200183838082843760009201919091525092955061306c945050505050565b348015610e3c57600080fd5b5061067660048036036020811015610e5357600080fd5b50356001600160a01b03166130f5565b348015610e6f57600080fd5b506106e760048036036020811015610e8657600080fd5b5035613149565b348015610e9957600080fd5b50610b486131bd565b348015610eae57600080fd5b506105da60048036036020811015610ec557600080fd5b503561321e565b348015610ed857600080fd5b506106e7613232565b348015610eed57600080fd5b5061067660048036036020811015610f0457600080fd5b50356001600160a01b0316613238565b348015610f2057600080fd5b506106e760048036036020811015610f3757600080fd5b50356132b9565b348015610f4a57600080fd5b506105da61332d565b348015610f5f57600080fd5b506106e7613336565b348015610f7457600080fd5b506105da60048036036020811015610f8b57600080fd5b50356001600160a01b031661333c565b348015610fa757600080fd5b506106e761335a565b348015610fbc57600080fd5b50611184600480360360a0811015610fd357600080fd5b6001600160a01b03823581169260208101359091169181019060608101604082013564010000000081111561100757600080fd5b82018360208201111561101957600080fd5b8035906020019184602083028401116401000000008311171561103b57600080fd5b919080806020026020016040519081016040528093929190818152602001838360200280828437600092019190915250929594936020810193503591505064010000000081111561108b57600080fd5b82018360208201111561109d57600080fd5b803590602001918460208302840111640100000000831117156110bf57600080fd5b919080806020026020016040519081016040528093929190818152602001838360200280828437600092019190915250929594936020810193503591505064010000000081111561110f57600080fd5b82018360208201111561112157600080fd5b8035906020019184600183028401116401000000008311171561114357600080fd5b91908080601f0160208091040260200160405190810160405280939291908181526020018383808284376000920191909152509295506133ad945050505050565b604080517fffffffff000000000000000000000000000000000000000000000000000000009092168252519081900360200190f35b3480156111c557600080fd5b50610676600480360360208110156111dc57600080fd5b50356001600160a01b03166133d7565b3480156111f857600080fd5b50610a3c6004803603602081101561120f57600080fd5b50356001600160a01b031661342b565b34801561122b57600080fd5b506106766004803603602081101561124257600080fd5b503560ff16613430565b34801561125857600080fd5b50610a3c6004803603602081101561126f57600080fd5b50356134e4565b34801561128257600080fd5b506106766004803603602081101561129957600080fd5b5035613558565b3480156112ac57600080fd5b506106e76135cf565b3480156112c157600080fd5b50610676600480360360608110156112d857600080fd5b5080359060ff60208201351690604001356135d5565b3480156112fa57600080fd5b506106766004803603602081101561131157600080fd5b81019060208101813564010000000081111561132c57600080fd5b82018360208201111561133e57600080fd5b8035906020019184602083028401116401000000008311171561136057600080fd5b919080806020026020016040519081016040528093929190818152602001838360200280828437600092019190915250929550613674945050505050565b3480156113aa57600080fd5b50610676600480360360208110156113c157600080fd5b50356001600160a01b03166136f9565b3480156113dd57600080fd5b506106e7600480360360208110156113f457600080fd5b503561374d565b34801561140757600080fd5b506106e7613770565b34801561141c57600080fd5b506106766004803603602081101561143357600080fd5b503515156137c3565b34801561144857600080fd5b506106766004803603602081101561145f57600080fd5b50356001600160a01b0316613848565b34801561147b57600080fd5b5061148461389c565b6040805198151589526020890197909752878701959095526060870193909352608086019190915260a085015260c084015260e083015251908190036101000190f35b3480156114d357600080fd5b5061067660048036036101008110156114eb57600080fd5b81019060208101813564010000000081111561150657600080fd5b82018360208201111561151857600080fd5b8035906020019184600183028401116401000000008311171561153a57600080fd5b91908080601f016020809104026020016040519081016040528093929190818152602001838380828437600092019190915250929594936020810193503591505064010000000081111561158d57600080fd5b82018360208201111561159f57600080fd5b803590602001918460018302840111640100000000831117156115c157600080fd5b91908080601f0160208091040260200160405190810160405280939291908181526020018383808284376000920191909152509295505082359350505060208101359060408101359060608101359060808101359060a001356001600160a01b0316613a04565b34801561163457600080fd5b506106766004803603606081101561164b57600080fd5b506001600160a01b03813581169160208101359091169060400135613b3f565b34801561167757600080fd5b50611680613bc6565b604051808060200180602001806020018c81526020018b81526020018a815260200189815260200188815260200187815260200186815260200185815260200184810384528f818151815260200191508051906020019080838360005b838110156116f55781810151838201526020016116dd565b50505050905090810190601f1680156117225780820380516001836020036101000a031916815260200191505b5084810383528e818151815260200191508051906020019080838360005b83811015611758578181015183820152602001611740565b50505050905090810190601f1680156117855780820380516001836020036101000a031916815260200191505b5084810382528d5181528d516020918201918f019080838360005b838110156117b85781810151838201526020016117a0565b50505050905090810190601f1680156117e55780820380516001836020036101000a031916815260200191505b509e50505050505050505050505050505060405180910390f35b34801561180b57600080fd5b50610676613df7565b34801561182057600080fd5b506106766004803603602081101561183757600080fd5b5035613e6d565b34801561184a57600080fd5b506118686004803603602081101561186157600080fd5b5035613ee4565b6040805160ff9092168252519081900360200190f35b34801561188a57600080fd5b50610676600480360360408110156118a157600080fd5b506001600160a01b038135169060200135613ef9565b3480156118c357600080fd5b506106e7613f7f565b3480156118d857600080fd5b50610676600480360360808110156118ef57600080fd5b506001600160a01b03813581169160208101359091169060408101359060600135613f85565b34801561192157600080fd5b50611184600480360360a081101561193857600080fd5b6001600160a01b03823581169260208101359091169160408201359160608101359181019060a08101608082013564010000000081111561197857600080fd5b82018360208201111561198a57600080fd5b803590602001918460018302840111640100000000831117156119ac57600080fd5b91908080601f016020809104026020016040519081016040528093929190818152602001838380828437600092019190915250929550614027945050505050565b3480156119f957600080fd5b506106e7614051565b348015611a0e57600080fd5b50610c3d614057565b348015611a2357600080fd5b50611a4160048036036020811015611a3a57600080fd5b50356140b7565b604080516001600160a01b03988916815296909716602087015260ff9094168587015260608501929092526080840152151560a0830152151560c082015290519081900360e00190f35b348015611a9757600080fd5b506105da60048036036020811015611aae57600080fd5b50356001600160a01b031661417d565b348015611aca57600080fd5b5061067660048036036020811015611ae157600080fd5b503561418a565b348015611af457600080fd5b506106e7614201565b7fffffffff000000000000000000000000000000000000000000000000000000001660009081526029602052604090205460ff1690565b6000908152601260209081526040808320546013835281842054601490935292205460ff9092169290916001600160a01b031690565b611b75601582614207565b15611b8557611b85601582614262565b50565b3360009081526024602052604090205460ff16151560011480611bb557506002546001600160a01b031633145b80611bbf57503033145b611bfa5760405162461bcd60e51b81526004018080602001828103825260288152602001806145906028913960400191505060405180910390fd5b601991909155601855565b60115462010000900460ff1690565b604080517f01356b6d00000000000000000000000000000000000000000000000000000000815260006004820181905260248201849052915173__$8228317518e9daeef1bbbb17c026e269fd$__916301356b6d916044808301926020929190829003018186803b158015611c8857600080fd5b505af4158015611c9c573d6000803e3d6000fd5b505050506040513d6020811015611cb257600080fd5b505192915050565b604080517fb9f052740000000000000000000000000000000000000000000000000000000081526000600482018190526001600160a01b03808616602484015284166044830152915173__$8228317518e9daeef1bbbb17c026e269fd$__9263b9f052749260648082019391829003018186803b158015611d3a57600080fd5b505af4158015611d4e573d6000803e3d6000fd5b505050505050565b3360009081526024602052604090205460ff16151560011480611d8357506002546001600160a01b031633145b80611d8d57503033145b611dc85760405162461bcd60e51b81526004018080602001828103825260288152602001806145906028913960400191505060405180910390fd5b60008560ff1611611e20576040805162461bcd60e51b815260206004820152601160248201527f494e56414c49445f544f4b454e54595045000000000000000000000000000000604482015290519081900360640190fd5b60008411611e75576040805162461bcd60e51b815260206004820152601160248201527f494e56414c49445f544f4b454e48415348000000000000000000000000000000604482015290519081900360640190fd5b6001600160a01b038616611ed0576040805162461bcd60e51b815260206004820152600d60248201527f494e56414c49445f544f4b454e00000000000000000000000000000000000000604482015290519081900360640190fd5b6001600160a01b038216611f2b576040805162461bcd60e51b815260206004820152601160248201527f494e56414c49445f524543495049454e54000000000000000000000000000000604482015290519081900360640190fd5b611f36601587614207565b1515600114611f8c576040805162461bcd60e51b815260206004820152601360248201527f494e56414c49445f544f4b454e534f5552434500000000000000000000000000604482015290519081900360640190fd5b60008111611fe1576040805162461bcd60e51b815260206004820152600f60248201527f494e56414c49445f5155414e5449590000000000000000000000000000000000604482015290519081900360640190fd5b600084815260208052604090205460ff1615612044576040805162461bcd60e51b815260206004820152601060248201527f414c52454144595f494d504f5254454400000000000000000000000000000000604482015290519081900360640190fd5b600154604080517f156e29f60000000000000000000000000000000000000000000000000000000081526001600160a01b03858116600483015260248201889052604482018590529151919092169163156e29f691606480830192600092919082900301818387803b1580156120b957600080fd5b505af11580156120cd573d6000803e3d6000fd5b5050600154604080517f7c8810760000000000000000000000000000000000000000000000000000000081526004810189905260ff8a16602482015230604482015290516001600160a01b039092169350637c881076925060648082019260009290919082900301818387803b15801561214657600080fd5b505af115801561215a573d6000803e3d6000fd5b50505060009485525050601260209081526040808520805460ff90971660ff19978816179055601382528085209390935580805282842080549095166001179094555060149092522080546001600160a01b039092167fffffffffffffffffffffffff0000000000000000000000000000000000000000909216919091179055565b6121e7601582614207565b611b8557611b856015826143b9565b3360009081526024602052604090205460ff1615156001148061222357506002546001600160a01b031633145b8061222d57503033145b6122685760405162461bcd60e51b81526004018080602001828103825260288152602001806145906028913960400191505060405180910390fd5b604080517fc4d13b4c000000000000000000000000000000000000000000000000000000008152600060048201819052602482018b90526001600160a01b03808b1660448401528916606483015260ff8816608483015260a4820187905260c4820186905284151560e4830152831515610104830152915173__$8228317518e9daeef1bbbb17c026e269fd$__9263c4d13b4c926101248082019391829003018186803b15801561231857600080fd5b505af415801561232c573d6000803e3d6000fd5b505050505050505050505050565b3360009081526024602052604090205460ff1615156001148061236757506002546001600160a01b031633145b8061237157503033145b6123ac5760405162461bcd60e51b81526004018080602001828103825260288152602001806145906028913960400191505060405180910390fd5b6011805491151562010000027fffffffffffffffffffffffffffffffffffffffffffffffffffffffffff00ffff909216919091179055565b60105490565b600080600080600080600073__$8228317518e9daeef1bbbb17c026e269fd$__6301356b6d9091896040518363ffffffff1660e01b8152600401808381526020018281526020019250505060206040518083038186803b15801561244d57600080fd5b505af4158015612461573d6000803e3d6000fd5b505050506040513d602081101561247757600080fd5b5051604080517fecd5244e00000000000000000000000000000000000000000000000000000000815260006004820152602481018a9052905191975073__$8228317518e9daeef1bbbb17c026e269fd$__9163ecd5244e91604480820192602092909190829003018186803b1580156124ef57600080fd5b505af4158015612503573d6000803e3d6000fd5b505050506040513d602081101561251957600080fd5b5051604080517fb94677da00000000000000000000000000000000000000000000000000000000815260006004820152602481018a9052905191965073__$8228317518e9daeef1bbbb17c026e269fd$__9163b94677da91604480820192602092909190829003018186803b15801561259157600080fd5b505af41580156125a5573d6000803e3d6000fd5b505050506040513d60208110156125bb57600080fd5b5051604080517fdc1f0f5300000000000000000000000000000000000000000000000000000000815260006004820152602481018a9052905191955073__$8228317518e9daeef1bbbb17c026e269fd$__9163dc1f0f5391604480820192602092909190829003018186803b15801561263357600080fd5b505af4158015612647573d6000803e3d6000fd5b505050506040513d602081101561265d57600080fd5b5051604080517f76e455e100000000000000000000000000000000000000000000000000000000815260006004820152602481018a9052905191945073__$8228317518e9daeef1bbbb17c026e269fd$__916376e455e191604480820192602092909190829003018186803b1580156126d557600080fd5b505af41580156126e9573d6000803e3d6000fd5b505050506040513d60208110156126ff57600080fd5b5051601954969895975093959294915050565b604080517f80ca2ba60000000000000000000000000000000000000000000000000000000081526000600482018190526024820185905260448201849052915173__$8228317518e9daeef1bbbb17c026e269fd$__926380ca2ba69260648082019391829003018186803b158015611d3a57600080fd5b6011546301000000900460ff1690565b3360009081526024602052604090205460ff161515600114806127c657506002546001600160a01b031633145b806127d057503033145b61280b5760405162461bcd60e51b81526004018080602001828103825260288152602001806145906028913960400191505060405180910390fd5b611b856027826143b9565b3360009081526024602052604090205460ff1615156001148061284357506002546001600160a01b031633145b8061284d57503033145b6128885760405162461bcd60e51b81526004018080602001828103825260288152602001806145906028913960400191505060405180910390fd5b60118054911515610100027fffffffffffffffffffffffffffffffffffffffffffffffffffffffffffff00ff909216919091179055565b60006128cb6027614464565b905090565b604080517f88d496a40000000000000000000000000000000000000000000000000000000081526000600482018190526001600160a01b038516602483015260448201849052915173__$8228317518e9daeef1bbbb17c026e269fd$__926388d496a49260648082019391829003018186803b158015611d3a57600080fd5b601154610100900460ff1690565b601a5490565b60115460ff1690565b600061297960278361446b565b92915050565b604080517fe5fca79a00000000000000000000000000000000000000000000000000000000815260006004820181905233602483015234604483015260648201849052915173__$8228317518e9daeef1bbbb17c026e269fd$__9263e5fca79a9260848082019391829003018186803b1580156129fb57600080fd5b505af4158015612a0f573d6000803e3d6000fd5b5050505050565b604080517fafeafd9a0000000000000000000000000000000000000000000000000000000081526000600482018190526001600160a01b03861660248301526044820185905260648201849052915173__$8228317518e9daeef1bbbb17c026e269fd$__9263afeafd9a9260848082019391829003018186803b158015612a9c57600080fd5b505af4158015612ab0573d6000803e3d6000fd5b50505050505050565b3360009081526024602052604090205460ff16151560011480612ae657506002546001600160a01b031633145b80612af057503033145b612b2b5760405162461bcd60e51b81526004018080602001828103825260288152602001806145906028913960400191505060405180910390fd5b604080517fc007855c0000000000000000000000000000000000000000000000000000000081526000600482018190526001600160a01b03808b1660248401528916604483015260ff881660648301526084820187905260a4820186905284151560c483015283151560e4830152915173__$8228317518e9daeef1bbbb17c026e269fd$__9263c007855c926101048082019391829003018186803b158015612bd357600080fd5b505af4158015612be7573d6000803e3d6000fd5b5050505050505050505050565b604080517f80ca2ba60000000000000000000000000000000000000000000000000000000081526000600482018190526024820184905260016044830152915173__$8228317518e9daeef1bbbb17c026e269fd$__926380ca2ba69260648082019391829003018186803b1580156129fb57600080fd5b60098054604080516020601f6002600019610100600188161502019095169490940493840181900481028201810190925282815260609390929091830182828015612cf75780601f10612ccc57610100808354040283529160200191612cf7565b820191906000526020600020905b815481529060010190602001808311612cda57829003601f168201915b5050505050905090565b604080517f401348c90000000000000000000000000000000000000000000000000000000081526000600482018190526001600160a01b03861660248301526044820185905260648201849052915173__$8228317518e9daeef1bbbb17c026e269fd$__9263401348c99260848082019391829003018186803b158015612a9c57600080fd5b3360009081526024602052604090205460ff16151560011480612db457506002546001600160a01b031633145b80612dbe57503033145b612df95760405162461bcd60e51b81526004018080602001828103825260288152602001806145906028913960400191505060405180910390fd5b506011805460ff19166001179055565b60606000601701805480602002602001604051908101604052809291908181526020018280548015612cf757602002820191906000526020600020905b815481526020019060010190808311612e46575050505050905090565b604080517f96b8b27f00000000000000000000000000000000000000000000000000000000815260006004820181905260248201849052915173__$8228317518e9daeef1bbbb17c026e269fd$__926396b8b27f9260448082019391829003018186803b1580156129fb57600080fd5b60009081526013602052604090205490565b604080517fecd5244e00000000000000000000000000000000000000000000000000000000815260006004820181905260248201849052915173__$8228317518e9daeef1bbbb17c026e269fd$__9163ecd5244e916044808301926020929190829003018186803b158015611c8857600080fd5b60009081526021602052604090205490565b60008073__$8228317518e9daeef1bbbb17c026e269fd$__63164cd8c290916040518263ffffffff1660e01b81526004018082815260200191505060206040518083038186803b158015612fbe57600080fd5b505af4158015612fd2573d6000803e3d6000fd5b505050506040513d6020811015612fe857600080fd5b5051905090565b3360009081526024602052604090205460ff1615156001148061301c57506002546001600160a01b031633145b8061302657503033145b6130615760405162461bcd60e51b81526004018080602001828103825260288152602001806145906028913960400191505060405180910390fd5b611b85602782614262565b3360009081526024602052604090205460ff1615156001148061309957506002546001600160a01b031633145b806130a357503033145b6130de5760405162461bcd60e51b81526004018080602001828103825260288152602001806145906028913960400191505060405180910390fd5b80516130f1906009906020840190614498565b5050565b336000908152602460205260409020805460ff19166001179055600380547fffffffffffffffffffffffff0000000000000000000000000000000000000000166001600160a01b0392909216919091179055565b604080517fdc1f0f5300000000000000000000000000000000000000000000000000000000815260006004820181905260248201849052915173__$8228317518e9daeef1bbbb17c026e269fd$__9163dc1f0f53916044808301926020929190829003018186803b158015611c8857600080fd5b60078054604080516020601f6002600019610100600188161502019095169490940493840181900481028201810190925282815260609390929091830182828015612cf75780601f10612ccc57610100808354040283529160200191612cf7565b600090815260208052604090205460ff1690565b60195490565b3360009081526024602052604090205460ff1615156001148061325a57503033145b6132955760405162461bcd60e51b81526004018080602001828103825260288152602001806145906028913960400191505060405180910390fd5b6001600160a01b03166000908152602460205260409020805460ff19166001179055565b604080517fb94677da00000000000000000000000000000000000000000000000000000000815260006004820181905260248201849052915173__$8228317518e9daeef1bbbb17c026e269fd$__9163b94677da916044808301926020929190829003018186803b158015611c8857600080fd5b60065460ff1690565b600f5490565b6001600160a01b031660009081526024602052604090205460ff1690565b60008073__$8228317518e9daeef1bbbb17c026e269fd$__6333c13e0d90916040518263ffffffff1660e01b81526004018082815260200191505060206040518083038186803b158015612fbe57600080fd5b7fbc197c810000000000000000000000000000000000000000000000000000000095945050505050565b336000908152602460205260409020805460ff19166001179055600280547fffffffffffffffffffffffff0000000000000000000000000000000000000000166001600160a01b0392909216919091179055565b503090565b3360009081526024602052604090205460ff1615156001148061345d57506002546001600160a01b031633145b8061346757503033145b6134a25760405162461bcd60e51b81526004018080602001828103825260288152602001806145906028913960400191505060405180910390fd5b601180548291907fffffffffffffffffffffffffffffffffffffffffffffffffffffffff00ffffff1663010000008360018111156134dc57fe5b021790555050565b604080517f76e455e100000000000000000000000000000000000000000000000000000000815260006004820181905260248201849052915173__$8228317518e9daeef1bbbb17c026e269fd$__916376e455e1916044808301926020929190829003018186803b158015611c8857600080fd5b3360009081526024602052604090205460ff1615156001148061358557506002546001600160a01b031633145b8061358f57503033145b6135ca5760405162461bcd60e51b81526004018080602001828103825260288152602001806145906028913960400191505060405180910390fd5b601055565b60185490565b3360009081526024602052604090205460ff1615156001148061360257506002546001600160a01b031633145b8061360c57503033145b6136475760405162461bcd60e51b81526004018080602001828103825260288152602001806145906028913960400191505060405180910390fd5b6000928352601260209081526040808520805460ff191660ff959095169490941790935560139052912055565b3360009081526024602052604090205460ff161515600114806136a157506002546001600160a01b031633145b806136ab57503033145b6136e65760405162461bcd60e51b81526004018080602001828103825260288152602001806145906028913960400191505060405180910390fd5b80516130f1906017906020840190614516565b336000908152602460205260409020805460ff19166001179055600180547fffffffffffffffffffffffff0000000000000000000000000000000000000000166001600160a01b0392909216919091179055565b600080601701828154811061375e57fe5b90600052602060002001549050919050565b60008073__$8228317518e9daeef1bbbb17c026e269fd$__63828c7b7290916040518263ffffffff1660e01b81526004018082815260200191505060206040518083038186803b158015612fbe57600080fd5b3360009081526024602052604090205460ff161515600114806137f057506002546001600160a01b031633145b806137fa57503033145b6138355760405162461bcd60e51b81526004018080602001828103825260288152602001806145906028913960400191505060405180910390fd5b6006805460ff1916911515919091179055565b336000908152602460205260409020805460ff19166001179055600480547fffffffffffffffffffffffff0000000000000000000000000000000000000000166001600160a01b0392909216919091179055565b600654601954601854601a54604080517f164cd8c2000000000000000000000000000000000000000000000000000000008152600060048201819052915160ff9096169582918291829173__$8228317518e9daeef1bbbb17c026e269fd$__9163164cd8c291602480820192602092909190829003018186803b15801561392257600080fd5b505af4158015613936573d6000803e3d6000fd5b505050506040513d602081101561394c57600080fd5b5051604080517f33c13e0d00000000000000000000000000000000000000000000000000000000815260006004820152905191955073__$8228317518e9daeef1bbbb17c026e269fd$__916333c13e0d91602480820192602092909190829003018186803b1580156139bd57600080fd5b505af41580156139d1573d6000803e3d6000fd5b505050506040513d60208110156139e757600080fd5b5051601954601854999a9899979896979596919590945092509050565b3360009081526024602052604090205460ff16151560011480613a3157506002546001600160a01b031633145b80613a3b57503033145b613a765760405162461bcd60e51b81526004018080602001828103825260288152602001806145906028913960400191505060405180910390fd5b600080547fffffffffffffffffffffffff000000000000000000000000000000000000000016301790558751613ab39060079060208b0190614498565b508651613ac79060089060208a0190614498565b50600a869055600b859055600c849055600d839055600e8290556006805460ff19166001179055601180547fffffffffffffffffffffffffffffffffffffffffffffffffffffffffff00ffff16620100001790556001600160a01b03811615613b3557613b356027826143b9565b5050505050505050565b604080517fe5932f420000000000000000000000000000000000000000000000000000000081526000600482018190526001600160a01b0380871660248401528516604483015260648201849052915173__$8228317518e9daeef1bbbb17c026e269fd$__9263e5932f429260848082019391829003018186803b158015612a9c57600080fd5b60078054604080516020601f60026000196101006001881615020190951694909404938401819004810282018101909252828152606093849384936000938493849384938493849384938493830182828015613c635780601f10613c3857610100808354040283529160200191613c63565b820191906000526020600020905b815481529060010190602001808311613c4657829003601f168201915b50505050509a5060006008018054600181600116156101000203166002900480601f016020809104026020016040519081016040528092919081815260200182805460018160011615610100020316600290048015613d035780601f10613cd857610100808354040283529160200191613d03565b820191906000526020600020905b815481529060010190602001808311613ce657829003601f168201915b5050505050995060006009018054600181600116156101000203166002900480601f016020809104026020016040519081016040528092919081815260200182805460018160011615610100020316600290048015613da35780601f10613d7857610100808354040283529160200191613da3565b820191906000526020600020905b815481529060010190602001808311613d8657829003601f168201915b5050505050985060006005015497506000600a015496506000600b015495506000600c015494506000600d015493506000600e015492506000600f015491506000601001549050909192939495969798999a565b3360009081526024602052604090205460ff16151560011480613e1957503033145b613e545760405162461bcd60e51b81526004018080602001828103825260288152602001806145906028913960400191505060405180910390fd5b336000908152602460205260409020805460ff19169055565b3360009081526024602052604090205460ff16151560011480613e9a57506002546001600160a01b031633145b80613ea457503033145b613edf5760405162461bcd60e51b81526004018080602001828103825260288152602001806145906028913960400191505060405180910390fd5b600555565b60009081526012602052604090205460ff1690565b604080517fafeafd9a0000000000000000000000000000000000000000000000000000000081526000600482018190526001600160a01b03851660248301526044820184905260016064830152915173__$8228317518e9daeef1bbbb17c026e269fd$__9263afeafd9a9260848082019391829003018186803b158015611d3a57600080fd5b60055490565b604080517f210dd8100000000000000000000000000000000000000000000000000000000081526000600482018190526001600160a01b038088166024840152861660448301526064820185905260848201849052915173__$8228317518e9daeef1bbbb17c026e269fd$__9263210dd8109260a48082019391829003018186803b15801561401357600080fd5b505af4158015613b35573d6000803e3d6000fd5b7ff23a6e610000000000000000000000000000000000000000000000000000000095945050505050565b60175490565b601680546040805160208084028201810190925282815260609390929091830182828015612cf757602002820191906000526020600020905b81546001600160a01b03168152600190910190602001808311614090575050505050905090565b60008060008060008060008073__$8228317518e9daeef1bbbb17c026e269fd$__635b68e93c90918a6040518363ffffffff1660e01b8152600401808381526020018281526020019250505060e06040518083038186803b15801561411b57600080fd5b505af415801561412f573d6000803e3d6000fd5b505050506040513d60e081101561414557600080fd5b508051602082015160408301516060840151608085015160a086015160c090960151949e939d50919b50995097509195509350915050565b6000612979602783614207565b3360009081526024602052604090205460ff161515600114806141b757506002546001600160a01b031633145b806141c157503033145b6141fc5760405162461bcd60e51b81526004018080602001828103825260288152602001806145906028913960400191505060405180910390fd5b600f55565b600a5490565b600182015460009061421b57506000612979565b6001600160a01b038216600081815260208590526040902054600185018054909190811061424557fe5b6000918252602090912001546001600160a01b0316149392505050565b61426c8282614207565b6142a75760405162461bcd60e51b815260040180806020018281038252602a815260200180614566602a913960400191505060405180910390fd5b600060016142b484614464565b6001600160a01b03841660009081526020869052604090205491900391508082146143555760008460010183815481106142ea57fe5b60009182526020808320909101546001600160a01b031680835290879052604090912083905560018601805491925082918490811061432557fe5b9060005260206000200160006101000a8154816001600160a01b0302191690836001600160a01b03160217905550505b6001600160a01b038316600090815260208590526040812055600184018054600019810190811061438257fe5b600091825260209091200180547fffffffffffffffffffffffff000000000000000000000000000000000000000016905550505050565b6143c38282614207565b156143ff5760405162461bcd60e51b815260040180806020018281038252602a8152602001806145b8602a913960400191505060405180910390fd5b6001828101805491820181556000818152602080822090930180547fffffffffffffffffffffffff0000000000000000000000000000000000000000166001600160a01b03959095169485179055905492815292905260409091206000199091019055565b6001015490565b600082600101828154811061447c57fe5b6000918252602090912001546001600160a01b03169392505050565b828054600181600116156101000203166002900490600052602060002090601f016020900481019282601f106144d957805160ff1916838001178555614506565b82800160010185558215614506579182015b828111156145065782518255916020019190600101906144eb565b50614512929150614550565b5090565b82805482825590600052602060002090810192821561450657916020028201828111156145065782518255916020019190600101906144eb565b5b80821115614512576000815560010161455156fe416464726573735365743a206b657920646f6573206e6f7420657869737420696e20746865207365742e436f6e74726f6c6c61626c653a2063616c6c6572206973206e6f74206120636f6e74726f6c6c6572416464726573735365743a206b657920616c72656164792065786973747320696e20746865207365742ea26469706673582212201ba8da292e947edb9c9c97acee30e557d39cc4c29505fea8cff8c984eabb9f0564736f6c63430007030033436f6e74726f6c6c61626c653a2063616c6c6572206973206e6f74206120636f6e74726f6c6c6572a2646970667358221220d06972f4896020b63bbdeec6dca647d779a8075a6919d71a829d1f3032f0a0eb64736f6c63430007030033",
  "libraries": {
    "GovernanceLib": "0x9eAc2A20bFB02a065b5B721109Ce51D4730B9e92",
    "Strings": "0xe98D76f55e5Dae2DE566CC8Aa1a36282742eabf7",
    "SafeMath": "0x753f0df0a61c5F8A0eB31c6Bf6e7363943Eb225B",
    "AddressSet": "0x6294d470E32D8136E9446Cd2462C90EDCca7393D",
    "UInt256Set": "0x09336a713E2b8C89157Ef7B281ffe204De994620",
    "Create2": "0x117f8511d54E60dE2F1C63F0Ac1c7C05473cdAa4",
    "ProposalsLib": "0xBF94bC1ecd62ee4E455C7340B8f3fE40C9779f16",
    "ComplexPoolLib": "0xA2582A91d423AD57132E46e507599e02559D1991",
    "WrappedTokenLib": "0x518C32E1Eb631dfD663C191763127675b901a283"
  },
  "devdoc": {
    "kind": "dev",
    "methods": {
      "addController(address)": {
        "details": "Add an address allowed to control this contract"
      },
      "addCustomNFTGemPool(address,string,string)": {
        "details": "add an existing gem pool to factory(for migrations)"
      },
      "allNFTGemPools(uint256)": {
        "details": "get the quantized token for this"
      },
      "allNFTGemPoolsLength()": {
        "details": "number of quantized addresses"
      },
      "createCustomNFTGemPool(bytes,string,string)": {
        "details": "deploy a new erc20 token using create2"
      },
      "createNFTGemPool(string,string,uint256,uint256,uint256,uint256,uint256,address)": {
        "details": "deploy a new erc20 token using create2"
      },
      "getNFTGemPool(uint256)": {
        "details": "get the quantized token for this"
      },
      "isController(address)": {
        "details": "Check if this address is a controller"
      },
      "nftGemPools()": {
        "details": "get the quantized token for this"
      },
      "relinquishControl()": {
        "details": "Check if this address is a controller"
      },
      "removeGemPool(uint256)": {
        "details": "remove a gem pool from the list using its symbol hash"
      },
      "removeGemPoolAt(uint256)": {
        "details": "remove a gem pool from the list using its index into pools array"
      }
    },
    "version": 1
  },
  "userdoc": {
    "kind": "user",
    "methods": {},
    "version": 1
  },
  "storageLayout": {
    "storage": [
      {
        "astId": 10169,
        "contract": "src/factories/NFTGemPoolFactory.sol:NFTGemPoolFactory",
        "label": "_controllers",
        "offset": 0,
        "slot": "0",
        "type": "t_mapping(t_address,t_bool)"
      },
      {
        "astId": 10573,
        "contract": "src/factories/NFTGemPoolFactory.sol:NFTGemPoolFactory",
        "label": "operator",
        "offset": 0,
        "slot": "1",
        "type": "t_address"
      },
      {
        "astId": 10577,
        "contract": "src/factories/NFTGemPoolFactory.sol:NFTGemPoolFactory",
        "label": "_getNFTGemPool",
        "offset": 0,
        "slot": "2",
        "type": "t_mapping(t_uint256,t_address)"
      },
      {
        "astId": 10580,
        "contract": "src/factories/NFTGemPoolFactory.sol:NFTGemPoolFactory",
        "label": "_allNFTGemPools",
        "offset": 0,
        "slot": "3",
        "type": "t_array(t_address)dyn_storage"
      }
    ],
    "types": {
      "t_address": {
        "encoding": "inplace",
        "label": "address",
        "numberOfBytes": "20"
      },
      "t_array(t_address)dyn_storage": {
        "base": "t_address",
        "encoding": "dynamic_array",
        "label": "address[]",
        "numberOfBytes": "32"
      },
      "t_bool": {
        "encoding": "inplace",
        "label": "bool",
        "numberOfBytes": "1"
      },
      "t_mapping(t_address,t_bool)": {
        "encoding": "mapping",
        "key": "t_address",
        "label": "mapping(address => bool)",
        "numberOfBytes": "32",
        "value": "t_bool"
      },
      "t_mapping(t_uint256,t_address)": {
        "encoding": "mapping",
        "key": "t_uint256",
        "label": "mapping(uint256 => address)",
        "numberOfBytes": "32",
        "value": "t_address"
      },
      "t_uint256": {
        "encoding": "inplace",
        "label": "uint256",
        "numberOfBytes": "32"
      }
    }
  }
}