{
  "address": "0xaEA74b36Bc9B0FdC7429127f9A49BAE9edea898D",
  "abi": [
    {
      "inputs": [],
      "stateMutability": "nonpayable",
      "type": "constructor"
    },
    {
      "anonymous": false,
      "inputs": [
        {
          "indexed": true,
          "internalType": "address",
          "name": "contractAddress",
          "type": "address"
        },
        {
          "indexed": true,
          "internalType": "address",
          "name": "controllerAddress",
          "type": "address"
        }
      ],
      "name": "ControllerAdded",
      "type": "event"
    },
    {
      "anonymous": false,
      "inputs": [
        {
          "indexed": true,
          "internalType": "address",
          "name": "contractAddress",
          "type": "address"
        },
        {
          "indexed": true,
          "internalType": "address",
          "name": "controllerAddress",
          "type": "address"
        }
      ],
      "name": "ControllerRemoved",
      "type": "event"
    },
    {
      "anonymous": false,
      "inputs": [
        {
          "indexed": false,
          "internalType": "string",
          "name": "gemSymbol",
          "type": "string"
        },
        {
          "indexed": false,
          "internalType": "string",
          "name": "gemName",
          "type": "string"
        }
      ],
      "name": "CustomNFTGemPoolCreated",
      "type": "event"
    },
    {
      "anonymous": false,
      "inputs": [
        {
          "indexed": false,
          "internalType": "string",
          "name": "gemSymbol",
          "type": "string"
        },
        {
          "indexed": false,
          "internalType": "string",
          "name": "gemName",
          "type": "string"
        },
        {
          "indexed": false,
          "internalType": "uint256",
          "name": "ethPrice",
          "type": "uint256"
        },
        {
          "indexed": false,
          "internalType": "uint256",
          "name": "mintTime",
          "type": "uint256"
        },
        {
          "indexed": false,
          "internalType": "uint256",
          "name": "maxTime",
          "type": "uint256"
        },
        {
          "indexed": false,
          "internalType": "uint256",
          "name": "diffstep",
          "type": "uint256"
        },
        {
          "indexed": false,
          "internalType": "uint256",
          "name": "maxMint",
          "type": "uint256"
        },
        {
          "indexed": false,
          "internalType": "address",
          "name": "allowedToken",
          "type": "address"
        }
      ],
      "name": "NFTGemPoolCreated",
      "type": "event"
    },
    {
      "inputs": [
        {
          "internalType": "address",
          "name": "_controller",
          "type": "address"
        }
      ],
      "name": "addController",
      "outputs": [],
      "stateMutability": "nonpayable",
      "type": "function"
    },
    {
      "inputs": [
        {
          "internalType": "uint256",
          "name": "idx",
          "type": "uint256"
        }
      ],
      "name": "allNFTGemPools",
      "outputs": [
        {
          "internalType": "address",
          "name": "gemPool",
          "type": "address"
        }
      ],
      "stateMutability": "view",
      "type": "function"
    },
    {
      "inputs": [],
      "name": "allNFTGemPoolsLength",
      "outputs": [
        {
          "internalType": "uint256",
          "name": "",
          "type": "uint256"
        }
      ],
      "stateMutability": "view",
      "type": "function"
    },
    {
      "inputs": [
        {
          "internalType": "bytes",
          "name": "bytecode",
          "type": "bytes"
        },
        {
          "internalType": "string",
          "name": "gemSymbol",
          "type": "string"
        },
        {
          "internalType": "string",
          "name": "gemName",
          "type": "string"
        }
      ],
      "name": "createCustomNFTGemPool",
      "outputs": [
        {
          "internalType": "address payable",
          "name": "gemPool",
          "type": "address"
        }
      ],
      "stateMutability": "nonpayable",
      "type": "function"
    },
    {
      "inputs": [
        {
          "internalType": "string",
          "name": "gemSymbol",
          "type": "string"
        },
        {
          "internalType": "string",
          "name": "gemName",
          "type": "string"
        },
        {
          "internalType": "uint256",
          "name": "ethPrice",
          "type": "uint256"
        },
        {
          "internalType": "uint256",
          "name": "minTime",
          "type": "uint256"
        },
        {
          "internalType": "uint256",
          "name": "maxTime",
          "type": "uint256"
        },
        {
          "internalType": "uint256",
          "name": "diffstep",
          "type": "uint256"
        },
        {
          "internalType": "uint256",
          "name": "maxMint",
          "type": "uint256"
        },
        {
          "internalType": "address",
          "name": "allowedToken",
          "type": "address"
        }
      ],
      "name": "createNFTGemPool",
      "outputs": [
        {
          "internalType": "address payable",
          "name": "gemPool",
          "type": "address"
        }
      ],
      "stateMutability": "nonpayable",
      "type": "function"
    },
    {
      "inputs": [
        {
          "internalType": "uint256",
          "name": "_symbolHash",
          "type": "uint256"
        }
      ],
      "name": "getNFTGemPool",
      "outputs": [
        {
          "internalType": "address",
          "name": "gemPool",
          "type": "address"
        }
      ],
      "stateMutability": "view",
      "type": "function"
    },
    {
      "inputs": [
        {
          "internalType": "address",
          "name": "_address",
          "type": "address"
        }
      ],
      "name": "isController",
      "outputs": [
        {
          "internalType": "bool",
          "name": "allowed",
          "type": "bool"
        }
      ],
      "stateMutability": "view",
      "type": "function"
    },
    {
      "inputs": [],
      "name": "relinquishControl",
      "outputs": [],
      "stateMutability": "view",
      "type": "function"
    }
  ],
  "transactionHash": "0xa191bab1f7f60006dfa483743335b78a0c88184c52fce55bc3eb4db37e4a27e5",
  "args": [],
  "solcInputHash": "50517208137afe2c7d568a441cf50eec",
  "bytecode": "0x608060405234801561001057600080fd5b5061001a3361001f565b610043565b6001600160a01b03166000908152602081905260409020805460ff19166001179055565b61576f806100526000396000f3fe608060405234801561001057600080fd5b50600436106100885760003560e01c8063a7fc7a071161005b578063a7fc7a071461026b578063b429afeb146102a0578063e1c28bef146102e7578063e4aa923d146102ef57610088565b80631ff77f161461008d5780634ff8f07e146100d35780635e6fe72a1461023457806367275aed1461024e575b600080fd5b6100aa600480360360208110156100a357600080fd5b50356104a3565b6040805173ffffffffffffffffffffffffffffffffffffffff9092168252519081900360200190f35b6100aa60048036036101008110156100ea57600080fd5b81019060208101813564010000000081111561010557600080fd5b82018360208201111561011757600080fd5b8035906020019184600183028401116401000000008311171561013957600080fd5b91908080601f016020809104026020016040519081016040528093929190818152602001838380828437600092019190915250929594936020810193503591505064010000000081111561018c57600080fd5b82018360208201111561019e57600080fd5b803590602001918460018302840111640100000000831117156101c057600080fd5b91908080601f0160208091040260200160405190810160405280939291908181526020018383808284376000920191909152509295505082359350505060208101359060408101359060608101359060808101359060a0013573ffffffffffffffffffffffffffffffffffffffff166104da565b61023c610abb565b60408051918252519081900360200190f35b6100aa6004803603602081101561026457600080fd5b5035610ac1565b61029e6004803603602081101561028157600080fd5b503573ffffffffffffffffffffffffffffffffffffffff16610ae9565b005b6102d3600480360360208110156102b657600080fd5b503573ffffffffffffffffffffffffffffffffffffffff16610b95565b604080519115158252519081900360200190f35b61029e610bc0565b6100aa6004803603606081101561030557600080fd5b81019060208101813564010000000081111561032057600080fd5b82018360208201111561033257600080fd5b8035906020019184600183028401116401000000008311171561035457600080fd5b91908080601f01602080910402602001604051908101604052809392919081815260200183838082843760009201919091525092959493602081019350359150506401000000008111156103a757600080fd5b8201836020820111156103b957600080fd5b803590602001918460018302840111640100000000831117156103db57600080fd5b91908080601f016020809104026020016040519081016040528093929190818152602001838380828437600092019190915250929594936020810193503591505064010000000081111561042e57600080fd5b82018360208201111561044057600080fd5b8035906020019184600183028401116401000000008311171561046257600080fd5b91908080601f016020809104026020016040519081016040528093929190818152602001838380828437600092019190915250929550610c28945050505050565b6000600382815481106104b257fe5b60009182526020909120015473ffffffffffffffffffffffffffffffffffffffff1692915050565b3360009081526020819052604081205460ff161515600114806104fc57503033145b6105375760405162461bcd60e51b81526004018080602001828103825260288152602001806157126028913960400191505060405180910390fd5b6000896040516020018082805190602001908083835b6020831061056c5780518252601f19909201916020918201910161054d565b51815160209384036101000a7fffffffffffffffffffffffffffffffffffffffffffffffffffffffffffffffff01801990921691161790526040805192909401828103601f19018352845281519181019190912060008181526002909252929020549194505073ffffffffffffffffffffffffffffffffffffffff1615915061063e9050576040805162461bcd60e51b815260206004820152600e60248201527f47454d504f4f4c5f455849535453000000000000000000000000000000000000604482015290519081900360640190fd5b87610690576040805162461bcd60e51b815260206004820152600d60248201527f494e56414c49445f505249434500000000000000000000000000000000000000604482015290519081900360640190fd5b866106e2576040805162461bcd60e51b815260206004820152601060248201527f494e56414c49445f4d494e5f54494d4500000000000000000000000000000000604482015290519081900360640190fd5b84610734576040805162461bcd60e51b815260206004820152601760248201527f494e56414c49445f444946464943554c54595f53544550000000000000000000604482015290519081900360640190fd5b60606040518060200161074690611055565b601f1982820381018352601f90910116604052905061076760008383610f2f565b92508273ffffffffffffffffffffffffffffffffffffffff1663d9a3f9bb8c8c8c8c8c8c8c8c6040518963ffffffff1660e01b81526004018080602001806020018981526020018881526020018781526020018681526020018581526020018473ffffffffffffffffffffffffffffffffffffffff16815260200183810383528b818151815260200191508051906020019080838360005b838110156108175781810151838201526020016107ff565b50505050905090810190601f1680156108445780820380516001836020036101000a031916815260200191505b5083810382528a5181528a516020918201918c019080838360005b8381101561087757818101518382015260200161085f565b50505050905090810190601f1680156108a45780820380516001836020036101000a031916815260200191505b509a5050505050505050505050600060405180830381600087803b1580156108cb57600080fd5b505af11580156108df573d6000803e3d6000fd5b505050600083815260026020908152604080832080547fffffffffffffffffffffffff000000000000000000000000000000000000000090811673ffffffffffffffffffffffffffffffffffffffff8a8116918217909355600380546001810182559087527fc2575a0e9e593c00f959f8c92f12db2869c3395a3b0502d05e2516446f71f85b01805490921617905581519182018e9052606082018d9052608082018c905260a082018b905260c082018a9052881660e08201526101008082528f51908201528e517fd5dd03a462020e8d5d777d0957fbf19067fc095f932d026bb0f23e384522f2a694508f938f938f938f938f938f938f938f939092839283810192610120850192918e01918190849084905b83811015610a0b5781810151838201526020016109f3565b50505050905090810190601f168015610a385780820380516001836020036101000a031916815260200191505b5083810382528a5181528a516020918201918c019080838360005b83811015610a6b578181015183820152602001610a53565b50505050905090810190601f168015610a985780820380516001836020036101000a031916815260200191505b509a505050505050505050505060405180910390a1505098975050505050505050565b60035490565b60009081526002602052604090205473ffffffffffffffffffffffffffffffffffffffff1690565b3360009081526020819052604090205460ff16151560011480610b0b57503033145b610b465760405162461bcd60e51b81526004018080602001828103825260288152602001806157126028913960400191505060405180910390fd5b73ffffffffffffffffffffffffffffffffffffffff16600090815260208190526040902080547fffffffffffffffffffffffffffffffffffffffffffffffffffffffffffffff00166001179055565b73ffffffffffffffffffffffffffffffffffffffff1660009081526020819052604090205460ff1690565b3360009081526020819052604090205460ff16151560011480610be257503033145b610c1d5760405162461bcd60e51b81526004018080602001828103825260288152602001806157126028913960400191505060405180910390fd5b336000908152602052565b3360009081526020819052604081205460ff16151560011480610c4a57503033145b610c855760405162461bcd60e51b81526004018080602001828103825260288152602001806157126028913960400191505060405180910390fd5b6000836040516020018082805190602001908083835b60208310610cba5780518252601f199092019160209182019101610c9b565b51815160209384036101000a7fffffffffffffffffffffffffffffffffffffffffffffffffffffffffffffffff01801990921691161790526040805192909401828103601f19018352845281519181019190912060008181526002909252929020549194505073ffffffffffffffffffffffffffffffffffffffff16159150610d8c9050576040805162461bcd60e51b815260206004820152600e60248201527f47454d504f4f4c5f455849535453000000000000000000000000000000000000604482015290519081900360640190fd5b610d9860008287610f2f565b6000828152600260209081526040808320805473ffffffffffffffffffffffffffffffffffffffff86167fffffffffffffffffffffffff00000000000000000000000000000000000000009182168117909255600380546001810182559086527fc2575a0e9e593c00f959f8c92f12db2869c3395a3b0502d05e2516446f71f85b0180549091169091179055805181815288519181019190915287519395507f89087d44119cf78c7cc1dfb971ca45b6aa9fde12ab6feedacc1fb42c3487862c93889388938392838201926060850192880191908190849084905b83811015610e8b578181015183820152602001610e73565b50505050905090810190601f168015610eb85780820380516001836020036101000a031916815260200191505b50838103825284518152845160209182019186019080838360005b83811015610eeb578181015183820152602001610ed3565b50505050905090810190601f168015610f185780820380516001836020036101000a031916815260200191505b5094505050505060405180910390a1509392505050565b60008084471015610f87576040805162461bcd60e51b815260206004820152601d60248201527f437265617465323a20696e73756666696369656e742062616c616e6365000000604482015290519081900360640190fd5b8251610fda576040805162461bcd60e51b815260206004820181905260248201527f437265617465323a2062797465636f6465206c656e677468206973207a65726f604482015290519081900360640190fd5b8383516020850187f5905073ffffffffffffffffffffffffffffffffffffffff811661104d576040805162461bcd60e51b815260206004820152601960248201527f437265617465323a204661696c6564206f6e206465706c6f7900000000000000604482015290519081900360640190fd5b949350505050565b6146af806110638339019056fe60806040523480156200001157600080fd5b506200001d3362000023565b6200004a565b6001600160a01b03166000908152600160208190526040909120805460ff19169091179055565b614655806200005a6000396000f3fe6080604052600436106103225760003560e01c8063a7fc7a07116101a5578063d104f8f5116100ec578063e5d2ce2f11610095578063ef430aa61161006f578063ef430aa614610c31578063f4fde0d314610c46578063f9eaee0d14610c5b578063ff186b2e14610c8e576103d7565b8063e5d2ce2f14610b8e578063e6c3b1f614610bb8578063edcf2d5714610bf8576103d7565b8063d73cd47f116100c6578063d73cd47f146109e5578063d9a3f9bb14610a18578063e1c28bef14610b79576103d7565b8063d104f8f51461095c578063d31674db1461098f578063d43e6460146109b9576103d7565b8063c08fa1a41161014e578063c80c061311610128578063c80c061314610932578063cf5380b414610947578063cf721b1514610932576103d7565b8063c08fa1a4146107f1578063c42cf535146108d5578063c5e01a5c14610908576103d7565b8063b429afeb1161017f578063b429afeb14610878578063b788e4e9146108ab578063bf86999b146108c0576103d7565b8063a7fc7a0714610806578063a901c47414610839578063af6a6d7914610863576103d7565b80636b6201da116102695780638a09871b1161021257806395935560116101ec57806395935560146107b257806395d89b41146107dc578063a0021cf1146107f1576103d7565b80638a09871b1461073757806390469a9d1461074c5780639277a1851461077f576103d7565b80637c5d643e116102435780637c5d643e146106b95780637dcb0e5f146106e35780637f2e8f0c1461070d576103d7565b80636b6201da146106375780637a4e4ecf146106545780637ae7815d1461068d576103d7565b80634178617f116102cb5780635d2e0dd4116102a55780635d2e0dd4146105895780635e5f2e26146105b25780636100c343146105f8576103d7565b80634178617f1461052c5780634565e5ef1461055f578063504cdacf14610574576103d7565b806323b221a0116102fc57806323b221a0146104a25780632449ef51146104cc578063392732b114610509576103d7565b806306fdde03146103dc5780631aa430781461046657806322e67e711461048d576103d7565b366103d75760055460065460045434926000926103489261034291610ca3565b90610d0c565b90508082101561039f576040805162461bcd60e51b815260206004820152601060248201527f494e53554646494349454e545f45544800000000000000000000000000000000604482015290519081900360640190fd5b60055460045483116103c9576103c660055461034285600454610ca390919063ffffffff16565b90505b6103d281610d6c565b505050005b600080fd5b3480156103e857600080fd5b506103f161121a565b6040805160208082528351818301528351919283929083019185019080838360005b8381101561042b578181015183820152602001610413565b50505050905090810190601f1680156104585780820380516001836020036101000a031916815260200191505b509250505060405180910390f35b34801561047257600080fd5b5061047b6112ce565b60408051918252519081900360200190f35b34801561049957600080fd5b5061047b6112d4565b3480156104ae57600080fd5b5061047b600480360360208110156104c557600080fd5b50356112da565b3480156104d857600080fd5b50610507600480360360408110156104ef57600080fd5b506001600160a01b03813581169160200135166112ec565b005b6105076004803603604081101561051f57600080fd5b508035906020013561155a565b34801561053857600080fd5b506105076004803603602081101561054f57600080fd5b50356001600160a01b0316611568565b34801561056b57600080fd5b5061047b611607565b34801561058057600080fd5b5061047b61160d565b34801561059557600080fd5b5061059e611613565b604080519115158252519081900360200190f35b3480156105be57600080fd5b506105dc600480360360208110156105d557600080fd5b5035611635565b604080516001600160a01b039092168252519081900360200190f35b34801561060457600080fd5b506105076004803603606081101561061b57600080fd5b506001600160a01b03813516906020810135906040013561165f565b6105076004803603602081101561064d57600080fd5b503561166a565b34801561066057600080fd5b506105076004803603604081101561067757600080fd5b506001600160a01b038135169060200135611673565b34801561069957600080fd5b50610507600480360360208110156106b057600080fd5b503515156117be565b3480156106c557600080fd5b50610507600480360360208110156106dc57600080fd5b5035611877565b3480156106ef57600080fd5b5061047b6004803603602081101561070657600080fd5b50356121c1565b34801561071957600080fd5b5061047b6004803603602081101561073057600080fd5b50356121d3565b34801561074357600080fd5b5061047b6121e5565b34801561075857600080fd5b506105076004803603602081101561076f57600080fd5b50356001600160a01b03166121f4565b34801561078b57600080fd5b50610507600480360360208110156107a257600080fd5b50356001600160a01b0316612378565b3480156107be57600080fd5b5061047b600480360360208110156107d557600080fd5b5035612420565b3480156107e857600080fd5b506103f1612432565b3480156107fd57600080fd5b5061047b6124ae565b34801561081257600080fd5b506105076004803603602081101561082957600080fd5b50356001600160a01b03166124b4565b34801561084557600080fd5b5061047b6004803603602081101561085c57600080fd5b5035612539565b34801561086f57600080fd5b5061059e61254b565b34801561088457600080fd5b5061059e6004803603602081101561089b57600080fd5b50356001600160a01b031661256c565b3480156108b757600080fd5b5061047b61258a565b3480156108cc57600080fd5b5061047b612594565b3480156108e157600080fd5b50610507600480360360208110156108f857600080fd5b50356001600160a01b031661259a565b34801561091457600080fd5b506105dc6004803603602081101561092b57600080fd5b5035612642565b34801561093e57600080fd5b5061047b61265d565b34801561095357600080fd5b5061047b612663565b34801561096857600080fd5b506105076004803603602081101561097f57600080fd5b50356001600160a01b0316612669565b34801561099b57600080fd5b5061047b600480360360208110156109b257600080fd5b5035612711565b3480156109c557600080fd5b50610507600480360360208110156109dc57600080fd5b50351515612732565b3480156109f157600080fd5b5061050760048036036020811015610a0857600080fd5b50356001600160a01b03166127ea565b348015610a2457600080fd5b506105076004803603610100811015610a3c57600080fd5b810190602081018135640100000000811115610a5757600080fd5b820183602082011115610a6957600080fd5b80359060200191846001830284011164010000000083111715610a8b57600080fd5b91908080601f0160208091040260200160405190810160405280939291908181526020018383808284376000920191909152509295949360208101935035915050640100000000811115610ade57600080fd5b820183602082011115610af057600080fd5b80359060200191846001830284011164010000000083111715610b1257600080fd5b91908080601f0160208091040260200160405190810160405280939291908181526020018383808284376000920191909152509295505082359350505060208101359060408101359060608101359060808101359060a001356001600160a01b0316612892565b348015610b8557600080fd5b50610507612abd565b348015610b9a57600080fd5b5061050760048036036020811015610bb157600080fd5b5035612b26565b348015610bc457600080fd5b50610be260048036036020811015610bdb57600080fd5b5035612b99565b6040805160ff9092168252519081900360200190f35b348015610c0457600080fd5b5061050760048036036040811015610c1b57600080fd5b506001600160a01b038135169060200135612bae565b348015610c3d57600080fd5b5061047b612bb8565b348015610c5257600080fd5b5061047b612bbe565b348015610c6757600080fd5b5061059e60048036036020811015610c7e57600080fd5b50356001600160a01b0316612bc4565b348015610c9a57600080fd5b5061047b612be2565b6000808211610cf9576040805162461bcd60e51b815260206004820152601a60248201527f536166654d6174683a206469766973696f6e206279207a65726f000000000000604482015290519081900360640190fd5b818381610d0257fe5b0490505b92915050565b600082610d1b57506000610d06565b82820282848281610d2857fe5b0414610d655760405162461bcd60e51b81526004018080602001828103825260218152602001806145d76021913960400191505060405180910390fd5b9392505050565b600554811015610dc3576040805162461bcd60e51b815260206004820152601360248201527f54494d454652414d455f544f4f5f53484f525400000000000000000000000000604482015290519081900360640190fd5b60065415801590610dd657506006548111155b80610de15750600654155b610e32576040805162461bcd60e51b815260206004820152601260248201527f54494d454652414d455f544f4f5f4c4f4e470000000000000000000000000000604482015290519081900360640190fd5b6000610e5582610e4f600554600454610d0c90919063ffffffff16565b90610ca3565b9050803411610eab576040805162461bcd60e51b815260206004820152601060248201527f494e53554646494349454e545f45544800000000000000000000000000000000604482015290519081900360640190fd5b6000610eb5612be8565b905080610f09576040805162461bcd60e51b815260206004820152601160248201527f4e4f5f4d4f52455f434c41494d41424c45000000000000000000000000000000604482015290519081900360640190fd5b601654604080517f156e29f6000000000000000000000000000000000000000000000000000000008152336004820152602481018490526001604482015290516001600160a01b039092169163156e29f69160648082019260009290919082900301818387803b158015610f7c57600080fd5b505af1158015610f90573d6000803e3d6000fd5b50505050610f9f816001612c75565b6000610fab4285612d67565b6000838152600f60209081526040808320849055601182528083208790556012909152902060019055600e54909150610fe49084612d67565b600e55601754604080517f634b5b7d00000000000000000000000000000000000000000000000000000000815233600482015290516001600160a01b039092169163634b5b7d916024808201926020929091908290030181600087803b15801561104d57600080fd5b505af1158015611061573d6000803e3d6000fd5b505050506040513d602081101561107757600080fd5b5050601754604080517fea40a7a40000000000000000000000000000000000000000000000000000000081523360048201526024810186905290516001600160a01b039092169163ea40a7a4916044808201926020929091908290030181600087803b1580156110e657600080fd5b505af11580156110fa573d6000803e3d6000fd5b505050506040513d602081101561111057600080fd5b505060408051338152306020820152808201849052606081018690526001608082015260a0810185905290517f7772d56f71cb2b982c42f148cad4839ce0736b201b032c93233f428ba93817749181900360c00190a1823411156112145760003361117b3486612dc1565b604051600081818185875af1925050503d80600081146111b7576040519150601f19603f3d011682016040523d82523d6000602084013e6111bc565b606091505b5050905080611212576040805162461bcd60e51b815260206004820152600d60248201527f524546554e445f4641494c454400000000000000000000000000000000000000604482015290519081900360640190fd5b505b50505050565b60038054604080516020601f60027fffffffffffffffffffffffffffffffffffffffffffffffffffffffffffffffff6101006001881615020190951694909404938401819004810282018101909252828152606093909290918301828280156112c45780601f10611299576101008083540402835291602001916112c4565b820191906000526020600020905b8154815290600101906020018083116112a757829003601f168201915b5050505050905090565b60055490565b60065490565b60009081526011602052604090205490565b6016546001600160a01b0316611349576040805162461bcd60e51b815260206004820152600d60248201527f4e4f5f4d554c5449544f4b454e00000000000000000000000000000000000000604482015290519081900360640190fd5b6001600160a01b0382161580159061136957506001600160a01b03811615155b6113ba576040805162461bcd60e51b815260206004820152601060248201527f5a45524f5f44455354494e4154494f4e00000000000000000000000000000000604482015290519081900360640190fd5b600c541561140f576040805162461bcd60e51b815260206004820152600e60248201527f414c52454144595f4d494e544544000000000000000000000000000000000000604482015290519081900360640190fd5b6000611419612e1e565b601654604080517f156e29f60000000000000000000000000000000000000000000000000000000081526001600160a01b0387811660048301526024820185905260016044830152915193945091169163156e29f69160648082019260009290919082900301818387803b15801561149057600080fd5b505af11580156114a4573d6000803e3d6000fd5b505050506114b3816002612c75565b6114bb612e1e565b601654604080517f156e29f60000000000000000000000000000000000000000000000000000000081526001600160a01b0387811660048301526024820185905260016044830152915193945091169163156e29f69160648082019260009290919082900301818387803b15801561153257600080fd5b505af1158015611546573d6000803e3d6000fd5b50505050611555816002612c75565b505050565b6115648282612e7b565b5050565b6001600160a01b03811660009081526015602052604090205460ff16611604576014805460018082019092557fce6d7b5282bd9a3661ae061feed1dbda4e52ab073b1f9285be6e155d9c38d4ec0180547fffffffffffffffffffffffff0000000000000000000000000000000000000000166001600160a01b0384169081179091556000908152601560205260409020805460ff191690911790555b50565b60145490565b600e5490565b6019547501000000000000000000000000000000000000000000900460ff1690565b60006014828154811061164457fe5b6000918252602090912001546001600160a01b031692915050565b6115558383836133fe565b61160481610d6c565b3360009081526001602081905260409091205460ff161515148061169657503033145b6116d15760405162461bcd60e51b81526004018080602001828103825260288152602001806145f86028913960400191505060405180910390fd5b6001600160a01b03821661171f576018546040516001600160a01b039091169082156108fc029083906000818181858888f19350505050158015611719573d6000803e3d6000fd5b50611564565b601854604080517f23b872dd0000000000000000000000000000000000000000000000000000000081523060048201526001600160a01b039283166024820152604481018490529051918416916323b872dd916064808201926020929091908290030181600087803b15801561179457600080fd5b505af11580156117a8573d6000803e3d6000fd5b505050506040513d602081101561121457600080fd5b6001336000908152600160205260409020805460ff191682151517905561182c576040805162461bcd60e51b815260206004820152600c60248201527f554e415554484f52495a45440000000000000000000000000000000000000000604482015290519081900360640190fd5b601980549115157501000000000000000000000000000000000000000000027fffffffffffffffffffff00ffffffffffffffffffffffffffffffffffffffffff909216919091179055565b601654604080517efdd58e0000000000000000000000000000000000000000000000000000000081523360048201526024810184905290516001600160a01b039092169162fdd58e91604480820192602092909190829003018186803b1580156118e057600080fd5b505afa1580156118f4573d6000803e3d6000fd5b505050506040513d602081101561190a57600080fd5b5051600114611960576040805162461bcd60e51b815260206004820152600f60248201527f4e4f545f434c41494d5f4f574e45520000000000000000000000000000000000604482015290519081900360640190fd5b6000818152600f6020908152604080832054601190925290912054811580159061198a5750600081115b6119db576040805162461bcd60e51b815260206004820152600d60248201527f494e56414c49445f434c41494d00000000000000000000000000000000000000604482015290519081900360640190fd5b60008381526010602090815260408083205460139092528083205460165482517ff5298aca000000000000000000000000000000000000000000000000000000008152336004820152602481018990526001604482015292516001600160a01b039485169592944289109492169263f5298aca926064808201939182900301818387803b158015611a6b57600080fd5b505af1158015611a7f573d6000803e3d6000fd5b505050506001600160a01b03831615611d9457600060018215151415611bed57601854604080517feee1ad8000000000000000000000000000000000000000000000000000000000815230600482015290516000926001600160a01b03169163eee1ad80916024808301926020929190829003018186803b158015611b0357600080fd5b505afa158015611b17573d6000803e3d6000fd5b505050506040513d6020811015611b2d57600080fd5b5051601854604080517feee1ad800000000000000000000000000000000000000000000000000000000081526001600160a01b0389811660048301529151939450600093919092169163eee1ad80916024808301926020929190829003018186803b158015611b9b57600080fd5b505afa158015611baf573d6000803e3d6000fd5b505050506040513d6020811015611bc557600080fd5b50519050600082821415611bd95782611bdb565b815b9050611be78682610ca3565b93505050505b601854604080517f23b872dd0000000000000000000000000000000000000000000000000000000081523060048201526001600160a01b039283166024820152604481018490529051918616916323b872dd916064808201926020929091908290030181600087803b158015611c6257600080fd5b505af1158015611c76573d6000803e3d6000fd5b505050506040513d6020811015611c8c57600080fd5b50506001600160a01b0384166323b872dd3033611ca98786612dc1565b6040518463ffffffff1660e01b815260040180846001600160a01b03168152602001836001600160a01b031681526020018281526020019350505050602060405180830381600087803b158015611cff57600080fd5b505af1158015611d13573d6000803e3d6000fd5b505050506040513d6020811015611d2957600080fd5b5050604080513381523060208201528082018990526001600160a01b03861660608201526080810187905260a0810185905260c0810183905290517fe0433fa1170f3ff4cf72fbeb1ae5f139a41b9457ab29e5ac480cb34ed271912a9181900360e00190a150611f05565b600060018215151415611e4457601854604080517feee1ad80000000000000000000000000000000000000000000000000000000008152600060048201819052915191926001600160a01b03169163eee1ad8091602480820192602092909190829003018186803b158015611e0857600080fd5b505afa158015611e1c573d6000803e3d6000fd5b505050506040513d6020811015611e3257600080fd5b50519050611e408682610ca3565b9150505b6018546040516001600160a01b039091169082156108fc029083906000818181858888f19350505050158015611e7e573d6000803e3d6000fd5b50336108fc611e8d8784612dc1565b6040518115909202916000818181858888f19350505050158015611eb5573d6000803e3d6000fd5b5060408051338152306020820152808201899052606081018790526080810183905290517f414b0454a52507c753948f2002246a3358eaea8464b41c2143f88b100306eee69181900360a00190a1505b600e54611f129085612dc1565b600e5580611f24575050505050611604565b6000306001600160a01b031663b788e4e96040518163ffffffff1660e01b815260040160206040518083038186803b158015611f5f57600080fd5b505afa158015611f73573d6000803e3d6000fd5b505050506040513d6020811015611f8957600080fd5b50516016546000898152601260205260408082205481517f156e29f600000000000000000000000000000000000000000000000000000000815233600482015260248101869052604481019190915290519394506001600160a01b039092169263156e29f692606480820193929182900301818387803b15801561200c57600080fd5b505af1158015612020573d6000803e3d6000fd5b5050505061202f816002612c75565b601754604080517f634b5b7d00000000000000000000000000000000000000000000000000000000815233600482015290516001600160a01b039092169163634b5b7d916024808201926020929091908290030181600087803b15801561209557600080fd5b505af11580156120a9573d6000803e3d6000fd5b505050506040513d60208110156120bf57600080fd5b5050601754604080517fea40a7a40000000000000000000000000000000000000000000000000000000081523360048201526024810188905290516001600160a01b039092169163ea40a7a4916044808201926020929091908290030181600087803b15801561212e57600080fd5b505af1158015612142573d6000803e3d6000fd5b505050506040513d602081101561215857600080fd5b505060008781526012602090815260409182902054825133815230928101929092528183018a905260608201849052608082015290517fa684ef88136a415ed987c0b39bc528a16b3e83b511c414590bbe613f38f1a0729181900360a00190a150505050505050565b6000908152600a602052604090205490565b60009081526012602052604090205490565b60006121ef612be8565b905090565b6001600160a01b03811660009081526015602052604090205460ff16156116045760005b60145481101561156457816001600160a01b03166014828154811061223957fe5b6000918252602090912001546001600160a01b0316141561237057601480547fffffffffffffffffffffffffffffffffffffffffffffffffffffffffffffffff810190811061228457fe5b600091825260209091200154601480546001600160a01b0390921691839081106122aa57fe5b600091825260209091200180547fffffffffffffffffffffffff0000000000000000000000000000000000000000166001600160a01b0392909216919091179055601480547fffffffffffffffffffffffffffffffffffffffffffffffffffffffffffffffff810190811061231b57fe5b6000918252602080832090910180547fffffffffffffffffffffffff00000000000000000000000000000000000000001690556001600160a01b03841682526015905260409020805460ff1916905550611604565b600101612218565b6001336000908152600160205260409020805460ff19168215151790556123e6576040805162461bcd60e51b815260206004820152600c60248201527f554e415554484f52495a45440000000000000000000000000000000000000000604482015290519081900360640190fd5b601880547fffffffffffffffffffffffff0000000000000000000000000000000000000000166001600160a01b0392909216919091179055565b60009081526013602052604090205490565b60028054604080516020601f7fffffffffffffffffffffffffffffffffffffffffffffffffffffffffffffffff61010060018716150201909416859004938401819004810282018101909252828152606093909290918301828280156112c45780601f10611299576101008083540402835291602001916112c4565b600d5490565b3360009081526001602081905260409091205460ff16151514806124d757503033145b6125125760405162461bcd60e51b81526004018080602001828103825260288152602001806145f86028913960400191505060405180910390fd5b6001600160a01b03166000908152600160208190526040909120805460ff19169091179055565b6000908152600f602052604090205490565b60195474010000000000000000000000000000000000000000900460ff1690565b6001600160a01b031660009081526001602052604090205460ff1690565b60006121ef612e1e565b60075490565b6001336000908152600160205260409020805460ff1916821515179055612608576040805162461bcd60e51b815260206004820152600c60248201527f554e415554484f52495a45440000000000000000000000000000000000000000604482015290519081900360640190fd5b601780547fffffffffffffffffffffffff0000000000000000000000000000000000000000166001600160a01b0392909216919091179055565b6000908152601060205260409020546001600160a01b031690565b600c5490565b60085490565b6001336000908152600160205260409020805460ff19168215151790556126d7576040805162461bcd60e51b815260206004820152600c60248201527f554e415554484f52495a45440000000000000000000000000000000000000000604482015290519081900360640190fd5b601680547fffffffffffffffffffffffff0000000000000000000000000000000000000000166001600160a01b0392909216919091179055565b6000600b828154811061272057fe5b90600052602060002001549050919050565b6001336000908152600160205260409020805460ff19168215151790556127a0576040805162461bcd60e51b815260206004820152600c60248201527f554e415554484f52495a45440000000000000000000000000000000000000000604482015290519081900360640190fd5b6019805491151574010000000000000000000000000000000000000000027fffffffffffffffffffffff00ffffffffffffffffffffffffffffffffffffffff909216919091179055565b6001336000908152600160205260409020805460ff1916821515179055612858576040805162461bcd60e51b815260206004820152600c60248201527f554e415554484f52495a45440000000000000000000000000000000000000000604482015290519081900360640190fd5b601980547fffffffffffffffffffffffff0000000000000000000000000000000000000000166001600160a01b0392909216919091179055565b600054610100900460ff16806128ab57506128ab613c2c565b806128b9575060005460ff16155b6128f45760405162461bcd60e51b815260040180806020018281038252602e8152602001806145a9602e913960400191505060405180910390fd5b600054610100900460ff1615801561293c576000805460ff197fffffffffffffffffffffffffffffffffffffffffffffffffffffffffffff00ff909116610100171660011790555b885161294f9060029060208c0190614515565b5087516129639060039060208b0190614515565b5060048790556005869055600685905560078490556008839055601980547fffffffffffffffffffff00ffffffffffffffffffffffffffffffffffffffffff7fffffffffffffffffffffff00ffffffffffffffffffffffffffffffffffffffff90911674010000000000000000000000000000000000000000171675010000000000000000000000000000000000000000001790556001600160a01b03821615612a83576014805460018082019092557fce6d7b5282bd9a3661ae061feed1dbda4e52ab073b1f9285be6e155d9c38d4ec0180547fffffffffffffffffffffffff0000000000000000000000000000000000000000166001600160a01b0385169081179091556000908152601560205260409020805460ff191690911790555b8015612ab257600080547fffffffffffffffffffffffffffffffffffffffffffffffffffffffffffff00ff1690555b505050505050505050565b3360009081526001602081905260409091205460ff1615151480612ae057503033145b612b1b5760405162461bcd60e51b81526004018080602001828103825260288152602001806145f86028913960400191505060405180910390fd5b336000526001602052565b6001336000908152600160205260409020805460ff1916821515179055612b94576040805162461bcd60e51b815260206004820152600c60248201527f554e415554484f52495a45440000000000000000000000000000000000000000604482015290519081900360640190fd5b601a55565b60009081526009602052604090205460ff1690565b6115648282613c3d565b601a5490565b600b5490565b6001600160a01b031660009081526015602052604090205460ff1690565b60045490565b6000600854600014158015612c015750600854600d5411155b80612c0c5750600854155b612c175760006121ef565b50600d54604080517f636c61696d0000000000000000000000000000000000000000000000000000006020808301919091523060601b6025830152603980830194909452825180830390940184526059909101909152815191012090565b8060ff1660011480612c8a57508060ff166002145b612cdb576040805162461bcd60e51b815260206004820152601160248201527f494e56414c49445f544f4b454e54595045000000000000000000000000000000604482015290519081900360640190fd5b600b805460018082019092557f0175b7a638427703f0dbe7bb9bbf987a2551717b34e79f33b5b1008d1fa01db9018390556000838152600960205260409020805460ff191660ff841690811790915514612d3c57612d376144ae565b612d44565b612d446144c7565b6000838152600a6020526040902055600260ff82161415611564576115646144e0565b600082820183811015610d65576040805162461bcd60e51b815260206004820152601b60248201527f536166654d6174683a206164646974696f6e206f766572666c6f770000000000604482015290519081900360640190fd5b600082821115612e18576040805162461bcd60e51b815260206004820152601e60248201527f536166654d6174683a207375627472616374696f6e206f766572666c6f770000604482015290519081900360640190fd5b50900390565b600c54604080517f67656d00000000000000000000000000000000000000000000000000000000006020808301919091523060601b6023830152603780830194909452825180830390940184526057909101909152815191012090565b600554821015612ed2576040805162461bcd60e51b815260206004820152601360248201527f54494d454652414d455f544f4f5f53484f525400000000000000000000000000604482015290519081900360640190fd5b34612f24576040805162461bcd60e51b815260206004820152600c60248201527f5a45524f5f42414c414e43450000000000000000000000000000000000000000604482015290519081900360640190fd5b80612f76576040805162461bcd60e51b815260206004820152600d60248201527f5a45524f5f5155414e5449545900000000000000000000000000000000000000604482015290519081900360640190fd5b60065415801590612f8957506006548211155b80612f945750600654155b612fe5576040805162461bcd60e51b815260206004820152601260248201527f54494d454652414d455f544f4f5f4c4f4e470000000000000000000000000000604482015290519081900360640190fd5b6000612ff13483610ca3565b9050600061301084610e4f600554600454610d0c90919063ffffffff16565b905080821015613067576040805162461bcd60e51b815260206004820152601060248201527f494e53554646494349454e545f45544800000000000000000000000000000000604482015290519081900360640190fd5b6000613071612be8565b9050806130c5576040805162461bcd60e51b815260206004820152601160248201527f4e4f5f4d4f52455f434c41494d41424c45000000000000000000000000000000604482015290519081900360640190fd5b601654604080517f156e29f6000000000000000000000000000000000000000000000000000000008152336004820152602481018490526001604482015290516001600160a01b039092169163156e29f69160648082019260009290919082900301818387803b15801561313857600080fd5b505af115801561314c573d6000803e3d6000fd5b5050505061315b816001612c75565b60006131674287612d67565b6000838152600f6020526040902081905590506131848386610d0c565b6000838152601160209081526040808320939093556012815282822088905560175483517f634b5b7d00000000000000000000000000000000000000000000000000000000815233600482015293516001600160a01b039091169363634b5b7d9360248083019493928390030190829087803b15801561320357600080fd5b505af1158015613217573d6000803e3d6000fd5b505050506040513d602081101561322d57600080fd5b5050601754604080517fea40a7a40000000000000000000000000000000000000000000000000000000081523360048201526024810186905290516001600160a01b039092169163ea40a7a4916044808201926020929091908290030181600087803b15801561329c57600080fd5b505af11580156132b0573d6000803e3d6000fd5b505050506040513d60208110156132c657600080fd5b505060408051338152306020820152808201849052606081018890526080810187905260a0810185905290517f7772d56f71cb2b982c42f148cad4839ce0736b201b032c93233f428ba93817749181900360c00190a16133326133298487610d0c565b600e5490612d67565b600e5561333f8386610d0c565b3411156133f65760003361335d6133568689610d0c565b3490612dc1565b604051600081818185875af1925050503d8060008114613399576040519150601f19603f3d011682016040523d82523d6000602084013e61339e565b606091505b50509050806133f4576040805162461bcd60e51b815260206004820152600d60248201527f524546554e445f4641494c454400000000000000000000000000000000000000604482015290519081900360640190fd5b505b505050505050565b6001600160a01b038316613459576040805162461bcd60e51b815260206004820152601360248201527f494e56414c49445f45524332305f544f4b454e00000000000000000000000000604482015290519081900360640190fd5b6014541580159061348257506001600160a01b03831660009081526015602052604090205460ff165b8061348d5750601454155b6134de576040805162461bcd60e51b815260206004820152601060248201527f544f4b454e5f444953414c4c4f57454400000000000000000000000000000000604482015290519081900360640190fd5b80613530576040805162461bcd60e51b815260206004820152600d60248201527f5a45524f5f5155414e5449545900000000000000000000000000000000000000604482015290519081900360640190fd5b601954604080517f1246dbf50000000000000000000000000000000000000000000000000000000081526001600160a01b03868116600483015291519190921691631246dbf5916024808301926020929190829003018186803b15801561359657600080fd5b505afa1580156135aa573d6000803e3d6000fd5b505050506040513d60208110156135c057600080fd5b50511515600114613618576040805162461bcd60e51b815260206004820152600f60248201527f4e4f5f554e49535741505f504f4f4c0000000000000000000000000000000000604482015290519081900360640190fd5b601954600090819081906001600160a01b031663868d2d1e8761363b8888610ca3565b6040518363ffffffff1660e01b815260040180836001600160a01b031681526020018281526020019250505060606040518083038186803b15801561367f57600080fd5b505afa158015613693573d6000803e3d6000fd5b505050506040513d60608110156136a957600080fd5b50805160208201516040909201516019549195509193509091507501000000000000000000000000000000000000000000900460ff161515600114156137af576136f884610342856064610d0c565b81101561374c576040805162461bcd60e51b815260206004820152601a60248201527f494e53554646494349454e545f4554485f4c4951554944495459000000000000604482015290519081900360640190fd5b61375b84610342876064610d0c565b8210156137af576040805162461bcd60e51b815260206004820152601c60248201527f494e53554646494349454e545f544f4b454e5f4c495155494449545900000000604482015290519081900360640190fd5b600454831115613806576040805162461bcd60e51b815260206004820152600b60248201527f4f5645525041594d454e54000000000000000000000000000000000000000000604482015290519081900360640190fd5b600061382384610e4f600554600454610d0c90919063ffffffff16565b905060055481101561387c576040805162461bcd60e51b815260206004820152601160248201527f494e53554646494349454e545f54494d45000000000000000000000000000000604482015290519081900360640190fd5b6000613886612be8565b9050806138da576040805162461bcd60e51b815260206004820152601160248201527f4e4f5f4d4f52455f434c41494d41424c45000000000000000000000000000000604482015290519081900360640190fd5b601654604080517f156e29f6000000000000000000000000000000000000000000000000000000008152336004820152602481018490526001604482015290516001600160a01b039092169163156e29f69160648082019260009290919082900301818387803b15801561394d57600080fd5b505af1158015613961573d6000803e3d6000fd5b50505050613970816001612c75565b600061397c4284612d67565b6000838152600f60209081526040808320849055601182528083208a90556010825280832080547fffffffffffffffffffffffff0000000000000000000000000000000000000000166001600160a01b038f16179055601382528083208c905560129091529020889055600e549091506139f69087612d67565b600e55601754604080517f634b5b7d00000000000000000000000000000000000000000000000000000000815233600482015290516001600160a01b039092169163634b5b7d916024808201926020929091908290030181600087803b158015613a5f57600080fd5b505af1158015613a73573d6000803e3d6000fd5b505050506040513d6020811015613a8957600080fd5b5050601754604080517fea40a7a40000000000000000000000000000000000000000000000000000000081523360048201526024810189905290516001600160a01b039092169163ea40a7a4916044808201926020929091908290030181600087803b158015613af857600080fd5b505af1158015613b0c573d6000803e3d6000fd5b505050506040513d6020811015613b2257600080fd5b505060408051338152306020820152808201849052606081018590526001600160a01b038b16608082015260a0810189905260c0810188905290517fe583bcc9acfcc0488165ba03e5e6613c9cb6a8cc97fd72a3d28b402b0a1830fc9181900360e00190a1604080517f23b872dd000000000000000000000000000000000000000000000000000000008152336004820152306024820152604481018a905290516001600160a01b038b16916323b872dd9160648083019260209291908290030181600087803b158015613bf557600080fd5b505af1158015613c09573d6000803e3d6000fd5b505050506040513d6020811015613c1f57600080fd5b5050505050505050505050565b6000613c373061450f565b15905090565b6001600160a01b038216613c98576040805162461bcd60e51b815260206004820152601360248201527f494e56414c49445f45524332305f544f4b454e00000000000000000000000000604482015290519081900360640190fd5b60145415801590613cc157506001600160a01b03821660009081526015602052604090205460ff165b80613ccc5750601454155b613d1d576040805162461bcd60e51b815260206004820152601060248201527f544f4b454e5f444953414c4c4f57454400000000000000000000000000000000604482015290519081900360640190fd5b601954604080517f1246dbf50000000000000000000000000000000000000000000000000000000081526001600160a01b03858116600483015291519190921691631246dbf5916024808301926020929190829003018186803b158015613d8357600080fd5b505afa158015613d97573d6000803e3d6000fd5b505050506040513d6020811015613dad57600080fd5b50511515600114613e05576040805162461bcd60e51b815260206004820152600f60248201527f4e4f5f554e49535741505f504f4f4c0000000000000000000000000000000000604482015290519081900360640190fd5b601954604080517f868d2d1e0000000000000000000000000000000000000000000000000000000081526001600160a01b0385811660048301526024820185905291516000938493849391169163868d2d1e91604480820192606092909190829003018186803b158015613e7857600080fd5b505afa158015613e8c573d6000803e3d6000fd5b505050506040513d6060811015613ea257600080fd5b50805160208083015160409384015160185485517fb8c876b10000000000000000000000000000000000000000000000000000000081526001600160a01b038c811660048301529651959950929750909550600094169263b8c876b192602480840193919291829003018186803b158015613f1c57600080fd5b505afa158015613f30573d6000803e3d6000fd5b505050506040513d6020811015613f4657600080fd5b50516019549091507501000000000000000000000000000000000000000000900460ff1615156001141561403057613f7e8482610d0c565b821015613fd2576040805162461bcd60e51b815260206004820152601a60248201527f494e53554646494349454e545f4554485f4c4951554944495459000000000000604482015290519081900360640190fd5b613fdc8582610d0c565b831015614030576040805162461bcd60e51b815260206004820152601c60248201527f494e53554646494349454e545f544f4b454e5f4c495155494449545900000000604482015290519081900360640190fd5b600454841115614087576040805162461bcd60e51b815260206004820152600b60248201527f4f5645525041594d454e54000000000000000000000000000000000000000000604482015290519081900360640190fd5b60006140a485610e4f600554600454610d0c90919063ffffffff16565b90506005548110156140fd576040805162461bcd60e51b815260206004820152601160248201527f494e53554646494349454e545f54494d45000000000000000000000000000000604482015290519081900360640190fd5b6000614107612be8565b90508061415b576040805162461bcd60e51b815260206004820152601160248201527f4e4f5f4d4f52455f434c41494d41424c45000000000000000000000000000000604482015290519081900360640190fd5b604080517f23b872dd0000000000000000000000000000000000000000000000000000000081523360048201523060248201526044810189905290516001600160a01b038a16916323b872dd9160648083019260209291908290030181600087803b1580156141c957600080fd5b505af11580156141dd573d6000803e3d6000fd5b505050506040513d60208110156141f357600080fd5b5050601654604080517f156e29f6000000000000000000000000000000000000000000000000000000008152336004820152602481018490526001604482015290516001600160a01b039092169163156e29f69160648082019260009290919082900301818387803b15801561426857600080fd5b505af115801561427c573d6000803e3d6000fd5b5050505061428b816001612c75565b60006142974284612d67565b6000838152600f60209081526040808320849055601182528083208b90556010825280832080547fffffffffffffffffffffffff0000000000000000000000000000000000000000166001600160a01b038f16179055601382528083208c90556012909152902060019055600e549091506143129088612d67565b600e55601754604080517f634b5b7d00000000000000000000000000000000000000000000000000000000815233600482015290516001600160a01b039092169163634b5b7d916024808201926020929091908290030181600087803b15801561437b57600080fd5b505af115801561438f573d6000803e3d6000fd5b505050506040513d60208110156143a557600080fd5b5050601754604080517fea40a7a4000000000000000000000000000000000000000000000000000000008152336004820152602481018a905290516001600160a01b039092169163ea40a7a4916044808201926020929091908290030181600087803b15801561441457600080fd5b505af1158015614428573d6000803e3d6000fd5b505050506040513d602081101561443e57600080fd5b505060408051338152306020820152808201849052606081018590526001600160a01b038b166080820152600160a082015260c0810189905290517fe583bcc9acfcc0488165ba03e5e6613c9cb6a8cc97fd72a3d28b402b0a1830fc9181900360e00190a1505050505050505050565b600c546000906144bf816001612d67565b600c55905090565b600d546000906144d8816001612d67565b600d55905090565b60006144f9600754600454610ca390919063ffffffff16565b6004549091506145099082612d67565b60045550565b3b151590565b828054600181600116156101000203166002900490600052602060002090601f016020900481019282601f1061455657805160ff1916838001178555614583565b82800160010185558215614583579182015b82811115614583578251825591602001919060010190614568565b5061458f929150614593565b5090565b5b8082111561458f576000815560010161459456fe496e697469616c697a61626c653a20636f6e747261637420697320616c726561647920696e697469616c697a6564536166654d6174683a206d756c7469706c69636174696f6e206f766572666c6f77436f6e74726f6c6c61626c653a2063616c6c6572206973206e6f74206120636f6e74726f6c6c6572a2646970667358221220082c580348a4e06cef221b539ade0c7cd8320c1dc4499487ec2e455c90d862d364736f6c63430007030033436f6e74726f6c6c61626c653a2063616c6c6572206973206e6f74206120636f6e74726f6c6c6572a2646970667358221220bb3ceeb76496ba90cb17462fd220c16b8dd4aadf8572050ce45c415f075fb3a964736f6c63430007030033",
  "libraries": {
    "GovernanceLib": "0x02CBc67fcd4a351cCa153b9EF83c95cBAc751911",
    "Strings": "0x6E163bE3a8F42216B97B1617776E97077B8a325c",
    "SafeMath": "0xD869643a255b7D67F1fF0Bb3474575cbCcbf31CA",
    "ProposalsLib": "0x6D0180CD9F5a229f9188159FC3003e27050b54cF",
    "Create2": "0xce2Dc6EC55dee0463899Cea52B75834153880356"
  },
  "devdoc": {
    "kind": "dev",
    "methods": {
      "addController(address)": {
        "details": "Add an address allowed to control this contract"
      },
      "allNFTGemPools(uint256)": {
        "details": "get the quantized token for this"
      },
      "allNFTGemPoolsLength()": {
        "details": "number of quantized addresses"
      },
      "createCustomNFTGemPool(bytes,string,string)": {
        "details": "deploy a new erc20 token using create2"
      },
      "createNFTGemPool(string,string,uint256,uint256,uint256,uint256,uint256,address)": {
        "details": "deploy a new erc20 token using create2"
      },
      "getNFTGemPool(uint256)": {
        "details": "get the quantized token for this"
      },
      "isController(address)": {
        "details": "Check if this address is a controller"
      },
      "relinquishControl()": {
        "details": "Check if this address is a controller"
      }
    },
    "version": 1
  },
  "userdoc": {
    "kind": "user",
    "methods": {},
    "version": 1
  },
  "storageLayout": {
    "storage": [
      {
        "astId": 10169,
        "contract": "src/factories/NFTGemPoolFactory.sol:NFTGemPoolFactory",
        "label": "_controllers",
        "offset": 0,
        "slot": "0",
        "type": "t_mapping(t_address,t_bool)"
      },
      {
        "astId": 10559,
        "contract": "src/factories/NFTGemPoolFactory.sol:NFTGemPoolFactory",
        "label": "operator",
        "offset": 0,
        "slot": "1",
        "type": "t_address"
      },
      {
        "astId": 10563,
        "contract": "src/factories/NFTGemPoolFactory.sol:NFTGemPoolFactory",
        "label": "_getNFTGemPool",
        "offset": 0,
        "slot": "2",
        "type": "t_mapping(t_uint256,t_address)"
      },
      {
        "astId": 10566,
        "contract": "src/factories/NFTGemPoolFactory.sol:NFTGemPoolFactory",
        "label": "_allNFTGemPools",
        "offset": 0,
        "slot": "3",
        "type": "t_array(t_address)dyn_storage"
      }
    ],
    "types": {
      "t_address": {
        "encoding": "inplace",
        "label": "address",
        "numberOfBytes": "20"
      },
      "t_array(t_address)dyn_storage": {
        "base": "t_address",
        "encoding": "dynamic_array",
        "label": "address[]",
        "numberOfBytes": "32"
      },
      "t_bool": {
        "encoding": "inplace",
        "label": "bool",
        "numberOfBytes": "1"
      },
      "t_mapping(t_address,t_bool)": {
        "encoding": "mapping",
        "key": "t_address",
        "label": "mapping(address => bool)",
        "numberOfBytes": "32",
        "value": "t_bool"
      },
      "t_mapping(t_uint256,t_address)": {
        "encoding": "mapping",
        "key": "t_uint256",
        "label": "mapping(uint256 => address)",
        "numberOfBytes": "32",
        "value": "t_address"
      },
      "t_uint256": {
        "encoding": "inplace",
        "label": "uint256",
        "numberOfBytes": "32"
      }
    }
  }
}