{
  "address": "0xe89f3fd5275c2Db462FE1F3C6463EaF1c3555f69",
  "abi": [
    {
      "anonymous": false,
      "inputs": [
        {
          "indexed": false,
          "internalType": "uint256",
          "name": "tokenHash",
          "type": "uint256"
        },
        {
          "indexed": false,
          "internalType": "string",
          "name": "tokenData",
          "type": "string"
        }
      ],
      "name": "NiftyPixDataAdded",
      "type": "event"
    },
    {
      "anonymous": false,
      "inputs": [
        {
          "indexed": false,
          "internalType": "uint256",
          "name": "newFee",
          "type": "uint256"
        }
      ],
      "name": "NiftyPixFeeChanged",
      "type": "event"
    },
    {
      "anonymous": false,
      "inputs": [
        {
          "indexed": false,
          "internalType": "address",
          "name": "receiver",
          "type": "address"
        },
        {
          "indexed": false,
          "internalType": "uint256",
          "name": "amount",
          "type": "uint256"
        }
      ],
      "name": "NiftyPixFeesCollected",
      "type": "event"
    },
    {
      "anonymous": false,
      "inputs": [
        {
          "indexed": false,
          "internalType": "address",
          "name": "newOwner",
          "type": "address"
        }
      ],
      "name": "NiftyPixOwnerChanged",
      "type": "event"
    },
    {
      "anonymous": false,
      "inputs": [
        {
          "indexed": true,
          "internalType": "address",
          "name": "previousOwner",
          "type": "address"
        },
        {
          "indexed": true,
          "internalType": "address",
          "name": "newOwner",
          "type": "address"
        }
      ],
      "name": "OwnershipTransferred",
      "type": "event"
    },
    {
      "inputs": [
        {
          "internalType": "address",
          "name": "theAddress",
          "type": "address"
        }
      ],
      "name": "addNftGemPool",
      "outputs": [],
      "stateMutability": "nonpayable",
      "type": "function"
    },
    {
      "inputs": [
        {
          "internalType": "address payable",
          "name": "receiver",
          "type": "address"
        }
      ],
      "name": "collectFees",
      "outputs": [],
      "stateMutability": "nonpayable",
      "type": "function"
    },
    {
      "inputs": [],
      "name": "getFeesBalance",
      "outputs": [
        {
          "internalType": "uint256",
          "name": "",
          "type": "uint256"
        }
      ],
      "stateMutability": "view",
      "type": "function"
    },
    {
      "inputs": [],
      "name": "getMintingFee",
      "outputs": [
        {
          "internalType": "uint256",
          "name": "",
          "type": "uint256"
        }
      ],
      "stateMutability": "view",
      "type": "function"
    },
    {
      "inputs": [
        {
          "internalType": "uint256",
          "name": "tokenHash",
          "type": "uint256"
        }
      ],
      "name": "getNiftyPixData",
      "outputs": [
        {
          "internalType": "string",
          "name": "",
          "type": "string"
        }
      ],
      "stateMutability": "view",
      "type": "function"
    },
    {
      "inputs": [],
      "name": "getNiftyPixTokenHashes",
      "outputs": [
        {
          "internalType": "uint256[]",
          "name": "",
          "type": "uint256[]"
        }
      ],
      "stateMutability": "view",
      "type": "function"
    },
    {
      "inputs": [
        {
          "internalType": "uint256[]",
          "name": "tokenHashes",
          "type": "uint256[]"
        }
      ],
      "name": "hasNiftyPixData",
      "outputs": [
        {
          "internalType": "bool[]",
          "name": "result",
          "type": "bool[]"
        }
      ],
      "stateMutability": "view",
      "type": "function"
    },
    {
      "inputs": [
        {
          "internalType": "address",
          "name": "_nftGemPool",
          "type": "address"
        },
        {
          "internalType": "address",
          "name": "_multiToken",
          "type": "address"
        },
        {
          "internalType": "uint256",
          "name": "_mintingFee",
          "type": "uint256"
        }
      ],
      "name": "initialize",
      "outputs": [],
      "stateMutability": "nonpayable",
      "type": "function"
    },
    {
      "inputs": [],
      "name": "initialized",
      "outputs": [
        {
          "internalType": "bool",
          "name": "",
          "type": "bool"
        }
      ],
      "stateMutability": "view",
      "type": "function"
    },
    {
      "inputs": [],
      "name": "nftGemPoolAddresses",
      "outputs": [
        {
          "internalType": "address[]",
          "name": "",
          "type": "address[]"
        }
      ],
      "stateMutability": "view",
      "type": "function"
    },
    {
      "inputs": [],
      "name": "nftGemTokenAddress",
      "outputs": [
        {
          "internalType": "address",
          "name": "",
          "type": "address"
        }
      ],
      "stateMutability": "view",
      "type": "function"
    },
    {
      "inputs": [],
      "name": "owner",
      "outputs": [
        {
          "internalType": "address",
          "name": "",
          "type": "address"
        }
      ],
      "stateMutability": "view",
      "type": "function"
    },
    {
      "inputs": [
        {
          "internalType": "address",
          "name": "theAddress",
          "type": "address"
        }
      ],
      "name": "removeNftGemPool",
      "outputs": [],
      "stateMutability": "nonpayable",
      "type": "function"
    },
    {
      "inputs": [],
      "name": "renounceOwnership",
      "outputs": [],
      "stateMutability": "nonpayable",
      "type": "function"
    },
    {
      "inputs": [
        {
          "internalType": "uint256",
          "name": "newFee",
          "type": "uint256"
        }
      ],
      "name": "setMintingFee",
      "outputs": [],
      "stateMutability": "nonpayable",
      "type": "function"
    },
    {
      "inputs": [
        {
          "internalType": "uint256",
          "name": "tokenHash",
          "type": "uint256"
        },
        {
          "internalType": "string",
          "name": "tokenData",
          "type": "string"
        }
      ],
      "name": "setNiftyPixData",
      "outputs": [],
      "stateMutability": "payable",
      "type": "function"
    },
    {
      "inputs": [
        {
          "internalType": "address",
          "name": "newOwner",
          "type": "address"
        }
      ],
      "name": "transferOwnership",
      "outputs": [],
      "stateMutability": "nonpayable",
      "type": "function"
    }
  ],
  "transactionHash": "0xd0007dc4050f4aaa18b3dd4a5638adcfdad29956d7f5734fa644e9b5868b70e8",
  "args": [],
  "solcInputHash": "7b8ac3bf05a2d9e9001fe18023d57b78",
  "bytecode": "0x608060405234801561001057600080fd5b5061002161001c610026565b61002a565b610085565b3390565b600080546001600160a01b038381166201000081810262010000600160b01b0319851617855560405193049190911692909183917f8be0079c531659141344cd1fd0a4f28419497f9722a3daafe3b4186f6b6457e091a35050565b6117ff806100946000396000f3fe60806040526004361061010e5760003560e01c80638da5cb5b116100a5578063ca68d76811610074578063f2fde38b11610059578063f2fde38b146102d4578063f6e9b70a146102f4578063f8a8bc7c146103215761010e565b8063ca68d76814610292578063d097aea5146102b45761010e565b80638da5cb5b146102285780638f77400a1461023d578063a480ca791461025d578063b59d88a91461027d5761010e565b8063238a4709116100e1578063238a4709146101af57806352952bb1146101cf57806362d91d6e146101f1578063715018a6146102135761010e565b80630a72e71b14610113578063158ef93e1461014957806316a491861461016b5780631794bb3c1461018d575b600080fd5b34801561011f57600080fd5b5061013361012e36600461123c565b610334565b604051610140919061144a565b60405180910390f35b34801561015557600080fd5b5061015e6103d7565b604051610140919061143f565b34801561017757600080fd5b506101806103fa565b60405161014091906116cd565b34801561019957600080fd5b506101ad6101a8366004611136565b6103fe565b005b3480156101bb57600080fd5b506101ad6101ca36600461123c565b61050f565b3480156101db57600080fd5b506101e461058e565b6040516101409190611353565b3480156101fd57600080fd5b5061020661059d565b6040516101409190611380565b34801561021f57600080fd5b506101ad6105ff565b34801561023457600080fd5b506101e461064a565b34801561024957600080fd5b506101ad610258366004611113565b61065f565b34801561026957600080fd5b506101ad610278366004611113565b61081e565b34801561028957600080fd5b5061018061091c565b34801561029e57600080fd5b506102a7610922565b6040516101409190611407565b3480156102c057600080fd5b506101ad6102cf366004611113565b610979565b3480156102e057600080fd5b506101ad6102ef366004611113565b610aa6565b34801561030057600080fd5b5061031461030f366004611176565b610b1d565b60405161014091906113cd565b6101ad61032f36600461126c565b610c12565b600081815260016020526040902080546060919061035190611738565b80601f016020809104026020016040519081016040528092919081815260200182805461037d90611738565b80156103ca5780601f1061039f576101008083540402835291602001916103ca565b820191906000526020600020905b8154815290600101906020018083116103ad57829003601f168201915b505050505090505b919050565b600554600090158015906103f557506006546001600160a01b031615155b905090565b4790565b600054610100900460ff1680610417575060005460ff16155b61043c5760405162461bcd60e51b8152600401610433906115cd565b60405180910390fd5b600054610100900460ff1615801561048557600080547fffffffffffffffffffffffffffffffffffffffffffffffffffffffffffffff0061ff0019909116610100171660011790555b600580546001810182556000919091527f036b6384b5eca791c62761152d0c79bb0604c104a5fb6f4eb0703f3154bb3db00180546001600160a01b0380871673ffffffffffffffffffffffffffffffffffffffff1992831617909255600680549286169290911691909117905560048290558015610509576000805461ff00191690555b50505050565b610517610e45565b6001600160a01b031661052861064a565b6001600160a01b03161461054e5760405162461bcd60e51b81526004016104339061162a565b60048190556040517fff0d47c352c58a5f5c1084fd4282eff6cba6ffda6bcf5b0812479d3ab241299b906105839083906116cd565b60405180910390a150565b6006546001600160a01b031690565b606060058054806020026020016040519081016040528092919081815260200182805480156105f557602002820191906000526020600020905b81546001600160a01b031681526001909101906020018083116105d7575b5050505050905090565b610607610e45565b6001600160a01b031661061861064a565b6001600160a01b03161461063e5760405162461bcd60e51b81526004016104339061162a565b6106486000610e49565b565b6000546201000090046001600160a01b031690565b610667610e45565b6001600160a01b031661067861064a565b6001600160a01b03161461069e5760405162461bcd60e51b81526004016104339061162a565b6001600160a01b0381166106c45760405162461bcd60e51b81526004016104339061165f565b60005b60055481101561081a57816001600160a01b0316600582815481106106fc57634e487b7160e01b600052603260045260246000fd5b6000918252602090912001546001600160a01b0316141561080857600554600110156107b9576005805461073290600190611721565b8154811061075057634e487b7160e01b600052603260045260246000fd5b600091825260209091200154600580546001600160a01b03909216918390811061078a57634e487b7160e01b600052603260045260246000fd5b9060005260206000200160006101000a8154816001600160a01b0302191690836001600160a01b031602179055505b60058054806107d857634e487b7160e01b600052603160045260246000fd5b6000828152602090208101600019908101805473ffffffffffffffffffffffffffffffffffffffff191690550190555b806108128161176d565b9150506106c7565b5050565b610826610e45565b6001600160a01b031661083761064a565b6001600160a01b03161461085d5760405162461bcd60e51b81526004016104339061162a565b60004790506000826001600160a01b03168260405161087b90611350565b60006040518083038185875af1925050503d80600081146108b8576040519150601f19603f3d011682016040523d82523d6000602084013e6108bd565b606091505b50509050806108de5760405162461bcd60e51b815260040161043390611696565b7fa44d293442cd8a251691f35ce0d15ba27699d0fa6494d24e0c216eb25e9167a4838360405161090f929190611367565b60405180910390a1505050565b60045490565b606060038054806020026020016040519081016040528092919081815260200182805480156105f557602002820191906000526020600020905b81548152602001906001019080831161095c575050505050905090565b610981610e45565b6001600160a01b031661099261064a565b6001600160a01b0316146109b85760405162461bcd60e51b81526004016104339061162a565b6001600160a01b0381166109de5760405162461bcd60e51b81526004016104339061165f565b60005b600554811015610a4957816001600160a01b031660058281548110610a1657634e487b7160e01b600052603260045260246000fd5b6000918252602090912001546001600160a01b03161415610a375750610aa3565b80610a418161176d565b9150506109e1565b50600580546001810182556000919091527f036b6384b5eca791c62761152d0c79bb0604c104a5fb6f4eb0703f3154bb3db001805473ffffffffffffffffffffffffffffffffffffffff19166001600160a01b0383161790555b50565b610aae610e45565b6001600160a01b0316610abf61064a565b6001600160a01b031614610ae55760405162461bcd60e51b81526004016104339061162a565b610aee81610eba565b7f05e67a9c48f2ed03de4c92652b9cd87a0bbb4dcf7b7cf6c06996260d79bf2890816040516105839190611353565b6060815167ffffffffffffffff811115610b4757634e487b7160e01b600052604160045260246000fd5b604051908082528060200260200182016040528015610b70578160200160208202803683370190505b50905060005b8251811015610c0c5760016000848381518110610ba357634e487b7160e01b600052603260045260246000fd5b602002602001015181526020019081526020016000208054610bc490611738565b905060001415828281518110610bea57634e487b7160e01b600052603260045260246000fd5b9115156020928302919091019091015280610c048161176d565b915050610b76565b50919050565b60055415801590610c2d57506006546001600160a01b031615155b610c495760405162461bcd60e51b81526004016104339061155f565b600454341015610c6b5760405162461bcd60e51b815260040161043390611528565b60008281526001602052604090208054610c8490611738565b159050610ca35760405162461bcd60e51b815260040161043390611596565b6006546040517efdd58e0000000000000000000000000000000000000000000000000000000081526000916001600160a01b03169062fdd58e90610ced9033908790600401611367565b60206040518083038186803b158015610d0557600080fd5b505afa158015610d19573d6000803e3d6000fd5b505050506040513d601f19601f82011682018060405250810190610d3d9190611254565b11610d5a5760405162461bcd60e51b81526004016104339061145d565b6000610d6583610f28565b90506001600160a01b038116610d8d5760405162461bcd60e51b8152600401610433906114f1565b60008381526001602090815260409091208351610dac9285019061107a565b50600083815260026020526040808220805473ffffffffffffffffffffffffffffffffffffffff19166001600160a01b0385161790556003805460018101825592527fc2575a0e9e593c00f959f8c92f12db2869c3395a3b0502d05e2516446f71f85b909101849055517f1fc153de3e1f2dc2a4c93d0df0c7057458bcec2ec3f8b3af7f4841c8d928a3c89061090f90859085906116d6565b3390565b600080546001600160a01b03838116620100008181027fffffffffffffffffffff0000000000000000000000000000000000000000ffff851617855560405193049190911692909183917f8be0079c531659141344cd1fd0a4f28419497f9722a3daafe3b4186f6b6457e091a35050565b610ec2610e45565b6001600160a01b0316610ed361064a565b6001600160a01b031614610ef95760405162461bcd60e51b81526004016104339061162a565b6001600160a01b038116610f1f5760405162461bcd60e51b815260040161043390611494565b610aa381610e49565b6000805b60055481101561107157600260058281548110610f5957634e487b7160e01b600052603260045260246000fd5b6000918252602090912001546040517fe6c3b1f60000000000000000000000000000000000000000000000000000000081526001600160a01b039091169063e6c3b1f690610fab9087906004016116cd565b60206040518083038186803b158015610fc357600080fd5b505afa158015610fd7573d6000803e3d6000fd5b505050506040513d601f19601f82011682018060405250810190610ffb919061121d565b600281111561101a57634e487b7160e01b600052602160045260246000fd5b141561105f576005818154811061104157634e487b7160e01b600052603260045260246000fd5b6000918252602090912001546001600160a01b031691506103d29050565b806110698161176d565b915050610f2c565b50600092915050565b82805461108690611738565b90600052602060002090601f0160209004810192826110a857600085556110ee565b82601f106110c157805160ff19168380011785556110ee565b828001600101855582156110ee579182015b828111156110ee5782518255916020019190600101906110d3565b506110fa9291506110fe565b5090565b5b808211156110fa57600081556001016110ff565b600060208284031215611124578081fd5b813561112f816117b4565b9392505050565b60008060006060848603121561114a578182fd5b8335611155816117b4565b92506020840135611165816117b4565b929592945050506040919091013590565b60006020808385031215611188578182fd5b823567ffffffffffffffff8082111561119f578384fd5b818501915085601f8301126111b2578384fd5b8135818111156111c4576111c461179e565b83810291506111d48483016116f7565b8181528481019084860184860187018a10156111ee578788fd5b8795505b838610156112105780358352600195909501949186019186016111f2565b5098975050505050505050565b60006020828403121561122e578081fd5b81516003811061112f578182fd5b60006020828403121561124d578081fd5b5035919050565b600060208284031215611265578081fd5b5051919050565b6000806040838503121561127e578182fd5b8235915060208084013567ffffffffffffffff8082111561129d578384fd5b818601915086601f8301126112b0578384fd5b8135818111156112c2576112c261179e565b6112d484601f19601f840116016116f7565b915080825287848285010111156112e9578485fd5b8084840185840137810190920192909252919491935090915050565b60008151808452815b8181101561132a5760208185018101518683018201520161130e565b8181111561133b5782602083870101525b50601f01601f19169290920160200192915050565b90565b6001600160a01b0391909116815260200190565b6001600160a01b03929092168252602082015260400190565b6020808252825182820181905260009190848201906040850190845b818110156113c15783516001600160a01b03168352928401929184019160010161139c565b50909695505050505050565b6020808252825182820181905260009190848201906040850190845b818110156113c15783511515835292840192918401916001016113e9565b6020808252825182820181905260009190848201906040850190845b818110156113c157835183529284019291840191600101611423565b901515815260200190565b60006020825261112f6020830184611305565b60208082526017908201527f446f6573206e6f74206f776e207468697320746f6b656e000000000000000000604082015260600190565b60208082526026908201527f4f776e61626c653a206e6577206f776e657220697320746865207a65726f206160408201527f6464726573730000000000000000000000000000000000000000000000000000606082015260800190565b60208082526017908201527f4e6f7420612042697467656d2043616e766173204e4654000000000000000000604082015260600190565b6020808252600b908201527f4d697373696e6720666565000000000000000000000000000000000000000000604082015260600190565b6020808252600f908201527f4e6f7420696e697469616c697a65640000000000000000000000000000000000604082015260600190565b60208082526019908201527f4e69667479706978204461746120616c72656164792073657400000000000000604082015260600190565b6020808252602e908201527f496e697469616c697a61626c653a20636f6e747261637420697320616c72656160408201527f647920696e697469616c697a6564000000000000000000000000000000000000606082015260800190565b6020808252818101527f4f776e61626c653a2063616c6c6572206973206e6f7420746865206f776e6572604082015260600190565b6020808252600f908201527f41646472657373206973207a65726f0000000000000000000000000000000000604082015260600190565b60208082526010908201527f466565732073656e64206661696c656400000000000000000000000000000000604082015260600190565b90815260200190565b6000838252604060208301526116ef6040830184611305565b949350505050565b60405181810167ffffffffffffffff811182821017156117195761171961179e565b604052919050565b60008282101561173357611733611788565b500390565b60028104600182168061174c57607f821691505b60208210811415610c0c57634e487b7160e01b600052602260045260246000fd5b600060001982141561178157611781611788565b5060010190565b634e487b7160e01b600052601160045260246000fd5b634e487b7160e01b600052604160045260246000fd5b6001600160a01b0381168114610aa357600080fdfea2646970667358221220c33b045f1e2965f7e25d88937f5a30eacff4a08a1702b0bb27257261b7ee468464736f6c63430008000033",
  "devdoc": {
    "kind": "dev",
    "methods": {
      "owner()": {
        "details": "Returns the address of the current owner."
      },
      "renounceOwnership()": {
        "details": "Leaves the contract without owner. It will not be possible to call `onlyOwner` functions anymore. Can only be called by the current owner. NOTE: Renouncing ownership will leave the contract without an owner, thereby removing any functionality that is only available to the owner."
      },
      "transferOwnership(address)": {
        "details": "Transfers ownership of the contract to a new account (`newOwner`). Can only be called by the current owner."
      }
    },
    "version": 1
  },
  "userdoc": {
    "kind": "user",
    "methods": {},
    "version": 1
  },
  "storageLayout": {
    "storage": [
      {
        "astId": 109,
        "contract": "src/nftpix/NiftyPixContract.sol:NiftyPixContract",
        "label": "_initialized",
        "offset": 0,
        "slot": "0",
        "type": "t_bool"
      },
      {
        "astId": 112,
        "contract": "src/nftpix/NiftyPixContract.sol:NiftyPixContract",
        "label": "_initializing",
        "offset": 1,
        "slot": "0",
        "type": "t_bool"
      },
      {
        "astId": 7,
        "contract": "src/nftpix/NiftyPixContract.sol:NiftyPixContract",
        "label": "_owner",
        "offset": 2,
        "slot": "0",
        "type": "t_address"
      },
      {
        "astId": 18973,
        "contract": "src/nftpix/NiftyPixContract.sol:NiftyPixContract",
        "label": "niftyPixMapping",
        "offset": 0,
        "slot": "1",
        "type": "t_mapping(t_uint256,t_string_storage)"
      },
      {
        "astId": 18977,
        "contract": "src/nftpix/NiftyPixContract.sol:NiftyPixContract",
        "label": "niftyPixGemPool",
        "offset": 0,
        "slot": "2",
        "type": "t_mapping(t_uint256,t_address)"
      },
      {
        "astId": 18980,
        "contract": "src/nftpix/NiftyPixContract.sol:NiftyPixContract",
        "label": "niftyPixHashes",
        "offset": 0,
        "slot": "3",
        "type": "t_array(t_uint256)dyn_storage"
      },
      {
        "astId": 18982,
        "contract": "src/nftpix/NiftyPixContract.sol:NiftyPixContract",
        "label": "mintingFee",
        "offset": 0,
        "slot": "4",
        "type": "t_uint256"
      },
      {
        "astId": 18985,
        "contract": "src/nftpix/NiftyPixContract.sol:NiftyPixContract",
        "label": "nftGemPools",
        "offset": 0,
        "slot": "5",
        "type": "t_array(t_address)dyn_storage"
      },
      {
        "astId": 18987,
        "contract": "src/nftpix/NiftyPixContract.sol:NiftyPixContract",
        "label": "multiToken",
        "offset": 0,
        "slot": "6",
        "type": "t_address"
      }
    ],
    "types": {
      "t_address": {
        "encoding": "inplace",
        "label": "address",
        "numberOfBytes": "20"
      },
      "t_array(t_address)dyn_storage": {
        "base": "t_address",
        "encoding": "dynamic_array",
        "label": "address[]",
        "numberOfBytes": "32"
      },
      "t_array(t_uint256)dyn_storage": {
        "base": "t_uint256",
        "encoding": "dynamic_array",
        "label": "uint256[]",
        "numberOfBytes": "32"
      },
      "t_bool": {
        "encoding": "inplace",
        "label": "bool",
        "numberOfBytes": "1"
      },
      "t_mapping(t_uint256,t_address)": {
        "encoding": "mapping",
        "key": "t_uint256",
        "label": "mapping(uint256 => address)",
        "numberOfBytes": "32",
        "value": "t_address"
      },
      "t_mapping(t_uint256,t_string_storage)": {
        "encoding": "mapping",
        "key": "t_uint256",
        "label": "mapping(uint256 => string)",
        "numberOfBytes": "32",
        "value": "t_string_storage"
      },
      "t_string_storage": {
        "encoding": "bytes",
        "label": "string",
        "numberOfBytes": "32"
      },
      "t_uint256": {
        "encoding": "inplace",
        "label": "uint256",
        "numberOfBytes": "32"
      }
    }
  }
}