{
  "address": "0x8dA6299C1369177b720F165Bb73279D71d538EB4",
  "abi": [
    {
      "inputs": [],
      "stateMutability": "nonpayable",
      "type": "constructor"
    },
    {
      "anonymous": false,
      "inputs": [
        {
          "indexed": true,
          "internalType": "address",
          "name": "contractAddress",
          "type": "address"
        },
        {
          "indexed": true,
          "internalType": "address",
          "name": "controllerAddress",
          "type": "address"
        }
      ],
      "name": "ControllerAdded",
      "type": "event"
    },
    {
      "anonymous": false,
      "inputs": [
        {
          "indexed": true,
          "internalType": "address",
          "name": "contractAddress",
          "type": "address"
        },
        {
          "indexed": true,
          "internalType": "address",
          "name": "controllerAddress",
          "type": "address"
        }
      ],
      "name": "ControllerRemoved",
      "type": "event"
    },
    {
      "anonymous": false,
      "inputs": [
        {
          "indexed": true,
          "internalType": "uint256",
          "name": "proposalHash",
          "type": "uint256"
        },
        {
          "indexed": false,
          "internalType": "address",
          "name": "pool",
          "type": "address"
        }
      ],
      "name": "ProposalClosed",
      "type": "event"
    },
    {
      "anonymous": false,
      "inputs": [
        {
          "indexed": false,
          "internalType": "address",
          "name": "creator",
          "type": "address"
        },
        {
          "indexed": false,
          "internalType": "uint256",
          "name": "proposalType",
          "type": "uint256"
        },
        {
          "indexed": false,
          "internalType": "address",
          "name": "proposal",
          "type": "address"
        }
      ],
      "name": "ProposalCreated",
      "type": "event"
    },
    {
      "anonymous": false,
      "inputs": [
        {
          "indexed": true,
          "internalType": "uint256",
          "name": "proposalHash",
          "type": "uint256"
        },
        {
          "indexed": false,
          "internalType": "address",
          "name": "pool",
          "type": "address"
        }
      ],
      "name": "ProposalExecuted",
      "type": "event"
    },
    {
      "anonymous": false,
      "inputs": [
        {
          "indexed": true,
          "internalType": "uint256",
          "name": "proposalHash",
          "type": "uint256"
        },
        {
          "indexed": true,
          "internalType": "address",
          "name": "funder",
          "type": "address"
        },
        {
          "indexed": false,
          "internalType": "uint256",
          "name": "expDate",
          "type": "uint256"
        }
      ],
      "name": "ProposalFunded",
      "type": "event"
    },
    {
      "inputs": [
        {
          "internalType": "address",
          "name": "_controller",
          "type": "address"
        }
      ],
      "name": "addController",
      "outputs": [],
      "stateMutability": "nonpayable",
      "type": "function"
    },
    {
      "inputs": [
        {
          "internalType": "uint256",
          "name": "idx",
          "type": "uint256"
        }
      ],
      "name": "allProposals",
      "outputs": [
        {
          "internalType": "address",
          "name": "proposal",
          "type": "address"
        }
      ],
      "stateMutability": "view",
      "type": "function"
    },
    {
      "inputs": [],
      "name": "allProposalsLength",
      "outputs": [
        {
          "internalType": "uint256",
          "name": "proposal",
          "type": "uint256"
        }
      ],
      "stateMutability": "view",
      "type": "function"
    },
    {
      "inputs": [
        {
          "internalType": "address",
          "name": "submitter",
          "type": "address"
        },
        {
          "internalType": "string",
          "name": "title",
          "type": "string"
        },
        {
          "internalType": "address",
          "name": "proposalData",
          "type": "address"
        },
        {
          "internalType": "enum IProposal.ProposalType",
          "name": "proposalType",
          "type": "uint8"
        }
      ],
      "name": "createProposal",
      "outputs": [
        {
          "internalType": "address payable",
          "name": "proposal",
          "type": "address"
        }
      ],
      "stateMutability": "nonpayable",
      "type": "function"
    },
    {
      "inputs": [
        {
          "internalType": "uint256",
          "name": "_symbolHash",
          "type": "uint256"
        }
      ],
      "name": "getProposal",
      "outputs": [
        {
          "internalType": "address",
          "name": "proposal",
          "type": "address"
        }
      ],
      "stateMutability": "view",
      "type": "function"
    },
    {
      "inputs": [
        {
          "internalType": "address",
          "name": "_address",
          "type": "address"
        }
      ],
      "name": "isController",
      "outputs": [
        {
          "internalType": "bool",
          "name": "allowed",
          "type": "bool"
        }
      ],
      "stateMutability": "view",
      "type": "function"
    },
    {
      "inputs": [],
      "name": "relinquishControl",
      "outputs": [],
      "stateMutability": "view",
      "type": "function"
    }
  ],
  "transactionHash": "0x7de213584bdaf4985f173a38d22a9eb146826a1b23f18ce641e6650f216012d9",
  "args": [],
  "solcInputHash": "8cdaae598cbece381c3f70bdf245f22b",
  "bytecode": "0x608060405234801561001057600080fd5b5061001a3361001f565b610043565b6001600160a01b03166000908152602081905260409020805460ff19166001179055565b6125c3806100526000396000f3fe608060405234801561001057600080fd5b506004361061007d5760003560e01c8063b429afeb1161005b578063b429afeb146101de578063c7f758a814610225578063de8431e614610242578063e1c28bef1461025c5761007d565b80634c30007614610082578063938351b81461018c578063a7fc7a07146101a9575b600080fd5b6101636004803603608081101561009857600080fd5b73ffffffffffffffffffffffffffffffffffffffff82351691908101906040810160208201356401000000008111156100d057600080fd5b8201836020820111156100e257600080fd5b8035906020019184600183028401116401000000008311171561010457600080fd5b91908080601f0160208091040260200160405190810160405280939291908181526020018383808284376000920191909152509295505050813573ffffffffffffffffffffffffffffffffffffffff169250506020013560ff16610264565b6040805173ffffffffffffffffffffffffffffffffffffffff9092168252519081900360200190f35b610163600480360360208110156101a257600080fd5b50356106c5565b6101dc600480360360208110156101bf57600080fd5b503573ffffffffffffffffffffffffffffffffffffffff166106fc565b005b610211600480360360208110156101f457600080fd5b503573ffffffffffffffffffffffffffffffffffffffff166107c2565b604080519115158252519081900360200190f35b6101636004803603602081101561023b57600080fd5b50356107ed565b61024a610815565b60408051918252519081900360200190f35b6101dc61081b565b3360009081526020819052604081205460ff1615156001148061028657503033145b6102db576040517f08c379a00000000000000000000000000000000000000000000000000000000081526004018080602001828103825260288152602001806125666028913960400191505060405180910390fd5b60008585604051602001808373ffffffffffffffffffffffffffffffffffffffff1660601b815260140182805190602001908083835b6020831061034e57805182527fffffffffffffffffffffffffffffffffffffffffffffffffffffffffffffffe09092019160209182019101610311565b51815160209384036101000a7fffffffffffffffffffffffffffffffffffffffffffffffffffffffffffffffff018019909216911617905260408051929094018281037fffffffffffffffffffffffffffffffffffffffffffffffffffffffffffffffe0018352845281519181019190912060008181526002909252929020549195505073ffffffffffffffffffffffffffffffffffffffff1615925061045991505057604080517f08c379a000000000000000000000000000000000000000000000000000000000815260206004820152600f60248201527f50524f504f53414c5f4558495354530000000000000000000000000000000000604482015290519081900360640190fd5b60606040518060200161046b90610a11565b7fffffffffffffffffffffffffffffffffffffffffffffffffffffffffffffffe082820381018352601f9091011660405290506104aa6000838361089d565b92508273ffffffffffffffffffffffffffffffffffffffff1663113805ed888888886040518563ffffffff1660e01b8152600401808573ffffffffffffffffffffffffffffffffffffffff168152602001806020018473ffffffffffffffffffffffffffffffffffffffff16815260200183600381111561052757fe5b8152602001828103825285818151815260200191508051906020019080838360005b83811015610561578181015183820152602001610549565b50505050905090810190601f16801561058e5780820380516001836020036101000a031916815260200191505b5095505050505050600060405180830381600087803b1580156105b057600080fd5b505af11580156105c4573d6000803e3d6000fd5b5050506000838152600260205260408120805473ffffffffffffffffffffffffffffffffffffffff87167fffffffffffffffffffffffff0000000000000000000000000000000000000000918216811790925560038054600181018255938190527fc2575a0e9e593c00f959f8c92f12db2869c3395a3b0502d05e2516446f71f85b909301805490911690911790557fe669ca381c47a2c25df06ebbe580c111183f1e92460fd3ab51050d2306b3402791508890869081111561068357fe5b6040805173ffffffffffffffffffffffffffffffffffffffff938416815260208101929092529186168183015290519081900360600190a15050949350505050565b6000600382815481106106d457fe5b60009182526020909120015473ffffffffffffffffffffffffffffffffffffffff1692915050565b3360009081526020819052604090205460ff1615156001148061071e57503033145b610773576040517f08c379a00000000000000000000000000000000000000000000000000000000081526004018080602001828103825260288152602001806125666028913960400191505060405180910390fd5b73ffffffffffffffffffffffffffffffffffffffff16600090815260208190526040902080547fffffffffffffffffffffffffffffffffffffffffffffffffffffffffffffff00166001179055565b73ffffffffffffffffffffffffffffffffffffffff1660009081526020819052604090205460ff1690565b60009081526002602052604090205473ffffffffffffffffffffffffffffffffffffffff1690565b60035490565b3360009081526020819052604090205460ff1615156001148061083d57503033145b610892576040517f08c379a00000000000000000000000000000000000000000000000000000000081526004018080602001828103825260288152602001806125666028913960400191505060405180910390fd5b336000908152602052565b6000808447101561090f57604080517f08c379a000000000000000000000000000000000000000000000000000000000815260206004820152601d60248201527f437265617465323a20696e73756666696369656e742062616c616e6365000000604482015290519081900360640190fd5b825161097c57604080517f08c379a000000000000000000000000000000000000000000000000000000000815260206004820181905260248201527f437265617465323a2062797465636f6465206c656e677468206973207a65726f604482015290519081900360640190fd5b8383516020850187f5905073ffffffffffffffffffffffffffffffffffffffff8116610a0957604080517f08c379a000000000000000000000000000000000000000000000000000000000815260206004820152601960248201527f437265617465323a204661696c6564206f6e206465706c6f7900000000000000604482015290519081900360640190fd5b949350505050565b611b4780610a1f8339019056fe608060405234801561001057600080fd5b506100216301ffc9a760e01b610036565b610031630271189760e51b610036565b6100bd565b6001600160e01b03198082161415610095576040805162461bcd60e51b815260206004820152601c60248201527f4552433136353a20696e76616c696420696e7465726661636520696400000000604482015290519081900360640190fd5b6001600160e01b0319166000908152600160208190526040909120805460ff19169091179055565b611a7b806100cc6000396000f3fe6080604052600436106100f35760003560e01c80634665096d1161008a578063bc197c8111610059578063bc197c81146103d9578063c42cf535146105ef578063d104f8f51461062f578063f23a6e611461066f576100f3565b80634665096d1461030b5780634a79d50c1461033257806361461954146103bc578063b60d4288146103d1576100f3565b8063200d2ed2116100c6578063200d2ed214610286578063351d9f96146102bc5780634258292f146102e157806343d726d6146102f6576100f3565b806301ffc9a7146100f857806302d05d3f14610158578063041ae88014610158578063113805ed14610196575b600080fd5b34801561010457600080fd5b506101446004803603602081101561011b57600080fd5b50357fffffffff0000000000000000000000000000000000000000000000000000000016610754565b604080519115158252519081900360200190f35b34801561016457600080fd5b5061016d61078b565b6040805173ffffffffffffffffffffffffffffffffffffffff9092168252519081900360200190f35b3480156101a257600080fd5b50610284600480360360808110156101b957600080fd5b73ffffffffffffffffffffffffffffffffffffffff82351691908101906040810160208201356401000000008111156101f157600080fd5b82018360208201111561020357600080fd5b8035906020019184600183028401116401000000008311171561022557600080fd5b91908080601f0160208091040260200160405190810160405280939291908181526020018383808284376000920191909152509295505050813573ffffffffffffffffffffffffffffffffffffffff169250506020013560ff166107a8565b005b34801561029257600080fd5b5061029b61095a565b604051808260058111156102ab57fe5b815260200191505060405180910390f35b3480156102c857600080fd5b506102d1610969565b604051808260038111156102ab57fe5b3480156102ed57600080fd5b5061016d61098a565b34801561030257600080fd5b506102846109a6565b34801561031757600080fd5b50610320610d46565b60408051918252519081900360200190f35b34801561033e57600080fd5b50610347610d4c565b6040805160208082528351818301528351919283929083019185019080838360005b83811015610381578181015183820152602001610369565b50505050905090810190601f1680156103ae5780820380516001836020036101000a031916815260200191505b509250505060405180910390f35b3480156103c857600080fd5b50610284610dfd565b6102846110f6565b3480156103e557600080fd5b506105ba600480360360a08110156103fc57600080fd5b73ffffffffffffffffffffffffffffffffffffffff823581169260208101359091169181019060608101604082013564010000000081111561043d57600080fd5b82018360208201111561044f57600080fd5b8035906020019184602083028401116401000000008311171561047157600080fd5b91908080602002602001604051908101604052809392919081815260200183836020028082843760009201919091525092959493602081019350359150506401000000008111156104c157600080fd5b8201836020820111156104d357600080fd5b803590602001918460208302840111640100000000831117156104f557600080fd5b919080806020026020016040519081016040528093929190818152602001838360200280828437600092019190915250929594936020810193503591505064010000000081111561054557600080fd5b82018360208201111561055757600080fd5b8035906020019184600183028401116401000000008311171561057957600080fd5b91908080601f01602080910402602001604051908101604052809392919081815260200183838082843760009201919091525092955061146d945050505050565b604080517fffffffff000000000000000000000000000000000000000000000000000000009092168252519081900360200190f35b3480156105fb57600080fd5b506102846004803603602081101561061257600080fd5b503573ffffffffffffffffffffffffffffffffffffffff16611497565b34801561063b57600080fd5b506102846004803603602081101561065257600080fd5b503573ffffffffffffffffffffffffffffffffffffffff16611549565b34801561067b57600080fd5b506105ba600480360360a081101561069257600080fd5b73ffffffffffffffffffffffffffffffffffffffff823581169260208101359091169160408201359160608101359181019060a0810160808201356401000000008111156106df57600080fd5b8201836020820111156106f157600080fd5b8035906020019184600183028401116401000000008311171561071357600080fd5b91908080601f0160208091040260200160405190810160405280939291908181526020018383808284376000920191909152509295506115fb945050505050565b7fffffffff000000000000000000000000000000000000000000000000000000001660009081526001602052604090205460ff1690565b60035473ffffffffffffffffffffffffffffffffffffffff165b90565b600054610100900460ff16806107c157506107c1611625565b806107cf575060005460ff16155b61080a5760405162461bcd60e51b815260040180806020018281038252602e815260200180611a18602e913960400191505060405180910390fd5b600054610100900460ff1615801561087057600080547fffffffffffffffffffffffffffffffffffffffffffffffffffffffffffffff007fffffffffffffffffffffffffffffffffffffffffffffffffffffffffffff00ff909116610100171660011790555b8351610883906002906020870190611984565b506003805473ffffffffffffffffffffffffffffffffffffffff8088167fffffffffffffffffffffffff000000000000000000000000000000000000000092831617835560088054918716919092161780825584927fffffffffffffffffffffff00ffffffffffffffffffffffffffffffffffffffff909116907401000000000000000000000000000000000000000090849081111561091f57fe5b0217905550801561095357600080547fffffffffffffffffffffffffffffffffffffffffffffffffffffffffffff00ff1690555b5050505050565b6000610964611636565b905090565b60085474010000000000000000000000000000000000000000900460ff1690565b60085473ffffffffffffffffffffffffffffffffffffffff1690565b6008547501000000000000000000000000000000000000000000900460ff16610a16576040805162461bcd60e51b815260206004820152600a60248201527f4e4f545f46554e44454400000000000000000000000000000000000000000000604482015290519081900360640190fd5b60085477010000000000000000000000000000000000000000000000900460ff1615610a89576040805162461bcd60e51b815260206004820152600960248201527f49535f434c4f5345440000000000000000000000000000000000000000000000604482015290519081900360640190fd5b600854760100000000000000000000000000000000000000000000900460ff1615610afb576040805162461bcd60e51b815260206004820152600b60248201527f49535f4558454355544544000000000000000000000000000000000000000000604482015290519081900360640190fd5b6007544211610b51576040805162461bcd60e51b815260206004820152600960248201527f49535f4143544956450000000000000000000000000000000000000000000000604482015290519081900360640190fd5b6003610b5b611636565b6005811115610b6657fe5b14610bb8576040805162461bcd60e51b815260206004820152600960248201527f49535f5041535345440000000000000000000000000000000000000000000000604482015290519081900360640190fd5b600880547fffffffffffffffff00ffffffffffffffffffffffffffffffffffffffffffffff1677010000000000000000000000000000000000000000000000179055600654604080517fdac7f24d000000000000000000000000000000000000000000000000000000008152306004820152905173ffffffffffffffffffffffffffffffffffffffff9092169163dac7f24d9160248082019260009290919082900301818387803b158015610c6c57600080fd5b505af1158015610c80573d6000803e3d6000fd5b50506004546040516000935073ffffffffffffffffffffffffffffffffffffffff9091169150670de0b6b3a7640000908381818185875af1925050503d8060008114610ce8576040519150601f19603f3d011682016040523d82523d6000602084013e610ced565b606091505b5050905080610d43576040805162461bcd60e51b815260206004820152600e60248201527f455845435554455f4641494c4544000000000000000000000000000000000000604482015290519081900360640190fd5b50565b60075490565b60028054604080516020601f7fffffffffffffffffffffffffffffffffffffffffffffffffffffffffffffffff6101006001871615020190941685900493840181900481028201810190925282815260609390929091830182828015610df35780601f10610dc857610100808354040283529160200191610df3565b820191906000526020600020905b815481529060010190602001808311610dd657829003601f168201915b5050505050905090565b6008547501000000000000000000000000000000000000000000900460ff16610e6d576040805162461bcd60e51b815260206004820152600a60248201527f4e4f545f46554e44454400000000000000000000000000000000000000000000604482015290519081900360640190fd5b60085477010000000000000000000000000000000000000000000000900460ff1615610ee0576040805162461bcd60e51b815260206004820152600960248201527f49535f434c4f5345440000000000000000000000000000000000000000000000604482015290519081900360640190fd5b600854760100000000000000000000000000000000000000000000900460ff1615610f52576040805162461bcd60e51b815260206004820152600b60248201527f49535f4558454355544544000000000000000000000000000000000000000000604482015290519081900360640190fd5b6002610f5c611636565b6005811115610f6757fe5b14610fb9576040805162461bcd60e51b815260206004820152600960248201527f49535f4641494c45440000000000000000000000000000000000000000000000604482015290519081900360640190fd5b600654604080517fa67a03ab000000000000000000000000000000000000000000000000000000008152306004820152905173ffffffffffffffffffffffffffffffffffffffff9092169163a67a03ab9160248082019260009290919082900301818387803b15801561102b57600080fd5b505af115801561103f573d6000803e3d6000fd5b5050600880547fffffffffffffffffff00ffffffffffffffffffffffffffffffffffffffffffff167601000000000000000000000000000000000000000000001790555050600654604080517fdac7f24d000000000000000000000000000000000000000000000000000000008152306004820152905173ffffffffffffffffffffffffffffffffffffffff9092169163dac7f24d9160248082019260009290919082900301818387803b158015610c6c57600080fd5b6008547501000000000000000000000000000000000000000000900460ff1615611167576040805162461bcd60e51b815260206004820152600e60248201527f414c52454144595f46554e444544000000000000000000000000000000000000604482015290519081900360640190fd5b60085477010000000000000000000000000000000000000000000000900460ff16156111da576040805162461bcd60e51b815260206004820152600e60248201527f414c52454144595f434c4f534544000000000000000000000000000000000000604482015290519081900360640190fd5b600854760100000000000000000000000000000000000000000000900460ff161561124c576040805162461bcd60e51b815260206004820152601060248201527f414c52454144595f455845435554454400000000000000000000000000000000604482015290519081900360640190fd5b670de0b6b3a76400003410156112a9576040805162461bcd60e51b815260206004820152600b60248201527f4d495353494e475f464545000000000000000000000000000000000000000000604482015290519081900360640190fd5b600880547fffffffffffffffffffff00ffffffffffffffffffffffffffffffffffffffffff1675010000000000000000000000000000000000000000001790554262278d0001600755600480547fffffffffffffffffffffffff00000000000000000000000000000000000000001633178155600654604080517f1e4ad6a200000000000000000000000000000000000000000000000000000000815230938101939093525173ffffffffffffffffffffffffffffffffffffffff9190911691631e4ad6a291602480830192600092919082900301818387803b15801561138f57600080fd5b505af11580156113a3573d6000803e3d6000fd5b5050505060006113c4670de0b6b3a76400003461185990919063ffffffff16565b90508015610d4357604051600090339083908381818185875af1925050503d806000811461140e576040519150601f19603f3d011682016040523d82523d6000602084013e611413565b606091505b5050905080611469576040805162461bcd60e51b815260206004820152600d60248201527f524546554e445f4641494c454400000000000000000000000000000000000000604482015290519081900360640190fd5b5050565b7fbc197c810000000000000000000000000000000000000000000000000000000095945050505050565b60065473ffffffffffffffffffffffffffffffffffffffff1615611502576040805162461bcd60e51b815260206004820152600960248201527f494d4d555441424c450000000000000000000000000000000000000000000000604482015290519081900360640190fd5b600680547fffffffffffffffffffffffff00000000000000000000000000000000000000001673ffffffffffffffffffffffffffffffffffffffff92909216919091179055565b60055473ffffffffffffffffffffffffffffffffffffffff16156115b4576040805162461bcd60e51b815260206004820152600960248201527f494d4d555441424c450000000000000000000000000000000000000000000000604482015290519081900360640190fd5b600580547fffffffffffffffffffffffff00000000000000000000000000000000000000001673ffffffffffffffffffffffffffffffffffffffff92909216919091179055565b7ff23a6e610000000000000000000000000000000000000000000000000000000095945050505050565b6000611630306118b6565b15905090565b6008546001907501000000000000000000000000000000000000000000900460ff16611664575060006107a5565b600854760100000000000000000000000000000000000000000000900460ff1615611691575060046107a5565b60085477010000000000000000000000000000000000000000000000900460ff16156116bf575060056107a5565b600554604080517fed7aae2b000000000000000000000000000000000000000000000000000000008152306004820152905160009273ffffffffffffffffffffffffffffffffffffffff169163ed7aae2b916024808301926020929190829003018186803b15801561173057600080fd5b505afa158015611744573d6000803e3d6000fd5b505050506040513d602081101561175a57600080fd5b5051600554604080517efdd58e00000000000000000000000000000000000000000000000000000000815230600482018190526024820152905192935060009273ffffffffffffffffffffffffffffffffffffffff9092169162fdd58e91604480820192602092909190829003018186803b1580156117d857600080fd5b505afa1580156117ec573d6000803e3d6000fd5b505050506040513d602081101561180257600080fd5b50519050600061181e60016118188560026118bc565b90611923565b90508082101561182f576001611832565b60025b9350600754421115611853578082101561184d576003611850565b60025b93505b50505090565b6000828211156118b0576040805162461bcd60e51b815260206004820152601e60248201527f536166654d6174683a207375627472616374696f6e206f766572666c6f770000604482015290519081900360640190fd5b50900390565b3b151590565b6000808211611912576040805162461bcd60e51b815260206004820152601a60248201527f536166654d6174683a206469766973696f6e206279207a65726f000000000000604482015290519081900360640190fd5b81838161191b57fe5b049392505050565b60008282018381101561197d576040805162461bcd60e51b815260206004820152601b60248201527f536166654d6174683a206164646974696f6e206f766572666c6f770000000000604482015290519081900360640190fd5b9392505050565b828054600181600116156101000203166002900490600052602060002090601f016020900481019282601f106119c557805160ff19168380011785556119f2565b828001600101855582156119f2579182015b828111156119f25782518255916020019190600101906119d7565b506119fe929150611a02565b5090565b5b808211156119fe5760008155600101611a0356fe496e697469616c697a61626c653a20636f6e747261637420697320616c726561647920696e697469616c697a6564a2646970667358221220398276424b54e26ca8167d5e3b2b46339e4cb6331499c1d1ccf37f2d67fbf48964736f6c63430007030033436f6e74726f6c6c61626c653a2063616c6c6572206973206e6f74206120636f6e74726f6c6c6572a26469706673582212206ee5072a821184cfdc49c49d89875b85130da1ed9c5911981c9e85291e8fa03564736f6c63430007030033",
  "libraries": {
    "GovernanceLib": "0x9eAc2A20bFB02a065b5B721109Ce51D4730B9e92",
    "Strings": "0xe98D76f55e5Dae2DE566CC8Aa1a36282742eabf7",
    "SafeMath": "0x753f0df0a61c5F8A0eB31c6Bf6e7363943Eb225B",
    "AddressSet": "0x86fca4de79B7DA4138cB961e0ce32FF17Bb1e3B3",
    "UInt256Set": "0xA7A95c6BA39DA9747ae1fE7C64e4E7ad00dCFD73",
    "Create2": "0x117f8511d54E60dE2F1C63F0Ac1c7C05473cdAa4",
    "ProposalsLib": "0xab14bBF2998944255052bdBE1258cb863D330A4e",
    "ComplexPoolLib": "0x819e15b3A3f4F36965d1a3994060398A5CAa02B6",
    "WrappedTokenLib": "0x2a12942218Ddf38d951A5B107460F6295c758Fc8"
  },
  "devdoc": {
    "kind": "dev",
    "methods": {
      "addController(address)": {
        "details": "Add an address allowed to control this contract"
      },
      "allProposals(uint256)": {
        "details": "get the proposal for this"
      },
      "allProposalsLength()": {
        "details": "number of quantized addresses"
      },
      "createProposal(address,string,address,uint8)": {
        "details": "deploy a new proposal using create2"
      },
      "getProposal(uint256)": {
        "details": "get the proposal for this"
      },
      "isController(address)": {
        "details": "Check if this address is a controller"
      },
      "relinquishControl()": {
        "details": "Check if this address is a controller"
      }
    },
    "version": 1
  },
  "userdoc": {
    "kind": "user",
    "methods": {},
    "version": 1
  },
  "storageLayout": {
    "storage": [
      {
        "astId": 10169,
        "contract": "src/factories/ProposalFactory.sol:ProposalFactory",
        "label": "_controllers",
        "offset": 0,
        "slot": "0",
        "type": "t_mapping(t_address,t_bool)"
      },
      {
        "astId": 11041,
        "contract": "src/factories/ProposalFactory.sol:ProposalFactory",
        "label": "operator",
        "offset": 0,
        "slot": "1",
        "type": "t_address"
      },
      {
        "astId": 11045,
        "contract": "src/factories/ProposalFactory.sol:ProposalFactory",
        "label": "_getProposal",
        "offset": 0,
        "slot": "2",
        "type": "t_mapping(t_uint256,t_address)"
      },
      {
        "astId": 11048,
        "contract": "src/factories/ProposalFactory.sol:ProposalFactory",
        "label": "_allProposals",
        "offset": 0,
        "slot": "3",
        "type": "t_array(t_address)dyn_storage"
      }
    ],
    "types": {
      "t_address": {
        "encoding": "inplace",
        "label": "address",
        "numberOfBytes": "20"
      },
      "t_array(t_address)dyn_storage": {
        "base": "t_address",
        "encoding": "dynamic_array",
        "label": "address[]",
        "numberOfBytes": "32"
      },
      "t_bool": {
        "encoding": "inplace",
        "label": "bool",
        "numberOfBytes": "1"
      },
      "t_mapping(t_address,t_bool)": {
        "encoding": "mapping",
        "key": "t_address",
        "label": "mapping(address => bool)",
        "numberOfBytes": "32",
        "value": "t_bool"
      },
      "t_mapping(t_uint256,t_address)": {
        "encoding": "mapping",
        "key": "t_uint256",
        "label": "mapping(uint256 => address)",
        "numberOfBytes": "32",
        "value": "t_address"
      },
      "t_uint256": {
        "encoding": "inplace",
        "label": "uint256",
        "numberOfBytes": "32"
      }
    }
  }
}