{
  "address": "0xC9900e474ec9D64678DC66980DBFcD6490a6bE90",
  "abi": [
    {
      "anonymous": false,
      "inputs": [
        {
          "indexed": true,
          "internalType": "uint256",
          "name": "proposalHash",
          "type": "uint256"
        },
        {
          "indexed": false,
          "internalType": "address",
          "name": "pool",
          "type": "address"
        }
      ],
      "name": "ProposalClosed",
      "type": "event"
    },
    {
      "anonymous": false,
      "inputs": [
        {
          "indexed": false,
          "internalType": "address",
          "name": "creator",
          "type": "address"
        },
        {
          "indexed": false,
          "internalType": "uint256",
          "name": "proposalType",
          "type": "uint256"
        },
        {
          "indexed": false,
          "internalType": "address",
          "name": "proposal",
          "type": "address"
        }
      ],
      "name": "ProposalCreated",
      "type": "event"
    },
    {
      "anonymous": false,
      "inputs": [
        {
          "indexed": true,
          "internalType": "uint256",
          "name": "proposalHash",
          "type": "uint256"
        },
        {
          "indexed": false,
          "internalType": "address",
          "name": "pool",
          "type": "address"
        }
      ],
      "name": "ProposalExecuted",
      "type": "event"
    },
    {
      "anonymous": false,
      "inputs": [
        {
          "indexed": true,
          "internalType": "uint256",
          "name": "proposalHash",
          "type": "uint256"
        },
        {
          "indexed": true,
          "internalType": "address",
          "name": "funder",
          "type": "address"
        },
        {
          "indexed": false,
          "internalType": "uint256",
          "name": "expDate",
          "type": "uint256"
        }
      ],
      "name": "ProposalFunded",
      "type": "event"
    },
    {
      "inputs": [
        {
          "internalType": "uint256",
          "name": "idx",
          "type": "uint256"
        }
      ],
      "name": "allProposals",
      "outputs": [
        {
          "internalType": "address",
          "name": "proposal",
          "type": "address"
        }
      ],
      "stateMutability": "view",
      "type": "function"
    },
    {
      "inputs": [],
      "name": "allProposalsLength",
      "outputs": [
        {
          "internalType": "uint256",
          "name": "proposal",
          "type": "uint256"
        }
      ],
      "stateMutability": "view",
      "type": "function"
    },
    {
      "inputs": [
        {
          "internalType": "address",
          "name": "submitter",
          "type": "address"
        },
        {
          "internalType": "string",
          "name": "title",
          "type": "string"
        },
        {
          "internalType": "address",
          "name": "proposalData",
          "type": "address"
        },
        {
          "internalType": "enum IProposal.ProposalType",
          "name": "proposalType",
          "type": "uint8"
        }
      ],
      "name": "createProposal",
      "outputs": [
        {
          "internalType": "address payable",
          "name": "proposal",
          "type": "address"
        }
      ],
      "stateMutability": "nonpayable",
      "type": "function"
    },
    {
      "inputs": [
        {
          "internalType": "uint256",
          "name": "_symbolHash",
          "type": "uint256"
        }
      ],
      "name": "getProposal",
      "outputs": [
        {
          "internalType": "address",
          "name": "proposal",
          "type": "address"
        }
      ],
      "stateMutability": "view",
      "type": "function"
    }
  ],
  "transactionHash": "0x0389cf17b81264ba0b11ea8436b8a3fde0ce8140c5dfd7368bc971c1c0e7a453",
  "args": [],
  "solcInputHash": "b06c540bf558ebe1763f6f5fe903171f",
  "bytecode": "0x608060405234801561001057600080fd5b50611e92806100206000396000f3fe608060405234801561001057600080fd5b506004361061004c5760003560e01c80634c30007614610051578063938351b81461007a578063c7f758a81461008d578063de8431e6146100a0575b600080fd5b61006461005f3660046103c3565b6100b5565b60405161007191906104f9565b60405180910390f35b610064610088366004610496565b6102b2565b61006461009b366004610496565b6102f0565b6100a861030b565b604051610071919061067c565b60008085856040516020016100cb9291906104ae565b60408051601f1981840301815291815281516020928301206000818152928390529120549091506001600160a01b0316156101215760405162461bcd60e51b8152600401610118906105d7565b60405180910390fd5b6000604051806020016101339061038b565b601f1982820381018352601f90910116604052905061015460008383610311565b6040517f113805ed0000000000000000000000000000000000000000000000000000000081529093506001600160a01b0384169063113805ed906101a2908a908a908a908a9060040161050d565b600060405180830381600087803b1580156101bc57600080fd5b505af11580156101d0573d6000803e3d6000fd5b505050600083815260208190526040812080546001600160a01b0387167fffffffffffffffffffffffff0000000000000000000000000000000000000000918216811790925560018054808201825593527fb10e2d527612073b26eecdfd717e6a320cf44b4afac2b0732d9fcbe2b7fa0cf69092018054909216179055507fe669ca381c47a2c25df06ebbe580c111183f1e92460fd3ab51050d2306b340278785600381111561029057634e487b7160e01b600052602160045260246000fd5b856040516102a09392919061057f565b60405180910390a15050949350505050565b6000600182815481106102d557634e487b7160e01b600052603260045260246000fd5b6000918252602090912001546001600160a01b031692915050565b6000908152602081905260409020546001600160a01b031690565b60015490565b600080844710156103345760405162461bcd60e51b815260040161011890610645565b82516103525760405162461bcd60e51b8152600401610118906105a2565b8383516020850187f590506001600160a01b0381166103835760405162461bcd60e51b81526004016101189061060e565b949350505050565b611791806106cc83390190565b80356001600160a01b03811681146103af57600080fd5b919050565b8035600481106103af57600080fd5b600080600080608085870312156103d8578384fd5b6103e185610398565b935060208086013567ffffffffffffffff808211156103fe578586fd5b818801915088601f830112610411578586fd5b813581811115610423576104236106b5565b60405184601f19601f8401168201018181108482111715610446576104466106b5565b60405281815283820185018b101561045c578788fd5b81858501868301379081019093019590955250925061047d60408601610398565b915061048b606086016103b4565b905092959194509250565b6000602082840312156104a7578081fd5b5035919050565b60007fffffffffffffffffffffffffffffffffffffffff0000000000000000000000008460601b16825282516104eb816014850160208701610685565b919091016014019392505050565b6001600160a01b0391909116815260200190565b60006001600160a01b03808716835260806020840152855180608085015261053c8160a0860160208a01610685565b9085166040840152601f01601f1916820160a00190506004831061057057634e487b7160e01b600052602160045260246000fd5b82606083015295945050505050565b6001600160a01b0393841681526020810192909252909116604082015260600190565b6020808252818101527f437265617465323a2062797465636f6465206c656e677468206973207a65726f604082015260600190565b6020808252600f908201527f50524f504f53414c5f4558495354530000000000000000000000000000000000604082015260600190565b60208082526019908201527f437265617465323a204661696c6564206f6e206465706c6f7900000000000000604082015260600190565b6020808252601d908201527f437265617465323a20696e73756666696369656e742062616c616e6365000000604082015260600190565b90815260200190565b60005b838110156106a0578181015183820152602001610688565b838111156106af576000848401525b50505050565b634e487b7160e01b600052604160045260246000fdfe608060405234801561001057600080fd5b50611771806100206000396000f3fe6080604052600436106100f35760003560e01c80634665096d1161008a578063bc197c8111610059578063bc197c8114610241578063c42cf5351461026e578063d104f8f51461028e578063f23a6e61146102ae576100f3565b80634665096d146101e05780634a79d50c146102025780636146195414610224578063b60d428814610239576100f3565b8063200d2ed2116100c6578063200d2ed214610172578063351d9f96146101945780634258292f146101b657806343d726d6146101cb576100f3565b806301ffc9a7146100f857806302d05d3f1461012e578063041ae8801461012e578063113805ed14610150575b600080fd5b34801561010457600080fd5b506101186101133660046111d6565b6102ce565b604051610125919061125b565b60405180910390f35b34801561013a57600080fd5b5061014361032c565b604051610125919061122e565b34801561015c57600080fd5b5061017061016b366004611151565b61033c565b005b34801561017e57600080fd5b5061018761048e565b6040516101259190611293565b3480156101a057600080fd5b506101a961049d565b60405161012591906112ad565b3480156101c257600080fd5b506101436104be565b3480156101d757600080fd5b506101706104cd565b3480156101ec57600080fd5b506101f56106e8565b604051610125919061163c565b34801561020e57600080fd5b506102176106ee565b60405161012591906112c1565b34801561023057600080fd5b50610170610780565b610170610935565b34801561024d57600080fd5b5061026161025c366004611048565b610b52565b6040516101259190611266565b34801561027a57600080fd5b5061017061028936600461102e565b610b7c565b34801561029a57600080fd5b506101706102a936600461102e565b610bd4565b3480156102ba57600080fd5b506102616102c93660046110ee565b610c2c565b60007fffffffff0000000000000000000000000000000000000000000000000000000082167f4e2312e0000000000000000000000000000000000000000000000000000000001480610324575061032482610c56565b90505b919050565b6002546001600160a01b03165b90565b600054610100900460ff1680610355575060005460ff16155b61037a5760405162461bcd60e51b815260040161037190611427565b60405180910390fd5b600054610100900460ff161580156103c357600080547fffffffffffffffffffffffffffffffffffffffffffffffffffffffffffffff0061ff0019909116610100171660011790555b83516103d6906001906020870190610e7e565b50600280546001600160a01b0380881673ffffffffffffffffffffffffffffffffffffffff19928316179092556007805492861692909116919091178082558391907fffffffffffffffffffffff00ffffffffffffffffffffffffffffffffffffffff167401000000000000000000000000000000000000000083600381111561047057634e487b7160e01b600052602160045260246000fd5b02179055508015610487576000805461ff00191690555b5050505050565b6000610498610ca0565b905090565b60075474010000000000000000000000000000000000000000900460ff1690565b6007546001600160a01b031690565b600754600160a81b900460ff166104f65760405162461bcd60e51b815260040161037190611597565b600754600160b81b900460ff16156105205760405162461bcd60e51b8152600401610371906113b9565b600754600160b01b900460ff161561054a5760405162461bcd60e51b815260040161037190611382565b600654421161056b5760405162461bcd60e51b815260040161037190611560565b6003610575610ca0565b600581111561059457634e487b7160e01b600052602160045260246000fd5b146105b15760405162461bcd60e51b8152600401610371906115ce565b600780547fffffffffffffffff00ffffffffffffffffffffffffffffffffffffffffffffff16600160b81b1790556005546040517fdac7f24d0000000000000000000000000000000000000000000000000000000081526001600160a01b039091169063dac7f24d9061062890309060040161163c565b600060405180830381600087803b15801561064257600080fd5b505af1158015610656573d6000803e3d6000fd5b5050600354604051600093506001600160a01b039091169150670de0b6b3a76400009061068290610339565b60006040518083038185875af1925050503d80600081146106bf576040519150601f19603f3d011682016040523d82523d6000602084013e6106c4565b606091505b50509050806106e55760405162461bcd60e51b815260040161037190611529565b50565b60065490565b6060600180546106fd906116be565b80601f0160208091040260200160405190810160405280929190818152602001828054610729906116be565b80156107765780601f1061074b57610100808354040283529160200191610776565b820191906000526020600020905b81548152906001019060200180831161075957829003601f168201915b5050505050905090565b600754600160a81b900460ff166107a95760405162461bcd60e51b815260040161037190611597565b600754600160b81b900460ff16156107d35760405162461bcd60e51b8152600401610371906113b9565b600754600160b01b900460ff16156107fd5760405162461bcd60e51b815260040161037190611382565b6002610807610ca0565b600581111561082657634e487b7160e01b600052602160045260246000fd5b146108435760405162461bcd60e51b81526004016103719061134b565b6005546040517fa67a03ab0000000000000000000000000000000000000000000000000000000081526001600160a01b039091169063a67a03ab9061088c90309060040161122e565b600060405180830381600087803b1580156108a657600080fd5b505af11580156108ba573d6000803e3d6000fd5b5050600780547fffffffffffffffffff00ffffffffffffffffffffffffffffffffffffffffffff16600160b01b17905550506005546040517fdac7f24d0000000000000000000000000000000000000000000000000000000081526001600160a01b039091169063dac7f24d9061062890309060040161163c565b600754600160a81b900460ff161561095f5760405162461bcd60e51b8152600401610371906113f0565b600754600160b81b900460ff16156109895760405162461bcd60e51b8152600401610371906114f2565b600754600160b01b900460ff16156109b35760405162461bcd60e51b815260040161037190611605565b670de0b6b3a76400003410156109db5760405162461bcd60e51b815260040161037190611314565b600780547fffffffffffffffffffff00ffffffffffffffffffffffffffffffffffffffffff16600160a81b179055610a1662278d004261166f565b6006556003805473ffffffffffffffffffffffffffffffffffffffff1916331790556005546040517f1e4ad6a20000000000000000000000000000000000000000000000000000000081526001600160a01b039190911690631e4ad6a290610a8290309060040161163c565b600060405180830381600087803b158015610a9c57600080fd5b505af1158015610ab0573d6000803e3d6000fd5b505050506000670de0b6b3a764000034610aca91906116a7565b905080156106e5576000336001600160a01b031682604051610aeb90610339565b60006040518083038185875af1925050503d8060008114610b28576040519150601f19603f3d011682016040523d82523d6000602084013e610b2d565b606091505b5050905080610b4e5760405162461bcd60e51b815260040161037190611484565b5050565b7fbc197c810000000000000000000000000000000000000000000000000000000095945050505050565b6005546001600160a01b031615610ba55760405162461bcd60e51b8152600401610371906114bb565b6005805473ffffffffffffffffffffffffffffffffffffffff19166001600160a01b0392909216919091179055565b6004546001600160a01b031615610bfd5760405162461bcd60e51b8152600401610371906114bb565b6004805473ffffffffffffffffffffffffffffffffffffffff19166001600160a01b0392909216919091179055565b7ff23a6e610000000000000000000000000000000000000000000000000000000095945050505050565b7fffffffff0000000000000000000000000000000000000000000000000000000081167f01ffc9a70000000000000000000000000000000000000000000000000000000014919050565b600754600190600160a81b900460ff16610cbc57506000610339565b600754600160b01b900460ff1615610cd657506004610339565b600754600160b81b900460ff1615610cf057506005610339565b600480546040517fed7aae2b0000000000000000000000000000000000000000000000000000000081526000926001600160a01b039092169163ed7aae2b91610d3b9130910161163c565b60206040518083038186803b158015610d5357600080fd5b505afa158015610d67573d6000803e3d6000fd5b505050506040513d601f19601f82011682018060405250810190610d8b9190611216565b600480546040517efdd58e0000000000000000000000000000000000000000000000000000000081529293506000926001600160a01b039091169162fdd58e91610dd9913091829101611242565b60206040518083038186803b158015610df157600080fd5b505afa158015610e05573d6000803e3d6000fd5b505050506040513d601f19601f82011682018060405250810190610e299190611216565b90506000610e38600284611687565b610e4390600161166f565b905080821015610e54576001610e57565b60025b9350600654421115610e785780821015610e72576003610e75565b60025b93505b50505090565b828054610e8a906116be565b90600052602060002090601f016020900481019282610eac5760008555610ef2565b82601f10610ec557805160ff1916838001178555610ef2565b82800160010185558215610ef2579182015b82811115610ef2578251825591602001919060010190610ed7565b50610efe929150610f02565b5090565b5b80821115610efe5760008155600101610f03565b600067ffffffffffffffff831115610f3157610f31611725565b610f446020601f19601f86011601611645565b9050828152838383011115610f5857600080fd5b828260208301376000602084830101529392505050565b80356001600160a01b038116811461032757600080fd5b600082601f830112610f96578081fd5b8135602067ffffffffffffffff821115610fb257610fb2611725565b808202610fc0828201611645565b838152828101908684018388018501891015610fda578687fd5b8693505b85841015610ffc578035835260019390930192918401918401610fde565b50979650505050505050565b600082601f830112611018578081fd5b61102783833560208501610f17565b9392505050565b60006020828403121561103f578081fd5b61102782610f6f565b600080600080600060a0868803121561105f578081fd5b61106886610f6f565b945061107660208701610f6f565b9350604086013567ffffffffffffffff80821115611092578283fd5b61109e89838a01610f86565b945060608801359150808211156110b3578283fd5b6110bf89838a01610f86565b935060808801359150808211156110d4578283fd5b506110e188828901611008565b9150509295509295909350565b600080600080600060a08688031215611105578081fd5b61110e86610f6f565b945061111c60208701610f6f565b93506040860135925060608601359150608086013567ffffffffffffffff811115611145578182fd5b6110e188828901611008565b60008060008060808587031215611166578384fd5b61116f85610f6f565b9350602085013567ffffffffffffffff81111561118a578384fd5b8501601f8101871361119a578384fd5b6111a987823560208401610f17565b9350506111b860408601610f6f565b91506060850135600481106111cb578182fd5b939692955090935050565b6000602082840312156111e7578081fd5b81357fffffffff0000000000000000000000000000000000000000000000000000000081168114611027578182fd5b600060208284031215611227578081fd5b5051919050565b6001600160a01b0391909116815260200190565b6001600160a01b03929092168252602082015260400190565b901515815260200190565b7fffffffff0000000000000000000000000000000000000000000000000000000091909116815260200190565b60208101600683106112a7576112a761170f565b91905290565b60208101600483106112a7576112a761170f565b6000602080835283518082850152825b818110156112ed578581018301518582016040015282016112d1565b818111156112fe5783604083870101525b50601f01601f1916929092016040019392505050565b6020808252600b908201527f4d495353494e475f464545000000000000000000000000000000000000000000604082015260600190565b60208082526009908201527f49535f4641494c45440000000000000000000000000000000000000000000000604082015260600190565b6020808252600b908201527f49535f4558454355544544000000000000000000000000000000000000000000604082015260600190565b60208082526009908201527f49535f434c4f5345440000000000000000000000000000000000000000000000604082015260600190565b6020808252600e908201527f414c52454144595f46554e444544000000000000000000000000000000000000604082015260600190565b6020808252602e908201527f496e697469616c697a61626c653a20636f6e747261637420697320616c72656160408201527f647920696e697469616c697a6564000000000000000000000000000000000000606082015260800190565b6020808252600d908201527f524546554e445f4641494c454400000000000000000000000000000000000000604082015260600190565b60208082526009908201527f494d4d555441424c450000000000000000000000000000000000000000000000604082015260600190565b6020808252600e908201527f414c52454144595f434c4f534544000000000000000000000000000000000000604082015260600190565b6020808252600e908201527f455845435554455f4641494c4544000000000000000000000000000000000000604082015260600190565b60208082526009908201527f49535f4143544956450000000000000000000000000000000000000000000000604082015260600190565b6020808252600a908201527f4e4f545f46554e44454400000000000000000000000000000000000000000000604082015260600190565b60208082526009908201527f49535f5041535345440000000000000000000000000000000000000000000000604082015260600190565b60208082526010908201527f414c52454144595f455845435554454400000000000000000000000000000000604082015260600190565b90815260200190565b60405181810167ffffffffffffffff8111828210171561166757611667611725565b604052919050565b60008219821115611682576116826116f9565b500190565b6000826116a257634e487b7160e01b81526012600452602481fd5b500490565b6000828210156116b9576116b96116f9565b500390565b6002810460018216806116d257607f821691505b602082108114156116f357634e487b7160e01b600052602260045260246000fd5b50919050565b634e487b7160e01b600052601160045260246000fd5b634e487b7160e01b600052602160045260246000fd5b634e487b7160e01b600052604160045260246000fdfea26469706673582212206031e8e86be250ee16fd83f9941a236a313d72f055088ddd40d2a26a4447bda664736f6c63430008000033a2646970667358221220861cccf1894cb5d9343584847efffb71628768630063b84f2a96d702c7a5d60564736f6c63430008000033",
  "libraries": {
    "GovernanceLib": "0xaeb86F3860AD5B29aE141c56709835130ecbE0D9",
    "Strings": "0xAaCc702df0e464b2f2896aEe801241eEA6DBdba1",
    "AddressSet": "0x2521688f2bdf04bd785D477C05d5240634E63708",
    "UInt256Set": "0xE519B631E93BE6Df760b3872dE88344Dd969370a",
    "Create2": "0xe83DEBccfFF96a5113Bd485967a643D60C4487fd",
    "ProposalsLib": "0xd98B1717903B2Ff81b08F680372887a8c35174c2",
    "ComplexPoolLib": "0x9aCda89A5C672c5f74bf71C723D9fAad285167C2",
    "WrappedTokenLib": "0x9c2C592C7C6D3f7A58aD74ddCf31D0dE2f8807a5"
  },
  "devdoc": {
    "kind": "dev",
    "methods": {
      "allProposals(uint256)": {
        "details": "get the proposal for this"
      },
      "allProposalsLength()": {
        "details": "number of quantized addresses"
      },
      "createProposal(address,string,address,uint8)": {
        "details": "deploy a new proposal using create2"
      },
      "getProposal(uint256)": {
        "details": "get the proposal for this"
      }
    },
    "version": 1
  },
  "userdoc": {
    "kind": "user",
    "methods": {},
    "version": 1
  },
  "storageLayout": {
    "storage": [
      {
        "astId": 5531,
        "contract": "src/factories/ProposalFactory.sol:ProposalFactory",
        "label": "_getProposal",
        "offset": 0,
        "slot": "0",
        "type": "t_mapping(t_uint256,t_address)"
      },
      {
        "astId": 5534,
        "contract": "src/factories/ProposalFactory.sol:ProposalFactory",
        "label": "_allProposals",
        "offset": 0,
        "slot": "1",
        "type": "t_array(t_address)dyn_storage"
      }
    ],
    "types": {
      "t_address": {
        "encoding": "inplace",
        "label": "address",
        "numberOfBytes": "20"
      },
      "t_array(t_address)dyn_storage": {
        "base": "t_address",
        "encoding": "dynamic_array",
        "label": "address[]",
        "numberOfBytes": "32"
      },
      "t_mapping(t_uint256,t_address)": {
        "encoding": "mapping",
        "key": "t_uint256",
        "label": "mapping(uint256 => address)",
        "numberOfBytes": "32",
        "value": "t_address"
      },
      "t_uint256": {
        "encoding": "inplace",
        "label": "uint256",
        "numberOfBytes": "32"
      }
    }
  }
}