{
  "address": "0x4d3E26526FE0012033ef9Cbf09350C77C9AA65d4",
  "abi": [
    {
      "inputs": [
        {
          "internalType": "uint256",
          "name": "randomness",
          "type": "uint256"
        }
      ],
      "name": "addRandomness",
      "outputs": [],
      "stateMutability": "nonpayable",
      "type": "function"
    },
    {
      "inputs": [
        {
          "internalType": "uint8",
          "name": "amount",
          "type": "uint8"
        }
      ],
      "name": "getRandomBytes",
      "outputs": [
        {
          "internalType": "bytes32[]",
          "name": "_randomBytes",
          "type": "bytes32[]"
        }
      ],
      "stateMutability": "nonpayable",
      "type": "function"
    },
    {
      "inputs": [
        {
          "internalType": "uint256",
          "name": "min",
          "type": "uint256"
        },
        {
          "internalType": "uint256",
          "name": "max",
          "type": "uint256"
        }
      ],
      "name": "getRandomNumber",
      "outputs": [
        {
          "internalType": "uint256",
          "name": "",
          "type": "uint256"
        }
      ],
      "stateMutability": "nonpayable",
      "type": "function"
    },
    {
      "inputs": [
        {
          "internalType": "uint8",
          "name": "amount",
          "type": "uint8"
        }
      ],
      "name": "getRandomUints",
      "outputs": [
        {
          "internalType": "uint256[]",
          "name": "_randomUints",
          "type": "uint256[]"
        }
      ],
      "stateMutability": "nonpayable",
      "type": "function"
    },
    {
      "inputs": [
        {
          "internalType": "uint256",
          "name": "seed",
          "type": "uint256"
        }
      ],
      "name": "initialize",
      "outputs": [],
      "stateMutability": "nonpayable",
      "type": "function"
    },
    {
      "inputs": [],
      "name": "isInitialized",
      "outputs": [
        {
          "internalType": "bool",
          "name": "",
          "type": "bool"
        }
      ],
      "stateMutability": "view",
      "type": "function"
    }
  ],
  "transactionHash": "0x9d4ccbb13e83337abffc256788e6ae5667d56d29bb231397f5fdeeae2915f4d1",
  "args": [],
  "solcInputHash": "eb41b9db1c628de0f8ceafc7ececc9d4",
  "bytecode": "0x608060405234801561001057600080fd5b506106d0806100206000396000f3fe608060405234801561001057600080fd5b50600436106100725760003560e01c80636e68fc0a116100505780636e68fc0a146100ca57806382da649a146100ea578063fe4b84df146100fd57610072565b8063392e53cd1461007757806352e22aff1461009557806359792406146100aa575b600080fd5b61007f610110565b60405161008c919061056b565b60405180910390f35b6100a86100a336600461047f565b610118565b005b6100bd6100b83660046104b8565b610169565b60405161008c9190610527565b6100dd6100d8366004610497565b610220565b60405161008c91906105d3565b6100bd6100f83660046104b8565b61024f565b6100a861010b36600461047f565b610300565b600154151590565b6001548160405160200161012d929190610519565b604080517fffffffffffffffffffffffffffffffffffffffffffffffffffffffffffffffe0818403018152919052805160209091012060015550565b60608160ff1667ffffffffffffffff81111561019557634e487b7160e01b600052604160045260246000fd5b6040519080825280602002602001820160405280156101be578160200160208202803683370190505b50905060005b8260ff168160ff16101561021a576101da6103bc565b828260ff16815181106101fd57634e487b7160e01b600052603260045260246000fd5b60209081029190910101528061021281610644565b9150506101c4565b50919050565b600061022c83836105f4565b61023461041c565b61023e9190610664565b61024890846105dc565b9392505050565b60608160ff1667ffffffffffffffff81111561027b57634e487b7160e01b600052604160045260246000fd5b6040519080825280602002602001820160405280156102a4578160200160208202803683370190505b50905060005b8260ff168160ff16101561021a576102c061041c565b828260ff16815181106102e357634e487b7160e01b600052603260045260246000fd5b6020908102919091010152806102f881610644565b9150506102aa565b600054610100900460ff1680610319575060005460ff16155b610358576040517f08c379a000000000000000000000000000000000000000000000000000000000815260040161034f90610576565b60405180910390fd5b600054610100900460ff161580156103a157600080547fffffffffffffffffffffffffffffffffffffffffffffffffffffffffffffff0061ff0019909116610100171660011790555b600182905580156103b8576000805461ff00191690555b5050565b60006103c96001436105f4565b6001543260008181526002602052604081208054944094916103ea8361060b565b9190505560405160200161040194939291906104d9565b60405160208183030381529060405280519060200120905090565b60006104296001436105f4565b60015432600081815260026020526040812080549440949161044a8361060b565b9190505560405160200161046194939291906104d9565b6040516020818303038152906040528051906020012060001c905090565b600060208284031215610490578081fd5b5035919050565b600080604083850312156104a9578081fd5b50508035926020909101359150565b6000602082840312156104c9578081fd5b813560ff81168114610248578182fd5b938452602084019290925260601b7fffffffffffffffffffffffffffffffffffffffff000000000000000000000000166040830152605482015260740190565b918252602082015260400190565b6020808252825182820181905260009190848201906040850190845b8181101561055f57835183529284019291840191600101610543565b50909695505050505050565b901515815260200190565b6020808252602e908201527f496e697469616c697a61626c653a20636f6e747261637420697320616c72656160408201527f647920696e697469616c697a6564000000000000000000000000000000000000606082015260800190565b90815260200190565b600082198211156105ef576105ef610684565b500190565b60008282101561060657610606610684565b500390565b60007fffffffffffffffffffffffffffffffffffffffffffffffffffffffffffffffff82141561063d5761063d610684565b5060010190565b600060ff821660ff81141561065b5761065b610684565b60010192915050565b60008261067f57634e487b7160e01b81526012600452602481fd5b500690565b634e487b7160e01b600052601160045260246000fdfea26469706673582212207ebe841b50f2e430d4e96ad8ef007a6ff992d5a2b1b0469cced05d0ba23020fa64736f6c63430008000033",
  "libraries": {
    "Strings": "0xeB3E79099663eC952e02E608E00d463F36b4Fb75",
    "AddressSet": "0x8974D57fCfF9C10E9d41709da86d006604D8c75d",
    "UInt256Set": "0x8B6893DB13b55d4952a51d5188215e2a470515a9",
    "Create2": "0xBa85d3e8E0F9e48F5c21649d33f6d0f9Af12E3f5",
    "WrappedTokenLib": "0x0307a2E913FD8fb384a939Cfb7655C30820727D8",
    "ComplexPoolLib": "0x3802c9d35c585ac6668e24A93Bb341D50662aA4E"
  },
  "devdoc": {
    "details": "A randomness farm. It does what it says - it farms randomness that is provided by the user into usable randomness by other contracts.",
    "kind": "dev",
    "methods": {},
    "version": 1
  },
  "userdoc": {
    "kind": "user",
    "methods": {},
    "version": 1
  },
  "storageLayout": {
    "storage": [
      {
        "astId": 109,
        "contract": "src/random/RandomFarm.sol:RandomFarm",
        "label": "_initialized",
        "offset": 0,
        "slot": "0",
        "type": "t_bool"
      },
      {
        "astId": 112,
        "contract": "src/random/RandomFarm.sol:RandomFarm",
        "label": "_initializing",
        "offset": 1,
        "slot": "0",
        "type": "t_bool"
      },
      {
        "astId": 27619,
        "contract": "src/random/RandomFarm.sol:RandomFarm",
        "label": "randomSeed",
        "offset": 0,
        "slot": "1",
        "type": "t_uint256"
      },
      {
        "astId": 27623,
        "contract": "src/random/RandomFarm.sol:RandomFarm",
        "label": "salt",
        "offset": 0,
        "slot": "2",
        "type": "t_mapping(t_address,t_uint256)"
      }
    ],
    "types": {
      "t_address": {
        "encoding": "inplace",
        "label": "address",
        "numberOfBytes": "20"
      },
      "t_bool": {
        "encoding": "inplace",
        "label": "bool",
        "numberOfBytes": "1"
      },
      "t_mapping(t_address,t_uint256)": {
        "encoding": "mapping",
        "key": "t_address",
        "label": "mapping(address => uint256)",
        "numberOfBytes": "32",
        "value": "t_uint256"
      },
      "t_uint256": {
        "encoding": "inplace",
        "label": "uint256",
        "numberOfBytes": "32"
      }
    }
  }
}