{
  "address": "0x073A16599C8b0921ceAa92Ed5047f857755774DD",
  "abi": [
    {
      "inputs": [],
      "stateMutability": "nonpayable",
      "type": "constructor"
    },
    {
      "anonymous": false,
      "inputs": [
        {
          "indexed": true,
          "internalType": "address",
          "name": "contractAddress",
          "type": "address"
        },
        {
          "indexed": true,
          "internalType": "address",
          "name": "controllerAddress",
          "type": "address"
        }
      ],
      "name": "ControllerAdded",
      "type": "event"
    },
    {
      "anonymous": false,
      "inputs": [
        {
          "indexed": true,
          "internalType": "address",
          "name": "contractAddress",
          "type": "address"
        },
        {
          "indexed": true,
          "internalType": "address",
          "name": "controllerAddress",
          "type": "address"
        }
      ],
      "name": "ControllerRemoved",
      "type": "event"
    },
    {
      "inputs": [
        {
          "internalType": "address",
          "name": "_controller",
          "type": "address"
        }
      ],
      "name": "addController",
      "outputs": [],
      "stateMutability": "nonpayable",
      "type": "function"
    },
    {
      "inputs": [],
      "name": "getFarm",
      "outputs": [
        {
          "internalType": "address",
          "name": "_farm",
          "type": "address"
        }
      ],
      "stateMutability": "view",
      "type": "function"
    },
    {
      "inputs": [
        {
          "internalType": "uint8",
          "name": "amount",
          "type": "uint8"
        }
      ],
      "name": "getRandomBytes",
      "outputs": [
        {
          "internalType": "bytes32[]",
          "name": "",
          "type": "bytes32[]"
        }
      ],
      "stateMutability": "nonpayable",
      "type": "function"
    },
    {
      "inputs": [
        {
          "internalType": "uint256",
          "name": "min",
          "type": "uint256"
        },
        {
          "internalType": "uint256",
          "name": "max",
          "type": "uint256"
        }
      ],
      "name": "getRandomNumber",
      "outputs": [
        {
          "internalType": "uint256",
          "name": "",
          "type": "uint256"
        }
      ],
      "stateMutability": "nonpayable",
      "type": "function"
    },
    {
      "inputs": [
        {
          "internalType": "uint8",
          "name": "amount",
          "type": "uint8"
        }
      ],
      "name": "getRandomUints",
      "outputs": [
        {
          "internalType": "uint256[]",
          "name": "",
          "type": "uint256[]"
        }
      ],
      "stateMutability": "nonpayable",
      "type": "function"
    },
    {
      "inputs": [
        {
          "internalType": "address",
          "name": "_address",
          "type": "address"
        }
      ],
      "name": "isController",
      "outputs": [
        {
          "internalType": "bool",
          "name": "allowed",
          "type": "bool"
        }
      ],
      "stateMutability": "view",
      "type": "function"
    },
    {
      "inputs": [],
      "name": "relinquishControl",
      "outputs": [],
      "stateMutability": "nonpayable",
      "type": "function"
    },
    {
      "inputs": [
        {
          "internalType": "address",
          "name": "_farm",
          "type": "address"
        }
      ],
      "name": "setFarm",
      "outputs": [],
      "stateMutability": "nonpayable",
      "type": "function"
    }
  ],
  "transactionHash": "0x7e6e8fe0de9d34e7a2d5ec5839a6ac8f4920b2fcad4eaeab10298942ec2fad4f",
  "args": [],
  "solcInputHash": "eb41b9db1c628de0f8ceafc7ececc9d4",
  "bytecode": "0x608060405234801561001057600080fd5b5061001a3361001f565b610043565b6001600160a01b03166000908152602081905260409020805460ff19166001179055565b61078b806100526000396000f3fe608060405234801561001057600080fd5b50600436106100885760003560e01c8063a7fc7a071161005b578063a7fc7a07146100fe578063b429afeb14610113578063d4f26c5114610133578063e1c28bef1461014657610088565b80634daf490c1461008d57806359792406146100ab5780636e68fc0a146100cb57806382da649a146100eb575b600080fd5b61009561014e565b6040516100a291906105e6565b60405180910390f35b6100be6100b93660046105c5565b61016a565b6040516100a29190610607565b6100de6100d93660046105a4565b61023b565b6040516100a291906106b3565b6100be6100f93660046105c5565b6102ed565b61011161010c3660046104c3565b610344565b005b6101266101213660046104c3565b6103bc565b6040516100a2919061064b565b6101116101413660046104c3565b6103e7565b61011161046c565b60015473ffffffffffffffffffffffffffffffffffffffff1690565b6001546040517f5979240600000000000000000000000000000000000000000000000000000000815260609173ffffffffffffffffffffffffffffffffffffffff16906359792406906101c19085906004016106ca565b600060405180830381600087803b1580156101db57600080fd5b505af11580156101ef573d6000803e3d6000fd5b505050506040513d6000823e601f3d9081017fffffffffffffffffffffffffffffffffffffffffffffffffffffffffffffffe016820160405261023591908101906104f7565b92915050565b6001546040517f6e68fc0a00000000000000000000000000000000000000000000000000000000815260009173ffffffffffffffffffffffffffffffffffffffff1690636e68fc0a9061029490869086906004016106bc565b602060405180830381600087803b1580156102ae57600080fd5b505af11580156102c2573d6000803e3d6000fd5b505050506040513d601f19601f820116820180604052508101906102e6919061058c565b9392505050565b6001546040517f82da649a00000000000000000000000000000000000000000000000000000000815260609173ffffffffffffffffffffffffffffffffffffffff16906382da649a906101c19085906004016106ca565b3360009081526020819052604090205460ff1615156001148061036657503033145b61038b5760405162461bcd60e51b815260040161038290610656565b60405180910390fd5b73ffffffffffffffffffffffffffffffffffffffff166000908152602081905260409020805460ff19166001179055565b73ffffffffffffffffffffffffffffffffffffffff1660009081526020819052604090205460ff1690565b3360009081526020819052604090205460ff1615156001148061040957503033145b6104255760405162461bcd60e51b815260040161038290610656565b600180547fffffffffffffffffffffffff00000000000000000000000000000000000000001673ffffffffffffffffffffffffffffffffffffffff92909216919091179055565b3360009081526020819052604090205460ff1615156001148061048e57503033145b6104aa5760405162461bcd60e51b815260040161038290610656565b336000908152602081905260409020805460ff19169055565b6000602082840312156104d4578081fd5b813573ffffffffffffffffffffffffffffffffffffffff811681146102e6578182fd5b60006020808385031215610509578182fd5b825167ffffffffffffffff81111561051f578283fd5b8301601f8101851361052f578283fd5b805161054261053d82610702565b6106d8565b818152838101908385018584028501860189101561055e578687fd5b8694505b83851015610580578051835260019490940193918501918501610562565b50979650505050505050565b60006020828403121561059d578081fd5b5051919050565b600080604083850312156105b6578081fd5b50508035926020909101359150565b6000602082840312156105d6578081fd5b813560ff811681146102e6578182fd5b73ffffffffffffffffffffffffffffffffffffffff91909116815260200190565b6020808252825182820181905260009190848201906040850190845b8181101561063f57835183529284019291840191600101610623565b50909695505050505050565b901515815260200190565b60208082526028908201527f436f6e74726f6c6c61626c653a2063616c6c6572206973206e6f74206120636f60408201527f6e74726f6c6c6572000000000000000000000000000000000000000000000000606082015260800190565b90815260200190565b918252602082015260400190565b60ff91909116815260200190565b60405181810167ffffffffffffffff811182821017156106fa576106fa610726565b604052919050565b600067ffffffffffffffff82111561071c5761071c610726565b5060209081020190565b7f4e487b7100000000000000000000000000000000000000000000000000000000600052604160045260246000fdfea264697066735822122055b984e0f287b05fd3ea207d15f773614f61020ea6999711fe18cf166f04fd3664736f6c63430008000033",
  "libraries": {
    "Strings": "0xeB3E79099663eC952e02E608E00d463F36b4Fb75",
    "AddressSet": "0x8974D57fCfF9C10E9d41709da86d006604D8c75d",
    "UInt256Set": "0x8B6893DB13b55d4952a51d5188215e2a470515a9",
    "Create2": "0xBa85d3e8E0F9e48F5c21649d33f6d0f9Af12E3f5",
    "WrappedTokenLib": "0x0307a2E913FD8fb384a939Cfb7655C30820727D8",
    "ComplexPoolLib": "0x3802c9d35c585ac6668e24A93Bb341D50662aA4E"
  },
  "devdoc": {
    "kind": "dev",
    "methods": {
      "addController(address)": {
        "details": "Add an address allowed to control this contract"
      },
      "isController(address)": {
        "details": "Check if this address is a controller"
      },
      "relinquishControl()": {
        "details": "Remove the sender address from the list of controllers"
      }
    },
    "version": 1
  },
  "userdoc": {
    "kind": "user",
    "methods": {},
    "version": 1
  },
  "storageLayout": {
    "storage": [
      {
        "astId": 12920,
        "contract": "src/random/RandomFarm.sol:RandomFarmer",
        "label": "_controllers",
        "offset": 0,
        "slot": "0",
        "type": "t_mapping(t_address,t_bool)"
      },
      {
        "astId": 27832,
        "contract": "src/random/RandomFarm.sol:RandomFarmer",
        "label": "farm",
        "offset": 0,
        "slot": "1",
        "type": "t_contract(IRandomFarm)17730"
      }
    ],
    "types": {
      "t_address": {
        "encoding": "inplace",
        "label": "address",
        "numberOfBytes": "20"
      },
      "t_bool": {
        "encoding": "inplace",
        "label": "bool",
        "numberOfBytes": "1"
      },
      "t_contract(IRandomFarm)17730": {
        "encoding": "inplace",
        "label": "contract IRandomFarm",
        "numberOfBytes": "20"
      },
      "t_mapping(t_address,t_bool)": {
        "encoding": "mapping",
        "key": "t_address",
        "label": "mapping(address => bool)",
        "numberOfBytes": "32",
        "value": "t_bool"
      }
    }
  }
}