{
  "address": "0xE62df3f63880D4e39dD940d29690D84977cD43C0",
  "abi": [
    {
      "anonymous": false,
      "inputs": [
        {
          "indexed": true,
          "internalType": "address",
          "name": "contractAddress",
          "type": "address"
        },
        {
          "indexed": true,
          "internalType": "address",
          "name": "controllerAddress",
          "type": "address"
        }
      ],
      "name": "ControllerAdded",
      "type": "event"
    },
    {
      "anonymous": false,
      "inputs": [
        {
          "indexed": true,
          "internalType": "address",
          "name": "contractAddress",
          "type": "address"
        },
        {
          "indexed": true,
          "internalType": "address",
          "name": "controllerAddress",
          "type": "address"
        }
      ],
      "name": "ControllerRemoved",
      "type": "event"
    },
    {
      "inputs": [],
      "name": "COIN",
      "outputs": [
        {
          "internalType": "address",
          "name": "weth",
          "type": "address"
        }
      ],
      "stateMutability": "pure",
      "type": "function"
    },
    {
      "inputs": [
        {
          "internalType": "address",
          "name": "_controller",
          "type": "address"
        }
      ],
      "name": "addController",
      "outputs": [],
      "stateMutability": "nonpayable",
      "type": "function"
    },
    {
      "inputs": [
        {
          "internalType": "address",
          "name": "token",
          "type": "address"
        },
        {
          "internalType": "uint256",
          "name": "tokenAmount",
          "type": "uint256"
        }
      ],
      "name": "coinQuote",
      "outputs": [
        {
          "internalType": "uint256",
          "name": "ethereum",
          "type": "uint256"
        },
        {
          "internalType": "uint256",
          "name": "tokenReserve",
          "type": "uint256"
        },
        {
          "internalType": "uint256",
          "name": "ethReserve",
          "type": "uint256"
        }
      ],
      "stateMutability": "view",
      "type": "function"
    },
    {
      "inputs": [],
      "name": "factory",
      "outputs": [
        {
          "internalType": "address",
          "name": "fac",
          "type": "address"
        }
      ],
      "stateMutability": "view",
      "type": "function"
    },
    {
      "inputs": [
        {
          "internalType": "address",
          "name": "tokenA",
          "type": "address"
        },
        {
          "internalType": "address",
          "name": "tokenB",
          "type": "address"
        }
      ],
      "name": "getPair",
      "outputs": [
        {
          "internalType": "address",
          "name": "pair",
          "type": "address"
        }
      ],
      "stateMutability": "view",
      "type": "function"
    },
    {
      "inputs": [
        {
          "internalType": "address",
          "name": "token",
          "type": "address"
        }
      ],
      "name": "getPathForCoinToToken",
      "outputs": [
        {
          "internalType": "address[]",
          "name": "",
          "type": "address[]"
        }
      ],
      "stateMutability": "pure",
      "type": "function"
    },
    {
      "inputs": [
        {
          "internalType": "address",
          "name": "pair",
          "type": "address"
        }
      ],
      "name": "getReserves",
      "outputs": [
        {
          "internalType": "uint256",
          "name": "reserveA",
          "type": "uint256"
        },
        {
          "internalType": "uint256",
          "name": "reserveB",
          "type": "uint256"
        }
      ],
      "stateMutability": "view",
      "type": "function"
    },
    {
      "inputs": [
        {
          "internalType": "address",
          "name": "token",
          "type": "address"
        }
      ],
      "name": "hasPool",
      "outputs": [
        {
          "internalType": "bool",
          "name": "",
          "type": "bool"
        }
      ],
      "stateMutability": "view",
      "type": "function"
    },
    {
      "inputs": [
        {
          "internalType": "address",
          "name": "_address",
          "type": "address"
        }
      ],
      "name": "isController",
      "outputs": [
        {
          "internalType": "bool",
          "name": "allowed",
          "type": "bool"
        }
      ],
      "stateMutability": "view",
      "type": "function"
    },
    {
      "inputs": [],
      "name": "relinquishControl",
      "outputs": [],
      "stateMutability": "nonpayable",
      "type": "function"
    },
    {
      "inputs": [
        {
          "internalType": "address",
          "name": "f",
          "type": "address"
        }
      ],
      "name": "setFactory",
      "outputs": [],
      "stateMutability": "nonpayable",
      "type": "function"
    }
  ],
  "transactionHash": "0x8a6777c21336852fdbcf056d8c07204f33893594ac2064e2a3c85d96ec53724f",
  "args": [],
  "solcInputHash": "b06c540bf558ebe1763f6f5fe903171f",
  "bytecode": "0x608060405234801561001057600080fd5b50610b0c806100206000396000f3fe608060405234801561001057600080fd5b50600436106100c95760003560e01c8063a54a72b711610081578063c45a01551161005b578063c45a0155146101aa578063e1c28bef146101b2578063e6a43905146101ba576100c9565b8063a54a72b71461016f578063a7fc7a0714610184578063b429afeb14610197576100c9565b80633e99c1e4116100b25780633e99c1e4146101175780635bb4780814610138578063868d2d1e1461014d576100c9565b806309666696146100ce5780631246dbf5146100f7575b600080fd5b6100e16100dc36600461079a565b6101cd565b6040516100ee91906109b6565b60405180910390f35b61010a61010536600461079a565b61029a565b6040516100ee9190610a03565b61012a61012536600461079a565b61033d565b6040516100ee929190610a6b565b61014b61014636600461079a565b6103d0565b005b61016061015b36600461080a565b610451565b6040516100ee93929190610a79565b6101776104ec565b6040516100ee9190610966565b61014b61019236600461079a565b61056f565b61010a6101a536600461079a565b6105d1565b6101776105ef565b61014b6105f9565b6101776101c83660046107d2565b610650565b6040517f7dddfe9f00000000000000000000000000000000000000000000000000000000815260609073170Fc2Cc67Edf2d10afB07e144719D67940564d990637dddfe9f90610220908590600401610966565b60006040518083038186803b15801561023857600080fd5b505af415801561024c573d6000803e3d6000fd5b505050506040513d6000823e601f3d9081017fffffffffffffffffffffffffffffffffffffffffffffffffffffffffffffffe01682016040526102929190810190610835565b90505b919050565b6040517f1246dbf500000000000000000000000000000000000000000000000000000000815260009073170Fc2Cc67Edf2d10afB07e144719D67940564d990631246dbf5906102ed908590600401610966565b60206040518083038186803b15801561030557600080fd5b505af4158015610319573d6000803e3d6000fd5b505050506040513d601f19601f8201168201806040525081019061029291906108f6565b60008073170Fc2Cc67Edf2d10afB07e144719D67940564d9633e99c1e4846040518263ffffffff1660e01b81526004016103779190610966565b604080518083038186803b15801561038e57600080fd5b505af41580156103a2573d6000803e3d6000fd5b505050506040513d601f19601f820116820180604052508101906103c69190610916565b9094909350915050565b3360009081526020819052604090205460ff161515600114806103f257503033145b6104175760405162461bcd60e51b815260040161040e90610a0e565b60405180910390fd5b600180547fffffffffffffffffffffffff0000000000000000000000000000000000000000166001600160a01b0392909216919091179055565b600080600073170Fc2Cc67Edf2d10afB07e144719D67940564d9631874f0a986866040518363ffffffff1660e01b815260040161048f92919061099d565b60606040518083038186803b1580156104a757600080fd5b505af41580156104bb573d6000803e3d6000fd5b505050506040513d601f19601f820116820180604052508101906104df9190610939565b9250925092509250925092565b600073170Fc2Cc67Edf2d10afB07e144719D67940564d963ad5c46486040518163ffffffff1660e01b815260040160206040518083038186803b15801561053257600080fd5b505af4158015610546573d6000803e3d6000fd5b505050506040513d601f19601f8201168201806040525081019061056a91906107b6565b905090565b3360009081526020819052604090205460ff1615156001148061059157503033145b6105ad5760405162461bcd60e51b815260040161040e90610a0e565b6001600160a01b03166000908152602081905260409020805460ff19166001179055565b6001600160a01b031660009081526020819052604090205460ff1690565b600061056a6106eb565b3360009081526020819052604090205460ff1615156001148061061b57503033145b6106375760405162461bcd60e51b815260040161040e90610a0e565b336000908152602081905260409020805460ff19169055565b600073170Fc2Cc67Edf2d10afB07e144719D67940564d96361e0b77f6106746106eb565b85856040518463ffffffff1660e01b81526004016106949392919061097a565b60206040518083038186803b1580156106ac57600080fd5b505af41580156106c0573d6000803e3d6000fd5b505050506040513d601f19601f820116820180604052508101906106e491906107b6565b9392505050565b6001546000906001600160a01b031661077f5773170Fc2Cc67Edf2d10afB07e144719D67940564d963c45a01556040518163ffffffff1660e01b815260040160206040518083038186803b15801561074257600080fd5b505af4158015610756573d6000803e3d6000fd5b505050506040513d601f19601f8201168201806040525081019061077a91906107b6565b61056a565b506001546001600160a01b031690565b805161029581610abe565b6000602082840312156107ab578081fd5b81356106e481610abe565b6000602082840312156107c7578081fd5b81516106e481610abe565b600080604083850312156107e4578081fd5b82356107ef81610abe565b915060208301356107ff81610abe565b809150509250929050565b6000806040838503121561081c578182fd5b823561082781610abe565b946020939093013593505050565b60006020808385031215610847578182fd5b825167ffffffffffffffff8082111561085e578384fd5b818501915085601f830112610871578384fd5b81518181111561088357610883610a8f565b838102604051858282010181811085821117156108a2576108a2610a8f565b604052828152858101935084860182860187018a10156108c0578788fd5b8795505b838610156108e9576108d58161078f565b8552600195909501949386019386016108c4565b5098975050505050505050565b600060208284031215610907578081fd5b815180151581146106e4578182fd5b60008060408385031215610928578182fd5b505080516020909101519092909150565b60008060006060848603121561094d578081fd5b8351925060208401519150604084015190509250925092565b6001600160a01b0391909116815260200190565b6001600160a01b0393841681529183166020830152909116604082015260600190565b6001600160a01b03929092168252602082015260400190565b6020808252825182820181905260009190848201906040850190845b818110156109f75783516001600160a01b0316835292840192918401916001016109d2565b50909695505050505050565b901515815260200190565b60208082526028908201527f436f6e74726f6c6c61626c653a2063616c6c6572206973206e6f74206120636f60408201527f6e74726f6c6c6572000000000000000000000000000000000000000000000000606082015260800190565b918252602082015260400190565b9283526020830191909152604082015260600190565b7f4e487b7100000000000000000000000000000000000000000000000000000000600052604160045260246000fd5b6001600160a01b0381168114610ad357600080fd5b5056fea2646970667358221220ded1b0c0f9d82b89d25f3de8356dd4eb4d4ebf854e6cacdfb856c2745066a7d764736f6c63430008000033",
  "deployedBytecode": "0x608060405234801561001057600080fd5b50600436106100c95760003560e01c8063a54a72b711610081578063c45a01551161005b578063c45a0155146101aa578063e1c28bef146101b2578063e6a43905146101ba576100c9565b8063a54a72b71461016f578063a7fc7a0714610184578063b429afeb14610197576100c9565b80633e99c1e4116100b25780633e99c1e4146101175780635bb4780814610138578063868d2d1e1461014d576100c9565b806309666696146100ce5780631246dbf5146100f7575b600080fd5b6100e16100dc36600461079a565b6101cd565b6040516100ee91906109b6565b60405180910390f35b61010a61010536600461079a565b61029a565b6040516100ee9190610a03565b61012a61012536600461079a565b61033d565b6040516100ee929190610a6b565b61014b61014636600461079a565b6103d0565b005b61016061015b36600461080a565b610451565b6040516100ee93929190610a79565b6101776104ec565b6040516100ee9190610966565b61014b61019236600461079a565b61056f565b61010a6101a536600461079a565b6105d1565b6101776105ef565b61014b6105f9565b6101776101c83660046107d2565b610650565b6040517f7dddfe9f00000000000000000000000000000000000000000000000000000000815260609073__$3f4ad620c49b6cb2369ffdc577d89662f3$__90637dddfe9f90610220908590600401610966565b60006040518083038186803b15801561023857600080fd5b505af415801561024c573d6000803e3d6000fd5b505050506040513d6000823e601f3d9081017fffffffffffffffffffffffffffffffffffffffffffffffffffffffffffffffe01682016040526102929190810190610835565b90505b919050565b6040517f1246dbf500000000000000000000000000000000000000000000000000000000815260009073__$3f4ad620c49b6cb2369ffdc577d89662f3$__90631246dbf5906102ed908590600401610966565b60206040518083038186803b15801561030557600080fd5b505af4158015610319573d6000803e3d6000fd5b505050506040513d601f19601f8201168201806040525081019061029291906108f6565b60008073__$3f4ad620c49b6cb2369ffdc577d89662f3$__633e99c1e4846040518263ffffffff1660e01b81526004016103779190610966565b604080518083038186803b15801561038e57600080fd5b505af41580156103a2573d6000803e3d6000fd5b505050506040513d601f19601f820116820180604052508101906103c69190610916565b9094909350915050565b3360009081526020819052604090205460ff161515600114806103f257503033145b6104175760405162461bcd60e51b815260040161040e90610a0e565b60405180910390fd5b600180547fffffffffffffffffffffffff0000000000000000000000000000000000000000166001600160a01b0392909216919091179055565b600080600073__$3f4ad620c49b6cb2369ffdc577d89662f3$__631874f0a986866040518363ffffffff1660e01b815260040161048f92919061099d565b60606040518083038186803b1580156104a757600080fd5b505af41580156104bb573d6000803e3d6000fd5b505050506040513d601f19601f820116820180604052508101906104df9190610939565b9250925092509250925092565b600073__$3f4ad620c49b6cb2369ffdc577d89662f3$__63ad5c46486040518163ffffffff1660e01b815260040160206040518083038186803b15801561053257600080fd5b505af4158015610546573d6000803e3d6000fd5b505050506040513d601f19601f8201168201806040525081019061056a91906107b6565b905090565b3360009081526020819052604090205460ff1615156001148061059157503033145b6105ad5760405162461bcd60e51b815260040161040e90610a0e565b6001600160a01b03166000908152602081905260409020805460ff19166001179055565b6001600160a01b031660009081526020819052604090205460ff1690565b600061056a6106eb565b3360009081526020819052604090205460ff1615156001148061061b57503033145b6106375760405162461bcd60e51b815260040161040e90610a0e565b336000908152602081905260409020805460ff19169055565b600073__$3f4ad620c49b6cb2369ffdc577d89662f3$__6361e0b77f6106746106eb565b85856040518463ffffffff1660e01b81526004016106949392919061097a565b60206040518083038186803b1580156106ac57600080fd5b505af41580156106c0573d6000803e3d6000fd5b505050506040513d601f19601f820116820180604052508101906106e491906107b6565b9392505050565b6001546000906001600160a01b031661077f5773__$3f4ad620c49b6cb2369ffdc577d89662f3$__63c45a01556040518163ffffffff1660e01b815260040160206040518083038186803b15801561074257600080fd5b505af4158015610756573d6000803e3d6000fd5b505050506040513d601f19601f8201168201806040525081019061077a91906107b6565b61056a565b506001546001600160a01b031690565b805161029581610abe565b6000602082840312156107ab578081fd5b81356106e481610abe565b6000602082840312156107c7578081fd5b81516106e481610abe565b600080604083850312156107e4578081fd5b82356107ef81610abe565b915060208301356107ff81610abe565b809150509250929050565b6000806040838503121561081c578182fd5b823561082781610abe565b946020939093013593505050565b60006020808385031215610847578182fd5b825167ffffffffffffffff8082111561085e578384fd5b818501915085601f830112610871578384fd5b81518181111561088357610883610a8f565b838102604051858282010181811085821117156108a2576108a2610a8f565b604052828152858101935084860182860187018a10156108c0578788fd5b8795505b838610156108e9576108d58161078f565b8552600195909501949386019386016108c4565b5098975050505050505050565b600060208284031215610907578081fd5b815180151581146106e4578182fd5b60008060408385031215610928578182fd5b505080516020909101519092909150565b60008060006060848603121561094d578081fd5b8351925060208401519150604084015190509250925092565b6001600160a01b0391909116815260200190565b6001600160a01b0393841681529183166020830152909116604082015260600190565b6001600160a01b03929092168252602082015260400190565b6020808252825182820181905260009190848201906040850190845b818110156109f75783516001600160a01b0316835292840192918401916001016109d2565b50909695505050505050565b901515815260200190565b60208082526028908201527f436f6e74726f6c6c61626c653a2063616c6c6572206973206e6f74206120636f60408201527f6e74726f6c6c6572000000000000000000000000000000000000000000000000606082015260800190565b918252602082015260400190565b9283526020830191909152604082015260600190565b7f4e487b7100000000000000000000000000000000000000000000000000000000600052604160045260246000fd5b6001600160a01b0381168114610ad357600080fd5b5056fea2646970667358221220ded1b0c0f9d82b89d25f3de8356dd4eb4d4ebf854e6cacdfb856c2745066a7d764736f6c63430008000033",
  "libraries": {
    "SushiSwapLib": "0x170Fc2Cc67Edf2d10afB07e144719D67940564d9"
  },
  "devdoc": {
    "details": "Uniswap helpers",
    "kind": "dev",
    "methods": {
      "COIN()": {
        "details": "does a Uniswap pool exist for this token?"
      },
      "addController(address)": {
        "details": "Add an address allowed to control this contract"
      },
      "coinQuote(address,uint256)": {
        "details": "Get a quote in Ethereum for the given ERC20 token / token amount"
      },
      "factory()": {
        "details": "does a Uniswap pool exist for this token?"
      },
      "getPair(address,address)": {
        "details": "looks for a pool vs weth"
      },
      "getPathForCoinToToken(address)": {
        "details": "Get a path for ethereum to the given token"
      },
      "getReserves(address)": {
        "details": "Get the pair reserves given two erc20 tokens"
      },
      "hasPool(address)": {
        "details": "does token have a pool"
      },
      "isController(address)": {
        "details": "Check if this address is a controller"
      },
      "relinquishControl()": {
        "details": "Remove the sender address from the list of controllers"
      },
      "setFactory(address)": {
        "details": "set factory"
      }
    },
    "version": 1
  },
  "userdoc": {
    "kind": "user",
    "methods": {},
    "version": 1
  },
  "storageLayout": {
    "storage": [
      {
        "astId": 4752,
        "contract": "src/swap/sushiswap/SushiSwapQueryHelper.sol:SushiSwapQueryHelper",
        "label": "_controllers",
        "offset": 0,
        "slot": "0",
        "type": "t_mapping(t_address,t_bool)"
      },
      {
        "astId": 17159,
        "contract": "src/swap/sushiswap/SushiSwapQueryHelper.sol:SushiSwapQueryHelper",
        "label": "customFactory",
        "offset": 0,
        "slot": "1",
        "type": "t_address"
      }
    ],
    "types": {
      "t_address": {
        "encoding": "inplace",
        "label": "address",
        "numberOfBytes": "20"
      },
      "t_bool": {
        "encoding": "inplace",
        "label": "bool",
        "numberOfBytes": "1"
      },
      "t_mapping(t_address,t_bool)": {
        "encoding": "mapping",
        "key": "t_address",
        "label": "mapping(address => bool)",
        "numberOfBytes": "32",
        "value": "t_bool"
      }
    }
  }
}