{
  "address": "0xd2B06A9541Ec5B54e979c4Aac1411C8438ca0f41",
  "abi": [
    {
      "inputs": [],
      "name": "UNISWAP_ROUTER_ADDRESS",
      "outputs": [
        {
          "internalType": "address",
          "name": "",
          "type": "address"
        }
      ],
      "stateMutability": "view",
      "type": "function"
    },
    {
      "inputs": [],
      "name": "WETH",
      "outputs": [
        {
          "internalType": "address",
          "name": "weth",
          "type": "address"
        }
      ],
      "stateMutability": "pure",
      "type": "function"
    },
    {
      "inputs": [
        {
          "internalType": "address",
          "name": "token",
          "type": "address"
        },
        {
          "internalType": "uint256",
          "name": "tokenAmount",
          "type": "uint256"
        }
      ],
      "name": "ethQuote",
      "outputs": [
        {
          "internalType": "uint256",
          "name": "ethereum",
          "type": "uint256"
        },
        {
          "internalType": "uint256",
          "name": "tokenReserve",
          "type": "uint256"
        },
        {
          "internalType": "uint256",
          "name": "ethReserve",
          "type": "uint256"
        }
      ],
      "stateMutability": "view",
      "type": "function"
    },
    {
      "inputs": [],
      "name": "factory",
      "outputs": [
        {
          "internalType": "address",
          "name": "fac",
          "type": "address"
        }
      ],
      "stateMutability": "pure",
      "type": "function"
    },
    {
      "inputs": [
        {
          "internalType": "address",
          "name": "_factory",
          "type": "address"
        },
        {
          "internalType": "address",
          "name": "tokenA",
          "type": "address"
        },
        {
          "internalType": "address",
          "name": "tokenB",
          "type": "address"
        }
      ],
      "name": "getPair",
      "outputs": [
        {
          "internalType": "address",
          "name": "pair",
          "type": "address"
        }
      ],
      "stateMutability": "view",
      "type": "function"
    },
    {
      "inputs": [
        {
          "internalType": "address",
          "name": "token",
          "type": "address"
        }
      ],
      "name": "getPathForETHToToken",
      "outputs": [
        {
          "internalType": "address[]",
          "name": "",
          "type": "address[]"
        }
      ],
      "stateMutability": "pure",
      "type": "function"
    },
    {
      "inputs": [
        {
          "internalType": "address",
          "name": "pair",
          "type": "address"
        }
      ],
      "name": "getReserves",
      "outputs": [
        {
          "internalType": "uint256",
          "name": "reserveA",
          "type": "uint256"
        },
        {
          "internalType": "uint256",
          "name": "reserveB",
          "type": "uint256"
        }
      ],
      "stateMutability": "view",
      "type": "function"
    },
    {
      "inputs": [
        {
          "internalType": "address",
          "name": "token",
          "type": "address"
        }
      ],
      "name": "hasPool",
      "outputs": [
        {
          "internalType": "bool",
          "name": "",
          "type": "bool"
        }
      ],
      "stateMutability": "view",
      "type": "function"
    },
    {
      "inputs": [
        {
          "internalType": "address",
          "name": "_factory",
          "type": "address"
        },
        {
          "internalType": "address",
          "name": "tokenA",
          "type": "address"
        },
        {
          "internalType": "address",
          "name": "tokenB",
          "type": "address"
        }
      ],
      "name": "pairFor",
      "outputs": [
        {
          "internalType": "address",
          "name": "pair",
          "type": "address"
        }
      ],
      "stateMutability": "pure",
      "type": "function"
    }
  ],
  "transactionHash": "0xa069d22e58735955e88528db777e7c2473c9cf5eaeebbe77f7a7376c371246ea",
  "args": [],
  "solcInputHash": "183dbc8930094d8ed6d22f239093adf7",
  "bytecode": "0x610ea661003a600b82828239805160001a60731461002d57634e487b7160e01b600052600060045260246000fd5b30600052607381538281f3fe73000000000000000000000000000000000000000030146080604052600436106100ad5760003560e01c80636d91c0e2116100805780637dddfe9f116100655780637dddfe9f14610159578063ad5c464814610179578063c45a015514610181576100ad565b80636d91c0e21461013e57806379b3694314610151576100ad565b80631246dbf5146100b25780631874f0a9146100db5780633e99c1e4146100fd57806361e0b77f1461011e575b600080fd5b6100c56100c0366004610aa6565b610189565b6040516100d29190610cad565b60405180910390f35b6100ee6100e9366004610b2f565b610324565b6040516100d293929190610dd9565b61011061010b366004610aa6565b61054e565b6040516100d2929190610dcb565b61013161012c366004610ae5565b6105df565b6040516100d29190610c32565b61013161014c366004610ae5565b6106eb565b610131610779565b61016c610167366004610aa6565b610791565b6040516100d29190610c60565b6101316108c1565b61013161094d565b600080731b02da8cb0d097eb8d57a175b88c7d8b4799750690506000816001600160a01b031663c45a01556040518163ffffffff1660e01b815260040160206040518083038186803b1580156101de57600080fd5b505afa1580156101f2573d6000803e3d6000fd5b505050506040513d601f19601f820116820180604052508101906102169190610ac9565b90506000826001600160a01b031663ad5c46486040518163ffffffff1660e01b815260040160206040518083038186803b15801561025357600080fd5b505afa158015610267573d6000803e3d6000fd5b505050506040513d601f19601f8201168201806040525081019061028b9190610ac9565b90506000826001600160a01b031663e6a4390587846040518363ffffffff1660e01b81526004016102bd929190610c46565b60206040518083038186803b1580156102d557600080fd5b505afa1580156102e9573d6000803e3d6000fd5b505050506040513d601f19601f8201168201806040525081019061030d9190610ac9565b6001600160a01b031615159450505050505b919050565b600080600080731b02da8cb0d097eb8d57a175b88c7d8b4799750690506000816001600160a01b031663c45a01556040518163ffffffff1660e01b815260040160206040518083038186803b15801561037c57600080fd5b505afa158015610390573d6000803e3d6000fd5b505050506040513d601f19601f820116820180604052508101906103b49190610ac9565b90506000826001600160a01b031663ad5c46486040518163ffffffff1660e01b815260040160206040518083038186803b1580156103f157600080fd5b505afa158015610405573d6000803e3d6000fd5b505050506040513d601f19601f820116820180604052508101906104299190610ac9565b90506000826001600160a01b031663e6a439058a846040518363ffffffff1660e01b815260040161045b929190610c46565b60206040518083038186803b15801561047357600080fd5b505afa158015610487573d6000803e3d6000fd5b505050506040513d601f19601f820116820180604052508101906104ab9190610ac9565b9050806001600160a01b0316630902f1ac6040518163ffffffff1660e01b815260040160606040518083038186803b1580156104e657600080fd5b505afa1580156104fa573d6000803e3d6000fd5b505050506040513d601f19601f8201168201806040525081019061051e9190610b5a565b506dffffffffffffffffffffffffffff918216975016945061054188878761099c565b9650505050509250925092565b600080826001600160a01b0316630902f1ac6040518163ffffffff1660e01b815260040160606040518083038186803b15801561058a57600080fd5b505afa15801561059e573d6000803e3d6000fd5b505050506040513d601f19601f820116820180604052508101906105c29190610b5a565b506dffffffffffffffffffffffffffff9182169591169350915050565b60006001600160a01b0384166106105760405162461bcd60e51b815260040161060790610d5d565b60405180910390fd5b6001600160a01b0383161580159061063057506001600160a01b03821615155b61064c5760405162461bcd60e51b815260040161060790610d5d565b6040517fe6a439050000000000000000000000000000000000000000000000000000000081526001600160a01b0385169063e6a43905906106939086908690600401610c46565b60206040518083038186803b1580156106ab57600080fd5b505afa1580156106bf573d6000803e3d6000fd5b505050506040513d601f19601f820116820180604052508101906106e39190610ac9565b949350505050565b60008060006106fa85856109fe565b91509150858282604051602001610712929190610b9d565b60405160208183030381529060405280519060200120604051602001610739929190610bc4565b604080517fffffffffffffffffffffffffffffffffffffffffffffffffffffffffffffffe081840301815291905280516020909101209695505050505050565b731b02da8cb0d097eb8d57a175b88c7d8b4799750681565b6040805160028082526060828101909352731b02da8cb0d097eb8d57a175b88c7d8b479975069160009181602001602082028036833701905050905083816000815181106107ef57634e487b7160e01b600052603260045260246000fd5b60200260200101906001600160a01b031690816001600160a01b031681525050816001600160a01b031663ad5c46486040518163ffffffff1660e01b815260040160206040518083038186803b15801561084857600080fd5b505afa15801561085c573d6000803e3d6000fd5b505050506040513d601f19601f820116820180604052508101906108809190610ac9565b816001815181106108a157634e487b7160e01b600052603260045260246000fd5b6001600160a01b0390921660209283029190910190910152915050919050565b6000731b02da8cb0d097eb8d57a175b88c7d8b479975066001600160a01b031663ad5c46486040518163ffffffff1660e01b815260040160206040518083038186803b15801561091057600080fd5b505afa158015610924573d6000803e3d6000fd5b505050506040513d601f19601f820116820180604052508101906109489190610ac9565b905090565b6000731b02da8cb0d097eb8d57a175b88c7d8b479975066001600160a01b031663c45a01556040518163ffffffff1660e01b815260040160206040518083038186803b15801561091057600080fd5b60008084116109bd5760405162461bcd60e51b815260040161060790610cef565b6000831180156109cd5750600082115b6109e95760405162461bcd60e51b815260040161060790610d94565b826109f48386610e0f565b6106e39190610def565b600080826001600160a01b0316846001600160a01b03161415610a335760405162461bcd60e51b815260040161060790610cb8565b826001600160a01b0316846001600160a01b031610610a53578284610a56565b83835b90925090506001600160a01b038216610a815760405162461bcd60e51b815260040161060790610d26565b9250929050565b80516dffffffffffffffffffffffffffff8116811461031f57600080fd5b600060208284031215610ab7578081fd5b8135610ac281610e58565b9392505050565b600060208284031215610ada578081fd5b8151610ac281610e58565b600080600060608486031215610af9578182fd5b8335610b0481610e58565b92506020840135610b1481610e58565b91506040840135610b2481610e58565b809150509250925092565b60008060408385031215610b41578182fd5b8235610b4c81610e58565b946020939093013593505050565b600080600060608486031215610b6e578283fd5b610b7784610a88565b9250610b8560208501610a88565b9150604084015163ffffffff81168114610b24578182fd5b6bffffffffffffffffffffffff19606093841b811682529190921b16601482015260280190565b7fff00000000000000000000000000000000000000000000000000000000000000815260609290921b6bffffffffffffffffffffffff1916600183015260158201527f96e8ac4277198ff8b6f785478aa9a39f403cb768dd02cbee326c3e7da348845f603582015260550190565b6001600160a01b0391909116815260200190565b6001600160a01b0392831681529116602082015260400190565b6020808252825182820181905260009190848201906040850190845b81811015610ca15783516001600160a01b031683529284019291840191600101610c7c565b50909695505050505050565b901515815260200190565b6020808252601a908201527f50726963653a204944454e544943414c5f414444524553534553000000000000604082015260600190565b6020808252600c908201527f50726963653a2050726963650000000000000000000000000000000000000000604082015260600190565b60208082526013908201527f50726963653a205a45524f5f4144445245535300000000000000000000000000604082015260600190565b6020808252600e908201527f494e56414c49445f544f4b454e53000000000000000000000000000000000000604082015260600190565b6020808252601d908201527f50726963653a20494e53554646494349454e545f4c4951554944495459000000604082015260600190565b918252602082015260400190565b9283526020830191909152604082015260600190565b600082610e0a57634e487b7160e01b81526012600452602481fd5b500490565b6000817fffffffffffffffffffffffffffffffffffffffffffffffffffffffffffffffff0483118215151615610e5357634e487b7160e01b81526011600452602481fd5b500290565b6001600160a01b0381168114610e6d57600080fd5b5056fea2646970667358221220ad8b0754f70495f1fedcc83e8d1beaa2e7c1955eeb35348967728bb8f4a238d664736f6c63430008000033",
  "devdoc": {
    "details": "Uniswap helpers",
    "kind": "dev",
    "methods": {
      "WETH()": {
        "details": "does a Uniswap pool exist for this token?"
      },
      "ethQuote(address,uint256)": {
        "details": "Get a quote in Ethereum for the given ERC20 token / token amount"
      },
      "factory()": {
        "details": "does a Uniswap pool exist for this token?"
      },
      "getPair(address,address,address)": {
        "details": "looks for a pool vs weth"
      },
      "getPathForETHToToken(address)": {
        "details": "Get a path for ethereum to the given token"
      },
      "getReserves(address)": {
        "details": "Get the pair reserves given two erc20 tokens"
      },
      "hasPool(address)": {
        "details": "does a Uniswap pool exist for this token?"
      },
      "pairFor(address,address,address)": {
        "details": "calculate pair address"
      }
    },
    "version": 1
  },
  "userdoc": {
    "kind": "user",
    "methods": {},
    "version": 1
  },
  "storageLayout": {
    "storage": [],
    "types": null
  }
}