{
  "address": "0x013B7F368E394fE45600729DFc8ec81F929657dA",
  "abi": [
    {
      "inputs": [],
      "name": "UNISWAP_ROUTER_ADDRESS",
      "outputs": [
        {
          "internalType": "address",
          "name": "",
          "type": "address"
        }
      ],
      "stateMutability": "view",
      "type": "function"
    },
    {
      "inputs": [],
      "name": "WETH",
      "outputs": [
        {
          "internalType": "address",
          "name": "weth",
          "type": "address"
        }
      ],
      "stateMutability": "pure",
      "type": "function"
    },
    {
      "inputs": [
        {
          "internalType": "address",
          "name": "token",
          "type": "address"
        },
        {
          "internalType": "uint256",
          "name": "tokenAmount",
          "type": "uint256"
        }
      ],
      "name": "ethQuote",
      "outputs": [
        {
          "internalType": "uint256",
          "name": "ethereum",
          "type": "uint256"
        },
        {
          "internalType": "uint256",
          "name": "tokenReserve",
          "type": "uint256"
        },
        {
          "internalType": "uint256",
          "name": "ethReserve",
          "type": "uint256"
        }
      ],
      "stateMutability": "view",
      "type": "function"
    },
    {
      "inputs": [],
      "name": "factory",
      "outputs": [
        {
          "internalType": "address",
          "name": "fac",
          "type": "address"
        }
      ],
      "stateMutability": "pure",
      "type": "function"
    },
    {
      "inputs": [
        {
          "internalType": "address",
          "name": "_factory",
          "type": "address"
        },
        {
          "internalType": "address",
          "name": "tokenA",
          "type": "address"
        },
        {
          "internalType": "address",
          "name": "tokenB",
          "type": "address"
        }
      ],
      "name": "getPair",
      "outputs": [
        {
          "internalType": "address",
          "name": "pair",
          "type": "address"
        }
      ],
      "stateMutability": "view",
      "type": "function"
    },
    {
      "inputs": [
        {
          "internalType": "address",
          "name": "token",
          "type": "address"
        }
      ],
      "name": "getPathForETHToToken",
      "outputs": [
        {
          "internalType": "address[]",
          "name": "",
          "type": "address[]"
        }
      ],
      "stateMutability": "pure",
      "type": "function"
    },
    {
      "inputs": [
        {
          "internalType": "address",
          "name": "pair",
          "type": "address"
        }
      ],
      "name": "getReserves",
      "outputs": [
        {
          "internalType": "uint256",
          "name": "reserveA",
          "type": "uint256"
        },
        {
          "internalType": "uint256",
          "name": "reserveB",
          "type": "uint256"
        }
      ],
      "stateMutability": "view",
      "type": "function"
    },
    {
      "inputs": [
        {
          "internalType": "address",
          "name": "token",
          "type": "address"
        }
      ],
      "name": "hasPool",
      "outputs": [
        {
          "internalType": "bool",
          "name": "",
          "type": "bool"
        }
      ],
      "stateMutability": "view",
      "type": "function"
    },
    {
      "inputs": [
        {
          "internalType": "address",
          "name": "_factory",
          "type": "address"
        },
        {
          "internalType": "address",
          "name": "tokenA",
          "type": "address"
        },
        {
          "internalType": "address",
          "name": "tokenB",
          "type": "address"
        }
      ],
      "name": "pairFor",
      "outputs": [
        {
          "internalType": "address",
          "name": "pair",
          "type": "address"
        }
      ],
      "stateMutability": "pure",
      "type": "function"
    }
  ],
  "transactionHash": "0x3a2020f5e7b311464df7f922368046e144e6ef9d0bb67e7d15ad9cd9d7e7e047",
  "args": [],
  "solcInputHash": "74452c6cda3ea6bebd3f6973f1954c6f",
  "bytecode": "0x610fb0610026600b82828239805160001a60731461001957fe5b30600052607381538281f3fe73000000000000000000000000000000000000000030146080604052600436106100ad5760003560e01c80636d91c0e2116100805780637dddfe9f116100655780637dddfe9f14610257578063ad5c4648146102da578063c45a0155146102e2576100ad565b80636d91c0e21461020a57806379b369431461024f576100ad565b80631246dbf5146100b25780631874f0a9146100f95780633e99c1e41461015057806361e0b77f1461019c575b600080fd5b6100e5600480360360208110156100c857600080fd5b503573ffffffffffffffffffffffffffffffffffffffff166102ea565b604080519115158252519081900360200190f35b6101326004803603604081101561010f57600080fd5b5073ffffffffffffffffffffffffffffffffffffffff81351690602001356104dc565b60408051938452602084019290925282820152519081900360600190f35b6101836004803603602081101561016657600080fd5b503573ffffffffffffffffffffffffffffffffffffffff1661077b565b6040805192835260208301919091528051918290030190f35b6101e1600480360360608110156101b257600080fd5b5073ffffffffffffffffffffffffffffffffffffffff8135811691602081013582169160409091013516610813565b6040805173ffffffffffffffffffffffffffffffffffffffff9092168252519081900360200190f35b6101e16004803603606081101561022057600080fd5b5073ffffffffffffffffffffffffffffffffffffffff81358116916020810135821691604090910135166109f5565b6101e1610ae0565b61028a6004803603602081101561026d57600080fd5b503573ffffffffffffffffffffffffffffffffffffffff16610af8565b60408051602080825283518183015283519192839290830191858101910280838360005b838110156102c65781810151838201526020016102ae565b505050509050019250505060405180910390f35b6101e1610c29565b6101e1610cb6565b600080731b02da8cb0d097eb8d57a175b88c7d8b47997506905060008173ffffffffffffffffffffffffffffffffffffffff1663c45a01556040518163ffffffff1660e01b815260040160206040518083038186803b15801561034c57600080fd5b505afa158015610360573d6000803e3d6000fd5b505050506040513d602081101561037657600080fd5b5051604080517fad5c4648000000000000000000000000000000000000000000000000000000008152905191925060009173ffffffffffffffffffffffffffffffffffffffff85169163ad5c4648916004808301926020929190829003018186803b1580156103e457600080fd5b505afa1580156103f8573d6000803e3d6000fd5b505050506040513d602081101561040e57600080fd5b5051604080517fe6a4390500000000000000000000000000000000000000000000000000000000815273ffffffffffffffffffffffffffffffffffffffff8881166004830152808416602483015291519293506000929185169163e6a4390591604480820192602092909190829003018186803b15801561048e57600080fd5b505afa1580156104a2573d6000803e3d6000fd5b505050506040513d60208110156104b857600080fd5b505173ffffffffffffffffffffffffffffffffffffffff1615159695505050505050565b600080600080731b02da8cb0d097eb8d57a175b88c7d8b47997506905060008173ffffffffffffffffffffffffffffffffffffffff1663c45a01556040518163ffffffff1660e01b815260040160206040518083038186803b15801561054157600080fd5b505afa158015610555573d6000803e3d6000fd5b505050506040513d602081101561056b57600080fd5b5051604080517fad5c4648000000000000000000000000000000000000000000000000000000008152905191925060009173ffffffffffffffffffffffffffffffffffffffff85169163ad5c4648916004808301926020929190829003018186803b1580156105d957600080fd5b505afa1580156105ed573d6000803e3d6000fd5b505050506040513d602081101561060357600080fd5b5051604080517fe6a4390500000000000000000000000000000000000000000000000000000000815273ffffffffffffffffffffffffffffffffffffffff8b81166004830152808416602483015291519293506000929185169163e6a4390591604480820192602092909190829003018186803b15801561068357600080fd5b505afa158015610697573d6000803e3d6000fd5b505050506040513d60208110156106ad57600080fd5b5051604080517f0902f1ac000000000000000000000000000000000000000000000000000000008152905191925073ffffffffffffffffffffffffffffffffffffffff831691630902f1ac91600480820192606092909190829003018186803b15801561071957600080fd5b505afa15801561072d573d6000803e3d6000fd5b505050506040513d606081101561074357600080fd5b5080516020909101516dffffffffffffffffffffffffffff918216975016945061076e888787610d12565b9650505050509250925092565b6000808273ffffffffffffffffffffffffffffffffffffffff16630902f1ac6040518163ffffffff1660e01b815260040160606040518083038186803b1580156107c457600080fd5b505afa1580156107d8573d6000803e3d6000fd5b505050506040513d60608110156107ee57600080fd5b5080516020909101516dffffffffffffffffffffffffffff9182169591169350915050565b600073ffffffffffffffffffffffffffffffffffffffff841661089757604080517f08c379a000000000000000000000000000000000000000000000000000000000815260206004820152600e60248201527f494e56414c49445f544f4b454e53000000000000000000000000000000000000604482015290519081900360640190fd5b73ffffffffffffffffffffffffffffffffffffffff8316158015906108d1575073ffffffffffffffffffffffffffffffffffffffff821615155b61093c57604080517f08c379a000000000000000000000000000000000000000000000000000000000815260206004820152600e60248201527f494e56414c49445f544f4b454e53000000000000000000000000000000000000604482015290519081900360640190fd5b8373ffffffffffffffffffffffffffffffffffffffff1663e6a4390584846040518363ffffffff1660e01b8152600401808373ffffffffffffffffffffffffffffffffffffffff1681526020018273ffffffffffffffffffffffffffffffffffffffff1681526020019250505060206040518083038186803b1580156109c157600080fd5b505afa1580156109d5573d6000803e3d6000fd5b505050506040513d60208110156109eb57600080fd5b5051949350505050565b6000806000610a048585610e11565b604080517fffffffffffffffffffffffffffffffffffffffff000000000000000000000000606094851b811660208084019190915293851b81166034830152825160288184030181526048830184528051908501207fff0000000000000000000000000000000000000000000000000000000000000060688401529a90941b9093166069840152607d8301989098527f96e8ac4277198ff8b6f785478aa9a39f403cb768dd02cbee326c3e7da348845f609d808401919091528851808403909101815260bd909201909752805196019590952095945050505050565b731b02da8cb0d097eb8d57a175b88c7d8b4799750681565b6040805160028082526060828101909352731b02da8cb0d097eb8d57a175b88c7d8b479975069183918160200160208202803683370190505090508381600081518110610b4157fe5b602002602001019073ffffffffffffffffffffffffffffffffffffffff16908173ffffffffffffffffffffffffffffffffffffffff16815250508173ffffffffffffffffffffffffffffffffffffffff1663ad5c46486040518163ffffffff1660e01b815260040160206040518083038186803b158015610bc157600080fd5b505afa158015610bd5573d6000803e3d6000fd5b505050506040513d6020811015610beb57600080fd5b5051815182906001908110610bfc57fe5b73ffffffffffffffffffffffffffffffffffffffff90921660209283029190910190910152915050919050565b6000731b02da8cb0d097eb8d57a175b88c7d8b4799750673ffffffffffffffffffffffffffffffffffffffff1663ad5c46486040518163ffffffff1660e01b815260040160206040518083038186803b158015610c8557600080fd5b505afa158015610c99573d6000803e3d6000fd5b505050506040513d6020811015610caf57600080fd5b5051919050565b6000731b02da8cb0d097eb8d57a175b88c7d8b4799750673ffffffffffffffffffffffffffffffffffffffff1663c45a01556040518163ffffffff1660e01b815260040160206040518083038186803b158015610c8557600080fd5b6000808411610d8257604080517f08c379a000000000000000000000000000000000000000000000000000000000815260206004820152600c60248201527f50726963653a2050726963650000000000000000000000000000000000000000604482015290519081900360640190fd5b600083118015610d925750600082115b610dfd57604080517f08c379a000000000000000000000000000000000000000000000000000000000815260206004820152601d60248201527f50726963653a20494e53554646494349454e545f4c4951554944495459000000604482015290519081900360640190fd5b8282850281610e0857fe5b04949350505050565b6000808273ffffffffffffffffffffffffffffffffffffffff168473ffffffffffffffffffffffffffffffffffffffff161415610eaf57604080517f08c379a000000000000000000000000000000000000000000000000000000000815260206004820152601a60248201527f50726963653a204944454e544943414c5f414444524553534553000000000000604482015290519081900360640190fd5b8273ffffffffffffffffffffffffffffffffffffffff168473ffffffffffffffffffffffffffffffffffffffff1610610ee9578284610eec565b83835b909250905073ffffffffffffffffffffffffffffffffffffffff8216610f7357604080517f08c379a000000000000000000000000000000000000000000000000000000000815260206004820152601360248201527f50726963653a205a45524f5f4144445245535300000000000000000000000000604482015290519081900360640190fd5b925092905056fea264697066735822122003f212842d3afbc8fa7638b3e7dd52762d2026ae37ee6bc1f6eb4c1fb057c88c64736f6c63430007030033",
  "devdoc": {
    "details": "Uniswap helpers",
    "kind": "dev",
    "methods": {
      "WETH()": {
        "details": "does a Uniswap pool exist for this token?"
      },
      "ethQuote(address,uint256)": {
        "details": "Get a quote in Ethereum for the given ERC20 token / token amount"
      },
      "factory()": {
        "details": "does a Uniswap pool exist for this token?"
      },
      "getPair(address,address,address)": {
        "details": "looks for a pool vs weth"
      },
      "getPathForETHToToken(address)": {
        "details": "Get a path for ethereum to the given token"
      },
      "getReserves(address)": {
        "details": "Get the pair reserves given two erc20 tokens"
      },
      "hasPool(address)": {
        "details": "does a Uniswap pool exist for this token?"
      },
      "pairFor(address,address,address)": {
        "details": "calculate pair address"
      }
    },
    "version": 1
  },
  "userdoc": {
    "kind": "user",
    "methods": {},
    "version": 1
  },
  "storageLayout": {
    "storage": [],
    "types": null
  }
}