{
  "address": "0xE30C2B89b9c4d21E35593d050Aa689155F86b73f",
  "abi": [
    {
      "inputs": [
        {
          "internalType": "address",
          "name": "_multitoken",
          "type": "address"
        },
        {
          "internalType": "address",
          "name": "_feeManager",
          "type": "address"
        }
      ],
      "stateMutability": "nonpayable",
      "type": "constructor"
    },
    {
      "anonymous": false,
      "inputs": [
        {
          "indexed": true,
          "internalType": "address",
          "name": "contractAddress",
          "type": "address"
        },
        {
          "indexed": true,
          "internalType": "address",
          "name": "controllerAddress",
          "type": "address"
        }
      ],
      "name": "ControllerAdded",
      "type": "event"
    },
    {
      "anonymous": false,
      "inputs": [
        {
          "indexed": true,
          "internalType": "address",
          "name": "contractAddress",
          "type": "address"
        },
        {
          "indexed": true,
          "internalType": "address",
          "name": "controllerAddress",
          "type": "address"
        }
      ],
      "name": "ControllerRemoved",
      "type": "event"
    },
    {
      "anonymous": false,
      "inputs": [
        {
          "indexed": false,
          "internalType": "uint256",
          "name": "_offerId",
          "type": "uint256"
        },
        {
          "indexed": false,
          "internalType": "address",
          "name": "_acceptor",
          "type": "address"
        },
        {
          "indexed": false,
          "internalType": "uint256[]",
          "name": "_gems",
          "type": "uint256[]"
        },
        {
          "indexed": false,
          "internalType": "uint256",
          "name": "_acceptFee",
          "type": "uint256"
        }
      ],
      "name": "OfferAccepted",
      "type": "event"
    },
    {
      "anonymous": false,
      "inputs": [
        {
          "indexed": false,
          "internalType": "address",
          "name": "_from",
          "type": "address"
        },
        {
          "indexed": false,
          "internalType": "uint256",
          "name": "_offerId",
          "type": "uint256"
        },
        {
          "indexed": false,
          "internalType": "address",
          "name": "_pool",
          "type": "address"
        },
        {
          "indexed": false,
          "internalType": "uint256",
          "name": "_gem",
          "type": "uint256"
        },
        {
          "indexed": false,
          "internalType": "address[]",
          "name": "_pools",
          "type": "address[]"
        },
        {
          "indexed": false,
          "internalType": "uint256[]",
          "name": "_gems",
          "type": "uint256[]"
        },
        {
          "indexed": false,
          "internalType": "uint256[]",
          "name": "_quantities",
          "type": "uint256[]"
        },
        {
          "indexed": false,
          "internalType": "uint256",
          "name": "_references",
          "type": "uint256"
        },
        {
          "indexed": false,
          "internalType": "uint256",
          "name": "_listingFee",
          "type": "uint256"
        }
      ],
      "name": "OfferRegistered",
      "type": "event"
    },
    {
      "anonymous": false,
      "inputs": [
        {
          "indexed": false,
          "internalType": "uint256",
          "name": "_offerId",
          "type": "uint256"
        }
      ],
      "name": "OfferUnregistered",
      "type": "event"
    },
    {
      "anonymous": false,
      "inputs": [
        {
          "indexed": false,
          "internalType": "address",
          "name": "_recipient",
          "type": "address"
        },
        {
          "indexed": false,
          "internalType": "uint256",
          "name": "_feesAmount",
          "type": "uint256"
        }
      ],
      "name": "SwapMeetFeesWithdrawn",
      "type": "event"
    },
    {
      "inputs": [],
      "name": "acceptFeeHash",
      "outputs": [
        {
          "internalType": "uint256",
          "name": "",
          "type": "uint256"
        }
      ],
      "stateMutability": "view",
      "type": "function"
    },
    {
      "inputs": [
        {
          "internalType": "uint256",
          "name": "_id",
          "type": "uint256"
        },
        {
          "internalType": "uint256[]",
          "name": "_gems",
          "type": "uint256[]"
        }
      ],
      "name": "acceptOffer",
      "outputs": [
        {
          "internalType": "bool",
          "name": "success",
          "type": "bool"
        }
      ],
      "stateMutability": "payable",
      "type": "function"
    },
    {
      "inputs": [
        {
          "internalType": "address",
          "name": "_controller",
          "type": "address"
        }
      ],
      "name": "addController",
      "outputs": [],
      "stateMutability": "nonpayable",
      "type": "function"
    },
    {
      "inputs": [
        {
          "internalType": "uint256",
          "name": "_id",
          "type": "uint256"
        }
      ],
      "name": "getOffer",
      "outputs": [
        {
          "components": [
            {
              "internalType": "address",
              "name": "owner",
              "type": "address"
            },
            {
              "internalType": "address",
              "name": "pool",
              "type": "address"
            },
            {
              "internalType": "uint256",
              "name": "gem",
              "type": "uint256"
            },
            {
              "internalType": "address[]",
              "name": "pools",
              "type": "address[]"
            },
            {
              "internalType": "uint256[]",
              "name": "gems",
              "type": "uint256[]"
            },
            {
              "internalType": "uint256[]",
              "name": "quantities",
              "type": "uint256[]"
            },
            {
              "internalType": "uint256",
              "name": "listingFee",
              "type": "uint256"
            },
            {
              "internalType": "uint256",
              "name": "acceptFee",
              "type": "uint256"
            },
            {
              "internalType": "uint256",
              "name": "references",
              "type": "uint256"
            },
            {
              "internalType": "bool",
              "name": "missingTokenPenalty",
              "type": "bool"
            }
          ],
          "internalType": "struct ISwapMeet.Offer",
          "name": "",
          "type": "tuple"
        }
      ],
      "stateMutability": "view",
      "type": "function"
    },
    {
      "inputs": [
        {
          "internalType": "address",
          "name": "_address",
          "type": "address"
        }
      ],
      "name": "isController",
      "outputs": [
        {
          "internalType": "bool",
          "name": "allowed",
          "type": "bool"
        }
      ],
      "stateMutability": "view",
      "type": "function"
    },
    {
      "inputs": [
        {
          "internalType": "uint256",
          "name": "_id",
          "type": "uint256"
        }
      ],
      "name": "isOffer",
      "outputs": [
        {
          "internalType": "bool",
          "name": "success",
          "type": "bool"
        }
      ],
      "stateMutability": "view",
      "type": "function"
    },
    {
      "inputs": [],
      "name": "listOfferIds",
      "outputs": [
        {
          "internalType": "uint256[]",
          "name": "_offerIds",
          "type": "uint256[]"
        }
      ],
      "stateMutability": "view",
      "type": "function"
    },
    {
      "inputs": [],
      "name": "listOffers",
      "outputs": [
        {
          "components": [
            {
              "internalType": "address",
              "name": "owner",
              "type": "address"
            },
            {
              "internalType": "address",
              "name": "pool",
              "type": "address"
            },
            {
              "internalType": "uint256",
              "name": "gem",
              "type": "uint256"
            },
            {
              "internalType": "address[]",
              "name": "pools",
              "type": "address[]"
            },
            {
              "internalType": "uint256[]",
              "name": "gems",
              "type": "uint256[]"
            },
            {
              "internalType": "uint256[]",
              "name": "quantities",
              "type": "uint256[]"
            },
            {
              "internalType": "uint256",
              "name": "listingFee",
              "type": "uint256"
            },
            {
              "internalType": "uint256",
              "name": "acceptFee",
              "type": "uint256"
            },
            {
              "internalType": "uint256",
              "name": "references",
              "type": "uint256"
            },
            {
              "internalType": "bool",
              "name": "missingTokenPenalty",
              "type": "bool"
            }
          ],
          "internalType": "struct ISwapMeet.Offer[]",
          "name": "offersOut",
          "type": "tuple[]"
        }
      ],
      "stateMutability": "view",
      "type": "function"
    },
    {
      "inputs": [
        {
          "internalType": "address",
          "name": "ownerAddress",
          "type": "address"
        }
      ],
      "name": "listOffersByOwner",
      "outputs": [
        {
          "components": [
            {
              "internalType": "address",
              "name": "owner",
              "type": "address"
            },
            {
              "internalType": "address",
              "name": "pool",
              "type": "address"
            },
            {
              "internalType": "uint256",
              "name": "gem",
              "type": "uint256"
            },
            {
              "internalType": "address[]",
              "name": "pools",
              "type": "address[]"
            },
            {
              "internalType": "uint256[]",
              "name": "gems",
              "type": "uint256[]"
            },
            {
              "internalType": "uint256[]",
              "name": "quantities",
              "type": "uint256[]"
            },
            {
              "internalType": "uint256",
              "name": "listingFee",
              "type": "uint256"
            },
            {
              "internalType": "uint256",
              "name": "acceptFee",
              "type": "uint256"
            },
            {
              "internalType": "uint256",
              "name": "references",
              "type": "uint256"
            },
            {
              "internalType": "bool",
              "name": "missingTokenPenalty",
              "type": "bool"
            }
          ],
          "internalType": "struct ISwapMeet.Offer[]",
          "name": "_ids",
          "type": "tuple[]"
        }
      ],
      "stateMutability": "view",
      "type": "function"
    },
    {
      "inputs": [],
      "name": "listingFeeHash",
      "outputs": [
        {
          "internalType": "uint256",
          "name": "",
          "type": "uint256"
        }
      ],
      "stateMutability": "view",
      "type": "function"
    },
    {
      "inputs": [
        {
          "internalType": "address",
          "name": "input",
          "type": "address"
        }
      ],
      "name": "proxies",
      "outputs": [
        {
          "internalType": "address",
          "name": "",
          "type": "address"
        }
      ],
      "stateMutability": "view",
      "type": "function"
    },
    {
      "inputs": [
        {
          "internalType": "address",
          "name": "_pool",
          "type": "address"
        },
        {
          "internalType": "uint256",
          "name": "_gem",
          "type": "uint256"
        },
        {
          "internalType": "address[]",
          "name": "_pools",
          "type": "address[]"
        },
        {
          "internalType": "uint256[]",
          "name": "_gems",
          "type": "uint256[]"
        },
        {
          "internalType": "uint256[]",
          "name": "_quantities",
          "type": "uint256[]"
        },
        {
          "internalType": "uint256",
          "name": "references",
          "type": "uint256"
        }
      ],
      "name": "registerOffer",
      "outputs": [
        {
          "components": [
            {
              "internalType": "address",
              "name": "owner",
              "type": "address"
            },
            {
              "internalType": "address",
              "name": "pool",
              "type": "address"
            },
            {
              "internalType": "uint256",
              "name": "gem",
              "type": "uint256"
            },
            {
              "internalType": "address[]",
              "name": "pools",
              "type": "address[]"
            },
            {
              "internalType": "uint256[]",
              "name": "gems",
              "type": "uint256[]"
            },
            {
              "internalType": "uint256[]",
              "name": "quantities",
              "type": "uint256[]"
            },
            {
              "internalType": "uint256",
              "name": "listingFee",
              "type": "uint256"
            },
            {
              "internalType": "uint256",
              "name": "acceptFee",
              "type": "uint256"
            },
            {
              "internalType": "uint256",
              "name": "references",
              "type": "uint256"
            },
            {
              "internalType": "bool",
              "name": "missingTokenPenalty",
              "type": "bool"
            }
          ],
          "internalType": "struct ISwapMeet.Offer",
          "name": "_offer",
          "type": "tuple"
        }
      ],
      "stateMutability": "payable",
      "type": "function"
    },
    {
      "inputs": [],
      "name": "relinquishControl",
      "outputs": [],
      "stateMutability": "nonpayable",
      "type": "function"
    },
    {
      "inputs": [
        {
          "internalType": "uint256",
          "name": "_id",
          "type": "uint256"
        }
      ],
      "name": "unregisterOffer",
      "outputs": [
        {
          "internalType": "bool",
          "name": "success",
          "type": "bool"
        }
      ],
      "stateMutability": "nonpayable",
      "type": "function"
    },
    {
      "inputs": [
        {
          "internalType": "address",
          "name": "_receiver",
          "type": "address"
        }
      ],
      "name": "withdrawFees",
      "outputs": [],
      "stateMutability": "nonpayable",
      "type": "function"
    }
  ],
  "transactionHash": "0x586c7cd2b3fe2863944542674909d2e2e8562f4ea1bd470cc83b35c9645cc264",
  "args": [
    "0x527C4Abab130D0E4fc35d41403D451cbf22cC299",
    "0xf6efadEF8F3939A81c420C8086A4774Ce891CaDd"
  ],
  "solcInputHash": "b01580e97028fd6b63dca91be287d87f",
  "bytecode": "0x60806040523480156200001157600080fd5b5060405162003646380380620036468339810160408190526200003491620000b2565b6200003f3362000071565b600380546001600160a01b039384166001600160a01b03199182161790915560028054929093169116179055620000e9565b6001600160a01b03166000908152602081905260409020805460ff19166001179055565b80516001600160a01b0381168114620000ad57600080fd5b919050565b60008060408385031215620000c5578182fd5b620000d08362000095565b9150620000e06020840162000095565b90509250929050565b61354d80620000f96000396000f3fe6080604052600436106100e85760003560e01c8063b429afeb1161008a578063e0c8f57311610059578063e0c8f57314610274578063e1c28bef14610296578063ebd133da146102ab578063f1514f12146102c0576100e8565b8063b429afeb146101e5578063b8f27b9114610205578063c455279114610225578063d56a978214610252576100e8565b8063667bfbac116100c6578063667bfbac146101655780638f05be5214610192578063a0c59979146101a5578063a7fc7a07146101c5576100e8565b8063164e68de146100ed578063319833661461010f5780634579268a14610138575b600080fd5b3480156100f957600080fd5b5061010d610108366004612975565b6102d5565b005b61012261011d366004612b2d565b6103bd565b60405161012f9190612fc8565b60405180910390f35b34801561014457600080fd5b50610158610153366004612afd565b610e77565b60405161012f91906133f2565b34801561017157600080fd5b50610185610180366004612975565b61102b565b60405161012f9190612f37565b6101586101a0366004612996565b611208565b3480156101b157600080fd5b506101226101c0366004612afd565b611c07565b3480156101d157600080fd5b5061010d6101e0366004612975565b61203a565b3480156101f157600080fd5b50610122610200366004612975565b61209c565b34801561021157600080fd5b50610122610220366004612afd565b6120ba565b34801561023157600080fd5b50610245610240366004612975565b6120c7565b60405161012f9190612da7565b34801561025e57600080fd5b506102676120e5565b60405161012f9190613405565b34801561028057600080fd5b50610289612109565b60405161012f9190612fb5565b3480156102a257600080fd5b5061010d612164565b3480156102b757600080fd5b506101856121bb565b3480156102cc57600080fd5b50610267612424565b3360009081526020819052604090205460ff161515600114806102f757503033145b61031c5760405162461bcd60e51b815260040161031390613282565b60405180910390fd5b60006001541161033e5760405162461bcd60e51b815260040161031390613036565b6001805460009182905560405190916001600160a01b0384169183156108fc0291849190818181858888f1935050505015801561037f573d6000803e3d6000fd5b507f02733937f9e82db2299a456e9848434a9a1534244dc1796264c719237b307f8382826040516103b1929190612e71565b60405180910390a15050565b6002546040517f39b37ab000000000000000000000000000000000000000000000000000000000815260009182916001600160a01b03909116906339b37ab09061042b907f27c08a1671399b6816045d86602ffa6404f756deddc6a5a58270d7c7668d5eb890600401613405565b60206040518083038186803b15801561044357600080fd5b505afa158015610457573d6000803e3d6000fd5b505050506040513d601f19601f8201168201806040525081019061047b9190612b15565b905080156104895780610492565b662386f26fc100005b90506104d36040518060400160405280601981526020017f6163636570744f666665723a20616363657074466565203d200000000000000081525082612448565b6104de6006856124bf565b6104fa5760405162461bcd60e51b815260040161031390613149565b6000848152600460208190526040909120015483511461052c5760405162461bcd60e51b81526004016103139061324b565b8034101561054c5760405162461bcd60e51b8152600401610313906131dd565b61058a6040518060400160405280602081526020017f6163636570744f666665723a20626173696320636865636b732070617373656481525061251b565b60005b600085815260046020526040902060030154811015610a0b5760008581526004602052604081206003018054839081106105d757634e487b7160e01b600052603260045260246000fd5b600091825260208220015486516001600160a01b03909116925086908490811061061157634e487b7160e01b600052603260045260246000fd5b6020026020010151905061065b6040518060400160405280601681526020017f6163636570744f666665723a20706f6f6c2c2067656d00000000000000000000815250838361258f565b60008781526004602081905260409091200180548490811061068d57634e487b7160e01b600052603260045260246000fd5b90600052602060002001546000146107e057806004600089815260200190815260200160002060040184815481106106d557634e487b7160e01b600052603260045260246000fd5b906000526020600020015414156107c857600087815260046020526040902060050180548490811061071757634e487b7160e01b600052603260045260246000fd5b600091825260209091200154600354604051627eeac760e11b81526001600160a01b039091169062fdd58e906107539033908690600401612e71565b60206040518083038186803b15801561076b57600080fd5b505afa15801561077f573d6000803e3d6000fd5b505050506040513d601f19601f820116820180604052508101906107a39190612b15565b10156107c15760405162461bcd60e51b815260040161031390613112565b50506109f9565b60405162461bcd60e51b8152600401610313906132df565b6040517fe6c3b1f60000000000000000000000000000000000000000000000000000000081526000906001600160a01b0384169063e6c3b1f690610828908590600401613405565b60206040518083038186803b15801561084057600080fd5b505afa158015610854573d6000803e3d6000fd5b505050506040513d601f19601f820116820180604052508101906108789190612a4e565b9050600281600281111561089c57634e487b7160e01b600052602160045260246000fd5b146108b95760405162461bcd60e51b81526004016103139061306d565b61091a6040518060400160405280601781526020017f6163636570744f666665723a20746f6b656e207479706500000000000000000081525082600281111561091257634e487b7160e01b600052602160045260246000fd5b60ff16612448565b600088815260046020526040902060050180548590811061094b57634e487b7160e01b600052603260045260246000fd5b600091825260209091200154600354604051627eeac760e11b81526001600160a01b039091169062fdd58e906109879033908790600401612e71565b60206040518083038186803b15801561099f57600080fd5b505afa1580156109b3573d6000803e3d6000fd5b505050506040513d601f19601f820116820180604052508101906109d79190612b15565b10156109f55760405162461bcd60e51b815260040161031390613112565b5050505b80610a03816134d0565b91505061058d565b5060035460008581526004602081905260409182902080546002909101549251627eeac760e11b81526001600160a01b039485169462fdd58e94610a559491909316929101612e71565b60206040518083038186803b158015610a6d57600080fd5b505afa158015610a81573d6000803e3d6000fd5b505050506040513d601f19601f82011682018060405250810190610aa59190612b15565b610afa57600084815260046020526040808220600901805460ff1916600117905551909250339082156108fc0290839085818181858888f19350505050158015610af3573d6000803e3d6000fd5b5050610e71565b610b386040518060400160405280602081526020017f6163636570744f666665723a2073656e6465722062616c616e636520676f6f6481525061251b565b600084815260046020526040902060060154610b549082613471565b60016000828254610b659190613471565b909155505033600081815260086020908152604080832080546001600160a01b0319163017905560035488845260049283905292819020805491517f2eb2c2d60000000000000000000000000000000000000000000000000000000081526001600160a01b0394851695632eb2c2d695610beb95919416928a9260059091019101612dbb565b600060405180830381600087803b158015610c0557600080fd5b505af1158015610c19573d6000803e3d6000fd5b50503360009081526008602090815260409182902080546001600160a01b03191690558151808301909252601b82527f6163636570744f666665723a207472616e73666572206261746368000000000090820152610c799250905061251b565b600084815260046020818152604080842080546001600160a01b0390811686526008845282862080546001600160a01b03191630179055600354958a905292849052805460029091015491517ff242432a0000000000000000000000000000000000000000000000000000000081529483169463f242432a94610d089492909216923392909160019101612e39565b600060405180830381600087803b158015610d2257600080fd5b505af1158015610d36573d6000803e3d6000fd5b5050506000858152600460209081526040808320546001600160a01b03168352600882529182902080546001600160a01b03191690558151808301909252601982527f6163636570744f666665723a207472616e736665722067656d0000000000000090820152610da7915061251b565b610db2600685612609565b600084815260046020526040812080546001600160a01b0319908116825560018201805490911690556002810182905590610df0600383018261279f565b610dfe60048301600061279f565b610e0c60058301600061279f565b50600060068201819055600782018190556008820155600901805460ff191690556040517f630aeb16dd159d3b89ad5e9d3e30c261a4a192fbeadc9a6ea87a2cfbc8ca6d0290610e6390869033908790869061340e565b60405180910390a160019150505b92915050565b610e7f6127bd565b610e8a6006836124bf565b610ea65760405162461bcd60e51b815260040161031390613149565b60008281526004602090815260409182902082516101408101845281546001600160a01b039081168252600183015416818401526002820154818501526003820180548551818602810186019096528086529194929360608601939290830182828015610f3c57602002820191906000526020600020905b81546001600160a01b03168152600190910190602001808311610f1e575b5050505050815260200160048201805480602002602001604051908101604052809291908181526020018280548015610f9457602002820191906000526020600020905b815481526020019060010190808311610f80575b5050505050815260200160058201805480602002602001604051908101604052809291908181526020018280548015610fec57602002820191906000526020600020905b815481526020019060010190808311610fd8575b505050918352505060068201546020820152600782015460408201526008820154606082015260099091015460ff16151560809091015290505b919050565b6001600160a01b0381166000908152600560209081526040808320805482518185028101850190935280835260609492939192909184015b828210156111fd5760008481526020908190206040805161014081018252600a860290920180546001600160a01b039081168452600182015416838501526002810154838301526003810180548351818702810187019094528084529394919360608601939283018282801561110257602002820191906000526020600020905b81546001600160a01b031681526001909101906020018083116110e4575b505050505081526020016004820180548060200260200160405190810160405280929190818152602001828054801561115a57602002820191906000526020600020905b815481526020019060010190808311611146575b50505050508152602001600582018054806020026020016040519081016040528092919081815260200182805480156111b257602002820191906000526020600020905b81548152602001906001019080831161119e575b50505091835250506006820154602080830191909152600783015460408301526008830154606083015260099092015460ff1615156080909101529082526001929092019101611063565b505050509050919050565b6112106127bd565b6002546040517f39b37ab00000000000000000000000000000000000000000000000000000000081526000916001600160a01b0316906339b37ab09061127a907f726cc96215520a07a8f8e0fe476c027c6c44853185ef22ddac273ab1c037ca4390600401613405565b60206040518083038186803b15801561129257600080fd5b505afa1580156112a6573d6000803e3d6000fd5b505050506040513d601f19601f820116820180604052508101906112ca9190612b15565b905080156112d857806112e1565b662386f26fc100005b90506112ee60068b6124bf565b1561130b5760405162461bcd60e51b81526004016103139061334d565b85881461132a5760405162461bcd60e51b815260040161031390613214565b8034101561134a5760405162461bcd60e51b815260040161031390613384565b600354604051627eeac760e11b81526000916001600160a01b03169062fdd58e9061137b9033908f90600401612e71565b60206040518083038186803b15801561139357600080fd5b505afa1580156113a7573d6000803e3d6000fd5b505050506040513d601f19601f820116820180604052508101906113cb9190612b15565b116113e85760405162461bcd60e51b815260040161031390613112565b6040517fe6c3b1f60000000000000000000000000000000000000000000000000000000081526000906001600160a01b038d169063e6c3b1f690611430908e90600401613405565b60206040518083038186803b15801561144857600080fd5b505afa15801561145c573d6000803e3d6000fd5b505050506040513d601f19601f820116820180604052508101906114809190612a4e565b905060028160028111156114a457634e487b7160e01b600052602160045260246000fd5b146114c15760405162461bcd60e51b81526004016103139061306d565b60005b85811015611763578888828181106114ec57634e487b7160e01b600052603260045260246000fd5b90506020020135600014156115e0578a8a8281811061151b57634e487b7160e01b600052603260045260246000fd5b90506020020160208101906115309190612975565b6001600160a01b03166395d89b416040518163ffffffff1660e01b815260040160006040518083038186803b15801561156857600080fd5b505afa92505050801561159d57506040513d6000823e601f3d908101601f1916820160405261159a9190810190612a6d565b60015b6115b95760405162461bcd60e51b8152600401610313906133bb565b60008151116115da5760405162461bcd60e51b8152600401610313906133bb565b5061170b565b8a8a8281811061160057634e487b7160e01b600052603260045260246000fd5b90506020020160208101906116159190612975565b6001600160a01b031663e6c3b1f68a8a8481811061164357634e487b7160e01b600052603260045260246000fd5b905060200201356040518263ffffffff1660e01b81526004016116669190613405565b60206040518083038186803b15801561167e57600080fd5b505afa9250505080156116ae575060408051601f3d908101601f191682019092526116ab91810190612a4e565b60015b6116ca5760405162461bcd60e51b8152600401610313906133bb565b60028160028111156116ec57634e487b7160e01b600052602160045260246000fd5b146117095760405162461bcd60e51b8152600401610313906130db565b505b600087878381811061172d57634e487b7160e01b600052603260045260246000fd5b90506020020135116117515760405162461bcd60e51b815260040161031390613316565b8061175b816134d0565b9150506114c4565b50604051806101400160405280336001600160a01b031681526020018d6001600160a01b031681526020018c81526020018b8b808060200260200160405190810160405280939291908181526020018383602002808284376000920191909152505050908252506040805160208b810282810182019093528b82529283019290918c918c91829185019084908082843760009201919091525050509082525060408051602089810282810182019093528982529283019290918a918a91829185019084908082843760009201829052509385525050506020808301869052604080840183905260608085018a905260809094018390528f83526004825291829020845181546001600160a01b039182166001600160a01b03199182161783558684015160018401805491909316911617905591840151600283015591830151805191926118b892600385019290910190612824565b50608082015180516118d4916004840191602090910190612885565b5060a082015180516118f0916005840191602090910190612885565b5060c082015160068281019190915560e083015160078301556101008301516008830155610120909201516009909101805460ff1916911515919091179055611939908c61271a565b3360009081526005602090815260408083208e845260048352908320815460018082018455928552929093208354600a9093020180546001600160a01b039384166001600160a01b03199182161782558285015492820180549390941692169190911790915560028083015490820155600380830180546119bd92840191906128c0565b50600482810180546119d292840191906128c0565b50600582810180546119e792840191906128c0565b506006828101549082015560078083015490820155600880830154908201556009918201549101805460ff191660ff909216151591909117905560008b81526004602090815260409182902082516101408101845281546001600160a01b039081168252600183015416818401526002820154818501526003820180548551818602810186019096528086529194929360608601939290830182828015611ab757602002820191906000526020600020905b81546001600160a01b03168152600190910190602001808311611a99575b5050505050815260200160048201805480602002602001604051908101604052809291908181526020018280548015611b0f57602002820191906000526020600020905b815481526020019060010190808311611afb575b5050505050815260200160058201805480602002602001604051908101604052809291908181526020018280548015611b6757602002820191906000526020600020905b815481526020019060010190808311611b53575b505050505081526020016006820154815260200160078201548152602001600882015481526020016009820160009054906101000a900460ff16151515158152505092507fff5491dfeca32e5172cf0a5b4b00845fc6fc56971fa6a6aa43638177be53c663338c8e8e8e8e8e8e8e8e8e8d604051611bf09c9b9a99989796959493929190612e8a565b60405180910390a150509998505050505050505050565b6000611c146006836124bf565b1515600114611c355760405162461bcd60e51b815260040161031390613149565b6000828152600460205260409020546001600160a01b03163314611c6b5760405162461bcd60e51b8152600401610313906130a4565b600082815260046020526040902060068082015460098301549254909260ff16916001600160a01b0390911690611ca29086612609565b600085815260046020526040812080546001600160a01b0319908116825560018201805490911690556002810182905590611ce0600383018261279f565b611cee60048301600061279f565b611cfc60058301600061279f565b5060006006820181905560078201819055600882018190556009909101805460ff191690555b6001600160a01b038216600090815260056020526040902054811015611fba576001600160a01b0382166000908152600560205260409020805487919083908110611d7d57634e487b7160e01b600052603260045260246000fd5b90600052602060002090600a0201600201541415611faa576001600160a01b03821660009081526005602052604090208054611dbb90600190613489565b81548110611dd957634e487b7160e01b600052603260045260246000fd5b90600052602060002090600a020160056000846001600160a01b03166001600160a01b031681526020019081526020016000208281548110611e2b57634e487b7160e01b600052603260045260246000fd5b600091825260209091208254600a9092020180546001600160a01b039283166001600160a01b03199182161782556001808501549083018054919094169116179091556002808301549082015560038083018054611e8c92840191906128c0565b5060048281018054611ea192840191906128c0565b5060058281018054611eb692840191906128c0565b506006828101549082015560078083015490820155600880830154908201556009918201549101805460ff191660ff90921615159190911790556001600160a01b0382166000908152600560205260409020805480611f2557634e487b7160e01b600052603160045260246000fd5b600082815260208120600a6000199093019283020180546001600160a01b0319908116825560018201805490911690556002810182905590611f6a600383018261279f565b611f7860048301600061279f565b611f8660058301600061279f565b50600060068201819055600782018190556008820155600901805460ff1916905590555b611fb3816134d0565b9050611d22565b5081611ff8576040516001600160a01b0382169084156108fc029085906000818181858888f19350505050158015611ff6573d6000803e3d6000fd5b505b7f6fe9d3036555a48d846210fc929918eea7466f43b5a3b3561c9e650328b7a9c1856040516120279190613405565b60405180910390a1506001949350505050565b3360009081526020819052604090205460ff1615156001148061205c57503033145b6120785760405162461bcd60e51b815260040161031390613282565b6001600160a01b03166000908152602081905260409020805460ff19166001179055565b6001600160a01b031660009081526020819052604090205460ff1690565b6000610e716006836124bf565b6001600160a01b039081166000908152600860205260409020541690565b7f726cc96215520a07a8f8e0fe476c027c6c44853185ef22ddac273ab1c037ca4381565b6060600660010180548060200260200160405190810160405280929190818152602001828054801561215a57602002820191906000526020600020905b815481526020019060010190808311612146575b5050505050905090565b3360009081526020819052604090205460ff1615156001148061218657503033145b6121a25760405162461bcd60e51b815260040161031390613282565b336000908152602081905260409020805460ff19169055565b60075460609067ffffffffffffffff8111156121e757634e487b7160e01b600052604160045260246000fd5b60405190808252806020026020018201604052801561222057816020015b61220d6127bd565b8152602001906001900390816122055790505b50905060005b60075481101561242057600460006006600101838154811061225857634e487b7160e01b600052603260045260246000fd5b60009182526020808320909101548352828101939093526040918201902081516101408101835281546001600160a01b039081168252600183015416818501526002820154818401526003820180548451818702810187019095528085529194929360608601939092908301828280156122fb57602002820191906000526020600020905b81546001600160a01b031681526001909101906020018083116122dd575b505050505081526020016004820180548060200260200160405190810160405280929190818152602001828054801561235357602002820191906000526020600020905b81548152602001906001019080831161233f575b50505050508152602001600582018054806020026020016040519081016040528092919081815260200182805480156123ab57602002820191906000526020600020905b815481526020019060010190808311612397575b505050918352505060068201546020820152600782015460408201526008820154606082015260099091015460ff161515608090910152825183908390811061240457634e487b7160e01b600052603260045260246000fd5b602002602001018190525080612419906134d0565b9050612226565b5090565b7f27c08a1671399b6816045d86602ffa6404f756deddc6a5a58270d7c7668d5eb881565b6124bb828260405160240161245e929190613014565b60408051601f198184030181529190526020810180517bffffffffffffffffffffffffffffffffffffffffffffffffffffffff167f9710a9d000000000000000000000000000000000000000000000000000000000179052612777565b5050565b60018201546000906124d357506000610e71565b600082815260208490526040902054600184018054849290811061250757634e487b7160e01b600052603260045260246000fd5b906000526020600020015414905092915050565b61258c8160405160240161252f9190612fd3565b60408051601f198184030181529190526020810180517bffffffffffffffffffffffffffffffffffffffffffffffffffffffff167f41304fac00000000000000000000000000000000000000000000000000000000179052612777565b50565b6126048383836040516024016125a793929190612fe6565b60408051601f198184030181529190526020810180517bffffffffffffffffffffffffffffffffffffffffffffffffffffffff167f07c8121700000000000000000000000000000000000000000000000000000000179052612777565b505050565b61261382826124bf565b61261c576124bb565b6000600161262984612798565b6126339190613489565b6000838152602085905260409020549091508082146126ca57600084600101838154811061267157634e487b7160e01b600052603260045260246000fd5b906000526020600020015490508185600001600083815260200190815260200160002081905550808560010183815481106126bc57634e487b7160e01b600052603260045260246000fd5b600091825260209091200155505b6000838152602085905260408120556001808501805490916126eb91613489565b8154811061270957634e487b7160e01b600052603260045260246000fd5b600091825260208220015550505050565b61272482826124bf565b156127415760405162461bcd60e51b815260040161031390613180565b60018083018054808301825560008281526020902001839055546127659190613489565b60009182526020929092526040902055565b80516a636f6e736f6c652e6c6f67602083016000808483855afa5050505050565b6001015490565b508054600082559060005260206000209081019061258c9190612900565b60405180610140016040528060006001600160a01b0316815260200160006001600160a01b03168152602001600081526020016060815260200160608152602001606081526020016000815260200160008152602001600081526020016000151581525090565b828054828255906000526020600020908101928215612879579160200282015b8281111561287957825182546001600160a01b0319166001600160a01b03909116178255602090920191600190910190612844565b50612420929150612900565b828054828255906000526020600020908101928215612879579160200282015b828111156128795782518255916020019190600101906128a5565b8280548282559060005260206000209081019282156128795760005260206000209182015b828111156128795782548255916001019190600101906128e5565b5b808211156124205760008155600101612901565b80356001600160a01b038116811461102657600080fd5b60008083601f84011261293d578182fd5b50813567ffffffffffffffff811115612954578182fd5b602083019150836020808302850101111561296e57600080fd5b9250929050565b600060208284031215612986578081fd5b61298f82612915565b9392505050565b600080600080600080600080600060c08a8c0312156129b3578485fd5b6129bc8a612915565b985060208a0135975060408a013567ffffffffffffffff808211156129df578687fd5b6129eb8d838e0161292c565b909950975060608c0135915080821115612a03578687fd5b612a0f8d838e0161292c565b909750955060808c0135915080821115612a27578485fd5b50612a348c828d0161292c565b9a9d999c50979a9699959894979660a00135949350505050565b600060208284031215612a5f578081fd5b81516003811061298f578182fd5b600060208284031215612a7e578081fd5b815167ffffffffffffffff80821115612a95578283fd5b818401915084601f830112612aa8578283fd5b815181811115612aba57612aba613501565b612acd6020601f19601f84011601613447565b9150808252856020828501011115612ae3578384fd5b612af48160208401602086016134a0565b50949350505050565b600060208284031215612b0e578081fd5b5035919050565b600060208284031215612b26578081fd5b5051919050565b60008060408385031215612b3f578182fd5b8235915060208084013567ffffffffffffffff80821115612b5e578384fd5b818601915086601f830112612b71578384fd5b813581811115612b8357612b83613501565b8381029150612b93848301613447565b8181528481019084860184860187018b1015612bad578788fd5b8795505b83861015612bcf578035835260019590950194918601918601612bb1565b508096505050505050509250929050565b6001600160a01b0316815260200190565b6001600160a01b03169052565b6000815180845260208085019450808401835b83811015612c365781516001600160a01b031687529582019590820190600101612c11565b509495945050505050565b60008284527f07ffffffffffffffffffffffffffffffffffffffffffffffffffffffffffffff831115612c72578081fd5b6020830280836020870137939093016020019283525090919050565b6000815180845260208085019450808401835b83811015612c3657815187529582019590820190600101612ca1565b15159052565b60008151808452612cdb8160208601602086016134a0565b601f01601f19169290920160200192915050565b6000610140612cff848451612bf1565b6020830151612d116020860182612bf1565b50604083015160408501526060830151816060860152612d3382860182612bfe565b91505060808301518482036080860152612d4d8282612c8e565b91505060a083015184820360a0860152612d678282612c8e565b91505060c083015160c085015260e083015160e085015261010080840151818601525061012080840151612d9d82870182612cbd565b5090949350505050565b6001600160a01b0391909116815260200190565b60006001600160a01b03808716835260208187168185015260a06040850152612de760a0850187612c8e565b84810360608601528554808252868552828520935090820190845b81811015612e1e57845483526001948501949284019201612e02565b50508481036080909501949094529183525001949350505050565b6001600160a01b0394851681529290931660208301526040820152606081019190915260a06080820181905260009082015260c00190565b6001600160a01b03929092168252602082015260400190565b6001600160a01b038d81168252602082018d90528b166040820152606081018a9052610120608082018190528101889052600061014082018a825b8b811015612ef057612edf83612eda84612915565b612be0565b925060209190910190600101612ec5565b505082810360a0840152612f0581898b612c41565b905082810360c0840152612f1a818789612c41565b60e0840195909552505061010001529a9950505050505050505050565b6000602080830181845280855180835260408601915060408482028701019250838701855b82811015612fa8577fffffffffffffffffffffffffffffffffffffffffffffffffffffffffffffffc0888603018452612f96858351612cef565b94509285019290850190600101612f5c565b5092979650505050505050565b60006020825261298f6020830184612c8e565b901515815260200190565b60006020825261298f6020830184612cc3565b600060608252612ff96060830186612cc3565b6001600160a01b039490941660208301525060400152919050565b6000604082526130276040830185612cc3565b90508260208301529392505050565b60208082526013908201527f6e6f206665657320746f20776974686472617700000000000000000000000000604082015260600190565b60208082526012908201527f696e76616c696420746f6b656e20747970650000000000000000000000000000604082015260600190565b60208082526010908201527f63616c6c6572206e6f74206f776e657200000000000000000000000000000000604082015260600190565b60208082526018908201527f6e6f7420612067656d2066726f6d207468697320706f6f6c0000000000000000604082015260600190565b60208082526018908201527f696e73756666696369656e742067656d2062616c616e63650000000000000000604082015260600190565b60208082526014908201527f6f66666572206e6f742072656769737465726564000000000000000000000000604082015260600190565b6020808252602a908201527f55496e743235365365743a206b657920616c726561647920657869737473206960408201527f6e20746865207365742e00000000000000000000000000000000000000000000606082015260800190565b60208082526017908201527f696e73756666696369656e742061636365707420666565000000000000000000604082015260600190565b60208082526019908201527f6d69736d6174636865642067656d207175616e74697469657300000000000000604082015260600190565b6020808252600d908201527f746f6f206d616e792067656d7300000000000000000000000000000000000000604082015260600190565b60208082526028908201527f436f6e74726f6c6c61626c653a2063616c6c6572206973206e6f74206120636f60408201527f6e74726f6c6c6572000000000000000000000000000000000000000000000000606082015260800190565b60208082526012908201527f696e76616c696420696e707574202067656d0000000000000000000000000000604082015260600190565b60208082526016908201527f696e76616c696420746f6b656e207175616e7469747900000000000000000000604082015260600190565b60208082526016908201527f67656d20616c7265616479207265676973746572656400000000000000000000604082015260600190565b60208082526018908201527f696e73756666696369656e74206c697374696e67206665650000000000000000604082015260600190565b6020808252600c908201527f696e76616c696420706f6f6c0000000000000000000000000000000000000000604082015260600190565b60006020825261298f6020830184612cef565b90815260200190565b60008582526001600160a01b0385166020830152608060408301526134366080830185612c8e565b905082606083015295945050505050565b60405181810167ffffffffffffffff8111828210171561346957613469613501565b604052919050565b60008219821115613484576134846134eb565b500190565b60008282101561349b5761349b6134eb565b500390565b60005b838110156134bb5781810151838201526020016134a3565b838111156134ca576000848401525b50505050565b60006000198214156134e4576134e46134eb565b5060010190565b634e487b7160e01b600052601160045260246000fd5b634e487b7160e01b600052604160045260246000fdfea26469706673582212202b434585a29044775d24f6beff53acd212b01da26933ea195b55a2172307ddae64736f6c63430008000033",
  "libraries": {
    "Strings": "0xeB3E79099663eC952e02E608E00d463F36b4Fb75",
    "AddressSet": "0xe46E1A13694B72eC89126303d65247856bb0833e",
    "UInt256Set": "0x8B6893DB13b55d4952a51d5188215e2a470515a9",
    "Create2": "0xBa85d3e8E0F9e48F5c21649d33f6d0f9Af12E3f5",
    "WrappedTokenLib": "0x62903bE1Bb58395E0caB3fFd4f9965fe572D85FD",
    "ComplexPoolLib": "0xB584c63B7600c8694631749172bF454cCab247b4"
  },
  "devdoc": {
    "kind": "dev",
    "methods": {
      "addController(address)": {
        "details": "Add an address allowed to control this contract"
      },
      "isController(address)": {
        "details": "Check if this address is a controller"
      },
      "relinquishControl()": {
        "details": "Remove the sender address from the list of controllers"
      }
    },
    "version": 1
  },
  "userdoc": {
    "kind": "user",
    "methods": {},
    "version": 1
  },
  "storageLayout": {
    "storage": [
      {
        "astId": 12816,
        "contract": "src/market/SwapMeet.sol:SwapMeet",
        "label": "_controllers",
        "offset": 0,
        "slot": "0",
        "type": "t_mapping(t_address,t_bool)"
      },
      {
        "astId": 17488,
        "contract": "src/market/SwapMeet.sol:SwapMeet",
        "label": "feesBalance",
        "offset": 0,
        "slot": "1",
        "type": "t_uint256"
      },
      {
        "astId": 17491,
        "contract": "src/market/SwapMeet.sol:SwapMeet",
        "label": "feeManager",
        "offset": 0,
        "slot": "2",
        "type": "t_contract(INFTGemFeeManager)16035"
      },
      {
        "astId": 17494,
        "contract": "src/market/SwapMeet.sol:SwapMeet",
        "label": "multitoken",
        "offset": 0,
        "slot": "3",
        "type": "t_contract(INFTGemMultiToken)16261"
      },
      {
        "astId": 17519,
        "contract": "src/market/SwapMeet.sol:SwapMeet",
        "label": "offers",
        "offset": 0,
        "slot": "4",
        "type": "t_mapping(t_uint256,t_struct(Offer)16534_storage)"
      },
      {
        "astId": 17525,
        "contract": "src/market/SwapMeet.sol:SwapMeet",
        "label": "offersByOwner",
        "offset": 0,
        "slot": "5",
        "type": "t_mapping(t_address,t_array(t_struct(Offer)16534_storage)dyn_storage)"
      },
      {
        "astId": 17528,
        "contract": "src/market/SwapMeet.sol:SwapMeet",
        "label": "offerIds",
        "offset": 0,
        "slot": "6",
        "type": "t_struct(Set)17294_storage"
      },
      {
        "astId": 17532,
        "contract": "src/market/SwapMeet.sol:SwapMeet",
        "label": "proxyList",
        "offset": 0,
        "slot": "8",
        "type": "t_mapping(t_address,t_address)"
      }
    ],
    "types": {
      "t_address": {
        "encoding": "inplace",
        "label": "address",
        "numberOfBytes": "20"
      },
      "t_array(t_address)dyn_storage": {
        "base": "t_address",
        "encoding": "dynamic_array",
        "label": "address[]",
        "numberOfBytes": "32"
      },
      "t_array(t_struct(Offer)16534_storage)dyn_storage": {
        "base": "t_struct(Offer)16534_storage",
        "encoding": "dynamic_array",
        "label": "struct ISwapMeet.Offer[]",
        "numberOfBytes": "32"
      },
      "t_array(t_uint256)dyn_storage": {
        "base": "t_uint256",
        "encoding": "dynamic_array",
        "label": "uint256[]",
        "numberOfBytes": "32"
      },
      "t_bool": {
        "encoding": "inplace",
        "label": "bool",
        "numberOfBytes": "1"
      },
      "t_contract(INFTGemFeeManager)16035": {
        "encoding": "inplace",
        "label": "contract INFTGemFeeManager",
        "numberOfBytes": "20"
      },
      "t_contract(INFTGemMultiToken)16261": {
        "encoding": "inplace",
        "label": "contract INFTGemMultiToken",
        "numberOfBytes": "20"
      },
      "t_mapping(t_address,t_address)": {
        "encoding": "mapping",
        "key": "t_address",
        "label": "mapping(address => address)",
        "numberOfBytes": "32",
        "value": "t_address"
      },
      "t_mapping(t_address,t_array(t_struct(Offer)16534_storage)dyn_storage)": {
        "encoding": "mapping",
        "key": "t_address",
        "label": "mapping(address => struct ISwapMeet.Offer[])",
        "numberOfBytes": "32",
        "value": "t_array(t_struct(Offer)16534_storage)dyn_storage"
      },
      "t_mapping(t_address,t_bool)": {
        "encoding": "mapping",
        "key": "t_address",
        "label": "mapping(address => bool)",
        "numberOfBytes": "32",
        "value": "t_bool"
      },
      "t_mapping(t_uint256,t_struct(Offer)16534_storage)": {
        "encoding": "mapping",
        "key": "t_uint256",
        "label": "mapping(uint256 => struct ISwapMeet.Offer)",
        "numberOfBytes": "32",
        "value": "t_struct(Offer)16534_storage"
      },
      "t_mapping(t_uint256,t_uint256)": {
        "encoding": "mapping",
        "key": "t_uint256",
        "label": "mapping(uint256 => uint256)",
        "numberOfBytes": "32",
        "value": "t_uint256"
      },
      "t_struct(Offer)16534_storage": {
        "encoding": "inplace",
        "label": "struct ISwapMeet.Offer",
        "members": [
          {
            "astId": 16512,
            "contract": "src/market/SwapMeet.sol:SwapMeet",
            "label": "owner",
            "offset": 0,
            "slot": "0",
            "type": "t_address"
          },
          {
            "astId": 16514,
            "contract": "src/market/SwapMeet.sol:SwapMeet",
            "label": "pool",
            "offset": 0,
            "slot": "1",
            "type": "t_address"
          },
          {
            "astId": 16516,
            "contract": "src/market/SwapMeet.sol:SwapMeet",
            "label": "gem",
            "offset": 0,
            "slot": "2",
            "type": "t_uint256"
          },
          {
            "astId": 16519,
            "contract": "src/market/SwapMeet.sol:SwapMeet",
            "label": "pools",
            "offset": 0,
            "slot": "3",
            "type": "t_array(t_address)dyn_storage"
          },
          {
            "astId": 16522,
            "contract": "src/market/SwapMeet.sol:SwapMeet",
            "label": "gems",
            "offset": 0,
            "slot": "4",
            "type": "t_array(t_uint256)dyn_storage"
          },
          {
            "astId": 16525,
            "contract": "src/market/SwapMeet.sol:SwapMeet",
            "label": "quantities",
            "offset": 0,
            "slot": "5",
            "type": "t_array(t_uint256)dyn_storage"
          },
          {
            "astId": 16527,
            "contract": "src/market/SwapMeet.sol:SwapMeet",
            "label": "listingFee",
            "offset": 0,
            "slot": "6",
            "type": "t_uint256"
          },
          {
            "astId": 16529,
            "contract": "src/market/SwapMeet.sol:SwapMeet",
            "label": "acceptFee",
            "offset": 0,
            "slot": "7",
            "type": "t_uint256"
          },
          {
            "astId": 16531,
            "contract": "src/market/SwapMeet.sol:SwapMeet",
            "label": "references",
            "offset": 0,
            "slot": "8",
            "type": "t_uint256"
          },
          {
            "astId": 16533,
            "contract": "src/market/SwapMeet.sol:SwapMeet",
            "label": "missingTokenPenalty",
            "offset": 0,
            "slot": "9",
            "type": "t_bool"
          }
        ],
        "numberOfBytes": "320"
      },
      "t_struct(Set)17294_storage": {
        "encoding": "inplace",
        "label": "struct UInt256Set.Set",
        "members": [
          {
            "astId": 17290,
            "contract": "src/market/SwapMeet.sol:SwapMeet",
            "label": "keyPointers",
            "offset": 0,
            "slot": "0",
            "type": "t_mapping(t_uint256,t_uint256)"
          },
          {
            "astId": 17293,
            "contract": "src/market/SwapMeet.sol:SwapMeet",
            "label": "keyList",
            "offset": 0,
            "slot": "1",
            "type": "t_array(t_uint256)dyn_storage"
          }
        ],
        "numberOfBytes": "64"
      },
      "t_uint256": {
        "encoding": "inplace",
        "label": "uint256",
        "numberOfBytes": "32"
      }
    }
  }
}