{
  "address": "0x28a8C1c3f11047bb4D3a232a5580E6Ac2e0745F5",
  "abi": [
    {
      "inputs": [
        {
          "internalType": "address",
          "name": "_multitoken",
          "type": "address"
        },
        {
          "internalType": "address",
          "name": "_feeManager",
          "type": "address"
        }
      ],
      "stateMutability": "nonpayable",
      "type": "constructor"
    },
    {
      "anonymous": false,
      "inputs": [
        {
          "indexed": true,
          "internalType": "address",
          "name": "contractAddress",
          "type": "address"
        },
        {
          "indexed": true,
          "internalType": "address",
          "name": "controllerAddress",
          "type": "address"
        }
      ],
      "name": "ControllerAdded",
      "type": "event"
    },
    {
      "anonymous": false,
      "inputs": [
        {
          "indexed": true,
          "internalType": "address",
          "name": "contractAddress",
          "type": "address"
        },
        {
          "indexed": true,
          "internalType": "address",
          "name": "controllerAddress",
          "type": "address"
        }
      ],
      "name": "ControllerRemoved",
      "type": "event"
    },
    {
      "anonymous": false,
      "inputs": [
        {
          "indexed": false,
          "internalType": "uint256",
          "name": "_offerId",
          "type": "uint256"
        },
        {
          "indexed": false,
          "internalType": "address",
          "name": "_offerPool",
          "type": "address"
        },
        {
          "indexed": false,
          "internalType": "uint256",
          "name": "_offerItem",
          "type": "uint256"
        },
        {
          "indexed": false,
          "internalType": "address",
          "name": "_acceptor",
          "type": "address"
        },
        {
          "indexed": false,
          "internalType": "uint256[]",
          "name": "_gems",
          "type": "uint256[]"
        },
        {
          "indexed": false,
          "internalType": "uint256",
          "name": "_acceptFee",
          "type": "uint256"
        }
      ],
      "name": "OfferAccepted",
      "type": "event"
    },
    {
      "anonymous": false,
      "inputs": [
        {
          "indexed": false,
          "internalType": "address",
          "name": "_from",
          "type": "address"
        },
        {
          "indexed": false,
          "internalType": "uint256",
          "name": "_offerId",
          "type": "uint256"
        },
        {
          "indexed": false,
          "internalType": "address",
          "name": "_pool",
          "type": "address"
        },
        {
          "indexed": false,
          "internalType": "uint256",
          "name": "_gem",
          "type": "uint256"
        },
        {
          "indexed": false,
          "internalType": "address[]",
          "name": "_pools",
          "type": "address[]"
        },
        {
          "indexed": false,
          "internalType": "uint256[]",
          "name": "_gems",
          "type": "uint256[]"
        },
        {
          "indexed": false,
          "internalType": "uint256[]",
          "name": "_quantities",
          "type": "uint256[]"
        },
        {
          "indexed": false,
          "internalType": "uint256",
          "name": "_references",
          "type": "uint256"
        },
        {
          "indexed": false,
          "internalType": "uint256",
          "name": "_listingFee",
          "type": "uint256"
        }
      ],
      "name": "OfferRegistered",
      "type": "event"
    },
    {
      "anonymous": false,
      "inputs": [
        {
          "indexed": false,
          "internalType": "uint256",
          "name": "_offerId",
          "type": "uint256"
        }
      ],
      "name": "OfferUnregistered",
      "type": "event"
    },
    {
      "anonymous": false,
      "inputs": [
        {
          "indexed": false,
          "internalType": "address",
          "name": "_recipient",
          "type": "address"
        },
        {
          "indexed": false,
          "internalType": "uint256",
          "name": "_feesAmount",
          "type": "uint256"
        }
      ],
      "name": "SwapMeetFeesWithdrawn",
      "type": "event"
    },
    {
      "anonymous": false,
      "inputs": [
        {
          "indexed": false,
          "internalType": "bool",
          "name": "openState",
          "type": "bool"
        }
      ],
      "name": "SwapMeetIsOpen",
      "type": "event"
    },
    {
      "inputs": [],
      "name": "acceptFeeHash",
      "outputs": [
        {
          "internalType": "uint256",
          "name": "",
          "type": "uint256"
        }
      ],
      "stateMutability": "view",
      "type": "function"
    },
    {
      "inputs": [
        {
          "internalType": "uint256",
          "name": "_id",
          "type": "uint256"
        },
        {
          "internalType": "uint256[]",
          "name": "_gems",
          "type": "uint256[]"
        }
      ],
      "name": "acceptOffer",
      "outputs": [
        {
          "internalType": "bool",
          "name": "success",
          "type": "bool"
        }
      ],
      "stateMutability": "payable",
      "type": "function"
    },
    {
      "inputs": [
        {
          "internalType": "address",
          "name": "_controller",
          "type": "address"
        }
      ],
      "name": "addController",
      "outputs": [],
      "stateMutability": "nonpayable",
      "type": "function"
    },
    {
      "inputs": [
        {
          "internalType": "uint256",
          "name": "_id",
          "type": "uint256"
        }
      ],
      "name": "getOffer",
      "outputs": [
        {
          "components": [
            {
              "internalType": "address",
              "name": "owner",
              "type": "address"
            },
            {
              "internalType": "address",
              "name": "pool",
              "type": "address"
            },
            {
              "internalType": "uint256",
              "name": "gem",
              "type": "uint256"
            },
            {
              "internalType": "address[]",
              "name": "pools",
              "type": "address[]"
            },
            {
              "internalType": "uint256[]",
              "name": "gems",
              "type": "uint256[]"
            },
            {
              "internalType": "uint256[]",
              "name": "quantities",
              "type": "uint256[]"
            },
            {
              "internalType": "uint256",
              "name": "listingFee",
              "type": "uint256"
            },
            {
              "internalType": "uint256",
              "name": "acceptFee",
              "type": "uint256"
            },
            {
              "internalType": "uint256",
              "name": "references",
              "type": "uint256"
            },
            {
              "internalType": "bool",
              "name": "missingTokenPenalty",
              "type": "bool"
            }
          ],
          "internalType": "struct ISwapMeet.Offer",
          "name": "",
          "type": "tuple"
        }
      ],
      "stateMutability": "view",
      "type": "function"
    },
    {
      "inputs": [
        {
          "internalType": "address",
          "name": "_address",
          "type": "address"
        }
      ],
      "name": "isController",
      "outputs": [
        {
          "internalType": "bool",
          "name": "allowed",
          "type": "bool"
        }
      ],
      "stateMutability": "view",
      "type": "function"
    },
    {
      "inputs": [
        {
          "internalType": "uint256",
          "name": "_id",
          "type": "uint256"
        }
      ],
      "name": "isOffer",
      "outputs": [
        {
          "internalType": "bool",
          "name": "success",
          "type": "bool"
        }
      ],
      "stateMutability": "view",
      "type": "function"
    },
    {
      "inputs": [],
      "name": "isOpen",
      "outputs": [
        {
          "internalType": "bool",
          "name": "",
          "type": "bool"
        }
      ],
      "stateMutability": "view",
      "type": "function"
    },
    {
      "inputs": [],
      "name": "listOfferIds",
      "outputs": [
        {
          "internalType": "uint256[]",
          "name": "_offerIds",
          "type": "uint256[]"
        }
      ],
      "stateMutability": "view",
      "type": "function"
    },
    {
      "inputs": [],
      "name": "listOffers",
      "outputs": [
        {
          "components": [
            {
              "internalType": "address",
              "name": "owner",
              "type": "address"
            },
            {
              "internalType": "address",
              "name": "pool",
              "type": "address"
            },
            {
              "internalType": "uint256",
              "name": "gem",
              "type": "uint256"
            },
            {
              "internalType": "address[]",
              "name": "pools",
              "type": "address[]"
            },
            {
              "internalType": "uint256[]",
              "name": "gems",
              "type": "uint256[]"
            },
            {
              "internalType": "uint256[]",
              "name": "quantities",
              "type": "uint256[]"
            },
            {
              "internalType": "uint256",
              "name": "listingFee",
              "type": "uint256"
            },
            {
              "internalType": "uint256",
              "name": "acceptFee",
              "type": "uint256"
            },
            {
              "internalType": "uint256",
              "name": "references",
              "type": "uint256"
            },
            {
              "internalType": "bool",
              "name": "missingTokenPenalty",
              "type": "bool"
            }
          ],
          "internalType": "struct ISwapMeet.Offer[]",
          "name": "offersOut",
          "type": "tuple[]"
        }
      ],
      "stateMutability": "view",
      "type": "function"
    },
    {
      "inputs": [
        {
          "internalType": "address",
          "name": "ownerAddress",
          "type": "address"
        }
      ],
      "name": "listOffersByOwner",
      "outputs": [
        {
          "components": [
            {
              "internalType": "address",
              "name": "owner",
              "type": "address"
            },
            {
              "internalType": "address",
              "name": "pool",
              "type": "address"
            },
            {
              "internalType": "uint256",
              "name": "gem",
              "type": "uint256"
            },
            {
              "internalType": "address[]",
              "name": "pools",
              "type": "address[]"
            },
            {
              "internalType": "uint256[]",
              "name": "gems",
              "type": "uint256[]"
            },
            {
              "internalType": "uint256[]",
              "name": "quantities",
              "type": "uint256[]"
            },
            {
              "internalType": "uint256",
              "name": "listingFee",
              "type": "uint256"
            },
            {
              "internalType": "uint256",
              "name": "acceptFee",
              "type": "uint256"
            },
            {
              "internalType": "uint256",
              "name": "references",
              "type": "uint256"
            },
            {
              "internalType": "bool",
              "name": "missingTokenPenalty",
              "type": "bool"
            }
          ],
          "internalType": "struct ISwapMeet.Offer[]",
          "name": "_ids",
          "type": "tuple[]"
        }
      ],
      "stateMutability": "view",
      "type": "function"
    },
    {
      "inputs": [],
      "name": "listingFeeHash",
      "outputs": [
        {
          "internalType": "uint256",
          "name": "",
          "type": "uint256"
        }
      ],
      "stateMutability": "view",
      "type": "function"
    },
    {
      "inputs": [
        {
          "internalType": "address",
          "name": "input",
          "type": "address"
        }
      ],
      "name": "proxies",
      "outputs": [
        {
          "internalType": "address",
          "name": "",
          "type": "address"
        }
      ],
      "stateMutability": "view",
      "type": "function"
    },
    {
      "inputs": [
        {
          "internalType": "address",
          "name": "_pool",
          "type": "address"
        },
        {
          "internalType": "uint256",
          "name": "_gem",
          "type": "uint256"
        },
        {
          "internalType": "address[]",
          "name": "_pools",
          "type": "address[]"
        },
        {
          "internalType": "uint256[]",
          "name": "_gems",
          "type": "uint256[]"
        },
        {
          "internalType": "uint256[]",
          "name": "_quantities",
          "type": "uint256[]"
        },
        {
          "internalType": "uint256",
          "name": "references",
          "type": "uint256"
        }
      ],
      "name": "registerOffer",
      "outputs": [
        {
          "components": [
            {
              "internalType": "address",
              "name": "owner",
              "type": "address"
            },
            {
              "internalType": "address",
              "name": "pool",
              "type": "address"
            },
            {
              "internalType": "uint256",
              "name": "gem",
              "type": "uint256"
            },
            {
              "internalType": "address[]",
              "name": "pools",
              "type": "address[]"
            },
            {
              "internalType": "uint256[]",
              "name": "gems",
              "type": "uint256[]"
            },
            {
              "internalType": "uint256[]",
              "name": "quantities",
              "type": "uint256[]"
            },
            {
              "internalType": "uint256",
              "name": "listingFee",
              "type": "uint256"
            },
            {
              "internalType": "uint256",
              "name": "acceptFee",
              "type": "uint256"
            },
            {
              "internalType": "uint256",
              "name": "references",
              "type": "uint256"
            },
            {
              "internalType": "bool",
              "name": "missingTokenPenalty",
              "type": "bool"
            }
          ],
          "internalType": "struct ISwapMeet.Offer",
          "name": "_offer",
          "type": "tuple"
        }
      ],
      "stateMutability": "payable",
      "type": "function"
    },
    {
      "inputs": [],
      "name": "relinquishControl",
      "outputs": [],
      "stateMutability": "nonpayable",
      "type": "function"
    },
    {
      "inputs": [
        {
          "internalType": "bool",
          "name": "openState",
          "type": "bool"
        }
      ],
      "name": "setOpenState",
      "outputs": [],
      "stateMutability": "nonpayable",
      "type": "function"
    },
    {
      "inputs": [
        {
          "internalType": "uint256",
          "name": "_id",
          "type": "uint256"
        }
      ],
      "name": "unregisterOffer",
      "outputs": [
        {
          "internalType": "bool",
          "name": "success",
          "type": "bool"
        }
      ],
      "stateMutability": "nonpayable",
      "type": "function"
    },
    {
      "inputs": [
        {
          "internalType": "address",
          "name": "_receiver",
          "type": "address"
        }
      ],
      "name": "withdrawFees",
      "outputs": [],
      "stateMutability": "nonpayable",
      "type": "function"
    }
  ],
  "transactionHash": "0xb194764aa0f2579a0b61dfe53343e1f76e0843b4731b494ff134b4de78932e23",
  "args": [
    "0xdF99eb724ecaB8cE906EA637342aD9c3E7844F98",
    "0xf6efadEF8F3939A81c420C8086A4774Ce891CaDd"
  ],
  "solcInputHash": "2d2f4ad3fdc4b1ca8ac0f60db5b68735",
  "bytecode": "0x60806040523480156200001157600080fd5b50604051620038e7380380620038e78339810160408190526200003491620000c9565b6200003f3362000088565b600380546001600160a01b0319166001600160a01b0393841617905560028054610100600160a81b03191661010092909316919091029190911760ff1916600117905562000100565b6001600160a01b03166000908152602081905260409020805460ff19166001179055565b80516001600160a01b0381168114620000c457600080fd5b919050565b60008060408385031215620000dc578182fd5b620000e783620000ac565b9150620000f760208401620000ac565b90509250929050565b6137d780620001106000396000f3fe60806040526004361061010e5760003560e01c8063b429afeb116100a5578063e0c8f57311610074578063ebd133da11610059578063ebd133da146102e6578063f1514f12146102fb578063f36c616f146103105761010e565b8063e0c8f573146102af578063e1c28bef146102d15761010e565b8063b429afeb14610220578063b8f27b9114610240578063c455279114610260578063d56a97821461028d5761010e565b8063667bfbac116100e1578063667bfbac146101a05780638f05be52146101cd578063a0c59979146101e0578063a7fc7a07146102005761010e565b8063164e68de1461011357806331983366146101355780634579268a1461015e57806347535d7b1461018b575b600080fd5b34801561011f57600080fd5b5061013361012e366004612b39565b610330565b005b610148610143366004612d11565b610418565b60405161015591906131ac565b60405180910390f35b34801561016a57600080fd5b5061017e610179366004612ce1565b610ef2565b6040516101559190613641565b34801561019757600080fd5b506101486110a6565b3480156101ac57600080fd5b506101c06101bb366004612b39565b6110af565b604051610155919061311b565b61017e6101db366004612b5a565b61128c565b3480156101ec57600080fd5b506101486101fb366004612ce1565b611ccb565b34801561020c57600080fd5b5061013361021b366004612b39565b6120fe565b34801561022c57600080fd5b5061014861023b366004612b39565b612160565b34801561024c57600080fd5b5061014861025b366004612ce1565b61217e565b34801561026c57600080fd5b5061028061027b366004612b39565b61218b565b6040516101559190612f8b565b34801561029957600080fd5b506102a26121a9565b6040516101559190613654565b3480156102bb57600080fd5b506102c46121cd565b6040516101559190613199565b3480156102dd57600080fd5b50610133612228565b3480156102f257600080fd5b506101c061227f565b34801561030757600080fd5b506102a26124e8565b34801561031c57600080fd5b5061013361032b366004612c12565b61250c565b3360009081526020819052604090205460ff1615156001148061035257503033145b6103775760405162461bcd60e51b815260040161036e90613463565b60405180910390fd5b6000600154116103995760405162461bcd60e51b815260040161036e90613217565b6001805460009182905560405190916001600160a01b0384169183156108fc0291849190818181858888f193505050501580156103da573d6000803e3d6000fd5b507f02733937f9e82db2299a456e9848434a9a1534244dc1796264c719237b307f83828260405161040c929190613055565b60405180910390a15050565b6002546040517f39b37ab000000000000000000000000000000000000000000000000000000000815260009182916101009091046001600160a01b0316906339b37ab09061048a907f27c08a1671399b6816045d86602ffa6404f756deddc6a5a58270d7c7668d5eb890600401613654565b60206040518083038186803b1580156104a257600080fd5b505afa1580156104b6573d6000803e3d6000fd5b505050506040513d601f19601f820116820180604052508101906104da9190612cf9565b905080156104e857806104f1565b662386f26fc100005b90506105326040518060400160405280601981526020017f6163636570744f666665723a20616363657074466565203d200000000000000081525082612599565b61053d600685612610565b6105595760405162461bcd60e51b815260040161036e90613361565b803410156105795760405162461bcd60e51b815260040161036e906133f5565b6105b76040518060400160405280602081526020017f6163636570744f666665723a20626173696320636865636b732070617373656481525061266c565b6000805b8451811015610a20576000808683815181106105e757634e487b7160e01b600052603260045260246000fd5b6020026020010151905060008080600090505b60008b8152600460205260409020600301548110156109d25760008b815260046020819052604082200180548390811061064457634e487b7160e01b600052603260045260246000fd5b906000526020600020015490506106906040518060400160405280600d81526020017f726571756972656d656e743a200000000000000000000000000000000000000081525082612599565b6106cf6040518060400160405280600681526020017f706f6f6c3a200000000000000000000000000000000000000000000000000000815250846126e0565b60008c815260046020526040812060030180548490811061070057634e487b7160e01b600052603260045260246000fd5b6000918252602090912001548c516001600160a01b039091169063e6c3b1f6908e908b90811061074057634e487b7160e01b600052603260045260246000fd5b60200260200101516040518263ffffffff1660e01b81526004016107649190613654565b60206040518083038186803b15801561077c57600080fd5b505afa158015610790573d6000803e3d6000fd5b505050506040513d601f19601f820116820180604052508101906107b49190612c32565b905060028160028111156107d857634e487b7160e01b600052602160045260246000fd5b14156109bd5760008d815260046020526040902060030180548490811061080f57634e487b7160e01b600052603260045260246000fd5b6000918252602090912001546001600160a01b031693508461083957886108358161375a565b9950505b6003548c516001600160a01b039091169062fdd58e9033908f908c90811061087157634e487b7160e01b600052603260045260246000fd5b60200260200101516040518363ffffffff1660e01b8152600401610896929190613055565b60206040518083038186803b1580156108ae57600080fd5b505afa1580156108c2573d6000803e3d6000fd5b505050506040513d601f19601f820116820180604052508101906108e69190612cf9565b6108f090866136fb565b94506109598c898151811061091557634e487b7160e01b600052603260045260246000fd5b60200260200101516040518060400160405280600a81526020017f2062616c616e63653a200000000000000000000000000000000000000000000081525087612753565b811561097e5785821461097e5760405162461bcd60e51b815260040161036e906134f7565b60008d81526004602052604090206005018054849081106109af57634e487b7160e01b600052603260045260246000fd5b906000526020600020015496505b505080806109ca9061375a565b9150506105fa565b506001600160a01b038116158015906109eb5750838210155b610a075760405162461bcd60e51b815260040161036e9061324e565b50839250610a18915082905061375a565b9150506105bb565b506000858152600460205260409020600301548114610a515760405162461bcd60e51b815260040161036e906134c0565b600354600086815260046020819052604091829020805460029091015492517efdd58e0000000000000000000000000000000000000000000000000000000081526001600160a01b039485169462fdd58e94610ab39491909316929101613055565b60206040518083038186803b158015610acb57600080fd5b505afa158015610adf573d6000803e3d6000fd5b505050506040513d601f19601f82011682018060405250810190610b039190612cf9565b610b5957600085815260046020526040808220600901805460ff1916600117905551909350339083156108fc0290849086818181858888f19350505050158015610b51573d6000803e3d6000fd5b505050610eec565b610b976040518060400160405280602081526020017f6163636570744f666665723a2073656e6465722062616c616e636520676f6f6481525061266c565b600085815260046020526040902060060154610bb390836136fb565b60016000828254610bc491906136fb565b9091555050600085815260046020818152604080842060018101546002820154338088526008865284882080546001600160a01b03191630179055600354978d905294869052825493517f2eb2c2d60000000000000000000000000000000000000000000000000000000081526001600160a01b0392831697919691831695632eb2c2d695610c5f95919416928d9260059092019101612f9f565b600060405180830381600087803b158015610c7957600080fd5b505af1158015610c8d573d6000803e3d6000fd5b50503360009081526008602090815260409182902080546001600160a01b03191690558151808301909252601b82527f6163636570744f666665723a207472616e73666572206261746368000000000090820152610ced9250905061266c565b600087815260046020818152604080842080546001600160a01b0390811686526008845282862080546001600160a01b03191630179055600354958d905292849052805460029091015491517ff242432a0000000000000000000000000000000000000000000000000000000081529483169463f242432a94610d7c949290921692339290916001910161301d565b600060405180830381600087803b158015610d9657600080fd5b505af1158015610daa573d6000803e3d6000fd5b5050506000888152600460209081526040808320546001600160a01b03168352600882529182902080546001600160a01b03191690558151808301909252601982527f6163636570744f666665723a207472616e736665722067656d0000000000000090820152610e1b915061266c565b610e266006886127cd565b600087815260046020526040812080546001600160a01b0319908116825560018201805490911690556002810182905590610e646003830182612963565b610e72600483016000612963565b610e80600583016000612963565b50600060068201819055600782018190556008820155600901805460ff191690556040517fce05c4ed78377b656038b2e130a49e0d1dfe8479b0610fcb433e2267961e066690610edb9089908590859033908c908b9061365d565b60405180910390a160019450505050505b92915050565b610efa612981565b610f05600683612610565b610f215760405162461bcd60e51b815260040161036e90613361565b60008281526004602090815260409182902082516101408101845281546001600160a01b039081168252600183015416818401526002820154818501526003820180548551818602810186019096528086529194929360608601939290830182828015610fb757602002820191906000526020600020905b81546001600160a01b03168152600190910190602001808311610f99575b505050505081526020016004820180548060200260200160405190810160405280929190818152602001828054801561100f57602002820191906000526020600020905b815481526020019060010190808311610ffb575b505050505081526020016005820180548060200260200160405190810160405280929190818152602001828054801561106757602002820191906000526020600020905b815481526020019060010190808311611053575b505050918352505060068201546020820152600782015460408201526008820154606082015260099091015460ff16151560809091015290505b919050565b60025460ff1690565b6001600160a01b0381166000908152600560209081526040808320805482518185028101850190935280835260609492939192909184015b828210156112815760008481526020908190206040805161014081018252600a860290920180546001600160a01b039081168452600182015416838501526002810154838301526003810180548351818702810187019094528084529394919360608601939283018282801561118657602002820191906000526020600020905b81546001600160a01b03168152600190910190602001808311611168575b50505050508152602001600482018054806020026020016040519081016040528092919081815260200182805480156111de57602002820191906000526020600020905b8154815260200190600101908083116111ca575b505050505081526020016005820180548060200260200160405190810160405280929190818152602001828054801561123657602002820191906000526020600020905b815481526020019060010190808311611222575b50505091835250506006820154602080830191909152600783015460408301526008830154606083015260099092015460ff16151560809091015290825260019290920191016110e7565b505050509050919050565b611294612981565b60025460ff166112b65760405162461bcd60e51b815260040161036e9061352e565b6002546040517f39b37ab000000000000000000000000000000000000000000000000000000000815260009161010090046001600160a01b0316906339b37ab090611325907f726cc96215520a07a8f8e0fe476c027c6c44853185ef22ddac273ab1c037ca4390600401613654565b60206040518083038186803b15801561133d57600080fd5b505afa158015611351573d6000803e3d6000fd5b505050506040513d601f19601f820116820180604052508101906113759190612cf9565b90508015611383578061138c565b662386f26fc100005b905061139960068b612610565b156113b65760405162461bcd60e51b815260040161036e9061359c565b8588146113d55760405162461bcd60e51b815260040161036e9061342c565b803410156113f55760405162461bcd60e51b815260040161036e906135d3565b6003546040517efdd58e0000000000000000000000000000000000000000000000000000000081526000916001600160a01b03169062fdd58e9061143f9033908f90600401613055565b60206040518083038186803b15801561145757600080fd5b505afa15801561146b573d6000803e3d6000fd5b505050506040513d601f19601f8201168201806040525081019061148f9190612cf9565b116114ac5760405162461bcd60e51b815260040161036e9061332a565b6040517fe6c3b1f60000000000000000000000000000000000000000000000000000000081526000906001600160a01b038d169063e6c3b1f6906114f4908e90600401613654565b60206040518083038186803b15801561150c57600080fd5b505afa158015611520573d6000803e3d6000fd5b505050506040513d601f19601f820116820180604052508101906115449190612c32565b9050600281600281111561156857634e487b7160e01b600052602160045260246000fd5b146115855760405162461bcd60e51b815260040161036e90613285565b60005b85811015611827578888828181106115b057634e487b7160e01b600052603260045260246000fd5b90506020020135600014156116a4578a8a828181106115df57634e487b7160e01b600052603260045260246000fd5b90506020020160208101906115f49190612b39565b6001600160a01b03166395d89b416040518163ffffffff1660e01b815260040160006040518083038186803b15801561162c57600080fd5b505afa92505050801561166157506040513d6000823e601f3d908101601f1916820160405261165e9190810190612c51565b60015b61167d5760405162461bcd60e51b815260040161036e9061360a565b600081511161169e5760405162461bcd60e51b815260040161036e9061360a565b506117cf565b8a8a828181106116c457634e487b7160e01b600052603260045260246000fd5b90506020020160208101906116d99190612b39565b6001600160a01b031663e6c3b1f68a8a8481811061170757634e487b7160e01b600052603260045260246000fd5b905060200201356040518263ffffffff1660e01b815260040161172a9190613654565b60206040518083038186803b15801561174257600080fd5b505afa925050508015611772575060408051601f3d908101601f1916820190925261176f91810190612c32565b60015b61178e5760405162461bcd60e51b815260040161036e9061360a565b60028160028111156117b057634e487b7160e01b600052602160045260246000fd5b146117cd5760405162461bcd60e51b815260040161036e906132f3565b505b60008787838181106117f157634e487b7160e01b600052603260045260246000fd5b90506020020135116118155760405162461bcd60e51b815260040161036e90613565565b8061181f8161375a565b915050611588565b50604051806101400160405280336001600160a01b031681526020018d6001600160a01b031681526020018c81526020018b8b808060200260200160405190810160405280939291908181526020018383602002808284376000920191909152505050908252506040805160208b810282810182019093528b82529283019290918c918c91829185019084908082843760009201919091525050509082525060408051602089810282810182019093528982529283019290918a918a91829185019084908082843760009201829052509385525050506020808301869052604080840183905260608085018a905260809094018390528f83526004825291829020845181546001600160a01b039182166001600160a01b031991821617835586840151600184018054919093169116179055918401516002830155918301518051919261197c926003850192909101906129e8565b5060808201518051611998916004840191602090910190612a49565b5060a082015180516119b4916005840191602090910190612a49565b5060c082015160068281019190915560e083015160078301556101008301516008830155610120909201516009909101805460ff19169115159190911790556119fd908c6128de565b3360009081526005602090815260408083208e845260048352908320815460018082018455928552929093208354600a9093020180546001600160a01b039384166001600160a01b0319918216178255828501549282018054939094169216919091179091556002808301549082015560038083018054611a819284019190612a84565b5060048281018054611a969284019190612a84565b5060058281018054611aab9284019190612a84565b506006828101549082015560078083015490820155600880830154908201556009918201549101805460ff191660ff909216151591909117905560008b81526004602090815260409182902082516101408101845281546001600160a01b039081168252600183015416818401526002820154818501526003820180548551818602810186019096528086529194929360608601939290830182828015611b7b57602002820191906000526020600020905b81546001600160a01b03168152600190910190602001808311611b5d575b5050505050815260200160048201805480602002602001604051908101604052809291908181526020018280548015611bd357602002820191906000526020600020905b815481526020019060010190808311611bbf575b5050505050815260200160058201805480602002602001604051908101604052809291908181526020018280548015611c2b57602002820191906000526020600020905b815481526020019060010190808311611c17575b505050505081526020016006820154815260200160078201548152602001600882015481526020016009820160009054906101000a900460ff16151515158152505092507fff5491dfeca32e5172cf0a5b4b00845fc6fc56971fa6a6aa43638177be53c663338c8e8e8e8e8e8e8e8e8e8d604051611cb49c9b9a9998979695949392919061306e565b60405180910390a150509998505050505050505050565b6000611cd8600683612610565b1515600114611cf95760405162461bcd60e51b815260040161036e90613361565b6000828152600460205260409020546001600160a01b03163314611d2f5760405162461bcd60e51b815260040161036e906132bc565b600082815260046020526040902060068082015460098301549254909260ff16916001600160a01b0390911690611d6690866127cd565b600085815260046020526040812080546001600160a01b0319908116825560018201805490911690556002810182905590611da46003830182612963565b611db2600483016000612963565b611dc0600583016000612963565b5060006006820181905560078201819055600882018190556009909101805460ff191690555b6001600160a01b03821660009081526005602052604090205481101561207e576001600160a01b0382166000908152600560205260409020805487919083908110611e4157634e487b7160e01b600052603260045260246000fd5b90600052602060002090600a020160020154141561206e576001600160a01b03821660009081526005602052604090208054611e7f90600190613713565b81548110611e9d57634e487b7160e01b600052603260045260246000fd5b90600052602060002090600a020160056000846001600160a01b03166001600160a01b031681526020019081526020016000208281548110611eef57634e487b7160e01b600052603260045260246000fd5b600091825260209091208254600a9092020180546001600160a01b039283166001600160a01b03199182161782556001808501549083018054919094169116179091556002808301549082015560038083018054611f509284019190612a84565b5060048281018054611f659284019190612a84565b5060058281018054611f7a9284019190612a84565b506006828101549082015560078083015490820155600880830154908201556009918201549101805460ff191660ff90921615159190911790556001600160a01b0382166000908152600560205260409020805480611fe957634e487b7160e01b600052603160045260246000fd5b600082815260208120600a6000199093019283020180546001600160a01b031990811682556001820180549091169055600281018290559061202e6003830182612963565b61203c600483016000612963565b61204a600583016000612963565b50600060068201819055600782018190556008820155600901805460ff1916905590555b6120778161375a565b9050611de6565b50816120bc576040516001600160a01b0382169084156108fc029085906000818181858888f193505050501580156120ba573d6000803e3d6000fd5b505b7f6fe9d3036555a48d846210fc929918eea7466f43b5a3b3561c9e650328b7a9c1856040516120eb9190613654565b60405180910390a1506001949350505050565b3360009081526020819052604090205460ff1615156001148061212057503033145b61213c5760405162461bcd60e51b815260040161036e90613463565b6001600160a01b03166000908152602081905260409020805460ff19166001179055565b6001600160a01b031660009081526020819052604090205460ff1690565b6000610eec600683612610565b6001600160a01b039081166000908152600860205260409020541690565b7f726cc96215520a07a8f8e0fe476c027c6c44853185ef22ddac273ab1c037ca4381565b6060600660010180548060200260200160405190810160405280929190818152602001828054801561221e57602002820191906000526020600020905b81548152602001906001019080831161220a575b5050505050905090565b3360009081526020819052604090205460ff1615156001148061224a57503033145b6122665760405162461bcd60e51b815260040161036e90613463565b336000908152602081905260409020805460ff19169055565b60075460609067ffffffffffffffff8111156122ab57634e487b7160e01b600052604160045260246000fd5b6040519080825280602002602001820160405280156122e457816020015b6122d1612981565b8152602001906001900390816122c95790505b50905060005b6007548110156124e457600460006006600101838154811061231c57634e487b7160e01b600052603260045260246000fd5b60009182526020808320909101548352828101939093526040918201902081516101408101835281546001600160a01b039081168252600183015416818501526002820154818401526003820180548451818702810187019095528085529194929360608601939092908301828280156123bf57602002820191906000526020600020905b81546001600160a01b031681526001909101906020018083116123a1575b505050505081526020016004820180548060200260200160405190810160405280929190818152602001828054801561241757602002820191906000526020600020905b815481526020019060010190808311612403575b505050505081526020016005820180548060200260200160405190810160405280929190818152602001828054801561246f57602002820191906000526020600020905b81548152602001906001019080831161245b575b505050918352505060068201546020820152600782015460408201526008820154606082015260099091015460ff16151560809091015282518390839081106124c857634e487b7160e01b600052603260045260246000fd5b6020026020010181905250806124dd9061375a565b90506122ea565b5090565b7f27c08a1671399b6816045d86602ffa6404f756deddc6a5a58270d7c7668d5eb881565b3360009081526020819052604090205460ff1615156001148061252e57503033145b61254a5760405162461bcd60e51b815260040161036e90613463565b6002805460ff191682151517908190556040517fc1d88cff745a1941632e2942e18e1c3456bf9296d0efc79df68e11c56a47424e9161258e9160ff909116906131ac565b60405180910390a150565b61260c82826040516024016125af9291906131f5565b60408051601f198184030181529190526020810180517bffffffffffffffffffffffffffffffffffffffffffffffffffffffff167f9710a9d00000000000000000000000000000000000000000000000000000000017905261293b565b5050565b600182015460009061262457506000610eec565b600082815260208490526040902054600184018054849290811061265857634e487b7160e01b600052603260045260246000fd5b906000526020600020015414905092915050565b6126dd8160405160240161268091906131b7565b60408051601f198184030181529190526020810180517bffffffffffffffffffffffffffffffffffffffffffffffffffffffff167f41304fac0000000000000000000000000000000000000000000000000000000017905261293b565b50565b61260c82826040516024016126f69291906131ca565b60408051601f198184030181529190526020810180517bffffffffffffffffffffffffffffffffffffffffffffffffffffffff167f319af3330000000000000000000000000000000000000000000000000000000017905261293b565b6127c883838360405160240161276b939291906136a8565b60408051601f198184030181529190526020810180517bffffffffffffffffffffffffffffffffffffffffffffffffffffffff167f5b6de83f0000000000000000000000000000000000000000000000000000000017905261293b565b505050565b6127d78282612610565b6127e05761260c565b600060016127ed8461295c565b6127f79190613713565b60008381526020859052604090205490915080821461288e57600084600101838154811061283557634e487b7160e01b600052603260045260246000fd5b9060005260206000200154905081856000016000838152602001908152602001600020819055508085600101838154811061288057634e487b7160e01b600052603260045260246000fd5b600091825260209091200155505b6000838152602085905260408120556001808501805490916128af91613713565b815481106128cd57634e487b7160e01b600052603260045260246000fd5b600091825260208220015550505050565b6128e88282612610565b156129055760405162461bcd60e51b815260040161036e90613398565b60018083018054808301825560008281526020902001839055546129299190613713565b60009182526020929092526040902055565b80516a636f6e736f6c652e6c6f67602083016000808483855afa5050505050565b6001015490565b50805460008255906000526020600020908101906126dd9190612ac4565b60405180610140016040528060006001600160a01b0316815260200160006001600160a01b03168152602001600081526020016060815260200160608152602001606081526020016000815260200160008152602001600081526020016000151581525090565b828054828255906000526020600020908101928215612a3d579160200282015b82811115612a3d57825182546001600160a01b0319166001600160a01b03909116178255602090920191600190910190612a08565b506124e4929150612ac4565b828054828255906000526020600020908101928215612a3d579160200282015b82811115612a3d578251825591602001919060010190612a69565b828054828255906000526020600020908101928215612a3d5760005260206000209182015b82811115612a3d578254825591600101919060010190612aa9565b5b808211156124e45760008155600101612ac5565b80356001600160a01b03811681146110a157600080fd5b60008083601f840112612b01578182fd5b50813567ffffffffffffffff811115612b18578182fd5b6020830191508360208083028501011115612b3257600080fd5b9250929050565b600060208284031215612b4a578081fd5b612b5382612ad9565b9392505050565b600080600080600080600080600060c08a8c031215612b77578485fd5b612b808a612ad9565b985060208a0135975060408a013567ffffffffffffffff80821115612ba3578687fd5b612baf8d838e01612af0565b909950975060608c0135915080821115612bc7578687fd5b612bd38d838e01612af0565b909750955060808c0135915080821115612beb578485fd5b50612bf88c828d01612af0565b9a9d999c50979a9699959894979660a00135949350505050565b600060208284031215612c23578081fd5b81358015158114612b53578182fd5b600060208284031215612c43578081fd5b815160038110612b53578182fd5b600060208284031215612c62578081fd5b815167ffffffffffffffff80821115612c79578283fd5b818401915084601f830112612c8c578283fd5b815181811115612c9e57612c9e61378b565b612cb16020601f19601f840116016136d1565b9150808252856020828501011115612cc7578384fd5b612cd881602084016020860161372a565b50949350505050565b600060208284031215612cf2578081fd5b5035919050565b600060208284031215612d0a578081fd5b5051919050565b60008060408385031215612d23578182fd5b8235915060208084013567ffffffffffffffff80821115612d42578384fd5b818601915086601f830112612d55578384fd5b813581811115612d6757612d6761378b565b8381029150612d778483016136d1565b8181528481019084860184860187018b1015612d91578788fd5b8795505b83861015612db3578035835260019590950194918601918601612d95565b508096505050505050509250929050565b6001600160a01b0316815260200190565b6001600160a01b03169052565b6000815180845260208085019450808401835b83811015612e1a5781516001600160a01b031687529582019590820190600101612df5565b509495945050505050565b60008284527f07ffffffffffffffffffffffffffffffffffffffffffffffffffffffffffffff831115612e56578081fd5b6020830280836020870137939093016020019283525090919050565b6000815180845260208085019450808401835b83811015612e1a57815187529582019590820190600101612e85565b15159052565b60008151808452612ebf81602086016020860161372a565b601f01601f19169290920160200192915050565b6000610140612ee3848451612dd5565b6020830151612ef56020860182612dd5565b50604083015160408501526060830151816060860152612f1782860182612de2565b91505060808301518482036080860152612f318282612e72565b91505060a083015184820360a0860152612f4b8282612e72565b91505060c083015160c085015260e083015160e085015261010080840151818601525061012080840151612f8182870182612ea1565b5090949350505050565b6001600160a01b0391909116815260200190565b60006001600160a01b03808716835260208187168185015260a06040850152612fcb60a0850187612e72565b84810360608601528554808252868552828520935090820190845b8181101561300257845483526001948501949284019201612fe6565b50508481036080909501949094529183525001949350505050565b6001600160a01b0394851681529290931660208301526040820152606081019190915260a06080820181905260009082015260c00190565b6001600160a01b03929092168252602082015260400190565b6001600160a01b038d81168252602082018d90528b166040820152606081018a9052610120608082018190528101889052600061014082018a825b8b8110156130d4576130c3836130be84612ad9565b612dc4565b9250602091909101906001016130a9565b505082810360a08401526130e981898b612e25565b905082810360c08401526130fe818789612e25565b60e0840195909552505061010001529a9950505050505050505050565b6000602080830181845280855180835260408601915060408482028701019250838701855b8281101561318c577fffffffffffffffffffffffffffffffffffffffffffffffffffffffffffffffc088860301845261317a858351612ed3565b94509285019290850190600101613140565b5092979650505050505050565b600060208252612b536020830184612e72565b901515815260200190565b600060208252612b536020830184612ea7565b6000604082526131dd6040830185612ea7565b90506001600160a01b03831660208301529392505050565b6000604082526132086040830185612ea7565b90508260208301529392505050565b60208082526013908201527f6e6f206665657320746f20776974686472617700000000000000000000000000604082015260600190565b60208082526018908201527f496e73756666696369656e742067656d2062616c616e63650000000000000000604082015260600190565b60208082526012908201527f696e76616c696420746f6b656e20747970650000000000000000000000000000604082015260600190565b60208082526010908201527f63616c6c6572206e6f74206f776e657200000000000000000000000000000000604082015260600190565b60208082526018908201527f6e6f7420612067656d2066726f6d207468697320706f6f6c0000000000000000604082015260600190565b60208082526018908201527f696e73756666696369656e742067656d2062616c616e63650000000000000000604082015260600190565b60208082526014908201527f6f66666572206e6f742072656769737465726564000000000000000000000000604082015260600190565b6020808252602a908201527f55496e743235365365743a206b657920616c726561647920657869737473206960408201527f6e20746865207365742e00000000000000000000000000000000000000000000606082015260800190565b60208082526017908201527f696e73756666696369656e742061636365707420666565000000000000000000604082015260600190565b60208082526019908201527f6d69736d6174636865642067656d207175616e74697469657300000000000000604082015260600190565b60208082526028908201527f436f6e74726f6c6c61626c653a2063616c6c6572206973206e6f74206120636f60408201527f6e74726f6c6c6572000000000000000000000000000000000000000000000000606082015260800190565b60208082526016908201527f636f6e646974696f6e7320756e73617469736669656400000000000000000000604082015260600190565b6020808252600c908201527f67656d206d69736d617463680000000000000000000000000000000000000000604082015260600190565b60208082526010908201527f73776170206d65657420636c6f73656400000000000000000000000000000000604082015260600190565b60208082526016908201527f696e76616c696420746f6b656e207175616e7469747900000000000000000000604082015260600190565b60208082526016908201527f67656d20616c7265616479207265676973746572656400000000000000000000604082015260600190565b60208082526018908201527f696e73756666696369656e74206c697374696e67206665650000000000000000604082015260600190565b6020808252600c908201527f696e76616c696420706f6f6c0000000000000000000000000000000000000000604082015260600190565b600060208252612b536020830184612ed3565b90815260200190565b60008782526001600160a01b03808816602084015286604084015280861660608401525060c0608083015261369560c0830185612e72565b90508260a0830152979650505050505050565b6000848252606060208301526136c16060830185612ea7565b9050826040830152949350505050565b60405181810167ffffffffffffffff811182821017156136f3576136f361378b565b604052919050565b6000821982111561370e5761370e613775565b500190565b60008282101561372557613725613775565b500390565b60005b8381101561374557818101518382015260200161372d565b83811115613754576000848401525b50505050565b600060001982141561376e5761376e613775565b5060010190565b634e487b7160e01b600052601160045260246000fd5b634e487b7160e01b600052604160045260246000fdfea2646970667358221220525d78d5e39373868e189c1dc4eaf1ec6d67e41121e5e132c42bb178cd577ef564736f6c63430008000033",
  "libraries": {
    "Strings": "0xeB3E79099663eC952e02E608E00d463F36b4Fb75",
    "AddressSet": "0x8974D57fCfF9C10E9d41709da86d006604D8c75d",
    "UInt256Set": "0x8B6893DB13b55d4952a51d5188215e2a470515a9",
    "Create2": "0xBa85d3e8E0F9e48F5c21649d33f6d0f9Af12E3f5",
    "WrappedTokenLib": "0x0307a2E913FD8fb384a939Cfb7655C30820727D8",
    "ComplexPoolLib": "0x3802c9d35c585ac6668e24A93Bb341D50662aA4E"
  },
  "devdoc": {
    "kind": "dev",
    "methods": {
      "addController(address)": {
        "details": "Add an address allowed to control this contract"
      },
      "isController(address)": {
        "details": "Check if this address is a controller"
      },
      "relinquishControl()": {
        "details": "Remove the sender address from the list of controllers"
      }
    },
    "version": 1
  },
  "userdoc": {
    "kind": "user",
    "methods": {},
    "version": 1
  },
  "storageLayout": {
    "storage": [
      {
        "astId": 12816,
        "contract": "src/market/SwapMeet.sol:SwapMeet",
        "label": "_controllers",
        "offset": 0,
        "slot": "0",
        "type": "t_mapping(t_address,t_bool)"
      },
      {
        "astId": 17541,
        "contract": "src/market/SwapMeet.sol:SwapMeet",
        "label": "feesBalance",
        "offset": 0,
        "slot": "1",
        "type": "t_uint256"
      },
      {
        "astId": 17543,
        "contract": "src/market/SwapMeet.sol:SwapMeet",
        "label": "open",
        "offset": 0,
        "slot": "2",
        "type": "t_bool"
      },
      {
        "astId": 17546,
        "contract": "src/market/SwapMeet.sol:SwapMeet",
        "label": "feeManager",
        "offset": 1,
        "slot": "2",
        "type": "t_contract(INFTGemFeeManager)16051"
      },
      {
        "astId": 17549,
        "contract": "src/market/SwapMeet.sol:SwapMeet",
        "label": "multitoken",
        "offset": 0,
        "slot": "3",
        "type": "t_contract(INFTGemMultiToken)16291"
      },
      {
        "astId": 17574,
        "contract": "src/market/SwapMeet.sol:SwapMeet",
        "label": "offers",
        "offset": 0,
        "slot": "4",
        "type": "t_mapping(t_uint256,t_struct(Offer)16564_storage)"
      },
      {
        "astId": 17580,
        "contract": "src/market/SwapMeet.sol:SwapMeet",
        "label": "offersByOwner",
        "offset": 0,
        "slot": "5",
        "type": "t_mapping(t_address,t_array(t_struct(Offer)16564_storage)dyn_storage)"
      },
      {
        "astId": 17583,
        "contract": "src/market/SwapMeet.sol:SwapMeet",
        "label": "offerIds",
        "offset": 0,
        "slot": "6",
        "type": "t_struct(Set)17347_storage"
      },
      {
        "astId": 17587,
        "contract": "src/market/SwapMeet.sol:SwapMeet",
        "label": "proxyList",
        "offset": 0,
        "slot": "8",
        "type": "t_mapping(t_address,t_address)"
      }
    ],
    "types": {
      "t_address": {
        "encoding": "inplace",
        "label": "address",
        "numberOfBytes": "20"
      },
      "t_array(t_address)dyn_storage": {
        "base": "t_address",
        "encoding": "dynamic_array",
        "label": "address[]",
        "numberOfBytes": "32"
      },
      "t_array(t_struct(Offer)16564_storage)dyn_storage": {
        "base": "t_struct(Offer)16564_storage",
        "encoding": "dynamic_array",
        "label": "struct ISwapMeet.Offer[]",
        "numberOfBytes": "32"
      },
      "t_array(t_uint256)dyn_storage": {
        "base": "t_uint256",
        "encoding": "dynamic_array",
        "label": "uint256[]",
        "numberOfBytes": "32"
      },
      "t_bool": {
        "encoding": "inplace",
        "label": "bool",
        "numberOfBytes": "1"
      },
      "t_contract(INFTGemFeeManager)16051": {
        "encoding": "inplace",
        "label": "contract INFTGemFeeManager",
        "numberOfBytes": "20"
      },
      "t_contract(INFTGemMultiToken)16291": {
        "encoding": "inplace",
        "label": "contract INFTGemMultiToken",
        "numberOfBytes": "20"
      },
      "t_mapping(t_address,t_address)": {
        "encoding": "mapping",
        "key": "t_address",
        "label": "mapping(address => address)",
        "numberOfBytes": "32",
        "value": "t_address"
      },
      "t_mapping(t_address,t_array(t_struct(Offer)16564_storage)dyn_storage)": {
        "encoding": "mapping",
        "key": "t_address",
        "label": "mapping(address => struct ISwapMeet.Offer[])",
        "numberOfBytes": "32",
        "value": "t_array(t_struct(Offer)16564_storage)dyn_storage"
      },
      "t_mapping(t_address,t_bool)": {
        "encoding": "mapping",
        "key": "t_address",
        "label": "mapping(address => bool)",
        "numberOfBytes": "32",
        "value": "t_bool"
      },
      "t_mapping(t_uint256,t_struct(Offer)16564_storage)": {
        "encoding": "mapping",
        "key": "t_uint256",
        "label": "mapping(uint256 => struct ISwapMeet.Offer)",
        "numberOfBytes": "32",
        "value": "t_struct(Offer)16564_storage"
      },
      "t_mapping(t_uint256,t_uint256)": {
        "encoding": "mapping",
        "key": "t_uint256",
        "label": "mapping(uint256 => uint256)",
        "numberOfBytes": "32",
        "value": "t_uint256"
      },
      "t_struct(Offer)16564_storage": {
        "encoding": "inplace",
        "label": "struct ISwapMeet.Offer",
        "members": [
          {
            "astId": 16542,
            "contract": "src/market/SwapMeet.sol:SwapMeet",
            "label": "owner",
            "offset": 0,
            "slot": "0",
            "type": "t_address"
          },
          {
            "astId": 16544,
            "contract": "src/market/SwapMeet.sol:SwapMeet",
            "label": "pool",
            "offset": 0,
            "slot": "1",
            "type": "t_address"
          },
          {
            "astId": 16546,
            "contract": "src/market/SwapMeet.sol:SwapMeet",
            "label": "gem",
            "offset": 0,
            "slot": "2",
            "type": "t_uint256"
          },
          {
            "astId": 16549,
            "contract": "src/market/SwapMeet.sol:SwapMeet",
            "label": "pools",
            "offset": 0,
            "slot": "3",
            "type": "t_array(t_address)dyn_storage"
          },
          {
            "astId": 16552,
            "contract": "src/market/SwapMeet.sol:SwapMeet",
            "label": "gems",
            "offset": 0,
            "slot": "4",
            "type": "t_array(t_uint256)dyn_storage"
          },
          {
            "astId": 16555,
            "contract": "src/market/SwapMeet.sol:SwapMeet",
            "label": "quantities",
            "offset": 0,
            "slot": "5",
            "type": "t_array(t_uint256)dyn_storage"
          },
          {
            "astId": 16557,
            "contract": "src/market/SwapMeet.sol:SwapMeet",
            "label": "listingFee",
            "offset": 0,
            "slot": "6",
            "type": "t_uint256"
          },
          {
            "astId": 16559,
            "contract": "src/market/SwapMeet.sol:SwapMeet",
            "label": "acceptFee",
            "offset": 0,
            "slot": "7",
            "type": "t_uint256"
          },
          {
            "astId": 16561,
            "contract": "src/market/SwapMeet.sol:SwapMeet",
            "label": "references",
            "offset": 0,
            "slot": "8",
            "type": "t_uint256"
          },
          {
            "astId": 16563,
            "contract": "src/market/SwapMeet.sol:SwapMeet",
            "label": "missingTokenPenalty",
            "offset": 0,
            "slot": "9",
            "type": "t_bool"
          }
        ],
        "numberOfBytes": "320"
      },
      "t_struct(Set)17347_storage": {
        "encoding": "inplace",
        "label": "struct UInt256Set.Set",
        "members": [
          {
            "astId": 17343,
            "contract": "src/market/SwapMeet.sol:SwapMeet",
            "label": "keyPointers",
            "offset": 0,
            "slot": "0",
            "type": "t_mapping(t_uint256,t_uint256)"
          },
          {
            "astId": 17346,
            "contract": "src/market/SwapMeet.sol:SwapMeet",
            "label": "keyList",
            "offset": 0,
            "slot": "1",
            "type": "t_array(t_uint256)dyn_storage"
          }
        ],
        "numberOfBytes": "64"
      },
      "t_uint256": {
        "encoding": "inplace",
        "label": "uint256",
        "numberOfBytes": "32"
      }
    }
  }
}