{
  "address": "0x3718b3296f5AbbbC8138Ff915a959FB9B2d5829E",
  "abi": [
    {
      "inputs": [
        {
          "internalType": "address",
          "name": "_multitoken",
          "type": "address"
        }
      ],
      "stateMutability": "nonpayable",
      "type": "constructor"
    },
    {
      "anonymous": false,
      "inputs": [
        {
          "indexed": true,
          "internalType": "address",
          "name": "contractAddress",
          "type": "address"
        },
        {
          "indexed": true,
          "internalType": "address",
          "name": "controllerAddress",
          "type": "address"
        }
      ],
      "name": "ControllerAdded",
      "type": "event"
    },
    {
      "anonymous": false,
      "inputs": [
        {
          "indexed": true,
          "internalType": "address",
          "name": "contractAddress",
          "type": "address"
        },
        {
          "indexed": true,
          "internalType": "address",
          "name": "controllerAddress",
          "type": "address"
        }
      ],
      "name": "ControllerRemoved",
      "type": "event"
    },
    {
      "anonymous": false,
      "inputs": [
        {
          "indexed": false,
          "internalType": "uint256",
          "name": "_offerId",
          "type": "uint256"
        },
        {
          "indexed": false,
          "internalType": "address",
          "name": "_acceptor",
          "type": "address"
        },
        {
          "indexed": false,
          "internalType": "uint256[]",
          "name": "_gems",
          "type": "uint256[]"
        }
      ],
      "name": "OfferAccepted",
      "type": "event"
    },
    {
      "anonymous": false,
      "inputs": [
        {
          "indexed": false,
          "internalType": "address",
          "name": "_from",
          "type": "address"
        },
        {
          "indexed": false,
          "internalType": "uint256",
          "name": "_offerId",
          "type": "uint256"
        },
        {
          "indexed": false,
          "internalType": "address",
          "name": "_pool",
          "type": "address"
        },
        {
          "indexed": false,
          "internalType": "uint256",
          "name": "_gem",
          "type": "uint256"
        },
        {
          "indexed": false,
          "internalType": "address[]",
          "name": "_pools",
          "type": "address[]"
        },
        {
          "indexed": false,
          "internalType": "uint256[]",
          "name": "_gems",
          "type": "uint256[]"
        },
        {
          "indexed": false,
          "internalType": "uint256",
          "name": "_references",
          "type": "uint256"
        }
      ],
      "name": "OfferRegistered",
      "type": "event"
    },
    {
      "anonymous": false,
      "inputs": [
        {
          "indexed": false,
          "internalType": "uint256",
          "name": "_offerId",
          "type": "uint256"
        }
      ],
      "name": "OfferUnregistered",
      "type": "event"
    },
    {
      "inputs": [
        {
          "internalType": "uint256",
          "name": "_id",
          "type": "uint256"
        },
        {
          "internalType": "uint256[]",
          "name": "_gems",
          "type": "uint256[]"
        }
      ],
      "name": "acceptOffer",
      "outputs": [
        {
          "internalType": "bool",
          "name": "success",
          "type": "bool"
        }
      ],
      "stateMutability": "payable",
      "type": "function"
    },
    {
      "inputs": [
        {
          "internalType": "address",
          "name": "_controller",
          "type": "address"
        }
      ],
      "name": "addController",
      "outputs": [],
      "stateMutability": "nonpayable",
      "type": "function"
    },
    {
      "inputs": [
        {
          "internalType": "uint256",
          "name": "_id",
          "type": "uint256"
        }
      ],
      "name": "getOfferDetails",
      "outputs": [
        {
          "internalType": "address",
          "name": "_owner",
          "type": "address"
        },
        {
          "internalType": "address",
          "name": "_pool",
          "type": "address"
        },
        {
          "internalType": "uint256",
          "name": "_gem",
          "type": "uint256"
        },
        {
          "internalType": "address[]",
          "name": "_pools",
          "type": "address[]"
        },
        {
          "internalType": "uint256[]",
          "name": "_gems",
          "type": "uint256[]"
        },
        {
          "internalType": "uint256",
          "name": "_references",
          "type": "uint256"
        }
      ],
      "stateMutability": "view",
      "type": "function"
    },
    {
      "inputs": [
        {
          "internalType": "address",
          "name": "_address",
          "type": "address"
        }
      ],
      "name": "isController",
      "outputs": [
        {
          "internalType": "bool",
          "name": "allowed",
          "type": "bool"
        }
      ],
      "stateMutability": "view",
      "type": "function"
    },
    {
      "inputs": [
        {
          "internalType": "uint256",
          "name": "_id",
          "type": "uint256"
        }
      ],
      "name": "isOffer",
      "outputs": [
        {
          "internalType": "bool",
          "name": "success",
          "type": "bool"
        }
      ],
      "stateMutability": "view",
      "type": "function"
    },
    {
      "inputs": [],
      "name": "listOffers",
      "outputs": [
        {
          "internalType": "uint256[]",
          "name": "_ids",
          "type": "uint256[]"
        }
      ],
      "stateMutability": "view",
      "type": "function"
    },
    {
      "inputs": [
        {
          "internalType": "address",
          "name": "ownerAddress",
          "type": "address"
        }
      ],
      "name": "listOffersByOwner",
      "outputs": [
        {
          "components": [
            {
              "internalType": "address",
              "name": "owner",
              "type": "address"
            },
            {
              "internalType": "address",
              "name": "pool",
              "type": "address"
            },
            {
              "internalType": "uint256",
              "name": "gem",
              "type": "uint256"
            },
            {
              "internalType": "address[]",
              "name": "pools",
              "type": "address[]"
            },
            {
              "internalType": "uint256[]",
              "name": "gems",
              "type": "uint256[]"
            },
            {
              "internalType": "uint256",
              "name": "listingFee",
              "type": "uint256"
            },
            {
              "internalType": "uint256",
              "name": "references",
              "type": "uint256"
            },
            {
              "internalType": "bool",
              "name": "missingTokenPenalty",
              "type": "bool"
            }
          ],
          "internalType": "struct ISwapMeet.Offer[]",
          "name": "_ids",
          "type": "tuple[]"
        }
      ],
      "stateMutability": "view",
      "type": "function"
    },
    {
      "inputs": [
        {
          "internalType": "address",
          "name": "input",
          "type": "address"
        }
      ],
      "name": "proxies",
      "outputs": [
        {
          "internalType": "address",
          "name": "",
          "type": "address"
        }
      ],
      "stateMutability": "pure",
      "type": "function"
    },
    {
      "inputs": [
        {
          "internalType": "address",
          "name": "_pool",
          "type": "address"
        },
        {
          "internalType": "uint256",
          "name": "_gem",
          "type": "uint256"
        },
        {
          "internalType": "address[]",
          "name": "_pools",
          "type": "address[]"
        },
        {
          "internalType": "uint256[]",
          "name": "_gems",
          "type": "uint256[]"
        },
        {
          "internalType": "uint256",
          "name": "references",
          "type": "uint256"
        }
      ],
      "name": "registerOffer",
      "outputs": [
        {
          "internalType": "uint256",
          "name": "_id",
          "type": "uint256"
        }
      ],
      "stateMutability": "payable",
      "type": "function"
    },
    {
      "inputs": [],
      "name": "relinquishControl",
      "outputs": [],
      "stateMutability": "nonpayable",
      "type": "function"
    },
    {
      "inputs": [
        {
          "internalType": "uint256",
          "name": "_id",
          "type": "uint256"
        }
      ],
      "name": "unregisterOffer",
      "outputs": [
        {
          "internalType": "bool",
          "name": "success",
          "type": "bool"
        }
      ],
      "stateMutability": "nonpayable",
      "type": "function"
    },
    {
      "inputs": [
        {
          "internalType": "uint256",
          "name": "_fee",
          "type": "uint256"
        }
      ],
      "name": "updateAcceptFee",
      "outputs": [],
      "stateMutability": "nonpayable",
      "type": "function"
    },
    {
      "inputs": [
        {
          "internalType": "uint256",
          "name": "_fee",
          "type": "uint256"
        }
      ],
      "name": "updateListingFee",
      "outputs": [],
      "stateMutability": "nonpayable",
      "type": "function"
    },
    {
      "inputs": [
        {
          "internalType": "address",
          "name": "_receiver",
          "type": "address"
        }
      ],
      "name": "withdrawFees",
      "outputs": [],
      "stateMutability": "nonpayable",
      "type": "function"
    }
  ],
  "transactionHash": "0x8ba4b57f74c7543eadef70bf3502c26d4a75f711d6eb85588ec43f11b08a9ba9",
  "args": [
    "0xabbc9A75D8A19A1545EA1D705eBa072D77d29B32"
  ],
  "solcInputHash": "740c3c5eb2ce5711bb433746ab97e47f",
  "bytecode": "0x60806040523480156200001157600080fd5b50604051620025093803806200250983398101604081905262000034916200009a565b6200003f3362000076565b600480546001600160a01b0319166001600160a01b0392909216919091179055670de0b6b3a76400006002819055600355620000ca565b6001600160a01b03166000908152602081905260409020805460ff19166001179055565b600060208284031215620000ac578081fd5b81516001600160a01b0381168114620000c3578182fd5b9392505050565b61242f80620000da6000396000f3fe6080604052600436106100dd5760003560e01c8063b5ded0bb1161007f578063c57e3fd811610059578063c57e3fd814610259578063e1c28bef14610279578063ebd133da1461028e578063f79d91ae146102b0576100dd565b8063b5ded0bb146101ec578063b8f27b911461020c578063c45527911461022c576100dd565b8063667bfbac116100bb578063667bfbac1461015f578063a0c599791461018c578063a7fc7a07146101ac578063b429afeb146101cc576100dd565b8063164e68de146100e257806331983366146101045780634fb64be21461012d575b600080fd5b3480156100ee57600080fd5b506101026100fd366004611ba4565b6102d0565b005b610117610112366004611cf6565b61037f565b6040516101249190612047565b60405180910390f35b34801561013957600080fd5b5061014d610148366004611cc6565b610adb565b60405161012496959493929190611e2c565b34801561016b57600080fd5b5061017f61017a366004611ba4565b610c5d565b6040516101249190611f34565b34801561019857600080fd5b506101176101a7366004611cc6565b610dd8565b3480156101b857600080fd5b506101026101c7366004611ba4565b6111b0565b3480156101d857600080fd5b506101176101e7366004611ba4565b611212565b6101ff6101fa366004611bc5565b611230565b60405161012491906122fb565b34801561021857600080fd5b50610117610227366004611cc6565b6116e4565b34801561023857600080fd5b5061024c610247366004611ba4565b6116f1565b6040516101249190611dc0565b34801561026557600080fd5b50610102610274366004611cc6565b6116f4565b34801561028557600080fd5b50610102611737565b34801561029a57600080fd5b506102a361178e565b6040516101249190612034565b3480156102bc57600080fd5b506101026102cb366004611cc6565b6117e9565b3360009081526020819052604090205460ff161515600114806102f257503033145b6103175760405162461bcd60e51b815260040161030e906121f9565b60405180910390fd5b6000600154116103395760405162461bcd60e51b815260040161030e90612052565b6001805460009182905560405190916001600160a01b0384169183156108fc0291849190818181858888f1935050505015801561037a573d6000803e3d6000fd5b505050565b600061038c60078461182c565b6103a85760405162461bcd60e51b815260040161030e906120f7565b600083815260056020526040902060040154825111156103da5760405162461bcd60e51b815260040161030e906121c2565b6003543410156103fc5760405162461bcd60e51b815260040161030e9061218b565b600083815260056020908152604080832081516101008101835281546001600160a01b0390811682526001830154168185015260028201548184015260038201805484518187028101870190955280855291949293606086019390929083018282801561049257602002820191906000526020600020905b81546001600160a01b03168152600190910190602001808311610474575b50505050508152602001600482018054806020026020016040519081016040528092919081815260200182805480156104ea57602002820191906000526020600020905b8154815260200190600101908083116104d6575b5050509183525050600582015460208201526006820154604082015260079091015460ff161515606090910152835190915060009067ffffffffffffffff81111561054557634e487b7160e01b600052604160045260246000fd5b60405190808252806020026020018201604052801561056e578160200160208202803683370190505b50905060005b826060015151811015610814576000836060015182815181106105a757634e487b7160e01b600052603260045260246000fd5b60200260200101519050600082856080015151116105c65760006105f3565b846080015183815181106105ea57634e487b7160e01b600052603260045260246000fd5b60200260200101515b9050806106295786838151811061061a57634e487b7160e01b600052603260045260246000fd5b60200260200101519050610657565b8087848151811061064a57634e487b7160e01b600052603260045260246000fd5b6020026020010181815250505b60048054604051627eeac760e11b81526001926001600160a01b039092169162fdd58e91610689913391879101611ebc565b60206040518083038186803b1580156106a157600080fd5b505afa1580156106b5573d6000803e3d6000fd5b505050506040513d601f19601f820116820180604052508101906106d99190611cde565b10156106f75760405162461bcd60e51b815260040161030e906120c0565b6040517fe6c3b1f60000000000000000000000000000000000000000000000000000000081526000906001600160a01b0384169063e6c3b1f69061073f9085906004016122fb565b60206040518083038186803b15801561075757600080fd5b505afa15801561076b573d6000803e3d6000fd5b505050506040513d601f19601f8201168201806040525081019061078f9190611ca7565b905060018160018111156107b357634e487b7160e01b600052602160045260246000fd5b146107d05760405162461bcd60e51b815260040161030e90612089565b60018585815181106107f257634e487b7160e01b600052603260045260246000fd5b602002602001018181525050505050808061080c906123b2565b915050610574565b506004805483516040808601519051627eeac760e11b81526001600160a01b039093169362fdd58e9361084993929101611ebc565b60206040518083038186803b15801561086157600080fd5b505afa158015610875573d6000803e3d6000fd5b505050506040513d601f19601f820116820180604052508101906108999190611cde565b6108dd57600160e083015260035460405160009450339180156108fc029186818181858888f193505050501580156108d5573d6000803e3d6000fd5b505050610ad5565b6004805483516040517f2eb2c2d60000000000000000000000000000000000000000000000000000000081526001600160a01b0390921692632eb2c2d69261092d92339290918a91889101611dd4565b600060405180830381600087803b15801561094757600080fd5b505af115801561095b573d6000803e3d6000fd5b505060048054855160408088015190517ff242432a0000000000000000000000000000000000000000000000000000000081526001600160a01b03909316955063f242432a94506109b3939192339260019101611e84565b600060405180830381600087803b1580156109cd57600080fd5b505af11580156109e1573d6000803e3d6000fd5b505050506109f985600761188890919063ffffffff16565b6000858152600560205260408120805473ffffffffffffffffffffffffffffffffffffffff19908116825560018201805490911690556002810182905590610a4460038301826119fe565b610a526004830160006119fe565b506000600582018190556006820155600701805460ff19169055600254600354610a7c9190612383565b60016000828254610a8d9190612383565b90915550506040517f0b1213d489843d757e6bc6979688ef07931340177ed6dbfbac5abda307379d0c90610ac690879033908890612304565b60405180910390a16001925050505b92915050565b6000808060608082610aee60078861182c565b610b0a5760405162461bcd60e51b815260040161030e906120f7565b600087815260056020908152604080832081516101008101835281546001600160a01b03908116825260018301541681850152600282015481840152600382018054845181870281018701909552808552919492936060860193909290830182828015610ba057602002820191906000526020600020905b81546001600160a01b03168152600190910190602001808311610b82575b5050505050815260200160048201805480602002602001604051908101604052809291908181526020018280548015610bf857602002820191906000526020600020905b815481526020019060010190808311610be4575b50505091835250506005820154602080830191909152600683015460408084019190915260079093015460ff1615156060928301528351908401519284015191840151608085015160c090950151919d939c50919a5090985091965090945092505050565b6001600160a01b0381166000908152600660209081526040808320805482518185028101850190935280835260609492939192909184015b82821015610dcd57600084815260209081902060408051610100810182526008860290920180546001600160a01b0390811684526001820154168385015260028101548383015260038101805483518187028101870190945280845293949193606086019392830182828015610d3457602002820191906000526020600020905b81546001600160a01b03168152600190910190602001808311610d16575b5050505050815260200160048201805480602002602001604051908101604052809291908181526020018280548015610d8c57602002820191906000526020600020905b815481526020019060010190808311610d78575b505050918352505060058201546020808301919091526006830154604083015260079092015460ff1615156060909101529082526001929092019101610c95565b505050509050919050565b6000818152600560205260408120546001600160a01b03163314610e0e5760405162461bcd60e51b815260040161030e9061228d565b610e1960078361182c565b610e355760405162461bcd60e51b815260040161030e906120f7565b600082815260056020819052604090912090810154600791820154909160ff90911690610e629085611888565b6000848152600560205260408120805473ffffffffffffffffffffffffffffffffffffffff19908116825560018201805490911690556002810182905590610ead60038301826119fe565b610ebb6004830160006119fe565b50600060058201819055600682018190556007909101805460ff191690555b3360009081526006602052604090205481101561113857336000908152600660205260409020805486919083908110610f2357634e487b7160e01b600052603260045260246000fd5b9060005260206000209060080201600201541415611128573360009081526006602052604090208054610f589060019061239b565b81548110610f7657634e487b7160e01b600052603260045260246000fd5b906000526020600020906008020160066000336001600160a01b03166001600160a01b031681526020019081526020016000208281548110610fc857634e487b7160e01b600052603260045260246000fd5b60009182526020909120825460089092020180546001600160a01b0392831673ffffffffffffffffffffffffffffffffffffffff1991821617825560018085015490830180549190941691161790915560028083015490820155600380830180546110369284019190611a1f565b506004828101805461104b9284019190611a1f565b50600582810154908201556006808301548183015560079283015492909101805460ff191660ff909316151592909217909155336000908152602091909152604090208054806110ab57634e487b7160e01b600052603160045260246000fd5b600082815260208120600860001990930192830201805473ffffffffffffffffffffffffffffffffffffffff199081168255600182018054909116905560028101829055906110fd60038301826119fe565b61110b6004830160006119fe565b506000600582018190556006820155600701805460ff1916905590555b611131816123b2565b9050610eda565b508061116d57604051339083156108fc029084906000818181858888f1935050505015801561116b573d6000803e3d6000fd5b505b7f6fe9d3036555a48d846210fc929918eea7466f43b5a3b3561c9e650328b7a9c18460405161119c91906122fb565b60405180910390a16001925050505b919050565b3360009081526020819052604090205460ff161515600114806111d257503033145b6111ee5760405162461bcd60e51b815260040161030e906121f9565b6001600160a01b03166000908152602081905260409020805460ff19166001179055565b6001600160a01b031660009081526020819052604090205460ff1690565b600061123d60078661182c565b1561125a5760405162461bcd60e51b815260040161030e90612256565b83518351111561127c5760405162461bcd60e51b815260040161030e906121c2565b60025434101561129e5760405162461bcd60e51b815260040161030e906122c4565b60048054604051627eeac760e11b81526001600160a01b039091169162fdd58e916112cd9133918a9101611ebc565b60206040518083038186803b1580156112e557600080fd5b505afa1580156112f9573d6000803e3d6000fd5b505050506040513d601f19601f8201168201806040525081019061131d9190611cde565b60011461133c5760405162461bcd60e51b815260040161030e906120c0565b6040517fe6c3b1f60000000000000000000000000000000000000000000000000000000081526000906001600160a01b0388169063e6c3b1f6906113849089906004016122fb565b60206040518083038186803b15801561139c57600080fd5b505afa1580156113b0573d6000803e3d6000fd5b505050506040513d601f19601f820116820180604052508101906113d49190611ca7565b905060018160018111156113f857634e487b7160e01b600052602160045260246000fd5b146114155760405162461bcd60e51b815260040161030e90612089565b60048054604051627eeac760e11b81526001926001600160a01b039092169162fdd58e916114479133918c9101611ebc565b60206040518083038186803b15801561145f57600080fd5b505afa158015611473573d6000803e3d6000fd5b505050506040513d601f19601f820116820180604052508101906114979190611cde565b10156114b55760405162461bcd60e51b815260040161030e906120c0565b60408051610100810182523381526001600160a01b0389811660208084019182528385018b8152606085018b8152608086018b90526002805460a088015260c087018b9052600060e088018190528e815260058552979097208651815490871673ffffffffffffffffffffffffffffffffffffffff19918216178255945160018201805491909716951694909417909455519482019490945590518051929384936115669260038501920190611a6f565b5060808201518051611582916004840191602090910190611ad1565b5060a0820151600582015560c0820151600682015560e0909101516007918201805460ff19169115159190911790556115bb908861199a565b33600090815260066020908152604080832080546001818101835591855293839020855160089095020180546001600160a01b0395861673ffffffffffffffffffffffffffffffffffffffff1991821617825586850151928201805493909616921691909117909355830151600283015560608301518051849392611647926003850192910190611a6f565b5060808201518051611663916004840191602090910190611ad1565b5060a0820151600582015560c0820151600682015560e0909101516007909101805460ff19169115159190911790556040518793507ff2ea5bab929b53498a38b3a12131929d55308c87c2d39dc16ae58f3d2c64107a906116d190339086908c9082908c908c908c90611ed5565b60405180910390a1505095945050505050565b6000610ad560078361182c565b90565b3360009081526020819052604090205460ff1615156001148061171657503033145b6117325760405162461bcd60e51b815260040161030e906121f9565b600355565b3360009081526020819052604090205460ff1615156001148061175957503033145b6117755760405162461bcd60e51b815260040161030e906121f9565b336000908152602081905260409020805460ff19169055565b606060076001018054806020026020016040519081016040528092919081815260200182805480156117df57602002820191906000526020600020905b8154815260200190600101908083116117cb575b5050505050905090565b3360009081526020819052604090205460ff1615156001148061180b57503033145b6118275760405162461bcd60e51b815260040161030e906121f9565b600255565b600182015460009061184057506000610ad5565b600082815260208490526040902054600184018054849290811061187457634e487b7160e01b600052603260045260246000fd5b906000526020600020015414905092915050565b611892828261182c565b61189b57611996565b600060016118a8846119f7565b6118b2919061239b565b6000838152602085905260409020549091508082146119495760008460010183815481106118f057634e487b7160e01b600052603260045260246000fd5b9060005260206000200154905081856000016000838152602001908152602001600020819055508085600101838154811061193b57634e487b7160e01b600052603260045260246000fd5b600091825260209091200155505b60008381526020859052604081205560018085018054909161196a9161239b565b8154811061198857634e487b7160e01b600052603260045260246000fd5b600091825260208220015550505b5050565b6119a4828261182c565b156119c15760405162461bcd60e51b815260040161030e9061212e565b60018083018054808301825560008281526020902001839055546119e5919061239b565b60009182526020929092526040902055565b6001015490565b5080546000825590600052602060002090810190611a1c9190611b0c565b50565b828054828255906000526020600020908101928215611a5f5760005260206000209182015b82811115611a5f578254825591600101919060010190611a44565b50611a6b929150611b0c565b5090565b828054828255906000526020600020908101928215611a5f579160200282015b82811115611a5f578251825473ffffffffffffffffffffffffffffffffffffffff19166001600160a01b03909116178255602090920191600190910190611a8f565b828054828255906000526020600020908101928215611a5f579160200282015b82811115611a5f578251825591602001919060010190611af1565b5b80821115611a6b5760008155600101611b0d565b80356001600160a01b03811681146111ab57600080fd5b600082601f830112611b48578081fd5b81356020611b5d611b588361235f565b612335565b8281528181019085830183850287018401881015611b79578586fd5b855b85811015611b9757813584529284019290840190600101611b7b565b5090979650505050505050565b600060208284031215611bb5578081fd5b611bbe82611b21565b9392505050565b600080600080600060a08688031215611bdc578081fd5b611be586611b21565b94506020808701359450604087013567ffffffffffffffff80821115611c09578384fd5b818901915089601f830112611c1c578384fd5b8135611c2a611b588261235f565b81815284810190848601868402860187018e1015611c46578788fd5b8795505b83861015611c6f57611c5b81611b21565b835260019590950194918601918601611c4a565b50975050506060890135925080831115611c87578384fd5b5050611c9588828901611b38565b95989497509295608001359392505050565b600060208284031215611cb8578081fd5b815160028110611bbe578182fd5b600060208284031215611cd7578081fd5b5035919050565b600060208284031215611cef578081fd5b5051919050565b60008060408385031215611d08578182fd5b82359150602083013567ffffffffffffffff811115611d25578182fd5b611d3185828601611b38565b9150509250929050565b6001600160a01b03169052565b6000815180845260208085019450808401835b83811015611d805781516001600160a01b031687529582019590820190600101611d5b565b509495945050505050565b6000815180845260208085019450808401835b83811015611d8057815187529582019590820190600101611d9e565b15159052565b6001600160a01b0391909116815260200190565b60006001600160a01b03808716835280861660208401525060a06040830152611e0060a0830185611d8b565b8281036060840152611e128185611d8b565b838103608090940193909352508152602001949350505050565b60006001600160a01b03808916835280881660208401525085604083015260c06060830152611e5e60c0830186611d48565b8281036080840152611e708186611d8b565b9150508260a0830152979650505050505050565b6001600160a01b0394851681529290931660208301526040820152606081019190915260a06080820181905260009082015260c00190565b6001600160a01b03929092168252602082015260400190565b60006001600160a01b03808a16835288602084015280881660408401525085606083015260e06080830152611f0d60e0830186611d48565b82810360a0840152611f1f8186611d8b565b9150508260c083015298975050505050505050565b60208082528251828201819052600091906040908185019080840286018301878501865b83811015612026577fffffffffffffffffffffffffffffffffffffffffffffffffffffffffffffffc089840301855281516101006001600160a01b03825116855288820151611fa98a870182611d3b565b5087820151888601526060808301518282880152611fc983880182611d48565b9250505060808083015186830382880152611fe48382611d8b565b9250505060a080830151818701525060c080830151818701525060e080830151925061201281870184611dba565b509588019593505090860190600101611f58565b509098975050505050505050565b600060208252611bbe6020830184611d8b565b901515815260200190565b60208082526013908201527f6e6f206665657320746f20776974686472617700000000000000000000000000604082015260600190565b60208082526012908201527f696e76616c696420746f6b656e20747970650000000000000000000000000000604082015260600190565b60208082526018908201527f696e73756666696369656e742067656d2062616c616e63650000000000000000604082015260600190565b60208082526014908201527f6f66666572206e6f742072656769737465726564000000000000000000000000604082015260600190565b6020808252602a908201527f55496e743235365365743a206b657920616c726561647920657869737473206960408201527f6e20746865207365742e00000000000000000000000000000000000000000000606082015260800190565b60208082526017908201527f696e73756666696369656e742061636365707420666565000000000000000000604082015260600190565b6020808252600d908201527f746f6f206d616e792067656d7300000000000000000000000000000000000000604082015260600190565b60208082526028908201527f436f6e74726f6c6c61626c653a2063616c6c6572206973206e6f74206120636f60408201527f6e74726f6c6c6572000000000000000000000000000000000000000000000000606082015260800190565b60208082526016908201527f67656d20616c7265616479207265676973746572656400000000000000000000604082015260600190565b60208082526009908201527f6e6f74206f776e65720000000000000000000000000000000000000000000000604082015260600190565b60208082526018908201527f696e73756666696369656e74206c697374696e67206665650000000000000000604082015260600190565b90815260200190565b60008482526001600160a01b03841660208301526060604083015261232c6060830184611d8b565b95945050505050565b60405181810167ffffffffffffffff81118282101715612357576123576123e3565b604052919050565b600067ffffffffffffffff821115612379576123796123e3565b5060209081020190565b60008219821115612396576123966123cd565b500190565b6000828210156123ad576123ad6123cd565b500390565b60006000198214156123c6576123c66123cd565b5060010190565b634e487b7160e01b600052601160045260246000fd5b634e487b7160e01b600052604160045260246000fdfea2646970667358221220baec6a19a686f0665d0ef58406130d7d6a3b2c2e782979573da6abd672a766ef64736f6c63430008000033",
  "libraries": {
    "Strings": "0xeB3E79099663eC952e02E608E00d463F36b4Fb75",
    "AddressSet": "0xe46E1A13694B72eC89126303d65247856bb0833e",
    "UInt256Set": "0x8B6893DB13b55d4952a51d5188215e2a470515a9",
    "Create2": "0xBa85d3e8E0F9e48F5c21649d33f6d0f9Af12E3f5",
    "WrappedTokenLib": "0x95055e748915AB4930a1c2597fB84b1a9b9B7A51",
    "ComplexPoolLib": "0x59CAEC5c5BDE430F834d77C6dF1e689CEE5Da318"
  },
  "devdoc": {
    "kind": "dev",
    "methods": {
      "addController(address)": {
        "details": "Add an address allowed to control this contract"
      },
      "isController(address)": {
        "details": "Check if this address is a controller"
      },
      "relinquishControl()": {
        "details": "Remove the sender address from the list of controllers"
      }
    },
    "version": 1
  },
  "userdoc": {
    "kind": "user",
    "methods": {},
    "version": 1
  },
  "storageLayout": {
    "storage": [
      {
        "astId": 4752,
        "contract": "src/market/SwapMeet.sol:SwapMeet",
        "label": "_controllers",
        "offset": 0,
        "slot": "0",
        "type": "t_mapping(t_address,t_bool)"
      },
      {
        "astId": 9378,
        "contract": "src/market/SwapMeet.sol:SwapMeet",
        "label": "feesBalance",
        "offset": 0,
        "slot": "1",
        "type": "t_uint256"
      },
      {
        "astId": 9380,
        "contract": "src/market/SwapMeet.sol:SwapMeet",
        "label": "listingFee",
        "offset": 0,
        "slot": "2",
        "type": "t_uint256"
      },
      {
        "astId": 9382,
        "contract": "src/market/SwapMeet.sol:SwapMeet",
        "label": "acceptFee",
        "offset": 0,
        "slot": "3",
        "type": "t_uint256"
      },
      {
        "astId": 9385,
        "contract": "src/market/SwapMeet.sol:SwapMeet",
        "label": "multitoken",
        "offset": 0,
        "slot": "4",
        "type": "t_contract(INFTGemMultiToken)8176"
      },
      {
        "astId": 9394,
        "contract": "src/market/SwapMeet.sol:SwapMeet",
        "label": "offers",
        "offset": 0,
        "slot": "5",
        "type": "t_mapping(t_uint256,t_struct(Offer)8444_storage)"
      },
      {
        "astId": 9400,
        "contract": "src/market/SwapMeet.sol:SwapMeet",
        "label": "offersByOwner",
        "offset": 0,
        "slot": "6",
        "type": "t_mapping(t_address,t_array(t_struct(Offer)8444_storage)dyn_storage)"
      },
      {
        "astId": 9403,
        "contract": "src/market/SwapMeet.sol:SwapMeet",
        "label": "offerIds",
        "offset": 0,
        "slot": "7",
        "type": "t_struct(Set)9186_storage"
      }
    ],
    "types": {
      "t_address": {
        "encoding": "inplace",
        "label": "address",
        "numberOfBytes": "20"
      },
      "t_array(t_address)dyn_storage": {
        "base": "t_address",
        "encoding": "dynamic_array",
        "label": "address[]",
        "numberOfBytes": "32"
      },
      "t_array(t_struct(Offer)8444_storage)dyn_storage": {
        "base": "t_struct(Offer)8444_storage",
        "encoding": "dynamic_array",
        "label": "struct ISwapMeet.Offer[]",
        "numberOfBytes": "32"
      },
      "t_array(t_uint256)dyn_storage": {
        "base": "t_uint256",
        "encoding": "dynamic_array",
        "label": "uint256[]",
        "numberOfBytes": "32"
      },
      "t_bool": {
        "encoding": "inplace",
        "label": "bool",
        "numberOfBytes": "1"
      },
      "t_contract(INFTGemMultiToken)8176": {
        "encoding": "inplace",
        "label": "contract INFTGemMultiToken",
        "numberOfBytes": "20"
      },
      "t_mapping(t_address,t_array(t_struct(Offer)8444_storage)dyn_storage)": {
        "encoding": "mapping",
        "key": "t_address",
        "label": "mapping(address => struct ISwapMeet.Offer[])",
        "numberOfBytes": "32",
        "value": "t_array(t_struct(Offer)8444_storage)dyn_storage"
      },
      "t_mapping(t_address,t_bool)": {
        "encoding": "mapping",
        "key": "t_address",
        "label": "mapping(address => bool)",
        "numberOfBytes": "32",
        "value": "t_bool"
      },
      "t_mapping(t_uint256,t_struct(Offer)8444_storage)": {
        "encoding": "mapping",
        "key": "t_uint256",
        "label": "mapping(uint256 => struct ISwapMeet.Offer)",
        "numberOfBytes": "32",
        "value": "t_struct(Offer)8444_storage"
      },
      "t_mapping(t_uint256,t_uint256)": {
        "encoding": "mapping",
        "key": "t_uint256",
        "label": "mapping(uint256 => uint256)",
        "numberOfBytes": "32",
        "value": "t_uint256"
      },
      "t_struct(Offer)8444_storage": {
        "encoding": "inplace",
        "label": "struct ISwapMeet.Offer",
        "members": [
          {
            "astId": 8427,
            "contract": "src/market/SwapMeet.sol:SwapMeet",
            "label": "owner",
            "offset": 0,
            "slot": "0",
            "type": "t_address"
          },
          {
            "astId": 8429,
            "contract": "src/market/SwapMeet.sol:SwapMeet",
            "label": "pool",
            "offset": 0,
            "slot": "1",
            "type": "t_address"
          },
          {
            "astId": 8431,
            "contract": "src/market/SwapMeet.sol:SwapMeet",
            "label": "gem",
            "offset": 0,
            "slot": "2",
            "type": "t_uint256"
          },
          {
            "astId": 8434,
            "contract": "src/market/SwapMeet.sol:SwapMeet",
            "label": "pools",
            "offset": 0,
            "slot": "3",
            "type": "t_array(t_address)dyn_storage"
          },
          {
            "astId": 8437,
            "contract": "src/market/SwapMeet.sol:SwapMeet",
            "label": "gems",
            "offset": 0,
            "slot": "4",
            "type": "t_array(t_uint256)dyn_storage"
          },
          {
            "astId": 8439,
            "contract": "src/market/SwapMeet.sol:SwapMeet",
            "label": "listingFee",
            "offset": 0,
            "slot": "5",
            "type": "t_uint256"
          },
          {
            "astId": 8441,
            "contract": "src/market/SwapMeet.sol:SwapMeet",
            "label": "references",
            "offset": 0,
            "slot": "6",
            "type": "t_uint256"
          },
          {
            "astId": 8443,
            "contract": "src/market/SwapMeet.sol:SwapMeet",
            "label": "missingTokenPenalty",
            "offset": 0,
            "slot": "7",
            "type": "t_bool"
          }
        ],
        "numberOfBytes": "256"
      },
      "t_struct(Set)9186_storage": {
        "encoding": "inplace",
        "label": "struct UInt256Set.Set",
        "members": [
          {
            "astId": 9182,
            "contract": "src/market/SwapMeet.sol:SwapMeet",
            "label": "keyPointers",
            "offset": 0,
            "slot": "0",
            "type": "t_mapping(t_uint256,t_uint256)"
          },
          {
            "astId": 9185,
            "contract": "src/market/SwapMeet.sol:SwapMeet",
            "label": "keyList",
            "offset": 0,
            "slot": "1",
            "type": "t_array(t_uint256)dyn_storage"
          }
        ],
        "numberOfBytes": "64"
      },
      "t_uint256": {
        "encoding": "inplace",
        "label": "uint256",
        "numberOfBytes": "32"
      }
    }
  }
}