{
  "address": "0x31aA19B12B60fE55c6Ad5cAcdA237883Ad954291",
  "abi": [
    {
      "inputs": [
        {
          "internalType": "address",
          "name": "_multitoken",
          "type": "address"
        },
        {
          "internalType": "address",
          "name": "_feeManager",
          "type": "address"
        }
      ],
      "stateMutability": "nonpayable",
      "type": "constructor"
    },
    {
      "anonymous": false,
      "inputs": [
        {
          "indexed": true,
          "internalType": "address",
          "name": "contractAddress",
          "type": "address"
        },
        {
          "indexed": true,
          "internalType": "address",
          "name": "controllerAddress",
          "type": "address"
        }
      ],
      "name": "ControllerAdded",
      "type": "event"
    },
    {
      "anonymous": false,
      "inputs": [
        {
          "indexed": true,
          "internalType": "address",
          "name": "contractAddress",
          "type": "address"
        },
        {
          "indexed": true,
          "internalType": "address",
          "name": "controllerAddress",
          "type": "address"
        }
      ],
      "name": "ControllerRemoved",
      "type": "event"
    },
    {
      "anonymous": false,
      "inputs": [
        {
          "indexed": false,
          "internalType": "uint256",
          "name": "_offerId",
          "type": "uint256"
        },
        {
          "indexed": false,
          "internalType": "address",
          "name": "_acceptor",
          "type": "address"
        },
        {
          "indexed": false,
          "internalType": "uint256[]",
          "name": "_gems",
          "type": "uint256[]"
        },
        {
          "indexed": false,
          "internalType": "uint256",
          "name": "_acceptFee",
          "type": "uint256"
        }
      ],
      "name": "OfferAccepted",
      "type": "event"
    },
    {
      "anonymous": false,
      "inputs": [
        {
          "indexed": false,
          "internalType": "address",
          "name": "_from",
          "type": "address"
        },
        {
          "indexed": false,
          "internalType": "uint256",
          "name": "_offerId",
          "type": "uint256"
        },
        {
          "indexed": false,
          "internalType": "address",
          "name": "_pool",
          "type": "address"
        },
        {
          "indexed": false,
          "internalType": "uint256",
          "name": "_gem",
          "type": "uint256"
        },
        {
          "indexed": false,
          "internalType": "address[]",
          "name": "_pools",
          "type": "address[]"
        },
        {
          "indexed": false,
          "internalType": "uint256[]",
          "name": "_gems",
          "type": "uint256[]"
        },
        {
          "indexed": false,
          "internalType": "uint256[]",
          "name": "_quantities",
          "type": "uint256[]"
        },
        {
          "indexed": false,
          "internalType": "uint256",
          "name": "_references",
          "type": "uint256"
        },
        {
          "indexed": false,
          "internalType": "uint256",
          "name": "_listingFee",
          "type": "uint256"
        }
      ],
      "name": "OfferRegistered",
      "type": "event"
    },
    {
      "anonymous": false,
      "inputs": [
        {
          "indexed": false,
          "internalType": "uint256",
          "name": "_offerId",
          "type": "uint256"
        }
      ],
      "name": "OfferUnregistered",
      "type": "event"
    },
    {
      "anonymous": false,
      "inputs": [
        {
          "indexed": false,
          "internalType": "address",
          "name": "_recipient",
          "type": "address"
        },
        {
          "indexed": false,
          "internalType": "uint256",
          "name": "_feesAmount",
          "type": "uint256"
        }
      ],
      "name": "SwapMeetFeesWithdrawn",
      "type": "event"
    },
    {
      "inputs": [],
      "name": "acceptFeeHash",
      "outputs": [
        {
          "internalType": "uint256",
          "name": "",
          "type": "uint256"
        }
      ],
      "stateMutability": "view",
      "type": "function"
    },
    {
      "inputs": [
        {
          "internalType": "uint256",
          "name": "_id",
          "type": "uint256"
        },
        {
          "internalType": "uint256[]",
          "name": "_gems",
          "type": "uint256[]"
        }
      ],
      "name": "acceptOffer",
      "outputs": [
        {
          "internalType": "bool",
          "name": "success",
          "type": "bool"
        }
      ],
      "stateMutability": "payable",
      "type": "function"
    },
    {
      "inputs": [
        {
          "internalType": "address",
          "name": "_controller",
          "type": "address"
        }
      ],
      "name": "addController",
      "outputs": [],
      "stateMutability": "nonpayable",
      "type": "function"
    },
    {
      "inputs": [
        {
          "internalType": "uint256",
          "name": "_id",
          "type": "uint256"
        }
      ],
      "name": "getOffer",
      "outputs": [
        {
          "components": [
            {
              "internalType": "address",
              "name": "owner",
              "type": "address"
            },
            {
              "internalType": "address",
              "name": "pool",
              "type": "address"
            },
            {
              "internalType": "uint256",
              "name": "gem",
              "type": "uint256"
            },
            {
              "internalType": "address[]",
              "name": "pools",
              "type": "address[]"
            },
            {
              "internalType": "uint256[]",
              "name": "gems",
              "type": "uint256[]"
            },
            {
              "internalType": "uint256[]",
              "name": "quantities",
              "type": "uint256[]"
            },
            {
              "internalType": "uint256",
              "name": "listingFee",
              "type": "uint256"
            },
            {
              "internalType": "uint256",
              "name": "acceptFee",
              "type": "uint256"
            },
            {
              "internalType": "uint256",
              "name": "references",
              "type": "uint256"
            },
            {
              "internalType": "bool",
              "name": "missingTokenPenalty",
              "type": "bool"
            }
          ],
          "internalType": "struct ISwapMeet.Offer",
          "name": "",
          "type": "tuple"
        }
      ],
      "stateMutability": "view",
      "type": "function"
    },
    {
      "inputs": [
        {
          "internalType": "address",
          "name": "_address",
          "type": "address"
        }
      ],
      "name": "isController",
      "outputs": [
        {
          "internalType": "bool",
          "name": "allowed",
          "type": "bool"
        }
      ],
      "stateMutability": "view",
      "type": "function"
    },
    {
      "inputs": [
        {
          "internalType": "uint256",
          "name": "_id",
          "type": "uint256"
        }
      ],
      "name": "isOffer",
      "outputs": [
        {
          "internalType": "bool",
          "name": "success",
          "type": "bool"
        }
      ],
      "stateMutability": "view",
      "type": "function"
    },
    {
      "inputs": [],
      "name": "listOfferIds",
      "outputs": [
        {
          "internalType": "uint256[]",
          "name": "_offerIds",
          "type": "uint256[]"
        }
      ],
      "stateMutability": "view",
      "type": "function"
    },
    {
      "inputs": [],
      "name": "listOffers",
      "outputs": [
        {
          "components": [
            {
              "internalType": "address",
              "name": "owner",
              "type": "address"
            },
            {
              "internalType": "address",
              "name": "pool",
              "type": "address"
            },
            {
              "internalType": "uint256",
              "name": "gem",
              "type": "uint256"
            },
            {
              "internalType": "address[]",
              "name": "pools",
              "type": "address[]"
            },
            {
              "internalType": "uint256[]",
              "name": "gems",
              "type": "uint256[]"
            },
            {
              "internalType": "uint256[]",
              "name": "quantities",
              "type": "uint256[]"
            },
            {
              "internalType": "uint256",
              "name": "listingFee",
              "type": "uint256"
            },
            {
              "internalType": "uint256",
              "name": "acceptFee",
              "type": "uint256"
            },
            {
              "internalType": "uint256",
              "name": "references",
              "type": "uint256"
            },
            {
              "internalType": "bool",
              "name": "missingTokenPenalty",
              "type": "bool"
            }
          ],
          "internalType": "struct ISwapMeet.Offer[]",
          "name": "offersOut",
          "type": "tuple[]"
        }
      ],
      "stateMutability": "view",
      "type": "function"
    },
    {
      "inputs": [
        {
          "internalType": "address",
          "name": "ownerAddress",
          "type": "address"
        }
      ],
      "name": "listOffersByOwner",
      "outputs": [
        {
          "components": [
            {
              "internalType": "address",
              "name": "owner",
              "type": "address"
            },
            {
              "internalType": "address",
              "name": "pool",
              "type": "address"
            },
            {
              "internalType": "uint256",
              "name": "gem",
              "type": "uint256"
            },
            {
              "internalType": "address[]",
              "name": "pools",
              "type": "address[]"
            },
            {
              "internalType": "uint256[]",
              "name": "gems",
              "type": "uint256[]"
            },
            {
              "internalType": "uint256[]",
              "name": "quantities",
              "type": "uint256[]"
            },
            {
              "internalType": "uint256",
              "name": "listingFee",
              "type": "uint256"
            },
            {
              "internalType": "uint256",
              "name": "acceptFee",
              "type": "uint256"
            },
            {
              "internalType": "uint256",
              "name": "references",
              "type": "uint256"
            },
            {
              "internalType": "bool",
              "name": "missingTokenPenalty",
              "type": "bool"
            }
          ],
          "internalType": "struct ISwapMeet.Offer[]",
          "name": "_ids",
          "type": "tuple[]"
        }
      ],
      "stateMutability": "view",
      "type": "function"
    },
    {
      "inputs": [],
      "name": "listingFeeHash",
      "outputs": [
        {
          "internalType": "uint256",
          "name": "",
          "type": "uint256"
        }
      ],
      "stateMutability": "view",
      "type": "function"
    },
    {
      "inputs": [
        {
          "internalType": "address",
          "name": "input",
          "type": "address"
        }
      ],
      "name": "proxies",
      "outputs": [
        {
          "internalType": "address",
          "name": "",
          "type": "address"
        }
      ],
      "stateMutability": "pure",
      "type": "function"
    },
    {
      "inputs": [
        {
          "internalType": "address",
          "name": "_pool",
          "type": "address"
        },
        {
          "internalType": "uint256",
          "name": "_gem",
          "type": "uint256"
        },
        {
          "internalType": "address[]",
          "name": "_pools",
          "type": "address[]"
        },
        {
          "internalType": "uint256[]",
          "name": "_gems",
          "type": "uint256[]"
        },
        {
          "internalType": "uint256[]",
          "name": "_quantities",
          "type": "uint256[]"
        },
        {
          "internalType": "uint256",
          "name": "references",
          "type": "uint256"
        }
      ],
      "name": "registerOffer",
      "outputs": [
        {
          "components": [
            {
              "internalType": "address",
              "name": "owner",
              "type": "address"
            },
            {
              "internalType": "address",
              "name": "pool",
              "type": "address"
            },
            {
              "internalType": "uint256",
              "name": "gem",
              "type": "uint256"
            },
            {
              "internalType": "address[]",
              "name": "pools",
              "type": "address[]"
            },
            {
              "internalType": "uint256[]",
              "name": "gems",
              "type": "uint256[]"
            },
            {
              "internalType": "uint256[]",
              "name": "quantities",
              "type": "uint256[]"
            },
            {
              "internalType": "uint256",
              "name": "listingFee",
              "type": "uint256"
            },
            {
              "internalType": "uint256",
              "name": "acceptFee",
              "type": "uint256"
            },
            {
              "internalType": "uint256",
              "name": "references",
              "type": "uint256"
            },
            {
              "internalType": "bool",
              "name": "missingTokenPenalty",
              "type": "bool"
            }
          ],
          "internalType": "struct ISwapMeet.Offer",
          "name": "_offer",
          "type": "tuple"
        }
      ],
      "stateMutability": "payable",
      "type": "function"
    },
    {
      "inputs": [],
      "name": "relinquishControl",
      "outputs": [],
      "stateMutability": "nonpayable",
      "type": "function"
    },
    {
      "inputs": [
        {
          "internalType": "uint256",
          "name": "_id",
          "type": "uint256"
        }
      ],
      "name": "unregisterOffer",
      "outputs": [
        {
          "internalType": "bool",
          "name": "success",
          "type": "bool"
        }
      ],
      "stateMutability": "nonpayable",
      "type": "function"
    },
    {
      "inputs": [
        {
          "internalType": "address",
          "name": "_receiver",
          "type": "address"
        }
      ],
      "name": "withdrawFees",
      "outputs": [],
      "stateMutability": "nonpayable",
      "type": "function"
    }
  ],
  "transactionHash": "0x0cc0f8f7939a51955e71f561bcc5045f713a81f2525f8c9d5349647c2966a8da",
  "args": [
    "0x527C4Abab130D0E4fc35d41403D451cbf22cC299",
    "0xf6efadEF8F3939A81c420C8086A4774Ce891CaDd"
  ],
  "solcInputHash": "cc91f72c4c1913531a4e33d94c21d438",
  "bytecode": "0x60806040523480156200001157600080fd5b5060405162002f1538038062002f158339810160408190526200003491620000b2565b6200003f3362000071565b600380546001600160a01b039384166001600160a01b03199182161790915560028054929093169116179055620000e9565b6001600160a01b03166000908152602081905260409020805460ff19166001179055565b80516001600160a01b0381168114620000ad57600080fd5b919050565b60008060408385031215620000c5578182fd5b620000d08362000095565b9150620000e06020840162000095565b90509250929050565b612e1c80620000f96000396000f3fe6080604052600436106100e85760003560e01c8063b429afeb1161008a578063e0c8f57311610059578063e0c8f57314610274578063e1c28bef14610296578063ebd133da146102ab578063f1514f12146102c0576100e8565b8063b429afeb146101e5578063b8f27b9114610205578063c455279114610225578063d56a978214610252576100e8565b8063667bfbac116100c6578063667bfbac146101655780638f05be5214610192578063a0c59979146101a5578063a7fc7a07146101c5576100e8565b8063164e68de146100ed578063319833661461010f5780634579268a14610138575b600080fd5b3480156100f957600080fd5b5061010d61010836600461238a565b6102d5565b005b61012261011d366004612560565b6103bd565b60405161012f91906129cf565b60405180910390f35b34801561014457600080fd5b50610158610153366004612530565b610b39565b60405161012f9190612cf1565b34801561017157600080fd5b5061018561018036600461238a565b610ced565b60405161012f919061293e565b6101586101a03660046123ab565b610eca565b3480156101b157600080fd5b506101226101c0366004612530565b611785565b3480156101d157600080fd5b5061010d6101e036600461238a565b611bdf565b3480156101f157600080fd5b5061012261020036600461238a565b611c41565b34801561021157600080fd5b50610122610220366004612530565b611c5f565b34801561023157600080fd5b5061024561024036600461238a565b611c6c565b60405161012f91906127ae565b34801561025e57600080fd5b50610267611c6f565b60405161012f9190612d04565b34801561028057600080fd5b50610289611c93565b60405161012f91906129bc565b3480156102a257600080fd5b5061010d611cee565b3480156102b757600080fd5b50610185611d45565b3480156102cc57600080fd5b50610267611fae565b3360009081526020819052604090205460ff161515600114806102f757503033145b61031c5760405162461bcd60e51b815260040161031390612bb8565b60405180910390fd5b60006001541161033e5760405162461bcd60e51b8152600401610313906129da565b6001805460009182905560405190916001600160a01b0384169183156108fc0291849190818181858888f1935050505015801561037f573d6000803e3d6000fd5b507f02733937f9e82db2299a456e9848434a9a1534244dc1796264c719237b307f8382826040516103b1929190612878565b60405180910390a15050565b6002546040517f39b37ab000000000000000000000000000000000000000000000000000000000815260009182916001600160a01b03909116906339b37ab09061042b907f27c08a1671399b6816045d86602ffa6404f756deddc6a5a58270d7c7668d5eb890600401612d04565b60206040518083038186803b15801561044357600080fd5b505afa158015610457573d6000803e3d6000fd5b505050506040513d601f19601f8201168201806040525081019061047b9190612548565b905080156104895780610492565b662386f26fc100005b905061049f600685611fd2565b6104bb5760405162461bcd60e51b815260040161031390612ab6565b60008481526004602081905260409091200154835111156104ee5760405162461bcd60e51b815260040161031390612b81565b8034101561050e5760405162461bcd60e51b815260040161031390612b4a565b60005b60008581526004602052604090206003015481101561080057600085815260046020526040812060030180548390811061055b57634e487b7160e01b600052603260045260246000fd5b600091825260208083209091015488835260049182905260408320909101546001600160a01b03909116925083106105945760006105d2565b6000878152600460208190526040909120018054849081106105c657634e487b7160e01b600052603260045260246000fd5b90600052602060002001545b905080610608578583815181106105f957634e487b7160e01b600052603260045260246000fd5b60200260200101519050610636565b8086848151811061062957634e487b7160e01b600052603260045260246000fd5b6020026020010181815250505b600087815260046020526040902060050180548490811061066757634e487b7160e01b600052603260045260246000fd5b600091825260209091200154600354604051627eeac760e11b81526001600160a01b039091169062fdd58e906106a39033908690600401612878565b60206040518083038186803b1580156106bb57600080fd5b505afa1580156106cf573d6000803e3d6000fd5b505050506040513d601f19601f820116820180604052508101906106f39190612548565b10156107115760405162461bcd60e51b815260040161031390612a7f565b6040517fe6c3b1f60000000000000000000000000000000000000000000000000000000081526000906001600160a01b0384169063e6c3b1f690610759908590600401612d04565b60206040518083038186803b15801561077157600080fd5b505afa158015610785573d6000803e3d6000fd5b505050506040513d601f19601f820116820180604052508101906107a99190612463565b905060028160028111156107cd57634e487b7160e01b600052602160045260246000fd5b146107ea5760405162461bcd60e51b815260040161031390612a11565b50505080806107f890612d9f565b915050610511565b5060035460008581526004602081905260409182902080546002909101549251627eeac760e11b81526001600160a01b039485169462fdd58e9461084a9491909316929101612878565b60206040518083038186803b15801561086257600080fd5b505afa158015610876573d6000803e3d6000fd5b505050506040513d601f19601f8201168201806040525081019061089a9190612548565b6108ef57600084815260046020526040808220600901805460ff1916600117905551909250339082156108fc0290839085818181858888f193505050501580156108e8573d6000803e3d6000fd5b5050610b33565b60008481526004602052604090206006015461090b9082612d70565b6001600082825461091c9190612d70565b9091555050600354600085815260046020819052604091829020805492517f2eb2c2d60000000000000000000000000000000000000000000000000000000081526001600160a01b0394851694632eb2c2d69461098694339492909116928a9260050191016127c2565b600060405180830381600087803b1580156109a057600080fd5b505af11580156109b4573d6000803e3d6000fd5b5050600354600087815260046020819052604091829020805460029091015492517ff242432a0000000000000000000000000000000000000000000000000000000081526001600160a01b03948516965063f242432a9550610a2194909116923392909160019101612840565b600060405180830381600087803b158015610a3b57600080fd5b505af1158015610a4f573d6000803e3d6000fd5b50505050610a6784600661202e90919063ffffffff16565b6000848152600460205260408120805473ffffffffffffffffffffffffffffffffffffffff19908116825560018201805490911690556002810182905590610ab260038301826121a4565b610ac06004830160006121a4565b610ace6005830160006121a4565b50600060068201819055600782018190556008820155600901805460ff191690556040517f630aeb16dd159d3b89ad5e9d3e30c261a4a192fbeadc9a6ea87a2cfbc8ca6d0290610b25908690339087908690612d0d565b60405180910390a160019150505b92915050565b610b416121c5565b610b4c600683611fd2565b610b685760405162461bcd60e51b815260040161031390612ab6565b60008281526004602090815260409182902082516101408101845281546001600160a01b039081168252600183015416818401526002820154818501526003820180548551818602810186019096528086529194929360608601939290830182828015610bfe57602002820191906000526020600020905b81546001600160a01b03168152600190910190602001808311610be0575b5050505050815260200160048201805480602002602001604051908101604052809291908181526020018280548015610c5657602002820191906000526020600020905b815481526020019060010190808311610c42575b5050505050815260200160058201805480602002602001604051908101604052809291908181526020018280548015610cae57602002820191906000526020600020905b815481526020019060010190808311610c9a575b505050918352505060068201546020820152600782015460408201526008820154606082015260099091015460ff16151560809091015290505b919050565b6001600160a01b0381166000908152600560209081526040808320805482518185028101850190935280835260609492939192909184015b82821015610ebf5760008481526020908190206040805161014081018252600a860290920180546001600160a01b0390811684526001820154168385015260028101548383015260038101805483518187028101870190945280845293949193606086019392830182828015610dc457602002820191906000526020600020905b81546001600160a01b03168152600190910190602001808311610da6575b5050505050815260200160048201805480602002602001604051908101604052809291908181526020018280548015610e1c57602002820191906000526020600020905b815481526020019060010190808311610e08575b5050505050815260200160058201805480602002602001604051908101604052809291908181526020018280548015610e7457602002820191906000526020600020905b815481526020019060010190808311610e60575b50505091835250506006820154602080830191909152600783015460408301526008830154606083015260099092015460ff1615156080909101529082526001929092019101610d25565b505050509050919050565b610ed26121c5565b6002546040517f39b37ab00000000000000000000000000000000000000000000000000000000081526000916001600160a01b0316906339b37ab090610f3c907f726cc96215520a07a8f8e0fe476c027c6c44853185ef22ddac273ab1c037ca4390600401612d04565b60206040518083038186803b158015610f5457600080fd5b505afa158015610f68573d6000803e3d6000fd5b505050506040513d601f19601f82011682018060405250810190610f8c9190612548565b90508015610f9a5780610fa3565b662386f26fc100005b9050610fb060068b611fd2565b15610fcd5760405162461bcd60e51b815260040161031390612c4c565b87861115610fed5760405162461bcd60e51b815260040161031390612b81565b8034101561100d5760405162461bcd60e51b815260040161031390612c83565b600354604051627eeac760e11b81526000916001600160a01b03169062fdd58e9061103e9033908f90600401612878565b60206040518083038186803b15801561105657600080fd5b505afa15801561106a573d6000803e3d6000fd5b505050506040513d601f19601f8201168201806040525081019061108e9190612548565b116110ab5760405162461bcd60e51b815260040161031390612a7f565b6040517fe6c3b1f60000000000000000000000000000000000000000000000000000000081526000906001600160a01b038d169063e6c3b1f6906110f3908e90600401612d04565b60206040518083038186803b15801561110b57600080fd5b505afa15801561111f573d6000803e3d6000fd5b505050506040513d601f19601f820116820180604052508101906111439190612463565b9050600281600281111561116757634e487b7160e01b600052602160045260246000fd5b146111845760405162461bcd60e51b815260040161031390612a11565b60005b858110156112c7578a8a828181106111af57634e487b7160e01b600052603260045260246000fd5b90506020020160208101906111c4919061238a565b6001600160a01b03166395d89b416040518163ffffffff1660e01b815260040160006040518083038186803b1580156111fc57600080fd5b505afa92505050801561123157506040513d6000823e601f3d908101601f1916820160405261122e9190810190612482565b60015b61124d5760405162461bcd60e51b815260040161031390612cba565b600081511161126e5760405162461bcd60e51b815260040161031390612cba565b50600087878381811061129157634e487b7160e01b600052603260045260246000fd5b90506020020135116112b55760405162461bcd60e51b815260040161031390612c15565b806112bf81612d9f565b915050611187565b50604051806101400160405280336001600160a01b031681526020018d6001600160a01b031681526020018c81526020018b8b808060200260200160405190810160405280939291908181526020018383602002808284376000920191909152505050908252506040805160208b810282810182019093528b82529283019290918c918c91829185019084908082843760009201919091525050509082525060408051602089810282810182019093528982529283019290918a918a91829185019084908082843760009201829052509385525050506020808301869052604080840183905260608085018a905260809094018390528f83526004825291829020845181546001600160a01b0391821673ffffffffffffffffffffffffffffffffffffffff199182161783558684015160018401805491909316911617905591840151600283015591830151805191926114299260038501929091019061222c565b506080820151805161144591600484019160209091019061229a565b5060a0820151805161146191600584019160209091019061229a565b5060c082015160068281019190915560e083015160078301556101008301516008830155610120909201516009909101805460ff19169115159190911790556114aa908c612140565b3360009081526005602090815260408083208e845260048352908320815460018082018455928552929093208354600a9093020180546001600160a01b0393841673ffffffffffffffffffffffffffffffffffffffff1991821617825582850154928201805493909416921691909117909155600280830154908201556003808301805461153b92840191906122d5565b506004828101805461155092840191906122d5565b506005828101805461156592840191906122d5565b506006828101549082015560078083015490820155600880830154908201556009918201549101805460ff191660ff909216151591909117905560008b81526004602090815260409182902082516101408101845281546001600160a01b03908116825260018301541681840152600282015481850152600382018054855181860281018601909652808652919492936060860193929083018282801561163557602002820191906000526020600020905b81546001600160a01b03168152600190910190602001808311611617575b505050505081526020016004820180548060200260200160405190810160405280929190818152602001828054801561168d57602002820191906000526020600020905b815481526020019060010190808311611679575b50505050508152602001600582018054806020026020016040519081016040528092919081815260200182805480156116e557602002820191906000526020600020905b8154815260200190600101908083116116d1575b505050505081526020016006820154815260200160078201548152602001600882015481526020016009820160009054906101000a900460ff16151515158152505092507fff5491dfeca32e5172cf0a5b4b00845fc6fc56971fa6a6aa43638177be53c663338c8e8e8e8e8e8e8e8e8e8d60405161176e9c9b9a99989796959493929190612891565b60405180910390a150509998505050505050505050565b6000611792600683611fd2565b15156001146117b35760405162461bcd60e51b815260040161031390612ab6565b6000828152600460205260409020546001600160a01b031633146117e95760405162461bcd60e51b815260040161031390612a48565b600082815260046020526040902060068082015460098301549254909260ff16916001600160a01b0390911690611820908661202e565b6000858152600460205260408120805473ffffffffffffffffffffffffffffffffffffffff1990811682556001820180549091169055600281018290559061186b60038301826121a4565b6118796004830160006121a4565b6118876005830160006121a4565b5060006006820181905560078201819055600882018190556009909101805460ff191690555b6001600160a01b038216600090815260056020526040902054811015611b5f576001600160a01b038216600090815260056020526040902080548791908390811061190857634e487b7160e01b600052603260045260246000fd5b90600052602060002090600a0201600201541415611b4f576001600160a01b0382166000908152600560205260409020805461194690600190612d88565b8154811061196457634e487b7160e01b600052603260045260246000fd5b90600052602060002090600a020160056000846001600160a01b03166001600160a01b0316815260200190815260200160002082815481106119b657634e487b7160e01b600052603260045260246000fd5b600091825260209091208254600a9092020180546001600160a01b0392831673ffffffffffffffffffffffffffffffffffffffff199182161782556001808501549083018054919094169116179091556002808301549082015560038083018054611a2492840191906122d5565b5060048281018054611a3992840191906122d5565b5060058281018054611a4e92840191906122d5565b506006828101549082015560078083015490820155600880830154908201556009918201549101805460ff191660ff90921615159190911790556001600160a01b0382166000908152600560205260409020805480611abd57634e487b7160e01b600052603160045260246000fd5b600082815260208120600a60001990930192830201805473ffffffffffffffffffffffffffffffffffffffff19908116825560018201805490911690556002810182905590611b0f60038301826121a4565b611b1d6004830160006121a4565b611b2b6005830160006121a4565b50600060068201819055600782018190556008820155600901805460ff1916905590555b611b5881612d9f565b90506118ad565b5081611b9d576040516001600160a01b0382169084156108fc029085906000818181858888f19350505050158015611b9b573d6000803e3d6000fd5b505b7f6fe9d3036555a48d846210fc929918eea7466f43b5a3b3561c9e650328b7a9c185604051611bcc9190612d04565b60405180910390a1506001949350505050565b3360009081526020819052604090205460ff16151560011480611c0157503033145b611c1d5760405162461bcd60e51b815260040161031390612bb8565b6001600160a01b03166000908152602081905260409020805460ff19166001179055565b6001600160a01b031660009081526020819052604090205460ff1690565b6000610b33600683611fd2565b90565b7f726cc96215520a07a8f8e0fe476c027c6c44853185ef22ddac273ab1c037ca4381565b60606006600101805480602002602001604051908101604052809291908181526020018280548015611ce457602002820191906000526020600020905b815481526020019060010190808311611cd0575b5050505050905090565b3360009081526020819052604090205460ff16151560011480611d1057503033145b611d2c5760405162461bcd60e51b815260040161031390612bb8565b336000908152602081905260409020805460ff19169055565b60075460609067ffffffffffffffff811115611d7157634e487b7160e01b600052604160045260246000fd5b604051908082528060200260200182016040528015611daa57816020015b611d976121c5565b815260200190600190039081611d8f5790505b50905060005b600754811015611faa576004600060066001018381548110611de257634e487b7160e01b600052603260045260246000fd5b60009182526020808320909101548352828101939093526040918201902081516101408101835281546001600160a01b03908116825260018301541681850152600282015481840152600382018054845181870281018701909552808552919492936060860193909290830182828015611e8557602002820191906000526020600020905b81546001600160a01b03168152600190910190602001808311611e67575b5050505050815260200160048201805480602002602001604051908101604052809291908181526020018280548015611edd57602002820191906000526020600020905b815481526020019060010190808311611ec9575b5050505050815260200160058201805480602002602001604051908101604052809291908181526020018280548015611f3557602002820191906000526020600020905b815481526020019060010190808311611f21575b505050918352505060068201546020820152600782015460408201526008820154606082015260099091015460ff1615156080909101528251839083908110611f8e57634e487b7160e01b600052603260045260246000fd5b602002602001018190525080611fa390612d9f565b9050611db0565b5090565b7f27c08a1671399b6816045d86602ffa6404f756deddc6a5a58270d7c7668d5eb881565b6001820154600090611fe657506000610b33565b600082815260208490526040902054600184018054849290811061201a57634e487b7160e01b600052603260045260246000fd5b906000526020600020015414905092915050565b6120388282611fd2565b6120415761213c565b6000600161204e8461219d565b6120589190612d88565b6000838152602085905260409020549091508082146120ef57600084600101838154811061209657634e487b7160e01b600052603260045260246000fd5b906000526020600020015490508185600001600083815260200190815260200160002081905550808560010183815481106120e157634e487b7160e01b600052603260045260246000fd5b600091825260209091200155505b60008381526020859052604081205560018085018054909161211091612d88565b8154811061212e57634e487b7160e01b600052603260045260246000fd5b600091825260208220015550505b5050565b61214a8282611fd2565b156121675760405162461bcd60e51b815260040161031390612aed565b600180830180548083018255600082815260209020018390555461218b9190612d88565b60009182526020929092526040902055565b6001015490565b50805460008255906000526020600020908101906121c29190612315565b50565b60405180610140016040528060006001600160a01b0316815260200160006001600160a01b03168152602001600081526020016060815260200160608152602001606081526020016000815260200160008152602001600081526020016000151581525090565b82805482825590600052602060002090810192821561228e579160200282015b8281111561228e578251825473ffffffffffffffffffffffffffffffffffffffff19166001600160a01b0390911617825560209092019160019091019061224c565b50611faa929150612315565b82805482825590600052602060002090810192821561228e579160200282015b8281111561228e5782518255916020019190600101906122ba565b82805482825590600052602060002090810192821561228e5760005260206000209182015b8281111561228e5782548255916001019190600101906122fa565b5b80821115611faa5760008155600101612316565b80356001600160a01b0381168114610ce857600080fd5b60008083601f840112612352578182fd5b50813567ffffffffffffffff811115612369578182fd5b602083019150836020808302850101111561238357600080fd5b9250929050565b60006020828403121561239b578081fd5b6123a48261232a565b9392505050565b600080600080600080600080600060c08a8c0312156123c8578485fd5b6123d18a61232a565b985060208a0135975060408a013567ffffffffffffffff808211156123f4578687fd5b6124008d838e01612341565b909950975060608c0135915080821115612418578687fd5b6124248d838e01612341565b909750955060808c013591508082111561243c578485fd5b506124498c828d01612341565b9a9d999c50979a9699959894979660a00135949350505050565b600060208284031215612474578081fd5b8151600381106123a4578182fd5b60006020808385031215612494578182fd5b825167ffffffffffffffff808211156124ab578384fd5b818501915085601f8301126124be578384fd5b8151818111156124d0576124d0612dd0565b6124e284601f19601f84011601612d46565b915080825286848285010111156124f7578485fd5b845b818110156125145783810185015183820186015284016124f9565b8181111561252457858583850101525b50909695505050505050565b600060208284031215612541578081fd5b5035919050565b600060208284031215612559578081fd5b5051919050565b60008060408385031215612572578182fd5b8235915060208084013567ffffffffffffffff80821115612591578384fd5b818601915086601f8301126125a4578384fd5b8135818111156125b6576125b6612dd0565b83810291506125c6848301612d46565b8181528481019084860184860187018b10156125e0578788fd5b8795505b838610156126025780358352600195909501949186019186016125e4565b508096505050505050509250929050565b6001600160a01b0316815260200190565b6001600160a01b03169052565b6000815180845260208085019450808401835b838110156126695781516001600160a01b031687529582019590820190600101612644565b509495945050505050565b60008284527f07ffffffffffffffffffffffffffffffffffffffffffffffffffffffffffffff8311156126a5578081fd5b6020830280836020870137939093016020019283525090919050565b6000815180845260208085019450808401835b83811015612669578151875295820195908201906001016126d4565b15159052565b6000610140612706848451612624565b60208301516127186020860182612624565b5060408301516040850152606083015181606086015261273a82860182612631565b9150506080830151848203608086015261275482826126c1565b91505060a083015184820360a086015261276e82826126c1565b91505060c083015160c085015260e083015160e0850152610100808401518186015250610120808401516127a4828701826126f0565b5090949350505050565b6001600160a01b0391909116815260200190565b60006001600160a01b03808716835260208187168185015260a060408501526127ee60a08501876126c1565b84810360608601528554808252868552828520935090820190845b8181101561282557845483526001948501949284019201612809565b50508481036080909501949094529183525001949350505050565b6001600160a01b0394851681529290931660208301526040820152606081019190915260a06080820181905260009082015260c00190565b6001600160a01b03929092168252602082015260400190565b6001600160a01b038d81168252602082018d90528b166040820152606081018a9052610120608082018190528101889052600061014082018a825b8b8110156128f7576128e6836128e18461232a565b612613565b9250602091909101906001016128cc565b505082810360a084015261290c81898b612674565b905082810360c0840152612921818789612674565b60e0840195909552505061010001529a9950505050505050505050565b6000602080830181845280855180835260408601915060408482028701019250838701855b828110156129af577fffffffffffffffffffffffffffffffffffffffffffffffffffffffffffffffc088860301845261299d8583516126f6565b94509285019290850190600101612963565b5092979650505050505050565b6000602082526123a460208301846126c1565b901515815260200190565b60208082526013908201527f6e6f206665657320746f20776974686472617700000000000000000000000000604082015260600190565b60208082526012908201527f696e76616c696420746f6b656e20747970650000000000000000000000000000604082015260600190565b60208082526010908201527f63616c6c6572206e6f74206f776e657200000000000000000000000000000000604082015260600190565b60208082526018908201527f696e73756666696369656e742067656d2062616c616e63650000000000000000604082015260600190565b60208082526014908201527f6f66666572206e6f742072656769737465726564000000000000000000000000604082015260600190565b6020808252602a908201527f55496e743235365365743a206b657920616c726561647920657869737473206960408201527f6e20746865207365742e00000000000000000000000000000000000000000000606082015260800190565b60208082526017908201527f696e73756666696369656e742061636365707420666565000000000000000000604082015260600190565b6020808252600d908201527f746f6f206d616e792067656d7300000000000000000000000000000000000000604082015260600190565b60208082526028908201527f436f6e74726f6c6c61626c653a2063616c6c6572206973206e6f74206120636f60408201527f6e74726f6c6c6572000000000000000000000000000000000000000000000000606082015260800190565b60208082526016908201527f696e76616c696420746f6b656e207175616e7469747900000000000000000000604082015260600190565b60208082526016908201527f67656d20616c7265616479207265676973746572656400000000000000000000604082015260600190565b60208082526018908201527f696e73756666696369656e74206c697374696e67206665650000000000000000604082015260600190565b6020808252600c908201527f696e76616c696420706f6f6c0000000000000000000000000000000000000000604082015260600190565b6000602082526123a460208301846126f6565b90815260200190565b60008582526001600160a01b038516602083015260806040830152612d3560808301856126c1565b905082606083015295945050505050565b60405181810167ffffffffffffffff81118282101715612d6857612d68612dd0565b604052919050565b60008219821115612d8357612d83612dba565b500190565b600082821015612d9a57612d9a612dba565b500390565b6000600019821415612db357612db3612dba565b5060010190565b634e487b7160e01b600052601160045260246000fd5b634e487b7160e01b600052604160045260246000fdfea2646970667358221220bc513b570db56edbee524a816a97e5a5b3727a0f0358834e1b52a42f5d59669364736f6c63430008000033",
  "libraries": {
    "Strings": "0xeB3E79099663eC952e02E608E00d463F36b4Fb75",
    "AddressSet": "0xe46E1A13694B72eC89126303d65247856bb0833e",
    "UInt256Set": "0x8B6893DB13b55d4952a51d5188215e2a470515a9",
    "Create2": "0xBa85d3e8E0F9e48F5c21649d33f6d0f9Af12E3f5",
    "WrappedTokenLib": "0x62903bE1Bb58395E0caB3fFd4f9965fe572D85FD",
    "ComplexPoolLib": "0xB584c63B7600c8694631749172bF454cCab247b4"
  },
  "devdoc": {
    "kind": "dev",
    "methods": {
      "addController(address)": {
        "details": "Add an address allowed to control this contract"
      },
      "isController(address)": {
        "details": "Check if this address is a controller"
      },
      "relinquishControl()": {
        "details": "Remove the sender address from the list of controllers"
      }
    },
    "version": 1
  },
  "userdoc": {
    "kind": "user",
    "methods": {},
    "version": 1
  },
  "storageLayout": {
    "storage": [
      {
        "astId": 12816,
        "contract": "src/market/SwapMeet.sol:SwapMeet",
        "label": "_controllers",
        "offset": 0,
        "slot": "0",
        "type": "t_mapping(t_address,t_bool)"
      },
      {
        "astId": 17487,
        "contract": "src/market/SwapMeet.sol:SwapMeet",
        "label": "feesBalance",
        "offset": 0,
        "slot": "1",
        "type": "t_uint256"
      },
      {
        "astId": 17490,
        "contract": "src/market/SwapMeet.sol:SwapMeet",
        "label": "feeManager",
        "offset": 0,
        "slot": "2",
        "type": "t_contract(INFTGemFeeManager)16035"
      },
      {
        "astId": 17493,
        "contract": "src/market/SwapMeet.sol:SwapMeet",
        "label": "multitoken",
        "offset": 0,
        "slot": "3",
        "type": "t_contract(INFTGemMultiToken)16261"
      },
      {
        "astId": 17518,
        "contract": "src/market/SwapMeet.sol:SwapMeet",
        "label": "offers",
        "offset": 0,
        "slot": "4",
        "type": "t_mapping(t_uint256,t_struct(Offer)16534_storage)"
      },
      {
        "astId": 17524,
        "contract": "src/market/SwapMeet.sol:SwapMeet",
        "label": "offersByOwner",
        "offset": 0,
        "slot": "5",
        "type": "t_mapping(t_address,t_array(t_struct(Offer)16534_storage)dyn_storage)"
      },
      {
        "astId": 17527,
        "contract": "src/market/SwapMeet.sol:SwapMeet",
        "label": "offerIds",
        "offset": 0,
        "slot": "6",
        "type": "t_struct(Set)17294_storage"
      }
    ],
    "types": {
      "t_address": {
        "encoding": "inplace",
        "label": "address",
        "numberOfBytes": "20"
      },
      "t_array(t_address)dyn_storage": {
        "base": "t_address",
        "encoding": "dynamic_array",
        "label": "address[]",
        "numberOfBytes": "32"
      },
      "t_array(t_struct(Offer)16534_storage)dyn_storage": {
        "base": "t_struct(Offer)16534_storage",
        "encoding": "dynamic_array",
        "label": "struct ISwapMeet.Offer[]",
        "numberOfBytes": "32"
      },
      "t_array(t_uint256)dyn_storage": {
        "base": "t_uint256",
        "encoding": "dynamic_array",
        "label": "uint256[]",
        "numberOfBytes": "32"
      },
      "t_bool": {
        "encoding": "inplace",
        "label": "bool",
        "numberOfBytes": "1"
      },
      "t_contract(INFTGemFeeManager)16035": {
        "encoding": "inplace",
        "label": "contract INFTGemFeeManager",
        "numberOfBytes": "20"
      },
      "t_contract(INFTGemMultiToken)16261": {
        "encoding": "inplace",
        "label": "contract INFTGemMultiToken",
        "numberOfBytes": "20"
      },
      "t_mapping(t_address,t_array(t_struct(Offer)16534_storage)dyn_storage)": {
        "encoding": "mapping",
        "key": "t_address",
        "label": "mapping(address => struct ISwapMeet.Offer[])",
        "numberOfBytes": "32",
        "value": "t_array(t_struct(Offer)16534_storage)dyn_storage"
      },
      "t_mapping(t_address,t_bool)": {
        "encoding": "mapping",
        "key": "t_address",
        "label": "mapping(address => bool)",
        "numberOfBytes": "32",
        "value": "t_bool"
      },
      "t_mapping(t_uint256,t_struct(Offer)16534_storage)": {
        "encoding": "mapping",
        "key": "t_uint256",
        "label": "mapping(uint256 => struct ISwapMeet.Offer)",
        "numberOfBytes": "32",
        "value": "t_struct(Offer)16534_storage"
      },
      "t_mapping(t_uint256,t_uint256)": {
        "encoding": "mapping",
        "key": "t_uint256",
        "label": "mapping(uint256 => uint256)",
        "numberOfBytes": "32",
        "value": "t_uint256"
      },
      "t_struct(Offer)16534_storage": {
        "encoding": "inplace",
        "label": "struct ISwapMeet.Offer",
        "members": [
          {
            "astId": 16512,
            "contract": "src/market/SwapMeet.sol:SwapMeet",
            "label": "owner",
            "offset": 0,
            "slot": "0",
            "type": "t_address"
          },
          {
            "astId": 16514,
            "contract": "src/market/SwapMeet.sol:SwapMeet",
            "label": "pool",
            "offset": 0,
            "slot": "1",
            "type": "t_address"
          },
          {
            "astId": 16516,
            "contract": "src/market/SwapMeet.sol:SwapMeet",
            "label": "gem",
            "offset": 0,
            "slot": "2",
            "type": "t_uint256"
          },
          {
            "astId": 16519,
            "contract": "src/market/SwapMeet.sol:SwapMeet",
            "label": "pools",
            "offset": 0,
            "slot": "3",
            "type": "t_array(t_address)dyn_storage"
          },
          {
            "astId": 16522,
            "contract": "src/market/SwapMeet.sol:SwapMeet",
            "label": "gems",
            "offset": 0,
            "slot": "4",
            "type": "t_array(t_uint256)dyn_storage"
          },
          {
            "astId": 16525,
            "contract": "src/market/SwapMeet.sol:SwapMeet",
            "label": "quantities",
            "offset": 0,
            "slot": "5",
            "type": "t_array(t_uint256)dyn_storage"
          },
          {
            "astId": 16527,
            "contract": "src/market/SwapMeet.sol:SwapMeet",
            "label": "listingFee",
            "offset": 0,
            "slot": "6",
            "type": "t_uint256"
          },
          {
            "astId": 16529,
            "contract": "src/market/SwapMeet.sol:SwapMeet",
            "label": "acceptFee",
            "offset": 0,
            "slot": "7",
            "type": "t_uint256"
          },
          {
            "astId": 16531,
            "contract": "src/market/SwapMeet.sol:SwapMeet",
            "label": "references",
            "offset": 0,
            "slot": "8",
            "type": "t_uint256"
          },
          {
            "astId": 16533,
            "contract": "src/market/SwapMeet.sol:SwapMeet",
            "label": "missingTokenPenalty",
            "offset": 0,
            "slot": "9",
            "type": "t_bool"
          }
        ],
        "numberOfBytes": "320"
      },
      "t_struct(Set)17294_storage": {
        "encoding": "inplace",
        "label": "struct UInt256Set.Set",
        "members": [
          {
            "astId": 17290,
            "contract": "src/market/SwapMeet.sol:SwapMeet",
            "label": "keyPointers",
            "offset": 0,
            "slot": "0",
            "type": "t_mapping(t_uint256,t_uint256)"
          },
          {
            "astId": 17293,
            "contract": "src/market/SwapMeet.sol:SwapMeet",
            "label": "keyList",
            "offset": 0,
            "slot": "1",
            "type": "t_array(t_uint256)dyn_storage"
          }
        ],
        "numberOfBytes": "64"
      },
      "t_uint256": {
        "encoding": "inplace",
        "label": "uint256",
        "numberOfBytes": "32"
      }
    }
  }
}