{
  "address": "0x2339D62fe1f659e86ea3E173A4EdCD1896d71Eb3",
  "abi": [
    {
      "inputs": [
        {
          "internalType": "address",
          "name": "_multitoken",
          "type": "address"
        }
      ],
      "stateMutability": "nonpayable",
      "type": "constructor"
    },
    {
      "anonymous": false,
      "inputs": [
        {
          "indexed": true,
          "internalType": "address",
          "name": "contractAddress",
          "type": "address"
        },
        {
          "indexed": true,
          "internalType": "address",
          "name": "controllerAddress",
          "type": "address"
        }
      ],
      "name": "ControllerAdded",
      "type": "event"
    },
    {
      "anonymous": false,
      "inputs": [
        {
          "indexed": true,
          "internalType": "address",
          "name": "contractAddress",
          "type": "address"
        },
        {
          "indexed": true,
          "internalType": "address",
          "name": "controllerAddress",
          "type": "address"
        }
      ],
      "name": "ControllerRemoved",
      "type": "event"
    },
    {
      "anonymous": false,
      "inputs": [
        {
          "indexed": false,
          "internalType": "uint256",
          "name": "_offerId",
          "type": "uint256"
        },
        {
          "indexed": false,
          "internalType": "address",
          "name": "_acceptor",
          "type": "address"
        },
        {
          "indexed": false,
          "internalType": "uint256[]",
          "name": "_gems",
          "type": "uint256[]"
        }
      ],
      "name": "OfferAccepted",
      "type": "event"
    },
    {
      "anonymous": false,
      "inputs": [
        {
          "indexed": false,
          "internalType": "address",
          "name": "_from",
          "type": "address"
        },
        {
          "indexed": false,
          "internalType": "uint256",
          "name": "_offerId",
          "type": "uint256"
        },
        {
          "indexed": false,
          "internalType": "address",
          "name": "_pool",
          "type": "address"
        },
        {
          "indexed": false,
          "internalType": "uint256",
          "name": "_gem",
          "type": "uint256"
        },
        {
          "indexed": false,
          "internalType": "address[]",
          "name": "_pools",
          "type": "address[]"
        },
        {
          "indexed": false,
          "internalType": "uint256[]",
          "name": "_gems",
          "type": "uint256[]"
        },
        {
          "indexed": false,
          "internalType": "uint256",
          "name": "_references",
          "type": "uint256"
        }
      ],
      "name": "OfferRegistered",
      "type": "event"
    },
    {
      "anonymous": false,
      "inputs": [
        {
          "indexed": false,
          "internalType": "uint256",
          "name": "_offerId",
          "type": "uint256"
        }
      ],
      "name": "OfferUnregistered",
      "type": "event"
    },
    {
      "inputs": [
        {
          "internalType": "uint256",
          "name": "_id",
          "type": "uint256"
        },
        {
          "internalType": "uint256[]",
          "name": "_gems",
          "type": "uint256[]"
        }
      ],
      "name": "acceptOffer",
      "outputs": [
        {
          "internalType": "bool",
          "name": "success",
          "type": "bool"
        }
      ],
      "stateMutability": "payable",
      "type": "function"
    },
    {
      "inputs": [
        {
          "internalType": "address",
          "name": "_controller",
          "type": "address"
        }
      ],
      "name": "addController",
      "outputs": [],
      "stateMutability": "nonpayable",
      "type": "function"
    },
    {
      "inputs": [
        {
          "internalType": "uint256",
          "name": "_id",
          "type": "uint256"
        }
      ],
      "name": "getOfferDetails",
      "outputs": [
        {
          "internalType": "address",
          "name": "_owner",
          "type": "address"
        },
        {
          "internalType": "address",
          "name": "_pool",
          "type": "address"
        },
        {
          "internalType": "uint256",
          "name": "_gem",
          "type": "uint256"
        },
        {
          "internalType": "address[]",
          "name": "_pools",
          "type": "address[]"
        },
        {
          "internalType": "uint256[]",
          "name": "_gems",
          "type": "uint256[]"
        }
      ],
      "stateMutability": "view",
      "type": "function"
    },
    {
      "inputs": [
        {
          "internalType": "address",
          "name": "_address",
          "type": "address"
        }
      ],
      "name": "isController",
      "outputs": [
        {
          "internalType": "bool",
          "name": "allowed",
          "type": "bool"
        }
      ],
      "stateMutability": "view",
      "type": "function"
    },
    {
      "inputs": [
        {
          "internalType": "uint256",
          "name": "_id",
          "type": "uint256"
        }
      ],
      "name": "isOffer",
      "outputs": [
        {
          "internalType": "bool",
          "name": "success",
          "type": "bool"
        }
      ],
      "stateMutability": "view",
      "type": "function"
    },
    {
      "inputs": [],
      "name": "listOffers",
      "outputs": [
        {
          "internalType": "uint256[]",
          "name": "_ids",
          "type": "uint256[]"
        }
      ],
      "stateMutability": "view",
      "type": "function"
    },
    {
      "inputs": [
        {
          "internalType": "address",
          "name": "input",
          "type": "address"
        }
      ],
      "name": "proxies",
      "outputs": [
        {
          "internalType": "address",
          "name": "",
          "type": "address"
        }
      ],
      "stateMutability": "pure",
      "type": "function"
    },
    {
      "inputs": [
        {
          "internalType": "address",
          "name": "_pool",
          "type": "address"
        },
        {
          "internalType": "uint256",
          "name": "_gem",
          "type": "uint256"
        },
        {
          "internalType": "address[]",
          "name": "_pools",
          "type": "address[]"
        },
        {
          "internalType": "uint256[]",
          "name": "_gems",
          "type": "uint256[]"
        },
        {
          "internalType": "bool",
          "name": "acceptCounterOffers",
          "type": "bool"
        },
        {
          "internalType": "uint256",
          "name": "references",
          "type": "uint256"
        }
      ],
      "name": "registerOffer",
      "outputs": [
        {
          "internalType": "uint256",
          "name": "_id",
          "type": "uint256"
        }
      ],
      "stateMutability": "payable",
      "type": "function"
    },
    {
      "inputs": [],
      "name": "relinquishControl",
      "outputs": [],
      "stateMutability": "nonpayable",
      "type": "function"
    },
    {
      "inputs": [
        {
          "internalType": "uint256",
          "name": "_id",
          "type": "uint256"
        }
      ],
      "name": "unregisterOffer",
      "outputs": [
        {
          "internalType": "bool",
          "name": "success",
          "type": "bool"
        }
      ],
      "stateMutability": "nonpayable",
      "type": "function"
    },
    {
      "inputs": [
        {
          "internalType": "uint256",
          "name": "_fee",
          "type": "uint256"
        }
      ],
      "name": "updateAcceptFee",
      "outputs": [],
      "stateMutability": "nonpayable",
      "type": "function"
    },
    {
      "inputs": [
        {
          "internalType": "uint256",
          "name": "_fee",
          "type": "uint256"
        }
      ],
      "name": "updateListingFee",
      "outputs": [],
      "stateMutability": "nonpayable",
      "type": "function"
    },
    {
      "inputs": [
        {
          "internalType": "address",
          "name": "_receiver",
          "type": "address"
        }
      ],
      "name": "withdrawFees",
      "outputs": [],
      "stateMutability": "nonpayable",
      "type": "function"
    }
  ],
  "transactionHash": "0xbff1574eae0c589b299a587a6b54a0762ce6dfd9880c646f24292217da45e1e7",
  "args": [
    "0xabbc9A75D8A19A1545EA1D705eBa072D77d29B32"
  ],
  "solcInputHash": "2c32235b24d652cc1b605a8bca47f1f1",
  "bytecode": "0x60806040523480156200001157600080fd5b5060405162001f5b38038062001f5b83398101604081905262000034916200009a565b6200003f3362000076565b600480546001600160a01b0319166001600160a01b0392909216919091179055670de0b6b3a76400006002819055600355620000ca565b6001600160a01b03166000908152602081905260409020805460ff19166001179055565b600060208284031215620000ac578081fd5b81516001600160a01b0381168114620000c3578182fd5b9392505050565b611e8180620000da6000396000f3fe6080604052600436106100d25760003560e01c8063b8f27b911161007f578063e1c28bef11610059578063e1c28bef14610220578063e75b351614610235578063ebd133da14610255578063f79d91ae14610277576100d2565b8063b8f27b91146101b3578063c4552791146101d3578063c57e3fd814610200576100d2565b8063a0c59979116100b0578063a0c5997914610153578063a7fc7a0714610173578063b429afeb14610193576100d2565b8063164e68de146100d757806331983366146100f95780634fb64be214610122575b600080fd5b3480156100e357600080fd5b506100f76100f23660046116e2565b610297565b005b61010c610107366004611845565b610346565b6040516101199190611a7b565b60405180910390f35b34801561012e57600080fd5b5061014261013d366004611815565b610ac4565b604051610119959493929190611968565b34801561015f57600080fd5b5061010c61016e366004611815565b610c51565b34801561017f57600080fd5b506100f761018e3660046116e2565b610dd0565b34801561019f57600080fd5b5061010c6101ae3660046116e2565b610e32565b3480156101bf57600080fd5b5061010c6101ce366004611815565b610e50565b3480156101df57600080fd5b506101f36101ee3660046116e2565b610e5d565b60405161011991906118fc565b34801561020c57600080fd5b506100f761021b366004611815565b610e60565b34801561022c57600080fd5b506100f7610ea3565b610248610243366004611703565b610efa565b6040516101199190611d2f565b34801561026157600080fd5b5061026a6112fc565b6040516101199190611a68565b34801561028357600080fd5b506100f7610292366004611815565b611357565b3360009081526020819052604090205460ff161515600114806102b957503033145b6102de5760405162461bcd60e51b81526004016102d590611c2d565b60405180910390fd5b6000600154116103005760405162461bcd60e51b81526004016102d590611a86565b6001805460009182905560405190916001600160a01b0384169183156108fc0291849190818181858888f19350505050158015610341573d6000803e3d6000fd5b505050565b600061035360068461139a565b61036f5760405162461bcd60e51b81526004016102d590611b2b565b600083815260056020526040902060040154825111156103a15760405162461bcd60e51b81526004016102d590611bf6565b6003543410156103c35760405162461bcd60e51b81526004016102d590611bbf565b600083815260056020908152604080832081516101208101835281546001600160a01b0390811682526001830154168185015260028201548184015260038201805484518187028101870190955280855291949293606086019390929083018282801561045957602002820191906000526020600020905b81546001600160a01b0316815260019091019060200180831161043b575b50505050508152602001600482018054806020026020016040519081016040528092919081815260200182805480156104b157602002820191906000526020600020905b81548152602001906001019080831161049d575b5050509183525050600582015460ff9081161515602083015260068301546040830152600783015460608301526008909201549091161515608090910152835190915060009067ffffffffffffffff81111561051d57634e487b7160e01b600052604160045260246000fd5b604051908082528060200260200182016040528015610546578160200160208202803683370190505b50905060005b8260600151518110156107ec5760008360600151828151811061057f57634e487b7160e01b600052603260045260246000fd5b602002602001015190506000828560800151511161059e5760006105cb565b846080015183815181106105c257634e487b7160e01b600052603260045260246000fd5b60200260200101515b905080610601578683815181106105f257634e487b7160e01b600052603260045260246000fd5b6020026020010151905061062f565b8087848151811061062257634e487b7160e01b600052603260045260246000fd5b6020026020010181815250505b60048054604051627eeac760e11b81526001926001600160a01b039092169162fdd58e916106619133918791016119f0565b60206040518083038186803b15801561067957600080fd5b505afa15801561068d573d6000803e3d6000fd5b505050506040513d601f19601f820116820180604052508101906106b1919061182d565b10156106cf5760405162461bcd60e51b81526004016102d590611af4565b6040517fe6c3b1f60000000000000000000000000000000000000000000000000000000081526000906001600160a01b0384169063e6c3b1f690610717908590600401611d2f565b60206040518083038186803b15801561072f57600080fd5b505afa158015610743573d6000803e3d6000fd5b505050506040513d601f19601f8201168201806040525081019061076791906117f6565b9050600181600181111561078b57634e487b7160e01b600052602160045260246000fd5b146107a85760405162461bcd60e51b81526004016102d590611abd565b60018585815181106107ca57634e487b7160e01b600052603260045260246000fd5b60200260200101818152505050505080806107e490611de6565b91505061054c565b506004805483516040808601519051627eeac760e11b81526001600160a01b039093169362fdd58e93610821939291016119f0565b60206040518083038186803b15801561083957600080fd5b505afa15801561084d573d6000803e3d6000fd5b505050506040513d601f19601f82011682018060405250810190610871919061182d565b6108b657600161010083015260035460405160009450339180156108fc029186818181858888f193505050501580156108ae573d6000803e3d6000fd5b505050610abe565b6004805483516040517f2eb2c2d60000000000000000000000000000000000000000000000000000000081526001600160a01b0390921692632eb2c2d69261090692339290918a91889101611910565b600060405180830381600087803b15801561092057600080fd5b505af1158015610934573d6000803e3d6000fd5b505060048054855160408088015190517ff242432a0000000000000000000000000000000000000000000000000000000081526001600160a01b03909316955063f242432a945061098c9391923392600191016119b8565b600060405180830381600087803b1580156109a657600080fd5b505af11580156109ba573d6000803e3d6000fd5b505050506109d28560066113f690919063ffffffff16565b6000858152600560205260408120805473ffffffffffffffffffffffffffffffffffffffff19908116825560018201805490911690556002810182905590610a1d600383018261156c565b610a2b60048301600061156c565b5060058101805460ff199081169091556000600683018190556007830155600890910180549091169055600254600354610a659190611db7565b60016000828254610a769190611db7565b90915550506040517f0b1213d489843d757e6bc6979688ef07931340177ed6dbfbac5abda307379d0c90610aaf90879033908890611d38565b60405180910390a16001925050505b92915050565b60008080606080610ad660068761139a565b610af25760405162461bcd60e51b81526004016102d590611b2b565b600086815260056020908152604080832081516101208101835281546001600160a01b03908116825260018301541681850152600282015481840152600382018054845181870281018701909552808552919492936060860193909290830182828015610b8857602002820191906000526020600020905b81546001600160a01b03168152600190910190602001808311610b6a575b5050505050815260200160048201805480602002602001604051908101604052809291908181526020018280548015610be057602002820191906000526020600020905b815481526020019060010190808311610bcc575b5050509183525050600582015460ff908116151560208084019190915260068401546040808501919091526007850154606080860191909152600890950154909216151560809384015284519085015191850151938501519490920151919b909a5091985091965090945092505050565b6000818152600560205260408120546001600160a01b03163314610c875760405162461bcd60e51b81526004016102d590611cc1565b610c9260068361139a565b610cae5760405162461bcd60e51b81526004016102d590611b2b565b600082815260056020526040902060068082015460089092015460ff1690610cd690856113f6565b6000848152600560205260408120805473ffffffffffffffffffffffffffffffffffffffff19908116825560018201805490911690556002810182905590610d21600383018261156c565b610d2f60048301600061156c565b5060058101805460ff19908116909155600060068301819055600783015560089091018054909116905580610d8d57604051339083156108fc029084906000818181858888f19350505050158015610d8b573d6000803e3d6000fd5b505b7f6fe9d3036555a48d846210fc929918eea7466f43b5a3b3561c9e650328b7a9c184604051610dbc9190611d2f565b60405180910390a16001925050505b919050565b3360009081526020819052604090205460ff16151560011480610df257503033145b610e0e5760405162461bcd60e51b81526004016102d590611c2d565b6001600160a01b03166000908152602081905260409020805460ff19166001179055565b6001600160a01b031660009081526020819052604090205460ff1690565b6000610abe60068361139a565b90565b3360009081526020819052604090205460ff16151560011480610e8257503033145b610e9e5760405162461bcd60e51b81526004016102d590611c2d565b600355565b3360009081526020819052604090205460ff16151560011480610ec557503033145b610ee15760405162461bcd60e51b81526004016102d590611c2d565b336000908152602081905260409020805460ff19169055565b6000610f0760068761139a565b15610f245760405162461bcd60e51b81526004016102d590611c8a565b845184511115610f465760405162461bcd60e51b81526004016102d590611bf6565b600254341015610f685760405162461bcd60e51b81526004016102d590611cf8565b60048054604051627eeac760e11b81526001600160a01b039091169162fdd58e91610f979133918b91016119f0565b60206040518083038186803b158015610faf57600080fd5b505afa158015610fc3573d6000803e3d6000fd5b505050506040513d601f19601f82011682018060405250810190610fe7919061182d565b6001146110065760405162461bcd60e51b81526004016102d590611af4565b6040517fe6c3b1f60000000000000000000000000000000000000000000000000000000081526000906001600160a01b0389169063e6c3b1f69061104e908a90600401611d2f565b60206040518083038186803b15801561106657600080fd5b505afa15801561107a573d6000803e3d6000fd5b505050506040513d601f19601f8201168201806040525081019061109e91906117f6565b905060018160018111156110c257634e487b7160e01b600052602160045260246000fd5b146110df5760405162461bcd60e51b81526004016102d590611abd565b60048054604051627eeac760e11b81526001926001600160a01b039092169162fdd58e916111119133918d91016119f0565b60206040518083038186803b15801561112957600080fd5b505afa15801561113d573d6000803e3d6000fd5b505050506040513d601f19601f82011682018060405250810190611161919061182d565b101561117f5760405162461bcd60e51b81526004016102d590611af4565b60408051610120810182523381526001600160a01b038a811660208084019182528385018c8152606085018c8152608086018c90528a151560a08701526002805460c088015260e087018b9052600061010088018190528f815260058552979097208651815490871673ffffffffffffffffffffffffffffffffffffffff1991821617825594516001820180549190971695169490941790945551948201949094559051805192938493611239926003850192019061158d565b50608082015180516112559160048401916020909101906115ff565b5060a082015160058201805491151560ff1992831617905560c083015160068084019190915560e084015160078401556101009093015160089092018054921515929091169190911790556112aa9089611508565b8792507ff2ea5bab929b53498a38b3a12131929d55308c87c2d39dc16ae58f3d2c64107a33848b8b8b8b8a6040516112e89796959493929190611a09565b60405180910390a150509695505050505050565b6060600660010180548060200260200160405190810160405280929190818152602001828054801561134d57602002820191906000526020600020905b815481526020019060010190808311611339575b5050505050905090565b3360009081526020819052604090205460ff1615156001148061137957503033145b6113955760405162461bcd60e51b81526004016102d590611c2d565b600255565b60018201546000906113ae57506000610abe565b60008281526020849052604090205460018401805484929081106113e257634e487b7160e01b600052603260045260246000fd5b906000526020600020015414905092915050565b611400828261139a565b61140957611504565b6000600161141684611565565b6114209190611dcf565b6000838152602085905260409020549091508082146114b757600084600101838154811061145e57634e487b7160e01b600052603260045260246000fd5b906000526020600020015490508185600001600083815260200190815260200160002081905550808560010183815481106114a957634e487b7160e01b600052603260045260246000fd5b600091825260209091200155505b6000838152602085905260408120556001808501805490916114d891611dcf565b815481106114f657634e487b7160e01b600052603260045260246000fd5b600091825260208220015550505b5050565b611512828261139a565b1561152f5760405162461bcd60e51b81526004016102d590611b62565b60018083018054808301825560008281526020902001839055546115539190611dcf565b60009182526020929092526040902055565b6001015490565b508054600082559060005260206000209081019061158a919061163a565b50565b8280548282559060005260206000209081019282156115ef579160200282015b828111156115ef578251825473ffffffffffffffffffffffffffffffffffffffff19166001600160a01b039091161782556020909201916001909101906115ad565b506115fb92915061163a565b5090565b8280548282559060005260206000209081019282156115ef579160200282015b828111156115ef57825182559160200191906001019061161f565b5b808211156115fb576000815560010161163b565b80356001600160a01b0381168114610dcb57600080fd5b600082601f830112611676578081fd5b8135602061168b61168683611d93565b611d69565b82815281810190858301838502870184018810156116a7578586fd5b855b858110156116c5578135845292840192908401906001016116a9565b5090979650505050505050565b80358015158114610dcb57600080fd5b6000602082840312156116f3578081fd5b6116fc8261164f565b9392505050565b60008060008060008060c0878903121561171b578182fd5b6117248761164f565b95506020808801359550604088013567ffffffffffffffff80821115611748578485fd5b818a0191508a601f83011261175b578485fd5b813561176961168682611d93565b81815284810190848601868402860187018f1015611785578889fd5b8895505b838610156117ae5761179a8161164f565b835260019590950194918601918601611789565b509850505060608a01359250808311156117c6578485fd5b50506117d489828a01611666565b9350506117e3608088016116d2565b915060a087013590509295509295509295565b600060208284031215611807578081fd5b8151600281106116fc578182fd5b600060208284031215611826578081fd5b5035919050565b60006020828403121561183e578081fd5b5051919050565b60008060408385031215611857578182fd5b82359150602083013567ffffffffffffffff811115611874578182fd5b61188085828601611666565b9150509250929050565b6000815180845260208085019450808401835b838110156118c25781516001600160a01b03168752958201959082019060010161189d565b509495945050505050565b6000815180845260208085019450808401835b838110156118c2578151875295820195908201906001016118e0565b6001600160a01b0391909116815260200190565b60006001600160a01b03808716835280861660208401525060a0604083015261193c60a08301856118cd565b828103606084015261194e81856118cd565b838103608090940193909352508152602001949350505050565b60006001600160a01b03808816835280871660208401525084604083015260a0606083015261199a60a083018561188a565b82810360808401526119ac81856118cd565b98975050505050505050565b6001600160a01b0394851681529290931660208301526040820152606081019190915260a06080820181905260009082015260c00190565b6001600160a01b03929092168252602082015260400190565b60006001600160a01b03808a16835288602084015280881660408401525085606083015260e06080830152611a4160e083018661188a565b82810360a0840152611a5381866118cd565b9150508260c083015298975050505050505050565b6000602082526116fc60208301846118cd565b901515815260200190565b60208082526013908201527f6e6f206665657320746f20776974686472617700000000000000000000000000604082015260600190565b60208082526012908201527f696e76616c696420746f6b656e20747970650000000000000000000000000000604082015260600190565b60208082526018908201527f696e73756666696369656e742067656d2062616c616e63650000000000000000604082015260600190565b60208082526014908201527f6f66666572206e6f742072656769737465726564000000000000000000000000604082015260600190565b6020808252602a908201527f55496e743235365365743a206b657920616c726561647920657869737473206960408201527f6e20746865207365742e00000000000000000000000000000000000000000000606082015260800190565b60208082526017908201527f696e73756666696369656e742061636365707420666565000000000000000000604082015260600190565b6020808252600d908201527f746f6f206d616e792067656d7300000000000000000000000000000000000000604082015260600190565b60208082526028908201527f436f6e74726f6c6c61626c653a2063616c6c6572206973206e6f74206120636f60408201527f6e74726f6c6c6572000000000000000000000000000000000000000000000000606082015260800190565b60208082526016908201527f67656d20616c7265616479207265676973746572656400000000000000000000604082015260600190565b60208082526009908201527f6e6f74206f776e65720000000000000000000000000000000000000000000000604082015260600190565b60208082526018908201527f696e73756666696369656e74206c697374696e67206665650000000000000000604082015260600190565b90815260200190565b60008482526001600160a01b038416602083015260606040830152611d6060608301846118cd565b95945050505050565b60405181810167ffffffffffffffff81118282101715611d8b57611d8b611e35565b604052919050565b600067ffffffffffffffff821115611dad57611dad611e35565b5060209081020190565b60008219821115611dca57611dca611e1f565b500190565b600082821015611de157611de1611e1f565b500390565b60007fffffffffffffffffffffffffffffffffffffffffffffffffffffffffffffffff821415611e1857611e18611e1f565b5060010190565b634e487b7160e01b600052601160045260246000fd5b634e487b7160e01b600052604160045260246000fdfea2646970667358221220d9920a863e22d9d0f61f9eab76cf692117bdd3acf807d129d158bf6e5aa63d5464736f6c63430008000033",
  "libraries": {
    "Strings": "0xeB3E79099663eC952e02E608E00d463F36b4Fb75",
    "AddressSet": "0xe46E1A13694B72eC89126303d65247856bb0833e",
    "UInt256Set": "0x8B6893DB13b55d4952a51d5188215e2a470515a9",
    "Create2": "0xBa85d3e8E0F9e48F5c21649d33f6d0f9Af12E3f5",
    "WrappedTokenLib": "0x95055e748915AB4930a1c2597fB84b1a9b9B7A51",
    "ComplexPoolLib": "0x59CAEC5c5BDE430F834d77C6dF1e689CEE5Da318"
  },
  "devdoc": {
    "kind": "dev",
    "methods": {
      "addController(address)": {
        "details": "Add an address allowed to control this contract"
      },
      "isController(address)": {
        "details": "Check if this address is a controller"
      },
      "relinquishControl()": {
        "details": "Remove the sender address from the list of controllers"
      }
    },
    "version": 1
  },
  "userdoc": {
    "kind": "user",
    "methods": {},
    "version": 1
  },
  "storageLayout": {
    "storage": [
      {
        "astId": 4752,
        "contract": "src/market/SwapMeet.sol:SwapMeet",
        "label": "_controllers",
        "offset": 0,
        "slot": "0",
        "type": "t_mapping(t_address,t_bool)"
      },
      {
        "astId": 9350,
        "contract": "src/market/SwapMeet.sol:SwapMeet",
        "label": "feesBalance",
        "offset": 0,
        "slot": "1",
        "type": "t_uint256"
      },
      {
        "astId": 9352,
        "contract": "src/market/SwapMeet.sol:SwapMeet",
        "label": "listingFee",
        "offset": 0,
        "slot": "2",
        "type": "t_uint256"
      },
      {
        "astId": 9354,
        "contract": "src/market/SwapMeet.sol:SwapMeet",
        "label": "acceptFee",
        "offset": 0,
        "slot": "3",
        "type": "t_uint256"
      },
      {
        "astId": 9357,
        "contract": "src/market/SwapMeet.sol:SwapMeet",
        "label": "multitoken",
        "offset": 0,
        "slot": "4",
        "type": "t_contract(INFTGemMultiToken)8176"
      },
      {
        "astId": 9387,
        "contract": "src/market/SwapMeet.sol:SwapMeet",
        "label": "offers",
        "offset": 0,
        "slot": "5",
        "type": "t_mapping(t_uint256,t_struct(Offer)9382_storage)"
      },
      {
        "astId": 9390,
        "contract": "src/market/SwapMeet.sol:SwapMeet",
        "label": "offerIds",
        "offset": 0,
        "slot": "6",
        "type": "t_struct(Set)9158_storage"
      }
    ],
    "types": {
      "t_address": {
        "encoding": "inplace",
        "label": "address",
        "numberOfBytes": "20"
      },
      "t_array(t_address)dyn_storage": {
        "base": "t_address",
        "encoding": "dynamic_array",
        "label": "address[]",
        "numberOfBytes": "32"
      },
      "t_array(t_uint256)dyn_storage": {
        "base": "t_uint256",
        "encoding": "dynamic_array",
        "label": "uint256[]",
        "numberOfBytes": "32"
      },
      "t_bool": {
        "encoding": "inplace",
        "label": "bool",
        "numberOfBytes": "1"
      },
      "t_contract(INFTGemMultiToken)8176": {
        "encoding": "inplace",
        "label": "contract INFTGemMultiToken",
        "numberOfBytes": "20"
      },
      "t_mapping(t_address,t_bool)": {
        "encoding": "mapping",
        "key": "t_address",
        "label": "mapping(address => bool)",
        "numberOfBytes": "32",
        "value": "t_bool"
      },
      "t_mapping(t_uint256,t_struct(Offer)9382_storage)": {
        "encoding": "mapping",
        "key": "t_uint256",
        "label": "mapping(uint256 => struct SwapMeet.Offer)",
        "numberOfBytes": "32",
        "value": "t_struct(Offer)9382_storage"
      },
      "t_mapping(t_uint256,t_uint256)": {
        "encoding": "mapping",
        "key": "t_uint256",
        "label": "mapping(uint256 => uint256)",
        "numberOfBytes": "32",
        "value": "t_uint256"
      },
      "t_struct(Offer)9382_storage": {
        "encoding": "inplace",
        "label": "struct SwapMeet.Offer",
        "members": [
          {
            "astId": 9363,
            "contract": "src/market/SwapMeet.sol:SwapMeet",
            "label": "owner",
            "offset": 0,
            "slot": "0",
            "type": "t_address"
          },
          {
            "astId": 9365,
            "contract": "src/market/SwapMeet.sol:SwapMeet",
            "label": "pool",
            "offset": 0,
            "slot": "1",
            "type": "t_address"
          },
          {
            "astId": 9367,
            "contract": "src/market/SwapMeet.sol:SwapMeet",
            "label": "gem",
            "offset": 0,
            "slot": "2",
            "type": "t_uint256"
          },
          {
            "astId": 9370,
            "contract": "src/market/SwapMeet.sol:SwapMeet",
            "label": "pools",
            "offset": 0,
            "slot": "3",
            "type": "t_array(t_address)dyn_storage"
          },
          {
            "astId": 9373,
            "contract": "src/market/SwapMeet.sol:SwapMeet",
            "label": "gems",
            "offset": 0,
            "slot": "4",
            "type": "t_array(t_uint256)dyn_storage"
          },
          {
            "astId": 9375,
            "contract": "src/market/SwapMeet.sol:SwapMeet",
            "label": "acceptCounterOffers",
            "offset": 0,
            "slot": "5",
            "type": "t_bool"
          },
          {
            "astId": 9377,
            "contract": "src/market/SwapMeet.sol:SwapMeet",
            "label": "listingFee",
            "offset": 0,
            "slot": "6",
            "type": "t_uint256"
          },
          {
            "astId": 9379,
            "contract": "src/market/SwapMeet.sol:SwapMeet",
            "label": "references",
            "offset": 0,
            "slot": "7",
            "type": "t_uint256"
          },
          {
            "astId": 9381,
            "contract": "src/market/SwapMeet.sol:SwapMeet",
            "label": "missingTokenPenalty",
            "offset": 0,
            "slot": "8",
            "type": "t_bool"
          }
        ],
        "numberOfBytes": "288"
      },
      "t_struct(Set)9158_storage": {
        "encoding": "inplace",
        "label": "struct UInt256Set.Set",
        "members": [
          {
            "astId": 9154,
            "contract": "src/market/SwapMeet.sol:SwapMeet",
            "label": "keyPointers",
            "offset": 0,
            "slot": "0",
            "type": "t_mapping(t_uint256,t_uint256)"
          },
          {
            "astId": 9157,
            "contract": "src/market/SwapMeet.sol:SwapMeet",
            "label": "keyList",
            "offset": 0,
            "slot": "1",
            "type": "t_array(t_uint256)dyn_storage"
          }
        ],
        "numberOfBytes": "64"
      },
      "t_uint256": {
        "encoding": "inplace",
        "label": "uint256",
        "numberOfBytes": "32"
      }
    }
  }
}