{
  "address": "0xB506946420E28029F8f2fB498F5A9d10e439ab28",
  "abi": [
    {
      "inputs": [
        {
          "internalType": "address",
          "name": "_multitoken",
          "type": "address"
        },
        {
          "internalType": "address",
          "name": "_feeManager",
          "type": "address"
        }
      ],
      "stateMutability": "nonpayable",
      "type": "constructor"
    },
    {
      "anonymous": false,
      "inputs": [
        {
          "indexed": true,
          "internalType": "address",
          "name": "contractAddress",
          "type": "address"
        },
        {
          "indexed": true,
          "internalType": "address",
          "name": "controllerAddress",
          "type": "address"
        }
      ],
      "name": "ControllerAdded",
      "type": "event"
    },
    {
      "anonymous": false,
      "inputs": [
        {
          "indexed": true,
          "internalType": "address",
          "name": "contractAddress",
          "type": "address"
        },
        {
          "indexed": true,
          "internalType": "address",
          "name": "controllerAddress",
          "type": "address"
        }
      ],
      "name": "ControllerRemoved",
      "type": "event"
    },
    {
      "anonymous": false,
      "inputs": [
        {
          "indexed": false,
          "internalType": "uint256",
          "name": "_offerId",
          "type": "uint256"
        },
        {
          "indexed": false,
          "internalType": "address",
          "name": "_acceptor",
          "type": "address"
        },
        {
          "indexed": false,
          "internalType": "uint256[]",
          "name": "_gems",
          "type": "uint256[]"
        }
      ],
      "name": "OfferAccepted",
      "type": "event"
    },
    {
      "anonymous": false,
      "inputs": [
        {
          "indexed": false,
          "internalType": "address",
          "name": "_from",
          "type": "address"
        },
        {
          "indexed": false,
          "internalType": "uint256",
          "name": "_offerId",
          "type": "uint256"
        },
        {
          "indexed": false,
          "internalType": "address",
          "name": "_pool",
          "type": "address"
        },
        {
          "indexed": false,
          "internalType": "uint256",
          "name": "_gem",
          "type": "uint256"
        },
        {
          "indexed": false,
          "internalType": "address[]",
          "name": "_pools",
          "type": "address[]"
        },
        {
          "indexed": false,
          "internalType": "uint256[]",
          "name": "_gems",
          "type": "uint256[]"
        },
        {
          "indexed": false,
          "internalType": "uint256",
          "name": "_references",
          "type": "uint256"
        }
      ],
      "name": "OfferRegistered",
      "type": "event"
    },
    {
      "anonymous": false,
      "inputs": [
        {
          "indexed": false,
          "internalType": "uint256",
          "name": "_offerId",
          "type": "uint256"
        }
      ],
      "name": "OfferUnregistered",
      "type": "event"
    },
    {
      "anonymous": false,
      "inputs": [
        {
          "indexed": false,
          "internalType": "address",
          "name": "_recipient",
          "type": "address"
        },
        {
          "indexed": false,
          "internalType": "uint256",
          "name": "_feesAmount",
          "type": "uint256"
        }
      ],
      "name": "SwapMeetFeesWithdrawn",
      "type": "event"
    },
    {
      "inputs": [],
      "name": "acceptFeeHash",
      "outputs": [
        {
          "internalType": "uint256",
          "name": "",
          "type": "uint256"
        }
      ],
      "stateMutability": "view",
      "type": "function"
    },
    {
      "inputs": [
        {
          "internalType": "uint256",
          "name": "_id",
          "type": "uint256"
        },
        {
          "internalType": "uint256[]",
          "name": "_gems",
          "type": "uint256[]"
        }
      ],
      "name": "acceptOffer",
      "outputs": [
        {
          "internalType": "bool",
          "name": "success",
          "type": "bool"
        }
      ],
      "stateMutability": "payable",
      "type": "function"
    },
    {
      "inputs": [
        {
          "internalType": "address",
          "name": "_controller",
          "type": "address"
        }
      ],
      "name": "addController",
      "outputs": [],
      "stateMutability": "nonpayable",
      "type": "function"
    },
    {
      "inputs": [
        {
          "internalType": "uint256",
          "name": "_id",
          "type": "uint256"
        }
      ],
      "name": "getOffer",
      "outputs": [
        {
          "components": [
            {
              "internalType": "address",
              "name": "owner",
              "type": "address"
            },
            {
              "internalType": "address",
              "name": "pool",
              "type": "address"
            },
            {
              "internalType": "uint256",
              "name": "gem",
              "type": "uint256"
            },
            {
              "internalType": "address[]",
              "name": "pools",
              "type": "address[]"
            },
            {
              "internalType": "uint256[]",
              "name": "gems",
              "type": "uint256[]"
            },
            {
              "internalType": "uint256",
              "name": "listingFee",
              "type": "uint256"
            },
            {
              "internalType": "uint256",
              "name": "references",
              "type": "uint256"
            },
            {
              "internalType": "bool",
              "name": "missingTokenPenalty",
              "type": "bool"
            }
          ],
          "internalType": "struct ISwapMeet.Offer",
          "name": "",
          "type": "tuple"
        }
      ],
      "stateMutability": "view",
      "type": "function"
    },
    {
      "inputs": [
        {
          "internalType": "address",
          "name": "_address",
          "type": "address"
        }
      ],
      "name": "isController",
      "outputs": [
        {
          "internalType": "bool",
          "name": "allowed",
          "type": "bool"
        }
      ],
      "stateMutability": "view",
      "type": "function"
    },
    {
      "inputs": [
        {
          "internalType": "uint256",
          "name": "_id",
          "type": "uint256"
        }
      ],
      "name": "isOffer",
      "outputs": [
        {
          "internalType": "bool",
          "name": "success",
          "type": "bool"
        }
      ],
      "stateMutability": "view",
      "type": "function"
    },
    {
      "inputs": [],
      "name": "listOfferIds",
      "outputs": [
        {
          "internalType": "uint256[]",
          "name": "_offerIds",
          "type": "uint256[]"
        }
      ],
      "stateMutability": "view",
      "type": "function"
    },
    {
      "inputs": [],
      "name": "listOffers",
      "outputs": [
        {
          "components": [
            {
              "internalType": "address",
              "name": "owner",
              "type": "address"
            },
            {
              "internalType": "address",
              "name": "pool",
              "type": "address"
            },
            {
              "internalType": "uint256",
              "name": "gem",
              "type": "uint256"
            },
            {
              "internalType": "address[]",
              "name": "pools",
              "type": "address[]"
            },
            {
              "internalType": "uint256[]",
              "name": "gems",
              "type": "uint256[]"
            },
            {
              "internalType": "uint256",
              "name": "listingFee",
              "type": "uint256"
            },
            {
              "internalType": "uint256",
              "name": "references",
              "type": "uint256"
            },
            {
              "internalType": "bool",
              "name": "missingTokenPenalty",
              "type": "bool"
            }
          ],
          "internalType": "struct ISwapMeet.Offer[]",
          "name": "offersOut",
          "type": "tuple[]"
        }
      ],
      "stateMutability": "view",
      "type": "function"
    },
    {
      "inputs": [
        {
          "internalType": "address",
          "name": "ownerAddress",
          "type": "address"
        }
      ],
      "name": "listOffersByOwner",
      "outputs": [
        {
          "components": [
            {
              "internalType": "address",
              "name": "owner",
              "type": "address"
            },
            {
              "internalType": "address",
              "name": "pool",
              "type": "address"
            },
            {
              "internalType": "uint256",
              "name": "gem",
              "type": "uint256"
            },
            {
              "internalType": "address[]",
              "name": "pools",
              "type": "address[]"
            },
            {
              "internalType": "uint256[]",
              "name": "gems",
              "type": "uint256[]"
            },
            {
              "internalType": "uint256",
              "name": "listingFee",
              "type": "uint256"
            },
            {
              "internalType": "uint256",
              "name": "references",
              "type": "uint256"
            },
            {
              "internalType": "bool",
              "name": "missingTokenPenalty",
              "type": "bool"
            }
          ],
          "internalType": "struct ISwapMeet.Offer[]",
          "name": "_ids",
          "type": "tuple[]"
        }
      ],
      "stateMutability": "view",
      "type": "function"
    },
    {
      "inputs": [],
      "name": "listingFeeHash",
      "outputs": [
        {
          "internalType": "uint256",
          "name": "",
          "type": "uint256"
        }
      ],
      "stateMutability": "view",
      "type": "function"
    },
    {
      "inputs": [
        {
          "internalType": "address",
          "name": "input",
          "type": "address"
        }
      ],
      "name": "proxies",
      "outputs": [
        {
          "internalType": "address",
          "name": "",
          "type": "address"
        }
      ],
      "stateMutability": "pure",
      "type": "function"
    },
    {
      "inputs": [
        {
          "internalType": "address",
          "name": "_pool",
          "type": "address"
        },
        {
          "internalType": "uint256",
          "name": "_gem",
          "type": "uint256"
        },
        {
          "internalType": "address[]",
          "name": "_pools",
          "type": "address[]"
        },
        {
          "internalType": "uint256[]",
          "name": "_gems",
          "type": "uint256[]"
        },
        {
          "internalType": "uint256",
          "name": "references",
          "type": "uint256"
        }
      ],
      "name": "registerOffer",
      "outputs": [
        {
          "components": [
            {
              "internalType": "address",
              "name": "owner",
              "type": "address"
            },
            {
              "internalType": "address",
              "name": "pool",
              "type": "address"
            },
            {
              "internalType": "uint256",
              "name": "gem",
              "type": "uint256"
            },
            {
              "internalType": "address[]",
              "name": "pools",
              "type": "address[]"
            },
            {
              "internalType": "uint256[]",
              "name": "gems",
              "type": "uint256[]"
            },
            {
              "internalType": "uint256",
              "name": "listingFee",
              "type": "uint256"
            },
            {
              "internalType": "uint256",
              "name": "references",
              "type": "uint256"
            },
            {
              "internalType": "bool",
              "name": "missingTokenPenalty",
              "type": "bool"
            }
          ],
          "internalType": "struct ISwapMeet.Offer",
          "name": "_offer",
          "type": "tuple"
        }
      ],
      "stateMutability": "payable",
      "type": "function"
    },
    {
      "inputs": [],
      "name": "relinquishControl",
      "outputs": [],
      "stateMutability": "nonpayable",
      "type": "function"
    },
    {
      "inputs": [
        {
          "internalType": "uint256",
          "name": "_id",
          "type": "uint256"
        }
      ],
      "name": "unregisterOffer",
      "outputs": [
        {
          "internalType": "bool",
          "name": "success",
          "type": "bool"
        }
      ],
      "stateMutability": "nonpayable",
      "type": "function"
    },
    {
      "inputs": [
        {
          "internalType": "address",
          "name": "_receiver",
          "type": "address"
        }
      ],
      "name": "withdrawFees",
      "outputs": [],
      "stateMutability": "nonpayable",
      "type": "function"
    }
  ],
  "transactionHash": "0x64e0d6247d0f07b1a5450ec0c52bf3fc7817f80ba0c5ce63e1da6188e5328de7",
  "args": [
    "0x527C4Abab130D0E4fc35d41403D451cbf22cC299",
    "0xf6efadEF8F3939A81c420C8086A4774Ce891CaDd"
  ],
  "solcInputHash": "1c2f0a11c3dcecc3858ada0b98d0c27c",
  "bytecode": "0x60806040523480156200001157600080fd5b5060405162002a3938038062002a398339810160408190526200003491620000b2565b6200003f3362000071565b600380546001600160a01b039384166001600160a01b03199182161790915560028054929093169116179055620000e9565b6001600160a01b03166000908152602081905260409020805460ff19166001179055565b80516001600160a01b0381168114620000ad57600080fd5b919050565b60008060408385031215620000c5578182fd5b620000d08362000095565b9150620000e06020840162000095565b90509250929050565b61294080620000f96000396000f3fe6080604052600436106100e85760003560e01c8063b5ded0bb1161008a578063e0c8f57311610059578063e0c8f57314610274578063e1c28bef14610296578063ebd133da146102ab578063f1514f12146102c0576100e8565b8063b5ded0bb146101f2578063b8f27b9114610205578063c455279114610225578063d56a978214610252576100e8565b8063667bfbac116100c6578063667bfbac14610165578063a0c5997914610192578063a7fc7a07146101b2578063b429afeb146101d2576100e8565b8063164e68de146100ed578063319833661461010f5780634579268a14610138575b600080fd5b3480156100f957600080fd5b5061010d6101083660046120a2565b6102d5565b005b61012261011d3660046121a2565b6103bd565b60405161012f9190612593565b60405180910390f35b34801561014457600080fd5b50610158610153366004612172565b610b69565b60405161012f9190612847565b34801561017157600080fd5b506101856101803660046120a2565b610cbb565b60405161012f9190612502565b34801561019e57600080fd5b506101226101ad366004612172565b610e36565b3480156101be57600080fd5b5061010d6101cd3660046120a2565b611248565b3480156101de57600080fd5b506101226101ed3660046120a2565b6112aa565b6101586102003660046120c3565b6112c8565b34801561021157600080fd5b50610122610220366004612172565b6119e7565b34801561023157600080fd5b506102456102403660046120a2565b6119f4565b60405161012f91906123b3565b34801561025e57600080fd5b506102676119f7565b60405161012f919061285a565b34801561028057600080fd5b50610289611a1b565b60405161012f9190612580565b3480156102a257600080fd5b5061010d611a76565b3480156102b757600080fd5b50610185611acd565b3480156102cc57600080fd5b50610267611cd4565b3360009081526020819052604090205460ff161515600114806102f757503033145b61031c5760405162461bcd60e51b81526004016103139061277c565b60405180910390fd5b60006001541161033e5760405162461bcd60e51b81526004016103139061259e565b6001805460009182905560405190916001600160a01b0384169183156108fc0291849190818181858888f1935050505015801561037f573d6000803e3d6000fd5b507f02733937f9e82db2299a456e9848434a9a1534244dc1796264c719237b307f8382826040516103b1929190612457565b60405180910390a15050565b6002546040517f39b37ab000000000000000000000000000000000000000000000000000000000815260009182916001600160a01b03909116906339b37ab09061042b907f27c08a1671399b6816045d86602ffa6404f756deddc6a5a58270d7c7668d5eb89060040161285a565b60206040518083038186803b15801561044357600080fd5b505afa158015610457573d6000803e3d6000fd5b505050506040513d601f19601f8201168201806040525081019061047b919061218a565b905080156104895780610492565b662386f26fc100005b905061049f600685611cf8565b6104bb5760405162461bcd60e51b81526004016103139061267a565b60008481526004602081905260409091200154835111156104ee5760405162461bcd60e51b815260040161031390612745565b8034101561050e5760405162461bcd60e51b81526004016103139061270e565b6000835167ffffffffffffffff81111561053857634e487b7160e01b600052604160045260246000fd5b604051908082528060200260200182016040528015610561578160200160208202803683370190505b50905060005b6000868152600460205260409020600301548110156108485760008681526004602052604081206003018054839081106105b157634e487b7160e01b600052603260045260246000fd5b600091825260208083209091015489835260049182905260408320909101546001600160a01b03909116925083106105ea576000610628565b60008881526004602081905260409091200180548490811061061c57634e487b7160e01b600052603260045260246000fd5b90600052602060002001545b90508061065e5786838151811061064f57634e487b7160e01b600052603260045260246000fd5b6020026020010151905061068c565b8087848151811061067f57634e487b7160e01b600052603260045260246000fd5b6020026020010181815250505b600354604051627eeac760e11b81526001916001600160a01b03169062fdd58e906106bd9033908690600401612457565b60206040518083038186803b1580156106d557600080fd5b505afa1580156106e9573d6000803e3d6000fd5b505050506040513d601f19601f8201168201806040525081019061070d919061218a565b101561072b5760405162461bcd60e51b815260040161031390612643565b6040517fe6c3b1f60000000000000000000000000000000000000000000000000000000081526000906001600160a01b0384169063e6c3b1f69061077390859060040161285a565b60206040518083038186803b15801561078b57600080fd5b505afa15801561079f573d6000803e3d6000fd5b505050506040513d601f19601f820116820180604052508101906107c39190612153565b905060028160028111156107e757634e487b7160e01b600052602160045260246000fd5b146108045760405162461bcd60e51b8152600401610313906125d5565b600185858151811061082657634e487b7160e01b600052603260045260246000fd5b6020026020010181815250505050508080610840906128c3565b915050610567565b5060035460008681526004602081905260409182902080546002909101549251627eeac760e11b81526001600160a01b039485169462fdd58e946108929491909316929101612457565b60206040518083038186803b1580156108aa57600080fd5b505afa1580156108be573d6000803e3d6000fd5b505050506040513d601f19601f820116820180604052508101906108e2919061218a565b61093857600085815260046020526040808220600701805460ff1916600117905551909350339083156108fc0290849086818181858888f19350505050158015610930573d6000803e3d6000fd5b505050610b63565b6000858152600460205260409020600501546109549083612894565b600160008282546109659190612894565b90915550506003546000868152600460208190526040918290205491517f2eb2c2d60000000000000000000000000000000000000000000000000000000081526001600160a01b0393841693632eb2c2d6936109cc93339391909216918a918891016123c7565b600060405180830381600087803b1580156109e657600080fd5b505af11580156109fa573d6000803e3d6000fd5b5050600354600088815260046020819052604091829020805460029091015492517ff242432a0000000000000000000000000000000000000000000000000000000081526001600160a01b03948516965063f242432a9550610a679490911692339290916001910161241f565b600060405180830381600087803b158015610a8157600080fd5b505af1158015610a95573d6000803e3d6000fd5b50505050610aad856006611d5490919063ffffffff16565b6000858152600460205260408120805473ffffffffffffffffffffffffffffffffffffffff19908116825560018201805490911690556002810182905590610af86003830182611eca565b610b06600483016000611eca565b506000600582018190556006820155600701805460ff191690556040517f0b1213d489843d757e6bc6979688ef07931340177ed6dbfbac5abda307379d0c90610b5490879033908890612863565b60405180910390a16001925050505b92915050565b610b71611eeb565b610b7c600683611cf8565b610b985760405162461bcd60e51b81526004016103139061267a565b60008281526004602090815260409182902082516101008101845281546001600160a01b039081168252600183015416818401526002820154818501526003820180548551818602810186019096528086529194929360608601939290830182828015610c2e57602002820191906000526020600020905b81546001600160a01b03168152600190910190602001808311610c10575b5050505050815260200160048201805480602002602001604051908101604052809291908181526020018280548015610c8657602002820191906000526020600020905b815481526020019060010190808311610c72575b5050509183525050600582015460208201526006820154604082015260079091015460ff16151560609091015290505b919050565b6001600160a01b0381166000908152600560209081526040808320805482518185028101850190935280835260609492939192909184015b82821015610e2b57600084815260209081902060408051610100810182526008860290920180546001600160a01b0390811684526001820154168385015260028101548383015260038101805483518187028101870190945280845293949193606086019392830182828015610d9257602002820191906000526020600020905b81546001600160a01b03168152600190910190602001808311610d74575b5050505050815260200160048201805480602002602001604051908101604052809291908181526020018280548015610dea57602002820191906000526020600020905b815481526020019060010190808311610dd6575b505050918352505060058201546020808301919091526006830154604083015260079092015460ff1615156060909101529082526001929092019101610cf3565b505050509050919050565b6000610e43600683611cf8565b1515600114610e645760405162461bcd60e51b81526004016103139061267a565b6000828152600460205260409020546001600160a01b03163314610e9a5760405162461bcd60e51b81526004016103139061260c565b6000828152600460205260409020600581015460078201549154909160ff16906001600160a01b0316610ece600686611d54565b6000858152600460205260408120805473ffffffffffffffffffffffffffffffffffffffff19908116825560018201805490911690556002810182905590610f196003830182611eca565b610f27600483016000611eca565b50600060058201819055600682018190556007909101805460ff191690555b6001600160a01b0382166000908152600560205260409020548110156111c8576001600160a01b0382166000908152600560205260409020805487919083908110610fa157634e487b7160e01b600052603260045260246000fd5b90600052602060002090600802016002015414156111b8576001600160a01b03821660009081526005602052604090208054610fdf906001906128ac565b81548110610ffd57634e487b7160e01b600052603260045260246000fd5b906000526020600020906008020160056000846001600160a01b03166001600160a01b03168152602001908152602001600020828154811061104f57634e487b7160e01b600052603260045260246000fd5b60009182526020909120825460089092020180546001600160a01b0392831673ffffffffffffffffffffffffffffffffffffffff1991821617825560018085015490830180549190941691161790915560028083015490820155600380830180546110bd9284019190611f44565b50600482810180546110d29284019190611f44565b50600582810154828201556006808401549083015560079283015492909101805460ff191660ff9093161515929092179091556001600160a01b03831660009081526020919091526040902080548061113b57634e487b7160e01b600052603160045260246000fd5b600082815260208120600860001990930192830201805473ffffffffffffffffffffffffffffffffffffffff1990811682556001820180549091169055600281018290559061118d6003830182611eca565b61119b600483016000611eca565b506000600582018190556006820155600701805460ff1916905590555b6111c1816128c3565b9050610f46565b5081611206576040516001600160a01b0382169084156108fc029085906000818181858888f19350505050158015611204573d6000803e3d6000fd5b505b7f6fe9d3036555a48d846210fc929918eea7466f43b5a3b3561c9e650328b7a9c185604051611235919061285a565b60405180910390a1506001949350505050565b3360009081526020819052604090205460ff1615156001148061126a57503033145b6112865760405162461bcd60e51b81526004016103139061277c565b6001600160a01b03166000908152602081905260409020805460ff19166001179055565b6001600160a01b031660009081526020819052604090205460ff1690565b6112d0611eeb565b6002546040517f39b37ab00000000000000000000000000000000000000000000000000000000081526000916001600160a01b0316906339b37ab09061133a907f726cc96215520a07a8f8e0fe476c027c6c44853185ef22ddac273ab1c037ca439060040161285a565b60206040518083038186803b15801561135257600080fd5b505afa158015611366573d6000803e3d6000fd5b505050506040513d601f19601f8201168201806040525081019061138a919061218a565b9050801561139857806113a1565b662386f26fc100005b90506113ae600689611cf8565b156113cb5760405162461bcd60e51b8152600401610313906127d9565b858411156113eb5760405162461bcd60e51b815260040161031390612745565b8034101561140b5760405162461bcd60e51b815260040161031390612810565b600354604051627eeac760e11b81526001600160a01b039091169062fdd58e9061143b9033908c90600401612457565b60206040518083038186803b15801561145357600080fd5b505afa158015611467573d6000803e3d6000fd5b505050506040513d601f19601f8201168201806040525081019061148b919061218a565b6001146114aa5760405162461bcd60e51b815260040161031390612643565b6040517fe6c3b1f60000000000000000000000000000000000000000000000000000000081526000906001600160a01b038b169063e6c3b1f6906114f2908c9060040161285a565b60206040518083038186803b15801561150a57600080fd5b505afa15801561151e573d6000803e3d6000fd5b505050506040513d601f19601f820116820180604052508101906115429190612153565b9050600281600281111561156657634e487b7160e01b600052602160045260246000fd5b146115835760405162461bcd60e51b8152600401610313906125d5565b600354604051627eeac760e11b81526001916001600160a01b03169062fdd58e906115b49033908e90600401612457565b60206040518083038186803b1580156115cc57600080fd5b505afa1580156115e0573d6000803e3d6000fd5b505050506040513d601f19601f82011682018060405250810190611604919061218a565b10156116225760405162461bcd60e51b815260040161031390612643565b604051806101000160405280336001600160a01b031681526020018b6001600160a01b031681526020018a815260200189898080602002602001604051908101604052809392919081815260200183836020028082843760009201919091525050509082525060408051602089810282810182019093528982529283019290918a918a91829185019084908082843760009201829052509385525050506020808301869052604080840189905260609384018390528d83526004825291829020845181546001600160a01b0391821673ffffffffffffffffffffffffffffffffffffffff1991821617835586840151600184018054919093169116179055918401516002830155918301518051919261174392600385019290910190611f90565b506080820151805161175f916004840191602090910190611ff2565b5060a0820151600582015560c082015160068083019190915560e0909201516007909101805460ff191691151591909117905561179c908a611e66565b3360009081526005602090815260408083208c84526004835290832081546001808201845592855292909320835460089093020180546001600160a01b0393841673ffffffffffffffffffffffffffffffffffffffff1991821617825582850154928201805493909416921691909117909155600280830154908201556003808301805461182d9284019190611f44565b50600482810180546118429284019190611f44565b5060058281015490820155600680830154908201556007918201549101805460ff191660ff909216151591909117905560008981526004602090815260409182902082516101008101845281546001600160a01b03908116825260018301541681840152600282015481850152600382018054855181860281018601909652808652919492936060860193929083018282801561190857602002820191906000526020600020905b81546001600160a01b031681526001909101906020018083116118ea575b505050505081526020016004820180548060200260200160405190810160405280929190818152602001828054801561196057602002820191906000526020600020905b81548152602001906001019080831161194c575b505050918352505060058201546020820152600682015460408083019190915260079092015460ff161515606090910152519093507ff2ea5bab929b53498a38b3a12131929d55308c87c2d39dc16ae58f3d2c64107a906119d29033908c908e9082908e908e908e908e908e90612470565b60405180910390a15050979650505050505050565b6000610b63600683611cf8565b90565b7f726cc96215520a07a8f8e0fe476c027c6c44853185ef22ddac273ab1c037ca4381565b60606006600101805480602002602001604051908101604052809291908181526020018280548015611a6c57602002820191906000526020600020905b815481526020019060010190808311611a58575b5050505050905090565b3360009081526020819052604090205460ff16151560011480611a9857503033145b611ab45760405162461bcd60e51b81526004016103139061277c565b336000908152602081905260409020805460ff19169055565b60075460609067ffffffffffffffff811115611af957634e487b7160e01b600052604160045260246000fd5b604051908082528060200260200182016040528015611b3257816020015b611b1f611eeb565b815260200190600190039081611b175790505b50905060005b600754811015611cd0576004600060066001018381548110611b6a57634e487b7160e01b600052603260045260246000fd5b60009182526020808320909101548352828101939093526040918201902081516101008101835281546001600160a01b03908116825260018301541681850152600282015481840152600382018054845181870281018701909552808552919492936060860193909290830182828015611c0d57602002820191906000526020600020905b81546001600160a01b03168152600190910190602001808311611bef575b5050505050815260200160048201805480602002602001604051908101604052809291908181526020018280548015611c6557602002820191906000526020600020905b815481526020019060010190808311611c51575b5050509183525050600582015460208201526006820154604082015260079091015460ff1615156060909101528251839083908110611cb457634e487b7160e01b600052603260045260246000fd5b602002602001018190525080611cc9906128c3565b9050611b38565b5090565b7f27c08a1671399b6816045d86602ffa6404f756deddc6a5a58270d7c7668d5eb881565b6001820154600090611d0c57506000610b63565b6000828152602084905260409020546001840180548492908110611d4057634e487b7160e01b600052603260045260246000fd5b906000526020600020015414905092915050565b611d5e8282611cf8565b611d6757611e62565b60006001611d7484611ec3565b611d7e91906128ac565b600083815260208590526040902054909150808214611e15576000846001018381548110611dbc57634e487b7160e01b600052603260045260246000fd5b90600052602060002001549050818560000160008381526020019081526020016000208190555080856001018381548110611e0757634e487b7160e01b600052603260045260246000fd5b600091825260209091200155505b600083815260208590526040812055600180850180549091611e36916128ac565b81548110611e5457634e487b7160e01b600052603260045260246000fd5b600091825260208220015550505b5050565b611e708282611cf8565b15611e8d5760405162461bcd60e51b8152600401610313906126b1565b6001808301805480830182556000828152602090200183905554611eb191906128ac565b60009182526020929092526040902055565b6001015490565b5080546000825590600052602060002090810190611ee8919061202d565b50565b60405180610100016040528060006001600160a01b0316815260200160006001600160a01b0316815260200160008152602001606081526020016060815260200160008152602001600081526020016000151581525090565b828054828255906000526020600020908101928215611f845760005260206000209182015b82811115611f84578254825591600101919060010190611f69565b50611cd092915061202d565b828054828255906000526020600020908101928215611f84579160200282015b82811115611f84578251825473ffffffffffffffffffffffffffffffffffffffff19166001600160a01b03909116178255602090920191600190910190611fb0565b828054828255906000526020600020908101928215611f84579160200282015b82811115611f84578251825591602001919060010190612012565b5b80821115611cd0576000815560010161202e565b80356001600160a01b0381168114610cb657600080fd5b60008083601f84011261206a578081fd5b50813567ffffffffffffffff811115612081578182fd5b602083019150836020808302850101111561209b57600080fd5b9250929050565b6000602082840312156120b3578081fd5b6120bc82612042565b9392505050565b600080600080600080600060a0888a0312156120dd578283fd5b6120e688612042565b965060208801359550604088013567ffffffffffffffff80821115612109578485fd5b6121158b838c01612059565b909750955060608a013591508082111561212d578485fd5b5061213a8a828b01612059565b989b979a50959894979596608090950135949350505050565b600060208284031215612164578081fd5b8151600381106120bc578182fd5b600060208284031215612183578081fd5b5035919050565b60006020828403121561219b578081fd5b5051919050565b600080604083850312156121b4578182fd5b8235915060208084013567ffffffffffffffff808211156121d3578384fd5b818601915086601f8301126121e6578384fd5b8135818111156121f8576121f86128f4565b83810260405185828201018181108582111715612217576122176128f4565b604052828152858101935084860182860187018b1015612235578788fd5b8795505b83861015612257578035855260019590950194938601938601612239565b508096505050505050509250929050565b60008284527f07ffffffffffffffffffffffffffffffffffffffffffffffffffffffffffffff831115612299578081fd5b6020830280836020870137939093016020019283525090919050565b6000815180845260208085019450808401835b838110156122e4578151875295820195908201906001016122c8565b509495945050505050565b15159052565b60006101008084016001600160a01b0380855116865260208181870151168188015260408601516040880152606086015184606089015283945080518085526101208901955082820194508691505b8082101561236657845184168652948201949382019360019190910190612344565b50505050506080830151848203608086015261238282826122b5565b91505060a083015160a085015260c083015160c085015260e08301516123ab60e08601826122ef565b509392505050565b6001600160a01b0391909116815260200190565b60006001600160a01b03808716835280861660208401525060a060408301526123f360a08301856122b5565b828103606084015261240581856122b5565b838103608090940193909352508152602001949350505050565b6001600160a01b0394851681529290931660208301526040820152606081019190915260a06080820181905260009082015260c00190565b6001600160a01b03929092168252602082015260400190565b600060e082016001600160a01b03808d16845260208c81860152818c1660408601528a606086015260e0608086015282898452610100860190508a9350845b8a8110156124d457836124c186612042565b16825293820193908201906001016124af565b5085810360a08701526124e881898b612268565b9450505050508260c08301529a9950505050505050505050565b6000602080830181845280855180835260408601915060408482028701019250838701855b82811015612573577fffffffffffffffffffffffffffffffffffffffffffffffffffffffffffffffc08886030184526125618583516122f5565b94509285019290850190600101612527565b5092979650505050505050565b6000602082526120bc60208301846122b5565b901515815260200190565b60208082526013908201527f6e6f206665657320746f20776974686472617700000000000000000000000000604082015260600190565b60208082526012908201527f696e76616c696420746f6b656e20747970650000000000000000000000000000604082015260600190565b60208082526010908201527f63616c6c6572206e6f74206f776e657200000000000000000000000000000000604082015260600190565b60208082526018908201527f696e73756666696369656e742067656d2062616c616e63650000000000000000604082015260600190565b60208082526014908201527f6f66666572206e6f742072656769737465726564000000000000000000000000604082015260600190565b6020808252602a908201527f55496e743235365365743a206b657920616c726561647920657869737473206960408201527f6e20746865207365742e00000000000000000000000000000000000000000000606082015260800190565b60208082526017908201527f696e73756666696369656e742061636365707420666565000000000000000000604082015260600190565b6020808252600d908201527f746f6f206d616e792067656d7300000000000000000000000000000000000000604082015260600190565b60208082526028908201527f436f6e74726f6c6c61626c653a2063616c6c6572206973206e6f74206120636f60408201527f6e74726f6c6c6572000000000000000000000000000000000000000000000000606082015260800190565b60208082526016908201527f67656d20616c7265616479207265676973746572656400000000000000000000604082015260600190565b60208082526018908201527f696e73756666696369656e74206c697374696e67206665650000000000000000604082015260600190565b6000602082526120bc60208301846122f5565b90815260200190565b60008482526001600160a01b03841660208301526060604083015261288b60608301846122b5565b95945050505050565b600082198211156128a7576128a76128de565b500190565b6000828210156128be576128be6128de565b500390565b60006000198214156128d7576128d76128de565b5060010190565b634e487b7160e01b600052601160045260246000fd5b634e487b7160e01b600052604160045260246000fdfea264697066735822122029d5a12bb92b81fce02899602c2d76af269e8dcd3d2697bde54c37f6add735a864736f6c63430008000033",
  "libraries": {
    "Strings": "0xeB3E79099663eC952e02E608E00d463F36b4Fb75",
    "AddressSet": "0xe46E1A13694B72eC89126303d65247856bb0833e",
    "UInt256Set": "0x8B6893DB13b55d4952a51d5188215e2a470515a9",
    "Create2": "0xBa85d3e8E0F9e48F5c21649d33f6d0f9Af12E3f5",
    "WrappedTokenLib": "0x62903bE1Bb58395E0caB3fFd4f9965fe572D85FD",
    "ComplexPoolLib": "0xB584c63B7600c8694631749172bF454cCab247b4"
  },
  "devdoc": {
    "kind": "dev",
    "methods": {
      "addController(address)": {
        "details": "Add an address allowed to control this contract"
      },
      "isController(address)": {
        "details": "Check if this address is a controller"
      },
      "relinquishControl()": {
        "details": "Remove the sender address from the list of controllers"
      }
    },
    "version": 1
  },
  "userdoc": {
    "kind": "user",
    "methods": {},
    "version": 1
  },
  "storageLayout": {
    "storage": [
      {
        "astId": 4752,
        "contract": "src/market/SwapMeet.sol:SwapMeet",
        "label": "_controllers",
        "offset": 0,
        "slot": "0",
        "type": "t_mapping(t_address,t_bool)"
      },
      {
        "astId": 9408,
        "contract": "src/market/SwapMeet.sol:SwapMeet",
        "label": "feesBalance",
        "offset": 0,
        "slot": "1",
        "type": "t_uint256"
      },
      {
        "astId": 9411,
        "contract": "src/market/SwapMeet.sol:SwapMeet",
        "label": "feeManager",
        "offset": 0,
        "slot": "2",
        "type": "t_contract(INFTGemFeeManager)7971"
      },
      {
        "astId": 9414,
        "contract": "src/market/SwapMeet.sol:SwapMeet",
        "label": "multitoken",
        "offset": 0,
        "slot": "3",
        "type": "t_contract(INFTGemMultiToken)8197"
      },
      {
        "astId": 9439,
        "contract": "src/market/SwapMeet.sol:SwapMeet",
        "label": "offers",
        "offset": 0,
        "slot": "4",
        "type": "t_mapping(t_uint256,t_struct(Offer)8465_storage)"
      },
      {
        "astId": 9445,
        "contract": "src/market/SwapMeet.sol:SwapMeet",
        "label": "offersByOwner",
        "offset": 0,
        "slot": "5",
        "type": "t_mapping(t_address,t_array(t_struct(Offer)8465_storage)dyn_storage)"
      },
      {
        "astId": 9448,
        "contract": "src/market/SwapMeet.sol:SwapMeet",
        "label": "offerIds",
        "offset": 0,
        "slot": "6",
        "type": "t_struct(Set)9215_storage"
      }
    ],
    "types": {
      "t_address": {
        "encoding": "inplace",
        "label": "address",
        "numberOfBytes": "20"
      },
      "t_array(t_address)dyn_storage": {
        "base": "t_address",
        "encoding": "dynamic_array",
        "label": "address[]",
        "numberOfBytes": "32"
      },
      "t_array(t_struct(Offer)8465_storage)dyn_storage": {
        "base": "t_struct(Offer)8465_storage",
        "encoding": "dynamic_array",
        "label": "struct ISwapMeet.Offer[]",
        "numberOfBytes": "32"
      },
      "t_array(t_uint256)dyn_storage": {
        "base": "t_uint256",
        "encoding": "dynamic_array",
        "label": "uint256[]",
        "numberOfBytes": "32"
      },
      "t_bool": {
        "encoding": "inplace",
        "label": "bool",
        "numberOfBytes": "1"
      },
      "t_contract(INFTGemFeeManager)7971": {
        "encoding": "inplace",
        "label": "contract INFTGemFeeManager",
        "numberOfBytes": "20"
      },
      "t_contract(INFTGemMultiToken)8197": {
        "encoding": "inplace",
        "label": "contract INFTGemMultiToken",
        "numberOfBytes": "20"
      },
      "t_mapping(t_address,t_array(t_struct(Offer)8465_storage)dyn_storage)": {
        "encoding": "mapping",
        "key": "t_address",
        "label": "mapping(address => struct ISwapMeet.Offer[])",
        "numberOfBytes": "32",
        "value": "t_array(t_struct(Offer)8465_storage)dyn_storage"
      },
      "t_mapping(t_address,t_bool)": {
        "encoding": "mapping",
        "key": "t_address",
        "label": "mapping(address => bool)",
        "numberOfBytes": "32",
        "value": "t_bool"
      },
      "t_mapping(t_uint256,t_struct(Offer)8465_storage)": {
        "encoding": "mapping",
        "key": "t_uint256",
        "label": "mapping(uint256 => struct ISwapMeet.Offer)",
        "numberOfBytes": "32",
        "value": "t_struct(Offer)8465_storage"
      },
      "t_mapping(t_uint256,t_uint256)": {
        "encoding": "mapping",
        "key": "t_uint256",
        "label": "mapping(uint256 => uint256)",
        "numberOfBytes": "32",
        "value": "t_uint256"
      },
      "t_struct(Offer)8465_storage": {
        "encoding": "inplace",
        "label": "struct ISwapMeet.Offer",
        "members": [
          {
            "astId": 8448,
            "contract": "src/market/SwapMeet.sol:SwapMeet",
            "label": "owner",
            "offset": 0,
            "slot": "0",
            "type": "t_address"
          },
          {
            "astId": 8450,
            "contract": "src/market/SwapMeet.sol:SwapMeet",
            "label": "pool",
            "offset": 0,
            "slot": "1",
            "type": "t_address"
          },
          {
            "astId": 8452,
            "contract": "src/market/SwapMeet.sol:SwapMeet",
            "label": "gem",
            "offset": 0,
            "slot": "2",
            "type": "t_uint256"
          },
          {
            "astId": 8455,
            "contract": "src/market/SwapMeet.sol:SwapMeet",
            "label": "pools",
            "offset": 0,
            "slot": "3",
            "type": "t_array(t_address)dyn_storage"
          },
          {
            "astId": 8458,
            "contract": "src/market/SwapMeet.sol:SwapMeet",
            "label": "gems",
            "offset": 0,
            "slot": "4",
            "type": "t_array(t_uint256)dyn_storage"
          },
          {
            "astId": 8460,
            "contract": "src/market/SwapMeet.sol:SwapMeet",
            "label": "listingFee",
            "offset": 0,
            "slot": "5",
            "type": "t_uint256"
          },
          {
            "astId": 8462,
            "contract": "src/market/SwapMeet.sol:SwapMeet",
            "label": "references",
            "offset": 0,
            "slot": "6",
            "type": "t_uint256"
          },
          {
            "astId": 8464,
            "contract": "src/market/SwapMeet.sol:SwapMeet",
            "label": "missingTokenPenalty",
            "offset": 0,
            "slot": "7",
            "type": "t_bool"
          }
        ],
        "numberOfBytes": "256"
      },
      "t_struct(Set)9215_storage": {
        "encoding": "inplace",
        "label": "struct UInt256Set.Set",
        "members": [
          {
            "astId": 9211,
            "contract": "src/market/SwapMeet.sol:SwapMeet",
            "label": "keyPointers",
            "offset": 0,
            "slot": "0",
            "type": "t_mapping(t_uint256,t_uint256)"
          },
          {
            "astId": 9214,
            "contract": "src/market/SwapMeet.sol:SwapMeet",
            "label": "keyList",
            "offset": 0,
            "slot": "1",
            "type": "t_array(t_uint256)dyn_storage"
          }
        ],
        "numberOfBytes": "64"
      },
      "t_uint256": {
        "encoding": "inplace",
        "label": "uint256",
        "numberOfBytes": "32"
      }
    }
  }
}