{
  "address": "0x4577c5986739060F66502EECA379329D21DA5229",
  "abi": [
    {
      "inputs": [
        {
          "internalType": "address",
          "name": "gemPool",
          "type": "address"
        },
        {
          "internalType": "address",
          "name": "multitoken",
          "type": "address"
        },
        {
          "internalType": "address",
          "name": "account",
          "type": "address"
        },
        {
          "internalType": "uint256",
          "name": "page",
          "type": "uint256"
        },
        {
          "internalType": "uint256",
          "name": "count",
          "type": "uint256"
        }
      ],
      "name": "getOwnedTokens",
      "outputs": [
        {
          "internalType": "uint256[]",
          "name": "claims",
          "type": "uint256[]"
        },
        {
          "internalType": "uint256[]",
          "name": "gems",
          "type": "uint256[]"
        }
      ],
      "stateMutability": "view",
      "type": "function"
    }
  ],
  "transactionHash": "0x39412d1890671682ed0f32bd6892961e332ed8d0b941767cd73b60bd87bdb64e",
  "args": [],
  "solcInputHash": "6b68360b7538da177cef8aa307f3cc40",
  "bytecode": "0x608060405234801561001057600080fd5b5061071a806100206000396000f3fe608060405234801561001057600080fd5b506004361061002b5760003560e01c806374a552c914610030575b600080fd5b61004361003e36600461051a565b61005a565b60405161005192919061060e565b60405180910390f35b60608060008773ffffffffffffffffffffffffffffffffffffffff1663f4fde0d36040518163ffffffff1660e01b815260040160206040518083038186803b1580156100a557600080fd5b505afa1580156100b9573d6000803e3d6000fd5b505050506040513d601f19601f820116820180604052508101906100dd919061056e565b9050806100ea8587610694565b111561012b576040517f08c379a00000000000000000000000000000000000000000000000000000000081526004016101229061063c565b60405180910390fd5b6000808567ffffffffffffffff81111561015557634e487b7160e01b600052604160045260246000fd5b60405190808252806020026020018201604052801561017e578160200160208202803683370190505b5094508567ffffffffffffffff8111156101a857634e487b7160e01b600052604160045260246000fd5b6040519080825280602002602001820160405280156101d1578160200160208202803683370190505b50935060006101e08789610694565b90505b866101ee818a610694565b6101f8919061067c565b8110156104e35783811061020b576104e3565b6040517fd31674db00000000000000000000000000000000000000000000000000000000815260009073ffffffffffffffffffffffffffffffffffffffff8d169063d31674db90610260908590600401610673565b60206040518083038186803b15801561027857600080fd5b505afa15801561028c573d6000803e3d6000fd5b505050506040513d601f19601f820116820180604052508101906102b0919061056e565b6040517fe6c3b1f600000000000000000000000000000000000000000000000000000000815290915073ffffffffffffffffffffffffffffffffffffffff8d169063e6c3b1f690610305908490600401610673565b60206040518083038186803b15801561031d57600080fd5b505afa92505050801561036b575060408051601f3d9081017fffffffffffffffffffffffffffffffffffffffffffffffffffffffffffffffe016820190925261036891810190610586565b60015b61037557506104d1565b6040517efdd58e00000000000000000000000000000000000000000000000000000000815260009073ffffffffffffffffffffffffffffffffffffffff8e169062fdd58e906103ca908f9087906004016105e8565b60206040518083038186803b1580156103e257600080fd5b505afa1580156103f6573d6000803e3d6000fd5b505050506040513d601f19601f8201168201806040525081019061041a919061056e565b9050801580610427575082155b806104325750826001145b1561043f575050506104d1565b8160ff166001141561048857828987610457816106b3565b98508151811061047757634e487b7160e01b600052603260045260246000fd5b6020026020010181815250506104cd565b8160ff16600214156104cd578288866104a0816106b3565b9750815181106104c057634e487b7160e01b600052603260045260246000fd5b6020026020010181815250505b5050505b806104db816106b3565b9150506101e3565b505050509550959350505050565b803573ffffffffffffffffffffffffffffffffffffffff8116811461051557600080fd5b919050565b600080600080600060a08688031215610531578081fd5b61053a866104f1565b9450610548602087016104f1565b9350610556604087016104f1565b94979396509394606081013594506080013592915050565b60006020828403121561057f578081fd5b5051919050565b600060208284031215610597578081fd5b815160ff811681146105a7578182fd5b9392505050565b6000815180845260208085019450808401835b838110156105dd578151875295820195908201906001016105c1565b509495945050505050565b73ffffffffffffffffffffffffffffffffffffffff929092168252602082015260400190565b60006040825261062160408301856105ae565b828103602084015261063381856105ae565b95945050505050565b6020808252600c908201527f4f55545f4f465f52414e47450000000000000000000000000000000000000000604082015260600190565b90815260200190565b6000821982111561068f5761068f6106ce565b500190565b60008160001904831182151516156106ae576106ae6106ce565b500290565b60006000198214156106c7576106c76106ce565b5060010190565b634e487b7160e01b600052601160045260246000fdfea2646970667358221220e72599800b46875db683cb3246244dc38c6be6753469b52f87400c849e2abc5064736f6c63430008000033",
  "libraries": {
    "Strings": "0xeB3E79099663eC952e02E608E00d463F36b4Fb75",
    "AddressSet": "0xe46E1A13694B72eC89126303d65247856bb0833e",
    "UInt256Set": "0x8B6893DB13b55d4952a51d5188215e2a470515a9",
    "Create2": "0xBa85d3e8E0F9e48F5c21649d33f6d0f9Af12E3f5",
    "WrappedTokenLib": "0x95055e748915AB4930a1c2597fB84b1a9b9B7A51",
    "ComplexPoolLib": "0x59CAEC5c5BDE430F834d77C6dF1e689CEE5Da318"
  },
  "devdoc": {
    "kind": "dev",
    "methods": {},
    "version": 1
  },
  "userdoc": {
    "kind": "user",
    "methods": {},
    "version": 1
  },
  "storageLayout": {
    "storage": [],
    "types": null
  }
}