{
  "address": "0x3600b92D05feA67b3F2D430813E40CE3c82B18A6",
  "abi": [
    {
      "inputs": [
        {
          "internalType": "address",
          "name": "gemPool",
          "type": "address"
        },
        {
          "internalType": "address",
          "name": "multitoken",
          "type": "address"
        },
        {
          "internalType": "address",
          "name": "account",
          "type": "address"
        }
      ],
      "name": "getOwnedTokens",
      "outputs": [
        {
          "internalType": "uint256[]",
          "name": "claims",
          "type": "uint256[]"
        },
        {
          "internalType": "uint256[]",
          "name": "gems",
          "type": "uint256[]"
        }
      ],
      "stateMutability": "view",
      "type": "function"
    }
  ],
  "transactionHash": "0x041def9e51b982106e44e0fd84c19a0e2ce0ed0eac660feafb3872cf18ac3e6b",
  "args": [],
  "solcInputHash": "d6ff122f58610daa0575fcb384943188",
  "bytecode": "0x608060405234801561001057600080fd5b5061056d806100206000396000f3fe608060405234801561001057600080fd5b506004361061002b5760003560e01c80634d99c63b14610030575b600080fd5b6100686004803603606081101561004657600080fd5b506001600160a01b038135811691602081013582169160409091013516610101565b604051808060200180602001838103835285818151815260200191508051906020019060200280838360005b838110156100ac578181015183820152602001610094565b50505050905001838103825284818151815260200191508051906020019060200280838360005b838110156100eb5781810151838201526020016100d3565b5050505090500194505050505060405180910390f35b6060806000856001600160a01b031663f4fde0d36040518163ffffffff1660e01b815260040160206040518083038186803b15801561013f57600080fd5b505afa158015610153573d6000803e3d6000fd5b505050506040513d602081101561016957600080fd5b50519050600080805b83811015610297576000896001600160a01b031663d31674db836040518263ffffffff1660e01b81526004018082815260200191505060206040518083038186803b1580156101c057600080fd5b505afa1580156101d4573d6000803e3d6000fd5b505050506040513d60208110156101ea57600080fd5b505160408051637361d8fb60e11b81526004810183905290519192506000916001600160a01b038d169163e6c3b1f6916024808301926020929190829003018186803b15801561023957600080fd5b505afa15801561024d573d6000803e3d6000fd5b505050506040513d602081101561026357600080fd5b50519050600160ff8216141561027a578460010194505b8060ff166002141561028d578360010193505b5050600101610172565b508167ffffffffffffffff811180156102af57600080fd5b506040519080825280602002602001820160405280156102d9578160200160208202803683370190505b5094508067ffffffffffffffff811180156102f357600080fd5b5060405190808252806020026020018201604052801561031d578160200160208202803683370190505b509350600091506000905060005b8381101561052b576000896001600160a01b031663d31674db836040518263ffffffff1660e01b81526004018082815260200191505060206040518083038186803b15801561037957600080fd5b505afa15801561038d573d6000803e3d6000fd5b505050506040513d60208110156103a357600080fd5b505160408051637361d8fb60e11b81526004810183905290519192506000916001600160a01b038d169163e6c3b1f6916024808301926020929190829003018186803b1580156103f257600080fd5b505afa158015610406573d6000803e3d6000fd5b505050506040513d602081101561041c57600080fd5b5051604080517efdd58e0000000000000000000000000000000000000000000000000000000081526001600160a01b038c81166004830152602482018690529151929350600092918d169162fdd58e91604480820192602092909190829003018186803b15801561048c57600080fd5b505afa1580156104a0573d6000803e3d6000fd5b505050506040513d60208110156104b657600080fd5b50519050806104c757505050610523565b8160ff16600114156104f357828987806001019850815181106104e657fe5b6020026020010181815250505b8160ff166002141561051f578288868060010197508151811061051257fe5b6020026020010181815250505b5050505b60010161032b565b5050505093509391505056fea2646970667358221220c92b96a070967d91bfedb1276f1afac8ab85159d6e72ff182c3a1d26750c539164736f6c63430007030033",
  "libraries": {
    "GovernanceLib": "0xfEbf82b4c4819f7ded1e0fF361c183381d1990Ea",
    "Strings": "0x2b5E12feB40530f028cE81c0B04F9B7804F3bD8B",
    "SafeMath": "0xf88a49ac5FFC67cA94a1235A44F4F366eb0c77f0",
    "AddressSet": "0xc400Df1a9cB78148de8c145100D1e4E40f4a5142",
    "UInt256Set": "0xD208031f5dc5134A58cA550a14637461A0e7A469",
    "Create2": "0x9eb74D584F4500E35643463d17e0f96878bcD970",
    "ProposalsLib": "0x2f92371a46118423d267AECB352f52E773B21B5d",
    "ComplexPoolLib": "0x988d5537f746daE83838d13F3fe875030e3F3fE7",
    "WrappedTokenLib": "0xe967bb5871CC517F2941A41D114cbC5fC35C96D3",
    "Unigem20Library": "0x47dC7a56d15D6E6E8F0C5c2daD0ad2D2D1ba415D"
  },
  "devdoc": {
    "kind": "dev",
    "methods": {},
    "version": 1
  },
  "userdoc": {
    "kind": "user",
    "methods": {},
    "version": 1
  },
  "storageLayout": {
    "storage": [],
    "types": null
  }
}