{
  "address": "0xB219D6DeA05C21eF03b5417c22EDa92a9D2DA094",
  "abi": [
    {
      "inputs": [
        {
          "internalType": "address",
          "name": "gemPool",
          "type": "address"
        },
        {
          "internalType": "address",
          "name": "multitoken",
          "type": "address"
        },
        {
          "internalType": "address",
          "name": "account",
          "type": "address"
        },
        {
          "internalType": "uint256",
          "name": "page",
          "type": "uint256"
        },
        {
          "internalType": "uint256",
          "name": "count",
          "type": "uint256"
        }
      ],
      "name": "getOwnedTokens",
      "outputs": [
        {
          "internalType": "uint256[]",
          "name": "claims",
          "type": "uint256[]"
        },
        {
          "internalType": "uint256[]",
          "name": "gems",
          "type": "uint256[]"
        }
      ],
      "stateMutability": "view",
      "type": "function"
    }
  ],
  "transactionHash": "0xcda6faaaf8122520af908a4319a086af142400ef391b1ef3745103edba77f72f",
  "args": [],
  "solcInputHash": "4c5de0bd1389c2a6a8628846aa492eb5",
  "bytecode": "0x608060405234801561001057600080fd5b50610701806100206000396000f3fe608060405234801561001057600080fd5b506004361061002b5760003560e01c806374a552c914610030575b600080fd5b61004361003e366004610503565b61005a565b6040516100519291906105f5565b60405180910390f35b60608060008773ffffffffffffffffffffffffffffffffffffffff1663f4fde0d36040518163ffffffff1660e01b815260040160206040518083038186803b1580156100a557600080fd5b505afa1580156100b9573d6000803e3d6000fd5b505050506040513d601f19601f820116820180604052508101906100dd919061057d565b9050806100ea858761067b565b111561012b576040517f08c379a000000000000000000000000000000000000000000000000000000000815260040161012290610623565b60405180910390fd5b6000808567ffffffffffffffff81111561015557634e487b7160e01b600052604160045260246000fd5b60405190808252806020026020018201604052801561017e578160200160208202803683370190505b5094508567ffffffffffffffff8111156101a857634e487b7160e01b600052604160045260246000fd5b6040519080825280602002602001820160405280156101d1578160200160208202803683370190505b50935060006101e0878961067b565b90505b866101ee818a61067b565b6101f89190610663565b8110156104cc5783811061020b576104cc565b6040517fd31674db00000000000000000000000000000000000000000000000000000000815260009073ffffffffffffffffffffffffffffffffffffffff8d169063d31674db9061026090859060040161065a565b60206040518083038186803b15801561027857600080fd5b505afa15801561028c573d6000803e3d6000fd5b505050506040513d601f19601f820116820180604052508101906102b0919061057d565b905060008c73ffffffffffffffffffffffffffffffffffffffff1663e6c3b1f6836040518263ffffffff1660e01b81526004016102ed919061065a565b60206040518083038186803b15801561030557600080fd5b505afa158015610319573d6000803e3d6000fd5b505050506040513d601f19601f8201168201806040525081019061033d9190610557565b905060008c73ffffffffffffffffffffffffffffffffffffffff1662fdd58e8d856040518363ffffffff1660e01b815260040161037b9291906105cf565b60206040518083038186803b15801561039357600080fd5b505afa1580156103a7573d6000803e3d6000fd5b505050506040513d601f19601f820116820180604052508101906103cb919061057d565b90508015806103d8575082155b806103e35750826001145b156103f0575050506104ba565b600182600281111561041257634e487b7160e01b600052602160045260246000fd5b1415610455578289876104248161069a565b98508151811061044457634e487b7160e01b600052603260045260246000fd5b6020026020010181815250506104b6565b600282600281111561047757634e487b7160e01b600052602160045260246000fd5b14156104b6578288866104898161069a565b9750815181106104a957634e487b7160e01b600052603260045260246000fd5b6020026020010181815250505b5050505b806104c48161069a565b9150506101e3565b505050509550959350505050565b803573ffffffffffffffffffffffffffffffffffffffff811681146104fe57600080fd5b919050565b600080600080600060a0868803121561051a578081fd5b610523866104da565b9450610531602087016104da565b935061053f604087016104da565b94979396509394606081013594506080013592915050565b600060208284031215610568578081fd5b815160038110610576578182fd5b9392505050565b60006020828403121561058e578081fd5b5051919050565b6000815180845260208085019450808401835b838110156105c4578151875295820195908201906001016105a8565b509495945050505050565b73ffffffffffffffffffffffffffffffffffffffff929092168252602082015260400190565b6000604082526106086040830185610595565b828103602084015261061a8185610595565b95945050505050565b6020808252600c908201527f4f55545f4f465f52414e47450000000000000000000000000000000000000000604082015260600190565b90815260200190565b60008219821115610676576106766106b5565b500190565b6000816000190483118215151615610695576106956106b5565b500290565b60006000198214156106ae576106ae6106b5565b5060010190565b634e487b7160e01b600052601160045260246000fdfea2646970667358221220936940017449242e219c5ac8fad0ab9790f14780f1fe88c795c1fde8dbf3594864736f6c63430008000033",
  "libraries": {
    "GovernanceLib": "0xaeb86F3860AD5B29aE141c56709835130ecbE0D9",
    "Strings": "0xAaCc702df0e464b2f2896aEe801241eEA6DBdba1",
    "AddressSet": "0x2521688f2bdf04bd785D477C05d5240634E63708",
    "UInt256Set": "0xE519B631E93BE6Df760b3872dE88344Dd969370a",
    "Create2": "0xe83DEBccfFF96a5113Bd485967a643D60C4487fd",
    "ProposalsLib": "0xd98B1717903B2Ff81b08F680372887a8c35174c2",
    "ComplexPoolLib": "0x9aCda89A5C672c5f74bf71C723D9fAad285167C2",
    "WrappedTokenLib": "0x9c2C592C7C6D3f7A58aD74ddCf31D0dE2f8807a5"
  },
  "devdoc": {
    "kind": "dev",
    "methods": {},
    "version": 1
  },
  "userdoc": {
    "kind": "user",
    "methods": {},
    "version": 1
  },
  "storageLayout": {
    "storage": [],
    "types": null
  }
}