{
  "address": "0xc7ACb9C920A0c45E878E6c41A75D656c04caedd2",
  "abi": [
    {
      "anonymous": false,
      "inputs": [
        {
          "indexed": true,
          "internalType": "address",
          "name": "token",
          "type": "address"
        },
        {
          "indexed": true,
          "internalType": "address",
          "name": "currency",
          "type": "address"
        },
        {
          "indexed": true,
          "internalType": "uint256",
          "name": "currencyID",
          "type": "uint256"
        },
        {
          "indexed": false,
          "internalType": "address",
          "name": "exchange",
          "type": "address"
        }
      ],
      "name": "NewExchange",
      "type": "event"
    },
    {
      "inputs": [
        {
          "internalType": "address",
          "name": "_token",
          "type": "address"
        },
        {
          "internalType": "address",
          "name": "_currency",
          "type": "address"
        },
        {
          "internalType": "uint256",
          "name": "_currencyID",
          "type": "uint256"
        }
      ],
      "name": "createExchange",
      "outputs": [],
      "stateMutability": "nonpayable",
      "type": "function"
    },
    {
      "inputs": [
        {
          "internalType": "address",
          "name": "",
          "type": "address"
        },
        {
          "internalType": "address",
          "name": "",
          "type": "address"
        },
        {
          "internalType": "uint256",
          "name": "",
          "type": "uint256"
        }
      ],
      "name": "tokensToExchange",
      "outputs": [
        {
          "internalType": "address",
          "name": "",
          "type": "address"
        }
      ],
      "stateMutability": "view",
      "type": "function"
    }
  ],
  "transactionHash": "0x455b7471fb4e481b4619c055393ed8348aab1d6892f285ce2c1633a1b618fa19",
  "args": [],
  "solcInputHash": "ad9575e4ba528ca30d458991ae547083",
  "bytecode": "0x608060405234801561001057600080fd5b50614883806100206000396000f3fe608060405234801561001057600080fd5b50600436106100365760003560e01c80631427474c1461003b5780638359289c1461008d575b600080fd5b6100716004803603606081101561005157600080fd5b506001600160a01b038135811691602081013590911690604001356100c5565b604080516001600160a01b039092168252519081900360200190f35b6100c3600480360360608110156100a357600080fd5b506001600160a01b038135811691602081013590911690604001356100f0565b005b600060208181529381526040808220855292815282812090935282529020546001600160a01b031681565b6001600160a01b03838116600090815260208181526040808320868516845282528083208584529091529020541615610174576040517f08c379a00000000000000000000000000000000000000000000000000000000081526004018080602001828103825260368152602001806148186036913960400191505060405180910390fd5b600083838360405161018590610265565b80846001600160a01b03168152602001836001600160a01b031681526020018281526020019350505050604051809103906000f0801580156101cb573d6000803e3d6000fd5b506001600160a01b0385811660008181526020818152604080832089861680855290835281842089855283529281902080547fffffffffffffffffffffffff0000000000000000000000000000000000000000169587169586179055805194855251949550869491937f23658fa6d505b3e3034045b3937d4239cbdaa345bfb0c4a2d6637ade8b85457c929081900390910190a450505050565b6145a5806102738339019056fe60806040523480156200001157600080fd5b50604051620045a5380380620045a583398101604081905262000034916200011f565b6000805460ff191660011790556001600160a01b038316158015906200006257506001600160a01b03821615155b6200008a5760405162461bcd60e51b815260040162000081906200015f565b60405180910390fd5b600580546001600160a01b03199081163317909155600380546001600160a01b03868116918416821790925560048054928616929093168217909255600683905514620000d9576000620000dc565b60015b60048054911515600160a01b0260ff60a01b1990921691909117905550620001a7915050565b80516001600160a01b03811681146200011a57600080fd5b919050565b60008060006060848603121562000134578283fd5b6200013f8462000102565b92506200014f6020850162000102565b9150604084015190509250925092565b60208082526028908201527f556e6967656d45786368616e676523636f6e7374727563746f723a494e56414c604082015267125117d25394155560c21b606082015260800190565b6143ee80620001b76000396000f3fe608060405234801561001057600080fd5b50600436106101355760003560e01c8063863ed300116100b2578063be57146811610081578063f23a6e6111610066578063f23a6e61146102ac578063f242432a146102bf578063fca16c3b146102d257610135565b8063be57146814610286578063e985e9c51461029957610135565b8063863ed30014610238578063a22cb4651461024b578063a9c2e36c1461025e578063bc197c811461026657610135565b80632bef5e381161010957806346adf5ca116100ee57806346adf5ca146101fc5780634e1273f4146102125780636ee8e1341461022557610135565b80632bef5e38146101d45780632eb2c2d6146101e757610135565b8062fdd58e1461015657806301ffc9a71461017f57806310fe9ae81461019f578063209b96c5146101b4575b60405162461bcd60e51b815260040161014d906134b5565b60405180910390fd5b610169610164366004612c2e565b6102e5565b6040516101769190614331565b60405180910390f35b61019261018d366004612e00565b610310565b60405161017691906133db565b6101a76103af565b60405161017691906131a3565b6101c76101c2366004612d1c565b6103be565b6040516101769190613361565b6101c76101e2366004612d1c565b61045f565b6101fa6101f5366004612aec565b6104f7565b005b610204610576565b6040516101769291906132e8565b6101c7610220366004612c59565b61058a565b6101696102333660046130f3565b610684565b6101c7610246366004612d5c565b6106fe565b6101fa610259366004612bfd565b610854565b6101a76108c3565b610279610274366004612aec565b6108d2565b60405161017691906133e6565b6101c7610294366004612d5c565b610d33565b6101926102a7366004612ab4565b610e7e565b6102796102ba366004612b96565b610eac565b6101fa6102cd366004612b96565b610f79565b6101696102e03660046130f3565b610ff1565b6001600160a01b03821660009081526001602090815260408083208484529091529020545b92915050565b60006001600160e01b031982167f01ffc9a700000000000000000000000000000000000000000000000000000000148061037357506001600160e01b031982167fd9b67a2600000000000000000000000000000000000000000000000000000000145b806103a757506001600160e01b031982167f4e2312e000000000000000000000000000000000000000000000000000000000145b90505b919050565b6003546001600160a01b031690565b606081818167ffffffffffffffff811180156103d957600080fd5b50604051908082528060200260200182016040528015610403578160200160208202803683370190505b50905060005b82811015610456576008600087878481811061042157fe5b9050602002013581526020019081526020016000205482828151811061044357fe5b6020908102919091010152600101610409565b50949350505050565b606081818167ffffffffffffffff8111801561047a57600080fd5b506040519080825280602002602001820160405280156104a4578160200160208202803683370190505b50905060005b8281101561045657600760008787848181106104c257fe5b905060200201358152602001908152602001600020548282815181106104e457fe5b60209081029190910101526001016104aa565b336001600160a01b038616148061051357506105138533610e7e565b61052f5760405162461bcd60e51b815260040161014d90613d3a565b6001600160a01b0384166105555760405162461bcd60e51b815260040161014d9061397d565b61056185858585611056565b61056f858585855a86611250565b5050505050565b6004546006546001600160a01b0390911691565b606081518351146105ad5760405162461bcd60e51b815260040161014d90613cdd565b6060835167ffffffffffffffff811180156105c757600080fd5b506040519080825280602002602001820160405280156105f1578160200160208202803683370190505b50905060005b845181101561067c576001600086838151811061061057fe5b60200260200101516001600160a01b03166001600160a01b03168152602001908152602001600020600085838151811061064657fe5b602002602001015181526020019081526020016000205482828151811061066957fe5b60209081029190910101526001016105f7565b509392505050565b600080831180156106955750600082115b6106b15760405162461bcd60e51b815260040161014d90613d97565b60006106bf856103e361132d565b905060006106cd828561132d565b905060006106e7836106e1886103e861132d565b9061136e565b90508082816106f257fe5b04979650505050505050565b606083818167ffffffffffffffff8111801561071957600080fd5b50604051908082528060200260200182016040528015610743578160200160208202803683370190505b50905060005b82811015610849576003546000906001600160a01b031662fdd58e308b8b8681811061077157fe5b905060200201356040518363ffffffff1660e01b81526004016107959291906132e8565b60206040518083038186803b1580156107ad57600080fd5b505afa1580156107c1573d6000803e3d6000fd5b505050506040513d601f19601f820116820180604052508101906107e591906130db565b90506108298787848181106107f657fe5b9050602002013582600860008d8d8881811061080e57fe5b90506020020135815260200190815260200160002054610684565b83838151811061083557fe5b602090810291909101015250600101610749565b509695505050505050565b3360008181526002602090815260408083206001600160a01b038716808552925291829020805460ff191685151517905590519091907f17307eab39ab6107e8899845ad3d59bd9653f200f220920489ca2b5937696c31906108b79085906133db565b60405180910390a35050565b6005546001600160a01b031690565b600080828060200190518101906108e99190612e1c565b90506001600160e01b031981167fb2d81047000000000000000000000000000000000000000000000000000000001415610a6b576004546001600160a01b031633146109475760405162461bcd60e51b815260040161014d90614023565b84516001146109685760405162461bcd60e51b815260040161014d906136a0565b6006548560008151811061097857fe5b60200260200101511461099d5760405162461bcd60e51b815260040161014d90614160565b6109a561289e565b838060200190518101906109b99190612ed1565b8051909250600091506001600160a01b0316156109d75781516109d9565b875b90506060610a0a83602001518460400151896000815181106109f757fe5b6020026020010151866060015186611393565b9050816001600160a01b0316896001600160a01b03167fd38bc77e62e239476b3e25620d73f29a4a188e808aad79f4a81aaf44871a7a308560200151866040015185604051610a5b939291906133a2565b60405180910390a3505050610d20565b6001600160e01b031981167fdb08ec97000000000000000000000000000000000000000000000000000000001415610b65576003546001600160a01b03163314610ac75760405162461bcd60e51b815260040161014d90613639565b610acf6128cf565b83806020019051810190610ae3919061305a565b8051909250600091506001600160a01b031615610b01578151610b03565b875b90506060610b1c8888856020015186604001518661164c565b9050816001600160a01b0316896001600160a01b03167f89e4dbdd48f69e7920342e9ad9691b9a7150f254e6a0af177ccfd2556aab8bcd8a8a85604051610a5b939291906133a2565b6001600160e01b031981167f82da2b73000000000000000000000000000000000000000000000000000000001415610bfe576003546001600160a01b03163314610bc15760405162461bcd60e51b815260040161014d90613df4565b610bc96128f9565b83806020019051810190610bdd9190612e38565b905080915050610bf887878784600001518560200151611875565b50610d20565b6001600160e01b031981167f5c0bf259000000000000000000000000000000000000000000000000000000001415610c8b57333014610c4f5760405162461bcd60e51b815260040161014d90614251565b610c57612913565b83806020019051810190610c6b9190612f9e565b905080915050610bf8878787846000015185602001518660400151611d90565b6001600160e01b0319811663c8c323f960e01b1415610d08576004546001600160a01b03163314610cce5760405162461bcd60e51b815260040161014d906140a6565b60065485600081518110610cde57fe5b602002602001015114610d035760405162461bcd60e51b815260040161014d90614160565b610d20565b60405162461bcd60e51b815260040161014d906141f4565b5063bc197c8160e01b9695505050505050565b606083818167ffffffffffffffff81118015610d4e57600080fd5b50604051908082528060200260200182016040528015610d78578160200160208202803683370190505b50905060005b82811015610849576003546000906001600160a01b031662fdd58e308b8b86818110610da657fe5b905060200201356040518363ffffffff1660e01b8152600401610dca9291906132e8565b60206040518083038186803b158015610de257600080fd5b505afa158015610df6573d6000803e3d6000fd5b505050506040513d601f19601f82011682018060405250810190610e1a91906130db565b9050610e5e878784818110610e2b57fe5b90506020020135600860008c8c87818110610e4257fe5b9050602002013581526020019081526020016000205483610ff1565b838381518110610e6a57fe5b602090810291909101015250600101610d7e565b6001600160a01b03918216600090815260026020908152604080832093909416825291909152205460ff1690565b604080516001808252818301909252600091606091906020808301908036833750506040805160018082528183019092529293506060929150602080830190803683370190505090508582600081518110610f0357fe5b6020026020010181815250508481600081518110610f1d57fe5b602002602001018181525050610f3688888484886108d2565b6001600160e01b03191663bc197c8160e01b14610f655760405162461bcd60e51b815260040161014d906142d4565b5063f23a6e6160e01b979650505050505050565b336001600160a01b0386161480610f955750610f958533610e7e565b610fb15760405162461bcd60e51b815260040161014d906135dc565b6001600160a01b038416610fd75760405162461bcd60e51b815260040161014d90613458565b610fe3858585856121b9565b61056f858585855a8661229a565b600080831180156110025750600082115b61101e5760405162461bcd60e51b815260040161014d90613809565b60006110366103e8611030868861132d565b9061132d565b9050600061104a6103e3611030868961236d565b90506108498282612395565b80518251146110775760405162461bcd60e51b815260040161014d90613723565b815160005b818110156111f1576110f383828151811061109357fe5b602002602001015160016000896001600160a01b03166001600160a01b0316815260200190815260200160002060008785815181106110ce57fe5b602002602001015181526020019081526020016000205461236d90919063ffffffff16565b6001600160a01b0387166000908152600160205260408120865190919087908590811061111c57fe5b60200260200101518152602001908152602001600020819055506111a583828151811061114557fe5b602002602001015160016000886001600160a01b03166001600160a01b03168152602001908152602001600020600087858151811061118057fe5b602002602001015181526020019081526020016000205461136e90919063ffffffff16565b6001600160a01b038616600090815260016020526040812086519091908790859081106111ce57fe5b60209081029190910181015182528101919091526040016000205560010161107c565b50836001600160a01b0316856001600160a01b0316336001600160a01b03167f4a39dc06d4c0dbc64b70af90fd698a233a518aa5d07e595d983b8c0526c8f7fb8686604051611241929190613374565b60405180910390a45050505050565b611262856001600160a01b03166123dc565b15611325576000856001600160a01b031663bc197c8184338a8989886040518763ffffffff1660e01b815260040161129e9594939291906131b7565b602060405180830381600088803b1580156112b857600080fd5b5087f11580156112cc573d6000803e3d6000fd5b50505050506040513d601f19601f820116820180604052508101906112f19190612e1c565b90506001600160e01b0319811663bc197c8160e01b146113235760405162461bcd60e51b815260040161014d90613fc6565b505b505050505050565b60008261133c5750600061030a565b8282028284828161134957fe5b04146113675760405162461bcd60e51b815260040161014d906139da565b9392505050565b6000828201838110156113675760405162461bcd60e51b815260040161014d906135a5565b60005460609060ff166113b85760405162461bcd60e51b815260040161014d906141bd565b6000805460ff19169055428310156113e25760405162461bcd60e51b815260040161014d90613bab565b8551848167ffffffffffffffff811180156113fc57600080fd5b50604051908082528060200260200182016040528015611426578160200160208202803683370190505b50925060608267ffffffffffffffff8111801561144257600080fd5b5060405190808252806020026020018201604052801561146c578160200160208202803683370190505b509050611478896123e2565b905060005b8381101561155b5760008a828151811061149357fe5b6020026020010151905060008a83815181106114ab57fe5b6020026020010151905060008484815181106114c357fe5b60200260200101519050600082116114ed5760405162461bcd60e51b815260040161014d90613866565b60008381526008602052604081205490611508848385610ff1565b9050611514888261236d565b9750808a878151811061152357fe5b6020908102919091010152611538828261136e565b6000958652600860205260409095209490945550506001909201915061147d9050565b5081156115cb5760048054600654604051637921219560e11b81526001600160a01b039092169263f242432a926115989230928b928991016132b0565b600060405180830381600087803b1580156115b257600080fd5b505af11580156115c6573d6000803e3d6000fd5b505050505b600354604051631759616b60e11b81526001600160a01b0390911690632eb2c2d69061160190309089908e908e90600401613258565b600060405180830381600087803b15801561161b57600080fd5b505af115801561162f573d6000803e3d6000fd5b505050505050506000805460ff1916600117905595945050505050565b60005460609060ff166116715760405162461bcd60e51b815260040161014d906141bd565b6000805460ff1916905585514284101561169d5760405162461bcd60e51b815260040161014d906134f6565b60008167ffffffffffffffff811180156116b657600080fd5b506040519080825280602002602001820160405280156116e0578160200160208202803683370190505b50925060608267ffffffffffffffff811180156116fc57600080fd5b50604051908082528060200260200182016040528015611726578160200160208202803683370190505b509050611732896123e2565b905060005b8381101561181e5760008a828151811061174d57fe5b6020026020010151905060008a838151811061176557fe5b60200260200101519050600084848151811061177d57fe5b60200260200101519050600082116117a75760405162461bcd60e51b815260040161014d90613b4e565b600083815260086020526040812054906117cb846117c5858261236d565b84610684565b90506117d7888261136e565b97506117e3828261236d565b600086815260086020526040902055895181908b908890811061180257fe5b6020908102919091010152505060019093019250611737915050565b508682101561183f5760405162461bcd60e51b815260040161014d90613920565b60048054600654604051637921219560e11b81526001600160a01b039092169263f242432a926116019230928b928991016132b0565b60005460ff166118975760405162461bcd60e51b815260040161014d906141bd565b6000805460ff19169055428110156118c15760405162461bcd60e51b815260040161014d906138c3565b8351600060608267ffffffffffffffff811180156118de57600080fd5b50604051908082528060200260200182016040528015611908578160200160208202803683370190505b50905060608367ffffffffffffffff8111801561192457600080fd5b5060405190808252806020026020018201604052801561194e578160200160208202803683370190505b50905060608467ffffffffffffffff8111801561196a57600080fd5b50604051908082528060200260200182016040528015611994578160200160208202803683370190505b5090506119a0896123e2565b905060005b85811015611c7e5760008a82815181106119bb57fe5b6020026020010151905060008a83815181106119d357fe5b6020026020010151905060008a84815181106119eb57fe5b602002602001015111611a105760405162461bcd60e51b815260040161014d90613e52565b60008111611a305760405162461bcd60e51b815260040161014d90613c80565b60045474010000000000000000000000000000000000000000900460ff1615611a7557600654821415611a755760405162461bcd60e51b815260040161014d90613a94565b6000828152600760205260409020548015611bd1576000838152600860205260408120548651909190879087908110611aaa57fe5b60200260200101519050600080611adc611acd858861132d90919063ffffffff16565b611ad7858961236d565b612395565b91509150818f8981518110611aed57fe5b60200260200101511015611b135760405162461bcd60e51b815260040161014d906133fb565b611b1d848361136e565b600088815260086020526040902055611b368c8361136e565b9b5083611b598661103084611b4c576000611b4f565b60015b869060ff1661236d565b81611b6057fe5b048b8981518110611b6d57fe5b602002602001018181525050818a8981518110611b8657fe5b602002602001018181525050611bb88b8981518110611ba157fe5b60200260200101518661136e90919063ffffffff16565b60008881526007602052604090205550611c7392505050565b60008b8581518110611bdf57fe5b60200260200101519050633b9aca00811015611c0d5760405162461bcd60e51b815260040161014d90613f69565b6000848152600860205260409020819055611c28898261136e565b600085815260076020526040902082905588519099508190899087908110611c4c57fe5b60200260200101818152505080878681518110611c6557fe5b602002602001018181525050505b5050506001016119a5565b50611c9a8a8a856040518060200160405280600081525061265e565b6004546006546040516001600160a01b039092169163f242432a918d913091908990611cd19063c8c323f960e01b906020016133e6565b6040516020818303038152906040526040518663ffffffff1660e01b8152600401611d00959493929190613215565b600060405180830381600087803b158015611d1a57600080fd5b505af1158015611d2e573d6000803e3d6000fd5b50505050896001600160a01b03167f403f9dc4582dae52d3eeb4a22d37540ffb13c32d964c92ec5ac0d3d5628da3168a8a85604051611d6f939291906133a2565b60405180910390a250506000805460ff191660011790555050505050505050565b60005460ff16611db25760405162461bcd60e51b815260040161014d906141bd565b6000805460ff19169055428111611ddb5760405162461bcd60e51b815260040161014d906137b7565b8451600060608267ffffffffffffffff81118015611df857600080fd5b50604051908082528060200260200182016040528015611e22578160200160208202803683370190505b50905060608367ffffffffffffffff81118015611e3e57600080fd5b50604051908082528060200260200182016040528015611e68578160200160208202803683370190505b50905060608467ffffffffffffffff81118015611e8457600080fd5b50604051908082528060200260200182016040528015611eae578160200160208202803683370190505b509050611eba8a6123e2565b905060005b8581101561206b5760008b8281518110611ed557fe5b6020026020010151905060008b8381518110611eed57fe5b602002602001015190506000848481518110611f0557fe5b6020026020010151905060006007600085815260200190815260200160002054905060008111611f475760405162461bcd60e51b815260040161014d90613f0c565b6000848152600860205260408120549082611f62868461132d565b81611f6957fe5b049050600083611f79878761132d565b81611f8057fe5b0490508f8881518110611f8f57fe5b6020026020010151821015611fb65760405162461bcd60e51b815260040161014d90613548565b8e8881518110611fc257fe5b6020026020010151811015611fe95760405162461bcd60e51b815260040161014d90613a37565b611ff3848761236d565b60008881526007602052604090205561200c838361236d565b6000888152600860205260409020556120258c8361136e565b9b50808b898151811061203457fe5b602002602001018181525050818a898151811061204d57fe5b6020908102919091010152505060019095019450611ebf9350505050565b50612077308b8b61278a565b600460009054906101000a90046001600160a01b03166001600160a01b031663f242432a308d600654886040518563ffffffff1660e01b81526004016120c094939291906132b0565b600060405180830381600087803b1580156120da57600080fd5b505af11580156120ee573d6000803e3d6000fd5b5050600354604051631759616b60e11b81526001600160a01b039091169250632eb2c2d691506121289030908f908f908990600401613258565b600060405180830381600087803b15801561214257600080fd5b505af1158015612156573d6000803e3d6000fd5b505050508a6001600160a01b03167f711e9bcb94b4cf7bc99c1cb938edc75ac7e85a136838e90abf6ee1f5adebd4238b8585604051612197939291906133a2565b60405180910390a250506000805460ff19166001179055505050505050505050565b6001600160a01b03841660009081526001602090815260408083208584529091529020546121e7908261236d565b6001600160a01b03808616600090815260016020818152604080842088855282528084209590955592871682528252828120858252909152205461222b908261136e565b6001600160a01b038085166000818152600160209081526040808320888452909152908190209390935591519086169033907fc3d58168c5ae7397731d063d5bbf3d657854427343f4c083240f7aacaa2d0f629061228c908790879061433a565b60405180910390a450505050565b6122ac856001600160a01b03166123dc565b15611325576000856001600160a01b031663f23a6e6184338a8989886040518763ffffffff1660e01b81526004016122e8959493929190613215565b602060405180830381600088803b15801561230257600080fd5b5087f1158015612316573d6000803e3d6000fd5b50505050506040513d601f19601f8201168201806040525081019061233b9190612e1c565b90506001600160e01b0319811663f23a6e6160e01b146113235760405162461bcd60e51b815260040161014d90614103565b60008282111561238f5760405162461bcd60e51b815260040161014d90613780565b50900390565b6000808284816123a157fe5b06156123c3576123bc60018486816123b557fe5b049061136e565b60016123d0565b8284816123cc57fe5b0460005b915091505b9250929050565b3b151590565b805160609060018114156124c95760408051600180825281830190925260609160208083019080368337505060035486519293506001600160a01b03169162fdd58e91503090879060009061243357fe5b60200260200101516040518363ffffffff1660e01b81526004016124589291906132e8565b60206040518083038186803b15801561247057600080fd5b505afa158015612484573d6000803e3d6000fd5b505050506040513d601f19601f820116820180604052508101906124a891906130db565b816000815181106124b557fe5b602090810291909101015291506103aa9050565b60608167ffffffffffffffff811180156124e257600080fd5b5060405190808252806020026020018201604052801561250c578160200160208202803683370190505b509050308160008151811061251d57fe5b6001600160a01b039092166020928302919091019091015260015b828110156125b55784818151811061254c57fe5b602002602001015185600183038151811061256357fe5b6020026020010151106125885760405162461bcd60e51b815260040161014d90613bfd565b3082828151811061259557fe5b6001600160a01b0390921660209283029190910190910152600101612538565b506003546040517f4e1273f40000000000000000000000000000000000000000000000000000000081526001600160a01b0390911690634e1273f4906126019084908890600401613301565b60006040518083038186803b15801561261957600080fd5b505afa15801561262d573d6000803e3d6000fd5b505050506040513d6000823e601f3d908101601f191682016040526126559190810190612dc5565b925050506103aa565b815183511461267f5760405162461bcd60e51b815260040161014d90613eaf565b825160005b81811015612722576126d684828151811061269b57fe5b602002602001015160016000896001600160a01b03166001600160a01b03168152602001908152602001600020600088858151811061118057fe5b6001600160a01b038716600090815260016020526040812087519091908890859081106126ff57fe5b602090810291909101810151825281019190915260400160002055600101612684565b50846001600160a01b031660006001600160a01b0316336001600160a01b03167f4a39dc06d4c0dbc64b70af90fd698a233a518aa5d07e595d983b8c0526c8f7fb8787604051612773929190613374565b60405180910390a461056f60008686865a87611250565b8151815181146127ac5760405162461bcd60e51b815260040161014d90613af1565b60005b8181101561284d576128018382815181106127c657fe5b602002602001015160016000886001600160a01b03166001600160a01b0316815260200190815260200160002060008785815181106110ce57fe5b6001600160a01b0386166000908152600160205260408120865190919087908590811061282a57fe5b6020908102919091018101518252810191909152604001600020556001016127af565b5060006001600160a01b0316846001600160a01b0316336001600160a01b03167f4a39dc06d4c0dbc64b70af90fd698a233a518aa5d07e595d983b8c0526c8f7fb868660405161228c929190613374565b604051806080016040528060006001600160a01b031681526020016060815260200160608152602001600081525090565b604051806060016040528060006001600160a01b0316815260200160008152602001600081525090565b604051806040016040528060608152602001600081525090565b60405180606001604052806060815260200160608152602001600081525090565b80516103aa8161438a565b60008083601f840112612950578081fd5b50813567ffffffffffffffff811115612967578182fd5b60208301915083602080830285010111156123d557600080fd5b600082601f830112612991578081fd5b81356129a461299f8261436c565b614348565b8181529150602080830190848101818402860182018710156129c557600080fd5b60005b848110156129e4578135845292820192908201906001016129c8565b505050505092915050565b600082601f8301126129ff578081fd5b8151612a0d61299f8261436c565b818152915060208083019084810181840286018201871015612a2e57600080fd5b60005b848110156129e457815184529282019290820190600101612a31565b600082601f830112612a5d578081fd5b813567ffffffffffffffff811115612a7157fe5b612a84601f8201601f1916602001614348565b9150808252836020828501011115612a9b57600080fd5b8060208401602084013760009082016020015292915050565b60008060408385031215612ac6578182fd5b8235612ad18161438a565b91506020830135612ae18161438a565b809150509250929050565b600080600080600060a08688031215612b03578081fd5b8535612b0e8161438a565b94506020860135612b1e8161438a565b9350604086013567ffffffffffffffff80821115612b3a578283fd5b612b4689838a01612981565b94506060880135915080821115612b5b578283fd5b612b6789838a01612981565b93506080880135915080821115612b7c578283fd5b50612b8988828901612a4d565b9150509295509295909350565b600080600080600060a08688031215612bad578081fd5b8535612bb88161438a565b94506020860135612bc88161438a565b93506040860135925060608601359150608086013567ffffffffffffffff811115612bf1578182fd5b612b8988828901612a4d565b60008060408385031215612c0f578182fd5b8235612c1a8161438a565b915060208301358015158114612ae1578182fd5b60008060408385031215612c40578182fd5b8235612c4b8161438a565b946020939093013593505050565b60008060408385031215612c6b578182fd5b823567ffffffffffffffff80821115612c82578384fd5b818501915085601f830112612c95578384fd5b8135612ca361299f8261436c565b80828252602080830192508086018a828387028901011115612cc3578889fd5b8896505b84871015612cee578035612cda8161438a565b845260019690960195928101928101612cc7565b509096508701359350505080821115612d05578283fd5b50612d1285828601612981565b9150509250929050565b60008060208385031215612d2e578182fd5b823567ffffffffffffffff811115612d44578283fd5b612d508582860161293f565b90969095509350505050565b60008060008060408587031215612d71578182fd5b843567ffffffffffffffff80821115612d88578384fd5b612d948883890161293f565b90965094506020870135915080821115612dac578384fd5b50612db98782880161293f565b95989497509550505050565b600060208284031215612dd6578081fd5b815167ffffffffffffffff811115612dec578182fd5b612df8848285016129ef565b949350505050565b600060208284031215612e11578081fd5b8135611367816143a2565b600060208284031215612e2d578081fd5b8151611367816143a2565b60008060408385031215612e4a578182fd5b8251612e55816143a2565b602084015190925067ffffffffffffffff80821115612e72578283fd5b9084019060408287031215612e85578283fd5b604051604081018181108382111715612e9a57fe5b604052825182811115612eab578485fd5b612eb7888286016129ef565b825250602083015160208201528093505050509250929050565b60008060408385031215612ee3578182fd5b8251612eee816143a2565b602084015190925067ffffffffffffffff80821115612f0b578283fd5b9084019060808287031215612f1e578283fd5b604051608081018181108382111715612f3357fe5b604052612f3f83612934565b8152602083015182811115612f52578485fd5b612f5e888286016129ef565b602083015250604083015182811115612f75578485fd5b612f81888286016129ef565b604083015250606083015160608201528093505050509250929050565b60008060408385031215612fb0578182fd5b8251612fbb816143a2565b602084015190925067ffffffffffffffff80821115612fd8578283fd5b9084019060608287031215612feb578283fd5b60405160608101818110838211171561300057fe5b604052825182811115613011578485fd5b61301d888286016129ef565b825250602083015182811115613031578485fd5b61303d888286016129ef565b602083015250604083015160408201528093505050509250929050565b600080828403608081121561306d578283fd5b8351613078816143a2565b92506060601f198201121561308b578182fd5b506040516060810181811067ffffffffffffffff821117156130a957fe5b60405260208401516130ba8161438a565b81526040848101516020830152606090940151938101939093525092909150565b6000602082840312156130ec578081fd5b5051919050565b600080600060608486031215613107578081fd5b505081359360208301359350604090920135919050565b6000815180845260208085019450808401835b8381101561314d57815187529582019590820190600101613131565b509495945050505050565b60008151808452815b8181101561317d57602081850181015186830182015201613161565b8181111561318e5782602083870101525b50601f01601f19169290920160200192915050565b6001600160a01b0391909116815260200190565b60006001600160a01b03808816835280871660208401525060a060408301526131e360a083018661311e565b82810360608401526131f5818661311e565b905082810360808401526132098185613158565b98975050505050505050565b60006001600160a01b03808816835280871660208401525084604083015283606083015260a0608083015261324d60a0830184613158565b979650505050505050565b60006001600160a01b03808716835280861660208401525060a0604083015261328460a083018561311e565b8281036060840152613296818561311e565b838103608090940193909352508152602001949350505050565b6001600160a01b0394851681529290931660208301526040820152606081019190915260a06080820181905260009082015260c00190565b6001600160a01b03929092168252602082015260400190565b604080825283519082018190526000906020906060840190828701845b828110156133435781516001600160a01b03168452928401929084019060010161331e565b50505083810382850152613357818661311e565b9695505050505050565b600060208252611367602083018461311e565b600060408252613387604083018561311e565b8281036020840152613399818561311e565b95945050505050565b6000606082526133b5606083018661311e565b82810360208401526133c7818661311e565b90508281036040840152613357818561311e565b901515815260200190565b6001600160e01b031991909116815260200190565b6020808252603a908201527f556e6967656d45786368616e6765235f6164644c69717569646974793a204d4160408201527f585f43555252454e43595f414d4f554e545f4558434545444544000000000000606082015260800190565b6020808252602b908201527f4552433131353523736166655472616e7366657246726f6d3a20494e56414c4960408201527f445f524543495049454e54000000000000000000000000000000000000000000606082015260800190565b60208082526021908201527f556e6967656d45786368616e67653a554e535550504f525445445f4d4554484f6040820152601160fa1b606082015260800190565b60208082526032908201527f556e6967656d45786368616e6765235f746f6b656e546f43757272656e63793a60408201527108111150511312539157d15610d15151115160721b606082015260800190565b6020808252603d908201527f556e6967656d45786368616e6765235f72656d6f76654c69717569646974793a60408201527f20494e53554646494349454e545f43555252454e43595f414d4f554e54000000606082015260800190565b6020808252601b908201527f536166654d6174683a206164646974696f6e206f766572666c6f770000000000604082015260600190565b6020808252602a908201527f4552433131353523736166655472616e7366657246726f6d3a20494e56414c4960408201527f445f4f50455241544f5200000000000000000000000000000000000000000000606082015260800190565b60208082526041908201527f556e6967656d45786368616e6765236f6e45524331313535426174636852656360408201527f65697665643a20494e56414c49445f544f4b454e535f5452414e5346455252456060820152601160fa1b608082015260a00190565b60208082526042908201527f556e6967656d45786368616e6765236f6e45524331313535426174636852656360408201527f65697665643a20494e56414c49445f43555252454e43595f4944535f414d4f5560608201527f4e54000000000000000000000000000000000000000000000000000000000000608082015260a00190565b60208082526035908201527f45524331313535235f7361666542617463685472616e7366657246726f6d3a2060408201527f494e56414c49445f4152524159535f4c454e4754480000000000000000000000606082015260800190565b6020808252601e908201527f536166654d6174683a207375627472616374696f6e206f766572666c6f770000604082015260600190565b60208082526032908201527f556e6967656d45786368616e6765235f72656d6f76654c69717569646974793a60408201527108111150511312539157d15610d15151115160721b606082015260800190565b60208082526029908201527f556e6967656d45786368616e67652367657442757950726963653a20454d505460408201527f595f524553455256450000000000000000000000000000000000000000000000606082015260800190565b60208082526033908201527f556e6967656d45786368616e6765235f63757272656e6379546f546f6b656e3a60408201527f204e554c4c5f544f4b454e535f424f5547485400000000000000000000000000606082015260800190565b6020808252602f908201527f556e6967656d45786368616e6765235f6164644c69717569646974793a20444560408201527f41444c494e455f45584345454445440000000000000000000000000000000000606082015260800190565b6020808252603d908201527f556e6967656d45786368616e6765235f746f6b656e546f43757272656e63793a60408201527f20494e53554646494349454e545f43555252454e43595f414d4f554e54000000606082015260800190565b60208082526030908201527f45524331313535237361666542617463685472616e7366657246726f6d3a204960408201527f4e56414c49445f524543495049454e5400000000000000000000000000000000606082015260800190565b60208082526021908201527f536166654d6174683a206d756c7469706c69636174696f6e206f766572666c6f60408201527f7700000000000000000000000000000000000000000000000000000000000000606082015260800190565b60208082526034908201527f556e6967656d45786368616e6765235f72656d6f76654c69717569646974793a60408201527f20494e53554646494349454e545f544f4b454e53000000000000000000000000606082015260800190565b60208082526035908201527f556e6967656d45786368616e6765235f6164644c69717569646974793a20435560408201527f5252454e43595f504f4f4c5f464f5242494444454e0000000000000000000000606082015260800190565b60208082526030908201527f455243313135354d696e744275726e2362617463684275726e3a20494e56414c60408201527f49445f4152524159535f4c454e47544800000000000000000000000000000000606082015260800190565b60208082526031908201527f556e6967656d45786368616e6765235f746f6b656e546f43757272656e63793a60408201527f204e554c4c5f544f4b454e535f534f4c44000000000000000000000000000000606082015260800190565b60208082526032908201527f556e6967656d45786368616e6765235f63757272656e6379546f546f6b656e3a60408201527108111150511312539157d15610d15151115160721b606082015260800190565b60208082526041908201527f556e6967656d45786368616e6765235f676574546f6b656e526573657276657360408201527f3a20554e534f525445445f4f525f4455504c49434154455f544f4b454e5f494460608201527f5300000000000000000000000000000000000000000000000000000000000000608082015260a00190565b60208082526030908201527f556e6967656d45786368616e6765235f6164644c69717569646974793a204e5560408201527f4c4c5f544f4b454e535f414d4f554e5400000000000000000000000000000000606082015260800190565b6020808252602c908201527f455243313135352362616c616e63654f6642617463683a20494e56414c49445f60408201527f41525241595f4c454e4754480000000000000000000000000000000000000000606082015260800190565b6020808252602f908201527f45524331313535237361666542617463685472616e7366657246726f6d3a204960408201527f4e56414c49445f4f50455241544f520000000000000000000000000000000000606082015260800190565b6020808252602a908201527f556e6967656d45786368616e67652367657453656c6c50726963653a20454d5060408201527f54595f5245534552564500000000000000000000000000000000000000000000606082015260800190565b602080825260409082018190527f556e6967656d45786368616e6765236f6e455243313135354261746368526563908201527f65697665643a20494e56414c49445f544f4b454e5f5452414e53464552524544606082015260800190565b6020808252602f908201527f556e6967656d45786368616e6765235f6164644c69717569646974793a204e5560408201527f4c4c5f4d41585f43555252454e43590000000000000000000000000000000000606082015260800190565b60208082526030908201527f455243313135354d696e744275726e2362617463684d696e743a20494e56414c60408201527f49445f4152524159535f4c454e47544800000000000000000000000000000000606082015260800190565b60208082526035908201527f556e6967656d45786368616e6765235f72656d6f76654c69717569646974793a60408201527f204e554c4c5f544f54414c5f4c49515549444954590000000000000000000000606082015260800190565b60208082526035908201527f556e6967656d45786368616e6765235f6164644c69717569646974793a20494e60408201527f56414c49445f43555252454e43595f414d4f554e540000000000000000000000606082015260800190565b6020808252603f908201527f45524331313535235f63616c6c6f6e455243313135354261746368526563656960408201527f7665643a20494e56414c49445f4f4e5f524543454956455f4d45535341474500606082015260800190565b60208082526043908201527f556e6967656d45786368616e6765236f6e45524331313535426174636852656360408201527f65697665643a20494e56414c49445f43555252454e43595f5452414e5346455260608201527f5245440000000000000000000000000000000000000000000000000000000000608082015260a00190565b6020808252603f908201527f556e6967656d45786368616e6765236f6e45524331313535426174636852656360408201527f65697665643a20494e56414c49445f544f4b454e535f4445504f534954454400606082015260800190565b6020808252603a908201527f45524331313535235f63616c6c6f6e4552433131353552656365697665643a2060408201527f494e56414c49445f4f4e5f524543454956455f4d455353414745000000000000606082015260800190565b6020808252603a908201527f556e6967656d45786368616e6765236f6e45524331313535426174636852656360408201527f65697665643a20494e56414c49445f43555252454e43595f4944000000000000606082015260800190565b6020808252601f908201527f5265656e7472616e637947756172643a207265656e7472616e742063616c6c00604082015260600190565b60208082526035908201527f556e6967656d45786368616e6765236f6e45524331313535426174636852656360408201527f65697665643a20494e56414c49445f4d4554484f440000000000000000000000606082015260800190565b60208082526046908201527f556e6967656d45786368616e6765236f6e45524331313535426174636852656360408201527f65697665643a20494e56414c49445f5547454d5f544f4b454e535f5452414e5360608201527f4645525245440000000000000000000000000000000000000000000000000000608082015260a00190565b6020808252603c908201527f556e6967656d45786368616e6765236f6e45524331313535526563656976656460408201527f3a20494e56414c49445f4f4e52454345495645445f4d45535341474500000000606082015260800190565b90815260200190565b918252602082015260400190565b60405181810167ffffffffffffffff8111828210171561436457fe5b604052919050565b600067ffffffffffffffff82111561438057fe5b5060209081020190565b6001600160a01b038116811461439f57600080fd5b50565b6001600160e01b03198116811461439f57600080fdfea2646970667358221220e88c5bef80f862c8c33093df3603bb2d24e0887c227b0a676636e6d4976a7a6a64736f6c63430007030033556e6967656d466163746f72792363726561746545786368616e67653a2045584348414e47455f414c52454144595f43524541544544a2646970667358221220659736f1f526e8f7c81a7075cffd1e778609282b6dd2ec904ae6b215874ea69464736f6c63430007030033",
  "libraries": {
    "GovernanceLib": "0xfEbf82b4c4819f7ded1e0fF361c183381d1990Ea",
    "Strings": "0x2b5E12feB40530f028cE81c0B04F9B7804F3bD8B",
    "SafeMath": "0xf88a49ac5FFC67cA94a1235A44F4F366eb0c77f0",
    "AddressSet": "0xc400Df1a9cB78148de8c145100D1e4E40f4a5142",
    "UInt256Set": "0xD208031f5dc5134A58cA550a14637461A0e7A469",
    "Create2": "0x9eb74D584F4500E35643463d17e0f96878bcD970",
    "ProposalsLib": "0x4768e50d7F5bEDecdb097D6381c69FaA00FCD164",
    "ComplexPoolLib": "0xdE77ec68c4c6A330A3641e50fef9DC3A646061f6",
    "WrappedTokenLib": "0xBC08b86435FAC8cda9BC795BBd4d8b54C882cc8d",
    "Unigem20Library": "0x47dC7a56d15D6E6E8F0C5c2daD0ad2D2D1ba415D"
  },
  "devdoc": {
    "kind": "dev",
    "methods": {
      "createExchange(address,address,uint256)": {
        "params": {
          "_currency": "The address of the currency token contract",
          "_currencyID": "The id of the currency token",
          "_token": "The address of the ERC-1155 token contract"
        }
      }
    },
    "stateVariables": {
      "tokensToExchange": {
        "params": {
          "_currency": "The address of the currency token contract",
          "_currencyID": "The id of the currency token",
          "_token": "The address of the ERC-1155 token contract"
        }
      }
    },
    "version": 1
  },
  "userdoc": {
    "kind": "user",
    "methods": {
      "createExchange(address,address,uint256)": {
        "notice": "Creates a Unigem1155 Exchange for given token contract"
      },
      "tokensToExchange(address,address,uint256)": {
        "notice": "Return address of exchange for corresponding ERC-1155 token contract"
      }
    },
    "version": 1
  },
  "storageLayout": {
    "storage": [
      {
        "astId": 16323,
        "contract": "src/factories/Unigem1155Factory.sol:Unigem1155Factory",
        "label": "tokensToExchange",
        "offset": 0,
        "slot": "0",
        "type": "t_mapping(t_address,t_mapping(t_address,t_mapping(t_uint256,t_address)))"
      }
    ],
    "types": {
      "t_address": {
        "encoding": "inplace",
        "label": "address",
        "numberOfBytes": "20"
      },
      "t_mapping(t_address,t_mapping(t_address,t_mapping(t_uint256,t_address)))": {
        "encoding": "mapping",
        "key": "t_address",
        "label": "mapping(address => mapping(address => mapping(uint256 => address)))",
        "numberOfBytes": "32",
        "value": "t_mapping(t_address,t_mapping(t_uint256,t_address))"
      },
      "t_mapping(t_address,t_mapping(t_uint256,t_address))": {
        "encoding": "mapping",
        "key": "t_address",
        "label": "mapping(address => mapping(uint256 => address))",
        "numberOfBytes": "32",
        "value": "t_mapping(t_uint256,t_address)"
      },
      "t_mapping(t_uint256,t_address)": {
        "encoding": "mapping",
        "key": "t_uint256",
        "label": "mapping(uint256 => address)",
        "numberOfBytes": "32",
        "value": "t_address"
      },
      "t_uint256": {
        "encoding": "inplace",
        "label": "uint256",
        "numberOfBytes": "32"
      }
    }
  }
}