{
  "address": "0xBc8357132DFdCd2c65DAc10445d3674c628390Dd",
  "abi": [
    {
      "anonymous": false,
      "inputs": [
        {
          "indexed": true,
          "internalType": "address",
          "name": "account",
          "type": "address"
        },
        {
          "indexed": false,
          "internalType": "uint256",
          "name": "quantity",
          "type": "uint256"
        }
      ],
      "name": "Unwrap",
      "type": "event"
    },
    {
      "anonymous": false,
      "inputs": [
        {
          "indexed": true,
          "internalType": "address",
          "name": "account",
          "type": "address"
        },
        {
          "indexed": false,
          "internalType": "uint256",
          "name": "quantity",
          "type": "uint256"
        }
      ],
      "name": "Wrap",
      "type": "event"
    },
    {
      "inputs": [
        {
          "internalType": "address",
          "name": "erc1155token",
          "type": "address"
        },
        {
          "internalType": "address",
          "name": "tokenPool",
          "type": "address"
        },
        {
          "internalType": "uint8",
          "name": "tokenType",
          "type": "uint8"
        },
        {
          "internalType": "address",
          "name": "account",
          "type": "address"
        }
      ],
      "name": "getPoolTypeBalance",
      "outputs": [
        {
          "internalType": "uint256",
          "name": "tq",
          "type": "uint256"
        }
      ],
      "stateMutability": "view",
      "type": "function"
    }
  ],
  "transactionHash": "0xfcbf8ee4da65401be9fbe57124cf1f7ada6717beaeee9d3216c8d9e79c1926c3",
  "args": [],
  "solcInputHash": "99a5f3069d8b2755dae8c387024c94b7",
  "bytecode": "0x610aab610026600b82828239805160001a60731461001957fe5b30600052607381538281f3fe73000000000000000000000000000000000000000030146080604052600436106100405760003560e01c80639d26be3314610045578063b801a463146100a3575b600080fd5b6100916004803603608081101561005b57600080fd5b5073ffffffffffffffffffffffffffffffffffffffff8135811691602081013582169160ff6040830135169160600135166100fb565b60408051918252519081900360200190f35b8180156100af57600080fd5b506100f9600480360360808110156100c657600080fd5b5080359073ffffffffffffffffffffffffffffffffffffffff6020820135811691604081013590911690606001356103cb565b005b60008060018673ffffffffffffffffffffffffffffffffffffffff1663a0f8c694856040518263ffffffff1660e01b8152600401808273ffffffffffffffffffffffffffffffffffffffff16815260200191505060206040518083038186803b15801561016757600080fd5b505afa15801561017b573d6000803e3d6000fd5b505050506040513d602081101561019157600080fd5b50510390505b81156103c25760008673ffffffffffffffffffffffffffffffffffffffff1663b59a912885846040518363ffffffff1660e01b8152600401808373ffffffffffffffffffffffffffffffffffffffff1681526020018281526020019250505060206040518083038186803b15801561020e57600080fd5b505afa158015610222573d6000803e3d6000fd5b505050506040513d602081101561023857600080fd5b5051604080517fe6c3b1f600000000000000000000000000000000000000000000000000000000815260048101839052905191925060ff87169173ffffffffffffffffffffffffffffffffffffffff89169163e6c3b1f6916024808301926020929190829003018186803b1580156102af57600080fd5b505afa1580156102c3573d6000803e3d6000fd5b505050506040513d60208110156102d957600080fd5b505160ff1614156103a45760008773ffffffffffffffffffffffffffffffffffffffff1662fdd58e86846040518363ffffffff1660e01b8152600401808373ffffffffffffffffffffffffffffffffffffffff1681526020018281526020019250505060206040518083038186803b15801561035457600080fd5b505afa158015610368573d6000803e3d6000fd5b505050506040513d602081101561037e57600080fd5b5051905060008482116103915781610393565b845b905061039f8582610949565b945050505b816103af57506103c2565b506103bb8160016109c4565b9050610197565b50949350505050565b73ffffffffffffffffffffffffffffffffffffffff82166000908152600785016020526040812082916103fe9190610a3b565b73ffffffffffffffffffffffffffffffffffffffff83166000908152600886016020526040812061042e91610a3b565b8454604080517fa0f8c69400000000000000000000000000000000000000000000000000000000815273ffffffffffffffffffffffffffffffffffffffff87811660048301529151600093600193169163a0f8c694916024808301926020929190829003018186803b1580156104a357600080fd5b505afa1580156104b7573d6000803e3d6000fd5b505050506040513d60208110156104cd57600080fd5b50510390505b8115610778578554604080517fb59a912800000000000000000000000000000000000000000000000000000000815273ffffffffffffffffffffffffffffffffffffffff8881166004830152602482018590529151600093929092169163b59a912891604480820192602092909190829003018186803b15801561055657600080fd5b505afa15801561056a573d6000803e3d6000fd5b505050506040513d602081101561058057600080fd5b505160058801546002890154604080517fe6c3b1f600000000000000000000000000000000000000000000000000000000815260048101859052905193945060ff9092169273ffffffffffffffffffffffffffffffffffffffff9091169163e6c3b1f6916024808301926020929190829003018186803b15801561060357600080fd5b505afa158015610617573d6000803e3d6000fd5b505050506040513d602081101561062d57600080fd5b505160ff16141561075a578654604080517efdd58e00000000000000000000000000000000000000000000000000000000815273ffffffffffffffffffffffffffffffffffffffff8981166004830152602482018590529151600093929092169162fdd58e91604480820192602092909190829003018186803b1580156106b357600080fd5b505afa1580156106c7573d6000803e3d6000fd5b505050506040513d60208110156106dd57600080fd5b5051905060008482116106f057816106f2565b845b73ffffffffffffffffffffffffffffffffffffffff8816600081815260078c01602090815260408083208054600181810183559185528385200189905593835260088e0182528220805493840181558252902001819055905061075585826109c4565b945050505b816107655750610778565b506107718160016109c4565b90506104d3565b81156107e557604080517f08c379a000000000000000000000000000000000000000000000000000000000815260206004820152601160248201527f494e53554646494349454e545f47454d53000000000000000000000000000000604482015290519081900360640190fd5b855473ffffffffffffffffffffffffffffffffffffffff858116600081815260078a016020908152604080832060088d019092529182902091517f2eb2c2d60000000000000000000000000000000000000000000000000000000081528a851660048201908152602482019490945260a060448201908152825460a483018190529590961695632eb2c2d6958c958c95939092916064820191608481019160c490910190879080156108b657602002820191906000526020600020905b8154815260200190600101908083116108a2575b505084810383528581815481526020019150805480156108f557602002820191906000526020600020905b8154815260200190600101908083116108e1575b5050848103825260008152602001602001975050505050505050600060405180830381600087803b15801561092957600080fd5b505af115801561093d573d6000803e3d6000fd5b50505050505050505050565b6000828201838110156109bd57604080517f08c379a000000000000000000000000000000000000000000000000000000000815260206004820152601b60248201527f536166654d6174683a206164646974696f6e206f766572666c6f770000000000604482015290519081900360640190fd5b9392505050565b600082821115610a3557604080517f08c379a000000000000000000000000000000000000000000000000000000000815260206004820152601e60248201527f536166654d6174683a207375627472616374696f6e206f766572666c6f770000604482015290519081900360640190fd5b50900390565b5080546000825590600052602060002090810190610a599190610a5c565b50565b5b80821115610a715760008155600101610a5d565b509056fea26469706673582212205aaa6add3699a52cc809177eca47efa4c9b2483cb4acf4af72696a5434ea10d364736f6c63430007030033",
  "libraries": {
    "SafeMath": "0x753f0df0a61c5F8A0eB31c6Bf6e7363943Eb225B"
  },
  "devdoc": {
    "kind": "dev",
    "methods": {},
    "version": 1
  },
  "userdoc": {
    "kind": "user",
    "methods": {},
    "version": 1
  },
  "storageLayout": {
    "storage": [],
    "types": null
  }
}