{
  "address": "0x0307a2E913FD8fb384a939Cfb7655C30820727D8",
  "abi": [
    {
      "anonymous": false,
      "inputs": [
        {
          "indexed": true,
          "internalType": "address",
          "name": "account",
          "type": "address"
        },
        {
          "indexed": false,
          "internalType": "uint256",
          "name": "quantity",
          "type": "uint256"
        }
      ],
      "name": "Unwrap",
      "type": "event"
    },
    {
      "anonymous": false,
      "inputs": [
        {
          "indexed": true,
          "internalType": "address",
          "name": "account",
          "type": "address"
        },
        {
          "indexed": false,
          "internalType": "uint256",
          "name": "quantity",
          "type": "uint256"
        }
      ],
      "name": "Wrap",
      "type": "event"
    },
    {
      "inputs": [
        {
          "internalType": "address",
          "name": "erc1155token",
          "type": "address"
        },
        {
          "internalType": "address",
          "name": "tokenPool",
          "type": "address"
        },
        {
          "internalType": "enum INFTGemMultiToken.TokenType",
          "name": "tokenType",
          "type": "INFTGemMultiToken.TokenType"
        },
        {
          "internalType": "address",
          "name": "account",
          "type": "address"
        }
      ],
      "name": "getPoolTypeBalance",
      "outputs": [
        {
          "internalType": "uint256",
          "name": "tq",
          "type": "uint256"
        }
      ],
      "stateMutability": "view",
      "type": "function"
    }
  ],
  "transactionHash": "0xac9785ac552d13ee681a9df882aefa83a2804109905a944b162c1b09dc8c6364",
  "args": [],
  "solcInputHash": "2d2f4ad3fdc4b1ca8ac0f60db5b68735",
  "bytecode": "0x610b4c61003a600b82828239805160001a60731461002d57634e487b7160e01b600052600060045260246000fd5b30600052607381538281f3fe73000000000000000000000000000000000000000030146080604052600436106100405760003560e01c80636680f78e14610045578063b801a4631461006e575b600080fd5b6100586100533660046107ea565b610090565b6040516100659190610a90565b60405180910390f35b81801561007a57600080fd5b5061008e610089366004610938565b61030f565b005b600080856001600160a01b031663de0099a3846040518263ffffffff1660e01b81526004016100bf91906109d4565b60006040518083038186803b1580156100d757600080fd5b505afa1580156100eb573d6000803e3d6000fd5b505050506040513d6000823e601f3d908101601f191682016040526101139190810190610845565b90506000600182516101259190610ab1565b90505b600082828151811061014a57634e487b7160e01b600052603260045260246000fd5b60200260200101519050600080896001600160a01b031663b09afec1846040518263ffffffff1660e01b81526004016101839190610a90565b604080518083038186803b15801561019a57600080fd5b505afa1580156101ae573d6000803e3d6000fd5b505050506040513d601f19601f820116820180604052508101906101d291906108ff565b915091508760028111156101f657634e487b7160e01b600052602160045260246000fd5b82600281111561021657634e487b7160e01b600052602160045260246000fd5b1480156102345750886001600160a01b0316816001600160a01b0316145b156102e1576040517efdd58e0000000000000000000000000000000000000000000000000000000081526000906001600160a01b038c169062fdd58e90610281908b908890600401610a40565b60206040518083038186803b15801561029957600080fd5b505afa1580156102ad573d6000803e3d6000fd5b505050506040513d601f19601f820116820180604052508101906102d1919061097f565b90506102dd8188610a99565b9650505b836102ee57505050610305565b5050506001816102fe9190610ab1565b9050610128565b5050949350505050565b6001600160a01b03821660009081526007850160205260408120829161033591906107b0565b6001600160a01b03831660009081526008860160205260408120610358916107b0565b84546040517fde0099a30000000000000000000000000000000000000000000000000000000081526000916001600160a01b03169063de0099a3906103a19088906004016109d4565b60006040518083038186803b1580156103b957600080fd5b505afa1580156103cd573d6000803e3d6000fd5b505050506040513d6000823e601f3d908101601f191682016040526103f59190810190610845565b90506000600182516104079190610ab1565b90505b82156106c657600082828151811061043257634e487b7160e01b600052603260045260246000fd5b602090810291909101015188546040517fb09afec100000000000000000000000000000000000000000000000000000000815291925060009182916001600160a01b03169063b09afec19061048b908690600401610a90565b604080518083038186803b1580156104a257600080fd5b505afa1580156104b6573d6000803e3d6000fd5b505050506040513d601f19601f820116820180604052508101906104da91906108ff565b60048c0154919350915060ff16600281111561050657634e487b7160e01b600052602160045260246000fd5b82600281111561052657634e487b7160e01b600052602160045260246000fd5b148015610542575060028a01546001600160a01b038281169116145b156106a25789546040517efdd58e0000000000000000000000000000000000000000000000000000000081526000916001600160a01b03169062fdd58e90610590908d908890600401610a40565b60206040518083038186803b1580156105a857600080fd5b505afa1580156105bc573d6000803e3d6000fd5b505050506040513d601f19601f820116820180604052508101906105e0919061097f565b905060008782116105f157816105f3565b875b90508b60070160008b6001600160a01b03166001600160a01b031681526020019081526020016000208590806001815401808255809150506001900390600052602060002001600090919091909150558b60080160008b6001600160a01b03166001600160a01b03168152602001908152602001600020819080600181540180825580915050600190039060005260206000200160009091909190915055808861069d9190610ab1565b975050505b836106af575050506106c6565b5050506001816106bf9190610ab1565b905061040a565b508115610708576040517f08c379a00000000000000000000000000000000000000000000000000000000081526004016106ff90610a59565b60405180910390fd5b85546001600160a01b038581166000908152600789016020908152604080832060088c019092529182902091517f2eb2c2d60000000000000000000000000000000000000000000000000000000081529290931692632eb2c2d692610776928a928a929091906004016109e8565b600060405180830381600087803b15801561079057600080fd5b505af11580156107a4573d6000803e3d6000fd5b50505050505050505050565b50805460008255906000526020600020908101906107ce91906107d1565b50565b5b808211156107e657600081556001016107d2565b5090565b600080600080608085870312156107ff578384fd5b843561080a81610af4565b9350602085013561081a81610af4565b9250604085013561082a81610b09565b9150606085013561083a81610af4565b939692955090935050565b60006020808385031215610857578182fd5b825167ffffffffffffffff8082111561086e578384fd5b818501915085601f830112610881578384fd5b81518181111561089357610893610ade565b838102604051858282010181811085821117156108b2576108b2610ade565b604052828152858101935084860182860187018a10156108d0578788fd5b8795505b838610156108f25780518552600195909501949386019386016108d4565b5098975050505050505050565b60008060408385031215610911578182fd5b825161091c81610b09565b602084015190925061092d81610af4565b809150509250929050565b6000806000806080858703121561094d578384fd5b84359350602085013561095f81610af4565b9250604085013561096f81610af4565b9396929550929360600135925050565b600060208284031215610990578081fd5b5051919050565b6000815480845260208085019450838352808320835b838110156109c9578154875295820195600191820191016109ad565b509495945050505050565b6001600160a01b0391909116815260200190565b60006001600160a01b03808716835280861660208401525060a06040830152610a1460a0830185610997565b8281036060840152610a268185610997565b838103608090940193909352508152602001949350505050565b6001600160a01b03929092168252602082015260400190565b60208082526011908201527f494e53554646494349454e545f47454d53000000000000000000000000000000604082015260600190565b90815260200190565b60008219821115610aac57610aac610ac8565b500190565b600082821015610ac357610ac3610ac8565b500390565b634e487b7160e01b600052601160045260246000fd5b634e487b7160e01b600052604160045260246000fd5b6001600160a01b03811681146107ce57600080fd5b600381106107ce57600080fdfea26469706673582212205639879ad4e1079a257fff360b81e4db79cd6167ff895d198559b43c873cadf164736f6c63430008000033",
  "devdoc": {
    "details": "wrapped token library",
    "kind": "dev",
    "methods": {
      "getPoolTypeBalance(address,address,INFTGemMultiToken.TokenType,address)": {
        "details": "get pool balance (number of minted claims or gems) for given token pool, token type, for account"
      },
      "transferPoolTypesFrom(WrappedTokenLib.WrappedTokenData storage,address,address,uint256)": {
        "details": "transfer a given number of claims / gems from account to recipient"
      }
    },
    "version": 1
  },
  "userdoc": {
    "kind": "user",
    "methods": {},
    "version": 1
  },
  "storageLayout": {
    "storage": [],
    "types": null
  }
}