{
  "address": "0x4A6bcA3C92caC20f16f6DA6dE30caa7E03772ABf",
  "abi": [
    {
      "inputs": [],
      "stateMutability": "nonpayable",
      "type": "constructor"
    },
    {
      "anonymous": false,
      "inputs": [
        {
          "indexed": true,
          "internalType": "address",
          "name": "operator",
          "type": "address"
        },
        {
          "indexed": false,
          "internalType": "uint256",
          "name": "oldValue",
          "type": "uint256"
        },
        {
          "indexed": false,
          "internalType": "uint256",
          "name": "value",
          "type": "uint256"
        }
      ],
      "name": "DefaultFeeDivisorChanged",
      "type": "event"
    },
    {
      "anonymous": false,
      "inputs": [
        {
          "indexed": true,
          "internalType": "address",
          "name": "manager",
          "type": "address"
        },
        {
          "indexed": false,
          "internalType": "address",
          "name": "sender",
          "type": "address"
        },
        {
          "indexed": false,
          "internalType": "uint256",
          "name": "value",
          "type": "uint256"
        }
      ],
      "name": "ETHReceived",
      "type": "event"
    },
    {
      "anonymous": false,
      "inputs": [
        {
          "indexed": true,
          "internalType": "address",
          "name": "operator",
          "type": "address"
        },
        {
          "indexed": true,
          "internalType": "address",
          "name": "token",
          "type": "address"
        },
        {
          "indexed": false,
          "internalType": "uint256",
          "name": "oldValue",
          "type": "uint256"
        },
        {
          "indexed": false,
          "internalType": "uint256",
          "name": "value",
          "type": "uint256"
        }
      ],
      "name": "FeeDivisorChanged",
      "type": "event"
    },
    {
      "anonymous": false,
      "inputs": [
        {
          "indexed": true,
          "internalType": "address",
          "name": "manager",
          "type": "address"
        },
        {
          "indexed": false,
          "internalType": "uint256",
          "name": "oldValue",
          "type": "uint256"
        },
        {
          "indexed": false,
          "internalType": "uint256",
          "name": "value",
          "type": "uint256"
        }
      ],
      "name": "LiquidityChanged",
      "type": "event"
    },
    {
      "inputs": [
        {
          "internalType": "address",
          "name": "token",
          "type": "address"
        }
      ],
      "name": "balanceOF",
      "outputs": [
        {
          "internalType": "uint256",
          "name": "",
          "type": "uint256"
        }
      ],
      "stateMutability": "view",
      "type": "function"
    },
    {
      "inputs": [],
      "name": "defaultFeeDivisor",
      "outputs": [
        {
          "internalType": "uint256",
          "name": "multiplier",
          "type": "uint256"
        }
      ],
      "stateMutability": "view",
      "type": "function"
    },
    {
      "inputs": [],
      "name": "defaultLiquidity",
      "outputs": [
        {
          "internalType": "uint256",
          "name": "multiplier",
          "type": "uint256"
        }
      ],
      "stateMutability": "view",
      "type": "function"
    },
    {
      "inputs": [],
      "name": "ethBalanceOf",
      "outputs": [
        {
          "internalType": "uint256",
          "name": "",
          "type": "uint256"
        }
      ],
      "stateMutability": "view",
      "type": "function"
    },
    {
      "inputs": [
        {
          "internalType": "address",
          "name": "token",
          "type": "address"
        }
      ],
      "name": "feeDivisor",
      "outputs": [
        {
          "internalType": "uint256",
          "name": "divisor",
          "type": "uint256"
        }
      ],
      "stateMutability": "view",
      "type": "function"
    },
    {
      "inputs": [
        {
          "internalType": "address",
          "name": "token",
          "type": "address"
        }
      ],
      "name": "liquidity",
      "outputs": [
        {
          "internalType": "uint256",
          "name": "",
          "type": "uint256"
        }
      ],
      "stateMutability": "view",
      "type": "function"
    },
    {
      "inputs": [
        {
          "internalType": "uint256",
          "name": "_feeDivisor",
          "type": "uint256"
        }
      ],
      "name": "setDefaultFeeDivisor",
      "outputs": [
        {
          "internalType": "uint256",
          "name": "oldDivisor",
          "type": "uint256"
        }
      ],
      "stateMutability": "nonpayable",
      "type": "function"
    },
    {
      "inputs": [
        {
          "internalType": "uint256",
          "name": "_liquidityMult",
          "type": "uint256"
        }
      ],
      "name": "setDefaultLiquidity",
      "outputs": [
        {
          "internalType": "uint256",
          "name": "oldLiquidity",
          "type": "uint256"
        }
      ],
      "stateMutability": "nonpayable",
      "type": "function"
    },
    {
      "inputs": [
        {
          "internalType": "address",
          "name": "token",
          "type": "address"
        },
        {
          "internalType": "uint256",
          "name": "_feeDivisor",
          "type": "uint256"
        }
      ],
      "name": "setFeeDivisor",
      "outputs": [
        {
          "internalType": "uint256",
          "name": "oldDivisor",
          "type": "uint256"
        }
      ],
      "stateMutability": "nonpayable",
      "type": "function"
    },
    {
      "inputs": [
        {
          "internalType": "address",
          "name": "_operator",
          "type": "address"
        }
      ],
      "name": "setOperator",
      "outputs": [],
      "stateMutability": "nonpayable",
      "type": "function"
    },
    {
      "inputs": [
        {
          "internalType": "address payable",
          "name": "recipient",
          "type": "address"
        },
        {
          "internalType": "uint256",
          "name": "amount",
          "type": "uint256"
        }
      ],
      "name": "transferEth",
      "outputs": [],
      "stateMutability": "nonpayable",
      "type": "function"
    },
    {
      "inputs": [
        {
          "internalType": "address",
          "name": "token",
          "type": "address"
        },
        {
          "internalType": "address",
          "name": "recipient",
          "type": "address"
        },
        {
          "internalType": "uint256",
          "name": "amount",
          "type": "uint256"
        }
      ],
      "name": "transferToken",
      "outputs": [],
      "stateMutability": "nonpayable",
      "type": "function"
    },
    {
      "stateMutability": "payable",
      "type": "receive"
    }
  ],
  "transactionHash": "0xe3d582b2e65174083f4ffe844fc6b83c9167f72f38cba4d92967ff77092277e4",
  "args": [],
  "solcInputHash": "f0677dd06e416df6959c5a8ee7f4cebc",
  "bytecode": "0x608060405234801561001057600080fd5b506103e86002556064600455610d1d8061002b6000396000f3fe6080604052600436106100cb5760003560e01c8063b3ab15fb11610074578063e9bb84c21161004e578063e9bb84c214610284578063eee1ad80146102ca578063f5537ede1461030a576100d2565b8063b3ab15fb146101ed578063b8c876b11461022f578063c52111541461026f576100d2565b80638afe4280116100a55780638afe428014610168578063a51834ff14610192578063b2ae17a5146101d8576100d2565b80630415c9f4146100d7578063244e0c87146101135780636b4be0b914610153576100d2565b366100d257005b600080fd5b3480156100e357600080fd5b50610101600480360360208110156100fa57600080fd5b503561035a565b60408051918252519081900360200190f35b34801561011f57600080fd5b506101016004803603602081101561013657600080fd5b503573ffffffffffffffffffffffffffffffffffffffff166104b2565b34801561015f57600080fd5b5061010161054d565b34801561017457600080fd5b506101016004803603602081101561018b57600080fd5b5035610551565b34801561019e57600080fd5b50610101600480360360408110156101b557600080fd5b5073ffffffffffffffffffffffffffffffffffffffff81351690602001356106a9565b3480156101e457600080fd5b5061010161080f565b3480156101f957600080fd5b5061022d6004803603602081101561021057600080fd5b503573ffffffffffffffffffffffffffffffffffffffff16610815565b005b34801561023b57600080fd5b506101016004803603602081101561025257600080fd5b503573ffffffffffffffffffffffffffffffffffffffff166108e1565b34801561027b57600080fd5b50610101610940565b34801561029057600080fd5b5061022d600480360360408110156102a757600080fd5b5073ffffffffffffffffffffffffffffffffffffffff8135169060200135610946565b3480156102d657600080fd5b50610101600480360360208110156102ed57600080fd5b503573ffffffffffffffffffffffffffffffffffffffff16610a83565b34801561031657600080fd5b5061022d6004803603606081101561032d57600080fd5b5073ffffffffffffffffffffffffffffffffffffffff813581169160208101359091169060400135610abe565b6000805473ffffffffffffffffffffffffffffffffffffffff1633146103e157604080517f08c379a000000000000000000000000000000000000000000000000000000000815260206004820152600c60248201527f554e415554484f52495a45440000000000000000000000000000000000000000604482015290519081900360640190fd5b8161044d57604080517f08c379a000000000000000000000000000000000000000000000000000000000815260206004820152600e60248201527f4449564953494f4e42595a45524f000000000000000000000000000000000000604482015290519081900360640190fd5b5060028054908290556000546040805183815260208101859052815173ffffffffffffffffffffffffffffffffffffffff909316927f50d2fd3a15ffe0a5547c68d91dc96339c386f8a7d180a1f8cb782d39cfed38af929181900390910190a2919050565b60008173ffffffffffffffffffffffffffffffffffffffff166370a08231306040518263ffffffff1660e01b8152600401808273ffffffffffffffffffffffffffffffffffffffff16815260200191505060206040518083038186803b15801561051b57600080fd5b505afa15801561052f573d6000803e3d6000fd5b505050506040513d602081101561054557600080fd5b505192915050565b4790565b6000805473ffffffffffffffffffffffffffffffffffffffff1633146105d857604080517f08c379a000000000000000000000000000000000000000000000000000000000815260206004820152600c60248201527f554e415554484f52495a45440000000000000000000000000000000000000000604482015290519081900360640190fd5b8161064457604080517f08c379a000000000000000000000000000000000000000000000000000000000815260206004820152600760248201527f494e56414c494400000000000000000000000000000000000000000000000000604482015290519081900360640190fd5b5060048054908290556000546040805183815260208101859052815173ffffffffffffffffffffffffffffffffffffffff909316927f1b175f1f323705c599a7bebc2915765ab0d8de5f922b0b68d08dd1dbe2d97fc4929181900390910190a2919050565b6000805473ffffffffffffffffffffffffffffffffffffffff16331461073057604080517f08c379a000000000000000000000000000000000000000000000000000000000815260206004820152600c60248201527f554e415554484f52495a45440000000000000000000000000000000000000000604482015290519081900360640190fd5b8161079c57604080517f08c379a000000000000000000000000000000000000000000000000000000000815260206004820152600e60248201527f4449564953494f4e42595a45524f000000000000000000000000000000000000604482015290519081900360640190fd5b5073ffffffffffffffffffffffffffffffffffffffff8083166000818152600160209081526040808320805490879055925481518481529283018790528151939516927f8f604bc5c2d1916032a90c8f4d7cdc0dff78f1ba11119344f3fe46ddea1795449281900390910190a392915050565b60045490565b60005473ffffffffffffffffffffffffffffffffffffffff161561089a57604080517f08c379a000000000000000000000000000000000000000000000000000000000815260206004820152600960248201527f494d4d555441424c450000000000000000000000000000000000000000000000604482015290519081900360640190fd5b600080547fffffffffffffffffffffffff00000000000000000000000000000000000000001673ffffffffffffffffffffffffffffffffffffffff92909216919091179055565b73ffffffffffffffffffffffffffffffffffffffff81166000908152600360205260408120546109135760045461093a565b73ffffffffffffffffffffffffffffffffffffffff82166000908152600360205260409020545b92915050565b60025490565b60005473ffffffffffffffffffffffffffffffffffffffff1633146109cc57604080517f08c379a000000000000000000000000000000000000000000000000000000000815260206004820152600c60248201527f554e415554484f52495a45440000000000000000000000000000000000000000604482015290519081900360640190fd5b80471015610a3b57604080517f08c379a000000000000000000000000000000000000000000000000000000000815260206004820152601460248201527f494e53554646494349454e545f42414c414e4345000000000000000000000000604482015290519081900360640190fd5b60405173ffffffffffffffffffffffffffffffffffffffff83169082156108fc029083906000818181858888f19350505050158015610a7e573d6000803e3d6000fd5b505050565b73ffffffffffffffffffffffffffffffffffffffff81166000908152600160205260409020548015610ab5578061093a565b6103e892915050565b60005473ffffffffffffffffffffffffffffffffffffffff163314610b4457604080517f08c379a000000000000000000000000000000000000000000000000000000000815260206004820152600c60248201527f554e415554484f52495a45440000000000000000000000000000000000000000604482015290519081900360640190fd5b808373ffffffffffffffffffffffffffffffffffffffff166370a08231306040518263ffffffff1660e01b8152600401808273ffffffffffffffffffffffffffffffffffffffff16815260200191505060206040518083038186803b158015610bac57600080fd5b505afa158015610bc0573d6000803e3d6000fd5b505050506040513d6020811015610bd657600080fd5b50511015610c4557604080517f08c379a000000000000000000000000000000000000000000000000000000000815260206004820152601460248201527f494e53554646494349454e545f42414c414e4345000000000000000000000000604482015290519081900360640190fd5b8273ffffffffffffffffffffffffffffffffffffffff1663a9059cbb83836040518363ffffffff1660e01b8152600401808373ffffffffffffffffffffffffffffffffffffffff16815260200182815260200192505050602060405180830381600087803b158015610cb657600080fd5b505af1158015610cca573d6000803e3d6000fd5b505050506040513d6020811015610ce057600080fd5b505050505056fea2646970667358221220252ce3c2933743a53bcfb399bc569744f385be1013b97be0dbdeaf4eac18073d64736f6c63430007030033",
  "libraries": {
    "GovernanceLib": "0xEEF5Bd229322a06cbA10D5dCb28119BD42Fd4a2d",
    "Strings": "0x0474b50293DcB1503b5B59a25b71Ac7b4dA09cB1",
    "SafeMath": "0xE6fD01E64cd793D55269f1dcfEA1BEb480AA3650",
    "ProposalsLib": "0x1da48ae241B984C8BA795677616DCc13b93e4d60",
    "Create2": "0x32fb51D4f9e5bcb8949294130B8E65a97d87Fa87"
  },
  "devdoc": {
    "kind": "dev",
    "methods": {
      "balanceOF(address)": {
        "details": "get the token balance of this fee manager"
      },
      "constructor": {
        "details": "constructor"
      },
      "defaultFeeDivisor()": {
        "details": "Get the fee divisor for the specified token"
      },
      "defaultLiquidity()": {
        "details": "Get the fee divisor for the specified token"
      },
      "ethBalanceOf()": {
        "details": "get the ETH balance of this fee manager"
      },
      "feeDivisor(address)": {
        "details": "Get the fee divisor for the specified token"
      },
      "liquidity(address)": {
        "details": "Get the fee divisor for the specified token"
      },
      "setDefaultFeeDivisor(uint256)": {
        "details": "Set the fee divisor for the specified token"
      },
      "setDefaultLiquidity(uint256)": {
        "details": "Set the fee divisor for the specified token"
      },
      "setFeeDivisor(address,uint256)": {
        "details": "Set the fee divisor for the specified token"
      },
      "setOperator(address)": {
        "details": "Set the address allowed to mint and burn"
      },
      "transferEth(address,uint256)": {
        "details": "transfer ETH from this contract to the to given recipient"
      },
      "transferToken(address,address,uint256)": {
        "details": "transfer tokens from this contract to the to given recipient"
      }
    },
    "version": 1
  },
  "userdoc": {
    "kind": "user",
    "methods": {},
    "version": 1
  },
  "storageLayout": {
    "storage": [
      {
        "astId": 2682,
        "contract": "src/fees/NFTGemFeeManager.sol:NFTGemFeeManager",
        "label": "operator",
        "offset": 0,
        "slot": "0",
        "type": "t_address"
      },
      {
        "astId": 2692,
        "contract": "src/fees/NFTGemFeeManager.sol:NFTGemFeeManager",
        "label": "feeDivisors",
        "offset": 0,
        "slot": "1",
        "type": "t_mapping(t_address,t_uint256)"
      },
      {
        "astId": 2694,
        "contract": "src/fees/NFTGemFeeManager.sol:NFTGemFeeManager",
        "label": "_defaultFeeDivisor",
        "offset": 0,
        "slot": "2",
        "type": "t_uint256"
      },
      {
        "astId": 2698,
        "contract": "src/fees/NFTGemFeeManager.sol:NFTGemFeeManager",
        "label": "_liquidity",
        "offset": 0,
        "slot": "3",
        "type": "t_mapping(t_address,t_uint256)"
      },
      {
        "astId": 2700,
        "contract": "src/fees/NFTGemFeeManager.sol:NFTGemFeeManager",
        "label": "_defaultLiquidity",
        "offset": 0,
        "slot": "4",
        "type": "t_uint256"
      }
    ],
    "types": {
      "t_address": {
        "encoding": "inplace",
        "label": "address",
        "numberOfBytes": "20"
      },
      "t_mapping(t_address,t_uint256)": {
        "encoding": "mapping",
        "key": "t_address",
        "label": "mapping(address => uint256)",
        "numberOfBytes": "32",
        "value": "t_uint256"
      },
      "t_uint256": {
        "encoding": "inplace",
        "label": "uint256",
        "numberOfBytes": "32"
      }
    }
  }
}