{
  "address": "0x9c393955D39c3C7A80Fe6A11B0e4B834a2c5301e",
  "abi": [
    {
      "inputs": [],
      "stateMutability": "nonpayable",
      "type": "constructor"
    },
    {
      "anonymous": false,
      "inputs": [
        {
          "indexed": true,
          "internalType": "address",
          "name": "contractAddress",
          "type": "address"
        },
        {
          "indexed": true,
          "internalType": "address",
          "name": "controllerAddress",
          "type": "address"
        }
      ],
      "name": "ControllerAdded",
      "type": "event"
    },
    {
      "anonymous": false,
      "inputs": [
        {
          "indexed": true,
          "internalType": "address",
          "name": "contractAddress",
          "type": "address"
        },
        {
          "indexed": true,
          "internalType": "address",
          "name": "controllerAddress",
          "type": "address"
        }
      ],
      "name": "ControllerRemoved",
      "type": "event"
    },
    {
      "anonymous": false,
      "inputs": [
        {
          "indexed": false,
          "internalType": "string",
          "name": "gemSymbol",
          "type": "string"
        },
        {
          "indexed": false,
          "internalType": "string",
          "name": "gemName",
          "type": "string"
        },
        {
          "indexed": false,
          "internalType": "uint256",
          "name": "ethPrice",
          "type": "uint256"
        },
        {
          "indexed": false,
          "internalType": "uint256",
          "name": "mintTime",
          "type": "uint256"
        },
        {
          "indexed": false,
          "internalType": "uint256",
          "name": "maxTime",
          "type": "uint256"
        },
        {
          "indexed": false,
          "internalType": "uint256",
          "name": "diffstep",
          "type": "uint256"
        },
        {
          "indexed": false,
          "internalType": "uint256",
          "name": "maxMint",
          "type": "uint256"
        },
        {
          "indexed": false,
          "internalType": "address",
          "name": "allowedToken",
          "type": "address"
        }
      ],
      "name": "NFTGemPoolCreated",
      "type": "event"
    },
    {
      "inputs": [
        {
          "internalType": "address",
          "name": "_controller",
          "type": "address"
        }
      ],
      "name": "addController",
      "outputs": [],
      "stateMutability": "nonpayable",
      "type": "function"
    },
    {
      "inputs": [
        {
          "internalType": "uint256",
          "name": "idx",
          "type": "uint256"
        }
      ],
      "name": "allNFTGemPools",
      "outputs": [
        {
          "internalType": "address",
          "name": "gemPool",
          "type": "address"
        }
      ],
      "stateMutability": "view",
      "type": "function"
    },
    {
      "inputs": [],
      "name": "allNFTGemPoolsLength",
      "outputs": [
        {
          "internalType": "uint256",
          "name": "",
          "type": "uint256"
        }
      ],
      "stateMutability": "view",
      "type": "function"
    },
    {
      "inputs": [
        {
          "internalType": "string",
          "name": "gemSymbol",
          "type": "string"
        },
        {
          "internalType": "string",
          "name": "gemName",
          "type": "string"
        },
        {
          "internalType": "uint256",
          "name": "ethPrice",
          "type": "uint256"
        },
        {
          "internalType": "uint256",
          "name": "minTime",
          "type": "uint256"
        },
        {
          "internalType": "uint256",
          "name": "maxTime",
          "type": "uint256"
        },
        {
          "internalType": "uint256",
          "name": "diffstep",
          "type": "uint256"
        },
        {
          "internalType": "uint256",
          "name": "maxMint",
          "type": "uint256"
        },
        {
          "internalType": "address",
          "name": "allowedToken",
          "type": "address"
        }
      ],
      "name": "createNFTGemPool",
      "outputs": [
        {
          "internalType": "address payable",
          "name": "gemPool",
          "type": "address"
        }
      ],
      "stateMutability": "nonpayable",
      "type": "function"
    },
    {
      "inputs": [
        {
          "internalType": "uint256",
          "name": "_symbolHash",
          "type": "uint256"
        }
      ],
      "name": "getNFTGemPool",
      "outputs": [
        {
          "internalType": "address",
          "name": "gemPool",
          "type": "address"
        }
      ],
      "stateMutability": "view",
      "type": "function"
    },
    {
      "inputs": [
        {
          "internalType": "address",
          "name": "_address",
          "type": "address"
        }
      ],
      "name": "isController",
      "outputs": [
        {
          "internalType": "bool",
          "name": "allowed",
          "type": "bool"
        }
      ],
      "stateMutability": "view",
      "type": "function"
    },
    {
      "inputs": [],
      "name": "relinquishControl",
      "outputs": [],
      "stateMutability": "view",
      "type": "function"
    }
  ],
  "transactionHash": "0x902e804700143b7f4ca96941c7327e486f9e7ac45221d0f62c46d4ca38e28de3",
  "args": [],
  "solcInputHash": "e9afb73cf341abeb334174ce8b571c1c",
  "bytecode": "0x608060405234801561001057600080fd5b5061001a3361001f565b610043565b6001600160a01b03166000908152602081905260409020805460ff19166001179055565b614c0b806100526000396000f3fe608060405234801561001057600080fd5b506004361061007d5760003560e01c806367275aed1161005b57806367275aed14610243578063a7fc7a0714610260578063b429afeb14610295578063e1c28bef146102dc5761007d565b80631ff77f16146100825780634ff8f07e146100c85780635e6fe72a14610229575b600080fd5b61009f6004803603602081101561009857600080fd5b50356102e4565b6040805173ffffffffffffffffffffffffffffffffffffffff9092168252519081900360200190f35b61009f60048036036101008110156100df57600080fd5b8101906020810181356401000000008111156100fa57600080fd5b82018360208201111561010c57600080fd5b8035906020019184600183028401116401000000008311171561012e57600080fd5b91908080601f016020809104026020016040519081016040528093929190818152602001838380828437600092019190915250929594936020810193503591505064010000000081111561018157600080fd5b82018360208201111561019357600080fd5b803590602001918460018302840111640100000000831117156101b557600080fd5b91908080601f0160208091040260200160405190810160405280939291908181526020018383808284376000920191909152509295505082359350505060208101359060408101359060608101359060808101359060a0013573ffffffffffffffffffffffffffffffffffffffff1661031b565b6102316109d8565b60408051918252519081900360200190f35b61009f6004803603602081101561025957600080fd5b50356109de565b6102936004803603602081101561027657600080fd5b503573ffffffffffffffffffffffffffffffffffffffff16610a06565b005b6102c8600480360360208110156102ab57600080fd5b503573ffffffffffffffffffffffffffffffffffffffff16610acc565b604080519115158252519081900360200190f35b610293610af7565b6000600382815481106102f357fe5b60009182526020909120015473ffffffffffffffffffffffffffffffffffffffff1692915050565b3360009081526020819052604081205460ff1615156001148061033d57503033145b610392576040517f08c379a0000000000000000000000000000000000000000000000000000000008152600401808060200182810382526028815260200180614bae6028913960400191505060405180910390fd5b6000896040516020018082805190602001908083835b602083106103e557805182527fffffffffffffffffffffffffffffffffffffffffffffffffffffffffffffffe090920191602091820191016103a8565b51815160209384036101000a7fffffffffffffffffffffffffffffffffffffffffffffffffffffffffffffffff018019909216911617905260408051929094018281037fffffffffffffffffffffffffffffffffffffffffffffffffffffffffffffffe0018352845281519181019190912060008181526002909252929020549194505073ffffffffffffffffffffffffffffffffffffffff161591506104ef905057604080517f08c379a000000000000000000000000000000000000000000000000000000000815260206004820152600e60248201527f47454d504f4f4c5f455849535453000000000000000000000000000000000000604482015290519081900360640190fd5b8761055b57604080517f08c379a000000000000000000000000000000000000000000000000000000000815260206004820152600d60248201527f494e56414c49445f505249434500000000000000000000000000000000000000604482015290519081900360640190fd5b866105c757604080517f08c379a000000000000000000000000000000000000000000000000000000000815260206004820152601060248201527f494e56414c49445f4d494e5f54494d4500000000000000000000000000000000604482015290519081900360640190fd5b8461063357604080517f08c379a000000000000000000000000000000000000000000000000000000000815260206004820152601760248201527f494e56414c49445f444946464943554c54595f53544550000000000000000000604482015290519081900360640190fd5b60606040518060200161064590610ced565b7fffffffffffffffffffffffffffffffffffffffffffffffffffffffffffffffe082820381018352601f90910116604052905061068460008383610b79565b92508273ffffffffffffffffffffffffffffffffffffffff1663d9a3f9bb8c8c8c8c8c8c8c8c6040518963ffffffff1660e01b81526004018080602001806020018981526020018881526020018781526020018681526020018581526020018473ffffffffffffffffffffffffffffffffffffffff16815260200183810383528b818151815260200191508051906020019080838360005b8381101561073457818101518382015260200161071c565b50505050905090810190601f1680156107615780820380516001836020036101000a031916815260200191505b5083810382528a5181528a516020918201918c019080838360005b8381101561079457818101518382015260200161077c565b50505050905090810190601f1680156107c15780820380516001836020036101000a031916815260200191505b509a5050505050505050505050600060405180830381600087803b1580156107e857600080fd5b505af11580156107fc573d6000803e3d6000fd5b505050600083815260026020908152604080832080547fffffffffffffffffffffffff000000000000000000000000000000000000000090811673ffffffffffffffffffffffffffffffffffffffff8a8116918217909355600380546001810182559087527fc2575a0e9e593c00f959f8c92f12db2869c3395a3b0502d05e2516446f71f85b01805490921617905581519182018e9052606082018d9052608082018c905260a082018b905260c082018a9052881660e08201526101008082528f51908201528e517fd5dd03a462020e8d5d777d0957fbf19067fc095f932d026bb0f23e384522f2a694508f938f938f938f938f938f938f938f939092839283810192610120850192918e01918190849084905b83811015610928578181015183820152602001610910565b50505050905090810190601f1680156109555780820380516001836020036101000a031916815260200191505b5083810382528a5181528a516020918201918c019080838360005b83811015610988578181015183820152602001610970565b50505050905090810190601f1680156109b55780820380516001836020036101000a031916815260200191505b509a505050505050505050505060405180910390a1505098975050505050505050565b60035490565b60009081526002602052604090205473ffffffffffffffffffffffffffffffffffffffff1690565b3360009081526020819052604090205460ff16151560011480610a2857503033145b610a7d576040517f08c379a0000000000000000000000000000000000000000000000000000000008152600401808060200182810382526028815260200180614bae6028913960400191505060405180910390fd5b73ffffffffffffffffffffffffffffffffffffffff16600090815260208190526040902080547fffffffffffffffffffffffffffffffffffffffffffffffffffffffffffffff00166001179055565b73ffffffffffffffffffffffffffffffffffffffff1660009081526020819052604090205460ff1690565b3360009081526020819052604090205460ff16151560011480610b1957503033145b610b6e576040517f08c379a0000000000000000000000000000000000000000000000000000000008152600401808060200182810382526028815260200180614bae6028913960400191505060405180910390fd5b336000908152602052565b60008084471015610beb57604080517f08c379a000000000000000000000000000000000000000000000000000000000815260206004820152601d60248201527f437265617465323a20696e73756666696369656e742062616c616e6365000000604482015290519081900360640190fd5b8251610c5857604080517f08c379a000000000000000000000000000000000000000000000000000000000815260206004820181905260248201527f437265617465323a2062797465636f6465206c656e677468206973207a65726f604482015290519081900360640190fd5b8383516020850187f5905073ffffffffffffffffffffffffffffffffffffffff8116610ce557604080517f08c379a000000000000000000000000000000000000000000000000000000000815260206004820152601960248201527f437265617465323a204661696c6564206f6e206465706c6f7900000000000000604482015290519081900360640190fd5b949350505050565b613eb380610cfb8339019056fe608060405234801561001057600080fd5b50613e93806100206000396000f3fe6080604052600436106102a45760003560e01c806395d89b411161016e578063cf721b15116100cb578063e6c3b1f61161007f578063f4fde0d311610064578063f4fde0d314610a3f578063f9eaee0d14610a54578063ff186b2e14610a9b57610359565b8063e6c3b1f6146109c6578063edcf2d5714610a0657610359565b8063d31674db116100b0578063d31674db14610808578063d73cd47f14610832578063d9a3f9bb1461086557610359565b8063cf721b15146107ab578063d104f8f5146107d557610359565b8063c08fa1a411610122578063c5e01a5c11610107578063c5e01a5c14610781578063c80c0613146107ab578063cf5380b4146107c057610359565b8063c08fa1a4146106e5578063c42cf5351461074e57610359565b8063a901c47411610153578063a901c474146106fa578063b788e4e914610724578063bf86999b1461073957610359565b806395d89b41146106d0578063a0021cf1146106e557610359565b80635e5f2e261161021c5780637f2e8f0c116101d057806390469a9d116101b557806390469a9d146106405780639277a1851461067357806395935560146106a657610359565b80637f2e8f0c146106015780638a09871b1461062b57610359565b80636b6201da116102015780636b6201da146105905780637c5d643e146105ad5780637dcb0e5f146105d757610359565b80635e5f2e261461050b5780636100c3431461055157610359565b80632449ef51116102735780634178617f116102585780634178617f146104ae5780634565e5ef146104e1578063504cdacf146104f657610359565b80632449ef511461044e578063392732b11461048b57610359565b806306fdde031461035e5780631aa43078146103e857806322e67e711461040f57806323b221a01461042457610359565b366103595760045460055460035434926000926102ca926102c491610ab0565b90610b19565b905080821015610321576040805162461bcd60e51b815260206004820152601060248201527f494e53554646494349454e545f45544800000000000000000000000000000000604482015290519081900360640190fd5b600454600354831161034b576103486004546102c485600354610ab090919063ffffffff16565b90505b61035481610b79565b505050005b600080fd5b34801561036a57600080fd5b50610373611028565b6040805160208082528351818301528351919283929083019185019080838360005b838110156103ad578181015183820152602001610395565b50505050905090810190601f1680156103da5780820380516001836020036101000a031916815260200191505b509250505060405180910390f35b3480156103f457600080fd5b506103fd6110d9565b60408051918252519081900360200190f35b34801561041b57600080fd5b506103fd6110df565b34801561043057600080fd5b506103fd6004803603602081101561044757600080fd5b50356110e5565b34801561045a57600080fd5b506104896004803603604081101561047157600080fd5b506001600160a01b03813581169160200135166110f7565b005b610489600480360360408110156104a157600080fd5b5080359060200135611365565b3480156104ba57600080fd5b50610489600480360360208110156104d157600080fd5b50356001600160a01b0316611373565b3480156104ed57600080fd5b506103fd611412565b34801561050257600080fd5b506103fd611418565b34801561051757600080fd5b506105356004803603602081101561052e57600080fd5b503561141e565b604080516001600160a01b039092168252519081900360200190f35b34801561055d57600080fd5b506104896004803603606081101561057457600080fd5b506001600160a01b038135169060208101359060400135611448565b610489600480360360208110156105a657600080fd5b5035611453565b3480156105b957600080fd5b50610489600480360360208110156105d057600080fd5b503561145c565b3480156105e357600080fd5b506103fd600480360360208110156105fa57600080fd5b5035611da6565b34801561060d57600080fd5b506103fd6004803603602081101561062457600080fd5b5035611db8565b34801561063757600080fd5b506103fd611dca565b34801561064c57600080fd5b506104896004803603602081101561066357600080fd5b50356001600160a01b0316611dd9565b34801561067f57600080fd5b506104896004803603602081101561069657600080fd5b50356001600160a01b0316611f5d565b3480156106b257600080fd5b506103fd600480360360208110156106c957600080fd5b5035611ff5565b3480156106dc57600080fd5b50610373612007565b3480156106f157600080fd5b506103fd612085565b34801561070657600080fd5b506103fd6004803603602081101561071d57600080fd5b503561208b565b34801561073057600080fd5b506103fd61209d565b34801561074557600080fd5b506103fd6120a7565b34801561075a57600080fd5b506104896004803603602081101561077157600080fd5b50356001600160a01b03166120ad565b34801561078d57600080fd5b50610535600480360360208110156107a457600080fd5b5035612145565b3480156107b757600080fd5b506103fd612160565b3480156107cc57600080fd5b506103fd612166565b3480156107e157600080fd5b50610489600480360360208110156107f857600080fd5b50356001600160a01b031661216c565b34801561081457600080fd5b506103fd6004803603602081101561082b57600080fd5b5035612204565b34801561083e57600080fd5b506104896004803603602081101561085557600080fd5b50356001600160a01b0316612225565b34801561087157600080fd5b50610489600480360361010081101561088957600080fd5b8101906020810181356401000000008111156108a457600080fd5b8201836020820111156108b657600080fd5b803590602001918460018302840111640100000000831117156108d857600080fd5b91908080601f016020809104026020016040519081016040528093929190818152602001838380828437600092019190915250929594936020810193503591505064010000000081111561092b57600080fd5b82018360208201111561093d57600080fd5b8035906020019184600183028401116401000000008311171561095f57600080fd5b91908080601f0160208091040260200160405190810160405280939291908181526020018383808284376000920191909152509295505082359350505060208101359060408101359060608101359060808101359060a001356001600160a01b03166122bd565b3480156109d257600080fd5b506109f0600480360360208110156109e957600080fd5b503561246d565b6040805160ff9092168252519081900360200190f35b348015610a1257600080fd5b5061048960048036036040811015610a2957600080fd5b506001600160a01b038135169060200135612482565b348015610a4b57600080fd5b506103fd61248c565b348015610a6057600080fd5b50610a8760048036036020811015610a7757600080fd5b50356001600160a01b0316612492565b604080519115158252519081900360200190f35b348015610aa757600080fd5b506103fd6124b0565b6000808211610b06576040805162461bcd60e51b815260206004820152601a60248201527f536166654d6174683a206469766973696f6e206279207a65726f000000000000604482015290519081900360640190fd5b818381610b0f57fe5b0490505b92915050565b600082610b2857506000610b13565b82820282848281610b3557fe5b0414610b725760405162461bcd60e51b8152600401808060200182810382526021815260200180613e3d6021913960400191505060405180910390fd5b9392505050565b600454811015610bd0576040805162461bcd60e51b815260206004820152601360248201527f54494d454652414d455f544f4f5f53484f525400000000000000000000000000604482015290519081900360640190fd5b60055415801590610be357506005548111155b80610bee5750600554155b610c3f576040805162461bcd60e51b815260206004820152601260248201527f54494d454652414d455f544f4f5f4c4f4e470000000000000000000000000000604482015290519081900360640190fd5b6000610c6282610c5c600454600354610b1990919063ffffffff16565b90610ab0565b905080341015610cb9576040805162461bcd60e51b815260206004820152601060248201527f494e53554646494349454e545f45544800000000000000000000000000000000604482015290519081900360640190fd5b6000610cc36124b6565b905080610d17576040805162461bcd60e51b815260206004820152601160248201527f4e4f5f4d4f52455f434c41494d41424c45000000000000000000000000000000604482015290519081900360640190fd5b601554604080517f156e29f6000000000000000000000000000000000000000000000000000000008152336004820152602481018490526001604482015290516001600160a01b039092169163156e29f69160648082019260009290919082900301818387803b158015610d8a57600080fd5b505af1158015610d9e573d6000803e3d6000fd5b50505050610dad816001612543565b6000610db94285612635565b6000838152600e60209081526040808320849055601082528083208790556011909152902060019055600d54909150610df29084612635565b600d55601654604080517f634b5b7d00000000000000000000000000000000000000000000000000000000815233600482015290516001600160a01b039092169163634b5b7d916024808201926020929091908290030181600087803b158015610e5b57600080fd5b505af1158015610e6f573d6000803e3d6000fd5b505050506040513d6020811015610e8557600080fd5b5050601654604080517fea40a7a40000000000000000000000000000000000000000000000000000000081523360048201526024810186905290516001600160a01b039092169163ea40a7a4916044808201926020929091908290030181600087803b158015610ef457600080fd5b505af1158015610f08573d6000803e3d6000fd5b505050506040513d6020811015610f1e57600080fd5b505060408051338152306020820152808201849052606081018690526001608082015260a0810185905290517f7772d56f71cb2b982c42f148cad4839ce0736b201b032c93233f428ba93817749181900360c00190a18234111561102257600033610f89348661268f565b604051600081818185875af1925050503d8060008114610fc5576040519150601f19603f3d011682016040523d82523d6000602084013e610fca565b606091505b5050905080611020576040805162461bcd60e51b815260206004820152600d60248201527f524546554e445f4641494c454400000000000000000000000000000000000000604482015290519081900360640190fd5b505b50505050565b60028054604080516020601f7fffffffffffffffffffffffffffffffffffffffffffffffffffffffffffffffff61010060018716150201909416859004938401819004810282018101909252828152606093909290918301828280156110cf5780601f106110a4576101008083540402835291602001916110cf565b820191906000526020600020905b8154815290600101906020018083116110b257829003601f168201915b5050505050905090565b60045490565b60055490565b60009081526010602052604090205490565b6015546001600160a01b0316611154576040805162461bcd60e51b815260206004820152600d60248201527f4e4f5f4d554c5449544f4b454e00000000000000000000000000000000000000604482015290519081900360640190fd5b6001600160a01b0382161580159061117457506001600160a01b03811615155b6111c5576040805162461bcd60e51b815260206004820152601060248201527f5a45524f5f44455354494e4154494f4e00000000000000000000000000000000604482015290519081900360640190fd5b600b541561121a576040805162461bcd60e51b815260206004820152600e60248201527f414c52454144595f4d494e544544000000000000000000000000000000000000604482015290519081900360640190fd5b60006112246126ec565b601554604080517f156e29f60000000000000000000000000000000000000000000000000000000081526001600160a01b0387811660048301526024820185905260016044830152915193945091169163156e29f69160648082019260009290919082900301818387803b15801561129b57600080fd5b505af11580156112af573d6000803e3d6000fd5b505050506112be816002612543565b6112c66126ec565b601554604080517f156e29f60000000000000000000000000000000000000000000000000000000081526001600160a01b0387811660048301526024820185905260016044830152915193945091169163156e29f69160648082019260009290919082900301818387803b15801561133d57600080fd5b505af1158015611351573d6000803e3d6000fd5b50505050611360816002612543565b505050565b61136f8282612749565b5050565b6001600160a01b03811660009081526014602052604090205460ff1661140f576013805460018082019092557f66de8ffda797e3de9c05e8fc57b3bf0ec28a930d40b0d285d93c06501cf6a0900180547fffffffffffffffffffffffff0000000000000000000000000000000000000000166001600160a01b0384169081179091556000908152601460205260409020805460ff191690911790555b50565b60135490565b600d5490565b60006013828154811061142d57fe5b6000918252602090912001546001600160a01b031692915050565b611360838383612cb8565b61140f81610b79565b601554604080517efdd58e0000000000000000000000000000000000000000000000000000000081523360048201526024810184905290516001600160a01b039092169162fdd58e91604480820192602092909190829003018186803b1580156114c557600080fd5b505afa1580156114d9573d6000803e3d6000fd5b505050506040513d60208110156114ef57600080fd5b5051600114611545576040805162461bcd60e51b815260206004820152600f60248201527f4e4f545f434c41494d5f4f574e45520000000000000000000000000000000000604482015290519081900360640190fd5b6000818152600e6020908152604080832054601090925290912054811580159061156f5750600081115b6115c0576040805162461bcd60e51b815260206004820152600d60248201527f494e56414c49445f434c41494d00000000000000000000000000000000000000604482015290519081900360640190fd5b6000838152600f602090815260408083205460129092528083205460155482517ff5298aca000000000000000000000000000000000000000000000000000000008152336004820152602481018990526001604482015292516001600160a01b039485169592944289109492169263f5298aca926064808201939182900301818387803b15801561165057600080fd5b505af1158015611664573d6000803e3d6000fd5b505050506001600160a01b03831615611979576000600182151514156117d257601754604080517feee1ad8000000000000000000000000000000000000000000000000000000000815230600482015290516000926001600160a01b03169163eee1ad80916024808301926020929190829003018186803b1580156116e857600080fd5b505afa1580156116fc573d6000803e3d6000fd5b505050506040513d602081101561171257600080fd5b5051601754604080517feee1ad800000000000000000000000000000000000000000000000000000000081526001600160a01b0389811660048301529151939450600093919092169163eee1ad80916024808301926020929190829003018186803b15801561178057600080fd5b505afa158015611794573d6000803e3d6000fd5b505050506040513d60208110156117aa57600080fd5b505190506000828214156117be57826117c0565b815b90506117cc8682610ab0565b93505050505b601754604080517f23b872dd0000000000000000000000000000000000000000000000000000000081523060048201526001600160a01b039283166024820152604481018490529051918616916323b872dd916064808201926020929091908290030181600087803b15801561184757600080fd5b505af115801561185b573d6000803e3d6000fd5b505050506040513d602081101561187157600080fd5b50506001600160a01b0384166323b872dd303361188e878661268f565b6040518463ffffffff1660e01b815260040180846001600160a01b03168152602001836001600160a01b031681526020018281526020019350505050602060405180830381600087803b1580156118e457600080fd5b505af11580156118f8573d6000803e3d6000fd5b505050506040513d602081101561190e57600080fd5b5050604080513381523060208201528082018990526001600160a01b03861660608201526080810187905260a0810185905260c0810183905290517fe0433fa1170f3ff4cf72fbeb1ae5f139a41b9457ab29e5ac480cb34ed271912a9181900360e00190a150611aea565b600060018215151415611a2957601754604080517feee1ad80000000000000000000000000000000000000000000000000000000008152600060048201819052915191926001600160a01b03169163eee1ad8091602480820192602092909190829003018186803b1580156119ed57600080fd5b505afa158015611a01573d6000803e3d6000fd5b505050506040513d6020811015611a1757600080fd5b50519050611a258682610ab0565b9150505b6017546040516001600160a01b039091169082156108fc029083906000818181858888f19350505050158015611a63573d6000803e3d6000fd5b50336108fc611a72878461268f565b6040518115909202916000818181858888f19350505050158015611a9a573d6000803e3d6000fd5b5060408051338152306020820152808201899052606081018790526080810183905290517f414b0454a52507c753948f2002246a3358eaea8464b41c2143f88b100306eee69181900360a00190a1505b600d54611af7908561268f565b600d5580611b0957505050505061140f565b6000306001600160a01b031663b788e4e96040518163ffffffff1660e01b815260040160206040518083038186803b158015611b4457600080fd5b505afa158015611b58573d6000803e3d6000fd5b505050506040513d6020811015611b6e57600080fd5b50516015546000898152601160205260408082205481517f156e29f600000000000000000000000000000000000000000000000000000000815233600482015260248101869052604481019190915290519394506001600160a01b039092169263156e29f692606480820193929182900301818387803b158015611bf157600080fd5b505af1158015611c05573d6000803e3d6000fd5b50505050611c14816002612543565b601654604080517f634b5b7d00000000000000000000000000000000000000000000000000000000815233600482015290516001600160a01b039092169163634b5b7d916024808201926020929091908290030181600087803b158015611c7a57600080fd5b505af1158015611c8e573d6000803e3d6000fd5b505050506040513d6020811015611ca457600080fd5b5050601654604080517fea40a7a40000000000000000000000000000000000000000000000000000000081523360048201526024810188905290516001600160a01b039092169163ea40a7a4916044808201926020929091908290030181600087803b158015611d1357600080fd5b505af1158015611d27573d6000803e3d6000fd5b505050506040513d6020811015611d3d57600080fd5b505060008781526011602090815260409182902054825133815230928101929092528183018a905260608201849052608082015290517fa684ef88136a415ed987c0b39bc528a16b3e83b511c414590bbe613f38f1a0729181900360a00190a150505050505050565b60009081526009602052604090205490565b60009081526011602052604090205490565b6000611dd46124b6565b905090565b6001600160a01b03811660009081526014602052604090205460ff161561140f5760005b60135481101561136f57816001600160a01b031660138281548110611e1e57fe5b6000918252602090912001546001600160a01b03161415611f5557601380547fffffffffffffffffffffffffffffffffffffffffffffffffffffffffffffffff8101908110611e6957fe5b600091825260209091200154601380546001600160a01b039092169183908110611e8f57fe5b600091825260209091200180547fffffffffffffffffffffffff0000000000000000000000000000000000000000166001600160a01b0392909216919091179055601380547fffffffffffffffffffffffffffffffffffffffffffffffffffffffffffffffff8101908110611f0057fe5b6000918252602080832090910180547fffffffffffffffffffffffff00000000000000000000000000000000000000001690556001600160a01b03841682526014905260409020805460ff191690555061140f565b600101611dfd565b6017546001600160a01b031615611fbb576040805162461bcd60e51b815260206004820152600960248201527f494d4d555441424c450000000000000000000000000000000000000000000000604482015290519081900360640190fd5b601780547fffffffffffffffffffffffff0000000000000000000000000000000000000000166001600160a01b0392909216919091179055565b60009081526012602052604090205490565b60018054604080516020601f60027fffffffffffffffffffffffffffffffffffffffffffffffffffffffffffffffff61010087891615020190951694909404938401819004810282018101909252828152606093909290918301828280156110cf5780601f106110a4576101008083540402835291602001916110cf565b600c5490565b6000908152600e602052604090205490565b6000611dd46126ec565b60065490565b6016546001600160a01b03161561210b576040805162461bcd60e51b815260206004820152600960248201527f494d4d555441424c450000000000000000000000000000000000000000000000604482015290519081900360640190fd5b601680547fffffffffffffffffffffffff0000000000000000000000000000000000000000166001600160a01b0392909216919091179055565b6000908152600f60205260409020546001600160a01b031690565b600b5490565b60075490565b6015546001600160a01b0316156121ca576040805162461bcd60e51b815260206004820152600960248201527f494d4d555441424c450000000000000000000000000000000000000000000000604482015290519081900360640190fd5b601580547fffffffffffffffffffffffff0000000000000000000000000000000000000000166001600160a01b0392909216919091179055565b6000600a828154811061221357fe5b90600052602060002001549050919050565b6018546001600160a01b031615612283576040805162461bcd60e51b815260206004820152600960248201527f494d4d555441424c450000000000000000000000000000000000000000000000604482015290519081900360640190fd5b601880547fffffffffffffffffffffffff0000000000000000000000000000000000000000166001600160a01b0392909216919091179055565b600054610100900460ff16806122d657506122d66134bc565b806122e4575060005460ff16155b61231f5760405162461bcd60e51b815260040180806020018281038252602e815260200180613e0f602e913960400191505060405180910390fd5b600054610100900460ff16158015612367576000805460ff197fffffffffffffffffffffffffffffffffffffffffffffffffffffffffffff00ff909116610100171660011790555b885161237a9060019060208c0190613d7b565b50875161238e9060029060208b0190613d7b565b50600387905560048690556005859055600684905560078390556001600160a01b03821615612433576013805460018082019092557f66de8ffda797e3de9c05e8fc57b3bf0ec28a930d40b0d285d93c06501cf6a0900180547fffffffffffffffffffffffff0000000000000000000000000000000000000000166001600160a01b0385169081179091556000908152601460205260409020805460ff191690911790555b801561246257600080547fffffffffffffffffffffffffffffffffffffffffffffffffffffffffffff00ff1690555b505050505050505050565b60009081526008602052604090205460ff1690565b61136f82826134cd565b600a5490565b6001600160a01b031660009081526014602052604090205460ff1690565b60035490565b60006007546000141580156124cf5750600754600c5411155b806124da5750600754155b6124e5576000611dd4565b50600c54604080517f636c61696d0000000000000000000000000000000000000000000000000000006020808301919091523060601b6025830152603980830194909452825180830390940184526059909101909152815191012090565b8060ff166001148061255857508060ff166002145b6125a9576040805162461bcd60e51b815260206004820152601160248201527f494e56414c49445f544f4b454e54595045000000000000000000000000000000604482015290519081900360640190fd5b600a805460018082019092557fc65a7bb8d6351c1cf70c95a316cc6a92839c986682d98bc35f958f4883f9d2a8018390556000838152600860205260409020805460ff191660ff84169081179091551461260a57612605613d14565b612612565b612612613d2d565b600083815260096020526040902055600260ff8216141561136f5761136f613d46565b600082820183811015610b72576040805162461bcd60e51b815260206004820152601b60248201527f536166654d6174683a206164646974696f6e206f766572666c6f770000000000604482015290519081900360640190fd5b6000828211156126e6576040805162461bcd60e51b815260206004820152601e60248201527f536166654d6174683a207375627472616374696f6e206f766572666c6f770000604482015290519081900360640190fd5b50900390565b600b54604080517f67656d00000000000000000000000000000000000000000000000000000000006020808301919091523060601b6023830152603780830194909452825180830390940184526057909101909152815191012090565b6004548210156127a0576040805162461bcd60e51b815260206004820152601360248201527f54494d454652414d455f544f4f5f53484f525400000000000000000000000000604482015290519081900360640190fd5b346127f2576040805162461bcd60e51b815260206004820152600c60248201527f5a45524f5f42414c414e43450000000000000000000000000000000000000000604482015290519081900360640190fd5b80612844576040805162461bcd60e51b815260206004820152600d60248201527f5a45524f5f5155414e5449545900000000000000000000000000000000000000604482015290519081900360640190fd5b6005541580159061285757506005548211155b806128625750600554155b6128b3576040805162461bcd60e51b815260206004820152601260248201527f54494d454652414d455f544f4f5f4c4f4e470000000000000000000000000000604482015290519081900360640190fd5b60006128bf3483610ab0565b905060006128de84610c5c600454600354610b1990919063ffffffff16565b905080821015612935576040805162461bcd60e51b815260206004820152601060248201527f494e53554646494349454e545f45544800000000000000000000000000000000604482015290519081900360640190fd5b600061293f6124b6565b905080612993576040805162461bcd60e51b815260206004820152601160248201527f4e4f5f4d4f52455f434c41494d41424c45000000000000000000000000000000604482015290519081900360640190fd5b601554604080517f156e29f6000000000000000000000000000000000000000000000000000000008152336004820152602481018490526001604482015290516001600160a01b039092169163156e29f69160648082019260009290919082900301818387803b158015612a0657600080fd5b505af1158015612a1a573d6000803e3d6000fd5b50505050612a29816001612543565b6000612a354287612635565b6000838152600e60209081526040808320849055601082528083208790556011825280832089905560165481517f634b5b7d00000000000000000000000000000000000000000000000000000000815233600482015291519495506001600160a01b03169363634b5b7d93602480840194938390030190829087803b158015612abd57600080fd5b505af1158015612ad1573d6000803e3d6000fd5b505050506040513d6020811015612ae757600080fd5b5050601654604080517fea40a7a40000000000000000000000000000000000000000000000000000000081523360048201526024810186905290516001600160a01b039092169163ea40a7a4916044808201926020929091908290030181600087803b158015612b5657600080fd5b505af1158015612b6a573d6000803e3d6000fd5b505050506040513d6020811015612b8057600080fd5b505060408051338152306020820152808201849052606081018890526080810187905260a0810185905290517f7772d56f71cb2b982c42f148cad4839ce0736b201b032c93233f428ba93817749181900360c00190a1612bec612be38487610b19565b600d5490612635565b600d55612bf98386610b19565b341115612cb057600033612c17612c108689610b19565b349061268f565b604051600081818185875af1925050503d8060008114612c53576040519150601f19603f3d011682016040523d82523d6000602084013e612c58565b606091505b5050905080612cae576040805162461bcd60e51b815260206004820152600d60248201527f524546554e445f4641494c454400000000000000000000000000000000000000604482015290519081900360640190fd5b505b505050505050565b6001600160a01b038316612d13576040805162461bcd60e51b815260206004820152601360248201527f494e56414c49445f45524332305f544f4b454e00000000000000000000000000604482015290519081900360640190fd5b60135415801590612d3c57506001600160a01b03831660009081526014602052604090205460ff165b80612d475750601354155b612d98576040805162461bcd60e51b815260206004820152601060248201527f544f4b454e5f444953414c4c4f57454400000000000000000000000000000000604482015290519081900360640190fd5b80612dea576040805162461bcd60e51b815260206004820152600d60248201527f5a45524f5f5155414e5449545900000000000000000000000000000000000000604482015290519081900360640190fd5b601854604080517f1246dbf50000000000000000000000000000000000000000000000000000000081526001600160a01b03868116600483015291519190921691631246dbf5916024808301926020929190829003018186803b158015612e5057600080fd5b505afa158015612e64573d6000803e3d6000fd5b505050506040513d6020811015612e7a57600080fd5b50511515600114612ed2576040805162461bcd60e51b815260206004820152600f60248201527f4e4f5f554e49535741505f504f4f4c0000000000000000000000000000000000604482015290519081900360640190fd5b601854600090819081906001600160a01b031663868d2d1e87612ef58888610ab0565b6040518363ffffffff1660e01b815260040180836001600160a01b031681526020018281526020019250505060606040518083038186803b158015612f3957600080fd5b505afa158015612f4d573d6000803e3d6000fd5b505050506040513d6060811015612f6357600080fd5b50805160208201516040909201519094509092509050612f88846102c4856064610b19565b811015612fdc576040805162461bcd60e51b815260206004820152601a60248201527f494e53554646494349454e545f4554485f4c4951554944495459000000000000604482015290519081900360640190fd5b612feb846102c4876064610b19565b82101561303f576040805162461bcd60e51b815260206004820152601c60248201527f494e53554646494349454e545f544f4b454e5f4c495155494449545900000000604482015290519081900360640190fd5b600354831115613096576040805162461bcd60e51b815260206004820152600b60248201527f4f5645525041594d454e54000000000000000000000000000000000000000000604482015290519081900360640190fd5b60006130b384610c5c600454600354610b1990919063ffffffff16565b905060045481101561310c576040805162461bcd60e51b815260206004820152601160248201527f494e53554646494349454e545f54494d45000000000000000000000000000000604482015290519081900360640190fd5b60006131166124b6565b90508061316a576040805162461bcd60e51b815260206004820152601160248201527f4e4f5f4d4f52455f434c41494d41424c45000000000000000000000000000000604482015290519081900360640190fd5b601554604080517f156e29f6000000000000000000000000000000000000000000000000000000008152336004820152602481018490526001604482015290516001600160a01b039092169163156e29f69160648082019260009290919082900301818387803b1580156131dd57600080fd5b505af11580156131f1573d6000803e3d6000fd5b50505050613200816001612543565b600061320c4284612635565b6000838152600e60209081526040808320849055601082528083208a9055600f825280832080547fffffffffffffffffffffffff0000000000000000000000000000000000000000166001600160a01b038f16179055601282528083208c905560119091529020889055600d549091506132869087612635565b600d55601654604080517f634b5b7d00000000000000000000000000000000000000000000000000000000815233600482015290516001600160a01b039092169163634b5b7d916024808201926020929091908290030181600087803b1580156132ef57600080fd5b505af1158015613303573d6000803e3d6000fd5b505050506040513d602081101561331957600080fd5b5050601654604080517fea40a7a40000000000000000000000000000000000000000000000000000000081523360048201526024810189905290516001600160a01b039092169163ea40a7a4916044808201926020929091908290030181600087803b15801561338857600080fd5b505af115801561339c573d6000803e3d6000fd5b505050506040513d60208110156133b257600080fd5b505060408051338152306020820152808201849052606081018590526001600160a01b038b16608082015260a0810189905260c0810188905290517fe583bcc9acfcc0488165ba03e5e6613c9cb6a8cc97fd72a3d28b402b0a1830fc9181900360e00190a1604080517f23b872dd000000000000000000000000000000000000000000000000000000008152336004820152306024820152604481018a905290516001600160a01b038b16916323b872dd9160648083019260209291908290030181600087803b15801561348557600080fd5b505af1158015613499573d6000803e3d6000fd5b505050506040513d60208110156134af57600080fd5b5050505050505050505050565b60006134c730613d75565b15905090565b6001600160a01b038216613528576040805162461bcd60e51b815260206004820152601360248201527f494e56414c49445f45524332305f544f4b454e00000000000000000000000000604482015290519081900360640190fd5b6013541580159061355157506001600160a01b03821660009081526014602052604090205460ff165b8061355c5750601354155b6135ad576040805162461bcd60e51b815260206004820152601060248201527f544f4b454e5f444953414c4c4f57454400000000000000000000000000000000604482015290519081900360640190fd5b601854604080517f1246dbf50000000000000000000000000000000000000000000000000000000081526001600160a01b03858116600483015291519190921691631246dbf5916024808301926020929190829003018186803b15801561361357600080fd5b505afa158015613627573d6000803e3d6000fd5b505050506040513d602081101561363d57600080fd5b50511515600114613695576040805162461bcd60e51b815260206004820152600f60248201527f4e4f5f554e49535741505f504f4f4c0000000000000000000000000000000000604482015290519081900360640190fd5b601854604080517f868d2d1e0000000000000000000000000000000000000000000000000000000081526001600160a01b0385811660048301526024820185905291516000938493849391169163868d2d1e91604480820192606092909190829003018186803b15801561370857600080fd5b505afa15801561371c573d6000803e3d6000fd5b505050506040513d606081101561373257600080fd5b50805160208083015160409384015160175485517fb8c876b10000000000000000000000000000000000000000000000000000000081526001600160a01b038c811660048301529651959950929750909550600094169263b8c876b192602480840193919291829003018186803b1580156137ac57600080fd5b505afa1580156137c0573d6000803e3d6000fd5b505050506040513d60208110156137d657600080fd5b505190506137e48482610b19565b821015613838576040805162461bcd60e51b815260206004820152601a60248201527f494e53554646494349454e545f4554485f4c4951554944495459000000000000604482015290519081900360640190fd5b6138428582610b19565b831015613896576040805162461bcd60e51b815260206004820152601c60248201527f494e53554646494349454e545f544f4b454e5f4c495155494449545900000000604482015290519081900360640190fd5b6003548411156138ed576040805162461bcd60e51b815260206004820152600b60248201527f4f5645525041594d454e54000000000000000000000000000000000000000000604482015290519081900360640190fd5b600061390a85610c5c600454600354610b1990919063ffffffff16565b9050600454811015613963576040805162461bcd60e51b815260206004820152601160248201527f494e53554646494349454e545f54494d45000000000000000000000000000000604482015290519081900360640190fd5b600061396d6124b6565b9050806139c1576040805162461bcd60e51b815260206004820152601160248201527f4e4f5f4d4f52455f434c41494d41424c45000000000000000000000000000000604482015290519081900360640190fd5b604080517f23b872dd0000000000000000000000000000000000000000000000000000000081523360048201523060248201526044810189905290516001600160a01b038a16916323b872dd9160648083019260209291908290030181600087803b158015613a2f57600080fd5b505af1158015613a43573d6000803e3d6000fd5b505050506040513d6020811015613a5957600080fd5b5050601554604080517f156e29f6000000000000000000000000000000000000000000000000000000008152336004820152602481018490526001604482015290516001600160a01b039092169163156e29f69160648082019260009290919082900301818387803b158015613ace57600080fd5b505af1158015613ae2573d6000803e3d6000fd5b50505050613af1816001612543565b6000613afd4284612635565b6000838152600e60209081526040808320849055601082528083208b9055600f825280832080547fffffffffffffffffffffffff0000000000000000000000000000000000000000166001600160a01b038f16179055601282528083208c90556011909152902060019055600d54909150613b789088612635565b600d55601654604080517f634b5b7d00000000000000000000000000000000000000000000000000000000815233600482015290516001600160a01b039092169163634b5b7d916024808201926020929091908290030181600087803b158015613be157600080fd5b505af1158015613bf5573d6000803e3d6000fd5b505050506040513d6020811015613c0b57600080fd5b5050601654604080517fea40a7a4000000000000000000000000000000000000000000000000000000008152336004820152602481018a905290516001600160a01b039092169163ea40a7a4916044808201926020929091908290030181600087803b158015613c7a57600080fd5b505af1158015613c8e573d6000803e3d6000fd5b505050506040513d6020811015613ca457600080fd5b505060408051338152306020820152808201849052606081018590526001600160a01b038b166080820152600160a082015260c0810189905290517fe583bcc9acfcc0488165ba03e5e6613c9cb6a8cc97fd72a3d28b402b0a1830fc9181900360e00190a1505050505050505050565b600b54600090613d25816001612635565b600b55905090565b600c54600090613d3e816001612635565b600c55905090565b6000613d5f600654600354610ab090919063ffffffff16565b600354909150613d6f9082612635565b60035550565b3b151590565b828054600181600116156101000203166002900490600052602060002090601f016020900481019282601f10613dbc57805160ff1916838001178555613de9565b82800160010185558215613de9579182015b82811115613de9578251825591602001919060010190613dce565b50613df5929150613df9565b5090565b5b80821115613df55760008155600101613dfa56fe496e697469616c697a61626c653a20636f6e747261637420697320616c726561647920696e697469616c697a6564536166654d6174683a206d756c7469706c69636174696f6e206f766572666c6f77a2646970667358221220a71ee1b530db2fb114147398e2d1f6d3ace4be57613242e9d8b71d35372b311d64736f6c63430007030033436f6e74726f6c6c61626c653a2063616c6c6572206973206e6f74206120636f6e74726f6c6c6572a26469706673582212203cea780b74f195646bc0251f0e1a619f45796b99407d75c46bbf8bfd243b636b64736f6c63430007030033",
  "libraries": {
    "GovernanceLib": "0xa1747DD20406Db2eFd518c42aa512e0399bB71cB",
    "Strings": "0x98cCd9cb27398a6595f15cbC4b63AC525b942aad",
    "SafeMath": "0xD34a551B4a262230a373D376dDf8aADb2B0D49FD",
    "ProposalsLib": "0x752cE5Afa66b9E215b6dEE9F7Dc1Ec2bf868E373",
    "Create2": "0xA511e209A01E27d134b4F564263f7Db8FCBDeba6"
  },
  "devdoc": {
    "kind": "dev",
    "methods": {
      "addController(address)": {
        "details": "Add an address allowed to control this contract"
      },
      "allNFTGemPools(uint256)": {
        "details": "get the quantized token for this"
      },
      "allNFTGemPoolsLength()": {
        "details": "number of quantized addresses"
      },
      "createNFTGemPool(string,string,uint256,uint256,uint256,uint256,uint256,address)": {
        "details": "deploy a new erc20 token using create2"
      },
      "getNFTGemPool(uint256)": {
        "details": "get the quantized token for this"
      },
      "isController(address)": {
        "details": "Check if this address is a controller"
      },
      "relinquishControl()": {
        "details": "Check if this address is a controller"
      }
    },
    "version": 1
  },
  "userdoc": {
    "kind": "user",
    "methods": {},
    "version": 1
  },
  "storageLayout": {
    "storage": [
      {
        "astId": 10169,
        "contract": "src/factories/NFTGemPoolFactory.sol:NFTGemPoolFactory",
        "label": "_controllers",
        "offset": 0,
        "slot": "0",
        "type": "t_mapping(t_address,t_bool)"
      },
      {
        "astId": 10373,
        "contract": "src/factories/NFTGemPoolFactory.sol:NFTGemPoolFactory",
        "label": "operator",
        "offset": 0,
        "slot": "1",
        "type": "t_address"
      },
      {
        "astId": 10377,
        "contract": "src/factories/NFTGemPoolFactory.sol:NFTGemPoolFactory",
        "label": "_getNFTGemPool",
        "offset": 0,
        "slot": "2",
        "type": "t_mapping(t_uint256,t_address)"
      },
      {
        "astId": 10380,
        "contract": "src/factories/NFTGemPoolFactory.sol:NFTGemPoolFactory",
        "label": "_allNFTGemPools",
        "offset": 0,
        "slot": "3",
        "type": "t_array(t_address)dyn_storage"
      }
    ],
    "types": {
      "t_address": {
        "encoding": "inplace",
        "label": "address",
        "numberOfBytes": "20"
      },
      "t_array(t_address)dyn_storage": {
        "base": "t_address",
        "encoding": "dynamic_array",
        "label": "address[]",
        "numberOfBytes": "32"
      },
      "t_bool": {
        "encoding": "inplace",
        "label": "bool",
        "numberOfBytes": "1"
      },
      "t_mapping(t_address,t_bool)": {
        "encoding": "mapping",
        "key": "t_address",
        "label": "mapping(address => bool)",
        "numberOfBytes": "32",
        "value": "t_bool"
      },
      "t_mapping(t_uint256,t_address)": {
        "encoding": "mapping",
        "key": "t_uint256",
        "label": "mapping(uint256 => address)",
        "numberOfBytes": "32",
        "value": "t_address"
      },
      "t_uint256": {
        "encoding": "inplace",
        "label": "uint256",
        "numberOfBytes": "32"
      }
    }
  }
}