{
  "address": "0x17406Bf9E49021E438b4DB88DCBdDfFA59ac8146",
  "abi": [
    {
      "inputs": [],
      "stateMutability": "nonpayable",
      "type": "constructor"
    },
    {
      "anonymous": false,
      "inputs": [
        {
          "indexed": true,
          "internalType": "address",
          "name": "contractAddress",
          "type": "address"
        },
        {
          "indexed": true,
          "internalType": "address",
          "name": "controllerAddress",
          "type": "address"
        }
      ],
      "name": "ControllerAdded",
      "type": "event"
    },
    {
      "anonymous": false,
      "inputs": [
        {
          "indexed": true,
          "internalType": "address",
          "name": "contractAddress",
          "type": "address"
        },
        {
          "indexed": true,
          "internalType": "address",
          "name": "controllerAddress",
          "type": "address"
        }
      ],
      "name": "ControllerRemoved",
      "type": "event"
    },
    {
      "inputs": [],
      "name": "COIN",
      "outputs": [
        {
          "internalType": "address",
          "name": "weth",
          "type": "address"
        }
      ],
      "stateMutability": "pure",
      "type": "function"
    },
    {
      "inputs": [],
      "name": "FUJI_PANGOLIN_ROUTER_ADDRESS",
      "outputs": [
        {
          "internalType": "address",
          "name": "",
          "type": "address"
        }
      ],
      "stateMutability": "view",
      "type": "function"
    },
    {
      "inputs": [],
      "name": "PANGOLIN_ROUTER_ADDRESS",
      "outputs": [
        {
          "internalType": "address",
          "name": "",
          "type": "address"
        }
      ],
      "stateMutability": "view",
      "type": "function"
    },
    {
      "inputs": [
        {
          "internalType": "address",
          "name": "_controller",
          "type": "address"
        }
      ],
      "name": "addController",
      "outputs": [],
      "stateMutability": "nonpayable",
      "type": "function"
    },
    {
      "inputs": [
        {
          "internalType": "address",
          "name": "token",
          "type": "address"
        },
        {
          "internalType": "uint256",
          "name": "tokenAmount",
          "type": "uint256"
        }
      ],
      "name": "coinQuote",
      "outputs": [
        {
          "internalType": "uint256",
          "name": "ethereum",
          "type": "uint256"
        },
        {
          "internalType": "uint256",
          "name": "tokenReserve",
          "type": "uint256"
        },
        {
          "internalType": "uint256",
          "name": "ethReserve",
          "type": "uint256"
        }
      ],
      "stateMutability": "view",
      "type": "function"
    },
    {
      "inputs": [],
      "name": "factory",
      "outputs": [
        {
          "internalType": "address",
          "name": "fac",
          "type": "address"
        }
      ],
      "stateMutability": "pure",
      "type": "function"
    },
    {
      "inputs": [
        {
          "internalType": "address",
          "name": "tokenA",
          "type": "address"
        },
        {
          "internalType": "address",
          "name": "tokenB",
          "type": "address"
        }
      ],
      "name": "getPair",
      "outputs": [
        {
          "internalType": "address",
          "name": "pair",
          "type": "address"
        }
      ],
      "stateMutability": "view",
      "type": "function"
    },
    {
      "inputs": [
        {
          "internalType": "address",
          "name": "token",
          "type": "address"
        }
      ],
      "name": "getPathForCoinToToken",
      "outputs": [
        {
          "internalType": "address[]",
          "name": "",
          "type": "address[]"
        }
      ],
      "stateMutability": "pure",
      "type": "function"
    },
    {
      "inputs": [
        {
          "internalType": "address",
          "name": "pair",
          "type": "address"
        }
      ],
      "name": "getReserves",
      "outputs": [
        {
          "internalType": "uint256",
          "name": "reserveA",
          "type": "uint256"
        },
        {
          "internalType": "uint256",
          "name": "reserveB",
          "type": "uint256"
        }
      ],
      "stateMutability": "view",
      "type": "function"
    },
    {
      "inputs": [
        {
          "internalType": "address",
          "name": "token",
          "type": "address"
        }
      ],
      "name": "hasPool",
      "outputs": [
        {
          "internalType": "bool",
          "name": "",
          "type": "bool"
        }
      ],
      "stateMutability": "view",
      "type": "function"
    },
    {
      "inputs": [
        {
          "internalType": "address",
          "name": "_address",
          "type": "address"
        }
      ],
      "name": "isController",
      "outputs": [
        {
          "internalType": "bool",
          "name": "allowed",
          "type": "bool"
        }
      ],
      "stateMutability": "view",
      "type": "function"
    },
    {
      "inputs": [
        {
          "internalType": "address",
          "name": "tokenA",
          "type": "address"
        },
        {
          "internalType": "address",
          "name": "tokenB",
          "type": "address"
        }
      ],
      "name": "pairFor",
      "outputs": [
        {
          "internalType": "address",
          "name": "pair",
          "type": "address"
        }
      ],
      "stateMutability": "pure",
      "type": "function"
    },
    {
      "inputs": [],
      "name": "relinquishControl",
      "outputs": [],
      "stateMutability": "view",
      "type": "function"
    }
  ],
  "transactionHash": "0xd848f09464e92ef503289f0e564ad2d6dcbc7792fdaeb2ef5c6df276019aec4f",
  "args": [],
  "solcInputHash": "e4931953a5bb183a1bede7b42c1c780d",
  "bytecode": "0x608060405234801561001057600080fd5b50600180546001600160a01b03191673efa94de7a4656d787667c749f7e1223d71e9fd88179055610bc9806100466000396000f3fe608060405234801561001057600080fd5b50600436106100df5760003560e01c806396ed28f91161008c578063b429afeb11610066578063b429afeb14610302578063c45a015514610335578063e1c28bef1461033d578063e6a4390514610345576100df565b806396ed28f91461028a578063a54a72b7146102c5578063a7fc7a07146102cd576100df565b80633ba130d6116100bd5780633ba130d6146101df5780633e99c1e4146101e7578063868d2d1e14610233576100df565b806309666696146100e45780631139cde0146101675780631246dbf514610198575b600080fd5b610117600480360360208110156100fa57600080fd5b503573ffffffffffffffffffffffffffffffffffffffff16610380565b60408051602080825283518183015283519192839290830191858101910280838360005b8381101561015357818101518382015260200161013b565b505050509050019250505060405180910390f35b61016f6104d5565b6040805173ffffffffffffffffffffffffffffffffffffffff9092168252519081900360200190f35b6101cb600480360360208110156101ae57600080fd5b503573ffffffffffffffffffffffffffffffffffffffff166104ed565b604080519115158252519081900360200190f35b61016f610586565b61021a600480360360208110156101fd57600080fd5b503573ffffffffffffffffffffffffffffffffffffffff1661059e565b6040805192835260208301919091528051918290030190f35b61026c6004803603604081101561024957600080fd5b5073ffffffffffffffffffffffffffffffffffffffff8135169060200135610642565b60408051938452602084019290925282820152519081900360600190f35b61016f600480360360408110156102a057600080fd5b5073ffffffffffffffffffffffffffffffffffffffff813581169160200135166106f9565b61016f610834565b610300600480360360208110156102e357600080fd5b503573ffffffffffffffffffffffffffffffffffffffff166108ab565b005b6101cb6004803603602081101561031857600080fd5b503573ffffffffffffffffffffffffffffffffffffffff16610971565b61016f61099c565b6103006109e2565b61016f6004803603604081101561035b57600080fd5b5073ffffffffffffffffffffffffffffffffffffffff81358116916020013516610a64565b60607357cD473bC2d32FcE9e663214929306eB24b8ad0E6326edfd81836040518263ffffffff1660e01b8152600401808273ffffffffffffffffffffffffffffffffffffffff16815260200191505060006040518083038186803b1580156103e757600080fd5b505af41580156103fb573d6000803e3d6000fd5b505050506040513d6000823e601f3d9081017fffffffffffffffffffffffffffffffffffffffffffffffffffffffffffffffe0168201604052602081101561044257600080fd5b810190808051604051939291908464010000000082111561046257600080fd5b90830190602082018581111561047757600080fd5b825186602082028301116401000000008211171561049457600080fd5b82525081516020918201928201910280838360005b838110156104c15781810151838201526020016104a9565b505050509050016040525050509050919050565b73e4a575550c2b460d2307b82dcd7afe84ad1484dd81565b60007357cD473bC2d32FcE9e663214929306eB24b8ad0E631246dbf5836040518263ffffffff1660e01b8152600401808273ffffffffffffffffffffffffffffffffffffffff16815260200191505060206040518083038186803b15801561055457600080fd5b505af4158015610568573d6000803e3d6000fd5b505050506040513d602081101561057e57600080fd5b505192915050565b73efa94de7a4656d787667c749f7e1223d71e9fd8881565b6000807357cD473bC2d32FcE9e663214929306eB24b8ad0E633e99c1e4846040518263ffffffff1660e01b8152600401808273ffffffffffffffffffffffffffffffffffffffff168152602001915050604080518083038186803b15801561060557600080fd5b505af4158015610619573d6000803e3d6000fd5b505050506040513d604081101561062f57600080fd5b5080516020909101519094909350915050565b60008060007357cD473bC2d32FcE9e663214929306eB24b8ad0E639df2762886866040518363ffffffff1660e01b8152600401808373ffffffffffffffffffffffffffffffffffffffff1681526020018281526020019250505060606040518083038186803b1580156106b457600080fd5b505af41580156106c8573d6000803e3d6000fd5b505050506040513d60608110156106de57600080fd5b50805160208201516040909201519097919650945092505050565b6000807357cD473bC2d32FcE9e663214929306eB24b8ad0E63c45a01556040518163ffffffff1660e01b815260040160206040518083038186803b15801561074057600080fd5b505af4158015610754573d6000803e3d6000fd5b505050506040513d602081101561076a57600080fd5b5051604080517f6d91c0e200000000000000000000000000000000000000000000000000000000815273ffffffffffffffffffffffffffffffffffffffff808416600483015280881660248301528616604482015290519192507357cD473bC2d32FcE9e663214929306eB24b8ad0E91636d91c0e291606480820192602092909190829003018186803b15801561080057600080fd5b505af4158015610814573d6000803e3d6000fd5b505050506040513d602081101561082a57600080fd5b5051949350505050565b60007357cD473bC2d32FcE9e663214929306eB24b8ad0E6373b295c26040518163ffffffff1660e01b815260040160206040518083038186803b15801561087a57600080fd5b505af415801561088e573d6000803e3d6000fd5b505050506040513d60208110156108a457600080fd5b5051919050565b3360009081526020819052604090205460ff161515600114806108cd57503033145b610922576040517f08c379a0000000000000000000000000000000000000000000000000000000008152600401808060200182810382526028815260200180610b6c6028913960400191505060405180910390fd5b73ffffffffffffffffffffffffffffffffffffffff16600090815260208190526040902080547fffffffffffffffffffffffffffffffffffffffffffffffffffffffffffffff00166001179055565b73ffffffffffffffffffffffffffffffffffffffff1660009081526020819052604090205460ff1690565b60007357cD473bC2d32FcE9e663214929306eB24b8ad0E63c45a01556040518163ffffffff1660e01b815260040160206040518083038186803b15801561087a57600080fd5b3360009081526020819052604090205460ff16151560011480610a0457503033145b610a59576040517f08c379a0000000000000000000000000000000000000000000000000000000008152600401808060200182810382526028815260200180610b6c6028913960400191505060405180910390fd5b336000908152602052565b6000807357cD473bC2d32FcE9e663214929306eB24b8ad0E63c45a01556040518163ffffffff1660e01b815260040160206040518083038186803b158015610aab57600080fd5b505af4158015610abf573d6000803e3d6000fd5b505050506040513d6020811015610ad557600080fd5b5051604080517f61e0b77f00000000000000000000000000000000000000000000000000000000815273ffffffffffffffffffffffffffffffffffffffff808416600483015280881660248301528616604482015290519192507357cD473bC2d32FcE9e663214929306eB24b8ad0E916361e0b77f91606480820192602092909190829003018186803b15801561080057600080fdfe436f6e74726f6c6c61626c653a2063616c6c6572206973206e6f74206120636f6e74726f6c6c6572a264697066735822122073c505a5914a5bc4667f43ea7877b45e0c7d218126dcd69a33813c0171207bd864736f6c63430007030033",
  "deployedBytecode": "0x608060405234801561001057600080fd5b50600436106100df5760003560e01c806396ed28f91161008c578063b429afeb11610066578063b429afeb14610302578063c45a015514610335578063e1c28bef1461033d578063e6a4390514610345576100df565b806396ed28f91461028a578063a54a72b7146102c5578063a7fc7a07146102cd576100df565b80633ba130d6116100bd5780633ba130d6146101df5780633e99c1e4146101e7578063868d2d1e14610233576100df565b806309666696146100e45780631139cde0146101675780631246dbf514610198575b600080fd5b610117600480360360208110156100fa57600080fd5b503573ffffffffffffffffffffffffffffffffffffffff16610380565b60408051602080825283518183015283519192839290830191858101910280838360005b8381101561015357818101518382015260200161013b565b505050509050019250505060405180910390f35b61016f6104d5565b6040805173ffffffffffffffffffffffffffffffffffffffff9092168252519081900360200190f35b6101cb600480360360208110156101ae57600080fd5b503573ffffffffffffffffffffffffffffffffffffffff166104ed565b604080519115158252519081900360200190f35b61016f610586565b61021a600480360360208110156101fd57600080fd5b503573ffffffffffffffffffffffffffffffffffffffff1661059e565b6040805192835260208301919091528051918290030190f35b61026c6004803603604081101561024957600080fd5b5073ffffffffffffffffffffffffffffffffffffffff8135169060200135610642565b60408051938452602084019290925282820152519081900360600190f35b61016f600480360360408110156102a057600080fd5b5073ffffffffffffffffffffffffffffffffffffffff813581169160200135166106f9565b61016f610834565b610300600480360360208110156102e357600080fd5b503573ffffffffffffffffffffffffffffffffffffffff166108ab565b005b6101cb6004803603602081101561031857600080fd5b503573ffffffffffffffffffffffffffffffffffffffff16610971565b61016f61099c565b6103006109e2565b61016f6004803603604081101561035b57600080fd5b5073ffffffffffffffffffffffffffffffffffffffff81358116916020013516610a64565b606073__$1e02c994691d2b125c26964ddf99eecd4d$__6326edfd81836040518263ffffffff1660e01b8152600401808273ffffffffffffffffffffffffffffffffffffffff16815260200191505060006040518083038186803b1580156103e757600080fd5b505af41580156103fb573d6000803e3d6000fd5b505050506040513d6000823e601f3d9081017fffffffffffffffffffffffffffffffffffffffffffffffffffffffffffffffe0168201604052602081101561044257600080fd5b810190808051604051939291908464010000000082111561046257600080fd5b90830190602082018581111561047757600080fd5b825186602082028301116401000000008211171561049457600080fd5b82525081516020918201928201910280838360005b838110156104c15781810151838201526020016104a9565b505050509050016040525050509050919050565b73e4a575550c2b460d2307b82dcd7afe84ad1484dd81565b600073__$1e02c994691d2b125c26964ddf99eecd4d$__631246dbf5836040518263ffffffff1660e01b8152600401808273ffffffffffffffffffffffffffffffffffffffff16815260200191505060206040518083038186803b15801561055457600080fd5b505af4158015610568573d6000803e3d6000fd5b505050506040513d602081101561057e57600080fd5b505192915050565b73efa94de7a4656d787667c749f7e1223d71e9fd8881565b60008073__$1e02c994691d2b125c26964ddf99eecd4d$__633e99c1e4846040518263ffffffff1660e01b8152600401808273ffffffffffffffffffffffffffffffffffffffff168152602001915050604080518083038186803b15801561060557600080fd5b505af4158015610619573d6000803e3d6000fd5b505050506040513d604081101561062f57600080fd5b5080516020909101519094909350915050565b600080600073__$1e02c994691d2b125c26964ddf99eecd4d$__639df2762886866040518363ffffffff1660e01b8152600401808373ffffffffffffffffffffffffffffffffffffffff1681526020018281526020019250505060606040518083038186803b1580156106b457600080fd5b505af41580156106c8573d6000803e3d6000fd5b505050506040513d60608110156106de57600080fd5b50805160208201516040909201519097919650945092505050565b60008073__$1e02c994691d2b125c26964ddf99eecd4d$__63c45a01556040518163ffffffff1660e01b815260040160206040518083038186803b15801561074057600080fd5b505af4158015610754573d6000803e3d6000fd5b505050506040513d602081101561076a57600080fd5b5051604080517f6d91c0e200000000000000000000000000000000000000000000000000000000815273ffffffffffffffffffffffffffffffffffffffff8084166004830152808816602483015286166044820152905191925073__$1e02c994691d2b125c26964ddf99eecd4d$__91636d91c0e291606480820192602092909190829003018186803b15801561080057600080fd5b505af4158015610814573d6000803e3d6000fd5b505050506040513d602081101561082a57600080fd5b5051949350505050565b600073__$1e02c994691d2b125c26964ddf99eecd4d$__6373b295c26040518163ffffffff1660e01b815260040160206040518083038186803b15801561087a57600080fd5b505af415801561088e573d6000803e3d6000fd5b505050506040513d60208110156108a457600080fd5b5051919050565b3360009081526020819052604090205460ff161515600114806108cd57503033145b610922576040517f08c379a0000000000000000000000000000000000000000000000000000000008152600401808060200182810382526028815260200180610b6c6028913960400191505060405180910390fd5b73ffffffffffffffffffffffffffffffffffffffff16600090815260208190526040902080547fffffffffffffffffffffffffffffffffffffffffffffffffffffffffffffff00166001179055565b73ffffffffffffffffffffffffffffffffffffffff1660009081526020819052604090205460ff1690565b600073__$1e02c994691d2b125c26964ddf99eecd4d$__63c45a01556040518163ffffffff1660e01b815260040160206040518083038186803b15801561087a57600080fd5b3360009081526020819052604090205460ff16151560011480610a0457503033145b610a59576040517f08c379a0000000000000000000000000000000000000000000000000000000008152600401808060200182810382526028815260200180610b6c6028913960400191505060405180910390fd5b336000908152602052565b60008073__$1e02c994691d2b125c26964ddf99eecd4d$__63c45a01556040518163ffffffff1660e01b815260040160206040518083038186803b158015610aab57600080fd5b505af4158015610abf573d6000803e3d6000fd5b505050506040513d6020811015610ad557600080fd5b5051604080517f61e0b77f00000000000000000000000000000000000000000000000000000000815273ffffffffffffffffffffffffffffffffffffffff8084166004830152808816602483015286166044820152905191925073__$1e02c994691d2b125c26964ddf99eecd4d$__916361e0b77f91606480820192602092909190829003018186803b15801561080057600080fdfe436f6e74726f6c6c61626c653a2063616c6c6572206973206e6f74206120636f6e74726f6c6c6572a264697066735822122073c505a5914a5bc4667f43ea7877b45e0c7d218126dcd69a33813c0171207bd864736f6c63430007030033",
  "libraries": {
    "PangolinLib": "0x57cD473bC2d32FcE9e663214929306eB24b8ad0E"
  },
  "devdoc": {
    "details": "Uniswap helpers",
    "kind": "dev",
    "methods": {
      "COIN()": {
        "details": "does a Uniswap pool exist for this token?"
      },
      "addController(address)": {
        "details": "Add an address allowed to control this contract"
      },
      "coinQuote(address,uint256)": {
        "details": "Get a quote in Ethereum for the given ERC20 token / token amount"
      },
      "factory()": {
        "details": "does a Uniswap pool exist for this token?"
      },
      "getPair(address,address)": {
        "details": "looks for a pool vs weth"
      },
      "getPathForCoinToToken(address)": {
        "details": "Get a path for ethereum to the given token"
      },
      "getReserves(address)": {
        "details": "Get the pair reserves given two erc20 tokens"
      },
      "hasPool(address)": {
        "details": "does token have a pool"
      },
      "isController(address)": {
        "details": "Check if this address is a controller"
      },
      "pairFor(address,address)": {
        "details": "calculate pair address"
      },
      "relinquishControl()": {
        "details": "Check if this address is a controller"
      }
    },
    "version": 1
  },
  "userdoc": {
    "kind": "user",
    "methods": {},
    "version": 1
  },
  "storageLayout": {
    "storage": [
      {
        "astId": 2105,
        "contract": "src/swap/pangolin/PangolinQueryHelper.sol:PangolinQueryHelper",
        "label": "_controllers",
        "offset": 0,
        "slot": "0",
        "type": "t_mapping(t_address,t_bool)"
      },
      {
        "astId": 10818,
        "contract": "src/swap/pangolin/PangolinQueryHelper.sol:PangolinQueryHelper",
        "label": "_routerAddress",
        "offset": 0,
        "slot": "1",
        "type": "t_address"
      }
    ],
    "types": {
      "t_address": {
        "encoding": "inplace",
        "label": "address",
        "numberOfBytes": "20"
      },
      "t_bool": {
        "encoding": "inplace",
        "label": "bool",
        "numberOfBytes": "1"
      },
      "t_mapping(t_address,t_bool)": {
        "encoding": "mapping",
        "key": "t_address",
        "label": "mapping(address => bool)",
        "numberOfBytes": "32",
        "value": "t_bool"
      }
    }
  }
}