{
  "address": "0xA587eC3C94e246304e622b0c835aa5259EA18460",
  "abi": [
    {
      "inputs": [
        {
          "internalType": "string",
          "name": "name",
          "type": "string"
        },
        {
          "internalType": "string",
          "name": "symbol",
          "type": "string"
        },
        {
          "internalType": "address",
          "name": "gemPool",
          "type": "address"
        },
        {
          "internalType": "address",
          "name": "gemToken",
          "type": "address"
        },
        {
          "internalType": "uint8",
          "name": "decimals",
          "type": "uint8"
        }
      ],
      "stateMutability": "nonpayable",
      "type": "constructor"
    },
    {
      "anonymous": false,
      "inputs": [
        {
          "indexed": true,
          "internalType": "address",
          "name": "owner",
          "type": "address"
        },
        {
          "indexed": true,
          "internalType": "address",
          "name": "spender",
          "type": "address"
        },
        {
          "indexed": false,
          "internalType": "uint256",
          "name": "value",
          "type": "uint256"
        }
      ],
      "name": "Approval",
      "type": "event"
    },
    {
      "anonymous": false,
      "inputs": [
        {
          "indexed": true,
          "internalType": "address",
          "name": "from",
          "type": "address"
        },
        {
          "indexed": true,
          "internalType": "address",
          "name": "to",
          "type": "address"
        },
        {
          "indexed": false,
          "internalType": "uint256",
          "name": "value",
          "type": "uint256"
        }
      ],
      "name": "Transfer",
      "type": "event"
    },
    {
      "anonymous": false,
      "inputs": [
        {
          "indexed": true,
          "internalType": "address",
          "name": "account",
          "type": "address"
        },
        {
          "indexed": false,
          "internalType": "uint256",
          "name": "quantity",
          "type": "uint256"
        }
      ],
      "name": "Unwrap",
      "type": "event"
    },
    {
      "anonymous": false,
      "inputs": [
        {
          "indexed": true,
          "internalType": "address",
          "name": "account",
          "type": "address"
        },
        {
          "indexed": false,
          "internalType": "uint256",
          "name": "quantity",
          "type": "uint256"
        }
      ],
      "name": "Wrap",
      "type": "event"
    },
    {
      "inputs": [
        {
          "internalType": "address",
          "name": "owner",
          "type": "address"
        },
        {
          "internalType": "address",
          "name": "spender",
          "type": "address"
        }
      ],
      "name": "allowance",
      "outputs": [
        {
          "internalType": "uint256",
          "name": "",
          "type": "uint256"
        }
      ],
      "stateMutability": "view",
      "type": "function"
    },
    {
      "inputs": [
        {
          "internalType": "address",
          "name": "spender",
          "type": "address"
        },
        {
          "internalType": "uint256",
          "name": "amount",
          "type": "uint256"
        }
      ],
      "name": "approve",
      "outputs": [
        {
          "internalType": "bool",
          "name": "",
          "type": "bool"
        }
      ],
      "stateMutability": "nonpayable",
      "type": "function"
    },
    {
      "inputs": [
        {
          "internalType": "address",
          "name": "account",
          "type": "address"
        }
      ],
      "name": "balanceOf",
      "outputs": [
        {
          "internalType": "uint256",
          "name": "",
          "type": "uint256"
        }
      ],
      "stateMutability": "view",
      "type": "function"
    },
    {
      "inputs": [],
      "name": "decimals",
      "outputs": [
        {
          "internalType": "uint8",
          "name": "",
          "type": "uint8"
        }
      ],
      "stateMutability": "view",
      "type": "function"
    },
    {
      "inputs": [
        {
          "internalType": "address",
          "name": "spender",
          "type": "address"
        },
        {
          "internalType": "uint256",
          "name": "subtractedValue",
          "type": "uint256"
        }
      ],
      "name": "decreaseAllowance",
      "outputs": [
        {
          "internalType": "bool",
          "name": "",
          "type": "bool"
        }
      ],
      "stateMutability": "nonpayable",
      "type": "function"
    },
    {
      "inputs": [
        {
          "internalType": "address",
          "name": "spender",
          "type": "address"
        },
        {
          "internalType": "uint256",
          "name": "addedValue",
          "type": "uint256"
        }
      ],
      "name": "increaseAllowance",
      "outputs": [
        {
          "internalType": "bool",
          "name": "",
          "type": "bool"
        }
      ],
      "stateMutability": "nonpayable",
      "type": "function"
    },
    {
      "inputs": [],
      "name": "name",
      "outputs": [
        {
          "internalType": "string",
          "name": "",
          "type": "string"
        }
      ],
      "stateMutability": "view",
      "type": "function"
    },
    {
      "inputs": [
        {
          "internalType": "address",
          "name": "",
          "type": "address"
        },
        {
          "internalType": "address",
          "name": "",
          "type": "address"
        },
        {
          "internalType": "uint256[]",
          "name": "",
          "type": "uint256[]"
        },
        {
          "internalType": "uint256[]",
          "name": "",
          "type": "uint256[]"
        },
        {
          "internalType": "bytes",
          "name": "",
          "type": "bytes"
        }
      ],
      "name": "onERC1155BatchReceived",
      "outputs": [
        {
          "internalType": "bytes4",
          "name": "",
          "type": "bytes4"
        }
      ],
      "stateMutability": "nonpayable",
      "type": "function"
    },
    {
      "inputs": [
        {
          "internalType": "address",
          "name": "",
          "type": "address"
        },
        {
          "internalType": "address",
          "name": "",
          "type": "address"
        },
        {
          "internalType": "uint256",
          "name": "",
          "type": "uint256"
        },
        {
          "internalType": "uint256",
          "name": "",
          "type": "uint256"
        },
        {
          "internalType": "bytes",
          "name": "",
          "type": "bytes"
        }
      ],
      "name": "onERC1155Received",
      "outputs": [
        {
          "internalType": "bytes4",
          "name": "",
          "type": "bytes4"
        }
      ],
      "stateMutability": "nonpayable",
      "type": "function"
    },
    {
      "inputs": [
        {
          "internalType": "bytes4",
          "name": "interfaceId",
          "type": "bytes4"
        }
      ],
      "name": "supportsInterface",
      "outputs": [
        {
          "internalType": "bool",
          "name": "",
          "type": "bool"
        }
      ],
      "stateMutability": "view",
      "type": "function"
    },
    {
      "inputs": [],
      "name": "symbol",
      "outputs": [
        {
          "internalType": "string",
          "name": "",
          "type": "string"
        }
      ],
      "stateMutability": "view",
      "type": "function"
    },
    {
      "inputs": [],
      "name": "totalSupply",
      "outputs": [
        {
          "internalType": "uint256",
          "name": "",
          "type": "uint256"
        }
      ],
      "stateMutability": "view",
      "type": "function"
    },
    {
      "inputs": [
        {
          "internalType": "address",
          "name": "recipient",
          "type": "address"
        },
        {
          "internalType": "uint256",
          "name": "amount",
          "type": "uint256"
        }
      ],
      "name": "transfer",
      "outputs": [
        {
          "internalType": "bool",
          "name": "",
          "type": "bool"
        }
      ],
      "stateMutability": "nonpayable",
      "type": "function"
    },
    {
      "inputs": [
        {
          "internalType": "address",
          "name": "sender",
          "type": "address"
        },
        {
          "internalType": "address",
          "name": "recipient",
          "type": "address"
        },
        {
          "internalType": "uint256",
          "name": "amount",
          "type": "uint256"
        }
      ],
      "name": "transferFrom",
      "outputs": [
        {
          "internalType": "bool",
          "name": "",
          "type": "bool"
        }
      ],
      "stateMutability": "nonpayable",
      "type": "function"
    },
    {
      "inputs": [
        {
          "internalType": "uint256",
          "name": "quantity",
          "type": "uint256"
        }
      ],
      "name": "unwrap",
      "outputs": [],
      "stateMutability": "nonpayable",
      "type": "function"
    },
    {
      "inputs": [
        {
          "internalType": "uint256",
          "name": "quantity",
          "type": "uint256"
        }
      ],
      "name": "wrap",
      "outputs": [],
      "stateMutability": "nonpayable",
      "type": "function"
    }
  ],
  "transactionHash": "0x350a4d12d7b6c453e02514ce9c83313c8ea55a919a567ed65a3f05e3aecc2ae2",
  "args": [
    "Wrapped Pepe",
    "wPEPE",
    "0x32CFb39833ffA22297f22Ff47EaEC4e1A2d1F389",
    "0x0e6264d276Fe7B768a44460321228A9bF578e2C9",
    4
  ],
  "solcInputHash": "df7fa6ede225d4ffc5f822e50380fb11",
  "bytecode": "0x60806040523480156200001157600080fd5b5060405162001da638038062001da6833981810160405260a08110156200003757600080fd5b81019080805160405193929190846401000000008211156200005857600080fd5b9083019060208201858111156200006e57600080fd5b82516401000000008111828201881017156200008957600080fd5b82525081516020918201929091019080838360005b83811015620000b85781810151838201526020016200009e565b50505050905090810190601f168015620000e65780820380516001836020036101000a031916815260200191505b50604052602001805160405193929190846401000000008211156200010a57600080fd5b9083019060208201858111156200012057600080fd5b82516401000000008111828201881017156200013b57600080fd5b82525081516020918201929091019080838360005b838110156200016a57818101518382015260200162000150565b50505050905090810190601f168015620001985780820380516001836020036101000a031916815260200191505b50604090815260208281015191830151606090930151875192955092935086918691620001cb91600391850190620002f6565b508051620001e1906004906020840190620002f6565b50506005805460ff1916601217905550620002036301ffc9a760e01b6200025b565b62000215630271189760e51b6200025b565b600780546001600160a01b038085166001600160a01b03199283161790925560088054928616929091169190911790556200025081620002e0565b505050505062000392565b6001600160e01b03198082161415620002bb576040805162461bcd60e51b815260206004820152601c60248201527f4552433136353a20696e76616c696420696e7465726661636520696400000000604482015290519081900360640190fd5b6001600160e01b0319166000908152600660205260409020805460ff19166001179055565b6005805460ff191660ff92909216919091179055565b828054600181600116156101000203166002900490600052602060002090601f016020900481019282601f106200033957805160ff191683800117855562000369565b8280016001018555821562000369579182015b82811115620003695782518255916020019190600101906200034c565b50620003779291506200037b565b5090565b5b808211156200037757600081556001016200037c565b611a0480620003a26000396000f3fe608060405234801561001057600080fd5b50600436106101005760003560e01c806395d89b4111610097578063dd62ed3e11610066578063dd62ed3e14610578578063de0e9a3e146105b3578063ea598cb0146105d2578063f23a6e61146105ef57610100565b806395d89b41146102f5578063a457c2d7146102fd578063a9059cbb14610336578063bc197c811461036f57610100565b806323b872dd116100d357806323b872dd14610228578063313ce5671461026b578063395093511461028957806370a08231146102c257610100565b806301ffc9a71461010557806306fdde0314610158578063095ea7b3146101d557806318160ddd1461020e575b600080fd5b6101446004803603602081101561011b57600080fd5b50357fffffffff00000000000000000000000000000000000000000000000000000000166106c7565b604080519115158252519081900360200190f35b6101606106fe565b6040805160208082528351818301528351919283929083019185019080838360005b8381101561019a578181015183820152602001610182565b50505050905090810190601f1680156101c75780820380516001836020036101000a031916815260200191505b509250505060405180910390f35b610144600480360360408110156101eb57600080fd5b5073ffffffffffffffffffffffffffffffffffffffff81351690602001356107b2565b6102166107d0565b60408051918252519081900360200190f35b6101446004803603606081101561023e57600080fd5b5073ffffffffffffffffffffffffffffffffffffffff8135811691602081013590911690604001356107d6565b610273610877565b6040805160ff9092168252519081900360200190f35b6101446004803603604081101561029f57600080fd5b5073ffffffffffffffffffffffffffffffffffffffff8135169060200135610880565b610216600480360360208110156102d857600080fd5b503573ffffffffffffffffffffffffffffffffffffffff166108db565b610160610903565b6101446004803603604081101561031357600080fd5b5073ffffffffffffffffffffffffffffffffffffffff8135169060200135610982565b6101446004803603604081101561034c57600080fd5b5073ffffffffffffffffffffffffffffffffffffffff81351690602001356109f7565b610543600480360360a081101561038557600080fd5b73ffffffffffffffffffffffffffffffffffffffff82358116926020810135909116918101906060810160408201356401000000008111156103c657600080fd5b8201836020820111156103d857600080fd5b803590602001918460208302840111640100000000831117156103fa57600080fd5b919080806020026020016040519081016040528093929190818152602001838360200280828437600092019190915250929594936020810193503591505064010000000081111561044a57600080fd5b82018360208201111561045c57600080fd5b8035906020019184602083028401116401000000008311171561047e57600080fd5b91908080602002602001604051908101604052809392919081815260200183836020028082843760009201919091525092959493602081019350359150506401000000008111156104ce57600080fd5b8201836020820111156104e057600080fd5b8035906020019184600183028401116401000000008311171561050257600080fd5b91908080601f016020809104026020016040519081016040528093929190818152602001838380828437600092019190915250929550610a0b945050505050565b604080517fffffffff000000000000000000000000000000000000000000000000000000009092168252519081900360200190f35b6102166004803603604081101561058e57600080fd5b5073ffffffffffffffffffffffffffffffffffffffff81358116916020013516610a35565b6105d0600480360360208110156105c957600080fd5b5035610a6d565b005b6105d0600480360360208110156105e857600080fd5b5035610b98565b610543600480360360a081101561060557600080fd5b73ffffffffffffffffffffffffffffffffffffffff823581169260208101359091169160408201359160608101359181019060a08101608082013564010000000081111561065257600080fd5b82018360208201111561066457600080fd5b8035906020019184600183028401116401000000008311171561068657600080fd5b91908080601f016020809104026020016040519081016040528093929190818152602001838380828437600092019190915250929550610c42945050505050565b7fffffffff000000000000000000000000000000000000000000000000000000001660009081526006602052604090205460ff1690565b60038054604080516020601f60027fffffffffffffffffffffffffffffffffffffffffffffffffffffffffffffffff6101006001881615020190951694909404938401819004810282018101909252828152606093909290918301828280156107a85780601f1061077d576101008083540402835291602001916107a8565b820191906000526020600020905b81548152906001019060200180831161078b57829003601f168201915b5050505050905090565b60006107c66107bf610c6c565b8484610c70565b5060015b92915050565b60025490565b60006107e3848484610d83565b61086d846107ef610c6c565b610868856040518060600160405280602881526020016119186028913973ffffffffffffffffffffffffffffffffffffffff8a1660009081526001602052604081209061083a610c6c565b73ffffffffffffffffffffffffffffffffffffffff1681526020810191909152604001600020549190610f1f565b610c70565b5060019392505050565b60055460ff1690565b60006107c661088d610c6c565b84610868856001600061089e610c6c565b73ffffffffffffffffffffffffffffffffffffffff908116825260208083019390935260409182016000908120918c168152925290205490610fb6565b73ffffffffffffffffffffffffffffffffffffffff1660009081526020819052604090205490565b60048054604080516020601f60027fffffffffffffffffffffffffffffffffffffffffffffffffffffffffffffffff6101006001881615020190951694909404938401819004810282018101909252828152606093909290918301828280156107a85780601f1061077d576101008083540402835291602001916107a8565b60006107c661098f610c6c565b84610868856040518060600160405280602581526020016119aa60259139600160006109b9610c6c565b73ffffffffffffffffffffffffffffffffffffffff908116825260208083019390935260409182016000908120918d16815292529020549190610f1f565b60006107c6610a04610c6c565b8484610d83565b7fbc197c810000000000000000000000000000000000000000000000000000000095945050505050565b73ffffffffffffffffffffffffffffffffffffffff918216600090815260016020908152604080832093909416825291909152205490565b80610abf576040805162461bcd60e51b815260206004820152600d60248201527f5a45524f5f5155414e5449545900000000000000000000000000000000000000604482015290519081900360640190fd5b80610ae0610acb610877565b60ff16600a0a610ada336108db565b90611017565b1015610b33576040805162461bcd60e51b815260206004820152601560248201527f494e53554646494349454e545f5155414e544954590000000000000000000000604482015290519081900360640190fd5b610b3e303383611070565b610b5f33610b5a610b4d610877565b849060ff16600a0a611017565b611586565b60408051828152905133917f5dd085b6070b4cae004f84daafd199fd55b0bdfa11c3a802baffe89c2419d8c2919081900360200190a250565b80610bea576040805162461bcd60e51b815260206004820152600d60248201527f5a45524f5f5155414e5449545900000000000000000000000000000000000000604482015290519081900360640190fd5b610bf5333083611070565b610c0933610c04610b4d610877565b6116b6565b60408051828152905133917fb61d00fdfee32467c7d81db64c811ae60c104c346debf36a14afe84b8fce59e5919081900360200190a250565b7ff23a6e610000000000000000000000000000000000000000000000000000000095945050505050565b3390565b73ffffffffffffffffffffffffffffffffffffffff8316610cc25760405162461bcd60e51b81526004018080602001828103825260248152602001806119866024913960400191505060405180910390fd5b73ffffffffffffffffffffffffffffffffffffffff8216610d145760405162461bcd60e51b81526004018080602001828103825260228152602001806118af6022913960400191505060405180910390fd5b73ffffffffffffffffffffffffffffffffffffffff808416600081815260016020908152604080832094871680845294825291829020859055815185815291517f8c5be1e5ebec7d5bd14f71427d1e84f3dd0314c0f7b2291e5b200ac8c7c3b9259281900390910190a3505050565b73ffffffffffffffffffffffffffffffffffffffff8316610dd55760405162461bcd60e51b81526004018080602001828103825260258152602001806119616025913960400191505060405180910390fd5b73ffffffffffffffffffffffffffffffffffffffff8216610e275760405162461bcd60e51b815260040180806020018281038252602381526020018061186a6023913960400191505060405180910390fd5b610e328383836117cd565b610e7c816040518060600160405280602681526020016118d16026913973ffffffffffffffffffffffffffffffffffffffff86166000908152602081905260409020549190610f1f565b73ffffffffffffffffffffffffffffffffffffffff8085166000908152602081905260408082209390935590841681522054610eb89082610fb6565b73ffffffffffffffffffffffffffffffffffffffff8084166000818152602081815260409182902094909455805185815290519193928716927fddf252ad1be2c89b69c2b068fc378daa952ba7f163c4a11628f55a4df523b3ef92918290030190a3505050565b60008184841115610fae5760405162461bcd60e51b81526004018080602001828103825283818151815260200191508051906020019080838360005b83811015610f73578181015183820152602001610f5b565b50505050905090810190601f168015610fa05780820380516001836020036101000a031916815260200191505b509250505060405180910390fd5b505050900390565b600082820183811015611010576040805162461bcd60e51b815260206004820152601b60248201527f536166654d6174683a206164646974696f6e206f766572666c6f770000000000604482015290519081900360640190fd5b9392505050565b600082611026575060006107ca565b8282028284828161103357fe5b04146110105760405162461bcd60e51b81526004018080602001828103825260218152602001806118f76021913960400191505060405180910390fd5b8061107d600a600061182f565b611089600b600061182f565b60005b600754604080517fa0f8c69400000000000000000000000000000000000000000000000000000000815273ffffffffffffffffffffffffffffffffffffffff88811660048301529151919092169163a0f8c694916024808301926020929190829003018186803b1580156110ff57600080fd5b505afa158015611113573d6000803e3d6000fd5b505050506040513d602081101561112957600080fd5b5051811080156111395750600082115b156113c957600754604080517fb59a912800000000000000000000000000000000000000000000000000000000815233600482015260248101849052905160009273ffffffffffffffffffffffffffffffffffffffff169163b59a9128916044808301926020929190829003018186803b1580156111b657600080fd5b505afa1580156111ca573d6000803e3d6000fd5b505050506040513d60208110156111e057600080fd5b5051600854604080517fe6c3b1f600000000000000000000000000000000000000000000000000000000815260048101849052905192935073ffffffffffffffffffffffffffffffffffffffff9091169163e6c3b1f691602480820192602092909190829003018186803b15801561125757600080fd5b505afa15801561126b573d6000803e3d6000fd5b505050506040513d602081101561128157600080fd5b505160ff16600214156113b657600754604080517efdd58e00000000000000000000000000000000000000000000000000000000815233600482015260248101849052905160009273ffffffffffffffffffffffffffffffffffffffff169162fdd58e916044808301926020929190829003018186803b15801561130457600080fd5b505afa158015611318573d6000803e3d6000fd5b505050506040513d602081101561132e57600080fd5b5051905060008482116113415781611343565b845b600a805460018181019092557fc65a7bb8d6351c1cf70c95a316cc6a92839c986682d98bc35f958f4883f9d2a801859055600b805491820181556000527f0175b7a638427703f0dbe7bb9bbf987a2551717b34e79f33b5b1008d1fa01db90181905590506113b185826117d2565b945050505b506113c2816001610fb6565b905061108c565b50801561141d576040805162461bcd60e51b815260206004820152601160248201527f494e53554646494349454e545f47454d53000000000000000000000000000000604482015290519081900360640190fd5b600760009054906101000a900473ffffffffffffffffffffffffffffffffffffffff1673ffffffffffffffffffffffffffffffffffffffff16632eb2c2d68585600a600b6040518563ffffffff1660e01b8152600401808573ffffffffffffffffffffffffffffffffffffffff1681526020018473ffffffffffffffffffffffffffffffffffffffff16815260200180602001806020018060200184810384528681815481526020019150805480156114f557602002820191906000526020600020905b8154815260200190600101908083116114e1575b5050848103835285818154815260200191508054801561153457602002820191906000526020600020905b815481526020019060010190808311611520575b5050848103825260008152602001602001975050505050505050600060405180830381600087803b15801561156857600080fd5b505af115801561157c573d6000803e3d6000fd5b5050505050505050565b73ffffffffffffffffffffffffffffffffffffffff82166115d85760405162461bcd60e51b81526004018080602001828103825260218152602001806119406021913960400191505060405180910390fd5b6115e4826000836117cd565b61162e8160405180606001604052806022815260200161188d6022913973ffffffffffffffffffffffffffffffffffffffff85166000908152602081905260409020549190610f1f565b73ffffffffffffffffffffffffffffffffffffffff831660009081526020819052604090205560025461166190826117d2565b60025560408051828152905160009173ffffffffffffffffffffffffffffffffffffffff8516917fddf252ad1be2c89b69c2b068fc378daa952ba7f163c4a11628f55a4df523b3ef9181900360200190a35050565b73ffffffffffffffffffffffffffffffffffffffff821661171e576040805162461bcd60e51b815260206004820152601f60248201527f45524332303a206d696e7420746f20746865207a65726f206164647265737300604482015290519081900360640190fd5b61172a600083836117cd565b6002546117379082610fb6565b60025573ffffffffffffffffffffffffffffffffffffffff821660009081526020819052604090205461176a9082610fb6565b73ffffffffffffffffffffffffffffffffffffffff83166000818152602081815260408083209490945583518581529351929391927fddf252ad1be2c89b69c2b068fc378daa952ba7f163c4a11628f55a4df523b3ef9281900390910190a35050565b505050565b600082821115611829576040805162461bcd60e51b815260206004820152601e60248201527f536166654d6174683a207375627472616374696f6e206f766572666c6f770000604482015290519081900360640190fd5b50900390565b508054600082559060005260206000209081019061184d9190611850565b50565b5b808211156118655760008155600101611851565b509056fe45524332303a207472616e7366657220746f20746865207a65726f206164647265737345524332303a206275726e20616d6f756e7420657863656564732062616c616e636545524332303a20617070726f766520746f20746865207a65726f206164647265737345524332303a207472616e7366657220616d6f756e7420657863656564732062616c616e6365536166654d6174683a206d756c7469706c69636174696f6e206f766572666c6f7745524332303a207472616e7366657220616d6f756e74206578636565647320616c6c6f77616e636545524332303a206275726e2066726f6d20746865207a65726f206164647265737345524332303a207472616e736665722066726f6d20746865207a65726f206164647265737345524332303a20617070726f76652066726f6d20746865207a65726f206164647265737345524332303a2064656372656173656420616c6c6f77616e63652062656c6f77207a65726fa2646970667358221220500bf52882e8c7caf0df45afa87fbcf4248fba6c29a79686bb48013eb319076364736f6c63430007030033",
  "devdoc": {
    "kind": "dev",
    "methods": {
      "allowance(address,address)": {
        "details": "See {IERC20-allowance}."
      },
      "approve(address,uint256)": {
        "details": "See {IERC20-approve}. Requirements: - `spender` cannot be the zero address."
      },
      "balanceOf(address)": {
        "details": "See {IERC20-balanceOf}."
      },
      "decimals()": {
        "details": "Returns the number of decimals used to get its user representation. For example, if `decimals` equals `2`, a balance of `505` tokens should be displayed to a user as `5,05` (`505 / 10 ** 2`). Tokens usually opt for a value of 18, imitating the relationship between Ether and Wei. This is the value {ERC20} uses, unless {_setupDecimals} is called. NOTE: This information is only used for _display_ purposes: it in no way affects any of the arithmetic of the contract, including {IERC20-balanceOf} and {IERC20-transfer}."
      },
      "decreaseAllowance(address,uint256)": {
        "details": "Atomically decreases the allowance granted to `spender` by the caller. This is an alternative to {approve} that can be used as a mitigation for problems described in {IERC20-approve}. Emits an {Approval} event indicating the updated allowance. Requirements: - `spender` cannot be the zero address. - `spender` must have allowance for the caller of at least `subtractedValue`."
      },
      "increaseAllowance(address,uint256)": {
        "details": "Atomically increases the allowance granted to `spender` by the caller. This is an alternative to {approve} that can be used as a mitigation for problems described in {IERC20-approve}. Emits an {Approval} event indicating the updated allowance. Requirements: - `spender` cannot be the zero address."
      },
      "name()": {
        "details": "Returns the name of the token."
      },
      "supportsInterface(bytes4)": {
        "details": "See {IERC165-supportsInterface}. Time complexity O(1), guaranteed to always use less than 30 000 gas."
      },
      "symbol()": {
        "details": "Returns the symbol of the token, usually a shorter version of the name."
      },
      "totalSupply()": {
        "details": "See {IERC20-totalSupply}."
      },
      "transfer(address,uint256)": {
        "details": "See {IERC20-transfer}. Requirements: - `recipient` cannot be the zero address. - the caller must have a balance of at least `amount`."
      },
      "transferFrom(address,address,uint256)": {
        "details": "See {IERC20-transferFrom}. Emits an {Approval} event indicating the updated allowance. This is not required by the EIP. See the note at the beginning of {ERC20}. Requirements: - `sender` and `recipient` cannot be the zero address. - `sender` must have a balance of at least `amount`. - the caller must have allowance for ``sender``'s tokens of at least `amount`."
      }
    },
    "version": 1
  },
  "userdoc": {
    "kind": "user",
    "methods": {},
    "version": 1
  },
  "storageLayout": {
    "storage": [
      {
        "astId": 21808,
        "contract": "src/tokens/ERC20WrappedGem.sol:ERC20WrappedGem",
        "label": "_balances",
        "offset": 0,
        "slot": "0",
        "type": "t_mapping(t_address,t_uint256)"
      },
      {
        "astId": 21814,
        "contract": "src/tokens/ERC20WrappedGem.sol:ERC20WrappedGem",
        "label": "_allowances",
        "offset": 0,
        "slot": "1",
        "type": "t_mapping(t_address,t_mapping(t_address,t_uint256))"
      },
      {
        "astId": 21816,
        "contract": "src/tokens/ERC20WrappedGem.sol:ERC20WrappedGem",
        "label": "_totalSupply",
        "offset": 0,
        "slot": "2",
        "type": "t_uint256"
      },
      {
        "astId": 21818,
        "contract": "src/tokens/ERC20WrappedGem.sol:ERC20WrappedGem",
        "label": "_name",
        "offset": 0,
        "slot": "3",
        "type": "t_string_storage"
      },
      {
        "astId": 21820,
        "contract": "src/tokens/ERC20WrappedGem.sol:ERC20WrappedGem",
        "label": "_symbol",
        "offset": 0,
        "slot": "4",
        "type": "t_string_storage"
      },
      {
        "astId": 21822,
        "contract": "src/tokens/ERC20WrappedGem.sol:ERC20WrappedGem",
        "label": "_decimals",
        "offset": 0,
        "slot": "5",
        "type": "t_uint8"
      },
      {
        "astId": 15165,
        "contract": "src/tokens/ERC20WrappedGem.sol:ERC20WrappedGem",
        "label": "_supportedInterfaces",
        "offset": 0,
        "slot": "6",
        "type": "t_mapping(t_bytes4,t_bool)"
      },
      {
        "astId": 22473,
        "contract": "src/tokens/ERC20WrappedGem.sol:ERC20WrappedGem",
        "label": "token",
        "offset": 0,
        "slot": "7",
        "type": "t_address"
      },
      {
        "astId": 22475,
        "contract": "src/tokens/ERC20WrappedGem.sol:ERC20WrappedGem",
        "label": "pool",
        "offset": 0,
        "slot": "8",
        "type": "t_address"
      },
      {
        "astId": 22477,
        "contract": "src/tokens/ERC20WrappedGem.sol:ERC20WrappedGem",
        "label": "rate",
        "offset": 0,
        "slot": "9",
        "type": "t_uint256"
      },
      {
        "astId": 22480,
        "contract": "src/tokens/ERC20WrappedGem.sol:ERC20WrappedGem",
        "label": "ids",
        "offset": 0,
        "slot": "10",
        "type": "t_array(t_uint256)dyn_storage"
      },
      {
        "astId": 22483,
        "contract": "src/tokens/ERC20WrappedGem.sol:ERC20WrappedGem",
        "label": "amounts",
        "offset": 0,
        "slot": "11",
        "type": "t_array(t_uint256)dyn_storage"
      }
    ],
    "types": {
      "t_address": {
        "encoding": "inplace",
        "label": "address",
        "numberOfBytes": "20"
      },
      "t_array(t_uint256)dyn_storage": {
        "base": "t_uint256",
        "encoding": "dynamic_array",
        "label": "uint256[]",
        "numberOfBytes": "32"
      },
      "t_bool": {
        "encoding": "inplace",
        "label": "bool",
        "numberOfBytes": "1"
      },
      "t_bytes4": {
        "encoding": "inplace",
        "label": "bytes4",
        "numberOfBytes": "4"
      },
      "t_mapping(t_address,t_mapping(t_address,t_uint256))": {
        "encoding": "mapping",
        "key": "t_address",
        "label": "mapping(address => mapping(address => uint256))",
        "numberOfBytes": "32",
        "value": "t_mapping(t_address,t_uint256)"
      },
      "t_mapping(t_address,t_uint256)": {
        "encoding": "mapping",
        "key": "t_address",
        "label": "mapping(address => uint256)",
        "numberOfBytes": "32",
        "value": "t_uint256"
      },
      "t_mapping(t_bytes4,t_bool)": {
        "encoding": "mapping",
        "key": "t_bytes4",
        "label": "mapping(bytes4 => bool)",
        "numberOfBytes": "32",
        "value": "t_bool"
      },
      "t_string_storage": {
        "encoding": "bytes",
        "label": "string",
        "numberOfBytes": "32"
      },
      "t_uint256": {
        "encoding": "inplace",
        "label": "uint256",
        "numberOfBytes": "32"
      },
      "t_uint8": {
        "encoding": "inplace",
        "label": "uint8",
        "numberOfBytes": "1"
      }
    }
  }
}