{
  "address": "0xbc07326B32C0D86A73Fa18eAe5f8d508E4ED8E00",
  "abi": [
    {
      "anonymous": false,
      "inputs": [
        {
          "indexed": false,
          "internalType": "address",
          "name": "tokenAddress",
          "type": "address"
        },
        {
          "indexed": false,
          "internalType": "address",
          "name": "poolAddress",
          "type": "address"
        },
        {
          "indexed": false,
          "internalType": "string",
          "name": "tokenSymbol",
          "type": "string"
        },
        {
          "indexed": false,
          "internalType": "string",
          "name": "poolSymbol",
          "type": "string"
        }
      ],
      "name": "ERC20GemTokenCreated",
      "type": "event"
    },
    {
      "inputs": [
        {
          "internalType": "uint256",
          "name": "idx",
          "type": "uint256"
        }
      ],
      "name": "allItems",
      "outputs": [
        {
          "internalType": "address",
          "name": "gemPool",
          "type": "address"
        }
      ],
      "stateMutability": "view",
      "type": "function"
    },
    {
      "inputs": [],
      "name": "allItemsLength",
      "outputs": [
        {
          "internalType": "uint256",
          "name": "",
          "type": "uint256"
        }
      ],
      "stateMutability": "view",
      "type": "function"
    },
    {
      "inputs": [
        {
          "internalType": "string",
          "name": "tokenSymbol",
          "type": "string"
        },
        {
          "internalType": "string",
          "name": "tokenName",
          "type": "string"
        },
        {
          "internalType": "address",
          "name": "poolAddress",
          "type": "address"
        },
        {
          "internalType": "address",
          "name": "tokenAddress",
          "type": "address"
        },
        {
          "internalType": "uint8",
          "name": "decimals",
          "type": "uint8"
        },
        {
          "internalType": "address",
          "name": "feeManager",
          "type": "address"
        }
      ],
      "name": "createItem",
      "outputs": [
        {
          "internalType": "address payable",
          "name": "gemToken",
          "type": "address"
        }
      ],
      "stateMutability": "nonpayable",
      "type": "function"
    },
    {
      "inputs": [
        {
          "internalType": "uint256",
          "name": "_symbolHash",
          "type": "uint256"
        }
      ],
      "name": "getItem",
      "outputs": [
        {
          "internalType": "address",
          "name": "gemPool",
          "type": "address"
        }
      ],
      "stateMutability": "view",
      "type": "function"
    },
    {
      "inputs": [],
      "name": "items",
      "outputs": [
        {
          "internalType": "address[]",
          "name": "",
          "type": "address[]"
        }
      ],
      "stateMutability": "view",
      "type": "function"
    }
  ],
  "transactionHash": "0x123ab1846b519e0f7596b8f6cb942d08cc85d79260ce2f7f6eab406744d1e37f",
  "args": [],
  "solcInputHash": "8ba6fa334a632d496dbf0810657475cd",
  "bytecode": "0x608060405234801561001057600080fd5b50612645806100206000396000f3fe608060405234801561001057600080fd5b50600436106100675760003560e01c8063c06fad0611610050578063c06fad06146100a8578063c1c43c48146100bd578063ff68fa6e146100d257610067565b80633129e7731461006c57806334f486e414610095575b600080fd5b61007f61007a36600461066a565b6100e5565b60405161008c91906106ca565b60405180910390f35b61007f6100a33660046105c1565b610100565b6100b061039b565b60405161008c9190610727565b6100c56103fd565b60405161008c91906108e1565b61007f6100e036600461066a565b610403565b6000908152600160205260409020546001600160a01b031690565b6000808760405160200161011491906106ae565b60408051601f198184030181529181528151602092830120600081815260019093529120549091506001600160a01b03161561016b5760405162461bcd60e51b81526004016101629061083c565b60405180910390fd5b6001600160a01b0386166101915760405162461bcd60e51b8152600401610162906108aa565b6000604051806020016101a3906104d4565b601f1982820381018352601f9091011660405290506101c46000838361045a565b6040517f32816be10000000000000000000000000000000000000000000000000000000081529093506001600160a01b038416906332816be190610216908b908d908c908c908c908c90600401610774565b600060405180830381600087803b15801561023057600080fd5b505af1158015610244573d6000803e3d6000fd5b505050600083815260016020819052604080832080546001600160a01b0389167fffffffffffffffffffffffff0000000000000000000000000000000000000000918216811790925560028054948501815585527f405787fa12a823e0f2b7631cc41b3ba8828b3321ca811111fa75cd3aa3bb5ace9093018054909316811790925580517f95d89b4100000000000000000000000000000000000000000000000000000000815290517fc8fef388476ee2aae16130f128a91b30e447edbc59098146eee5ae4169761dbd945087938c938f9390926395d89b4192600480840193919291829003018186803b15801561033b57600080fd5b505afa15801561034f573d6000803e3d6000fd5b505050506040513d6000823e601f3d908101601f19168201604052610377919081019061054e565b60405161038794939291906106de565b60405180910390a150509695505050505050565b606060028054806020026020016040519081016040528092919081815260200182805480156103f357602002820191906000526020600020905b81546001600160a01b031681526001909101906020018083116103d5575b5050505050905090565b60025490565b60006002828154811061043f577f4e487b7100000000000000000000000000000000000000000000000000000000600052603260045260246000fd5b6000918252602090912001546001600160a01b031692915050565b6000808447101561047d5760405162461bcd60e51b815260040161016290610873565b825161049b5760405162461bcd60e51b8152600401610162906107d0565b8383516020850187f590506001600160a01b0381166104cc5760405162461bcd60e51b815260040161016290610805565b949350505050565b611c748061099c83390190565b80356001600160a01b03811681146104f857600080fd5b919050565b600082601f83011261050d578081fd5b813561052061051b82610914565b6108ea565b818152846020838601011115610534578283fd5b816020850160208301379081016020019190915292915050565b60006020828403121561055f578081fd5b815167ffffffffffffffff811115610575578182fd5b8201601f81018413610585578182fd5b805161059361051b82610914565b8181528560208385010111156105a7578384fd5b6105b882602083016020860161093c565b95945050505050565b60008060008060008060c087890312156105d9578182fd5b863567ffffffffffffffff808211156105f0578384fd5b6105fc8a838b016104fd565b97506020890135915080821115610611578384fd5b5061061e89828a016104fd565b95505061062d604088016104e1565b935061063b606088016104e1565b9250608087013560ff81168114610650578283fd5b915061065e60a088016104e1565b90509295509295509295565b60006020828403121561067b578081fd5b5035919050565b6000815180845261069a81602086016020860161093c565b601f01601f19169290920160200192915050565b600082516106c081846020870161093c565b9190910192915050565b6001600160a01b0391909116815260200190565b60006001600160a01b0380871683528086166020840152506080604083015261070a6080830185610682565b828103606084015261071c8185610682565b979650505050505050565b6020808252825182820181905260009190848201906040850190845b818110156107685783516001600160a01b031683529284019291840191600101610743565b50909695505050505050565b600060c0825261078760c0830189610682565b82810360208401526107998189610682565b6001600160a01b0397881660408501529587166060840152505060ff92909216608083015290921660a09092019190915292915050565b6020808252818101527f437265617465323a2062797465636f6465206c656e677468206973207a65726f604082015260600190565b60208082526019908201527f437265617465323a204661696c6564206f6e206465706c6f7900000000000000604082015260600190565b6020808252600f908201527f47454d544f4b454e5f4558495354530000000000000000000000000000000000604082015260600190565b6020808252601d908201527f437265617465323a20696e73756666696369656e742062616c616e6365000000604082015260600190565b6020808252600c908201527f494e56414c49445f504f4f4c0000000000000000000000000000000000000000604082015260600190565b90815260200190565b60405181810167ffffffffffffffff8111828210171561090c5761090c61096c565b604052919050565b600067ffffffffffffffff82111561092e5761092e61096c565b50601f01601f191660200190565b60005b8381101561095757818101518382015260200161093f565b83811115610966576000848401525b50505050565b7f4e487b7100000000000000000000000000000000000000000000000000000000600052604160045260246000fdfe608060405234801561001057600080fd5b50611c54806100206000396000f3fe608060405234801561001057600080fd5b506004361061016c5760003560e01c806339509351116100cd578063bc197c8111610081578063de0e9a3e11610066578063de0e9a3e146102c0578063ea598cb0146102d3578063f23a6e61146102e65761016c565b8063bc197c811461028d578063dd62ed3e146102ad5761016c565b806395d89b41116100b257806395d89b411461025f578063a457c2d714610267578063a9059cbb1461027a5761016c565b8063395093511461023957806370a082311461024c5761016c565b806310fe9ae81161012457806323b872dd1161010957806323b872dd146101fc578063313ce5671461020f57806332816be1146102245761016c565b806310fe9ae8146101df57806318160ddd146101f45761016c565b806306fdde031161015557806306fdde03146101af5780630902f1ac146101c4578063095ea7b3146101cc5761016c565b8063010a38f51461017157806301ffc9a71461018f575b600080fd5b6101796102f9565b60405161018691906119f1565b60405180910390f35b6101a261019d36600461137d565b6102ff565b60405161018691906114fa565b6101b761035d565b6040516101869190611532565b6101796103ef565b6101a26101da366004611354565b6103f5565b6101e7610412565b6040516101869190611496565b610179610421565b6101a261020a3660046112b6565b610427565b6102176104c2565b60405161018691906119fa565b6102376102323660046113bd565b6104cb565b005b6101a2610247366004611354565b61065e565b61017961025a3660046111c4565b6106b2565b6101b76106cd565b6101a2610275366004611354565b6106dc565b6101a2610288366004611354565b610755565b6102a061029b366004611210565b610769565b6040516101869190611505565b6101796102bb3660046111de565b610793565b6102376102ce366004611466565b6107be565b6102376102e1366004611466565b61091b565b6102a06102f43660046112f1565b610c13565b60095490565b60007fffffffff0000000000000000000000000000000000000000000000000000000082167f4e2312e0000000000000000000000000000000000000000000000000000000001480610355575061035582610c3d565b90505b919050565b60606003805461036c90611bb7565b80601f016020809104026020016040519081016040528092919081815260200182805461039890611bb7565b80156103e55780601f106103ba576101008083540402835291602001916103e5565b820191906000526020600020905b8154815290600101906020018083116103c857829003601f168201915b5050505050905090565b600c5490565b6000610409610402610c87565b8484610c8b565b50600192915050565b6006546001600160a01b031690565b60025490565b6000610434848484610d3f565b6001600160a01b038416600090815260016020526040812081610455610c87565b6001600160a01b03166001600160a01b03168152602001908152602001600020549050828110156104a15760405162461bcd60e51b8152600401610498906117c4565b60405180910390fd5b6104b5856104ad610c87565b858403610c8b565b60019150505b9392505050565b60055460ff1690565b60055462010000900460ff16806104ea5750600554610100900460ff16155b6105065760405162461bcd60e51b815260040161049890611767565b60055462010000900460ff1615801561055357600580547fffffffffffffffffffffffffffffffffffffffffffffffffffffffffffff00ff62ff0000199091166201000017166101001790555b86516105669060039060208a0190611027565b50855161057a906004906020890190611027565b50600580546001600160a01b038481166301000000027fffffffffffffffffff0000000000000000000000000000000000000000ffffff60ff88167fffffffffffffffffffffffffffffffffffffffffffffffffffffffffffffff00948516171617909255600680548784167fffffffffffffffffffffffff0000000000000000000000000000000000000000918216179091556007805482163017905560088054938916939091169290921790915560006009556001600b55600a8054600292169190911790558015610655576005805462ff0000191690555b50505050505050565b600061040961066b610c87565b848460016000610679610c87565b6001600160a01b03908116825260208083019390935260409182016000908120918b16815292529020546106ad9190611a32565b610c8b565b6001600160a01b031660009081526020819052604090205490565b60606004805461036c90611bb7565b600080600160006106eb610c87565b6001600160a01b03908116825260208083019390935260409182016000908120918816815292529020549050828110156107375760405162461bcd60e51b815260040161049890611938565b61074b610742610c87565b85858403610c8b565b5060019392505050565b6000610409610762610c87565b8484610d3f565b7fbc197c810000000000000000000000000000000000000000000000000000000095945050505050565b6001600160a01b03918216600090815260016020908152604080832093909416825291909152205490565b806107db5760405162461bcd60e51b815260040161049890611730565b806107e46104c2565b6107ef90600a611ab0565b6107f8336106b2565b6108029190611b81565b10156108205760405162461bcd60e51b815260040161049890611585565b6040517fb801a46300000000000000000000000000000000000000000000000000000000815273a64C55472a6846DBeE76fD9e9A7700B3af73b7029063b801a46390610877906006903090339087906004016119cc565b60006040518083038186803b15801561088f57600080fd5b505af41580156108a3573d6000803e3d6000fd5b505050506108cd336108b36104c2565b6108be90600a611ab0565b6108c89084611b81565b610e69565b600c546108db908290611ba0565b600c5560405133907f5dd085b6070b4cae004f84daafd199fd55b0bdfa11c3a802baffe89c2419d8c2906109109084906119f1565b60405180910390a250565b806109385760405162461bcd60e51b815260040161049890611730565b600654600854600a546040517f6680f78e000000000000000000000000000000000000000000000000000000008152849373a64C55472a6846DBeE76fD9e9A7700B3af73b70293636680f78e936109a9936001600160a01b03938416939092169160ff9091169033906004016114aa565b60206040518083038186803b1580156109c157600080fd5b505af41580156109d5573d6000803e3d6000fd5b505050506040513d601f19601f820116820180604052508101906109f9919061147e565b1015610a175760405162461bcd60e51b815260040161049890611585565b6000610a216104c2565b610a2c90600a611ab0565b600b54610a399190611b81565b610a439083611b81565b6005546040517feee1ad8000000000000000000000000000000000000000000000000000000000815291925060009163010000009091046001600160a01b03169063eee1ad8090610a98903090600401611496565b60206040518083038186803b158015610ab057600080fd5b505afa158015610ac4573d6000803e3d6000fd5b505050506040513d601f19601f82011682018060405250810190610ae8919061147e565b9050600081610af8576000610b02565b610b028284611a4a565b90506000610b108285611ba0565b6040517fb801a46300000000000000000000000000000000000000000000000000000000815290915073a64C55472a6846DBeE76fD9e9A7700B3af73b7029063b801a46390610b6a90600690339030908b906004016119cc565b60006040518083038186803b158015610b8257600080fd5b505af4158015610b96573d6000803e3d6000fd5b50505050610ba43382610f5b565b600554610bc190630100000090046001600160a01b031683610f5b565b600c54610bcf908690611a32565b600c5560405133907fb61d00fdfee32467c7d81db64c811ae60c104c346debf36a14afe84b8fce59e590610c049088906119f1565b60405180910390a25050505050565b7ff23a6e610000000000000000000000000000000000000000000000000000000095945050505050565b7fffffffff0000000000000000000000000000000000000000000000000000000081167f01ffc9a70000000000000000000000000000000000000000000000000000000014919050565b3390565b6001600160a01b038316610cb15760405162461bcd60e51b8152600401610498906118db565b6001600160a01b038216610cd75760405162461bcd60e51b815260040161049890611676565b6001600160a01b0380841660008181526001602090815260408083209487168084529490915290819020849055517f8c5be1e5ebec7d5bd14f71427d1e84f3dd0314c0f7b2291e5b200ac8c7c3b92590610d329085906119f1565b60405180910390a3505050565b6001600160a01b038316610d655760405162461bcd60e51b81526004016104989061187e565b6001600160a01b038216610d8b5760405162461bcd60e51b8152600401610498906115bc565b610d96838383610f56565b6001600160a01b03831660009081526020819052604090205481811015610dcf5760405162461bcd60e51b8152600401610498906116d3565b6001600160a01b03808516600090815260208190526040808220858503905591851681529081208054849290610e06908490611a32565b92505081905550826001600160a01b0316846001600160a01b03167fddf252ad1be2c89b69c2b068fc378daa952ba7f163c4a11628f55a4df523b3ef84604051610e5091906119f1565b60405180910390a3610e63848484610f56565b50505050565b6001600160a01b038216610e8f5760405162461bcd60e51b815260040161049890611821565b610e9b82600083610f56565b6001600160a01b03821660009081526020819052604090205481811015610ed45760405162461bcd60e51b815260040161049890611619565b6001600160a01b0383166000908152602081905260408120838303905560028054849290610f03908490611ba0565b90915550506040516000906001600160a01b038516907fddf252ad1be2c89b69c2b068fc378daa952ba7f163c4a11628f55a4df523b3ef90610f469086906119f1565b60405180910390a3610f56836000845b505050565b6001600160a01b038216610f815760405162461bcd60e51b815260040161049890611995565b610f8d60008383610f56565b8060026000828254610f9f9190611a32565b90915550506001600160a01b03821660009081526020819052604081208054839290610fcc908490611a32565b90915550506040516001600160a01b038316906000907fddf252ad1be2c89b69c2b068fc378daa952ba7f163c4a11628f55a4df523b3ef9061100f9085906119f1565b60405180910390a361102360008383610f56565b5050565b82805461103390611bb7565b90600052602060002090601f016020900481019282611055576000855561109b565b82601f1061106e57805160ff191683800117855561109b565b8280016001018555821561109b579182015b8281111561109b578251825591602001919060010190611080565b506110a79291506110ab565b5090565b5b808211156110a757600081556001016110ac565b80356001600160a01b038116811461035857600080fd5b600082601f8301126110e7578081fd5b8135602067ffffffffffffffff82111561110357611103611c08565b808202611111828201611a08565b83815282810190868401838801850189101561112b578687fd5b8693505b8584101561114d57803583526001939093019291840191840161112f565b50979650505050505050565b600082601f830112611169578081fd5b813567ffffffffffffffff81111561118357611183611c08565b6111966020601f19601f84011601611a08565b8181528460208386010111156111aa578283fd5b816020850160208301379081016020019190915292915050565b6000602082840312156111d5578081fd5b6104bb826110c0565b600080604083850312156111f0578081fd5b6111f9836110c0565b9150611207602084016110c0565b90509250929050565b600080600080600060a08688031215611227578081fd5b611230866110c0565b945061123e602087016110c0565b9350604086013567ffffffffffffffff8082111561125a578283fd5b61126689838a016110d7565b9450606088013591508082111561127b578283fd5b61128789838a016110d7565b9350608088013591508082111561129c578283fd5b506112a988828901611159565b9150509295509295909350565b6000806000606084860312156112ca578283fd5b6112d3846110c0565b92506112e1602085016110c0565b9150604084013590509250925092565b600080600080600060a08688031215611308578081fd5b611311866110c0565b945061131f602087016110c0565b93506040860135925060608601359150608086013567ffffffffffffffff811115611348578182fd5b6112a988828901611159565b60008060408385031215611366578182fd5b61136f836110c0565b946020939093013593505050565b60006020828403121561138e578081fd5b81357fffffffff00000000000000000000000000000000000000000000000000000000811681146104bb578182fd5b60008060008060008060c087890312156113d5578081fd5b863567ffffffffffffffff808211156113ec578283fd5b6113f88a838b01611159565b9750602089013591508082111561140d578283fd5b5061141a89828a01611159565b955050611429604088016110c0565b9350611437606088016110c0565b9250608087013560ff8116811461144c578182fd5b915061145a60a088016110c0565b90509295509295509295565b600060208284031215611477578081fd5b5035919050565b60006020828403121561148f578081fd5b5051919050565b6001600160a01b0391909116815260200190565b6001600160a01b03858116825284811660208301526080820190600385106114e257634e487b7160e01b600052602160045260246000fd5b84604084015280841660608401525095945050505050565b901515815260200190565b7fffffffff0000000000000000000000000000000000000000000000000000000091909116815260200190565b6000602080835283518082850152825b8181101561155e57858101830151858201604001528201611542565b8181111561156f5783604083870101525b50601f01601f1916929092016040019392505050565b60208082526015908201527f494e53554646494349454e545f5155414e544954590000000000000000000000604082015260600190565b60208082526023908201527f45524332303a207472616e7366657220746f20746865207a65726f206164647260408201527f6573730000000000000000000000000000000000000000000000000000000000606082015260800190565b60208082526022908201527f45524332303a206275726e20616d6f756e7420657863656564732062616c616e60408201527f6365000000000000000000000000000000000000000000000000000000000000606082015260800190565b60208082526022908201527f45524332303a20617070726f766520746f20746865207a65726f20616464726560408201527f7373000000000000000000000000000000000000000000000000000000000000606082015260800190565b60208082526026908201527f45524332303a207472616e7366657220616d6f756e742065786365656473206260408201527f616c616e63650000000000000000000000000000000000000000000000000000606082015260800190565b6020808252600d908201527f5a45524f5f5155414e5449545900000000000000000000000000000000000000604082015260600190565b6020808252602e908201527f496e697469616c697a61626c653a20636f6e747261637420697320616c72656160408201527f647920696e697469616c697a6564000000000000000000000000000000000000606082015260800190565b60208082526028908201527f45524332303a207472616e7366657220616d6f756e742065786365656473206160408201527f6c6c6f77616e6365000000000000000000000000000000000000000000000000606082015260800190565b60208082526021908201527f45524332303a206275726e2066726f6d20746865207a65726f2061646472657360408201527f7300000000000000000000000000000000000000000000000000000000000000606082015260800190565b60208082526025908201527f45524332303a207472616e736665722066726f6d20746865207a65726f20616460408201527f6472657373000000000000000000000000000000000000000000000000000000606082015260800190565b60208082526024908201527f45524332303a20617070726f76652066726f6d20746865207a65726f2061646460408201527f7265737300000000000000000000000000000000000000000000000000000000606082015260800190565b60208082526025908201527f45524332303a2064656372656173656420616c6c6f77616e63652062656c6f7760408201527f207a65726f000000000000000000000000000000000000000000000000000000606082015260800190565b6020808252601f908201527f45524332303a206d696e7420746f20746865207a65726f206164647265737300604082015260600190565b9384526001600160a01b03928316602085015291166040830152606082015260800190565b90815260200190565b60ff91909116815260200190565b60405181810167ffffffffffffffff81118282101715611a2a57611a2a611c08565b604052919050565b60008219821115611a4557611a45611bf2565b500190565b600082611a6557634e487b7160e01b81526012600452602481fd5b500490565b80825b6001808611611a7c5750611aa7565b818704821115611a8e57611a8e611bf2565b80861615611a9b57918102915b9490941c938002611a6d565b94509492505050565b60006104bb60001960ff851684600082611acc575060016104bb565b81611ad9575060006104bb565b8160018114611aef5760028114611af957611b26565b60019150506104bb565b60ff841115611b0a57611b0a611bf2565b6001841b915084821115611b2057611b20611bf2565b506104bb565b5060208310610133831016604e8410600b8410161715611b59575081810a83811115611b5457611b54611bf2565b6104bb565b611b668484846001611a6a565b808604821115611b7857611b78611bf2565b02949350505050565b6000816000190483118215151615611b9b57611b9b611bf2565b500290565b600082821015611bb257611bb2611bf2565b500390565b600281046001821680611bcb57607f821691505b60208210811415611bec57634e487b7160e01b600052602260045260246000fd5b50919050565b634e487b7160e01b600052601160045260246000fd5b634e487b7160e01b600052604160045260246000fdfea2646970667358221220f601e2bc388f1bc0a100b80cd78cc2753a5c85165f3cfd76fb0adc34b1508c7664736f6c63430008000033a2646970667358221220b1db490100ead949e4a6697ff06315b99be8f9373ec51db953a6b69e70c44a6364736f6c63430008000033",
  "deployedBytecode": "0x608060405234801561001057600080fd5b50600436106100675760003560e01c8063c06fad0611610050578063c06fad06146100a8578063c1c43c48146100bd578063ff68fa6e146100d257610067565b80633129e7731461006c57806334f486e414610095575b600080fd5b61007f61007a36600461066a565b6100e5565b60405161008c91906106ca565b60405180910390f35b61007f6100a33660046105c1565b610100565b6100b061039b565b60405161008c9190610727565b6100c56103fd565b60405161008c91906108e1565b61007f6100e036600461066a565b610403565b6000908152600160205260409020546001600160a01b031690565b6000808760405160200161011491906106ae565b60408051601f198184030181529181528151602092830120600081815260019093529120549091506001600160a01b03161561016b5760405162461bcd60e51b81526004016101629061083c565b60405180910390fd5b6001600160a01b0386166101915760405162461bcd60e51b8152600401610162906108aa565b6000604051806020016101a3906104d4565b601f1982820381018352601f9091011660405290506101c46000838361045a565b6040517f32816be10000000000000000000000000000000000000000000000000000000081529093506001600160a01b038416906332816be190610216908b908d908c908c908c908c90600401610774565b600060405180830381600087803b15801561023057600080fd5b505af1158015610244573d6000803e3d6000fd5b505050600083815260016020819052604080832080546001600160a01b0389167fffffffffffffffffffffffff0000000000000000000000000000000000000000918216811790925560028054948501815585527f405787fa12a823e0f2b7631cc41b3ba8828b3321ca811111fa75cd3aa3bb5ace9093018054909316811790925580517f95d89b4100000000000000000000000000000000000000000000000000000000815290517fc8fef388476ee2aae16130f128a91b30e447edbc59098146eee5ae4169761dbd945087938c938f9390926395d89b4192600480840193919291829003018186803b15801561033b57600080fd5b505afa15801561034f573d6000803e3d6000fd5b505050506040513d6000823e601f3d908101601f19168201604052610377919081019061054e565b60405161038794939291906106de565b60405180910390a150509695505050505050565b606060028054806020026020016040519081016040528092919081815260200182805480156103f357602002820191906000526020600020905b81546001600160a01b031681526001909101906020018083116103d5575b5050505050905090565b60025490565b60006002828154811061043f577f4e487b7100000000000000000000000000000000000000000000000000000000600052603260045260246000fd5b6000918252602090912001546001600160a01b031692915050565b6000808447101561047d5760405162461bcd60e51b815260040161016290610873565b825161049b5760405162461bcd60e51b8152600401610162906107d0565b8383516020850187f590506001600160a01b0381166104cc5760405162461bcd60e51b815260040161016290610805565b949350505050565b611c748061099c83390190565b80356001600160a01b03811681146104f857600080fd5b919050565b600082601f83011261050d578081fd5b813561052061051b82610914565b6108ea565b818152846020838601011115610534578283fd5b816020850160208301379081016020019190915292915050565b60006020828403121561055f578081fd5b815167ffffffffffffffff811115610575578182fd5b8201601f81018413610585578182fd5b805161059361051b82610914565b8181528560208385010111156105a7578384fd5b6105b882602083016020860161093c565b95945050505050565b60008060008060008060c087890312156105d9578182fd5b863567ffffffffffffffff808211156105f0578384fd5b6105fc8a838b016104fd565b97506020890135915080821115610611578384fd5b5061061e89828a016104fd565b95505061062d604088016104e1565b935061063b606088016104e1565b9250608087013560ff81168114610650578283fd5b915061065e60a088016104e1565b90509295509295509295565b60006020828403121561067b578081fd5b5035919050565b6000815180845261069a81602086016020860161093c565b601f01601f19169290920160200192915050565b600082516106c081846020870161093c565b9190910192915050565b6001600160a01b0391909116815260200190565b60006001600160a01b0380871683528086166020840152506080604083015261070a6080830185610682565b828103606084015261071c8185610682565b979650505050505050565b6020808252825182820181905260009190848201906040850190845b818110156107685783516001600160a01b031683529284019291840191600101610743565b50909695505050505050565b600060c0825261078760c0830189610682565b82810360208401526107998189610682565b6001600160a01b0397881660408501529587166060840152505060ff92909216608083015290921660a09092019190915292915050565b6020808252818101527f437265617465323a2062797465636f6465206c656e677468206973207a65726f604082015260600190565b60208082526019908201527f437265617465323a204661696c6564206f6e206465706c6f7900000000000000604082015260600190565b6020808252600f908201527f47454d544f4b454e5f4558495354530000000000000000000000000000000000604082015260600190565b6020808252601d908201527f437265617465323a20696e73756666696369656e742062616c616e6365000000604082015260600190565b6020808252600c908201527f494e56414c49445f504f4f4c0000000000000000000000000000000000000000604082015260600190565b90815260200190565b60405181810167ffffffffffffffff8111828210171561090c5761090c61096c565b604052919050565b600067ffffffffffffffff82111561092e5761092e61096c565b50601f01601f191660200190565b60005b8381101561095757818101518382015260200161093f565b83811115610966576000848401525b50505050565b7f4e487b7100000000000000000000000000000000000000000000000000000000600052604160045260246000fdfe608060405234801561001057600080fd5b50611c54806100206000396000f3fe608060405234801561001057600080fd5b506004361061016c5760003560e01c806339509351116100cd578063bc197c8111610081578063de0e9a3e11610066578063de0e9a3e146102c0578063ea598cb0146102d3578063f23a6e61146102e65761016c565b8063bc197c811461028d578063dd62ed3e146102ad5761016c565b806395d89b41116100b257806395d89b411461025f578063a457c2d714610267578063a9059cbb1461027a5761016c565b8063395093511461023957806370a082311461024c5761016c565b806310fe9ae81161012457806323b872dd1161010957806323b872dd146101fc578063313ce5671461020f57806332816be1146102245761016c565b806310fe9ae8146101df57806318160ddd146101f45761016c565b806306fdde031161015557806306fdde03146101af5780630902f1ac146101c4578063095ea7b3146101cc5761016c565b8063010a38f51461017157806301ffc9a71461018f575b600080fd5b6101796102f9565b60405161018691906119f1565b60405180910390f35b6101a261019d36600461137d565b6102ff565b60405161018691906114fa565b6101b761035d565b6040516101869190611532565b6101796103ef565b6101a26101da366004611354565b6103f5565b6101e7610412565b6040516101869190611496565b610179610421565b6101a261020a3660046112b6565b610427565b6102176104c2565b60405161018691906119fa565b6102376102323660046113bd565b6104cb565b005b6101a2610247366004611354565b61065e565b61017961025a3660046111c4565b6106b2565b6101b76106cd565b6101a2610275366004611354565b6106dc565b6101a2610288366004611354565b610755565b6102a061029b366004611210565b610769565b6040516101869190611505565b6101796102bb3660046111de565b610793565b6102376102ce366004611466565b6107be565b6102376102e1366004611466565b61091b565b6102a06102f43660046112f1565b610c13565b60095490565b60007fffffffff0000000000000000000000000000000000000000000000000000000082167f4e2312e0000000000000000000000000000000000000000000000000000000001480610355575061035582610c3d565b90505b919050565b60606003805461036c90611bb7565b80601f016020809104026020016040519081016040528092919081815260200182805461039890611bb7565b80156103e55780601f106103ba576101008083540402835291602001916103e5565b820191906000526020600020905b8154815290600101906020018083116103c857829003601f168201915b5050505050905090565b600c5490565b6000610409610402610c87565b8484610c8b565b50600192915050565b6006546001600160a01b031690565b60025490565b6000610434848484610d3f565b6001600160a01b038416600090815260016020526040812081610455610c87565b6001600160a01b03166001600160a01b03168152602001908152602001600020549050828110156104a15760405162461bcd60e51b8152600401610498906117c4565b60405180910390fd5b6104b5856104ad610c87565b858403610c8b565b60019150505b9392505050565b60055460ff1690565b60055462010000900460ff16806104ea5750600554610100900460ff16155b6105065760405162461bcd60e51b815260040161049890611767565b60055462010000900460ff1615801561055357600580547fffffffffffffffffffffffffffffffffffffffffffffffffffffffffffff00ff62ff0000199091166201000017166101001790555b86516105669060039060208a0190611027565b50855161057a906004906020890190611027565b50600580546001600160a01b038481166301000000027fffffffffffffffffff0000000000000000000000000000000000000000ffffff60ff88167fffffffffffffffffffffffffffffffffffffffffffffffffffffffffffffff00948516171617909255600680548784167fffffffffffffffffffffffff0000000000000000000000000000000000000000918216179091556007805482163017905560088054938916939091169290921790915560006009556001600b55600a8054600292169190911790558015610655576005805462ff0000191690555b50505050505050565b600061040961066b610c87565b848460016000610679610c87565b6001600160a01b03908116825260208083019390935260409182016000908120918b16815292529020546106ad9190611a32565b610c8b565b6001600160a01b031660009081526020819052604090205490565b60606004805461036c90611bb7565b600080600160006106eb610c87565b6001600160a01b03908116825260208083019390935260409182016000908120918816815292529020549050828110156107375760405162461bcd60e51b815260040161049890611938565b61074b610742610c87565b85858403610c8b565b5060019392505050565b6000610409610762610c87565b8484610d3f565b7fbc197c810000000000000000000000000000000000000000000000000000000095945050505050565b6001600160a01b03918216600090815260016020908152604080832093909416825291909152205490565b806107db5760405162461bcd60e51b815260040161049890611730565b806107e46104c2565b6107ef90600a611ab0565b6107f8336106b2565b6108029190611b81565b10156108205760405162461bcd60e51b815260040161049890611585565b6040517fb801a46300000000000000000000000000000000000000000000000000000000815273__$3f4a30935d2c9ff1225c976adfc01f1bf7$__9063b801a46390610877906006903090339087906004016119cc565b60006040518083038186803b15801561088f57600080fd5b505af41580156108a3573d6000803e3d6000fd5b505050506108cd336108b36104c2565b6108be90600a611ab0565b6108c89084611b81565b610e69565b600c546108db908290611ba0565b600c5560405133907f5dd085b6070b4cae004f84daafd199fd55b0bdfa11c3a802baffe89c2419d8c2906109109084906119f1565b60405180910390a250565b806109385760405162461bcd60e51b815260040161049890611730565b600654600854600a546040517f6680f78e000000000000000000000000000000000000000000000000000000008152849373__$3f4a30935d2c9ff1225c976adfc01f1bf7$__93636680f78e936109a9936001600160a01b03938416939092169160ff9091169033906004016114aa565b60206040518083038186803b1580156109c157600080fd5b505af41580156109d5573d6000803e3d6000fd5b505050506040513d601f19601f820116820180604052508101906109f9919061147e565b1015610a175760405162461bcd60e51b815260040161049890611585565b6000610a216104c2565b610a2c90600a611ab0565b600b54610a399190611b81565b610a439083611b81565b6005546040517feee1ad8000000000000000000000000000000000000000000000000000000000815291925060009163010000009091046001600160a01b03169063eee1ad8090610a98903090600401611496565b60206040518083038186803b158015610ab057600080fd5b505afa158015610ac4573d6000803e3d6000fd5b505050506040513d601f19601f82011682018060405250810190610ae8919061147e565b9050600081610af8576000610b02565b610b028284611a4a565b90506000610b108285611ba0565b6040517fb801a46300000000000000000000000000000000000000000000000000000000815290915073__$3f4a30935d2c9ff1225c976adfc01f1bf7$__9063b801a46390610b6a90600690339030908b906004016119cc565b60006040518083038186803b158015610b8257600080fd5b505af4158015610b96573d6000803e3d6000fd5b50505050610ba43382610f5b565b600554610bc190630100000090046001600160a01b031683610f5b565b600c54610bcf908690611a32565b600c5560405133907fb61d00fdfee32467c7d81db64c811ae60c104c346debf36a14afe84b8fce59e590610c049088906119f1565b60405180910390a25050505050565b7ff23a6e610000000000000000000000000000000000000000000000000000000095945050505050565b7fffffffff0000000000000000000000000000000000000000000000000000000081167f01ffc9a70000000000000000000000000000000000000000000000000000000014919050565b3390565b6001600160a01b038316610cb15760405162461bcd60e51b8152600401610498906118db565b6001600160a01b038216610cd75760405162461bcd60e51b815260040161049890611676565b6001600160a01b0380841660008181526001602090815260408083209487168084529490915290819020849055517f8c5be1e5ebec7d5bd14f71427d1e84f3dd0314c0f7b2291e5b200ac8c7c3b92590610d329085906119f1565b60405180910390a3505050565b6001600160a01b038316610d655760405162461bcd60e51b81526004016104989061187e565b6001600160a01b038216610d8b5760405162461bcd60e51b8152600401610498906115bc565b610d96838383610f56565b6001600160a01b03831660009081526020819052604090205481811015610dcf5760405162461bcd60e51b8152600401610498906116d3565b6001600160a01b03808516600090815260208190526040808220858503905591851681529081208054849290610e06908490611a32565b92505081905550826001600160a01b0316846001600160a01b03167fddf252ad1be2c89b69c2b068fc378daa952ba7f163c4a11628f55a4df523b3ef84604051610e5091906119f1565b60405180910390a3610e63848484610f56565b50505050565b6001600160a01b038216610e8f5760405162461bcd60e51b815260040161049890611821565b610e9b82600083610f56565b6001600160a01b03821660009081526020819052604090205481811015610ed45760405162461bcd60e51b815260040161049890611619565b6001600160a01b0383166000908152602081905260408120838303905560028054849290610f03908490611ba0565b90915550506040516000906001600160a01b038516907fddf252ad1be2c89b69c2b068fc378daa952ba7f163c4a11628f55a4df523b3ef90610f469086906119f1565b60405180910390a3610f56836000845b505050565b6001600160a01b038216610f815760405162461bcd60e51b815260040161049890611995565b610f8d60008383610f56565b8060026000828254610f9f9190611a32565b90915550506001600160a01b03821660009081526020819052604081208054839290610fcc908490611a32565b90915550506040516001600160a01b038316906000907fddf252ad1be2c89b69c2b068fc378daa952ba7f163c4a11628f55a4df523b3ef9061100f9085906119f1565b60405180910390a361102360008383610f56565b5050565b82805461103390611bb7565b90600052602060002090601f016020900481019282611055576000855561109b565b82601f1061106e57805160ff191683800117855561109b565b8280016001018555821561109b579182015b8281111561109b578251825591602001919060010190611080565b506110a79291506110ab565b5090565b5b808211156110a757600081556001016110ac565b80356001600160a01b038116811461035857600080fd5b600082601f8301126110e7578081fd5b8135602067ffffffffffffffff82111561110357611103611c08565b808202611111828201611a08565b83815282810190868401838801850189101561112b578687fd5b8693505b8584101561114d57803583526001939093019291840191840161112f565b50979650505050505050565b600082601f830112611169578081fd5b813567ffffffffffffffff81111561118357611183611c08565b6111966020601f19601f84011601611a08565b8181528460208386010111156111aa578283fd5b816020850160208301379081016020019190915292915050565b6000602082840312156111d5578081fd5b6104bb826110c0565b600080604083850312156111f0578081fd5b6111f9836110c0565b9150611207602084016110c0565b90509250929050565b600080600080600060a08688031215611227578081fd5b611230866110c0565b945061123e602087016110c0565b9350604086013567ffffffffffffffff8082111561125a578283fd5b61126689838a016110d7565b9450606088013591508082111561127b578283fd5b61128789838a016110d7565b9350608088013591508082111561129c578283fd5b506112a988828901611159565b9150509295509295909350565b6000806000606084860312156112ca578283fd5b6112d3846110c0565b92506112e1602085016110c0565b9150604084013590509250925092565b600080600080600060a08688031215611308578081fd5b611311866110c0565b945061131f602087016110c0565b93506040860135925060608601359150608086013567ffffffffffffffff811115611348578182fd5b6112a988828901611159565b60008060408385031215611366578182fd5b61136f836110c0565b946020939093013593505050565b60006020828403121561138e578081fd5b81357fffffffff00000000000000000000000000000000000000000000000000000000811681146104bb578182fd5b60008060008060008060c087890312156113d5578081fd5b863567ffffffffffffffff808211156113ec578283fd5b6113f88a838b01611159565b9750602089013591508082111561140d578283fd5b5061141a89828a01611159565b955050611429604088016110c0565b9350611437606088016110c0565b9250608087013560ff8116811461144c578182fd5b915061145a60a088016110c0565b90509295509295509295565b600060208284031215611477578081fd5b5035919050565b60006020828403121561148f578081fd5b5051919050565b6001600160a01b0391909116815260200190565b6001600160a01b03858116825284811660208301526080820190600385106114e257634e487b7160e01b600052602160045260246000fd5b84604084015280841660608401525095945050505050565b901515815260200190565b7fffffffff0000000000000000000000000000000000000000000000000000000091909116815260200190565b6000602080835283518082850152825b8181101561155e57858101830151858201604001528201611542565b8181111561156f5783604083870101525b50601f01601f1916929092016040019392505050565b60208082526015908201527f494e53554646494349454e545f5155414e544954590000000000000000000000604082015260600190565b60208082526023908201527f45524332303a207472616e7366657220746f20746865207a65726f206164647260408201527f6573730000000000000000000000000000000000000000000000000000000000606082015260800190565b60208082526022908201527f45524332303a206275726e20616d6f756e7420657863656564732062616c616e60408201527f6365000000000000000000000000000000000000000000000000000000000000606082015260800190565b60208082526022908201527f45524332303a20617070726f766520746f20746865207a65726f20616464726560408201527f7373000000000000000000000000000000000000000000000000000000000000606082015260800190565b60208082526026908201527f45524332303a207472616e7366657220616d6f756e742065786365656473206260408201527f616c616e63650000000000000000000000000000000000000000000000000000606082015260800190565b6020808252600d908201527f5a45524f5f5155414e5449545900000000000000000000000000000000000000604082015260600190565b6020808252602e908201527f496e697469616c697a61626c653a20636f6e747261637420697320616c72656160408201527f647920696e697469616c697a6564000000000000000000000000000000000000606082015260800190565b60208082526028908201527f45524332303a207472616e7366657220616d6f756e742065786365656473206160408201527f6c6c6f77616e6365000000000000000000000000000000000000000000000000606082015260800190565b60208082526021908201527f45524332303a206275726e2066726f6d20746865207a65726f2061646472657360408201527f7300000000000000000000000000000000000000000000000000000000000000606082015260800190565b60208082526025908201527f45524332303a207472616e736665722066726f6d20746865207a65726f20616460408201527f6472657373000000000000000000000000000000000000000000000000000000606082015260800190565b60208082526024908201527f45524332303a20617070726f76652066726f6d20746865207a65726f2061646460408201527f7265737300000000000000000000000000000000000000000000000000000000606082015260800190565b60208082526025908201527f45524332303a2064656372656173656420616c6c6f77616e63652062656c6f7760408201527f207a65726f000000000000000000000000000000000000000000000000000000606082015260800190565b6020808252601f908201527f45524332303a206d696e7420746f20746865207a65726f206164647265737300604082015260600190565b9384526001600160a01b03928316602085015291166040830152606082015260800190565b90815260200190565b60ff91909116815260200190565b60405181810167ffffffffffffffff81118282101715611a2a57611a2a611c08565b604052919050565b60008219821115611a4557611a45611bf2565b500190565b600082611a6557634e487b7160e01b81526012600452602481fd5b500490565b80825b6001808611611a7c5750611aa7565b818704821115611a8e57611a8e611bf2565b80861615611a9b57918102915b9490941c938002611a6d565b94509492505050565b60006104bb60001960ff851684600082611acc575060016104bb565b81611ad9575060006104bb565b8160018114611aef5760028114611af957611b26565b60019150506104bb565b60ff841115611b0a57611b0a611bf2565b6001841b915084821115611b2057611b20611bf2565b506104bb565b5060208310610133831016604e8410600b8410161715611b59575081810a83811115611b5457611b54611bf2565b6104bb565b611b668484846001611a6a565b808604821115611b7857611b78611bf2565b02949350505050565b6000816000190483118215151615611b9b57611b9b611bf2565b500290565b600082821015611bb257611bb2611bf2565b500390565b600281046001821680611bcb57607f821691505b60208210811415611bec57634e487b7160e01b600052602260045260246000fd5b50919050565b634e487b7160e01b600052601160045260246000fd5b634e487b7160e01b600052604160045260246000fdfea2646970667358221220f601e2bc388f1bc0a100b80cd78cc2753a5c85165f3cfd76fb0adc34b1508c7664736f6c63430008000033a2646970667358221220b1db490100ead949e4a6697ff06315b99be8f9373ec51db953a6b69e70c44a6364736f6c63430008000033",
  "libraries": {
    "Strings": "0x1B8891353b1A54B478dFdD8060b0cf94a2cBAB05",
    "AddressSet": "0x67Dd4EE3e8E52c2938Ff45AF2e050954c860d24E",
    "UInt256Set": "0x93Ab80e063b38A95340C1A77905498453182d46b",
    "Create2": "0x9cF534EC3A43b86fced3f58239572E970778f99d",
    "WrappedTokenLib": "0xa64C55472a6846DBeE76fD9e9A7700B3af73b702",
    "ComplexPoolLib": "0x88e1b252F7873Da663713f1784C1283feFf2f880"
  },
  "devdoc": {
    "kind": "dev",
    "methods": {
      "allItems(uint256)": {
        "details": "get the quantized token for this"
      },
      "allItemsLength()": {
        "details": "number of quantized addresses"
      },
      "createItem(string,string,address,address,uint8,address)": {
        "details": "deploy a new erc20 token using create2"
      },
      "getItem(uint256)": {
        "details": "get the quantized token for this"
      },
      "items()": {
        "details": "get the quantized token for this"
      }
    },
    "version": 1
  },
  "userdoc": {
    "kind": "user",
    "methods": {},
    "version": 1
  },
  "storageLayout": {
    "storage": [
      {
        "astId": 5014,
        "contract": "src/factories/ERC20GemTokenFactory.sol:ERC20GemTokenFactory",
        "label": "operator",
        "offset": 0,
        "slot": "0",
        "type": "t_address"
      },
      {
        "astId": 5018,
        "contract": "src/factories/ERC20GemTokenFactory.sol:ERC20GemTokenFactory",
        "label": "_getItem",
        "offset": 0,
        "slot": "1",
        "type": "t_mapping(t_uint256,t_address)"
      },
      {
        "astId": 5021,
        "contract": "src/factories/ERC20GemTokenFactory.sol:ERC20GemTokenFactory",
        "label": "_allItems",
        "offset": 0,
        "slot": "2",
        "type": "t_array(t_address)dyn_storage"
      }
    ],
    "types": {
      "t_address": {
        "encoding": "inplace",
        "label": "address",
        "numberOfBytes": "20"
      },
      "t_array(t_address)dyn_storage": {
        "base": "t_address",
        "encoding": "dynamic_array",
        "label": "address[]",
        "numberOfBytes": "32"
      },
      "t_mapping(t_uint256,t_address)": {
        "encoding": "mapping",
        "key": "t_uint256",
        "label": "mapping(uint256 => address)",
        "numberOfBytes": "32",
        "value": "t_address"
      },
      "t_uint256": {
        "encoding": "inplace",
        "label": "uint256",
        "numberOfBytes": "32"
      }
    }
  }
}