{
  "address": "0x902F5a73ad4Daa0aE2F9ee30c74E87621E21636b",
  "abi": [
    {
      "inputs": [
        {
          "internalType": "address",
          "name": "timelock_",
          "type": "address"
        },
        {
          "internalType": "address",
          "name": "comp_",
          "type": "address"
        },
        {
          "internalType": "address",
          "name": "guardian_",
          "type": "address"
        }
      ],
      "payable": false,
      "stateMutability": "nonpayable",
      "type": "constructor"
    },
    {
      "anonymous": false,
      "inputs": [
        {
          "indexed": false,
          "internalType": "uint256",
          "name": "id",
          "type": "uint256"
        }
      ],
      "name": "ProposalCanceled",
      "type": "event"
    },
    {
      "anonymous": false,
      "inputs": [
        {
          "indexed": false,
          "internalType": "uint256",
          "name": "id",
          "type": "uint256"
        },
        {
          "indexed": false,
          "internalType": "address",
          "name": "proposer",
          "type": "address"
        },
        {
          "indexed": false,
          "internalType": "address[]",
          "name": "targets",
          "type": "address[]"
        },
        {
          "indexed": false,
          "internalType": "uint256[]",
          "name": "values",
          "type": "uint256[]"
        },
        {
          "indexed": false,
          "internalType": "string[]",
          "name": "signatures",
          "type": "string[]"
        },
        {
          "indexed": false,
          "internalType": "bytes[]",
          "name": "calldatas",
          "type": "bytes[]"
        },
        {
          "indexed": false,
          "internalType": "uint256",
          "name": "startBlock",
          "type": "uint256"
        },
        {
          "indexed": false,
          "internalType": "uint256",
          "name": "endBlock",
          "type": "uint256"
        },
        {
          "indexed": false,
          "internalType": "string",
          "name": "description",
          "type": "string"
        }
      ],
      "name": "ProposalCreated",
      "type": "event"
    },
    {
      "anonymous": false,
      "inputs": [
        {
          "indexed": false,
          "internalType": "uint256",
          "name": "id",
          "type": "uint256"
        }
      ],
      "name": "ProposalExecuted",
      "type": "event"
    },
    {
      "anonymous": false,
      "inputs": [
        {
          "indexed": false,
          "internalType": "uint256",
          "name": "id",
          "type": "uint256"
        },
        {
          "indexed": false,
          "internalType": "uint256",
          "name": "eta",
          "type": "uint256"
        }
      ],
      "name": "ProposalQueued",
      "type": "event"
    },
    {
      "anonymous": false,
      "inputs": [
        {
          "indexed": false,
          "internalType": "address",
          "name": "voter",
          "type": "address"
        },
        {
          "indexed": false,
          "internalType": "uint256",
          "name": "proposalId",
          "type": "uint256"
        },
        {
          "indexed": false,
          "internalType": "bool",
          "name": "support",
          "type": "bool"
        },
        {
          "indexed": false,
          "internalType": "uint256",
          "name": "votes",
          "type": "uint256"
        }
      ],
      "name": "VoteCast",
      "type": "event"
    },
    {
      "constant": true,
      "inputs": [],
      "name": "BALLOT_TYPEHASH",
      "outputs": [
        {
          "internalType": "bytes32",
          "name": "",
          "type": "bytes32"
        }
      ],
      "payable": false,
      "stateMutability": "view",
      "type": "function"
    },
    {
      "constant": true,
      "inputs": [],
      "name": "DOMAIN_TYPEHASH",
      "outputs": [
        {
          "internalType": "bytes32",
          "name": "",
          "type": "bytes32"
        }
      ],
      "payable": false,
      "stateMutability": "view",
      "type": "function"
    },
    {
      "constant": false,
      "inputs": [],
      "name": "__abdicate",
      "outputs": [],
      "payable": false,
      "stateMutability": "nonpayable",
      "type": "function"
    },
    {
      "constant": false,
      "inputs": [],
      "name": "__acceptAdmin",
      "outputs": [],
      "payable": false,
      "stateMutability": "nonpayable",
      "type": "function"
    },
    {
      "constant": false,
      "inputs": [
        {
          "internalType": "address",
          "name": "newPendingAdmin",
          "type": "address"
        },
        {
          "internalType": "uint256",
          "name": "eta",
          "type": "uint256"
        }
      ],
      "name": "__executeSetTimelockPendingAdmin",
      "outputs": [],
      "payable": false,
      "stateMutability": "nonpayable",
      "type": "function"
    },
    {
      "constant": false,
      "inputs": [
        {
          "internalType": "address",
          "name": "newPendingAdmin",
          "type": "address"
        },
        {
          "internalType": "uint256",
          "name": "eta",
          "type": "uint256"
        }
      ],
      "name": "__queueSetTimelockPendingAdmin",
      "outputs": [],
      "payable": false,
      "stateMutability": "nonpayable",
      "type": "function"
    },
    {
      "constant": false,
      "inputs": [
        {
          "internalType": "uint256",
          "name": "proposalId",
          "type": "uint256"
        }
      ],
      "name": "cancel",
      "outputs": [],
      "payable": false,
      "stateMutability": "nonpayable",
      "type": "function"
    },
    {
      "constant": false,
      "inputs": [
        {
          "internalType": "uint256",
          "name": "proposalId",
          "type": "uint256"
        },
        {
          "internalType": "bool",
          "name": "support",
          "type": "bool"
        }
      ],
      "name": "castVote",
      "outputs": [],
      "payable": false,
      "stateMutability": "nonpayable",
      "type": "function"
    },
    {
      "constant": false,
      "inputs": [
        {
          "internalType": "uint256",
          "name": "proposalId",
          "type": "uint256"
        },
        {
          "internalType": "bool",
          "name": "support",
          "type": "bool"
        },
        {
          "internalType": "uint8",
          "name": "v",
          "type": "uint8"
        },
        {
          "internalType": "bytes32",
          "name": "r",
          "type": "bytes32"
        },
        {
          "internalType": "bytes32",
          "name": "s",
          "type": "bytes32"
        }
      ],
      "name": "castVoteBySig",
      "outputs": [],
      "payable": false,
      "stateMutability": "nonpayable",
      "type": "function"
    },
    {
      "constant": true,
      "inputs": [],
      "name": "comp",
      "outputs": [
        {
          "internalType": "contract CompInterface",
          "name": "",
          "type": "address"
        }
      ],
      "payable": false,
      "stateMutability": "view",
      "type": "function"
    },
    {
      "constant": false,
      "inputs": [
        {
          "internalType": "uint256",
          "name": "proposalId",
          "type": "uint256"
        }
      ],
      "name": "execute",
      "outputs": [],
      "payable": true,
      "stateMutability": "payable",
      "type": "function"
    },
    {
      "constant": true,
      "inputs": [
        {
          "internalType": "uint256",
          "name": "proposalId",
          "type": "uint256"
        }
      ],
      "name": "getActions",
      "outputs": [
        {
          "internalType": "address[]",
          "name": "targets",
          "type": "address[]"
        },
        {
          "internalType": "uint256[]",
          "name": "values",
          "type": "uint256[]"
        },
        {
          "internalType": "string[]",
          "name": "signatures",
          "type": "string[]"
        },
        {
          "internalType": "bytes[]",
          "name": "calldatas",
          "type": "bytes[]"
        }
      ],
      "payable": false,
      "stateMutability": "view",
      "type": "function"
    },
    {
      "constant": true,
      "inputs": [
        {
          "internalType": "uint256",
          "name": "proposalId",
          "type": "uint256"
        },
        {
          "internalType": "address",
          "name": "voter",
          "type": "address"
        }
      ],
      "name": "getReceipt",
      "outputs": [
        {
          "components": [
            {
              "internalType": "bool",
              "name": "hasVoted",
              "type": "bool"
            },
            {
              "internalType": "bool",
              "name": "support",
              "type": "bool"
            },
            {
              "internalType": "uint96",
              "name": "votes",
              "type": "uint96"
            }
          ],
          "internalType": "struct GovernorAlpha.Receipt",
          "name": "",
          "type": "tuple"
        }
      ],
      "payable": false,
      "stateMutability": "view",
      "type": "function"
    },
    {
      "constant": true,
      "inputs": [],
      "name": "guardian",
      "outputs": [
        {
          "internalType": "address",
          "name": "",
          "type": "address"
        }
      ],
      "payable": false,
      "stateMutability": "view",
      "type": "function"
    },
    {
      "constant": true,
      "inputs": [
        {
          "internalType": "address",
          "name": "",
          "type": "address"
        }
      ],
      "name": "latestProposalIds",
      "outputs": [
        {
          "internalType": "uint256",
          "name": "",
          "type": "uint256"
        }
      ],
      "payable": false,
      "stateMutability": "view",
      "type": "function"
    },
    {
      "constant": true,
      "inputs": [],
      "name": "name",
      "outputs": [
        {
          "internalType": "string",
          "name": "",
          "type": "string"
        }
      ],
      "payable": false,
      "stateMutability": "view",
      "type": "function"
    },
    {
      "constant": true,
      "inputs": [],
      "name": "proposalCount",
      "outputs": [
        {
          "internalType": "uint256",
          "name": "",
          "type": "uint256"
        }
      ],
      "payable": false,
      "stateMutability": "view",
      "type": "function"
    },
    {
      "constant": true,
      "inputs": [],
      "name": "proposalMaxOperations",
      "outputs": [
        {
          "internalType": "uint256",
          "name": "",
          "type": "uint256"
        }
      ],
      "payable": false,
      "stateMutability": "pure",
      "type": "function"
    },
    {
      "constant": true,
      "inputs": [],
      "name": "proposalThreshold",
      "outputs": [
        {
          "internalType": "uint256",
          "name": "",
          "type": "uint256"
        }
      ],
      "payable": false,
      "stateMutability": "pure",
      "type": "function"
    },
    {
      "constant": true,
      "inputs": [
        {
          "internalType": "uint256",
          "name": "",
          "type": "uint256"
        }
      ],
      "name": "proposals",
      "outputs": [
        {
          "internalType": "uint256",
          "name": "id",
          "type": "uint256"
        },
        {
          "internalType": "address",
          "name": "proposer",
          "type": "address"
        },
        {
          "internalType": "uint256",
          "name": "eta",
          "type": "uint256"
        },
        {
          "internalType": "uint256",
          "name": "startBlock",
          "type": "uint256"
        },
        {
          "internalType": "uint256",
          "name": "endBlock",
          "type": "uint256"
        },
        {
          "internalType": "uint256",
          "name": "forVotes",
          "type": "uint256"
        },
        {
          "internalType": "uint256",
          "name": "againstVotes",
          "type": "uint256"
        },
        {
          "internalType": "bool",
          "name": "canceled",
          "type": "bool"
        },
        {
          "internalType": "bool",
          "name": "executed",
          "type": "bool"
        }
      ],
      "payable": false,
      "stateMutability": "view",
      "type": "function"
    },
    {
      "constant": false,
      "inputs": [
        {
          "internalType": "address[]",
          "name": "targets",
          "type": "address[]"
        },
        {
          "internalType": "uint256[]",
          "name": "values",
          "type": "uint256[]"
        },
        {
          "internalType": "string[]",
          "name": "signatures",
          "type": "string[]"
        },
        {
          "internalType": "bytes[]",
          "name": "calldatas",
          "type": "bytes[]"
        },
        {
          "internalType": "string",
          "name": "description",
          "type": "string"
        }
      ],
      "name": "propose",
      "outputs": [
        {
          "internalType": "uint256",
          "name": "",
          "type": "uint256"
        }
      ],
      "payable": false,
      "stateMutability": "nonpayable",
      "type": "function"
    },
    {
      "constant": false,
      "inputs": [
        {
          "internalType": "uint256",
          "name": "proposalId",
          "type": "uint256"
        }
      ],
      "name": "queue",
      "outputs": [],
      "payable": false,
      "stateMutability": "nonpayable",
      "type": "function"
    },
    {
      "constant": true,
      "inputs": [],
      "name": "quorumVotes",
      "outputs": [
        {
          "internalType": "uint256",
          "name": "",
          "type": "uint256"
        }
      ],
      "payable": false,
      "stateMutability": "pure",
      "type": "function"
    },
    {
      "constant": true,
      "inputs": [
        {
          "internalType": "uint256",
          "name": "proposalId",
          "type": "uint256"
        }
      ],
      "name": "state",
      "outputs": [
        {
          "internalType": "enum GovernorAlpha.ProposalState",
          "name": "",
          "type": "uint8"
        }
      ],
      "payable": false,
      "stateMutability": "view",
      "type": "function"
    },
    {
      "constant": true,
      "inputs": [],
      "name": "timelock",
      "outputs": [
        {
          "internalType": "contract TimelockInterface",
          "name": "",
          "type": "address"
        }
      ],
      "payable": false,
      "stateMutability": "view",
      "type": "function"
    },
    {
      "constant": true,
      "inputs": [],
      "name": "votingDelay",
      "outputs": [
        {
          "internalType": "uint256",
          "name": "",
          "type": "uint256"
        }
      ],
      "payable": false,
      "stateMutability": "pure",
      "type": "function"
    },
    {
      "constant": true,
      "inputs": [],
      "name": "votingPeriod",
      "outputs": [
        {
          "internalType": "uint256",
          "name": "",
          "type": "uint256"
        }
      ],
      "payable": false,
      "stateMutability": "pure",
      "type": "function"
    }
  ],
  "transactionHash": "0x3012b42a8acc44ac8ca2912d85c5cc8f6870804652b509fe946cb6d2f94b83e3",
  "args": [
    "0xe464c6716DAcA56771272af52f81CB1244EcE8D5",
    "0x0615EF80112e3b2B041435ddB05A116Ec494B083",
    "0xE5E82ae456c04Ad0879785B4f678A4Fcace12AAf"
  ],
  "solcInputHash": "165a6de1b79ee379a5da805bf0b4671e",
  "bytecode": "0x60806040523480156200001157600080fd5b5060405162003aaf38038062003aaf83398101604081905262000034916200008a565b600080546001600160a01b039485166001600160a01b0319918216179091556001805493851693821693909317909255600280549190931691161790556200010a565b80516200008481620000f0565b92915050565b600080600060608486031215620000a057600080fd5b6000620000ae868662000077565b9350506020620000c18682870162000077565b9250506040620000d48682870162000077565b9150509250925092565b60006001600160a01b03821662000084565b620000fb81620000de565b81146200010757600080fd5b50565b613995806200011a6000396000f3fe6080604052600436106101ac5760003560e01c8063452a9320116100ec578063d33219b41161008a578063ddf0b00911610064578063ddf0b00914610473578063deaaa7cc14610493578063e23a9a52146104a8578063fe0d94c1146104d5576101ac565b8063d33219b414610429578063da35c6641461043e578063da95691a14610453576101ac565b80637bdbe4d0116100c65780637bdbe4d0146103ca57806391500671146103df578063b58131b0146103ff578063b9a6196114610414576101ac565b8063452a9320146103735780634634c61f14610395578063760fbc13146103b5576101ac565b806320606b7011610159578063328dd98211610133578063328dd982146102e15780633932abb1146103115780633e4f49e61461032657806340e58ee514610353576101ac565b806320606b701461029757806321f43e42146102ac57806324bc1a64146102cc576101ac565b8063109d0af81161018a578063109d0af81461023357806315373e3d1461025557806317977c6114610277576101ac565b8063013cf08b146101b157806302a251a3146101ef57806306fdde0314610211575b600080fd5b3480156101bd57600080fd5b506101d16101cc366004612527565b6104e8565b6040516101e69998979695949392919061373b565b60405180910390f35b3480156101fb57600080fd5b50610204610541565b6040516101e69190613468565b34801561021d57600080fd5b50610226610548565b6040516101e69190613524565b34801561023f57600080fd5b50610248610581565b6040516101e69190613508565b34801561026157600080fd5b50610275610270366004612575565b610590565b005b34801561028357600080fd5b5061020461029236600461236a565b61059f565b3480156102a357600080fd5b506102046105b1565b3480156102b857600080fd5b506102756102c7366004612390565b6105c8565b3480156102d857600080fd5b506102046106af565b3480156102ed57600080fd5b506103016102fc366004612527565b6106bd565b6040516101e6949392919061341b565b34801561031d57600080fd5b5061020461094c565b34801561033257600080fd5b50610346610341366004612527565b610951565b6040516101e69190613516565b34801561035f57600080fd5b5061027561036e366004612527565b610aec565b34801561037f57600080fd5b50610388610d5a565b6040516101e691906132c5565b3480156103a157600080fd5b506102756103b03660046125a5565b610d69565b3480156103c157600080fd5b50610275610f06565b3480156103d657600080fd5b50610204610f4f565b3480156103eb57600080fd5b506102756103fa366004612390565b610f54565b34801561040b57600080fd5b50610204611029565b34801561042057600080fd5b50610275611037565b34801561043557600080fd5b506102486110d5565b34801561044a57600080fd5b506102046110e4565b34801561045f57600080fd5b5061020461046e3660046123ca565b6110ea565b34801561047f57600080fd5b5061027561048e366004612527565b611511565b34801561049f57600080fd5b50610204611794565b3480156104b457600080fd5b506104c86104c3366004612545565b6117a0565b6040516101e69190613685565b6102756104e3366004612527565b611814565b6004602052600090815260409020805460018201546002830154600784015460088501546009860154600a870154600b9097015495966001600160a01b0390951695939492939192909160ff8082169161010090041689565b6143805b90565b6040518060400160405280601581526020017f42697467656d20476f7665726e6f7220416c706861000000000000000000000081525081565b6001546001600160a01b031681565b61059b3383836119d9565b5050565b60056020526000908152604090205481565b6040516105bd906132af565b604051809103902081565b6002546001600160a01b031633146105fb5760405162461bcd60e51b81526004016105f290613555565b60405180910390fd5b600080546040516001600160a01b0390911691630825f38f918391906106259087906020016132c5565b604051602081830303815290604052856040518563ffffffff1660e01b815260040161065494939291906132ee565b600060405180830381600087803b15801561066e57600080fd5b505af1158015610682573d6000803e3d6000fd5b505050506040513d6000823e601f3d908101601f191682016040526106aa91908101906124f2565b505050565b69fe1c215e8f838e00000090565b6060806060806000600460008781526020019081526020016000209050806003018160040182600501836006018380548060200260200160405190810160405280929190818152602001828054801561073f57602002820191906000526020600020905b81546001600160a01b03168152600190910190602001808311610721575b505050505093508280548060200260200160405190810160405280929190818152602001828054801561079157602002820191906000526020600020905b81548152602001906001019080831161077d575b5050505050925081805480602002602001604051908101604052809291908181526020016000905b828210156108645760008481526020908190208301805460408051601f60026000196101006001871615020190941693909304928301859004850281018501909152818152928301828280156108505780601f1061082557610100808354040283529160200191610850565b820191906000526020600020905b81548152906001019060200180831161083357829003601f168201915b5050505050815260200190600101906107b9565b50505050915080805480602002602001604051908101604052809291908181526020016000905b828210156109365760008481526020908190208301805460408051601f60026000196101006001871615020190941693909304928301859004850281018501909152818152928301828280156109225780601f106108f757610100808354040283529160200191610922565b820191906000526020600020905b81548152906001019060200180831161090557829003601f168201915b50505050508152602001906001019061088b565b5050505090509450945094509450509193509193565b600190565b600081600354101580156109655750600082115b6109815760405162461bcd60e51b81526004016105f290613565565b6000828152600460205260409020600b81015460ff16156109a6576002915050610ae7565b806007015443116109bb576000915050610ae7565b806008015443116109d0576001915050610ae7565b80600a015481600901541115806109f157506109ea6106af565b8160090154105b15610a00576003915050610ae7565b6002810154610a13576004915050610ae7565b600b810154610100900460ff1615610a2f576007915050610ae7565b6002810154600054604080517fc1a287e20000000000000000000000000000000000000000000000000000000081529051610ad193926001600160a01b03169163c1a287e2916004808301926020929190829003018186803b158015610a9457600080fd5b505afa158015610aa8573d6000803e3d6000fd5b505050506040513d601f19601f82011682018060405250610acc91908101906124d4565b611bca565b4210610ae1576006915050610ae7565b60059150505b919050565b6000610af782610951565b90506007816007811115610b0757fe5b1415610b255760405162461bcd60e51b81526004016105f290613645565b60008281526004602052604090206002546001600160a01b0316331480610bf55750610b4f611029565b60018054838201546001600160a01b039182169263782d6fe19290911690610b78904390611bf6565b6040518363ffffffff1660e01b8152600401610b9592919061333d565b60206040518083038186803b158015610bad57600080fd5b505afa158015610bc1573d6000803e3d6000fd5b505050506040513d601f19601f82011682018060405250610be5919081019061260d565b6bffffffffffffffffffffffff16105b610c115760405162461bcd60e51b81526004016105f2906135f5565b600b8101805460ff1916600117905560005b6003820154811015610d1d576000546003830180546001600160a01b039092169163591fcdfe919084908110610c5557fe5b6000918252602090912001546004850180546001600160a01b039092169185908110610c7d57fe5b9060005260206000200154856005018581548110610c9757fe5b90600052602060002001866006018681548110610cb057fe5b9060005260206000200187600201546040518663ffffffff1660e01b8152600401610cdf9594939291906133da565b600060405180830381600087803b158015610cf957600080fd5b505af1158015610d0d573d6000803e3d6000fd5b505060019092019150610c239050565b507f789cf55be980739dad1d0699b93b58e806b51c9d96619bfa8fe0a28abaa7b30c83604051610d4d9190613468565b60405180910390a1505050565b6002546001600160a01b031681565b6000604051610d77906132af565b60408051918290038220828201909152601582527f42697467656d20476f7665726e6f7220416c70686100000000000000000000006020909201919091527f6cdb7656239a64901d008bdf9bc7bd9dba57d6edb29fd530185be55777d5f4ce610dde611c1e565b30604051602001610df29493929190613476565b6040516020818303038152906040528051906020012090506000604051610e18906132ba565b604051908190038120610e3191899089906020016134ab565b60405160208183030381529060405280519060200120905060008282604051602001610e5e92919061327e565b604051602081830303815290604052805190602001209050600060018288888860405160008152602001604052604051610e9b94939291906134d3565b6020604051602081039080840390855afa158015610ebd573d6000803e3d6000fd5b5050604051601f1901519150506001600160a01b038116610ef05760405162461bcd60e51b81526004016105f290613635565b610efb818a8a6119d9565b505050505050505050565b6002546001600160a01b03163314610f305760405162461bcd60e51b81526004016105f290613675565b6002805473ffffffffffffffffffffffffffffffffffffffff19169055565b600a90565b6002546001600160a01b03163314610f7e5760405162461bcd60e51b81526004016105f2906135b5565b600080546040516001600160a01b0390911691633a66f90191839190610fa89087906020016132c5565b604051602081830303815290604052856040518563ffffffff1660e01b8152600401610fd794939291906132ee565b602060405180830381600087803b158015610ff157600080fd5b505af1158015611005573d6000803e3d6000fd5b505050506040513d601f19601f820116820180604052506106aa91908101906124d4565b693f870857a3e0e380000090565b6002546001600160a01b031633146110615760405162461bcd60e51b81526004016105f290613535565b60008054604080517f0e18b68100000000000000000000000000000000000000000000000000000000815290516001600160a01b0390921692630e18b6819260048084019382900301818387803b1580156110bb57600080fd5b505af11580156110cf573d6000803e3d6000fd5b50505050565b6000546001600160a01b031681565b60035481565b60006110f4611029565b600180546001600160a01b03169063782d6fe1903390611115904390611bf6565b6040518363ffffffff1660e01b81526004016111329291906132d3565b60206040518083038186803b15801561114a57600080fd5b505afa15801561115e573d6000803e3d6000fd5b505050506040513d601f19601f82011682018060405250611182919081019061260d565b6bffffffffffffffffffffffff16116111ad5760405162461bcd60e51b81526004016105f290613545565b845186511480156111bf575083518651145b80156111cc575082518651145b6111e85760405162461bcd60e51b81526004016105f2906135c5565b85516112065760405162461bcd60e51b81526004016105f290613625565b61120e610f4f565b8651111561122e5760405162461bcd60e51b81526004016105f290613615565b3360009081526005602052604090205480156112ab57600061124f82610951565b9050600181600781111561125f57fe5b141561127d5760405162461bcd60e51b81526004016105f290613575565b600081600781111561128b57fe5b14156112a95760405162461bcd60e51b81526004016105f2906135a5565b505b60006112b943610acc61094c565b905060006112c982610acc610541565b60038054600101905590506112dc611d9a565b604051806101a001604052806003548152602001336001600160a01b03168152602001600081526020018b81526020018a815260200189815260200188815260200184815260200183815260200160008152602001600081526020016000151581526020016000151581525090508060046000836000015181526020019081526020016000206000820151816000015560208201518160010160006101000a8154816001600160a01b0302191690836001600160a01b031602179055506040820151816002015560608201518160030190805190602001906113bf929190611e0f565b50608082015180516113db916004840191602090910190611e81565b5060a082015180516113f7916005840191602090910190611ec8565b5060c08201518051611413916006840191602090910190611f21565b5060e082015181600701556101008201518160080155610120820151816009015561014082015181600a015561016082015181600b0160006101000a81548160ff02191690831515021790555061018082015181600b0160016101000a81548160ff02191690831515021790555090505080600001516005600083602001516001600160a01b03166001600160a01b03168152602001908152602001600020819055507f7d84a6263ae0d98d3329bd7b46bb4e8d6f98cd35a7adb45c274c8b7fd5ebd5e08160000151338c8c8c8c89898e6040516114f999989796959493929190613693565b60405180910390a15193505050505b95945050505050565b600461151c82610951565b600781111561152757fe5b146115445760405162461bcd60e51b81526004016105f2906135e5565b6000818152600460208181526040808420845482517f6a42b8f800000000000000000000000000000000000000000000000000000000815292519195946115b29442946001600160a01b0390931693636a42b8f8938084019390829003018186803b158015610a9457600080fd5b905060005b600383015481101561175a576117528360030182815481106115d557fe5b6000918252602090912001546004850180546001600160a01b0390921691849081106115fd57fe5b906000526020600020015485600501848154811061161757fe5b600091825260209182902001805460408051601f60026000196101006001871615020190941693909304928301859004850281018501909152818152928301828280156116a55780601f1061167a576101008083540402835291602001916116a5565b820191906000526020600020905b81548152906001019060200180831161168857829003601f168201915b50505050508660060185815481106116b957fe5b600091825260209182902001805460408051601f60026000196101006001871615020190941693909304928301859004850281018501909152818152928301828280156117475780601f1061171c57610100808354040283529160200191611747565b820191906000526020600020905b81548152906001019060200180831161172a57829003601f168201915b505050505086611c22565b6001016115b7565b50600282018190556040517f9a2e42fd6722813d69113e7d0079d3d940171428df7373df9c7f7617cfda289290610d4d90859084906137c1565b6040516105bd906132ba565b6117a8611f7a565b5060008281526004602090815260408083206001600160a01b0385168452600c018252918290208251606081018452905460ff80821615158352610100820416151592820192909252620100009091046bffffffffffffffffffffffff16918101919091525b92915050565b600561181f82610951565b600781111561182a57fe5b146118475760405162461bcd60e51b81526004016105f290613585565b6000818152600460205260408120600b8101805461ff001916610100179055905b600382015481101561199d576000546004830180546001600160a01b0390921691630825f38f91908490811061189a57fe5b90600052602060002001548460030184815481106118b457fe5b6000918252602090912001546004860180546001600160a01b0390921691869081106118dc57fe5b90600052602060002001548660050186815481106118f657fe5b9060005260206000200187600601878154811061190f57fe5b9060005260206000200188600201546040518763ffffffff1660e01b815260040161193e9594939291906133da565b6000604051808303818588803b15801561195757600080fd5b505af115801561196b573d6000803e3d6000fd5b50505050506040513d6000823e601f3d908101601f1916820160405261199491908101906124f2565b50600101611868565b507f712ae1383f79ac853f8d882153778e0260ef8f03b504e2866e0593e04d2b291f826040516119cd9190613468565b60405180910390a15050565b60016119e483610951565b60078111156119ef57fe5b14611a0c5760405162461bcd60e51b81526004016105f290613655565b60008281526004602090815260408083206001600160a01b0387168452600c8101909252909120805460ff1615611a555760405162461bcd60e51b81526004016105f290613595565b60015460078301546040517f782d6fe10000000000000000000000000000000000000000000000000000000081526000926001600160a01b03169163782d6fe191611aa4918a9160040161333d565b60206040518083038186803b158015611abc57600080fd5b505afa158015611ad0573d6000803e3d6000fd5b505050506040513d601f19601f82011682018060405250611af4919081019061260d565b90508315611b2257611b188360090154826bffffffffffffffffffffffff16611bca565b6009840155611b44565b611b3e83600a0154826bffffffffffffffffffffffff16611bca565b600a8401555b8154600160ff199091161761ff00191661010085151502176dffffffffffffffffffffffff00001916620100006bffffffffffffffffffffffff8316021782556040517f877856338e13f63d0c36822ff0ef736b80934cd90574a3a5bc9262c39d217c4690611bba90889088908890869061334b565b60405180910390a1505050505050565b600082820183811015611bef5760405162461bcd60e51b81526004016105f2906135d5565b9392505050565b600082821115611c185760405162461bcd60e51b81526004016105f290613665565b50900390565b4690565b6000546040516001600160a01b039091169063f2b0653790611c509088908890889088908890602001613380565b604051602081830303815290604052805190602001206040518263ffffffff1660e01b8152600401611c829190613468565b60206040518083038186803b158015611c9a57600080fd5b505afa158015611cae573d6000803e3d6000fd5b505050506040513d601f19601f82011682018060405250611cd291908101906124b6565b15611cef5760405162461bcd60e51b81526004016105f290613605565b6000546040517f3a66f9010000000000000000000000000000000000000000000000000000000081526001600160a01b0390911690633a66f90190611d409088908890889088908890600401613380565b602060405180830381600087803b158015611d5a57600080fd5b505af1158015611d6e573d6000803e3d6000fd5b505050506040513d601f19601f82011682018060405250611d9291908101906124d4565b505050505050565b604051806101a001604052806000815260200160006001600160a01b031681526020016000815260200160608152602001606081526020016060815260200160608152602001600081526020016000815260200160008152602001600081526020016000151581526020016000151581525090565b828054828255906000526020600020908101928215611e71579160200282015b82811115611e71578251825473ffffffffffffffffffffffffffffffffffffffff19166001600160a01b03909116178255602090920191600190910190611e2f565b50611e7d929150611f9a565b5090565b828054828255906000526020600020908101928215611ebc579160200282015b82811115611ebc578251825591602001919060010190611ea1565b50611e7d929150611fcb565b828054828255906000526020600020908101928215611f15579160200282015b82811115611f155782518051611f05918491602090910190611fe5565b5091602001919060010190611ee8565b50611e7d929150612052565b828054828255906000526020600020908101928215611f6e579160200282015b82811115611f6e5782518051611f5e918491602090910190611fe5565b5091602001919060010190611f41565b50611e7d929150612075565b604080516060810182526000808252602082018190529181019190915290565b61054591905b80821115611e7d57805473ffffffffffffffffffffffffffffffffffffffff19168155600101611fa0565b61054591905b80821115611e7d5760008155600101611fd1565b828054600181600116156101000203166002900490600052602060002090601f016020900481019282601f1061202657805160ff1916838001178555611ebc565b82800160010185558215611ebc5791820182811115611ebc578251825591602001919060010190611ea1565b61054591905b80821115611e7d57600061206c8282612098565b50600101612058565b61054591905b80821115611e7d57600061208f8282612098565b5060010161207b565b50805460018160011615610100020316600290046000825580601f106120be57506120dc565b601f0160209004906000526020600020908101906120dc9190611fcb565b50565b803561180e8161391a565b600082601f8301126120fb57600080fd5b813561210e612109826137f6565b6137cf565b9150818183526020840193506020810190508385602084028201111561213357600080fd5b60005b8381101561215f578161214988826120df565b8452506020928301929190910190600101612136565b5050505092915050565b600082601f83011261217a57600080fd5b8135612188612109826137f6565b81815260209384019390925082018360005b8381101561215f57813586016121b088826122bf565b845250602092830192919091019060010161219a565b600082601f8301126121d757600080fd5b81356121e5612109826137f6565b81815260209384019390925082018360005b8381101561215f578135860161220d88826122bf565b84525060209283019291909101906001016121f7565b600082601f83011261223457600080fd5b8135612242612109826137f6565b9150818183526020840193506020810190508385602084028201111561226757600080fd5b60005b8381101561215f578161227d88826122a9565b845250602092830192919091019060010161226a565b803561180e8161392e565b805161180e8161392e565b803561180e81613937565b805161180e81613937565b600082601f8301126122d057600080fd5b81356122de61210982613817565b915080825260208301602083018583830111156122fa57600080fd5b6123058382846138ce565b50505092915050565b600082601f83011261231f57600080fd5b815161232d61210982613817565b9150808252602083016020830185838301111561234957600080fd5b6123058382846138da565b803561180e81613940565b805161180e81613949565b60006020828403121561237c57600080fd5b600061238884846120df565b949350505050565b600080604083850312156123a357600080fd5b60006123af85856120df565b92505060206123c0858286016122a9565b9150509250929050565b600080600080600060a086880312156123e257600080fd5b853567ffffffffffffffff8111156123f957600080fd5b612405888289016120ea565b955050602086013567ffffffffffffffff81111561242257600080fd5b61242e88828901612223565b945050604086013567ffffffffffffffff81111561244b57600080fd5b612457888289016121c6565b935050606086013567ffffffffffffffff81111561247457600080fd5b61248088828901612169565b925050608086013567ffffffffffffffff81111561249d57600080fd5b6124a9888289016122bf565b9150509295509295909350565b6000602082840312156124c857600080fd5b6000612388848461229e565b6000602082840312156124e657600080fd5b600061238884846122b4565b60006020828403121561250457600080fd5b815167ffffffffffffffff81111561251b57600080fd5b6123888482850161230e565b60006020828403121561253957600080fd5b600061238884846122a9565b6000806040838503121561255857600080fd5b600061256485856122a9565b92505060206123c0858286016120df565b6000806040838503121561258857600080fd5b600061259485856122a9565b92505060206123c085828601612293565b600080600080600060a086880312156125bd57600080fd5b60006125c988886122a9565b95505060206125da88828901612293565b94505060406125eb88828901612354565b93505060606125fc888289016122a9565b92505060806124a9888289016122a9565b60006020828403121561261f57600080fd5b6000612388848461235f565b60006126378383612666565b505060200190565b6000611bef8383612808565b600061263783836127ee565b6126608161389b565b82525050565b6126608161385e565b600061267a82613851565b6126848185613855565b935061268f8361383f565b8060005b838110156126bd5781516126a7888261262b565b97506126b28361383f565b925050600101612693565b509495945050505050565b60006126d382613851565b6126dd8185613855565b9350836020820285016126ef8561383f565b8060005b85811015612729578484038952815161270c858261263f565b94506127178361383f565b60209a909a01999250506001016126f3565b5091979650505050505050565b600061274182613851565b61274b8185613855565b93508360208202850161275d8561383f565b8060005b85811015612729578484038952815161277a858261263f565b94506127858361383f565b60209a909a0199925050600101612761565b60006127a282613851565b6127ac8185613855565b93506127b78361383f565b8060005b838110156126bd5781516127cf888261264b565b97506127da8361383f565b9250506001016127bb565b61266081613869565b61266081610545565b61266061280382610545565b610545565b600061281382613851565b61281d8185613855565b935061282d8185602086016138da565b61283681613906565b9093019392505050565b60008154600181166000811461285d5760018114612883576128c2565b607f600283041661286e8187613855565b60ff19841681529550506020850192506128c2565b600282046128918187613855565b955061289c85613845565b60005b828110156128bb5781548882015260019091019060200161289f565b8701945050505b505092915050565b612660816138a2565b612660816138ad565b612660816138b8565b60006128f2603983613855565b7f476f7665726e6f72416c7068613a3a5f5f61636365707441646d696e3a20736581527f6e646572206d75737420626520676f7620677561726469616e00000000000000602082015260400192915050565b6000612951600283610ae7565b7f1901000000000000000000000000000000000000000000000000000000000000815260020192915050565b600061298a603583613855565b7f476f7665726e6f72416c7068613a70726f706f73657220766f7465732062656c81527f6f772070726f706f73616c207468726573686f6c640000000000000000000000602082015260400192915050565b60006129e9604c83613855565b7f476f7665726e6f72416c7068613a3a5f5f6578656375746553657454696d656c81527f6f636b50656e64696e6741646d696e3a2073656e646572206d7573742062652060208201527f676f7620677561726469616e0000000000000000000000000000000000000000604082015260600192915050565b6000612a6e601883613855565b7f73657450656e64696e6741646d696e2861646472657373290000000000000000815260200192915050565b6000612aa7602983613855565b7f476f7665726e6f72416c7068613a3a73746174653a20696e76616c696420707281527f6f706f73616c2069640000000000000000000000000000000000000000000000602082015260400192915050565b6000612b06604f83613855565b7f476f7665726e6f72416c7068613a206f6e65206c6976652070726f706f73616c81527f207065722070726f706f7365722c20666f756e6420616e20616c72656164792060208201527f6163746976652070726f706f73616c0000000000000000000000000000000000604082015260600192915050565b6000612b8b603b83613855565b7f476f7665726e6f72416c7068613a70726f706f73616c2063616e206f6e6c792081527f6265206578656375746564206966206974206973207175657565640000000000602082015260400192915050565b6000612bea602d83613855565b7f476f7665726e6f72416c7068613a3a5f63617374566f74653a20766f7465722081527f616c726561647920766f74656400000000000000000000000000000000000000602082015260400192915050565b6000612c49605983613855565b7f476f7665726e6f72416c7068613a3a70726f706f73653a206f6e65206c69766581527f2070726f706f73616c207065722070726f706f7365722c20666f756e6420616e60208201527f20616c72656164792070656e64696e672070726f706f73616c00000000000000604082015260600192915050565b6000612cce604a83613855565b7f476f7665726e6f72416c7068613a3a5f5f717565756553657454696d656c6f6381527f6b50656e64696e6741646d696e3a2073656e646572206d75737420626520676f60208201527f7620677561726469616e00000000000000000000000000000000000000000000604082015260600192915050565b6000612d53603a83613855565b7f476f7665726e6f72416c7068613a70726f706f73616c2066756e6374696f6e2081527f696e666f726d6174696f6e206172697479206d69736d61746368000000000000602082015260400192915050565b6000612db2601183613855565b7f6164646974696f6e206f766572666c6f77000000000000000000000000000000815260200192915050565b6000612deb604383610ae7565b7f454950373132446f6d61696e28737472696e67206e616d652c75696e7432353681527f20636861696e49642c6164647265737320766572696679696e67436f6e74726160208201527f6374290000000000000000000000000000000000000000000000000000000000604082015260430192915050565b6000612e70603c83613855565b7f476f7665726e6f72416c7068613a70726f706f73616c2063616e206f6e6c792081527f6265207175657565642069662069742069732073756363656564656400000000602082015260400192915050565b6000612ecf602783610ae7565b7f42616c6c6f742875696e743235362070726f706f73616c49642c626f6f6c207381527f7570706f72742900000000000000000000000000000000000000000000000000602082015260270192915050565b6000612f2e602f83613855565b7f476f7665726e6f72416c7068613a3a63616e63656c3a2070726f706f7365722081527f61626f7665207468726573686f6c640000000000000000000000000000000000602082015260400192915050565b6000612f8d603383613855565b7f476f7665726e6f72416c7068613a70726f706f73616c20616374696f6e20616c81527f7265616479207175657565642061742065746100000000000000000000000000602082015260400192915050565b6000612fec601e83613855565b7f476f7665726e6f72416c7068613a746f6f206d616e7920616374696f6e730000815260200192915050565b6000613025602283613855565b7f476f7665726e6f72416c7068613a6d7573742070726f7669646520616374696f81527f6e73000000000000000000000000000000000000000000000000000000000000602082015260400192915050565b6000613084602f83613855565b7f476f7665726e6f72416c7068613a3a63617374566f746542795369673a20696e81527f76616c6964207369676e61747572650000000000000000000000000000000000602082015260400192915050565b60006130e3603683613855565b7f476f7665726e6f72416c7068613a3a63616e63656c3a2063616e6e6f7420636181527f6e63656c2065786563757465642070726f706f73616c00000000000000000000602082015260400192915050565b6000613142602a83613855565b7f476f7665726e6f72416c7068613a3a5f63617374566f74653a20766f74696e6781527f20697320636c6f73656400000000000000000000000000000000000000000000602082015260400192915050565b60006131a1601583613855565b7f7375627472616374696f6e20756e646572666c6f770000000000000000000000815260200192915050565b60006131da603683613855565b7f476f7665726e6f72416c7068613a3a5f5f61626469636174653a2073656e646581527f72206d75737420626520676f7620677561726469616e00000000000000000000602082015260400192915050565b8051606083019061323d84826127e5565b50602082015161325060208501826127e5565b5060408201516110cf6040850182613275565b61266081613884565b612660816138c3565b6126608161388a565b600061328982612944565b915061329582856127f7565b6020820191506132a582846127f7565b5060200192915050565b600061180e82612dde565b600061180e82612ec2565b6020810161180e8284612666565b604081016132e18285612657565b611bef60208301846127ee565b60a081016132fc8287612666565b61330960208301866128dc565b818103604083015261331a81612a61565b9050818103606083015261332e8185612808565b905061150860808301846127ee565b604081016132e18285612666565b608081016133598287612666565b61336660208301866127ee565b61337360408301856127e5565b611508606083018461326c565b60a0810161338e8288612666565b61339b60208301876127ee565b81810360408301526133ad8186612808565b905081810360608301526133c18185612808565b90506133d060808301846127ee565b9695505050505050565b60a081016133e88288612666565b6133f560208301876127ee565b81810360408301526134078186612840565b905081810360608301526133c18185612840565b6080808252810161342c818761266f565b905081810360208301526134408186612797565b905081810360408301526134548185612736565b905081810360608301526133d081846126c8565b6020810161180e82846127ee565b6080810161348482876127ee565b61349160208301866127ee565b61349e60408301856127ee565b6115086060830184612666565b606081016134b982866127ee565b6134c660208301856127ee565b61238860408301846127e5565b608081016134e182876127ee565b6134ee6020830186613263565b6134fb60408301856127ee565b61150860608301846127ee565b6020810161180e82846128ca565b6020810161180e82846128d3565b60208082528101611bef8184612808565b6020808252810161180e816128e5565b6020808252810161180e8161297d565b6020808252810161180e816129dc565b6020808252810161180e81612a9a565b6020808252810161180e81612af9565b6020808252810161180e81612b7e565b6020808252810161180e81612bdd565b6020808252810161180e81612c3c565b6020808252810161180e81612cc1565b6020808252810161180e81612d46565b6020808252810161180e81612da5565b6020808252810161180e81612e63565b6020808252810161180e81612f21565b6020808252810161180e81612f80565b6020808252810161180e81612fdf565b6020808252810161180e81613018565b6020808252810161180e81613077565b6020808252810161180e816130d6565b6020808252810161180e81613135565b6020808252810161180e81613194565b6020808252810161180e816131cd565b6060810161180e828461322c565b61012081016136a2828c6127ee565b6136af602083018b612657565b81810360408301526136c1818a61266f565b905081810360608301526136d58189612797565b905081810360808301526136e98188612736565b905081810360a08301526136fd81876126c8565b905061370c60c08301866127ee565b61371960e08301856127ee565b81810361010083015261372c8184612808565b9b9a5050505050505050505050565b610120810161374a828c6127ee565b613757602083018b612666565b613764604083018a6127ee565b61377160608301896127ee565b61377e60808301886127ee565b61378b60a08301876127ee565b61379860c08301866127ee565b6137a560e08301856127e5565b6137b36101008301846127e5565b9a9950505050505050505050565b604081016132e182856127ee565b60405181810167ffffffffffffffff811182821017156137ee57600080fd5b604052919050565b600067ffffffffffffffff82111561380d57600080fd5b5060209081020190565b600067ffffffffffffffff82111561382e57600080fd5b506020601f91909101601f19160190565b60200190565b60009081526020902090565b5190565b90815260200190565b600061180e82613878565b151590565b80610ae781613910565b6001600160a01b031690565b60ff1690565b6bffffffffffffffffffffffff1690565b600061180e825b600061180e8261385e565b600061180e8261386e565b600061180e82610545565b600061180e8261388a565b82818337506000910152565b60005b838110156138f55781810151838201526020016138dd565b838111156110cf5750506000910152565b601f01601f191690565b600881106120dc57fe5b6139238161385e565b81146120dc57600080fd5b61392381613869565b61392381610545565b61392381613884565b6139238161388a56fea365627a7a72315820506febb7064a8d70696d5e93d7e7d1a2d5b3aa501ae84d02d938959c0d8e83de6c6578706572696d656e74616cf564736f6c63430005100040",
  "libraries": {
    "Strings": "0x1B8891353b1A54B478dFdD8060b0cf94a2cBAB05",
    "AddressSet": "0x67Dd4EE3e8E52c2938Ff45AF2e050954c860d24E",
    "UInt256Set": "0x93Ab80e063b38A95340C1A77905498453182d46b",
    "Create2": "0x9cF534EC3A43b86fced3f58239572E970778f99d",
    "WrappedTokenLib": "0xa64C55472a6846DBeE76fD9e9A7700B3af73b702",
    "ComplexPoolLib": "0x88e1b252F7873Da663713f1784C1283feFf2f880"
  },
  "devdoc": {
    "methods": {}
  },
  "userdoc": {
    "methods": {
      "proposalMaxOperations()": {
        "notice": "The maximum number of actions that can be included in a proposal"
      },
      "proposalThreshold()": {
        "notice": "The number of votes required in order for a voter to become a proposer"
      },
      "quorumVotes()": {
        "notice": "The number of votes in support of a proposal required in order for a quorum to be reached and for a vote to succeed"
      },
      "votingDelay()": {
        "notice": "The delay before voting on a proposal may take place, once proposed"
      },
      "votingPeriod()": {
        "notice": "The duration of voting on a proposal, in blocks"
      }
    }
  },
  "storageLayout": {
    "storage": [
      {
        "astId": 47,
        "contract": "src/governance/GovernorAlpha.sol:GovernorAlpha",
        "label": "timelock",
        "offset": 0,
        "slot": "0",
        "type": "t_contract(TimelockInterface)1233"
      },
      {
        "astId": 49,
        "contract": "src/governance/GovernorAlpha.sol:GovernorAlpha",
        "label": "comp",
        "offset": 0,
        "slot": "1",
        "type": "t_contract(CompInterface)1243"
      },
      {
        "astId": 51,
        "contract": "src/governance/GovernorAlpha.sol:GovernorAlpha",
        "label": "guardian",
        "offset": 0,
        "slot": "2",
        "type": "t_address"
      },
      {
        "astId": 53,
        "contract": "src/governance/GovernorAlpha.sol:GovernorAlpha",
        "label": "proposalCount",
        "offset": 0,
        "slot": "3",
        "type": "t_uint256"
      },
      {
        "astId": 108,
        "contract": "src/governance/GovernorAlpha.sol:GovernorAlpha",
        "label": "proposals",
        "offset": 0,
        "slot": "4",
        "type": "t_mapping(t_uint256,t_struct(Proposal)88_storage)"
      },
      {
        "astId": 112,
        "contract": "src/governance/GovernorAlpha.sol:GovernorAlpha",
        "label": "latestProposalIds",
        "offset": 0,
        "slot": "5",
        "type": "t_mapping(t_address,t_uint256)"
      }
    ],
    "types": {
      "t_address": {
        "encoding": "inplace",
        "label": "address",
        "numberOfBytes": "20"
      },
      "t_array(t_address)dyn_storage": {
        "base": "t_address",
        "encoding": "dynamic_array",
        "label": "address[]",
        "numberOfBytes": "32"
      },
      "t_array(t_bytes_storage)dyn_storage": {
        "base": "t_bytes_storage",
        "encoding": "dynamic_array",
        "label": "bytes[]",
        "numberOfBytes": "32"
      },
      "t_array(t_string_storage)dyn_storage": {
        "base": "t_string_storage",
        "encoding": "dynamic_array",
        "label": "string[]",
        "numberOfBytes": "32"
      },
      "t_array(t_uint256)dyn_storage": {
        "base": "t_uint256",
        "encoding": "dynamic_array",
        "label": "uint256[]",
        "numberOfBytes": "32"
      },
      "t_bool": {
        "encoding": "inplace",
        "label": "bool",
        "numberOfBytes": "1"
      },
      "t_bytes_storage": {
        "encoding": "bytes",
        "label": "bytes",
        "numberOfBytes": "32"
      },
      "t_contract(CompInterface)1243": {
        "encoding": "inplace",
        "label": "contract CompInterface",
        "numberOfBytes": "20"
      },
      "t_contract(TimelockInterface)1233": {
        "encoding": "inplace",
        "label": "contract TimelockInterface",
        "numberOfBytes": "20"
      },
      "t_mapping(t_address,t_struct(Receipt)95_storage)": {
        "encoding": "mapping",
        "key": "t_address",
        "label": "mapping(address => struct GovernorAlpha.Receipt)",
        "numberOfBytes": "32",
        "value": "t_struct(Receipt)95_storage"
      },
      "t_mapping(t_address,t_uint256)": {
        "encoding": "mapping",
        "key": "t_address",
        "label": "mapping(address => uint256)",
        "numberOfBytes": "32",
        "value": "t_uint256"
      },
      "t_mapping(t_uint256,t_struct(Proposal)88_storage)": {
        "encoding": "mapping",
        "key": "t_uint256",
        "label": "mapping(uint256 => struct GovernorAlpha.Proposal)",
        "numberOfBytes": "32",
        "value": "t_struct(Proposal)88_storage"
      },
      "t_string_storage": {
        "encoding": "bytes",
        "label": "string",
        "numberOfBytes": "32"
      },
      "t_struct(Proposal)88_storage": {
        "encoding": "inplace",
        "label": "struct GovernorAlpha.Proposal",
        "members": [
          {
            "astId": 55,
            "contract": "src/governance/GovernorAlpha.sol:GovernorAlpha",
            "label": "id",
            "offset": 0,
            "slot": "0",
            "type": "t_uint256"
          },
          {
            "astId": 57,
            "contract": "src/governance/GovernorAlpha.sol:GovernorAlpha",
            "label": "proposer",
            "offset": 0,
            "slot": "1",
            "type": "t_address"
          },
          {
            "astId": 59,
            "contract": "src/governance/GovernorAlpha.sol:GovernorAlpha",
            "label": "eta",
            "offset": 0,
            "slot": "2",
            "type": "t_uint256"
          },
          {
            "astId": 62,
            "contract": "src/governance/GovernorAlpha.sol:GovernorAlpha",
            "label": "targets",
            "offset": 0,
            "slot": "3",
            "type": "t_array(t_address)dyn_storage"
          },
          {
            "astId": 65,
            "contract": "src/governance/GovernorAlpha.sol:GovernorAlpha",
            "label": "values",
            "offset": 0,
            "slot": "4",
            "type": "t_array(t_uint256)dyn_storage"
          },
          {
            "astId": 68,
            "contract": "src/governance/GovernorAlpha.sol:GovernorAlpha",
            "label": "signatures",
            "offset": 0,
            "slot": "5",
            "type": "t_array(t_string_storage)dyn_storage"
          },
          {
            "astId": 71,
            "contract": "src/governance/GovernorAlpha.sol:GovernorAlpha",
            "label": "calldatas",
            "offset": 0,
            "slot": "6",
            "type": "t_array(t_bytes_storage)dyn_storage"
          },
          {
            "astId": 73,
            "contract": "src/governance/GovernorAlpha.sol:GovernorAlpha",
            "label": "startBlock",
            "offset": 0,
            "slot": "7",
            "type": "t_uint256"
          },
          {
            "astId": 75,
            "contract": "src/governance/GovernorAlpha.sol:GovernorAlpha",
            "label": "endBlock",
            "offset": 0,
            "slot": "8",
            "type": "t_uint256"
          },
          {
            "astId": 77,
            "contract": "src/governance/GovernorAlpha.sol:GovernorAlpha",
            "label": "forVotes",
            "offset": 0,
            "slot": "9",
            "type": "t_uint256"
          },
          {
            "astId": 79,
            "contract": "src/governance/GovernorAlpha.sol:GovernorAlpha",
            "label": "againstVotes",
            "offset": 0,
            "slot": "10",
            "type": "t_uint256"
          },
          {
            "astId": 81,
            "contract": "src/governance/GovernorAlpha.sol:GovernorAlpha",
            "label": "canceled",
            "offset": 0,
            "slot": "11",
            "type": "t_bool"
          },
          {
            "astId": 83,
            "contract": "src/governance/GovernorAlpha.sol:GovernorAlpha",
            "label": "executed",
            "offset": 1,
            "slot": "11",
            "type": "t_bool"
          },
          {
            "astId": 87,
            "contract": "src/governance/GovernorAlpha.sol:GovernorAlpha",
            "label": "receipts",
            "offset": 0,
            "slot": "12",
            "type": "t_mapping(t_address,t_struct(Receipt)95_storage)"
          }
        ],
        "numberOfBytes": "416"
      },
      "t_struct(Receipt)95_storage": {
        "encoding": "inplace",
        "label": "struct GovernorAlpha.Receipt",
        "members": [
          {
            "astId": 90,
            "contract": "src/governance/GovernorAlpha.sol:GovernorAlpha",
            "label": "hasVoted",
            "offset": 0,
            "slot": "0",
            "type": "t_bool"
          },
          {
            "astId": 92,
            "contract": "src/governance/GovernorAlpha.sol:GovernorAlpha",
            "label": "support",
            "offset": 1,
            "slot": "0",
            "type": "t_bool"
          },
          {
            "astId": 94,
            "contract": "src/governance/GovernorAlpha.sol:GovernorAlpha",
            "label": "votes",
            "offset": 2,
            "slot": "0",
            "type": "t_uint96"
          }
        ],
        "numberOfBytes": "32"
      },
      "t_uint256": {
        "encoding": "inplace",
        "label": "uint256",
        "numberOfBytes": "32"
      },
      "t_uint96": {
        "encoding": "inplace",
        "label": "uint96",
        "numberOfBytes": "12"
      }
    }
  }
}