{
  "address": "0x816f4bF1E6b2D7A8aa15dFA953e2991D7fAd128c",
  "abi": [
    {
      "inputs": [
        {
          "internalType": "address",
          "name": "input",
          "type": "address"
        }
      ],
      "name": "proxies",
      "outputs": [
        {
          "internalType": "address",
          "name": "",
          "type": "address"
        }
      ],
      "stateMutability": "pure",
      "type": "function"
    }
  ],
  "transactionHash": "0xe392bc4f8b9130e703de6167f6ea3bcb722ad40ac963954faae32dd62b1a0489",
  "args": [],
  "solcInputHash": "8ba6fa334a632d496dbf0810657475cd",
  "bytecode": "0x608060405234801561001057600080fd5b5060e38061001f6000396000f3fe6080604052348015600f57600080fd5b506004361060285760003560e01c8063c455279114602d575b600080fd5b603c60383660046053565b6050565b60405160479190608c565b60405180910390f35b90565b6000602082840312156063578081fd5b813573ffffffffffffffffffffffffffffffffffffffff811681146085578182fd5b9392505050565b73ffffffffffffffffffffffffffffffffffffffff9190911681526020019056fea2646970667358221220387fd50d8d956ba770f0dbdcd1e604ca2075a1363f1aa1c19461431794b1a6e864736f6c63430008000033",
  "libraries": {
    "Strings": "0x1B8891353b1A54B478dFdD8060b0cf94a2cBAB05",
    "AddressSet": "0x67Dd4EE3e8E52c2938Ff45AF2e050954c860d24E",
    "UInt256Set": "0x93Ab80e063b38A95340C1A77905498453182d46b",
    "Create2": "0x9cF534EC3A43b86fced3f58239572E970778f99d",
    "WrappedTokenLib": "0xa64C55472a6846DBeE76fD9e9A7700B3af73b702",
    "ComplexPoolLib": "0x88e1b252F7873Da663713f1784C1283feFf2f880"
  },
  "devdoc": {
    "details": "a mock object for testing",
    "kind": "dev",
    "methods": {},
    "version": 1
  },
  "userdoc": {
    "kind": "user",
    "methods": {},
    "version": 1
  },
  "storageLayout": {
    "storage": [],
    "types": null
  }
}