{
  "address": "0x066e63179cAC79B84226436E7BFAd6C3B9e1E8Ee",
  "abi": [
    {
      "inputs": [],
      "name": "COIN",
      "outputs": [
        {
          "internalType": "address",
          "name": "weth",
          "type": "address"
        }
      ],
      "stateMutability": "pure",
      "type": "function"
    },
    {
      "inputs": [
        {
          "internalType": "address",
          "name": "",
          "type": "address"
        },
        {
          "internalType": "uint256",
          "name": "tokenAmount",
          "type": "uint256"
        }
      ],
      "name": "coinQuote",
      "outputs": [
        {
          "internalType": "uint256",
          "name": "ethereum",
          "type": "uint256"
        },
        {
          "internalType": "uint256",
          "name": "tokenReserve",
          "type": "uint256"
        },
        {
          "internalType": "uint256",
          "name": "ethReserve",
          "type": "uint256"
        }
      ],
      "stateMutability": "pure",
      "type": "function"
    },
    {
      "inputs": [],
      "name": "factory",
      "outputs": [
        {
          "internalType": "address",
          "name": "fac",
          "type": "address"
        }
      ],
      "stateMutability": "pure",
      "type": "function"
    },
    {
      "inputs": [
        {
          "internalType": "address",
          "name": "",
          "type": "address"
        },
        {
          "internalType": "address",
          "name": "",
          "type": "address"
        }
      ],
      "name": "getPair",
      "outputs": [
        {
          "internalType": "address",
          "name": "pair",
          "type": "address"
        }
      ],
      "stateMutability": "pure",
      "type": "function"
    },
    {
      "inputs": [
        {
          "internalType": "address",
          "name": "",
          "type": "address"
        }
      ],
      "name": "getPathForCoinToToken",
      "outputs": [
        {
          "internalType": "address[]",
          "name": "",
          "type": "address[]"
        }
      ],
      "stateMutability": "pure",
      "type": "function"
    },
    {
      "inputs": [
        {
          "internalType": "address",
          "name": "",
          "type": "address"
        }
      ],
      "name": "getReserves",
      "outputs": [
        {
          "internalType": "uint256",
          "name": "reserveA",
          "type": "uint256"
        },
        {
          "internalType": "uint256",
          "name": "reserveB",
          "type": "uint256"
        }
      ],
      "stateMutability": "pure",
      "type": "function"
    },
    {
      "inputs": [
        {
          "internalType": "address",
          "name": "",
          "type": "address"
        }
      ],
      "name": "hasPool",
      "outputs": [
        {
          "internalType": "bool",
          "name": "",
          "type": "bool"
        }
      ],
      "stateMutability": "pure",
      "type": "function"
    },
    {
      "inputs": [
        {
          "internalType": "address",
          "name": "",
          "type": "address"
        }
      ],
      "name": "setFactory",
      "outputs": [],
      "stateMutability": "nonpayable",
      "type": "function"
    }
  ],
  "transactionHash": "0xf83e4aab31ce3858ef74a74de7865f825d5328271fe640056f2a0c4f58c42e03",
  "args": [],
  "solcInputHash": "1c25a8abf6ef90385cc04e5ab5ac21c1",
  "bytecode": "0x608060405234801561001057600080fd5b506103d6806100206000396000f3fe608060405234801561001057600080fd5b50600436106100885760003560e01c8063868d2d1e1161005b578063868d2d1e1461010c578063a54a72b71461012e578063c45a015514610143578063e6a439051461014b57610088565b8063096666961461008d5780631246dbf5146100b65780633e99c1e4146100d65780635bb47808146100f7575b600080fd5b6100a061009b3660046101df565b61015e565b6040516100ad919061027c565b60405180910390f35b6100c96100c43660046101df565b610166565b6040516100ad91906102d6565b6100e96100e43660046101df565b61016c565b6040516100ad9291906102e1565b61010a6101053660046101df565b610174565b005b61011f61011a366004610232565b610177565b6040516100ad939291906102ef565b6101366101a9565b6040516100ad919061025b565b6101366101ae565b610136610159366004610200565b6101b3565b60605b919050565b50600190565b506000908190565b50565b60008080610186600a85610305565b6101918560c861033e565b61019c86601461033e565b9250925092509250925092565b606390565b600090565b600092915050565b803573ffffffffffffffffffffffffffffffffffffffff8116811461016157600080fd5b6000602082840312156101f0578081fd5b6101f9826101bb565b9392505050565b60008060408385031215610212578081fd5b61021b836101bb565b9150610229602084016101bb565b90509250929050565b60008060408385031215610244578182fd5b61024d836101bb565b946020939093013593505050565b73ffffffffffffffffffffffffffffffffffffffff91909116815260200190565b6020808252825182820181905260009190848201906040850190845b818110156102ca57835173ffffffffffffffffffffffffffffffffffffffff1683529284019291840191600101610298565b50909695505050505050565b901515815260200190565b918252602082015260400190565b9283526020830191909152604082015260600190565b600082610339577f4e487b710000000000000000000000000000000000000000000000000000000081526012600452602481fd5b500490565b6000817fffffffffffffffffffffffffffffffffffffffffffffffffffffffffffffffff048311821515161561039b577f4e487b710000000000000000000000000000000000000000000000000000000081526011600452602481fd5b50029056fea26469706673582212203ef72bc46c1e361bfe810ed0023fef476abe8ce60b6e1f7f06a820a4242100da64736f6c63430008000033",
  "libraries": {
    "Strings": "0xFa512c40BEE39549a142a1fB98e8aaa372Df39d0",
    "AddressSet": "0x559C4e3D1740ed87B8f6bA71D9333457c09637Bf",
    "UInt256Set": "0x6856b7A1eA4fA03A30c4BE254cD9B52b9F5EF9a1",
    "Create2": "0x0Aa7dAF27720622afdcC0C898ee0C4e0D4c7f461",
    "WrappedTokenLib": "0x07409045Ffd6C5447CaFd8317C1961e8E5FE06bc",
    "ComplexPoolLib": "0x0D93291B8e51b5F076652eE0425369650732f34E"
  },
  "devdoc": {
    "details": "Mock helper for local network",
    "kind": "dev",
    "methods": {
      "COIN()": {
        "details": "does a Uniswap pool exist for this token?"
      },
      "coinQuote(address,uint256)": {
        "details": "Get a quote in Ethereum for the given ERC20 token / token amount"
      },
      "factory()": {
        "details": "does a Uniswap pool exist for this token?"
      },
      "getPair(address,address)": {
        "details": "looks for a pool vs weth"
      },
      "getPathForCoinToToken(address)": {
        "details": "Get a path for ethereum to the given token"
      },
      "getReserves(address)": {
        "details": "Get the pair reserves given two erc20 tokens"
      },
      "hasPool(address)": {
        "details": "does token have a pool"
      },
      "setFactory(address)": {
        "details": "set factory"
      }
    },
    "version": 1
  },
  "userdoc": {
    "kind": "user",
    "methods": {},
    "version": 1
  },
  "storageLayout": {
    "storage": [],
    "types": null
  }
}