{
  "address": "0x12642D3f3617Af562F240C9081C12EB3752057E1",
  "abi": [
    {
      "inputs": [
        {
          "internalType": "address",
          "name": "input",
          "type": "address"
        }
      ],
      "name": "proxies",
      "outputs": [
        {
          "internalType": "address",
          "name": "",
          "type": "address"
        }
      ],
      "stateMutability": "pure",
      "type": "function"
    }
  ],
  "transactionHash": "0x209d14bd8f7246938204d9aa5fde2e8c45eca6052f50b2943917d95ed6bb7879",
  "args": [],
  "solcInputHash": "f7db6b1f25e0c8f255cf213f7a96a514",
  "bytecode": "0x608060405234801561001057600080fd5b5060bf8061001f6000396000f3fe6080604052348015600f57600080fd5b506004361060285760003560e01c8063c455279114602d575b600080fd5b605d60048036036020811015604157600080fd5b503573ffffffffffffffffffffffffffffffffffffffff166086565b6040805173ffffffffffffffffffffffffffffffffffffffff9092168252519081900360200190f35b9056fea2646970667358221220a127e801d8a09007293e90e906e317dc6c2ba070e3ece4189c8020a0720bca3464736f6c63430007030033",
  "libraries": {
    "GovernanceLib": "0x8B4207A13a5a13bDb2bBf15c137820e61e3c4AAc",
    "Strings": "0x98cCd9cb27398a6595f15cbC4b63AC525b942aad",
    "SafeMath": "0xD34a551B4a262230a373D376dDf8aADb2B0D49FD",
    "AddressSet": "0x54812B41409912bD065E9d3920ce196Ff9BFc995",
    "UInt256Set": "0xA511e209A01E27d134b4F564263f7Db8FCBDeba6",
    "Create2": "0x358266069e53B88520472B2898791A77d92E4054",
    "ProposalsLib": "0xF4899C94a0319825b341775E4387b1C5081b9d1B",
    "ComplexPoolLib": "0xd8bf0D941FC41e44f383d78183807669c230BDed",
    "WrappedTokenLib": "0xbAfcEF1739ab31E775687D657178640124A20E8e"
  },
  "devdoc": {
    "kind": "dev",
    "methods": {},
    "version": 1
  },
  "userdoc": {
    "kind": "user",
    "methods": {},
    "version": 1
  },
  "storageLayout": {
    "storage": [],
    "types": null
  }
}