{
  "address": "0x5bbE9d7b3bFE1f910ecc8aaD69E2c3969c1d7850",
  "abi": [
    {
      "inputs": [],
      "name": "COIN",
      "outputs": [
        {
          "internalType": "address",
          "name": "weth",
          "type": "address"
        }
      ],
      "stateMutability": "pure",
      "type": "function"
    },
    {
      "inputs": [
        {
          "internalType": "address",
          "name": "",
          "type": "address"
        },
        {
          "internalType": "uint256",
          "name": "tokenAmount",
          "type": "uint256"
        }
      ],
      "name": "coinQuote",
      "outputs": [
        {
          "internalType": "uint256",
          "name": "ethereum",
          "type": "uint256"
        },
        {
          "internalType": "uint256",
          "name": "tokenReserve",
          "type": "uint256"
        },
        {
          "internalType": "uint256",
          "name": "ethReserve",
          "type": "uint256"
        }
      ],
      "stateMutability": "pure",
      "type": "function"
    },
    {
      "inputs": [],
      "name": "factory",
      "outputs": [
        {
          "internalType": "address",
          "name": "fac",
          "type": "address"
        }
      ],
      "stateMutability": "pure",
      "type": "function"
    },
    {
      "inputs": [
        {
          "internalType": "address",
          "name": "",
          "type": "address"
        },
        {
          "internalType": "address",
          "name": "",
          "type": "address"
        }
      ],
      "name": "getPair",
      "outputs": [
        {
          "internalType": "address",
          "name": "pair",
          "type": "address"
        }
      ],
      "stateMutability": "pure",
      "type": "function"
    },
    {
      "inputs": [
        {
          "internalType": "address",
          "name": "",
          "type": "address"
        }
      ],
      "name": "getPathForCoinToToken",
      "outputs": [
        {
          "internalType": "address[]",
          "name": "",
          "type": "address[]"
        }
      ],
      "stateMutability": "pure",
      "type": "function"
    },
    {
      "inputs": [
        {
          "internalType": "address",
          "name": "",
          "type": "address"
        }
      ],
      "name": "getReserves",
      "outputs": [
        {
          "internalType": "uint256",
          "name": "reserveA",
          "type": "uint256"
        },
        {
          "internalType": "uint256",
          "name": "reserveB",
          "type": "uint256"
        }
      ],
      "stateMutability": "pure",
      "type": "function"
    },
    {
      "inputs": [
        {
          "internalType": "address",
          "name": "",
          "type": "address"
        }
      ],
      "name": "hasPool",
      "outputs": [
        {
          "internalType": "bool",
          "name": "",
          "type": "bool"
        }
      ],
      "stateMutability": "pure",
      "type": "function"
    },
    {
      "inputs": [
        {
          "internalType": "address",
          "name": "",
          "type": "address"
        }
      ],
      "name": "setFactory",
      "outputs": [],
      "stateMutability": "nonpayable",
      "type": "function"
    }
  ],
  "transactionHash": "0x362e60e14df3d3861b7d4e1c71ada714f8bf24d2e7f2ba7d64f5776f06b5bfb5",
  "args": [],
  "solcInputHash": "7d18b36fc9d0f37073003b6f2b916a6c",
  "bytecode": "0x608060405234801561001057600080fd5b506103d6806100206000396000f3fe608060405234801561001057600080fd5b50600436106100885760003560e01c8063868d2d1e1161005b578063868d2d1e1461010c578063a54a72b71461012e578063c45a015514610143578063e6a439051461014b57610088565b8063096666961461008d5780631246dbf5146100b65780633e99c1e4146100d65780635bb47808146100f7575b600080fd5b6100a061009b3660046101df565b61015e565b6040516100ad919061027c565b60405180910390f35b6100c96100c43660046101df565b610166565b6040516100ad91906102d6565b6100e96100e43660046101df565b61016c565b6040516100ad9291906102e1565b61010a6101053660046101df565b610174565b005b61011f61011a366004610232565b610177565b6040516100ad939291906102ef565b6101366101a9565b6040516100ad919061025b565b6101366101ae565b610136610159366004610200565b6101b3565b60605b919050565b50600190565b506000908190565b50565b60008080610186600a85610305565b6101918560c861033e565b61019c86601461033e565b9250925092509250925092565b606390565b600090565b600092915050565b803573ffffffffffffffffffffffffffffffffffffffff8116811461016157600080fd5b6000602082840312156101f0578081fd5b6101f9826101bb565b9392505050565b60008060408385031215610212578081fd5b61021b836101bb565b9150610229602084016101bb565b90509250929050565b60008060408385031215610244578182fd5b61024d836101bb565b946020939093013593505050565b73ffffffffffffffffffffffffffffffffffffffff91909116815260200190565b6020808252825182820181905260009190848201906040850190845b818110156102ca57835173ffffffffffffffffffffffffffffffffffffffff1683529284019291840191600101610298565b50909695505050505050565b901515815260200190565b918252602082015260400190565b9283526020830191909152604082015260600190565b600082610339577f4e487b710000000000000000000000000000000000000000000000000000000081526012600452602481fd5b500490565b6000817fffffffffffffffffffffffffffffffffffffffffffffffffffffffffffffffff048311821515161561039b577f4e487b710000000000000000000000000000000000000000000000000000000081526011600452602481fd5b50029056fea2646970667358221220c5fdfd041488c6381678a1204509081b664da1e9bc3445144ecd3cb97cc1ff7f64736f6c63430008000033",
  "libraries": {
    "Strings": "0x9cd2aa68ecCF27b393E825c6fC844eF4217D4c22",
    "AddressSet": "0x22221807f0E47654729213994D40ea8c5e23892F",
    "UInt256Set": "0x0690fedAEc49A5Bd4c2fb723Cf3F0114E57014BC",
    "Create2": "0x931Fd76E170a15918409dBA587F0802da03845AD",
    "WrappedTokenLib": "0x5E99B7A7e6855BEdaa31d0Fca1117bFb7cF23e2e",
    "ComplexPoolLib": "0xc59f6643335979369672a05Db01FeC97fB219608"
  },
  "devdoc": {
    "details": "Mock helper for local network",
    "kind": "dev",
    "methods": {
      "COIN()": {
        "details": "does a Uniswap pool exist for this token?"
      },
      "coinQuote(address,uint256)": {
        "details": "Get a quote in Ethereum for the given ERC20 token / token amount"
      },
      "factory()": {
        "details": "does a Uniswap pool exist for this token?"
      },
      "getPair(address,address)": {
        "details": "looks for a pool vs weth"
      },
      "getPathForCoinToToken(address)": {
        "details": "Get a path for ethereum to the given token"
      },
      "getReserves(address)": {
        "details": "Get the pair reserves given two erc20 tokens"
      },
      "hasPool(address)": {
        "details": "does token have a pool"
      },
      "setFactory(address)": {
        "details": "set factory"
      }
    },
    "version": 1
  },
  "userdoc": {
    "kind": "user",
    "methods": {},
    "version": 1
  },
  "storageLayout": {
    "storage": [],
    "types": null
  }
}