{
  "address": "0xd3C50f3c8Dd1bDe401937E1783603f1Fc4077bA3",
  "abi": [
    {
      "inputs": [],
      "stateMutability": "nonpayable",
      "type": "constructor"
    },
    {
      "anonymous": false,
      "inputs": [
        {
          "indexed": true,
          "internalType": "address",
          "name": "contractAddress",
          "type": "address"
        },
        {
          "indexed": true,
          "internalType": "address",
          "name": "controllerAddress",
          "type": "address"
        }
      ],
      "name": "ControllerAdded",
      "type": "event"
    },
    {
      "anonymous": false,
      "inputs": [
        {
          "indexed": true,
          "internalType": "address",
          "name": "contractAddress",
          "type": "address"
        },
        {
          "indexed": true,
          "internalType": "address",
          "name": "controllerAddress",
          "type": "address"
        }
      ],
      "name": "ControllerRemoved",
      "type": "event"
    },
    {
      "anonymous": false,
      "inputs": [
        {
          "indexed": false,
          "internalType": "address",
          "name": "account",
          "type": "address"
        },
        {
          "indexed": false,
          "internalType": "address",
          "name": "pool",
          "type": "address"
        },
        {
          "indexed": false,
          "internalType": "uint256",
          "name": "claimHash",
          "type": "uint256"
        },
        {
          "indexed": false,
          "internalType": "uint256",
          "name": "length",
          "type": "uint256"
        },
        {
          "indexed": false,
          "internalType": "uint256",
          "name": "quantity",
          "type": "uint256"
        },
        {
          "indexed": false,
          "internalType": "uint256",
          "name": "amountPaid",
          "type": "uint256"
        }
      ],
      "name": "NFTGemClaimCreated",
      "type": "event"
    },
    {
      "anonymous": false,
      "inputs": [
        {
          "indexed": false,
          "internalType": "address",
          "name": "account",
          "type": "address"
        },
        {
          "indexed": false,
          "internalType": "address",
          "name": "pool",
          "type": "address"
        },
        {
          "indexed": false,
          "internalType": "uint256",
          "name": "claimHash",
          "type": "uint256"
        },
        {
          "indexed": false,
          "internalType": "uint256",
          "name": "amountPaid",
          "type": "uint256"
        },
        {
          "indexed": false,
          "internalType": "uint256",
          "name": "feeAssessed",
          "type": "uint256"
        }
      ],
      "name": "NFTGemClaimRedeemed",
      "type": "event"
    },
    {
      "anonymous": false,
      "inputs": [
        {
          "indexed": false,
          "internalType": "address",
          "name": "account",
          "type": "address"
        },
        {
          "indexed": false,
          "internalType": "address",
          "name": "pool",
          "type": "address"
        },
        {
          "indexed": false,
          "internalType": "uint256",
          "name": "claimHash",
          "type": "uint256"
        },
        {
          "indexed": false,
          "internalType": "uint256",
          "name": "gemHash",
          "type": "uint256"
        },
        {
          "indexed": false,
          "internalType": "uint256",
          "name": "quantity",
          "type": "uint256"
        }
      ],
      "name": "NFTGemCreated",
      "type": "event"
    },
    {
      "anonymous": false,
      "inputs": [
        {
          "indexed": false,
          "internalType": "address",
          "name": "account",
          "type": "address"
        },
        {
          "indexed": false,
          "internalType": "address",
          "name": "pool",
          "type": "address"
        },
        {
          "indexed": false,
          "internalType": "uint256",
          "name": "claimHash",
          "type": "uint256"
        },
        {
          "indexed": false,
          "internalType": "uint256",
          "name": "length",
          "type": "uint256"
        },
        {
          "indexed": false,
          "internalType": "address",
          "name": "token",
          "type": "address"
        },
        {
          "indexed": false,
          "internalType": "uint256",
          "name": "quantity",
          "type": "uint256"
        },
        {
          "indexed": false,
          "internalType": "uint256",
          "name": "conversionRate",
          "type": "uint256"
        }
      ],
      "name": "NFTGemERC20ClaimCreated",
      "type": "event"
    },
    {
      "anonymous": false,
      "inputs": [
        {
          "indexed": false,
          "internalType": "address",
          "name": "account",
          "type": "address"
        },
        {
          "indexed": false,
          "internalType": "address",
          "name": "pool",
          "type": "address"
        },
        {
          "indexed": false,
          "internalType": "uint256",
          "name": "claimHash",
          "type": "uint256"
        },
        {
          "indexed": false,
          "internalType": "address",
          "name": "token",
          "type": "address"
        },
        {
          "indexed": false,
          "internalType": "uint256",
          "name": "ethPrice",
          "type": "uint256"
        },
        {
          "indexed": false,
          "internalType": "uint256",
          "name": "tokenAmount",
          "type": "uint256"
        },
        {
          "indexed": false,
          "internalType": "uint256",
          "name": "feeAssessed",
          "type": "uint256"
        }
      ],
      "name": "NFTGemERC20ClaimRedeemed",
      "type": "event"
    },
    {
      "inputs": [
        {
          "internalType": "address",
          "name": "token",
          "type": "address"
        }
      ],
      "name": "addAllowedToken",
      "outputs": [],
      "stateMutability": "nonpayable",
      "type": "function"
    },
    {
      "inputs": [
        {
          "internalType": "address",
          "name": "_controller",
          "type": "address"
        }
      ],
      "name": "addController",
      "outputs": [],
      "stateMutability": "nonpayable",
      "type": "function"
    },
    {
      "inputs": [
        {
          "internalType": "address",
          "name": "token",
          "type": "address"
        },
        {
          "internalType": "address",
          "name": "pool",
          "type": "address"
        },
        {
          "internalType": "uint8",
          "name": "inputType",
          "type": "uint8"
        },
        {
          "internalType": "uint256",
          "name": "tokenId",
          "type": "uint256"
        },
        {
          "internalType": "uint256",
          "name": "minAmount",
          "type": "uint256"
        },
        {
          "internalType": "bool",
          "name": "burn",
          "type": "bool"
        }
      ],
      "name": "addInputRequirement",
      "outputs": [],
      "stateMutability": "nonpayable",
      "type": "function"
    },
    {
      "inputs": [
        {
          "internalType": "uint256",
          "name": "ndx",
          "type": "uint256"
        }
      ],
      "name": "allTokenHashes",
      "outputs": [
        {
          "internalType": "uint256",
          "name": "",
          "type": "uint256"
        }
      ],
      "stateMutability": "view",
      "type": "function"
    },
    {
      "inputs": [],
      "name": "allTokenHashesLength",
      "outputs": [
        {
          "internalType": "uint256",
          "name": "",
          "type": "uint256"
        }
      ],
      "stateMutability": "view",
      "type": "function"
    },
    {
      "inputs": [
        {
          "internalType": "uint256",
          "name": "idx",
          "type": "uint256"
        }
      ],
      "name": "allowedTokens",
      "outputs": [
        {
          "internalType": "address",
          "name": "",
          "type": "address"
        }
      ],
      "stateMutability": "view",
      "type": "function"
    },
    {
      "inputs": [],
      "name": "allowedTokensLength",
      "outputs": [
        {
          "internalType": "uint256",
          "name": "",
          "type": "uint256"
        }
      ],
      "stateMutability": "view",
      "type": "function"
    },
    {
      "inputs": [],
      "name": "category",
      "outputs": [
        {
          "internalType": "uint256",
          "name": "c",
          "type": "uint256"
        }
      ],
      "stateMutability": "view",
      "type": "function"
    },
    {
      "inputs": [
        {
          "internalType": "uint256",
          "name": "claimHash",
          "type": "uint256"
        }
      ],
      "name": "claimAmount",
      "outputs": [
        {
          "internalType": "uint256",
          "name": "",
          "type": "uint256"
        }
      ],
      "stateMutability": "view",
      "type": "function"
    },
    {
      "inputs": [
        {
          "internalType": "uint256",
          "name": "claimHash",
          "type": "uint256"
        }
      ],
      "name": "claimQuantity",
      "outputs": [
        {
          "internalType": "uint256",
          "name": "",
          "type": "uint256"
        }
      ],
      "stateMutability": "view",
      "type": "function"
    },
    {
      "inputs": [
        {
          "internalType": "uint256",
          "name": "claimHash",
          "type": "uint256"
        }
      ],
      "name": "claimTokenAmount",
      "outputs": [
        {
          "internalType": "uint256",
          "name": "",
          "type": "uint256"
        }
      ],
      "stateMutability": "view",
      "type": "function"
    },
    {
      "inputs": [
        {
          "internalType": "uint256",
          "name": "claimHash",
          "type": "uint256"
        }
      ],
      "name": "claimUnlockTime",
      "outputs": [
        {
          "internalType": "uint256",
          "name": "",
          "type": "uint256"
        }
      ],
      "stateMutability": "view",
      "type": "function"
    },
    {
      "inputs": [],
      "name": "claimedCount",
      "outputs": [
        {
          "internalType": "uint256",
          "name": "",
          "type": "uint256"
        }
      ],
      "stateMutability": "view",
      "type": "function"
    },
    {
      "inputs": [
        {
          "internalType": "uint256",
          "name": "claimHash",
          "type": "uint256"
        }
      ],
      "name": "collectClaim",
      "outputs": [],
      "stateMutability": "nonpayable",
      "type": "function"
    },
    {
      "inputs": [
        {
          "internalType": "uint256",
          "name": "timeframe",
          "type": "uint256"
        }
      ],
      "name": "createClaim",
      "outputs": [],
      "stateMutability": "payable",
      "type": "function"
    },
    {
      "inputs": [
        {
          "internalType": "uint256",
          "name": "timeframe",
          "type": "uint256"
        },
        {
          "internalType": "uint256",
          "name": "count",
          "type": "uint256"
        }
      ],
      "name": "createClaims",
      "outputs": [],
      "stateMutability": "payable",
      "type": "function"
    },
    {
      "inputs": [
        {
          "internalType": "address",
          "name": "erc20token",
          "type": "address"
        },
        {
          "internalType": "uint256",
          "name": "tokenAmount",
          "type": "uint256"
        }
      ],
      "name": "createERC20Claim",
      "outputs": [],
      "stateMutability": "nonpayable",
      "type": "function"
    },
    {
      "inputs": [
        {
          "internalType": "address",
          "name": "erc20token",
          "type": "address"
        },
        {
          "internalType": "uint256",
          "name": "tokenAmount",
          "type": "uint256"
        },
        {
          "internalType": "uint256",
          "name": "count",
          "type": "uint256"
        }
      ],
      "name": "createERC20Claims",
      "outputs": [],
      "stateMutability": "nonpayable",
      "type": "function"
    },
    {
      "inputs": [],
      "name": "difficultyStep",
      "outputs": [
        {
          "internalType": "uint256",
          "name": "",
          "type": "uint256"
        }
      ],
      "stateMutability": "view",
      "type": "function"
    },
    {
      "inputs": [],
      "name": "ethPrice",
      "outputs": [
        {
          "internalType": "uint256",
          "name": "",
          "type": "uint256"
        }
      ],
      "stateMutability": "view",
      "type": "function"
    },
    {
      "inputs": [
        {
          "internalType": "string",
          "name": "__symbol",
          "type": "string"
        },
        {
          "internalType": "string",
          "name": "__name",
          "type": "string"
        },
        {
          "internalType": "uint256",
          "name": "__ethPrice",
          "type": "uint256"
        },
        {
          "internalType": "uint256",
          "name": "__minTime",
          "type": "uint256"
        },
        {
          "internalType": "uint256",
          "name": "__maxTime",
          "type": "uint256"
        },
        {
          "internalType": "uint256",
          "name": "__diffstep",
          "type": "uint256"
        },
        {
          "internalType": "uint256",
          "name": "__maxClaims",
          "type": "uint256"
        },
        {
          "internalType": "address",
          "name": "__allowedToken",
          "type": "address"
        }
      ],
      "name": "initialize",
      "outputs": [],
      "stateMutability": "nonpayable",
      "type": "function"
    },
    {
      "inputs": [
        {
          "internalType": "address",
          "name": "_address",
          "type": "address"
        }
      ],
      "name": "isController",
      "outputs": [
        {
          "internalType": "bool",
          "name": "allowed",
          "type": "bool"
        }
      ],
      "stateMutability": "view",
      "type": "function"
    },
    {
      "inputs": [
        {
          "internalType": "address",
          "name": "token",
          "type": "address"
        }
      ],
      "name": "isTokenAllowed",
      "outputs": [
        {
          "internalType": "bool",
          "name": "",
          "type": "bool"
        }
      ],
      "stateMutability": "view",
      "type": "function"
    },
    {
      "inputs": [],
      "name": "maxClaims",
      "outputs": [
        {
          "internalType": "uint256",
          "name": "",
          "type": "uint256"
        }
      ],
      "stateMutability": "view",
      "type": "function"
    },
    {
      "inputs": [],
      "name": "maxTime",
      "outputs": [
        {
          "internalType": "uint256",
          "name": "",
          "type": "uint256"
        }
      ],
      "stateMutability": "view",
      "type": "function"
    },
    {
      "inputs": [],
      "name": "minTime",
      "outputs": [
        {
          "internalType": "uint256",
          "name": "",
          "type": "uint256"
        }
      ],
      "stateMutability": "view",
      "type": "function"
    },
    {
      "inputs": [
        {
          "internalType": "address",
          "name": "creator",
          "type": "address"
        },
        {
          "internalType": "address",
          "name": "funder",
          "type": "address"
        }
      ],
      "name": "mintGenesisGems",
      "outputs": [],
      "stateMutability": "nonpayable",
      "type": "function"
    },
    {
      "inputs": [],
      "name": "mintedCount",
      "outputs": [
        {
          "internalType": "uint256",
          "name": "",
          "type": "uint256"
        }
      ],
      "stateMutability": "view",
      "type": "function"
    },
    {
      "inputs": [],
      "name": "name",
      "outputs": [
        {
          "internalType": "string",
          "name": "",
          "type": "string"
        }
      ],
      "stateMutability": "view",
      "type": "function"
    },
    {
      "inputs": [],
      "name": "nextClaimHash",
      "outputs": [
        {
          "internalType": "uint256",
          "name": "",
          "type": "uint256"
        }
      ],
      "stateMutability": "view",
      "type": "function"
    },
    {
      "inputs": [],
      "name": "nextClaimId",
      "outputs": [
        {
          "internalType": "uint256",
          "name": "",
          "type": "uint256"
        }
      ],
      "stateMutability": "view",
      "type": "function"
    },
    {
      "inputs": [],
      "name": "nextGemHash",
      "outputs": [
        {
          "internalType": "uint256",
          "name": "",
          "type": "uint256"
        }
      ],
      "stateMutability": "view",
      "type": "function"
    },
    {
      "inputs": [],
      "name": "nextGemId",
      "outputs": [
        {
          "internalType": "uint256",
          "name": "",
          "type": "uint256"
        }
      ],
      "stateMutability": "view",
      "type": "function"
    },
    {
      "inputs": [],
      "name": "relinquishControl",
      "outputs": [],
      "stateMutability": "view",
      "type": "function"
    },
    {
      "inputs": [
        {
          "internalType": "address",
          "name": "token",
          "type": "address"
        }
      ],
      "name": "removeAllowedToken",
      "outputs": [],
      "stateMutability": "nonpayable",
      "type": "function"
    },
    {
      "inputs": [
        {
          "internalType": "address",
          "name": "erc20token",
          "type": "address"
        },
        {
          "internalType": "uint256",
          "name": "tokenAmount",
          "type": "uint256"
        }
      ],
      "name": "rescue",
      "outputs": [],
      "stateMutability": "nonpayable",
      "type": "function"
    },
    {
      "inputs": [
        {
          "internalType": "uint256",
          "name": "category",
          "type": "uint256"
        }
      ],
      "name": "setCategory",
      "outputs": [],
      "stateMutability": "nonpayable",
      "type": "function"
    },
    {
      "inputs": [
        {
          "internalType": "address",
          "name": "addr",
          "type": "address"
        }
      ],
      "name": "setFeeTracker",
      "outputs": [],
      "stateMutability": "nonpayable",
      "type": "function"
    },
    {
      "inputs": [
        {
          "internalType": "address",
          "name": "addr",
          "type": "address"
        }
      ],
      "name": "setGovernor",
      "outputs": [],
      "stateMutability": "nonpayable",
      "type": "function"
    },
    {
      "inputs": [
        {
          "internalType": "address",
          "name": "token",
          "type": "address"
        }
      ],
      "name": "setMultiToken",
      "outputs": [],
      "stateMutability": "nonpayable",
      "type": "function"
    },
    {
      "inputs": [
        {
          "internalType": "address",
          "name": "helper",
          "type": "address"
        }
      ],
      "name": "setSwapHelper",
      "outputs": [],
      "stateMutability": "nonpayable",
      "type": "function"
    },
    {
      "inputs": [
        {
          "internalType": "bool",
          "name": "v",
          "type": "bool"
        }
      ],
      "name": "setValidateErc20",
      "outputs": [],
      "stateMutability": "nonpayable",
      "type": "function"
    },
    {
      "inputs": [
        {
          "internalType": "bool",
          "name": "visible",
          "type": "bool"
        }
      ],
      "name": "setVisible",
      "outputs": [],
      "stateMutability": "nonpayable",
      "type": "function"
    },
    {
      "inputs": [
        {
          "internalType": "uint256",
          "name": "claimHash",
          "type": "uint256"
        }
      ],
      "name": "stakedToken",
      "outputs": [
        {
          "internalType": "address",
          "name": "",
          "type": "address"
        }
      ],
      "stateMutability": "view",
      "type": "function"
    },
    {
      "inputs": [],
      "name": "symbol",
      "outputs": [
        {
          "internalType": "string",
          "name": "",
          "type": "string"
        }
      ],
      "stateMutability": "view",
      "type": "function"
    },
    {
      "inputs": [
        {
          "internalType": "uint256",
          "name": "tokenHash",
          "type": "uint256"
        }
      ],
      "name": "tokenId",
      "outputs": [
        {
          "internalType": "uint256",
          "name": "",
          "type": "uint256"
        }
      ],
      "stateMutability": "view",
      "type": "function"
    },
    {
      "inputs": [
        {
          "internalType": "uint256",
          "name": "tokenHash",
          "type": "uint256"
        }
      ],
      "name": "tokenType",
      "outputs": [
        {
          "internalType": "uint8",
          "name": "",
          "type": "uint8"
        }
      ],
      "stateMutability": "view",
      "type": "function"
    },
    {
      "inputs": [],
      "name": "totalStakedEth",
      "outputs": [
        {
          "internalType": "uint256",
          "name": "",
          "type": "uint256"
        }
      ],
      "stateMutability": "view",
      "type": "function"
    },
    {
      "inputs": [],
      "name": "validateErc20",
      "outputs": [
        {
          "internalType": "bool",
          "name": "c",
          "type": "bool"
        }
      ],
      "stateMutability": "view",
      "type": "function"
    },
    {
      "inputs": [],
      "name": "visible",
      "outputs": [
        {
          "internalType": "bool",
          "name": "v",
          "type": "bool"
        }
      ],
      "stateMutability": "view",
      "type": "function"
    }
  ],
  "transactionHash": "0x738597eb235cde6ee2de410db0921e91c2f260779544d10c63a5defd7bb44528",
  "args": [],
  "solcInputHash": "9c7c61ecacfee4aadd8309054369412c",
  "bytecode": "0x60806040523480156200001157600080fd5b506200001d3362000023565b62000047565b6001600160a01b03166000908152601660205260409020805460ff19166001179055565b613a5780620000576000396000f3fe6080604052600436106103295760003560e01c8063a7fc7a07116101a5578063d104f8f5116100ec578063e5d2ce2f11610095578063ef430aa61161006f578063ef430aa614610bdd578063f4fde0d314610bf2578063f9eaee0d14610c07578063ff186b2e14610c3a57610329565b8063e5d2ce2f14610b3a578063e6c3b1f614610b64578063edcf2d5714610ba457610329565b8063d73cd47f116100c6578063d73cd47f14610991578063d9a3f9bb146109c4578063e1c28bef14610b2557610329565b8063d104f8f514610908578063d31674db1461093b578063d43e64601461096557610329565b8063c08fa1a41161014e578063c80c061311610128578063c80c0613146108de578063cf5380b4146108f3578063cf721b15146108de57610329565b8063c08fa1a41461079d578063c42cf53514610881578063c5e01a5c146108b457610329565b8063b429afeb1161017f578063b429afeb14610824578063b788e4e914610857578063bf86999b1461086c57610329565b8063a7fc7a07146107b2578063a901c474146107e5578063af6a6d791461080f57610329565b80636b6201da116102745780637f2e8f0c1161021d5780639277a185116101f75780639277a1851461072b578063959355601461075e57806395d89b4114610788578063a0021cf11461079d57610329565b80637f2e8f0c146106b95780638a09871b146106e357806390469a9d146106f857610329565b80637ae7815d1161024e5780637ae7815d146106395780637c5d643e146106655780637dcb0e5f1461068f57610329565b80636b6201da146105895780636ba0f5c4146105a65780637a4e4ecf1461060057610329565b80634178617f116102d65780635d2e0dd4116102b05780635d2e0dd4146104db5780635e5f2e26146105045780636100c3431461054a57610329565b80634178617f1461047e5780634565e5ef146104b1578063504cdacf146104c657610329565b806323b221a01161030757806323b221a0146103f45780632449ef511461041e578063392732b11461045b57610329565b806306fdde031461032e5780631aa43078146103b857806322e67e71146103df575b600080fd5b34801561033a57600080fd5b50610343610c4f565b6040805160208082528351818301528351919283929083019185019080838360005b8381101561037d578181015183820152602001610365565b50505050905090810190601f1680156103aa5780820380516001836020036101000a031916815260200191505b509250505060405180910390f35b3480156103c457600080fd5b506103cd610d00565b60408051918252519081900360200190f35b3480156103eb57600080fd5b506103cd610d06565b34801561040057600080fd5b506103cd6004803603602081101561041757600080fd5b5035610d0c565b34801561042a57600080fd5b506104596004803603604081101561044157600080fd5b506001600160a01b0381358116916020013516610d1e565b005b6104596004803603604081101561047157600080fd5b5080359060200135610f8c565b34801561048a57600080fd5b50610459600480360360208110156104a157600080fd5b50356001600160a01b0316610f9a565b3480156104bd57600080fd5b506103cd611039565b3480156104d257600080fd5b506103cd61103f565b3480156104e757600080fd5b506104f0611045565b604080519115158252519081900360200190f35b34801561051057600080fd5b5061052e6004803603602081101561052757600080fd5b5035611067565b604080516001600160a01b039092168252519081900360200190f35b34801561055657600080fd5b506104596004803603606081101561056d57600080fd5b506001600160a01b038135169060208101359060400135611091565b6104596004803603602081101561059f57600080fd5b5035611036565b3480156105b257600080fd5b50610459600480360360c08110156105c957600080fd5b506001600160a01b03813581169160208101359091169060ff6040820135169060608101359060808101359060a00135151561109c565b34801561060c57600080fd5b506104596004803603604081101561062357600080fd5b506001600160a01b038135169060200135611465565b34801561064557600080fd5b506104596004803603602081101561065c57600080fd5b503515156115b5565b34801561067157600080fd5b506104596004803603602081101561068857600080fd5b503561161a565b34801561069b57600080fd5b506103cd600480360360208110156106b257600080fd5b5035611f64565b3480156106c557600080fd5b506103cd600480360360208110156106dc57600080fd5b5035611f76565b3480156106ef57600080fd5b506103cd611f88565b34801561070457600080fd5b506104596004803603602081101561071b57600080fd5b50356001600160a01b0316611f97565b34801561073757600080fd5b506104596004803603602081101561074e57600080fd5b50356001600160a01b031661211b565b34801561076a57600080fd5b506103cd6004803603602081101561078157600080fd5b503561216f565b34801561079457600080fd5b50610343612181565b3480156107a957600080fd5b506103cd6121ff565b3480156107be57600080fd5b50610459600480360360208110156107d557600080fd5b50356001600160a01b0316612205565b3480156107f157600080fd5b506103cd6004803603602081101561080857600080fd5b5035612286565b34801561081b57600080fd5b506104f0612298565b34801561083057600080fd5b506104f06004803603602081101561084757600080fd5b50356001600160a01b03166122b9565b34801561086357600080fd5b506103cd6122d7565b34801561087857600080fd5b506103cd6122e1565b34801561088d57600080fd5b50610459600480360360208110156108a457600080fd5b50356001600160a01b03166122e7565b3480156108c057600080fd5b5061052e600480360360208110156108d757600080fd5b503561233b565b3480156108ea57600080fd5b506103cd612356565b3480156108ff57600080fd5b506103cd61235c565b34801561091457600080fd5b506104596004803603602081101561092b57600080fd5b50356001600160a01b0316612362565b34801561094757600080fd5b506103cd6004803603602081101561095e57600080fd5b50356123b6565b34801561097157600080fd5b506104596004803603602081101561098857600080fd5b503515156123d7565b34801561099d57600080fd5b50610459600480360360208110156109b457600080fd5b50356001600160a01b031661243b565b3480156109d057600080fd5b5061045960048036036101008110156109e857600080fd5b810190602081018135640100000000811115610a0357600080fd5b820183602082011115610a1557600080fd5b80359060200191846001830284011164010000000083111715610a3757600080fd5b91908080601f0160208091040260200160405190810160405280939291908181526020018383808284376000920191909152509295949360208101935035915050640100000000811115610a8a57600080fd5b820183602082011115610a9c57600080fd5b80359060200191846001830284011164010000000083111715610abe57600080fd5b91908080601f0160208091040260200160405190810160405280939291908181526020018383808284376000920191909152509295505082359350505060208101359060408101359060608101359060808101359060a001356001600160a01b031661248f565b348015610b3157600080fd5b506104596126ba565b348015610b4657600080fd5b5061045960048036036020811015610b5d57600080fd5b5035612722565b348015610b7057600080fd5b50610b8e60048036036020811015610b8757600080fd5b5035612741565b6040805160ff9092168252519081900360200190f35b348015610bb057600080fd5b5061045960048036036040811015610bc757600080fd5b506001600160a01b038135169060200135610f96565b348015610be957600080fd5b506103cd612756565b348015610bfe57600080fd5b506103cd61275c565b348015610c1357600080fd5b506104f060048036036020811015610c2a57600080fd5b50356001600160a01b0316612762565b348015610c4657600080fd5b506103cd612780565b60028054604080516020601f7fffffffffffffffffffffffffffffffffffffffffffffffffffffffffffffffff6101006001871615020190941685900493840181900481028201810190925282815260609390929091830182828015610cf65780601f10610ccb57610100808354040283529160200191610cf6565b820191906000526020600020905b815481529060010190602001808311610cd957829003601f168201915b5050505050905090565b60045490565b60055490565b60009081526010602052604090205490565b6017546001600160a01b0316610d7b576040805162461bcd60e51b815260206004820152600d60248201527f4e4f5f4d554c5449544f4b454e00000000000000000000000000000000000000604482015290519081900360640190fd5b6001600160a01b03821615801590610d9b57506001600160a01b03811615155b610dec576040805162461bcd60e51b815260206004820152601060248201527f5a45524f5f44455354494e4154494f4e00000000000000000000000000000000604482015290519081900360640190fd5b600b5415610e41576040805162461bcd60e51b815260206004820152600e60248201527f414c52454144595f4d494e544544000000000000000000000000000000000000604482015290519081900360640190fd5b6000610e4b612786565b601754604080517f156e29f60000000000000000000000000000000000000000000000000000000081526001600160a01b0387811660048301526024820185905260016044830152915193945091169163156e29f69160648082019260009290919082900301818387803b158015610ec257600080fd5b505af1158015610ed6573d6000803e3d6000fd5b50505050610ee58160026127e3565b610eed612786565b601754604080517f156e29f60000000000000000000000000000000000000000000000000000000081526001600160a01b0387811660048301526024820185905260016044830152915193945091169163156e29f69160648082019260009290919082900301818387803b158015610f6457600080fd5b505af1158015610f78573d6000803e3d6000fd5b50505050610f878160026127e3565b505050565b610f9682826128d5565b5050565b6001600160a01b03811660009081526014602052604090205460ff16611036576013805460018082019092557f66de8ffda797e3de9c05e8fc57b3bf0ec28a930d40b0d285d93c06501cf6a0900180547fffffffffffffffffffffffff0000000000000000000000000000000000000000166001600160a01b0384169081179091556000908152601460205260409020805460ff191690911790555b50565b60135490565b600d5490565b601a547501000000000000000000000000000000000000000000900460ff1690565b60006013828154811061107657fe5b6000918252602090912001546001600160a01b031692915050565b610f87838383612e5e565b6001600160a01b0386166110f7576040805162461bcd60e51b815260206004820152600d60248201527f494e56414c49445f544f4b454e00000000000000000000000000000000000000604482015290519081900360640190fd5b8360ff166001148061110c57508360ff166002145b8061111a57508360ff166003145b61116b576040805162461bcd60e51b815260206004820152601160248201527f494e56414c49445f544f4b454e54595045000000000000000000000000000000604482015290519081900360640190fd5b8360ff16600314801561118657506001600160a01b03851615155b8061119557508360ff16600314155b6111e6576040805162461bcd60e51b815260206004820152600c60248201527f494e56414c49445f504f4f4c0000000000000000000000000000000000000000604482015290519081900360640190fd5b8360ff1660011480156111f7575082155b8061120557508360ff166002145b8061121c57508360ff16600314801561121c575082155b61126d576040805162461bcd60e51b815260206004820152600f60248201527f494e56414c49445f544f4b454e49440000000000000000000000000000000000604482015290519081900360640190fd5b816112bf576040805162461bcd60e51b815260206004820152600b60248201527f5a45524f5f414d4f554e54000000000000000000000000000000000000000000604482015290519081900360640190fd5b6040805160c0810182526001600160a01b0397881681529587166020870190815260ff958616918701918252606087019485526080870193845291151560a087019081526015805460018101825560009190915296517f55f448fdea98c4d29eb340757ef0a66cd03dbb9538908a6a81d96026b71ec475600590980297880180547fffffffffffffffffffffffff0000000000000000000000000000000000000000908116928b1692909217905592517f55f448fdea98c4d29eb340757ef0a66cd03dbb9538908a6a81d96026b71ec476880180549351939094169816979097177fffffffffffffffffffffff00ffffffffffffffffffffffffffffffffffffffff1674010000000000000000000000000000000000000000919095160293909317909255517f55f448fdea98c4d29eb340757ef0a66cd03dbb9538908a6a81d96026b71ec477830155517f55f448fdea98c4d29eb340757ef0a66cd03dbb9538908a6a81d96026b71ec47882015590517f55f448fdea98c4d29eb340757ef0a66cd03dbb9538908a6a81d96026b71ec479909101805460ff1916911515919091179055565b3360009081526016602052604090205460ff1615156001148061148757503033145b6114c25760405162461bcd60e51b81526004018080602001828103825260288152602001806139fa6028913960400191505060405180910390fd5b6001600160a01b038216611510576019546040516001600160a01b039091169082156108fc029083906000818181858888f1935050505015801561150a573d6000803e3d6000fd5b50610f96565b601954604080517f23b872dd0000000000000000000000000000000000000000000000000000000081523060048201526001600160a01b039283166024820152604481018490529051918416916323b872dd916064808201926020929091908290030181600087803b15801561158557600080fd5b505af1158015611599573d6000803e3d6000fd5b505050506040513d60208110156115af57600080fd5b50505050565b336000908152601660205260409020805460ff19166001179055601a80549115157501000000000000000000000000000000000000000000027fffffffffffffffffffff00ffffffffffffffffffffffffffffffffffffffffff909216919091179055565b601754604080517efdd58e0000000000000000000000000000000000000000000000000000000081523360048201526024810184905290516001600160a01b039092169162fdd58e91604480820192602092909190829003018186803b15801561168357600080fd5b505afa158015611697573d6000803e3d6000fd5b505050506040513d60208110156116ad57600080fd5b5051600114611703576040805162461bcd60e51b815260206004820152600f60248201527f4e4f545f434c41494d5f4f574e45520000000000000000000000000000000000604482015290519081900360640190fd5b6000818152600e6020908152604080832054601090925290912054811580159061172d5750600081115b61177e576040805162461bcd60e51b815260206004820152600d60248201527f494e56414c49445f434c41494d00000000000000000000000000000000000000604482015290519081900360640190fd5b6000838152600f602090815260408083205460129092528083205460175482517ff5298aca000000000000000000000000000000000000000000000000000000008152336004820152602481018990526001604482015292516001600160a01b039485169592944289109492169263f5298aca926064808201939182900301818387803b15801561180e57600080fd5b505af1158015611822573d6000803e3d6000fd5b505050506001600160a01b03831615611b375760006001821515141561199057601954604080517feee1ad8000000000000000000000000000000000000000000000000000000000815230600482015290516000926001600160a01b03169163eee1ad80916024808301926020929190829003018186803b1580156118a657600080fd5b505afa1580156118ba573d6000803e3d6000fd5b505050506040513d60208110156118d057600080fd5b5051601954604080517feee1ad800000000000000000000000000000000000000000000000000000000081526001600160a01b0389811660048301529151939450600093919092169163eee1ad80916024808301926020929190829003018186803b15801561193e57600080fd5b505afa158015611952573d6000803e3d6000fd5b505050506040513d602081101561196857600080fd5b5051905060008282141561197c578261197e565b815b905061198a8682613692565b93505050505b601954604080517f23b872dd0000000000000000000000000000000000000000000000000000000081523060048201526001600160a01b039283166024820152604481018490529051918616916323b872dd916064808201926020929091908290030181600087803b158015611a0557600080fd5b505af1158015611a19573d6000803e3d6000fd5b505050506040513d6020811015611a2f57600080fd5b50506001600160a01b0384166323b872dd3033611a4c87866136fb565b6040518463ffffffff1660e01b815260040180846001600160a01b03168152602001836001600160a01b031681526020018281526020019350505050602060405180830381600087803b158015611aa257600080fd5b505af1158015611ab6573d6000803e3d6000fd5b505050506040513d6020811015611acc57600080fd5b5050604080513381523060208201528082018990526001600160a01b03861660608201526080810187905260a0810185905260c0810183905290517fe0433fa1170f3ff4cf72fbeb1ae5f139a41b9457ab29e5ac480cb34ed271912a9181900360e00190a150611ca8565b600060018215151415611be757601954604080517feee1ad80000000000000000000000000000000000000000000000000000000008152600060048201819052915191926001600160a01b03169163eee1ad8091602480820192602092909190829003018186803b158015611bab57600080fd5b505afa158015611bbf573d6000803e3d6000fd5b505050506040513d6020811015611bd557600080fd5b50519050611be38682613692565b9150505b6019546040516001600160a01b039091169082156108fc029083906000818181858888f19350505050158015611c21573d6000803e3d6000fd5b50336108fc611c3087846136fb565b6040518115909202916000818181858888f19350505050158015611c58573d6000803e3d6000fd5b5060408051338152306020820152808201899052606081018790526080810183905290517f414b0454a52507c753948f2002246a3358eaea8464b41c2143f88b100306eee69181900360a00190a1505b600d54611cb590856136fb565b600d5580611cc7575050505050611036565b6000306001600160a01b031663b788e4e96040518163ffffffff1660e01b815260040160206040518083038186803b158015611d0257600080fd5b505afa158015611d16573d6000803e3d6000fd5b505050506040513d6020811015611d2c57600080fd5b50516017546000898152601160205260408082205481517f156e29f600000000000000000000000000000000000000000000000000000000815233600482015260248101869052604481019190915290519394506001600160a01b039092169263156e29f692606480820193929182900301818387803b158015611daf57600080fd5b505af1158015611dc3573d6000803e3d6000fd5b50505050611dd28160026127e3565b601854604080517f634b5b7d00000000000000000000000000000000000000000000000000000000815233600482015290516001600160a01b039092169163634b5b7d916024808201926020929091908290030181600087803b158015611e3857600080fd5b505af1158015611e4c573d6000803e3d6000fd5b505050506040513d6020811015611e6257600080fd5b5050601854604080517fea40a7a40000000000000000000000000000000000000000000000000000000081523360048201526024810188905290516001600160a01b039092169163ea40a7a4916044808201926020929091908290030181600087803b158015611ed157600080fd5b505af1158015611ee5573d6000803e3d6000fd5b505050506040513d6020811015611efb57600080fd5b505060008781526011602090815260409182902054825133815230928101929092528183018a905260608201849052608082015290517fa684ef88136a415ed987c0b39bc528a16b3e83b511c414590bbe613f38f1a0729181900360a00190a150505050505050565b60009081526009602052604090205490565b60009081526011602052604090205490565b6000611f92613758565b905090565b6001600160a01b03811660009081526014602052604090205460ff16156110365760005b601354811015610f9657816001600160a01b031660138281548110611fdc57fe5b6000918252602090912001546001600160a01b0316141561211357601380547fffffffffffffffffffffffffffffffffffffffffffffffffffffffffffffffff810190811061202757fe5b600091825260209091200154601380546001600160a01b03909216918390811061204d57fe5b600091825260209091200180547fffffffffffffffffffffffff0000000000000000000000000000000000000000166001600160a01b0392909216919091179055601380547fffffffffffffffffffffffffffffffffffffffffffffffffffffffffffffffff81019081106120be57fe5b6000918252602080832090910180547fffffffffffffffffffffffff00000000000000000000000000000000000000001690556001600160a01b03841682526014905260409020805460ff1916905550611036565b600101611fbb565b336000908152601660205260409020805460ff19166001179055601980547fffffffffffffffffffffffff0000000000000000000000000000000000000000166001600160a01b0392909216919091179055565b60009081526012602052604090205490565b60018054604080516020601f60027fffffffffffffffffffffffffffffffffffffffffffffffffffffffffffffffff6101008789161502019095169490940493840181900481028201810190925282815260609390929091830182828015610cf65780601f10610ccb57610100808354040283529160200191610cf6565b600c5490565b3360009081526016602052604090205460ff1615156001148061222757503033145b6122625760405162461bcd60e51b81526004018080602001828103825260288152602001806139fa6028913960400191505060405180910390fd5b6001600160a01b03166000908152601660205260409020805460ff19166001179055565b6000908152600e602052604090205490565b601a5474010000000000000000000000000000000000000000900460ff1690565b6001600160a01b031660009081526016602052604090205460ff1690565b6000611f92612786565b60065490565b336000908152601660205260409020805460ff19166001179055601880547fffffffffffffffffffffffff0000000000000000000000000000000000000000166001600160a01b0392909216919091179055565b6000908152600f60205260409020546001600160a01b031690565b600b5490565b60075490565b336000908152601660205260409020805460ff19166001179055601780547fffffffffffffffffffffffff0000000000000000000000000000000000000000166001600160a01b0392909216919091179055565b6000600a82815481106123c557fe5b90600052602060002001549050919050565b336000908152601660205260409020805460ff19166001179055601a805491151574010000000000000000000000000000000000000000027fffffffffffffffffffffff00ffffffffffffffffffffffffffffffffffffffff909216919091179055565b336000908152601660205260409020805460ff19166001179055601a80547fffffffffffffffffffffffff0000000000000000000000000000000000000000166001600160a01b0392909216919091179055565b600054610100900460ff16806124a857506124a86137e5565b806124b6575060005460ff16155b6124f15760405162461bcd60e51b815260040180806020018281038252602e8152602001806139ab602e913960400191505060405180910390fd5b600054610100900460ff16158015612539576000805460ff197fffffffffffffffffffffffffffffffffffffffffffffffffffffffffffff00ff909116610100171660011790555b885161254c9060019060208c0190613917565b5087516125609060029060208b0190613917565b5060038790556004869055600585905560068490556007839055601a80547fffffffffffffffffffff00ffffffffffffffffffffffffffffffffffffffffff7fffffffffffffffffffffff00ffffffffffffffffffffffffffffffffffffffff90911674010000000000000000000000000000000000000000171675010000000000000000000000000000000000000000001790556001600160a01b03821615612680576013805460018082019092557f66de8ffda797e3de9c05e8fc57b3bf0ec28a930d40b0d285d93c06501cf6a0900180547fffffffffffffffffffffffff0000000000000000000000000000000000000000166001600160a01b0385169081179091556000908152601460205260409020805460ff191690911790555b80156126af57600080547fffffffffffffffffffffffffffffffffffffffffffffffffffffffffffff00ff1690555b505050505050505050565b3360009081526016602052604090205460ff161515600114806126dc57503033145b6127175760405162461bcd60e51b81526004018080602001828103825260288152602001806139fa6028913960400191505060405180910390fd5b336000526016602052565b336000908152601660205260409020805460ff19166001179055601b55565b60009081526008602052604090205460ff1690565b601b5490565b600a5490565b6001600160a01b031660009081526014602052604090205460ff1690565b60035490565b600b54604080517f67656d00000000000000000000000000000000000000000000000000000000006020808301919091523060601b6023830152603780830194909452825180830390940184526057909101909152815191012090565b8060ff16600114806127f857508060ff166002145b612849576040805162461bcd60e51b815260206004820152601160248201527f494e56414c49445f544f4b454e54595045000000000000000000000000000000604482015290519081900360640190fd5b600a805460018082019092557fc65a7bb8d6351c1cf70c95a316cc6a92839c986682d98bc35f958f4883f9d2a8018390556000838152600860205260409020805460ff191660ff8416908117909155146128aa576128a56137f6565b6128b2565b6128b261380f565b600083815260096020526040902055600260ff82161415610f9657610f96613828565b60045482101561292c576040805162461bcd60e51b815260206004820152601360248201527f54494d454652414d455f544f4f5f53484f525400000000000000000000000000604482015290519081900360640190fd5b3461297e576040805162461bcd60e51b815260206004820152600c60248201527f5a45524f5f42414c414e43450000000000000000000000000000000000000000604482015290519081900360640190fd5b806129d0576040805162461bcd60e51b815260206004820152600d60248201527f5a45524f5f5155414e5449545900000000000000000000000000000000000000604482015290519081900360640190fd5b600554158015906129e357506005548211155b806129ee5750600554155b612a3f576040805162461bcd60e51b815260206004820152601260248201527f54494d454652414d455f544f4f5f4c4f4e470000000000000000000000000000604482015290519081900360640190fd5b6000612a4b3483613692565b90506000612a7084612a6a60045460035461385790919063ffffffff16565b90613692565b905080821015612ac7576040805162461bcd60e51b815260206004820152601060248201527f494e53554646494349454e545f45544800000000000000000000000000000000604482015290519081900360640190fd5b6000612ad1613758565b905080612b25576040805162461bcd60e51b815260206004820152601160248201527f4e4f5f4d4f52455f434c41494d41424c45000000000000000000000000000000604482015290519081900360640190fd5b601754604080517f156e29f6000000000000000000000000000000000000000000000000000000008152336004820152602481018490526001604482015290516001600160a01b039092169163156e29f69160648082019260009290919082900301818387803b158015612b9857600080fd5b505af1158015612bac573d6000803e3d6000fd5b50505050612bbb8160016127e3565b6000612bc742876138b7565b6000838152600e602052604090208190559050612be48386613857565b6000838152601060209081526040808320939093556011815282822088905560185483517f634b5b7d00000000000000000000000000000000000000000000000000000000815233600482015293516001600160a01b039091169363634b5b7d9360248083019493928390030190829087803b158015612c6357600080fd5b505af1158015612c77573d6000803e3d6000fd5b505050506040513d6020811015612c8d57600080fd5b5050601854604080517fea40a7a40000000000000000000000000000000000000000000000000000000081523360048201526024810186905290516001600160a01b039092169163ea40a7a4916044808201926020929091908290030181600087803b158015612cfc57600080fd5b505af1158015612d10573d6000803e3d6000fd5b505050506040513d6020811015612d2657600080fd5b505060408051338152306020820152808201849052606081018890526080810187905260a0810185905290517f7772d56f71cb2b982c42f148cad4839ce0736b201b032c93233f428ba93817749181900360c00190a1612d92612d898487613857565b600d54906138b7565b600d55612d9f8386613857565b341115612e5657600033612dbd612db68689613857565b34906136fb565b604051600081818185875af1925050503d8060008114612df9576040519150601f19603f3d011682016040523d82523d6000602084013e612dfe565b606091505b5050905080612e54576040805162461bcd60e51b815260206004820152600d60248201527f524546554e445f4641494c454400000000000000000000000000000000000000604482015290519081900360640190fd5b505b505050505050565b6001600160a01b038316612eb9576040805162461bcd60e51b815260206004820152601360248201527f494e56414c49445f45524332305f544f4b454e00000000000000000000000000604482015290519081900360640190fd5b60135415801590612ee257506001600160a01b03831660009081526014602052604090205460ff165b80612eed5750601354155b612f3e576040805162461bcd60e51b815260206004820152601060248201527f544f4b454e5f444953414c4c4f57454400000000000000000000000000000000604482015290519081900360640190fd5b80612f90576040805162461bcd60e51b815260206004820152600d60248201527f5a45524f5f5155414e5449545900000000000000000000000000000000000000604482015290519081900360640190fd5b601a54604080517f1246dbf50000000000000000000000000000000000000000000000000000000081526001600160a01b03868116600483015291519190921691631246dbf5916024808301926020929190829003018186803b158015612ff657600080fd5b505afa15801561300a573d6000803e3d6000fd5b505050506040513d602081101561302057600080fd5b50511515600114613078576040805162461bcd60e51b815260206004820152600f60248201527f4e4f5f554e49535741505f504f4f4c0000000000000000000000000000000000604482015290519081900360640190fd5b601a54600090819081906001600160a01b031663868d2d1e8761309b8888613692565b6040518363ffffffff1660e01b815260040180836001600160a01b031681526020018281526020019250505060606040518083038186803b1580156130df57600080fd5b505afa1580156130f3573d6000803e3d6000fd5b505050506040513d606081101561310957600080fd5b5080516020820151604090920151601a549195509193509091507501000000000000000000000000000000000000000000900460ff161515600114156132155761315e84613158856064613857565b90613857565b8110156131b2576040805162461bcd60e51b815260206004820152601a60248201527f494e53554646494349454e545f4554485f4c4951554944495459000000000000604482015290519081900360640190fd5b6131c184613158876064613857565b821015613215576040805162461bcd60e51b815260206004820152601c60248201527f494e53554646494349454e545f544f4b454e5f4c495155494449545900000000604482015290519081900360640190fd5b60035483111561326c576040805162461bcd60e51b815260206004820152600b60248201527f4f5645525041594d454e54000000000000000000000000000000000000000000604482015290519081900360640190fd5b600061328984612a6a60045460035461385790919063ffffffff16565b90506004548110156132e2576040805162461bcd60e51b815260206004820152601160248201527f494e53554646494349454e545f54494d45000000000000000000000000000000604482015290519081900360640190fd5b60006132ec613758565b905080613340576040805162461bcd60e51b815260206004820152601160248201527f4e4f5f4d4f52455f434c41494d41424c45000000000000000000000000000000604482015290519081900360640190fd5b601754604080517f156e29f6000000000000000000000000000000000000000000000000000000008152336004820152602481018490526001604482015290516001600160a01b039092169163156e29f69160648082019260009290919082900301818387803b1580156133b357600080fd5b505af11580156133c7573d6000803e3d6000fd5b505050506133d68160016127e3565b60006133e242846138b7565b6000838152600e60209081526040808320849055601082528083208a9055600f825280832080547fffffffffffffffffffffffff0000000000000000000000000000000000000000166001600160a01b038f16179055601282528083208c905560119091529020889055600d5490915061345c90876138b7565b600d55601854604080517f634b5b7d00000000000000000000000000000000000000000000000000000000815233600482015290516001600160a01b039092169163634b5b7d916024808201926020929091908290030181600087803b1580156134c557600080fd5b505af11580156134d9573d6000803e3d6000fd5b505050506040513d60208110156134ef57600080fd5b5050601854604080517fea40a7a40000000000000000000000000000000000000000000000000000000081523360048201526024810189905290516001600160a01b039092169163ea40a7a4916044808201926020929091908290030181600087803b15801561355e57600080fd5b505af1158015613572573d6000803e3d6000fd5b505050506040513d602081101561358857600080fd5b505060408051338152306020820152808201849052606081018590526001600160a01b038b16608082015260a0810189905260c0810188905290517fe583bcc9acfcc0488165ba03e5e6613c9cb6a8cc97fd72a3d28b402b0a1830fc9181900360e00190a1604080517f23b872dd000000000000000000000000000000000000000000000000000000008152336004820152306024820152604481018a905290516001600160a01b038b16916323b872dd9160648083019260209291908290030181600087803b15801561365b57600080fd5b505af115801561366f573d6000803e3d6000fd5b505050506040513d602081101561368557600080fd5b5050505050505050505050565b60008082116136e8576040805162461bcd60e51b815260206004820152601a60248201527f536166654d6174683a206469766973696f6e206279207a65726f000000000000604482015290519081900360640190fd5b8183816136f157fe5b0490505b92915050565b600082821115613752576040805162461bcd60e51b815260206004820152601e60248201527f536166654d6174683a207375627472616374696f6e206f766572666c6f770000604482015290519081900360640190fd5b50900390565b60006007546000141580156137715750600754600c5411155b8061377c5750600754155b613787576000611f92565b50600c54604080517f636c61696d0000000000000000000000000000000000000000000000000000006020808301919091523060601b6025830152603980830194909452825180830390940184526059909101909152815191012090565b60006137f030613911565b15905090565b600b546000906138078160016138b7565b600b55905090565b600c546000906138208160016138b7565b600c55905090565b600061384160065460035461369290919063ffffffff16565b60035490915061385190826138b7565b60035550565b600082613866575060006136f5565b8282028284828161387357fe5b04146138b05760405162461bcd60e51b81526004018080602001828103825260218152602001806139d96021913960400191505060405180910390fd5b9392505050565b6000828201838110156138b0576040805162461bcd60e51b815260206004820152601b60248201527f536166654d6174683a206164646974696f6e206f766572666c6f770000000000604482015290519081900360640190fd5b3b151590565b828054600181600116156101000203166002900490600052602060002090601f016020900481019282601f1061395857805160ff1916838001178555613985565b82800160010185558215613985579182015b8281111561398557825182559160200191906001019061396a565b50613991929150613995565b5090565b5b80821115613991576000815560010161399656fe496e697469616c697a61626c653a20636f6e747261637420697320616c726561647920696e697469616c697a6564536166654d6174683a206d756c7469706c69636174696f6e206f766572666c6f77436f6e74726f6c6c61626c653a2063616c6c6572206973206e6f74206120636f6e74726f6c6c6572a2646970667358221220db0bd647de856d480b41af7a38ee4a1ff94a67252a5cda11ef76e3545f4610b264736f6c63430007030033",
  "libraries": {
    "GovernanceLib": "0x141C0D0Eefd02E420878E672A4323ddb4f6b397d",
    "Strings": "0x1D8aB2fB78846411D2b5F2689ce5375A9a0f1918",
    "SafeMath": "0x78dc8614DC0c9d24f111EfAF2A542A2C3bf4a402",
    "ProposalsLib": "0xD9C96AffC401336C554Ef6649299D59Cf586Bd5f",
    "Create2": "0x557b0DdCddEC1ad5C63D11C6CC387472348E4396"
  },
  "devdoc": {
    "kind": "dev",
    "methods": {
      "addAllowedToken(address)": {
        "details": "the external version of the above"
      },
      "addController(address)": {
        "details": "Add an address allowed to control this contract"
      },
      "addInputRequirement(address,address,uint8,uint256,uint256,bool)": {
        "details": "add an input requirement for this token"
      },
      "allTokenHashes(uint256)": {
        "details": "get token id (serial #) of the given token hash. 0 if not a token, 1 if claim, 2 if gem"
      },
      "allTokenHashesLength()": {
        "details": "get token id (serial #) of the given token hash. 0 if not a token, 1 if claim, 2 if gem"
      },
      "allowedTokens(uint256)": {
        "details": "the external version of the above"
      },
      "allowedTokensLength()": {
        "details": "the external version of the above"
      },
      "category()": {
        "details": "set market category"
      },
      "claimAmount(uint256)": {
        "details": "the claim amount for the given claim id"
      },
      "claimQuantity(uint256)": {
        "details": "the claim quantity (count of gems staked) for the given claim id"
      },
      "claimTokenAmount(uint256)": {
        "details": "claim token amount if paid using erc20"
      },
      "claimUnlockTime(uint256)": {
        "details": "the lock time for this claim. once past lock time a gema is minted"
      },
      "claimedCount()": {
        "details": "number of claims made thus far"
      },
      "collectClaim(uint256)": {
        "details": "collect an open claim (take custody of the funds the claim is redeeemable for and maybe a gem too)"
      },
      "createClaim(uint256)": {
        "details": "the external version of the above"
      },
      "createClaims(uint256,uint256)": {
        "details": "the external version of the above"
      },
      "createERC20Claim(address,uint256)": {
        "details": "create a claim using a erc20 token"
      },
      "createERC20Claims(address,uint256,uint256)": {
        "details": "create a claim using a erc20 token"
      },
      "difficultyStep()": {
        "details": "difficulty step increase for this pool."
      },
      "ethPrice()": {
        "details": "The ether price for this pool / NFT"
      },
      "initialize(string,string,uint256,uint256,uint256,uint256,uint256,address)": {
        "details": "initializer called when contract is deployed"
      },
      "isController(address)": {
        "details": "Check if this address is a controller"
      },
      "isTokenAllowed(address)": {
        "details": "the external version of the above"
      },
      "maxClaims()": {
        "details": "max claims that can be made on this NFT"
      },
      "maxTime()": {
        "details": "max time to stake in this pool to earn an NFT"
      },
      "minTime()": {
        "details": "min time to stake in this pool to earn an NFT"
      },
      "mintGenesisGems(address,address)": {
        "details": "mint the genesis gems earned by the pools creator and funder"
      },
      "mintedCount()": {
        "details": "the number of gems minted in this"
      },
      "name()": {
        "details": "The name for this pool / NFT"
      },
      "nextClaimHash()": {
        "details": "the external version of the above"
      },
      "nextClaimId()": {
        "details": "the external version of the above"
      },
      "nextGemHash()": {
        "details": "the external version of the above"
      },
      "nextGemId()": {
        "details": "the external version of the above"
      },
      "relinquishControl()": {
        "details": "Check if this address is a controller"
      },
      "removeAllowedToken(address)": {
        "details": "the external version of the above"
      },
      "rescue(address,uint256)": {
        "details": "rescue funds"
      },
      "setCategory(uint256)": {
        "details": "set category category"
      },
      "setFeeTracker(address)": {
        "details": "set the governor. pool uses the governor to issue gov token issuance requests"
      },
      "setGovernor(address)": {
        "details": "set the governor. pool uses the governor to issue gov token issuance requests"
      },
      "setMultiToken(address)": {
        "details": "set the multitoken that this pool will mint new tokens on. Must be a controller of the multitoken"
      },
      "setSwapHelper(address)": {
        "details": "set the multitoken that this pool will mint new tokens on. Must be a controller of the multitoken"
      },
      "setValidateErc20(bool)": {
        "details": "set category category"
      },
      "setVisible(bool)": {
        "details": "set market visibility"
      },
      "stakedToken(uint256)": {
        "details": "the staked token if staking with erc20"
      },
      "symbol()": {
        "details": "The symbol for this pool / NFT"
      },
      "tokenId(uint256)": {
        "details": "get token id (serial #) of the given token hash. 0 if not a token, 1 if claim, 2 if gem"
      },
      "tokenType(uint256)": {
        "details": "get token type of hash - 1 is for claim, 2 is for gem"
      },
      "totalStakedEth()": {
        "details": "the number of gems minted in this"
      },
      "validateErc20()": {
        "details": "set market category"
      },
      "visible()": {
        "details": "set market visibility"
      }
    },
    "version": 1
  },
  "userdoc": {
    "kind": "user",
    "methods": {},
    "version": 1
  },
  "storageLayout": {
    "storage": [
      {
        "astId": 26524,
        "contract": "src/pool/NFTComplexGemPool.sol:NFTComplexGemPool",
        "label": "_initialized",
        "offset": 0,
        "slot": "0",
        "type": "t_bool"
      },
      {
        "astId": 26527,
        "contract": "src/pool/NFTComplexGemPool.sol:NFTComplexGemPool",
        "label": "_initializing",
        "offset": 1,
        "slot": "0",
        "type": "t_bool"
      },
      {
        "astId": 19827,
        "contract": "src/pool/NFTComplexGemPool.sol:NFTComplexGemPool",
        "label": "_symbol",
        "offset": 0,
        "slot": "1",
        "type": "t_string_storage"
      },
      {
        "astId": 19829,
        "contract": "src/pool/NFTComplexGemPool.sol:NFTComplexGemPool",
        "label": "_name",
        "offset": 0,
        "slot": "2",
        "type": "t_string_storage"
      },
      {
        "astId": 19831,
        "contract": "src/pool/NFTComplexGemPool.sol:NFTComplexGemPool",
        "label": "_ethPrice",
        "offset": 0,
        "slot": "3",
        "type": "t_uint256"
      },
      {
        "astId": 19833,
        "contract": "src/pool/NFTComplexGemPool.sol:NFTComplexGemPool",
        "label": "_minTime",
        "offset": 0,
        "slot": "4",
        "type": "t_uint256"
      },
      {
        "astId": 19835,
        "contract": "src/pool/NFTComplexGemPool.sol:NFTComplexGemPool",
        "label": "_maxTime",
        "offset": 0,
        "slot": "5",
        "type": "t_uint256"
      },
      {
        "astId": 19837,
        "contract": "src/pool/NFTComplexGemPool.sol:NFTComplexGemPool",
        "label": "_diffstep",
        "offset": 0,
        "slot": "6",
        "type": "t_uint256"
      },
      {
        "astId": 19839,
        "contract": "src/pool/NFTComplexGemPool.sol:NFTComplexGemPool",
        "label": "_maxClaims",
        "offset": 0,
        "slot": "7",
        "type": "t_uint256"
      },
      {
        "astId": 19843,
        "contract": "src/pool/NFTComplexGemPool.sol:NFTComplexGemPool",
        "label": "_tokenTypes",
        "offset": 0,
        "slot": "8",
        "type": "t_mapping(t_uint256,t_uint8)"
      },
      {
        "astId": 19847,
        "contract": "src/pool/NFTComplexGemPool.sol:NFTComplexGemPool",
        "label": "_tokenIds",
        "offset": 0,
        "slot": "9",
        "type": "t_mapping(t_uint256,t_uint256)"
      },
      {
        "astId": 19850,
        "contract": "src/pool/NFTComplexGemPool.sol:NFTComplexGemPool",
        "label": "_tokenHashes",
        "offset": 0,
        "slot": "10",
        "type": "t_array(t_uint256)dyn_storage"
      },
      {
        "astId": 19852,
        "contract": "src/pool/NFTComplexGemPool.sol:NFTComplexGemPool",
        "label": "_nextGemId",
        "offset": 0,
        "slot": "11",
        "type": "t_uint256"
      },
      {
        "astId": 19854,
        "contract": "src/pool/NFTComplexGemPool.sol:NFTComplexGemPool",
        "label": "_nextClaimId",
        "offset": 0,
        "slot": "12",
        "type": "t_uint256"
      },
      {
        "astId": 19856,
        "contract": "src/pool/NFTComplexGemPool.sol:NFTComplexGemPool",
        "label": "_totalStakedEth",
        "offset": 0,
        "slot": "13",
        "type": "t_uint256"
      },
      {
        "astId": 19860,
        "contract": "src/pool/NFTComplexGemPool.sol:NFTComplexGemPool",
        "label": "claimLockTimestamps",
        "offset": 0,
        "slot": "14",
        "type": "t_mapping(t_uint256,t_uint256)"
      },
      {
        "astId": 19864,
        "contract": "src/pool/NFTComplexGemPool.sol:NFTComplexGemPool",
        "label": "claimLockToken",
        "offset": 0,
        "slot": "15",
        "type": "t_mapping(t_uint256,t_address)"
      },
      {
        "astId": 19868,
        "contract": "src/pool/NFTComplexGemPool.sol:NFTComplexGemPool",
        "label": "claimAmountPaid",
        "offset": 0,
        "slot": "16",
        "type": "t_mapping(t_uint256,t_uint256)"
      },
      {
        "astId": 19872,
        "contract": "src/pool/NFTComplexGemPool.sol:NFTComplexGemPool",
        "label": "claimQuant",
        "offset": 0,
        "slot": "17",
        "type": "t_mapping(t_uint256,t_uint256)"
      },
      {
        "astId": 19876,
        "contract": "src/pool/NFTComplexGemPool.sol:NFTComplexGemPool",
        "label": "claimTokenAmountPaid",
        "offset": 0,
        "slot": "18",
        "type": "t_mapping(t_uint256,t_uint256)"
      },
      {
        "astId": 19879,
        "contract": "src/pool/NFTComplexGemPool.sol:NFTComplexGemPool",
        "label": "_allowedTokens",
        "offset": 0,
        "slot": "19",
        "type": "t_array(t_address)dyn_storage"
      },
      {
        "astId": 19883,
        "contract": "src/pool/NFTComplexGemPool.sol:NFTComplexGemPool",
        "label": "_isAllowedMap",
        "offset": 0,
        "slot": "20",
        "type": "t_mapping(t_address,t_bool)"
      },
      {
        "astId": 17744,
        "contract": "src/pool/NFTComplexGemPool.sol:NFTComplexGemPool",
        "label": "inputRequirements",
        "offset": 0,
        "slot": "21",
        "type": "t_array(t_struct(InputRequirement)17741_storage)dyn_storage"
      },
      {
        "astId": 10169,
        "contract": "src/pool/NFTComplexGemPool.sol:NFTComplexGemPool",
        "label": "_controllers",
        "offset": 0,
        "slot": "22",
        "type": "t_mapping(t_address,t_bool)"
      },
      {
        "astId": 16458,
        "contract": "src/pool/NFTComplexGemPool.sol:NFTComplexGemPool",
        "label": "_multitoken",
        "offset": 0,
        "slot": "23",
        "type": "t_address"
      },
      {
        "astId": 16460,
        "contract": "src/pool/NFTComplexGemPool.sol:NFTComplexGemPool",
        "label": "_governor",
        "offset": 0,
        "slot": "24",
        "type": "t_address"
      },
      {
        "astId": 16462,
        "contract": "src/pool/NFTComplexGemPool.sol:NFTComplexGemPool",
        "label": "_feeTracker",
        "offset": 0,
        "slot": "25",
        "type": "t_address"
      },
      {
        "astId": 16464,
        "contract": "src/pool/NFTComplexGemPool.sol:NFTComplexGemPool",
        "label": "_swapHelper",
        "offset": 0,
        "slot": "26",
        "type": "t_address"
      },
      {
        "astId": 16466,
        "contract": "src/pool/NFTComplexGemPool.sol:NFTComplexGemPool",
        "label": "_visible",
        "offset": 20,
        "slot": "26",
        "type": "t_bool"
      },
      {
        "astId": 16468,
        "contract": "src/pool/NFTComplexGemPool.sol:NFTComplexGemPool",
        "label": "_validateerc20",
        "offset": 21,
        "slot": "26",
        "type": "t_bool"
      },
      {
        "astId": 16470,
        "contract": "src/pool/NFTComplexGemPool.sol:NFTComplexGemPool",
        "label": "_category",
        "offset": 0,
        "slot": "27",
        "type": "t_uint256"
      }
    ],
    "types": {
      "t_address": {
        "encoding": "inplace",
        "label": "address",
        "numberOfBytes": "20"
      },
      "t_array(t_address)dyn_storage": {
        "base": "t_address",
        "encoding": "dynamic_array",
        "label": "address[]",
        "numberOfBytes": "32"
      },
      "t_array(t_struct(InputRequirement)17741_storage)dyn_storage": {
        "base": "t_struct(InputRequirement)17741_storage",
        "encoding": "dynamic_array",
        "label": "struct NFTComplexGemPoolData.InputRequirement[]",
        "numberOfBytes": "32"
      },
      "t_array(t_uint256)dyn_storage": {
        "base": "t_uint256",
        "encoding": "dynamic_array",
        "label": "uint256[]",
        "numberOfBytes": "32"
      },
      "t_bool": {
        "encoding": "inplace",
        "label": "bool",
        "numberOfBytes": "1"
      },
      "t_mapping(t_address,t_bool)": {
        "encoding": "mapping",
        "key": "t_address",
        "label": "mapping(address => bool)",
        "numberOfBytes": "32",
        "value": "t_bool"
      },
      "t_mapping(t_uint256,t_address)": {
        "encoding": "mapping",
        "key": "t_uint256",
        "label": "mapping(uint256 => address)",
        "numberOfBytes": "32",
        "value": "t_address"
      },
      "t_mapping(t_uint256,t_uint256)": {
        "encoding": "mapping",
        "key": "t_uint256",
        "label": "mapping(uint256 => uint256)",
        "numberOfBytes": "32",
        "value": "t_uint256"
      },
      "t_mapping(t_uint256,t_uint8)": {
        "encoding": "mapping",
        "key": "t_uint256",
        "label": "mapping(uint256 => uint8)",
        "numberOfBytes": "32",
        "value": "t_uint8"
      },
      "t_string_storage": {
        "encoding": "bytes",
        "label": "string",
        "numberOfBytes": "32"
      },
      "t_struct(InputRequirement)17741_storage": {
        "encoding": "inplace",
        "label": "struct NFTComplexGemPoolData.InputRequirement",
        "members": [
          {
            "astId": 17730,
            "contract": "src/pool/NFTComplexGemPool.sol:NFTComplexGemPool",
            "label": "token",
            "offset": 0,
            "slot": "0",
            "type": "t_address"
          },
          {
            "astId": 17732,
            "contract": "src/pool/NFTComplexGemPool.sol:NFTComplexGemPool",
            "label": "pool",
            "offset": 0,
            "slot": "1",
            "type": "t_address"
          },
          {
            "astId": 17734,
            "contract": "src/pool/NFTComplexGemPool.sol:NFTComplexGemPool",
            "label": "inputType",
            "offset": 20,
            "slot": "1",
            "type": "t_uint8"
          },
          {
            "astId": 17736,
            "contract": "src/pool/NFTComplexGemPool.sol:NFTComplexGemPool",
            "label": "tokenId",
            "offset": 0,
            "slot": "2",
            "type": "t_uint256"
          },
          {
            "astId": 17738,
            "contract": "src/pool/NFTComplexGemPool.sol:NFTComplexGemPool",
            "label": "minVal",
            "offset": 0,
            "slot": "3",
            "type": "t_uint256"
          },
          {
            "astId": 17740,
            "contract": "src/pool/NFTComplexGemPool.sol:NFTComplexGemPool",
            "label": "burn",
            "offset": 0,
            "slot": "4",
            "type": "t_bool"
          }
        ],
        "numberOfBytes": "160"
      },
      "t_uint256": {
        "encoding": "inplace",
        "label": "uint256",
        "numberOfBytes": "32"
      },
      "t_uint8": {
        "encoding": "inplace",
        "label": "uint8",
        "numberOfBytes": "1"
      }
    }
  }
}