{
  "address": "0xc61A65E1a01DE87b510D38957591AdFAd71C2160",
  "abi": [
    {
      "anonymous": false,
      "inputs": [
        {
          "indexed": true,
          "internalType": "address",
          "name": "gemPoolAdress",
          "type": "address"
        },
        {
          "indexed": false,
          "internalType": "string",
          "name": "gemSymbol",
          "type": "string"
        },
        {
          "indexed": false,
          "internalType": "string",
          "name": "gemName",
          "type": "string"
        }
      ],
      "name": "CustomNFTGemPoolCreated",
      "type": "event"
    },
    {
      "anonymous": false,
      "inputs": [
        {
          "indexed": true,
          "internalType": "address",
          "name": "gemPoolAddress",
          "type": "address"
        },
        {
          "indexed": false,
          "internalType": "string",
          "name": "gemSymbol",
          "type": "string"
        },
        {
          "indexed": false,
          "internalType": "string",
          "name": "gemName",
          "type": "string"
        },
        {
          "indexed": false,
          "internalType": "uint256",
          "name": "ethPrice",
          "type": "uint256"
        },
        {
          "indexed": false,
          "internalType": "uint256",
          "name": "minTime",
          "type": "uint256"
        },
        {
          "indexed": false,
          "internalType": "uint256",
          "name": "maxTime",
          "type": "uint256"
        },
        {
          "indexed": false,
          "internalType": "uint256",
          "name": "diffstep",
          "type": "uint256"
        },
        {
          "indexed": false,
          "internalType": "uint256",
          "name": "maxMint",
          "type": "uint256"
        },
        {
          "indexed": false,
          "internalType": "address",
          "name": "allowedToken",
          "type": "address"
        }
      ],
      "name": "NFTGemPoolCreated",
      "type": "event"
    },
    {
      "inputs": [
        {
          "internalType": "uint256",
          "name": "idx",
          "type": "uint256"
        }
      ],
      "name": "allNFTGemPools",
      "outputs": [
        {
          "internalType": "address",
          "name": "gemPool",
          "type": "address"
        }
      ],
      "stateMutability": "view",
      "type": "function"
    },
    {
      "inputs": [],
      "name": "allNFTGemPoolsLength",
      "outputs": [
        {
          "internalType": "uint256",
          "name": "",
          "type": "uint256"
        }
      ],
      "stateMutability": "view",
      "type": "function"
    },
    {
      "inputs": [
        {
          "internalType": "address",
          "name": "owner",
          "type": "address"
        },
        {
          "internalType": "string",
          "name": "gemSymbol",
          "type": "string"
        },
        {
          "internalType": "string",
          "name": "gemName",
          "type": "string"
        },
        {
          "internalType": "uint256",
          "name": "ethPrice",
          "type": "uint256"
        },
        {
          "internalType": "uint256",
          "name": "minTime",
          "type": "uint256"
        },
        {
          "internalType": "uint256",
          "name": "maxTime",
          "type": "uint256"
        },
        {
          "internalType": "uint256",
          "name": "diffstep",
          "type": "uint256"
        },
        {
          "internalType": "uint256",
          "name": "maxMint",
          "type": "uint256"
        },
        {
          "internalType": "address",
          "name": "allowedToken",
          "type": "address"
        }
      ],
      "name": "createNFTGemPool",
      "outputs": [
        {
          "internalType": "address payable",
          "name": "gemPool",
          "type": "address"
        }
      ],
      "stateMutability": "nonpayable",
      "type": "function"
    },
    {
      "inputs": [
        {
          "internalType": "uint256",
          "name": "_symbolHash",
          "type": "uint256"
        }
      ],
      "name": "getNFTGemPool",
      "outputs": [
        {
          "internalType": "address",
          "name": "gemPool",
          "type": "address"
        }
      ],
      "stateMutability": "view",
      "type": "function"
    },
    {
      "inputs": [],
      "name": "nftGemPools",
      "outputs": [
        {
          "internalType": "address[]",
          "name": "",
          "type": "address[]"
        }
      ],
      "stateMutability": "view",
      "type": "function"
    }
  ],
  "transactionHash": "0xc398e59022fcd08fa7931164224f2c1e2c275d31608375db9b0a4702527fa1d3",
  "args": [],
  "solcInputHash": "8146679affc56af088416b479497acfb",
  "bytecode": "0x608060405234801561001057600080fd5b50615a0d806100206000396000f3fe608060405234801561001057600080fd5b50600436106100675760003560e01c80635e6fe72a116100505780635e6fe72a146100aa57806367275aed146100bf5780638514d358146100d257610067565b80631ff77f161461006c5780632b69fa1014610095575b600080fd5b61007f61007a36600461065b565b6100e5565b60405161008c91906106bb565b60405180910390f35b61009d61013c565b60405161008c91906106cf565b6100b261019e565b60405161008c91906108ff565b61007f6100cd36600461065b565b6101a4565b61007f6100e03660046105a8565b6101bf565b600060018281548110610121577f4e487b7100000000000000000000000000000000000000000000000000000000600052603260045260246000fd5b6000918252602090912001546001600160a01b031692915050565b6060600180548060200260200160405190810160405280929190818152602001828054801561019457602002820191906000526020600020905b81546001600160a01b03168152600190910190602001808311610176575b5050505050905090565b60015490565b6000908152602081905260409020546001600160a01b031690565b600080896040516020016101d3919061069f565b60408051601f1981840301815291815281516020928301206000818152928390529120549091506001600160a01b0316156102295760405162461bcd60e51b81526004016102209061085a565b60405180910390fd5b876102465760405162461bcd60e51b8152600401610220906107b5565b866102635760405162461bcd60e51b815260040161022090610891565b846102805760405162461bcd60e51b8152600401610220906107ec565b600060405180602001610292906104fe565b601f1982820381018352601f9091011660405290506102b360008383610484565b6040517fa7fc7a070000000000000000000000000000000000000000000000000000000081529093506001600160a01b0384169063a7fc7a07906102fb908f906004016106bb565b600060405180830381600087803b15801561031557600080fd5b505af1158015610329573d6000803e3d6000fd5b50506040517fd9a3f9bb0000000000000000000000000000000000000000000000000000000081526001600160a01b038616925063d9a3f9bb9150610380908e908e908e908e908e908e908e908e9060040161071c565b600060405180830381600087803b15801561039a57600080fd5b505af11580156103ae573d6000803e3d6000fd5b50505060008381526020819052604080822080546001600160a01b0388167fffffffffffffffffffffffff0000000000000000000000000000000000000000918216811790925560018054808201825594527fb10e2d527612073b26eecdfd717e6a320cf44b4afac2b0732d9fcbe2b7fa0cf690930180549093168117909255519091507f39edc680fea25684123932cc30f03ee17ba6966438526d7569cc7d6bb4e762e69061046d908e908e908e908e908e908e908e908e9061071c565b60405180910390a250509998505050505050505050565b600080844710156104a75760405162461bcd60e51b8152600401610220906108c8565b82516104c55760405162461bcd60e51b815260040161022090610780565b8383516020850187f590506001600160a01b0381166104f65760405162461bcd60e51b815260040161022090610823565b949350505050565b6150708061096883390190565b80356001600160a01b038116811461052257600080fd5b919050565b600082601f830112610537578081fd5b813567ffffffffffffffff8082111561055257610552610938565b6040516020601f19601f850116820101818110838211171561057657610576610938565b60405282815284830160200186101561058d578384fd5b82602086016020830137918201602001929092529392505050565b60008060008060008060008060006101208a8c0312156105c6578485fd5b6105cf8a61050b565b985060208a013567ffffffffffffffff808211156105eb578687fd5b6105f78d838e01610527565b995060408c013591508082111561060c578687fd5b506106198c828d01610527565b97505060608a0135955060808a0135945060a08a0135935060c08a0135925060e08a0135915061064c6101008b0161050b565b90509295985092959850929598565b60006020828403121561066c578081fd5b5035919050565b6000815180845261068b816020860160208601610908565b601f01601f19169290920160200192915050565b600082516106b1818460208701610908565b9190910192915050565b6001600160a01b0391909116815260200190565b6020808252825182820181905260009190848201906040850190845b818110156107105783516001600160a01b0316835292840192918401916001016106eb565b50909695505050505050565b60006101008083526107308184018c610673565b90508281036020840152610744818b610673565b604084019990995250506060810195909552608085019390935260a084019190915260c08301526001600160a01b031660e09091015292915050565b6020808252818101527f437265617465323a2062797465636f6465206c656e677468206973207a65726f604082015260600190565b6020808252600d908201527f494e56414c49445f505249434500000000000000000000000000000000000000604082015260600190565b60208082526017908201527f494e56414c49445f444946464943554c54595f53544550000000000000000000604082015260600190565b60208082526019908201527f437265617465323a204661696c6564206f6e206465706c6f7900000000000000604082015260600190565b6020808252600e908201527f47454d504f4f4c5f455849535453000000000000000000000000000000000000604082015260600190565b60208082526010908201527f494e56414c49445f4d494e5f54494d4500000000000000000000000000000000604082015260600190565b6020808252601d908201527f437265617465323a20696e73756666696369656e742062616c616e6365000000604082015260600190565b90815260200190565b60005b8381101561092357818101518382015260200161090b565b83811115610932576000848401525b50505050565b7f4e487b7100000000000000000000000000000000000000000000000000000000600052604160045260246000fdfe608060405234801561001057600080fd5b50336000818152602460205260408082208054600160ff1991821681178355328552928420805482168417905593835280549093161790915561501790819061005990396000f3fe6080604052600436106105735760003560e01c8063a0021cf1116102ca578063d3d0839711610179578063e6c3b1f6116100d6578063f8d1e9301161008a578063f9eaee0d1161006f578063f9eaee0d14610e87578063fd31a0a514610ea7578063ff186b2e14610ec757610573565b8063f8d1e93014610e31578063f9c9c27614610e5357610573565b8063ef430aa6116100bb578063ef430aa614610de7578063f23a6e6114610dfc578063f4fde0d314610e1c57610573565b8063e6c3b1f614610da7578063edcf2d5714610dc757610573565b8063d9d98ce41161012d578063e06174e411610112578063e06174e414610d46578063e1c28bef14610d72578063e5d2ce2f14610d8757610573565b8063d9d98ce414610d06578063df1fe1a914610d2657610573565b8063d73cd47f1161015e578063d73cd47f14610c9d578063d80528ae14610cbd578063d9a3f9bb14610ce657610573565b8063d3d0839714610c68578063d43e646014610c7d57610573565b8063c42cf53511610227578063c80c0613116101db578063cf721b15116101c0578063cf721b1514610bf3578063d104f8f514610c28578063d31674db14610c4857610573565b8063c80c061314610bf3578063cdc8a8ab14610c0857610573565b8063c54a92421161020c578063c54a924214610b93578063c5e01a5c14610bb3578063c65eff9614610bd357610573565b8063c42cf53514610b53578063c455279114610b7357610573565b8063b429afeb1161027e578063bc197c8111610263578063bc197c8114610b06578063bfcb26be14610b33578063c08fa1a414610a5257610573565b8063b429afeb14610ad1578063b788e4e914610af157610573565b8063a901c474116102af578063a901c47414610a87578063af6a6d7914610aa7578063b385a50a14610abc57610573565b8063a0021cf114610a52578063a7fc7a0714610a6757610573565b80635e5f2e2611610426578063829775511161038357806390c3f38f11610337578063959355601161031c57806395935560146109fd57806395d89b4114610a1d5780639bc86fea14610a3257610573565b806390c3f38f146109bd5780639277a185146109dd57610573565b8063870114f611610368578063870114f6146109685780638a09871b1461098857806390469a9d1461099d57610573565b806382977551146109285780638407b6c51461094857610573565b80637284e416116103da5780637c07bc7a116103bf5780637c07bc7a146108c65780637dcb0e5f146108e85780637f2e8f0c1461090857610573565b80637284e416146108845780637ae7815d146108a657610573565b80636100c3431161040b5780636100c34314610831578063613255ab146108515780636b6201da1461087157610573565b80635e5f2e26146107f15780635fb930911461081e57610573565b8063379607f5116104d45780634565e5ef11610488578063504cdacf1161046d578063504cdacf146107a75780635cffe9de146107bc5780635d2e0dd4146107dc57610573565b80634565e5ef1461077d5780634e04cdc71461079257610573565b8063407dff16116104b9578063407dff161461071b5780634178617f1461073d57806344f0877c1461075d57610573565b8063379607f5146106d6578063392732b11461070857610573565b806323b221a01161052b57806326ff31521161051057806326ff315214610681578063328d8f72146106a1578063336b9efb146106c157610573565b806323b221a0146106345780632449ef511461066157610573565b80631284650d1161055c5780631284650d146105dd5780632360cf5e146105ff578063238dafe01461061f57610573565b806301ffc9a714610578578063044215c6146105ae575b600080fd5b34801561058457600080fd5b50610598610593366004614154565b610edc565b6040516105a591906147b7565b60405180910390f35b3480156105ba57600080fd5b506105ce6105c9366004614398565b610f3a565b6040516105a59392919061483a565b3480156105e957600080fd5b506105fd6105f8366004613d5a565b610f70565b005b34801561060b57600080fd5b506105fd61061a366004614474565b610f8e565b34801561062b57600080fd5b50610598610ff5565b34801561064057600080fd5b5061065461064f366004614398565b611004565b6040516105a59190614ca2565b34801561066d57600080fd5b506105fd61067c366004613d99565b6110a9565b34801561068d57600080fd5b506105fd61069c366004613d5a565b611132565b3480156106ad57600080fd5b506105fd6106bc366004614104565b61114c565b3480156106cd57600080fd5b506106546111bb565b3480156106e257600080fd5b506106f66106f1366004614398565b6111c1565b6040516105a596959493929190614e1e565b6105fd610716366004614474565b6114f9565b34801561072757600080fd5b5061073061154e565b6040516105a59190614827565b34801561074957600080fd5b506105fd610758366004613d5a565b61155e565b34801561076957600080fd5b506105fd610778366004614104565b6115bc565b34801561078957600080fd5b50610654611646565b34801561079e57600080fd5b50610598611657565b3480156107b357600080fd5b50610654611665565b3480156107c857600080fd5b506105986107d7366004614194565b61166b565b3480156107e857600080fd5b50610598611aa2565b3480156107fd57600080fd5b5061081161080c366004614398565b611aab565b6040516105a591906145f7565b6105fd61082c366004614398565b611ab8565b34801561083d57600080fd5b506105fd61084c366004614095565b611b42565b34801561085d57600080fd5b5061065461086c366004613d5a565b611bce565b6105fd61087f366004614398565b611caa565b34801561089057600080fd5b50610899611d00565b6040516105a59190614864565b3480156108b257600080fd5b506105fd6108c1366004614104565b611d95565b3480156108d257600080fd5b506108db611df8565b6040516105a5919061477f565b3480156108f457600080fd5b50610654610903366004614398565b611e52565b34801561091457600080fd5b50610654610923366004614398565b611e64565b34801561093457600080fd5b50610654610943366004614398565b611eb9565b34801561095457600080fd5b506105fd610963366004613e7b565b611ecb565b34801561097457600080fd5b506105fd610983366004614450565b611f66565b34801561099457600080fd5b50610654611fbb565b3480156109a957600080fd5b506105fd6109b8366004613d5a565b61205e565b3480156109c957600080fd5b506105fd6109d8366004614266565b6120bc565b3480156109e957600080fd5b506105fd6109f8366004613d5a565b612126565b348015610a0957600080fd5b50610654610a18366004614398565b61216f565b348015610a2957600080fd5b506108996121c4565b348015610a3e57600080fd5b506105fd610a4d366004613f9c565b6121d6565b348015610a5e57600080fd5b50610654612887565b348015610a7357600080fd5b506105fd610a82366004613d5a565b61288d565b348015610a9357600080fd5b50610654610aa2366004614398565b6128ef565b348015610ab357600080fd5b50610598612944565b348015610ac857600080fd5b5061065461294d565b348015610add57600080fd5b50610598610aec366004613d5a565b612953565b348015610afd57600080fd5b50610654612971565b348015610b1257600080fd5b50610b26610b21366004613dd1565b6129c4565b6040516105a591906147fa565b348015610b3f57600080fd5b50610598610b4e36600461406a565b6129ee565b348015610b5f57600080fd5b506105fd610b6e366004613d5a565b612a18565b348015610b7f57600080fd5b50610811610b8e366004613d5a565b612a61565b348015610b9f57600080fd5b506105fd610bae36600461422e565b612a66565b348015610bbf57600080fd5b50610811610bce366004614398565b612b0f565b348015610bdf57600080fd5b506105fd610bee366004614398565b612bb4565b348015610bff57600080fd5b50610654612c0c565b348015610c1457600080fd5b506105fd610c233660046140c9565b612c12565b348015610c3457600080fd5b506105fd610c43366004613d5a565b612c78565b348015610c5457600080fd5b50610654610c63366004614398565b612cc1565b348015610c7457600080fd5b50610654612cf8565b348015610c8957600080fd5b506105fd610c98366004614104565b612d4b565b348015610ca957600080fd5b506105fd610cb8366004613d5a565b612db1565b348015610cc957600080fd5b50610cd2612dfa565b6040516105a59897969594939291906147c2565b348015610cf257600080fd5b506105fd610d01366004614303565b612f7e565b348015610d1257600080fd5b50610654610d2136600461406a565b613073565b348015610d3257600080fd5b506105fd610d413660046143b0565b6132fd565b348015610d5257600080fd5b50610d5b61339b565b6040516105a59b9a99989796959493929190614877565b348015610d7e57600080fd5b506105fd6135b2565b348015610d9357600080fd5b506105fd610da2366004614398565b613609565b348015610db357600080fd5b50610730610dc2366004614398565b613661565b348015610dd357600080fd5b506105fd610de236600461406a565b613676565b348015610df357600080fd5b506106546136ce565b348015610e0857600080fd5b50610b26610e17366004614003565b6136d4565b348015610e2857600080fd5b506106546136fe565b348015610e3d57600080fd5b50610e46613704565b6040516105a59190614732565b348015610e5f57600080fd5b50610e73610e6e366004614398565b613764565b6040516105a5989796959493929190614625565b348015610e9357600080fd5b50610598610ea2366004613d5a565b613818565b348015610eb357600080fd5b506105fd610ec2366004614398565b613825565b348015610ed357600080fd5b5061065461387d565b60007fffffffff0000000000000000000000000000000000000000000000000000000082167f4e2312e0000000000000000000000000000000000000000000000000000000001480610f325750610f3282613883565b90505b919050565b6000908152601260209081526040808320546013835281842054601490935292205460ff9092169290916001600160a01b031690565b610f7b6015826138cd565b15610f8b57610f8b60158261393c565b50565b3360009081526024602052604090205460ff16151560011480610fbb57506002546001600160a01b031633145b80610fc557503033145b610fea5760405162461bcd60e51b8152600401610fe190614a67565b60405180910390fd5b601991909155601855565b60115462010000900460ff1690565b6040517f01356b6d00000000000000000000000000000000000000000000000000000000815260009073d7203305346B69227e126D7FBfCE20Fc976aE524906301356b6d906110599084908690600401614d4d565b60206040518083038186803b15801561107157600080fd5b505af4158015611085573d6000803e3d6000fd5b505050506040513d601f19601f82011682018060405250810190610f32919061413c565b6040517fb9f0527400000000000000000000000000000000000000000000000000000000815273d7203305346B69227e126D7FBfCE20Fc976aE5249063b9f05274906110fe9060009086908690600401614cab565b60006040518083038186803b15801561111657600080fd5b505af415801561112a573d6000803e3d6000fd5b505050505050565b61113d6015826138cd565b610f8b57610f8b601582613ae0565b3360009081526024602052604090205460ff1615156001148061117957506002546001600160a01b031633145b8061118357503033145b61119f5760405162461bcd60e51b8152600401610fe190614a67565b60118054911515620100000262ff000019909216919091179055565b60105490565b600080600080600080600073d7203305346B69227e126D7FBfCE20Fc976aE5246301356b6d9091896040518363ffffffff1660e01b8152600401611206929190614d4d565b60206040518083038186803b15801561121e57600080fd5b505af4158015611232573d6000803e3d6000fd5b505050506040513d601f19601f82011682018060405250810190611256919061413c565b6040517fecd5244e00000000000000000000000000000000000000000000000000000000815273d7203305346B69227e126D7FBfCE20Fc976aE5249063ecd5244e906112a9906000908c90600401614d4d565b60206040518083038186803b1580156112c157600080fd5b505af41580156112d5573d6000803e3d6000fd5b505050506040513d601f19601f820116820180604052508101906112f9919061413c565b6040517fb94677da00000000000000000000000000000000000000000000000000000000815273d7203305346B69227e126D7FBfCE20Fc976aE5249063b94677da9061134c906000908d90600401614d4d565b60206040518083038186803b15801561136457600080fd5b505af4158015611378573d6000803e3d6000fd5b505050506040513d601f19601f8201168201806040525081019061139c919061413c565b6040517fdc1f0f5300000000000000000000000000000000000000000000000000000000815273d7203305346B69227e126D7FBfCE20Fc976aE5249063dc1f0f53906113ef906000908e90600401614d4d565b60206040518083038186803b15801561140757600080fd5b505af415801561141b573d6000803e3d6000fd5b505050506040513d601f19601f8201168201806040525081019061143f919061413c565b6040517f76e455e100000000000000000000000000000000000000000000000000000000815273d7203305346B69227e126D7FBfCE20Fc976aE524906376e455e190611492906000908f90600401614d4d565b60206040518083038186803b1580156114aa57600080fd5b505af41580156114be573d6000803e3d6000fd5b505050506040513d601f19601f820116820180604052508101906114e29190613d7d565b601954949c939b5091995097509550909350915050565b6040517f80ca2ba600000000000000000000000000000000000000000000000000000000815273d7203305346B69227e126D7FBfCE20Fc976aE524906380ca2ba6906110fe9060009086908690600401614ddb565b6011546301000000900460ff1690565b3360009081526024602052604090205460ff1615156001148061158b57506002546001600160a01b031633145b8061159557503033145b6115b15760405162461bcd60e51b8152600401610fe190614a67565b610f8b602782613ae0565b3360009081526024602052604090205460ff161515600114806115e957506002546001600160a01b031633145b806115f357503033145b61160f5760405162461bcd60e51b8152600401610fe190614a67565b60118054911515610100027fffffffffffffffffffffffffffffffffffffffffffffffffffffffffffff00ff909216919091179055565b60006116526027613b6c565b905090565b601154610100900460ff1690565b601a5490565b6000806116788686613073565b9050866001600160a01b0387166116c5576040516001600160a01b0382169087156108fc029088906000818181858888f193505050501580156116bf573d6000803e3d6000fd5b50611760565b6040517fa9059cbb0000000000000000000000000000000000000000000000000000000081526001600160a01b0388169063a9059cbb9061170c9084908a906004016146f8565b602060405180830381600087803b15801561172657600080fd5b505af115801561173a573d6000803e3d6000fd5b505050506040513d601f19601f8201168201806040525081019061175e9190614120565b505b6040517f23e30c8b0000000000000000000000000000000000000000000000000000000081527f439148f0bbc682ca079e46d6e2c2f0c1e3b820f1a291b069d8882abf8cf18dd99081906001600160a01b038b16906323e30c8b906117d39033908d908d908a908e908e906004016146a0565b602060405180830381600087803b1580156117ed57600080fd5b505af1158015611801573d6000803e3d6000fd5b505050506040513d601f19601f82011682018060405250810190611825919061413c565b146118425760405162461bcd60e51b8152600401610fe19061492e565b6001600160a01b038816611868577321be370d5312f44cb42ce377bc9b8a0cef1a4c8397505b6040517fdd62ed3e0000000000000000000000000000000000000000000000000000000081526000906001600160a01b038a169063dd62ed3e906118b2908d90309060040161460b565b60206040518083038186803b1580156118ca57600080fd5b505afa1580156118de573d6000803e3d6000fd5b505050506040513d601f19601f82011682018060405250810190611902919061413c565b905061190e8489614ead565b81101561192d5760405162461bcd60e51b8152600401610fe190614bd7565b6040517f23b872dd0000000000000000000000000000000000000000000000000000000081526001600160a01b038a16906323b872dd90611976908d903090869060040161467c565b602060405180830381600087803b15801561199057600080fd5b505af11580156119a4573d6000803e3d6000fd5b505050506040513d601f19601f820116820180604052508101906119c89190614120565b506001600160a01b0389167321be370d5312f44cb42ce377bc9b8a0cef1a4c831415611a92576040517f2e1a7d4d0000000000000000000000000000000000000000000000000000000081527321be370d5312f44cb42ce377bc9b8a0cef1a4c8390632e1a7d4d90611a3e908490600401614ca2565b602060405180830381600087803b158015611a5857600080fd5b505af1158015611a6c573d6000803e3d6000fd5b505050506040513d601f19601f82011682018060405250810190611a90919061413c565b505b5060019998505050505050505050565b60115460ff1690565b6000610f32602783613b73565b6040517fe5fca79a00000000000000000000000000000000000000000000000000000000815273d7203305346B69227e126D7FBfCE20Fc976aE5249063e5fca79a90611b0f90600090339034908790600401614d29565b60006040518083038186803b158015611b2757600080fd5b505af4158015611b3b573d6000803e3d6000fd5b5050505050565b6040517fafeafd9a00000000000000000000000000000000000000000000000000000000815273d7203305346B69227e126D7FBfCE20Fc976aE5249063afeafd9a90611b9990600090879087908790600401614d29565b60006040518083038186803b158015611bb157600080fd5b505af4158015611bc5573d6000803e3d6000fd5b50505050505050565b60006001600160a01b03821615611c95576040517f70a082310000000000000000000000000000000000000000000000000000000081526001600160a01b038316906370a0823190611c249030906004016145f7565b60206040518083038186803b158015611c3c57600080fd5b505afa925050508015611c6c575060408051601f3d908101601f19168201909252611c699181019061413c565b60015b611c7857506000610f35565b611c83600a82614ec5565b611c8d9082614ee5565b915050610f35565b611ca0600a47614ec5565b610f329047614ee5565b6040517f80ca2ba600000000000000000000000000000000000000000000000000000000815273d7203305346B69227e126D7FBfCE20Fc976aE524906380ca2ba690611b0f906000908590600190600401614ddb565b606060006009018054611d1290614f2c565b80601f0160208091040260200160405190810160405280929190818152602001828054611d3e90614f2c565b8015611d8b5780601f10611d6057610100808354040283529160200191611d8b565b820191906000526020600020905b815481529060010190602001808311611d6e57829003601f168201915b5050505050905090565b3360009081526024602052604090205460ff16151560011480611dc257506002546001600160a01b031633145b80611dcc57503033145b611de85760405162461bcd60e51b8152600401610fe190614a67565b506011805460ff19166001179055565b60606000601701805480602002602001604051908101604052809291908181526020018280548015611d8b57602002820191906000526020600020905b815481526020019060010190808311611e35575050505050905090565b60009081526013602052604090205490565b6040517fecd5244e00000000000000000000000000000000000000000000000000000000815260009073d7203305346B69227e126D7FBfCE20Fc976aE5249063ecd5244e906110599084908690600401614d4d565b60009081526021602052604090205490565b6040517f212f8bbd00000000000000000000000000000000000000000000000000000000815273d7203305346B69227e126D7FBfCE20Fc976aE5249063212f8bbd90611f2c906000908c908c908c908c908c908c908c908c90600401614cca565b60006040518083038186803b158015611f4457600080fd5b505af4158015611f58573d6000803e3d6000fd5b505050505050505050505050565b6040517f48126f4b00000000000000000000000000000000000000000000000000000000815273d7203305346B69227e126D7FBfCE20Fc976aE524906348126f4b906110fe9060009086908690600401614dc3565b6040517f164cd8c200000000000000000000000000000000000000000000000000000000815260009073d7203305346B69227e126D7FBfCE20Fc976aE5249063164cd8c29061200e908490600401614ca2565b60206040518083038186803b15801561202657600080fd5b505af415801561203a573d6000803e3d6000fd5b505050506040513d601f19601f82011682018060405250810190611652919061413c565b3360009081526024602052604090205460ff1615156001148061208b57506002546001600160a01b031633145b8061209557503033145b6120b15760405162461bcd60e51b8152600401610fe190614a67565b610f8b60278261393c565b3360009081526024602052604090205460ff161515600114806120e957506002546001600160a01b031633145b806120f357503033145b61210f5760405162461bcd60e51b8152600401610fe190614a67565b8051612122906009906020840190613bb4565b5050565b336000908152602460205260409020805460ff191660011790556003805473ffffffffffffffffffffffffffffffffffffffff19166001600160a01b0392909216919091179055565b6040517fdc1f0f5300000000000000000000000000000000000000000000000000000000815260009073d7203305346B69227e126D7FBfCE20Fc976aE5249063dc1f0f53906110599084908690600401614d4d565b606060006007018054611d1290614f2c565b600083116121f65760405162461bcd60e51b8152600401610fe190614b32565b6001600160a01b03851661221c5760405162461bcd60e51b8152600401610fe190614c0e565b6001600160a01b0384166122425760405162461bcd60e51b8152600401610fe1906148f7565b6001600160a01b0382166122685760405162461bcd60e51b8152600401610fe190614965565b6122736015856138cd565b15156001146122945760405162461bcd60e51b8152600401610fe190614afb565b6040517efdd58e0000000000000000000000000000000000000000000000000000000081526000906001600160a01b0386169062fdd58e906122dc90869088906004016146f8565b60206040518083038186803b1580156122f457600080fd5b505afa158015612308573d6000803e3d6000fd5b505050506040513d601f19601f8201168201806040525081019061232c919061413c565b90506000811161234e5760405162461bcd60e51b8152600401610fe190614a30565b60018215151415612402576040517ff5298aca0000000000000000000000000000000000000000000000000000000081526001600160a01b0386169063f5298aca906123a290869088908690600401614711565b600060405180830381600087803b1580156123bc57600080fd5b505af11580156123d0573d6000803e3d6000fd5b5050506000858152602080805260408083206001600160a01b0388168452909152902054821190506124025750611b3b565b6000848152602080805260408083206001600160a01b038716845290915290205481116124415760405162461bcd60e51b8152600401610fe190614ac4565b6000866001600160a01b03166395d89b416040518163ffffffff1660e01b815260040160006040518083038186803b15801561247c57600080fd5b505afa158015612490573d6000803e3d6000fd5b505050506040513d6000823e601f3d908101601f191682016040526124b89190810190614299565b6040516020016124c891906144c1565b60408051601f1981840301815290829052805160209182012092506000916124f391600791016144dd565b60405160208183030381529060405280519060200120905080821461252a5760405162461bcd60e51b8152600401610fe19061499c565b6040517fe6c3b1f60000000000000000000000000000000000000000000000000000000081526000906001600160a01b038a169063e6c3b1f690612572908a90600401614ca2565b60206040518083038186803b15801561258a57600080fd5b505afa15801561259e573d6000803e3d6000fd5b505050506040513d601f19601f820116820180604052508101906125c2919061424a565b905060028160028111156125e657634e487b7160e01b600052602160045260246000fd5b146126035760405162461bcd60e51b8152600401610fe190614b69565b6040517f7dcb0e5f0000000000000000000000000000000000000000000000000000000081526000906001600160a01b038b1690637dcb0e5f9061264b908b90600401614ca2565b60206040518083038186803b15801561266357600080fd5b505afa158015612677573d6000803e3d6000fd5b505050506040513d601f19601f8201168201806040525081019061269b919061413c565b60008981526012602052604090208054919250839160ff191660018360028111156126d657634e487b7160e01b600052602160045260246000fd5b0217905550600088815260136020908152604080832084905560148252808320805473ffffffffffffffffffffffffffffffffffffffff19166001600160a01b038e8116919091179091558280528184208b821685529092529182902087905560015491517f156e29f600000000000000000000000000000000000000000000000000000000815291169063156e29f690612779908a908c908a90600401614711565b600060405180830381600087803b15801561279357600080fd5b505af11580156127a7573d6000803e3d6000fd5b50506001546040517f7c8810760000000000000000000000000000000000000000000000000000000081526001600160a01b039091169250637c88107691506127f9908b906002903090600401614df1565b600060405180830381600087803b15801561281357600080fd5b505af1158015612827573d6000803e3d6000fd5b5050505087306001600160a01b0316336001600160a01b03167ff5b54e798ff7f434ed773aa633e6a9f82ef9ae465e46042e1983f29bf1fd69ea8d8d8a6040516128739392919061467c565b60405180910390a450505050505050505050565b60195490565b3360009081526024602052604090205460ff161515600114806128af57503033145b6128cb5760405162461bcd60e51b8152600401610fe190614a67565b6001600160a01b03166000908152602460205260409020805460ff19166001179055565b6040517fb94677da00000000000000000000000000000000000000000000000000000000815260009073d7203305346B69227e126D7FBfCE20Fc976aE5249063b94677da906110599084908690600401614d4d565b60065460ff1690565b600f5490565b6001600160a01b031660009081526024602052604090205460ff1690565b6040517f33c13e0d00000000000000000000000000000000000000000000000000000000815260009073d7203305346B69227e126D7FBfCE20Fc976aE524906333c13e0d9061200e908490600401614ca2565b7fbc197c810000000000000000000000000000000000000000000000000000000095945050505050565b6000818152602080805260408083206001600160a01b038616845290915290205415155b92915050565b336000908152602460205260409020805460ff191660011790556002805473ffffffffffffffffffffffffffffffffffffffff19166001600160a01b0392909216919091179055565b503090565b3360009081526024602052604090205460ff16151560011480612a9357506002546001600160a01b031633145b80612a9d57503033145b612ab95760405162461bcd60e51b8152600401610fe190614a67565b601180548291907fffffffffffffffffffffffffffffffffffffffffffffffffffffffff00ffffff166301000000836002811115612b0757634e487b7160e01b600052602160045260246000fd5b021790555050565b6040517f76e455e100000000000000000000000000000000000000000000000000000000815260009073d7203305346B69227e126D7FBfCE20Fc976aE524906376e455e190612b649084908690600401614d4d565b60206040518083038186803b158015612b7c57600080fd5b505af4158015612b90573d6000803e3d6000fd5b505050506040513d601f19601f82011682018060405250810190610f329190613d7d565b3360009081526024602052604090205460ff16151560011480612be157506002546001600160a01b031633145b80612beb57503033145b612c075760405162461bcd60e51b8152600401610fe190614a67565b601055565b60185490565b3360009081526024602052604090205460ff16151560011480612c3f57506002546001600160a01b031633145b80612c4957503033145b612c655760405162461bcd60e51b8152600401610fe190614a67565b8051612122906017906020840190613c38565b336000908152602460205260409020805460ff191660011790556001805473ffffffffffffffffffffffffffffffffffffffff19166001600160a01b0392909216919091179055565b6000806017018281548110612ce657634e487b7160e01b600052603260045260246000fd5b90600052602060002001549050919050565b6040517f828c7b7200000000000000000000000000000000000000000000000000000000815260009073d7203305346B69227e126D7FBfCE20Fc976aE5249063828c7b729061200e908490600401614ca2565b3360009081526024602052604090205460ff16151560011480612d7857506002546001600160a01b031633145b80612d8257503033145b612d9e5760405162461bcd60e51b8152600401610fe190614a67565b6006805460ff1916911515919091179055565b336000908152602460205260409020805460ff191660011790556004805473ffffffffffffffffffffffffffffffffffffffff19166001600160a01b0392909216919091179055565b600654601954601854601a546040517f164cd8c2000000000000000000000000000000000000000000000000000000008152600094859485948594859485948594859460ff90921693909273d7203305346B69227e126D7FBfCE20Fc976aE5249063164cd8c290612e6f908890600401614ca2565b60206040518083038186803b158015612e8757600080fd5b505af4158015612e9b573d6000803e3d6000fd5b505050506040513d601f19601f82011682018060405250810190612ebf919061413c565b6040517f33c13e0d00000000000000000000000000000000000000000000000000000000815273d7203305346B69227e126D7FBfCE20Fc976aE524906333c13e0d90612f1090600090600401614ca2565b60206040518083038186803b158015612f2857600080fd5b505af4158015612f3c573d6000803e3d6000fd5b505050506040513d601f19601f82011682018060405250810190612f60919061413c565b601954601854969f959e50939c50919a509850965094509092509050565b3360009081526024602052604090205460ff16151560011480612fab57506002546001600160a01b031633145b80612fb557503033145b612fd15760405162461bcd60e51b8152600401610fe190614a67565b6000805473ffffffffffffffffffffffffffffffffffffffff19163017905587516130039060079060208b0190613bb4565b5086516130179060089060208a0190613bb4565b50600a869055600b859055600c849055600d839055600e8290556006805460ff191660011790556011805462ff00001916620100001790556001600160a01b0381161561306957613069602782613ae0565b5050505050505050565b60006001600160a01b0383161561314f576040517f70a082310000000000000000000000000000000000000000000000000000000081526001600160a01b038416906370a08231906130c99030906004016145f7565b60206040518083038186803b1580156130e157600080fd5b505afa925050508015613111575060408051601f3d908101601f1916820190925261310e9181019061413c565b60015b61312d5760405162461bcd60e51b8152600401610fe190614ba0565b6000811161314d5760405162461bcd60e51b8152600401610fe190614ba0565b505b60008360405160200161316291906145a1565b60408051601f198184030181529082905280516020909101206003547f39b37ab00000000000000000000000000000000000000000000000000000000083529092506000916001600160a01b03909116906339b37ab0906131c7908590600401614ca2565b60206040518083038186803b1580156131df57600080fd5b505afa1580156131f3573d6000803e3d6000fd5b505050506040513d601f19601f82011682018060405250810190613217919061413c565b9050806132e05760405160200161322d90614578565b60408051601f198184030181529082905280516020909101206003547f39b37ab00000000000000000000000000000000000000000000000000000000083529093506001600160a01b0316906339b37ab09061328d908590600401614ca2565b60206040518083038186803b1580156132a557600080fd5b505afa1580156132b9573d6000803e3d6000fd5b505050506040513d601f19601f820116820180604052508101906132dd919061413c565b90505b806132ea57506127105b6132f48185614ec5565b95945050505050565b6040517f2394dcbf00000000000000000000000000000000000000000000000000000000815273d7203305346B69227e126D7FBfCE20Fc976aE52490632394dcbf90613360906000908d908d908d908d908d908d908d908d908d90600401614d5b565b60006040518083038186803b15801561337857600080fd5b505af415801561338c573d6000803e3d6000fd5b50505050505050505050505050565b60608060606000806000806000806000806000600701600060080160006009016000600501546000600a01546000600b01546000600c01546000600d01546000600e01546000600f01546000601001548a80546133f790614f2c565b80601f016020809104026020016040519081016040528092919081815260200182805461342390614f2c565b80156134705780601f1061344557610100808354040283529160200191613470565b820191906000526020600020905b81548152906001019060200180831161345357829003601f168201915b50505050509a5089805461348390614f2c565b80601f01602080910402602001604051908101604052809291908181526020018280546134af90614f2c565b80156134fc5780601f106134d1576101008083540402835291602001916134fc565b820191906000526020600020905b8154815290600101906020018083116134df57829003601f168201915b5050505050995088805461350f90614f2c565b80601f016020809104026020016040519081016040528092919081815260200182805461353b90614f2c565b80156135885780601f1061355d57610100808354040283529160200191613588565b820191906000526020600020905b81548152906001019060200180831161356b57829003601f168201915b505050505098509a509a509a509a509a509a509a509a509a509a509a50909192939495969798999a565b3360009081526024602052604090205460ff161515600114806135d457503033145b6135f05760405162461bcd60e51b8152600401610fe190614a67565b336000908152602460205260409020805460ff19169055565b3360009081526024602052604090205460ff1615156001148061363657506002546001600160a01b031633145b8061364057503033145b61365c5760405162461bcd60e51b8152600401610fe190614a67565b600555565b60009081526012602052604090205460ff1690565b6040517fafeafd9a00000000000000000000000000000000000000000000000000000000815273d7203305346B69227e126D7FBfCE20Fc976aE5249063afeafd9a906110fe9060009086908690600190600401614d29565b60055490565b7ff23a6e610000000000000000000000000000000000000000000000000000000095945050505050565b60175490565b601680546040805160208084028201810190925282815260609390929091830182828015611d8b57602002820191906000526020600020905b81546001600160a01b0316815260019091019060200180831161373d575050505050905090565b600080600080600080600080600073d7203305346B69227e126D7FBfCE20Fc976aE524635b68e93c90918b6040518363ffffffff1660e01b81526004016137ac929190614d4d565b6101006040518083038186803b1580156137c557600080fd5b505af41580156137d9573d6000803e3d6000fd5b505050506040513d601f19601f820116820180604052508101906137fd9190613f11565b97509750975097509750975097509750919395975091939597565b6000610f326027836138cd565b3360009081526024602052604090205460ff1615156001148061385257506002546001600160a01b031633145b8061385c57503033145b6138785760405162461bcd60e51b8152600401610fe190614a67565b600f55565b600a5490565b7fffffffff0000000000000000000000000000000000000000000000000000000081167f01ffc9a70000000000000000000000000000000000000000000000000000000014919050565b60018201546000906138e157506000612a12565b6001600160a01b038216600081815260208590526040902054600185018054909190811061391f57634e487b7160e01b600052603260045260246000fd5b6000918252602090912001546001600160a01b0316149392505050565b61394682826138cd565b6139625760405162461bcd60e51b8152600401610fe1906149d3565b61396c82826138cd565b61397557612122565b6000600161398284613b6c565b61398c9190614ee5565b6001600160a01b038316600090815260208590526040902054909150808214613a535760008460010183815481106139d457634e487b7160e01b600052603260045260246000fd5b60009182526020808320909101546001600160a01b0316808352908790526040909120839055600186018054919250829184908110613a2357634e487b7160e01b600052603260045260246000fd5b9060005260206000200160006101000a8154816001600160a01b0302191690836001600160a01b03160217905550505b6001600160a01b03831660009081526020859052604081205560018401805480613a8d57634e487b7160e01b600052603160045260246000fd5b60008281526020902081017fffffffffffffffffffffffffffffffffffffffffffffffffffffffffffffffff908101805473ffffffffffffffffffffffffffffffffffffffff1916905501905550505050565b613aea82826138cd565b15613b075760405162461bcd60e51b8152600401610fe190614c45565b60018281018054808301825560008281526020902001805473ffffffffffffffffffffffffffffffffffffffff19166001600160a01b03851617905554613b4e9190614ee5565b6001600160a01b039091166000908152602092909252604090912055565b6001015490565b6000826001018281548110613b9857634e487b7160e01b600052603260045260246000fd5b6000918252602090912001546001600160a01b03169392505050565b828054613bc090614f2c565b90600052602060002090601f016020900481019282613be25760008555613c28565b82601f10613bfb57805160ff1916838001178555613c28565b82800160010185558215613c28579182015b82811115613c28578251825591602001919060010190613c0d565b50613c34929150613c72565b5090565b828054828255906000526020600020908101928215613c285791602002820182811115613c28578251825591602001919060010190613c0d565b5b80821115613c345760008155600101613c73565b600082601f830112613c97578081fd5b8135602067ffffffffffffffff821115613cb357613cb3614f7d565b808202613cc1828201614e4f565b838152828101908684018388018501891015613cdb578687fd5b8693505b85841015613cfd578035835260019390930192918401918401613cdf565b50979650505050505050565b600082601f830112613d19578081fd5b8135613d2c613d2782614e79565b614e4f565b818152846020838601011115613d40578283fd5b816020850160208301379081016020019190915292915050565b600060208284031215613d6b578081fd5b8135613d7681614fb1565b9392505050565b600060208284031215613d8e578081fd5b8151613d7681614fb1565b60008060408385031215613dab578081fd5b8235613db681614fb1565b91506020830135613dc681614fb1565b809150509250929050565b600080600080600060a08688031215613de8578081fd5b8535613df381614fb1565b94506020860135613e0381614fb1565b9350604086013567ffffffffffffffff80821115613e1f578283fd5b613e2b89838a01613c87565b94506060880135915080821115613e40578283fd5b613e4c89838a01613c87565b93506080880135915080821115613e61578283fd5b50613e6e88828901613d09565b9150509295509295909350565b600080600080600080600080610100898b031215613e97578283fd5b8835613ea281614fb1565b97506020890135613eb281614fb1565b96506040890135613ec281614fd4565b9550606089013594506080890135935060a0890135613ee081614fc6565b925060c0890135613ef081614fc6565b915060e0890135613f0081614fc6565b809150509295985092959890939650565b600080600080600080600080610100898b031215613f2d578182fd5b8851613f3881614fb1565b60208a0151909850613f4981614fb1565b60408a0151909750613f5a81614fd4565b80965050606089015194506080890151935060a0890151613f7a81614fc6565b60c08a0151909350613f8b81614fc6565b60e08a0151909250613f0081614fc6565b600080600080600060a08688031215613fb3578283fd5b8535613fbe81614fb1565b94506020860135613fce81614fb1565b9350604086013592506060860135613fe581614fb1565b91506080860135613ff581614fc6565b809150509295509295909350565b600080600080600060a0868803121561401a578283fd5b853561402581614fb1565b9450602086013561403581614fb1565b93506040860135925060608601359150608086013567ffffffffffffffff81111561405e578182fd5b613e6e88828901613d09565b6000806040838503121561407c578182fd5b823561408781614fb1565b946020939093013593505050565b6000806000606084860312156140a9578081fd5b83356140b481614fb1565b95602085013595506040909401359392505050565b6000602082840312156140da578081fd5b813567ffffffffffffffff8111156140f0578182fd5b6140fc84828501613c87565b949350505050565b600060208284031215614115578081fd5b8135613d7681614fc6565b600060208284031215614131578081fd5b8151613d7681614fc6565b60006020828403121561414d578081fd5b5051919050565b600060208284031215614165578081fd5b81357fffffffff0000000000000000000000000000000000000000000000000000000081168114613d76578182fd5b6000806000806000608086880312156141ab578283fd5b85356141b681614fb1565b945060208601356141c681614fb1565b935060408601359250606086013567ffffffffffffffff808211156141e9578283fd5b818801915088601f8301126141fc578283fd5b81358181111561420a578384fd5b89602082850101111561421b578384fd5b9699959850939650602001949392505050565b60006020828403121561423f578081fd5b8135613d7681614fd4565b60006020828403121561425b578081fd5b8151613d7681614fd4565b600060208284031215614277578081fd5b813567ffffffffffffffff81111561428d578182fd5b6140fc84828501613d09565b6000602082840312156142aa578081fd5b815167ffffffffffffffff8111156142c0578182fd5b8201601f810184136142d0578182fd5b80516142de613d2782614e79565b8181528560208385010111156142f2578384fd5b6132f4826020830160208601614efc565b600080600080600080600080610100898b03121561431f578182fd5b883567ffffffffffffffff80821115614336578384fd5b6143428c838d01613d09565b995060208b0135915080821115614357578384fd5b506143648b828c01613d09565b97505060408901359550606089013594506080890135935060a0890135925060c0890135915060e0890135613f0081614fb1565b6000602082840312156143a9578081fd5b5035919050565b60008060008060008060008060006101208a8c0312156143ce578283fd5b8935985060208a01356143e081614fb1565b975060408a01356143f081614fb1565b965060608a013561440081614fd4565b955060808a0135945060a08a0135935060c08a013561441e81614fc6565b925060e08a013561442e81614fc6565b91506101008a013561443f81614fc6565b809150509295985092959850929598565b60008060408385031215614462578182fd5b823591506020830135613dc681614fc6565b60008060408385031215614486578182fd5b50508035926020909101359150565b600081518084526144ad816020860160208601614efc565b601f01601f19169290920160200192915050565b600082516144d3818460208701614efc565b9190910192915050565b81546000908190600281046001808316806144f957607f831692505b602080841082141561451957634e487b7160e01b87526022600452602487fd5b81801561452d576001811461453e5761456a565b60ff1986168952848901965061456a565b6145478a614ea1565b885b868110156145625781548b820152908501908301614549565b505084890196505b509498975050505050505050565b7f666c6173685f6c6f616e000000000000000000000000000000000000000000008152600a0190565b7f666c6173685f6c6f616e00000000000000000000000000000000000000000000815260609190911b7fffffffffffffffffffffffffffffffffffffffff00000000000000000000000016600a820152601e0190565b6001600160a01b0391909116815260200190565b6001600160a01b0392831681529116602082015260400190565b6001600160a01b03898116825288166020820152610100810161464788614f93565b60408201979097526060810195909552608085019390935290151560a0840152151560c0830152151560e09091015292915050565b6001600160a01b039384168152919092166020820152604081019190915260600190565b60006001600160a01b03808916835280881660208401525085604083015284606083015260a060808301528260a0830152828460c084013781830160c090810191909152601f909201601f1916010195945050505050565b6001600160a01b03929092168252602082015260400190565b6001600160a01b039390931683526020830191909152604082015260600190565b6020808252825182820181905260009190848201906040850190845b818110156147735783516001600160a01b03168352928401929184019160010161474e565b50909695505050505050565b6020808252825182820181905260009190848201906040850190845b818110156147735783518352928401929184019160010161479b565b901515815260200190565b9715158852602088019690965260408701949094526060860192909252608085015260a084015260c083015260e08201526101000190565b7fffffffff0000000000000000000000000000000000000000000000000000000091909116815260200190565b6020810161483483614f93565b91905290565b6060810161484785614f93565b93815260208101929092526001600160a01b031660409091015290565b600060208252613d766020830184614495565b600061016080835261488b8184018f614495565b9050828103602084015261489f818e614495565b905082810360408401526148b3818d614495565b606084019b909b525050608081019790975260a087019590955260c086019390935260e0850191909152610100840152610120830152610140909101529392505050565b6020808252600d908201527f494e56414c49445f544f4b454e00000000000000000000000000000000000000604082015260600190565b6020808252601c908201527f466c6173684d696e7465723a2043616c6c6261636b206661696c656400000000604082015260600190565b60208082526011908201527f494e56414c49445f524543495049454e54000000000000000000000000000000604082015260600190565b60208082526010908201527f494e56414c49445f504f4f4c4841534800000000000000000000000000000000604082015260600190565b6020808252602a908201527f416464726573735365743a206b657920646f6573206e6f74206578697374206960408201527f6e20746865207365742e00000000000000000000000000000000000000000000606082015260800190565b60208082526011908201527f4e4f5448494e475f544f5f494d504f5254000000000000000000000000000000604082015260600190565b60208082526028908201527f436f6e74726f6c6c61626c653a2063616c6c6572206973206e6f74206120636f60408201527f6e74726f6c6c6572000000000000000000000000000000000000000000000000606082015260800190565b60208082526010908201527f414c52454144595f494d504f5254454400000000000000000000000000000000604082015260600190565b60208082526013908201527f494e56414c49445f544f4b454e534f5552434500000000000000000000000000604082015260600190565b60208082526011908201527f494e56414c49445f544f4b454e48415348000000000000000000000000000000604082015260600190565b60208082526009908201527f4e4f545f415f47454d0000000000000000000000000000000000000000000000604082015260600190565b60208082526015908201527f455243323020746f6b656e206e6f7420666f756e640000000000000000000000604082015260600190565b6020808252601f908201527f466c6173684d696e7465723a205265706179206e6f7420617070726f76656400604082015260600190565b6020808252600c908201527f494e56414c49445f504f4f4c0000000000000000000000000000000000000000604082015260600190565b6020808252602a908201527f416464726573735365743a206b657920616c726561647920657869737473206960408201527f6e20746865207365742e00000000000000000000000000000000000000000000606082015260800190565b90815260200190565b9283526001600160a01b03918216602084015216604082015260600190565b8981526001600160a01b038981166020830152881660408201526101208101614cf288614f93565b6060820197909752608081019590955260a085019390935290151560c0840152151560e08301521515610100909101529392505050565b9384526001600160a01b039290921660208401526040830152606082015260800190565b918252602082015260400190565b8a8152602081018a90526001600160a01b038981166040830152881660608201526101408101614d8a88614f93565b608082019790975260a081019590955260c085019390935290151560e08401521515610100830152151561012090910152949350505050565b92835260208301919091521515604082015260600190565b9283526020830191909152604082015260600190565b83815260608101614e0184614f93565b8360208301526001600160a01b0383166040830152949350505050565b9586526020860194909452604085019290925260608401526001600160a01b0316608083015260a082015260c00190565b60405181810167ffffffffffffffff81118282101715614e7157614e71614f7d565b604052919050565b600067ffffffffffffffff821115614e9357614e93614f7d565b50601f01601f191660200190565b60009081526020902090565b60008219821115614ec057614ec0614f67565b500190565b600082614ee057634e487b7160e01b81526012600452602481fd5b500490565b600082821015614ef757614ef7614f67565b500390565b60005b83811015614f17578181015183820152602001614eff565b83811115614f26576000848401525b50505050565b600281046001821680614f4057607f821691505b60208210811415614f6157634e487b7160e01b600052602260045260246000fd5b50919050565b634e487b7160e01b600052601160045260246000fd5b634e487b7160e01b600052604160045260246000fd5b60038110610f8b57634e487b7160e01b600052602160045260246000fd5b6001600160a01b0381168114610f8b57600080fd5b8015158114610f8b57600080fd5b60038110610f8b57600080fdfea264697066735822122069bf57fc30e05f7a0cdb5c5dc9b148a42b9c23c31bc5301110b5e53db58eebef64736f6c63430008000033a2646970667358221220be7bf4899078d4eb2e20277c261df496cfff58cddaa1bbf1fe55b100b9a8ca6a64736f6c63430008000033",
  "deployedBytecode": "0x608060405234801561001057600080fd5b50600436106100675760003560e01c80635e6fe72a116100505780635e6fe72a146100aa57806367275aed146100bf5780638514d358146100d257610067565b80631ff77f161461006c5780632b69fa1014610095575b600080fd5b61007f61007a36600461065b565b6100e5565b60405161008c91906106bb565b60405180910390f35b61009d61013c565b60405161008c91906106cf565b6100b261019e565b60405161008c91906108ff565b61007f6100cd36600461065b565b6101a4565b61007f6100e03660046105a8565b6101bf565b600060018281548110610121577f4e487b7100000000000000000000000000000000000000000000000000000000600052603260045260246000fd5b6000918252602090912001546001600160a01b031692915050565b6060600180548060200260200160405190810160405280929190818152602001828054801561019457602002820191906000526020600020905b81546001600160a01b03168152600190910190602001808311610176575b5050505050905090565b60015490565b6000908152602081905260409020546001600160a01b031690565b600080896040516020016101d3919061069f565b60408051601f1981840301815291815281516020928301206000818152928390529120549091506001600160a01b0316156102295760405162461bcd60e51b81526004016102209061085a565b60405180910390fd5b876102465760405162461bcd60e51b8152600401610220906107b5565b866102635760405162461bcd60e51b815260040161022090610891565b846102805760405162461bcd60e51b8152600401610220906107ec565b600060405180602001610292906104fe565b601f1982820381018352601f9091011660405290506102b360008383610484565b6040517fa7fc7a070000000000000000000000000000000000000000000000000000000081529093506001600160a01b0384169063a7fc7a07906102fb908f906004016106bb565b600060405180830381600087803b15801561031557600080fd5b505af1158015610329573d6000803e3d6000fd5b50506040517fd9a3f9bb0000000000000000000000000000000000000000000000000000000081526001600160a01b038616925063d9a3f9bb9150610380908e908e908e908e908e908e908e908e9060040161071c565b600060405180830381600087803b15801561039a57600080fd5b505af11580156103ae573d6000803e3d6000fd5b50505060008381526020819052604080822080546001600160a01b0388167fffffffffffffffffffffffff0000000000000000000000000000000000000000918216811790925560018054808201825594527fb10e2d527612073b26eecdfd717e6a320cf44b4afac2b0732d9fcbe2b7fa0cf690930180549093168117909255519091507f39edc680fea25684123932cc30f03ee17ba6966438526d7569cc7d6bb4e762e69061046d908e908e908e908e908e908e908e908e9061071c565b60405180910390a250509998505050505050505050565b600080844710156104a75760405162461bcd60e51b8152600401610220906108c8565b82516104c55760405162461bcd60e51b815260040161022090610780565b8383516020850187f590506001600160a01b0381166104f65760405162461bcd60e51b815260040161022090610823565b949350505050565b6150708061096883390190565b80356001600160a01b038116811461052257600080fd5b919050565b600082601f830112610537578081fd5b813567ffffffffffffffff8082111561055257610552610938565b6040516020601f19601f850116820101818110838211171561057657610576610938565b60405282815284830160200186101561058d578384fd5b82602086016020830137918201602001929092529392505050565b60008060008060008060008060006101208a8c0312156105c6578485fd5b6105cf8a61050b565b985060208a013567ffffffffffffffff808211156105eb578687fd5b6105f78d838e01610527565b995060408c013591508082111561060c578687fd5b506106198c828d01610527565b97505060608a0135955060808a0135945060a08a0135935060c08a0135925060e08a0135915061064c6101008b0161050b565b90509295985092959850929598565b60006020828403121561066c578081fd5b5035919050565b6000815180845261068b816020860160208601610908565b601f01601f19169290920160200192915050565b600082516106b1818460208701610908565b9190910192915050565b6001600160a01b0391909116815260200190565b6020808252825182820181905260009190848201906040850190845b818110156107105783516001600160a01b0316835292840192918401916001016106eb565b50909695505050505050565b60006101008083526107308184018c610673565b90508281036020840152610744818b610673565b604084019990995250506060810195909552608085019390935260a084019190915260c08301526001600160a01b031660e09091015292915050565b6020808252818101527f437265617465323a2062797465636f6465206c656e677468206973207a65726f604082015260600190565b6020808252600d908201527f494e56414c49445f505249434500000000000000000000000000000000000000604082015260600190565b60208082526017908201527f494e56414c49445f444946464943554c54595f53544550000000000000000000604082015260600190565b60208082526019908201527f437265617465323a204661696c6564206f6e206465706c6f7900000000000000604082015260600190565b6020808252600e908201527f47454d504f4f4c5f455849535453000000000000000000000000000000000000604082015260600190565b60208082526010908201527f494e56414c49445f4d494e5f54494d4500000000000000000000000000000000604082015260600190565b6020808252601d908201527f437265617465323a20696e73756666696369656e742062616c616e6365000000604082015260600190565b90815260200190565b60005b8381101561092357818101518382015260200161090b565b83811115610932576000848401525b50505050565b7f4e487b7100000000000000000000000000000000000000000000000000000000600052604160045260246000fdfe608060405234801561001057600080fd5b50336000818152602460205260408082208054600160ff1991821681178355328552928420805482168417905593835280549093161790915561501790819061005990396000f3fe6080604052600436106105735760003560e01c8063a0021cf1116102ca578063d3d0839711610179578063e6c3b1f6116100d6578063f8d1e9301161008a578063f9eaee0d1161006f578063f9eaee0d14610e87578063fd31a0a514610ea7578063ff186b2e14610ec757610573565b8063f8d1e93014610e31578063f9c9c27614610e5357610573565b8063ef430aa6116100bb578063ef430aa614610de7578063f23a6e6114610dfc578063f4fde0d314610e1c57610573565b8063e6c3b1f614610da7578063edcf2d5714610dc757610573565b8063d9d98ce41161012d578063e06174e411610112578063e06174e414610d46578063e1c28bef14610d72578063e5d2ce2f14610d8757610573565b8063d9d98ce414610d06578063df1fe1a914610d2657610573565b8063d73cd47f1161015e578063d73cd47f14610c9d578063d80528ae14610cbd578063d9a3f9bb14610ce657610573565b8063d3d0839714610c68578063d43e646014610c7d57610573565b8063c42cf53511610227578063c80c0613116101db578063cf721b15116101c0578063cf721b1514610bf3578063d104f8f514610c28578063d31674db14610c4857610573565b8063c80c061314610bf3578063cdc8a8ab14610c0857610573565b8063c54a92421161020c578063c54a924214610b93578063c5e01a5c14610bb3578063c65eff9614610bd357610573565b8063c42cf53514610b53578063c455279114610b7357610573565b8063b429afeb1161027e578063bc197c8111610263578063bc197c8114610b06578063bfcb26be14610b33578063c08fa1a414610a5257610573565b8063b429afeb14610ad1578063b788e4e914610af157610573565b8063a901c474116102af578063a901c47414610a87578063af6a6d7914610aa7578063b385a50a14610abc57610573565b8063a0021cf114610a52578063a7fc7a0714610a6757610573565b80635e5f2e2611610426578063829775511161038357806390c3f38f11610337578063959355601161031c57806395935560146109fd57806395d89b4114610a1d5780639bc86fea14610a3257610573565b806390c3f38f146109bd5780639277a185146109dd57610573565b8063870114f611610368578063870114f6146109685780638a09871b1461098857806390469a9d1461099d57610573565b806382977551146109285780638407b6c51461094857610573565b80637284e416116103da5780637c07bc7a116103bf5780637c07bc7a146108c65780637dcb0e5f146108e85780637f2e8f0c1461090857610573565b80637284e416146108845780637ae7815d146108a657610573565b80636100c3431161040b5780636100c34314610831578063613255ab146108515780636b6201da1461087157610573565b80635e5f2e26146107f15780635fb930911461081e57610573565b8063379607f5116104d45780634565e5ef11610488578063504cdacf1161046d578063504cdacf146107a75780635cffe9de146107bc5780635d2e0dd4146107dc57610573565b80634565e5ef1461077d5780634e04cdc71461079257610573565b8063407dff16116104b9578063407dff161461071b5780634178617f1461073d57806344f0877c1461075d57610573565b8063379607f5146106d6578063392732b11461070857610573565b806323b221a01161052b57806326ff31521161051057806326ff315214610681578063328d8f72146106a1578063336b9efb146106c157610573565b806323b221a0146106345780632449ef511461066157610573565b80631284650d1161055c5780631284650d146105dd5780632360cf5e146105ff578063238dafe01461061f57610573565b806301ffc9a714610578578063044215c6146105ae575b600080fd5b34801561058457600080fd5b50610598610593366004614154565b610edc565b6040516105a591906147b7565b60405180910390f35b3480156105ba57600080fd5b506105ce6105c9366004614398565b610f3a565b6040516105a59392919061483a565b3480156105e957600080fd5b506105fd6105f8366004613d5a565b610f70565b005b34801561060b57600080fd5b506105fd61061a366004614474565b610f8e565b34801561062b57600080fd5b50610598610ff5565b34801561064057600080fd5b5061065461064f366004614398565b611004565b6040516105a59190614ca2565b34801561066d57600080fd5b506105fd61067c366004613d99565b6110a9565b34801561068d57600080fd5b506105fd61069c366004613d5a565b611132565b3480156106ad57600080fd5b506105fd6106bc366004614104565b61114c565b3480156106cd57600080fd5b506106546111bb565b3480156106e257600080fd5b506106f66106f1366004614398565b6111c1565b6040516105a596959493929190614e1e565b6105fd610716366004614474565b6114f9565b34801561072757600080fd5b5061073061154e565b6040516105a59190614827565b34801561074957600080fd5b506105fd610758366004613d5a565b61155e565b34801561076957600080fd5b506105fd610778366004614104565b6115bc565b34801561078957600080fd5b50610654611646565b34801561079e57600080fd5b50610598611657565b3480156107b357600080fd5b50610654611665565b3480156107c857600080fd5b506105986107d7366004614194565b61166b565b3480156107e857600080fd5b50610598611aa2565b3480156107fd57600080fd5b5061081161080c366004614398565b611aab565b6040516105a591906145f7565b6105fd61082c366004614398565b611ab8565b34801561083d57600080fd5b506105fd61084c366004614095565b611b42565b34801561085d57600080fd5b5061065461086c366004613d5a565b611bce565b6105fd61087f366004614398565b611caa565b34801561089057600080fd5b50610899611d00565b6040516105a59190614864565b3480156108b257600080fd5b506105fd6108c1366004614104565b611d95565b3480156108d257600080fd5b506108db611df8565b6040516105a5919061477f565b3480156108f457600080fd5b50610654610903366004614398565b611e52565b34801561091457600080fd5b50610654610923366004614398565b611e64565b34801561093457600080fd5b50610654610943366004614398565b611eb9565b34801561095457600080fd5b506105fd610963366004613e7b565b611ecb565b34801561097457600080fd5b506105fd610983366004614450565b611f66565b34801561099457600080fd5b50610654611fbb565b3480156109a957600080fd5b506105fd6109b8366004613d5a565b61205e565b3480156109c957600080fd5b506105fd6109d8366004614266565b6120bc565b3480156109e957600080fd5b506105fd6109f8366004613d5a565b612126565b348015610a0957600080fd5b50610654610a18366004614398565b61216f565b348015610a2957600080fd5b506108996121c4565b348015610a3e57600080fd5b506105fd610a4d366004613f9c565b6121d6565b348015610a5e57600080fd5b50610654612887565b348015610a7357600080fd5b506105fd610a82366004613d5a565b61288d565b348015610a9357600080fd5b50610654610aa2366004614398565b6128ef565b348015610ab357600080fd5b50610598612944565b348015610ac857600080fd5b5061065461294d565b348015610add57600080fd5b50610598610aec366004613d5a565b612953565b348015610afd57600080fd5b50610654612971565b348015610b1257600080fd5b50610b26610b21366004613dd1565b6129c4565b6040516105a591906147fa565b348015610b3f57600080fd5b50610598610b4e36600461406a565b6129ee565b348015610b5f57600080fd5b506105fd610b6e366004613d5a565b612a18565b348015610b7f57600080fd5b50610811610b8e366004613d5a565b612a61565b348015610b9f57600080fd5b506105fd610bae36600461422e565b612a66565b348015610bbf57600080fd5b50610811610bce366004614398565b612b0f565b348015610bdf57600080fd5b506105fd610bee366004614398565b612bb4565b348015610bff57600080fd5b50610654612c0c565b348015610c1457600080fd5b506105fd610c233660046140c9565b612c12565b348015610c3457600080fd5b506105fd610c43366004613d5a565b612c78565b348015610c5457600080fd5b50610654610c63366004614398565b612cc1565b348015610c7457600080fd5b50610654612cf8565b348015610c8957600080fd5b506105fd610c98366004614104565b612d4b565b348015610ca957600080fd5b506105fd610cb8366004613d5a565b612db1565b348015610cc957600080fd5b50610cd2612dfa565b6040516105a59897969594939291906147c2565b348015610cf257600080fd5b506105fd610d01366004614303565b612f7e565b348015610d1257600080fd5b50610654610d2136600461406a565b613073565b348015610d3257600080fd5b506105fd610d413660046143b0565b6132fd565b348015610d5257600080fd5b50610d5b61339b565b6040516105a59b9a99989796959493929190614877565b348015610d7e57600080fd5b506105fd6135b2565b348015610d9357600080fd5b506105fd610da2366004614398565b613609565b348015610db357600080fd5b50610730610dc2366004614398565b613661565b348015610dd357600080fd5b506105fd610de236600461406a565b613676565b348015610df357600080fd5b506106546136ce565b348015610e0857600080fd5b50610b26610e17366004614003565b6136d4565b348015610e2857600080fd5b506106546136fe565b348015610e3d57600080fd5b50610e46613704565b6040516105a59190614732565b348015610e5f57600080fd5b50610e73610e6e366004614398565b613764565b6040516105a5989796959493929190614625565b348015610e9357600080fd5b50610598610ea2366004613d5a565b613818565b348015610eb357600080fd5b506105fd610ec2366004614398565b613825565b348015610ed357600080fd5b5061065461387d565b60007fffffffff0000000000000000000000000000000000000000000000000000000082167f4e2312e0000000000000000000000000000000000000000000000000000000001480610f325750610f3282613883565b90505b919050565b6000908152601260209081526040808320546013835281842054601490935292205460ff9092169290916001600160a01b031690565b610f7b6015826138cd565b15610f8b57610f8b60158261393c565b50565b3360009081526024602052604090205460ff16151560011480610fbb57506002546001600160a01b031633145b80610fc557503033145b610fea5760405162461bcd60e51b8152600401610fe190614a67565b60405180910390fd5b601991909155601855565b60115462010000900460ff1690565b6040517f01356b6d00000000000000000000000000000000000000000000000000000000815260009073__$8228317518e9daeef1bbbb17c026e269fd$__906301356b6d906110599084908690600401614d4d565b60206040518083038186803b15801561107157600080fd5b505af4158015611085573d6000803e3d6000fd5b505050506040513d601f19601f82011682018060405250810190610f32919061413c565b6040517fb9f0527400000000000000000000000000000000000000000000000000000000815273__$8228317518e9daeef1bbbb17c026e269fd$__9063b9f05274906110fe9060009086908690600401614cab565b60006040518083038186803b15801561111657600080fd5b505af415801561112a573d6000803e3d6000fd5b505050505050565b61113d6015826138cd565b610f8b57610f8b601582613ae0565b3360009081526024602052604090205460ff1615156001148061117957506002546001600160a01b031633145b8061118357503033145b61119f5760405162461bcd60e51b8152600401610fe190614a67565b60118054911515620100000262ff000019909216919091179055565b60105490565b600080600080600080600073__$8228317518e9daeef1bbbb17c026e269fd$__6301356b6d9091896040518363ffffffff1660e01b8152600401611206929190614d4d565b60206040518083038186803b15801561121e57600080fd5b505af4158015611232573d6000803e3d6000fd5b505050506040513d601f19601f82011682018060405250810190611256919061413c565b6040517fecd5244e00000000000000000000000000000000000000000000000000000000815273__$8228317518e9daeef1bbbb17c026e269fd$__9063ecd5244e906112a9906000908c90600401614d4d565b60206040518083038186803b1580156112c157600080fd5b505af41580156112d5573d6000803e3d6000fd5b505050506040513d601f19601f820116820180604052508101906112f9919061413c565b6040517fb94677da00000000000000000000000000000000000000000000000000000000815273__$8228317518e9daeef1bbbb17c026e269fd$__9063b94677da9061134c906000908d90600401614d4d565b60206040518083038186803b15801561136457600080fd5b505af4158015611378573d6000803e3d6000fd5b505050506040513d601f19601f8201168201806040525081019061139c919061413c565b6040517fdc1f0f5300000000000000000000000000000000000000000000000000000000815273__$8228317518e9daeef1bbbb17c026e269fd$__9063dc1f0f53906113ef906000908e90600401614d4d565b60206040518083038186803b15801561140757600080fd5b505af415801561141b573d6000803e3d6000fd5b505050506040513d601f19601f8201168201806040525081019061143f919061413c565b6040517f76e455e100000000000000000000000000000000000000000000000000000000815273__$8228317518e9daeef1bbbb17c026e269fd$__906376e455e190611492906000908f90600401614d4d565b60206040518083038186803b1580156114aa57600080fd5b505af41580156114be573d6000803e3d6000fd5b505050506040513d601f19601f820116820180604052508101906114e29190613d7d565b601954949c939b5091995097509550909350915050565b6040517f80ca2ba600000000000000000000000000000000000000000000000000000000815273__$8228317518e9daeef1bbbb17c026e269fd$__906380ca2ba6906110fe9060009086908690600401614ddb565b6011546301000000900460ff1690565b3360009081526024602052604090205460ff1615156001148061158b57506002546001600160a01b031633145b8061159557503033145b6115b15760405162461bcd60e51b8152600401610fe190614a67565b610f8b602782613ae0565b3360009081526024602052604090205460ff161515600114806115e957506002546001600160a01b031633145b806115f357503033145b61160f5760405162461bcd60e51b8152600401610fe190614a67565b60118054911515610100027fffffffffffffffffffffffffffffffffffffffffffffffffffffffffffff00ff909216919091179055565b60006116526027613b6c565b905090565b601154610100900460ff1690565b601a5490565b6000806116788686613073565b9050866001600160a01b0387166116c5576040516001600160a01b0382169087156108fc029088906000818181858888f193505050501580156116bf573d6000803e3d6000fd5b50611760565b6040517fa9059cbb0000000000000000000000000000000000000000000000000000000081526001600160a01b0388169063a9059cbb9061170c9084908a906004016146f8565b602060405180830381600087803b15801561172657600080fd5b505af115801561173a573d6000803e3d6000fd5b505050506040513d601f19601f8201168201806040525081019061175e9190614120565b505b6040517f23e30c8b0000000000000000000000000000000000000000000000000000000081527f439148f0bbc682ca079e46d6e2c2f0c1e3b820f1a291b069d8882abf8cf18dd99081906001600160a01b038b16906323e30c8b906117d39033908d908d908a908e908e906004016146a0565b602060405180830381600087803b1580156117ed57600080fd5b505af1158015611801573d6000803e3d6000fd5b505050506040513d601f19601f82011682018060405250810190611825919061413c565b146118425760405162461bcd60e51b8152600401610fe19061492e565b6001600160a01b038816611868577321be370d5312f44cb42ce377bc9b8a0cef1a4c8397505b6040517fdd62ed3e0000000000000000000000000000000000000000000000000000000081526000906001600160a01b038a169063dd62ed3e906118b2908d90309060040161460b565b60206040518083038186803b1580156118ca57600080fd5b505afa1580156118de573d6000803e3d6000fd5b505050506040513d601f19601f82011682018060405250810190611902919061413c565b905061190e8489614ead565b81101561192d5760405162461bcd60e51b8152600401610fe190614bd7565b6040517f23b872dd0000000000000000000000000000000000000000000000000000000081526001600160a01b038a16906323b872dd90611976908d903090869060040161467c565b602060405180830381600087803b15801561199057600080fd5b505af11580156119a4573d6000803e3d6000fd5b505050506040513d601f19601f820116820180604052508101906119c89190614120565b506001600160a01b0389167321be370d5312f44cb42ce377bc9b8a0cef1a4c831415611a92576040517f2e1a7d4d0000000000000000000000000000000000000000000000000000000081527321be370d5312f44cb42ce377bc9b8a0cef1a4c8390632e1a7d4d90611a3e908490600401614ca2565b602060405180830381600087803b158015611a5857600080fd5b505af1158015611a6c573d6000803e3d6000fd5b505050506040513d601f19601f82011682018060405250810190611a90919061413c565b505b5060019998505050505050505050565b60115460ff1690565b6000610f32602783613b73565b6040517fe5fca79a00000000000000000000000000000000000000000000000000000000815273__$8228317518e9daeef1bbbb17c026e269fd$__9063e5fca79a90611b0f90600090339034908790600401614d29565b60006040518083038186803b158015611b2757600080fd5b505af4158015611b3b573d6000803e3d6000fd5b5050505050565b6040517fafeafd9a00000000000000000000000000000000000000000000000000000000815273__$8228317518e9daeef1bbbb17c026e269fd$__9063afeafd9a90611b9990600090879087908790600401614d29565b60006040518083038186803b158015611bb157600080fd5b505af4158015611bc5573d6000803e3d6000fd5b50505050505050565b60006001600160a01b03821615611c95576040517f70a082310000000000000000000000000000000000000000000000000000000081526001600160a01b038316906370a0823190611c249030906004016145f7565b60206040518083038186803b158015611c3c57600080fd5b505afa925050508015611c6c575060408051601f3d908101601f19168201909252611c699181019061413c565b60015b611c7857506000610f35565b611c83600a82614ec5565b611c8d9082614ee5565b915050610f35565b611ca0600a47614ec5565b610f329047614ee5565b6040517f80ca2ba600000000000000000000000000000000000000000000000000000000815273__$8228317518e9daeef1bbbb17c026e269fd$__906380ca2ba690611b0f906000908590600190600401614ddb565b606060006009018054611d1290614f2c565b80601f0160208091040260200160405190810160405280929190818152602001828054611d3e90614f2c565b8015611d8b5780601f10611d6057610100808354040283529160200191611d8b565b820191906000526020600020905b815481529060010190602001808311611d6e57829003601f168201915b5050505050905090565b3360009081526024602052604090205460ff16151560011480611dc257506002546001600160a01b031633145b80611dcc57503033145b611de85760405162461bcd60e51b8152600401610fe190614a67565b506011805460ff19166001179055565b60606000601701805480602002602001604051908101604052809291908181526020018280548015611d8b57602002820191906000526020600020905b815481526020019060010190808311611e35575050505050905090565b60009081526013602052604090205490565b6040517fecd5244e00000000000000000000000000000000000000000000000000000000815260009073__$8228317518e9daeef1bbbb17c026e269fd$__9063ecd5244e906110599084908690600401614d4d565b60009081526021602052604090205490565b6040517f212f8bbd00000000000000000000000000000000000000000000000000000000815273__$8228317518e9daeef1bbbb17c026e269fd$__9063212f8bbd90611f2c906000908c908c908c908c908c908c908c908c90600401614cca565b60006040518083038186803b158015611f4457600080fd5b505af4158015611f58573d6000803e3d6000fd5b505050505050505050505050565b6040517f48126f4b00000000000000000000000000000000000000000000000000000000815273__$8228317518e9daeef1bbbb17c026e269fd$__906348126f4b906110fe9060009086908690600401614dc3565b6040517f164cd8c200000000000000000000000000000000000000000000000000000000815260009073__$8228317518e9daeef1bbbb17c026e269fd$__9063164cd8c29061200e908490600401614ca2565b60206040518083038186803b15801561202657600080fd5b505af415801561203a573d6000803e3d6000fd5b505050506040513d601f19601f82011682018060405250810190611652919061413c565b3360009081526024602052604090205460ff1615156001148061208b57506002546001600160a01b031633145b8061209557503033145b6120b15760405162461bcd60e51b8152600401610fe190614a67565b610f8b60278261393c565b3360009081526024602052604090205460ff161515600114806120e957506002546001600160a01b031633145b806120f357503033145b61210f5760405162461bcd60e51b8152600401610fe190614a67565b8051612122906009906020840190613bb4565b5050565b336000908152602460205260409020805460ff191660011790556003805473ffffffffffffffffffffffffffffffffffffffff19166001600160a01b0392909216919091179055565b6040517fdc1f0f5300000000000000000000000000000000000000000000000000000000815260009073__$8228317518e9daeef1bbbb17c026e269fd$__9063dc1f0f53906110599084908690600401614d4d565b606060006007018054611d1290614f2c565b600083116121f65760405162461bcd60e51b8152600401610fe190614b32565b6001600160a01b03851661221c5760405162461bcd60e51b8152600401610fe190614c0e565b6001600160a01b0384166122425760405162461bcd60e51b8152600401610fe1906148f7565b6001600160a01b0382166122685760405162461bcd60e51b8152600401610fe190614965565b6122736015856138cd565b15156001146122945760405162461bcd60e51b8152600401610fe190614afb565b6040517efdd58e0000000000000000000000000000000000000000000000000000000081526000906001600160a01b0386169062fdd58e906122dc90869088906004016146f8565b60206040518083038186803b1580156122f457600080fd5b505afa158015612308573d6000803e3d6000fd5b505050506040513d601f19601f8201168201806040525081019061232c919061413c565b90506000811161234e5760405162461bcd60e51b8152600401610fe190614a30565b60018215151415612402576040517ff5298aca0000000000000000000000000000000000000000000000000000000081526001600160a01b0386169063f5298aca906123a290869088908690600401614711565b600060405180830381600087803b1580156123bc57600080fd5b505af11580156123d0573d6000803e3d6000fd5b5050506000858152602080805260408083206001600160a01b0388168452909152902054821190506124025750611b3b565b6000848152602080805260408083206001600160a01b038716845290915290205481116124415760405162461bcd60e51b8152600401610fe190614ac4565b6000866001600160a01b03166395d89b416040518163ffffffff1660e01b815260040160006040518083038186803b15801561247c57600080fd5b505afa158015612490573d6000803e3d6000fd5b505050506040513d6000823e601f3d908101601f191682016040526124b89190810190614299565b6040516020016124c891906144c1565b60408051601f1981840301815290829052805160209182012092506000916124f391600791016144dd565b60405160208183030381529060405280519060200120905080821461252a5760405162461bcd60e51b8152600401610fe19061499c565b6040517fe6c3b1f60000000000000000000000000000000000000000000000000000000081526000906001600160a01b038a169063e6c3b1f690612572908a90600401614ca2565b60206040518083038186803b15801561258a57600080fd5b505afa15801561259e573d6000803e3d6000fd5b505050506040513d601f19601f820116820180604052508101906125c2919061424a565b905060028160028111156125e657634e487b7160e01b600052602160045260246000fd5b146126035760405162461bcd60e51b8152600401610fe190614b69565b6040517f7dcb0e5f0000000000000000000000000000000000000000000000000000000081526000906001600160a01b038b1690637dcb0e5f9061264b908b90600401614ca2565b60206040518083038186803b15801561266357600080fd5b505afa158015612677573d6000803e3d6000fd5b505050506040513d601f19601f8201168201806040525081019061269b919061413c565b60008981526012602052604090208054919250839160ff191660018360028111156126d657634e487b7160e01b600052602160045260246000fd5b0217905550600088815260136020908152604080832084905560148252808320805473ffffffffffffffffffffffffffffffffffffffff19166001600160a01b038e8116919091179091558280528184208b821685529092529182902087905560015491517f156e29f600000000000000000000000000000000000000000000000000000000815291169063156e29f690612779908a908c908a90600401614711565b600060405180830381600087803b15801561279357600080fd5b505af11580156127a7573d6000803e3d6000fd5b50506001546040517f7c8810760000000000000000000000000000000000000000000000000000000081526001600160a01b039091169250637c88107691506127f9908b906002903090600401614df1565b600060405180830381600087803b15801561281357600080fd5b505af1158015612827573d6000803e3d6000fd5b5050505087306001600160a01b0316336001600160a01b03167ff5b54e798ff7f434ed773aa633e6a9f82ef9ae465e46042e1983f29bf1fd69ea8d8d8a6040516128739392919061467c565b60405180910390a450505050505050505050565b60195490565b3360009081526024602052604090205460ff161515600114806128af57503033145b6128cb5760405162461bcd60e51b8152600401610fe190614a67565b6001600160a01b03166000908152602460205260409020805460ff19166001179055565b6040517fb94677da00000000000000000000000000000000000000000000000000000000815260009073__$8228317518e9daeef1bbbb17c026e269fd$__9063b94677da906110599084908690600401614d4d565b60065460ff1690565b600f5490565b6001600160a01b031660009081526024602052604090205460ff1690565b6040517f33c13e0d00000000000000000000000000000000000000000000000000000000815260009073__$8228317518e9daeef1bbbb17c026e269fd$__906333c13e0d9061200e908490600401614ca2565b7fbc197c810000000000000000000000000000000000000000000000000000000095945050505050565b6000818152602080805260408083206001600160a01b038616845290915290205415155b92915050565b336000908152602460205260409020805460ff191660011790556002805473ffffffffffffffffffffffffffffffffffffffff19166001600160a01b0392909216919091179055565b503090565b3360009081526024602052604090205460ff16151560011480612a9357506002546001600160a01b031633145b80612a9d57503033145b612ab95760405162461bcd60e51b8152600401610fe190614a67565b601180548291907fffffffffffffffffffffffffffffffffffffffffffffffffffffffff00ffffff166301000000836002811115612b0757634e487b7160e01b600052602160045260246000fd5b021790555050565b6040517f76e455e100000000000000000000000000000000000000000000000000000000815260009073__$8228317518e9daeef1bbbb17c026e269fd$__906376e455e190612b649084908690600401614d4d565b60206040518083038186803b158015612b7c57600080fd5b505af4158015612b90573d6000803e3d6000fd5b505050506040513d601f19601f82011682018060405250810190610f329190613d7d565b3360009081526024602052604090205460ff16151560011480612be157506002546001600160a01b031633145b80612beb57503033145b612c075760405162461bcd60e51b8152600401610fe190614a67565b601055565b60185490565b3360009081526024602052604090205460ff16151560011480612c3f57506002546001600160a01b031633145b80612c4957503033145b612c655760405162461bcd60e51b8152600401610fe190614a67565b8051612122906017906020840190613c38565b336000908152602460205260409020805460ff191660011790556001805473ffffffffffffffffffffffffffffffffffffffff19166001600160a01b0392909216919091179055565b6000806017018281548110612ce657634e487b7160e01b600052603260045260246000fd5b90600052602060002001549050919050565b6040517f828c7b7200000000000000000000000000000000000000000000000000000000815260009073__$8228317518e9daeef1bbbb17c026e269fd$__9063828c7b729061200e908490600401614ca2565b3360009081526024602052604090205460ff16151560011480612d7857506002546001600160a01b031633145b80612d8257503033145b612d9e5760405162461bcd60e51b8152600401610fe190614a67565b6006805460ff1916911515919091179055565b336000908152602460205260409020805460ff191660011790556004805473ffffffffffffffffffffffffffffffffffffffff19166001600160a01b0392909216919091179055565b600654601954601854601a546040517f164cd8c2000000000000000000000000000000000000000000000000000000008152600094859485948594859485948594859460ff90921693909273__$8228317518e9daeef1bbbb17c026e269fd$__9063164cd8c290612e6f908890600401614ca2565b60206040518083038186803b158015612e8757600080fd5b505af4158015612e9b573d6000803e3d6000fd5b505050506040513d601f19601f82011682018060405250810190612ebf919061413c565b6040517f33c13e0d00000000000000000000000000000000000000000000000000000000815273__$8228317518e9daeef1bbbb17c026e269fd$__906333c13e0d90612f1090600090600401614ca2565b60206040518083038186803b158015612f2857600080fd5b505af4158015612f3c573d6000803e3d6000fd5b505050506040513d601f19601f82011682018060405250810190612f60919061413c565b601954601854969f959e50939c50919a509850965094509092509050565b3360009081526024602052604090205460ff16151560011480612fab57506002546001600160a01b031633145b80612fb557503033145b612fd15760405162461bcd60e51b8152600401610fe190614a67565b6000805473ffffffffffffffffffffffffffffffffffffffff19163017905587516130039060079060208b0190613bb4565b5086516130179060089060208a0190613bb4565b50600a869055600b859055600c849055600d839055600e8290556006805460ff191660011790556011805462ff00001916620100001790556001600160a01b0381161561306957613069602782613ae0565b5050505050505050565b60006001600160a01b0383161561314f576040517f70a082310000000000000000000000000000000000000000000000000000000081526001600160a01b038416906370a08231906130c99030906004016145f7565b60206040518083038186803b1580156130e157600080fd5b505afa925050508015613111575060408051601f3d908101601f1916820190925261310e9181019061413c565b60015b61312d5760405162461bcd60e51b8152600401610fe190614ba0565b6000811161314d5760405162461bcd60e51b8152600401610fe190614ba0565b505b60008360405160200161316291906145a1565b60408051601f198184030181529082905280516020909101206003547f39b37ab00000000000000000000000000000000000000000000000000000000083529092506000916001600160a01b03909116906339b37ab0906131c7908590600401614ca2565b60206040518083038186803b1580156131df57600080fd5b505afa1580156131f3573d6000803e3d6000fd5b505050506040513d601f19601f82011682018060405250810190613217919061413c565b9050806132e05760405160200161322d90614578565b60408051601f198184030181529082905280516020909101206003547f39b37ab00000000000000000000000000000000000000000000000000000000083529093506001600160a01b0316906339b37ab09061328d908590600401614ca2565b60206040518083038186803b1580156132a557600080fd5b505afa1580156132b9573d6000803e3d6000fd5b505050506040513d601f19601f820116820180604052508101906132dd919061413c565b90505b806132ea57506127105b6132f48185614ec5565b95945050505050565b6040517f2394dcbf00000000000000000000000000000000000000000000000000000000815273__$8228317518e9daeef1bbbb17c026e269fd$__90632394dcbf90613360906000908d908d908d908d908d908d908d908d908d90600401614d5b565b60006040518083038186803b15801561337857600080fd5b505af415801561338c573d6000803e3d6000fd5b50505050505050505050505050565b60608060606000806000806000806000806000600701600060080160006009016000600501546000600a01546000600b01546000600c01546000600d01546000600e01546000600f01546000601001548a80546133f790614f2c565b80601f016020809104026020016040519081016040528092919081815260200182805461342390614f2c565b80156134705780601f1061344557610100808354040283529160200191613470565b820191906000526020600020905b81548152906001019060200180831161345357829003601f168201915b50505050509a5089805461348390614f2c565b80601f01602080910402602001604051908101604052809291908181526020018280546134af90614f2c565b80156134fc5780601f106134d1576101008083540402835291602001916134fc565b820191906000526020600020905b8154815290600101906020018083116134df57829003601f168201915b5050505050995088805461350f90614f2c565b80601f016020809104026020016040519081016040528092919081815260200182805461353b90614f2c565b80156135885780601f1061355d57610100808354040283529160200191613588565b820191906000526020600020905b81548152906001019060200180831161356b57829003601f168201915b505050505098509a509a509a509a509a509a509a509a509a509a509a50909192939495969798999a565b3360009081526024602052604090205460ff161515600114806135d457503033145b6135f05760405162461bcd60e51b8152600401610fe190614a67565b336000908152602460205260409020805460ff19169055565b3360009081526024602052604090205460ff1615156001148061363657506002546001600160a01b031633145b8061364057503033145b61365c5760405162461bcd60e51b8152600401610fe190614a67565b600555565b60009081526012602052604090205460ff1690565b6040517fafeafd9a00000000000000000000000000000000000000000000000000000000815273__$8228317518e9daeef1bbbb17c026e269fd$__9063afeafd9a906110fe9060009086908690600190600401614d29565b60055490565b7ff23a6e610000000000000000000000000000000000000000000000000000000095945050505050565b60175490565b601680546040805160208084028201810190925282815260609390929091830182828015611d8b57602002820191906000526020600020905b81546001600160a01b0316815260019091019060200180831161373d575050505050905090565b600080600080600080600080600073__$8228317518e9daeef1bbbb17c026e269fd$__635b68e93c90918b6040518363ffffffff1660e01b81526004016137ac929190614d4d565b6101006040518083038186803b1580156137c557600080fd5b505af41580156137d9573d6000803e3d6000fd5b505050506040513d601f19601f820116820180604052508101906137fd9190613f11565b97509750975097509750975097509750919395975091939597565b6000610f326027836138cd565b3360009081526024602052604090205460ff1615156001148061385257506002546001600160a01b031633145b8061385c57503033145b6138785760405162461bcd60e51b8152600401610fe190614a67565b600f55565b600a5490565b7fffffffff0000000000000000000000000000000000000000000000000000000081167f01ffc9a70000000000000000000000000000000000000000000000000000000014919050565b60018201546000906138e157506000612a12565b6001600160a01b038216600081815260208590526040902054600185018054909190811061391f57634e487b7160e01b600052603260045260246000fd5b6000918252602090912001546001600160a01b0316149392505050565b61394682826138cd565b6139625760405162461bcd60e51b8152600401610fe1906149d3565b61396c82826138cd565b61397557612122565b6000600161398284613b6c565b61398c9190614ee5565b6001600160a01b038316600090815260208590526040902054909150808214613a535760008460010183815481106139d457634e487b7160e01b600052603260045260246000fd5b60009182526020808320909101546001600160a01b0316808352908790526040909120839055600186018054919250829184908110613a2357634e487b7160e01b600052603260045260246000fd5b9060005260206000200160006101000a8154816001600160a01b0302191690836001600160a01b03160217905550505b6001600160a01b03831660009081526020859052604081205560018401805480613a8d57634e487b7160e01b600052603160045260246000fd5b60008281526020902081017fffffffffffffffffffffffffffffffffffffffffffffffffffffffffffffffff908101805473ffffffffffffffffffffffffffffffffffffffff1916905501905550505050565b613aea82826138cd565b15613b075760405162461bcd60e51b8152600401610fe190614c45565b60018281018054808301825560008281526020902001805473ffffffffffffffffffffffffffffffffffffffff19166001600160a01b03851617905554613b4e9190614ee5565b6001600160a01b039091166000908152602092909252604090912055565b6001015490565b6000826001018281548110613b9857634e487b7160e01b600052603260045260246000fd5b6000918252602090912001546001600160a01b03169392505050565b828054613bc090614f2c565b90600052602060002090601f016020900481019282613be25760008555613c28565b82601f10613bfb57805160ff1916838001178555613c28565b82800160010185558215613c28579182015b82811115613c28578251825591602001919060010190613c0d565b50613c34929150613c72565b5090565b828054828255906000526020600020908101928215613c285791602002820182811115613c28578251825591602001919060010190613c0d565b5b80821115613c345760008155600101613c73565b600082601f830112613c97578081fd5b8135602067ffffffffffffffff821115613cb357613cb3614f7d565b808202613cc1828201614e4f565b838152828101908684018388018501891015613cdb578687fd5b8693505b85841015613cfd578035835260019390930192918401918401613cdf565b50979650505050505050565b600082601f830112613d19578081fd5b8135613d2c613d2782614e79565b614e4f565b818152846020838601011115613d40578283fd5b816020850160208301379081016020019190915292915050565b600060208284031215613d6b578081fd5b8135613d7681614fb1565b9392505050565b600060208284031215613d8e578081fd5b8151613d7681614fb1565b60008060408385031215613dab578081fd5b8235613db681614fb1565b91506020830135613dc681614fb1565b809150509250929050565b600080600080600060a08688031215613de8578081fd5b8535613df381614fb1565b94506020860135613e0381614fb1565b9350604086013567ffffffffffffffff80821115613e1f578283fd5b613e2b89838a01613c87565b94506060880135915080821115613e40578283fd5b613e4c89838a01613c87565b93506080880135915080821115613e61578283fd5b50613e6e88828901613d09565b9150509295509295909350565b600080600080600080600080610100898b031215613e97578283fd5b8835613ea281614fb1565b97506020890135613eb281614fb1565b96506040890135613ec281614fd4565b9550606089013594506080890135935060a0890135613ee081614fc6565b925060c0890135613ef081614fc6565b915060e0890135613f0081614fc6565b809150509295985092959890939650565b600080600080600080600080610100898b031215613f2d578182fd5b8851613f3881614fb1565b60208a0151909850613f4981614fb1565b60408a0151909750613f5a81614fd4565b80965050606089015194506080890151935060a0890151613f7a81614fc6565b60c08a0151909350613f8b81614fc6565b60e08a0151909250613f0081614fc6565b600080600080600060a08688031215613fb3578283fd5b8535613fbe81614fb1565b94506020860135613fce81614fb1565b9350604086013592506060860135613fe581614fb1565b91506080860135613ff581614fc6565b809150509295509295909350565b600080600080600060a0868803121561401a578283fd5b853561402581614fb1565b9450602086013561403581614fb1565b93506040860135925060608601359150608086013567ffffffffffffffff81111561405e578182fd5b613e6e88828901613d09565b6000806040838503121561407c578182fd5b823561408781614fb1565b946020939093013593505050565b6000806000606084860312156140a9578081fd5b83356140b481614fb1565b95602085013595506040909401359392505050565b6000602082840312156140da578081fd5b813567ffffffffffffffff8111156140f0578182fd5b6140fc84828501613c87565b949350505050565b600060208284031215614115578081fd5b8135613d7681614fc6565b600060208284031215614131578081fd5b8151613d7681614fc6565b60006020828403121561414d578081fd5b5051919050565b600060208284031215614165578081fd5b81357fffffffff0000000000000000000000000000000000000000000000000000000081168114613d76578182fd5b6000806000806000608086880312156141ab578283fd5b85356141b681614fb1565b945060208601356141c681614fb1565b935060408601359250606086013567ffffffffffffffff808211156141e9578283fd5b818801915088601f8301126141fc578283fd5b81358181111561420a578384fd5b89602082850101111561421b578384fd5b9699959850939650602001949392505050565b60006020828403121561423f578081fd5b8135613d7681614fd4565b60006020828403121561425b578081fd5b8151613d7681614fd4565b600060208284031215614277578081fd5b813567ffffffffffffffff81111561428d578182fd5b6140fc84828501613d09565b6000602082840312156142aa578081fd5b815167ffffffffffffffff8111156142c0578182fd5b8201601f810184136142d0578182fd5b80516142de613d2782614e79565b8181528560208385010111156142f2578384fd5b6132f4826020830160208601614efc565b600080600080600080600080610100898b03121561431f578182fd5b883567ffffffffffffffff80821115614336578384fd5b6143428c838d01613d09565b995060208b0135915080821115614357578384fd5b506143648b828c01613d09565b97505060408901359550606089013594506080890135935060a0890135925060c0890135915060e0890135613f0081614fb1565b6000602082840312156143a9578081fd5b5035919050565b60008060008060008060008060006101208a8c0312156143ce578283fd5b8935985060208a01356143e081614fb1565b975060408a01356143f081614fb1565b965060608a013561440081614fd4565b955060808a0135945060a08a0135935060c08a013561441e81614fc6565b925060e08a013561442e81614fc6565b91506101008a013561443f81614fc6565b809150509295985092959850929598565b60008060408385031215614462578182fd5b823591506020830135613dc681614fc6565b60008060408385031215614486578182fd5b50508035926020909101359150565b600081518084526144ad816020860160208601614efc565b601f01601f19169290920160200192915050565b600082516144d3818460208701614efc565b9190910192915050565b81546000908190600281046001808316806144f957607f831692505b602080841082141561451957634e487b7160e01b87526022600452602487fd5b81801561452d576001811461453e5761456a565b60ff1986168952848901965061456a565b6145478a614ea1565b885b868110156145625781548b820152908501908301614549565b505084890196505b509498975050505050505050565b7f666c6173685f6c6f616e000000000000000000000000000000000000000000008152600a0190565b7f666c6173685f6c6f616e00000000000000000000000000000000000000000000815260609190911b7fffffffffffffffffffffffffffffffffffffffff00000000000000000000000016600a820152601e0190565b6001600160a01b0391909116815260200190565b6001600160a01b0392831681529116602082015260400190565b6001600160a01b03898116825288166020820152610100810161464788614f93565b60408201979097526060810195909552608085019390935290151560a0840152151560c0830152151560e09091015292915050565b6001600160a01b039384168152919092166020820152604081019190915260600190565b60006001600160a01b03808916835280881660208401525085604083015284606083015260a060808301528260a0830152828460c084013781830160c090810191909152601f909201601f1916010195945050505050565b6001600160a01b03929092168252602082015260400190565b6001600160a01b039390931683526020830191909152604082015260600190565b6020808252825182820181905260009190848201906040850190845b818110156147735783516001600160a01b03168352928401929184019160010161474e565b50909695505050505050565b6020808252825182820181905260009190848201906040850190845b818110156147735783518352928401929184019160010161479b565b901515815260200190565b9715158852602088019690965260408701949094526060860192909252608085015260a084015260c083015260e08201526101000190565b7fffffffff0000000000000000000000000000000000000000000000000000000091909116815260200190565b6020810161483483614f93565b91905290565b6060810161484785614f93565b93815260208101929092526001600160a01b031660409091015290565b600060208252613d766020830184614495565b600061016080835261488b8184018f614495565b9050828103602084015261489f818e614495565b905082810360408401526148b3818d614495565b606084019b909b525050608081019790975260a087019590955260c086019390935260e0850191909152610100840152610120830152610140909101529392505050565b6020808252600d908201527f494e56414c49445f544f4b454e00000000000000000000000000000000000000604082015260600190565b6020808252601c908201527f466c6173684d696e7465723a2043616c6c6261636b206661696c656400000000604082015260600190565b60208082526011908201527f494e56414c49445f524543495049454e54000000000000000000000000000000604082015260600190565b60208082526010908201527f494e56414c49445f504f4f4c4841534800000000000000000000000000000000604082015260600190565b6020808252602a908201527f416464726573735365743a206b657920646f6573206e6f74206578697374206960408201527f6e20746865207365742e00000000000000000000000000000000000000000000606082015260800190565b60208082526011908201527f4e4f5448494e475f544f5f494d504f5254000000000000000000000000000000604082015260600190565b60208082526028908201527f436f6e74726f6c6c61626c653a2063616c6c6572206973206e6f74206120636f60408201527f6e74726f6c6c6572000000000000000000000000000000000000000000000000606082015260800190565b60208082526010908201527f414c52454144595f494d504f5254454400000000000000000000000000000000604082015260600190565b60208082526013908201527f494e56414c49445f544f4b454e534f5552434500000000000000000000000000604082015260600190565b60208082526011908201527f494e56414c49445f544f4b454e48415348000000000000000000000000000000604082015260600190565b60208082526009908201527f4e4f545f415f47454d0000000000000000000000000000000000000000000000604082015260600190565b60208082526015908201527f455243323020746f6b656e206e6f7420666f756e640000000000000000000000604082015260600190565b6020808252601f908201527f466c6173684d696e7465723a205265706179206e6f7420617070726f76656400604082015260600190565b6020808252600c908201527f494e56414c49445f504f4f4c0000000000000000000000000000000000000000604082015260600190565b6020808252602a908201527f416464726573735365743a206b657920616c726561647920657869737473206960408201527f6e20746865207365742e00000000000000000000000000000000000000000000606082015260800190565b90815260200190565b9283526001600160a01b03918216602084015216604082015260600190565b8981526001600160a01b038981166020830152881660408201526101208101614cf288614f93565b6060820197909752608081019590955260a085019390935290151560c0840152151560e08301521515610100909101529392505050565b9384526001600160a01b039290921660208401526040830152606082015260800190565b918252602082015260400190565b8a8152602081018a90526001600160a01b038981166040830152881660608201526101408101614d8a88614f93565b608082019790975260a081019590955260c085019390935290151560e08401521515610100830152151561012090910152949350505050565b92835260208301919091521515604082015260600190565b9283526020830191909152604082015260600190565b83815260608101614e0184614f93565b8360208301526001600160a01b0383166040830152949350505050565b9586526020860194909452604085019290925260608401526001600160a01b0316608083015260a082015260c00190565b60405181810167ffffffffffffffff81118282101715614e7157614e71614f7d565b604052919050565b600067ffffffffffffffff821115614e9357614e93614f7d565b50601f01601f191660200190565b60009081526020902090565b60008219821115614ec057614ec0614f67565b500190565b600082614ee057634e487b7160e01b81526012600452602481fd5b500490565b600082821015614ef757614ef7614f67565b500390565b60005b83811015614f17578181015183820152602001614eff565b83811115614f26576000848401525b50505050565b600281046001821680614f4057607f821691505b60208210811415614f6157634e487b7160e01b600052602260045260246000fd5b50919050565b634e487b7160e01b600052601160045260246000fd5b634e487b7160e01b600052604160045260246000fd5b60038110610f8b57634e487b7160e01b600052602160045260246000fd5b6001600160a01b0381168114610f8b57600080fd5b8015158114610f8b57600080fd5b60038110610f8b57600080fdfea264697066735822122069bf57fc30e05f7a0cdb5c5dc9b148a42b9c23c31bc5301110b5e53db58eebef64736f6c63430008000033a2646970667358221220be7bf4899078d4eb2e20277c261df496cfff58cddaa1bbf1fe55b100b9a8ca6a64736f6c63430008000033",
  "libraries": {
    "Strings": "0x9cd2aa68ecCF27b393E825c6fC844eF4217D4c22",
    "AddressSet": "0x5d3EFF596b76CAaF5F71176D5B8499BDB7fCb639",
    "UInt256Set": "0x0690fedAEc49A5Bd4c2fb723Cf3F0114E57014BC",
    "Create2": "0x931Fd76E170a15918409dBA587F0802da03845AD",
    "WrappedTokenLib": "0x3A00E3758B9B7bcf4E03bf5Aef69fd079aCbd852",
    "ComplexPoolLib": "0xd7203305346B69227e126D7FBfCE20Fc976aE524"
  },
  "devdoc": {
    "kind": "dev",
    "methods": {
      "allNFTGemPools(uint256)": {
        "details": "get the quantized token for this"
      },
      "allNFTGemPoolsLength()": {
        "details": "number of quantized addresses"
      },
      "createNFTGemPool(address,string,string,uint256,uint256,uint256,uint256,uint256,address)": {
        "details": "deploy a new erc20 token using create2"
      },
      "getNFTGemPool(uint256)": {
        "details": "get the quantized token for this"
      },
      "nftGemPools()": {
        "details": "get the quantized token for this"
      }
    },
    "version": 1
  },
  "userdoc": {
    "kind": "user",
    "methods": {},
    "version": 1
  },
  "storageLayout": {
    "storage": [
      {
        "astId": 13388,
        "contract": "src/factories/NFTGemPoolFactory.sol:NFTGemPoolFactory",
        "label": "_getNFTGemPool",
        "offset": 0,
        "slot": "0",
        "type": "t_mapping(t_uint256,t_address)"
      },
      {
        "astId": 13391,
        "contract": "src/factories/NFTGemPoolFactory.sol:NFTGemPoolFactory",
        "label": "_allNFTGemPools",
        "offset": 0,
        "slot": "1",
        "type": "t_array(t_address)dyn_storage"
      }
    ],
    "types": {
      "t_address": {
        "encoding": "inplace",
        "label": "address",
        "numberOfBytes": "20"
      },
      "t_array(t_address)dyn_storage": {
        "base": "t_address",
        "encoding": "dynamic_array",
        "label": "address[]",
        "numberOfBytes": "32"
      },
      "t_mapping(t_uint256,t_address)": {
        "encoding": "mapping",
        "key": "t_uint256",
        "label": "mapping(uint256 => address)",
        "numberOfBytes": "32",
        "value": "t_address"
      },
      "t_uint256": {
        "encoding": "inplace",
        "label": "uint256",
        "numberOfBytes": "32"
      }
    }
  }
}