{
  "address": "0x75D65341E24630DAE573Dc76B6e85aD9Db4B20aa",
  "abi": [
    {
      "inputs": [],
      "stateMutability": "nonpayable",
      "type": "constructor"
    },
    {
      "anonymous": false,
      "inputs": [
        {
          "indexed": true,
          "internalType": "address",
          "name": "proposal",
          "type": "address"
        },
        {
          "indexed": true,
          "internalType": "address",
          "name": "token",
          "type": "address"
        },
        {
          "indexed": false,
          "internalType": "bool",
          "name": "isBanned",
          "type": "bool"
        }
      ],
      "name": "AllowList",
      "type": "event"
    },
    {
      "anonymous": false,
      "inputs": [
        {
          "indexed": true,
          "internalType": "address",
          "name": "contractAddress",
          "type": "address"
        },
        {
          "indexed": true,
          "internalType": "address",
          "name": "controllerAddress",
          "type": "address"
        }
      ],
      "name": "ControllerAdded",
      "type": "event"
    },
    {
      "anonymous": false,
      "inputs": [
        {
          "indexed": true,
          "internalType": "address",
          "name": "contractAddress",
          "type": "address"
        },
        {
          "indexed": true,
          "internalType": "address",
          "name": "controllerAddress",
          "type": "address"
        }
      ],
      "name": "ControllerRemoved",
      "type": "event"
    },
    {
      "anonymous": false,
      "inputs": [
        {
          "indexed": true,
          "internalType": "address",
          "name": "proposal",
          "type": "address"
        },
        {
          "indexed": true,
          "internalType": "address",
          "name": "token",
          "type": "address"
        },
        {
          "indexed": false,
          "internalType": "uint256",
          "name": "newFee",
          "type": "uint256"
        }
      ],
      "name": "FeeUpdated",
      "type": "event"
    },
    {
      "anonymous": false,
      "inputs": [
        {
          "indexed": true,
          "internalType": "address",
          "name": "receiver",
          "type": "address"
        },
        {
          "indexed": false,
          "internalType": "uint256",
          "name": "amount",
          "type": "uint256"
        }
      ],
      "name": "FuelTokenIssued",
      "type": "event"
    },
    {
      "anonymous": false,
      "inputs": [
        {
          "indexed": true,
          "internalType": "address",
          "name": "receiver",
          "type": "address"
        },
        {
          "indexed": false,
          "internalType": "uint256",
          "name": "amount",
          "type": "uint256"
        }
      ],
      "name": "GovernanceTokenIssued",
      "type": "event"
    },
    {
      "anonymous": false,
      "inputs": [
        {
          "indexed": true,
          "internalType": "address",
          "name": "proposal",
          "type": "address"
        },
        {
          "indexed": true,
          "internalType": "address",
          "name": "receiver",
          "type": "address"
        },
        {
          "indexed": false,
          "internalType": "uint256",
          "name": "received",
          "type": "uint256"
        }
      ],
      "name": "ProjectFunded",
      "type": "event"
    },
    {
      "anonymous": false,
      "inputs": [
        {
          "indexed": true,
          "internalType": "address",
          "name": "proposal",
          "type": "address"
        },
        {
          "indexed": true,
          "internalType": "address",
          "name": "pool",
          "type": "address"
        },
        {
          "indexed": false,
          "internalType": "string",
          "name": "symbol",
          "type": "string"
        },
        {
          "indexed": false,
          "internalType": "string",
          "name": "name",
          "type": "string"
        },
        {
          "indexed": false,
          "internalType": "uint256",
          "name": "ethPrice",
          "type": "uint256"
        },
        {
          "indexed": false,
          "internalType": "uint256",
          "name": "minTime",
          "type": "uint256"
        },
        {
          "indexed": false,
          "internalType": "uint256",
          "name": "maxTime",
          "type": "uint256"
        },
        {
          "indexed": false,
          "internalType": "uint256",
          "name": "diffStep",
          "type": "uint256"
        },
        {
          "indexed": false,
          "internalType": "uint256",
          "name": "maxClaims",
          "type": "uint256"
        },
        {
          "indexed": false,
          "internalType": "address",
          "name": "alllowedToken",
          "type": "address"
        }
      ],
      "name": "StakingPoolCreated",
      "type": "event"
    },
    {
      "inputs": [
        {
          "internalType": "address",
          "name": "_controller",
          "type": "address"
        }
      ],
      "name": "addController",
      "outputs": [],
      "stateMutability": "nonpayable",
      "type": "function"
    },
    {
      "inputs": [
        {
          "internalType": "address",
          "name": "submitter",
          "type": "address"
        },
        {
          "internalType": "string",
          "name": "title",
          "type": "string"
        },
        {
          "internalType": "address",
          "name": "token",
          "type": "address"
        },
        {
          "internalType": "address",
          "name": "pool",
          "type": "address"
        },
        {
          "internalType": "uint256",
          "name": "feeDivisor",
          "type": "uint256"
        }
      ],
      "name": "createChangeFeeProposal",
      "outputs": [
        {
          "internalType": "address",
          "name": "proposal",
          "type": "address"
        }
      ],
      "stateMutability": "nonpayable",
      "type": "function"
    },
    {
      "inputs": [
        {
          "internalType": "address",
          "name": "submitter",
          "type": "address"
        },
        {
          "internalType": "string",
          "name": "title",
          "type": "string"
        },
        {
          "internalType": "address",
          "name": "receiver",
          "type": "address"
        },
        {
          "internalType": "string",
          "name": "descriptionUrl",
          "type": "string"
        },
        {
          "internalType": "uint256",
          "name": "ethAmount",
          "type": "uint256"
        }
      ],
      "name": "createFundProjectProposal",
      "outputs": [
        {
          "internalType": "address",
          "name": "proposal",
          "type": "address"
        }
      ],
      "stateMutability": "nonpayable",
      "type": "function"
    },
    {
      "inputs": [
        {
          "internalType": "address",
          "name": "submitter",
          "type": "address"
        },
        {
          "internalType": "string",
          "name": "title",
          "type": "string"
        },
        {
          "internalType": "string",
          "name": "symbol",
          "type": "string"
        },
        {
          "internalType": "string",
          "name": "name",
          "type": "string"
        },
        {
          "internalType": "uint256",
          "name": "ethPrice",
          "type": "uint256"
        },
        {
          "internalType": "uint256",
          "name": "minTIme",
          "type": "uint256"
        },
        {
          "internalType": "uint256",
          "name": "maxTime",
          "type": "uint256"
        },
        {
          "internalType": "uint256",
          "name": "diffStep",
          "type": "uint256"
        },
        {
          "internalType": "uint256",
          "name": "maxClaims",
          "type": "uint256"
        },
        {
          "internalType": "address",
          "name": "allowedToken",
          "type": "address"
        }
      ],
      "name": "createNewPoolProposal",
      "outputs": [
        {
          "internalType": "address",
          "name": "proposal",
          "type": "address"
        }
      ],
      "stateMutability": "nonpayable",
      "type": "function"
    },
    {
      "inputs": [
        {
          "internalType": "string",
          "name": "symbol",
          "type": "string"
        },
        {
          "internalType": "string",
          "name": "name",
          "type": "string"
        },
        {
          "internalType": "uint256",
          "name": "ethPrice",
          "type": "uint256"
        },
        {
          "internalType": "uint256",
          "name": "minTime",
          "type": "uint256"
        },
        {
          "internalType": "uint256",
          "name": "maxTime",
          "type": "uint256"
        },
        {
          "internalType": "uint256",
          "name": "diffstep",
          "type": "uint256"
        },
        {
          "internalType": "uint256",
          "name": "maxClaims",
          "type": "uint256"
        },
        {
          "internalType": "address",
          "name": "allowedToken",
          "type": "address"
        }
      ],
      "name": "createPool",
      "outputs": [
        {
          "internalType": "address",
          "name": "pool",
          "type": "address"
        }
      ],
      "stateMutability": "nonpayable",
      "type": "function"
    },
    {
      "inputs": [
        {
          "internalType": "uint256",
          "name": "proposalHash",
          "type": "uint256"
        }
      ],
      "name": "createProposalVoteTokens",
      "outputs": [],
      "stateMutability": "nonpayable",
      "type": "function"
    },
    {
      "inputs": [
        {
          "internalType": "string",
          "name": "symbol",
          "type": "string"
        },
        {
          "internalType": "string",
          "name": "name",
          "type": "string"
        },
        {
          "internalType": "uint256",
          "name": "ethPrice",
          "type": "uint256"
        },
        {
          "internalType": "uint256",
          "name": "minTime",
          "type": "uint256"
        },
        {
          "internalType": "uint256",
          "name": "maxTime",
          "type": "uint256"
        },
        {
          "internalType": "uint256",
          "name": "diffstep",
          "type": "uint256"
        },
        {
          "internalType": "uint256",
          "name": "maxClaims",
          "type": "uint256"
        },
        {
          "internalType": "address",
          "name": "allowedToken",
          "type": "address"
        }
      ],
      "name": "createSystemPool",
      "outputs": [
        {
          "internalType": "address",
          "name": "pool",
          "type": "address"
        }
      ],
      "stateMutability": "nonpayable",
      "type": "function"
    },
    {
      "inputs": [
        {
          "internalType": "address",
          "name": "submitter",
          "type": "address"
        },
        {
          "internalType": "string",
          "name": "title",
          "type": "string"
        },
        {
          "internalType": "address",
          "name": "token",
          "type": "address"
        },
        {
          "internalType": "address",
          "name": "pool",
          "type": "address"
        },
        {
          "internalType": "bool",
          "name": "newStatus",
          "type": "bool"
        }
      ],
      "name": "createUpdateAllowlistProposal",
      "outputs": [
        {
          "internalType": "address",
          "name": "proposal",
          "type": "address"
        }
      ],
      "stateMutability": "nonpayable",
      "type": "function"
    },
    {
      "inputs": [
        {
          "internalType": "uint256",
          "name": "proposalHash",
          "type": "uint256"
        }
      ],
      "name": "destroyProposalVoteTokens",
      "outputs": [],
      "stateMutability": "nonpayable",
      "type": "function"
    },
    {
      "inputs": [
        {
          "internalType": "address",
          "name": "propAddress",
          "type": "address"
        }
      ],
      "name": "executeProposal",
      "outputs": [],
      "stateMutability": "nonpayable",
      "type": "function"
    },
    {
      "inputs": [
        {
          "internalType": "address",
          "name": "_multitoken",
          "type": "address"
        },
        {
          "internalType": "address",
          "name": "_factory",
          "type": "address"
        },
        {
          "internalType": "address",
          "name": "_feeTracker",
          "type": "address"
        },
        {
          "internalType": "address",
          "name": "_proposalFactory",
          "type": "address"
        },
        {
          "internalType": "address",
          "name": "_swapHelper",
          "type": "address"
        }
      ],
      "name": "initialize",
      "outputs": [],
      "stateMutability": "nonpayable",
      "type": "function"
    },
    {
      "inputs": [],
      "name": "initialized",
      "outputs": [
        {
          "internalType": "bool",
          "name": "",
          "type": "bool"
        }
      ],
      "stateMutability": "view",
      "type": "function"
    },
    {
      "inputs": [
        {
          "internalType": "address",
          "name": "_address",
          "type": "address"
        }
      ],
      "name": "isController",
      "outputs": [
        {
          "internalType": "bool",
          "name": "allowed",
          "type": "bool"
        }
      ],
      "stateMutability": "view",
      "type": "function"
    },
    {
      "inputs": [
        {
          "internalType": "address",
          "name": "receiver",
          "type": "address"
        },
        {
          "internalType": "uint256",
          "name": "amount",
          "type": "uint256"
        }
      ],
      "name": "issueFuelToken",
      "outputs": [
        {
          "internalType": "uint256",
          "name": "",
          "type": "uint256"
        }
      ],
      "stateMutability": "nonpayable",
      "type": "function"
    },
    {
      "inputs": [
        {
          "internalType": "address",
          "name": "receiver",
          "type": "address"
        }
      ],
      "name": "issueInitialFuelTokens",
      "outputs": [
        {
          "internalType": "uint256",
          "name": "",
          "type": "uint256"
        }
      ],
      "stateMutability": "nonpayable",
      "type": "function"
    },
    {
      "inputs": [
        {
          "internalType": "address",
          "name": "receiver",
          "type": "address"
        }
      ],
      "name": "issueInitialGovernanceTokens",
      "outputs": [
        {
          "internalType": "uint256",
          "name": "",
          "type": "uint256"
        }
      ],
      "stateMutability": "nonpayable",
      "type": "function"
    },
    {
      "inputs": [
        {
          "internalType": "address",
          "name": "receiver",
          "type": "address"
        }
      ],
      "name": "maybeIssueGovernanceToken",
      "outputs": [
        {
          "internalType": "uint256",
          "name": "",
          "type": "uint256"
        }
      ],
      "stateMutability": "nonpayable",
      "type": "function"
    },
    {
      "inputs": [],
      "name": "relinquishControl",
      "outputs": [],
      "stateMutability": "view",
      "type": "function"
    },
    {
      "inputs": [
        {
          "internalType": "address",
          "name": "a",
          "type": "address"
        }
      ],
      "name": "setFactory",
      "outputs": [],
      "stateMutability": "nonpayable",
      "type": "function"
    },
    {
      "inputs": [
        {
          "internalType": "address",
          "name": "a",
          "type": "address"
        }
      ],
      "name": "setFeeTracker",
      "outputs": [],
      "stateMutability": "nonpayable",
      "type": "function"
    },
    {
      "inputs": [
        {
          "internalType": "address",
          "name": "a",
          "type": "address"
        }
      ],
      "name": "setMultitoken",
      "outputs": [],
      "stateMutability": "nonpayable",
      "type": "function"
    },
    {
      "inputs": [
        {
          "internalType": "address",
          "name": "a",
          "type": "address"
        }
      ],
      "name": "setProposalFactory",
      "outputs": [],
      "stateMutability": "nonpayable",
      "type": "function"
    },
    {
      "inputs": [
        {
          "internalType": "address",
          "name": "a",
          "type": "address"
        }
      ],
      "name": "setSwapHelper",
      "outputs": [],
      "stateMutability": "nonpayable",
      "type": "function"
    }
  ],
  "transactionHash": "0x4f745cf01b5a33b4c4d0cbc3728e6ba7abb3c85647094b7be344b8435ffbdea8",
  "args": [],
  "solcInputHash": "c56ba75d5114639d0b7a395f04f266ad",
  "bytecode": "0x608060405234801561001057600080fd5b5061001a3361001f565b610043565b6001600160a01b03166000908152602081905260409020805460ff19166001179055565b612a6d806100526000396000f3fe608060405234801561001057600080fd5b506004361061018d5760003560e01c80639277a185116100e3578063dac7f24d1161008c578063e443978511610066578063e443978514610b3f578063ea40a7a414610b65578063fb54cc4014610b915761018d565b8063dac7f24d14610a4a578063e143194514610a67578063e1c28bef14610b375761018d565b8063afc93505116100bd578063afc93505146108ae578063b429afeb146109fe578063d73cd47f14610a245761018d565b80639277a1851461083c578063a67a03ab14610862578063a7fc7a07146108885761018d565b80635bb47808116101455780636e3c7c7f1161011f5780636e3c7c7f1461042f57806377fa7d98146104fd5780638dbf88c8146106515761018d565b80635bb47808146103bd578063634b5b7d146103e35780636c7c402f146104095761018d565b8063158ef93e11610176578063158ef93e146102145780631e4ad6a2146102305780632866519d1461024d5761018d565b806310fbe8a0146101925780631459457a146101ca575b600080fd5b6101b8600480360360208110156101a857600080fd5b50356001600160a01b0316610bb7565b60408051918252519081900360200190f35b610212600480360360a08110156101e057600080fd5b506001600160a01b03813581169160208101358216916040820135811691606081013582169160809091013516610d46565b005b61021c610e51565b604080519115158252519081900360200190f35b6102126004803603602081101561024657600080fd5b5035610e72565b6103a1600480360361010081101561026457600080fd5b81019060208101813564010000000081111561027f57600080fd5b82018360208201111561029157600080fd5b803590602001918460018302840111640100000000831117156102b357600080fd5b91908080601f016020809104026020016040519081016040528093929190818152602001838380828437600092019190915250929594936020810193503591505064010000000081111561030657600080fd5b82018360208201111561031857600080fd5b8035906020019184600183028401116401000000008311171561033a57600080fd5b91908080601f0160208091040260200160405190810160405280939291908181526020018383808284376000920191909152509295505082359350505060208101359060408101359060608101359060808101359060a001356001600160a01b0316610f67565b604080516001600160a01b039092168252519081900360200190f35b610212600480360360208110156103d357600080fd5b50356001600160a01b0316611180565b6101b8600480360360208110156103f957600080fd5b50356001600160a01b0316611217565b6102126004803603602081101561041f57600080fd5b50356001600160a01b03166113f1565b6103a1600480360360a081101561044557600080fd5b6001600160a01b03823516919081019060408101602082013564010000000081111561047057600080fd5b82018360208201111561048257600080fd5b803590602001918460018302840111640100000000831117156104a457600080fd5b91908080601f016020809104026020016040519081016040528093929190818152602001838380828437600092019190915250929550506001600160a01b03833581169450602084013516926040013591506114889050565b6103a1600480360361010081101561051457600080fd5b81019060208101813564010000000081111561052f57600080fd5b82018360208201111561054157600080fd5b8035906020019184600183028401116401000000008311171561056357600080fd5b91908080601f01602080910402602001604051908101604052809392919081815260200183838082843760009201919091525092959493602081019350359150506401000000008111156105b657600080fd5b8201836020820111156105c857600080fd5b803590602001918460018302840111640100000000831117156105ea57600080fd5b91908080601f0160208091040260200160405190810160405280939291908181526020018383808284376000920191909152509295505082359350505060208101359060408101359060608101359060808101359060a001356001600160a01b0316611557565b6103a1600480360361014081101561066857600080fd5b6001600160a01b03823516919081019060408101602082013564010000000081111561069357600080fd5b8201836020820111156106a557600080fd5b803590602001918460018302840111640100000000831117156106c757600080fd5b91908080601f016020809104026020016040519081016040528093929190818152602001838380828437600092019190915250929594936020810193503591505064010000000081111561071a57600080fd5b82018360208201111561072c57600080fd5b8035906020019184600183028401116401000000008311171561074e57600080fd5b91908080601f01602080910402602001604051908101604052809392919081815260200183838082843760009201919091525092959493602081019350359150506401000000008111156107a157600080fd5b8201836020820111156107b357600080fd5b803590602001918460018302840111640100000000831117156107d557600080fd5b91908080601f0160208091040260200160405190810160405280939291908181526020018383808284376000920191909152509295505082359350505060208101359060408101359060608101359060808101359060a001356001600160a01b031661186e565b6102126004803603602081101561085257600080fd5b50356001600160a01b0316611a22565b6102126004803603602081101561087857600080fd5b50356001600160a01b0316611ab9565b6102126004803603602081101561089e57600080fd5b50356001600160a01b0316611bbb565b6103a1600480360360a08110156108c457600080fd5b6001600160a01b0382351691908101906040810160208201356401000000008111156108ef57600080fd5b82018360208201111561090157600080fd5b8035906020019184600183028401116401000000008311171561092357600080fd5b91908080601f01602080910402602001604051908101604052809392919081815260200183838082843760009201919091525092956001600160a01b0385351695909490935060408101925060200135905064010000000081111561098757600080fd5b82018360208201111561099957600080fd5b803590602001918460018302840111640100000000831117156109bb57600080fd5b91908080601f0160208091040260200160405190810160405280939291908181526020018383808284376000920191909152509295505091359250611c5a915050565b61021c60048036036020811015610a1457600080fd5b50356001600160a01b0316611d7b565b61021260048036036020811015610a3a57600080fd5b50356001600160a01b0316611d99565b61021260048036036020811015610a6057600080fd5b5035611e30565b6103a1600480360360a0811015610a7d57600080fd5b6001600160a01b038235169190810190604081016020820135640100000000811115610aa857600080fd5b820183602082011115610aba57600080fd5b80359060200191846001830284011164010000000083111715610adc57600080fd5b91908080601f016020809104026020016040519081016040528093929190818152602001838380828437600092019190915250929550506001600160a01b03833581169450602084013516926040013515159150611f0a9050565b610212611fe3565b6101b860048036036020811015610b5557600080fd5b50356001600160a01b031661204b565b6101b860048036036040811015610b7b57600080fd5b506001600160a01b0381351690602001356121d3565b61021260048036036020811015610ba757600080fd5b50356001600160a01b03166122c6565b600554600090760100000000000000000000000000000000000000000000900460ff1615610c2c576040805162461bcd60e51b815260206004820152600e60248201527f414c52454144595f495353554544000000000000000000000000000000000000604482015290519081900360640190fd5b60018054604080517f156e29f60000000000000000000000000000000000000000000000000000000081526001600160a01b0386811660048301526024820194909452620f424060448201529051929091169163156e29f69160648082019260009290919082900301818387803b158015610ca657600080fd5b505af1158015610cba573d6000803e3d6000fd5b5050600580547fffffffffffffffffff00ffffffffffffffffffffffffffffffffffffffffffff16760100000000000000000000000000000000000000000000179055505060408051620f4240815290516001600160a01b038416917fd3b35edb38a682f96e511f1d436c7b690071bb8a37a40ad9fce8a13afea591c4919081900360200190a2919050565b3360009081526020819052604090205460ff16151560011480610d6857503033145b610da35760405162461bcd60e51b8152600401808060200182810382526028815260200180612a106028913960400191505060405180910390fd5b600180547fffffffffffffffffffffffff00000000000000000000000000000000000000009081166001600160a01b039788161790915560028054821695871695909517909455600380548516938616939093179092556004805484169185169190911790556005805474010000000000000000000000000000000000000000931691909316177fffffffffffffffffffffff00ffffffffffffffffffffffffffffffffffffffff16179055565b60055474010000000000000000000000000000000000000000900460ff1690565b3360009081526020819052604090205460ff16151560011480610e9457503033145b610ecf5760405162461bcd60e51b8152600401808060200182810382526028815260200180612a106028913960400191505060405180910390fd5b600154604080517f85efa54c0000000000000000000000000000000000000000000000000000000081526001600160a01b0390921660048301526024820183905251738B4207A13a5a13bDb2bBf15c137820e61e3c4AAc916385efa54c916044808301926000929190829003018186803b158015610f4c57600080fd5b505af4158015610f60573d6000803e3d6000fd5b5050505050565b3360009081526020819052604081205460ff16151560011480610f8957503033145b610fc45760405162461bcd60e51b8152600401808060200182810382526028815260200180612a106028913960400191505060405180910390fd5b738B4207A13a5a13bDb2bBf15c137820e61e3c4AAc631500cfba600260009054906101000a90046001600160a01b03168b8b8b8b8b8b8b8b6040518a63ffffffff1660e01b8152600401808a6001600160a01b031681526020018060200180602001898152602001888152602001878152602001868152602001858152602001846001600160a01b0316815260200183810383528b818151815260200191508051906020019080838360005b83811015611088578181015183820152602001611070565b50505050905090810190601f1680156110b55780820380516001836020036101000a031916815260200191505b5083810382528a5181528a516020918201918c019080838360005b838110156110e85781810151838201526020016110d0565b50505050905090810190601f1680156111155780820380516001836020036101000a031916815260200191505b509b50505050505050505050505060206040518083038186803b15801561113b57600080fd5b505af415801561114f573d6000803e3d6000fd5b505050506040513d602081101561116557600080fd5b5051905061117433808361235d565b98975050505050505050565b3360009081526020819052604090205460ff161515600114806111a257503033145b6111dd5760405162461bcd60e51b8152600401808060200182810382526028815260200180612a106028913960400191505060405180910390fd5b600280547fffffffffffffffffffffffff0000000000000000000000000000000000000000166001600160a01b0392909216919091179055565b3360009081526020819052604081205460ff1615156001148061123957503033145b6112745760405162461bcd60e51b8152600401808060200182810382526028815260200180612a106028913960400191505060405180910390fd5b600154604080517fed7aae2b000000000000000000000000000000000000000000000000000000008152600060048201819052915191926001600160a01b03169163ed7aae2b91602480820192602092909190829003018186803b1580156112db57600080fd5b505afa1580156112ef573d6000803e3d6000fd5b505050506040513d602081101561130557600080fd5b50519050620f4240811061131d5760009150506113ec565b60018054604080517f156e29f60000000000000000000000000000000000000000000000000000000081526001600160a01b03878116600483015260006024830181905260448301959095529151919092169263156e29f6926064808201939182900301818387803b15801561139257600080fd5b505af11580156113a6573d6000803e3d6000fd5b5050604080516001815290516001600160a01b03871693507f1b9ddf8f7c45e0567932349c127951357a3f9b5a821eeeec6e44d771debbb49092509081900360200190a2505b919050565b3360009081526020819052604090205460ff1615156001148061141357503033145b61144e5760405162461bcd60e51b8152600401808060200182810382526028815260200180612a106028913960400191505060405180910390fd5b600480547fffffffffffffffffffffffff0000000000000000000000000000000000000000166001600160a01b0392909216919091179055565b600073F4899C94a0319825b341775E4387b1C5081b9d1B63f87924d08585856040518463ffffffff1660e01b815260040180846001600160a01b03168152602001836001600160a01b03168152602001828152602001935050505060206040518083038186803b1580156114fb57600080fd5b505af415801561150f573d6000803e3d6000fd5b505050506040513d602081101561152557600080fd5b505160015460045491925061154d9130916001600160a01b0390811691168960028a87612745565b5095945050505050565b3360009081526020819052604081205460ff1615156001148061157957503033145b6115b45760405162461bcd60e51b8152600401808060200182810382526028815260200180612a106028913960400191505060405180910390fd5b738B4207A13a5a13bDb2bBf15c137820e61e3c4AAc631500cfba600260009054906101000a90046001600160a01b03168b8b8b8b8b8b8b8b6040518a63ffffffff1660e01b8152600401808a6001600160a01b031681526020018060200180602001898152602001888152602001878152602001868152602001858152602001846001600160a01b0316815260200183810383528b818151815260200191508051906020019080838360005b83811015611678578181015183820152602001611660565b50505050905090810190601f1680156116a55780820380516001836020036101000a031916815260200191505b5083810382528a5181528a516020918201918c019080838360005b838110156116d85781810151838201526020016116c0565b50505050905090810190601f1680156117055780820380516001836020036101000a031916815260200191505b509b50505050505050505050505060206040518083038186803b15801561172b57600080fd5b505af415801561173f573d6000803e3d6000fd5b505050506040513d602081101561175557600080fd5b5051604080517f02d05d3f0000000000000000000000000000000000000000000000000000000081529051919250611174916001600160a01b038416916302d05d3f916004808301926020929190829003018186803b1580156117b757600080fd5b505afa1580156117cb573d6000803e3d6000fd5b505050506040513d60208110156117e157600080fd5b5051604080517f041ae88000000000000000000000000000000000000000000000000000000000815290516001600160a01b0385169163041ae880916004808301926020929190829003018186803b15801561183c57600080fd5b505afa158015611850573d6000803e3d6000fd5b505050506040513d602081101561186657600080fd5b50518361235d565b600073F4899C94a0319825b341775E4387b1C5081b9d1B6367083d6c8a8a8a8a8a8a8a8a6040518963ffffffff1660e01b8152600401808060200180602001898152602001888152602001878152602001868152602001858152602001846001600160a01b0316815260200183810383528b818151815260200191508051906020019080838360005b8381101561190f5781810151838201526020016118f7565b50505050905090810190601f16801561193c5780820380516001836020036101000a031916815260200191505b5083810382528a5181528a516020918201918c019080838360005b8381101561196f578181015183820152602001611957565b50505050905090810190601f16801561199c5780820380516001836020036101000a031916815260200191505b509a505050505050505050505060206040518083038186803b1580156119c157600080fd5b505af41580156119d5573d6000803e3d6000fd5b505050506040513d60208110156119eb57600080fd5b5051600154600454919250611a139130916001600160a01b0390811691168e60008f87612745565b509a9950505050505050505050565b3360009081526020819052604090205460ff16151560011480611a4457503033145b611a7f5760405162461bcd60e51b8152600401808060200182810382526028815260200180612a106028913960400191505060405180910390fd5b600380547fffffffffffffffffffffffff0000000000000000000000000000000000000000166001600160a01b0392909216919091179055565b3360009081526020819052604090205460ff16151560011480611adb57503033145b611b165760405162461bcd60e51b8152600401808060200182810382526028815260200180612a106028913960400191505060405180910390fd5b600154600254600354600554604080517f192ca8e90000000000000000000000000000000000000000000000000000000081526001600160a01b039586166004820152938516602485015230604485015291841660648401528316608483015291831660a4820152905173F4899C94a0319825b341775E4387b1C5081b9d1B9163192ca8e99160c4808301926000929190829003018186803b158015610f4c57600080fd5b3360009081526020819052604090205460ff16151560011480611bdd57503033145b611c185760405162461bcd60e51b8152600401808060200182810382526028815260200180612a106028913960400191505060405180910390fd5b6001600160a01b0316600090815260208190526040902080547fffffffffffffffffffffffffffffffffffffffffffffffffffffffffffffff00166001179055565b600073F4899C94a0319825b341775E4387b1C5081b9d1B63c9ceb9518585856040518463ffffffff1660e01b815260040180846001600160a01b0316815260200180602001838152602001828103825284818151815260200191508051906020019080838360005b83811015611cda578181015183820152602001611cc2565b50505050905090810190601f168015611d075780820380516001836020036101000a031916815260200191505b5094505050505060206040518083038186803b158015611d2657600080fd5b505af4158015611d3a573d6000803e3d6000fd5b505050506040513d6020811015611d5057600080fd5b50516001805460045492935061154d9230926001600160a01b0392831692909116908a908a87612745565b6001600160a01b031660009081526020819052604090205460ff1690565b3360009081526020819052604090205460ff16151560011480611dbb57503033145b611df65760405162461bcd60e51b8152600401808060200182810382526028815260200180612a106028913960400191505060405180910390fd5b600580547fffffffffffffffffffffffff0000000000000000000000000000000000000000166001600160a01b0392909216919091179055565b3360009081526020819052604090205460ff16151560011480611e5257503033145b611e8d5760405162461bcd60e51b8152600401808060200182810382526028815260200180612a106028913960400191505060405180910390fd5b600154604080517f8851debd0000000000000000000000000000000000000000000000000000000081526001600160a01b0390921660048301526024820183905251738B4207A13a5a13bDb2bBf15c137820e61e3c4AAc91638851debd916044808301926000929190829003018186803b158015610f4c57600080fd5b604080517fd6c49d760000000000000000000000000000000000000000000000000000000081526001600160a01b038086166004830152841660248201528215156044820152905160009173F4899C94a0319825b341775E4387b1C5081b9d1B9163d6c49d7691606480820192602092909190829003018186803b158015611f9157600080fd5b505af4158015611fa5573d6000803e3d6000fd5b505050506040513d6020811015611fbb57600080fd5b505160015460045491925061154d9130916001600160a01b0390811691168960038a87612745565b3360009081526020819052604090205460ff1615156001148061200557503033145b6120405760405162461bcd60e51b8152600401808060200182810382526028815260200180612a106028913960400191505060405180910390fd5b336000908152602052565b6005546000907501000000000000000000000000000000000000000000900460ff16156120bf576040805162461bcd60e51b815260206004820152600e60248201527f414c52454144595f495353554544000000000000000000000000000000000000604482015290519081900360640190fd5b600154604080517f156e29f60000000000000000000000000000000000000000000000000000000081526001600160a01b0385811660048301526000602483018190526207a1206044840152925193169263156e29f69260648084019391929182900301818387803b15801561213457600080fd5b505af1158015612148573d6000803e3d6000fd5b5050600580547fffffffffffffffffffff00ffffffffffffffffffffffffffffffffffffffffff1675010000000000000000000000000000000000000000001790555050604080516207a120815290516001600160a01b038416917f1b9ddf8f7c45e0567932349c127951357a3f9b5a821eeeec6e44d771debbb490919081900360200190a2919050565b3360009081526020819052604081205460ff161515600114806121f557503033145b6122305760405162461bcd60e51b8152600401808060200182810382526028815260200180612a106028913960400191505060405180910390fd5b60018054604080517f156e29f60000000000000000000000000000000000000000000000000000000081526001600160a01b0387811660048301526024820194909452604481018690529051929091169163156e29f69160648082019260009290919082900301818387803b1580156122a857600080fd5b505af11580156122bc573d6000803e3d6000fd5b5050505092915050565b3360009081526020819052604090205460ff161515600114806122e857503033145b6123235760405162461bcd60e51b8152600401808060200182810382526028815260200180612a106028913960400191505060405180910390fd5b600180547fffffffffffffffffffffffff0000000000000000000000000000000000000000166001600160a01b0392909216919091179055565b600154604080517fa7fc7a070000000000000000000000000000000000000000000000000000000081526001600160a01b0384811660048301529151919092169163a7fc7a0791602480830192600092919082900301818387803b1580156123c457600080fd5b505af11580156123d8573d6000803e3d6000fd5b5050600154604080517fef72f2760000000000000000000000000000000000000000000000000000000081526001600160a01b038681166004830152915191909216935063ef72f2769250602480830192600092919082900301818387803b15801561244357600080fd5b505af1158015612457573d6000803e3d6000fd5b5050604080517fa7fc7a070000000000000000000000000000000000000000000000000000000081526001600160a01b0385166004820152905130935063a7fc7a079250602480830192600092919082900301818387803b1580156124bb57600080fd5b505af11580156124cf573d6000803e3d6000fd5b5050600154604080517fd104f8f50000000000000000000000000000000000000000000000000000000081526001600160a01b0392831660048201529051918516935063d104f8f5925060248082019260009290919082900301818387803b15801561253a57600080fd5b505af115801561254e573d6000803e3d6000fd5b5050600554604080517fd73cd47f0000000000000000000000000000000000000000000000000000000081526001600160a01b0392831660048201529051918516935063d73cd47f925060248082019260009290919082900301818387803b1580156125b957600080fd5b505af11580156125cd573d6000803e3d6000fd5b5050604080517fc42cf53500000000000000000000000000000000000000000000000000000000815230600482015290516001600160a01b038516935063c42cf5359250602480830192600092919082900301818387803b15801561263157600080fd5b505af1158015612645573d6000803e3d6000fd5b5050600354604080517f9277a1850000000000000000000000000000000000000000000000000000000081526001600160a01b03928316600482015290519185169350639277a185925060248082019260009290919082900301818387803b1580156126b057600080fd5b505af11580156126c4573d6000803e3d6000fd5b50505050806001600160a01b0316632449ef5184846040518363ffffffff1660e01b815260040180836001600160a01b03168152602001826001600160a01b0316815260200192505050600060405180830381600087803b15801561272857600080fd5b505af115801561273c573d6000803e3d6000fd5b50505050505050565b6000856001600160a01b0316634c300076868585886040518563ffffffff1660e01b815260040180856001600160a01b0316815260200180602001846001600160a01b0316815260200183600381111561279b57fe5b8152602001828103825285818151815260200191508051906020019080838360005b838110156127d55781810151838201526020016127bd565b50505050905090810190601f1680156128025780820380516001836020036101000a031916815260200191505b5095505050505050602060405180830381600087803b15801561282457600080fd5b505af1158015612838573d6000803e3d6000fd5b505050506040513d602081101561284e57600080fd5b5051604080517fd104f8f50000000000000000000000000000000000000000000000000000000081526001600160a01b038a8116600483015291519293509083169163d104f8f59160248082019260009290919082900301818387803b1580156128b757600080fd5b505af11580156128cb573d6000803e3d6000fd5b50505050806001600160a01b031663c42cf535896040518263ffffffff1660e01b815260040180826001600160a01b03168152602001915050600060405180830381600087803b15801561291e57600080fd5b505af1158015612932573d6000803e3d6000fd5b50505050866001600160a01b031663a7fc7a07826040518263ffffffff1660e01b815260040180826001600160a01b03168152602001915050600060405180830381600087803b15801561298557600080fd5b505af1158015612999573d6000803e3d6000fd5b50505050876001600160a01b031663a7fc7a07826040518263ffffffff1660e01b815260040180826001600160a01b03168152602001915050600060405180830381600087803b1580156129ec57600080fd5b505af1158015612a00573d6000803e3d6000fd5b5050505097965050505050505056fe436f6e74726f6c6c61626c653a2063616c6c6572206973206e6f74206120636f6e74726f6c6c6572a2646970667358221220bf7a3cb99b0d02cf83f041a0ce5be526d382ed767167405645c37b8814b7e9d464736f6c63430007030033",
  "deployedBytecode": "0x608060405234801561001057600080fd5b506004361061018d5760003560e01c80639277a185116100e3578063dac7f24d1161008c578063e443978511610066578063e443978514610b3f578063ea40a7a414610b65578063fb54cc4014610b915761018d565b8063dac7f24d14610a4a578063e143194514610a67578063e1c28bef14610b375761018d565b8063afc93505116100bd578063afc93505146108ae578063b429afeb146109fe578063d73cd47f14610a245761018d565b80639277a1851461083c578063a67a03ab14610862578063a7fc7a07146108885761018d565b80635bb47808116101455780636e3c7c7f1161011f5780636e3c7c7f1461042f57806377fa7d98146104fd5780638dbf88c8146106515761018d565b80635bb47808146103bd578063634b5b7d146103e35780636c7c402f146104095761018d565b8063158ef93e11610176578063158ef93e146102145780631e4ad6a2146102305780632866519d1461024d5761018d565b806310fbe8a0146101925780631459457a146101ca575b600080fd5b6101b8600480360360208110156101a857600080fd5b50356001600160a01b0316610bb7565b60408051918252519081900360200190f35b610212600480360360a08110156101e057600080fd5b506001600160a01b03813581169160208101358216916040820135811691606081013582169160809091013516610d46565b005b61021c610e51565b604080519115158252519081900360200190f35b6102126004803603602081101561024657600080fd5b5035610e72565b6103a1600480360361010081101561026457600080fd5b81019060208101813564010000000081111561027f57600080fd5b82018360208201111561029157600080fd5b803590602001918460018302840111640100000000831117156102b357600080fd5b91908080601f016020809104026020016040519081016040528093929190818152602001838380828437600092019190915250929594936020810193503591505064010000000081111561030657600080fd5b82018360208201111561031857600080fd5b8035906020019184600183028401116401000000008311171561033a57600080fd5b91908080601f0160208091040260200160405190810160405280939291908181526020018383808284376000920191909152509295505082359350505060208101359060408101359060608101359060808101359060a001356001600160a01b0316610f67565b604080516001600160a01b039092168252519081900360200190f35b610212600480360360208110156103d357600080fd5b50356001600160a01b0316611180565b6101b8600480360360208110156103f957600080fd5b50356001600160a01b0316611217565b6102126004803603602081101561041f57600080fd5b50356001600160a01b03166113f1565b6103a1600480360360a081101561044557600080fd5b6001600160a01b03823516919081019060408101602082013564010000000081111561047057600080fd5b82018360208201111561048257600080fd5b803590602001918460018302840111640100000000831117156104a457600080fd5b91908080601f016020809104026020016040519081016040528093929190818152602001838380828437600092019190915250929550506001600160a01b03833581169450602084013516926040013591506114889050565b6103a1600480360361010081101561051457600080fd5b81019060208101813564010000000081111561052f57600080fd5b82018360208201111561054157600080fd5b8035906020019184600183028401116401000000008311171561056357600080fd5b91908080601f01602080910402602001604051908101604052809392919081815260200183838082843760009201919091525092959493602081019350359150506401000000008111156105b657600080fd5b8201836020820111156105c857600080fd5b803590602001918460018302840111640100000000831117156105ea57600080fd5b91908080601f0160208091040260200160405190810160405280939291908181526020018383808284376000920191909152509295505082359350505060208101359060408101359060608101359060808101359060a001356001600160a01b0316611557565b6103a1600480360361014081101561066857600080fd5b6001600160a01b03823516919081019060408101602082013564010000000081111561069357600080fd5b8201836020820111156106a557600080fd5b803590602001918460018302840111640100000000831117156106c757600080fd5b91908080601f016020809104026020016040519081016040528093929190818152602001838380828437600092019190915250929594936020810193503591505064010000000081111561071a57600080fd5b82018360208201111561072c57600080fd5b8035906020019184600183028401116401000000008311171561074e57600080fd5b91908080601f01602080910402602001604051908101604052809392919081815260200183838082843760009201919091525092959493602081019350359150506401000000008111156107a157600080fd5b8201836020820111156107b357600080fd5b803590602001918460018302840111640100000000831117156107d557600080fd5b91908080601f0160208091040260200160405190810160405280939291908181526020018383808284376000920191909152509295505082359350505060208101359060408101359060608101359060808101359060a001356001600160a01b031661186e565b6102126004803603602081101561085257600080fd5b50356001600160a01b0316611a22565b6102126004803603602081101561087857600080fd5b50356001600160a01b0316611ab9565b6102126004803603602081101561089e57600080fd5b50356001600160a01b0316611bbb565b6103a1600480360360a08110156108c457600080fd5b6001600160a01b0382351691908101906040810160208201356401000000008111156108ef57600080fd5b82018360208201111561090157600080fd5b8035906020019184600183028401116401000000008311171561092357600080fd5b91908080601f01602080910402602001604051908101604052809392919081815260200183838082843760009201919091525092956001600160a01b0385351695909490935060408101925060200135905064010000000081111561098757600080fd5b82018360208201111561099957600080fd5b803590602001918460018302840111640100000000831117156109bb57600080fd5b91908080601f0160208091040260200160405190810160405280939291908181526020018383808284376000920191909152509295505091359250611c5a915050565b61021c60048036036020811015610a1457600080fd5b50356001600160a01b0316611d7b565b61021260048036036020811015610a3a57600080fd5b50356001600160a01b0316611d99565b61021260048036036020811015610a6057600080fd5b5035611e30565b6103a1600480360360a0811015610a7d57600080fd5b6001600160a01b038235169190810190604081016020820135640100000000811115610aa857600080fd5b820183602082011115610aba57600080fd5b80359060200191846001830284011164010000000083111715610adc57600080fd5b91908080601f016020809104026020016040519081016040528093929190818152602001838380828437600092019190915250929550506001600160a01b03833581169450602084013516926040013515159150611f0a9050565b610212611fe3565b6101b860048036036020811015610b5557600080fd5b50356001600160a01b031661204b565b6101b860048036036040811015610b7b57600080fd5b506001600160a01b0381351690602001356121d3565b61021260048036036020811015610ba757600080fd5b50356001600160a01b03166122c6565b600554600090760100000000000000000000000000000000000000000000900460ff1615610c2c576040805162461bcd60e51b815260206004820152600e60248201527f414c52454144595f495353554544000000000000000000000000000000000000604482015290519081900360640190fd5b60018054604080517f156e29f60000000000000000000000000000000000000000000000000000000081526001600160a01b0386811660048301526024820194909452620f424060448201529051929091169163156e29f69160648082019260009290919082900301818387803b158015610ca657600080fd5b505af1158015610cba573d6000803e3d6000fd5b5050600580547fffffffffffffffffff00ffffffffffffffffffffffffffffffffffffffffffff16760100000000000000000000000000000000000000000000179055505060408051620f4240815290516001600160a01b038416917fd3b35edb38a682f96e511f1d436c7b690071bb8a37a40ad9fce8a13afea591c4919081900360200190a2919050565b3360009081526020819052604090205460ff16151560011480610d6857503033145b610da35760405162461bcd60e51b8152600401808060200182810382526028815260200180612a106028913960400191505060405180910390fd5b600180547fffffffffffffffffffffffff00000000000000000000000000000000000000009081166001600160a01b039788161790915560028054821695871695909517909455600380548516938616939093179092556004805484169185169190911790556005805474010000000000000000000000000000000000000000931691909316177fffffffffffffffffffffff00ffffffffffffffffffffffffffffffffffffffff16179055565b60055474010000000000000000000000000000000000000000900460ff1690565b3360009081526020819052604090205460ff16151560011480610e9457503033145b610ecf5760405162461bcd60e51b8152600401808060200182810382526028815260200180612a106028913960400191505060405180910390fd5b600154604080517f85efa54c0000000000000000000000000000000000000000000000000000000081526001600160a01b039092166004830152602482018390525173__$415eb1c69eabc622d82690315fa0e33bfb$__916385efa54c916044808301926000929190829003018186803b158015610f4c57600080fd5b505af4158015610f60573d6000803e3d6000fd5b5050505050565b3360009081526020819052604081205460ff16151560011480610f8957503033145b610fc45760405162461bcd60e51b8152600401808060200182810382526028815260200180612a106028913960400191505060405180910390fd5b73__$415eb1c69eabc622d82690315fa0e33bfb$__631500cfba600260009054906101000a90046001600160a01b03168b8b8b8b8b8b8b8b6040518a63ffffffff1660e01b8152600401808a6001600160a01b031681526020018060200180602001898152602001888152602001878152602001868152602001858152602001846001600160a01b0316815260200183810383528b818151815260200191508051906020019080838360005b83811015611088578181015183820152602001611070565b50505050905090810190601f1680156110b55780820380516001836020036101000a031916815260200191505b5083810382528a5181528a516020918201918c019080838360005b838110156110e85781810151838201526020016110d0565b50505050905090810190601f1680156111155780820380516001836020036101000a031916815260200191505b509b50505050505050505050505060206040518083038186803b15801561113b57600080fd5b505af415801561114f573d6000803e3d6000fd5b505050506040513d602081101561116557600080fd5b5051905061117433808361235d565b98975050505050505050565b3360009081526020819052604090205460ff161515600114806111a257503033145b6111dd5760405162461bcd60e51b8152600401808060200182810382526028815260200180612a106028913960400191505060405180910390fd5b600280547fffffffffffffffffffffffff0000000000000000000000000000000000000000166001600160a01b0392909216919091179055565b3360009081526020819052604081205460ff1615156001148061123957503033145b6112745760405162461bcd60e51b8152600401808060200182810382526028815260200180612a106028913960400191505060405180910390fd5b600154604080517fed7aae2b000000000000000000000000000000000000000000000000000000008152600060048201819052915191926001600160a01b03169163ed7aae2b91602480820192602092909190829003018186803b1580156112db57600080fd5b505afa1580156112ef573d6000803e3d6000fd5b505050506040513d602081101561130557600080fd5b50519050620f4240811061131d5760009150506113ec565b60018054604080517f156e29f60000000000000000000000000000000000000000000000000000000081526001600160a01b03878116600483015260006024830181905260448301959095529151919092169263156e29f6926064808201939182900301818387803b15801561139257600080fd5b505af11580156113a6573d6000803e3d6000fd5b5050604080516001815290516001600160a01b03871693507f1b9ddf8f7c45e0567932349c127951357a3f9b5a821eeeec6e44d771debbb49092509081900360200190a2505b919050565b3360009081526020819052604090205460ff1615156001148061141357503033145b61144e5760405162461bcd60e51b8152600401808060200182810382526028815260200180612a106028913960400191505060405180910390fd5b600480547fffffffffffffffffffffffff0000000000000000000000000000000000000000166001600160a01b0392909216919091179055565b600073__$c2cf3eebb563d155e336d59c40be15cffe$__63f87924d08585856040518463ffffffff1660e01b815260040180846001600160a01b03168152602001836001600160a01b03168152602001828152602001935050505060206040518083038186803b1580156114fb57600080fd5b505af415801561150f573d6000803e3d6000fd5b505050506040513d602081101561152557600080fd5b505160015460045491925061154d9130916001600160a01b0390811691168960028a87612745565b5095945050505050565b3360009081526020819052604081205460ff1615156001148061157957503033145b6115b45760405162461bcd60e51b8152600401808060200182810382526028815260200180612a106028913960400191505060405180910390fd5b73__$415eb1c69eabc622d82690315fa0e33bfb$__631500cfba600260009054906101000a90046001600160a01b03168b8b8b8b8b8b8b8b6040518a63ffffffff1660e01b8152600401808a6001600160a01b031681526020018060200180602001898152602001888152602001878152602001868152602001858152602001846001600160a01b0316815260200183810383528b818151815260200191508051906020019080838360005b83811015611678578181015183820152602001611660565b50505050905090810190601f1680156116a55780820380516001836020036101000a031916815260200191505b5083810382528a5181528a516020918201918c019080838360005b838110156116d85781810151838201526020016116c0565b50505050905090810190601f1680156117055780820380516001836020036101000a031916815260200191505b509b50505050505050505050505060206040518083038186803b15801561172b57600080fd5b505af415801561173f573d6000803e3d6000fd5b505050506040513d602081101561175557600080fd5b5051604080517f02d05d3f0000000000000000000000000000000000000000000000000000000081529051919250611174916001600160a01b038416916302d05d3f916004808301926020929190829003018186803b1580156117b757600080fd5b505afa1580156117cb573d6000803e3d6000fd5b505050506040513d60208110156117e157600080fd5b5051604080517f041ae88000000000000000000000000000000000000000000000000000000000815290516001600160a01b0385169163041ae880916004808301926020929190829003018186803b15801561183c57600080fd5b505afa158015611850573d6000803e3d6000fd5b505050506040513d602081101561186657600080fd5b50518361235d565b600073__$c2cf3eebb563d155e336d59c40be15cffe$__6367083d6c8a8a8a8a8a8a8a8a6040518963ffffffff1660e01b8152600401808060200180602001898152602001888152602001878152602001868152602001858152602001846001600160a01b0316815260200183810383528b818151815260200191508051906020019080838360005b8381101561190f5781810151838201526020016118f7565b50505050905090810190601f16801561193c5780820380516001836020036101000a031916815260200191505b5083810382528a5181528a516020918201918c019080838360005b8381101561196f578181015183820152602001611957565b50505050905090810190601f16801561199c5780820380516001836020036101000a031916815260200191505b509a505050505050505050505060206040518083038186803b1580156119c157600080fd5b505af41580156119d5573d6000803e3d6000fd5b505050506040513d60208110156119eb57600080fd5b5051600154600454919250611a139130916001600160a01b0390811691168e60008f87612745565b509a9950505050505050505050565b3360009081526020819052604090205460ff16151560011480611a4457503033145b611a7f5760405162461bcd60e51b8152600401808060200182810382526028815260200180612a106028913960400191505060405180910390fd5b600380547fffffffffffffffffffffffff0000000000000000000000000000000000000000166001600160a01b0392909216919091179055565b3360009081526020819052604090205460ff16151560011480611adb57503033145b611b165760405162461bcd60e51b8152600401808060200182810382526028815260200180612a106028913960400191505060405180910390fd5b600154600254600354600554604080517f192ca8e90000000000000000000000000000000000000000000000000000000081526001600160a01b039586166004820152938516602485015230604485015291841660648401528316608483015291831660a4820152905173__$c2cf3eebb563d155e336d59c40be15cffe$__9163192ca8e99160c4808301926000929190829003018186803b158015610f4c57600080fd5b3360009081526020819052604090205460ff16151560011480611bdd57503033145b611c185760405162461bcd60e51b8152600401808060200182810382526028815260200180612a106028913960400191505060405180910390fd5b6001600160a01b0316600090815260208190526040902080547fffffffffffffffffffffffffffffffffffffffffffffffffffffffffffffff00166001179055565b600073__$c2cf3eebb563d155e336d59c40be15cffe$__63c9ceb9518585856040518463ffffffff1660e01b815260040180846001600160a01b0316815260200180602001838152602001828103825284818151815260200191508051906020019080838360005b83811015611cda578181015183820152602001611cc2565b50505050905090810190601f168015611d075780820380516001836020036101000a031916815260200191505b5094505050505060206040518083038186803b158015611d2657600080fd5b505af4158015611d3a573d6000803e3d6000fd5b505050506040513d6020811015611d5057600080fd5b50516001805460045492935061154d9230926001600160a01b0392831692909116908a908a87612745565b6001600160a01b031660009081526020819052604090205460ff1690565b3360009081526020819052604090205460ff16151560011480611dbb57503033145b611df65760405162461bcd60e51b8152600401808060200182810382526028815260200180612a106028913960400191505060405180910390fd5b600580547fffffffffffffffffffffffff0000000000000000000000000000000000000000166001600160a01b0392909216919091179055565b3360009081526020819052604090205460ff16151560011480611e5257503033145b611e8d5760405162461bcd60e51b8152600401808060200182810382526028815260200180612a106028913960400191505060405180910390fd5b600154604080517f8851debd0000000000000000000000000000000000000000000000000000000081526001600160a01b039092166004830152602482018390525173__$415eb1c69eabc622d82690315fa0e33bfb$__91638851debd916044808301926000929190829003018186803b158015610f4c57600080fd5b604080517fd6c49d760000000000000000000000000000000000000000000000000000000081526001600160a01b038086166004830152841660248201528215156044820152905160009173__$c2cf3eebb563d155e336d59c40be15cffe$__9163d6c49d7691606480820192602092909190829003018186803b158015611f9157600080fd5b505af4158015611fa5573d6000803e3d6000fd5b505050506040513d6020811015611fbb57600080fd5b505160015460045491925061154d9130916001600160a01b0390811691168960038a87612745565b3360009081526020819052604090205460ff1615156001148061200557503033145b6120405760405162461bcd60e51b8152600401808060200182810382526028815260200180612a106028913960400191505060405180910390fd5b336000908152602052565b6005546000907501000000000000000000000000000000000000000000900460ff16156120bf576040805162461bcd60e51b815260206004820152600e60248201527f414c52454144595f495353554544000000000000000000000000000000000000604482015290519081900360640190fd5b600154604080517f156e29f60000000000000000000000000000000000000000000000000000000081526001600160a01b0385811660048301526000602483018190526207a1206044840152925193169263156e29f69260648084019391929182900301818387803b15801561213457600080fd5b505af1158015612148573d6000803e3d6000fd5b5050600580547fffffffffffffffffffff00ffffffffffffffffffffffffffffffffffffffffff1675010000000000000000000000000000000000000000001790555050604080516207a120815290516001600160a01b038416917f1b9ddf8f7c45e0567932349c127951357a3f9b5a821eeeec6e44d771debbb490919081900360200190a2919050565b3360009081526020819052604081205460ff161515600114806121f557503033145b6122305760405162461bcd60e51b8152600401808060200182810382526028815260200180612a106028913960400191505060405180910390fd5b60018054604080517f156e29f60000000000000000000000000000000000000000000000000000000081526001600160a01b0387811660048301526024820194909452604481018690529051929091169163156e29f69160648082019260009290919082900301818387803b1580156122a857600080fd5b505af11580156122bc573d6000803e3d6000fd5b5050505092915050565b3360009081526020819052604090205460ff161515600114806122e857503033145b6123235760405162461bcd60e51b8152600401808060200182810382526028815260200180612a106028913960400191505060405180910390fd5b600180547fffffffffffffffffffffffff0000000000000000000000000000000000000000166001600160a01b0392909216919091179055565b600154604080517fa7fc7a070000000000000000000000000000000000000000000000000000000081526001600160a01b0384811660048301529151919092169163a7fc7a0791602480830192600092919082900301818387803b1580156123c457600080fd5b505af11580156123d8573d6000803e3d6000fd5b5050600154604080517fef72f2760000000000000000000000000000000000000000000000000000000081526001600160a01b038681166004830152915191909216935063ef72f2769250602480830192600092919082900301818387803b15801561244357600080fd5b505af1158015612457573d6000803e3d6000fd5b5050604080517fa7fc7a070000000000000000000000000000000000000000000000000000000081526001600160a01b0385166004820152905130935063a7fc7a079250602480830192600092919082900301818387803b1580156124bb57600080fd5b505af11580156124cf573d6000803e3d6000fd5b5050600154604080517fd104f8f50000000000000000000000000000000000000000000000000000000081526001600160a01b0392831660048201529051918516935063d104f8f5925060248082019260009290919082900301818387803b15801561253a57600080fd5b505af115801561254e573d6000803e3d6000fd5b5050600554604080517fd73cd47f0000000000000000000000000000000000000000000000000000000081526001600160a01b0392831660048201529051918516935063d73cd47f925060248082019260009290919082900301818387803b1580156125b957600080fd5b505af11580156125cd573d6000803e3d6000fd5b5050604080517fc42cf53500000000000000000000000000000000000000000000000000000000815230600482015290516001600160a01b038516935063c42cf5359250602480830192600092919082900301818387803b15801561263157600080fd5b505af1158015612645573d6000803e3d6000fd5b5050600354604080517f9277a1850000000000000000000000000000000000000000000000000000000081526001600160a01b03928316600482015290519185169350639277a185925060248082019260009290919082900301818387803b1580156126b057600080fd5b505af11580156126c4573d6000803e3d6000fd5b50505050806001600160a01b0316632449ef5184846040518363ffffffff1660e01b815260040180836001600160a01b03168152602001826001600160a01b0316815260200192505050600060405180830381600087803b15801561272857600080fd5b505af115801561273c573d6000803e3d6000fd5b50505050505050565b6000856001600160a01b0316634c300076868585886040518563ffffffff1660e01b815260040180856001600160a01b0316815260200180602001846001600160a01b0316815260200183600381111561279b57fe5b8152602001828103825285818151815260200191508051906020019080838360005b838110156127d55781810151838201526020016127bd565b50505050905090810190601f1680156128025780820380516001836020036101000a031916815260200191505b5095505050505050602060405180830381600087803b15801561282457600080fd5b505af1158015612838573d6000803e3d6000fd5b505050506040513d602081101561284e57600080fd5b5051604080517fd104f8f50000000000000000000000000000000000000000000000000000000081526001600160a01b038a8116600483015291519293509083169163d104f8f59160248082019260009290919082900301818387803b1580156128b757600080fd5b505af11580156128cb573d6000803e3d6000fd5b50505050806001600160a01b031663c42cf535896040518263ffffffff1660e01b815260040180826001600160a01b03168152602001915050600060405180830381600087803b15801561291e57600080fd5b505af1158015612932573d6000803e3d6000fd5b50505050866001600160a01b031663a7fc7a07826040518263ffffffff1660e01b815260040180826001600160a01b03168152602001915050600060405180830381600087803b15801561298557600080fd5b505af1158015612999573d6000803e3d6000fd5b50505050876001600160a01b031663a7fc7a07826040518263ffffffff1660e01b815260040180826001600160a01b03168152602001915050600060405180830381600087803b1580156129ec57600080fd5b505af1158015612a00573d6000803e3d6000fd5b5050505097965050505050505056fe436f6e74726f6c6c61626c653a2063616c6c6572206973206e6f74206120636f6e74726f6c6c6572a2646970667358221220bf7a3cb99b0d02cf83f041a0ce5be526d382ed767167405645c37b8814b7e9d464736f6c63430007030033",
  "libraries": {
    "GovernanceLib": "0x8B4207A13a5a13bDb2bBf15c137820e61e3c4AAc",
    "Strings": "0x98cCd9cb27398a6595f15cbC4b63AC525b942aad",
    "SafeMath": "0xD34a551B4a262230a373D376dDf8aADb2B0D49FD",
    "AddressSet": "0x54812B41409912bD065E9d3920ce196Ff9BFc995",
    "UInt256Set": "0x893E99de295978142943783D817940854B7a6533",
    "Create2": "0x358266069e53B88520472B2898791A77d92E4054",
    "ProposalsLib": "0xF4899C94a0319825b341775E4387b1C5081b9d1B",
    "ComplexPoolLib": "0xd8bf0D941FC41e44f383d78183807669c230BDed",
    "WrappedTokenLib": "0xbAfcEF1739ab31E775687D657178640124A20E8e",
    "Unigem20Library": "0xdCAA8b65EAe68Df6dD4688d1a542bfb84Ca1891e"
  },
  "devdoc": {
    "kind": "dev",
    "methods": {
      "addController(address)": {
        "details": "Add an address allowed to control this contract"
      },
      "constructor": {
        "details": "contract controller"
      },
      "createChangeFeeProposal(address,string,address,address,uint256)": {
        "details": "create a proposal to change fees for a token / pool"
      },
      "createFundProjectProposal(address,string,address,string,uint256)": {
        "details": "create a proposal to craete a project funding proposal"
      },
      "createNewPoolProposal(address,string,string,string,uint256,uint256,uint256,uint256,uint256,address)": {
        "details": "create a proposal to create a new pool"
      },
      "createPool(string,string,uint256,uint256,uint256,uint256,uint256,address)": {
        "details": "create a new pool - public, only callable by a controller of this contract"
      },
      "createProposalVoteTokens(uint256)": {
        "details": "create proposal vote tokens"
      },
      "createSystemPool(string,string,uint256,uint256,uint256,uint256,uint256,address)": {
        "details": "create a new pool - public, only callable by a controller of this contract"
      },
      "createUpdateAllowlistProposal(address,string,address,address,bool)": {
        "details": "create a proposal to update the allowlist of a token/pool"
      },
      "destroyProposalVoteTokens(uint256)": {
        "details": "destroy proposal vote tokens"
      },
      "executeProposal(address)": {
        "details": "execute proposal"
      },
      "initialize(address,address,address,address,address)": {
        "details": "init this smart contract"
      },
      "initialized()": {
        "details": "is the conntract inited"
      },
      "isController(address)": {
        "details": "Check if this address is a controller"
      },
      "issueFuelToken(address,uint256)": {
        "details": "shhh"
      },
      "issueInitialFuelTokens(address)": {
        "details": "issue initial fuel tokens"
      },
      "issueInitialGovernanceTokens(address)": {
        "details": "issue initial governance tokens"
      },
      "maybeIssueGovernanceToken(address)": {
        "details": "maybe issue a governance token to receiver"
      },
      "relinquishControl()": {
        "details": "Check if this address is a controller"
      },
      "setFactory(address)": {
        "details": "set category category"
      },
      "setFeeTracker(address)": {
        "details": "set category category"
      },
      "setMultitoken(address)": {
        "details": "set category category"
      },
      "setProposalFactory(address)": {
        "details": "set category category"
      },
      "setSwapHelper(address)": {
        "details": "set category category"
      }
    },
    "version": 1
  },
  "userdoc": {
    "kind": "user",
    "methods": {},
    "version": 1
  },
  "storageLayout": {
    "storage": [
      {
        "astId": 10169,
        "contract": "src/governance/NFTGemGovernor.sol:NFTGemGovernor",
        "label": "_controllers",
        "offset": 0,
        "slot": "0",
        "type": "t_mapping(t_address,t_bool)"
      },
      {
        "astId": 17644,
        "contract": "src/governance/NFTGemGovernor.sol:NFTGemGovernor",
        "label": "multitoken",
        "offset": 0,
        "slot": "1",
        "type": "t_address"
      },
      {
        "astId": 17646,
        "contract": "src/governance/NFTGemGovernor.sol:NFTGemGovernor",
        "label": "factory",
        "offset": 0,
        "slot": "2",
        "type": "t_address"
      },
      {
        "astId": 17648,
        "contract": "src/governance/NFTGemGovernor.sol:NFTGemGovernor",
        "label": "feeTracker",
        "offset": 0,
        "slot": "3",
        "type": "t_address"
      },
      {
        "astId": 17650,
        "contract": "src/governance/NFTGemGovernor.sol:NFTGemGovernor",
        "label": "proposalFactory",
        "offset": 0,
        "slot": "4",
        "type": "t_address"
      },
      {
        "astId": 17652,
        "contract": "src/governance/NFTGemGovernor.sol:NFTGemGovernor",
        "label": "swapHelper",
        "offset": 0,
        "slot": "5",
        "type": "t_address"
      },
      {
        "astId": 17654,
        "contract": "src/governance/NFTGemGovernor.sol:NFTGemGovernor",
        "label": "_initialized",
        "offset": 20,
        "slot": "5",
        "type": "t_bool"
      },
      {
        "astId": 17671,
        "contract": "src/governance/NFTGemGovernor.sol:NFTGemGovernor",
        "label": "governanceIssued",
        "offset": 21,
        "slot": "5",
        "type": "t_bool"
      },
      {
        "astId": 17673,
        "contract": "src/governance/NFTGemGovernor.sol:NFTGemGovernor",
        "label": "fuelIssued",
        "offset": 22,
        "slot": "5",
        "type": "t_bool"
      }
    ],
    "types": {
      "t_address": {
        "encoding": "inplace",
        "label": "address",
        "numberOfBytes": "20"
      },
      "t_bool": {
        "encoding": "inplace",
        "label": "bool",
        "numberOfBytes": "1"
      },
      "t_mapping(t_address,t_bool)": {
        "encoding": "mapping",
        "key": "t_address",
        "label": "mapping(address => bool)",
        "numberOfBytes": "32",
        "value": "t_bool"
      }
    }
  }
}