{
  "address": "0x49eE2Db3bca556F401C0cBbbf6100fF863ba2526",
  "abi": [
    {
      "inputs": [],
      "stateMutability": "nonpayable",
      "type": "constructor"
    },
    {
      "anonymous": false,
      "inputs": [
        {
          "indexed": true,
          "internalType": "address",
          "name": "contractAddress",
          "type": "address"
        },
        {
          "indexed": true,
          "internalType": "address",
          "name": "controllerAddress",
          "type": "address"
        }
      ],
      "name": "ControllerAdded",
      "type": "event"
    },
    {
      "anonymous": false,
      "inputs": [
        {
          "indexed": true,
          "internalType": "address",
          "name": "contractAddress",
          "type": "address"
        },
        {
          "indexed": true,
          "internalType": "address",
          "name": "controllerAddress",
          "type": "address"
        }
      ],
      "name": "ControllerRemoved",
      "type": "event"
    },
    {
      "anonymous": false,
      "inputs": [
        {
          "indexed": false,
          "internalType": "string",
          "name": "gemSymbol",
          "type": "string"
        },
        {
          "indexed": false,
          "internalType": "string",
          "name": "gemName",
          "type": "string"
        }
      ],
      "name": "CustomNFTGemPoolCreated",
      "type": "event"
    },
    {
      "anonymous": false,
      "inputs": [
        {
          "indexed": false,
          "internalType": "string",
          "name": "gemSymbol",
          "type": "string"
        },
        {
          "indexed": false,
          "internalType": "string",
          "name": "gemName",
          "type": "string"
        },
        {
          "indexed": false,
          "internalType": "uint256",
          "name": "ethPrice",
          "type": "uint256"
        },
        {
          "indexed": false,
          "internalType": "uint256",
          "name": "mintTime",
          "type": "uint256"
        },
        {
          "indexed": false,
          "internalType": "uint256",
          "name": "maxTime",
          "type": "uint256"
        },
        {
          "indexed": false,
          "internalType": "uint256",
          "name": "diffstep",
          "type": "uint256"
        },
        {
          "indexed": false,
          "internalType": "uint256",
          "name": "maxMint",
          "type": "uint256"
        },
        {
          "indexed": false,
          "internalType": "address",
          "name": "allowedToken",
          "type": "address"
        }
      ],
      "name": "NFTGemPoolCreated",
      "type": "event"
    },
    {
      "inputs": [
        {
          "internalType": "address",
          "name": "_controller",
          "type": "address"
        }
      ],
      "name": "addController",
      "outputs": [],
      "stateMutability": "nonpayable",
      "type": "function"
    },
    {
      "inputs": [
        {
          "internalType": "uint256",
          "name": "idx",
          "type": "uint256"
        }
      ],
      "name": "allNFTGemPools",
      "outputs": [
        {
          "internalType": "address",
          "name": "gemPool",
          "type": "address"
        }
      ],
      "stateMutability": "view",
      "type": "function"
    },
    {
      "inputs": [],
      "name": "allNFTGemPoolsLength",
      "outputs": [
        {
          "internalType": "uint256",
          "name": "",
          "type": "uint256"
        }
      ],
      "stateMutability": "view",
      "type": "function"
    },
    {
      "inputs": [
        {
          "internalType": "bytes",
          "name": "bytecode",
          "type": "bytes"
        },
        {
          "internalType": "string",
          "name": "gemSymbol",
          "type": "string"
        },
        {
          "internalType": "string",
          "name": "gemName",
          "type": "string"
        }
      ],
      "name": "createCustomNFTGemPool",
      "outputs": [
        {
          "internalType": "address payable",
          "name": "gemPool",
          "type": "address"
        }
      ],
      "stateMutability": "nonpayable",
      "type": "function"
    },
    {
      "inputs": [
        {
          "internalType": "string",
          "name": "gemSymbol",
          "type": "string"
        },
        {
          "internalType": "string",
          "name": "gemName",
          "type": "string"
        },
        {
          "internalType": "uint256",
          "name": "ethPrice",
          "type": "uint256"
        },
        {
          "internalType": "uint256",
          "name": "minTime",
          "type": "uint256"
        },
        {
          "internalType": "uint256",
          "name": "maxTime",
          "type": "uint256"
        },
        {
          "internalType": "uint256",
          "name": "diffstep",
          "type": "uint256"
        },
        {
          "internalType": "uint256",
          "name": "maxMint",
          "type": "uint256"
        },
        {
          "internalType": "address",
          "name": "allowedToken",
          "type": "address"
        }
      ],
      "name": "createNFTGemPool",
      "outputs": [
        {
          "internalType": "address payable",
          "name": "gemPool",
          "type": "address"
        }
      ],
      "stateMutability": "nonpayable",
      "type": "function"
    },
    {
      "inputs": [
        {
          "internalType": "uint256",
          "name": "_symbolHash",
          "type": "uint256"
        }
      ],
      "name": "getNFTGemPool",
      "outputs": [
        {
          "internalType": "address",
          "name": "gemPool",
          "type": "address"
        }
      ],
      "stateMutability": "view",
      "type": "function"
    },
    {
      "inputs": [
        {
          "internalType": "address",
          "name": "_address",
          "type": "address"
        }
      ],
      "name": "isController",
      "outputs": [
        {
          "internalType": "bool",
          "name": "allowed",
          "type": "bool"
        }
      ],
      "stateMutability": "view",
      "type": "function"
    },
    {
      "inputs": [],
      "name": "relinquishControl",
      "outputs": [],
      "stateMutability": "view",
      "type": "function"
    }
  ],
  "transactionHash": "0x80d5cb577a8eb815c1aef19c2bd21c58f1d9d045ff92df5126eca128f58810ef",
  "args": [],
  "solcInputHash": "df7fa6ede225d4ffc5f822e50380fb11",
  "bytecode": "0x608060405234801561001057600080fd5b5061001a3361001f565b610043565b6001600160a01b03166000908152602081905260409020805460ff19166001179055565b615216806100526000396000f3fe608060405234801561001057600080fd5b50600436106100885760003560e01c8063a7fc7a071161005b578063a7fc7a071461026b578063b429afeb146102a0578063e1c28bef146102e7578063e4aa923d146102ef57610088565b80631ff77f161461008d5780634ff8f07e146100d35780635e6fe72a1461023457806367275aed1461024e575b600080fd5b6100aa600480360360208110156100a357600080fd5b50356104a3565b6040805173ffffffffffffffffffffffffffffffffffffffff9092168252519081900360200190f35b6100aa60048036036101008110156100ea57600080fd5b81019060208101813564010000000081111561010557600080fd5b82018360208201111561011757600080fd5b8035906020019184600183028401116401000000008311171561013957600080fd5b91908080601f016020809104026020016040519081016040528093929190818152602001838380828437600092019190915250929594936020810193503591505064010000000081111561018c57600080fd5b82018360208201111561019e57600080fd5b803590602001918460018302840111640100000000831117156101c057600080fd5b91908080601f0160208091040260200160405190810160405280939291908181526020018383808284376000920191909152509295505082359350505060208101359060408101359060608101359060808101359060a0013573ffffffffffffffffffffffffffffffffffffffff166104da565b61023c610abb565b60408051918252519081900360200190f35b6100aa6004803603602081101561026457600080fd5b5035610ac1565b61029e6004803603602081101561028157600080fd5b503573ffffffffffffffffffffffffffffffffffffffff16610ae9565b005b6102d3600480360360208110156102b657600080fd5b503573ffffffffffffffffffffffffffffffffffffffff16610b95565b604080519115158252519081900360200190f35b61029e610bc0565b6100aa6004803603606081101561030557600080fd5b81019060208101813564010000000081111561032057600080fd5b82018360208201111561033257600080fd5b8035906020019184600183028401116401000000008311171561035457600080fd5b91908080601f01602080910402602001604051908101604052809392919081815260200183838082843760009201919091525092959493602081019350359150506401000000008111156103a757600080fd5b8201836020820111156103b957600080fd5b803590602001918460018302840111640100000000831117156103db57600080fd5b91908080601f016020809104026020016040519081016040528093929190818152602001838380828437600092019190915250929594936020810193503591505064010000000081111561042e57600080fd5b82018360208201111561044057600080fd5b8035906020019184600183028401116401000000008311171561046257600080fd5b91908080601f016020809104026020016040519081016040528093929190818152602001838380828437600092019190915250929550610c28945050505050565b6000600382815481106104b257fe5b60009182526020909120015473ffffffffffffffffffffffffffffffffffffffff1692915050565b3360009081526020819052604081205460ff161515600114806104fc57503033145b6105375760405162461bcd60e51b81526004018080602001828103825260288152602001806151b96028913960400191505060405180910390fd5b6000896040516020018082805190602001908083835b6020831061056c5780518252601f19909201916020918201910161054d565b51815160209384036101000a7fffffffffffffffffffffffffffffffffffffffffffffffffffffffffffffffff01801990921691161790526040805192909401828103601f19018352845281519181019190912060008181526002909252929020549194505073ffffffffffffffffffffffffffffffffffffffff1615915061063e9050576040805162461bcd60e51b815260206004820152600e60248201527f47454d504f4f4c5f455849535453000000000000000000000000000000000000604482015290519081900360640190fd5b87610690576040805162461bcd60e51b815260206004820152600d60248201527f494e56414c49445f505249434500000000000000000000000000000000000000604482015290519081900360640190fd5b866106e2576040805162461bcd60e51b815260206004820152601060248201527f494e56414c49445f4d494e5f54494d4500000000000000000000000000000000604482015290519081900360640190fd5b84610734576040805162461bcd60e51b815260206004820152601760248201527f494e56414c49445f444946464943554c54595f53544550000000000000000000604482015290519081900360640190fd5b60606040518060200161074690611055565b601f1982820381018352601f90910116604052905061076760008383610f2f565b92508273ffffffffffffffffffffffffffffffffffffffff1663d9a3f9bb8c8c8c8c8c8c8c8c6040518963ffffffff1660e01b81526004018080602001806020018981526020018881526020018781526020018681526020018581526020018473ffffffffffffffffffffffffffffffffffffffff16815260200183810383528b818151815260200191508051906020019080838360005b838110156108175781810151838201526020016107ff565b50505050905090810190601f1680156108445780820380516001836020036101000a031916815260200191505b5083810382528a5181528a516020918201918c019080838360005b8381101561087757818101518382015260200161085f565b50505050905090810190601f1680156108a45780820380516001836020036101000a031916815260200191505b509a5050505050505050505050600060405180830381600087803b1580156108cb57600080fd5b505af11580156108df573d6000803e3d6000fd5b505050600083815260026020908152604080832080547fffffffffffffffffffffffff000000000000000000000000000000000000000090811673ffffffffffffffffffffffffffffffffffffffff8a8116918217909355600380546001810182559087527fc2575a0e9e593c00f959f8c92f12db2869c3395a3b0502d05e2516446f71f85b01805490921617905581519182018e9052606082018d9052608082018c905260a082018b905260c082018a9052881660e08201526101008082528f51908201528e517fd5dd03a462020e8d5d777d0957fbf19067fc095f932d026bb0f23e384522f2a694508f938f938f938f938f938f938f938f939092839283810192610120850192918e01918190849084905b83811015610a0b5781810151838201526020016109f3565b50505050905090810190601f168015610a385780820380516001836020036101000a031916815260200191505b5083810382528a5181528a516020918201918c019080838360005b83811015610a6b578181015183820152602001610a53565b50505050905090810190601f168015610a985780820380516001836020036101000a031916815260200191505b509a505050505050505050505060405180910390a1505098975050505050505050565b60035490565b60009081526002602052604090205473ffffffffffffffffffffffffffffffffffffffff1690565b3360009081526020819052604090205460ff16151560011480610b0b57503033145b610b465760405162461bcd60e51b81526004018080602001828103825260288152602001806151b96028913960400191505060405180910390fd5b73ffffffffffffffffffffffffffffffffffffffff16600090815260208190526040902080547fffffffffffffffffffffffffffffffffffffffffffffffffffffffffffffff00166001179055565b73ffffffffffffffffffffffffffffffffffffffff1660009081526020819052604090205460ff1690565b3360009081526020819052604090205460ff16151560011480610be257503033145b610c1d5760405162461bcd60e51b81526004018080602001828103825260288152602001806151b96028913960400191505060405180910390fd5b336000908152602052565b3360009081526020819052604081205460ff16151560011480610c4a57503033145b610c855760405162461bcd60e51b81526004018080602001828103825260288152602001806151b96028913960400191505060405180910390fd5b6000836040516020018082805190602001908083835b60208310610cba5780518252601f199092019160209182019101610c9b565b51815160209384036101000a7fffffffffffffffffffffffffffffffffffffffffffffffffffffffffffffffff01801990921691161790526040805192909401828103601f19018352845281519181019190912060008181526002909252929020549194505073ffffffffffffffffffffffffffffffffffffffff16159150610d8c9050576040805162461bcd60e51b815260206004820152600e60248201527f47454d504f4f4c5f455849535453000000000000000000000000000000000000604482015290519081900360640190fd5b610d9860008287610f2f565b6000828152600260209081526040808320805473ffffffffffffffffffffffffffffffffffffffff86167fffffffffffffffffffffffff00000000000000000000000000000000000000009182168117909255600380546001810182559086527fc2575a0e9e593c00f959f8c92f12db2869c3395a3b0502d05e2516446f71f85b0180549091169091179055805181815288519181019190915287519395507f89087d44119cf78c7cc1dfb971ca45b6aa9fde12ab6feedacc1fb42c3487862c93889388938392838201926060850192880191908190849084905b83811015610e8b578181015183820152602001610e73565b50505050905090810190601f168015610eb85780820380516001836020036101000a031916815260200191505b50838103825284518152845160209182019186019080838360005b83811015610eeb578181015183820152602001610ed3565b50505050905090810190601f168015610f185780820380516001836020036101000a031916815260200191505b5094505050505060405180910390a1509392505050565b60008084471015610f87576040805162461bcd60e51b815260206004820152601d60248201527f437265617465323a20696e73756666696369656e742062616c616e6365000000604482015290519081900360640190fd5b8251610fda576040805162461bcd60e51b815260206004820181905260248201527f437265617465323a2062797465636f6465206c656e677468206973207a65726f604482015290519081900360640190fd5b8383516020850187f5905073ffffffffffffffffffffffffffffffffffffffff811661104d576040805162461bcd60e51b815260206004820152601960248201527f437265617465323a204661696c6564206f6e206465706c6f7900000000000000604482015290519081900360640190fd5b949350505050565b614156806110638339019056fe608060405234801561001057600080fd5b50614136806100206000396000f3fe6080604052600436106102bf5760003560e01c806395d89b411161016e578063cf721b15116100cb578063e6c3b1f61161007f578063f4fde0d311610064578063f4fde0d314610a9d578063f9eaee0d14610ab2578063ff186b2e14610af957610374565b8063e6c3b1f614610a24578063edcf2d5714610a6457610374565b8063d31674db116100b0578063d31674db14610866578063d73cd47f14610890578063d9a3f9bb146108c357610374565b8063cf721b1514610809578063d104f8f51461083357610374565b8063c08fa1a411610122578063c5e01a5c11610107578063c5e01a5c146107df578063c80c061314610809578063cf5380b41461081e57610374565b8063c08fa1a414610743578063c42cf535146107ac57610374565b8063a901c47411610153578063a901c47414610758578063b788e4e914610782578063bf86999b1461079757610374565b806395d89b411461072e578063a0021cf11461074357610374565b80635e5f2e261161021c5780637f2e8f0c116101d057806390469a9d116101b557806390469a9d1461069e5780639277a185146106d1578063959355601461070457610374565b80637f2e8f0c1461065f5780638a09871b1461068957610374565b80636b6201da116102015780636b6201da146105ee5780637c5d643e1461060b5780637dcb0e5f1461063557610374565b80635e5f2e26146105695780636100c343146105af57610374565b80632449ef51116102735780634178617f116102585780634178617f1461050c5780634565e5ef1461053f578063504cdacf1461055457610374565b80632449ef51146104ae578063392732b1146104e957610374565b80631aa43078116102a45780631aa430781461044857806322e67e711461046f57806323b221a01461048457610374565b806306fdde03146103795780631501bf031461040357610374565b366103745760045460055460035434926000926102e5926102df91610b0e565b90610b77565b90508082101561033c576040805162461bcd60e51b815260206004820152601060248201527f494e53554646494349454e545f45544800000000000000000000000000000000604482015290519081900360640190fd5b6004546003548311610366576103636004546102df85600354610b0e90919063ffffffff16565b90505b61036f81610bd7565b505050005b600080fd5b34801561038557600080fd5b5061038e611085565b6040805160208082528351818301528351919283929083019185019080838360005b838110156103c85781810151838201526020016103b0565b50505050905090810190601f1680156103f55780820380516001836020036101000a031916815260200191505b509250505060405180910390f35b34801561040f57600080fd5b506104466004803603606081101561042657600080fd5b506001600160a01b03813581169160208101359091169060400135611136565b005b34801561045457600080fd5b5061045d61136d565b60408051918252519081900360200190f35b34801561047b57600080fd5b5061045d611373565b34801561049057600080fd5b5061045d600480360360208110156104a757600080fd5b5035611379565b3480156104ba57600080fd5b50610446600480360360408110156104d157600080fd5b506001600160a01b038135811691602001351661138b565b610446600480360360408110156104ff57600080fd5b50803590602001356115f4565b34801561051857600080fd5b506104466004803603602081101561052f57600080fd5b50356001600160a01b0316611602565b34801561054b57600080fd5b5061045d6116a1565b34801561056057600080fd5b5061045d6116a7565b34801561057557600080fd5b506105936004803603602081101561058c57600080fd5b50356116ad565b604080516001600160a01b039092168252519081900360200190f35b3480156105bb57600080fd5b50610446600480360360608110156105d257600080fd5b506001600160a01b0381351690602081013590604001356116d7565b6104466004803603602081101561060457600080fd5b50356116e2565b34801561061757600080fd5b506104466004803603602081101561062e57600080fd5b50356116eb565b34801561064157600080fd5b5061045d6004803603602081101561065857600080fd5b5035612035565b34801561066b57600080fd5b5061045d6004803603602081101561068257600080fd5b5035612047565b34801561069557600080fd5b5061045d612059565b3480156106aa57600080fd5b50610446600480360360208110156106c157600080fd5b50356001600160a01b0316612068565b3480156106dd57600080fd5b50610446600480360360208110156106f457600080fd5b50356001600160a01b03166121ec565b34801561071057600080fd5b5061045d6004803603602081101561072757600080fd5b5035612284565b34801561073a57600080fd5b5061038e612296565b34801561074f57600080fd5b5061045d612314565b34801561076457600080fd5b5061045d6004803603602081101561077b57600080fd5b503561231a565b34801561078e57600080fd5b5061045d61232c565b3480156107a357600080fd5b5061045d612336565b3480156107b857600080fd5b50610446600480360360208110156107cf57600080fd5b50356001600160a01b031661233c565b3480156107eb57600080fd5b506105936004803603602081101561080257600080fd5b50356123d4565b34801561081557600080fd5b5061045d6123ef565b34801561082a57600080fd5b5061045d6123f5565b34801561083f57600080fd5b506104466004803603602081101561085657600080fd5b50356001600160a01b03166123fb565b34801561087257600080fd5b5061045d6004803603602081101561088957600080fd5b5035612493565b34801561089c57600080fd5b50610446600480360360208110156108b357600080fd5b50356001600160a01b03166124b4565b3480156108cf57600080fd5b5061044660048036036101008110156108e757600080fd5b81019060208101813564010000000081111561090257600080fd5b82018360208201111561091457600080fd5b8035906020019184600183028401116401000000008311171561093657600080fd5b91908080601f016020809104026020016040519081016040528093929190818152602001838380828437600092019190915250929594936020810193503591505064010000000081111561098957600080fd5b82018360208201111561099b57600080fd5b803590602001918460018302840111640100000000831117156109bd57600080fd5b91908080601f0160208091040260200160405190810160405280939291908181526020018383808284376000920191909152509295505082359350505060208101359060408101359060608101359060808101359060a001356001600160a01b031661254c565b348015610a3057600080fd5b50610a4e60048036036020811015610a4757600080fd5b50356126fc565b6040805160ff9092168252519081900360200190f35b348015610a7057600080fd5b5061044660048036036040811015610a8757600080fd5b506001600160a01b038135169060200135612711565b348015610aa957600080fd5b5061045d61271b565b348015610abe57600080fd5b50610ae560048036036020811015610ad557600080fd5b50356001600160a01b0316612721565b604080519115158252519081900360200190f35b348015610b0557600080fd5b5061045d61273f565b6000808211610b64576040805162461bcd60e51b815260206004820152601a60248201527f536166654d6174683a206469766973696f6e206279207a65726f000000000000604482015290519081900360640190fd5b818381610b6d57fe5b0490505b92915050565b600082610b8657506000610b71565b82820282848281610b9357fe5b0414610bd05760405162461bcd60e51b81526004018080602001828103825260218152602001806140e06021913960400191505060405180910390fd5b9392505050565b600454811015610c2e576040805162461bcd60e51b815260206004820152601360248201527f54494d454652414d455f544f4f5f53484f525400000000000000000000000000604482015290519081900360640190fd5b60055415801590610c4157506005548111155b80610c4c5750600554155b610c9d576040805162461bcd60e51b815260206004820152601260248201527f54494d454652414d455f544f4f5f4c4f4e470000000000000000000000000000604482015290519081900360640190fd5b6000610cc082610cba600454600354610b7790919063ffffffff16565b90610b0e565b9050803411610d16576040805162461bcd60e51b815260206004820152601060248201527f494e53554646494349454e545f45544800000000000000000000000000000000604482015290519081900360640190fd5b6000610d20612745565b905080610d74576040805162461bcd60e51b815260206004820152601160248201527f4e4f5f4d4f52455f434c41494d41424c45000000000000000000000000000000604482015290519081900360640190fd5b601554604080517f156e29f6000000000000000000000000000000000000000000000000000000008152336004820152602481018490526001604482015290516001600160a01b039092169163156e29f69160648082019260009290919082900301818387803b158015610de757600080fd5b505af1158015610dfb573d6000803e3d6000fd5b50505050610e0a8160016127d2565b6000610e1642856128c4565b6000838152600e60209081526040808320849055601082528083208790556011909152902060019055600d54909150610e4f90846128c4565b600d55601654604080517f634b5b7d00000000000000000000000000000000000000000000000000000000815233600482015290516001600160a01b039092169163634b5b7d916024808201926020929091908290030181600087803b158015610eb857600080fd5b505af1158015610ecc573d6000803e3d6000fd5b505050506040513d6020811015610ee257600080fd5b5050601654604080517fea40a7a40000000000000000000000000000000000000000000000000000000081523360048201526024810186905290516001600160a01b039092169163ea40a7a4916044808201926020929091908290030181600087803b158015610f5157600080fd5b505af1158015610f65573d6000803e3d6000fd5b505050506040513d6020811015610f7b57600080fd5b505060408051338152306020820152808201849052606081018690526001608082015260a0810185905290517f7772d56f71cb2b982c42f148cad4839ce0736b201b032c93233f428ba93817749181900360c00190a18234111561107f57600033610fe6348661291e565b604051600081818185875af1925050503d8060008114611022576040519150601f19603f3d011682016040523d82523d6000602084013e611027565b606091505b505090508061107d576040805162461bcd60e51b815260206004820152600d60248201527f524546554e445f4641494c454400000000000000000000000000000000000000604482015290519081900360640190fd5b505b50505050565b60028054604080516020601f7fffffffffffffffffffffffffffffffffffffffffffffffffffffffffffffffff610100600187161502019094168590049384018190048102820181019092528281526060939092909183018282801561112c5780601f106111015761010080835404028352916020019161112c565b820191906000526020600020905b81548152906001019060200180831161110f57829003601f168201915b5050505050905090565b6016546001600160a01b03163314611195576040805162461bcd60e51b815260206004820152601460248201527f554e415554484f52495a45445f4e415547485459000000000000000000000000604482015290519081900360640190fd5b6001600160a01b0383166111f0576040805162461bcd60e51b815260206004820152600b60248201527f4c4f4c5f4d494e545f4e4f000000000000000000000000000000000000000000604482015290519081900360640190fd5b6001600160a01b03821661124b576040805162461bcd60e51b815260206004820152601360248201527f4e4f545f55525f4d4f4e45595f325f4255524e00000000000000000000000000604482015290519081900360640190fd5b8061129d576040805162461bcd60e51b815260206004820152601e60248201527f43414e4e4f545f53454e445f5a45524f5f5448494e47535f47454e4955530000604482015290519081900360640190fd5b6001600160a01b0383166112e7576040516001600160a01b0383169082156108fc029083906000818181858888f193505050501580156112e1573d6000803e3d6000fd5b50611368565b826001600160a01b031663a9059cbb83836040518363ffffffff1660e01b815260040180836001600160a01b0316815260200182815260200192505050602060405180830381600087803b15801561133e57600080fd5b505af1158015611352573d6000803e3d6000fd5b505050506040513d602081101561107d57600080fd5b505050565b60045490565b60055490565b60009081526010602052604090205490565b6015546001600160a01b03166113e8576040805162461bcd60e51b815260206004820152600d60248201527f4e4f5f4d554c5449544f4b454e00000000000000000000000000000000000000604482015290519081900360640190fd5b6001600160a01b0382161580159061140857506001600160a01b03811615155b611459576040805162461bcd60e51b815260206004820152601060248201527f5a45524f5f44455354494e4154494f4e00000000000000000000000000000000604482015290519081900360640190fd5b600b54156114ae576040805162461bcd60e51b815260206004820152600e60248201527f414c52454144595f4d494e544544000000000000000000000000000000000000604482015290519081900360640190fd5b60006114b861297b565b601554604080517f156e29f60000000000000000000000000000000000000000000000000000000081526001600160a01b0387811660048301526024820185905260016044830152915193945091169163156e29f69160648082019260009290919082900301818387803b15801561152f57600080fd5b505af1158015611543573d6000803e3d6000fd5b505050506115528160026127d2565b61155a61297b565b601554604080517f156e29f60000000000000000000000000000000000000000000000000000000081526001600160a01b0387811660048301526024820185905260016044830152915193945091169163156e29f69160648082019260009290919082900301818387803b1580156115d157600080fd5b505af11580156115e5573d6000803e3d6000fd5b505050506113688160026127d2565b6115fe82826129d8565b5050565b6001600160a01b03811660009081526014602052604090205460ff1661169e576013805460018082019092557f66de8ffda797e3de9c05e8fc57b3bf0ec28a930d40b0d285d93c06501cf6a0900180547fffffffffffffffffffffffff0000000000000000000000000000000000000000166001600160a01b0384169081179091556000908152601460205260409020805460ff191690911790555b50565b60135490565b600d5490565b6000601382815481106116bc57fe5b6000918252602090912001546001600160a01b031692915050565b611368838383612f5b565b61169e81610bd7565b601554604080517efdd58e0000000000000000000000000000000000000000000000000000000081523360048201526024810184905290516001600160a01b039092169162fdd58e91604480820192602092909190829003018186803b15801561175457600080fd5b505afa158015611768573d6000803e3d6000fd5b505050506040513d602081101561177e57600080fd5b50516001146117d4576040805162461bcd60e51b815260206004820152600f60248201527f4e4f545f434c41494d5f4f574e45520000000000000000000000000000000000604482015290519081900360640190fd5b6000818152600e602090815260408083205460109092529091205481158015906117fe5750600081115b61184f576040805162461bcd60e51b815260206004820152600d60248201527f494e56414c49445f434c41494d00000000000000000000000000000000000000604482015290519081900360640190fd5b6000838152600f602090815260408083205460129092528083205460155482517ff5298aca000000000000000000000000000000000000000000000000000000008152336004820152602481018990526001604482015292516001600160a01b039485169592944289109492169263f5298aca926064808201939182900301818387803b1580156118df57600080fd5b505af11580156118f3573d6000803e3d6000fd5b505050506001600160a01b03831615611c0857600060018215151415611a6157601754604080517feee1ad8000000000000000000000000000000000000000000000000000000000815230600482015290516000926001600160a01b03169163eee1ad80916024808301926020929190829003018186803b15801561197757600080fd5b505afa15801561198b573d6000803e3d6000fd5b505050506040513d60208110156119a157600080fd5b5051601754604080517feee1ad800000000000000000000000000000000000000000000000000000000081526001600160a01b0389811660048301529151939450600093919092169163eee1ad80916024808301926020929190829003018186803b158015611a0f57600080fd5b505afa158015611a23573d6000803e3d6000fd5b505050506040513d6020811015611a3957600080fd5b50519050600082821415611a4d5782611a4f565b815b9050611a5b8682610b0e565b93505050505b601754604080517f23b872dd0000000000000000000000000000000000000000000000000000000081523060048201526001600160a01b039283166024820152604481018490529051918616916323b872dd916064808201926020929091908290030181600087803b158015611ad657600080fd5b505af1158015611aea573d6000803e3d6000fd5b505050506040513d6020811015611b0057600080fd5b50506001600160a01b0384166323b872dd3033611b1d878661291e565b6040518463ffffffff1660e01b815260040180846001600160a01b03168152602001836001600160a01b031681526020018281526020019350505050602060405180830381600087803b158015611b7357600080fd5b505af1158015611b87573d6000803e3d6000fd5b505050506040513d6020811015611b9d57600080fd5b5050604080513381523060208201528082018990526001600160a01b03861660608201526080810187905260a0810185905260c0810183905290517fe0433fa1170f3ff4cf72fbeb1ae5f139a41b9457ab29e5ac480cb34ed271912a9181900360e00190a150611d79565b600060018215151415611cb857601754604080517feee1ad80000000000000000000000000000000000000000000000000000000008152600060048201819052915191926001600160a01b03169163eee1ad8091602480820192602092909190829003018186803b158015611c7c57600080fd5b505afa158015611c90573d6000803e3d6000fd5b505050506040513d6020811015611ca657600080fd5b50519050611cb48682610b0e565b9150505b6017546040516001600160a01b039091169082156108fc029083906000818181858888f19350505050158015611cf2573d6000803e3d6000fd5b50336108fc611d01878461291e565b6040518115909202916000818181858888f19350505050158015611d29573d6000803e3d6000fd5b5060408051338152306020820152808201899052606081018790526080810183905290517f414b0454a52507c753948f2002246a3358eaea8464b41c2143f88b100306eee69181900360a00190a1505b600d54611d86908561291e565b600d5580611d9857505050505061169e565b6000306001600160a01b031663b788e4e96040518163ffffffff1660e01b815260040160206040518083038186803b158015611dd357600080fd5b505afa158015611de7573d6000803e3d6000fd5b505050506040513d6020811015611dfd57600080fd5b50516015546000898152601160205260408082205481517f156e29f600000000000000000000000000000000000000000000000000000000815233600482015260248101869052604481019190915290519394506001600160a01b039092169263156e29f692606480820193929182900301818387803b158015611e8057600080fd5b505af1158015611e94573d6000803e3d6000fd5b50505050611ea38160026127d2565b601654604080517f634b5b7d00000000000000000000000000000000000000000000000000000000815233600482015290516001600160a01b039092169163634b5b7d916024808201926020929091908290030181600087803b158015611f0957600080fd5b505af1158015611f1d573d6000803e3d6000fd5b505050506040513d6020811015611f3357600080fd5b5050601654604080517fea40a7a40000000000000000000000000000000000000000000000000000000081523360048201526024810188905290516001600160a01b039092169163ea40a7a4916044808201926020929091908290030181600087803b158015611fa257600080fd5b505af1158015611fb6573d6000803e3d6000fd5b505050506040513d6020811015611fcc57600080fd5b505060008781526011602090815260409182902054825133815230928101929092528183018a905260608201849052608082015290517fa684ef88136a415ed987c0b39bc528a16b3e83b511c414590bbe613f38f1a0729181900360a00190a150505050505050565b60009081526009602052604090205490565b60009081526011602052604090205490565b6000612063612745565b905090565b6001600160a01b03811660009081526014602052604090205460ff161561169e5760005b6013548110156115fe57816001600160a01b0316601382815481106120ad57fe5b6000918252602090912001546001600160a01b031614156121e457601380547fffffffffffffffffffffffffffffffffffffffffffffffffffffffffffffffff81019081106120f857fe5b600091825260209091200154601380546001600160a01b03909216918390811061211e57fe5b600091825260209091200180547fffffffffffffffffffffffff0000000000000000000000000000000000000000166001600160a01b0392909216919091179055601380547fffffffffffffffffffffffffffffffffffffffffffffffffffffffffffffffff810190811061218f57fe5b6000918252602080832090910180547fffffffffffffffffffffffff00000000000000000000000000000000000000001690556001600160a01b03841682526014905260409020805460ff191690555061169e565b60010161208c565b6017546001600160a01b03161561224a576040805162461bcd60e51b815260206004820152600960248201527f494d4d555441424c450000000000000000000000000000000000000000000000604482015290519081900360640190fd5b601780547fffffffffffffffffffffffff0000000000000000000000000000000000000000166001600160a01b0392909216919091179055565b60009081526012602052604090205490565b60018054604080516020601f60027fffffffffffffffffffffffffffffffffffffffffffffffffffffffffffffffff610100878916150201909516949094049384018190048102820181019092528281526060939092909183018282801561112c5780601f106111015761010080835404028352916020019161112c565b600c5490565b6000908152600e602052604090205490565b600061206361297b565b60065490565b6016546001600160a01b03161561239a576040805162461bcd60e51b815260206004820152600960248201527f494d4d555441424c450000000000000000000000000000000000000000000000604482015290519081900360640190fd5b601680547fffffffffffffffffffffffff0000000000000000000000000000000000000000166001600160a01b0392909216919091179055565b6000908152600f60205260409020546001600160a01b031690565b600b5490565b60075490565b6015546001600160a01b031615612459576040805162461bcd60e51b815260206004820152600960248201527f494d4d555441424c450000000000000000000000000000000000000000000000604482015290519081900360640190fd5b601580547fffffffffffffffffffffffff0000000000000000000000000000000000000000166001600160a01b0392909216919091179055565b6000600a82815481106124a257fe5b90600052602060002001549050919050565b6018546001600160a01b031615612512576040805162461bcd60e51b815260206004820152600960248201527f494d4d555441424c450000000000000000000000000000000000000000000000604482015290519081900360640190fd5b601880547fffffffffffffffffffffffff0000000000000000000000000000000000000000166001600160a01b0392909216919091179055565b600054610100900460ff1680612565575061256561375f565b80612573575060005460ff16155b6125ae5760405162461bcd60e51b815260040180806020018281038252602e8152602001806140b2602e913960400191505060405180910390fd5b600054610100900460ff161580156125f6576000805460ff197fffffffffffffffffffffffffffffffffffffffffffffffffffffffffffff00ff909116610100171660011790555b88516126099060019060208c019061401e565b50875161261d9060029060208b019061401e565b50600387905560048690556005859055600684905560078390556001600160a01b038216156126c2576013805460018082019092557f66de8ffda797e3de9c05e8fc57b3bf0ec28a930d40b0d285d93c06501cf6a0900180547fffffffffffffffffffffffff0000000000000000000000000000000000000000166001600160a01b0385169081179091556000908152601460205260409020805460ff191690911790555b80156126f157600080547fffffffffffffffffffffffffffffffffffffffffffffffffffffffffffff00ff1690555b505050505050505050565b60009081526008602052604090205460ff1690565b6115fe8282613770565b600a5490565b6001600160a01b031660009081526014602052604090205460ff1690565b60035490565b600060075460001415801561275e5750600754600c5411155b806127695750600754155b612774576000612063565b50600c54604080517f636c61696d0000000000000000000000000000000000000000000000000000006020808301919091523060601b6025830152603980830194909452825180830390940184526059909101909152815191012090565b8060ff16600114806127e757508060ff166002145b612838576040805162461bcd60e51b815260206004820152601160248201527f494e56414c49445f544f4b454e54595045000000000000000000000000000000604482015290519081900360640190fd5b600a805460018082019092557fc65a7bb8d6351c1cf70c95a316cc6a92839c986682d98bc35f958f4883f9d2a8018390556000838152600860205260409020805460ff191660ff84169081179091551461289957612894613fb7565b6128a1565b6128a1613fd0565b600083815260096020526040902055600260ff821614156115fe576115fe613fe9565b600082820183811015610bd0576040805162461bcd60e51b815260206004820152601b60248201527f536166654d6174683a206164646974696f6e206f766572666c6f770000000000604482015290519081900360640190fd5b600082821115612975576040805162461bcd60e51b815260206004820152601e60248201527f536166654d6174683a207375627472616374696f6e206f766572666c6f770000604482015290519081900360640190fd5b50900390565b600b54604080517f67656d00000000000000000000000000000000000000000000000000000000006020808301919091523060601b6023830152603780830194909452825180830390940184526057909101909152815191012090565b600454821015612a2f576040805162461bcd60e51b815260206004820152601360248201527f54494d454652414d455f544f4f5f53484f525400000000000000000000000000604482015290519081900360640190fd5b34612a81576040805162461bcd60e51b815260206004820152600c60248201527f5a45524f5f42414c414e43450000000000000000000000000000000000000000604482015290519081900360640190fd5b80612ad3576040805162461bcd60e51b815260206004820152600d60248201527f5a45524f5f5155414e5449545900000000000000000000000000000000000000604482015290519081900360640190fd5b60055415801590612ae657506005548211155b80612af15750600554155b612b42576040805162461bcd60e51b815260206004820152601260248201527f54494d454652414d455f544f4f5f4c4f4e470000000000000000000000000000604482015290519081900360640190fd5b6000612b4e3483610b0e565b90506000612b6d84610cba600454600354610b7790919063ffffffff16565b905080821015612bc4576040805162461bcd60e51b815260206004820152601060248201527f494e53554646494349454e545f45544800000000000000000000000000000000604482015290519081900360640190fd5b6000612bce612745565b905080612c22576040805162461bcd60e51b815260206004820152601160248201527f4e4f5f4d4f52455f434c41494d41424c45000000000000000000000000000000604482015290519081900360640190fd5b601554604080517f156e29f6000000000000000000000000000000000000000000000000000000008152336004820152602481018490526001604482015290516001600160a01b039092169163156e29f69160648082019260009290919082900301818387803b158015612c9557600080fd5b505af1158015612ca9573d6000803e3d6000fd5b50505050612cb88160016127d2565b6000612cc442876128c4565b6000838152600e602052604090208190559050612ce18386610b77565b6000838152601060209081526040808320939093556011815282822088905560165483517f634b5b7d00000000000000000000000000000000000000000000000000000000815233600482015293516001600160a01b039091169363634b5b7d9360248083019493928390030190829087803b158015612d6057600080fd5b505af1158015612d74573d6000803e3d6000fd5b505050506040513d6020811015612d8a57600080fd5b5050601654604080517fea40a7a40000000000000000000000000000000000000000000000000000000081523360048201526024810186905290516001600160a01b039092169163ea40a7a4916044808201926020929091908290030181600087803b158015612df957600080fd5b505af1158015612e0d573d6000803e3d6000fd5b505050506040513d6020811015612e2357600080fd5b505060408051338152306020820152808201849052606081018890526080810187905260a0810185905290517f7772d56f71cb2b982c42f148cad4839ce0736b201b032c93233f428ba93817749181900360c00190a1612e8f612e868487610b77565b600d54906128c4565b600d55612e9c8386610b77565b341115612f5357600033612eba612eb38689610b77565b349061291e565b604051600081818185875af1925050503d8060008114612ef6576040519150601f19603f3d011682016040523d82523d6000602084013e612efb565b606091505b5050905080612f51576040805162461bcd60e51b815260206004820152600d60248201527f524546554e445f4641494c454400000000000000000000000000000000000000604482015290519081900360640190fd5b505b505050505050565b6001600160a01b038316612fb6576040805162461bcd60e51b815260206004820152601360248201527f494e56414c49445f45524332305f544f4b454e00000000000000000000000000604482015290519081900360640190fd5b60135415801590612fdf57506001600160a01b03831660009081526014602052604090205460ff165b80612fea5750601354155b61303b576040805162461bcd60e51b815260206004820152601060248201527f544f4b454e5f444953414c4c4f57454400000000000000000000000000000000604482015290519081900360640190fd5b8061308d576040805162461bcd60e51b815260206004820152600d60248201527f5a45524f5f5155414e5449545900000000000000000000000000000000000000604482015290519081900360640190fd5b601854604080517f1246dbf50000000000000000000000000000000000000000000000000000000081526001600160a01b03868116600483015291519190921691631246dbf5916024808301926020929190829003018186803b1580156130f357600080fd5b505afa158015613107573d6000803e3d6000fd5b505050506040513d602081101561311d57600080fd5b50511515600114613175576040805162461bcd60e51b815260206004820152600f60248201527f4e4f5f554e49535741505f504f4f4c0000000000000000000000000000000000604482015290519081900360640190fd5b601854600090819081906001600160a01b031663868d2d1e876131988888610b0e565b6040518363ffffffff1660e01b815260040180836001600160a01b031681526020018281526020019250505060606040518083038186803b1580156131dc57600080fd5b505afa1580156131f0573d6000803e3d6000fd5b505050506040513d606081101561320657600080fd5b5080516020820151604090920151909450909250905061322b846102df856064610b77565b81101561327f576040805162461bcd60e51b815260206004820152601a60248201527f494e53554646494349454e545f4554485f4c4951554944495459000000000000604482015290519081900360640190fd5b61328e846102df876064610b77565b8210156132e2576040805162461bcd60e51b815260206004820152601c60248201527f494e53554646494349454e545f544f4b454e5f4c495155494449545900000000604482015290519081900360640190fd5b600354831115613339576040805162461bcd60e51b815260206004820152600b60248201527f4f5645525041594d454e54000000000000000000000000000000000000000000604482015290519081900360640190fd5b600061335684610cba600454600354610b7790919063ffffffff16565b90506004548110156133af576040805162461bcd60e51b815260206004820152601160248201527f494e53554646494349454e545f54494d45000000000000000000000000000000604482015290519081900360640190fd5b60006133b9612745565b90508061340d576040805162461bcd60e51b815260206004820152601160248201527f4e4f5f4d4f52455f434c41494d41424c45000000000000000000000000000000604482015290519081900360640190fd5b601554604080517f156e29f6000000000000000000000000000000000000000000000000000000008152336004820152602481018490526001604482015290516001600160a01b039092169163156e29f69160648082019260009290919082900301818387803b15801561348057600080fd5b505af1158015613494573d6000803e3d6000fd5b505050506134a38160016127d2565b60006134af42846128c4565b6000838152600e60209081526040808320849055601082528083208a9055600f825280832080547fffffffffffffffffffffffff0000000000000000000000000000000000000000166001600160a01b038f16179055601282528083208c905560119091529020889055600d5490915061352990876128c4565b600d55601654604080517f634b5b7d00000000000000000000000000000000000000000000000000000000815233600482015290516001600160a01b039092169163634b5b7d916024808201926020929091908290030181600087803b15801561359257600080fd5b505af11580156135a6573d6000803e3d6000fd5b505050506040513d60208110156135bc57600080fd5b5050601654604080517fea40a7a40000000000000000000000000000000000000000000000000000000081523360048201526024810189905290516001600160a01b039092169163ea40a7a4916044808201926020929091908290030181600087803b15801561362b57600080fd5b505af115801561363f573d6000803e3d6000fd5b505050506040513d602081101561365557600080fd5b505060408051338152306020820152808201849052606081018590526001600160a01b038b16608082015260a0810189905260c0810188905290517fe583bcc9acfcc0488165ba03e5e6613c9cb6a8cc97fd72a3d28b402b0a1830fc9181900360e00190a1604080517f23b872dd000000000000000000000000000000000000000000000000000000008152336004820152306024820152604481018a905290516001600160a01b038b16916323b872dd9160648083019260209291908290030181600087803b15801561372857600080fd5b505af115801561373c573d6000803e3d6000fd5b505050506040513d602081101561375257600080fd5b5050505050505050505050565b600061376a30614018565b15905090565b6001600160a01b0382166137cb576040805162461bcd60e51b815260206004820152601360248201527f494e56414c49445f45524332305f544f4b454e00000000000000000000000000604482015290519081900360640190fd5b601354158015906137f457506001600160a01b03821660009081526014602052604090205460ff165b806137ff5750601354155b613850576040805162461bcd60e51b815260206004820152601060248201527f544f4b454e5f444953414c4c4f57454400000000000000000000000000000000604482015290519081900360640190fd5b601854604080517f1246dbf50000000000000000000000000000000000000000000000000000000081526001600160a01b03858116600483015291519190921691631246dbf5916024808301926020929190829003018186803b1580156138b657600080fd5b505afa1580156138ca573d6000803e3d6000fd5b505050506040513d60208110156138e057600080fd5b50511515600114613938576040805162461bcd60e51b815260206004820152600f60248201527f4e4f5f554e49535741505f504f4f4c0000000000000000000000000000000000604482015290519081900360640190fd5b601854604080517f868d2d1e0000000000000000000000000000000000000000000000000000000081526001600160a01b0385811660048301526024820185905291516000938493849391169163868d2d1e91604480820192606092909190829003018186803b1580156139ab57600080fd5b505afa1580156139bf573d6000803e3d6000fd5b505050506040513d60608110156139d557600080fd5b50805160208083015160409384015160175485517fb8c876b10000000000000000000000000000000000000000000000000000000081526001600160a01b038c811660048301529651959950929750909550600094169263b8c876b192602480840193919291829003018186803b158015613a4f57600080fd5b505afa158015613a63573d6000803e3d6000fd5b505050506040513d6020811015613a7957600080fd5b50519050613a878482610b77565b821015613adb576040805162461bcd60e51b815260206004820152601a60248201527f494e53554646494349454e545f4554485f4c4951554944495459000000000000604482015290519081900360640190fd5b613ae58582610b77565b831015613b39576040805162461bcd60e51b815260206004820152601c60248201527f494e53554646494349454e545f544f4b454e5f4c495155494449545900000000604482015290519081900360640190fd5b600354841115613b90576040805162461bcd60e51b815260206004820152600b60248201527f4f5645525041594d454e54000000000000000000000000000000000000000000604482015290519081900360640190fd5b6000613bad85610cba600454600354610b7790919063ffffffff16565b9050600454811015613c06576040805162461bcd60e51b815260206004820152601160248201527f494e53554646494349454e545f54494d45000000000000000000000000000000604482015290519081900360640190fd5b6000613c10612745565b905080613c64576040805162461bcd60e51b815260206004820152601160248201527f4e4f5f4d4f52455f434c41494d41424c45000000000000000000000000000000604482015290519081900360640190fd5b604080517f23b872dd0000000000000000000000000000000000000000000000000000000081523360048201523060248201526044810189905290516001600160a01b038a16916323b872dd9160648083019260209291908290030181600087803b158015613cd257600080fd5b505af1158015613ce6573d6000803e3d6000fd5b505050506040513d6020811015613cfc57600080fd5b5050601554604080517f156e29f6000000000000000000000000000000000000000000000000000000008152336004820152602481018490526001604482015290516001600160a01b039092169163156e29f69160648082019260009290919082900301818387803b158015613d7157600080fd5b505af1158015613d85573d6000803e3d6000fd5b50505050613d948160016127d2565b6000613da042846128c4565b6000838152600e60209081526040808320849055601082528083208b9055600f825280832080547fffffffffffffffffffffffff0000000000000000000000000000000000000000166001600160a01b038f16179055601282528083208c90556011909152902060019055600d54909150613e1b90886128c4565b600d55601654604080517f634b5b7d00000000000000000000000000000000000000000000000000000000815233600482015290516001600160a01b039092169163634b5b7d916024808201926020929091908290030181600087803b158015613e8457600080fd5b505af1158015613e98573d6000803e3d6000fd5b505050506040513d6020811015613eae57600080fd5b5050601654604080517fea40a7a4000000000000000000000000000000000000000000000000000000008152336004820152602481018a905290516001600160a01b039092169163ea40a7a4916044808201926020929091908290030181600087803b158015613f1d57600080fd5b505af1158015613f31573d6000803e3d6000fd5b505050506040513d6020811015613f4757600080fd5b505060408051338152306020820152808201849052606081018590526001600160a01b038b166080820152600160a082015260c0810189905290517fe583bcc9acfcc0488165ba03e5e6613c9cb6a8cc97fd72a3d28b402b0a1830fc9181900360e00190a1505050505050505050565b600b54600090613fc88160016128c4565b600b55905090565b600c54600090613fe18160016128c4565b600c55905090565b6000614002600654600354610b0e90919063ffffffff16565b60035490915061401290826128c4565b60035550565b3b151590565b828054600181600116156101000203166002900490600052602060002090601f016020900481019282601f1061405f57805160ff191683800117855561408c565b8280016001018555821561408c579182015b8281111561408c578251825591602001919060010190614071565b5061409892915061409c565b5090565b5b80821115614098576000815560010161409d56fe496e697469616c697a61626c653a20636f6e747261637420697320616c726561647920696e697469616c697a6564536166654d6174683a206d756c7469706c69636174696f6e206f766572666c6f77a2646970667358221220eedd772a51d89859ca9670d33896e153cf715edbc346be9da32eb62c3e42d86764736f6c63430007030033436f6e74726f6c6c61626c653a2063616c6c6572206973206e6f74206120636f6e74726f6c6c6572a26469706673582212204b13c10e0097e75d66e684188bba648497a072cba5380cbf1972307066d731c464736f6c63430007030033",
  "libraries": {
    "GovernanceLib": "0xBc8357132DFdCd2c65DAc10445d3674c628390Dd",
    "Strings": "0x915c3fEFB85D1937d5fF555CEFaB4B738a834C60",
    "SafeMath": "0x034fC597bB6E1D3bCC37b2E29eFc7FF0b736503d",
    "ProposalsLib": "0x198E00c8f39bF3Fb753D4568c68505535107C11A",
    "Create2": "0x1D97c8E0996Fd004cE9DB020570FaE3114F50389"
  },
  "devdoc": {
    "kind": "dev",
    "methods": {
      "addController(address)": {
        "details": "Add an address allowed to control this contract"
      },
      "allNFTGemPools(uint256)": {
        "details": "get the quantized token for this"
      },
      "allNFTGemPoolsLength()": {
        "details": "number of quantized addresses"
      },
      "createCustomNFTGemPool(bytes,string,string)": {
        "details": "deploy a new erc20 token using create2"
      },
      "createNFTGemPool(string,string,uint256,uint256,uint256,uint256,uint256,address)": {
        "details": "deploy a new erc20 token using create2"
      },
      "getNFTGemPool(uint256)": {
        "details": "get the quantized token for this"
      },
      "isController(address)": {
        "details": "Check if this address is a controller"
      },
      "relinquishControl()": {
        "details": "Check if this address is a controller"
      }
    },
    "version": 1
  },
  "userdoc": {
    "kind": "user",
    "methods": {},
    "version": 1
  },
  "storageLayout": {
    "storage": [
      {
        "astId": 10169,
        "contract": "src/factories/NFTGemPoolFactory.sol:NFTGemPoolFactory",
        "label": "_controllers",
        "offset": 0,
        "slot": "0",
        "type": "t_mapping(t_address,t_bool)"
      },
      {
        "astId": 10373,
        "contract": "src/factories/NFTGemPoolFactory.sol:NFTGemPoolFactory",
        "label": "operator",
        "offset": 0,
        "slot": "1",
        "type": "t_address"
      },
      {
        "astId": 10377,
        "contract": "src/factories/NFTGemPoolFactory.sol:NFTGemPoolFactory",
        "label": "_getNFTGemPool",
        "offset": 0,
        "slot": "2",
        "type": "t_mapping(t_uint256,t_address)"
      },
      {
        "astId": 10380,
        "contract": "src/factories/NFTGemPoolFactory.sol:NFTGemPoolFactory",
        "label": "_allNFTGemPools",
        "offset": 0,
        "slot": "3",
        "type": "t_array(t_address)dyn_storage"
      }
    ],
    "types": {
      "t_address": {
        "encoding": "inplace",
        "label": "address",
        "numberOfBytes": "20"
      },
      "t_array(t_address)dyn_storage": {
        "base": "t_address",
        "encoding": "dynamic_array",
        "label": "address[]",
        "numberOfBytes": "32"
      },
      "t_bool": {
        "encoding": "inplace",
        "label": "bool",
        "numberOfBytes": "1"
      },
      "t_mapping(t_address,t_bool)": {
        "encoding": "mapping",
        "key": "t_address",
        "label": "mapping(address => bool)",
        "numberOfBytes": "32",
        "value": "t_bool"
      },
      "t_mapping(t_uint256,t_address)": {
        "encoding": "mapping",
        "key": "t_uint256",
        "label": "mapping(uint256 => address)",
        "numberOfBytes": "32",
        "value": "t_address"
      },
      "t_uint256": {
        "encoding": "inplace",
        "label": "uint256",
        "numberOfBytes": "32"
      }
    }
  }
}