{
  "address": "0x49325cA5647Cb818ED67280B7AD690B207f1F0cc",
  "abi": [
    {
      "anonymous": false,
      "inputs": [
        {
          "indexed": true,
          "internalType": "address",
          "name": "token",
          "type": "address"
        },
        {
          "indexed": true,
          "internalType": "address",
          "name": "currency",
          "type": "address"
        },
        {
          "indexed": true,
          "internalType": "uint256",
          "name": "currencyID",
          "type": "uint256"
        },
        {
          "indexed": false,
          "internalType": "address",
          "name": "exchange",
          "type": "address"
        }
      ],
      "name": "NewExchange",
      "type": "event"
    },
    {
      "inputs": [
        {
          "internalType": "address",
          "name": "_token",
          "type": "address"
        },
        {
          "internalType": "address",
          "name": "_currency",
          "type": "address"
        },
        {
          "internalType": "uint256",
          "name": "_currencyID",
          "type": "uint256"
        }
      ],
      "name": "createExchange",
      "outputs": [],
      "stateMutability": "nonpayable",
      "type": "function"
    },
    {
      "inputs": [
        {
          "internalType": "address",
          "name": "",
          "type": "address"
        },
        {
          "internalType": "address",
          "name": "",
          "type": "address"
        },
        {
          "internalType": "uint256",
          "name": "",
          "type": "uint256"
        }
      ],
      "name": "tokensToExchange",
      "outputs": [
        {
          "internalType": "address",
          "name": "",
          "type": "address"
        }
      ],
      "stateMutability": "view",
      "type": "function"
    }
  ],
  "transactionHash": "0x9c3f9b09df82a79a673c6910ae832b6b5ac33c6d51961b62fe6805f1d9e767e5",
  "args": [],
  "solcInputHash": "5f1ad3e4fc853dd0808243a6648b89c2",
  "bytecode": "0x608060405234801561001057600080fd5b50614c07806100206000396000f3fe608060405234801561001057600080fd5b50600436106100365760003560e01c80631427474c1461003b5780638359289c146100a7575b600080fd5b61007e6004803603606081101561005157600080fd5b5073ffffffffffffffffffffffffffffffffffffffff8135811691602081013590911690604001356100ec565b6040805173ffffffffffffffffffffffffffffffffffffffff9092168252519081900360200190f35b6100ea600480360360608110156100bd57600080fd5b5073ffffffffffffffffffffffffffffffffffffffff813581169160208101359091169060400135610124565b005b6000602081815293815260408082208552928152828120909352825290205473ffffffffffffffffffffffffffffffffffffffff1681565b73ffffffffffffffffffffffffffffffffffffffff8381166000908152602081815260408083208685168452825280832085845290915290205416156101b5576040517f08c379a0000000000000000000000000000000000000000000000000000000008152600401808060200182810382526036815260200180614b9c6036913960400191505060405180910390fd5b60008383836040516101c6906102cd565b808473ffffffffffffffffffffffffffffffffffffffff1681526020018373ffffffffffffffffffffffffffffffffffffffff1681526020018281526020019350505050604051809103906000f080158015610226573d6000803e3d6000fd5b5073ffffffffffffffffffffffffffffffffffffffff85811660008181526020818152604080832089861680855290835281842089855283529281902080547fffffffffffffffffffffffff0000000000000000000000000000000000000000169587169586179055805194855251949550869491937f23658fa6d505b3e3034045b3937d4239cbdaa345bfb0c4a2d6637ade8b85457c929081900390910190a450505050565b6148c1806102db8339019056fe60806040523480156200001157600080fd5b50604051620048c1380380620048c183398101604081905262000034916200011f565b6000805460ff191660011790556001600160a01b038316158015906200006257506001600160a01b03821615155b6200008a5760405162461bcd60e51b815260040162000081906200015f565b60405180910390fd5b600580546001600160a01b03199081163317909155600380546001600160a01b03868116918416821790925560048054928616929093168217909255600683905514620000d9576000620000dc565b60015b60048054911515600160a01b0260ff60a01b1990921691909117905550620001a7915050565b80516001600160a01b03811681146200011a57600080fd5b919050565b60008060006060848603121562000134578283fd5b6200013f8462000102565b92506200014f6020850162000102565b9150604084015190509250925092565b60208082526028908201527f556e6967656d45786368616e676523636f6e7374727563746f723a494e56414c604082015267125117d25394155560c21b606082015260800190565b61470a80620001b76000396000f3fe608060405234801561001057600080fd5b50600436106101355760003560e01c8063863ed300116100b2578063be57146811610081578063f23a6e6111610066578063f23a6e61146102ac578063f242432a146102bf578063fca16c3b146102d257610135565b8063be57146814610286578063e985e9c51461029957610135565b8063863ed30014610238578063a22cb4651461024b578063a9c2e36c1461025e578063bc197c811461026657610135565b80632bef5e381161010957806346adf5ca116100ee57806346adf5ca146101fc5780634e1273f4146102125780636ee8e1341461022557610135565b80632bef5e38146101d45780632eb2c2d6146101e757610135565b8062fdd58e1461015657806301ffc9a71461017f57806310fe9ae81461019f578063209b96c5146101b4575b60405162461bcd60e51b815260040161014d90613760565b60405180910390fd5b610169610164366004612e85565b6102e5565b6040516101769190614635565b60405180910390f35b61019261018d366004613057565b610310565b604051610176919061366e565b6101a76103f7565b6040516101769190613436565b6101c76101c2366004612f73565b610406565b60405161017691906135f4565b6101c76101e2366004612f73565b6104a7565b6101fa6101f5366004612d43565b61053f565b005b6102046105be565b60405161017692919061357b565b6101c7610220366004612eb0565b6105d2565b610169610233366004613368565b6106cc565b6101c7610246366004612fb3565b610746565b6101fa610259366004612e54565b61089c565b6101a761090b565b610279610274366004612d43565b61091a565b6040516101769190613679565b6101c7610294366004612fb3565b610e25565b6101926102a7366004612d0b565b610f70565b6102796102ba366004612ded565b610f9e565b6101fa6102cd366004612ded565b6110b5565b6101696102e0366004613368565b61112d565b6001600160a01b03821660009081526001602090815260408083208484529091529020545b92915050565b60007fffffffff0000000000000000000000000000000000000000000000000000000082167f01ffc9a70000000000000000000000000000000000000000000000000000000014806103a357507fffffffff0000000000000000000000000000000000000000000000000000000082167fd9b67a2600000000000000000000000000000000000000000000000000000000145b806103ef57507fffffffff0000000000000000000000000000000000000000000000000000000082167f4e2312e000000000000000000000000000000000000000000000000000000000145b90505b919050565b6003546001600160a01b031690565b606081818167ffffffffffffffff8111801561042157600080fd5b5060405190808252806020026020018201604052801561044b578160200160208202803683370190505b50905060005b8281101561049e576008600087878481811061046957fe5b9050602002013581526020019081526020016000205482828151811061048b57fe5b6020908102919091010152600101610451565b50949350505050565b606081818167ffffffffffffffff811180156104c257600080fd5b506040519080825280602002602001820160405280156104ec578160200160208202803683370190505b50905060005b8281101561049e576007600087878481811061050a57fe5b9050602002013581526020019081526020016000205482828151811061052c57fe5b60209081029190910101526001016104f2565b336001600160a01b038616148061055b575061055b8533610f70565b6105775760405162461bcd60e51b815260040161014d9061403e565b6001600160a01b03841661059d5760405162461bcd60e51b815260040161014d90613c76565b6105a985858585611192565b6105b7858585855a8661138c565b5050505050565b6004546006546001600160a01b0390911691565b606081518351146105f55760405162461bcd60e51b815260040161014d90613fe1565b6060835167ffffffffffffffff8111801561060f57600080fd5b50604051908082528060200260200182016040528015610639578160200160208202803683370190505b50905060005b84518110156106c4576001600086838151811061065857fe5b60200260200101516001600160a01b03166001600160a01b03168152602001908152602001600020600085838151811061068e57fe5b60200260200101518152602001908152602001600020548282815181106106b157fe5b602090810291909101015260010161063f565b509392505050565b600080831180156106dd5750600082115b6106f95760405162461bcd60e51b815260040161014d9061409b565b6000610707856103e361149a565b90506000610715828561149a565b9050600061072f83610729886103e861149a565b906114db565b905080828161073a57fe5b04979650505050505050565b606083818167ffffffffffffffff8111801561076157600080fd5b5060405190808252806020026020018201604052801561078b578160200160208202803683370190505b50905060005b82811015610891576003546000906001600160a01b031662fdd58e308b8b868181106107b957fe5b905060200201356040518363ffffffff1660e01b81526004016107dd92919061357b565b60206040518083038186803b1580156107f557600080fd5b505afa158015610809573d6000803e3d6000fd5b505050506040513d601f19601f8201168201806040525081019061082d9190613350565b905061087187878481811061083e57fe5b9050602002013582600860008d8d8881811061085657fe5b905060200201358152602001908152602001600020546106cc565b83838151811061087d57fe5b602090810291909101015250600101610791565b509695505050505050565b3360008181526002602090815260408083206001600160a01b038716808552925291829020805460ff191685151517905590519091907f17307eab39ab6107e8899845ad3d59bd9653f200f220920489ca2b5937696c31906108ff90859061366e565b60405180910390a35050565b6005546001600160a01b031690565b600080828060200190518101906109319190613073565b90507fffffffff0000000000000000000000000000000000000000000000000000000081167fb2d81047000000000000000000000000000000000000000000000000000000001415610acb576004546001600160a01b031633146109a75760405162461bcd60e51b815260040161014d90614327565b84516001146109c85760405162461bcd60e51b815260040161014d9061398e565b600654856000815181106109d857fe5b6020026020010151146109fd5760405162461bcd60e51b815260040161014d90614464565b610a05612ad7565b83806020019051810190610a199190613128565b8051909250600091506001600160a01b031615610a37578151610a39565b875b90506060610a6a8360200151846040015189600081518110610a5757fe5b6020026020010151866060015186611500565b9050816001600160a01b0316896001600160a01b03167fd38bc77e62e239476b3e25620d73f29a4a188e808aad79f4a81aaf44871a7a308560200151866040015185604051610abb93929190613635565b60405180910390a3505050610df9565b7fffffffff0000000000000000000000000000000000000000000000000000000081167fdb08ec97000000000000000000000000000000000000000000000000000000001415610bdd576003546001600160a01b03163314610b3f5760405162461bcd60e51b815260040161014d9061390b565b610b47612b08565b83806020019051810190610b5b91906132b1565b8051909250600091506001600160a01b031615610b79578151610b7b565b875b90506060610b94888885602001518660400151866117eb565b9050816001600160a01b0316896001600160a01b03167f89e4dbdd48f69e7920342e9ad9691b9a7150f254e6a0af177ccfd2556aab8bcd8a8a85604051610abb93929190613635565b7fffffffff0000000000000000000000000000000000000000000000000000000081167f82da2b73000000000000000000000000000000000000000000000000000000001415610c8e576003546001600160a01b03163314610c515760405162461bcd60e51b815260040161014d906140f8565b610c59612b32565b83806020019051810190610c6d919061308f565b905080915050610c8887878784600001518560200151611a2d565b50610df9565b7fffffffff0000000000000000000000000000000000000000000000000000000081167f5c0bf259000000000000000000000000000000000000000000000000000000001415610d3357333014610cf75760405162461bcd60e51b815260040161014d90614555565b610cff612b4c565b83806020019051810190610d1391906131f5565b905080915050610c88878787846000015185602001518660400151611f61565b7fffffffff0000000000000000000000000000000000000000000000000000000081167fc8c323f9000000000000000000000000000000000000000000000000000000001415610de1576004546001600160a01b03163314610da75760405162461bcd60e51b815260040161014d906143aa565b60065485600081518110610db757fe5b602002602001015114610ddc5760405162461bcd60e51b815260040161014d90614464565b610df9565b60405162461bcd60e51b815260040161014d906144f8565b507fbc197c81000000000000000000000000000000000000000000000000000000009695505050505050565b606083818167ffffffffffffffff81118015610e4057600080fd5b50604051908082528060200260200182016040528015610e6a578160200160208202803683370190505b50905060005b82811015610891576003546000906001600160a01b031662fdd58e308b8b86818110610e9857fe5b905060200201356040518363ffffffff1660e01b8152600401610ebc92919061357b565b60206040518083038186803b158015610ed457600080fd5b505afa158015610ee8573d6000803e3d6000fd5b505050506040513d601f19601f82011682018060405250810190610f0c9190613350565b9050610f50878784818110610f1d57fe5b90506020020135600860008c8c87818110610f3457fe5b905060200201358152602001908152602001600020548361112d565b838381518110610f5c57fe5b602090810291909101015250600101610e70565b6001600160a01b03918216600090815260026020908152604080832093909416825291909152205460ff1690565b604080516001808252818301909252600091606091906020808301908036833750506040805160018082528183019092529293506060929150602080830190803683370190505090508582600081518110610ff557fe5b602002602001018181525050848160008151811061100f57fe5b602002602001018181525050611028888884848861091a565b7fffffffff00000000000000000000000000000000000000000000000000000000167fbc197c8100000000000000000000000000000000000000000000000000000000146110885760405162461bcd60e51b815260040161014d906145d8565b507ff23a6e6100000000000000000000000000000000000000000000000000000000979650505050505050565b336001600160a01b03861614806110d157506110d18533610f70565b6110ed5760405162461bcd60e51b815260040161014d906138ae565b6001600160a01b0384166111135760405162461bcd60e51b815260040161014d90613703565b61111f858585856123a3565b6105b7858585855a86612484565b6000808311801561113e5750600082115b61115a5760405162461bcd60e51b815260040161014d90613b02565b60006111726103e861116c868861149a565b9061149a565b905060006111866103e361116c8689612588565b905061089182826125b0565b80518251146111b35760405162461bcd60e51b815260040161014d90613a11565b815160005b8181101561132d5761122f8382815181106111cf57fe5b602002602001015160016000896001600160a01b03166001600160a01b03168152602001908152602001600020600087858151811061120a57fe5b602002602001015181526020019081526020016000205461258890919063ffffffff16565b6001600160a01b0387166000908152600160205260408120865190919087908590811061125857fe5b60200260200101518152602001908152602001600020819055506112e183828151811061128157fe5b602002602001015160016000886001600160a01b03166001600160a01b0316815260200190815260200160002060008785815181106112bc57fe5b60200260200101518152602001908152602001600020546114db90919063ffffffff16565b6001600160a01b0386166000908152600160205260408120865190919087908590811061130a57fe5b6020908102919091018101518252810191909152604001600020556001016111b8565b50836001600160a01b0316856001600160a01b0316336001600160a01b03167f4a39dc06d4c0dbc64b70af90fd698a233a518aa5d07e595d983b8c0526c8f7fb868660405161137d929190613607565b60405180910390a45050505050565b61139e856001600160a01b03166125f7565b15611492576000856001600160a01b031663bc197c8184338a8989886040518763ffffffff1660e01b81526004016113da95949392919061344a565b602060405180830381600088803b1580156113f457600080fd5b5087f1158015611408573d6000803e3d6000fd5b50505050506040513d601f19601f8201168201806040525081019061142d9190613073565b90507fffffffff0000000000000000000000000000000000000000000000000000000081167fbc197c8100000000000000000000000000000000000000000000000000000000146114905760405162461bcd60e51b815260040161014d906142ca565b505b505050505050565b6000826114a95750600061030a565b828202828482816114b657fe5b04146114d45760405162461bcd60e51b815260040161014d90613cd3565b9392505050565b6000828201838110156114d45760405162461bcd60e51b815260040161014d90613877565b60005460609060ff166115255760405162461bcd60e51b815260040161014d906144c1565b6000805460ff191690554283101561154f5760405162461bcd60e51b815260040161014d90613ea4565b8551848167ffffffffffffffff8111801561156957600080fd5b50604051908082528060200260200182016040528015611593578160200160208202803683370190505b50925060608267ffffffffffffffff811180156115af57600080fd5b506040519080825280602002602001820160405280156115d9578160200160208202803683370190505b5090506115e5896125fd565b905060005b838110156116c85760008a828151811061160057fe5b6020026020010151905060008a838151811061161857fe5b60200260200101519050600084848151811061163057fe5b602002602001015190506000821161165a5760405162461bcd60e51b815260040161014d90613b5f565b6000838152600860205260408120549061167584838561112d565b90506116818882612588565b9750808a878151811061169057fe5b60209081029190910101526116a582826114db565b600095865260086020526040909520949094555050600190920191506115ea9050565b50811561175157600480546006546040517ff242432a0000000000000000000000000000000000000000000000000000000081526001600160a01b039092169263f242432a9261171e9230928b92899101613543565b600060405180830381600087803b15801561173857600080fd5b505af115801561174c573d6000803e3d6000fd5b505050505b6003546040517f2eb2c2d60000000000000000000000000000000000000000000000000000000081526001600160a01b0390911690632eb2c2d6906117a090309089908e908e906004016134eb565b600060405180830381600087803b1580156117ba57600080fd5b505af11580156117ce573d6000803e3d6000fd5b505050505050506000805460ff1916600117905595945050505050565b60005460609060ff166118105760405162461bcd60e51b815260040161014d906144c1565b6000805460ff1916905585514284101561183c5760405162461bcd60e51b815260040161014d906137bd565b60008167ffffffffffffffff8111801561185557600080fd5b5060405190808252806020026020018201604052801561187f578160200160208202803683370190505b50925060608267ffffffffffffffff8111801561189b57600080fd5b506040519080825280602002602001820160405280156118c5578160200160208202803683370190505b5090506118d1896125fd565b905060005b838110156119bd5760008a82815181106118ec57fe5b6020026020010151905060008a838151811061190457fe5b60200260200101519050600084848151811061191c57fe5b60200260200101519050600082116119465760405162461bcd60e51b815260040161014d90613e47565b6000838152600860205260408120549061196a846119648582612588565b846106cc565b905061197688826114db565b97506119828282612588565b600086815260086020526040902055895181908b90889081106119a157fe5b60209081029190910101525050600190930192506118d6915050565b50868210156119de5760405162461bcd60e51b815260040161014d90613c19565b600480546006546040517ff242432a0000000000000000000000000000000000000000000000000000000081526001600160a01b039092169263f242432a926117a09230928b92899101613543565b60005460ff16611a4f5760405162461bcd60e51b815260040161014d906144c1565b6000805460ff1916905542811015611a795760405162461bcd60e51b815260040161014d90613bbc565b8351600060608267ffffffffffffffff81118015611a9657600080fd5b50604051908082528060200260200182016040528015611ac0578160200160208202803683370190505b50905060608367ffffffffffffffff81118015611adc57600080fd5b50604051908082528060200260200182016040528015611b06578160200160208202803683370190505b50905060608467ffffffffffffffff81118015611b2257600080fd5b50604051908082528060200260200182016040528015611b4c578160200160208202803683370190505b509050611b58896125fd565b905060005b85811015611e365760008a8281518110611b7357fe5b6020026020010151905060008a8381518110611b8b57fe5b6020026020010151905060008a8481518110611ba357fe5b602002602001015111611bc85760405162461bcd60e51b815260040161014d90614156565b60008111611be85760405162461bcd60e51b815260040161014d90613f84565b60045474010000000000000000000000000000000000000000900460ff1615611c2d57600654821415611c2d5760405162461bcd60e51b815260040161014d90613d8d565b6000828152600760205260409020548015611d89576000838152600860205260408120548651909190879087908110611c6257fe5b60200260200101519050600080611c94611c85858861149a90919063ffffffff16565b611c8f8589612588565b6125b0565b91509150818f8981518110611ca557fe5b60200260200101511015611ccb5760405162461bcd60e51b815260040161014d906136a6565b611cd584836114db565b600088815260086020526040902055611cee8c836114db565b9b5083611d118661116c84611d04576000611d07565b60015b869060ff16612588565b81611d1857fe5b048b8981518110611d2557fe5b602002602001018181525050818a8981518110611d3e57fe5b602002602001018181525050611d708b8981518110611d5957fe5b6020026020010151866114db90919063ffffffff16565b60008881526007602052604090205550611e2b92505050565b60008b8581518110611d9757fe5b60200260200101519050633b9aca00811015611dc55760405162461bcd60e51b815260040161014d9061426d565b6000848152600860205260409020819055611de089826114db565b600085815260076020526040902082905588519099508190899087908110611e0457fe5b60200260200101818152505080878681518110611e1d57fe5b602002602001018181525050505b505050600101611b5d565b50611e528a8a8560405180602001604052806000815250612897565b6004546006546040516001600160a01b039092169163f242432a918d913091908990611ea2907fc8c323f90000000000000000000000000000000000000000000000000000000090602001613679565b6040516020818303038152906040526040518663ffffffff1660e01b8152600401611ed19594939291906134a8565b600060405180830381600087803b158015611eeb57600080fd5b505af1158015611eff573d6000803e3d6000fd5b50505050896001600160a01b03167f403f9dc4582dae52d3eeb4a22d37540ffb13c32d964c92ec5ac0d3d5628da3168a8a85604051611f4093929190613635565b60405180910390a250506000805460ff191660011790555050505050505050565b60005460ff16611f835760405162461bcd60e51b815260040161014d906144c1565b6000805460ff19169055428111611fac5760405162461bcd60e51b815260040161014d90613aa5565b8451600060608267ffffffffffffffff81118015611fc957600080fd5b50604051908082528060200260200182016040528015611ff3578160200160208202803683370190505b50905060608367ffffffffffffffff8111801561200f57600080fd5b50604051908082528060200260200182016040528015612039578160200160208202803683370190505b50905060608467ffffffffffffffff8111801561205557600080fd5b5060405190808252806020026020018201604052801561207f578160200160208202803683370190505b50905061208b8a6125fd565b905060005b8581101561223c5760008b82815181106120a657fe5b6020026020010151905060008b83815181106120be57fe5b6020026020010151905060008484815181106120d657fe5b60200260200101519050600060076000858152602001908152602001600020549050600081116121185760405162461bcd60e51b815260040161014d90614210565b6000848152600860205260408120549082612133868461149a565b8161213a57fe5b04905060008361214a878761149a565b8161215157fe5b0490508f888151811061216057fe5b60200260200101518210156121875760405162461bcd60e51b815260040161014d9061381a565b8e888151811061219357fe5b60200260200101518110156121ba5760405162461bcd60e51b815260040161014d90613d30565b6121c48487612588565b6000888152600760205260409020556121dd8383612588565b6000888152600860205260409020556121f68c836114db565b9b50808b898151811061220557fe5b602002602001018181525050818a898151811061221e57fe5b60209081029190910101525050600190950194506120909350505050565b50612248308b8b6129c3565b600460009054906101000a90046001600160a01b03166001600160a01b031663f242432a308d600654886040518563ffffffff1660e01b81526004016122919493929190613543565b600060405180830381600087803b1580156122ab57600080fd5b505af11580156122bf573d6000803e3d6000fd5b50506003546040517f2eb2c2d60000000000000000000000000000000000000000000000000000000081526001600160a01b039091169250632eb2c2d691506123129030908f908f9089906004016134eb565b600060405180830381600087803b15801561232c57600080fd5b505af1158015612340573d6000803e3d6000fd5b505050508a6001600160a01b03167f711e9bcb94b4cf7bc99c1cb938edc75ac7e85a136838e90abf6ee1f5adebd4238b858560405161238193929190613635565b60405180910390a250506000805460ff19166001179055505050505050505050565b6001600160a01b03841660009081526001602090815260408083208584529091529020546123d19082612588565b6001600160a01b03808616600090815260016020818152604080842088855282528084209590955592871682528252828120858252909152205461241590826114db565b6001600160a01b038085166000818152600160209081526040808320888452909152908190209390935591519086169033907fc3d58168c5ae7397731d063d5bbf3d657854427343f4c083240f7aacaa2d0f6290612476908790879061463e565b60405180910390a450505050565b612496856001600160a01b03166125f7565b15611492576000856001600160a01b031663f23a6e6184338a8989886040518763ffffffff1660e01b81526004016124d29594939291906134a8565b602060405180830381600088803b1580156124ec57600080fd5b5087f1158015612500573d6000803e3d6000fd5b50505050506040513d601f19601f820116820180604052508101906125259190613073565b90507fffffffff0000000000000000000000000000000000000000000000000000000081167ff23a6e6100000000000000000000000000000000000000000000000000000000146114905760405162461bcd60e51b815260040161014d90614407565b6000828211156125aa5760405162461bcd60e51b815260040161014d90613a6e565b50900390565b6000808284816125bc57fe5b06156125de576125d760018486816125d057fe5b04906114db565b60016125eb565b8284816125e757fe5b0460005b915091505b9250929050565b3b151590565b805160609060018114156126e45760408051600180825281830190925260609160208083019080368337505060035486519293506001600160a01b03169162fdd58e91503090879060009061264e57fe5b60200260200101516040518363ffffffff1660e01b815260040161267392919061357b565b60206040518083038186803b15801561268b57600080fd5b505afa15801561269f573d6000803e3d6000fd5b505050506040513d601f19601f820116820180604052508101906126c39190613350565b816000815181106126d057fe5b602090810291909101015291506103f29050565b60608167ffffffffffffffff811180156126fd57600080fd5b50604051908082528060200260200182016040528015612727578160200160208202803683370190505b509050308160008151811061273857fe5b6001600160a01b039092166020928302919091019091015260015b828110156127d05784818151811061276757fe5b602002602001015185600183038151811061277e57fe5b6020026020010151106127a35760405162461bcd60e51b815260040161014d90613f01565b308282815181106127b057fe5b6001600160a01b0390921660209283029190910190910152600101612753565b506003546040517f4e1273f40000000000000000000000000000000000000000000000000000000081526001600160a01b0390911690634e1273f49061281c9084908890600401613594565b60006040518083038186803b15801561283457600080fd5b505afa158015612848573d6000803e3d6000fd5b505050506040513d6000823e601f3d9081017fffffffffffffffffffffffffffffffffffffffffffffffffffffffffffffffe016820160405261288e919081019061301c565b925050506103f2565b81518351146128b85760405162461bcd60e51b815260040161014d906141b3565b825160005b8181101561295b5761290f8482815181106128d457fe5b602002602001015160016000896001600160a01b03166001600160a01b0316815260200190815260200160002060008885815181106112bc57fe5b6001600160a01b0387166000908152600160205260408120875190919088908590811061293857fe5b6020908102919091018101518252810191909152604001600020556001016128bd565b50846001600160a01b031660006001600160a01b0316336001600160a01b03167f4a39dc06d4c0dbc64b70af90fd698a233a518aa5d07e595d983b8c0526c8f7fb87876040516129ac929190613607565b60405180910390a46105b760008686865a8761138c565b8151815181146129e55760405162461bcd60e51b815260040161014d90613dea565b60005b81811015612a8657612a3a8382815181106129ff57fe5b602002602001015160016000886001600160a01b03166001600160a01b03168152602001908152602001600020600087858151811061120a57fe5b6001600160a01b03861660009081526001602052604081208651909190879085908110612a6357fe5b6020908102919091018101518252810191909152604001600020556001016129e8565b5060006001600160a01b0316846001600160a01b0316336001600160a01b03167f4a39dc06d4c0dbc64b70af90fd698a233a518aa5d07e595d983b8c0526c8f7fb8686604051612476929190613607565b604051806080016040528060006001600160a01b031681526020016060815260200160608152602001600081525090565b604051806060016040528060006001600160a01b0316815260200160008152602001600081525090565b604051806040016040528060608152602001600081525090565b60405180606001604052806060815260200160608152602001600081525090565b80516103f28161468e565b60008083601f840112612b89578081fd5b50813567ffffffffffffffff811115612ba0578182fd5b60208301915083602080830285010111156125f057600080fd5b600082601f830112612bca578081fd5b8135612bdd612bd882614670565b61464c565b818152915060208083019084810181840286018201871015612bfe57600080fd5b60005b84811015612c1d57813584529282019290820190600101612c01565b505050505092915050565b600082601f830112612c38578081fd5b8151612c46612bd882614670565b818152915060208083019084810181840286018201871015612c6757600080fd5b60005b84811015612c1d57815184529282019290820190600101612c6a565b600082601f830112612c96578081fd5b813567ffffffffffffffff811115612caa57fe5b612cdb60207fffffffffffffffffffffffffffffffffffffffffffffffffffffffffffffffe0601f8401160161464c565b9150808252836020828501011115612cf257600080fd5b8060208401602084013760009082016020015292915050565b60008060408385031215612d1d578182fd5b8235612d288161468e565b91506020830135612d388161468e565b809150509250929050565b600080600080600060a08688031215612d5a578081fd5b8535612d658161468e565b94506020860135612d758161468e565b9350604086013567ffffffffffffffff80821115612d91578283fd5b612d9d89838a01612bba565b94506060880135915080821115612db2578283fd5b612dbe89838a01612bba565b93506080880135915080821115612dd3578283fd5b50612de088828901612c86565b9150509295509295909350565b600080600080600060a08688031215612e04578081fd5b8535612e0f8161468e565b94506020860135612e1f8161468e565b93506040860135925060608601359150608086013567ffffffffffffffff811115612e48578182fd5b612de088828901612c86565b60008060408385031215612e66578182fd5b8235612e718161468e565b915060208301358015158114612d38578182fd5b60008060408385031215612e97578182fd5b8235612ea28161468e565b946020939093013593505050565b60008060408385031215612ec2578182fd5b823567ffffffffffffffff80821115612ed9578384fd5b818501915085601f830112612eec578384fd5b8135612efa612bd882614670565b80828252602080830192508086018a828387028901011115612f1a578889fd5b8896505b84871015612f45578035612f318161468e565b845260019690960195928101928101612f1e565b509096508701359350505080821115612f5c578283fd5b50612f6985828601612bba565b9150509250929050565b60008060208385031215612f85578182fd5b823567ffffffffffffffff811115612f9b578283fd5b612fa785828601612b78565b90969095509350505050565b60008060008060408587031215612fc8578182fd5b843567ffffffffffffffff80821115612fdf578384fd5b612feb88838901612b78565b90965094506020870135915080821115613003578384fd5b5061301087828801612b78565b95989497509550505050565b60006020828403121561302d578081fd5b815167ffffffffffffffff811115613043578182fd5b61304f84828501612c28565b949350505050565b600060208284031215613068578081fd5b81356114d4816146a6565b600060208284031215613084578081fd5b81516114d4816146a6565b600080604083850312156130a1578182fd5b82516130ac816146a6565b602084015190925067ffffffffffffffff808211156130c9578283fd5b90840190604082870312156130dc578283fd5b6040516040810181811083821117156130f157fe5b604052825182811115613102578485fd5b61310e88828601612c28565b825250602083015160208201528093505050509250929050565b6000806040838503121561313a578182fd5b8251613145816146a6565b602084015190925067ffffffffffffffff80821115613162578283fd5b9084019060808287031215613175578283fd5b60405160808101818110838211171561318a57fe5b60405261319683612b6d565b81526020830151828111156131a9578485fd5b6131b588828601612c28565b6020830152506040830151828111156131cc578485fd5b6131d888828601612c28565b604083015250606083015160608201528093505050509250929050565b60008060408385031215613207578182fd5b8251613212816146a6565b602084015190925067ffffffffffffffff8082111561322f578283fd5b9084019060608287031215613242578283fd5b60405160608101818110838211171561325757fe5b604052825182811115613268578485fd5b61327488828601612c28565b825250602083015182811115613288578485fd5b61329488828601612c28565b602083015250604083015160408201528093505050509250929050565b60008082840360808112156132c4578283fd5b83516132cf816146a6565b925060607fffffffffffffffffffffffffffffffffffffffffffffffffffffffffffffffe082011215613300578182fd5b506040516060810181811067ffffffffffffffff8211171561331e57fe5b604052602084015161332f8161468e565b81526040848101516020830152606090940151938101939093525092909150565b600060208284031215613361578081fd5b5051919050565b60008060006060848603121561337c578081fd5b505081359360208301359350604090920135919050565b6000815180845260208085019450808401835b838110156133c2578151875295820195908201906001016133a6565b509495945050505050565b60008151808452815b818110156133f2576020818501810151868301820152016133d6565b818111156134035782602083870101525b50601f017fffffffffffffffffffffffffffffffffffffffffffffffffffffffffffffffe0169290920160200192915050565b6001600160a01b0391909116815260200190565b60006001600160a01b03808816835280871660208401525060a0604083015261347660a0830186613393565b82810360608401526134888186613393565b9050828103608084015261349c81856133cd565b98975050505050505050565b60006001600160a01b03808816835280871660208401525084604083015283606083015260a060808301526134e060a08301846133cd565b979650505050505050565b60006001600160a01b03808716835280861660208401525060a0604083015261351760a0830185613393565b82810360608401526135298185613393565b838103608090940193909352508152602001949350505050565b6001600160a01b0394851681529290931660208301526040820152606081019190915260a06080820181905260009082015260c00190565b6001600160a01b03929092168252602082015260400190565b604080825283519082018190526000906020906060840190828701845b828110156135d65781516001600160a01b0316845292840192908401906001016135b1565b505050838103828501526135ea8186613393565b9695505050505050565b6000602082526114d46020830184613393565b60006040825261361a6040830185613393565b828103602084015261362c8185613393565b95945050505050565b6000606082526136486060830186613393565b828103602084015261365a8186613393565b905082810360408401526135ea8185613393565b901515815260200190565b7fffffffff0000000000000000000000000000000000000000000000000000000091909116815260200190565b6020808252603a908201527f556e6967656d45786368616e6765235f6164644c69717569646974793a204d4160408201527f585f43555252454e43595f414d4f554e545f4558434545444544000000000000606082015260800190565b6020808252602b908201527f4552433131353523736166655472616e7366657246726f6d3a20494e56414c4960408201527f445f524543495049454e54000000000000000000000000000000000000000000606082015260800190565b60208082526021908201527f556e6967656d45786368616e67653a554e535550504f525445445f4d4554484f60408201527f4400000000000000000000000000000000000000000000000000000000000000606082015260800190565b60208082526032908201527f556e6967656d45786368616e6765235f746f6b656e546f43757272656e63793a60408201527f20444541444c494e455f45584345454445440000000000000000000000000000606082015260800190565b6020808252603d908201527f556e6967656d45786368616e6765235f72656d6f76654c69717569646974793a60408201527f20494e53554646494349454e545f43555252454e43595f414d4f554e54000000606082015260800190565b6020808252601b908201527f536166654d6174683a206164646974696f6e206f766572666c6f770000000000604082015260600190565b6020808252602a908201527f4552433131353523736166655472616e7366657246726f6d3a20494e56414c4960408201527f445f4f50455241544f5200000000000000000000000000000000000000000000606082015260800190565b60208082526041908201527f556e6967656d45786368616e6765236f6e45524331313535426174636852656360408201527f65697665643a20494e56414c49445f544f4b454e535f5452414e53464552524560608201527f4400000000000000000000000000000000000000000000000000000000000000608082015260a00190565b60208082526042908201527f556e6967656d45786368616e6765236f6e45524331313535426174636852656360408201527f65697665643a20494e56414c49445f43555252454e43595f4944535f414d4f5560608201527f4e54000000000000000000000000000000000000000000000000000000000000608082015260a00190565b60208082526035908201527f45524331313535235f7361666542617463685472616e7366657246726f6d3a2060408201527f494e56414c49445f4152524159535f4c454e4754480000000000000000000000606082015260800190565b6020808252601e908201527f536166654d6174683a207375627472616374696f6e206f766572666c6f770000604082015260600190565b60208082526032908201527f556e6967656d45786368616e6765235f72656d6f76654c69717569646974793a60408201527f20444541444c494e455f45584345454445440000000000000000000000000000606082015260800190565b60208082526029908201527f556e6967656d45786368616e67652367657442757950726963653a20454d505460408201527f595f524553455256450000000000000000000000000000000000000000000000606082015260800190565b60208082526033908201527f556e6967656d45786368616e6765235f63757272656e6379546f546f6b656e3a60408201527f204e554c4c5f544f4b454e535f424f5547485400000000000000000000000000606082015260800190565b6020808252602f908201527f556e6967656d45786368616e6765235f6164644c69717569646974793a20444560408201527f41444c494e455f45584345454445440000000000000000000000000000000000606082015260800190565b6020808252603d908201527f556e6967656d45786368616e6765235f746f6b656e546f43757272656e63793a60408201527f20494e53554646494349454e545f43555252454e43595f414d4f554e54000000606082015260800190565b60208082526030908201527f45524331313535237361666542617463685472616e7366657246726f6d3a204960408201527f4e56414c49445f524543495049454e5400000000000000000000000000000000606082015260800190565b60208082526021908201527f536166654d6174683a206d756c7469706c69636174696f6e206f766572666c6f60408201527f7700000000000000000000000000000000000000000000000000000000000000606082015260800190565b60208082526034908201527f556e6967656d45786368616e6765235f72656d6f76654c69717569646974793a60408201527f20494e53554646494349454e545f544f4b454e53000000000000000000000000606082015260800190565b60208082526035908201527f556e6967656d45786368616e6765235f6164644c69717569646974793a20435560408201527f5252454e43595f504f4f4c5f464f5242494444454e0000000000000000000000606082015260800190565b60208082526030908201527f455243313135354d696e744275726e2362617463684275726e3a20494e56414c60408201527f49445f4152524159535f4c454e47544800000000000000000000000000000000606082015260800190565b60208082526031908201527f556e6967656d45786368616e6765235f746f6b656e546f43757272656e63793a60408201527f204e554c4c5f544f4b454e535f534f4c44000000000000000000000000000000606082015260800190565b60208082526032908201527f556e6967656d45786368616e6765235f63757272656e6379546f546f6b656e3a60408201527f20444541444c494e455f45584345454445440000000000000000000000000000606082015260800190565b60208082526041908201527f556e6967656d45786368616e6765235f676574546f6b656e526573657276657360408201527f3a20554e534f525445445f4f525f4455504c49434154455f544f4b454e5f494460608201527f5300000000000000000000000000000000000000000000000000000000000000608082015260a00190565b60208082526030908201527f556e6967656d45786368616e6765235f6164644c69717569646974793a204e5560408201527f4c4c5f544f4b454e535f414d4f554e5400000000000000000000000000000000606082015260800190565b6020808252602c908201527f455243313135352362616c616e63654f6642617463683a20494e56414c49445f60408201527f41525241595f4c454e4754480000000000000000000000000000000000000000606082015260800190565b6020808252602f908201527f45524331313535237361666542617463685472616e7366657246726f6d3a204960408201527f4e56414c49445f4f50455241544f520000000000000000000000000000000000606082015260800190565b6020808252602a908201527f556e6967656d45786368616e67652367657453656c6c50726963653a20454d5060408201527f54595f5245534552564500000000000000000000000000000000000000000000606082015260800190565b602080825260409082018190527f556e6967656d45786368616e6765236f6e455243313135354261746368526563908201527f65697665643a20494e56414c49445f544f4b454e5f5452414e53464552524544606082015260800190565b6020808252602f908201527f556e6967656d45786368616e6765235f6164644c69717569646974793a204e5560408201527f4c4c5f4d41585f43555252454e43590000000000000000000000000000000000606082015260800190565b60208082526030908201527f455243313135354d696e744275726e2362617463684d696e743a20494e56414c60408201527f49445f4152524159535f4c454e47544800000000000000000000000000000000606082015260800190565b60208082526035908201527f556e6967656d45786368616e6765235f72656d6f76654c69717569646974793a60408201527f204e554c4c5f544f54414c5f4c49515549444954590000000000000000000000606082015260800190565b60208082526035908201527f556e6967656d45786368616e6765235f6164644c69717569646974793a20494e60408201527f56414c49445f43555252454e43595f414d4f554e540000000000000000000000606082015260800190565b6020808252603f908201527f45524331313535235f63616c6c6f6e455243313135354261746368526563656960408201527f7665643a20494e56414c49445f4f4e5f524543454956455f4d45535341474500606082015260800190565b60208082526043908201527f556e6967656d45786368616e6765236f6e45524331313535426174636852656360408201527f65697665643a20494e56414c49445f43555252454e43595f5452414e5346455260608201527f5245440000000000000000000000000000000000000000000000000000000000608082015260a00190565b6020808252603f908201527f556e6967656d45786368616e6765236f6e45524331313535426174636852656360408201527f65697665643a20494e56414c49445f544f4b454e535f4445504f534954454400606082015260800190565b6020808252603a908201527f45524331313535235f63616c6c6f6e4552433131353552656365697665643a2060408201527f494e56414c49445f4f4e5f524543454956455f4d455353414745000000000000606082015260800190565b6020808252603a908201527f556e6967656d45786368616e6765236f6e45524331313535426174636852656360408201527f65697665643a20494e56414c49445f43555252454e43595f4944000000000000606082015260800190565b6020808252601f908201527f5265656e7472616e637947756172643a207265656e7472616e742063616c6c00604082015260600190565b60208082526035908201527f556e6967656d45786368616e6765236f6e45524331313535426174636852656360408201527f65697665643a20494e56414c49445f4d4554484f440000000000000000000000606082015260800190565b60208082526046908201527f556e6967656d45786368616e6765236f6e45524331313535426174636852656360408201527f65697665643a20494e56414c49445f5547454d5f544f4b454e535f5452414e5360608201527f4645525245440000000000000000000000000000000000000000000000000000608082015260a00190565b6020808252603c908201527f556e6967656d45786368616e6765236f6e45524331313535526563656976656460408201527f3a20494e56414c49445f4f4e52454345495645445f4d45535341474500000000606082015260800190565b90815260200190565b918252602082015260400190565b60405181810167ffffffffffffffff8111828210171561466857fe5b604052919050565b600067ffffffffffffffff82111561468457fe5b5060209081020190565b6001600160a01b03811681146146a357600080fd5b50565b7fffffffff00000000000000000000000000000000000000000000000000000000811681146146a357600080fdfea2646970667358221220b08c79c8190fcb1e98a5302bde97049f004f80caea39b82469371db8b54903f764736f6c63430007030033556e6967656d466163746f72792363726561746545786368616e67653a2045584348414e47455f414c52454144595f43524541544544a264697066735822122041b4c6f01ef342cb517753677ae98fa169a0b7b0b1d776760f593ebc736cfbf764736f6c63430007030033",
  "libraries": {
    "GovernanceLib": "0x8B4207A13a5a13bDb2bBf15c137820e61e3c4AAc",
    "Strings": "0x98cCd9cb27398a6595f15cbC4b63AC525b942aad",
    "SafeMath": "0xD34a551B4a262230a373D376dDf8aADb2B0D49FD",
    "AddressSet": "0x54812B41409912bD065E9d3920ce196Ff9BFc995",
    "UInt256Set": "0xA511e209A01E27d134b4F564263f7Db8FCBDeba6",
    "Create2": "0x358266069e53B88520472B2898791A77d92E4054",
    "ProposalsLib": "0xF4899C94a0319825b341775E4387b1C5081b9d1B",
    "ComplexPoolLib": "0xd8bf0D941FC41e44f383d78183807669c230BDed",
    "WrappedTokenLib": "0xbAfcEF1739ab31E775687D657178640124A20E8e"
  },
  "devdoc": {
    "kind": "dev",
    "methods": {
      "createExchange(address,address,uint256)": {
        "params": {
          "_currency": "The address of the currency token contract",
          "_currencyID": "The id of the currency token",
          "_token": "The address of the ERC-1155 token contract"
        }
      }
    },
    "stateVariables": {
      "tokensToExchange": {
        "params": {
          "_currency": "The address of the currency token contract",
          "_currencyID": "The id of the currency token",
          "_token": "The address of the ERC-1155 token contract"
        }
      }
    },
    "version": 1
  },
  "userdoc": {
    "kind": "user",
    "methods": {
      "createExchange(address,address,uint256)": {
        "notice": "Creates a Unigem1155 Exchange for given token contract"
      },
      "tokensToExchange(address,address,uint256)": {
        "notice": "Return address of exchange for corresponding ERC-1155 token contract"
      }
    },
    "version": 1
  },
  "storageLayout": {
    "storage": [
      {
        "astId": 14214,
        "contract": "src/factories/Unigem1155Factory.sol:Unigem1155Factory",
        "label": "tokensToExchange",
        "offset": 0,
        "slot": "0",
        "type": "t_mapping(t_address,t_mapping(t_address,t_mapping(t_uint256,t_address)))"
      }
    ],
    "types": {
      "t_address": {
        "encoding": "inplace",
        "label": "address",
        "numberOfBytes": "20"
      },
      "t_mapping(t_address,t_mapping(t_address,t_mapping(t_uint256,t_address)))": {
        "encoding": "mapping",
        "key": "t_address",
        "label": "mapping(address => mapping(address => mapping(uint256 => address)))",
        "numberOfBytes": "32",
        "value": "t_mapping(t_address,t_mapping(t_uint256,t_address))"
      },
      "t_mapping(t_address,t_mapping(t_uint256,t_address))": {
        "encoding": "mapping",
        "key": "t_address",
        "label": "mapping(address => mapping(uint256 => address))",
        "numberOfBytes": "32",
        "value": "t_mapping(t_uint256,t_address)"
      },
      "t_mapping(t_uint256,t_address)": {
        "encoding": "mapping",
        "key": "t_uint256",
        "label": "mapping(uint256 => address)",
        "numberOfBytes": "32",
        "value": "t_address"
      },
      "t_uint256": {
        "encoding": "inplace",
        "label": "uint256",
        "numberOfBytes": "32"
      }
    }
  }
}