{
  "address": "0x505eAB258e22a2aa2Bf4Cad89e9563b8DADFAEEd",
  "abi": [
    {
      "inputs": [
        {
          "internalType": "address",
          "name": "multitoken",
          "type": "address"
        },
        {
          "internalType": "address[]",
          "name": "recipients",
          "type": "address[]"
        },
        {
          "internalType": "uint256[]",
          "name": "gquantities",
          "type": "uint256[]"
        },
        {
          "internalType": "uint256[]",
          "name": "fquantities",
          "type": "uint256[]"
        }
      ],
      "name": "bulkMintGovFuel",
      "outputs": [],
      "stateMutability": "nonpayable",
      "type": "function"
    },
    {
      "inputs": [
        {
          "internalType": "address",
          "name": "multitoken",
          "type": "address"
        },
        {
          "internalType": "address[]",
          "name": "recipients",
          "type": "address[]"
        },
        {
          "internalType": "uint256",
          "name": "tokenHash",
          "type": "uint256"
        },
        {
          "internalType": "uint256[]",
          "name": "quantities",
          "type": "uint256[]"
        }
      ],
      "name": "bulkMintToken",
      "outputs": [],
      "stateMutability": "nonpayable",
      "type": "function"
    }
  ],
  "transactionHash": "0x733d5ba3f2f8ca792fb45453e7a24582031c541700ed43e75af911c38959df23",
  "args": [],
  "solcInputHash": "8dfe14931da0b3c7be6207c10ae7e818",
  "bytecode": "0x608060405234801561001057600080fd5b5061057d806100206000396000f3fe608060405234801561001057600080fd5b50600436106100365760003560e01c80635120555b1461003b578063f06efa59146101f8575b600080fd5b6101f66004803603608081101561005157600080fd5b6001600160a01b03823516919081019060408101602082013564010000000081111561007c57600080fd5b82018360208201111561008e57600080fd5b803590602001918460208302840111640100000000831117156100b057600080fd5b919080806020026020016040519081016040528093929190818152602001838360200280828437600092019190915250929594936020810193503591505064010000000081111561010057600080fd5b82018360208201111561011257600080fd5b8035906020019184602083028401116401000000008311171561013457600080fd5b919080806020026020016040519081016040528093929190818152602001838360200280828437600092019190915250929594936020810193503591505064010000000081111561018457600080fd5b82018360208201111561019657600080fd5b803590602001918460208302840111640100000000831117156101b857600080fd5b919080806020026020016040519081016040528093929190818152602001838360200280828437600092019190915250929550610337945050505050565b005b6101f66004803603608081101561020e57600080fd5b6001600160a01b03823516919081019060408101602082013564010000000081111561023957600080fd5b82018360208201111561024b57600080fd5b8035906020019184602083028401116401000000008311171561026d57600080fd5b919080806020026020016040519081016040528093929190818152602001838360200280828437600092019190915250929584359590949093506040810192506020013590506401000000008111156102c557600080fd5b8201836020820111156102d757600080fd5b803590602001918460208302840111640100000000831117156102f957600080fd5b919080806020026020016040519081016040528093929190818152602001838360200280828437600092019190915250929550610492945050505050565b60005b835181101561048b57846001600160a01b031663156e29f685838151811061035e57fe5b6020026020010151600086858151811061037457fe5b60200260200101516040518463ffffffff1660e01b815260040180846001600160a01b031681526020018381526020018281526020019350505050600060405180830381600087803b1580156103c957600080fd5b505af11580156103dd573d6000803e3d6000fd5b50505050846001600160a01b031663156e29f68583815181106103fc57fe5b6020026020010151600185858151811061041257fe5b60200260200101516040518463ffffffff1660e01b815260040180846001600160a01b031681526020018381526020018281526020019350505050600060405180830381600087803b15801561046757600080fd5b505af115801561047b573d6000803e3d6000fd5b50506001909201915061033a9050565b5050505050565b60005b835181101561048b57846001600160a01b031663156e29f68583815181106104b957fe5b6020026020010151858585815181106104ce57fe5b60200260200101516040518463ffffffff1660e01b815260040180846001600160a01b031681526020018381526020018281526020019350505050600060405180830381600087803b15801561052357600080fd5b505af1158015610537573d6000803e3d6000fd5b505060019092019150610495905056fea2646970667358221220ab8b45ca7ade5ee9c38009f5f3310c1a0f988128e346ba1af9aff2c1c6974e1964736f6c63430007030033",
  "libraries": {
    "GovernanceLib": "0xb91C2202c752dA64D22Cf41C0127Eb3A7355E0BB",
    "Strings": "0x2ad5A3334C3aa057A6BCD21bdcb57bC5903afe06",
    "SafeMath": "0x9Dde7f92Dc83363ceb0ECE7CFa2734F3345ea56F",
    "AddressSet": "0x666df3C9710Eb253c79B3974Dd8612Ac67D73910",
    "UInt256Set": "0xd01Fea6FDB1490aae498355A1b2e87aafAB969c0",
    "Create2": "0x9C5781f99977c29DE10B42234fD4b5E8073cB774",
    "ProposalsLib": "0xc39b39672d9f51f95aB47e831dfc1Df55Bf2C32a",
    "ComplexPoolLib": "0xA7316b7b1dc94EdebC9C40253DD9Ea7f518E8064",
    "WrappedTokenLib": "0x85F320003095a8eA58538C811cB3c0E65566c1fe",
    "Unigem20Library": "0xC7F21B7977897CE95cD9B7E193e8750ee7D9943a"
  },
  "devdoc": {
    "kind": "dev",
    "methods": {},
    "version": 1
  },
  "userdoc": {
    "kind": "user",
    "methods": {},
    "version": 1
  },
  "storageLayout": {
    "storage": [],
    "types": null
  }
}