{
  "address": "0x85F320003095a8eA58538C811cB3c0E65566c1fe",
  "abi": [
    {
      "anonymous": false,
      "inputs": [
        {
          "indexed": true,
          "internalType": "address",
          "name": "account",
          "type": "address"
        },
        {
          "indexed": false,
          "internalType": "uint256",
          "name": "quantity",
          "type": "uint256"
        }
      ],
      "name": "Unwrap",
      "type": "event"
    },
    {
      "anonymous": false,
      "inputs": [
        {
          "indexed": true,
          "internalType": "address",
          "name": "account",
          "type": "address"
        },
        {
          "indexed": false,
          "internalType": "uint256",
          "name": "quantity",
          "type": "uint256"
        }
      ],
      "name": "Wrap",
      "type": "event"
    },
    {
      "inputs": [
        {
          "internalType": "address",
          "name": "erc1155token",
          "type": "address"
        },
        {
          "internalType": "address",
          "name": "tokenPool",
          "type": "address"
        },
        {
          "internalType": "enum INFTGemMultiToken.TokenType",
          "name": "tokenType",
          "type": "INFTGemMultiToken.TokenType"
        },
        {
          "internalType": "address",
          "name": "account",
          "type": "address"
        }
      ],
      "name": "getPoolTypeBalance",
      "outputs": [
        {
          "internalType": "uint256",
          "name": "tq",
          "type": "uint256"
        }
      ],
      "stateMutability": "view",
      "type": "function"
    }
  ],
  "transactionHash": "0x2b3e25ab2de41aadcbad52d5f26db49cc750bdd7f551bd686ea9d73befa96e3c",
  "args": [],
  "solcInputHash": "8dfe14931da0b3c7be6207c10ae7e818",
  "bytecode": "0x610a7b610026600b82828239805160001a60731461001957fe5b30600052607381538281f3fe73000000000000000000000000000000000000000030146080604052600436106100405760003560e01c80636680f78e14610045578063b801a46314610096575b600080fd5b6100846004803603608081101561005b57600080fd5b506001600160a01b038135811691602081013582169160ff6040830135169160600135166100e1565b60408051918252519081900360200190f35b8180156100a257600080fd5b506100df600480360360808110156100b957600080fd5b508035906001600160a01b03602082013581169160408101359091169060600135610398565b005b60006060856001600160a01b031663de0099a3846040518263ffffffff1660e01b815260040180826001600160a01b0316815260200191505060006040518083038186803b15801561013257600080fd5b505afa158015610146573d6000803e3d6000fd5b505050506040513d6000823e601f3d908101601f19168201604052602081101561016f57600080fd5b810190808051604051939291908464010000000082111561018f57600080fd5b9083019060208201858111156101a457600080fd5b82518660208202830111640100000000821117156101c157600080fd5b82525081516020918201928201910280838360005b838110156101ee5781810151838201526020016101d6565b5050505090500160405250505090506000600182510390505b600082828151811061021557fe5b60200260200101519050600080896001600160a01b031663b09afec1846040518263ffffffff1660e01b815260040180828152602001915050604080518083038186803b15801561026557600080fd5b505afa158015610279573d6000803e3d6000fd5b505050506040513d604081101561028f57600080fd5b50805160209091015190925090508760028111156102a957fe5b8260028111156102b557fe5b1480156102d35750886001600160a01b0316816001600160a01b0316145b1561036a5760008a6001600160a01b031662fdd58e89866040518363ffffffff1660e01b815260040180836001600160a01b031681526020018281526020019250505060206040518083038186803b15801561032e57600080fd5b505afa158015610342573d6000803e3d6000fd5b505050506040513d602081101561035857600080fd5b50519050610366878261094d565b9650505b836103775750505061038e565b50610387915082905060016109ae565b9050610207565b5050949350505050565b6001600160a01b0382166000908152600785016020526040812082916103be9190610a0b565b6001600160a01b038316600090815260088601602052604081206103e191610a0b565b8454604080517fde0099a30000000000000000000000000000000000000000000000000000000081526001600160a01b0387811660048301529151606093929092169163de0099a391602480820192600092909190829003018186803b15801561044a57600080fd5b505afa15801561045e573d6000803e3d6000fd5b505050506040513d6000823e601f3d908101601f19168201604052602081101561048757600080fd5b81019080805160405193929190846401000000008211156104a757600080fd5b9083019060208201858111156104bc57600080fd5b82518660208202830111640100000000821117156104d957600080fd5b82525081516020918201928201910280838360005b838110156105065781810151838201526020016104ee565b5050505090500160405250505090506000600182510390505b82156107a257600082828151811061053357fe5b60209081029190910101518854604080517fb09afec100000000000000000000000000000000000000000000000000000000815260048101849052815193945060009384936001600160a01b03169263b09afec19260248082019391829003018186803b1580156105a357600080fd5b505afa1580156105b7573d6000803e3d6000fd5b505050506040513d60408110156105cd57600080fd5b50805160209091015160058c0154919350915060ff1660028111156105ee57fe5b8260028111156105fa57fe5b148015610616575060028a01546001600160a01b038281169116145b1561077e578954604080517efdd58e0000000000000000000000000000000000000000000000000000000081526001600160a01b038c81166004830152602482018790529151600093929092169162fdd58e91604480820192602092909190829003018186803b15801561068957600080fd5b505afa15801561069d573d6000803e3d6000fd5b505050506040513d60208110156106b357600080fd5b5051905060008782116106c657816106c8565b875b90508b60070160008b6001600160a01b03166001600160a01b031681526020019081526020016000208590806001815401808255809150506001900390600052602060002001600090919091909150558b60080160008b6001600160a01b03166001600160a01b0316815260200190815260200160002081908060018154018082558091505060019003906000526020600020016000909190919091505561077981896109ae90919063ffffffff16565b975050505b8361078b575050506107a2565b5061079b915082905060016109ae565b905061051f565b5081156107f6576040805162461bcd60e51b815260206004820152601160248201527f494e53554646494349454e545f47454d53000000000000000000000000000000604482015290519081900360640190fd5b85546001600160a01b03858116600081815260078a016020908152604080832060088d019092529182902091517f2eb2c2d60000000000000000000000000000000000000000000000000000000081528a851660048201908152602482019490945260a060448201908152825460a483018190529590961695632eb2c2d6958c958c95939092916064820191608481019160c490910190879080156108ba57602002820191906000526020600020905b8154815260200190600101908083116108a6575b505084810383528581815481526020019150805480156108f957602002820191906000526020600020905b8154815260200190600101908083116108e5575b5050848103825260008152602001602001975050505050505050600060405180830381600087803b15801561092d57600080fd5b505af1158015610941573d6000803e3d6000fd5b50505050505050505050565b6000828201838110156109a7576040805162461bcd60e51b815260206004820152601b60248201527f536166654d6174683a206164646974696f6e206f766572666c6f770000000000604482015290519081900360640190fd5b9392505050565b600082821115610a05576040805162461bcd60e51b815260206004820152601e60248201527f536166654d6174683a207375627472616374696f6e206f766572666c6f770000604482015290519081900360640190fd5b50900390565b5080546000825590600052602060002090810190610a299190610a2c565b50565b5b80821115610a415760008155600101610a2d565b509056fea2646970667358221220d3003ba782c87533fcac0c59f365c62beb4cb92fe20d098f6646dad0cf28917064736f6c63430007030033",
  "libraries": {
    "SafeMath": "0x9Dde7f92Dc83363ceb0ECE7CFa2734F3345ea56F"
  },
  "devdoc": {
    "kind": "dev",
    "methods": {},
    "version": 1
  },
  "userdoc": {
    "kind": "user",
    "methods": {},
    "version": 1
  },
  "storageLayout": {
    "storage": [],
    "types": null
  }
}