{
  "address": "0x9C3D3C5E21D1E2fD85C49024c5B7A1CE8AE292B6",
  "abi": [
    {
      "inputs": [],
      "stateMutability": "nonpayable",
      "type": "constructor"
    },
    {
      "anonymous": false,
      "inputs": [
        {
          "indexed": true,
          "internalType": "address",
          "name": "contractAddress",
          "type": "address"
        },
        {
          "indexed": true,
          "internalType": "address",
          "name": "controllerAddress",
          "type": "address"
        }
      ],
      "name": "ControllerAdded",
      "type": "event"
    },
    {
      "anonymous": false,
      "inputs": [
        {
          "indexed": true,
          "internalType": "address",
          "name": "contractAddress",
          "type": "address"
        },
        {
          "indexed": true,
          "internalType": "address",
          "name": "controllerAddress",
          "type": "address"
        }
      ],
      "name": "ControllerRemoved",
      "type": "event"
    },
    {
      "anonymous": false,
      "inputs": [
        {
          "indexed": false,
          "internalType": "address",
          "name": "tokenAddress",
          "type": "address"
        },
        {
          "indexed": false,
          "internalType": "address",
          "name": "poolAddress",
          "type": "address"
        },
        {
          "indexed": false,
          "internalType": "string",
          "name": "tokenSymbol",
          "type": "string"
        },
        {
          "indexed": false,
          "internalType": "string",
          "name": "poolSymbol",
          "type": "string"
        }
      ],
      "name": "ERC20GemTokenCreated",
      "type": "event"
    },
    {
      "inputs": [
        {
          "internalType": "address",
          "name": "_controller",
          "type": "address"
        }
      ],
      "name": "addController",
      "outputs": [],
      "stateMutability": "nonpayable",
      "type": "function"
    },
    {
      "inputs": [
        {
          "internalType": "uint256",
          "name": "idx",
          "type": "uint256"
        }
      ],
      "name": "allItems",
      "outputs": [
        {
          "internalType": "address",
          "name": "gemPool",
          "type": "address"
        }
      ],
      "stateMutability": "view",
      "type": "function"
    },
    {
      "inputs": [],
      "name": "allItemsLength",
      "outputs": [
        {
          "internalType": "uint256",
          "name": "",
          "type": "uint256"
        }
      ],
      "stateMutability": "view",
      "type": "function"
    },
    {
      "inputs": [
        {
          "internalType": "string",
          "name": "tokenSymbol",
          "type": "string"
        },
        {
          "internalType": "string",
          "name": "tokenName",
          "type": "string"
        },
        {
          "internalType": "address",
          "name": "poolAddress",
          "type": "address"
        },
        {
          "internalType": "address",
          "name": "tokenAddress",
          "type": "address"
        },
        {
          "internalType": "uint8",
          "name": "decimals",
          "type": "uint8"
        }
      ],
      "name": "createItem",
      "outputs": [
        {
          "internalType": "address payable",
          "name": "gemToken",
          "type": "address"
        }
      ],
      "stateMutability": "nonpayable",
      "type": "function"
    },
    {
      "inputs": [
        {
          "internalType": "uint256",
          "name": "_symbolHash",
          "type": "uint256"
        }
      ],
      "name": "getItem",
      "outputs": [
        {
          "internalType": "address",
          "name": "gemPool",
          "type": "address"
        }
      ],
      "stateMutability": "view",
      "type": "function"
    },
    {
      "inputs": [
        {
          "internalType": "address",
          "name": "_address",
          "type": "address"
        }
      ],
      "name": "isController",
      "outputs": [
        {
          "internalType": "bool",
          "name": "allowed",
          "type": "bool"
        }
      ],
      "stateMutability": "view",
      "type": "function"
    },
    {
      "inputs": [],
      "name": "relinquishControl",
      "outputs": [],
      "stateMutability": "view",
      "type": "function"
    }
  ],
  "transactionHash": "0x7e55aacd0e1fe50134e99947580f1b288e610d53c36bdbe7b005c51bfec2b741",
  "args": [],
  "solcInputHash": "a404e32b6c8a8ffe8820898d027b57b7",
  "bytecode": "0x608060405234801561001057600080fd5b5061001a3361001f565b610043565b6001600160a01b03166000908152602081905260409020805460ff19166001179055565b612d26806100526000396000f3fe608060405234801561001057600080fd5b506004361061007d5760003560e01c8063b429afeb1161005b578063b429afeb14610252578063c1c43c4814610299578063e1c28bef146102b3578063ff68fa6e146102bb5761007d565b80633129e773146100825780639533fe82146100c8578063a7fc7a071461021d575b600080fd5b61009f6004803603602081101561009857600080fd5b50356102d8565b6040805173ffffffffffffffffffffffffffffffffffffffff9092168252519081900360200190f35b61009f600480360360a08110156100de57600080fd5b8101906020810181356401000000008111156100f957600080fd5b82018360208201111561010b57600080fd5b8035906020019184600183028401116401000000008311171561012d57600080fd5b91908080601f016020809104026020016040519081016040528093929190818152602001838380828437600092019190915250929594936020810193503591505064010000000081111561018057600080fd5b82018360208201111561019257600080fd5b803590602001918460018302840111640100000000831117156101b457600080fd5b91908080601f0160208091040260200160405190810160405280939291908181526020018383808284376000920191909152509295505050813573ffffffffffffffffffffffffffffffffffffffff9081169350602083013516916040013560ff169050610300565b6102506004803603602081101561023357600080fd5b503573ffffffffffffffffffffffffffffffffffffffff16610a4d565b005b6102856004803603602081101561026857600080fd5b503573ffffffffffffffffffffffffffffffffffffffff16610b13565b604080519115158252519081900360200190f35b6102a1610b3e565b60408051918252519081900360200190f35b610250610b44565b61009f600480360360208110156102d157600080fd5b5035610bc6565b60009081526002602052604090205473ffffffffffffffffffffffffffffffffffffffff1690565b3360009081526020819052604081205460ff1615156001148061032257503033145b610377576040517f08c379a0000000000000000000000000000000000000000000000000000000008152600401808060200182810382526028815260200180612cc96028913960400191505060405180910390fd5b6000866040516020018082805190602001908083835b602083106103ca57805182527fffffffffffffffffffffffffffffffffffffffffffffffffffffffffffffffe0909201916020918201910161038d565b51815160209384036101000a7fffffffffffffffffffffffffffffffffffffffffffffffffffffffffffffffff018019909216911617905260408051929094018281037fffffffffffffffffffffffffffffffffffffffffffffffffffffffffffffffe0018352845281519181019190912060008181526002909252929020549194505073ffffffffffffffffffffffffffffffffffffffff161591506104d4905057604080517f08c379a000000000000000000000000000000000000000000000000000000000815260206004820152600f60248201527f47454d544f4b454e5f4558495354530000000000000000000000000000000000604482015290519081900360640190fd5b73ffffffffffffffffffffffffffffffffffffffff851661055657604080517f08c379a000000000000000000000000000000000000000000000000000000000815260206004820152600c60248201527f494e56414c49445f504f4f4c0000000000000000000000000000000000000000604482015290519081900360640190fd5b60606040518060200161056890610d71565b7fffffffffffffffffffffffffffffffffffffffffffffffffffffffffffffffe082820381018352601f9091011660405290506105a760008383610bfd565b92508273ffffffffffffffffffffffffffffffffffffffff1663651d836689898989896040518663ffffffff1660e01b81526004018080602001806020018673ffffffffffffffffffffffffffffffffffffffff1681526020018573ffffffffffffffffffffffffffffffffffffffff1681526020018460ff168152602001838103835288818151815260200191508051906020019080838360005b8381101561065b578181015183820152602001610643565b50505050905090810190601f1680156106885780820380516001836020036101000a031916815260200191505b50838103825287518152875160209182019189019080838360005b838110156106bb5781810151838201526020016106a3565b50505050905090810190601f1680156106e85780820380516001836020036101000a031916815260200191505b50975050505050505050600060405180830381600087803b15801561070c57600080fd5b505af1158015610720573d6000803e3d6000fd5b505050600083815260026020526040808220805473ffffffffffffffffffffffffffffffffffffffff88167fffffffffffffffffffffffff00000000000000000000000000000000000000009182168117909255600380546001810182559085527fc2575a0e9e593c00f959f8c92f12db2869c3395a3b0502d05e2516446f71f85b0180549091168217905581517f95d89b4100000000000000000000000000000000000000000000000000000000815291517fc8fef388476ee2aae16130f128a91b30e447edbc59098146eee5ae4169761dbd945087938b938e93926395d89b4192600480840193919291829003018186803b15801561082057600080fd5b505afa158015610834573d6000803e3d6000fd5b505050506040513d6000823e601f3d9081017fffffffffffffffffffffffffffffffffffffffffffffffffffffffffffffffe0168201604052602081101561087b57600080fd5b810190808051604051939291908464010000000082111561089b57600080fd5b9083019060208201858111156108b057600080fd5b82516401000000008111828201881017156108ca57600080fd5b82525081516020918201929091019080838360005b838110156108f75781810151838201526020016108df565b50505050905090810190601f1680156109245780820380516001836020036101000a031916815260200191505b50604052505050604051808573ffffffffffffffffffffffffffffffffffffffff1681526020018473ffffffffffffffffffffffffffffffffffffffff1681526020018060200180602001838103835285818151815260200191508051906020019080838360005b838110156109a457818101518382015260200161098c565b50505050905090810190601f1680156109d15780820380516001836020036101000a031916815260200191505b50838103825284518152845160209182019186019080838360005b83811015610a045781810151838201526020016109ec565b50505050905090810190601f168015610a315780820380516001836020036101000a031916815260200191505b50965050505050505060405180910390a1505095945050505050565b3360009081526020819052604090205460ff16151560011480610a6f57503033145b610ac4576040517f08c379a0000000000000000000000000000000000000000000000000000000008152600401808060200182810382526028815260200180612cc96028913960400191505060405180910390fd5b73ffffffffffffffffffffffffffffffffffffffff16600090815260208190526040902080547fffffffffffffffffffffffffffffffffffffffffffffffffffffffffffffff00166001179055565b73ffffffffffffffffffffffffffffffffffffffff1660009081526020819052604090205460ff1690565b60035490565b3360009081526020819052604090205460ff16151560011480610b6657503033145b610bbb576040517f08c379a0000000000000000000000000000000000000000000000000000000008152600401808060200182810382526028815260200180612cc96028913960400191505060405180910390fd5b336000908152602052565b600060038281548110610bd557fe5b60009182526020909120015473ffffffffffffffffffffffffffffffffffffffff1692915050565b60008084471015610c6f57604080517f08c379a000000000000000000000000000000000000000000000000000000000815260206004820152601d60248201527f437265617465323a20696e73756666696369656e742062616c616e6365000000604482015290519081900360640190fd5b8251610cdc57604080517f08c379a000000000000000000000000000000000000000000000000000000000815260206004820181905260248201527f437265617465323a2062797465636f6465206c656e677468206973207a65726f604482015290519081900360640190fd5b8383516020850187f5905073ffffffffffffffffffffffffffffffffffffffff8116610d6957604080517f08c379a000000000000000000000000000000000000000000000000000000000815260206004820152601960248201527f437265617465323a204661696c6564206f6e206465706c6f7900000000000000604482015290519081900360640190fd5b949350505050565b611f4a80610d7f8339019056fe608060405234801561001057600080fd5b506100216301ffc9a760e01b610036565b610031630271189760e51b610036565b6100ba565b6001600160e01b03198082161415610095576040805162461bcd60e51b815260206004820152601c60248201527f4552433136353a20696e76616c696420696e7465726661636520696400000000604482015290519081900360640190fd5b6001600160e01b0319166000908152600660205260409020805460ff19166001179055565b611e8080620000ca6000396000f3fe608060405234801561001057600080fd5b506004361061011b5760003560e01c806370a08231116100b2578063bc197c8111610081578063de0e9a3e11610066578063de0e9a3e14610725578063ea598cb014610742578063f23a6e611461075f5761011b565b8063bc197c81146104e1578063dd62ed3e146106ea5761011b565b806370a082311461043457806395d89b4114610467578063a457c2d71461046f578063a9059cbb146104a85761011b565b806323b872dd116100ee57806323b872dd14610243578063313ce5671461028657806339509351146102a4578063651d8366146102dd5761011b565b806301ffc9a71461012057806306fdde0314610173578063095ea7b3146101f057806318160ddd14610229575b600080fd5b61015f6004803603602081101561013657600080fd5b50357fffffffff0000000000000000000000000000000000000000000000000000000016610837565b604080519115158252519081900360200190f35b61017b61086e565b6040805160208082528351818301528351919283929083019185019080838360005b838110156101b557818101518382015260200161019d565b50505050905090810190601f1680156101e25780820380516001836020036101000a031916815260200191505b509250505060405180910390f35b61015f6004803603604081101561020657600080fd5b5073ffffffffffffffffffffffffffffffffffffffff8135169060200135610922565b610231610940565b60408051918252519081900360200190f35b61015f6004803603606081101561025957600080fd5b5073ffffffffffffffffffffffffffffffffffffffff813581169160208101359091169060400135610946565b61028e6109e7565b6040805160ff9092168252519081900360200190f35b61015f600480360360408110156102ba57600080fd5b5073ffffffffffffffffffffffffffffffffffffffff81351690602001356109f0565b610432600480360360a08110156102f357600080fd5b81019060208101813564010000000081111561030e57600080fd5b82018360208201111561032057600080fd5b8035906020019184600183028401116401000000008311171561034257600080fd5b91908080601f016020809104026020016040519081016040528093929190818152602001838380828437600092019190915250929594936020810193503591505064010000000081111561039557600080fd5b8201836020820111156103a757600080fd5b803590602001918460018302840111640100000000831117156103c957600080fd5b91908080601f0160208091040260200160405190810160405280939291908181526020018383808284376000920191909152509295505050813573ffffffffffffffffffffffffffffffffffffffff9081169350602083013516916040013560ff169050610a4b565b005b6102316004803603602081101561044a57600080fd5b503573ffffffffffffffffffffffffffffffffffffffff16610c1b565b61017b610c43565b61015f6004803603604081101561048557600080fd5b5073ffffffffffffffffffffffffffffffffffffffff8135169060200135610cc2565b61015f600480360360408110156104be57600080fd5b5073ffffffffffffffffffffffffffffffffffffffff8135169060200135610d37565b6106b5600480360360a08110156104f757600080fd5b73ffffffffffffffffffffffffffffffffffffffff823581169260208101359091169181019060608101604082013564010000000081111561053857600080fd5b82018360208201111561054a57600080fd5b8035906020019184602083028401116401000000008311171561056c57600080fd5b91908080602002602001604051908101604052809392919081815260200183836020028082843760009201919091525092959493602081019350359150506401000000008111156105bc57600080fd5b8201836020820111156105ce57600080fd5b803590602001918460208302840111640100000000831117156105f057600080fd5b919080806020026020016040519081016040528093929190818152602001838360200280828437600092019190915250929594936020810193503591505064010000000081111561064057600080fd5b82018360208201111561065257600080fd5b8035906020019184600183028401116401000000008311171561067457600080fd5b91908080601f016020809104026020016040519081016040528093929190818152602001838380828437600092019190915250929550610d4b945050505050565b604080517fffffffff000000000000000000000000000000000000000000000000000000009092168252519081900360200190f35b6102316004803603604081101561070057600080fd5b5073ffffffffffffffffffffffffffffffffffffffff81358116916020013516610d75565b6104326004803603602081101561073b57600080fd5b5035610dad565b6104326004803603602081101561075857600080fd5b5035610ed8565b6106b5600480360360a081101561077557600080fd5b73ffffffffffffffffffffffffffffffffffffffff823581169260208101359091169160408201359160608101359181019060a0810160808201356401000000008111156107c257600080fd5b8201836020820111156107d457600080fd5b803590602001918460018302840111640100000000831117156107f657600080fd5b91908080601f016020809104026020016040519081016040528093929190818152602001838380828437600092019190915250929550610f82945050505050565b7fffffffff000000000000000000000000000000000000000000000000000000001660009081526006602052604090205460ff1690565b60038054604080516020601f60027fffffffffffffffffffffffffffffffffffffffffffffffffffffffffffffffff6101006001881615020190951694909404938401819004810282018101909252828152606093909290918301828280156109185780601f106108ed57610100808354040283529160200191610918565b820191906000526020600020905b8154815290600101906020018083116108fb57829003601f168201915b5050505050905090565b600061093661092f610fac565b8484610fb0565b5060015b92915050565b60025490565b60006109538484846110c3565b6109dd8461095f610fac565b6109d885604051806060016040528060288152602001611d946028913973ffffffffffffffffffffffffffffffffffffffff8a166000908152600160205260408120906109aa610fac565b73ffffffffffffffffffffffffffffffffffffffff168152602081019190915260400160002054919061125f565b610fb0565b5060019392505050565b60055460ff1690565b60006109366109fd610fac565b846109d88560016000610a0e610fac565b73ffffffffffffffffffffffffffffffffffffffff908116825260208083019390935260409182016000908120918c1681529252902054906112f6565b600754610100900460ff1680610a645750610a64611357565b80610a72575060075460ff16155b610aad5760405162461bcd60e51b815260040180806020018281038252602e815260200180611d45602e913960400191505060405180910390fd5b600754610100900460ff16158015610b1357600780547fffffffffffffffffffffffffffffffffffffffffffffffffffffffffffffff007fffffffffffffffffffffffffffffffffffffffffffffffffffffffffffff00ff909116610100171660011790555b8551610b26906003906020890190611c03565b508451610b3a906004906020880190611c03565b50600580547fffffffffffffffffffffffffffffffffffffffffffffffffffffffffffffff001660ff8416179055600780547fffffffffffffffffffff0000000000000000000000000000000000000000ffff166201000073ffffffffffffffffffffffffffffffffffffffff8681169190910291909117909155600880547fffffffffffffffffffffffff0000000000000000000000000000000000000000169186169190911790558015610c1357600780547fffffffffffffffffffffffffffffffffffffffffffffffffffffffffffff00ff1690555b505050505050565b73ffffffffffffffffffffffffffffffffffffffff1660009081526020819052604090205490565b60048054604080516020601f60027fffffffffffffffffffffffffffffffffffffffffffffffffffffffffffffffff6101006001881615020190951694909404938401819004810282018101909252828152606093909290918301828280156109185780601f106108ed57610100808354040283529160200191610918565b6000610936610ccf610fac565b846109d885604051806060016040528060258152602001611e266025913960016000610cf9610fac565b73ffffffffffffffffffffffffffffffffffffffff908116825260208083019390935260409182016000908120918d1681529252902054919061125f565b6000610936610d44610fac565b84846110c3565b7fbc197c810000000000000000000000000000000000000000000000000000000095945050505050565b73ffffffffffffffffffffffffffffffffffffffff918216600090815260016020908152604080832093909416825291909152205490565b80610dff576040805162461bcd60e51b815260206004820152600d60248201527f5a45524f5f5155414e5449545900000000000000000000000000000000000000604482015290519081900360640190fd5b80610e20610e0b6109e7565b60ff16600a0a610e1a33610c1b565b90611368565b1015610e73576040805162461bcd60e51b815260206004820152601560248201527f494e53554646494349454e545f5155414e544954590000000000000000000000604482015290519081900360640190fd5b610e7e3033836113c1565b610e9f33610e9a610e8d6109e7565b849060ff16600a0a611368565b611954565b60408051828152905133917f5dd085b6070b4cae004f84daafd199fd55b0bdfa11c3a802baffe89c2419d8c2919081900360200190a250565b80610f2a576040805162461bcd60e51b815260206004820152600d60248201527f5a45524f5f5155414e5449545900000000000000000000000000000000000000604482015290519081900360640190fd5b610f353330836113c1565b610f4933610f44610e8d6109e7565b611a84565b60408051828152905133917fb61d00fdfee32467c7d81db64c811ae60c104c346debf36a14afe84b8fce59e5919081900360200190a250565b7ff23a6e610000000000000000000000000000000000000000000000000000000095945050505050565b3390565b73ffffffffffffffffffffffffffffffffffffffff83166110025760405162461bcd60e51b8152600401808060200182810382526024815260200180611e026024913960400191505060405180910390fd5b73ffffffffffffffffffffffffffffffffffffffff82166110545760405162461bcd60e51b8152600401808060200182810382526022815260200180611cfd6022913960400191505060405180910390fd5b73ffffffffffffffffffffffffffffffffffffffff808416600081815260016020908152604080832094871680845294825291829020859055815185815291517f8c5be1e5ebec7d5bd14f71427d1e84f3dd0314c0f7b2291e5b200ac8c7c3b9259281900390910190a3505050565b73ffffffffffffffffffffffffffffffffffffffff83166111155760405162461bcd60e51b8152600401808060200182810382526025815260200180611ddd6025913960400191505060405180910390fd5b73ffffffffffffffffffffffffffffffffffffffff82166111675760405162461bcd60e51b8152600401808060200182810382526023815260200180611cb86023913960400191505060405180910390fd5b611172838383611b9b565b6111bc81604051806060016040528060268152602001611d1f6026913973ffffffffffffffffffffffffffffffffffffffff8616600090815260208190526040902054919061125f565b73ffffffffffffffffffffffffffffffffffffffff80851660009081526020819052604080822093909355908416815220546111f890826112f6565b73ffffffffffffffffffffffffffffffffffffffff8084166000818152602081815260409182902094909455805185815290519193928716927fddf252ad1be2c89b69c2b068fc378daa952ba7f163c4a11628f55a4df523b3ef92918290030190a3505050565b600081848411156112ee5760405162461bcd60e51b81526004018080602001828103825283818151815260200191508051906020019080838360005b838110156112b357818101518382015260200161129b565b50505050905090810190601f1680156112e05780820380516001836020036101000a031916815260200191505b509250505060405180910390fd5b505050900390565b600082820183811015611350576040805162461bcd60e51b815260206004820152601b60248201527f536166654d6174683a206164646974696f6e206f766572666c6f770000000000604482015290519081900360640190fd5b9392505050565b600061136230611ba0565b15905090565b6000826113775750600061093a565b8282028284828161138457fe5b04146113505760405162461bcd60e51b8152600401808060200182810382526021815260200180611d736021913960400191505060405180910390fd5b806113ce600a6000611c81565b6113da600b6000611c81565b6000600760029054906101000a900473ffffffffffffffffffffffffffffffffffffffff1673ffffffffffffffffffffffffffffffffffffffff1663a0f8c694866040518263ffffffff1660e01b8152600401808273ffffffffffffffffffffffffffffffffffffffff16815260200191505060206040518083038186803b15801561146557600080fd5b505afa158015611479573d6000803e3d6000fd5b505050506040513d602081101561148f57600080fd5b50519050806114e5576040805162461bcd60e51b815260206004820152601160248201527f494e53554646494349454e545f47454d53000000000000000000000000000000604482015290519081900360640190fd5b811561179757600754604080517fb59a912800000000000000000000000000000000000000000000000000000000815273ffffffffffffffffffffffffffffffffffffffff88811660048301526024820185905291516000936201000090049092169163b59a912891604480820192602092909190829003018186803b15801561156e57600080fd5b505afa158015611582573d6000803e3d6000fd5b505050506040513d602081101561159857600080fd5b5051600854604080517fe6c3b1f600000000000000000000000000000000000000000000000000000000815260048101849052905192935073ffffffffffffffffffffffffffffffffffffffff9091169163e6c3b1f691602480820192602092909190829003018186803b15801561160f57600080fd5b505afa158015611623573d6000803e3d6000fd5b505050506040513d602081101561163957600080fd5b505160ff166002141561177957600754604080517efdd58e00000000000000000000000000000000000000000000000000000000815273ffffffffffffffffffffffffffffffffffffffff89811660048301526024820185905291516000936201000090049092169162fdd58e91604480820192602092909190829003018186803b1580156116c757600080fd5b505afa1580156116db573d6000803e3d6000fd5b505050506040513d60208110156116f157600080fd5b5051905060008482116117045781611706565b845b600a805460018181019092557fc65a7bb8d6351c1cf70c95a316cc6a92839c986682d98bc35f958f4883f9d2a801859055600b805491820181556000527f0175b7a638427703f0dbe7bb9bbf987a2551717b34e79f33b5b1008d1fa01db90181905590506117748582611ba6565b945050505b816117845750611797565b50611790816001611ba6565b90506114e5565b81156117ea576040805162461bcd60e51b815260206004820152601160248201527f494e53554646494349454e545f47454d53000000000000000000000000000000604482015290519081900360640190fd5b600760029054906101000a900473ffffffffffffffffffffffffffffffffffffffff1673ffffffffffffffffffffffffffffffffffffffff16632eb2c2d68686600a600b6040518563ffffffff1660e01b8152600401808573ffffffffffffffffffffffffffffffffffffffff1681526020018473ffffffffffffffffffffffffffffffffffffffff16815260200180602001806020018060200184810384528681815481526020019150805480156118c257602002820191906000526020600020905b8154815260200190600101908083116118ae575b5050848103835285818154815260200191508054801561190157602002820191906000526020600020905b8154815260200190600101908083116118ed575b5050848103825260008152602001602001975050505050505050600060405180830381600087803b15801561193557600080fd5b505af1158015611949573d6000803e3d6000fd5b505050505050505050565b73ffffffffffffffffffffffffffffffffffffffff82166119a65760405162461bcd60e51b8152600401808060200182810382526021815260200180611dbc6021913960400191505060405180910390fd5b6119b282600083611b9b565b6119fc81604051806060016040528060228152602001611cdb6022913973ffffffffffffffffffffffffffffffffffffffff8516600090815260208190526040902054919061125f565b73ffffffffffffffffffffffffffffffffffffffff8316600090815260208190526040902055600254611a2f9082611ba6565b60025560408051828152905160009173ffffffffffffffffffffffffffffffffffffffff8516917fddf252ad1be2c89b69c2b068fc378daa952ba7f163c4a11628f55a4df523b3ef9181900360200190a35050565b73ffffffffffffffffffffffffffffffffffffffff8216611aec576040805162461bcd60e51b815260206004820152601f60248201527f45524332303a206d696e7420746f20746865207a65726f206164647265737300604482015290519081900360640190fd5b611af860008383611b9b565b600254611b0590826112f6565b60025573ffffffffffffffffffffffffffffffffffffffff8216600090815260208190526040902054611b3890826112f6565b73ffffffffffffffffffffffffffffffffffffffff83166000818152602081815260408083209490945583518581529351929391927fddf252ad1be2c89b69c2b068fc378daa952ba7f163c4a11628f55a4df523b3ef9281900390910190a35050565b505050565b3b151590565b600082821115611bfd576040805162461bcd60e51b815260206004820152601e60248201527f536166654d6174683a207375627472616374696f6e206f766572666c6f770000604482015290519081900360640190fd5b50900390565b828054600181600116156101000203166002900490600052602060002090601f016020900481019282601f10611c4457805160ff1916838001178555611c71565b82800160010185558215611c71579182015b82811115611c71578251825591602001919060010190611c56565b50611c7d929150611ca2565b5090565b5080546000825590600052602060002090810190611c9f9190611ca2565b50565b5b80821115611c7d5760008155600101611ca356fe45524332303a207472616e7366657220746f20746865207a65726f206164647265737345524332303a206275726e20616d6f756e7420657863656564732062616c616e636545524332303a20617070726f766520746f20746865207a65726f206164647265737345524332303a207472616e7366657220616d6f756e7420657863656564732062616c616e6365496e697469616c697a61626c653a20636f6e747261637420697320616c726561647920696e697469616c697a6564536166654d6174683a206d756c7469706c69636174696f6e206f766572666c6f7745524332303a207472616e7366657220616d6f756e74206578636565647320616c6c6f77616e636545524332303a206275726e2066726f6d20746865207a65726f206164647265737345524332303a207472616e736665722066726f6d20746865207a65726f206164647265737345524332303a20617070726f76652066726f6d20746865207a65726f206164647265737345524332303a2064656372656173656420616c6c6f77616e63652062656c6f77207a65726fa264697066735822122066d0ba26cc4b08e3cf8cd9a1af6d6f3d24c974ccc2e41c694a68d844447c157464736f6c63430007030033436f6e74726f6c6c61626c653a2063616c6c6572206973206e6f74206120636f6e74726f6c6c6572a2646970667358221220b977ca3c55241dfe2b8799b01b18171c15ce584c59d102f606e320f249a20b5464736f6c63430007030033",
  "libraries": {
    "GovernanceLib": "0x8B4207A13a5a13bDb2bBf15c137820e61e3c4AAc",
    "Strings": "0x98ccd9cb27398a6595f15cbc4b63ac525b942aad",
    "SafeMath": "0xD34a551B4a262230a373D376dDf8aADb2B0D49FD",
    "ProposalsLib": "0x54812b41409912bd065e9d3920ce196ff9bfc995",
    "Create2": "0xa511e209a01e27d134b4f564263f7db8fcbdeba6"
  },
  "devdoc": {
    "kind": "dev",
    "methods": {
      "addController(address)": {
        "details": "Add an address allowed to control this contract"
      },
      "allItems(uint256)": {
        "details": "get the quantized token for this"
      },
      "allItemsLength()": {
        "details": "number of quantized addresses"
      },
      "createItem(string,string,address,address,uint8)": {
        "details": "deploy a new erc20 token using create2"
      },
      "getItem(uint256)": {
        "details": "get the quantized token for this"
      },
      "isController(address)": {
        "details": "Check if this address is a controller"
      },
      "relinquishControl()": {
        "details": "Check if this address is a controller"
      }
    },
    "version": 1
  },
  "userdoc": {
    "kind": "user",
    "methods": {},
    "version": 1
  },
  "storageLayout": {
    "storage": [
      {
        "astId": 10169,
        "contract": "src/factories/ERC20GemTokenFactory.sol:ERC20GemTokenFactory",
        "label": "_controllers",
        "offset": 0,
        "slot": "0",
        "type": "t_mapping(t_address,t_bool)"
      },
      {
        "astId": 10377,
        "contract": "src/factories/ERC20GemTokenFactory.sol:ERC20GemTokenFactory",
        "label": "operator",
        "offset": 0,
        "slot": "1",
        "type": "t_address"
      },
      {
        "astId": 10381,
        "contract": "src/factories/ERC20GemTokenFactory.sol:ERC20GemTokenFactory",
        "label": "_getItem",
        "offset": 0,
        "slot": "2",
        "type": "t_mapping(t_uint256,t_address)"
      },
      {
        "astId": 10384,
        "contract": "src/factories/ERC20GemTokenFactory.sol:ERC20GemTokenFactory",
        "label": "_allItems",
        "offset": 0,
        "slot": "3",
        "type": "t_array(t_address)dyn_storage"
      }
    ],
    "types": {
      "t_address": {
        "encoding": "inplace",
        "label": "address",
        "numberOfBytes": "20"
      },
      "t_array(t_address)dyn_storage": {
        "base": "t_address",
        "encoding": "dynamic_array",
        "label": "address[]",
        "numberOfBytes": "32"
      },
      "t_bool": {
        "encoding": "inplace",
        "label": "bool",
        "numberOfBytes": "1"
      },
      "t_mapping(t_address,t_bool)": {
        "encoding": "mapping",
        "key": "t_address",
        "label": "mapping(address => bool)",
        "numberOfBytes": "32",
        "value": "t_bool"
      },
      "t_mapping(t_uint256,t_address)": {
        "encoding": "mapping",
        "key": "t_uint256",
        "label": "mapping(uint256 => address)",
        "numberOfBytes": "32",
        "value": "t_address"
      },
      "t_uint256": {
        "encoding": "inplace",
        "label": "uint256",
        "numberOfBytes": "32"
      }
    }
  }
}