{
  "address": "0xF4899C94a0319825b341775E4387b1C5081b9d1B",
  "abi": [
    {
      "inputs": [],
      "stateMutability": "nonpayable",
      "type": "constructor"
    },
    {
      "anonymous": false,
      "inputs": [
        {
          "indexed": true,
          "internalType": "address",
          "name": "account",
          "type": "address"
        },
        {
          "indexed": true,
          "internalType": "address",
          "name": "operator",
          "type": "address"
        },
        {
          "indexed": false,
          "internalType": "bool",
          "name": "approved",
          "type": "bool"
        }
      ],
      "name": "ApprovalForAll",
      "type": "event"
    },
    {
      "anonymous": false,
      "inputs": [
        {
          "indexed": true,
          "internalType": "address",
          "name": "contractAddress",
          "type": "address"
        },
        {
          "indexed": true,
          "internalType": "address",
          "name": "controllerAddress",
          "type": "address"
        }
      ],
      "name": "ControllerAdded",
      "type": "event"
    },
    {
      "anonymous": false,
      "inputs": [
        {
          "indexed": true,
          "internalType": "address",
          "name": "contractAddress",
          "type": "address"
        },
        {
          "indexed": true,
          "internalType": "address",
          "name": "controllerAddress",
          "type": "address"
        }
      ],
      "name": "ControllerRemoved",
      "type": "event"
    },
    {
      "anonymous": false,
      "inputs": [
        {
          "indexed": false,
          "internalType": "address",
          "name": "account",
          "type": "address"
        }
      ],
      "name": "Paused",
      "type": "event"
    },
    {
      "anonymous": false,
      "inputs": [
        {
          "indexed": true,
          "internalType": "address",
          "name": "operator",
          "type": "address"
        },
        {
          "indexed": true,
          "internalType": "address",
          "name": "from",
          "type": "address"
        },
        {
          "indexed": true,
          "internalType": "address",
          "name": "to",
          "type": "address"
        },
        {
          "indexed": false,
          "internalType": "uint256[]",
          "name": "ids",
          "type": "uint256[]"
        },
        {
          "indexed": false,
          "internalType": "uint256[]",
          "name": "values",
          "type": "uint256[]"
        }
      ],
      "name": "TransferBatch",
      "type": "event"
    },
    {
      "anonymous": false,
      "inputs": [
        {
          "indexed": true,
          "internalType": "address",
          "name": "operator",
          "type": "address"
        },
        {
          "indexed": true,
          "internalType": "address",
          "name": "from",
          "type": "address"
        },
        {
          "indexed": true,
          "internalType": "address",
          "name": "to",
          "type": "address"
        },
        {
          "indexed": false,
          "internalType": "uint256",
          "name": "id",
          "type": "uint256"
        },
        {
          "indexed": false,
          "internalType": "uint256",
          "name": "value",
          "type": "uint256"
        }
      ],
      "name": "TransferSingle",
      "type": "event"
    },
    {
      "anonymous": false,
      "inputs": [
        {
          "indexed": false,
          "internalType": "string",
          "name": "value",
          "type": "string"
        },
        {
          "indexed": true,
          "internalType": "uint256",
          "name": "id",
          "type": "uint256"
        }
      ],
      "name": "URI",
      "type": "event"
    },
    {
      "anonymous": false,
      "inputs": [
        {
          "indexed": false,
          "internalType": "address",
          "name": "account",
          "type": "address"
        }
      ],
      "name": "Unpaused",
      "type": "event"
    },
    {
      "inputs": [
        {
          "internalType": "address",
          "name": "_controller",
          "type": "address"
        }
      ],
      "name": "addController",
      "outputs": [],
      "stateMutability": "nonpayable",
      "type": "function"
    },
    {
      "inputs": [
        {
          "internalType": "address",
          "name": "registry",
          "type": "address"
        }
      ],
      "name": "addProxyRegistry",
      "outputs": [],
      "stateMutability": "nonpayable",
      "type": "function"
    },
    {
      "inputs": [
        {
          "internalType": "address",
          "name": "holder",
          "type": "address"
        },
        {
          "internalType": "uint256",
          "name": "_idx",
          "type": "uint256"
        }
      ],
      "name": "allHeldTokens",
      "outputs": [
        {
          "internalType": "uint256",
          "name": "",
          "type": "uint256"
        }
      ],
      "stateMutability": "view",
      "type": "function"
    },
    {
      "inputs": [
        {
          "internalType": "address",
          "name": "holder",
          "type": "address"
        }
      ],
      "name": "allHeldTokensLength",
      "outputs": [
        {
          "internalType": "uint256",
          "name": "",
          "type": "uint256"
        }
      ],
      "stateMutability": "view",
      "type": "function"
    },
    {
      "inputs": [
        {
          "internalType": "uint256",
          "name": "_idx",
          "type": "uint256"
        }
      ],
      "name": "allProxyRegistries",
      "outputs": [
        {
          "internalType": "address",
          "name": "",
          "type": "address"
        }
      ],
      "stateMutability": "view",
      "type": "function"
    },
    {
      "inputs": [],
      "name": "allProxyRegistriesLength",
      "outputs": [
        {
          "internalType": "uint256",
          "name": "",
          "type": "uint256"
        }
      ],
      "stateMutability": "view",
      "type": "function"
    },
    {
      "inputs": [
        {
          "internalType": "uint256",
          "name": "_token",
          "type": "uint256"
        },
        {
          "internalType": "uint256",
          "name": "_idx",
          "type": "uint256"
        }
      ],
      "name": "allTokenHolders",
      "outputs": [
        {
          "internalType": "address",
          "name": "",
          "type": "address"
        }
      ],
      "stateMutability": "view",
      "type": "function"
    },
    {
      "inputs": [
        {
          "internalType": "uint256",
          "name": "_token",
          "type": "uint256"
        }
      ],
      "name": "allTokenHoldersLength",
      "outputs": [
        {
          "internalType": "uint256",
          "name": "",
          "type": "uint256"
        }
      ],
      "stateMutability": "view",
      "type": "function"
    },
    {
      "inputs": [
        {
          "internalType": "address",
          "name": "account",
          "type": "address"
        },
        {
          "internalType": "uint256",
          "name": "id",
          "type": "uint256"
        }
      ],
      "name": "balanceOf",
      "outputs": [
        {
          "internalType": "uint256",
          "name": "",
          "type": "uint256"
        }
      ],
      "stateMutability": "view",
      "type": "function"
    },
    {
      "inputs": [
        {
          "internalType": "address[]",
          "name": "accounts",
          "type": "address[]"
        },
        {
          "internalType": "uint256[]",
          "name": "ids",
          "type": "uint256[]"
        }
      ],
      "name": "balanceOfBatch",
      "outputs": [
        {
          "internalType": "uint256[]",
          "name": "",
          "type": "uint256[]"
        }
      ],
      "stateMutability": "view",
      "type": "function"
    },
    {
      "inputs": [
        {
          "internalType": "address",
          "name": "account",
          "type": "address"
        },
        {
          "internalType": "uint256",
          "name": "tokenHash",
          "type": "uint256"
        },
        {
          "internalType": "uint256",
          "name": "amount",
          "type": "uint256"
        }
      ],
      "name": "burn",
      "outputs": [],
      "stateMutability": "nonpayable",
      "type": "function"
    },
    {
      "inputs": [],
      "name": "getRegistryManager",
      "outputs": [
        {
          "internalType": "address",
          "name": "",
          "type": "address"
        }
      ],
      "stateMutability": "view",
      "type": "function"
    },
    {
      "inputs": [
        {
          "internalType": "address",
          "name": "_owner",
          "type": "address"
        },
        {
          "internalType": "address",
          "name": "_operator",
          "type": "address"
        }
      ],
      "name": "isApprovedForAll",
      "outputs": [
        {
          "internalType": "bool",
          "name": "isOperator",
          "type": "bool"
        }
      ],
      "stateMutability": "view",
      "type": "function"
    },
    {
      "inputs": [
        {
          "internalType": "address",
          "name": "_address",
          "type": "address"
        }
      ],
      "name": "isController",
      "outputs": [
        {
          "internalType": "bool",
          "name": "allowed",
          "type": "bool"
        }
      ],
      "stateMutability": "view",
      "type": "function"
    },
    {
      "inputs": [
        {
          "internalType": "uint256",
          "name": "token",
          "type": "uint256"
        },
        {
          "internalType": "uint256",
          "name": "timestamp",
          "type": "uint256"
        }
      ],
      "name": "lock",
      "outputs": [],
      "stateMutability": "nonpayable",
      "type": "function"
    },
    {
      "inputs": [
        {
          "internalType": "address",
          "name": "account",
          "type": "address"
        },
        {
          "internalType": "uint256",
          "name": "tokenHash",
          "type": "uint256"
        },
        {
          "internalType": "uint256",
          "name": "amount",
          "type": "uint256"
        }
      ],
      "name": "mint",
      "outputs": [],
      "stateMutability": "nonpayable",
      "type": "function"
    },
    {
      "inputs": [
        {
          "internalType": "address",
          "name": "",
          "type": "address"
        },
        {
          "internalType": "address",
          "name": "",
          "type": "address"
        },
        {
          "internalType": "uint256[]",
          "name": "",
          "type": "uint256[]"
        },
        {
          "internalType": "uint256[]",
          "name": "",
          "type": "uint256[]"
        },
        {
          "internalType": "bytes",
          "name": "",
          "type": "bytes"
        }
      ],
      "name": "onERC1155BatchReceived",
      "outputs": [
        {
          "internalType": "bytes4",
          "name": "",
          "type": "bytes4"
        }
      ],
      "stateMutability": "nonpayable",
      "type": "function"
    },
    {
      "inputs": [
        {
          "internalType": "address",
          "name": "",
          "type": "address"
        },
        {
          "internalType": "address",
          "name": "",
          "type": "address"
        },
        {
          "internalType": "uint256",
          "name": "",
          "type": "uint256"
        },
        {
          "internalType": "uint256",
          "name": "",
          "type": "uint256"
        },
        {
          "internalType": "bytes",
          "name": "",
          "type": "bytes"
        }
      ],
      "name": "onERC1155Received",
      "outputs": [
        {
          "internalType": "bytes4",
          "name": "",
          "type": "bytes4"
        }
      ],
      "stateMutability": "nonpayable",
      "type": "function"
    },
    {
      "inputs": [],
      "name": "paused",
      "outputs": [
        {
          "internalType": "bool",
          "name": "",
          "type": "bool"
        }
      ],
      "stateMutability": "view",
      "type": "function"
    },
    {
      "inputs": [],
      "name": "relinquishControl",
      "outputs": [],
      "stateMutability": "view",
      "type": "function"
    },
    {
      "inputs": [
        {
          "internalType": "uint256",
          "name": "index",
          "type": "uint256"
        }
      ],
      "name": "removeProxyRegistryAt",
      "outputs": [],
      "stateMutability": "nonpayable",
      "type": "function"
    },
    {
      "inputs": [
        {
          "internalType": "address",
          "name": "from",
          "type": "address"
        },
        {
          "internalType": "address",
          "name": "to",
          "type": "address"
        },
        {
          "internalType": "uint256[]",
          "name": "ids",
          "type": "uint256[]"
        },
        {
          "internalType": "uint256[]",
          "name": "amounts",
          "type": "uint256[]"
        },
        {
          "internalType": "bytes",
          "name": "data",
          "type": "bytes"
        }
      ],
      "name": "safeBatchTransferFrom",
      "outputs": [],
      "stateMutability": "nonpayable",
      "type": "function"
    },
    {
      "inputs": [
        {
          "internalType": "address",
          "name": "from",
          "type": "address"
        },
        {
          "internalType": "address",
          "name": "to",
          "type": "address"
        },
        {
          "internalType": "uint256",
          "name": "id",
          "type": "uint256"
        },
        {
          "internalType": "uint256",
          "name": "amount",
          "type": "uint256"
        },
        {
          "internalType": "bytes",
          "name": "data",
          "type": "bytes"
        }
      ],
      "name": "safeTransferFrom",
      "outputs": [],
      "stateMutability": "nonpayable",
      "type": "function"
    },
    {
      "inputs": [
        {
          "internalType": "address",
          "name": "operator",
          "type": "address"
        },
        {
          "internalType": "bool",
          "name": "approved",
          "type": "bool"
        }
      ],
      "name": "setApprovalForAll",
      "outputs": [],
      "stateMutability": "nonpayable",
      "type": "function"
    },
    {
      "inputs": [
        {
          "internalType": "address",
          "name": "newManager",
          "type": "address"
        }
      ],
      "name": "setRegistryManager",
      "outputs": [],
      "stateMutability": "nonpayable",
      "type": "function"
    },
    {
      "inputs": [
        {
          "internalType": "bytes4",
          "name": "interfaceId",
          "type": "bytes4"
        }
      ],
      "name": "supportsInterface",
      "outputs": [
        {
          "internalType": "bool",
          "name": "",
          "type": "bool"
        }
      ],
      "stateMutability": "view",
      "type": "function"
    },
    {
      "inputs": [
        {
          "internalType": "uint256",
          "name": "_id",
          "type": "uint256"
        }
      ],
      "name": "totalBalances",
      "outputs": [
        {
          "internalType": "uint256",
          "name": "",
          "type": "uint256"
        }
      ],
      "stateMutability": "view",
      "type": "function"
    },
    {
      "inputs": [
        {
          "internalType": "address",
          "name": "account",
          "type": "address"
        },
        {
          "internalType": "uint256",
          "name": "token",
          "type": "uint256"
        }
      ],
      "name": "unlockTime",
      "outputs": [
        {
          "internalType": "uint256",
          "name": "theTime",
          "type": "uint256"
        }
      ],
      "stateMutability": "view",
      "type": "function"
    },
    {
      "inputs": [
        {
          "internalType": "uint256",
          "name": "_id",
          "type": "uint256"
        }
      ],
      "name": "uri",
      "outputs": [
        {
          "internalType": "string",
          "name": "",
          "type": "string"
        }
      ],
      "stateMutability": "view",
      "type": "function"
    }
  ],
  "transactionHash": "0xd36a66479e1d1865e1ff3d667d7898ae439d3c9cf27eb1494c2807f3f5545b07",
  "args": [],
  "solcInputHash": "a05912a80c1617f9b32b2135f455b951",
  "bytecode": "0x60806040523480156200001157600080fd5b5060408051808201909152601b81527f68747470733a2f2f6d657461646174612e62697467656d2e636f2f00000000006020820152620000586301ffc9a760e01b62000119565b62000063816200019e565b62000075636cdb3d1360e11b62000119565b620000876303a24d0760e21b62000119565b506004805460ff19169055620000a4630271189760e51b62000119565b620000af33620001b7565b600780546001600160a01b03199081163317909155600680546001810182556000919091527ff652222313e28459528d920b65115c16c04f3efc82aaedc97be59f3f377c0d3f01805490911673a5409ec958c83c3f309868babaca7c86dcb077c117905562000277565b6001600160e01b0319808216141562000179576040805162461bcd60e51b815260206004820152601c60248201527f4552433136353a20696e76616c696420696e7465726661636520696400000000604482015290519081900360640190fd5b6001600160e01b0319166000908152602081905260409020805460ff19166001179055565b8051620001b3906003906020840190620001db565b5050565b6001600160a01b03166000908152600560205260409020805460ff19166001179055565b828054600181600116156101000203166002900490600052602060002090601f016020900481019282601f106200021e57805160ff19168380011785556200024e565b828001600101855582156200024e579182015b828111156200024e57825182559160200191906001019062000231565b506200025c92915062000260565b5090565b5b808211156200025c576000815560010162000261565b61349c80620002876000396000f3fe608060405234801561001057600080fd5b50600436106101ce5760003560e01c80638d0335d111610104578063e1c28bef116100a2578063f23a6e6111610071578063f23a6e6114610aaf578063f242432a14610b7a578063f5298aca14610c45578063f68ee90e14610c77576101ce565b8063e1c28bef14610a36578063e985e9c514610a3e578063ed7aae2b14610a6c578063ef72f27614610a89576101ce565b8063a7fc7a07116100de578063a7fc7a07146107c2578063b429afeb146107e8578063b59a91281461080e578063bc197c811461083a576101ce565b80638d0335d114610751578063a0f8c6941461076e578063a22cb46514610794576101ce565b80632e13e81e116101715780635401982d1161014b5780635401982d146106fa5780635c975abb14610702578063740ec99e1461070a578063761604ab14610749576101ce565b80632e13e81e1461039f5780632eb2c2d6146103bc5780634e1273f414610583576101ce565b80630e89341c116101ad5780630e89341c1461028c5780631338736f1461031e578063156e29f61461034157806315aef88a14610373576101ce565b8062fdd58e146101d357806301ffc9a71461021157806302aab08614610264575b600080fd5b6101ff600480360360408110156101e957600080fd5b506001600160a01b038135169060200135610c94565b60408051918252519081900360200190f35b6102506004803603602081101561022757600080fd5b50357fffffffff0000000000000000000000000000000000000000000000000000000016610d06565b604080519115158252519081900360200190f35b61028a6004803603602081101561027a57600080fd5b50356001600160a01b0316610d41565b005b6102a9600480360360208110156102a257600080fd5b5035610e35565b6040805160208082528351818301528351919283929083019185019080838360005b838110156102e35781810151838201526020016102cb565b50505050905090810190601f1680156103105780820380516001836020036101000a031916815260200191505b509250505060405180910390f35b61028a6004803603604081101561033457600080fd5b5080359060200135610fe2565b61028a6004803603606081101561035757600080fd5b506001600160a01b0381351690602081013590604001356110ac565b6101ff6004803603604081101561038957600080fd5b506001600160a01b03813516906020013561114f565b61028a600480360360208110156103b557600080fd5b5035611176565b61028a600480360360a08110156103d257600080fd5b6001600160a01b03823581169260208101359091169181019060608101604082013564010000000081111561040657600080fd5b82018360208201111561041857600080fd5b8035906020019184602083028401116401000000008311171561043a57600080fd5b919080806020026020016040519081016040528093929190818152602001838360200280828437600092019190915250929594936020810193503591505064010000000081111561048a57600080fd5b82018360208201111561049c57600080fd5b803590602001918460208302840111640100000000831117156104be57600080fd5b919080806020026020016040519081016040528093929190818152602001838360200280828437600092019190915250929594936020810193503591505064010000000081111561050e57600080fd5b82018360208201111561052057600080fd5b8035906020019184600183028401116401000000008311171561054257600080fd5b91908080601f0160208091040260200160405190810160405280939291908181526020018383808284376000920191909152509295506112ea945050505050565b6106aa6004803603604081101561059957600080fd5b8101906020810181356401000000008111156105b457600080fd5b8201836020820111156105c657600080fd5b803590602001918460208302840111640100000000831117156105e857600080fd5b919080806020026020016040519081016040528093929190818152602001838360200280828437600092019190915250929594936020810193503591505064010000000081111561063857600080fd5b82018360208201111561064a57600080fd5b8035906020019184602083028401116401000000008311171561066c57600080fd5b9190808060200260200160405190810160405280939291908181526020018383602002808284376000920191909152509295506115e8945050505050565b60408051602080825283518183015283519192839290830191858101910280838360005b838110156106e65781810151838201526020016106ce565b505050509050019250505060405180910390f35b6101ff6116d4565b6102506116db565b61072d6004803603604081101561072057600080fd5b50803590602001356116e4565b604080516001600160a01b039092168252519081900360200190f35b61072d61171a565b61072d6004803603602081101561076757600080fd5b5035611729565b6101ff6004803603602081101561078457600080fd5b50356001600160a01b0316611753565b61028a600480360360408110156107aa57600080fd5b506001600160a01b038135169060200135151561176e565b61028a600480360360208110156107d857600080fd5b50356001600160a01b031661187b565b610250600480360360208110156107fe57600080fd5b50356001600160a01b031661191a565b6101ff6004803603604081101561082457600080fd5b506001600160a01b038135169060200135611938565b610a01600480360360a081101561085057600080fd5b6001600160a01b03823581169260208101359091169181019060608101604082013564010000000081111561088457600080fd5b82018360208201111561089657600080fd5b803590602001918460208302840111640100000000831117156108b857600080fd5b919080806020026020016040519081016040528093929190818152602001838360200280828437600092019190915250929594936020810193503591505064010000000081111561090857600080fd5b82018360208201111561091a57600080fd5b8035906020019184602083028401116401000000008311171561093c57600080fd5b919080806020026020016040519081016040528093929190818152602001838360200280828437600092019190915250929594936020810193503591505064010000000081111561098c57600080fd5b82018360208201111561099e57600080fd5b803590602001918460018302840111640100000000831117156109c057600080fd5b91908080601f01602080910402602001604051908101604052809392919081815260200183838082843760009201919091525092955061196f945050505050565b604080517fffffffff000000000000000000000000000000000000000000000000000000009092168252519081900360200190f35b61028a611999565b61025060048036036040811015610a5457600080fd5b506001600160a01b0381358116916020013516611a01565b6101ff60048036036020811015610a8257600080fd5b5035611af2565b61028a60048036036020811015610a9f57600080fd5b50356001600160a01b0316611b04565b610a01600480360360a0811015610ac557600080fd5b6001600160a01b03823581169260208101359091169160408201359160608101359181019060a081016080820135640100000000811115610b0557600080fd5b820183602082011115610b1757600080fd5b80359060200191846001830284011164010000000083111715610b3957600080fd5b91908080601f016020809104026020016040519081016040528093929190818152602001838380828437600092019190915250929550611bcd945050505050565b61028a600480360360a0811015610b9057600080fd5b6001600160a01b03823581169260208101359091169160408201359160608101359181019060a081016080820135640100000000811115610bd057600080fd5b820183602082011115610be257600080fd5b80359060200191846001830284011164010000000083111715610c0457600080fd5b91908080601f016020809104026020016040519081016040528093929190818152602001838380828437600092019190915250929550611bf7945050505050565b61028a60048036036060811015610c5b57600080fd5b506001600160a01b038135169060208101359060400135611dc2565b6101ff60048036036020811015610c8d57600080fd5b5035611e2a565b60006001600160a01b038316610cdb5760405162461bcd60e51b815260040180806020018281038252602b815260200180613235602b913960400191505060405180910390fd5b5060008181526001602090815260408083206001600160a01b03861684529091529020545b92915050565b7fffffffff00000000000000000000000000000000000000000000000000000000811660009081526020819052604090205460ff165b919050565b6007546001600160a01b03163314610da0576040805162461bcd60e51b815260206004820152600c60248201527f554e415554484f52495a45440000000000000000000000000000000000000000604482015290519081900360640190fd5b6001600160a01b038116610dfb576040805162461bcd60e51b815260206004820152600c60248201527f554e415554484f52495a45440000000000000000000000000000000000000000604482015290519081900360640190fd5b600780547fffffffffffffffffffffffff0000000000000000000000000000000000000000166001600160a01b0392909216919091179055565b600081815260086020526040902054606090610e825760405162461bcd60e51b815260040180806020018281038252602781526020018061337d6027913960400191505060405180910390fd5b610d00306001600160a01b0316630e89341c846040518263ffffffff1660e01b81526004018082815260200191505060006040518083038186803b158015610ec957600080fd5b505afa158015610edd573d6000803e3d6000fd5b505050506040513d6000823e601f3d9081017fffffffffffffffffffffffffffffffffffffffffffffffffffffffffffffffe01682016040526020811015610f2457600080fd5b8101908080516040519392919084640100000000821115610f4457600080fd5b908301906020820185811115610f5957600080fd5b8251640100000000811182820188101715610f7357600080fd5b82525081516020918201929091019080838360005b83811015610fa0578181015183820152602001610f88565b50505050905090810190601f168015610fcd5780820380516001836020036101000a031916815260200191505b50604052505050610fdd84611e3c565b611f48565b8060096000610fef611f84565b6001600160a01b03166001600160a01b0316815260200190815260200160002060008481526020019081526020016000205410611073576040805162461bcd60e51b815260206004820152600e60248201527f414c52454144595f4c4f434b4544000000000000000000000000000000000000604482015290519081900360640190fd5b8060096000611080611f84565b6001600160a01b0316815260208082019290925260409081016000908120948152939091529091205550565b3360009081526005602052604090205460ff161515600114806110ce57503033145b6111095760405162461bcd60e51b81526004018080602001828103825260288152602001806133a46028913960400191505060405180910390fd5b61114a8383836040518060400160405280600381526020017f3078300000000000000000000000000000000000000000000000000000000000815250611f88565b505050565b6001600160a01b039091166000908152600960209081526040808320938352929052205490565b6007546001600160a01b031633146111d5576040805162461bcd60e51b815260206004820152600c60248201527f554e415554484f52495a45440000000000000000000000000000000000000000604482015290519081900360640190fd5b600654811061122b576040805162461bcd60e51b815260206004820152600d60248201527f494e56414c49445f494e44455800000000000000000000000000000000000000604482015290519081900360640190fd5b60068054600019810190811061123d57fe5b600091825260209091200154600680546001600160a01b03909216918390811061126357fe5b600091825260209091200180547fffffffffffffffffffffffff0000000000000000000000000000000000000000166001600160a01b03929092169190911790556006805460001981019081106112b657fe5b600091825260209091200180547fffffffffffffffffffffffff000000000000000000000000000000000000000016905550565b815183511461132a5760405162461bcd60e51b815260040180806020018281038252602881526020018061341e6028913960400191505060405180910390fd5b6001600160a01b03841661136f5760405162461bcd60e51b81526004018080602001828103825260258152602001806132d96025913960400191505060405180910390fd5b611377611f84565b6001600160a01b0316856001600160a01b031614806113a257506113a28561139d611f84565b611a01565b6113dd5760405162461bcd60e51b81526004018080602001828103825260328152602001806132fe6032913960400191505060405180910390fd5b60006113e7611f84565b90506113f7818787878787611f9a565b60005b84518110156114f857600085828151811061141157fe5b60200260200101519050600085838151811061142957fe5b60200260200101519050611496816040518060600160405280602a8152602001613353602a91396001600086815260200190815260200160002060008d6001600160a01b03166001600160a01b03168152602001908152602001600020546125ad9092919063ffffffff16565b60008381526001602090815260408083206001600160a01b038e811685529252808320939093558a16815220546114cd9082612644565b60009283526001602081815260408086206001600160a01b038d1687529091529093205550016113fa565b50846001600160a01b0316866001600160a01b0316826001600160a01b03167f4a39dc06d4c0dbc64b70af90fd698a233a518aa5d07e595d983b8c0526c8f7fb8787604051808060200180602001838103835285818151815260200191508051906020019060200280838360005b8381101561157e578181015183820152602001611566565b50505050905001838103825284818151815260200191508051906020019060200280838360005b838110156115bd5781810151838201526020016115a5565b5050505090500194505050505060405180910390a46115e081878787878761269e565b505050505050565b6060815183511461162a5760405162461bcd60e51b81526004018080602001828103825260298152602001806133f56029913960400191505060405180910390fd5b6060835167ffffffffffffffff8111801561164457600080fd5b5060405190808252806020026020018201604052801561166e578160200160208202803683370190505b50905060005b84518110156116cc576116ad85828151811061168c57fe5b60200260200101518583815181106116a057fe5b6020026020010151610c94565b8282815181106116b957fe5b6020908102919091010152600101611674565b509392505050565b6006545b90565b60045460ff1690565b6000828152600b602052604081208054839081106116fe57fe5b6000918252602090912001546001600160a01b03169392505050565b6007546001600160a01b031690565b60006006828154811061173857fe5b6000918252602090912001546001600160a01b031692915050565b6001600160a01b03166000908152600a602052604090205490565b816001600160a01b0316611780611f84565b6001600160a01b031614156117c65760405162461bcd60e51b81526004018080602001828103825260298152602001806133cc6029913960400191505060405180910390fd5b80600260006117d3611f84565b6001600160a01b0390811682526020808301939093526040918201600090812091871680825291909352912080547fffffffffffffffffffffffffffffffffffffffffffffffffffffffffffffff001692151592909217909155611835611f84565b6001600160a01b03167f17307eab39ab6107e8899845ad3d59bd9653f200f220920489ca2b5937696c318360405180821515815260200191505060405180910390a35050565b3360009081526005602052604090205460ff1615156001148061189d57503033145b6118d85760405162461bcd60e51b81526004018080602001828103825260288152602001806133a46028913960400191505060405180910390fd5b6001600160a01b0316600090815260056020526040902080547fffffffffffffffffffffffffffffffffffffffffffffffffffffffffffffff00166001179055565b6001600160a01b031660009081526005602052604090205460ff1690565b6001600160a01b0382166000908152600a6020526040812080548390811061195c57fe5b9060005260206000200154905092915050565b7fbc197c810000000000000000000000000000000000000000000000000000000095945050505050565b3360009081526005602052604090205460ff161515600114806119bb57503033145b6119f65760405162461bcd60e51b81526004018080602001828103825260288152602001806133a46028913960400191505060405180910390fd5b336000526005602052565b6000805b600654811015611ae057600060068281548110611a1e57fe5b60009182526020918290200154604080517fc45527910000000000000000000000000000000000000000000000000000000081526001600160a01b0389811660048301529151928216945090871692849263c4552791926024808201939291829003018186803b158015611a9157600080fd5b505afa158015611aa5573d6000803e3d6000fd5b505050506040513d6020811015611abb57600080fd5b50516001600160a01b03161415611ad757600192505050610d00565b50600101611a05565b50611aeb8383612945565b9392505050565b60009081526008602052604090205490565b6007546001600160a01b03163314611b63576040805162461bcd60e51b815260206004820152600c60248201527f554e415554484f52495a45440000000000000000000000000000000000000000604482015290519081900360640190fd5b600680546001810182556000919091527ff652222313e28459528d920b65115c16c04f3efc82aaedc97be59f3f377c0d3f0180547fffffffffffffffffffffffff0000000000000000000000000000000000000000166001600160a01b0392909216919091179055565b7ff23a6e610000000000000000000000000000000000000000000000000000000095945050505050565b6001600160a01b038416611c3c5760405162461bcd60e51b81526004018080602001828103825260258152602001806132d96025913960400191505060405180910390fd5b611c44611f84565b6001600160a01b0316856001600160a01b03161480611c6a5750611c6a8561139d611f84565b611ca55760405162461bcd60e51b81526004018080602001828103825260298152602001806132b06029913960400191505060405180910390fd5b6000611caf611f84565b9050611ccf818787611cc088612973565b611cc988612973565b87611f9a565b611d16836040518060600160405280602a8152602001613353602a913960008781526001602090815260408083206001600160a01b038d16845290915290205491906125ad565b60008581526001602090815260408083206001600160a01b038b81168552925280832093909355871681522054611d4d9084612644565b60008581526001602090815260408083206001600160a01b03808b168086529184529382902094909455805188815291820187905280518a8416938616927fc3d58168c5ae7397731d063d5bbf3d657854427343f4c083240f7aacaa2d0f6292908290030190a46115e08187878787876129b7565b3360009081526005602052604090205460ff16151560011480611de457503033145b611e1f5760405162461bcd60e51b81526004018080602001828103825260288152602001806133a46028913960400191505060405180910390fd5b61114a838383612b59565b6000908152600b602052604090205490565b606081611e7d575060408051808201909152600181527f30000000000000000000000000000000000000000000000000000000000000006020820152610d3c565b8160005b8115611e9557600101600a82049150611e81565b60608167ffffffffffffffff81118015611eae57600080fd5b506040519080825280601f01601f191660200182016040528015611ed9576020820181803683370190505b50905060001982015b8515611f3f57600a860660300160f81b82828060019003935081518110611f0557fe5b60200101907effffffffffffffffffffffffffffffffffffffffffffffffffffffffffffff1916908160001a905350600a86049550611ee2565b50949350505050565b6060611aeb8383604051806020016040528060008152506040518060200160405280600081525060405180602001604052806000815250612b64565b3390565b611f9484848484612e01565b50505050565b611fa8868686868686612f09565b60005b83518110156125a4576001600160a01b03861615612056576001600160a01b03861660009081526009602052604081208551429290879085908110611fec57fe5b60200260200101518152602001908152602001600020541115612056576040805162461bcd60e51b815260206004820152600c60248201527f544f4b454e5f4c4f434b45440000000000000000000000000000000000000000604482015290519081900360640190fd5b6001600160a01b03861615801590612090575082818151811061207557fe5b602002602001015161208d878684815181106116a057fe5b03155b156123b25760005b6001600160a01b0387166000908152600a60205260409020548110156121ba578482815181106120c457fe5b6020026020010151600a6000896001600160a01b03166001600160a01b0316815260200190815260200160002082815481106120fc57fe5b906000526020600020015414156121b2576001600160a01b0387166000908152600a602052604090208054600019810190811061213557fe5b9060005260206000200154600a6000896001600160a01b03166001600160a01b03168152602001908152602001600020828154811061217057fe5b60009182526020808320909101929092556001600160a01b0389168152600a90915260409020805460001981019081106121a657fe5b60009182526020822001555b600101612098565b5060005b600b60008684815181106121ce57fe5b60200260200101518152602001908152602001600020805490508110156123b057866001600160a01b0316600b600087858151811061220957fe5b60200260200101518152602001908152602001600020828154811061222a57fe5b6000918252602090912001546001600160a01b031614156123a857600b600086848151811061225557fe5b602002602001015181526020019081526020016000206001600b600088868151811061227d57fe5b602002602001015181526020019081526020016000208054905003815481106122a257fe5b600091825260208220015486516001600160a01b0390911691600b918890869081106122ca57fe5b6020026020010151815260200190815260200160002082815481106122eb57fe5b9060005260206000200160006101000a8154816001600160a01b0302191690836001600160a01b03160217905550600b600086848151811061232957fe5b602002602001015181526020019081526020016000206001600b600088868151811061235157fe5b6020026020010151815260200190815260200160002080549050038154811061237657fe5b600091825260209091200180547fffffffffffffffffffffffff00000000000000000000000000000000000000001690555b6001016121be565b505b6001600160a01b038516158015906123d757506123d5858583815181106116a057fe5b155b15612492576001600160a01b0385166000908152600a60205260409020845185908390811061240257fe5b60209081029190910181015182546001810184556000938452918320909101558451600b919086908490811061243457fe5b602090810291909101810151825281810192909252604001600090812080546001810182559082529190200180547fffffffffffffffffffffffff0000000000000000000000000000000000000000166001600160a01b0387161790555b6001600160a01b038616612517576124ec8382815181106124af57fe5b6020026020010151600860008785815181106124c757fe5b602002602001015181526020019081526020016000205461264490919063ffffffff16565b600860008684815181106124fc57fe5b60200260200101518152602001908152602001600020819055505b6001600160a01b03851661259c5761257183828151811061253457fe5b60200260200101516008600087858151811061254c57fe5b6020026020010151815260200190815260200160002054612f5b90919063ffffffff16565b6008600086848151811061258157fe5b60200260200101518152602001908152602001600020819055505b600101611fab565b50505050505050565b6000818484111561263c5760405162461bcd60e51b81526004018080602001828103825283818151815260200191508051906020019080838360005b838110156126015781810151838201526020016125e9565b50505050905090810190601f16801561262e5780820380516001836020036101000a031916815260200191505b509250505060405180910390fd5b505050900390565b600082820183811015611aeb576040805162461bcd60e51b815260206004820152601b60248201527f536166654d6174683a206164646974696f6e206f766572666c6f770000000000604482015290519081900360640190fd5b6126b0846001600160a01b0316612fb8565b156115e057836001600160a01b031663bc197c8187878686866040518663ffffffff1660e01b815260040180866001600160a01b03168152602001856001600160a01b03168152602001806020018060200180602001848103845287818151815260200191508051906020019060200280838360005b8381101561273e578181015183820152602001612726565b50505050905001848103835286818151815260200191508051906020019060200280838360005b8381101561277d578181015183820152602001612765565b50505050905001848103825285818151815260200191508051906020019080838360005b838110156127b95781810151838201526020016127a1565b50505050905090810190601f1680156127e65780820380516001836020036101000a031916815260200191505b5098505050505050505050602060405180830381600087803b15801561280b57600080fd5b505af192505050801561283057506040513d602081101561282b57600080fd5b505160015b6128c55761283c6130f7565b80612847575061288e565b60405162461bcd60e51b81526020600482018181528351602484015283518493919283926044019190850190808383600083156126015781810151838201526020016125e9565b60405162461bcd60e51b81526004018080602001828103825260348152602001806131d96034913960400191505060405180910390fd5b7fffffffff0000000000000000000000000000000000000000000000000000000081167fbc197c8100000000000000000000000000000000000000000000000000000000146125a45760405162461bcd60e51b815260040180806020018281038252602881526020018061320d6028913960400191505060405180910390fd5b6001600160a01b03918216600090815260026020908152604080832093909416825291909152205460ff1690565b6040805160018082528183019092526060918291906020808301908036833701905050905082816000815181106129a657fe5b602090810291909101015292915050565b6129c9846001600160a01b0316612fb8565b156115e057836001600160a01b031663f23a6e6187878686866040518663ffffffff1660e01b815260040180866001600160a01b03168152602001856001600160a01b0316815260200184815260200183815260200180602001828103825283818151815260200191508051906020019080838360005b83811015612a58578181015183820152602001612a40565b50505050905090810190601f168015612a855780820380516001836020036101000a031916815260200191505b509650505050505050602060405180830381600087803b158015612aa857600080fd5b505af1925050508015612acd57506040513d6020811015612ac857600080fd5b505160015b612ad95761283c6130f7565b7fffffffff0000000000000000000000000000000000000000000000000000000081167ff23a6e6100000000000000000000000000000000000000000000000000000000146125a45760405162461bcd60e51b815260040180806020018281038252602881526020018061320d6028913960400191505060405180910390fd5b61114a838383612fbe565b805182518451865188516060948a948a948a948a948a948a94919092019092019091010167ffffffffffffffff81118015612b9e57600080fd5b506040519080825280601f01601f191660200182016040528015612bc9576020820181803683370190505b509050806000805b8851811015612c3a57888181518110612be657fe5b602001015160f81c60f81b838380600101945081518110612c0357fe5b60200101907effffffffffffffffffffffffffffffffffffffffffffffffffffffffffffff1916908160001a905350600101612bd1565b5060005b8751811015612ca757878181518110612c5357fe5b602001015160f81c60f81b838380600101945081518110612c7057fe5b60200101907effffffffffffffffffffffffffffffffffffffffffffffffffffffffffffff1916908160001a905350600101612c3e565b5060005b8651811015612d1457868181518110612cc057fe5b602001015160f81c60f81b838380600101945081518110612cdd57fe5b60200101907effffffffffffffffffffffffffffffffffffffffffffffffffffffffffffff1916908160001a905350600101612cab565b5060005b8551811015612d8157858181518110612d2d57fe5b602001015160f81c60f81b838380600101945081518110612d4a57fe5b60200101907effffffffffffffffffffffffffffffffffffffffffffffffffffffffffffff1916908160001a905350600101612d18565b5060005b8451811015612dee57848181518110612d9a57fe5b602001015160f81c60f81b838380600101945081518110612db757fe5b60200101907effffffffffffffffffffffffffffffffffffffffffffffffffffffffffffff1916908160001a905350600101612d85565b50909d9c50505050505050505050505050565b6001600160a01b038416612e465760405162461bcd60e51b81526004018080602001828103825260218152602001806134466021913960400191505060405180910390fd5b6000612e50611f84565b9050612e6281600087611cc088612973565b60008481526001602090815260408083206001600160a01b0389168452909152902054612e8f9084612644565b60008581526001602090815260408083206001600160a01b03808b16808652918452828520959095558151898152928301889052815190948616927fc3d58168c5ae7397731d063d5bbf3d657854427343f4c083240f7aacaa2d0f6292908290030190a4612f02816000878787876129b7565b5050505050565b612f178686868686866115e0565b612f1f6116db565b156115e05760405162461bcd60e51b815260040180806020018281038252602c815260200180613284602c913960400191505060405180910390fd5b600082821115612fb2576040805162461bcd60e51b815260206004820152601e60248201527f536166654d6174683a207375627472616374696f6e206f766572666c6f770000604482015290519081900360640190fd5b50900390565b3b151590565b6001600160a01b0383166130035760405162461bcd60e51b81526004018080602001828103825260238152602001806133306023913960400191505060405180910390fd5b600061300d611f84565b905061303d8185600061301f87612973565b61302887612973565b60405180602001604052806000815250611f9a565b613084826040518060600160405280602481526020016132606024913960008681526001602090815260408083206001600160a01b038b16845290915290205491906125ad565b60008481526001602090815260408083206001600160a01b03808a16808652918452828520959095558151888152928301879052815193949093908616927fc3d58168c5ae7397731d063d5bbf3d657854427343f4c083240f7aacaa2d0f6292908290030190a450505050565b60e01c90565b600060443d1015613107576116d8565b600481823e6308c379a061311b82516130f1565b14613125576116d8565b6040517ffffffffffffffffffffffffffffffffffffffffffffffffffffffffffffffffc3d016004823e80513d67ffffffffffffffff816024840111818411171561317357505050506116d8565b8284019250825191508082111561318d57505050506116d8565b503d830160208284010111156131a5575050506116d8565b601f017fffffffffffffffffffffffffffffffffffffffffffffffffffffffffffffffe01681016020016040529150509056fe455243313135353a207472616e7366657220746f206e6f6e2045524331313535526563656976657220696d706c656d656e746572455243313135353a204552433131353552656365697665722072656a656374656420746f6b656e73455243313135353a2062616c616e636520717565727920666f7220746865207a65726f2061646472657373455243313135353a206275726e20616d6f756e7420657863656564732062616c616e6365455243313135355061757361626c653a20746f6b656e207472616e73666572207768696c6520706175736564455243313135353a2063616c6c6572206973206e6f74206f776e6572206e6f7220617070726f766564455243313135353a207472616e7366657220746f20746865207a65726f2061646472657373455243313135353a207472616e736665722063616c6c6572206973206e6f74206f776e6572206e6f7220617070726f766564455243313135353a206275726e2066726f6d20746865207a65726f2061646472657373455243313135353a20696e73756666696369656e742062616c616e636520666f72207472616e736665724e465447656d4d756c7469546f6b656e237572693a204e4f4e4558495354454e545f544f4b454e436f6e74726f6c6c61626c653a2063616c6c6572206973206e6f74206120636f6e74726f6c6c6572455243313135353a2073657474696e6720617070726f76616c2073746174757320666f722073656c66455243313135353a206163636f756e747320616e6420696473206c656e677468206d69736d61746368455243313135353a2069647320616e6420616d6f756e7473206c656e677468206d69736d61746368455243313135353a206d696e7420746f20746865207a65726f2061646472657373a26469706673582212200b2032136e79b74f4a3dc48292abd0c26bebb7403fa1490601760cc7c508a0ab64736f6c63430007030033",
  "libraries": {
    "GovernanceLib": "0x8B4207A13a5a13bDb2bBf15c137820e61e3c4AAc",
    "Strings": "0x98ccd9cb27398a6595f15cbc4b63ac525b942aad",
    "SafeMath": "0xD34a551B4a262230a373D376dDf8aADb2B0D49FD",
    "ProposalsLib": "0x54812b41409912bd065e9d3920ce196ff9bfc995",
    "Create2": "0xa511e209a01e27d134b4f564263f7db8fcbdeba6"
  },
  "devdoc": {
    "kind": "dev",
    "methods": {
      "addController(address)": {
        "details": "Add an address allowed to control this contract"
      },
      "addProxyRegistry(address)": {
        "details": "Returns the total balance minted of this type"
      },
      "allHeldTokens(address,uint256)": {
        "details": "Returns the total balance minted of this type"
      },
      "allHeldTokensLength(address)": {
        "details": "Returns the total balance minted of this type"
      },
      "allProxyRegistries(uint256)": {
        "details": "Returns the total balance minted of this type"
      },
      "allProxyRegistriesLength()": {
        "details": "Returns the total balance minted of this type"
      },
      "allTokenHolders(uint256,uint256)": {
        "details": "Returns the total balance minted of this type"
      },
      "allTokenHoldersLength(uint256)": {
        "details": "Returns the total balance minted of this type"
      },
      "balanceOf(address,uint256)": {
        "details": "See {IERC1155-balanceOf}. Requirements: - `account` cannot be the zero address."
      },
      "balanceOfBatch(address[],uint256[])": {
        "details": "See {IERC1155-balanceOfBatch}. Requirements: - `accounts` and `ids` must have the same length."
      },
      "burn(address,uint256,uint256)": {
        "details": "mint some amount of tokens. Only callable by token owner"
      },
      "constructor": {
        "details": "Contract initializer."
      },
      "getRegistryManager()": {
        "details": "Returns the total balance minted of this type"
      },
      "isController(address)": {
        "details": "Check if this address is a controller"
      },
      "mint(address,uint256,uint256)": {
        "details": "mint some amount of tokens. Only callable by token owner"
      },
      "paused()": {
        "details": "Returns true if the contract is paused, and false otherwise."
      },
      "relinquishControl()": {
        "details": "Check if this address is a controller"
      },
      "removeProxyRegistryAt(uint256)": {
        "details": "Returns the total balance minted of this type"
      },
      "safeBatchTransferFrom(address,address,uint256[],uint256[],bytes)": {
        "details": "See {IERC1155-safeBatchTransferFrom}."
      },
      "safeTransferFrom(address,address,uint256,uint256,bytes)": {
        "details": "See {IERC1155-safeTransferFrom}."
      },
      "setApprovalForAll(address,bool)": {
        "details": "See {IERC1155-setApprovalForAll}."
      },
      "setRegistryManager(address)": {
        "details": "Returns the total balance minted of this type"
      },
      "supportsInterface(bytes4)": {
        "details": "See {IERC165-supportsInterface}. Time complexity O(1), guaranteed to always use less than 30 000 gas."
      },
      "totalBalances(uint256)": {
        "details": "Returns the total balance minted of this type"
      },
      "uri(uint256)": {
        "details": "Returns the metadata URI for this token type"
      }
    },
    "version": 1
  },
  "userdoc": {
    "kind": "user",
    "methods": {
      "isApprovedForAll(address,address)": {
        "notice": "Override isApprovedForAll to whitelist user's OpenSea proxy accounts to enable gas-free listings."
      }
    },
    "version": 1
  },
  "storageLayout": {
    "storage": [
      {
        "astId": 14731,
        "contract": "src/tokens/NFTGemMultiToken.sol:NFTGemMultiToken",
        "label": "_supportedInterfaces",
        "offset": 0,
        "slot": "0",
        "type": "t_mapping(t_bytes4,t_bool)"
      },
      {
        "astId": 19616,
        "contract": "src/tokens/NFTGemMultiToken.sol:NFTGemMultiToken",
        "label": "_balances",
        "offset": 0,
        "slot": "1",
        "type": "t_mapping(t_uint256,t_mapping(t_address,t_uint256))"
      },
      {
        "astId": 19622,
        "contract": "src/tokens/NFTGemMultiToken.sol:NFTGemMultiToken",
        "label": "_operatorApprovals",
        "offset": 0,
        "slot": "2",
        "type": "t_mapping(t_address,t_mapping(t_address,t_bool))"
      },
      {
        "astId": 19624,
        "contract": "src/tokens/NFTGemMultiToken.sol:NFTGemMultiToken",
        "label": "_uri",
        "offset": 0,
        "slot": "3",
        "type": "t_string_storage"
      },
      {
        "astId": 22526,
        "contract": "src/tokens/NFTGemMultiToken.sol:NFTGemMultiToken",
        "label": "_paused",
        "offset": 0,
        "slot": "4",
        "type": "t_bool"
      },
      {
        "astId": 10169,
        "contract": "src/tokens/NFTGemMultiToken.sol:NFTGemMultiToken",
        "label": "_controllers",
        "offset": 0,
        "slot": "5",
        "type": "t_mapping(t_address,t_bool)"
      },
      {
        "astId": 21264,
        "contract": "src/tokens/NFTGemMultiToken.sol:NFTGemMultiToken",
        "label": "proxyRegistries",
        "offset": 0,
        "slot": "6",
        "type": "t_array(t_address)dyn_storage"
      },
      {
        "astId": 21266,
        "contract": "src/tokens/NFTGemMultiToken.sol:NFTGemMultiToken",
        "label": "registryManager",
        "offset": 0,
        "slot": "7",
        "type": "t_address"
      },
      {
        "astId": 21270,
        "contract": "src/tokens/NFTGemMultiToken.sol:NFTGemMultiToken",
        "label": "_totalBalances",
        "offset": 0,
        "slot": "8",
        "type": "t_mapping(t_uint256,t_uint256)"
      },
      {
        "astId": 21276,
        "contract": "src/tokens/NFTGemMultiToken.sol:NFTGemMultiToken",
        "label": "_tokenLocks",
        "offset": 0,
        "slot": "9",
        "type": "t_mapping(t_address,t_mapping(t_uint256,t_uint256))"
      },
      {
        "astId": 21281,
        "contract": "src/tokens/NFTGemMultiToken.sol:NFTGemMultiToken",
        "label": "_heldTokens",
        "offset": 0,
        "slot": "10",
        "type": "t_mapping(t_address,t_array(t_uint256)dyn_storage)"
      },
      {
        "astId": 21286,
        "contract": "src/tokens/NFTGemMultiToken.sol:NFTGemMultiToken",
        "label": "_tokenHolders",
        "offset": 0,
        "slot": "11",
        "type": "t_mapping(t_uint256,t_array(t_address)dyn_storage)"
      }
    ],
    "types": {
      "t_address": {
        "encoding": "inplace",
        "label": "address",
        "numberOfBytes": "20"
      },
      "t_array(t_address)dyn_storage": {
        "base": "t_address",
        "encoding": "dynamic_array",
        "label": "address[]",
        "numberOfBytes": "32"
      },
      "t_array(t_uint256)dyn_storage": {
        "base": "t_uint256",
        "encoding": "dynamic_array",
        "label": "uint256[]",
        "numberOfBytes": "32"
      },
      "t_bool": {
        "encoding": "inplace",
        "label": "bool",
        "numberOfBytes": "1"
      },
      "t_bytes4": {
        "encoding": "inplace",
        "label": "bytes4",
        "numberOfBytes": "4"
      },
      "t_mapping(t_address,t_array(t_uint256)dyn_storage)": {
        "encoding": "mapping",
        "key": "t_address",
        "label": "mapping(address => uint256[])",
        "numberOfBytes": "32",
        "value": "t_array(t_uint256)dyn_storage"
      },
      "t_mapping(t_address,t_bool)": {
        "encoding": "mapping",
        "key": "t_address",
        "label": "mapping(address => bool)",
        "numberOfBytes": "32",
        "value": "t_bool"
      },
      "t_mapping(t_address,t_mapping(t_address,t_bool))": {
        "encoding": "mapping",
        "key": "t_address",
        "label": "mapping(address => mapping(address => bool))",
        "numberOfBytes": "32",
        "value": "t_mapping(t_address,t_bool)"
      },
      "t_mapping(t_address,t_mapping(t_uint256,t_uint256))": {
        "encoding": "mapping",
        "key": "t_address",
        "label": "mapping(address => mapping(uint256 => uint256))",
        "numberOfBytes": "32",
        "value": "t_mapping(t_uint256,t_uint256)"
      },
      "t_mapping(t_address,t_uint256)": {
        "encoding": "mapping",
        "key": "t_address",
        "label": "mapping(address => uint256)",
        "numberOfBytes": "32",
        "value": "t_uint256"
      },
      "t_mapping(t_bytes4,t_bool)": {
        "encoding": "mapping",
        "key": "t_bytes4",
        "label": "mapping(bytes4 => bool)",
        "numberOfBytes": "32",
        "value": "t_bool"
      },
      "t_mapping(t_uint256,t_array(t_address)dyn_storage)": {
        "encoding": "mapping",
        "key": "t_uint256",
        "label": "mapping(uint256 => address[])",
        "numberOfBytes": "32",
        "value": "t_array(t_address)dyn_storage"
      },
      "t_mapping(t_uint256,t_mapping(t_address,t_uint256))": {
        "encoding": "mapping",
        "key": "t_uint256",
        "label": "mapping(uint256 => mapping(address => uint256))",
        "numberOfBytes": "32",
        "value": "t_mapping(t_address,t_uint256)"
      },
      "t_mapping(t_uint256,t_uint256)": {
        "encoding": "mapping",
        "key": "t_uint256",
        "label": "mapping(uint256 => uint256)",
        "numberOfBytes": "32",
        "value": "t_uint256"
      },
      "t_string_storage": {
        "encoding": "bytes",
        "label": "string",
        "numberOfBytes": "32"
      },
      "t_uint256": {
        "encoding": "inplace",
        "label": "uint256",
        "numberOfBytes": "32"
      }
    }
  }
}