{
  "address": "0x7CCaf6b8Df717f5A2D738184184f9A4e2E198Bf0",
  "abi": [
    {
      "inputs": [
        {
          "internalType": "string",
          "name": "name",
          "type": "string"
        },
        {
          "internalType": "string",
          "name": "symbol",
          "type": "string"
        },
        {
          "internalType": "address",
          "name": "erc1155Token",
          "type": "address"
        },
        {
          "internalType": "address",
          "name": "feeManager",
          "type": "address"
        }
      ],
      "stateMutability": "nonpayable",
      "type": "constructor"
    },
    {
      "anonymous": false,
      "inputs": [
        {
          "indexed": true,
          "internalType": "address",
          "name": "owner",
          "type": "address"
        },
        {
          "indexed": true,
          "internalType": "address",
          "name": "spender",
          "type": "address"
        },
        {
          "indexed": false,
          "internalType": "uint256",
          "name": "value",
          "type": "uint256"
        }
      ],
      "name": "Approval",
      "type": "event"
    },
    {
      "anonymous": false,
      "inputs": [
        {
          "indexed": true,
          "internalType": "address",
          "name": "from",
          "type": "address"
        },
        {
          "indexed": true,
          "internalType": "address",
          "name": "to",
          "type": "address"
        },
        {
          "indexed": false,
          "internalType": "uint256",
          "name": "value",
          "type": "uint256"
        }
      ],
      "name": "Transfer",
      "type": "event"
    },
    {
      "anonymous": false,
      "inputs": [
        {
          "indexed": true,
          "internalType": "address",
          "name": "account",
          "type": "address"
        },
        {
          "indexed": false,
          "internalType": "uint256",
          "name": "quantity",
          "type": "uint256"
        }
      ],
      "name": "Unwrap",
      "type": "event"
    },
    {
      "anonymous": false,
      "inputs": [
        {
          "indexed": true,
          "internalType": "address",
          "name": "account",
          "type": "address"
        },
        {
          "indexed": false,
          "internalType": "uint256",
          "name": "quantity",
          "type": "uint256"
        }
      ],
      "name": "Wrap",
      "type": "event"
    },
    {
      "inputs": [
        {
          "internalType": "address",
          "name": "owner",
          "type": "address"
        },
        {
          "internalType": "address",
          "name": "spender",
          "type": "address"
        }
      ],
      "name": "allowance",
      "outputs": [
        {
          "internalType": "uint256",
          "name": "",
          "type": "uint256"
        }
      ],
      "stateMutability": "view",
      "type": "function"
    },
    {
      "inputs": [
        {
          "internalType": "address",
          "name": "spender",
          "type": "address"
        },
        {
          "internalType": "uint256",
          "name": "amount",
          "type": "uint256"
        }
      ],
      "name": "approve",
      "outputs": [
        {
          "internalType": "bool",
          "name": "",
          "type": "bool"
        }
      ],
      "stateMutability": "nonpayable",
      "type": "function"
    },
    {
      "inputs": [
        {
          "internalType": "address",
          "name": "account",
          "type": "address"
        }
      ],
      "name": "balanceOf",
      "outputs": [
        {
          "internalType": "uint256",
          "name": "",
          "type": "uint256"
        }
      ],
      "stateMutability": "view",
      "type": "function"
    },
    {
      "inputs": [],
      "name": "decimals",
      "outputs": [
        {
          "internalType": "uint8",
          "name": "",
          "type": "uint8"
        }
      ],
      "stateMutability": "view",
      "type": "function"
    },
    {
      "inputs": [
        {
          "internalType": "address",
          "name": "spender",
          "type": "address"
        },
        {
          "internalType": "uint256",
          "name": "subtractedValue",
          "type": "uint256"
        }
      ],
      "name": "decreaseAllowance",
      "outputs": [
        {
          "internalType": "bool",
          "name": "",
          "type": "bool"
        }
      ],
      "stateMutability": "nonpayable",
      "type": "function"
    },
    {
      "inputs": [],
      "name": "getReserves",
      "outputs": [
        {
          "internalType": "uint256",
          "name": "",
          "type": "uint256"
        }
      ],
      "stateMutability": "view",
      "type": "function"
    },
    {
      "inputs": [],
      "name": "getTokenAddress",
      "outputs": [
        {
          "internalType": "address",
          "name": "",
          "type": "address"
        }
      ],
      "stateMutability": "view",
      "type": "function"
    },
    {
      "inputs": [],
      "name": "getTokenId",
      "outputs": [
        {
          "internalType": "uint256",
          "name": "",
          "type": "uint256"
        }
      ],
      "stateMutability": "view",
      "type": "function"
    },
    {
      "inputs": [
        {
          "internalType": "address",
          "name": "spender",
          "type": "address"
        },
        {
          "internalType": "uint256",
          "name": "addedValue",
          "type": "uint256"
        }
      ],
      "name": "increaseAllowance",
      "outputs": [
        {
          "internalType": "bool",
          "name": "",
          "type": "bool"
        }
      ],
      "stateMutability": "nonpayable",
      "type": "function"
    },
    {
      "inputs": [
        {
          "internalType": "string",
          "name": "",
          "type": "string"
        },
        {
          "internalType": "string",
          "name": "",
          "type": "string"
        },
        {
          "internalType": "address",
          "name": "",
          "type": "address"
        },
        {
          "internalType": "address",
          "name": "",
          "type": "address"
        },
        {
          "internalType": "uint8",
          "name": "",
          "type": "uint8"
        },
        {
          "internalType": "address",
          "name": "",
          "type": "address"
        }
      ],
      "name": "initialize",
      "outputs": [],
      "stateMutability": "nonpayable",
      "type": "function"
    },
    {
      "inputs": [],
      "name": "name",
      "outputs": [
        {
          "internalType": "string",
          "name": "",
          "type": "string"
        }
      ],
      "stateMutability": "view",
      "type": "function"
    },
    {
      "inputs": [
        {
          "internalType": "address",
          "name": "",
          "type": "address"
        },
        {
          "internalType": "address",
          "name": "",
          "type": "address"
        },
        {
          "internalType": "uint256[]",
          "name": "",
          "type": "uint256[]"
        },
        {
          "internalType": "uint256[]",
          "name": "",
          "type": "uint256[]"
        },
        {
          "internalType": "bytes",
          "name": "",
          "type": "bytes"
        }
      ],
      "name": "onERC1155BatchReceived",
      "outputs": [
        {
          "internalType": "bytes4",
          "name": "",
          "type": "bytes4"
        }
      ],
      "stateMutability": "nonpayable",
      "type": "function"
    },
    {
      "inputs": [
        {
          "internalType": "address",
          "name": "",
          "type": "address"
        },
        {
          "internalType": "address",
          "name": "",
          "type": "address"
        },
        {
          "internalType": "uint256",
          "name": "",
          "type": "uint256"
        },
        {
          "internalType": "uint256",
          "name": "",
          "type": "uint256"
        },
        {
          "internalType": "bytes",
          "name": "",
          "type": "bytes"
        }
      ],
      "name": "onERC1155Received",
      "outputs": [
        {
          "internalType": "bytes4",
          "name": "",
          "type": "bytes4"
        }
      ],
      "stateMutability": "nonpayable",
      "type": "function"
    },
    {
      "inputs": [
        {
          "internalType": "bytes4",
          "name": "interfaceId",
          "type": "bytes4"
        }
      ],
      "name": "supportsInterface",
      "outputs": [
        {
          "internalType": "bool",
          "name": "",
          "type": "bool"
        }
      ],
      "stateMutability": "view",
      "type": "function"
    },
    {
      "inputs": [],
      "name": "symbol",
      "outputs": [
        {
          "internalType": "string",
          "name": "",
          "type": "string"
        }
      ],
      "stateMutability": "view",
      "type": "function"
    },
    {
      "inputs": [],
      "name": "totalSupply",
      "outputs": [
        {
          "internalType": "uint256",
          "name": "",
          "type": "uint256"
        }
      ],
      "stateMutability": "view",
      "type": "function"
    },
    {
      "inputs": [
        {
          "internalType": "address",
          "name": "recipient",
          "type": "address"
        },
        {
          "internalType": "uint256",
          "name": "amount",
          "type": "uint256"
        }
      ],
      "name": "transfer",
      "outputs": [
        {
          "internalType": "bool",
          "name": "",
          "type": "bool"
        }
      ],
      "stateMutability": "nonpayable",
      "type": "function"
    },
    {
      "inputs": [
        {
          "internalType": "address",
          "name": "sender",
          "type": "address"
        },
        {
          "internalType": "address",
          "name": "recipient",
          "type": "address"
        },
        {
          "internalType": "uint256",
          "name": "amount",
          "type": "uint256"
        }
      ],
      "name": "transferFrom",
      "outputs": [
        {
          "internalType": "bool",
          "name": "",
          "type": "bool"
        }
      ],
      "stateMutability": "nonpayable",
      "type": "function"
    },
    {
      "inputs": [
        {
          "internalType": "uint256",
          "name": "quantity",
          "type": "uint256"
        }
      ],
      "name": "unwrap",
      "outputs": [],
      "stateMutability": "nonpayable",
      "type": "function"
    },
    {
      "inputs": [
        {
          "internalType": "uint256",
          "name": "quantity",
          "type": "uint256"
        }
      ],
      "name": "wrap",
      "outputs": [],
      "stateMutability": "nonpayable",
      "type": "function"
    }
  ],
  "transactionHash": "0x7afb6cbe9b76e6534807dbeb6e68017d289a02570a1d46cdb35791a98ed2da6d",
  "args": [
    "NFTGem Governance",
    "NFTGG",
    "0xAA1476A4ca6ebc4f62f13b4BFAe61706faa1F51d",
    "0xb6544412B661C6836F1de6fb4B61af3742E3c545"
  ],
  "solcInputHash": "8dfe14931da0b3c7be6207c10ae7e818",
  "bytecode": "0x60806040523480156200001157600080fd5b5060405162001cfc38038062001cfc833981810160405260808110156200003757600080fd5b81019080805160405193929190846401000000008211156200005857600080fd5b9083019060208201858111156200006e57600080fd5b82516401000000008111828201881017156200008957600080fd5b82525081516020918201929091019080838360005b83811015620000b85781810151838201526020016200009e565b50505050905090810190601f168015620000e65780820380516001836020036101000a031916815260200191505b50604052602001805160405193929190846401000000008211156200010a57600080fd5b9083019060208201858111156200012057600080fd5b82516401000000008111828201881017156200013b57600080fd5b82525081516020918201929091019080838360005b838110156200016a57818101518382015260200162000150565b50505050905090810190601f168015620001985780820380516001836020036101000a031916815260200191505b50604090815260208281015192909101518651929450925085918591601291869160009160019187918791620001d49160039185019062000330565b508051620001ea90600490602084019062000330565b50506005805460ff19166012179055506200020c6301ffc9a760e01b62000295565b6200021e630271189760e51b62000295565b600780546001600160a01b03199081166001600160a01b03861617909155600980549091169055600a829055600c805460ff19169055600d81905562000264846200031a565b5050601080546001600160a01b0319166001600160a01b03969096169590951790945550620003cc95505050505050565b6001600160e01b03198082161415620002f5576040805162461bcd60e51b815260206004820152601c60248201527f4552433136353a20696e76616c696420696e7465726661636520696400000000604482015290519081900360640190fd5b6001600160e01b0319166000908152600660205260409020805460ff19166001179055565b6005805460ff191660ff92909216919091179055565b828054600181600116156101000203166002900490600052602060002090601f016020900481019282601f106200037357805160ff1916838001178555620003a3565b82800160010185558215620003a3579182015b82811115620003a357825182559160200191906001019062000386565b50620003b1929150620003b5565b5090565b5b80821115620003b15760008155600101620003b6565b61192080620003dc6000396000f3fe608060405234801561001057600080fd5b506004361061016c5760003560e01c806339509351116100cd578063bc197c8111610081578063de0e9a3e11610066578063de0e9a3e1461073c578063ea598cb014610759578063f23a6e61146107765761016c565b8063bc197c8114610512578063dd62ed3e1461070e5761016c565b806395d89b41116100b257806395d89b41146104b2578063a457c2d7146104ba578063a9059cbb146104e65761016c565b8063395093511461046057806370a082311461048c5761016c565b806310fe9ae81161012457806323b872dd1161010957806323b872dd146102bb578063313ce567146102f157806332816be11461030f5761016c565b806310fe9ae81461028f57806318160ddd146102b35761016c565b806306fdde031161015557806306fdde03146101de5780630902f1ac1461025b578063095ea7b3146102635761016c565b8063010a38f51461017157806301ffc9a71461018b575b600080fd5b610179610841565b60408051918252519081900360200190f35b6101ca600480360360208110156101a157600080fd5b50357fffffffff0000000000000000000000000000000000000000000000000000000016610847565b604080519115158252519081900360200190f35b6101e661087e565b6040805160208082528351818301528351919283929083019185019080838360005b83811015610220578181015183820152602001610208565b50505050905090810190601f16801561024d5780820380516001836020036101000a031916815260200191505b509250505060405180910390f35b610179610914565b6101ca6004803603604081101561027957600080fd5b506001600160a01b038135169060200135610998565b6102976109b6565b604080516001600160a01b039092168252519081900360200190f35b6101796109c5565b6101ca600480360360608110156102d157600080fd5b506001600160a01b038135811691602081013590911690604001356109cb565b6102f9610a52565b6040805160ff9092168252519081900360200190f35b61045e600480360360c081101561032557600080fd5b81019060208101813564010000000081111561034057600080fd5b82018360208201111561035257600080fd5b8035906020019184600183028401116401000000008311171561037457600080fd5b91908080601f01602080910402602001604051908101604052809392919081815260200183838082843760009201919091525092959493602081019350359150506401000000008111156103c757600080fd5b8201836020820111156103d957600080fd5b803590602001918460018302840111640100000000831117156103fb57600080fd5b91908080601f016020809104026020016040519081016040528093929190818152602001838380828437600092019190915250929550506001600160a01b03833581169450602084013581169360ff604082013516935060600135169050610a5b565b005b6101ca6004803603604081101561047657600080fd5b506001600160a01b038135169060200135610a8d565b610179600480360360208110156104a257600080fd5b50356001600160a01b0316610adb565b6101e6610af6565b6101ca600480360360408110156104d057600080fd5b506001600160a01b038135169060200135610b57565b6101ca600480360360408110156104fc57600080fd5b506001600160a01b038135169060200135610bbf565b6106d9600480360360a081101561052857600080fd5b6001600160a01b03823581169260208101359091169181019060608101604082013564010000000081111561055c57600080fd5b82018360208201111561056e57600080fd5b8035906020019184602083028401116401000000008311171561059057600080fd5b91908080602002602001604051908101604052809392919081815260200183836020028082843760009201919091525092959493602081019350359150506401000000008111156105e057600080fd5b8201836020820111156105f257600080fd5b8035906020019184602083028401116401000000008311171561061457600080fd5b919080806020026020016040519081016040528093929190818152602001838360200280828437600092019190915250929594936020810193503591505064010000000081111561066457600080fd5b82018360208201111561067657600080fd5b8035906020019184600183028401116401000000008311171561069857600080fd5b91908080601f016020809104026020016040519081016040528093929190818152602001838380828437600092019190915250929550610bd3945050505050565b604080517fffffffff000000000000000000000000000000000000000000000000000000009092168252519081900360200190f35b6101796004803603604081101561072457600080fd5b506001600160a01b0381358116916020013516610bfd565b61045e6004803603602081101561075257600080fd5b5035610c28565b61045e6004803603602081101561076f57600080fd5b5035610c34565b6106d9600480360360a081101561078c57600080fd5b6001600160a01b03823581169260208101359091169160408201359160608101359181019060a0810160808201356401000000008111156107cc57600080fd5b8201836020820111156107de57600080fd5b8035906020019184600183028401116401000000008311171561080057600080fd5b91908080601f016020809104026020016040519081016040528093929190818152602001838380828437600092019190915250929550610ed6945050505050565b600a5490565b7fffffffff000000000000000000000000000000000000000000000000000000001660009081526006602052604090205460ff1690565b60038054604080516020601f600260001961010060018816150201909516949094049384018190048102820181019092528281526060939092909183018282801561090a5780601f106108df5761010080835404028352916020019161090a565b820191906000526020600020905b8154815290600101906020018083116108ed57829003601f168201915b5050505050905090565b600754600a5460408051627eeac760e11b81523060048201526024810192909252516000926001600160a01b03169162fdd58e916044808301926020929190829003018186803b15801561096757600080fd5b505afa15801561097b573d6000803e3d6000fd5b505050506040513d602081101561099157600080fd5b5051905090565b60006109ac6109a5610f00565b8484610f04565b5060015b92915050565b6007546001600160a01b031690565b60025490565b60006109d8848484610ff0565b610a48846109e4610f00565b610a4385604051806060016040528060288152602001611834602891396001600160a01b038a16600090815260016020526040812090610a22610f00565b6001600160a01b03168152602081019190915260400160002054919061114b565b610f04565b5060019392505050565b60055460ff1690565b5050600880547fffffffffffffffffffffffff0000000000000000000000000000000000000000163017905550505050565b60006109ac610a9a610f00565b84610a438560016000610aab610f00565b6001600160a01b03908116825260208083019390935260409182016000908120918c1681529252902054906111e2565b6001600160a01b031660009081526020819052604090205490565b60048054604080516020601f600260001961010060018816150201909516949094049384018190048102820181019092528281526060939092909183018282801561090a5780601f106108df5761010080835404028352916020019161090a565b60006109ac610b64610f00565b84610a43856040518060600160405280602581526020016118c66025913960016000610b8e610f00565b6001600160a01b03908116825260208083019390935260409182016000908120918d1681529252902054919061114b565b60006109ac610bcc610f00565b8484610ff0565b7fbc197c810000000000000000000000000000000000000000000000000000000095945050505050565b6001600160a01b03918216600090815260016020908152604080832093909416825291909152205490565b610c3181611243565b50565b80610c76576040805162461bcd60e51b815260206004820152600d60248201526c5a45524f5f5155414e5449545960981b604482015290519081900360640190fd5b600754600a5460408051627eeac760e11b815233600482015260248101929092525183926001600160a01b03169162fdd58e916044808301926020929190829003018186803b158015610cc857600080fd5b505afa158015610cdc573d6000803e3d6000fd5b505050506040513d6020811015610cf257600080fd5b50511015610d47576040805162461bcd60e51b815260206004820152601c60248201527f494e53554646494349454e545f455243313135355f42414c414e434500000000604482015290519081900360640190fd5b6000610d65610d54610a52565b600d54849160ff16600a0a02611477565b601054604080517feee1ad8000000000000000000000000000000000000000000000000000000000815230600482015290519293506000926001600160a01b039092169163eee1ad8091602480820192602092909190829003018186803b158015610dcf57600080fd5b505afa158015610de3573d6000803e3d6000fd5b505050506040513d6020811015610df957600080fd5b50519050600081610e0b576000610e15565b610e1583836114d0565b90506000610e238483611537565b600754600a5460408051637921219560e11b815233600482015230602482015260448101929092526064820189905260a06084830152600060a4830181905290519394506001600160a01b039092169263f242432a9260e48084019391929182900301818387803b158015610e9757600080fd5b505af1158015610eab573d6000803e3d6000fd5b50505050610eb93382611594565b601054610ecf906001600160a01b031683611594565b5050505050565b7ff23a6e610000000000000000000000000000000000000000000000000000000095945050505050565b3390565b6001600160a01b038316610f495760405162461bcd60e51b81526004018080602001828103825260248152602001806118a26024913960400191505060405180910390fd5b6001600160a01b038216610f8e5760405162461bcd60e51b81526004018080602001828103825260228152602001806117cb6022913960400191505060405180910390fd5b6001600160a01b03808416600081815260016020908152604080832094871680845294825291829020859055815185815291517f8c5be1e5ebec7d5bd14f71427d1e84f3dd0314c0f7b2291e5b200ac8c7c3b9259281900390910190a3505050565b6001600160a01b0383166110355760405162461bcd60e51b815260040180806020018281038252602581526020018061187d6025913960400191505060405180910390fd5b6001600160a01b03821661107a5760405162461bcd60e51b81526004018080602001828103825260238152602001806117866023913960400191505060405180910390fd5b611085838383611684565b6110c2816040518060600160405280602681526020016117ed602691396001600160a01b038616600090815260208190526040902054919061114b565b6001600160a01b0380851660009081526020819052604080822093909355908416815220546110f190826111e2565b6001600160a01b038084166000818152602081815260409182902094909455805185815290519193928716927fddf252ad1be2c89b69c2b068fc378daa952ba7f163c4a11628f55a4df523b3ef92918290030190a3505050565b600081848411156111da5760405162461bcd60e51b81526004018080602001828103825283818151815260200191508051906020019080838360005b8381101561119f578181015183820152602001611187565b50505050905090810190601f1680156111cc5780820380516001836020036101000a031916815260200191505b509250505060405180910390fd5b505050900390565b60008282018381101561123c576040805162461bcd60e51b815260206004820152601b60248201527f536166654d6174683a206164646974696f6e206f766572666c6f770000000000604482015290519081900360640190fd5b9392505050565b80611285576040805162461bcd60e51b815260206004820152600d60248201526c5a45524f5f5155414e5449545960981b604482015290519081900360640190fd5b600754600a5460408051627eeac760e11b815230600482015260248101929092525183926001600160a01b03169162fdd58e916044808301926020929190829003018186803b1580156112d757600080fd5b505afa1580156112eb573d6000803e3d6000fd5b505050506040513d602081101561130157600080fd5b50511015611356576040805162461bcd60e51b815260206004820152601560248201527f494e53554646494349454e545f52455345525645530000000000000000000000604482015290519081900360640190fd5b611372611361610a52565b600d54839160ff16600a0a02611477565b61137b33610adb565b10156113ce576040805162461bcd60e51b815260206004820152601a60248201527f494e53554646494349454e545f45524332305f42414c414e4345000000000000604482015290519081900360640190fd5b6113f3336113ee6113dd610a52565b600d54859160ff16600a0a02611477565b611689565b600754600a5460408051637921219560e11b815230600482015233602482015260448101929092526064820184905260a06084830152600060a4830181905290516001600160a01b039093169263f242432a9260e480820193929182900301818387803b15801561146357600080fd5b505af1158015610ecf573d6000803e3d6000fd5b600082611486575060006109b0565b8282028284828161149357fe5b041461123c5760405162461bcd60e51b81526004018080602001828103825260218152602001806118136021913960400191505060405180910390fd5b6000808211611526576040805162461bcd60e51b815260206004820152601a60248201527f536166654d6174683a206469766973696f6e206279207a65726f000000000000604482015290519081900360640190fd5b81838161152f57fe5b049392505050565b60008282111561158e576040805162461bcd60e51b815260206004820152601e60248201527f536166654d6174683a207375627472616374696f6e206f766572666c6f770000604482015290519081900360640190fd5b50900390565b6001600160a01b0382166115ef576040805162461bcd60e51b815260206004820152601f60248201527f45524332303a206d696e7420746f20746865207a65726f206164647265737300604482015290519081900360640190fd5b6115fb60008383611684565b60025461160890826111e2565b6002556001600160a01b03821660009081526020819052604090205461162e90826111e2565b6001600160a01b0383166000818152602081815260408083209490945583518581529351929391927fddf252ad1be2c89b69c2b068fc378daa952ba7f163c4a11628f55a4df523b3ef9281900390910190a35050565b505050565b6001600160a01b0382166116ce5760405162461bcd60e51b815260040180806020018281038252602181526020018061185c6021913960400191505060405180910390fd5b6116da82600083611684565b611717816040518060600160405280602281526020016117a9602291396001600160a01b038516600090815260208190526040902054919061114b565b6001600160a01b03831660009081526020819052604090205560025461173d9082611537565b6002556040805182815290516000916001600160a01b038516917fddf252ad1be2c89b69c2b068fc378daa952ba7f163c4a11628f55a4df523b3ef9181900360200190a3505056fe45524332303a207472616e7366657220746f20746865207a65726f206164647265737345524332303a206275726e20616d6f756e7420657863656564732062616c616e636545524332303a20617070726f766520746f20746865207a65726f206164647265737345524332303a207472616e7366657220616d6f756e7420657863656564732062616c616e6365536166654d6174683a206d756c7469706c69636174696f6e206f766572666c6f7745524332303a207472616e7366657220616d6f756e74206578636565647320616c6c6f77616e636545524332303a206275726e2066726f6d20746865207a65726f206164647265737345524332303a207472616e736665722066726f6d20746865207a65726f206164647265737345524332303a20617070726f76652066726f6d20746865207a65726f206164647265737345524332303a2064656372656173656420616c6c6f77616e63652062656c6f77207a65726fa2646970667358221220ad7e0bce52a4d6a05310655083bb6f8a8ca6ec488e6629cf68fb8bd7dea78be464736f6c63430007030033",
  "libraries": {
    "GovernanceLib": "0xC42F611a14D8729ca37C63a55e5C225c4eBfD58B",
    "Strings": "0xAbd24e0Ed1fd83a2aa46312042fC79FA818e1B3d",
    "SafeMath": "0x7278CdFEaef0400293F30bE87dA7222d39eadE8A",
    "AddressSet": "0x9c13feb43EC10Ec755d05A836beef71da6193c99",
    "UInt256Set": "0x712021B608c352c36231b4d1DcaCE3970389B512",
    "Create2": "0x0c315760b903FEE9675fBEB7a83988843E531141",
    "ProposalsLib": "0x57B11De50cc51A795e3597B7d27dfabf9D6dA4ac",
    "ComplexPoolLib": "0x4A03Cc1F5733A08A2db0557E1075f3923d9D2392",
    "WrappedTokenLib": "0xb9e4019cF0613dFEd1D533313D8d1f302ED116f3",
    "Unigem20Library": "0x53eFB08AA8D4540F4e65D305373D74097a9CAEdd"
  },
  "devdoc": {
    "kind": "dev",
    "methods": {
      "allowance(address,address)": {
        "details": "See {IERC20-allowance}."
      },
      "approve(address,uint256)": {
        "details": "See {IERC20-approve}. Requirements: - `spender` cannot be the zero address."
      },
      "balanceOf(address)": {
        "details": "See {IERC20-balanceOf}."
      },
      "decimals()": {
        "details": "Returns the number of decimals used to get its user representation. For example, if `decimals` equals `2`, a balance of `505` tokens should be displayed to a user as `5,05` (`505 / 10 ** 2`). Tokens usually opt for a value of 18, imitating the relationship between Ether and Wei. This is the value {ERC20} uses, unless {_setupDecimals} is called. NOTE: This information is only used for _display_ purposes: it in no way affects any of the arithmetic of the contract, including {IERC20-balanceOf} and {IERC20-transfer}."
      },
      "decreaseAllowance(address,uint256)": {
        "details": "Atomically decreases the allowance granted to `spender` by the caller. This is an alternative to {approve} that can be used as a mitigation for problems described in {IERC20-approve}. Emits an {Approval} event indicating the updated allowance. Requirements: - `spender` cannot be the zero address. - `spender` must have allowance for the caller of at least `subtractedValue`."
      },
      "getReserves()": {
        "details": "get reserves held in wrapper"
      },
      "getTokenAddress()": {
        "details": "get the token address this wrapper is bound to"
      },
      "getTokenId()": {
        "details": "get the token id this wrapper is bound to"
      },
      "increaseAllowance(address,uint256)": {
        "details": "Atomically increases the allowance granted to `spender` by the caller. This is an alternative to {approve} that can be used as a mitigation for problems described in {IERC20-approve}. Emits an {Approval} event indicating the updated allowance. Requirements: - `spender` cannot be the zero address."
      },
      "initialize(string,string,address,address,uint8,address)": {
        "details": "initialize is a stub because this class is deployed by us with constructor params"
      },
      "name()": {
        "details": "Returns the name of the token."
      },
      "supportsInterface(bytes4)": {
        "details": "See {IERC165-supportsInterface}. Time complexity O(1), guaranteed to always use less than 30 000 gas."
      },
      "symbol()": {
        "details": "Returns the symbol of the token, usually a shorter version of the name."
      },
      "totalSupply()": {
        "details": "See {IERC20-totalSupply}."
      },
      "transfer(address,uint256)": {
        "details": "See {IERC20-transfer}. Requirements: - `recipient` cannot be the zero address. - the caller must have a balance of at least `amount`."
      },
      "transferFrom(address,address,uint256)": {
        "details": "See {IERC20-transferFrom}. Emits an {Approval} event indicating the updated allowance. This is not required by the EIP. See the note at the beginning of {ERC20}. Requirements: - `sender` and `recipient` cannot be the zero address. - `sender` must have a balance of at least `amount`. - the caller must have allowance for ``sender``'s tokens of at least `amount`."
      },
      "unwrap(uint256)": {
        "details": "unwrap a quantity of wrapped erc20 governance to erc1155"
      },
      "wrap(uint256)": {
        "details": "wrap a quantity of erc1155 governance to erc20"
      }
    },
    "version": 1
  },
  "userdoc": {
    "kind": "user",
    "methods": {},
    "version": 1
  },
  "storageLayout": {
    "storage": [
      {
        "astId": 39374,
        "contract": "src/tokens/NFTGemERC20Governance.sol:NFTGemWrappedERC20Governance",
        "label": "_balances",
        "offset": 0,
        "slot": "0",
        "type": "t_mapping(t_address,t_uint256)"
      },
      {
        "astId": 39380,
        "contract": "src/tokens/NFTGemERC20Governance.sol:NFTGemWrappedERC20Governance",
        "label": "_allowances",
        "offset": 0,
        "slot": "1",
        "type": "t_mapping(t_address,t_mapping(t_address,t_uint256))"
      },
      {
        "astId": 39382,
        "contract": "src/tokens/NFTGemERC20Governance.sol:NFTGemWrappedERC20Governance",
        "label": "_totalSupply",
        "offset": 0,
        "slot": "2",
        "type": "t_uint256"
      },
      {
        "astId": 39384,
        "contract": "src/tokens/NFTGemERC20Governance.sol:NFTGemWrappedERC20Governance",
        "label": "_name",
        "offset": 0,
        "slot": "3",
        "type": "t_string_storage"
      },
      {
        "astId": 39386,
        "contract": "src/tokens/NFTGemERC20Governance.sol:NFTGemWrappedERC20Governance",
        "label": "_symbol",
        "offset": 0,
        "slot": "4",
        "type": "t_string_storage"
      },
      {
        "astId": 39388,
        "contract": "src/tokens/NFTGemERC20Governance.sol:NFTGemWrappedERC20Governance",
        "label": "_decimals",
        "offset": 0,
        "slot": "5",
        "type": "t_uint8"
      },
      {
        "astId": 23139,
        "contract": "src/tokens/NFTGemERC20Governance.sol:NFTGemWrappedERC20Governance",
        "label": "_supportedInterfaces",
        "offset": 0,
        "slot": "6",
        "type": "t_mapping(t_bytes4,t_bool)"
      },
      {
        "astId": 40365,
        "contract": "src/tokens/NFTGemERC20Governance.sol:NFTGemWrappedERC20Governance",
        "label": "tokenData",
        "offset": 0,
        "slot": "7",
        "type": "t_struct(WrappedTokenData)42766_storage"
      },
      {
        "astId": 41193,
        "contract": "src/tokens/NFTGemERC20Governance.sol:NFTGemWrappedERC20Governance",
        "label": "_feeManager",
        "offset": 0,
        "slot": "16",
        "type": "t_address"
      }
    ],
    "types": {
      "t_address": {
        "encoding": "inplace",
        "label": "address",
        "numberOfBytes": "20"
      },
      "t_array(t_uint256)dyn_storage": {
        "base": "t_uint256",
        "encoding": "dynamic_array",
        "label": "uint256[]",
        "numberOfBytes": "32"
      },
      "t_bool": {
        "encoding": "inplace",
        "label": "bool",
        "numberOfBytes": "1"
      },
      "t_bytes4": {
        "encoding": "inplace",
        "label": "bytes4",
        "numberOfBytes": "4"
      },
      "t_enum(TokenType)21311": {
        "encoding": "inplace",
        "label": "enum INFTGemMultiToken.TokenType",
        "numberOfBytes": "1"
      },
      "t_mapping(t_address,t_array(t_uint256)dyn_storage)": {
        "encoding": "mapping",
        "key": "t_address",
        "label": "mapping(address => uint256[])",
        "numberOfBytes": "32",
        "value": "t_array(t_uint256)dyn_storage"
      },
      "t_mapping(t_address,t_mapping(t_address,t_uint256))": {
        "encoding": "mapping",
        "key": "t_address",
        "label": "mapping(address => mapping(address => uint256))",
        "numberOfBytes": "32",
        "value": "t_mapping(t_address,t_uint256)"
      },
      "t_mapping(t_address,t_uint256)": {
        "encoding": "mapping",
        "key": "t_address",
        "label": "mapping(address => uint256)",
        "numberOfBytes": "32",
        "value": "t_uint256"
      },
      "t_mapping(t_bytes4,t_bool)": {
        "encoding": "mapping",
        "key": "t_bytes4",
        "label": "mapping(bytes4 => bool)",
        "numberOfBytes": "32",
        "value": "t_bool"
      },
      "t_string_storage": {
        "encoding": "bytes",
        "label": "string",
        "numberOfBytes": "32"
      },
      "t_struct(WrappedTokenData)42766_storage": {
        "encoding": "inplace",
        "label": "struct WrappedTokenLib.WrappedTokenData",
        "members": [
          {
            "astId": 42743,
            "contract": "src/tokens/NFTGemERC20Governance.sol:NFTGemWrappedERC20Governance",
            "label": "erc1155token",
            "offset": 0,
            "slot": "0",
            "type": "t_address"
          },
          {
            "astId": 42745,
            "contract": "src/tokens/NFTGemERC20Governance.sol:NFTGemWrappedERC20Governance",
            "label": "erc20token",
            "offset": 0,
            "slot": "1",
            "type": "t_address"
          },
          {
            "astId": 42747,
            "contract": "src/tokens/NFTGemERC20Governance.sol:NFTGemWrappedERC20Governance",
            "label": "tokenPool",
            "offset": 0,
            "slot": "2",
            "type": "t_address"
          },
          {
            "astId": 42749,
            "contract": "src/tokens/NFTGemERC20Governance.sol:NFTGemWrappedERC20Governance",
            "label": "index",
            "offset": 0,
            "slot": "3",
            "type": "t_uint256"
          },
          {
            "astId": 42751,
            "contract": "src/tokens/NFTGemERC20Governance.sol:NFTGemWrappedERC20Governance",
            "label": "wrappedBalance",
            "offset": 0,
            "slot": "4",
            "type": "t_uint256"
          },
          {
            "astId": 42753,
            "contract": "src/tokens/NFTGemERC20Governance.sol:NFTGemWrappedERC20Governance",
            "label": "tokenType",
            "offset": 0,
            "slot": "5",
            "type": "t_enum(TokenType)21311"
          },
          {
            "astId": 42755,
            "contract": "src/tokens/NFTGemERC20Governance.sol:NFTGemWrappedERC20Governance",
            "label": "rate",
            "offset": 0,
            "slot": "6",
            "type": "t_uint256"
          },
          {
            "astId": 42760,
            "contract": "src/tokens/NFTGemERC20Governance.sol:NFTGemWrappedERC20Governance",
            "label": "ids",
            "offset": 0,
            "slot": "7",
            "type": "t_mapping(t_address,t_array(t_uint256)dyn_storage)"
          },
          {
            "astId": 42765,
            "contract": "src/tokens/NFTGemERC20Governance.sol:NFTGemWrappedERC20Governance",
            "label": "amounts",
            "offset": 0,
            "slot": "8",
            "type": "t_mapping(t_address,t_array(t_uint256)dyn_storage)"
          }
        ],
        "numberOfBytes": "288"
      },
      "t_uint256": {
        "encoding": "inplace",
        "label": "uint256",
        "numberOfBytes": "32"
      },
      "t_uint8": {
        "encoding": "inplace",
        "label": "uint8",
        "numberOfBytes": "1"
      }
    }
  }
}