{
  "address": "0x7121c5256CcEeFf3208ED97Ab92A29dF62fe4b17",
  "abi": [
    {
      "inputs": [],
      "stateMutability": "nonpayable",
      "type": "constructor"
    },
    {
      "anonymous": false,
      "inputs": [
        {
          "indexed": true,
          "internalType": "address",
          "name": "token0",
          "type": "address"
        },
        {
          "indexed": true,
          "internalType": "address",
          "name": "token1",
          "type": "address"
        },
        {
          "indexed": false,
          "internalType": "address",
          "name": "pair",
          "type": "address"
        },
        {
          "indexed": false,
          "internalType": "uint256",
          "name": "",
          "type": "uint256"
        }
      ],
      "name": "PairCreated",
      "type": "event"
    },
    {
      "inputs": [
        {
          "internalType": "uint256",
          "name": "",
          "type": "uint256"
        }
      ],
      "name": "allPairs",
      "outputs": [
        {
          "internalType": "address",
          "name": "",
          "type": "address"
        }
      ],
      "stateMutability": "view",
      "type": "function"
    },
    {
      "inputs": [],
      "name": "allPairsLength",
      "outputs": [
        {
          "internalType": "uint256",
          "name": "",
          "type": "uint256"
        }
      ],
      "stateMutability": "view",
      "type": "function"
    },
    {
      "inputs": [
        {
          "internalType": "address",
          "name": "tokenA",
          "type": "address"
        },
        {
          "internalType": "address",
          "name": "tokenB",
          "type": "address"
        }
      ],
      "name": "createPair",
      "outputs": [
        {
          "internalType": "address",
          "name": "pair",
          "type": "address"
        }
      ],
      "stateMutability": "nonpayable",
      "type": "function"
    },
    {
      "inputs": [],
      "name": "feeTo",
      "outputs": [
        {
          "internalType": "address",
          "name": "",
          "type": "address"
        }
      ],
      "stateMutability": "view",
      "type": "function"
    },
    {
      "inputs": [],
      "name": "feeToSetter",
      "outputs": [
        {
          "internalType": "address",
          "name": "",
          "type": "address"
        }
      ],
      "stateMutability": "view",
      "type": "function"
    },
    {
      "inputs": [
        {
          "internalType": "address",
          "name": "",
          "type": "address"
        },
        {
          "internalType": "address",
          "name": "",
          "type": "address"
        }
      ],
      "name": "getPair",
      "outputs": [
        {
          "internalType": "address",
          "name": "",
          "type": "address"
        }
      ],
      "stateMutability": "view",
      "type": "function"
    },
    {
      "inputs": [
        {
          "internalType": "address",
          "name": "_feeTo",
          "type": "address"
        }
      ],
      "name": "setFeeTo",
      "outputs": [],
      "stateMutability": "nonpayable",
      "type": "function"
    },
    {
      "inputs": [
        {
          "internalType": "address",
          "name": "_feeToSetter",
          "type": "address"
        }
      ],
      "name": "setFeeToSetter",
      "outputs": [],
      "stateMutability": "nonpayable",
      "type": "function"
    }
  ],
  "transactionHash": "0x67c918c2596f3da8547a8f18e75e4f71f7228d7e10e434f3fadd11a21ca840bc",
  "args": [],
  "solcInputHash": "8dfe14931da0b3c7be6207c10ae7e818",
  "bytecode": "0x608060405234801561001057600080fd5b50600180546001600160a01b03191633179055612a6c806100326000396000f3fe608060405234801561001057600080fd5b50600436106100885760003560e01c8063a2e74af61161005b578063a2e74af6146100f0578063c9c6539614610118578063e6a4390514610146578063f46901ed1461017457610088565b8063017e7e581461008d578063094b7415146100b15780631e3dd18b146100b9578063574f2ba3146100d6575b600080fd5b61009561019a565b604080516001600160a01b039092168252519081900360200190f35b6100956101a9565b610095600480360360208110156100cf57600080fd5b50356101b8565b6100de6101df565b60408051918252519081900360200190f35b6101166004803603602081101561010657600080fd5b50356001600160a01b03166101e5565b005b6100956004803603604081101561012e57600080fd5b506001600160a01b0381358116916020013516610273565b6100956004803603604081101561015c57600080fd5b506001600160a01b03813581169160200135166105b2565b6101166004803603602081101561018a57600080fd5b50356001600160a01b03166105d8565b6000546001600160a01b031681565b6001546001600160a01b031681565b600381815481106101c557fe5b6000918252602090912001546001600160a01b0316905081565b60035490565b6001546001600160a01b03163314610244576040805162461bcd60e51b815260206004820152601360248201527f556e6967656d32303a20464f5242494444454e00000000000000000000000000604482015290519081900360640190fd5b6001805473ffffffffffffffffffffffffffffffffffffffff19166001600160a01b0392909216919091179055565b6000816001600160a01b0316836001600160a01b031614156102dc576040805162461bcd60e51b815260206004820152601d60248201527f556e6967656d32303a204944454e544943414c5f414444524553534553000000604482015290519081900360640190fd5b600080836001600160a01b0316856001600160a01b0316106102ff578385610302565b84845b90925090506001600160a01b038216610362576040805162461bcd60e51b815260206004820152601660248201527f556e6967656d32303a205a45524f5f4144445245535300000000000000000000604482015290519081900360640190fd5b6001600160a01b038281166000908152600260209081526040808320858516845290915290205416156103dc576040805162461bcd60e51b815260206004820152601560248201527f556e6967656d32303a20504149525f4558495354530000000000000000000000604482015290519081900360640190fd5b6060604051806020016103ee90610666565b6020820181038252601f19601f8201166040525090506000838360405160200180836001600160a01b031660601b8152601401826001600160a01b031660601b815260140192505050604051602081830303815290604052805190602001209050808251602084016000f59450846001600160a01b031663485cc95585856040518363ffffffff1660e01b815260040180836001600160a01b03168152602001826001600160a01b0316815260200192505050600060405180830381600087803b1580156104bb57600080fd5b505af11580156104cf573d6000803e3d6000fd5b505050506001600160a01b0384811660008181526002602081815260408084208987168086529083528185208054978d1673ffffffffffffffffffffffffffffffffffffffff1998891681179091559383528185208686528352818520805488168517905560038054600181018255958190527fc2575a0e9e593c00f959f8c92f12db2869c3395a3b0502d05e2516446f71f85b90950180549097168417909655925483519283529082015281517f0d3648bd0f6ba80134a33ba9275ac585d9d315f0ad8355cddefde31afa28d0e9929181900390910190a35050505092915050565b60026020908152600092835260408084209091529082529020546001600160a01b031681565b6001546001600160a01b03163314610637576040805162461bcd60e51b815260206004820152601360248201527f556e6967656d32303a20464f5242494444454e00000000000000000000000000604482015290519081900360640190fd5b6000805473ffffffffffffffffffffffffffffffffffffffff19166001600160a01b0392909216919091179055565b6123c3806106748339019056fe60806040526001600c5534801561001557600080fd5b5060408051808201825260088152670556e6967656d32360c41b6020918201528151808301835260018152603160f81b9082015281517f8b73c3c69bb8fe3d512ecc4cf759cc79239f7b179b0ffacaa9a75d522b39400f818301527f450a677f3967dfe3317ba9b268418f8df4d0f7f4c237f6b0f3b14891cb71ee01818401527fc89efdaa54c0f20c7adf612882df0950f5a951637e0307cdcb4c672f298b8bc660608201524660808201523060a0808301919091528351808303909101815260c09091019092528151910120600355600580546001600160a01b031916331790556122bd806101066000396000f3fe608060405234801561001057600080fd5b50600436106101b95760003560e01c80636a627842116100f9578063ba9a7a5611610097578063d21220a711610071578063d21220a714610544578063d505accf1461054c578063dd62ed3e1461059d578063fff6cae9146105cb576101b9565b8063ba9a7a561461050e578063bc25cf7714610516578063c45a01551461053c576101b9565b80637ecebe00116100d35780637ecebe001461047557806389afcb441461049b57806395d89b41146104da578063a9059cbb146104e2576101b9565b80636a6278421461042157806370a08231146104475780637464fc3d1461046d576101b9565b806323b872dd116101665780633644e515116101405780633644e515146103db578063485cc955146103e35780635909c0d5146104115780635a3d549314610419576101b9565b806323b872dd1461037f57806330adf81f146103b5578063313ce567146103bd576101b9565b8063095ea7b311610197578063095ea7b3146103015780630dfe16811461034157806318160ddd14610365576101b9565b8063022c0d9f146101be57806306fdde031461024c5780630902f1ac146102c9575b600080fd5b61024a600480360360808110156101d457600080fd5b8135916020810135916001600160a01b03604083013516919081019060808101606082013564010000000081111561020b57600080fd5b82018360208201111561021d57600080fd5b8035906020019184600183028401116401000000008311171561023f57600080fd5b5090925090506105d3565b005b610254610b09565b6040805160208082528351818301528351919283929083019185019080838360005b8381101561028e578181015183820152602001610276565b50505050905090810190601f1680156102bb5780820380516001836020036101000a031916815260200191505b509250505060405180910390f35b6102d1610b42565b604080516001600160701b03948516815292909316602083015263ffffffff168183015290519081900360600190f35b61032d6004803603604081101561031757600080fd5b506001600160a01b038135169060200135610b6c565b604080519115158252519081900360200190f35b610349610b83565b604080516001600160a01b039092168252519081900360200190f35b61036d610b92565b60408051918252519081900360200190f35b61032d6004803603606081101561039557600080fd5b506001600160a01b03813581169160208101359091169060400135610b98565b61036d610c2c565b6103c5610c50565b6040805160ff9092168252519081900360200190f35b61036d610c55565b61024a600480360360408110156103f957600080fd5b506001600160a01b0381358116916020013516610c5b565b61036d610d00565b61036d610d06565b61036d6004803603602081101561043757600080fd5b50356001600160a01b0316610d0c565b61036d6004803603602081101561045d57600080fd5b50356001600160a01b0316610fe7565b61036d610ff9565b61036d6004803603602081101561048b57600080fd5b50356001600160a01b0316610fff565b6104c1600480360360208110156104b157600080fd5b50356001600160a01b0316611011565b6040805192835260208301919091528051918290030190f35b6102546113a4565b61032d600480360360408110156104f857600080fd5b506001600160a01b0381351690602001356113dd565b61036d6113ea565b61024a6004803603602081101561052c57600080fd5b50356001600160a01b03166113f0565b610349611561565b610349611570565b61024a600480360360e081101561056257600080fd5b506001600160a01b03813581169160208101359091169060408101359060608101359060ff6080820135169060a08101359060c0013561157f565b61036d600480360360408110156105b357600080fd5b506001600160a01b03813581169160200135166117a7565b61024a6117c4565b600c5460011461061d576040805162461bcd60e51b815260206004820152601060248201526f155b9a59d95b4c8c0e881313d0d2d15160821b604482015290519081900360640190fd5b6000600c55841515806106305750600084115b61066b5760405162461bcd60e51b81526004018080602001828103825260248152602001806122646024913960400191505060405180910390fd5b600080610676610b42565b5091509150816001600160701b03168710801561069b5750806001600160701b031686105b6106ec576040805162461bcd60e51b815260206004820181905260248201527f556e6967656d32303a20494e53554646494349454e545f4c4951554944495459604482015290519081900360640190fd5b60065460075460009182916001600160a01b0391821691908116908916821480159061072a5750806001600160a01b0316896001600160a01b031614155b61077b576040805162461bcd60e51b815260206004820152601460248201527f556e6967656d32303a20494e56414c49445f544f000000000000000000000000604482015290519081900360640190fd5b8a1561078c5761078c828a8d611925565b891561079d5761079d818a8c611925565b861561084f57886001600160a01b0316634be9f521338d8d8c8c6040518663ffffffff1660e01b815260040180866001600160a01b03168152602001858152602001848152602001806020018281038252848482818152602001925080828437600081840152601f19601f8201169050808301925050509650505050505050600060405180830381600087803b15801561083657600080fd5b505af115801561084a573d6000803e3d6000fd5b505050505b604080516370a0823160e01b815230600482015290516001600160a01b038416916370a08231916024808301926020929190829003018186803b15801561089557600080fd5b505afa1580156108a9573d6000803e3d6000fd5b505050506040513d60208110156108bf57600080fd5b5051604080516370a0823160e01b815230600482015290519195506001600160a01b038316916370a0823191602480820192602092909190829003018186803b15801561090b57600080fd5b505afa15801561091f573d6000803e3d6000fd5b505050506040513d602081101561093557600080fd5b5051925060009150506001600160701b0385168a90038311610958576000610967565b89856001600160701b03160383035b9050600089856001600160701b0316038311610984576000610993565b89856001600160701b03160383035b905060008211806109a45750600081115b6109df5760405162461bcd60e51b81526004018080602001828103825260238152602001806122416023913960400191505060405180910390fd5b6000610a016109ef846003611ad8565b6109fb876103e8611ad8565b90611b38565b90506000610a136109ef846003611ad8565b9050610a38620f4240610a326001600160701b038b8116908b16611ad8565b90611ad8565b610a428383611ad8565b1015610a95576040805162461bcd60e51b815260206004820152600b60248201527f556e6967656d32303a204b000000000000000000000000000000000000000000604482015290519081900360640190fd5b5050610aa384848888611b95565b60408051838152602081018390528082018d9052606081018c905290516001600160a01b038b169133917fd78ad95fa46c994b6551d0da85fc275fe613ce37657fb8d5e3d130840159d8229181900360800190a350506001600c55505050505050505050565b6040518060400160405280600881526020017f556e6967656d323000000000000000000000000000000000000000000000000081525081565b6008546001600160701b0380821692600160701b830490911691600160e01b900463ffffffff1690565b6000610b79338484611d6c565b5060015b92915050565b6006546001600160a01b031681565b60005481565b6001600160a01b038316600090815260026020908152604080832033845290915281205460001914610c17576001600160a01b0384166000908152600260209081526040808320338452909152902054610bf29083611b38565b6001600160a01b03851660009081526002602090815260408083203384529091529020555b610c22848484611dce565b5060019392505050565b7f6e71edae12b1b97f4d1f60370fef10105fa2faae0126114a169c64845d6126c981565b601281565b60035481565b6005546001600160a01b03163314610cba576040805162461bcd60e51b815260206004820152601360248201527f556e6967656d32303a20464f5242494444454e00000000000000000000000000604482015290519081900360640190fd5b600680546001600160a01b039384167fffffffffffffffffffffffff00000000000000000000000000000000000000009182161790915560078054929093169116179055565b60095481565b600a5481565b6000600c54600114610d58576040805162461bcd60e51b815260206004820152601060248201526f155b9a59d95b4c8c0e881313d0d2d15160821b604482015290519081900360640190fd5b6000600c81905580610d68610b42565b50600654604080516370a0823160e01b815230600482015290519395509193506000926001600160a01b03909116916370a08231916024808301926020929190829003018186803b158015610dbc57600080fd5b505afa158015610dd0573d6000803e3d6000fd5b505050506040513d6020811015610de657600080fd5b5051600754604080516370a0823160e01b815230600482015290519293506000926001600160a01b03909216916370a0823191602480820192602092909190829003018186803b158015610e3957600080fd5b505afa158015610e4d573d6000803e3d6000fd5b505050506040513d6020811015610e6357600080fd5b505190506000610e7c836001600160701b038716611b38565b90506000610e93836001600160701b038716611b38565b90506000610ea18787611e7c565b60005490915080610ed857610ec46103e86109fb610ebf8787611ad8565b611fbc565b9850610ed360006103e861200e565b610f1b565b610f186001600160701b038916610eef8684611ad8565b81610ef657fe5b046001600160701b038916610f0b8685611ad8565b81610f1257fe5b04612098565b98505b60008911610f5a5760405162461bcd60e51b81526004018080602001828103825260278152602001806121f96027913960400191505060405180910390fd5b610f648a8a61200e565b610f7086868a8a611b95565b8115610f9a57600854610f96906001600160701b0380821691600160701b900416611ad8565b600b555b6040805185815260208101859052815133927f4c209b5fc8ad50758f13e2e1088ba56a560dff690a1c6fef26394f4c03821c4f928290030190a250506001600c5550949695505050505050565b60016020526000908152604090205481565b600b5481565b60046020526000908152604090205481565b600080600c5460011461105e576040805162461bcd60e51b815260206004820152601060248201526f155b9a59d95b4c8c0e881313d0d2d15160821b604482015290519081900360640190fd5b6000600c8190558061106e610b42565b50600654600754604080516370a0823160e01b815230600482015290519496509294506001600160a01b039182169391169160009184916370a08231916024808301926020929190829003018186803b1580156110ca57600080fd5b505afa1580156110de573d6000803e3d6000fd5b505050506040513d60208110156110f457600080fd5b5051604080516370a0823160e01b815230600482015290519192506000916001600160a01b038516916370a08231916024808301926020929190829003018186803b15801561114257600080fd5b505afa158015611156573d6000803e3d6000fd5b505050506040513d602081101561116c57600080fd5b50513060009081526001602052604081205491925061118b8888611e7c565b6000549091508061119c8487611ad8565b816111a357fe5b049a50806111b18486611ad8565b816111b857fe5b04995060008b1180156111cb575060008a115b6112065760405162461bcd60e51b81526004018080602001828103825260278152602001806121d26027913960400191505060405180910390fd5b61121030846120ae565b61121b878d8d611925565b611226868d8c611925565b604080516370a0823160e01b815230600482015290516001600160a01b038916916370a08231916024808301926020929190829003018186803b15801561126c57600080fd5b505afa158015611280573d6000803e3d6000fd5b505050506040513d602081101561129657600080fd5b5051604080516370a0823160e01b815230600482015290519196506001600160a01b038816916370a0823191602480820192602092909190829003018186803b1580156112e257600080fd5b505afa1580156112f6573d6000803e3d6000fd5b505050506040513d602081101561130c57600080fd5b5051935061131c85858b8b611b95565b811561134657600854611342906001600160701b0380821691600160701b900416611ad8565b600b555b604080518c8152602081018c905281516001600160a01b038f169233927fdccd412f0b1252819cb1fd330b93224ca42612892bb3f4f789976e6d81936496929081900390910190a35050505050505050506001600c81905550915091565b6040518060400160405280600981526020017f554e4947454d2d3230000000000000000000000000000000000000000000000081525081565b6000610b79338484611dce565b6103e881565b600c5460011461143a576040805162461bcd60e51b815260206004820152601060248201526f155b9a59d95b4c8c0e881313d0d2d15160821b604482015290519081900360640190fd5b6000600c55600654600754600854604080516370a0823160e01b815230600482015290516001600160a01b0394851694909316926114e392859287926114de926001600160701b03169185916370a0823191602480820192602092909190829003018186803b1580156114ac57600080fd5b505afa1580156114c0573d6000803e3d6000fd5b505050506040513d60208110156114d657600080fd5b505190611b38565b611925565b61155781846114de6008600e9054906101000a90046001600160701b03166001600160701b0316856001600160a01b03166370a08231306040518263ffffffff1660e01b815260040180826001600160a01b0316815260200191505060206040518083038186803b1580156114ac57600080fd5b50506001600c5550565b6005546001600160a01b031681565b6007546001600160a01b031681565b428410156115d4576040805162461bcd60e51b815260206004820152601160248201527f556e6967656d32303a2045585049524544000000000000000000000000000000604482015290519081900360640190fd5b6003546001600160a01b0380891660008181526004602090815260408083208054600180820190925582517f6e71edae12b1b97f4d1f60370fef10105fa2faae0126114a169c64845d6126c98186015280840196909652958d166060860152608085018c905260a085019590955260c08085018b90528151808603909101815260e0850182528051908301207f19010000000000000000000000000000000000000000000000000000000000006101008601526101028501969096526101228085019690965280518085039096018652610142840180825286519683019690962095839052610162840180825286905260ff89166101828501526101a284018890526101c28401879052519193926101e280820193601f1981019281900390910190855afa15801561170a573d6000803e3d6000fd5b5050604051601f1901519150506001600160a01b038116158015906117405750886001600160a01b0316816001600160a01b0316145b611791576040805162461bcd60e51b815260206004820152601b60248201527f556e6967656d32303a20494e56414c49445f5349474e41545552450000000000604482015290519081900360640190fd5b61179c898989611d6c565b505050505050505050565b600260209081526000928352604080842090915290825290205481565b600c5460011461180e576040805162461bcd60e51b815260206004820152601060248201526f155b9a59d95b4c8c0e881313d0d2d15160821b604482015290519081900360640190fd5b6000600c55600654604080516370a0823160e01b8152306004820152905161191e926001600160a01b0316916370a08231916024808301926020929190829003018186803b15801561185f57600080fd5b505afa158015611873573d6000803e3d6000fd5b505050506040513d602081101561188957600080fd5b5051600754604080516370a0823160e01b815230600482015290516001600160a01b03909216916370a0823191602480820192602092909190829003018186803b1580156118d657600080fd5b505afa1580156118ea573d6000803e3d6000fd5b505050506040513d602081101561190057600080fd5b50516008546001600160701b0380821691600160701b900416611b95565b6001600c55565b604080518082018252601981527f7472616e7366657228616464726573732c75696e74323536290000000000000060209182015281516001600160a01b0385811660248301526044808301869052845180840390910181526064909201845291810180516001600160e01b03167fa9059cbb000000000000000000000000000000000000000000000000000000001781529251815160009460609489169392918291908083835b602083106119eb5780518252601f1990920191602091820191016119cc565b6001836020036101000a0380198251168184511680821785525050505050509050019150506000604051808303816000865af19150503d8060008114611a4d576040519150601f19603f3d011682016040523d82523d6000602084013e611a52565b606091505b5091509150818015611a80575080511580611a805750808060200190516020811015611a7d57600080fd5b50515b611ad1576040805162461bcd60e51b815260206004820152601960248201527f556e6967656d32303a205452414e534645525f4641494c454400000000000000604482015290519081900360640190fd5b5050505050565b600082611ae757506000610b7d565b82820282848281611af457fe5b0414611b315760405162461bcd60e51b81526004018080602001828103825260218152602001806122206021913960400191505060405180910390fd5b9392505050565b600082821115611b8f576040805162461bcd60e51b815260206004820152601e60248201527f536166654d6174683a207375627472616374696f6e206f766572666c6f770000604482015290519081900360640190fd5b50900390565b6001600160701b038411801590611bb357506001600160701b038311155b611c04576040805162461bcd60e51b815260206004820152601260248201527f556e6967656d32303a204f564552464c4f570000000000000000000000000000604482015290519081900360640190fd5b60085463ffffffff42811691600160e01b90048116820390811615801590611c3457506001600160701b03841615155b8015611c4857506001600160701b03831615155b15611cb3578063ffffffff16611c7085611c6186612140565b6001600160e01b031690612152565b600980546001600160e01b03929092169290920201905563ffffffff8116611c9b84611c6187612140565b600a80546001600160e01b0392909216929092020190555b600880546dffffffffffffffffffffffffffff19166001600160701b03888116919091177fffffffff0000000000000000000000000000ffffffffffffffffffffffffffff16600160701b8883168102919091176001600160e01b0316600160e01b63ffffffff871602179283905560408051848416815291909304909116602082015281517f1c411e9a96e071241c2f21f7726b17ae89e3cab4c78be50e062b03a9fffbbad1929181900390910190a1505050505050565b6001600160a01b03808416600081815260026020908152604080832094871680845294825291829020859055815185815291517f8c5be1e5ebec7d5bd14f71427d1e84f3dd0314c0f7b2291e5b200ac8c7c3b9259281900390910190a3505050565b6001600160a01b038316600090815260016020526040902054611df19082611b38565b6001600160a01b038085166000908152600160205260408082209390935590841681522054611e209082612177565b6001600160a01b0380841660008181526001602090815260409182902094909455805185815290519193928716927fddf252ad1be2c89b69c2b068fc378daa952ba7f163c4a11628f55a4df523b3ef92918290030190a3505050565b600080600560009054906101000a90046001600160a01b03166001600160a01b031663017e7e586040518163ffffffff1660e01b815260040160206040518083038186803b158015611ecd57600080fd5b505afa158015611ee1573d6000803e3d6000fd5b505050506040513d6020811015611ef757600080fd5b5051600b546001600160a01b038216158015945091925090611fa8578015611fa3576000611f34610ebf6001600160701b03888116908816611ad8565b90506000611f4183611fbc565b905080821115611fa0576000611f63611f5a8484611b38565b60005490611ad8565b90506000611f7c83611f76866005611ad8565b90612177565b90506000818381611f8957fe5b0490508015611f9c57611f9c878261200e565b5050505b50505b611fb4565b8015611fb4576000600b555b505092915050565b60006003821115611fff575080600160028204015b81811015611ff957809150600281828581611fe857fe5b040181611ff157fe5b049050611fd1565b50612009565b8115612009575060015b919050565b60005461201b9082612177565b60009081556001600160a01b0383168152600160205260409020546120409082612177565b6001600160a01b03831660008181526001602090815260408083209490945583518581529351929391927fddf252ad1be2c89b69c2b068fc378daa952ba7f163c4a11628f55a4df523b3ef9281900390910190a35050565b60008183106120a75781611b31565b5090919050565b6001600160a01b0382166000908152600160205260409020546120d19082611b38565b6001600160a01b038316600090815260016020526040812091909155546120f89082611b38565b60009081556040805183815290516001600160a01b038516917fddf252ad1be2c89b69c2b068fc378daa952ba7f163c4a11628f55a4df523b3ef919081900360200190a35050565b6001600160701b0316600160701b0290565b60006001600160701b0382166001600160e01b0384168161216f57fe5b049392505050565b600082820183811015611b31576040805162461bcd60e51b815260206004820152601b60248201527f536166654d6174683a206164646974696f6e206f766572666c6f770000000000604482015290519081900360640190fdfe556e6967656d32303a20494e53554646494349454e545f4c49515549444954595f4255524e4544556e6967656d32303a20494e53554646494349454e545f4c49515549444954595f4d494e544544536166654d6174683a206d756c7469706c69636174696f6e206f766572666c6f77556e6967656d32303a20494e53554646494349454e545f494e5055545f414d4f554e54556e6967656d32303a20494e53554646494349454e545f4f55545055545f414d4f554e54a26469706673582212202a80ab57ce44fe96a9c55b05cc0165333e2af8ca848164091d095b97ac2eb56564736f6c63430007030033a264697066735822122061e25dfa32410dbdc1620f28ba7949770f2775eeebc36e1faae8097beb939d2364736f6c63430007030033",
  "libraries": {
    "GovernanceLib": "0xC42F611a14D8729ca37C63a55e5C225c4eBfD58B",
    "Strings": "0xAbd24e0Ed1fd83a2aa46312042fC79FA818e1B3d",
    "SafeMath": "0x7278CdFEaef0400293F30bE87dA7222d39eadE8A",
    "AddressSet": "0x9c13feb43EC10Ec755d05A836beef71da6193c99",
    "UInt256Set": "0x712021B608c352c36231b4d1DcaCE3970389B512",
    "Create2": "0x0c315760b903FEE9675fBEB7a83988843E531141",
    "ProposalsLib": "0x57B11De50cc51A795e3597B7d27dfabf9D6dA4ac",
    "ComplexPoolLib": "0x4A03Cc1F5733A08A2db0557E1075f3923d9D2392",
    "WrappedTokenLib": "0xb9e4019cF0613dFEd1D533313D8d1f302ED116f3",
    "Unigem20Library": "0x53eFB08AA8D4540F4e65D305373D74097a9CAEdd"
  },
  "devdoc": {
    "kind": "dev",
    "methods": {},
    "version": 1
  },
  "userdoc": {
    "kind": "user",
    "methods": {},
    "version": 1
  },
  "storageLayout": {
    "storage": [
      {
        "astId": 16564,
        "contract": "src/factories/Unigem20Factory.sol:Unigem20Factory",
        "label": "feeTo",
        "offset": 0,
        "slot": "0",
        "type": "t_address"
      },
      {
        "astId": 16567,
        "contract": "src/factories/Unigem20Factory.sol:Unigem20Factory",
        "label": "feeToSetter",
        "offset": 0,
        "slot": "1",
        "type": "t_address"
      },
      {
        "astId": 16574,
        "contract": "src/factories/Unigem20Factory.sol:Unigem20Factory",
        "label": "getPair",
        "offset": 0,
        "slot": "2",
        "type": "t_mapping(t_address,t_mapping(t_address,t_address))"
      },
      {
        "astId": 16578,
        "contract": "src/factories/Unigem20Factory.sol:Unigem20Factory",
        "label": "allPairs",
        "offset": 0,
        "slot": "3",
        "type": "t_array(t_address)dyn_storage"
      }
    ],
    "types": {
      "t_address": {
        "encoding": "inplace",
        "label": "address",
        "numberOfBytes": "20"
      },
      "t_array(t_address)dyn_storage": {
        "base": "t_address",
        "encoding": "dynamic_array",
        "label": "address[]",
        "numberOfBytes": "32"
      },
      "t_mapping(t_address,t_address)": {
        "encoding": "mapping",
        "key": "t_address",
        "label": "mapping(address => address)",
        "numberOfBytes": "32",
        "value": "t_address"
      },
      "t_mapping(t_address,t_mapping(t_address,t_address))": {
        "encoding": "mapping",
        "key": "t_address",
        "label": "mapping(address => mapping(address => address))",
        "numberOfBytes": "32",
        "value": "t_mapping(t_address,t_address)"
      }
    }
  }
}