{
  "address": "0x5439602ff30d8E8b17f601666c8499255b39Fa5c",
  "abi": [
    {
      "inputs": [],
      "stateMutability": "nonpayable",
      "type": "constructor"
    },
    {
      "anonymous": false,
      "inputs": [
        {
          "indexed": true,
          "internalType": "address",
          "name": "account",
          "type": "address"
        },
        {
          "indexed": true,
          "internalType": "address",
          "name": "operator",
          "type": "address"
        },
        {
          "indexed": false,
          "internalType": "bool",
          "name": "approved",
          "type": "bool"
        }
      ],
      "name": "ApprovalForAll",
      "type": "event"
    },
    {
      "anonymous": false,
      "inputs": [
        {
          "indexed": true,
          "internalType": "address",
          "name": "contractAddress",
          "type": "address"
        },
        {
          "indexed": true,
          "internalType": "address",
          "name": "controllerAddress",
          "type": "address"
        }
      ],
      "name": "ControllerAdded",
      "type": "event"
    },
    {
      "anonymous": false,
      "inputs": [
        {
          "indexed": true,
          "internalType": "address",
          "name": "contractAddress",
          "type": "address"
        },
        {
          "indexed": true,
          "internalType": "address",
          "name": "controllerAddress",
          "type": "address"
        }
      ],
      "name": "ControllerRemoved",
      "type": "event"
    },
    {
      "anonymous": false,
      "inputs": [
        {
          "indexed": false,
          "internalType": "address",
          "name": "account",
          "type": "address"
        }
      ],
      "name": "Paused",
      "type": "event"
    },
    {
      "anonymous": false,
      "inputs": [
        {
          "indexed": true,
          "internalType": "address",
          "name": "operator",
          "type": "address"
        },
        {
          "indexed": true,
          "internalType": "address",
          "name": "from",
          "type": "address"
        },
        {
          "indexed": true,
          "internalType": "address",
          "name": "to",
          "type": "address"
        },
        {
          "indexed": false,
          "internalType": "uint256[]",
          "name": "ids",
          "type": "uint256[]"
        },
        {
          "indexed": false,
          "internalType": "uint256[]",
          "name": "values",
          "type": "uint256[]"
        }
      ],
      "name": "TransferBatch",
      "type": "event"
    },
    {
      "anonymous": false,
      "inputs": [
        {
          "indexed": true,
          "internalType": "address",
          "name": "operator",
          "type": "address"
        },
        {
          "indexed": true,
          "internalType": "address",
          "name": "from",
          "type": "address"
        },
        {
          "indexed": true,
          "internalType": "address",
          "name": "to",
          "type": "address"
        },
        {
          "indexed": false,
          "internalType": "uint256",
          "name": "id",
          "type": "uint256"
        },
        {
          "indexed": false,
          "internalType": "uint256",
          "name": "value",
          "type": "uint256"
        }
      ],
      "name": "TransferSingle",
      "type": "event"
    },
    {
      "anonymous": false,
      "inputs": [
        {
          "indexed": false,
          "internalType": "string",
          "name": "value",
          "type": "string"
        },
        {
          "indexed": true,
          "internalType": "uint256",
          "name": "id",
          "type": "uint256"
        }
      ],
      "name": "URI",
      "type": "event"
    },
    {
      "anonymous": false,
      "inputs": [
        {
          "indexed": false,
          "internalType": "address",
          "name": "account",
          "type": "address"
        }
      ],
      "name": "Unpaused",
      "type": "event"
    },
    {
      "inputs": [
        {
          "internalType": "address",
          "name": "_controller",
          "type": "address"
        }
      ],
      "name": "addController",
      "outputs": [],
      "stateMutability": "nonpayable",
      "type": "function"
    },
    {
      "inputs": [
        {
          "internalType": "address",
          "name": "registry",
          "type": "address"
        }
      ],
      "name": "addProxyRegistry",
      "outputs": [],
      "stateMutability": "nonpayable",
      "type": "function"
    },
    {
      "inputs": [
        {
          "internalType": "address",
          "name": "holder",
          "type": "address"
        },
        {
          "internalType": "uint256",
          "name": "_idx",
          "type": "uint256"
        }
      ],
      "name": "allHeldTokens",
      "outputs": [
        {
          "internalType": "uint256",
          "name": "",
          "type": "uint256"
        }
      ],
      "stateMutability": "view",
      "type": "function"
    },
    {
      "inputs": [
        {
          "internalType": "address",
          "name": "holder",
          "type": "address"
        }
      ],
      "name": "allHeldTokensLength",
      "outputs": [
        {
          "internalType": "uint256",
          "name": "",
          "type": "uint256"
        }
      ],
      "stateMutability": "view",
      "type": "function"
    },
    {
      "inputs": [
        {
          "internalType": "uint256",
          "name": "_idx",
          "type": "uint256"
        }
      ],
      "name": "allProxyRegistries",
      "outputs": [
        {
          "internalType": "address",
          "name": "",
          "type": "address"
        }
      ],
      "stateMutability": "view",
      "type": "function"
    },
    {
      "inputs": [],
      "name": "allProxyRegistriesLength",
      "outputs": [
        {
          "internalType": "uint256",
          "name": "",
          "type": "uint256"
        }
      ],
      "stateMutability": "view",
      "type": "function"
    },
    {
      "inputs": [
        {
          "internalType": "uint256",
          "name": "_token",
          "type": "uint256"
        },
        {
          "internalType": "uint256",
          "name": "_idx",
          "type": "uint256"
        }
      ],
      "name": "allTokenHolders",
      "outputs": [
        {
          "internalType": "address",
          "name": "",
          "type": "address"
        }
      ],
      "stateMutability": "view",
      "type": "function"
    },
    {
      "inputs": [
        {
          "internalType": "uint256",
          "name": "_token",
          "type": "uint256"
        }
      ],
      "name": "allTokenHoldersLength",
      "outputs": [
        {
          "internalType": "uint256",
          "name": "",
          "type": "uint256"
        }
      ],
      "stateMutability": "view",
      "type": "function"
    },
    {
      "inputs": [
        {
          "internalType": "address",
          "name": "account",
          "type": "address"
        },
        {
          "internalType": "uint256",
          "name": "id",
          "type": "uint256"
        }
      ],
      "name": "balanceOf",
      "outputs": [
        {
          "internalType": "uint256",
          "name": "",
          "type": "uint256"
        }
      ],
      "stateMutability": "view",
      "type": "function"
    },
    {
      "inputs": [
        {
          "internalType": "address[]",
          "name": "accounts",
          "type": "address[]"
        },
        {
          "internalType": "uint256[]",
          "name": "ids",
          "type": "uint256[]"
        }
      ],
      "name": "balanceOfBatch",
      "outputs": [
        {
          "internalType": "uint256[]",
          "name": "",
          "type": "uint256[]"
        }
      ],
      "stateMutability": "view",
      "type": "function"
    },
    {
      "inputs": [
        {
          "internalType": "address",
          "name": "account",
          "type": "address"
        },
        {
          "internalType": "uint256",
          "name": "tokenHash",
          "type": "uint256"
        },
        {
          "internalType": "uint256",
          "name": "amount",
          "type": "uint256"
        }
      ],
      "name": "burn",
      "outputs": [],
      "stateMutability": "nonpayable",
      "type": "function"
    },
    {
      "inputs": [],
      "name": "getRegistryManager",
      "outputs": [
        {
          "internalType": "address",
          "name": "",
          "type": "address"
        }
      ],
      "stateMutability": "view",
      "type": "function"
    },
    {
      "inputs": [
        {
          "internalType": "uint256",
          "name": "tokenHash",
          "type": "uint256"
        }
      ],
      "name": "getTokenData",
      "outputs": [
        {
          "internalType": "uint8",
          "name": "tokenType",
          "type": "uint8"
        },
        {
          "internalType": "address",
          "name": "tokenPool",
          "type": "address"
        }
      ],
      "stateMutability": "view",
      "type": "function"
    },
    {
      "inputs": [
        {
          "internalType": "address",
          "name": "holder",
          "type": "address"
        }
      ],
      "name": "heldTokens",
      "outputs": [
        {
          "internalType": "uint256[]",
          "name": "",
          "type": "uint256[]"
        }
      ],
      "stateMutability": "view",
      "type": "function"
    },
    {
      "inputs": [
        {
          "internalType": "address",
          "name": "_owner",
          "type": "address"
        },
        {
          "internalType": "address",
          "name": "_operator",
          "type": "address"
        }
      ],
      "name": "isApprovedForAll",
      "outputs": [
        {
          "internalType": "bool",
          "name": "isOperator",
          "type": "bool"
        }
      ],
      "stateMutability": "view",
      "type": "function"
    },
    {
      "inputs": [
        {
          "internalType": "address",
          "name": "_address",
          "type": "address"
        }
      ],
      "name": "isController",
      "outputs": [
        {
          "internalType": "bool",
          "name": "allowed",
          "type": "bool"
        }
      ],
      "stateMutability": "view",
      "type": "function"
    },
    {
      "inputs": [
        {
          "internalType": "uint256",
          "name": "token",
          "type": "uint256"
        },
        {
          "internalType": "uint256",
          "name": "timestamp",
          "type": "uint256"
        }
      ],
      "name": "lock",
      "outputs": [],
      "stateMutability": "nonpayable",
      "type": "function"
    },
    {
      "inputs": [
        {
          "internalType": "address",
          "name": "account",
          "type": "address"
        },
        {
          "internalType": "uint256",
          "name": "tokenHash",
          "type": "uint256"
        },
        {
          "internalType": "uint256",
          "name": "amount",
          "type": "uint256"
        }
      ],
      "name": "mint",
      "outputs": [],
      "stateMutability": "nonpayable",
      "type": "function"
    },
    {
      "inputs": [
        {
          "internalType": "address",
          "name": "",
          "type": "address"
        },
        {
          "internalType": "address",
          "name": "",
          "type": "address"
        },
        {
          "internalType": "uint256[]",
          "name": "",
          "type": "uint256[]"
        },
        {
          "internalType": "uint256[]",
          "name": "",
          "type": "uint256[]"
        },
        {
          "internalType": "bytes",
          "name": "",
          "type": "bytes"
        }
      ],
      "name": "onERC1155BatchReceived",
      "outputs": [
        {
          "internalType": "bytes4",
          "name": "",
          "type": "bytes4"
        }
      ],
      "stateMutability": "nonpayable",
      "type": "function"
    },
    {
      "inputs": [
        {
          "internalType": "address",
          "name": "",
          "type": "address"
        },
        {
          "internalType": "address",
          "name": "",
          "type": "address"
        },
        {
          "internalType": "uint256",
          "name": "",
          "type": "uint256"
        },
        {
          "internalType": "uint256",
          "name": "",
          "type": "uint256"
        },
        {
          "internalType": "bytes",
          "name": "",
          "type": "bytes"
        }
      ],
      "name": "onERC1155Received",
      "outputs": [
        {
          "internalType": "bytes4",
          "name": "",
          "type": "bytes4"
        }
      ],
      "stateMutability": "nonpayable",
      "type": "function"
    },
    {
      "inputs": [],
      "name": "paused",
      "outputs": [
        {
          "internalType": "bool",
          "name": "",
          "type": "bool"
        }
      ],
      "stateMutability": "view",
      "type": "function"
    },
    {
      "inputs": [],
      "name": "relinquishControl",
      "outputs": [],
      "stateMutability": "view",
      "type": "function"
    },
    {
      "inputs": [
        {
          "internalType": "uint256",
          "name": "index",
          "type": "uint256"
        }
      ],
      "name": "removeProxyRegistryAt",
      "outputs": [],
      "stateMutability": "nonpayable",
      "type": "function"
    },
    {
      "inputs": [
        {
          "internalType": "address",
          "name": "from",
          "type": "address"
        },
        {
          "internalType": "address",
          "name": "to",
          "type": "address"
        },
        {
          "internalType": "uint256[]",
          "name": "ids",
          "type": "uint256[]"
        },
        {
          "internalType": "uint256[]",
          "name": "amounts",
          "type": "uint256[]"
        },
        {
          "internalType": "bytes",
          "name": "data",
          "type": "bytes"
        }
      ],
      "name": "safeBatchTransferFrom",
      "outputs": [],
      "stateMutability": "nonpayable",
      "type": "function"
    },
    {
      "inputs": [
        {
          "internalType": "address",
          "name": "from",
          "type": "address"
        },
        {
          "internalType": "address",
          "name": "to",
          "type": "address"
        },
        {
          "internalType": "uint256",
          "name": "id",
          "type": "uint256"
        },
        {
          "internalType": "uint256",
          "name": "amount",
          "type": "uint256"
        },
        {
          "internalType": "bytes",
          "name": "data",
          "type": "bytes"
        }
      ],
      "name": "safeTransferFrom",
      "outputs": [],
      "stateMutability": "nonpayable",
      "type": "function"
    },
    {
      "inputs": [
        {
          "internalType": "address",
          "name": "operator",
          "type": "address"
        },
        {
          "internalType": "bool",
          "name": "approved",
          "type": "bool"
        }
      ],
      "name": "setApprovalForAll",
      "outputs": [],
      "stateMutability": "nonpayable",
      "type": "function"
    },
    {
      "inputs": [
        {
          "internalType": "address",
          "name": "newManager",
          "type": "address"
        }
      ],
      "name": "setRegistryManager",
      "outputs": [],
      "stateMutability": "nonpayable",
      "type": "function"
    },
    {
      "inputs": [
        {
          "internalType": "uint256",
          "name": "tokenHash",
          "type": "uint256"
        },
        {
          "internalType": "uint8",
          "name": "tokenType",
          "type": "uint8"
        },
        {
          "internalType": "address",
          "name": "tokenPool",
          "type": "address"
        }
      ],
      "name": "setTokenData",
      "outputs": [],
      "stateMutability": "nonpayable",
      "type": "function"
    },
    {
      "inputs": [
        {
          "internalType": "bytes4",
          "name": "interfaceId",
          "type": "bytes4"
        }
      ],
      "name": "supportsInterface",
      "outputs": [
        {
          "internalType": "bool",
          "name": "",
          "type": "bool"
        }
      ],
      "stateMutability": "view",
      "type": "function"
    },
    {
      "inputs": [
        {
          "internalType": "uint256",
          "name": "_token",
          "type": "uint256"
        }
      ],
      "name": "tokenHolders",
      "outputs": [
        {
          "internalType": "address[]",
          "name": "",
          "type": "address[]"
        }
      ],
      "stateMutability": "view",
      "type": "function"
    },
    {
      "inputs": [
        {
          "internalType": "uint256",
          "name": "_id",
          "type": "uint256"
        }
      ],
      "name": "totalBalances",
      "outputs": [
        {
          "internalType": "uint256",
          "name": "",
          "type": "uint256"
        }
      ],
      "stateMutability": "view",
      "type": "function"
    },
    {
      "inputs": [
        {
          "internalType": "address",
          "name": "account",
          "type": "address"
        },
        {
          "internalType": "uint256",
          "name": "token",
          "type": "uint256"
        }
      ],
      "name": "unlockTime",
      "outputs": [
        {
          "internalType": "uint256",
          "name": "theTime",
          "type": "uint256"
        }
      ],
      "stateMutability": "view",
      "type": "function"
    },
    {
      "inputs": [
        {
          "internalType": "uint256",
          "name": "_id",
          "type": "uint256"
        }
      ],
      "name": "uri",
      "outputs": [
        {
          "internalType": "string",
          "name": "",
          "type": "string"
        }
      ],
      "stateMutability": "view",
      "type": "function"
    }
  ],
  "transactionHash": "0xcb43bd2492db8e2abdf1d0a444bfcd51d2c4e6f4e6f3222b1eb24ad382da714f",
  "args": [],
  "solcInputHash": "8cdaae598cbece381c3f70bdf245f22b",
  "bytecode": "0x60806040523480156200001157600080fd5b506040805180820190915260208082527f68747470733a2f2f6d657461646174612e6269746c6f6f74626f782e636f6d2f90820152620000586301ffc9a760e01b620000c7565b62000063816200014c565b62000075636cdb3d1360e11b620000c7565b620000876303a24d0760e21b620000c7565b506004805460ff19169055620000a4630271189760e51b620000c7565b620000af3362000165565b600780546001600160a01b0319163317905562000225565b6001600160e01b0319808216141562000127576040805162461bcd60e51b815260206004820152601c60248201527f4552433136353a20696e76616c696420696e7465726661636520696400000000604482015290519081900360640190fd5b6001600160e01b0319166000908152602081905260409020805460ff19166001179055565b80516200016190600390602084019062000189565b5050565b6001600160a01b03166000908152600560205260409020805460ff19166001179055565b828054600181600116156101000203166002900490600052602060002090601f016020900481019282601f10620001cc57805160ff1916838001178555620001fc565b82800160010185558215620001fc579182015b82811115620001fc578251825591602001919060010190620001df565b506200020a9291506200020e565b5090565b5b808211156200020a57600081556001016200020f565b613a1b80620002356000396000f3fe608060405234801561001057600080fd5b506004361061020a5760003560e01c8063923108d91161012a578063de0099a3116100bd578063ef72f2761161008c578063f242432a11610071578063f242432a14610c70578063f5298aca14610d3b578063f68ee90e14610d6d5761020a565b8063ef72f27614610b7f578063f23a6e6114610ba55761020a565b8063de0099a314610b06578063e1c28bef14610b2c578063e985e9c514610b34578063ed7aae2b14610b625761020a565b8063b09afec1116100f9578063b09afec114610876578063b429afeb146108b8578063b59a9128146108de578063bc197c811461090a5761020a565b8063923108d9146107df578063a0f8c694146107fc578063a22cb46514610822578063a7fc7a07146108505761020a565b80632eb2c2d6116101a2578063740ec99e11610171578063740ec99e14610746578063761604ab146107855780637c8810761461078d5780638d0335d1146107c25761020a565b80632eb2c2d6146103f85780634e1273f4146105bf5780635401982d146107365780635c975abb1461073e5761020a565b80631338736f116101de5780631338736f1461035a578063156e29f61461037d57806315aef88a146103af5780632e13e81e146103db5761020a565b8062fdd58e1461020f57806301ffc9a71461024d57806302aab086146102a05780630e89341c146102c8575b600080fd5b61023b6004803603604081101561022557600080fd5b506001600160a01b038135169060200135610d8a565b60408051918252519081900360200190f35b61028c6004803603602081101561026357600080fd5b50357fffffffff0000000000000000000000000000000000000000000000000000000016610dfc565b604080519115158252519081900360200190f35b6102c6600480360360208110156102b657600080fd5b50356001600160a01b0316610e37565b005b6102e5600480360360208110156102de57600080fd5b5035610f2b565b6040805160208082528351818301528351919283929083019185019080838360005b8381101561031f578181015183820152602001610307565b50505050905090810190601f16801561034c5780820380516001836020036101000a031916815260200191505b509250505060405180910390f35b6102c66004803603604081101561037057600080fd5b50803590602001356110d8565b6102c66004803603606081101561039357600080fd5b506001600160a01b0381351690602081013590604001356111a2565b61023b600480360360408110156103c557600080fd5b506001600160a01b038135169060200135611245565b6102c6600480360360208110156103f157600080fd5b503561126c565b6102c6600480360360a081101561040e57600080fd5b6001600160a01b03823581169260208101359091169181019060608101604082013564010000000081111561044257600080fd5b82018360208201111561045457600080fd5b8035906020019184602083028401116401000000008311171561047657600080fd5b91908080602002602001604051908101604052809392919081815260200183836020028082843760009201919091525092959493602081019350359150506401000000008111156104c657600080fd5b8201836020820111156104d857600080fd5b803590602001918460208302840111640100000000831117156104fa57600080fd5b919080806020026020016040519081016040528093929190818152602001838360200280828437600092019190915250929594936020810193503591505064010000000081111561054a57600080fd5b82018360208201111561055c57600080fd5b8035906020019184600183028401116401000000008311171561057e57600080fd5b91908080601f016020809104026020016040519081016040528093929190818152602001838380828437600092019190915250929550611452945050505050565b6106e6600480360360408110156105d557600080fd5b8101906020810181356401000000008111156105f057600080fd5b82018360208201111561060257600080fd5b8035906020019184602083028401116401000000008311171561062457600080fd5b919080806020026020016040519081016040528093929190818152602001838360200280828437600092019190915250929594936020810193503591505064010000000081111561067457600080fd5b82018360208201111561068657600080fd5b803590602001918460208302840111640100000000831117156106a857600080fd5b919080806020026020016040519081016040528093929190818152602001838360200280828437600092019190915250929550611750945050505050565b60408051602080825283518183015283519192839290830191858101910280838360005b8381101561072257818101518382015260200161070a565b505050509050019250505060405180910390f35b61023b61183c565b61028c611843565b6107696004803603604081101561075c57600080fd5b508035906020013561184c565b604080516001600160a01b039092168252519081900360200190f35b610769611882565b6102c6600480360360608110156107a357600080fd5b50803590602081013560ff1690604001356001600160a01b0316611891565b610769600480360360208110156107d857600080fd5b503561196d565b6106e6600480360360208110156107f557600080fd5b5035611997565b61023b6004803603602081101561081257600080fd5b50356001600160a01b0316611a03565b6102c66004803603604081101561083857600080fd5b506001600160a01b0381351690602001351515611a1e565b6102c66004803603602081101561086657600080fd5b50356001600160a01b0316611b2b565b6108936004803603602081101561088c57600080fd5b5035611bca565b6040805160ff90931683526001600160a01b0390911660208301528051918290030190f35b61028c600480360360208110156108ce57600080fd5b50356001600160a01b0316611bf9565b61023b600480360360408110156108f457600080fd5b506001600160a01b038135169060200135611c17565b610ad1600480360360a081101561092057600080fd5b6001600160a01b03823581169260208101359091169181019060608101604082013564010000000081111561095457600080fd5b82018360208201111561096657600080fd5b8035906020019184602083028401116401000000008311171561098857600080fd5b91908080602002602001604051908101604052809392919081815260200183836020028082843760009201919091525092959493602081019350359150506401000000008111156109d857600080fd5b8201836020820111156109ea57600080fd5b80359060200191846020830284011164010000000083111715610a0c57600080fd5b9190808060200260200160405190810160405280939291908181526020018383602002808284376000920191909152509295949360208101935035915050640100000000811115610a5c57600080fd5b820183602082011115610a6e57600080fd5b80359060200191846001830284011164010000000083111715610a9057600080fd5b91908080601f016020809104026020016040519081016040528093929190818152602001838380828437600092019190915250929550611c4e945050505050565b604080517fffffffff000000000000000000000000000000000000000000000000000000009092168252519081900360200190f35b6106e660048036036020811015610b1c57600080fd5b50356001600160a01b0316611c78565b6102c6611ce3565b61028c60048036036040811015610b4a57600080fd5b506001600160a01b0381358116916020013516611d4b565b61023b60048036036020811015610b7857600080fd5b5035611e48565b6102c660048036036020811015610b9557600080fd5b50356001600160a01b0316611e5a565b610ad1600480360360a0811015610bbb57600080fd5b6001600160a01b03823581169260208101359091169160408201359160608101359181019060a081016080820135640100000000811115610bfb57600080fd5b820183602082011115610c0d57600080fd5b80359060200191846001830284011164010000000083111715610c2f57600080fd5b91908080601f016020809104026020016040519081016040528093929190818152602001838380828437600092019190915250929550611f42945050505050565b6102c6600480360360a0811015610c8657600080fd5b6001600160a01b03823581169260208101359091169160408201359160608101359181019060a081016080820135640100000000811115610cc657600080fd5b820183602082011115610cd857600080fd5b80359060200191846001830284011164010000000083111715610cfa57600080fd5b91908080601f016020809104026020016040519081016040528093929190818152602001838380828437600092019190915250929550611f6c945050505050565b6102c660048036036060811015610d5157600080fd5b506001600160a01b038135169060208101359060400135612137565b61023b60048036036020811015610d8357600080fd5b503561219f565b60006001600160a01b038316610dd15760405162461bcd60e51b815260040180806020018281038252602b8152602001806137b4602b913960400191505060405180910390fd5b5060008181526001602090815260408083206001600160a01b03861684529091529020545b92915050565b7fffffffff00000000000000000000000000000000000000000000000000000000811660009081526020819052604090205460ff165b919050565b6007546001600160a01b03163314610e96576040805162461bcd60e51b815260206004820152600c60248201527f554e415554484f52495a45440000000000000000000000000000000000000000604482015290519081900360640190fd5b6001600160a01b038116610ef1576040805162461bcd60e51b815260206004820152600c60248201527f554e415554484f52495a45440000000000000000000000000000000000000000604482015290519081900360640190fd5b600780547fffffffffffffffffffffffff0000000000000000000000000000000000000000166001600160a01b0392909216919091179055565b600081815260086020526040902054606090610f785760405162461bcd60e51b81526004018080602001828103825260278152602001806138fc6027913960400191505060405180910390fd5b610df6306001600160a01b0316630e89341c846040518263ffffffff1660e01b81526004018082815260200191505060006040518083038186803b158015610fbf57600080fd5b505afa158015610fd3573d6000803e3d6000fd5b505050506040513d6000823e601f3d9081017fffffffffffffffffffffffffffffffffffffffffffffffffffffffffffffffe0168201604052602081101561101a57600080fd5b810190808051604051939291908464010000000082111561103a57600080fd5b90830190602082018581111561104f57600080fd5b825164010000000081118282018810171561106957600080fd5b82525081516020918201929091019080838360005b8381101561109657818101518382015260200161107e565b50505050905090810190601f1680156110c35780820380516001836020036101000a031916815260200191505b506040525050506110d3846121b1565b6122bd565b80600960006110e56122f9565b6001600160a01b03166001600160a01b0316815260200190815260200160002060008481526020019081526020016000205410611169576040805162461bcd60e51b815260206004820152600e60248201527f414c52454144595f4c4f434b4544000000000000000000000000000000000000604482015290519081900360640190fd5b80600960006111766122f9565b6001600160a01b0316815260208082019290925260409081016000908120948152939091529091205550565b3360009081526005602052604090205460ff161515600114806111c457503033145b6111ff5760405162461bcd60e51b81526004018080602001828103825260288152602001806139236028913960400191505060405180910390fd5b6112408383836040518060400160405280600381526020017f30783000000000000000000000000000000000000000000000000000000000008152506122fd565b505050565b6001600160a01b039091166000908152600960209081526040808320938352929052205490565b6007546001600160a01b031633148061129957503360009081526005602052604090205460ff1615156001145b6112ea576040805162461bcd60e51b815260206004820152600c60248201527f554e415554484f52495a45440000000000000000000000000000000000000000604482015290519081900360640190fd5b6006548110611340576040805162461bcd60e51b815260206004820152600d60248201527f494e56414c49445f494e44455800000000000000000000000000000000000000604482015290519081900360640190fd5b60068054600019810191908290811061135557fe5b600091825260209091200154600680546001600160a01b03909216918490811061137b57fe5b9060005260206000200160006101000a8154816001600160a01b0302191690836001600160a01b031602179055506000600682815481106113b857fe5b600091825260209091200180547fffffffffffffffffffffffff0000000000000000000000000000000000000000166001600160a01b03929092169190911790558015611442576006818154811061140c57fe5b600091825260209091200180547fffffffffffffffffffffffff000000000000000000000000000000000000000016905561144e565b61144e60066000613636565b5050565b81518351146114925760405162461bcd60e51b815260040180806020018281038252602881526020018061399d6028913960400191505060405180910390fd5b6001600160a01b0384166114d75760405162461bcd60e51b81526004018080602001828103825260258152602001806138586025913960400191505060405180910390fd5b6114df6122f9565b6001600160a01b0316856001600160a01b0316148061150a575061150a856115056122f9565b611d4b565b6115455760405162461bcd60e51b815260040180806020018281038252603281526020018061387d6032913960400191505060405180910390fd5b600061154f6122f9565b905061155f81878787878761230f565b60005b845181101561166057600085828151811061157957fe5b60200260200101519050600085838151811061159157fe5b602002602001015190506115fe816040518060600160405280602a81526020016138d2602a91396001600086815260200190815260200160002060008d6001600160a01b03166001600160a01b0316815260200190815260200160002054612af29092919063ffffffff16565b60008381526001602090815260408083206001600160a01b038e811685529252808320939093558a16815220546116359082612b89565b60009283526001602081815260408086206001600160a01b038d168752909152909320555001611562565b50846001600160a01b0316866001600160a01b0316826001600160a01b03167f4a39dc06d4c0dbc64b70af90fd698a233a518aa5d07e595d983b8c0526c8f7fb8787604051808060200180602001838103835285818151815260200191508051906020019060200280838360005b838110156116e65781810151838201526020016116ce565b50505050905001838103825284818151815260200191508051906020019060200280838360005b8381101561172557818101518382015260200161170d565b5050505090500194505050505060405180910390a4611748818787878787612be3565b505050505050565b606081518351146117925760405162461bcd60e51b81526004018080602001828103825260298152602001806139746029913960400191505060405180910390fd5b6060835167ffffffffffffffff811180156117ac57600080fd5b506040519080825280602002602001820160405280156117d6578160200160208202803683370190505b50905060005b8451811015611834576118158582815181106117f457fe5b602002602001015185838151811061180857fe5b6020026020010151610d8a565b82828151811061182157fe5b60209081029190910101526001016117dc565b509392505050565b6006545b90565b60045460ff1690565b6000828152600c6020526040812080548390811061186657fe5b6000918252602090912001546001600160a01b03169392505050565b6007546001600160a01b031690565b3360009081526005602052604090205460ff161515600114806118b357503033145b6118ee5760405162461bcd60e51b81526004018080602001828103825260288152602001806139236028913960400191505060405180910390fd5b6000928352600e6020908152604080852080547fffffffffffffffffffffffffffffffffffffffffffffffffffffffffffffff001660ff9590951694909417909355600f9052912080547fffffffffffffffffffffffff0000000000000000000000000000000000000000166001600160a01b03909216919091179055565b60006006828154811061197c57fe5b6000918252602090912001546001600160a01b031692915050565b6000818152600c60209081526040918290208054835181840281018401909452808452606093928301828280156119f757602002820191906000526020600020905b81546001600160a01b031681526001909101906020018083116119d9575b50505050509050919050565b6001600160a01b03166000908152600a602052604090205490565b816001600160a01b0316611a306122f9565b6001600160a01b03161415611a765760405162461bcd60e51b815260040180806020018281038252602981526020018061394b6029913960400191505060405180910390fd5b8060026000611a836122f9565b6001600160a01b0390811682526020808301939093526040918201600090812091871680825291909352912080547fffffffffffffffffffffffffffffffffffffffffffffffffffffffffffffff001692151592909217909155611ae56122f9565b6001600160a01b03167f17307eab39ab6107e8899845ad3d59bd9653f200f220920489ca2b5937696c318360405180821515815260200191505060405180910390a35050565b3360009081526005602052604090205460ff16151560011480611b4d57503033145b611b885760405162461bcd60e51b81526004018080602001828103825260288152602001806139236028913960400191505060405180910390fd5b6001600160a01b0316600090815260056020526040902080547fffffffffffffffffffffffffffffffffffffffffffffffffffffffffffffff00166001179055565b6000908152600e6020908152604080832054600f9092529091205460ff909116916001600160a01b0390911690565b6001600160a01b031660009081526005602052604090205460ff1690565b6001600160a01b0382166000908152600a60205260408120805483908110611c3b57fe5b9060005260206000200154905092915050565b7fbc197c810000000000000000000000000000000000000000000000000000000095945050505050565b6001600160a01b0381166000908152600a60209081526040918290208054835181840281018401909452808452606093928301828280156119f757602002820191906000526020600020905b815481526020019060010190808311611cc45750505050509050919050565b3360009081526005602052604090205460ff16151560011480611d0557503033145b611d405760405162461bcd60e51b81526004018080602001828103825260288152602001806139236028913960400191505060405180910390fd5b336000526005602052565b6000805b600654811015611e3657600060068281548110611d6857fe5b60009182526020918290200154604080517fc45527910000000000000000000000000000000000000000000000000000000081526001600160a01b0389811660048301529151919092169350839263c45527919260248082019391829003018186803b158015611dd757600080fd5b505afa925050508015611dfc57506040513d6020811015611df757600080fd5b505160015b611e0557611e2d565b846001600160a01b0316816001600160a01b03161415611e2b5760019350505050610df6565b505b50600101611d4f565b50611e418383612e8a565b9392505050565b60009081526008602052604090205490565b6007546001600160a01b0316331480611e8757503360009081526005602052604090205460ff1615156001145b611ed8576040805162461bcd60e51b815260206004820152600c60248201527f554e415554484f52495a45440000000000000000000000000000000000000000604482015290519081900360640190fd5b600680546001810182556000919091527ff652222313e28459528d920b65115c16c04f3efc82aaedc97be59f3f377c0d3f0180547fffffffffffffffffffffffff0000000000000000000000000000000000000000166001600160a01b0392909216919091179055565b7ff23a6e610000000000000000000000000000000000000000000000000000000095945050505050565b6001600160a01b038416611fb15760405162461bcd60e51b81526004018080602001828103825260258152602001806138586025913960400191505060405180910390fd5b611fb96122f9565b6001600160a01b0316856001600160a01b03161480611fdf5750611fdf856115056122f9565b61201a5760405162461bcd60e51b815260040180806020018281038252602981526020018061382f6029913960400191505060405180910390fd5b60006120246122f9565b905061204481878761203588612eb8565b61203e88612eb8565b8761230f565b61208b836040518060600160405280602a81526020016138d2602a913960008781526001602090815260408083206001600160a01b038d1684529091529020549190612af2565b60008581526001602090815260408083206001600160a01b038b811685529252808320939093558716815220546120c29084612b89565b60008581526001602090815260408083206001600160a01b03808b168086529184529382902094909455805188815291820187905280518a8416938616927fc3d58168c5ae7397731d063d5bbf3d657854427343f4c083240f7aacaa2d0f6292908290030190a4611748818787878787612efc565b3360009081526005602052604090205460ff1615156001148061215957503033145b6121945760405162461bcd60e51b81526004018080602001828103825260288152602001806139236028913960400191505060405180910390fd5b61124083838361309e565b6000908152600c602052604090205490565b6060816121f2575060408051808201909152600181527f30000000000000000000000000000000000000000000000000000000000000006020820152610e32565b8160005b811561220a57600101600a820491506121f6565b60608167ffffffffffffffff8111801561222357600080fd5b506040519080825280601f01601f19166020018201604052801561224e576020820181803683370190505b50905060001982015b85156122b457600a860660300160f81b8282806001900393508151811061227a57fe5b60200101907effffffffffffffffffffffffffffffffffffffffffffffffffffffffffffff1916908160001a905350600a86049550612257565b50949350505050565b6060611e4183836040518060200160405280600081525060405180602001604052806000815250604051806020016040528060008152506130a9565b3390565b61230984848484613346565b50505050565b61231d86868686868661344e565b60005b8351811015612ae9576001600160a01b038616156123cb576001600160a01b0386166000908152600960205260408120855142929087908590811061236157fe5b602002602001015181526020019081526020016000205411156123cb576040805162461bcd60e51b815260206004820152600c60248201527f544f4b454e5f4c4f434b45440000000000000000000000000000000000000000604482015290519081900360640190fd5b6001600160a01b0386161580159061240457508281815181106123ea57fe5b60200260200101516124028786848151811061180857fe5b145b15612830576001600160a01b0386166000908152600b602052604081208551829087908590811061243157fe5b60200260200101518152602001908152602001600020549050600019811315612555576001600160a01b0387166000908152600a602052604090208054600019810191908290811061247f57fe5b9060005260206000200154600a60008a6001600160a01b03166001600160a01b0316815260200190815260200160002083815481106124ba57fe5b60009182526020808320909101929092556001600160a01b038a168152600a909152604081208054839081106124ec57fe5b6000918252602090912001558015612532576001600160a01b0388166000908152600a6020526040902080548290811061252257fe5b6000918252602082200155612553565b6001600160a01b0388166000908152600a6020526040812061255391613636565b505b6001600160a01b0387166000908152600b602052604081208651600019929088908690811061258057fe5b6020026020010151815260200190815260200160002081905550600d60008684815181106125aa57fe5b602002602001015181526020019081526020016000206000886001600160a01b03166001600160a01b031681526020019081526020016000205490506000198113156127de5760006001600c600088868151811061260457fe5b6020026020010151815260200190815260200160002080549050039050600c600087858151811061263157fe5b60200260200101518152602001908152602001600020818154811061265257fe5b600091825260208220015487516001600160a01b0390911691600c9189908790811061267a57fe5b60200260200101518152602001908152602001600020838154811061269b57fe5b9060005260206000200160006101000a8154816001600160a01b0302191690836001600160a01b031602179055506000600c60008886815181106126db57fe5b6020026020010151815260200190815260200160002082815481106126fc57fe5b600091825260209091200180547fffffffffffffffffffffffff0000000000000000000000000000000000000000166001600160a01b039290921691909117905580156127aa57600c600087858151811061275357fe5b60200260200101518152602001908152602001600020818154811061277457fe5b600091825260209091200180547fffffffffffffffffffffffff00000000000000000000000000000000000000001690556127dc565b600c60008785815181106127ba57fe5b6020026020010151815260200190815260200160002060006127dc9190613636565b505b600019600d60008785815181106127f157fe5b602002602001015181526020019081526020016000206000896001600160a01b03166001600160a01b0316815260200190815260200160002081905550505b6001600160a01b0385161580159061285557506128538585838151811061180857fe5b155b156129d7576001600160a01b0385166000908152600a60205260409020845185908390811061288057fe5b6020908102919091018101518254600181018455600093845282842001556001600160a01b0387168252600a8152604080832054600b909252822086516000199092019290918790859081106128d257fe5b6020026020010151815260200190815260200160002081905550600c60008583815181106128fc57fe5b602090810291909101810151825281810192909252604001600090812080546001808201835591835292822090920180547fffffffffffffffffffffffff0000000000000000000000000000000000000000166001600160a01b0389161790558551600c919087908590811061296e57fe5b602002602001015181526020019081526020016000208054905003600d600086848151811061299957fe5b602002602001015181526020019081526020016000206000876001600160a01b03166001600160a01b03168152602001908152602001600020819055505b6001600160a01b038616612a5c57612a318382815181106129f457fe5b602002602001015160086000878581518110612a0c57fe5b6020026020010151815260200190815260200160002054612b8990919063ffffffff16565b60086000868481518110612a4157fe5b60200260200101518152602001908152602001600020819055505b6001600160a01b038516612ae157612ab6838281518110612a7957fe5b602002602001015160086000878581518110612a9157fe5b60200260200101518152602001908152602001600020546134a090919063ffffffff16565b60086000868481518110612ac657fe5b60200260200101518152602001908152602001600020819055505b600101612320565b50505050505050565b60008184841115612b815760405162461bcd60e51b81526004018080602001828103825283818151815260200191508051906020019080838360005b83811015612b46578181015183820152602001612b2e565b50505050905090810190601f168015612b735780820380516001836020036101000a031916815260200191505b509250505060405180910390fd5b505050900390565b600082820183811015611e41576040805162461bcd60e51b815260206004820152601b60248201527f536166654d6174683a206164646974696f6e206f766572666c6f770000000000604482015290519081900360640190fd5b612bf5846001600160a01b03166134fd565b1561174857836001600160a01b031663bc197c8187878686866040518663ffffffff1660e01b815260040180866001600160a01b03168152602001856001600160a01b03168152602001806020018060200180602001848103845287818151815260200191508051906020019060200280838360005b83811015612c83578181015183820152602001612c6b565b50505050905001848103835286818151815260200191508051906020019060200280838360005b83811015612cc2578181015183820152602001612caa565b50505050905001848103825285818151815260200191508051906020019080838360005b83811015612cfe578181015183820152602001612ce6565b50505050905090810190601f168015612d2b5780820380516001836020036101000a031916815260200191505b5098505050505050505050602060405180830381600087803b158015612d5057600080fd5b505af1925050508015612d7557506040513d6020811015612d7057600080fd5b505160015b612e0a57612d81613676565b80612d8c5750612dd3565b60405162461bcd60e51b8152602060048201818152835160248401528351849391928392604401919085019080838360008315612b46578181015183820152602001612b2e565b60405162461bcd60e51b81526004018080602001828103825260348152602001806137586034913960400191505060405180910390fd5b7fffffffff0000000000000000000000000000000000000000000000000000000081167fbc197c810000000000000000000000000000000000000000000000000000000014612ae95760405162461bcd60e51b815260040180806020018281038252602881526020018061378c6028913960400191505060405180910390fd5b6001600160a01b03918216600090815260026020908152604080832093909416825291909152205460ff1690565b604080516001808252818301909252606091829190602080830190803683370190505090508281600081518110612eeb57fe5b602090810291909101015292915050565b612f0e846001600160a01b03166134fd565b1561174857836001600160a01b031663f23a6e6187878686866040518663ffffffff1660e01b815260040180866001600160a01b03168152602001856001600160a01b0316815260200184815260200183815260200180602001828103825283818151815260200191508051906020019080838360005b83811015612f9d578181015183820152602001612f85565b50505050905090810190601f168015612fca5780820380516001836020036101000a031916815260200191505b509650505050505050602060405180830381600087803b158015612fed57600080fd5b505af192505050801561301257506040513d602081101561300d57600080fd5b505160015b61301e57612d81613676565b7fffffffff0000000000000000000000000000000000000000000000000000000081167ff23a6e610000000000000000000000000000000000000000000000000000000014612ae95760405162461bcd60e51b815260040180806020018281038252602881526020018061378c6028913960400191505060405180910390fd5b611240838383613503565b805182518451865188516060948a948a948a948a948a948a94919092019092019091010167ffffffffffffffff811180156130e357600080fd5b506040519080825280601f01601f19166020018201604052801561310e576020820181803683370190505b509050806000805b885181101561317f5788818151811061312b57fe5b602001015160f81c60f81b83838060010194508151811061314857fe5b60200101907effffffffffffffffffffffffffffffffffffffffffffffffffffffffffffff1916908160001a905350600101613116565b5060005b87518110156131ec5787818151811061319857fe5b602001015160f81c60f81b8383806001019450815181106131b557fe5b60200101907effffffffffffffffffffffffffffffffffffffffffffffffffffffffffffff1916908160001a905350600101613183565b5060005b86518110156132595786818151811061320557fe5b602001015160f81c60f81b83838060010194508151811061322257fe5b60200101907effffffffffffffffffffffffffffffffffffffffffffffffffffffffffffff1916908160001a9053506001016131f0565b5060005b85518110156132c65785818151811061327257fe5b602001015160f81c60f81b83838060010194508151811061328f57fe5b60200101907effffffffffffffffffffffffffffffffffffffffffffffffffffffffffffff1916908160001a90535060010161325d565b5060005b8451811015613333578481815181106132df57fe5b602001015160f81c60f81b8383806001019450815181106132fc57fe5b60200101907effffffffffffffffffffffffffffffffffffffffffffffffffffffffffffff1916908160001a9053506001016132ca565b50909d9c50505050505050505050505050565b6001600160a01b03841661338b5760405162461bcd60e51b81526004018080602001828103825260218152602001806139c56021913960400191505060405180910390fd5b60006133956122f9565b90506133a78160008761203588612eb8565b60008481526001602090815260408083206001600160a01b03891684529091529020546133d49084612b89565b60008581526001602090815260408083206001600160a01b03808b16808652918452828520959095558151898152928301889052815190948616927fc3d58168c5ae7397731d063d5bbf3d657854427343f4c083240f7aacaa2d0f6292908290030190a461344781600087878787612efc565b5050505050565b61345c868686868686611748565b613464611843565b156117485760405162461bcd60e51b815260040180806020018281038252602c815260200180613803602c913960400191505060405180910390fd5b6000828211156134f7576040805162461bcd60e51b815260206004820152601e60248201527f536166654d6174683a207375627472616374696f6e206f766572666c6f770000604482015290519081900360640190fd5b50900390565b3b151590565b6001600160a01b0383166135485760405162461bcd60e51b81526004018080602001828103825260238152602001806138af6023913960400191505060405180910390fd5b60006135526122f9565b90506135828185600061356487612eb8565b61356d87612eb8565b6040518060200160405280600081525061230f565b6135c9826040518060600160405280602481526020016137df6024913960008681526001602090815260408083206001600160a01b038b1684529091529020549190612af2565b60008481526001602090815260408083206001600160a01b03808a16808652918452828520959095558151888152928301879052815193949093908616927fc3d58168c5ae7397731d063d5bbf3d657854427343f4c083240f7aacaa2d0f6292908290030190a450505050565b50805460008255906000526020600020908101906136549190613657565b50565b5b8082111561366c5760008155600101613658565b5090565b60e01c90565b600060443d101561368657611840565b600481823e6308c379a061369a8251613670565b146136a457611840565b6040517ffffffffffffffffffffffffffffffffffffffffffffffffffffffffffffffffc3d016004823e80513d67ffffffffffffffff81602484011181841117156136f25750505050611840565b8284019250825191508082111561370c5750505050611840565b503d8301602082840101111561372457505050611840565b601f017fffffffffffffffffffffffffffffffffffffffffffffffffffffffffffffffe01681016020016040529150509056fe455243313135353a207472616e7366657220746f206e6f6e2045524331313535526563656976657220696d706c656d656e746572455243313135353a204552433131353552656365697665722072656a656374656420746f6b656e73455243313135353a2062616c616e636520717565727920666f7220746865207a65726f2061646472657373455243313135353a206275726e20616d6f756e7420657863656564732062616c616e6365455243313135355061757361626c653a20746f6b656e207472616e73666572207768696c6520706175736564455243313135353a2063616c6c6572206973206e6f74206f776e6572206e6f7220617070726f766564455243313135353a207472616e7366657220746f20746865207a65726f2061646472657373455243313135353a207472616e736665722063616c6c6572206973206e6f74206f776e6572206e6f7220617070726f766564455243313135353a206275726e2066726f6d20746865207a65726f2061646472657373455243313135353a20696e73756666696369656e742062616c616e636520666f72207472616e736665724e465447656d4d756c7469546f6b656e237572693a204e4f4e4558495354454e545f544f4b454e436f6e74726f6c6c61626c653a2063616c6c6572206973206e6f74206120636f6e74726f6c6c6572455243313135353a2073657474696e6720617070726f76616c2073746174757320666f722073656c66455243313135353a206163636f756e747320616e6420696473206c656e677468206d69736d61746368455243313135353a2069647320616e6420616d6f756e7473206c656e677468206d69736d61746368455243313135353a206d696e7420746f20746865207a65726f2061646472657373a26469706673582212201c5ee43d97ef693783654370421031ec632b29803610280e70ba17bd5eec3c8164736f6c63430007030033",
  "libraries": {
    "GovernanceLib": "0x5C363A7650d1682860ef5394798E205cDD73bB17",
    "Strings": "0x31aa2DCE617E1c0839DBE1Bc199BBEcD537D1e57",
    "SafeMath": "0x1B6c75256f5f538258d318C324f4f41b8149C85d",
    "AddressSet": "0x21814185B8e9643a1D9cCCa3148596081b1bbF21",
    "UInt256Set": "0xeF0A9661aD504AA041E8778eB044d28bDd47Ee80",
    "Create2": "0xE7f3CD8B18B13D606671E1b095E45fd8D3492FAf",
    "ProposalsLib": "0xd6338bf41Bf6710b8B8689B8EbD55CF101871eA2",
    "ComplexPoolLib": "0xB085bCBEF71EC2B9249E716385727E2E2BE45F5c",
    "WrappedTokenLib": "0x0c69E679524Be9D356535232Ec1b1f00d57423f1"
  },
  "devdoc": {
    "kind": "dev",
    "methods": {
      "addController(address)": {
        "details": "Add an address allowed to control this contract"
      },
      "addProxyRegistry(address)": {
        "details": "Returns the total balance minted of this type"
      },
      "allHeldTokens(address,uint256)": {
        "details": "Returns the total balance minted of this type"
      },
      "allHeldTokensLength(address)": {
        "details": "Returns the total balance minted of this type"
      },
      "allProxyRegistries(uint256)": {
        "details": "Returns the total balance minted of this type"
      },
      "allProxyRegistriesLength()": {
        "details": "Returns the total balance minted of this type"
      },
      "allTokenHolders(uint256,uint256)": {
        "details": "Returns the total balance minted of this type"
      },
      "allTokenHoldersLength(uint256)": {
        "details": "Returns the total balance minted of this type"
      },
      "balanceOf(address,uint256)": {
        "details": "See {IERC1155-balanceOf}. Requirements: - `account` cannot be the zero address."
      },
      "balanceOfBatch(address[],uint256[])": {
        "details": "See {IERC1155-balanceOfBatch}. Requirements: - `accounts` and `ids` must have the same length."
      },
      "burn(address,uint256,uint256)": {
        "details": "mint some amount of tokens. Only callable by token owner"
      },
      "constructor": {
        "details": "Contract initializer."
      },
      "getRegistryManager()": {
        "details": "Returns the total balance minted of this type"
      },
      "getTokenData(uint256)": {
        "details": "get the token data for this token id"
      },
      "heldTokens(address)": {
        "details": "Returns the total balance minted of this type"
      },
      "isController(address)": {
        "details": "Check if this address is a controller"
      },
      "lock(uint256,uint256)": {
        "details": "timelock the tokens from moving until the given time"
      },
      "mint(address,uint256,uint256)": {
        "details": "mint some amount of tokens. Only callable by token owner"
      },
      "paused()": {
        "details": "Returns true if the contract is paused, and false otherwise."
      },
      "relinquishControl()": {
        "details": "Check if this address is a controller"
      },
      "removeProxyRegistryAt(uint256)": {
        "details": "Returns the total balance minted of this type"
      },
      "safeBatchTransferFrom(address,address,uint256[],uint256[],bytes)": {
        "details": "See {IERC1155-safeBatchTransferFrom}."
      },
      "safeTransferFrom(address,address,uint256,uint256,bytes)": {
        "details": "See {IERC1155-safeTransferFrom}."
      },
      "setApprovalForAll(address,bool)": {
        "details": "See {IERC1155-setApprovalForAll}."
      },
      "setRegistryManager(address)": {
        "details": "Returns the total balance minted of this type"
      },
      "setTokenData(uint256,uint8,address)": {
        "details": "set the data for this tokenhash. points to a token type (1 = claim, 2 = gem) and token pool address"
      },
      "supportsInterface(bytes4)": {
        "details": "See {IERC165-supportsInterface}. Time complexity O(1), guaranteed to always use less than 30 000 gas."
      },
      "tokenHolders(uint256)": {
        "details": "Returns the total balance minted of this type"
      },
      "totalBalances(uint256)": {
        "details": "Returns the total balance minted of this type"
      },
      "unlockTime(address,uint256)": {
        "details": "unlock time for token / id"
      },
      "uri(uint256)": {
        "details": "Returns the metadata URI for this token type"
      }
    },
    "version": 1
  },
  "userdoc": {
    "kind": "user",
    "methods": {
      "isApprovedForAll(address,address)": {
        "notice": "Override isApprovedForAll to whitelist user's OpenSea proxy accounts to enable gas-free listings."
      }
    },
    "version": 1
  },
  "storageLayout": {
    "storage": [
      {
        "astId": 16066,
        "contract": "src/tokens/NFTGemMultiToken.sol:NFTGemMultiToken",
        "label": "_supportedInterfaces",
        "offset": 0,
        "slot": "0",
        "type": "t_mapping(t_bytes4,t_bool)"
      },
      {
        "astId": 24034,
        "contract": "src/tokens/NFTGemMultiToken.sol:NFTGemMultiToken",
        "label": "_balances",
        "offset": 0,
        "slot": "1",
        "type": "t_mapping(t_uint256,t_mapping(t_address,t_uint256))"
      },
      {
        "astId": 24040,
        "contract": "src/tokens/NFTGemMultiToken.sol:NFTGemMultiToken",
        "label": "_operatorApprovals",
        "offset": 0,
        "slot": "2",
        "type": "t_mapping(t_address,t_mapping(t_address,t_bool))"
      },
      {
        "astId": 24042,
        "contract": "src/tokens/NFTGemMultiToken.sol:NFTGemMultiToken",
        "label": "_uri",
        "offset": 0,
        "slot": "3",
        "type": "t_string_storage"
      },
      {
        "astId": 28683,
        "contract": "src/tokens/NFTGemMultiToken.sol:NFTGemMultiToken",
        "label": "_paused",
        "offset": 0,
        "slot": "4",
        "type": "t_bool"
      },
      {
        "astId": 10169,
        "contract": "src/tokens/NFTGemMultiToken.sol:NFTGemMultiToken",
        "label": "_controllers",
        "offset": 0,
        "slot": "5",
        "type": "t_mapping(t_address,t_bool)"
      },
      {
        "astId": 26911,
        "contract": "src/tokens/NFTGemMultiToken.sol:NFTGemMultiToken",
        "label": "proxyRegistries",
        "offset": 0,
        "slot": "6",
        "type": "t_array(t_address)dyn_storage"
      },
      {
        "astId": 26913,
        "contract": "src/tokens/NFTGemMultiToken.sol:NFTGemMultiToken",
        "label": "registryManager",
        "offset": 0,
        "slot": "7",
        "type": "t_address"
      },
      {
        "astId": 26917,
        "contract": "src/tokens/NFTGemMultiToken.sol:NFTGemMultiToken",
        "label": "_totalBalances",
        "offset": 0,
        "slot": "8",
        "type": "t_mapping(t_uint256,t_uint256)"
      },
      {
        "astId": 26923,
        "contract": "src/tokens/NFTGemMultiToken.sol:NFTGemMultiToken",
        "label": "_tokenLocks",
        "offset": 0,
        "slot": "9",
        "type": "t_mapping(t_address,t_mapping(t_uint256,t_uint256))"
      },
      {
        "astId": 26928,
        "contract": "src/tokens/NFTGemMultiToken.sol:NFTGemMultiToken",
        "label": "_heldTokens",
        "offset": 0,
        "slot": "10",
        "type": "t_mapping(t_address,t_array(t_uint256)dyn_storage)"
      },
      {
        "astId": 26934,
        "contract": "src/tokens/NFTGemMultiToken.sol:NFTGemMultiToken",
        "label": "_heldTokenKeys",
        "offset": 0,
        "slot": "11",
        "type": "t_mapping(t_address,t_mapping(t_uint256,t_int256))"
      },
      {
        "astId": 26939,
        "contract": "src/tokens/NFTGemMultiToken.sol:NFTGemMultiToken",
        "label": "_tokenHolders",
        "offset": 0,
        "slot": "12",
        "type": "t_mapping(t_uint256,t_array(t_address)dyn_storage)"
      },
      {
        "astId": 26945,
        "contract": "src/tokens/NFTGemMultiToken.sol:NFTGemMultiToken",
        "label": "_tokenHolderKeys",
        "offset": 0,
        "slot": "13",
        "type": "t_mapping(t_uint256,t_mapping(t_address,t_int256))"
      },
      {
        "astId": 26949,
        "contract": "src/tokens/NFTGemMultiToken.sol:NFTGemMultiToken",
        "label": "_tokenTypes",
        "offset": 0,
        "slot": "14",
        "type": "t_mapping(t_uint256,t_uint8)"
      },
      {
        "astId": 26953,
        "contract": "src/tokens/NFTGemMultiToken.sol:NFTGemMultiToken",
        "label": "_tokenPools",
        "offset": 0,
        "slot": "15",
        "type": "t_mapping(t_uint256,t_address)"
      }
    ],
    "types": {
      "t_address": {
        "encoding": "inplace",
        "label": "address",
        "numberOfBytes": "20"
      },
      "t_array(t_address)dyn_storage": {
        "base": "t_address",
        "encoding": "dynamic_array",
        "label": "address[]",
        "numberOfBytes": "32"
      },
      "t_array(t_uint256)dyn_storage": {
        "base": "t_uint256",
        "encoding": "dynamic_array",
        "label": "uint256[]",
        "numberOfBytes": "32"
      },
      "t_bool": {
        "encoding": "inplace",
        "label": "bool",
        "numberOfBytes": "1"
      },
      "t_bytes4": {
        "encoding": "inplace",
        "label": "bytes4",
        "numberOfBytes": "4"
      },
      "t_int256": {
        "encoding": "inplace",
        "label": "int256",
        "numberOfBytes": "32"
      },
      "t_mapping(t_address,t_array(t_uint256)dyn_storage)": {
        "encoding": "mapping",
        "key": "t_address",
        "label": "mapping(address => uint256[])",
        "numberOfBytes": "32",
        "value": "t_array(t_uint256)dyn_storage"
      },
      "t_mapping(t_address,t_bool)": {
        "encoding": "mapping",
        "key": "t_address",
        "label": "mapping(address => bool)",
        "numberOfBytes": "32",
        "value": "t_bool"
      },
      "t_mapping(t_address,t_int256)": {
        "encoding": "mapping",
        "key": "t_address",
        "label": "mapping(address => int256)",
        "numberOfBytes": "32",
        "value": "t_int256"
      },
      "t_mapping(t_address,t_mapping(t_address,t_bool))": {
        "encoding": "mapping",
        "key": "t_address",
        "label": "mapping(address => mapping(address => bool))",
        "numberOfBytes": "32",
        "value": "t_mapping(t_address,t_bool)"
      },
      "t_mapping(t_address,t_mapping(t_uint256,t_int256))": {
        "encoding": "mapping",
        "key": "t_address",
        "label": "mapping(address => mapping(uint256 => int256))",
        "numberOfBytes": "32",
        "value": "t_mapping(t_uint256,t_int256)"
      },
      "t_mapping(t_address,t_mapping(t_uint256,t_uint256))": {
        "encoding": "mapping",
        "key": "t_address",
        "label": "mapping(address => mapping(uint256 => uint256))",
        "numberOfBytes": "32",
        "value": "t_mapping(t_uint256,t_uint256)"
      },
      "t_mapping(t_address,t_uint256)": {
        "encoding": "mapping",
        "key": "t_address",
        "label": "mapping(address => uint256)",
        "numberOfBytes": "32",
        "value": "t_uint256"
      },
      "t_mapping(t_bytes4,t_bool)": {
        "encoding": "mapping",
        "key": "t_bytes4",
        "label": "mapping(bytes4 => bool)",
        "numberOfBytes": "32",
        "value": "t_bool"
      },
      "t_mapping(t_uint256,t_address)": {
        "encoding": "mapping",
        "key": "t_uint256",
        "label": "mapping(uint256 => address)",
        "numberOfBytes": "32",
        "value": "t_address"
      },
      "t_mapping(t_uint256,t_array(t_address)dyn_storage)": {
        "encoding": "mapping",
        "key": "t_uint256",
        "label": "mapping(uint256 => address[])",
        "numberOfBytes": "32",
        "value": "t_array(t_address)dyn_storage"
      },
      "t_mapping(t_uint256,t_int256)": {
        "encoding": "mapping",
        "key": "t_uint256",
        "label": "mapping(uint256 => int256)",
        "numberOfBytes": "32",
        "value": "t_int256"
      },
      "t_mapping(t_uint256,t_mapping(t_address,t_int256))": {
        "encoding": "mapping",
        "key": "t_uint256",
        "label": "mapping(uint256 => mapping(address => int256))",
        "numberOfBytes": "32",
        "value": "t_mapping(t_address,t_int256)"
      },
      "t_mapping(t_uint256,t_mapping(t_address,t_uint256))": {
        "encoding": "mapping",
        "key": "t_uint256",
        "label": "mapping(uint256 => mapping(address => uint256))",
        "numberOfBytes": "32",
        "value": "t_mapping(t_address,t_uint256)"
      },
      "t_mapping(t_uint256,t_uint256)": {
        "encoding": "mapping",
        "key": "t_uint256",
        "label": "mapping(uint256 => uint256)",
        "numberOfBytes": "32",
        "value": "t_uint256"
      },
      "t_mapping(t_uint256,t_uint8)": {
        "encoding": "mapping",
        "key": "t_uint256",
        "label": "mapping(uint256 => uint8)",
        "numberOfBytes": "32",
        "value": "t_uint8"
      },
      "t_string_storage": {
        "encoding": "bytes",
        "label": "string",
        "numberOfBytes": "32"
      },
      "t_uint256": {
        "encoding": "inplace",
        "label": "uint256",
        "numberOfBytes": "32"
      },
      "t_uint8": {
        "encoding": "inplace",
        "label": "uint8",
        "numberOfBytes": "1"
      }
    }
  }
}