{
  "address": "0x4d55DbE3b8F241bF8E1D34186943fCa9D6De5C1a",
  "abi": [
    {
      "inputs": [],
      "stateMutability": "nonpayable",
      "type": "constructor"
    },
    {
      "anonymous": false,
      "inputs": [
        {
          "indexed": true,
          "internalType": "address",
          "name": "account",
          "type": "address"
        },
        {
          "indexed": true,
          "internalType": "address",
          "name": "operator",
          "type": "address"
        },
        {
          "indexed": false,
          "internalType": "bool",
          "name": "approved",
          "type": "bool"
        }
      ],
      "name": "ApprovalForAll",
      "type": "event"
    },
    {
      "anonymous": false,
      "inputs": [
        {
          "indexed": true,
          "internalType": "address",
          "name": "contractAddress",
          "type": "address"
        },
        {
          "indexed": true,
          "internalType": "address",
          "name": "controllerAddress",
          "type": "address"
        }
      ],
      "name": "ControllerAdded",
      "type": "event"
    },
    {
      "anonymous": false,
      "inputs": [
        {
          "indexed": true,
          "internalType": "address",
          "name": "contractAddress",
          "type": "address"
        },
        {
          "indexed": true,
          "internalType": "address",
          "name": "controllerAddress",
          "type": "address"
        }
      ],
      "name": "ControllerRemoved",
      "type": "event"
    },
    {
      "anonymous": false,
      "inputs": [
        {
          "indexed": false,
          "internalType": "address",
          "name": "account",
          "type": "address"
        }
      ],
      "name": "Paused",
      "type": "event"
    },
    {
      "anonymous": false,
      "inputs": [
        {
          "indexed": true,
          "internalType": "address",
          "name": "operator",
          "type": "address"
        },
        {
          "indexed": true,
          "internalType": "address",
          "name": "from",
          "type": "address"
        },
        {
          "indexed": true,
          "internalType": "address",
          "name": "to",
          "type": "address"
        },
        {
          "indexed": false,
          "internalType": "uint256[]",
          "name": "ids",
          "type": "uint256[]"
        },
        {
          "indexed": false,
          "internalType": "uint256[]",
          "name": "values",
          "type": "uint256[]"
        }
      ],
      "name": "TransferBatch",
      "type": "event"
    },
    {
      "anonymous": false,
      "inputs": [
        {
          "indexed": true,
          "internalType": "address",
          "name": "operator",
          "type": "address"
        },
        {
          "indexed": true,
          "internalType": "address",
          "name": "from",
          "type": "address"
        },
        {
          "indexed": true,
          "internalType": "address",
          "name": "to",
          "type": "address"
        },
        {
          "indexed": false,
          "internalType": "uint256",
          "name": "id",
          "type": "uint256"
        },
        {
          "indexed": false,
          "internalType": "uint256",
          "name": "value",
          "type": "uint256"
        }
      ],
      "name": "TransferSingle",
      "type": "event"
    },
    {
      "anonymous": false,
      "inputs": [
        {
          "indexed": false,
          "internalType": "string",
          "name": "value",
          "type": "string"
        },
        {
          "indexed": true,
          "internalType": "uint256",
          "name": "id",
          "type": "uint256"
        }
      ],
      "name": "URI",
      "type": "event"
    },
    {
      "anonymous": false,
      "inputs": [
        {
          "indexed": false,
          "internalType": "address",
          "name": "account",
          "type": "address"
        }
      ],
      "name": "Unpaused",
      "type": "event"
    },
    {
      "inputs": [
        {
          "internalType": "address",
          "name": "_controller",
          "type": "address"
        }
      ],
      "name": "addController",
      "outputs": [],
      "stateMutability": "nonpayable",
      "type": "function"
    },
    {
      "inputs": [
        {
          "internalType": "address",
          "name": "registry",
          "type": "address"
        }
      ],
      "name": "addProxyRegistry",
      "outputs": [],
      "stateMutability": "nonpayable",
      "type": "function"
    },
    {
      "inputs": [
        {
          "internalType": "address",
          "name": "holder",
          "type": "address"
        },
        {
          "internalType": "uint256",
          "name": "_idx",
          "type": "uint256"
        }
      ],
      "name": "allHeldTokens",
      "outputs": [
        {
          "internalType": "uint256",
          "name": "",
          "type": "uint256"
        }
      ],
      "stateMutability": "view",
      "type": "function"
    },
    {
      "inputs": [
        {
          "internalType": "address",
          "name": "holder",
          "type": "address"
        }
      ],
      "name": "allHeldTokensLength",
      "outputs": [
        {
          "internalType": "uint256",
          "name": "",
          "type": "uint256"
        }
      ],
      "stateMutability": "view",
      "type": "function"
    },
    {
      "inputs": [
        {
          "internalType": "uint256",
          "name": "_idx",
          "type": "uint256"
        }
      ],
      "name": "allProxyRegistries",
      "outputs": [
        {
          "internalType": "address",
          "name": "",
          "type": "address"
        }
      ],
      "stateMutability": "view",
      "type": "function"
    },
    {
      "inputs": [],
      "name": "allProxyRegistriesLength",
      "outputs": [
        {
          "internalType": "uint256",
          "name": "",
          "type": "uint256"
        }
      ],
      "stateMutability": "view",
      "type": "function"
    },
    {
      "inputs": [
        {
          "internalType": "uint256",
          "name": "_token",
          "type": "uint256"
        },
        {
          "internalType": "uint256",
          "name": "_idx",
          "type": "uint256"
        }
      ],
      "name": "allTokenHolders",
      "outputs": [
        {
          "internalType": "address",
          "name": "",
          "type": "address"
        }
      ],
      "stateMutability": "view",
      "type": "function"
    },
    {
      "inputs": [
        {
          "internalType": "uint256",
          "name": "_token",
          "type": "uint256"
        }
      ],
      "name": "allTokenHoldersLength",
      "outputs": [
        {
          "internalType": "uint256",
          "name": "",
          "type": "uint256"
        }
      ],
      "stateMutability": "view",
      "type": "function"
    },
    {
      "inputs": [
        {
          "internalType": "address",
          "name": "account",
          "type": "address"
        },
        {
          "internalType": "uint256",
          "name": "id",
          "type": "uint256"
        }
      ],
      "name": "balanceOf",
      "outputs": [
        {
          "internalType": "uint256",
          "name": "",
          "type": "uint256"
        }
      ],
      "stateMutability": "view",
      "type": "function"
    },
    {
      "inputs": [
        {
          "internalType": "address[]",
          "name": "accounts",
          "type": "address[]"
        },
        {
          "internalType": "uint256[]",
          "name": "ids",
          "type": "uint256[]"
        }
      ],
      "name": "balanceOfBatch",
      "outputs": [
        {
          "internalType": "uint256[]",
          "name": "",
          "type": "uint256[]"
        }
      ],
      "stateMutability": "view",
      "type": "function"
    },
    {
      "inputs": [
        {
          "internalType": "address",
          "name": "account",
          "type": "address"
        },
        {
          "internalType": "uint256",
          "name": "tokenHash",
          "type": "uint256"
        },
        {
          "internalType": "uint256",
          "name": "amount",
          "type": "uint256"
        }
      ],
      "name": "burn",
      "outputs": [],
      "stateMutability": "nonpayable",
      "type": "function"
    },
    {
      "inputs": [],
      "name": "getRegistryManager",
      "outputs": [
        {
          "internalType": "address",
          "name": "",
          "type": "address"
        }
      ],
      "stateMutability": "view",
      "type": "function"
    },
    {
      "inputs": [
        {
          "internalType": "uint256",
          "name": "tokenHash",
          "type": "uint256"
        }
      ],
      "name": "getTokenData",
      "outputs": [
        {
          "internalType": "uint8",
          "name": "tokenType",
          "type": "uint8"
        },
        {
          "internalType": "address",
          "name": "tokenPool",
          "type": "address"
        }
      ],
      "stateMutability": "view",
      "type": "function"
    },
    {
      "inputs": [
        {
          "internalType": "address",
          "name": "_owner",
          "type": "address"
        },
        {
          "internalType": "address",
          "name": "_operator",
          "type": "address"
        }
      ],
      "name": "isApprovedForAll",
      "outputs": [
        {
          "internalType": "bool",
          "name": "isOperator",
          "type": "bool"
        }
      ],
      "stateMutability": "view",
      "type": "function"
    },
    {
      "inputs": [
        {
          "internalType": "address",
          "name": "_address",
          "type": "address"
        }
      ],
      "name": "isController",
      "outputs": [
        {
          "internalType": "bool",
          "name": "allowed",
          "type": "bool"
        }
      ],
      "stateMutability": "view",
      "type": "function"
    },
    {
      "inputs": [
        {
          "internalType": "uint256",
          "name": "token",
          "type": "uint256"
        },
        {
          "internalType": "uint256",
          "name": "timestamp",
          "type": "uint256"
        }
      ],
      "name": "lock",
      "outputs": [],
      "stateMutability": "nonpayable",
      "type": "function"
    },
    {
      "inputs": [
        {
          "internalType": "address",
          "name": "account",
          "type": "address"
        },
        {
          "internalType": "uint256",
          "name": "tokenHash",
          "type": "uint256"
        },
        {
          "internalType": "uint256",
          "name": "amount",
          "type": "uint256"
        }
      ],
      "name": "mint",
      "outputs": [],
      "stateMutability": "nonpayable",
      "type": "function"
    },
    {
      "inputs": [
        {
          "internalType": "address",
          "name": "",
          "type": "address"
        },
        {
          "internalType": "address",
          "name": "",
          "type": "address"
        },
        {
          "internalType": "uint256[]",
          "name": "",
          "type": "uint256[]"
        },
        {
          "internalType": "uint256[]",
          "name": "",
          "type": "uint256[]"
        },
        {
          "internalType": "bytes",
          "name": "",
          "type": "bytes"
        }
      ],
      "name": "onERC1155BatchReceived",
      "outputs": [
        {
          "internalType": "bytes4",
          "name": "",
          "type": "bytes4"
        }
      ],
      "stateMutability": "nonpayable",
      "type": "function"
    },
    {
      "inputs": [
        {
          "internalType": "address",
          "name": "",
          "type": "address"
        },
        {
          "internalType": "address",
          "name": "",
          "type": "address"
        },
        {
          "internalType": "uint256",
          "name": "",
          "type": "uint256"
        },
        {
          "internalType": "uint256",
          "name": "",
          "type": "uint256"
        },
        {
          "internalType": "bytes",
          "name": "",
          "type": "bytes"
        }
      ],
      "name": "onERC1155Received",
      "outputs": [
        {
          "internalType": "bytes4",
          "name": "",
          "type": "bytes4"
        }
      ],
      "stateMutability": "nonpayable",
      "type": "function"
    },
    {
      "inputs": [],
      "name": "paused",
      "outputs": [
        {
          "internalType": "bool",
          "name": "",
          "type": "bool"
        }
      ],
      "stateMutability": "view",
      "type": "function"
    },
    {
      "inputs": [],
      "name": "relinquishControl",
      "outputs": [],
      "stateMutability": "view",
      "type": "function"
    },
    {
      "inputs": [
        {
          "internalType": "uint256",
          "name": "index",
          "type": "uint256"
        }
      ],
      "name": "removeProxyRegistryAt",
      "outputs": [],
      "stateMutability": "nonpayable",
      "type": "function"
    },
    {
      "inputs": [
        {
          "internalType": "address",
          "name": "from",
          "type": "address"
        },
        {
          "internalType": "address",
          "name": "to",
          "type": "address"
        },
        {
          "internalType": "uint256[]",
          "name": "ids",
          "type": "uint256[]"
        },
        {
          "internalType": "uint256[]",
          "name": "amounts",
          "type": "uint256[]"
        },
        {
          "internalType": "bytes",
          "name": "data",
          "type": "bytes"
        }
      ],
      "name": "safeBatchTransferFrom",
      "outputs": [],
      "stateMutability": "nonpayable",
      "type": "function"
    },
    {
      "inputs": [
        {
          "internalType": "address",
          "name": "from",
          "type": "address"
        },
        {
          "internalType": "address",
          "name": "to",
          "type": "address"
        },
        {
          "internalType": "uint256",
          "name": "id",
          "type": "uint256"
        },
        {
          "internalType": "uint256",
          "name": "amount",
          "type": "uint256"
        },
        {
          "internalType": "bytes",
          "name": "data",
          "type": "bytes"
        }
      ],
      "name": "safeTransferFrom",
      "outputs": [],
      "stateMutability": "nonpayable",
      "type": "function"
    },
    {
      "inputs": [
        {
          "internalType": "address",
          "name": "operator",
          "type": "address"
        },
        {
          "internalType": "bool",
          "name": "approved",
          "type": "bool"
        }
      ],
      "name": "setApprovalForAll",
      "outputs": [],
      "stateMutability": "nonpayable",
      "type": "function"
    },
    {
      "inputs": [
        {
          "internalType": "address",
          "name": "newManager",
          "type": "address"
        }
      ],
      "name": "setRegistryManager",
      "outputs": [],
      "stateMutability": "nonpayable",
      "type": "function"
    },
    {
      "inputs": [
        {
          "internalType": "uint256",
          "name": "tokenHash",
          "type": "uint256"
        },
        {
          "internalType": "uint8",
          "name": "tokenType",
          "type": "uint8"
        },
        {
          "internalType": "address",
          "name": "tokenPool",
          "type": "address"
        }
      ],
      "name": "setTokenData",
      "outputs": [],
      "stateMutability": "nonpayable",
      "type": "function"
    },
    {
      "inputs": [
        {
          "internalType": "bytes4",
          "name": "interfaceId",
          "type": "bytes4"
        }
      ],
      "name": "supportsInterface",
      "outputs": [
        {
          "internalType": "bool",
          "name": "",
          "type": "bool"
        }
      ],
      "stateMutability": "view",
      "type": "function"
    },
    {
      "inputs": [
        {
          "internalType": "uint256",
          "name": "_id",
          "type": "uint256"
        }
      ],
      "name": "totalBalances",
      "outputs": [
        {
          "internalType": "uint256",
          "name": "",
          "type": "uint256"
        }
      ],
      "stateMutability": "view",
      "type": "function"
    },
    {
      "inputs": [
        {
          "internalType": "address",
          "name": "account",
          "type": "address"
        },
        {
          "internalType": "uint256",
          "name": "token",
          "type": "uint256"
        }
      ],
      "name": "unlockTime",
      "outputs": [
        {
          "internalType": "uint256",
          "name": "theTime",
          "type": "uint256"
        }
      ],
      "stateMutability": "view",
      "type": "function"
    },
    {
      "inputs": [
        {
          "internalType": "uint256",
          "name": "_id",
          "type": "uint256"
        }
      ],
      "name": "uri",
      "outputs": [
        {
          "internalType": "string",
          "name": "",
          "type": "string"
        }
      ],
      "stateMutability": "view",
      "type": "function"
    }
  ],
  "transactionHash": "0xe61c2f02c5b617278ba913fd77cbe5b663babe3e5dd21d88abebd2a0c05ba63f",
  "args": [],
  "solcInputHash": "e8ac2c99660149c3d1bf822668c1cf64",
  "bytecode": "0x60806040523480156200001157600080fd5b506040805180820190915260208082527f68747470733a2f2f6d657461646174612e6269746c6f6f74626f782e636f6d2f90820152620000586301ffc9a760e01b620000c7565b62000063816200014c565b62000075636cdb3d1360e11b620000c7565b620000876303a24d0760e21b620000c7565b506004805460ff19169055620000a4630271189760e51b620000c7565b620000af3362000165565b600880546001600160a01b0319163317905562000225565b6001600160e01b0319808216141562000127576040805162461bcd60e51b815260206004820152601c60248201527f4552433136353a20696e76616c696420696e7465726661636520696400000000604482015290519081900360640190fd5b6001600160e01b0319166000908152602081905260409020805460ff19166001179055565b80516200016190600390602084019062000189565b5050565b6001600160a01b03166000908152600560205260409020805460ff19166001179055565b828054600181600116156101000203166002900490600052602060002090601f016020900481019282601f10620001cc57805160ff1916838001178555620001fc565b82800160010185558215620001fc579182015b82811115620001fc578251825591602001919060010190620001df565b506200020a9291506200020e565b5090565b5b808211156200020a57600081556001016200020f565b6137f080620002356000396000f3fe608060405234801561001057600080fd5b50600436106101e45760003560e01c80638d0335d11161010f578063e1c28bef116100a2578063f23a6e6111610071578063f23a6e6114610b3c578063f242432a14610c07578063f5298aca14610cd2578063f68ee90e14610d04576101e4565b8063e1c28bef14610ac3578063e985e9c514610acb578063ed7aae2b14610af9578063ef72f27614610b16576101e4565b8063b09afec1116100de578063b09afec114610833578063b429afeb14610875578063b59a91281461089b578063bc197c81146108c7576101e4565b80638d0335d11461079c578063a0f8c694146107b9578063a22cb465146107df578063a7fc7a071461080d576101e4565b80632e13e81e116101875780635c975abb116101565780635c975abb14610718578063740ec99e14610720578063761604ab1461075f5780637c88107614610767576101e4565b80632e13e81e146103b55780632eb2c2d6146103d25780634e1273f4146105995780635401982d14610710576101e4565b80630e89341c116101c35780630e89341c146102a25780631338736f14610334578063156e29f61461035757806315aef88a14610389576101e4565b8062fdd58e146101e957806301ffc9a71461022757806302aab0861461027a575b600080fd5b610215600480360360408110156101ff57600080fd5b506001600160a01b038135169060200135610d21565b60408051918252519081900360200190f35b6102666004803603602081101561023d57600080fd5b50357fffffffff0000000000000000000000000000000000000000000000000000000016610d93565b604080519115158252519081900360200190f35b6102a06004803603602081101561029057600080fd5b50356001600160a01b0316610dce565b005b6102bf600480360360208110156102b857600080fd5b5035610ec2565b6040805160208082528351818301528351919283929083019185019080838360005b838110156102f95781810151838201526020016102e1565b50505050905090810190601f1680156103265780820380516001836020036101000a031916815260200191505b509250505060405180910390f35b6102a06004803603604081101561034a57600080fd5b508035906020013561106f565b6102a06004803603606081101561036d57600080fd5b506001600160a01b038135169060208101359060400135611139565b6102156004803603604081101561039f57600080fd5b506001600160a01b0381351690602001356111dc565b6102a0600480360360208110156103cb57600080fd5b5035611203565b6102a0600480360360a08110156103e857600080fd5b6001600160a01b03823581169260208101359091169181019060608101604082013564010000000081111561041c57600080fd5b82018360208201111561042e57600080fd5b8035906020019184602083028401116401000000008311171561045057600080fd5b91908080602002602001604051908101604052809392919081815260200183836020028082843760009201919091525092959493602081019350359150506401000000008111156104a057600080fd5b8201836020820111156104b257600080fd5b803590602001918460208302840111640100000000831117156104d457600080fd5b919080806020026020016040519081016040528093929190818152602001838360200280828437600092019190915250929594936020810193503591505064010000000081111561052457600080fd5b82018360208201111561053657600080fd5b8035906020019184600183028401116401000000008311171561055857600080fd5b91908080601f0160208091040260200160405190810160405280939291908181526020018383808284376000920191909152509295506112f7945050505050565b6106c0600480360360408110156105af57600080fd5b8101906020810181356401000000008111156105ca57600080fd5b8201836020820111156105dc57600080fd5b803590602001918460208302840111640100000000831117156105fe57600080fd5b919080806020026020016040519081016040528093929190818152602001838360200280828437600092019190915250929594936020810193503591505064010000000081111561064e57600080fd5b82018360208201111561066057600080fd5b8035906020019184602083028401116401000000008311171561068257600080fd5b9190808060200260200160405190810160405280939291908181526020018383602002808284376000920191909152509295506115f5945050505050565b60408051602080825283518183015283519192839290830191858101910280838360005b838110156106fc5781810151838201526020016106e4565b505050509050019250505060405180910390f35b6102156116e1565b6102666116f3565b6107436004803603604081101561073657600080fd5b50803590602001356116fc565b604080516001600160a01b039092168252519081900360200190f35b61074361171b565b6102a06004803603606081101561077d57600080fd5b50803590602081013560ff1690604001356001600160a01b031661172a565b610743600480360360208110156107b257600080fd5b5035611806565b610215600480360360208110156107cf57600080fd5b50356001600160a01b0316611813565b6102a0600480360360408110156107f557600080fd5b506001600160a01b0381351690602001351515611834565b6102a06004803603602081101561082357600080fd5b50356001600160a01b0316611941565b6108506004803603602081101561084957600080fd5b50356119e0565b6040805160ff90931683526001600160a01b0390911660208301528051918290030190f35b6102666004803603602081101561088b57600080fd5b50356001600160a01b0316611a0f565b610215600480360360408110156108b157600080fd5b506001600160a01b038135169060200135611a2d565b610a8e600480360360a08110156108dd57600080fd5b6001600160a01b03823581169260208101359091169181019060608101604082013564010000000081111561091157600080fd5b82018360208201111561092357600080fd5b8035906020019184602083028401116401000000008311171561094557600080fd5b919080806020026020016040519081016040528093929190818152602001838360200280828437600092019190915250929594936020810193503591505064010000000081111561099557600080fd5b8201836020820111156109a757600080fd5b803590602001918460208302840111640100000000831117156109c957600080fd5b9190808060200260200160405190810160405280939291908181526020018383602002808284376000920191909152509295949360208101935035915050640100000000811115610a1957600080fd5b820183602082011115610a2b57600080fd5b80359060200191846001830284011164010000000083111715610a4d57600080fd5b91908080601f016020809104026020016040519081016040528093929190818152602001838380828437600092019190915250929550611a4f945050505050565b604080517fffffffff000000000000000000000000000000000000000000000000000000009092168252519081900360200190f35b6102a0611a79565b61026660048036036040811015610ae157600080fd5b506001600160a01b0381358116916020013516611ae1565b61021560048036036020811015610b0f57600080fd5b5035611bbc565b6102a060048036036020811015610b2c57600080fd5b50356001600160a01b0316611bce565b610a8e600480360360a0811015610b5257600080fd5b6001600160a01b03823581169260208101359091169160408201359160608101359181019060a081016080820135640100000000811115610b9257600080fd5b820183602082011115610ba457600080fd5b80359060200191846001830284011164010000000083111715610bc657600080fd5b91908080601f016020809104026020016040519081016040528093929190818152602001838380828437600092019190915250929550611c57945050505050565b6102a0600480360360a0811015610c1d57600080fd5b6001600160a01b03823581169260208101359091169160408201359160608101359181019060a081016080820135640100000000811115610c5d57600080fd5b820183602082011115610c6f57600080fd5b80359060200191846001830284011164010000000083111715610c9157600080fd5b91908080601f016020809104026020016040519081016040528093929190818152602001838380828437600092019190915250929550611c81945050505050565b6102a060048036036060811015610ce857600080fd5b506001600160a01b038135169060208101359060400135611e4c565b61021560048036036020811015610d1a57600080fd5b5035611eb4565b60006001600160a01b038316610d685760405162461bcd60e51b815260040180806020018281038252602b8152602001806134e1602b913960400191505060405180910390fd5b5060008181526001602090815260408083206001600160a01b03861684529091529020545b92915050565b7fffffffff00000000000000000000000000000000000000000000000000000000811660009081526020819052604090205460ff165b919050565b6008546001600160a01b03163314610e2d576040805162461bcd60e51b815260206004820152600c60248201527f554e415554484f52495a45440000000000000000000000000000000000000000604482015290519081900360640190fd5b6001600160a01b038116610e88576040805162461bcd60e51b815260206004820152600c60248201527f554e415554484f52495a45440000000000000000000000000000000000000000604482015290519081900360640190fd5b600880547fffffffffffffffffffffffff0000000000000000000000000000000000000000166001600160a01b0392909216919091179055565b600081815260096020526040902054606090610f0f5760405162461bcd60e51b81526004018080602001828103825260278152602001806136a76027913960400191505060405180910390fd5b610d8d306001600160a01b0316630e89341c846040518263ffffffff1660e01b81526004018082815260200191505060006040518083038186803b158015610f5657600080fd5b505afa158015610f6a573d6000803e3d6000fd5b505050506040513d6000823e601f3d9081017fffffffffffffffffffffffffffffffffffffffffffffffffffffffffffffffe01682016040526020811015610fb157600080fd5b8101908080516040519392919084640100000000821115610fd157600080fd5b908301906020820185811115610fe657600080fd5b825164010000000081118282018810171561100057600080fd5b82525081516020918201929091019080838360005b8381101561102d578181015183820152602001611015565b50505050905090810190601f16801561105a5780820380516001836020036101000a031916815260200191505b5060405250505061106a84611ecb565b611fd7565b80600a600061107c612013565b6001600160a01b03166001600160a01b0316815260200190815260200160002060008481526020019081526020016000205410611100576040805162461bcd60e51b815260206004820152600e60248201527f414c52454144595f4c4f434b4544000000000000000000000000000000000000604482015290519081900360640190fd5b80600a600061110d612013565b6001600160a01b0316815260208082019290925260409081016000908120948152939091529091205550565b3360009081526005602052604090205460ff1615156001148061115b57503033145b6111965760405162461bcd60e51b81526004018080602001828103825260288152602001806136ce6028913960400191505060405180910390fd5b6111d78383836040518060400160405280600381526020017f3078300000000000000000000000000000000000000000000000000000000000815250612017565b505050565b6001600160a01b039091166000908152600a60209081526040808320938352929052205490565b6008546001600160a01b031633148061123057503360009081526005602052604090205460ff1615156001145b611281576040805162461bcd60e51b815260206004820152600c60248201527f554e415554484f52495a45440000000000000000000000000000000000000000604482015290519081900360640190fd5b61128b6006612029565b81106112de576040805162461bcd60e51b815260206004820152600d60248201527f494e56414c49445f494e44455800000000000000000000000000000000000000604482015290519081900360640190fd5b6112f46112ec600683612030565b60069061205d565b50565b81518351146113375760405162461bcd60e51b81526004018080602001828103825260288152602001806137486028913960400191505060405180910390fd5b6001600160a01b03841661137c5760405162461bcd60e51b81526004018080602001828103825260258152602001806135af6025913960400191505060405180910390fd5b611384612013565b6001600160a01b0316856001600160a01b031614806113af57506113af856113aa612013565b611ae1565b6113ea5760405162461bcd60e51b81526004018080602001828103825260328152602001806135d46032913960400191505060405180910390fd5b60006113f4612013565b90506114048187878787876121e2565b60005b845181101561150557600085828151811061141e57fe5b60200260200101519050600085838151811061143657fe5b602002602001015190506114a3816040518060600160405280602a815260200161367d602a91396001600086815260200190815260200160002060008d6001600160a01b03166001600160a01b03168152602001908152602001600020546125269092919063ffffffff16565b60008381526001602090815260408083206001600160a01b038e811685529252808320939093558a16815220546114da90826125bd565b60009283526001602081815260408086206001600160a01b038d168752909152909320555001611407565b50846001600160a01b0316866001600160a01b0316826001600160a01b03167f4a39dc06d4c0dbc64b70af90fd698a233a518aa5d07e595d983b8c0526c8f7fb8787604051808060200180602001838103835285818151815260200191508051906020019060200280838360005b8381101561158b578181015183820152602001611573565b50505050905001838103825284818151815260200191508051906020019060200280838360005b838110156115ca5781810151838201526020016115b2565b5050505090500194505050505060405180910390a46115ed818787878787612617565b505050505050565b606081518351146116375760405162461bcd60e51b815260040180806020018281038252602981526020018061371f6029913960400191505060405180910390fd5b6060835167ffffffffffffffff8111801561165157600080fd5b5060405190808252806020026020018201604052801561167b578160200160208202803683370190505b50905060005b84518110156116d9576116ba85828151811061169957fe5b60200260200101518583815181106116ad57fe5b6020026020010151610d21565b8282815181106116c657fe5b6020908102919091010152600101611681565b509392505050565b60006116ed6006612029565b90505b90565b60045460ff1690565b6000828152600c602052604081206117149083612030565b9392505050565b6008546001600160a01b031690565b3360009081526005602052604090205460ff1615156001148061174c57503033145b6117875760405162461bcd60e51b81526004018080602001828103825260288152602001806136ce6028913960400191505060405180910390fd5b6000928352600d6020908152604080852080547fffffffffffffffffffffffffffffffffffffffffffffffffffffffffffffff001660ff9590951694909417909355600e9052912080547fffffffffffffffffffffffff0000000000000000000000000000000000000000166001600160a01b03909216919091179055565b6000610d8d600683612030565b6001600160a01b0381166000908152600b60205260408120610d8d90612029565b816001600160a01b0316611846612013565b6001600160a01b0316141561188c5760405162461bcd60e51b81526004018080602001828103825260298152602001806136f66029913960400191505060405180910390fd5b8060026000611899612013565b6001600160a01b0390811682526020808301939093526040918201600090812091871680825291909352912080547fffffffffffffffffffffffffffffffffffffffffffffffffffffffffffffff0016921515929092179091556118fb612013565b6001600160a01b03167f17307eab39ab6107e8899845ad3d59bd9653f200f220920489ca2b5937696c318360405180821515815260200191505060405180910390a35050565b3360009081526005602052604090205460ff1615156001148061196357503033145b61199e5760405162461bcd60e51b81526004018080602001828103825260288152602001806136ce6028913960400191505060405180910390fd5b6001600160a01b0316600090815260056020526040902080547fffffffffffffffffffffffffffffffffffffffffffffffffffffffffffffff00166001179055565b6000908152600d6020908152604080832054600e9092529091205460ff909116916001600160a01b0390911690565b6001600160a01b031660009081526005602052604090205460ff1690565b6001600160a01b0382166000908152600b6020526040812061171490836128be565b7fbc197c810000000000000000000000000000000000000000000000000000000095945050505050565b3360009081526005602052604090205460ff16151560011480611a9b57503033145b611ad65760405162461bcd60e51b81526004018080602001828103825260288152602001806136ce6028913960400191505060405180910390fd5b336000526005602052565b6000805b611aef6006612029565b811015611bb1576000611b03600683612030565b9050806001600160a01b031663c4552791866040518263ffffffff1660e01b815260040180826001600160a01b0316815260200191505060206040518083038186803b158015611b5257600080fd5b505afa925050508015611b7757506040513d6020811015611b7257600080fd5b505160015b611b8057611ba8565b846001600160a01b0316816001600160a01b03161415611ba65760019350505050610d8d565b505b50600101611ae5565b5061171483836128e2565b60009081526009602052604090205490565b6008546001600160a01b0316331480611bfb57503360009081526005602052604090205460ff1615156001145b611c4c576040805162461bcd60e51b815260206004820152600c60248201527f554e415554484f52495a45440000000000000000000000000000000000000000604482015290519081900360640190fd5b6112f4600682612910565b7ff23a6e610000000000000000000000000000000000000000000000000000000095945050505050565b6001600160a01b038416611cc65760405162461bcd60e51b81526004018080602001828103825260258152602001806135af6025913960400191505060405180910390fd5b611cce612013565b6001600160a01b0316856001600160a01b03161480611cf45750611cf4856113aa612013565b611d2f5760405162461bcd60e51b815260040180806020018281038252602981526020018061355c6029913960400191505060405180910390fd5b6000611d39612013565b9050611d59818787611d4a886129bb565b611d53886129bb565b876121e2565b611da0836040518060600160405280602a815260200161367d602a913960008781526001602090815260408083206001600160a01b038d1684529091529020549190612526565b60008581526001602090815260408083206001600160a01b038b81168552925280832093909355871681522054611dd790846125bd565b60008581526001602090815260408083206001600160a01b03808b168086529184529382902094909455805188815291820187905280518a8416938616927fc3d58168c5ae7397731d063d5bbf3d657854427343f4c083240f7aacaa2d0f6292908290030190a46115ed8187878787876129ff565b3360009081526005602052604090205460ff16151560011480611e6e57503033145b611ea95760405162461bcd60e51b81526004018080602001828103825260288152602001806136ce6028913960400191505060405180910390fd5b6111d7838383612ba1565b6000818152600c60205260408120610d8d90612029565b606081611f0c575060408051808201909152600181527f30000000000000000000000000000000000000000000000000000000000000006020820152610dc9565b8160005b8115611f2457600101600a82049150611f10565b60608167ffffffffffffffff81118015611f3d57600080fd5b506040519080825280601f01601f191660200182016040528015611f68576020820181803683370190505b50905060001982015b8515611fce57600a860660300160f81b82828060019003935081518110611f9457fe5b60200101907effffffffffffffffffffffffffffffffffffffffffffffffffffffffffffff1916908160001a905350600a86049550611f71565b50949350505050565b60606117148383604051806020016040528060008152506040518060200160405280600081525060405180602001604052806000815250612bac565b3390565b61202384848484612e49565b50505050565b6001015490565b600082600101828154811061204157fe5b6000918252602090912001546001600160a01b03169392505050565b6120678282612f51565b6120a25760405162461bcd60e51b815260040180806020018281038252602a815260200180613653602a913960400191505060405180910390fd5b600060016120af84612029565b6001600160a01b03841660009081526020869052604090205491900391508082146121b95760008460010183815481106120e557fe5b60009182526020808320909101546001600160a01b031680835290879052604090912083905560018601805491925082918490811061212057fe5b600091825260208083209190910180547fffffffffffffffffffffffff0000000000000000000000000000000000000000166001600160a01b039485161790559186168152908690526040812055600185018054600019810190811061218257fe5b600091825260209091200180547fffffffffffffffffffffffff000000000000000000000000000000000000000016905550612023565b6001600160a01b038316600090815260208590526040812081905561202390600186019061336b565b6121f0868686868686612fac565b60005b835181101561251d576001600160a01b0386161561229e576001600160a01b0386166000908152600a60205260408120855142929087908590811061223457fe5b6020026020010151815260200190815260200160002054111561229e576040805162461bcd60e51b815260206004820152600c60248201527f544f4b454e5f4c4f434b45440000000000000000000000000000000000000000604482015290519081900360640190fd5b6001600160a01b038616158015906122d857508281815181106122bd57fe5b60200260200101516122d5878684815181106116ad57fe5b03155b1561235f576123278482815181106122ec57fe5b6020026020010151600b6000896001600160a01b03166001600160a01b03168152602001908152602001600020612ffe90919063ffffffff16565b61235f86600c600087858151811061233b57fe5b6020026020010151815260200190815260200160002061205d90919063ffffffff16565b6001600160a01b038516158015906123845750612382858583815181106116ad57fe5b155b1561240b576123d384828151811061239857fe5b6020026020010151600b6000886001600160a01b03166001600160a01b0316815260200190815260200160002061311490919063ffffffff16565b61240b85600c60008785815181106123e757fe5b6020026020010151815260200190815260200160002061291090919063ffffffff16565b6001600160a01b0386166124905761246583828151811061242857fe5b60200260200101516009600087858151811061244057fe5b60200260200101518152602001908152602001600020546125bd90919063ffffffff16565b6009600086848151811061247557fe5b60200260200101518152602001908152602001600020819055505b6001600160a01b038516612515576124ea8382815181106124ad57fe5b6020026020010151600960008785815181106124c557fe5b602002602001015181526020019081526020016000205461318d90919063ffffffff16565b600960008684815181106124fa57fe5b60200260200101518152602001908152602001600020819055505b6001016121f3565b50505050505050565b600081848411156125b55760405162461bcd60e51b81526004018080602001828103825283818151815260200191508051906020019080838360005b8381101561257a578181015183820152602001612562565b50505050905090810190601f1680156125a75780820380516001836020036101000a031916815260200191505b509250505060405180910390fd5b505050900390565b600082820183811015611714576040805162461bcd60e51b815260206004820152601b60248201527f536166654d6174683a206164646974696f6e206f766572666c6f770000000000604482015290519081900360640190fd5b612629846001600160a01b03166131ea565b156115ed57836001600160a01b031663bc197c8187878686866040518663ffffffff1660e01b815260040180866001600160a01b03168152602001856001600160a01b03168152602001806020018060200180602001848103845287818151815260200191508051906020019060200280838360005b838110156126b757818101518382015260200161269f565b50505050905001848103835286818151815260200191508051906020019060200280838360005b838110156126f65781810151838201526020016126de565b50505050905001848103825285818151815260200191508051906020019080838360005b8381101561273257818101518382015260200161271a565b50505050905090810190601f16801561275f5780820380516001836020036101000a031916815260200191505b5098505050505050505050602060405180830381600087803b15801561278457600080fd5b505af19250505080156127a957506040513d60208110156127a457600080fd5b505160015b61283e576127b56133a3565b806127c05750612807565b60405162461bcd60e51b815260206004820181815283516024840152835184939192839260440191908501908083836000831561257a578181015183820152602001612562565b60405162461bcd60e51b81526004018080602001828103825260348152602001806134856034913960400191505060405180910390fd5b7fffffffff0000000000000000000000000000000000000000000000000000000081167fbc197c81000000000000000000000000000000000000000000000000000000001461251d5760405162461bcd60e51b81526004018080602001828103825260288152602001806134b96028913960400191505060405180910390fd5b60008260010182815481106128cf57fe5b9060005260206000200154905092915050565b6001600160a01b03918216600090815260026020908152604080832093909416825291909152205460ff1690565b61291a8282612f51565b156129565760405162461bcd60e51b815260040180806020018281038252602a815260200180613791602a913960400191505060405180910390fd5b6001828101805491820181556000818152602080822090930180547fffffffffffffffffffffffff0000000000000000000000000000000000000000166001600160a01b03959095169485179055905492815292905260409091206000199091019055565b6040805160018082528183019092526060918291906020808301908036833701905050905082816000815181106129ee57fe5b602090810291909101015292915050565b612a11846001600160a01b03166131ea565b156115ed57836001600160a01b031663f23a6e6187878686866040518663ffffffff1660e01b815260040180866001600160a01b03168152602001856001600160a01b0316815260200184815260200183815260200180602001828103825283818151815260200191508051906020019080838360005b83811015612aa0578181015183820152602001612a88565b50505050905090810190601f168015612acd5780820380516001836020036101000a031916815260200191505b509650505050505050602060405180830381600087803b158015612af057600080fd5b505af1925050508015612b1557506040513d6020811015612b1057600080fd5b505160015b612b21576127b56133a3565b7fffffffff0000000000000000000000000000000000000000000000000000000081167ff23a6e61000000000000000000000000000000000000000000000000000000001461251d5760405162461bcd60e51b81526004018080602001828103825260288152602001806134b96028913960400191505060405180910390fd5b6111d78383836131f0565b805182518451865188516060948a948a948a948a948a948a94919092019092019091010167ffffffffffffffff81118015612be657600080fd5b506040519080825280601f01601f191660200182016040528015612c11576020820181803683370190505b509050806000805b8851811015612c8257888181518110612c2e57fe5b602001015160f81c60f81b838380600101945081518110612c4b57fe5b60200101907effffffffffffffffffffffffffffffffffffffffffffffffffffffffffffff1916908160001a905350600101612c19565b5060005b8751811015612cef57878181518110612c9b57fe5b602001015160f81c60f81b838380600101945081518110612cb857fe5b60200101907effffffffffffffffffffffffffffffffffffffffffffffffffffffffffffff1916908160001a905350600101612c86565b5060005b8651811015612d5c57868181518110612d0857fe5b602001015160f81c60f81b838380600101945081518110612d2557fe5b60200101907effffffffffffffffffffffffffffffffffffffffffffffffffffffffffffff1916908160001a905350600101612cf3565b5060005b8551811015612dc957858181518110612d7557fe5b602001015160f81c60f81b838380600101945081518110612d9257fe5b60200101907effffffffffffffffffffffffffffffffffffffffffffffffffffffffffffff1916908160001a905350600101612d60565b5060005b8451811015612e3657848181518110612de257fe5b602001015160f81c60f81b838380600101945081518110612dff57fe5b60200101907effffffffffffffffffffffffffffffffffffffffffffffffffffffffffffff1916908160001a905350600101612dcd565b50909d9c50505050505050505050505050565b6001600160a01b038416612e8e5760405162461bcd60e51b81526004018080602001828103825260218152602001806137706021913960400191505060405180910390fd5b6000612e98612013565b9050612eaa81600087611d4a886129bb565b60008481526001602090815260408083206001600160a01b0389168452909152902054612ed790846125bd565b60008581526001602090815260408083206001600160a01b03808b16808652918452828520959095558151898152928301889052815190948616927fc3d58168c5ae7397731d063d5bbf3d657854427343f4c083240f7aacaa2d0f6292908290030190a4612f4a816000878787876129ff565b5050505050565b6001820154600090612f6557506000610d8d565b6001600160a01b0382166000818152602085905260409020546001850180549091908110612f8f57fe5b6000918252602090912001546001600160a01b0316149392505050565b612fba8686868686866115ed565b612fc26116f3565b156115ed5760405162461bcd60e51b815260040180806020018281038252602c815260200180613530602c913960400191505060405180910390fd5b6130088282613323565b6130435760405162461bcd60e51b815260040180806020018281038252602a815260200180613606602a913960400191505060405180910390fd5b6000600161305084612029565b60008481526020869052604090205491900391508082146130f557600084600101838154811061307c57fe5b906000526020600020015490508185600001600083815260200190815260200160002081905550808560010183815481106130b357fe5b600091825260208083209091019290925585815290869052604081205560018501805460001981019081106130e457fe5b600091825260208220015550612023565b600083815260208590526040812081905561202390600186019061336b565b61311e8282613323565b1561315a5760405162461bcd60e51b815260040180806020018281038252602a815260200180613585602a913960400191505060405180910390fd5b60018281018054918201815560008181526020808220909301849055905492815292905260409091206000199091019055565b6000828211156131e4576040805162461bcd60e51b815260206004820152601e60248201527f536166654d6174683a207375627472616374696f6e206f766572666c6f770000604482015290519081900360640190fd5b50900390565b3b151590565b6001600160a01b0383166132355760405162461bcd60e51b81526004018080602001828103825260238152602001806136306023913960400191505060405180910390fd5b600061323f612013565b905061326f81856000613251876129bb565b61325a876129bb565b604051806020016040528060008152506121e2565b6132b68260405180606001604052806024815260200161350c6024913960008681526001602090815260408083206001600160a01b038b1684529091529020549190612526565b60008481526001602090815260408083206001600160a01b03808a16808652918452828520959095558151888152928301879052815193949093908616927fc3d58168c5ae7397731d063d5bbf3d657854427343f4c083240f7aacaa2d0f6292908290030190a450505050565b600182015460009061333757506000610d8d565b600082815260208490526040902054600184018054849290811061335757fe5b906000526020600020015414905092915050565b50805460008255906000526020600020908101906112f491905b808211156133995760008155600101613385565b5090565b60e01c90565b600060443d10156133b3576116f0565b600481823e6308c379a06133c7825161339d565b146133d1576116f0565b6040517ffffffffffffffffffffffffffffffffffffffffffffffffffffffffffffffffc3d016004823e80513d67ffffffffffffffff816024840111818411171561341f57505050506116f0565b8284019250825191508082111561343957505050506116f0565b503d83016020828401011115613451575050506116f0565b601f017fffffffffffffffffffffffffffffffffffffffffffffffffffffffffffffffe01681016020016040529150509056fe455243313135353a207472616e7366657220746f206e6f6e2045524331313535526563656976657220696d706c656d656e746572455243313135353a204552433131353552656365697665722072656a656374656420746f6b656e73455243313135353a2062616c616e636520717565727920666f7220746865207a65726f2061646472657373455243313135353a206275726e20616d6f756e7420657863656564732062616c616e6365455243313135355061757361626c653a20746f6b656e207472616e73666572207768696c6520706175736564455243313135353a2063616c6c6572206973206e6f74206f776e6572206e6f7220617070726f76656455496e743235365365743a206b657920616c72656164792065786973747320696e20746865207365742e455243313135353a207472616e7366657220746f20746865207a65726f2061646472657373455243313135353a207472616e736665722063616c6c6572206973206e6f74206f776e6572206e6f7220617070726f76656455496e743235365365743a206b657920646f6573206e6f7420657869737420696e20746865207365742e455243313135353a206275726e2066726f6d20746865207a65726f2061646472657373416464726573735365743a206b657920646f6573206e6f7420657869737420696e20746865207365742e455243313135353a20696e73756666696369656e742062616c616e636520666f72207472616e736665724e465447656d4d756c7469546f6b656e237572693a204e4f4e4558495354454e545f544f4b454e436f6e74726f6c6c61626c653a2063616c6c6572206973206e6f74206120636f6e74726f6c6c6572455243313135353a2073657474696e6720617070726f76616c2073746174757320666f722073656c66455243313135353a206163636f756e747320616e6420696473206c656e677468206d69736d61746368455243313135353a2069647320616e6420616d6f756e7473206c656e677468206d69736d61746368455243313135353a206d696e7420746f20746865207a65726f2061646472657373416464726573735365743a206b657920616c72656164792065786973747320696e20746865207365742ea264697066735822122079ed1f403f783778e467b4f7a59f8be5829a06f9b8d4d06dd8e6de5190fe646d64736f6c63430007030033",
  "libraries": {
    "GovernanceLib": "0xBf84AF35dad910dB4b1DADD954Aba110c6250EB8",
    "Strings": "0x31aa2DCE617E1c0839DBE1Bc199BBEcD537D1e57",
    "SafeMath": "0x1B6c75256f5f538258d318C324f4f41b8149C85d",
    "AddressSet": "0x21814185B8e9643a1D9cCCa3148596081b1bbF21",
    "UInt256Set": "0xeF0A9661aD504AA041E8778eB044d28bDd47Ee80",
    "Create2": "0xE7f3CD8B18B13D606671E1b095E45fd8D3492FAf",
    "ProposalsLib": "0x70b33723d54e9aF7d3967872DC29eEaD1ed7e593",
    "ComplexPoolLib": "0x8EA9587fC3844e7BBb3359e2EC6fa3D2d848b9c1",
    "WrappedTokenLib": "0x5Ba92743FDEF14E121cc75ad54c1E5dBfA90cdc6"
  },
  "devdoc": {
    "kind": "dev",
    "methods": {
      "addController(address)": {
        "details": "Add an address allowed to control this contract"
      },
      "addProxyRegistry(address)": {
        "details": "Returns the total balance minted of this type"
      },
      "allHeldTokens(address,uint256)": {
        "details": "Returns the total balance minted of this type"
      },
      "allHeldTokensLength(address)": {
        "details": "Returns the total balance minted of this type"
      },
      "allProxyRegistries(uint256)": {
        "details": "Returns the total balance minted of this type"
      },
      "allProxyRegistriesLength()": {
        "details": "Returns the total balance minted of this type"
      },
      "allTokenHolders(uint256,uint256)": {
        "details": "Returns the total balance minted of this type"
      },
      "allTokenHoldersLength(uint256)": {
        "details": "Returns the total balance minted of this type"
      },
      "balanceOf(address,uint256)": {
        "details": "See {IERC1155-balanceOf}. Requirements: - `account` cannot be the zero address."
      },
      "balanceOfBatch(address[],uint256[])": {
        "details": "See {IERC1155-balanceOfBatch}. Requirements: - `accounts` and `ids` must have the same length."
      },
      "burn(address,uint256,uint256)": {
        "details": "mint some amount of tokens. Only callable by token owner"
      },
      "constructor": {
        "details": "Contract initializer."
      },
      "getRegistryManager()": {
        "details": "Returns the total balance minted of this type"
      },
      "getTokenData(uint256)": {
        "details": "get the token data for this token id"
      },
      "isController(address)": {
        "details": "Check if this address is a controller"
      },
      "mint(address,uint256,uint256)": {
        "details": "mint some amount of tokens. Only callable by token owner"
      },
      "paused()": {
        "details": "Returns true if the contract is paused, and false otherwise."
      },
      "relinquishControl()": {
        "details": "Check if this address is a controller"
      },
      "removeProxyRegistryAt(uint256)": {
        "details": "Returns the total balance minted of this type"
      },
      "safeBatchTransferFrom(address,address,uint256[],uint256[],bytes)": {
        "details": "See {IERC1155-safeBatchTransferFrom}."
      },
      "safeTransferFrom(address,address,uint256,uint256,bytes)": {
        "details": "See {IERC1155-safeTransferFrom}."
      },
      "setApprovalForAll(address,bool)": {
        "details": "See {IERC1155-setApprovalForAll}."
      },
      "setRegistryManager(address)": {
        "details": "Returns the total balance minted of this type"
      },
      "setTokenData(uint256,uint8,address)": {
        "details": "set the data for this tokenhash. points to a token type (1 = claim, 2 = gem) and token pool address"
      },
      "supportsInterface(bytes4)": {
        "details": "See {IERC165-supportsInterface}. Time complexity O(1), guaranteed to always use less than 30 000 gas."
      },
      "totalBalances(uint256)": {
        "details": "Returns the total balance minted of this type"
      },
      "uri(uint256)": {
        "details": "Returns the metadata URI for this token type"
      }
    },
    "version": 1
  },
  "userdoc": {
    "kind": "user",
    "methods": {
      "isApprovedForAll(address,address)": {
        "notice": "Override isApprovedForAll to whitelist user's OpenSea proxy accounts to enable gas-free listings."
      }
    },
    "version": 1
  },
  "storageLayout": {
    "storage": [
      {
        "astId": 15973,
        "contract": "src/tokens/NFTGemMultiToken.sol:NFTGemMultiToken",
        "label": "_supportedInterfaces",
        "offset": 0,
        "slot": "0",
        "type": "t_mapping(t_bytes4,t_bool)"
      },
      {
        "astId": 24011,
        "contract": "src/tokens/NFTGemMultiToken.sol:NFTGemMultiToken",
        "label": "_balances",
        "offset": 0,
        "slot": "1",
        "type": "t_mapping(t_uint256,t_mapping(t_address,t_uint256))"
      },
      {
        "astId": 24017,
        "contract": "src/tokens/NFTGemMultiToken.sol:NFTGemMultiToken",
        "label": "_operatorApprovals",
        "offset": 0,
        "slot": "2",
        "type": "t_mapping(t_address,t_mapping(t_address,t_bool))"
      },
      {
        "astId": 24019,
        "contract": "src/tokens/NFTGemMultiToken.sol:NFTGemMultiToken",
        "label": "_uri",
        "offset": 0,
        "slot": "3",
        "type": "t_string_storage"
      },
      {
        "astId": 28420,
        "contract": "src/tokens/NFTGemMultiToken.sol:NFTGemMultiToken",
        "label": "_paused",
        "offset": 0,
        "slot": "4",
        "type": "t_bool"
      },
      {
        "astId": 10169,
        "contract": "src/tokens/NFTGemMultiToken.sol:NFTGemMultiToken",
        "label": "_controllers",
        "offset": 0,
        "slot": "5",
        "type": "t_mapping(t_address,t_bool)"
      },
      {
        "astId": 26895,
        "contract": "src/tokens/NFTGemMultiToken.sol:NFTGemMultiToken",
        "label": "proxyRegistries",
        "offset": 0,
        "slot": "6",
        "type": "t_struct(Set)16027_storage"
      },
      {
        "astId": 26897,
        "contract": "src/tokens/NFTGemMultiToken.sol:NFTGemMultiToken",
        "label": "registryManager",
        "offset": 0,
        "slot": "8",
        "type": "t_address"
      },
      {
        "astId": 26901,
        "contract": "src/tokens/NFTGemMultiToken.sol:NFTGemMultiToken",
        "label": "_totalBalances",
        "offset": 0,
        "slot": "9",
        "type": "t_mapping(t_uint256,t_uint256)"
      },
      {
        "astId": 26907,
        "contract": "src/tokens/NFTGemMultiToken.sol:NFTGemMultiToken",
        "label": "_tokenLocks",
        "offset": 0,
        "slot": "10",
        "type": "t_mapping(t_address,t_mapping(t_uint256,t_uint256))"
      },
      {
        "astId": 26911,
        "contract": "src/tokens/NFTGemMultiToken.sol:NFTGemMultiToken",
        "label": "_heldTokens",
        "offset": 0,
        "slot": "11",
        "type": "t_mapping(t_address,t_struct(Set)17039_storage)"
      },
      {
        "astId": 26915,
        "contract": "src/tokens/NFTGemMultiToken.sol:NFTGemMultiToken",
        "label": "_tokenHolders",
        "offset": 0,
        "slot": "12",
        "type": "t_mapping(t_uint256,t_struct(Set)16027_storage)"
      },
      {
        "astId": 26919,
        "contract": "src/tokens/NFTGemMultiToken.sol:NFTGemMultiToken",
        "label": "_tokenTypes",
        "offset": 0,
        "slot": "13",
        "type": "t_mapping(t_uint256,t_uint8)"
      },
      {
        "astId": 26923,
        "contract": "src/tokens/NFTGemMultiToken.sol:NFTGemMultiToken",
        "label": "_tokenPools",
        "offset": 0,
        "slot": "14",
        "type": "t_mapping(t_uint256,t_address)"
      }
    ],
    "types": {
      "t_address": {
        "encoding": "inplace",
        "label": "address",
        "numberOfBytes": "20"
      },
      "t_array(t_address)dyn_storage": {
        "base": "t_address",
        "encoding": "dynamic_array",
        "label": "address[]",
        "numberOfBytes": "32"
      },
      "t_array(t_uint256)dyn_storage": {
        "base": "t_uint256",
        "encoding": "dynamic_array",
        "label": "uint256[]",
        "numberOfBytes": "32"
      },
      "t_bool": {
        "encoding": "inplace",
        "label": "bool",
        "numberOfBytes": "1"
      },
      "t_bytes4": {
        "encoding": "inplace",
        "label": "bytes4",
        "numberOfBytes": "4"
      },
      "t_mapping(t_address,t_bool)": {
        "encoding": "mapping",
        "key": "t_address",
        "label": "mapping(address => bool)",
        "numberOfBytes": "32",
        "value": "t_bool"
      },
      "t_mapping(t_address,t_mapping(t_address,t_bool))": {
        "encoding": "mapping",
        "key": "t_address",
        "label": "mapping(address => mapping(address => bool))",
        "numberOfBytes": "32",
        "value": "t_mapping(t_address,t_bool)"
      },
      "t_mapping(t_address,t_mapping(t_uint256,t_uint256))": {
        "encoding": "mapping",
        "key": "t_address",
        "label": "mapping(address => mapping(uint256 => uint256))",
        "numberOfBytes": "32",
        "value": "t_mapping(t_uint256,t_uint256)"
      },
      "t_mapping(t_address,t_struct(Set)17039_storage)": {
        "encoding": "mapping",
        "key": "t_address",
        "label": "mapping(address => struct UInt256Set.Set)",
        "numberOfBytes": "32",
        "value": "t_struct(Set)17039_storage"
      },
      "t_mapping(t_address,t_uint256)": {
        "encoding": "mapping",
        "key": "t_address",
        "label": "mapping(address => uint256)",
        "numberOfBytes": "32",
        "value": "t_uint256"
      },
      "t_mapping(t_bytes4,t_bool)": {
        "encoding": "mapping",
        "key": "t_bytes4",
        "label": "mapping(bytes4 => bool)",
        "numberOfBytes": "32",
        "value": "t_bool"
      },
      "t_mapping(t_uint256,t_address)": {
        "encoding": "mapping",
        "key": "t_uint256",
        "label": "mapping(uint256 => address)",
        "numberOfBytes": "32",
        "value": "t_address"
      },
      "t_mapping(t_uint256,t_mapping(t_address,t_uint256))": {
        "encoding": "mapping",
        "key": "t_uint256",
        "label": "mapping(uint256 => mapping(address => uint256))",
        "numberOfBytes": "32",
        "value": "t_mapping(t_address,t_uint256)"
      },
      "t_mapping(t_uint256,t_struct(Set)16027_storage)": {
        "encoding": "mapping",
        "key": "t_uint256",
        "label": "mapping(uint256 => struct AddressSet.Set)",
        "numberOfBytes": "32",
        "value": "t_struct(Set)16027_storage"
      },
      "t_mapping(t_uint256,t_uint256)": {
        "encoding": "mapping",
        "key": "t_uint256",
        "label": "mapping(uint256 => uint256)",
        "numberOfBytes": "32",
        "value": "t_uint256"
      },
      "t_mapping(t_uint256,t_uint8)": {
        "encoding": "mapping",
        "key": "t_uint256",
        "label": "mapping(uint256 => uint8)",
        "numberOfBytes": "32",
        "value": "t_uint8"
      },
      "t_string_storage": {
        "encoding": "bytes",
        "label": "string",
        "numberOfBytes": "32"
      },
      "t_struct(Set)16027_storage": {
        "encoding": "inplace",
        "label": "struct AddressSet.Set",
        "members": [
          {
            "astId": 16023,
            "contract": "src/tokens/NFTGemMultiToken.sol:NFTGemMultiToken",
            "label": "keyPointers",
            "offset": 0,
            "slot": "0",
            "type": "t_mapping(t_address,t_uint256)"
          },
          {
            "astId": 16026,
            "contract": "src/tokens/NFTGemMultiToken.sol:NFTGemMultiToken",
            "label": "keyList",
            "offset": 0,
            "slot": "1",
            "type": "t_array(t_address)dyn_storage"
          }
        ],
        "numberOfBytes": "64"
      },
      "t_struct(Set)17039_storage": {
        "encoding": "inplace",
        "label": "struct UInt256Set.Set",
        "members": [
          {
            "astId": 17035,
            "contract": "src/tokens/NFTGemMultiToken.sol:NFTGemMultiToken",
            "label": "keyPointers",
            "offset": 0,
            "slot": "0",
            "type": "t_mapping(t_uint256,t_uint256)"
          },
          {
            "astId": 17038,
            "contract": "src/tokens/NFTGemMultiToken.sol:NFTGemMultiToken",
            "label": "keyList",
            "offset": 0,
            "slot": "1",
            "type": "t_array(t_uint256)dyn_storage"
          }
        ],
        "numberOfBytes": "64"
      },
      "t_uint256": {
        "encoding": "inplace",
        "label": "uint256",
        "numberOfBytes": "32"
      },
      "t_uint8": {
        "encoding": "inplace",
        "label": "uint8",
        "numberOfBytes": "1"
      }
    }
  }
}